{
	"contracts/GroupOrder.sol": {
		"GroupOrder": {
			"abi": [
				{
					"inputs": [
						{
							"internalType": "address",
							"name": "produce_",
							"type": "address"
						},
						{
							"internalType": "uint256",
							"name": "timeLimit_",
							"type": "uint256"
						},
						{
							"internalType": "uint256",
							"name": "requiredVotesToReject_",
							"type": "uint256"
						}
					],
					"stateMutability": "nonpayable",
					"type": "constructor"
				},
				{
					"anonymous": false,
					"inputs": [
						{
							"indexed": false,
							"internalType": "string",
							"name": "reason",
							"type": "string"
						}
					],
					"name": "OrderFailed",
					"type": "event"
				},
				{
					"anonymous": false,
					"inputs": [
						{
							"indexed": false,
							"internalType": "enum GroupOrder.State",
							"name": "state",
							"type": "uint8"
						}
					],
					"name": "OrderStateUpdate",
					"type": "event"
				},
				{
					"inputs": [],
					"name": "acceptOrder",
					"outputs": [],
					"stateMutability": "nonpayable",
					"type": "function"
				},
				{
					"inputs": [],
					"name": "endTime",
					"outputs": [
						{
							"internalType": "uint256",
							"name": "",
							"type": "uint256"
						}
					],
					"stateMutability": "view",
					"type": "function"
				},
				{
					"inputs": [],
					"name": "groupOrderHash",
					"outputs": [
						{
							"internalType": "bytes32",
							"name": "",
							"type": "bytes32"
						}
					],
					"stateMutability": "view",
					"type": "function"
				},
				{
					"inputs": [],
					"name": "minimumTimeLimit",
					"outputs": [
						{
							"internalType": "uint256",
							"name": "",
							"type": "uint256"
						}
					],
					"stateMutability": "view",
					"type": "function"
				},
				{
					"inputs": [],
					"name": "placeOrder",
					"outputs": [
						{
							"internalType": "bool",
							"name": "orderplaced",
							"type": "bool"
						}
					],
					"stateMutability": "payable",
					"type": "function"
				},
				{
					"inputs": [],
					"name": "portionsAgreed",
					"outputs": [
						{
							"internalType": "uint256",
							"name": "",
							"type": "uint256"
						}
					],
					"stateMutability": "view",
					"type": "function"
				},
				{
					"inputs": [],
					"name": "portionsPerPerson",
					"outputs": [
						{
							"internalType": "uint256",
							"name": "",
							"type": "uint256"
						}
					],
					"stateMutability": "view",
					"type": "function"
				},
				{
					"inputs": [],
					"name": "produce",
					"outputs": [
						{
							"internalType": "contract Produce",
							"name": "",
							"type": "address"
						}
					],
					"stateMutability": "view",
					"type": "function"
				},
				{
					"inputs": [],
					"name": "rejectOrder",
					"outputs": [],
					"stateMutability": "nonpayable",
					"type": "function"
				},
				{
					"inputs": [],
					"name": "requiredVotesToReject",
					"outputs": [
						{
							"internalType": "uint256",
							"name": "",
							"type": "uint256"
						}
					],
					"stateMutability": "view",
					"type": "function"
				},
				{
					"inputs": [],
					"name": "startTime",
					"outputs": [
						{
							"internalType": "uint256",
							"name": "",
							"type": "uint256"
						}
					],
					"stateMutability": "view",
					"type": "function"
				},
				{
					"inputs": [],
					"name": "state",
					"outputs": [
						{
							"internalType": "enum GroupOrder.State",
							"name": "",
							"type": "uint8"
						}
					],
					"stateMutability": "view",
					"type": "function"
				},
				{
					"inputs": [],
					"name": "timeOutGroupOrder",
					"outputs": [],
					"stateMutability": "nonpayable",
					"type": "function"
				},
				{
					"inputs": [],
					"name": "voteToReject",
					"outputs": [],
					"stateMutability": "nonpayable",
					"type": "function"
				},
				{
					"inputs": [],
					"name": "votesToReject",
					"outputs": [
						{
							"internalType": "uint256",
							"name": "",
							"type": "uint256"
						}
					],
					"stateMutability": "view",
					"type": "function"
				},
				{
					"inputs": [],
					"name": "withdrawFunds",
					"outputs": [],
					"stateMutability": "nonpayable",
					"type": "function"
				}
			],
			"devdoc": {
				"kind": "dev",
				"methods": {},
				"version": 1
			},
			"evm": {
				"assembly": "    /* \"contracts/GroupOrder.sol\":140:4512  contract GroupOrder {... */\n  mstore(0x40, 0x80)\n    /* \"contracts/GroupOrder.sol\":808:809  0 */\n  0x00\n    /* \"contracts/GroupOrder.sol\":777:809  uint256 public votesToReject = 0 */\n  0x07\n  sstore\n    /* \"contracts/GroupOrder.sol\":964:1331  constructor(address produce_, uint256 timeLimit_, uint256 requiredVotesToReject_) {... */\n  callvalue\n  dup1\n  iszero\n  tag_1\n  jumpi\n  0x00\n  dup1\n  revert\ntag_1:\n  pop\n  mload(0x40)\n  sub(codesize, bytecodeSize)\n  dup1\n  bytecodeSize\n  dup4\n  codecopy\n  dup2\n  dup2\n  add\n  0x40\n  mstore\n  dup2\n  add\n  swap1\n  tag_2\n  swap2\n  swap1\n  tag_3\n  jump\t// in\ntag_2:\n    /* \"contracts/GroupOrder.sol\":448:464  25 * (3 * 10**6) */\n  0x047868c0\n    /* \"contracts/GroupOrder.sol\":1064:1074  timeLimit_ */\n  dup3\n    /* \"contracts/GroupOrder.sol\":1064:1093  timeLimit_ > minimumTimeLimit */\n  gt\n    /* \"contracts/GroupOrder.sol\":1056:1124  require(timeLimit_ > minimumTimeLimit, \"time limit not high enough\") */\n  tag_6\n  jumpi\n  mload(0x40)\n  0x08c379a000000000000000000000000000000000000000000000000000000000\n  dup2\n  mstore\n  0x04\n  add\n  tag_7\n  swap1\n  tag_8\n  jump\t// in\ntag_7:\n  mload(0x40)\n  dup1\n  swap2\n  sub\n  swap1\n  revert\ntag_6:\n    /* \"contracts/GroupOrder.sol\":1152:1160  produce_ */\n  dup3\n    /* \"contracts/GroupOrder.sol\":1134:1141  produce */\n  0x00\n  dup1\n    /* \"contracts/GroupOrder.sol\":1134:1161  produce = Produce(produce_) */\n  0x0100\n  exp\n  dup2\n  sload\n  dup2\n  0xffffffffffffffffffffffffffffffffffffffff\n  mul\n  not\n  and\n  swap1\n  dup4\n  0xffffffffffffffffffffffffffffffffffffffff\n  and\n  mul\n  or\n  swap1\n  sstore\n  pop\n    /* \"contracts/GroupOrder.sol\":1195:1217  requiredVotesToReject_ */\n  dup1\n    /* \"contracts/GroupOrder.sol\":1171:1192  requiredVotesToReject */\n  0x06\n    /* \"contracts/GroupOrder.sol\":1171:1217  requiredVotesToReject = requiredVotesToReject_ */\n  dup2\n  swap1\n  sstore\n  pop\n    /* \"contracts/GroupOrder.sol\":1239:1254  block.timestamp */\n  timestamp\n    /* \"contracts/GroupOrder.sol\":1227:1236  startTime */\n  0x03\n    /* \"contracts/GroupOrder.sol\":1227:1254  startTime = block.timestamp */\n  dup2\n  swap1\n  sstore\n  pop\n    /* \"contracts/GroupOrder.sol\":1286:1296  timeLimit_ */\n  dup2\n    /* \"contracts/GroupOrder.sol\":1274:1283  startTime */\n  sload(0x03)\n    /* \"contracts/GroupOrder.sol\":1274:1296  startTime + timeLimit_ */\n  tag_9\n  swap2\n  swap1\n  tag_10\n  jump\t// in\ntag_9:\n    /* \"contracts/GroupOrder.sol\":1264:1271  endTime */\n  0x04\n    /* \"contracts/GroupOrder.sol\":1264:1296  endTime = startTime + timeLimit_ */\n  dup2\n  swap1\n  sstore\n  pop\n    /* \"contracts/GroupOrder.sol\":1314:1324  State.OPEN */\n  0x00\n    /* \"contracts/GroupOrder.sol\":1306:1311  state */\n  0x08\n  0x00\n    /* \"contracts/GroupOrder.sol\":1306:1324  state = State.OPEN */\n  0x0100\n  exp\n  dup2\n  sload\n  dup2\n  0xff\n  mul\n  not\n  and\n  swap1\n  dup4\n  0x03\n  dup2\n  gt\n  iszero\n  tag_11\n  jumpi\n  tag_12\n  tag_13\n  jump\t// in\ntag_12:\ntag_11:\n  mul\n  or\n  swap1\n  sstore\n  pop\n    /* \"contracts/GroupOrder.sol\":964:1331  constructor(address produce_, uint256 timeLimit_, uint256 requiredVotesToReject_) {... */\n  pop\n  pop\n  pop\n    /* \"contracts/GroupOrder.sol\":140:4512  contract GroupOrder {... */\n  jump(tag_14)\n    /* \"#utility.yul\":88:205   */\ntag_16:\n    /* \"#utility.yul\":197:198   */\n  0x00\n    /* \"#utility.yul\":194:195   */\n  dup1\n    /* \"#utility.yul\":187:199   */\n  revert\n    /* \"#utility.yul\":334:460   */\ntag_18:\n    /* \"#utility.yul\":371:378   */\n  0x00\n    /* \"#utility.yul\":411:453   */\n  0xffffffffffffffffffffffffffffffffffffffff\n    /* \"#utility.yul\":404:409   */\n  dup3\n    /* \"#utility.yul\":400:454   */\n  and\n    /* \"#utility.yul\":389:454   */\n  swap1\n  pop\n    /* \"#utility.yul\":334:460   */\n  swap2\n  swap1\n  pop\n  jump\t// out\n    /* \"#utility.yul\":466:562   */\ntag_19:\n    /* \"#utility.yul\":503:510   */\n  0x00\n    /* \"#utility.yul\":532:556   */\n  tag_35\n    /* \"#utility.yul\":550:555   */\n  dup3\n    /* \"#utility.yul\":532:556   */\n  tag_18\n  jump\t// in\ntag_35:\n    /* \"#utility.yul\":521:556   */\n  swap1\n  pop\n    /* \"#utility.yul\":466:562   */\n  swap2\n  swap1\n  pop\n  jump\t// out\n    /* \"#utility.yul\":568:690   */\ntag_20:\n    /* \"#utility.yul\":641:665   */\n  tag_37\n    /* \"#utility.yul\":659:664   */\n  dup2\n    /* \"#utility.yul\":641:665   */\n  tag_19\n  jump\t// in\ntag_37:\n    /* \"#utility.yul\":634:639   */\n  dup2\n    /* \"#utility.yul\":631:666   */\n  eq\n    /* \"#utility.yul\":621:684   */\n  tag_38\n  jumpi\n    /* \"#utility.yul\":680:681   */\n  0x00\n    /* \"#utility.yul\":677:678   */\n  dup1\n    /* \"#utility.yul\":670:682   */\n  revert\n    /* \"#utility.yul\":621:684   */\ntag_38:\n    /* \"#utility.yul\":568:690   */\n  pop\n  jump\t// out\n    /* \"#utility.yul\":696:839   */\ntag_21:\n    /* \"#utility.yul\":753:758   */\n  0x00\n    /* \"#utility.yul\":784:790   */\n  dup2\n    /* \"#utility.yul\":778:791   */\n  mload\n    /* \"#utility.yul\":769:791   */\n  swap1\n  pop\n    /* \"#utility.yul\":800:833   */\n  tag_40\n    /* \"#utility.yul\":827:832   */\n  dup2\n    /* \"#utility.yul\":800:833   */\n  tag_20\n  jump\t// in\ntag_40:\n    /* \"#utility.yul\":696:839   */\n  swap3\n  swap2\n  pop\n  pop\n  jump\t// out\n    /* \"#utility.yul\":845:922   */\ntag_22:\n    /* \"#utility.yul\":882:889   */\n  0x00\n    /* \"#utility.yul\":911:916   */\n  dup2\n    /* \"#utility.yul\":900:916   */\n  swap1\n  pop\n    /* \"#utility.yul\":845:922   */\n  swap2\n  swap1\n  pop\n  jump\t// out\n    /* \"#utility.yul\":928:1050   */\ntag_23:\n    /* \"#utility.yul\":1001:1025   */\n  tag_43\n    /* \"#utility.yul\":1019:1024   */\n  dup2\n    /* \"#utility.yul\":1001:1025   */\n  tag_22\n  jump\t// in\ntag_43:\n    /* \"#utility.yul\":994:999   */\n  dup2\n    /* \"#utility.yul\":991:1026   */\n  eq\n    /* \"#utility.yul\":981:1044   */\n  tag_44\n  jumpi\n    /* \"#utility.yul\":1040:1041   */\n  0x00\n    /* \"#utility.yul\":1037:1038   */\n  dup1\n    /* \"#utility.yul\":1030:1042   */\n  revert\n    /* \"#utility.yul\":981:1044   */\ntag_44:\n    /* \"#utility.yul\":928:1050   */\n  pop\n  jump\t// out\n    /* \"#utility.yul\":1056:1199   */\ntag_24:\n    /* \"#utility.yul\":1113:1118   */\n  0x00\n    /* \"#utility.yul\":1144:1150   */\n  dup2\n    /* \"#utility.yul\":1138:1151   */\n  mload\n    /* \"#utility.yul\":1129:1151   */\n  swap1\n  pop\n    /* \"#utility.yul\":1160:1193   */\n  tag_46\n    /* \"#utility.yul\":1187:1192   */\n  dup2\n    /* \"#utility.yul\":1160:1193   */\n  tag_23\n  jump\t// in\ntag_46:\n    /* \"#utility.yul\":1056:1199   */\n  swap3\n  swap2\n  pop\n  pop\n  jump\t// out\n    /* \"#utility.yul\":1205:1868   */\ntag_3:\n    /* \"#utility.yul\":1293:1299   */\n  0x00\n    /* \"#utility.yul\":1301:1307   */\n  dup1\n    /* \"#utility.yul\":1309:1315   */\n  0x00\n    /* \"#utility.yul\":1358:1360   */\n  0x60\n    /* \"#utility.yul\":1346:1355   */\n  dup5\n    /* \"#utility.yul\":1337:1344   */\n  dup7\n    /* \"#utility.yul\":1333:1356   */\n  sub\n    /* \"#utility.yul\":1329:1361   */\n  slt\n    /* \"#utility.yul\":1326:1445   */\n  iszero\n  tag_48\n  jumpi\n    /* \"#utility.yul\":1364:1443   */\n  tag_49\n  tag_16\n  jump\t// in\ntag_49:\n    /* \"#utility.yul\":1326:1445   */\ntag_48:\n    /* \"#utility.yul\":1484:1485   */\n  0x00\n    /* \"#utility.yul\":1509:1573   */\n  tag_50\n    /* \"#utility.yul\":1565:1572   */\n  dup7\n    /* \"#utility.yul\":1556:1562   */\n  dup3\n    /* \"#utility.yul\":1545:1554   */\n  dup8\n    /* \"#utility.yul\":1541:1563   */\n  add\n    /* \"#utility.yul\":1509:1573   */\n  tag_21\n  jump\t// in\ntag_50:\n    /* \"#utility.yul\":1499:1573   */\n  swap4\n  pop\n    /* \"#utility.yul\":1455:1583   */\n  pop\n    /* \"#utility.yul\":1622:1624   */\n  0x20\n    /* \"#utility.yul\":1648:1712   */\n  tag_51\n    /* \"#utility.yul\":1704:1711   */\n  dup7\n    /* \"#utility.yul\":1695:1701   */\n  dup3\n    /* \"#utility.yul\":1684:1693   */\n  dup8\n    /* \"#utility.yul\":1680:1702   */\n  add\n    /* \"#utility.yul\":1648:1712   */\n  tag_24\n  jump\t// in\ntag_51:\n    /* \"#utility.yul\":1638:1712   */\n  swap3\n  pop\n    /* \"#utility.yul\":1593:1722   */\n  pop\n    /* \"#utility.yul\":1761:1763   */\n  0x40\n    /* \"#utility.yul\":1787:1851   */\n  tag_52\n    /* \"#utility.yul\":1843:1850   */\n  dup7\n    /* \"#utility.yul\":1834:1840   */\n  dup3\n    /* \"#utility.yul\":1823:1832   */\n  dup8\n    /* \"#utility.yul\":1819:1841   */\n  add\n    /* \"#utility.yul\":1787:1851   */\n  tag_24\n  jump\t// in\ntag_52:\n    /* \"#utility.yul\":1777:1851   */\n  swap2\n  pop\n    /* \"#utility.yul\":1732:1861   */\n  pop\n    /* \"#utility.yul\":1205:1868   */\n  swap3\n  pop\n  swap3\n  pop\n  swap3\n  jump\t// out\n    /* \"#utility.yul\":1874:2043   */\ntag_25:\n    /* \"#utility.yul\":1958:1969   */\n  0x00\n    /* \"#utility.yul\":1992:1998   */\n  dup3\n    /* \"#utility.yul\":1987:1990   */\n  dup3\n    /* \"#utility.yul\":1980:1999   */\n  mstore\n    /* \"#utility.yul\":2032:2036   */\n  0x20\n    /* \"#utility.yul\":2027:2030   */\n  dup3\n    /* \"#utility.yul\":2023:2037   */\n  add\n    /* \"#utility.yul\":2008:2037   */\n  swap1\n  pop\n    /* \"#utility.yul\":1874:2043   */\n  swap3\n  swap2\n  pop\n  pop\n  jump\t// out\n    /* \"#utility.yul\":2049:2225   */\ntag_26:\n    /* \"#utility.yul\":2189:2217   */\n  0x74696d65206c696d6974206e6f74206869676820656e6f756768000000000000\n    /* \"#utility.yul\":2185:2186   */\n  0x00\n    /* \"#utility.yul\":2177:2183   */\n  dup3\n    /* \"#utility.yul\":2173:2187   */\n  add\n    /* \"#utility.yul\":2166:2218   */\n  mstore\n    /* \"#utility.yul\":2049:2225   */\n  pop\n  jump\t// out\n    /* \"#utility.yul\":2231:2597   */\ntag_27:\n    /* \"#utility.yul\":2373:2376   */\n  0x00\n    /* \"#utility.yul\":2394:2461   */\n  tag_56\n    /* \"#utility.yul\":2458:2460   */\n  0x1a\n    /* \"#utility.yul\":2453:2456   */\n  dup4\n    /* \"#utility.yul\":2394:2461   */\n  tag_25\n  jump\t// in\ntag_56:\n    /* \"#utility.yul\":2387:2461   */\n  swap2\n  pop\n    /* \"#utility.yul\":2470:2563   */\n  tag_57\n    /* \"#utility.yul\":2559:2562   */\n  dup3\n    /* \"#utility.yul\":2470:2563   */\n  tag_26\n  jump\t// in\ntag_57:\n    /* \"#utility.yul\":2588:2590   */\n  0x20\n    /* \"#utility.yul\":2583:2586   */\n  dup3\n    /* \"#utility.yul\":2579:2591   */\n  add\n    /* \"#utility.yul\":2572:2591   */\n  swap1\n  pop\n    /* \"#utility.yul\":2231:2597   */\n  swap2\n  swap1\n  pop\n  jump\t// out\n    /* \"#utility.yul\":2603:3022   */\ntag_8:\n    /* \"#utility.yul\":2769:2773   */\n  0x00\n    /* \"#utility.yul\":2807:2809   */\n  0x20\n    /* \"#utility.yul\":2796:2805   */\n  dup3\n    /* \"#utility.yul\":2792:2810   */\n  add\n    /* \"#utility.yul\":2784:2810   */\n  swap1\n  pop\n    /* \"#utility.yul\":2856:2865   */\n  dup2\n    /* \"#utility.yul\":2850:2854   */\n  dup2\n    /* \"#utility.yul\":2846:2866   */\n  sub\n    /* \"#utility.yul\":2842:2843   */\n  0x00\n    /* \"#utility.yul\":2831:2840   */\n  dup4\n    /* \"#utility.yul\":2827:2844   */\n  add\n    /* \"#utility.yul\":2820:2867   */\n  mstore\n    /* \"#utility.yul\":2884:3015   */\n  tag_59\n    /* \"#utility.yul\":3010:3014   */\n  dup2\n    /* \"#utility.yul\":2884:3015   */\n  tag_27\n  jump\t// in\ntag_59:\n    /* \"#utility.yul\":2876:3015   */\n  swap1\n  pop\n    /* \"#utility.yul\":2603:3022   */\n  swap2\n  swap1\n  pop\n  jump\t// out\n    /* \"#utility.yul\":3028:3208   */\ntag_28:\n    /* \"#utility.yul\":3076:3153   */\n  0x4e487b7100000000000000000000000000000000000000000000000000000000\n    /* \"#utility.yul\":3073:3074   */\n  0x00\n    /* \"#utility.yul\":3066:3154   */\n  mstore\n    /* \"#utility.yul\":3173:3177   */\n  0x11\n    /* \"#utility.yul\":3170:3171   */\n  0x04\n    /* \"#utility.yul\":3163:3178   */\n  mstore\n    /* \"#utility.yul\":3197:3201   */\n  0x24\n    /* \"#utility.yul\":3194:3195   */\n  0x00\n    /* \"#utility.yul\":3187:3202   */\n  revert\n    /* \"#utility.yul\":3214:3405   */\ntag_10:\n    /* \"#utility.yul\":3254:3257   */\n  0x00\n    /* \"#utility.yul\":3273:3293   */\n  tag_62\n    /* \"#utility.yul\":3291:3292   */\n  dup3\n    /* \"#utility.yul\":3273:3293   */\n  tag_22\n  jump\t// in\ntag_62:\n    /* \"#utility.yul\":3268:3293   */\n  swap2\n  pop\n    /* \"#utility.yul\":3307:3327   */\n  tag_63\n    /* \"#utility.yul\":3325:3326   */\n  dup4\n    /* \"#utility.yul\":3307:3327   */\n  tag_22\n  jump\t// in\ntag_63:\n    /* \"#utility.yul\":3302:3327   */\n  swap3\n  pop\n    /* \"#utility.yul\":3350:3351   */\n  dup3\n    /* \"#utility.yul\":3347:3348   */\n  dup3\n    /* \"#utility.yul\":3343:3352   */\n  add\n    /* \"#utility.yul\":3336:3352   */\n  swap1\n  pop\n    /* \"#utility.yul\":3371:3374   */\n  dup1\n    /* \"#utility.yul\":3368:3369   */\n  dup3\n    /* \"#utility.yul\":3365:3375   */\n  gt\n    /* \"#utility.yul\":3362:3398   */\n  iszero\n  tag_64\n  jumpi\n    /* \"#utility.yul\":3378:3396   */\n  tag_65\n  tag_28\n  jump\t// in\ntag_65:\n    /* \"#utility.yul\":3362:3398   */\ntag_64:\n    /* \"#utility.yul\":3214:3405   */\n  swap3\n  swap2\n  pop\n  pop\n  jump\t// out\n    /* \"#utility.yul\":3411:3591   */\ntag_13:\n    /* \"#utility.yul\":3459:3536   */\n  0x4e487b7100000000000000000000000000000000000000000000000000000000\n    /* \"#utility.yul\":3456:3457   */\n  0x00\n    /* \"#utility.yul\":3449:3537   */\n  mstore\n    /* \"#utility.yul\":3556:3560   */\n  0x21\n    /* \"#utility.yul\":3553:3554   */\n  0x04\n    /* \"#utility.yul\":3546:3561   */\n  mstore\n    /* \"#utility.yul\":3580:3584   */\n  0x24\n    /* \"#utility.yul\":3577:3578   */\n  0x00\n    /* \"#utility.yul\":3570:3585   */\n  revert\n    /* \"contracts/GroupOrder.sol\":140:4512  contract GroupOrder {... */\ntag_14:\n  dataSize(sub_0)\n  dup1\n  dataOffset(sub_0)\n  0x00\n  codecopy\n  0x00\n  return\nstop\n\nsub_0: assembly {\n        /* \"contracts/GroupOrder.sol\":140:4512  contract GroupOrder {... */\n      mstore(0x40, 0x80)\n      jumpi(tag_1, lt(calldatasize, 0x04))\n      shr(0xe0, calldataload(0x00))\n      dup1\n      0x4b436ae6\n      gt\n      tag_18\n      jumpi\n      dup1\n      0xc19d93fb\n      gt\n      tag_19\n      jumpi\n      dup1\n      0xc19d93fb\n      eq\n      tag_14\n      jumpi\n      dup1\n      0xd008902c\n      eq\n      tag_15\n      jumpi\n      dup1\n      0xf56b3ad5\n      eq\n      tag_16\n      jumpi\n      dup1\n      0xf5c609e0\n      eq\n      tag_17\n      jumpi\n      jump(tag_1)\n    tag_19:\n      dup1\n      0x4b436ae6\n      eq\n      tag_10\n      jumpi\n      dup1\n      0x5f29a5ee\n      eq\n      tag_11\n      jumpi\n      dup1\n      0x656b9952\n      eq\n      tag_12\n      jumpi\n      dup1\n      0x78e97925\n      eq\n      tag_13\n      jumpi\n      jump(tag_1)\n    tag_18:\n      dup1\n      0x24600fc3\n      gt\n      tag_20\n      jumpi\n      dup1\n      0x24600fc3\n      eq\n      tag_6\n      jumpi\n      dup1\n      0x2e6d9662\n      eq\n      tag_7\n      jumpi\n      dup1\n      0x3197cbb6\n      eq\n      tag_8\n      jumpi\n      dup1\n      0x40c78e98\n      eq\n      tag_9\n      jumpi\n      jump(tag_1)\n    tag_20:\n      dup1\n      0xb2d43b\n      eq\n      tag_2\n      jumpi\n      dup1\n      0x13fc80d3\n      eq\n      tag_3\n      jumpi\n      dup1\n      0x18491f0c\n      eq\n      tag_4\n      jumpi\n      dup1\n      0x2110b78b\n      eq\n      tag_5\n      jumpi\n    tag_1:\n      0x00\n      dup1\n      revert\n        /* \"contracts/GroupOrder.sol\":405:464  uint256 public constant minimumTimeLimit = 25 * (3 * 10**6) */\n    tag_2:\n      callvalue\n      dup1\n      iszero\n      tag_21\n      jumpi\n      0x00\n      dup1\n      revert\n    tag_21:\n      pop\n      tag_22\n      tag_23\n      jump\t// in\n    tag_22:\n      mload(0x40)\n      tag_24\n      swap2\n      swap1\n      tag_25\n      jump\t// in\n    tag_24:\n      mload(0x40)\n      dup1\n      swap2\n      sub\n      swap1\n      return\n        /* \"contracts/GroupOrder.sol\":3198:3579  function acceptOrder() external {... */\n    tag_3:\n      callvalue\n      dup1\n      iszero\n      tag_26\n      jumpi\n      0x00\n      dup1\n      revert\n    tag_26:\n      pop\n      tag_27\n      tag_28\n      jump\t// in\n    tag_27:\n      stop\n        /* \"contracts/GroupOrder.sol\":514:543  bytes32 public groupOrderHash */\n    tag_4:\n      callvalue\n      dup1\n      iszero\n      tag_29\n      jumpi\n      0x00\n      dup1\n      revert\n    tag_29:\n      pop\n      tag_30\n      tag_31\n      jump\t// in\n    tag_30:\n      mload(0x40)\n      tag_32\n      swap2\n      swap1\n      tag_33\n      jump\t// in\n    tag_32:\n      mload(0x40)\n      dup1\n      swap2\n      sub\n      swap1\n      return\n        /* \"contracts/GroupOrder.sol\":309:341  uint256 public portionsPerPerson */\n    tag_5:\n      callvalue\n      dup1\n      iszero\n      tag_34\n      jumpi\n      0x00\n      dup1\n      revert\n    tag_34:\n      pop\n      tag_35\n      tag_36\n      jump\t// in\n    tag_35:\n      mload(0x40)\n      tag_37\n      swap2\n      swap1\n      tag_25\n      jump\t// in\n    tag_37:\n      mload(0x40)\n      dup1\n      swap2\n      sub\n      swap1\n      return\n        /* \"contracts/GroupOrder.sol\":4184:4509  function withdrawFunds() external {... */\n    tag_6:\n      callvalue\n      dup1\n      iszero\n      tag_38\n      jumpi\n      0x00\n      dup1\n      revert\n    tag_38:\n      pop\n      tag_39\n      tag_40\n      jump\t// in\n    tag_39:\n      stop\n        /* \"contracts/GroupOrder.sol\":3628:4065  function voteToReject() external {... */\n    tag_7:\n      callvalue\n      dup1\n      iszero\n      tag_41\n      jumpi\n      0x00\n      dup1\n      revert\n    tag_41:\n      pop\n      tag_42\n      tag_43\n      jump\t// in\n    tag_42:\n      stop\n        /* \"contracts/GroupOrder.sol\":377:399  uint256 public endTime */\n    tag_8:\n      callvalue\n      dup1\n      iszero\n      tag_44\n      jumpi\n      0x00\n      dup1\n      revert\n    tag_44:\n      pop\n      tag_45\n      tag_46\n      jump\t// in\n    tag_45:\n      mload(0x40)\n      tag_47\n      swap2\n      swap1\n      tag_25\n      jump\t// in\n    tag_47:\n      mload(0x40)\n      dup1\n      swap2\n      sub\n      swap1\n      return\n        /* \"contracts/GroupOrder.sol\":1417:1779  function timeOutGroupOrder() external {... */\n    tag_9:\n      callvalue\n      dup1\n      iszero\n      tag_48\n      jumpi\n      0x00\n      dup1\n      revert\n    tag_48:\n      pop\n      tag_49\n      tag_50\n      jump\t// in\n    tag_49:\n      stop\n        /* \"contracts/GroupOrder.sol\":777:809  uint256 public votesToReject = 0 */\n    tag_10:\n      callvalue\n      dup1\n      iszero\n      tag_51\n      jumpi\n      0x00\n      dup1\n      revert\n    tag_51:\n      pop\n      tag_52\n      tag_53\n      jump\t// in\n    tag_52:\n      mload(0x40)\n      tag_54\n      swap2\n      swap1\n      tag_25\n      jump\t// in\n    tag_54:\n      mload(0x40)\n      dup1\n      swap2\n      sub\n      swap1\n      return\n        /* \"contracts/GroupOrder.sol\":2849:3137  function rejectOrder() external {... */\n    tag_11:\n      callvalue\n      dup1\n      iszero\n      tag_55\n      jumpi\n      0x00\n      dup1\n      revert\n    tag_55:\n      pop\n      tag_56\n      tag_57\n      jump\t// in\n    tag_56:\n      stop\n        /* \"contracts/GroupOrder.sol\":246:268  Produce public produce */\n    tag_12:\n      callvalue\n      dup1\n      iszero\n      tag_58\n      jumpi\n      0x00\n      dup1\n      revert\n    tag_58:\n      pop\n      tag_59\n      tag_60\n      jump\t// in\n    tag_59:\n      mload(0x40)\n      tag_61\n      swap2\n      swap1\n      tag_62\n      jump\t// in\n    tag_61:\n      mload(0x40)\n      dup1\n      swap2\n      sub\n      swap1\n      return\n        /* \"contracts/GroupOrder.sol\":347:371  uint256 public startTime */\n    tag_13:\n      callvalue\n      dup1\n      iszero\n      tag_63\n      jumpi\n      0x00\n      dup1\n      revert\n    tag_63:\n      pop\n      tag_64\n      tag_65\n      jump\t// in\n    tag_64:\n      mload(0x40)\n      tag_66\n      swap2\n      swap1\n      tag_25\n      jump\t// in\n    tag_66:\n      mload(0x40)\n      dup1\n      swap2\n      sub\n      swap1\n      return\n        /* \"contracts/GroupOrder.sol\":901:919  State public state */\n    tag_14:\n      callvalue\n      dup1\n      iszero\n      tag_67\n      jumpi\n      0x00\n      dup1\n      revert\n    tag_67:\n      pop\n      tag_68\n      tag_69\n      jump\t// in\n    tag_68:\n      mload(0x40)\n      tag_70\n      swap2\n      swap1\n      tag_71\n      jump\t// in\n    tag_70:\n      mload(0x40)\n      dup1\n      swap2\n      sub\n      swap1\n      return\n        /* \"contracts/GroupOrder.sol\":672:708  uint256 public requiredVotesToReject */\n    tag_15:\n      callvalue\n      dup1\n      iszero\n      tag_72\n      jumpi\n      0x00\n      dup1\n      revert\n    tag_72:\n      pop\n      tag_73\n      tag_74\n      jump\t// in\n    tag_73:\n      mload(0x40)\n      tag_75\n      swap2\n      swap1\n      tag_25\n      jump\t// in\n    tag_75:\n      mload(0x40)\n      dup1\n      swap2\n      sub\n      swap1\n      return\n        /* \"contracts/GroupOrder.sol\":274:303  uint256 public portionsAgreed */\n    tag_16:\n      callvalue\n      dup1\n      iszero\n      tag_76\n      jumpi\n      0x00\n      dup1\n      revert\n    tag_76:\n      pop\n      tag_77\n      tag_78\n      jump\t// in\n    tag_77:\n      mload(0x40)\n      tag_79\n      swap2\n      swap1\n      tag_25\n      jump\t// in\n    tag_79:\n      mload(0x40)\n      dup1\n      swap2\n      sub\n      swap1\n      return\n        /* \"contracts/GroupOrder.sol\":1858:2768  function placeOrder()... */\n    tag_17:\n      tag_80\n      tag_81\n      jump\t// in\n    tag_80:\n      mload(0x40)\n      tag_82\n      swap2\n      swap1\n      tag_83\n      jump\t// in\n    tag_82:\n      mload(0x40)\n      dup1\n      swap2\n      sub\n      swap1\n      return\n        /* \"contracts/GroupOrder.sol\":405:464  uint256 public constant minimumTimeLimit = 25 * (3 * 10**6) */\n    tag_23:\n        /* \"contracts/GroupOrder.sol\":448:464  25 * (3 * 10**6) */\n      0x047868c0\n        /* \"contracts/GroupOrder.sol\":405:464  uint256 public constant minimumTimeLimit = 25 * (3 * 10**6) */\n      dup2\n      jump\t// out\n        /* \"contracts/GroupOrder.sol\":3198:3579  function acceptOrder() external {... */\n    tag_28:\n        /* \"contracts/GroupOrder.sol\":3257:3270  State.PENDING */\n      0x01\n        /* \"contracts/GroupOrder.sol\":3248:3270  state == State.PENDING */\n      0x03\n      dup2\n      gt\n      iszero\n      tag_85\n      jumpi\n      tag_86\n      tag_87\n      jump\t// in\n    tag_86:\n    tag_85:\n        /* \"contracts/GroupOrder.sol\":3248:3253  state */\n      0x08\n      0x00\n      swap1\n      sload\n      swap1\n      0x0100\n      exp\n      swap1\n      div\n      0xff\n      and\n        /* \"contracts/GroupOrder.sol\":3248:3270  state == State.PENDING */\n      0x03\n      dup2\n      gt\n      iszero\n      tag_88\n      jumpi\n      tag_89\n      tag_87\n      jump\t// in\n    tag_89:\n    tag_88:\n      eq\n        /* \"contracts/GroupOrder.sol\":3240:3271  require(state == State.PENDING) */\n      tag_90\n      jumpi\n      0x00\n      dup1\n      revert\n    tag_90:\n        /* \"contracts/GroupOrder.sol\":3316:3323  produce */\n      0x00\n      dup1\n      sload\n      swap1\n      0x0100\n      exp\n      swap1\n      div\n      0xffffffffffffffffffffffffffffffffffffffff\n      and\n        /* \"contracts/GroupOrder.sol\":3316:3330  produce.farmer */\n      0xffffffffffffffffffffffffffffffffffffffff\n      and\n      0xd811fcf0\n        /* \"contracts/GroupOrder.sol\":3316:3332  produce.farmer() */\n      mload(0x40)\n      dup2\n      0xffffffff\n      and\n      0xe0\n      shl\n      dup2\n      mstore\n      0x04\n      add\n      0x20\n      mload(0x40)\n      dup1\n      dup4\n      sub\n      dup2\n      dup7\n      gas\n      staticcall\n      iszero\n      dup1\n      iszero\n      tag_92\n      jumpi\n      returndatasize\n      0x00\n      dup1\n      returndatacopy\n      revert(0x00, returndatasize)\n    tag_92:\n      pop\n      pop\n      pop\n      pop\n      mload(0x40)\n      returndatasize\n      not(0x1f)\n      0x1f\n      dup3\n      add\n      and\n      dup3\n      add\n      dup1\n      0x40\n      mstore\n      pop\n      dup2\n      add\n      swap1\n      tag_93\n      swap2\n      swap1\n      tag_94\n      jump\t// in\n    tag_93:\n        /* \"contracts/GroupOrder.sol\":3302:3332  msg.sender == produce.farmer() */\n      0xffffffffffffffffffffffffffffffffffffffff\n      and\n        /* \"contracts/GroupOrder.sol\":3302:3312  msg.sender */\n      caller\n        /* \"contracts/GroupOrder.sol\":3302:3332  msg.sender == produce.farmer() */\n      0xffffffffffffffffffffffffffffffffffffffff\n      and\n      eq\n        /* \"contracts/GroupOrder.sol\":3281:3428  require(... */\n      tag_95\n      jumpi\n      mload(0x40)\n      0x08c379a000000000000000000000000000000000000000000000000000000000\n      dup2\n      mstore\n      0x04\n      add\n      tag_96\n      swap1\n      tag_97\n      jump\t// in\n    tag_96:\n      mload(0x40)\n      dup1\n      swap2\n      sub\n      swap1\n      revert\n    tag_95:\n        /* \"contracts/GroupOrder.sol\":3446:3456  State.SENT */\n      0x03\n        /* \"contracts/GroupOrder.sol\":3438:3443  state */\n      0x08\n      0x00\n        /* \"contracts/GroupOrder.sol\":3438:3456  state = State.SENT */\n      0x0100\n      exp\n      dup2\n      sload\n      dup2\n      0xff\n      mul\n      not\n      and\n      swap1\n      dup4\n      0x03\n      dup2\n      gt\n      iszero\n      tag_98\n      jumpi\n      tag_99\n      tag_87\n      jump\t// in\n    tag_99:\n    tag_98:\n      mul\n      or\n      swap1\n      sstore\n      pop\n        /* \"contracts/GroupOrder.sol\":3471:3494  OrderStateUpdate(state) */\n      0x246f97586713cf6803bc7c189486b4345be349cee213b4cae772d5052ab5f059\n        /* \"contracts/GroupOrder.sol\":3488:3493  state */\n      0x08\n      0x00\n      swap1\n      sload\n      swap1\n      0x0100\n      exp\n      swap1\n      div\n      0xff\n      and\n        /* \"contracts/GroupOrder.sol\":3471:3494  OrderStateUpdate(state) */\n      mload(0x40)\n      tag_100\n      swap2\n      swap1\n      tag_71\n      jump\t// in\n    tag_100:\n      mload(0x40)\n      dup1\n      swap2\n      sub\n      swap1\n      log1\n        /* \"contracts/GroupOrder.sol\":3512:3519  produce */\n      0x00\n      dup1\n      sload\n      swap1\n      0x0100\n      exp\n      swap1\n      div\n      0xffffffffffffffffffffffffffffffffffffffff\n      and\n        /* \"contracts/GroupOrder.sol\":3512:3526  produce.farmer */\n      0xffffffffffffffffffffffffffffffffffffffff\n      and\n      0xd811fcf0\n        /* \"contracts/GroupOrder.sol\":3512:3528  produce.farmer() */\n      mload(0x40)\n      dup2\n      0xffffffff\n      and\n      0xe0\n      shl\n      dup2\n      mstore\n      0x04\n      add\n      0x20\n      mload(0x40)\n      dup1\n      dup4\n      sub\n      dup2\n      dup7\n      gas\n      staticcall\n      iszero\n      dup1\n      iszero\n      tag_102\n      jumpi\n      returndatasize\n      0x00\n      dup1\n      returndatacopy\n      revert(0x00, returndatasize)\n    tag_102:\n      pop\n      pop\n      pop\n      pop\n      mload(0x40)\n      returndatasize\n      not(0x1f)\n      0x1f\n      dup3\n      add\n      and\n      dup3\n      add\n      dup1\n      0x40\n      mstore\n      pop\n      dup2\n      add\n      swap1\n      tag_103\n      swap2\n      swap1\n      tag_94\n      jump\t// in\n    tag_103:\n        /* \"contracts/GroupOrder.sol\":3504:3538  payable(produce.farmer()).transfer */\n      0xffffffffffffffffffffffffffffffffffffffff\n      and\n        /* \"contracts/GroupOrder.sol\":3504:3572  payable(produce.farmer()).transfer(portionsAgreed * produce.price()) */\n      0x08fc\n        /* \"contracts/GroupOrder.sol\":3556:3563  produce */\n      0x00\n      dup1\n      sload\n      swap1\n      0x0100\n      exp\n      swap1\n      div\n      0xffffffffffffffffffffffffffffffffffffffff\n      and\n        /* \"contracts/GroupOrder.sol\":3556:3569  produce.price */\n      0xffffffffffffffffffffffffffffffffffffffff\n      and\n      0xa035b1fe\n        /* \"contracts/GroupOrder.sol\":3556:3571  produce.price() */\n      mload(0x40)\n      dup2\n      0xffffffff\n      and\n      0xe0\n      shl\n      dup2\n      mstore\n      0x04\n      add\n      0x20\n      mload(0x40)\n      dup1\n      dup4\n      sub\n      dup2\n      dup7\n      gas\n      staticcall\n      iszero\n      dup1\n      iszero\n      tag_105\n      jumpi\n      returndatasize\n      0x00\n      dup1\n      returndatacopy\n      revert(0x00, returndatasize)\n    tag_105:\n      pop\n      pop\n      pop\n      pop\n      mload(0x40)\n      returndatasize\n      not(0x1f)\n      0x1f\n      dup3\n      add\n      and\n      dup3\n      add\n      dup1\n      0x40\n      mstore\n      pop\n      dup2\n      add\n      swap1\n      tag_106\n      swap2\n      swap1\n      tag_107\n      jump\t// in\n    tag_106:\n        /* \"contracts/GroupOrder.sol\":3539:3553  portionsAgreed */\n      sload(0x01)\n        /* \"contracts/GroupOrder.sol\":3539:3571  portionsAgreed * produce.price() */\n      tag_108\n      swap2\n      swap1\n      tag_109\n      jump\t// in\n    tag_108:\n        /* \"contracts/GroupOrder.sol\":3504:3572  payable(produce.farmer()).transfer(portionsAgreed * produce.price()) */\n      swap1\n      dup2\n      iszero\n      mul\n      swap1\n      mload(0x40)\n      0x00\n      mload(0x40)\n      dup1\n      dup4\n      sub\n      dup2\n      dup6\n      dup9\n      dup9\n      call\n      swap4\n      pop\n      pop\n      pop\n      pop\n      iszero\n      dup1\n      iszero\n      tag_111\n      jumpi\n      returndatasize\n      0x00\n      dup1\n      returndatacopy\n      revert(0x00, returndatasize)\n    tag_111:\n      pop\n        /* \"contracts/GroupOrder.sol\":3198:3579  function acceptOrder() external {... */\n      jump\t// out\n        /* \"contracts/GroupOrder.sol\":514:543  bytes32 public groupOrderHash */\n    tag_31:\n      sload(0x05)\n      dup2\n      jump\t// out\n        /* \"contracts/GroupOrder.sol\":309:341  uint256 public portionsPerPerson */\n    tag_36:\n      sload(0x02)\n      dup2\n      jump\t// out\n        /* \"contracts/GroupOrder.sol\":4184:4509  function withdrawFunds() external {... */\n    tag_40:\n        /* \"contracts/GroupOrder.sol\":4245:4259  State.REJECTED */\n      0x02\n        /* \"contracts/GroupOrder.sol\":4236:4259  state == State.REJECTED */\n      0x03\n      dup2\n      gt\n      iszero\n      tag_113\n      jumpi\n      tag_114\n      tag_87\n      jump\t// in\n    tag_114:\n    tag_113:\n        /* \"contracts/GroupOrder.sol\":4236:4241  state */\n      0x08\n      0x00\n      swap1\n      sload\n      swap1\n      0x0100\n      exp\n      swap1\n      div\n      0xff\n      and\n        /* \"contracts/GroupOrder.sol\":4236:4259  state == State.REJECTED */\n      0x03\n      dup2\n      gt\n      iszero\n      tag_115\n      jumpi\n      tag_116\n      tag_87\n      jump\t// in\n    tag_116:\n    tag_115:\n      eq\n        /* \"contracts/GroupOrder.sol\":4228:4291  require(state == State.REJECTED, \"order has not been rejected\") */\n      tag_117\n      jumpi\n      mload(0x40)\n      0x08c379a000000000000000000000000000000000000000000000000000000000\n      dup2\n      mstore\n      0x04\n      add\n      tag_118\n      swap1\n      tag_119\n      jump\t// in\n    tag_118:\n      mload(0x40)\n      dup1\n      swap2\n      sub\n      swap1\n      revert\n    tag_117:\n        /* \"contracts/GroupOrder.sol\":4322:4328  orders */\n      0x09\n        /* \"contracts/GroupOrder.sol\":4322:4340  orders[msg.sender] */\n      0x00\n        /* \"contracts/GroupOrder.sol\":4329:4339  msg.sender */\n      caller\n        /* \"contracts/GroupOrder.sol\":4322:4340  orders[msg.sender] */\n      0xffffffffffffffffffffffffffffffffffffffff\n      and\n      0xffffffffffffffffffffffffffffffffffffffff\n      and\n      dup2\n      mstore\n      0x20\n      add\n      swap1\n      dup2\n      mstore\n      0x20\n      add\n      0x00\n      keccak256\n      0x00\n      swap1\n      sload\n      swap1\n      0x0100\n      exp\n      swap1\n      div\n      0xff\n      and\n        /* \"contracts/GroupOrder.sol\":4301:4411  require(... */\n      tag_120\n      jumpi\n      mload(0x40)\n      0x08c379a000000000000000000000000000000000000000000000000000000000\n      dup2\n      mstore\n      0x04\n      add\n      tag_121\n      swap1\n      tag_122\n      jump\t// in\n    tag_121:\n      mload(0x40)\n      dup1\n      swap2\n      sub\n      swap1\n      revert\n    tag_120:\n        /* \"contracts/GroupOrder.sol\":4442:4447  false */\n      0x00\n        /* \"contracts/GroupOrder.sol\":4421:4427  orders */\n      0x09\n        /* \"contracts/GroupOrder.sol\":4421:4439  orders[msg.sender] */\n      0x00\n        /* \"contracts/GroupOrder.sol\":4428:4438  msg.sender */\n      caller\n        /* \"contracts/GroupOrder.sol\":4421:4439  orders[msg.sender] */\n      0xffffffffffffffffffffffffffffffffffffffff\n      and\n      0xffffffffffffffffffffffffffffffffffffffff\n      and\n      dup2\n      mstore\n      0x20\n      add\n      swap1\n      dup2\n      mstore\n      0x20\n      add\n      0x00\n      keccak256\n      0x00\n        /* \"contracts/GroupOrder.sol\":4421:4447  orders[msg.sender] = false */\n      0x0100\n      exp\n      dup2\n      sload\n      dup2\n      0xff\n      mul\n      not\n      and\n      swap1\n      dup4\n      iszero\n      iszero\n      mul\n      or\n      swap1\n      sstore\n      pop\n        /* \"contracts/GroupOrder.sol\":4465:4475  msg.sender */\n      caller\n        /* \"contracts/GroupOrder.sol\":4457:4485  payable(msg.sender).transfer */\n      0xffffffffffffffffffffffffffffffffffffffff\n      and\n        /* \"contracts/GroupOrder.sol\":4457:4502  payable(msg.sender).transfer(produce.price()) */\n      0x08fc\n        /* \"contracts/GroupOrder.sol\":4486:4493  produce */\n      0x00\n      dup1\n      sload\n      swap1\n      0x0100\n      exp\n      swap1\n      div\n      0xffffffffffffffffffffffffffffffffffffffff\n      and\n        /* \"contracts/GroupOrder.sol\":4486:4499  produce.price */\n      0xffffffffffffffffffffffffffffffffffffffff\n      and\n      0xa035b1fe\n        /* \"contracts/GroupOrder.sol\":4486:4501  produce.price() */\n      mload(0x40)\n      dup2\n      0xffffffff\n      and\n      0xe0\n      shl\n      dup2\n      mstore\n      0x04\n      add\n      0x20\n      mload(0x40)\n      dup1\n      dup4\n      sub\n      dup2\n      dup7\n      gas\n      staticcall\n      iszero\n      dup1\n      iszero\n      tag_124\n      jumpi\n      returndatasize\n      0x00\n      dup1\n      returndatacopy\n      revert(0x00, returndatasize)\n    tag_124:\n      pop\n      pop\n      pop\n      pop\n      mload(0x40)\n      returndatasize\n      not(0x1f)\n      0x1f\n      dup3\n      add\n      and\n      dup3\n      add\n      dup1\n      0x40\n      mstore\n      pop\n      dup2\n      add\n      swap1\n      tag_125\n      swap2\n      swap1\n      tag_107\n      jump\t// in\n    tag_125:\n        /* \"contracts/GroupOrder.sol\":4457:4502  payable(msg.sender).transfer(produce.price()) */\n      swap1\n      dup2\n      iszero\n      mul\n      swap1\n      mload(0x40)\n      0x00\n      mload(0x40)\n      dup1\n      dup4\n      sub\n      dup2\n      dup6\n      dup9\n      dup9\n      call\n      swap4\n      pop\n      pop\n      pop\n      pop\n      iszero\n      dup1\n      iszero\n      tag_127\n      jumpi\n      returndatasize\n      0x00\n      dup1\n      returndatacopy\n      revert(0x00, returndatasize)\n    tag_127:\n      pop\n        /* \"contracts/GroupOrder.sol\":4184:4509  function withdrawFunds() external {... */\n      jump\t// out\n        /* \"contracts/GroupOrder.sol\":3628:4065  function voteToReject() external {... */\n    tag_43:\n        /* \"contracts/GroupOrder.sol\":3688:3701  State.PENDING */\n      0x01\n        /* \"contracts/GroupOrder.sol\":3679:3701  state == State.PENDING */\n      0x03\n      dup2\n      gt\n      iszero\n      tag_129\n      jumpi\n      tag_130\n      tag_87\n      jump\t// in\n    tag_130:\n    tag_129:\n        /* \"contracts/GroupOrder.sol\":3679:3684  state */\n      0x08\n      0x00\n      swap1\n      sload\n      swap1\n      0x0100\n      exp\n      swap1\n      div\n      0xff\n      and\n        /* \"contracts/GroupOrder.sol\":3679:3701  state == State.PENDING */\n      0x03\n      dup2\n      gt\n      iszero\n      tag_131\n      jumpi\n      tag_132\n      tag_87\n      jump\t// in\n    tag_132:\n    tag_131:\n      eq\n        /* \"contracts/GroupOrder.sol\":3671:3752  require(state == State.PENDING, \"members can only vote to reject pending orders\") */\n      tag_133\n      jumpi\n      mload(0x40)\n      0x08c379a000000000000000000000000000000000000000000000000000000000\n      dup2\n      mstore\n      0x04\n      add\n      tag_134\n      swap1\n      tag_135\n      jump\t// in\n    tag_134:\n      mload(0x40)\n      dup1\n      swap2\n      sub\n      swap1\n      revert\n    tag_133:\n        /* \"contracts/GroupOrder.sol\":3770:3776  orders */\n      0x09\n        /* \"contracts/GroupOrder.sol\":3770:3788  orders[msg.sender] */\n      0x00\n        /* \"contracts/GroupOrder.sol\":3777:3787  msg.sender */\n      caller\n        /* \"contracts/GroupOrder.sol\":3770:3788  orders[msg.sender] */\n      0xffffffffffffffffffffffffffffffffffffffff\n      and\n      0xffffffffffffffffffffffffffffffffffffffff\n      and\n      dup2\n      mstore\n      0x20\n      add\n      swap1\n      dup2\n      mstore\n      0x20\n      add\n      0x00\n      keccak256\n      0x00\n      swap1\n      sload\n      swap1\n      0x0100\n      exp\n      swap1\n      div\n      0xff\n      and\n        /* \"contracts/GroupOrder.sol\":3762:3854  require(orders[msg.sender], \"only members of this group order may vote to reject the order\") */\n      tag_136\n      jumpi\n      mload(0x40)\n      0x08c379a000000000000000000000000000000000000000000000000000000000\n      dup2\n      mstore\n      0x04\n      add\n      tag_137\n      swap1\n      tag_138\n      jump\t// in\n    tag_137:\n      mload(0x40)\n      dup1\n      swap2\n      sub\n      swap1\n      revert\n    tag_136:\n        /* \"contracts/GroupOrder.sol\":3881:3882  1 */\n      0x01\n        /* \"contracts/GroupOrder.sol\":3864:3877  votesToReject */\n      0x07\n      0x00\n        /* \"contracts/GroupOrder.sol\":3864:3882  votesToReject += 1 */\n      dup3\n      dup3\n      sload\n      tag_139\n      swap2\n      swap1\n      tag_140\n      jump\t// in\n    tag_139:\n      swap3\n      pop\n      pop\n      dup2\n      swap1\n      sstore\n      pop\n        /* \"contracts/GroupOrder.sol\":3912:3933  requiredVotesToReject */\n      sload(0x06)\n        /* \"contracts/GroupOrder.sol\":3896:3909  votesToReject */\n      sload(0x07)\n        /* \"contracts/GroupOrder.sol\":3896:3933  votesToReject > requiredVotesToReject */\n      gt\n        /* \"contracts/GroupOrder.sol\":3892:4059  if (votesToReject > requiredVotesToReject) {... */\n      iszero\n      tag_141\n      jumpi\n        /* \"contracts/GroupOrder.sol\":3957:3971  State.REJECTED */\n      0x02\n        /* \"contracts/GroupOrder.sol\":3949:3954  state */\n      0x08\n      0x00\n        /* \"contracts/GroupOrder.sol\":3949:3971  state = State.REJECTED */\n      0x0100\n      exp\n      dup2\n      sload\n      dup2\n      0xff\n      mul\n      not\n      and\n      swap1\n      dup4\n      0x03\n      dup2\n      gt\n      iszero\n      tag_142\n      jumpi\n      tag_143\n      tag_87\n      jump\t// in\n    tag_143:\n    tag_142:\n      mul\n      or\n      swap1\n      sstore\n      pop\n        /* \"contracts/GroupOrder.sol\":3985:3992  produce */\n      0x00\n      dup1\n      sload\n      swap1\n      0x0100\n      exp\n      swap1\n      div\n      0xffffffffffffffffffffffffffffffffffffffff\n      and\n        /* \"contracts/GroupOrder.sol\":3985:4004  produce.removeOrder */\n      0xffffffffffffffffffffffffffffffffffffffff\n      and\n      0xeaa61dea\n        /* \"contracts/GroupOrder.sol\":3985:4006  produce.removeOrder() */\n      mload(0x40)\n      dup2\n      0xffffffff\n      and\n      0xe0\n      shl\n      dup2\n      mstore\n      0x04\n      add\n      0x00\n      mload(0x40)\n      dup1\n      dup4\n      sub\n      dup2\n      0x00\n      dup8\n      dup1\n      extcodesize\n      iszero\n      dup1\n      iszero\n      tag_144\n      jumpi\n      0x00\n      dup1\n      revert\n    tag_144:\n      pop\n      gas\n      call\n      iszero\n      dup1\n      iszero\n      tag_146\n      jumpi\n      returndatasize\n      0x00\n      dup1\n      returndatacopy\n      revert(0x00, returndatasize)\n    tag_146:\n      pop\n      pop\n      pop\n      pop\n        /* \"contracts/GroupOrder.sol\":4025:4048  OrderStateUpdate(state) */\n      0x246f97586713cf6803bc7c189486b4345be349cee213b4cae772d5052ab5f059\n        /* \"contracts/GroupOrder.sol\":4042:4047  state */\n      0x08\n      0x00\n      swap1\n      sload\n      swap1\n      0x0100\n      exp\n      swap1\n      div\n      0xff\n      and\n        /* \"contracts/GroupOrder.sol\":4025:4048  OrderStateUpdate(state) */\n      mload(0x40)\n      tag_147\n      swap2\n      swap1\n      tag_71\n      jump\t// in\n    tag_147:\n      mload(0x40)\n      dup1\n      swap2\n      sub\n      swap1\n      log1\n        /* \"contracts/GroupOrder.sol\":3892:4059  if (votesToReject > requiredVotesToReject) {... */\n    tag_141:\n        /* \"contracts/GroupOrder.sol\":3628:4065  function voteToReject() external {... */\n      jump\t// out\n        /* \"contracts/GroupOrder.sol\":377:399  uint256 public endTime */\n    tag_46:\n      sload(0x04)\n      dup2\n      jump\t// out\n        /* \"contracts/GroupOrder.sol\":1417:1779  function timeOutGroupOrder() external {... */\n    tag_50:\n        /* \"contracts/GroupOrder.sol\":1495:1505  State.OPEN */\n      0x00\n        /* \"contracts/GroupOrder.sol\":1486:1505  state == State.OPEN */\n      0x03\n      dup2\n      gt\n      iszero\n      tag_149\n      jumpi\n      tag_150\n      tag_87\n      jump\t// in\n    tag_150:\n    tag_149:\n        /* \"contracts/GroupOrder.sol\":1486:1491  state */\n      0x08\n      0x00\n      swap1\n      sload\n      swap1\n      0x0100\n      exp\n      swap1\n      div\n      0xff\n      and\n        /* \"contracts/GroupOrder.sol\":1486:1505  state == State.OPEN */\n      0x03\n      dup2\n      gt\n      iszero\n      tag_151\n      jumpi\n      tag_152\n      tag_87\n      jump\t// in\n    tag_152:\n    tag_151:\n      eq\n        /* \"contracts/GroupOrder.sol\":1465:1583  require(... */\n      tag_153\n      jumpi\n      mload(0x40)\n      0x08c379a000000000000000000000000000000000000000000000000000000000\n      dup2\n      mstore\n      0x04\n      add\n      tag_154\n      swap1\n      tag_155\n      jump\t// in\n    tag_154:\n      mload(0x40)\n      dup1\n      swap2\n      sub\n      swap1\n      revert\n    tag_153:\n        /* \"contracts/GroupOrder.sol\":1632:1639  endTime */\n      sload(0x04)\n        /* \"contracts/GroupOrder.sol\":1614:1629  block.timestamp */\n      timestamp\n        /* \"contracts/GroupOrder.sol\":1614:1639  block.timestamp > endTime */\n      gt\n        /* \"contracts/GroupOrder.sol\":1593:1702  require(... */\n      tag_156\n      jumpi\n      mload(0x40)\n      0x08c379a000000000000000000000000000000000000000000000000000000000\n      dup2\n      mstore\n      0x04\n      add\n      tag_157\n      swap1\n      tag_158\n      jump\t// in\n    tag_157:\n      mload(0x40)\n      dup1\n      swap2\n      sub\n      swap1\n      revert\n    tag_156:\n        /* \"contracts/GroupOrder.sol\":1720:1734  State.REJECTED */\n      0x02\n        /* \"contracts/GroupOrder.sol\":1712:1717  state */\n      0x08\n      0x00\n        /* \"contracts/GroupOrder.sol\":1712:1734  state = State.REJECTED */\n      0x0100\n      exp\n      dup2\n      sload\n      dup2\n      0xff\n      mul\n      not\n      and\n      swap1\n      dup4\n      0x03\n      dup2\n      gt\n      iszero\n      tag_159\n      jumpi\n      tag_160\n      tag_87\n      jump\t// in\n    tag_160:\n    tag_159:\n      mul\n      or\n      swap1\n      sstore\n      pop\n        /* \"contracts/GroupOrder.sol\":1749:1772  OrderStateUpdate(state) */\n      0x246f97586713cf6803bc7c189486b4345be349cee213b4cae772d5052ab5f059\n        /* \"contracts/GroupOrder.sol\":1766:1771  state */\n      0x08\n      0x00\n      swap1\n      sload\n      swap1\n      0x0100\n      exp\n      swap1\n      div\n      0xff\n      and\n        /* \"contracts/GroupOrder.sol\":1749:1772  OrderStateUpdate(state) */\n      mload(0x40)\n      tag_161\n      swap2\n      swap1\n      tag_71\n      jump\t// in\n    tag_161:\n      mload(0x40)\n      dup1\n      swap2\n      sub\n      swap1\n      log1\n        /* \"contracts/GroupOrder.sol\":1417:1779  function timeOutGroupOrder() external {... */\n      jump\t// out\n        /* \"contracts/GroupOrder.sol\":777:809  uint256 public votesToReject = 0 */\n    tag_53:\n      sload(0x07)\n      dup2\n      jump\t// out\n        /* \"contracts/GroupOrder.sol\":2849:3137  function rejectOrder() external {... */\n    tag_57:\n        /* \"contracts/GroupOrder.sol\":2908:2921  State.PENDING */\n      0x01\n        /* \"contracts/GroupOrder.sol\":2899:2921  state == State.PENDING */\n      0x03\n      dup2\n      gt\n      iszero\n      tag_163\n      jumpi\n      tag_164\n      tag_87\n      jump\t// in\n    tag_164:\n    tag_163:\n        /* \"contracts/GroupOrder.sol\":2899:2904  state */\n      0x08\n      0x00\n      swap1\n      sload\n      swap1\n      0x0100\n      exp\n      swap1\n      div\n      0xff\n      and\n        /* \"contracts/GroupOrder.sol\":2899:2921  state == State.PENDING */\n      0x03\n      dup2\n      gt\n      iszero\n      tag_165\n      jumpi\n      tag_166\n      tag_87\n      jump\t// in\n    tag_166:\n    tag_165:\n      eq\n        /* \"contracts/GroupOrder.sol\":2891:2922  require(state == State.PENDING) */\n      tag_167\n      jumpi\n      0x00\n      dup1\n      revert\n    tag_167:\n        /* \"contracts/GroupOrder.sol\":2967:2974  produce */\n      0x00\n      dup1\n      sload\n      swap1\n      0x0100\n      exp\n      swap1\n      div\n      0xffffffffffffffffffffffffffffffffffffffff\n      and\n        /* \"contracts/GroupOrder.sol\":2967:2981  produce.farmer */\n      0xffffffffffffffffffffffffffffffffffffffff\n      and\n      0xd811fcf0\n        /* \"contracts/GroupOrder.sol\":2967:2983  produce.farmer() */\n      mload(0x40)\n      dup2\n      0xffffffff\n      and\n      0xe0\n      shl\n      dup2\n      mstore\n      0x04\n      add\n      0x20\n      mload(0x40)\n      dup1\n      dup4\n      sub\n      dup2\n      dup7\n      gas\n      staticcall\n      iszero\n      dup1\n      iszero\n      tag_169\n      jumpi\n      returndatasize\n      0x00\n      dup1\n      returndatacopy\n      revert(0x00, returndatasize)\n    tag_169:\n      pop\n      pop\n      pop\n      pop\n      mload(0x40)\n      returndatasize\n      not(0x1f)\n      0x1f\n      dup3\n      add\n      and\n      dup3\n      add\n      dup1\n      0x40\n      mstore\n      pop\n      dup2\n      add\n      swap1\n      tag_170\n      swap2\n      swap1\n      tag_94\n      jump\t// in\n    tag_170:\n        /* \"contracts/GroupOrder.sol\":2953:2983  msg.sender == produce.farmer() */\n      0xffffffffffffffffffffffffffffffffffffffff\n      and\n        /* \"contracts/GroupOrder.sol\":2953:2963  msg.sender */\n      caller\n        /* \"contracts/GroupOrder.sol\":2953:2983  msg.sender == produce.farmer() */\n      0xffffffffffffffffffffffffffffffffffffffff\n      and\n      eq\n        /* \"contracts/GroupOrder.sol\":2932:3060  require(... */\n      tag_171\n      jumpi\n      mload(0x40)\n      0x08c379a000000000000000000000000000000000000000000000000000000000\n      dup2\n      mstore\n      0x04\n      add\n      tag_172\n      swap1\n      tag_173\n      jump\t// in\n    tag_172:\n      mload(0x40)\n      dup1\n      swap2\n      sub\n      swap1\n      revert\n    tag_171:\n        /* \"contracts/GroupOrder.sol\":3078:3092  State.REJECTED */\n      0x02\n        /* \"contracts/GroupOrder.sol\":3070:3075  state */\n      0x08\n      0x00\n        /* \"contracts/GroupOrder.sol\":3070:3092  state = State.REJECTED */\n      0x0100\n      exp\n      dup2\n      sload\n      dup2\n      0xff\n      mul\n      not\n      and\n      swap1\n      dup4\n      0x03\n      dup2\n      gt\n      iszero\n      tag_174\n      jumpi\n      tag_175\n      tag_87\n      jump\t// in\n    tag_175:\n    tag_174:\n      mul\n      or\n      swap1\n      sstore\n      pop\n        /* \"contracts/GroupOrder.sol\":3107:3130  OrderStateUpdate(state) */\n      0x246f97586713cf6803bc7c189486b4345be349cee213b4cae772d5052ab5f059\n        /* \"contracts/GroupOrder.sol\":3124:3129  state */\n      0x08\n      0x00\n      swap1\n      sload\n      swap1\n      0x0100\n      exp\n      swap1\n      div\n      0xff\n      and\n        /* \"contracts/GroupOrder.sol\":3107:3130  OrderStateUpdate(state) */\n      mload(0x40)\n      tag_176\n      swap2\n      swap1\n      tag_71\n      jump\t// in\n    tag_176:\n      mload(0x40)\n      dup1\n      swap2\n      sub\n      swap1\n      log1\n        /* \"contracts/GroupOrder.sol\":2849:3137  function rejectOrder() external {... */\n      jump\t// out\n        /* \"contracts/GroupOrder.sol\":246:268  Produce public produce */\n    tag_60:\n      0x00\n      dup1\n      sload\n      swap1\n      0x0100\n      exp\n      swap1\n      div\n      0xffffffffffffffffffffffffffffffffffffffff\n      and\n      dup2\n      jump\t// out\n        /* \"contracts/GroupOrder.sol\":347:371  uint256 public startTime */\n    tag_65:\n      sload(0x03)\n      dup2\n      jump\t// out\n        /* \"contracts/GroupOrder.sol\":901:919  State public state */\n    tag_69:\n      0x08\n      0x00\n      swap1\n      sload\n      swap1\n      0x0100\n      exp\n      swap1\n      div\n      0xff\n      and\n      dup2\n      jump\t// out\n        /* \"contracts/GroupOrder.sol\":672:708  uint256 public requiredVotesToReject */\n    tag_74:\n      sload(0x06)\n      dup2\n      jump\t// out\n        /* \"contracts/GroupOrder.sol\":274:303  uint256 public portionsAgreed */\n    tag_78:\n      sload(0x01)\n      dup2\n      jump\t// out\n        /* \"contracts/GroupOrder.sol\":1858:2768  function placeOrder()... */\n    tag_81:\n        /* \"contracts/GroupOrder.sol\":1930:1946  bool orderplaced */\n      0x00\n        /* \"contracts/GroupOrder.sol\":1979:1989  State.OPEN */\n      dup1\n        /* \"contracts/GroupOrder.sol\":1970:1989  state == State.OPEN */\n      0x03\n      dup2\n      gt\n      iszero\n      tag_178\n      jumpi\n      tag_179\n      tag_87\n      jump\t// in\n    tag_179:\n    tag_178:\n        /* \"contracts/GroupOrder.sol\":1970:1975  state */\n      0x08\n      0x00\n      swap1\n      sload\n      swap1\n      0x0100\n      exp\n      swap1\n      div\n      0xff\n      and\n        /* \"contracts/GroupOrder.sol\":1970:1989  state == State.OPEN */\n      0x03\n      dup2\n      gt\n      iszero\n      tag_180\n      jumpi\n      tag_181\n      tag_87\n      jump\t// in\n    tag_181:\n    tag_180:\n      eq\n        /* \"contracts/GroupOrder.sol\":1962:1990  require(state == State.OPEN) */\n      tag_182\n      jumpi\n      0x00\n      dup1\n      revert\n    tag_182:\n        /* \"contracts/GroupOrder.sol\":2035:2049  portionsAgreed */\n      sload(0x01)\n        /* \"contracts/GroupOrder.sol\":2030:2031  1 */\n      0x01\n        /* \"contracts/GroupOrder.sol\":2008:2015  produce */\n      0x00\n      dup1\n      sload\n      swap1\n      0x0100\n      exp\n      swap1\n      div\n      0xffffffffffffffffffffffffffffffffffffffff\n      and\n        /* \"contracts/GroupOrder.sol\":2008:2025  produce.orderSize */\n      0xffffffffffffffffffffffffffffffffffffffff\n      and\n      0x6d86b8a5\n        /* \"contracts/GroupOrder.sol\":2008:2027  produce.orderSize() */\n      mload(0x40)\n      dup2\n      0xffffffff\n      and\n      0xe0\n      shl\n      dup2\n      mstore\n      0x04\n      add\n      0x20\n      mload(0x40)\n      dup1\n      dup4\n      sub\n      dup2\n      dup7\n      gas\n      staticcall\n      iszero\n      dup1\n      iszero\n      tag_184\n      jumpi\n      returndatasize\n      0x00\n      dup1\n      returndatacopy\n      revert(0x00, returndatasize)\n    tag_184:\n      pop\n      pop\n      pop\n      pop\n      mload(0x40)\n      returndatasize\n      not(0x1f)\n      0x1f\n      dup3\n      add\n      and\n      dup3\n      add\n      dup1\n      0x40\n      mstore\n      pop\n      dup2\n      add\n      swap1\n      tag_185\n      swap2\n      swap1\n      tag_107\n      jump\t// in\n    tag_185:\n        /* \"contracts/GroupOrder.sol\":2008:2031  produce.orderSize() - 1 */\n      tag_186\n      swap2\n      swap1\n      tag_187\n      jump\t// in\n    tag_186:\n        /* \"contracts/GroupOrder.sol\":2008:2049  produce.orderSize() - 1 <= portionsAgreed */\n      gt\n      iszero\n        /* \"contracts/GroupOrder.sol\":2000:2050  require(produce.orderSize() - 1 <= portionsAgreed) */\n      tag_188\n      jumpi\n      0x00\n      dup1\n      revert\n    tag_188:\n        /* \"contracts/GroupOrder.sol\":2087:2096  msg.value */\n      callvalue\n        /* \"contracts/GroupOrder.sol\":2068:2075  produce */\n      0x00\n      dup1\n      sload\n      swap1\n      0x0100\n      exp\n      swap1\n      div\n      0xffffffffffffffffffffffffffffffffffffffff\n      and\n        /* \"contracts/GroupOrder.sol\":2068:2081  produce.price */\n      0xffffffffffffffffffffffffffffffffffffffff\n      and\n      0xa035b1fe\n        /* \"contracts/GroupOrder.sol\":2068:2083  produce.price() */\n      mload(0x40)\n      dup2\n      0xffffffff\n      and\n      0xe0\n      shl\n      dup2\n      mstore\n      0x04\n      add\n      0x20\n      mload(0x40)\n      dup1\n      dup4\n      sub\n      dup2\n      dup7\n      gas\n      staticcall\n      iszero\n      dup1\n      iszero\n      tag_190\n      jumpi\n      returndatasize\n      0x00\n      dup1\n      returndatacopy\n      revert(0x00, returndatasize)\n    tag_190:\n      pop\n      pop\n      pop\n      pop\n      mload(0x40)\n      returndatasize\n      not(0x1f)\n      0x1f\n      dup3\n      add\n      and\n      dup3\n      add\n      dup1\n      0x40\n      mstore\n      pop\n      dup2\n      add\n      swap1\n      tag_191\n      swap2\n      swap1\n      tag_107\n      jump\t// in\n    tag_191:\n        /* \"contracts/GroupOrder.sol\":2068:2096  produce.price() == msg.value */\n      eq\n        /* \"contracts/GroupOrder.sol\":2060:2097  require(produce.price() == msg.value) */\n      tag_192\n      jumpi\n      0x00\n      dup1\n      revert\n    tag_192:\n        /* \"contracts/GroupOrder.sol\":2129:2136  endTime */\n      sload(0x04)\n        /* \"contracts/GroupOrder.sol\":2111:2126  block.timestamp */\n      timestamp\n        /* \"contracts/GroupOrder.sol\":2111:2136  block.timestamp > endTime */\n      gt\n        /* \"contracts/GroupOrder.sol\":2107:2762  if (block.timestamp > endTime) {... */\n      iszero\n      tag_193\n      jumpi\n        /* \"contracts/GroupOrder.sol\":2160:2174  State.REJECTED */\n      0x02\n        /* \"contracts/GroupOrder.sol\":2152:2157  state */\n      0x08\n      0x00\n        /* \"contracts/GroupOrder.sol\":2152:2174  state = State.REJECTED */\n      0x0100\n      exp\n      dup2\n      sload\n      dup2\n      0xff\n      mul\n      not\n      and\n      swap1\n      dup4\n      0x03\n      dup2\n      gt\n      iszero\n      tag_194\n      jumpi\n      tag_195\n      tag_87\n      jump\t// in\n    tag_195:\n    tag_194:\n      mul\n      or\n      swap1\n      sstore\n      pop\n        /* \"contracts/GroupOrder.sol\":2193:2216  OrderStateUpdate(state) */\n      0x246f97586713cf6803bc7c189486b4345be349cee213b4cae772d5052ab5f059\n        /* \"contracts/GroupOrder.sol\":2210:2215  state */\n      0x08\n      0x00\n      swap1\n      sload\n      swap1\n      0x0100\n      exp\n      swap1\n      div\n      0xff\n      and\n        /* \"contracts/GroupOrder.sol\":2193:2216  OrderStateUpdate(state) */\n      mload(0x40)\n      tag_196\n      swap2\n      swap1\n      tag_71\n      jump\t// in\n    tag_196:\n      mload(0x40)\n      dup1\n      swap2\n      sub\n      swap1\n      log1\n        /* \"contracts/GroupOrder.sol\":2107:2762  if (block.timestamp > endTime) {... */\n      jump(tag_197)\n    tag_193:\n        /* \"contracts/GroupOrder.sol\":2268:2272  true */\n      0x01\n        /* \"contracts/GroupOrder.sol\":2247:2253  orders */\n      0x09\n        /* \"contracts/GroupOrder.sol\":2247:2265  orders[msg.sender] */\n      0x00\n        /* \"contracts/GroupOrder.sol\":2254:2264  msg.sender */\n      caller\n        /* \"contracts/GroupOrder.sol\":2247:2265  orders[msg.sender] */\n      0xffffffffffffffffffffffffffffffffffffffff\n      and\n      0xffffffffffffffffffffffffffffffffffffffff\n      and\n      dup2\n      mstore\n      0x20\n      add\n      swap1\n      dup2\n      mstore\n      0x20\n      add\n      0x00\n      keccak256\n      0x00\n        /* \"contracts/GroupOrder.sol\":2247:2272  orders[msg.sender] = true */\n      0x0100\n      exp\n      dup2\n      sload\n      dup2\n      0xff\n      mul\n      not\n      and\n      swap1\n      dup4\n      iszero\n      iszero\n      mul\n      or\n      swap1\n      sstore\n      pop\n        /* \"contracts/GroupOrder.sol\":2304:2305  1 */\n      0x01\n        /* \"contracts/GroupOrder.sol\":2286:2300  portionsAgreed */\n      dup1\n      0x00\n        /* \"contracts/GroupOrder.sol\":2286:2305  portionsAgreed += 1 */\n      dup3\n      dup3\n      sload\n      tag_198\n      swap2\n      swap1\n      tag_140\n      jump\t// in\n    tag_198:\n      swap3\n      pop\n      pop\n      dup2\n      swap1\n      sstore\n      pop\n        /* \"contracts/GroupOrder.sol\":2423:2430  produce */\n      0x00\n      dup1\n      sload\n      swap1\n      0x0100\n      exp\n      swap1\n      div\n      0xffffffffffffffffffffffffffffffffffffffff\n      and\n        /* \"contracts/GroupOrder.sol\":2423:2440  produce.orderSize */\n      0xffffffffffffffffffffffffffffffffffffffff\n      and\n      0x6d86b8a5\n        /* \"contracts/GroupOrder.sol\":2423:2442  produce.orderSize() */\n      mload(0x40)\n      dup2\n      0xffffffff\n      and\n      0xe0\n      shl\n      dup2\n      mstore\n      0x04\n      add\n      0x20\n      mload(0x40)\n      dup1\n      dup4\n      sub\n      dup2\n      dup7\n      gas\n      staticcall\n      iszero\n      dup1\n      iszero\n      tag_200\n      jumpi\n      returndatasize\n      0x00\n      dup1\n      returndatacopy\n      revert(0x00, returndatasize)\n    tag_200:\n      pop\n      pop\n      pop\n      pop\n      mload(0x40)\n      returndatasize\n      not(0x1f)\n      0x1f\n      dup3\n      add\n      and\n      dup3\n      add\n      dup1\n      0x40\n      mstore\n      pop\n      dup2\n      add\n      swap1\n      tag_201\n      swap2\n      swap1\n      tag_107\n      jump\t// in\n    tag_201:\n        /* \"contracts/GroupOrder.sol\":2405:2419  portionsAgreed */\n      sload(0x01)\n        /* \"contracts/GroupOrder.sol\":2405:2442  portionsAgreed == produce.orderSize() */\n      sub\n        /* \"contracts/GroupOrder.sol\":2401:2713  if (portionsAgreed == produce.orderSize()) {... */\n      tag_202\n      jumpi\n        /* \"contracts/GroupOrder.sol\":2466:2473  produce */\n      0x00\n      dup1\n      sload\n      swap1\n      0x0100\n      exp\n      swap1\n      div\n      0xffffffffffffffffffffffffffffffffffffffff\n      and\n        /* \"contracts/GroupOrder.sol\":2466:2484  produce.placeOrder */\n      0xffffffffffffffffffffffffffffffffffffffff\n      and\n      0xf5c609e0\n        /* \"contracts/GroupOrder.sol\":2466:2486  produce.placeOrder() */\n      mload(0x40)\n      dup2\n      0xffffffff\n      and\n      0xe0\n      shl\n      dup2\n      mstore\n      0x04\n      add\n      0x00\n      mload(0x40)\n      dup1\n      dup4\n      sub\n      dup2\n      0x00\n      dup8\n      dup1\n      extcodesize\n      iszero\n      dup1\n      iszero\n      tag_203\n      jumpi\n      0x00\n      dup1\n      revert\n    tag_203:\n      pop\n      gas\n      call\n      swap3\n      pop\n      pop\n      pop\n      dup1\n      iszero\n      tag_204\n      jumpi\n      pop\n      0x01\n    tag_204:\n        /* \"contracts/GroupOrder.sol\":2462:2699  try produce.placeOrder() {... */\n      tag_205\n      jumpi\n      tag_209\n      tag_210\n      jump\t// in\n    tag_209:\n      dup1\n      0x08c379a0\n      sub\n      tag_208\n      jumpi\n      pop\n      tag_211\n      tag_212\n      jump\t// in\n    tag_211:\n      dup1\n      tag_213\n      jumpi\n      pop\n      jump(tag_207)\n    tag_213:\n        /* \"contracts/GroupOrder.sol\":2661:2680  OrderFailed(reason) */\n      0x33222bae2ff20e6fe48a14a7c1ef3eb4cca76359e8e5bf7b877cc3cd76d2ffb3\n        /* \"contracts/GroupOrder.sol\":2673:2679  reason */\n      dup2\n        /* \"contracts/GroupOrder.sol\":2661:2680  OrderFailed(reason) */\n      mload(0x40)\n      tag_214\n      swap2\n      swap1\n      tag_215\n      jump\t// in\n    tag_214:\n      mload(0x40)\n      dup1\n      swap2\n      sub\n      swap1\n      log1\n        /* \"contracts/GroupOrder.sol\":2600:2699  catch Error(string memory reason) {... */\n      pop\n        /* \"contracts/GroupOrder.sol\":2462:2699  try produce.placeOrder() {... */\n      jump(tag_206)\n    tag_208:\n      pop\n    tag_207:\n      returndatasize\n      0x00\n      dup1\n      returndatacopy\n      revert(0x00, returndatasize)\n    tag_206:\n      jump(tag_216)\n    tag_205:\n        /* \"contracts/GroupOrder.sol\":2517:2530  State.PENDING */\n      0x01\n        /* \"contracts/GroupOrder.sol\":2509:2514  state */\n      0x08\n      0x00\n        /* \"contracts/GroupOrder.sol\":2509:2530  state = State.PENDING */\n      0x0100\n      exp\n      dup2\n      sload\n      dup2\n      0xff\n      mul\n      not\n      and\n      swap1\n      dup4\n      0x03\n      dup2\n      gt\n      iszero\n      tag_217\n      jumpi\n      tag_218\n      tag_87\n      jump\t// in\n    tag_218:\n    tag_217:\n      mul\n      or\n      swap1\n      sstore\n      pop\n        /* \"contracts/GroupOrder.sol\":2557:2580  OrderStateUpdate(state) */\n      0x246f97586713cf6803bc7c189486b4345be349cee213b4cae772d5052ab5f059\n        /* \"contracts/GroupOrder.sol\":2574:2579  state */\n      0x08\n      0x00\n      swap1\n      sload\n      swap1\n      0x0100\n      exp\n      swap1\n      div\n      0xff\n      and\n        /* \"contracts/GroupOrder.sol\":2557:2580  OrderStateUpdate(state) */\n      mload(0x40)\n      tag_219\n      swap2\n      swap1\n      tag_71\n      jump\t// in\n    tag_219:\n      mload(0x40)\n      dup1\n      swap2\n      sub\n      swap1\n      log1\n        /* \"contracts/GroupOrder.sol\":2462:2699  try produce.placeOrder() {... */\n    tag_216:\n        /* \"contracts/GroupOrder.sol\":2401:2713  if (portionsAgreed == produce.orderSize()) {... */\n    tag_202:\n        /* \"contracts/GroupOrder.sol\":2733:2739  orders */\n      0x09\n        /* \"contracts/GroupOrder.sol\":2733:2751  orders[msg.sender] */\n      0x00\n        /* \"contracts/GroupOrder.sol\":2740:2750  msg.sender */\n      caller\n        /* \"contracts/GroupOrder.sol\":2733:2751  orders[msg.sender] */\n      0xffffffffffffffffffffffffffffffffffffffff\n      and\n      0xffffffffffffffffffffffffffffffffffffffff\n      and\n      dup2\n      mstore\n      0x20\n      add\n      swap1\n      dup2\n      mstore\n      0x20\n      add\n      0x00\n      keccak256\n      0x00\n      swap1\n      sload\n      swap1\n      0x0100\n      exp\n      swap1\n      div\n      0xff\n      and\n        /* \"contracts/GroupOrder.sol\":2726:2751  return orders[msg.sender] */\n      swap1\n      pop\n      jump(tag_177)\n        /* \"contracts/GroupOrder.sol\":2107:2762  if (block.timestamp > endTime) {... */\n    tag_197:\n        /* \"contracts/GroupOrder.sol\":1858:2768  function placeOrder()... */\n    tag_177:\n      swap1\n      jump\t// out\n        /* \"#utility.yul\":7:84   */\n    tag_220:\n        /* \"#utility.yul\":44:51   */\n      0x00\n        /* \"#utility.yul\":73:78   */\n      dup2\n        /* \"#utility.yul\":62:78   */\n      swap1\n      pop\n        /* \"#utility.yul\":7:84   */\n      swap2\n      swap1\n      pop\n      jump\t// out\n        /* \"#utility.yul\":90:208   */\n    tag_221:\n        /* \"#utility.yul\":177:201   */\n      tag_272\n        /* \"#utility.yul\":195:200   */\n      dup2\n        /* \"#utility.yul\":177:201   */\n      tag_220\n      jump\t// in\n    tag_272:\n        /* \"#utility.yul\":172:175   */\n      dup3\n        /* \"#utility.yul\":165:202   */\n      mstore\n        /* \"#utility.yul\":90:208   */\n      pop\n      pop\n      jump\t// out\n        /* \"#utility.yul\":214:436   */\n    tag_25:\n        /* \"#utility.yul\":307:311   */\n      0x00\n        /* \"#utility.yul\":345:347   */\n      0x20\n        /* \"#utility.yul\":334:343   */\n      dup3\n        /* \"#utility.yul\":330:348   */\n      add\n        /* \"#utility.yul\":322:348   */\n      swap1\n      pop\n        /* \"#utility.yul\":358:429   */\n      tag_274\n        /* \"#utility.yul\":426:427   */\n      0x00\n        /* \"#utility.yul\":415:424   */\n      dup4\n        /* \"#utility.yul\":411:428   */\n      add\n        /* \"#utility.yul\":402:408   */\n      dup5\n        /* \"#utility.yul\":358:429   */\n      tag_221\n      jump\t// in\n    tag_274:\n        /* \"#utility.yul\":214:436   */\n      swap3\n      swap2\n      pop\n      pop\n      jump\t// out\n        /* \"#utility.yul\":442:519   */\n    tag_222:\n        /* \"#utility.yul\":479:486   */\n      0x00\n        /* \"#utility.yul\":508:513   */\n      dup2\n        /* \"#utility.yul\":497:513   */\n      swap1\n      pop\n        /* \"#utility.yul\":442:519   */\n      swap2\n      swap1\n      pop\n      jump\t// out\n        /* \"#utility.yul\":525:643   */\n    tag_223:\n        /* \"#utility.yul\":612:636   */\n      tag_277\n        /* \"#utility.yul\":630:635   */\n      dup2\n        /* \"#utility.yul\":612:636   */\n      tag_222\n      jump\t// in\n    tag_277:\n        /* \"#utility.yul\":607:610   */\n      dup3\n        /* \"#utility.yul\":600:637   */\n      mstore\n        /* \"#utility.yul\":525:643   */\n      pop\n      pop\n      jump\t// out\n        /* \"#utility.yul\":649:871   */\n    tag_33:\n        /* \"#utility.yul\":742:746   */\n      0x00\n        /* \"#utility.yul\":780:782   */\n      0x20\n        /* \"#utility.yul\":769:778   */\n      dup3\n        /* \"#utility.yul\":765:783   */\n      add\n        /* \"#utility.yul\":757:783   */\n      swap1\n      pop\n        /* \"#utility.yul\":793:864   */\n      tag_279\n        /* \"#utility.yul\":861:862   */\n      0x00\n        /* \"#utility.yul\":850:859   */\n      dup4\n        /* \"#utility.yul\":846:863   */\n      add\n        /* \"#utility.yul\":837:843   */\n      dup5\n        /* \"#utility.yul\":793:864   */\n      tag_223\n      jump\t// in\n    tag_279:\n        /* \"#utility.yul\":649:871   */\n      swap3\n      swap2\n      pop\n      pop\n      jump\t// out\n        /* \"#utility.yul\":877:1003   */\n    tag_224:\n        /* \"#utility.yul\":914:921   */\n      0x00\n        /* \"#utility.yul\":954:996   */\n      0xffffffffffffffffffffffffffffffffffffffff\n        /* \"#utility.yul\":947:952   */\n      dup3\n        /* \"#utility.yul\":943:997   */\n      and\n        /* \"#utility.yul\":932:997   */\n      swap1\n      pop\n        /* \"#utility.yul\":877:1003   */\n      swap2\n      swap1\n      pop\n      jump\t// out\n        /* \"#utility.yul\":1009:1069   */\n    tag_225:\n        /* \"#utility.yul\":1037:1040   */\n      0x00\n        /* \"#utility.yul\":1058:1063   */\n      dup2\n        /* \"#utility.yul\":1051:1063   */\n      swap1\n      pop\n        /* \"#utility.yul\":1009:1069   */\n      swap2\n      swap1\n      pop\n      jump\t// out\n        /* \"#utility.yul\":1075:1217   */\n    tag_226:\n        /* \"#utility.yul\":1125:1134   */\n      0x00\n        /* \"#utility.yul\":1158:1211   */\n      tag_283\n        /* \"#utility.yul\":1176:1210   */\n      tag_284\n        /* \"#utility.yul\":1185:1209   */\n      tag_285\n        /* \"#utility.yul\":1203:1208   */\n      dup5\n        /* \"#utility.yul\":1185:1209   */\n      tag_224\n      jump\t// in\n    tag_285:\n        /* \"#utility.yul\":1176:1210   */\n      tag_225\n      jump\t// in\n    tag_284:\n        /* \"#utility.yul\":1158:1211   */\n      tag_224\n      jump\t// in\n    tag_283:\n        /* \"#utility.yul\":1145:1211   */\n      swap1\n      pop\n        /* \"#utility.yul\":1075:1217   */\n      swap2\n      swap1\n      pop\n      jump\t// out\n        /* \"#utility.yul\":1223:1349   */\n    tag_227:\n        /* \"#utility.yul\":1273:1282   */\n      0x00\n        /* \"#utility.yul\":1306:1343   */\n      tag_287\n        /* \"#utility.yul\":1337:1342   */\n      dup3\n        /* \"#utility.yul\":1306:1343   */\n      tag_226\n      jump\t// in\n    tag_287:\n        /* \"#utility.yul\":1293:1343   */\n      swap1\n      pop\n        /* \"#utility.yul\":1223:1349   */\n      swap2\n      swap1\n      pop\n      jump\t// out\n        /* \"#utility.yul\":1355:1496   */\n    tag_228:\n        /* \"#utility.yul\":1420:1429   */\n      0x00\n        /* \"#utility.yul\":1453:1490   */\n      tag_289\n        /* \"#utility.yul\":1484:1489   */\n      dup3\n        /* \"#utility.yul\":1453:1490   */\n      tag_227\n      jump\t// in\n    tag_289:\n        /* \"#utility.yul\":1440:1490   */\n      swap1\n      pop\n        /* \"#utility.yul\":1355:1496   */\n      swap2\n      swap1\n      pop\n      jump\t// out\n        /* \"#utility.yul\":1502:1663   */\n    tag_229:\n        /* \"#utility.yul\":1604:1656   */\n      tag_291\n        /* \"#utility.yul\":1650:1655   */\n      dup2\n        /* \"#utility.yul\":1604:1656   */\n      tag_228\n      jump\t// in\n    tag_291:\n        /* \"#utility.yul\":1599:1602   */\n      dup3\n        /* \"#utility.yul\":1592:1657   */\n      mstore\n        /* \"#utility.yul\":1502:1663   */\n      pop\n      pop\n      jump\t// out\n        /* \"#utility.yul\":1669:1921   */\n    tag_62:\n        /* \"#utility.yul\":1777:1781   */\n      0x00\n        /* \"#utility.yul\":1815:1817   */\n      0x20\n        /* \"#utility.yul\":1804:1813   */\n      dup3\n        /* \"#utility.yul\":1800:1818   */\n      add\n        /* \"#utility.yul\":1792:1818   */\n      swap1\n      pop\n        /* \"#utility.yul\":1828:1914   */\n      tag_293\n        /* \"#utility.yul\":1911:1912   */\n      0x00\n        /* \"#utility.yul\":1900:1909   */\n      dup4\n        /* \"#utility.yul\":1896:1913   */\n      add\n        /* \"#utility.yul\":1887:1893   */\n      dup5\n        /* \"#utility.yul\":1828:1914   */\n      tag_229\n      jump\t// in\n    tag_293:\n        /* \"#utility.yul\":1669:1921   */\n      swap3\n      swap2\n      pop\n      pop\n      jump\t// out\n        /* \"#utility.yul\":1927:2107   */\n    tag_87:\n        /* \"#utility.yul\":1975:2052   */\n      0x4e487b7100000000000000000000000000000000000000000000000000000000\n        /* \"#utility.yul\":1972:1973   */\n      0x00\n        /* \"#utility.yul\":1965:2053   */\n      mstore\n        /* \"#utility.yul\":2072:2076   */\n      0x21\n        /* \"#utility.yul\":2069:2070   */\n      0x04\n        /* \"#utility.yul\":2062:2077   */\n      mstore\n        /* \"#utility.yul\":2096:2100   */\n      0x24\n        /* \"#utility.yul\":2093:2094   */\n      0x00\n        /* \"#utility.yul\":2086:2101   */\n      revert\n        /* \"#utility.yul\":2113:2227   */\n    tag_230:\n        /* \"#utility.yul\":2195:2196   */\n      0x04\n        /* \"#utility.yul\":2188:2193   */\n      dup2\n        /* \"#utility.yul\":2185:2197   */\n      lt\n        /* \"#utility.yul\":2175:2221   */\n      tag_296\n      jumpi\n        /* \"#utility.yul\":2201:2219   */\n      tag_297\n      tag_87\n      jump\t// in\n    tag_297:\n        /* \"#utility.yul\":2175:2221   */\n    tag_296:\n        /* \"#utility.yul\":2113:2227   */\n      pop\n      jump\t// out\n        /* \"#utility.yul\":2233:2362   */\n    tag_231:\n        /* \"#utility.yul\":2279:2286   */\n      0x00\n        /* \"#utility.yul\":2308:2313   */\n      dup2\n        /* \"#utility.yul\":2297:2313   */\n      swap1\n      pop\n        /* \"#utility.yul\":2314:2356   */\n      tag_299\n        /* \"#utility.yul\":2350:2355   */\n      dup3\n        /* \"#utility.yul\":2314:2356   */\n      tag_230\n      jump\t// in\n    tag_299:\n        /* \"#utility.yul\":2233:2362   */\n      swap2\n      swap1\n      pop\n      jump\t// out\n        /* \"#utility.yul\":2368:2497   */\n    tag_232:\n        /* \"#utility.yul\":2425:2434   */\n      0x00\n        /* \"#utility.yul\":2458:2491   */\n      tag_301\n        /* \"#utility.yul\":2485:2490   */\n      dup3\n        /* \"#utility.yul\":2458:2491   */\n      tag_231\n      jump\t// in\n    tag_301:\n        /* \"#utility.yul\":2445:2491   */\n      swap1\n      pop\n        /* \"#utility.yul\":2368:2497   */\n      swap2\n      swap1\n      pop\n      jump\t// out\n        /* \"#utility.yul\":2503:2648   */\n    tag_233:\n        /* \"#utility.yul\":2597:2641   */\n      tag_303\n        /* \"#utility.yul\":2635:2640   */\n      dup2\n        /* \"#utility.yul\":2597:2641   */\n      tag_232\n      jump\t// in\n    tag_303:\n        /* \"#utility.yul\":2592:2595   */\n      dup3\n        /* \"#utility.yul\":2585:2642   */\n      mstore\n        /* \"#utility.yul\":2503:2648   */\n      pop\n      pop\n      jump\t// out\n        /* \"#utility.yul\":2654:2890   */\n    tag_71:\n        /* \"#utility.yul\":2754:2758   */\n      0x00\n        /* \"#utility.yul\":2792:2794   */\n      0x20\n        /* \"#utility.yul\":2781:2790   */\n      dup3\n        /* \"#utility.yul\":2777:2795   */\n      add\n        /* \"#utility.yul\":2769:2795   */\n      swap1\n      pop\n        /* \"#utility.yul\":2805:2883   */\n      tag_305\n        /* \"#utility.yul\":2880:2881   */\n      0x00\n        /* \"#utility.yul\":2869:2878   */\n      dup4\n        /* \"#utility.yul\":2865:2882   */\n      add\n        /* \"#utility.yul\":2856:2862   */\n      dup5\n        /* \"#utility.yul\":2805:2883   */\n      tag_233\n      jump\t// in\n    tag_305:\n        /* \"#utility.yul\":2654:2890   */\n      swap3\n      swap2\n      pop\n      pop\n      jump\t// out\n        /* \"#utility.yul\":2896:2986   */\n    tag_234:\n        /* \"#utility.yul\":2930:2937   */\n      0x00\n        /* \"#utility.yul\":2973:2978   */\n      dup2\n        /* \"#utility.yul\":2966:2979   */\n      iszero\n        /* \"#utility.yul\":2959:2980   */\n      iszero\n        /* \"#utility.yul\":2948:2980   */\n      swap1\n      pop\n        /* \"#utility.yul\":2896:2986   */\n      swap2\n      swap1\n      pop\n      jump\t// out\n        /* \"#utility.yul\":2992:3101   */\n    tag_235:\n        /* \"#utility.yul\":3073:3094   */\n      tag_308\n        /* \"#utility.yul\":3088:3093   */\n      dup2\n        /* \"#utility.yul\":3073:3094   */\n      tag_234\n      jump\t// in\n    tag_308:\n        /* \"#utility.yul\":3068:3071   */\n      dup3\n        /* \"#utility.yul\":3061:3095   */\n      mstore\n        /* \"#utility.yul\":2992:3101   */\n      pop\n      pop\n      jump\t// out\n        /* \"#utility.yul\":3107:3317   */\n    tag_83:\n        /* \"#utility.yul\":3194:3198   */\n      0x00\n        /* \"#utility.yul\":3232:3234   */\n      0x20\n        /* \"#utility.yul\":3221:3230   */\n      dup3\n        /* \"#utility.yul\":3217:3235   */\n      add\n        /* \"#utility.yul\":3209:3235   */\n      swap1\n      pop\n        /* \"#utility.yul\":3245:3310   */\n      tag_310\n        /* \"#utility.yul\":3307:3308   */\n      0x00\n        /* \"#utility.yul\":3296:3305   */\n      dup4\n        /* \"#utility.yul\":3292:3309   */\n      add\n        /* \"#utility.yul\":3283:3289   */\n      dup5\n        /* \"#utility.yul\":3245:3310   */\n      tag_235\n      jump\t// in\n    tag_310:\n        /* \"#utility.yul\":3107:3317   */\n      swap3\n      swap2\n      pop\n      pop\n      jump\t// out\n        /* \"#utility.yul\":3323:3398   */\n    tag_236:\n        /* \"#utility.yul\":3356:3362   */\n      0x00\n        /* \"#utility.yul\":3389:3391   */\n      0x40\n        /* \"#utility.yul\":3383:3392   */\n      mload\n        /* \"#utility.yul\":3373:3392   */\n      swap1\n      pop\n        /* \"#utility.yul\":3323:3398   */\n      swap1\n      jump\t// out\n        /* \"#utility.yul\":3404:3521   */\n    tag_237:\n        /* \"#utility.yul\":3513:3514   */\n      0x00\n        /* \"#utility.yul\":3510:3511   */\n      dup1\n        /* \"#utility.yul\":3503:3515   */\n      revert\n        /* \"#utility.yul\":3650:3746   */\n    tag_239:\n        /* \"#utility.yul\":3687:3694   */\n      0x00\n        /* \"#utility.yul\":3716:3740   */\n      tag_315\n        /* \"#utility.yul\":3734:3739   */\n      dup3\n        /* \"#utility.yul\":3716:3740   */\n      tag_224\n      jump\t// in\n    tag_315:\n        /* \"#utility.yul\":3705:3740   */\n      swap1\n      pop\n        /* \"#utility.yul\":3650:3746   */\n      swap2\n      swap1\n      pop\n      jump\t// out\n        /* \"#utility.yul\":3752:3874   */\n    tag_240:\n        /* \"#utility.yul\":3825:3849   */\n      tag_317\n        /* \"#utility.yul\":3843:3848   */\n      dup2\n        /* \"#utility.yul\":3825:3849   */\n      tag_239\n      jump\t// in\n    tag_317:\n        /* \"#utility.yul\":3818:3823   */\n      dup2\n        /* \"#utility.yul\":3815:3850   */\n      eq\n        /* \"#utility.yul\":3805:3868   */\n      tag_318\n      jumpi\n        /* \"#utility.yul\":3864:3865   */\n      0x00\n        /* \"#utility.yul\":3861:3862   */\n      dup1\n        /* \"#utility.yul\":3854:3866   */\n      revert\n        /* \"#utility.yul\":3805:3868   */\n    tag_318:\n        /* \"#utility.yul\":3752:3874   */\n      pop\n      jump\t// out\n        /* \"#utility.yul\":3880:4023   */\n    tag_241:\n        /* \"#utility.yul\":3937:3942   */\n      0x00\n        /* \"#utility.yul\":3968:3974   */\n      dup2\n        /* \"#utility.yul\":3962:3975   */\n      mload\n        /* \"#utility.yul\":3953:3975   */\n      swap1\n      pop\n        /* \"#utility.yul\":3984:4017   */\n      tag_320\n        /* \"#utility.yul\":4011:4016   */\n      dup2\n        /* \"#utility.yul\":3984:4017   */\n      tag_240\n      jump\t// in\n    tag_320:\n        /* \"#utility.yul\":3880:4023   */\n      swap3\n      swap2\n      pop\n      pop\n      jump\t// out\n        /* \"#utility.yul\":4029:4380   */\n    tag_94:\n        /* \"#utility.yul\":4099:4105   */\n      0x00\n        /* \"#utility.yul\":4148:4150   */\n      0x20\n        /* \"#utility.yul\":4136:4145   */\n      dup3\n        /* \"#utility.yul\":4127:4134   */\n      dup5\n        /* \"#utility.yul\":4123:4146   */\n      sub\n        /* \"#utility.yul\":4119:4151   */\n      slt\n        /* \"#utility.yul\":4116:4235   */\n      iszero\n      tag_322\n      jumpi\n        /* \"#utility.yul\":4154:4233   */\n      tag_323\n      tag_237\n      jump\t// in\n    tag_323:\n        /* \"#utility.yul\":4116:4235   */\n    tag_322:\n        /* \"#utility.yul\":4274:4275   */\n      0x00\n        /* \"#utility.yul\":4299:4363   */\n      tag_324\n        /* \"#utility.yul\":4355:4362   */\n      dup5\n        /* \"#utility.yul\":4346:4352   */\n      dup3\n        /* \"#utility.yul\":4335:4344   */\n      dup6\n        /* \"#utility.yul\":4331:4353   */\n      add\n        /* \"#utility.yul\":4299:4363   */\n      tag_241\n      jump\t// in\n    tag_324:\n        /* \"#utility.yul\":4289:4363   */\n      swap2\n      pop\n        /* \"#utility.yul\":4245:4373   */\n      pop\n        /* \"#utility.yul\":4029:4380   */\n      swap3\n      swap2\n      pop\n      pop\n      jump\t// out\n        /* \"#utility.yul\":4386:4555   */\n    tag_242:\n        /* \"#utility.yul\":4470:4481   */\n      0x00\n        /* \"#utility.yul\":4504:4510   */\n      dup3\n        /* \"#utility.yul\":4499:4502   */\n      dup3\n        /* \"#utility.yul\":4492:4511   */\n      mstore\n        /* \"#utility.yul\":4544:4548   */\n      0x20\n        /* \"#utility.yul\":4539:4542   */\n      dup3\n        /* \"#utility.yul\":4535:4549   */\n      add\n        /* \"#utility.yul\":4520:4549   */\n      swap1\n      pop\n        /* \"#utility.yul\":4386:4555   */\n      swap3\n      swap2\n      pop\n      pop\n      jump\t// out\n        /* \"#utility.yul\":4561:4855   */\n    tag_243:\n        /* \"#utility.yul\":4701:4735   */\n      0x4f6e6c7920746865206661726d6572206f66207468652070726f647563652063\n        /* \"#utility.yul\":4697:4698   */\n      0x00\n        /* \"#utility.yul\":4689:4695   */\n      dup3\n        /* \"#utility.yul\":4685:4699   */\n      add\n        /* \"#utility.yul\":4678:4736   */\n      mstore\n        /* \"#utility.yul\":4770:4804   */\n      0x616e206e6f74696679207468617420746865206f726465722068617320626565\n        /* \"#utility.yul\":4765:4767   */\n      0x20\n        /* \"#utility.yul\":4757:4763   */\n      dup3\n        /* \"#utility.yul\":4753:4768   */\n      add\n        /* \"#utility.yul\":4746:4805   */\n      mstore\n        /* \"#utility.yul\":4839:4847   */\n      0x6e2073656e740000000000000000000000000000000000000000000000000000\n        /* \"#utility.yul\":4834:4836   */\n      0x40\n        /* \"#utility.yul\":4826:4832   */\n      dup3\n        /* \"#utility.yul\":4822:4837   */\n      add\n        /* \"#utility.yul\":4815:4848   */\n      mstore\n        /* \"#utility.yul\":4561:4855   */\n      pop\n      jump\t// out\n        /* \"#utility.yul\":4861:5227   */\n    tag_244:\n        /* \"#utility.yul\":5003:5006   */\n      0x00\n        /* \"#utility.yul\":5024:5091   */\n      tag_328\n        /* \"#utility.yul\":5088:5090   */\n      0x46\n        /* \"#utility.yul\":5083:5086   */\n      dup4\n        /* \"#utility.yul\":5024:5091   */\n      tag_242\n      jump\t// in\n    tag_328:\n        /* \"#utility.yul\":5017:5091   */\n      swap2\n      pop\n        /* \"#utility.yul\":5100:5193   */\n      tag_329\n        /* \"#utility.yul\":5189:5192   */\n      dup3\n        /* \"#utility.yul\":5100:5193   */\n      tag_243\n      jump\t// in\n    tag_329:\n        /* \"#utility.yul\":5218:5220   */\n      0x60\n        /* \"#utility.yul\":5213:5216   */\n      dup3\n        /* \"#utility.yul\":5209:5221   */\n      add\n        /* \"#utility.yul\":5202:5221   */\n      swap1\n      pop\n        /* \"#utility.yul\":4861:5227   */\n      swap2\n      swap1\n      pop\n      jump\t// out\n        /* \"#utility.yul\":5233:5652   */\n    tag_97:\n        /* \"#utility.yul\":5399:5403   */\n      0x00\n        /* \"#utility.yul\":5437:5439   */\n      0x20\n        /* \"#utility.yul\":5426:5435   */\n      dup3\n        /* \"#utility.yul\":5422:5440   */\n      add\n        /* \"#utility.yul\":5414:5440   */\n      swap1\n      pop\n        /* \"#utility.yul\":5486:5495   */\n      dup2\n        /* \"#utility.yul\":5480:5484   */\n      dup2\n        /* \"#utility.yul\":5476:5496   */\n      sub\n        /* \"#utility.yul\":5472:5473   */\n      0x00\n        /* \"#utility.yul\":5461:5470   */\n      dup4\n        /* \"#utility.yul\":5457:5474   */\n      add\n        /* \"#utility.yul\":5450:5497   */\n      mstore\n        /* \"#utility.yul\":5514:5645   */\n      tag_331\n        /* \"#utility.yul\":5640:5644   */\n      dup2\n        /* \"#utility.yul\":5514:5645   */\n      tag_244\n      jump\t// in\n    tag_331:\n        /* \"#utility.yul\":5506:5645   */\n      swap1\n      pop\n        /* \"#utility.yul\":5233:5652   */\n      swap2\n      swap1\n      pop\n      jump\t// out\n        /* \"#utility.yul\":5658:5780   */\n    tag_245:\n        /* \"#utility.yul\":5731:5755   */\n      tag_333\n        /* \"#utility.yul\":5749:5754   */\n      dup2\n        /* \"#utility.yul\":5731:5755   */\n      tag_220\n      jump\t// in\n    tag_333:\n        /* \"#utility.yul\":5724:5729   */\n      dup2\n        /* \"#utility.yul\":5721:5756   */\n      eq\n        /* \"#utility.yul\":5711:5774   */\n      tag_334\n      jumpi\n        /* \"#utility.yul\":5770:5771   */\n      0x00\n        /* \"#utility.yul\":5767:5768   */\n      dup1\n        /* \"#utility.yul\":5760:5772   */\n      revert\n        /* \"#utility.yul\":5711:5774   */\n    tag_334:\n        /* \"#utility.yul\":5658:5780   */\n      pop\n      jump\t// out\n        /* \"#utility.yul\":5786:5929   */\n    tag_246:\n        /* \"#utility.yul\":5843:5848   */\n      0x00\n        /* \"#utility.yul\":5874:5880   */\n      dup2\n        /* \"#utility.yul\":5868:5881   */\n      mload\n        /* \"#utility.yul\":5859:5881   */\n      swap1\n      pop\n        /* \"#utility.yul\":5890:5923   */\n      tag_336\n        /* \"#utility.yul\":5917:5922   */\n      dup2\n        /* \"#utility.yul\":5890:5923   */\n      tag_245\n      jump\t// in\n    tag_336:\n        /* \"#utility.yul\":5786:5929   */\n      swap3\n      swap2\n      pop\n      pop\n      jump\t// out\n        /* \"#utility.yul\":5935:6286   */\n    tag_107:\n        /* \"#utility.yul\":6005:6011   */\n      0x00\n        /* \"#utility.yul\":6054:6056   */\n      0x20\n        /* \"#utility.yul\":6042:6051   */\n      dup3\n        /* \"#utility.yul\":6033:6040   */\n      dup5\n        /* \"#utility.yul\":6029:6052   */\n      sub\n        /* \"#utility.yul\":6025:6057   */\n      slt\n        /* \"#utility.yul\":6022:6141   */\n      iszero\n      tag_338\n      jumpi\n        /* \"#utility.yul\":6060:6139   */\n      tag_339\n      tag_237\n      jump\t// in\n    tag_339:\n        /* \"#utility.yul\":6022:6141   */\n    tag_338:\n        /* \"#utility.yul\":6180:6181   */\n      0x00\n        /* \"#utility.yul\":6205:6269   */\n      tag_340\n        /* \"#utility.yul\":6261:6268   */\n      dup5\n        /* \"#utility.yul\":6252:6258   */\n      dup3\n        /* \"#utility.yul\":6241:6250   */\n      dup6\n        /* \"#utility.yul\":6237:6259   */\n      add\n        /* \"#utility.yul\":6205:6269   */\n      tag_246\n      jump\t// in\n    tag_340:\n        /* \"#utility.yul\":6195:6269   */\n      swap2\n      pop\n        /* \"#utility.yul\":6151:6279   */\n      pop\n        /* \"#utility.yul\":5935:6286   */\n      swap3\n      swap2\n      pop\n      pop\n      jump\t// out\n        /* \"#utility.yul\":6292:6472   */\n    tag_247:\n        /* \"#utility.yul\":6340:6417   */\n      0x4e487b7100000000000000000000000000000000000000000000000000000000\n        /* \"#utility.yul\":6337:6338   */\n      0x00\n        /* \"#utility.yul\":6330:6418   */\n      mstore\n        /* \"#utility.yul\":6437:6441   */\n      0x11\n        /* \"#utility.yul\":6434:6435   */\n      0x04\n        /* \"#utility.yul\":6427:6442   */\n      mstore\n        /* \"#utility.yul\":6461:6465   */\n      0x24\n        /* \"#utility.yul\":6458:6459   */\n      0x00\n        /* \"#utility.yul\":6451:6466   */\n      revert\n        /* \"#utility.yul\":6478:6888   */\n    tag_109:\n        /* \"#utility.yul\":6518:6525   */\n      0x00\n        /* \"#utility.yul\":6541:6561   */\n      tag_343\n        /* \"#utility.yul\":6559:6560   */\n      dup3\n        /* \"#utility.yul\":6541:6561   */\n      tag_220\n      jump\t// in\n    tag_343:\n        /* \"#utility.yul\":6536:6561   */\n      swap2\n      pop\n        /* \"#utility.yul\":6575:6595   */\n      tag_344\n        /* \"#utility.yul\":6593:6594   */\n      dup4\n        /* \"#utility.yul\":6575:6595   */\n      tag_220\n      jump\t// in\n    tag_344:\n        /* \"#utility.yul\":6570:6595   */\n      swap3\n      pop\n        /* \"#utility.yul\":6630:6631   */\n      dup3\n        /* \"#utility.yul\":6627:6628   */\n      dup3\n        /* \"#utility.yul\":6623:6632   */\n      mul\n        /* \"#utility.yul\":6652:6682   */\n      tag_345\n        /* \"#utility.yul\":6670:6681   */\n      dup2\n        /* \"#utility.yul\":6652:6682   */\n      tag_220\n      jump\t// in\n    tag_345:\n        /* \"#utility.yul\":6641:6682   */\n      swap2\n      pop\n        /* \"#utility.yul\":6831:6832   */\n      dup3\n        /* \"#utility.yul\":6822:6829   */\n      dup3\n        /* \"#utility.yul\":6818:6833   */\n      div\n        /* \"#utility.yul\":6815:6816   */\n      dup5\n        /* \"#utility.yul\":6812:6834   */\n      eq\n        /* \"#utility.yul\":6792:6793   */\n      dup4\n        /* \"#utility.yul\":6785:6794   */\n      iszero\n        /* \"#utility.yul\":6765:6848   */\n      or\n        /* \"#utility.yul\":6742:6881   */\n      tag_346\n      jumpi\n        /* \"#utility.yul\":6861:6879   */\n      tag_347\n      tag_247\n      jump\t// in\n    tag_347:\n        /* \"#utility.yul\":6742:6881   */\n    tag_346:\n        /* \"#utility.yul\":6526:6888   */\n      pop\n        /* \"#utility.yul\":6478:6888   */\n      swap3\n      swap2\n      pop\n      pop\n      jump\t// out\n        /* \"#utility.yul\":6894:7071   */\n    tag_248:\n        /* \"#utility.yul\":7034:7063   */\n      0x6f7264657220686173206e6f74206265656e2072656a65637465640000000000\n        /* \"#utility.yul\":7030:7031   */\n      0x00\n        /* \"#utility.yul\":7022:7028   */\n      dup3\n        /* \"#utility.yul\":7018:7032   */\n      add\n        /* \"#utility.yul\":7011:7064   */\n      mstore\n        /* \"#utility.yul\":6894:7071   */\n      pop\n      jump\t// out\n        /* \"#utility.yul\":7077:7443   */\n    tag_249:\n        /* \"#utility.yul\":7219:7222   */\n      0x00\n        /* \"#utility.yul\":7240:7307   */\n      tag_350\n        /* \"#utility.yul\":7304:7306   */\n      0x1b\n        /* \"#utility.yul\":7299:7302   */\n      dup4\n        /* \"#utility.yul\":7240:7307   */\n      tag_242\n      jump\t// in\n    tag_350:\n        /* \"#utility.yul\":7233:7307   */\n      swap2\n      pop\n        /* \"#utility.yul\":7316:7409   */\n      tag_351\n        /* \"#utility.yul\":7405:7408   */\n      dup3\n        /* \"#utility.yul\":7316:7409   */\n      tag_248\n      jump\t// in\n    tag_351:\n        /* \"#utility.yul\":7434:7436   */\n      0x20\n        /* \"#utility.yul\":7429:7432   */\n      dup3\n        /* \"#utility.yul\":7425:7437   */\n      add\n        /* \"#utility.yul\":7418:7437   */\n      swap1\n      pop\n        /* \"#utility.yul\":7077:7443   */\n      swap2\n      swap1\n      pop\n      jump\t// out\n        /* \"#utility.yul\":7449:7868   */\n    tag_119:\n        /* \"#utility.yul\":7615:7619   */\n      0x00\n        /* \"#utility.yul\":7653:7655   */\n      0x20\n        /* \"#utility.yul\":7642:7651   */\n      dup3\n        /* \"#utility.yul\":7638:7656   */\n      add\n        /* \"#utility.yul\":7630:7656   */\n      swap1\n      pop\n        /* \"#utility.yul\":7702:7711   */\n      dup2\n        /* \"#utility.yul\":7696:7700   */\n      dup2\n        /* \"#utility.yul\":7692:7712   */\n      sub\n        /* \"#utility.yul\":7688:7689   */\n      0x00\n        /* \"#utility.yul\":7677:7686   */\n      dup4\n        /* \"#utility.yul\":7673:7690   */\n      add\n        /* \"#utility.yul\":7666:7713   */\n      mstore\n        /* \"#utility.yul\":7730:7861   */\n      tag_353\n        /* \"#utility.yul\":7856:7860   */\n      dup2\n        /* \"#utility.yul\":7730:7861   */\n      tag_249\n      jump\t// in\n    tag_353:\n        /* \"#utility.yul\":7722:7861   */\n      swap1\n      pop\n        /* \"#utility.yul\":7449:7868   */\n      swap2\n      swap1\n      pop\n      jump\t// out\n        /* \"#utility.yul\":7874:8106   */\n    tag_250:\n        /* \"#utility.yul\":8014:8048   */\n      0x637573746f6d657220686173206e6f206f75747374616e64696e672062616c61\n        /* \"#utility.yul\":8010:8011   */\n      0x00\n        /* \"#utility.yul\":8002:8008   */\n      dup3\n        /* \"#utility.yul\":7998:8012   */\n      add\n        /* \"#utility.yul\":7991:8049   */\n      mstore\n        /* \"#utility.yul\":8083:8098   */\n      0x6e636520746f20726566756e6400000000000000000000000000000000000000\n        /* \"#utility.yul\":8078:8080   */\n      0x20\n        /* \"#utility.yul\":8070:8076   */\n      dup3\n        /* \"#utility.yul\":8066:8081   */\n      add\n        /* \"#utility.yul\":8059:8099   */\n      mstore\n        /* \"#utility.yul\":7874:8106   */\n      pop\n      jump\t// out\n        /* \"#utility.yul\":8112:8478   */\n    tag_251:\n        /* \"#utility.yul\":8254:8257   */\n      0x00\n        /* \"#utility.yul\":8275:8342   */\n      tag_356\n        /* \"#utility.yul\":8339:8341   */\n      0x2d\n        /* \"#utility.yul\":8334:8337   */\n      dup4\n        /* \"#utility.yul\":8275:8342   */\n      tag_242\n      jump\t// in\n    tag_356:\n        /* \"#utility.yul\":8268:8342   */\n      swap2\n      pop\n        /* \"#utility.yul\":8351:8444   */\n      tag_357\n        /* \"#utility.yul\":8440:8443   */\n      dup3\n        /* \"#utility.yul\":8351:8444   */\n      tag_250\n      jump\t// in\n    tag_357:\n        /* \"#utility.yul\":8469:8471   */\n      0x40\n        /* \"#utility.yul\":8464:8467   */\n      dup3\n        /* \"#utility.yul\":8460:8472   */\n      add\n        /* \"#utility.yul\":8453:8472   */\n      swap1\n      pop\n        /* \"#utility.yul\":8112:8478   */\n      swap2\n      swap1\n      pop\n      jump\t// out\n        /* \"#utility.yul\":8484:8903   */\n    tag_122:\n        /* \"#utility.yul\":8650:8654   */\n      0x00\n        /* \"#utility.yul\":8688:8690   */\n      0x20\n        /* \"#utility.yul\":8677:8686   */\n      dup3\n        /* \"#utility.yul\":8673:8691   */\n      add\n        /* \"#utility.yul\":8665:8691   */\n      swap1\n      pop\n        /* \"#utility.yul\":8737:8746   */\n      dup2\n        /* \"#utility.yul\":8731:8735   */\n      dup2\n        /* \"#utility.yul\":8727:8747   */\n      sub\n        /* \"#utility.yul\":8723:8724   */\n      0x00\n        /* \"#utility.yul\":8712:8721   */\n      dup4\n        /* \"#utility.yul\":8708:8725   */\n      add\n        /* \"#utility.yul\":8701:8748   */\n      mstore\n        /* \"#utility.yul\":8765:8896   */\n      tag_359\n        /* \"#utility.yul\":8891:8895   */\n      dup2\n        /* \"#utility.yul\":8765:8896   */\n      tag_251\n      jump\t// in\n    tag_359:\n        /* \"#utility.yul\":8757:8896   */\n      swap1\n      pop\n        /* \"#utility.yul\":8484:8903   */\n      swap2\n      swap1\n      pop\n      jump\t// out\n        /* \"#utility.yul\":8909:9142   */\n    tag_252:\n        /* \"#utility.yul\":9049:9083   */\n      0x6d656d626572732063616e206f6e6c7920766f746520746f2072656a65637420\n        /* \"#utility.yul\":9045:9046   */\n      0x00\n        /* \"#utility.yul\":9037:9043   */\n      dup3\n        /* \"#utility.yul\":9033:9047   */\n      add\n        /* \"#utility.yul\":9026:9084   */\n      mstore\n        /* \"#utility.yul\":9118:9134   */\n      0x70656e64696e67206f7264657273000000000000000000000000000000000000\n        /* \"#utility.yul\":9113:9115   */\n      0x20\n        /* \"#utility.yul\":9105:9111   */\n      dup3\n        /* \"#utility.yul\":9101:9116   */\n      add\n        /* \"#utility.yul\":9094:9135   */\n      mstore\n        /* \"#utility.yul\":8909:9142   */\n      pop\n      jump\t// out\n        /* \"#utility.yul\":9148:9514   */\n    tag_253:\n        /* \"#utility.yul\":9290:9293   */\n      0x00\n        /* \"#utility.yul\":9311:9378   */\n      tag_362\n        /* \"#utility.yul\":9375:9377   */\n      0x2e\n        /* \"#utility.yul\":9370:9373   */\n      dup4\n        /* \"#utility.yul\":9311:9378   */\n      tag_242\n      jump\t// in\n    tag_362:\n        /* \"#utility.yul\":9304:9378   */\n      swap2\n      pop\n        /* \"#utility.yul\":9387:9480   */\n      tag_363\n        /* \"#utility.yul\":9476:9479   */\n      dup3\n        /* \"#utility.yul\":9387:9480   */\n      tag_252\n      jump\t// in\n    tag_363:\n        /* \"#utility.yul\":9505:9507   */\n      0x40\n        /* \"#utility.yul\":9500:9503   */\n      dup3\n        /* \"#utility.yul\":9496:9508   */\n      add\n        /* \"#utility.yul\":9489:9508   */\n      swap1\n      pop\n        /* \"#utility.yul\":9148:9514   */\n      swap2\n      swap1\n      pop\n      jump\t// out\n        /* \"#utility.yul\":9520:9939   */\n    tag_135:\n        /* \"#utility.yul\":9686:9690   */\n      0x00\n        /* \"#utility.yul\":9724:9726   */\n      0x20\n        /* \"#utility.yul\":9713:9722   */\n      dup3\n        /* \"#utility.yul\":9709:9727   */\n      add\n        /* \"#utility.yul\":9701:9727   */\n      swap1\n      pop\n        /* \"#utility.yul\":9773:9782   */\n      dup2\n        /* \"#utility.yul\":9767:9771   */\n      dup2\n        /* \"#utility.yul\":9763:9783   */\n      sub\n        /* \"#utility.yul\":9759:9760   */\n      0x00\n        /* \"#utility.yul\":9748:9757   */\n      dup4\n        /* \"#utility.yul\":9744:9761   */\n      add\n        /* \"#utility.yul\":9737:9784   */\n      mstore\n        /* \"#utility.yul\":9801:9932   */\n      tag_365\n        /* \"#utility.yul\":9927:9931   */\n      dup2\n        /* \"#utility.yul\":9801:9932   */\n      tag_253\n      jump\t// in\n    tag_365:\n        /* \"#utility.yul\":9793:9932   */\n      swap1\n      pop\n        /* \"#utility.yul\":9520:9939   */\n      swap2\n      swap1\n      pop\n      jump\t// out\n        /* \"#utility.yul\":9945:10193   */\n    tag_254:\n        /* \"#utility.yul\":10085:10119   */\n      0x6f6e6c79206d656d62657273206f6620746869732067726f7570206f72646572\n        /* \"#utility.yul\":10081:10082   */\n      0x00\n        /* \"#utility.yul\":10073:10079   */\n      dup3\n        /* \"#utility.yul\":10069:10083   */\n      add\n        /* \"#utility.yul\":10062:10120   */\n      mstore\n        /* \"#utility.yul\":10154:10185   */\n      0x206d617920766f746520746f2072656a65637420746865206f72646572000000\n        /* \"#utility.yul\":10149:10151   */\n      0x20\n        /* \"#utility.yul\":10141:10147   */\n      dup3\n        /* \"#utility.yul\":10137:10152   */\n      add\n        /* \"#utility.yul\":10130:10186   */\n      mstore\n        /* \"#utility.yul\":9945:10193   */\n      pop\n      jump\t// out\n        /* \"#utility.yul\":10199:10565   */\n    tag_255:\n        /* \"#utility.yul\":10341:10344   */\n      0x00\n        /* \"#utility.yul\":10362:10429   */\n      tag_368\n        /* \"#utility.yul\":10426:10428   */\n      0x3d\n        /* \"#utility.yul\":10421:10424   */\n      dup4\n        /* \"#utility.yul\":10362:10429   */\n      tag_242\n      jump\t// in\n    tag_368:\n        /* \"#utility.yul\":10355:10429   */\n      swap2\n      pop\n        /* \"#utility.yul\":10438:10531   */\n      tag_369\n        /* \"#utility.yul\":10527:10530   */\n      dup3\n        /* \"#utility.yul\":10438:10531   */\n      tag_254\n      jump\t// in\n    tag_369:\n        /* \"#utility.yul\":10556:10558   */\n      0x40\n        /* \"#utility.yul\":10551:10554   */\n      dup3\n        /* \"#utility.yul\":10547:10559   */\n      add\n        /* \"#utility.yul\":10540:10559   */\n      swap1\n      pop\n        /* \"#utility.yul\":10199:10565   */\n      swap2\n      swap1\n      pop\n      jump\t// out\n        /* \"#utility.yul\":10571:10990   */\n    tag_138:\n        /* \"#utility.yul\":10737:10741   */\n      0x00\n        /* \"#utility.yul\":10775:10777   */\n      0x20\n        /* \"#utility.yul\":10764:10773   */\n      dup3\n        /* \"#utility.yul\":10760:10778   */\n      add\n        /* \"#utility.yul\":10752:10778   */\n      swap1\n      pop\n        /* \"#utility.yul\":10824:10833   */\n      dup2\n        /* \"#utility.yul\":10818:10822   */\n      dup2\n        /* \"#utility.yul\":10814:10834   */\n      sub\n        /* \"#utility.yul\":10810:10811   */\n      0x00\n        /* \"#utility.yul\":10799:10808   */\n      dup4\n        /* \"#utility.yul\":10795:10812   */\n      add\n        /* \"#utility.yul\":10788:10835   */\n      mstore\n        /* \"#utility.yul\":10852:10983   */\n      tag_371\n        /* \"#utility.yul\":10978:10982   */\n      dup2\n        /* \"#utility.yul\":10852:10983   */\n      tag_255\n      jump\t// in\n    tag_371:\n        /* \"#utility.yul\":10844:10983   */\n      swap1\n      pop\n        /* \"#utility.yul\":10571:10990   */\n      swap2\n      swap1\n      pop\n      jump\t// out\n        /* \"#utility.yul\":10996:11187   */\n    tag_140:\n        /* \"#utility.yul\":11036:11039   */\n      0x00\n        /* \"#utility.yul\":11055:11075   */\n      tag_373\n        /* \"#utility.yul\":11073:11074   */\n      dup3\n        /* \"#utility.yul\":11055:11075   */\n      tag_220\n      jump\t// in\n    tag_373:\n        /* \"#utility.yul\":11050:11075   */\n      swap2\n      pop\n        /* \"#utility.yul\":11089:11109   */\n      tag_374\n        /* \"#utility.yul\":11107:11108   */\n      dup4\n        /* \"#utility.yul\":11089:11109   */\n      tag_220\n      jump\t// in\n    tag_374:\n        /* \"#utility.yul\":11084:11109   */\n      swap3\n      pop\n        /* \"#utility.yul\":11132:11133   */\n      dup3\n        /* \"#utility.yul\":11129:11130   */\n      dup3\n        /* \"#utility.yul\":11125:11134   */\n      add\n        /* \"#utility.yul\":11118:11134   */\n      swap1\n      pop\n        /* \"#utility.yul\":11153:11156   */\n      dup1\n        /* \"#utility.yul\":11150:11151   */\n      dup3\n        /* \"#utility.yul\":11147:11157   */\n      gt\n        /* \"#utility.yul\":11144:11180   */\n      iszero\n      tag_375\n      jumpi\n        /* \"#utility.yul\":11160:11178   */\n      tag_376\n      tag_247\n      jump\t// in\n    tag_376:\n        /* \"#utility.yul\":11144:11180   */\n    tag_375:\n        /* \"#utility.yul\":10996:11187   */\n      swap3\n      swap2\n      pop\n      pop\n      jump\t// out\n        /* \"#utility.yul\":11193:11432   */\n    tag_256:\n        /* \"#utility.yul\":11333:11367   */\n      0x546865206f72646572207374617465206973206e6f74206f70656e2c20736f20\n        /* \"#utility.yul\":11329:11330   */\n      0x00\n        /* \"#utility.yul\":11321:11327   */\n      dup3\n        /* \"#utility.yul\":11317:11331   */\n      add\n        /* \"#utility.yul\":11310:11368   */\n      mstore\n        /* \"#utility.yul\":11402:11424   */\n      0x63616e206e6f742062652074696d6564206f7574000000000000000000000000\n        /* \"#utility.yul\":11397:11399   */\n      0x20\n        /* \"#utility.yul\":11389:11395   */\n      dup3\n        /* \"#utility.yul\":11385:11400   */\n      add\n        /* \"#utility.yul\":11378:11425   */\n      mstore\n        /* \"#utility.yul\":11193:11432   */\n      pop\n      jump\t// out\n        /* \"#utility.yul\":11438:11804   */\n    tag_257:\n        /* \"#utility.yul\":11580:11583   */\n      0x00\n        /* \"#utility.yul\":11601:11668   */\n      tag_379\n        /* \"#utility.yul\":11665:11667   */\n      0x34\n        /* \"#utility.yul\":11660:11663   */\n      dup4\n        /* \"#utility.yul\":11601:11668   */\n      tag_242\n      jump\t// in\n    tag_379:\n        /* \"#utility.yul\":11594:11668   */\n      swap2\n      pop\n        /* \"#utility.yul\":11677:11770   */\n      tag_380\n        /* \"#utility.yul\":11766:11769   */\n      dup3\n        /* \"#utility.yul\":11677:11770   */\n      tag_256\n      jump\t// in\n    tag_380:\n        /* \"#utility.yul\":11795:11797   */\n      0x40\n        /* \"#utility.yul\":11790:11793   */\n      dup3\n        /* \"#utility.yul\":11786:11798   */\n      add\n        /* \"#utility.yul\":11779:11798   */\n      swap1\n      pop\n        /* \"#utility.yul\":11438:11804   */\n      swap2\n      swap1\n      pop\n      jump\t// out\n        /* \"#utility.yul\":11810:12229   */\n    tag_155:\n        /* \"#utility.yul\":11976:11980   */\n      0x00\n        /* \"#utility.yul\":12014:12016   */\n      0x20\n        /* \"#utility.yul\":12003:12012   */\n      dup3\n        /* \"#utility.yul\":11999:12017   */\n      add\n        /* \"#utility.yul\":11991:12017   */\n      swap1\n      pop\n        /* \"#utility.yul\":12063:12072   */\n      dup2\n        /* \"#utility.yul\":12057:12061   */\n      dup2\n        /* \"#utility.yul\":12053:12073   */\n      sub\n        /* \"#utility.yul\":12049:12050   */\n      0x00\n        /* \"#utility.yul\":12038:12047   */\n      dup4\n        /* \"#utility.yul\":12034:12051   */\n      add\n        /* \"#utility.yul\":12027:12074   */\n      mstore\n        /* \"#utility.yul\":12091:12222   */\n      tag_382\n        /* \"#utility.yul\":12217:12221   */\n      dup2\n        /* \"#utility.yul\":12091:12222   */\n      tag_257\n      jump\t// in\n    tag_382:\n        /* \"#utility.yul\":12083:12222   */\n      swap1\n      pop\n        /* \"#utility.yul\":11810:12229   */\n      swap2\n      swap1\n      pop\n      jump\t// out\n        /* \"#utility.yul\":12235:12459   */\n    tag_258:\n        /* \"#utility.yul\":12375:12409   */\n      0x5468652067726f7570206f7264657220686173206e6f74207965742074696d65\n        /* \"#utility.yul\":12371:12372   */\n      0x00\n        /* \"#utility.yul\":12363:12369   */\n      dup3\n        /* \"#utility.yul\":12359:12373   */\n      add\n        /* \"#utility.yul\":12352:12410   */\n      mstore\n        /* \"#utility.yul\":12444:12451   */\n      0x64206f7574000000000000000000000000000000000000000000000000000000\n        /* \"#utility.yul\":12439:12441   */\n      0x20\n        /* \"#utility.yul\":12431:12437   */\n      dup3\n        /* \"#utility.yul\":12427:12442   */\n      add\n        /* \"#utility.yul\":12420:12452   */\n      mstore\n        /* \"#utility.yul\":12235:12459   */\n      pop\n      jump\t// out\n        /* \"#utility.yul\":12465:12831   */\n    tag_259:\n        /* \"#utility.yul\":12607:12610   */\n      0x00\n        /* \"#utility.yul\":12628:12695   */\n      tag_385\n        /* \"#utility.yul\":12692:12694   */\n      0x25\n        /* \"#utility.yul\":12687:12690   */\n      dup4\n        /* \"#utility.yul\":12628:12695   */\n      tag_242\n      jump\t// in\n    tag_385:\n        /* \"#utility.yul\":12621:12695   */\n      swap2\n      pop\n        /* \"#utility.yul\":12704:12797   */\n      tag_386\n        /* \"#utility.yul\":12793:12796   */\n      dup3\n        /* \"#utility.yul\":12704:12797   */\n      tag_258\n      jump\t// in\n    tag_386:\n        /* \"#utility.yul\":12822:12824   */\n      0x40\n        /* \"#utility.yul\":12817:12820   */\n      dup3\n        /* \"#utility.yul\":12813:12825   */\n      add\n        /* \"#utility.yul\":12806:12825   */\n      swap1\n      pop\n        /* \"#utility.yul\":12465:12831   */\n      swap2\n      swap1\n      pop\n      jump\t// out\n        /* \"#utility.yul\":12837:13256   */\n    tag_158:\n        /* \"#utility.yul\":13003:13007   */\n      0x00\n        /* \"#utility.yul\":13041:13043   */\n      0x20\n        /* \"#utility.yul\":13030:13039   */\n      dup3\n        /* \"#utility.yul\":13026:13044   */\n      add\n        /* \"#utility.yul\":13018:13044   */\n      swap1\n      pop\n        /* \"#utility.yul\":13090:13099   */\n      dup2\n        /* \"#utility.yul\":13084:13088   */\n      dup2\n        /* \"#utility.yul\":13080:13100   */\n      sub\n        /* \"#utility.yul\":13076:13077   */\n      0x00\n        /* \"#utility.yul\":13065:13074   */\n      dup4\n        /* \"#utility.yul\":13061:13078   */\n      add\n        /* \"#utility.yul\":13054:13101   */\n      mstore\n        /* \"#utility.yul\":13118:13249   */\n      tag_388\n        /* \"#utility.yul\":13244:13248   */\n      dup2\n        /* \"#utility.yul\":13118:13249   */\n      tag_259\n      jump\t// in\n    tag_388:\n        /* \"#utility.yul\":13110:13249   */\n      swap1\n      pop\n        /* \"#utility.yul\":12837:13256   */\n      swap2\n      swap1\n      pop\n      jump\t// out\n        /* \"#utility.yul\":13262:13500   */\n    tag_260:\n        /* \"#utility.yul\":13402:13436   */\n      0x4f6e6c7920746865206661726d6572206f66207468652070726f647563652063\n        /* \"#utility.yul\":13398:13399   */\n      0x00\n        /* \"#utility.yul\":13390:13396   */\n      dup3\n        /* \"#utility.yul\":13386:13400   */\n      add\n        /* \"#utility.yul\":13379:13437   */\n      mstore\n        /* \"#utility.yul\":13471:13492   */\n      0x616e2072656a65637420746865206f7264657200000000000000000000000000\n        /* \"#utility.yul\":13466:13468   */\n      0x20\n        /* \"#utility.yul\":13458:13464   */\n      dup3\n        /* \"#utility.yul\":13454:13469   */\n      add\n        /* \"#utility.yul\":13447:13493   */\n      mstore\n        /* \"#utility.yul\":13262:13500   */\n      pop\n      jump\t// out\n        /* \"#utility.yul\":13506:13872   */\n    tag_261:\n        /* \"#utility.yul\":13648:13651   */\n      0x00\n        /* \"#utility.yul\":13669:13736   */\n      tag_391\n        /* \"#utility.yul\":13733:13735   */\n      0x33\n        /* \"#utility.yul\":13728:13731   */\n      dup4\n        /* \"#utility.yul\":13669:13736   */\n      tag_242\n      jump\t// in\n    tag_391:\n        /* \"#utility.yul\":13662:13736   */\n      swap2\n      pop\n        /* \"#utility.yul\":13745:13838   */\n      tag_392\n        /* \"#utility.yul\":13834:13837   */\n      dup3\n        /* \"#utility.yul\":13745:13838   */\n      tag_260\n      jump\t// in\n    tag_392:\n        /* \"#utility.yul\":13863:13865   */\n      0x40\n        /* \"#utility.yul\":13858:13861   */\n      dup3\n        /* \"#utility.yul\":13854:13866   */\n      add\n        /* \"#utility.yul\":13847:13866   */\n      swap1\n      pop\n        /* \"#utility.yul\":13506:13872   */\n      swap2\n      swap1\n      pop\n      jump\t// out\n        /* \"#utility.yul\":13878:14297   */\n    tag_173:\n        /* \"#utility.yul\":14044:14048   */\n      0x00\n        /* \"#utility.yul\":14082:14084   */\n      0x20\n        /* \"#utility.yul\":14071:14080   */\n      dup3\n        /* \"#utility.yul\":14067:14085   */\n      add\n        /* \"#utility.yul\":14059:14085   */\n      swap1\n      pop\n        /* \"#utility.yul\":14131:14140   */\n      dup2\n        /* \"#utility.yul\":14125:14129   */\n      dup2\n        /* \"#utility.yul\":14121:14141   */\n      sub\n        /* \"#utility.yul\":14117:14118   */\n      0x00\n        /* \"#utility.yul\":14106:14115   */\n      dup4\n        /* \"#utility.yul\":14102:14119   */\n      add\n        /* \"#utility.yul\":14095:14142   */\n      mstore\n        /* \"#utility.yul\":14159:14290   */\n      tag_394\n        /* \"#utility.yul\":14285:14289   */\n      dup2\n        /* \"#utility.yul\":14159:14290   */\n      tag_261\n      jump\t// in\n    tag_394:\n        /* \"#utility.yul\":14151:14290   */\n      swap1\n      pop\n        /* \"#utility.yul\":13878:14297   */\n      swap2\n      swap1\n      pop\n      jump\t// out\n        /* \"#utility.yul\":14303:14497   */\n    tag_187:\n        /* \"#utility.yul\":14343:14347   */\n      0x00\n        /* \"#utility.yul\":14363:14383   */\n      tag_396\n        /* \"#utility.yul\":14381:14382   */\n      dup3\n        /* \"#utility.yul\":14363:14383   */\n      tag_220\n      jump\t// in\n    tag_396:\n        /* \"#utility.yul\":14358:14383   */\n      swap2\n      pop\n        /* \"#utility.yul\":14397:14417   */\n      tag_397\n        /* \"#utility.yul\":14415:14416   */\n      dup4\n        /* \"#utility.yul\":14397:14417   */\n      tag_220\n      jump\t// in\n    tag_397:\n        /* \"#utility.yul\":14392:14417   */\n      swap3\n      pop\n        /* \"#utility.yul\":14441:14442   */\n      dup3\n        /* \"#utility.yul\":14438:14439   */\n      dup3\n        /* \"#utility.yul\":14434:14443   */\n      sub\n        /* \"#utility.yul\":14426:14443   */\n      swap1\n      pop\n        /* \"#utility.yul\":14465:14466   */\n      dup2\n        /* \"#utility.yul\":14459:14463   */\n      dup2\n        /* \"#utility.yul\":14456:14467   */\n      gt\n        /* \"#utility.yul\":14453:14490   */\n      iszero\n      tag_398\n      jumpi\n        /* \"#utility.yul\":14470:14488   */\n      tag_399\n      tag_247\n      jump\t// in\n    tag_399:\n        /* \"#utility.yul\":14453:14490   */\n    tag_398:\n        /* \"#utility.yul\":14303:14497   */\n      swap3\n      swap2\n      pop\n      pop\n      jump\t// out\n        /* \"#utility.yul\":14503:14609   */\n    tag_262:\n        /* \"#utility.yul\":14547:14555   */\n      0x00\n        /* \"#utility.yul\":14596:14601   */\n      dup2\n        /* \"#utility.yul\":14591:14594   */\n      0xe0\n        /* \"#utility.yul\":14587:14602   */\n      shr\n        /* \"#utility.yul\":14566:14602   */\n      swap1\n      pop\n        /* \"#utility.yul\":14503:14609   */\n      swap2\n      swap1\n      pop\n      jump\t// out\n        /* \"#utility.yul\":14615:14798   */\n    tag_210:\n        /* \"#utility.yul\":14650:14653   */\n      0x00\n        /* \"#utility.yul\":14688:14689   */\n      0x03\n        /* \"#utility.yul\":14670:14686   */\n      returndatasize\n        /* \"#utility.yul\":14667:14690   */\n      gt\n        /* \"#utility.yul\":14664:14792   */\n      iszero\n      tag_402\n      jumpi\n        /* \"#utility.yul\":14726:14727   */\n      0x04\n        /* \"#utility.yul\":14723:14724   */\n      0x00\n        /* \"#utility.yul\":14720:14721   */\n      dup1\n        /* \"#utility.yul\":14705:14728   */\n      returndatacopy\n        /* \"#utility.yul\":14748:14782   */\n      tag_403\n        /* \"#utility.yul\":14779:14780   */\n      0x00\n        /* \"#utility.yul\":14773:14781   */\n      mload\n        /* \"#utility.yul\":14748:14782   */\n      tag_262\n      jump\t// in\n    tag_403:\n        /* \"#utility.yul\":14741:14782   */\n      swap1\n      pop\n        /* \"#utility.yul\":14664:14792   */\n    tag_402:\n        /* \"#utility.yul\":14615:14798   */\n      swap1\n      jump\t// out\n        /* \"#utility.yul\":14804:14906   */\n    tag_263:\n        /* \"#utility.yul\":14845:14851   */\n      0x00\n        /* \"#utility.yul\":14896:14898   */\n      0x1f\n        /* \"#utility.yul\":14892:14899   */\n      not\n        /* \"#utility.yul\":14887:14889   */\n      0x1f\n        /* \"#utility.yul\":14880:14885   */\n      dup4\n        /* \"#utility.yul\":14876:14890   */\n      add\n        /* \"#utility.yul\":14872:14900   */\n      and\n        /* \"#utility.yul\":14862:14900   */\n      swap1\n      pop\n        /* \"#utility.yul\":14804:14906   */\n      swap2\n      swap1\n      pop\n      jump\t// out\n        /* \"#utility.yul\":14912:15092   */\n    tag_264:\n        /* \"#utility.yul\":14960:15037   */\n      0x4e487b7100000000000000000000000000000000000000000000000000000000\n        /* \"#utility.yul\":14957:14958   */\n      0x00\n        /* \"#utility.yul\":14950:15038   */\n      mstore\n        /* \"#utility.yul\":15057:15061   */\n      0x41\n        /* \"#utility.yul\":15054:15055   */\n      0x04\n        /* \"#utility.yul\":15047:15062   */\n      mstore\n        /* \"#utility.yul\":15081:15085   */\n      0x24\n        /* \"#utility.yul\":15078:15079   */\n      0x00\n        /* \"#utility.yul\":15071:15086   */\n      revert\n        /* \"#utility.yul\":15098:15379   */\n    tag_265:\n        /* \"#utility.yul\":15181:15208   */\n      tag_407\n        /* \"#utility.yul\":15203:15207   */\n      dup3\n        /* \"#utility.yul\":15181:15208   */\n      tag_263\n      jump\t// in\n    tag_407:\n        /* \"#utility.yul\":15173:15179   */\n      dup2\n        /* \"#utility.yul\":15169:15209   */\n      add\n        /* \"#utility.yul\":15311:15317   */\n      dup2\n        /* \"#utility.yul\":15299:15309   */\n      dup2\n        /* \"#utility.yul\":15296:15318   */\n      lt\n        /* \"#utility.yul\":15275:15293   */\n      0xffffffffffffffff\n        /* \"#utility.yul\":15263:15273   */\n      dup3\n        /* \"#utility.yul\":15260:15294   */\n      gt\n        /* \"#utility.yul\":15257:15319   */\n      or\n        /* \"#utility.yul\":15254:15342   */\n      iszero\n      tag_408\n      jumpi\n        /* \"#utility.yul\":15322:15340   */\n      tag_409\n      tag_264\n      jump\t// in\n    tag_409:\n        /* \"#utility.yul\":15254:15342   */\n    tag_408:\n        /* \"#utility.yul\":15362:15372   */\n      dup1\n        /* \"#utility.yul\":15358:15360   */\n      0x40\n        /* \"#utility.yul\":15351:15373   */\n      mstore\n        /* \"#utility.yul\":15141:15379   */\n      pop\n        /* \"#utility.yul\":15098:15379   */\n      pop\n      pop\n      jump\t// out\n        /* \"#utility.yul\":15385:16096   */\n    tag_212:\n        /* \"#utility.yul\":15424:15427   */\n      0x00\n        /* \"#utility.yul\":15462:15466   */\n      0x44\n        /* \"#utility.yul\":15444:15460   */\n      returndatasize\n        /* \"#utility.yul\":15441:15467   */\n      lt\n        /* \"#utility.yul\":15470:15475   */\n      tag_410\n        /* \"#utility.yul\":15438:15477   */\n      jumpi\n        /* \"#utility.yul\":15499:15519   */\n      tag_412\n      tag_236\n      jump\t// in\n    tag_412:\n        /* \"#utility.yul\":15574:15575   */\n      0x04\n        /* \"#utility.yul\":15556:15572   */\n      returndatasize\n        /* \"#utility.yul\":15552:15576   */\n      sub\n        /* \"#utility.yul\":15549:15550   */\n      0x04\n        /* \"#utility.yul\":15543:15547   */\n      dup3\n        /* \"#utility.yul\":15528:15577   */\n      returndatacopy\n        /* \"#utility.yul\":15607:15611   */\n      dup1\n        /* \"#utility.yul\":15601:15612   */\n      mload\n        /* \"#utility.yul\":15706:15722   */\n      returndatasize\n        /* \"#utility.yul\":15699:15703   */\n      0x24\n        /* \"#utility.yul\":15691:15697   */\n      dup3\n        /* \"#utility.yul\":15687:15704   */\n      add\n        /* \"#utility.yul\":15684:15723   */\n      gt\n        /* \"#utility.yul\":15651:15669   */\n      0xffffffffffffffff\n        /* \"#utility.yul\":15643:15649   */\n      dup3\n        /* \"#utility.yul\":15640:15670   */\n      gt\n        /* \"#utility.yul\":15624:15737   */\n      or\n        /* \"#utility.yul\":15621:15767   */\n      iszero\n      tag_413\n      jumpi\n        /* \"#utility.yul\":15752:15757   */\n      pop\n      pop\n      jump(tag_410)\n        /* \"#utility.yul\":15621:15767   */\n    tag_413:\n        /* \"#utility.yul\":15798:15804   */\n      dup1\n        /* \"#utility.yul\":15792:15796   */\n      dup3\n        /* \"#utility.yul\":15788:15805   */\n      add\n        /* \"#utility.yul\":15834:15837   */\n      dup1\n        /* \"#utility.yul\":15828:15838   */\n      mload\n        /* \"#utility.yul\":15861:15879   */\n      0xffffffffffffffff\n        /* \"#utility.yul\":15853:15859   */\n      dup2\n        /* \"#utility.yul\":15850:15880   */\n      gt\n        /* \"#utility.yul\":15847:15890   */\n      iszero\n      tag_414\n      jumpi\n        /* \"#utility.yul\":15883:15888   */\n      pop\n      pop\n      pop\n      pop\n      jump(tag_410)\n        /* \"#utility.yul\":15847:15890   */\n    tag_414:\n        /* \"#utility.yul\":15931:15937   */\n      dup1\n        /* \"#utility.yul\":15924:15928   */\n      0x20\n        /* \"#utility.yul\":15919:15922   */\n      dup4\n        /* \"#utility.yul\":15915:15929   */\n      add\n        /* \"#utility.yul\":15911:15938   */\n      add\n        /* \"#utility.yul\":15990:15991   */\n      0x04\n        /* \"#utility.yul\":15972:15988   */\n      returndatasize\n        /* \"#utility.yul\":15968:15992   */\n      sub\n        /* \"#utility.yul\":15962:15966   */\n      dup6\n        /* \"#utility.yul\":15958:15993   */\n      add\n        /* \"#utility.yul\":15953:15956   */\n      dup2\n        /* \"#utility.yul\":15950:15994   */\n      gt\n        /* \"#utility.yul\":15947:16004   */\n      iszero\n      tag_415\n      jumpi\n        /* \"#utility.yul\":15997:16002   */\n      pop\n      pop\n      pop\n      pop\n      pop\n      jump(tag_410)\n        /* \"#utility.yul\":15947:16004   */\n    tag_415:\n        /* \"#utility.yul\":16014:16071   */\n      tag_416\n        /* \"#utility.yul\":16062:16068   */\n      dup3\n        /* \"#utility.yul\":16056:16060   */\n      0x20\n        /* \"#utility.yul\":16052:16069   */\n      add\n        /* \"#utility.yul\":16044:16050   */\n      dup6\n        /* \"#utility.yul\":16040:16070   */\n      add\n        /* \"#utility.yul\":16034:16038   */\n      dup7\n        /* \"#utility.yul\":16014:16071   */\n      tag_265\n      jump\t// in\n    tag_416:\n        /* \"#utility.yul\":16087:16090   */\n      dup3\n        /* \"#utility.yul\":16080:16090   */\n      swap6\n      pop\n        /* \"#utility.yul\":15428:16096   */\n      pop\n      pop\n      pop\n      pop\n      pop\n        /* \"#utility.yul\":15385:16096   */\n    tag_410:\n      swap1\n      jump\t// out\n        /* \"#utility.yul\":16102:16201   */\n    tag_266:\n        /* \"#utility.yul\":16154:16160   */\n      0x00\n        /* \"#utility.yul\":16188:16193   */\n      dup2\n        /* \"#utility.yul\":16182:16194   */\n      mload\n        /* \"#utility.yul\":16172:16194   */\n      swap1\n      pop\n        /* \"#utility.yul\":16102:16201   */\n      swap2\n      swap1\n      pop\n      jump\t// out\n        /* \"#utility.yul\":16207:16453   */\n    tag_267:\n        /* \"#utility.yul\":16288:16289   */\n      0x00\n        /* \"#utility.yul\":16298:16411   */\n    tag_419:\n        /* \"#utility.yul\":16312:16318   */\n      dup4\n        /* \"#utility.yul\":16309:16310   */\n      dup2\n        /* \"#utility.yul\":16306:16319   */\n      lt\n        /* \"#utility.yul\":16298:16411   */\n      iszero\n      tag_421\n      jumpi\n        /* \"#utility.yul\":16397:16398   */\n      dup1\n        /* \"#utility.yul\":16392:16395   */\n      dup3\n        /* \"#utility.yul\":16388:16399   */\n      add\n        /* \"#utility.yul\":16382:16400   */\n      mload\n        /* \"#utility.yul\":16378:16379   */\n      dup2\n        /* \"#utility.yul\":16373:16376   */\n      dup5\n        /* \"#utility.yul\":16369:16380   */\n      add\n        /* \"#utility.yul\":16362:16401   */\n      mstore\n        /* \"#utility.yul\":16334:16336   */\n      0x20\n        /* \"#utility.yul\":16331:16332   */\n      dup2\n        /* \"#utility.yul\":16327:16337   */\n      add\n        /* \"#utility.yul\":16322:16337   */\n      swap1\n      pop\n        /* \"#utility.yul\":16298:16411   */\n      jump(tag_419)\n    tag_421:\n        /* \"#utility.yul\":16445:16446   */\n      0x00\n        /* \"#utility.yul\":16436:16442   */\n      dup5\n        /* \"#utility.yul\":16431:16434   */\n      dup5\n        /* \"#utility.yul\":16427:16443   */\n      add\n        /* \"#utility.yul\":16420:16447   */\n      mstore\n        /* \"#utility.yul\":16269:16453   */\n      pop\n        /* \"#utility.yul\":16207:16453   */\n      pop\n      pop\n      pop\n      jump\t// out\n        /* \"#utility.yul\":16459:16836   */\n    tag_268:\n        /* \"#utility.yul\":16547:16550   */\n      0x00\n        /* \"#utility.yul\":16575:16614   */\n      tag_423\n        /* \"#utility.yul\":16608:16613   */\n      dup3\n        /* \"#utility.yul\":16575:16614   */\n      tag_266\n      jump\t// in\n    tag_423:\n        /* \"#utility.yul\":16630:16701   */\n      tag_424\n        /* \"#utility.yul\":16694:16700   */\n      dup2\n        /* \"#utility.yul\":16689:16692   */\n      dup6\n        /* \"#utility.yul\":16630:16701   */\n      tag_242\n      jump\t// in\n    tag_424:\n        /* \"#utility.yul\":16623:16701   */\n      swap4\n      pop\n        /* \"#utility.yul\":16710:16775   */\n      tag_425\n        /* \"#utility.yul\":16768:16774   */\n      dup2\n        /* \"#utility.yul\":16763:16766   */\n      dup6\n        /* \"#utility.yul\":16756:16760   */\n      0x20\n        /* \"#utility.yul\":16749:16754   */\n      dup7\n        /* \"#utility.yul\":16745:16761   */\n      add\n        /* \"#utility.yul\":16710:16775   */\n      tag_267\n      jump\t// in\n    tag_425:\n        /* \"#utility.yul\":16800:16829   */\n      tag_426\n        /* \"#utility.yul\":16822:16828   */\n      dup2\n        /* \"#utility.yul\":16800:16829   */\n      tag_263\n      jump\t// in\n    tag_426:\n        /* \"#utility.yul\":16795:16798   */\n      dup5\n        /* \"#utility.yul\":16791:16830   */\n      add\n        /* \"#utility.yul\":16784:16830   */\n      swap2\n      pop\n        /* \"#utility.yul\":16551:16836   */\n      pop\n        /* \"#utility.yul\":16459:16836   */\n      swap3\n      swap2\n      pop\n      pop\n      jump\t// out\n        /* \"#utility.yul\":16842:17155   */\n    tag_215:\n        /* \"#utility.yul\":16955:16959   */\n      0x00\n        /* \"#utility.yul\":16993:16995   */\n      0x20\n        /* \"#utility.yul\":16982:16991   */\n      dup3\n        /* \"#utility.yul\":16978:16996   */\n      add\n        /* \"#utility.yul\":16970:16996   */\n      swap1\n      pop\n        /* \"#utility.yul\":17042:17051   */\n      dup2\n        /* \"#utility.yul\":17036:17040   */\n      dup2\n        /* \"#utility.yul\":17032:17052   */\n      sub\n        /* \"#utility.yul\":17028:17029   */\n      0x00\n        /* \"#utility.yul\":17017:17026   */\n      dup4\n        /* \"#utility.yul\":17013:17030   */\n      add\n        /* \"#utility.yul\":17006:17053   */\n      mstore\n        /* \"#utility.yul\":17070:17148   */\n      tag_428\n        /* \"#utility.yul\":17143:17147   */\n      dup2\n        /* \"#utility.yul\":17134:17140   */\n      dup5\n        /* \"#utility.yul\":17070:17148   */\n      tag_268\n      jump\t// in\n    tag_428:\n        /* \"#utility.yul\":17062:17148   */\n      swap1\n      pop\n        /* \"#utility.yul\":16842:17155   */\n      swap3\n      swap2\n      pop\n      pop\n      jump\t// out\n\n    auxdata: 0xa2646970667358221220da92f0c7f81cbd8b411c44e26aa0ff9bdd647713665fb53c5d3a2effbb23442064736f6c63430008120033\n}\n",
				"bytecode": {
					"linkReferences": {},
					"object": "608060405260006007553480156200001657600080fd5b506040516200200a3803806200200a83398181016040528101906200003c9190620001c5565b63047868c0821162000085576040517f08c379a00000000000000000000000000000000000000000000000000000000081526004016200007c9062000282565b60405180910390fd5b826000806101000a81548173ffffffffffffffffffffffffffffffffffffffff021916908373ffffffffffffffffffffffffffffffffffffffff160217905550806006819055504260038190555081600354620000e39190620002d3565b6004819055506000600860006101000a81548160ff021916908360038111156200011257620001116200030e565b5b02179055505050506200033d565b600080fd5b600073ffffffffffffffffffffffffffffffffffffffff82169050919050565b6000620001528262000125565b9050919050565b620001648162000145565b81146200017057600080fd5b50565b600081519050620001848162000159565b92915050565b6000819050919050565b6200019f816200018a565b8114620001ab57600080fd5b50565b600081519050620001bf8162000194565b92915050565b600080600060608486031215620001e157620001e062000120565b5b6000620001f18682870162000173565b93505060206200020486828701620001ae565b92505060406200021786828701620001ae565b9150509250925092565b600082825260208201905092915050565b7f74696d65206c696d6974206e6f74206869676820656e6f756768000000000000600082015250565b60006200026a601a8362000221565b9150620002778262000232565b602082019050919050565b600060208201905081810360008301526200029d816200025b565b9050919050565b7f4e487b7100000000000000000000000000000000000000000000000000000000600052601160045260246000fd5b6000620002e0826200018a565b9150620002ed836200018a565b9250828201905080821115620003085762000307620002a4565b5b92915050565b7f4e487b7100000000000000000000000000000000000000000000000000000000600052602160045260246000fd5b611cbd806200034d6000396000f3fe6080604052600436106100f25760003560e01c80634b436ae61161008a578063c19d93fb11610059578063c19d93fb14610297578063d008902c146102c2578063f56b3ad5146102ed578063f5c609e014610318576100f2565b80634b436ae6146101ff5780635f29a5ee1461022a578063656b99521461024157806378e979251461026c576100f2565b806324600fc3116100c657806324600fc31461018f5780632e6d9662146101a65780633197cbb6146101bd57806340c78e98146101e8576100f2565b8062b2d43b146100f757806313fc80d31461012257806318491f0c146101395780632110b78b14610164575b600080fd5b34801561010357600080fd5b5061010c610336565b60405161011991906112c9565b60405180910390f35b34801561012e57600080fd5b5061013761033e565b005b34801561014557600080fd5b5061014e61065d565b60405161015b91906112fd565b60405180910390f35b34801561017057600080fd5b50610179610663565b60405161018691906112c9565b60405180910390f35b34801561019b57600080fd5b506101a4610669565b005b3480156101b257600080fd5b506101bb61089a565b005b3480156101c957600080fd5b506101d2610ab6565b6040516101df91906112c9565b60405180910390f35b3480156101f457600080fd5b506101fd610abc565b005b34801561020b57600080fd5b50610214610be9565b60405161022191906112c9565b60405180910390f35b34801561023657600080fd5b5061023f610bef565b005b34801561024d57600080fd5b50610256610d9e565b6040516102639190611397565b60405180910390f35b34801561027857600080fd5b50610281610dc2565b60405161028e91906112c9565b60405180910390f35b3480156102a357600080fd5b506102ac610dc8565b6040516102b99190611429565b60405180910390f35b3480156102ce57600080fd5b506102d7610ddb565b6040516102e491906112c9565b60405180910390f35b3480156102f957600080fd5b50610302610de1565b60405161030f91906112c9565b60405180910390f35b610320610de7565b60405161032d919061145f565b60405180910390f35b63047868c081565b60016003811115610352576103516113b2565b5b600860009054906101000a900460ff166003811115610374576103736113b2565b5b1461037e57600080fd5b60008054906101000a900473ffffffffffffffffffffffffffffffffffffffff1673ffffffffffffffffffffffffffffffffffffffff1663d811fcf06040518163ffffffff1660e01b8152600401602060405180830381865afa1580156103e9573d6000803e3d6000fd5b505050506040513d601f19601f8201168201806040525081019061040d91906114c7565b73ffffffffffffffffffffffffffffffffffffffff163373ffffffffffffffffffffffffffffffffffffffff161461047a576040517f08c379a00000000000000000000000000000000000000000000000000000000081526004016104719061159d565b60405180910390fd5b6003600860006101000a81548160ff021916908360038111156104a05761049f6113b2565b5b02179055507f246f97586713cf6803bc7c189486b4345be349cee213b4cae772d5052ab5f059600860009054906101000a900460ff166040516104e39190611429565b60405180910390a160008054906101000a900473ffffffffffffffffffffffffffffffffffffffff1673ffffffffffffffffffffffffffffffffffffffff1663d811fcf06040518163ffffffff1660e01b8152600401602060405180830381865afa158015610556573d6000803e3d6000fd5b505050506040513d601f19601f8201168201806040525081019061057a91906114c7565b73ffffffffffffffffffffffffffffffffffffffff166108fc60008054906101000a900473ffffffffffffffffffffffffffffffffffffffff1673ffffffffffffffffffffffffffffffffffffffff1663a035b1fe6040518163ffffffff1660e01b8152600401602060405180830381865afa1580156105fe573d6000803e3d6000fd5b505050506040513d601f19601f8201168201806040525081019061062291906115e9565b60015461062f9190611645565b9081150290604051600060405180830381858888f1935050505015801561065a573d6000803e3d6000fd5b50565b60055481565b60025481565b6002600381111561067d5761067c6113b2565b5b600860009054906101000a900460ff16600381111561069f5761069e6113b2565b5b146106df576040517f08c379a00000000000000000000000000000000000000000000000000000000081526004016106d6906116d3565b60405180910390fd5b600960003373ffffffffffffffffffffffffffffffffffffffff1673ffffffffffffffffffffffffffffffffffffffff16815260200190815260200160002060009054906101000a900460ff1661076b576040517f08c379a000000000000000000000000000000000000000000000000000000000815260040161076290611765565b60405180910390fd5b6000600960003373ffffffffffffffffffffffffffffffffffffffff1673ffffffffffffffffffffffffffffffffffffffff16815260200190815260200160002060006101000a81548160ff0219169083151502179055503373ffffffffffffffffffffffffffffffffffffffff166108fc60008054906101000a900473ffffffffffffffffffffffffffffffffffffffff1673ffffffffffffffffffffffffffffffffffffffff1663a035b1fe6040518163ffffffff1660e01b8152600401602060405180830381865afa158015610848573d6000803e3d6000fd5b505050506040513d601f19601f8201168201806040525081019061086c91906115e9565b9081150290604051600060405180830381858888f19350505050158015610897573d6000803e3d6000fd5b50565b600160038111156108ae576108ad6113b2565b5b600860009054906101000a900460ff1660038111156108d0576108cf6113b2565b5b14610910576040517f08c379a0000000000000000000000000000000000000000000000000000000008152600401610907906117f7565b60405180910390fd5b600960003373ffffffffffffffffffffffffffffffffffffffff1673ffffffffffffffffffffffffffffffffffffffff16815260200190815260200160002060009054906101000a900460ff1661099c576040517f08c379a000000000000000000000000000000000000000000000000000000000815260040161099390611889565b60405180910390fd5b6001600760008282546109af91906118a9565b925050819055506006546007541115610ab4576002600860006101000a81548160ff021916908360038111156109e8576109e76113b2565b5b021790555060008054906101000a900473ffffffffffffffffffffffffffffffffffffffff1673ffffffffffffffffffffffffffffffffffffffff1663eaa61dea6040518163ffffffff1660e01b8152600401600060405180830381600087803b158015610a5557600080fd5b505af1158015610a69573d6000803e3d6000fd5b505050507f246f97586713cf6803bc7c189486b4345be349cee213b4cae772d5052ab5f059600860009054906101000a900460ff16604051610aab9190611429565b60405180910390a15b565b60045481565b60006003811115610ad057610acf6113b2565b5b600860009054906101000a900460ff166003811115610af257610af16113b2565b5b14610b32576040517f08c379a0000000000000000000000000000000000000000000000000000000008152600401610b299061194f565b60405180910390fd5b6004544211610b76576040517f08c379a0000000000000000000000000000000000000000000000000000000008152600401610b6d906119e1565b60405180910390fd5b6002600860006101000a81548160ff02191690836003811115610b9c57610b9b6113b2565b5b02179055507f246f97586713cf6803bc7c189486b4345be349cee213b4cae772d5052ab5f059600860009054906101000a900460ff16604051610bdf9190611429565b60405180910390a1565b60075481565b60016003811115610c0357610c026113b2565b5b600860009054906101000a900460ff166003811115610c2557610c246113b2565b5b14610c2f57600080fd5b60008054906101000a900473ffffffffffffffffffffffffffffffffffffffff1673ffffffffffffffffffffffffffffffffffffffff1663d811fcf06040518163ffffffff1660e01b8152600401602060405180830381865afa158015610c9a573d6000803e3d6000fd5b505050506040513d601f19601f82011682018060405250810190610cbe91906114c7565b73ffffffffffffffffffffffffffffffffffffffff163373ffffffffffffffffffffffffffffffffffffffff1614610d2b576040517f08c379a0000000000000000000000000000000000000000000000000000000008152600401610d2290611a73565b60405180910390fd5b6002600860006101000a81548160ff02191690836003811115610d5157610d506113b2565b5b02179055507f246f97586713cf6803bc7c189486b4345be349cee213b4cae772d5052ab5f059600860009054906101000a900460ff16604051610d949190611429565b60405180910390a1565b60008054906101000a900473ffffffffffffffffffffffffffffffffffffffff1681565b60035481565b600860009054906101000a900460ff1681565b60065481565b60015481565b6000806003811115610dfc57610dfb6113b2565b5b600860009054906101000a900460ff166003811115610e1e57610e1d6113b2565b5b14610e2857600080fd5b600154600160008054906101000a900473ffffffffffffffffffffffffffffffffffffffff1673ffffffffffffffffffffffffffffffffffffffff16636d86b8a56040518163ffffffff1660e01b8152600401602060405180830381865afa158015610e98573d6000803e3d6000fd5b505050506040513d601f19601f82011682018060405250810190610ebc91906115e9565b610ec69190611a93565b1115610ed157600080fd5b3460008054906101000a900473ffffffffffffffffffffffffffffffffffffffff1673ffffffffffffffffffffffffffffffffffffffff1663a035b1fe6040518163ffffffff1660e01b8152600401602060405180830381865afa158015610f3d573d6000803e3d6000fd5b505050506040513d601f19601f82011682018060405250810190610f6191906115e9565b14610f6b57600080fd5b600454421115610feb576002600860006101000a81548160ff02191690836003811115610f9b57610f9a6113b2565b5b02179055507f246f97586713cf6803bc7c189486b4345be349cee213b4cae772d5052ab5f059600860009054906101000a900460ff16604051610fde9190611429565b60405180910390a16112ac565b6001600960003373ffffffffffffffffffffffffffffffffffffffff1673ffffffffffffffffffffffffffffffffffffffff16815260200190815260200160002060006101000a81548160ff021916908315150217905550600180600082825461105591906118a9565b9250508190555060008054906101000a900473ffffffffffffffffffffffffffffffffffffffff1673ffffffffffffffffffffffffffffffffffffffff16636d86b8a56040518163ffffffff1660e01b8152600401602060405180830381865afa1580156110c7573d6000803e3d6000fd5b505050506040513d601f19601f820116820180604052508101906110eb91906115e9565b600154036112585760008054906101000a900473ffffffffffffffffffffffffffffffffffffffff1673ffffffffffffffffffffffffffffffffffffffff1663f5c609e06040518163ffffffff1660e01b8152600401600060405180830381600087803b15801561115b57600080fd5b505af192505050801561116c575060015b6111e557611178611ad4565b806308c379a0036111d4575061118c611b67565b8061119757506111d6565b7f33222bae2ff20e6fe48a14a7c1ef3eb4cca76359e8e5bf7b877cc3cd76d2ffb3816040516111c69190611c65565b60405180910390a1506111e0565b505b3d6000803e3d6000fd5b611257565b6001600860006101000a81548160ff0219169083600381111561120b5761120a6113b2565b5b02179055507f246f97586713cf6803bc7c189486b4345be349cee213b4cae772d5052ab5f059600860009054906101000a900460ff1660405161124e9190611429565b60405180910390a15b5b600960003373ffffffffffffffffffffffffffffffffffffffff1673ffffffffffffffffffffffffffffffffffffffff16815260200190815260200160002060009054906101000a900460ff1690506112ad565b5b90565b6000819050919050565b6112c3816112b0565b82525050565b60006020820190506112de60008301846112ba565b92915050565b6000819050919050565b6112f7816112e4565b82525050565b600060208201905061131260008301846112ee565b92915050565b600073ffffffffffffffffffffffffffffffffffffffff82169050919050565b6000819050919050565b600061135d61135861135384611318565b611338565b611318565b9050919050565b600061136f82611342565b9050919050565b600061138182611364565b9050919050565b61139181611376565b82525050565b60006020820190506113ac6000830184611388565b92915050565b7f4e487b7100000000000000000000000000000000000000000000000000000000600052602160045260246000fd5b600481106113f2576113f16113b2565b5b50565b6000819050611403826113e1565b919050565b6000611413826113f5565b9050919050565b61142381611408565b82525050565b600060208201905061143e600083018461141a565b92915050565b60008115159050919050565b61145981611444565b82525050565b60006020820190506114746000830184611450565b92915050565b6000604051905090565b600080fd5b600061149482611318565b9050919050565b6114a481611489565b81146114af57600080fd5b50565b6000815190506114c18161149b565b92915050565b6000602082840312156114dd576114dc611484565b5b60006114eb848285016114b2565b91505092915050565b600082825260208201905092915050565b7f4f6e6c7920746865206661726d6572206f66207468652070726f64756365206360008201527f616e206e6f74696679207468617420746865206f72646572206861732062656560208201527f6e2073656e740000000000000000000000000000000000000000000000000000604082015250565b60006115876046836114f4565b915061159282611505565b606082019050919050565b600060208201905081810360008301526115b68161157a565b9050919050565b6115c6816112b0565b81146115d157600080fd5b50565b6000815190506115e3816115bd565b92915050565b6000602082840312156115ff576115fe611484565b5b600061160d848285016115d4565b91505092915050565b7f4e487b7100000000000000000000000000000000000000000000000000000000600052601160045260246000fd5b6000611650826112b0565b915061165b836112b0565b9250828202611669816112b0565b915082820484148315176116805761167f611616565b5b5092915050565b7f6f7264657220686173206e6f74206265656e2072656a65637465640000000000600082015250565b60006116bd601b836114f4565b91506116c882611687565b602082019050919050565b600060208201905081810360008301526116ec816116b0565b9050919050565b7f637573746f6d657220686173206e6f206f75747374616e64696e672062616c6160008201527f6e636520746f20726566756e6400000000000000000000000000000000000000602082015250565b600061174f602d836114f4565b915061175a826116f3565b604082019050919050565b6000602082019050818103600083015261177e81611742565b9050919050565b7f6d656d626572732063616e206f6e6c7920766f746520746f2072656a6563742060008201527f70656e64696e67206f7264657273000000000000000000000000000000000000602082015250565b60006117e1602e836114f4565b91506117ec82611785565b604082019050919050565b60006020820190508181036000830152611810816117d4565b9050919050565b7f6f6e6c79206d656d62657273206f6620746869732067726f7570206f7264657260008201527f206d617920766f746520746f2072656a65637420746865206f72646572000000602082015250565b6000611873603d836114f4565b915061187e82611817565b604082019050919050565b600060208201905081810360008301526118a281611866565b9050919050565b60006118b4826112b0565b91506118bf836112b0565b92508282019050808211156118d7576118d6611616565b5b92915050565b7f546865206f72646572207374617465206973206e6f74206f70656e2c20736f2060008201527f63616e206e6f742062652074696d6564206f7574000000000000000000000000602082015250565b60006119396034836114f4565b9150611944826118dd565b604082019050919050565b600060208201905081810360008301526119688161192c565b9050919050565b7f5468652067726f7570206f7264657220686173206e6f74207965742074696d6560008201527f64206f7574000000000000000000000000000000000000000000000000000000602082015250565b60006119cb6025836114f4565b91506119d68261196f565b604082019050919050565b600060208201905081810360008301526119fa816119be565b9050919050565b7f4f6e6c7920746865206661726d6572206f66207468652070726f64756365206360008201527f616e2072656a65637420746865206f7264657200000000000000000000000000602082015250565b6000611a5d6033836114f4565b9150611a6882611a01565b604082019050919050565b60006020820190508181036000830152611a8c81611a50565b9050919050565b6000611a9e826112b0565b9150611aa9836112b0565b9250828203905081811115611ac157611ac0611616565b5b92915050565b60008160e01c9050919050565b600060033d1115611af35760046000803e611af0600051611ac7565b90505b90565b6000601f19601f8301169050919050565b7f4e487b7100000000000000000000000000000000000000000000000000000000600052604160045260246000fd5b611b3f82611af6565b810181811067ffffffffffffffff82111715611b5e57611b5d611b07565b5b80604052505050565b600060443d10611bf457611b7961147a565b60043d036004823e80513d602482011167ffffffffffffffff82111715611ba1575050611bf4565b808201805167ffffffffffffffff811115611bbf5750505050611bf4565b80602083010160043d038501811115611bdc575050505050611bf4565b611beb82602001850186611b36565b82955050505050505b90565b600081519050919050565b60005b83811015611c20578082015181840152602081019050611c05565b60008484015250505050565b6000611c3782611bf7565b611c4181856114f4565b9350611c51818560208601611c02565b611c5a81611af6565b840191505092915050565b60006020820190508181036000830152611c7f8184611c2c565b90509291505056fea2646970667358221220da92f0c7f81cbd8b411c44e26aa0ff9bdd647713665fb53c5d3a2effbb23442064736f6c63430008120033",
					"opcodes": "PUSH1 0x80 PUSH1 0x40 MSTORE PUSH1 0x0 PUSH1 0x7 SSTORE CALLVALUE DUP1 ISZERO PUSH3 0x16 JUMPI PUSH1 0x0 DUP1 REVERT JUMPDEST POP PUSH1 0x40 MLOAD PUSH3 0x200A CODESIZE SUB DUP1 PUSH3 0x200A DUP4 CODECOPY DUP2 DUP2 ADD PUSH1 0x40 MSTORE DUP2 ADD SWAP1 PUSH3 0x3C SWAP2 SWAP1 PUSH3 0x1C5 JUMP JUMPDEST PUSH4 0x47868C0 DUP3 GT PUSH3 0x85 JUMPI PUSH1 0x40 MLOAD PUSH32 0x8C379A000000000000000000000000000000000000000000000000000000000 DUP2 MSTORE PUSH1 0x4 ADD PUSH3 0x7C SWAP1 PUSH3 0x282 JUMP JUMPDEST PUSH1 0x40 MLOAD DUP1 SWAP2 SUB SWAP1 REVERT JUMPDEST DUP3 PUSH1 0x0 DUP1 PUSH2 0x100 EXP DUP2 SLOAD DUP2 PUSH20 0xFFFFFFFFFFFFFFFFFFFFFFFFFFFFFFFFFFFFFFFF MUL NOT AND SWAP1 DUP4 PUSH20 0xFFFFFFFFFFFFFFFFFFFFFFFFFFFFFFFFFFFFFFFF AND MUL OR SWAP1 SSTORE POP DUP1 PUSH1 0x6 DUP2 SWAP1 SSTORE POP TIMESTAMP PUSH1 0x3 DUP2 SWAP1 SSTORE POP DUP2 PUSH1 0x3 SLOAD PUSH3 0xE3 SWAP2 SWAP1 PUSH3 0x2D3 JUMP JUMPDEST PUSH1 0x4 DUP2 SWAP1 SSTORE POP PUSH1 0x0 PUSH1 0x8 PUSH1 0x0 PUSH2 0x100 EXP DUP2 SLOAD DUP2 PUSH1 0xFF MUL NOT AND SWAP1 DUP4 PUSH1 0x3 DUP2 GT ISZERO PUSH3 0x112 JUMPI PUSH3 0x111 PUSH3 0x30E JUMP JUMPDEST JUMPDEST MUL OR SWAP1 SSTORE POP POP POP POP PUSH3 0x33D JUMP JUMPDEST PUSH1 0x0 DUP1 REVERT JUMPDEST PUSH1 0x0 PUSH20 0xFFFFFFFFFFFFFFFFFFFFFFFFFFFFFFFFFFFFFFFF DUP3 AND SWAP1 POP SWAP2 SWAP1 POP JUMP JUMPDEST PUSH1 0x0 PUSH3 0x152 DUP3 PUSH3 0x125 JUMP JUMPDEST SWAP1 POP SWAP2 SWAP1 POP JUMP JUMPDEST PUSH3 0x164 DUP2 PUSH3 0x145 JUMP JUMPDEST DUP2 EQ PUSH3 0x170 JUMPI PUSH1 0x0 DUP1 REVERT JUMPDEST POP JUMP JUMPDEST PUSH1 0x0 DUP2 MLOAD SWAP1 POP PUSH3 0x184 DUP2 PUSH3 0x159 JUMP JUMPDEST SWAP3 SWAP2 POP POP JUMP JUMPDEST PUSH1 0x0 DUP2 SWAP1 POP SWAP2 SWAP1 POP JUMP JUMPDEST PUSH3 0x19F DUP2 PUSH3 0x18A JUMP JUMPDEST DUP2 EQ PUSH3 0x1AB JUMPI PUSH1 0x0 DUP1 REVERT JUMPDEST POP JUMP JUMPDEST PUSH1 0x0 DUP2 MLOAD SWAP1 POP PUSH3 0x1BF DUP2 PUSH3 0x194 JUMP JUMPDEST SWAP3 SWAP2 POP POP JUMP JUMPDEST PUSH1 0x0 DUP1 PUSH1 0x0 PUSH1 0x60 DUP5 DUP7 SUB SLT ISZERO PUSH3 0x1E1 JUMPI PUSH3 0x1E0 PUSH3 0x120 JUMP JUMPDEST JUMPDEST PUSH1 0x0 PUSH3 0x1F1 DUP7 DUP3 DUP8 ADD PUSH3 0x173 JUMP JUMPDEST SWAP4 POP POP PUSH1 0x20 PUSH3 0x204 DUP7 DUP3 DUP8 ADD PUSH3 0x1AE JUMP JUMPDEST SWAP3 POP POP PUSH1 0x40 PUSH3 0x217 DUP7 DUP3 DUP8 ADD PUSH3 0x1AE JUMP JUMPDEST SWAP2 POP POP SWAP3 POP SWAP3 POP SWAP3 JUMP JUMPDEST PUSH1 0x0 DUP3 DUP3 MSTORE PUSH1 0x20 DUP3 ADD SWAP1 POP SWAP3 SWAP2 POP POP JUMP JUMPDEST PUSH32 0x74696D65206C696D6974206E6F74206869676820656E6F756768000000000000 PUSH1 0x0 DUP3 ADD MSTORE POP JUMP JUMPDEST PUSH1 0x0 PUSH3 0x26A PUSH1 0x1A DUP4 PUSH3 0x221 JUMP JUMPDEST SWAP2 POP PUSH3 0x277 DUP3 PUSH3 0x232 JUMP JUMPDEST PUSH1 0x20 DUP3 ADD SWAP1 POP SWAP2 SWAP1 POP JUMP JUMPDEST PUSH1 0x0 PUSH1 0x20 DUP3 ADD SWAP1 POP DUP2 DUP2 SUB PUSH1 0x0 DUP4 ADD MSTORE PUSH3 0x29D DUP2 PUSH3 0x25B JUMP JUMPDEST SWAP1 POP SWAP2 SWAP1 POP JUMP JUMPDEST PUSH32 0x4E487B7100000000000000000000000000000000000000000000000000000000 PUSH1 0x0 MSTORE PUSH1 0x11 PUSH1 0x4 MSTORE PUSH1 0x24 PUSH1 0x0 REVERT JUMPDEST PUSH1 0x0 PUSH3 0x2E0 DUP3 PUSH3 0x18A JUMP JUMPDEST SWAP2 POP PUSH3 0x2ED DUP4 PUSH3 0x18A JUMP JUMPDEST SWAP3 POP DUP3 DUP3 ADD SWAP1 POP DUP1 DUP3 GT ISZERO PUSH3 0x308 JUMPI PUSH3 0x307 PUSH3 0x2A4 JUMP JUMPDEST JUMPDEST SWAP3 SWAP2 POP POP JUMP JUMPDEST PUSH32 0x4E487B7100000000000000000000000000000000000000000000000000000000 PUSH1 0x0 MSTORE PUSH1 0x21 PUSH1 0x4 MSTORE PUSH1 0x24 PUSH1 0x0 REVERT JUMPDEST PUSH2 0x1CBD DUP1 PUSH3 0x34D PUSH1 0x0 CODECOPY PUSH1 0x0 RETURN INVALID PUSH1 0x80 PUSH1 0x40 MSTORE PUSH1 0x4 CALLDATASIZE LT PUSH2 0xF2 JUMPI PUSH1 0x0 CALLDATALOAD PUSH1 0xE0 SHR DUP1 PUSH4 0x4B436AE6 GT PUSH2 0x8A JUMPI DUP1 PUSH4 0xC19D93FB GT PUSH2 0x59 JUMPI DUP1 PUSH4 0xC19D93FB EQ PUSH2 0x297 JUMPI DUP1 PUSH4 0xD008902C EQ PUSH2 0x2C2 JUMPI DUP1 PUSH4 0xF56B3AD5 EQ PUSH2 0x2ED JUMPI DUP1 PUSH4 0xF5C609E0 EQ PUSH2 0x318 JUMPI PUSH2 0xF2 JUMP JUMPDEST DUP1 PUSH4 0x4B436AE6 EQ PUSH2 0x1FF JUMPI DUP1 PUSH4 0x5F29A5EE EQ PUSH2 0x22A JUMPI DUP1 PUSH4 0x656B9952 EQ PUSH2 0x241 JUMPI DUP1 PUSH4 0x78E97925 EQ PUSH2 0x26C JUMPI PUSH2 0xF2 JUMP JUMPDEST DUP1 PUSH4 0x24600FC3 GT PUSH2 0xC6 JUMPI DUP1 PUSH4 0x24600FC3 EQ PUSH2 0x18F JUMPI DUP1 PUSH4 0x2E6D9662 EQ PUSH2 0x1A6 JUMPI DUP1 PUSH4 0x3197CBB6 EQ PUSH2 0x1BD JUMPI DUP1 PUSH4 0x40C78E98 EQ PUSH2 0x1E8 JUMPI PUSH2 0xF2 JUMP JUMPDEST DUP1 PUSH3 0xB2D43B EQ PUSH2 0xF7 JUMPI DUP1 PUSH4 0x13FC80D3 EQ PUSH2 0x122 JUMPI DUP1 PUSH4 0x18491F0C EQ PUSH2 0x139 JUMPI DUP1 PUSH4 0x2110B78B EQ PUSH2 0x164 JUMPI JUMPDEST PUSH1 0x0 DUP1 REVERT JUMPDEST CALLVALUE DUP1 ISZERO PUSH2 0x103 JUMPI PUSH1 0x0 DUP1 REVERT JUMPDEST POP PUSH2 0x10C PUSH2 0x336 JUMP JUMPDEST PUSH1 0x40 MLOAD PUSH2 0x119 SWAP2 SWAP1 PUSH2 0x12C9 JUMP JUMPDEST PUSH1 0x40 MLOAD DUP1 SWAP2 SUB SWAP1 RETURN JUMPDEST CALLVALUE DUP1 ISZERO PUSH2 0x12E JUMPI PUSH1 0x0 DUP1 REVERT JUMPDEST POP PUSH2 0x137 PUSH2 0x33E JUMP JUMPDEST STOP JUMPDEST CALLVALUE DUP1 ISZERO PUSH2 0x145 JUMPI PUSH1 0x0 DUP1 REVERT JUMPDEST POP PUSH2 0x14E PUSH2 0x65D JUMP JUMPDEST PUSH1 0x40 MLOAD PUSH2 0x15B SWAP2 SWAP1 PUSH2 0x12FD JUMP JUMPDEST PUSH1 0x40 MLOAD DUP1 SWAP2 SUB SWAP1 RETURN JUMPDEST CALLVALUE DUP1 ISZERO PUSH2 0x170 JUMPI PUSH1 0x0 DUP1 REVERT JUMPDEST POP PUSH2 0x179 PUSH2 0x663 JUMP JUMPDEST PUSH1 0x40 MLOAD PUSH2 0x186 SWAP2 SWAP1 PUSH2 0x12C9 JUMP JUMPDEST PUSH1 0x40 MLOAD DUP1 SWAP2 SUB SWAP1 RETURN JUMPDEST CALLVALUE DUP1 ISZERO PUSH2 0x19B JUMPI PUSH1 0x0 DUP1 REVERT JUMPDEST POP PUSH2 0x1A4 PUSH2 0x669 JUMP JUMPDEST STOP JUMPDEST CALLVALUE DUP1 ISZERO PUSH2 0x1B2 JUMPI PUSH1 0x0 DUP1 REVERT JUMPDEST POP PUSH2 0x1BB PUSH2 0x89A JUMP JUMPDEST STOP JUMPDEST CALLVALUE DUP1 ISZERO PUSH2 0x1C9 JUMPI PUSH1 0x0 DUP1 REVERT JUMPDEST POP PUSH2 0x1D2 PUSH2 0xAB6 JUMP JUMPDEST PUSH1 0x40 MLOAD PUSH2 0x1DF SWAP2 SWAP1 PUSH2 0x12C9 JUMP JUMPDEST PUSH1 0x40 MLOAD DUP1 SWAP2 SUB SWAP1 RETURN JUMPDEST CALLVALUE DUP1 ISZERO PUSH2 0x1F4 JUMPI PUSH1 0x0 DUP1 REVERT JUMPDEST POP PUSH2 0x1FD PUSH2 0xABC JUMP JUMPDEST STOP JUMPDEST CALLVALUE DUP1 ISZERO PUSH2 0x20B JUMPI PUSH1 0x0 DUP1 REVERT JUMPDEST POP PUSH2 0x214 PUSH2 0xBE9 JUMP JUMPDEST PUSH1 0x40 MLOAD PUSH2 0x221 SWAP2 SWAP1 PUSH2 0x12C9 JUMP JUMPDEST PUSH1 0x40 MLOAD DUP1 SWAP2 SUB SWAP1 RETURN JUMPDEST CALLVALUE DUP1 ISZERO PUSH2 0x236 JUMPI PUSH1 0x0 DUP1 REVERT JUMPDEST POP PUSH2 0x23F PUSH2 0xBEF JUMP JUMPDEST STOP JUMPDEST CALLVALUE DUP1 ISZERO PUSH2 0x24D JUMPI PUSH1 0x0 DUP1 REVERT JUMPDEST POP PUSH2 0x256 PUSH2 0xD9E JUMP JUMPDEST PUSH1 0x40 MLOAD PUSH2 0x263 SWAP2 SWAP1 PUSH2 0x1397 JUMP JUMPDEST PUSH1 0x40 MLOAD DUP1 SWAP2 SUB SWAP1 RETURN JUMPDEST CALLVALUE DUP1 ISZERO PUSH2 0x278 JUMPI PUSH1 0x0 DUP1 REVERT JUMPDEST POP PUSH2 0x281 PUSH2 0xDC2 JUMP JUMPDEST PUSH1 0x40 MLOAD PUSH2 0x28E SWAP2 SWAP1 PUSH2 0x12C9 JUMP JUMPDEST PUSH1 0x40 MLOAD DUP1 SWAP2 SUB SWAP1 RETURN JUMPDEST CALLVALUE DUP1 ISZERO PUSH2 0x2A3 JUMPI PUSH1 0x0 DUP1 REVERT JUMPDEST POP PUSH2 0x2AC PUSH2 0xDC8 JUMP JUMPDEST PUSH1 0x40 MLOAD PUSH2 0x2B9 SWAP2 SWAP1 PUSH2 0x1429 JUMP JUMPDEST PUSH1 0x40 MLOAD DUP1 SWAP2 SUB SWAP1 RETURN JUMPDEST CALLVALUE DUP1 ISZERO PUSH2 0x2CE JUMPI PUSH1 0x0 DUP1 REVERT JUMPDEST POP PUSH2 0x2D7 PUSH2 0xDDB JUMP JUMPDEST PUSH1 0x40 MLOAD PUSH2 0x2E4 SWAP2 SWAP1 PUSH2 0x12C9 JUMP JUMPDEST PUSH1 0x40 MLOAD DUP1 SWAP2 SUB SWAP1 RETURN JUMPDEST CALLVALUE DUP1 ISZERO PUSH2 0x2F9 JUMPI PUSH1 0x0 DUP1 REVERT JUMPDEST POP PUSH2 0x302 PUSH2 0xDE1 JUMP JUMPDEST PUSH1 0x40 MLOAD PUSH2 0x30F SWAP2 SWAP1 PUSH2 0x12C9 JUMP JUMPDEST PUSH1 0x40 MLOAD DUP1 SWAP2 SUB SWAP1 RETURN JUMPDEST PUSH2 0x320 PUSH2 0xDE7 JUMP JUMPDEST PUSH1 0x40 MLOAD PUSH2 0x32D SWAP2 SWAP1 PUSH2 0x145F JUMP JUMPDEST PUSH1 0x40 MLOAD DUP1 SWAP2 SUB SWAP1 RETURN JUMPDEST PUSH4 0x47868C0 DUP2 JUMP JUMPDEST PUSH1 0x1 PUSH1 0x3 DUP2 GT ISZERO PUSH2 0x352 JUMPI PUSH2 0x351 PUSH2 0x13B2 JUMP JUMPDEST JUMPDEST PUSH1 0x8 PUSH1 0x0 SWAP1 SLOAD SWAP1 PUSH2 0x100 EXP SWAP1 DIV PUSH1 0xFF AND PUSH1 0x3 DUP2 GT ISZERO PUSH2 0x374 JUMPI PUSH2 0x373 PUSH2 0x13B2 JUMP JUMPDEST JUMPDEST EQ PUSH2 0x37E JUMPI PUSH1 0x0 DUP1 REVERT JUMPDEST PUSH1 0x0 DUP1 SLOAD SWAP1 PUSH2 0x100 EXP SWAP1 DIV PUSH20 0xFFFFFFFFFFFFFFFFFFFFFFFFFFFFFFFFFFFFFFFF AND PUSH20 0xFFFFFFFFFFFFFFFFFFFFFFFFFFFFFFFFFFFFFFFF AND PUSH4 0xD811FCF0 PUSH1 0x40 MLOAD DUP2 PUSH4 0xFFFFFFFF AND PUSH1 0xE0 SHL DUP2 MSTORE PUSH1 0x4 ADD PUSH1 0x20 PUSH1 0x40 MLOAD DUP1 DUP4 SUB DUP2 DUP7 GAS STATICCALL ISZERO DUP1 ISZERO PUSH2 0x3E9 JUMPI RETURNDATASIZE PUSH1 0x0 DUP1 RETURNDATACOPY RETURNDATASIZE PUSH1 0x0 REVERT JUMPDEST POP POP POP POP PUSH1 0x40 MLOAD RETURNDATASIZE PUSH1 0x1F NOT PUSH1 0x1F DUP3 ADD AND DUP3 ADD DUP1 PUSH1 0x40 MSTORE POP DUP2 ADD SWAP1 PUSH2 0x40D SWAP2 SWAP1 PUSH2 0x14C7 JUMP JUMPDEST PUSH20 0xFFFFFFFFFFFFFFFFFFFFFFFFFFFFFFFFFFFFFFFF AND CALLER PUSH20 0xFFFFFFFFFFFFFFFFFFFFFFFFFFFFFFFFFFFFFFFF AND EQ PUSH2 0x47A JUMPI PUSH1 0x40 MLOAD PUSH32 0x8C379A000000000000000000000000000000000000000000000000000000000 DUP2 MSTORE PUSH1 0x4 ADD PUSH2 0x471 SWAP1 PUSH2 0x159D JUMP JUMPDEST PUSH1 0x40 MLOAD DUP1 SWAP2 SUB SWAP1 REVERT JUMPDEST PUSH1 0x3 PUSH1 0x8 PUSH1 0x0 PUSH2 0x100 EXP DUP2 SLOAD DUP2 PUSH1 0xFF MUL NOT AND SWAP1 DUP4 PUSH1 0x3 DUP2 GT ISZERO PUSH2 0x4A0 JUMPI PUSH2 0x49F PUSH2 0x13B2 JUMP JUMPDEST JUMPDEST MUL OR SWAP1 SSTORE POP PUSH32 0x246F97586713CF6803BC7C189486B4345BE349CEE213B4CAE772D5052AB5F059 PUSH1 0x8 PUSH1 0x0 SWAP1 SLOAD SWAP1 PUSH2 0x100 EXP SWAP1 DIV PUSH1 0xFF AND PUSH1 0x40 MLOAD PUSH2 0x4E3 SWAP2 SWAP1 PUSH2 0x1429 JUMP JUMPDEST PUSH1 0x40 MLOAD DUP1 SWAP2 SUB SWAP1 LOG1 PUSH1 0x0 DUP1 SLOAD SWAP1 PUSH2 0x100 EXP SWAP1 DIV PUSH20 0xFFFFFFFFFFFFFFFFFFFFFFFFFFFFFFFFFFFFFFFF AND PUSH20 0xFFFFFFFFFFFFFFFFFFFFFFFFFFFFFFFFFFFFFFFF AND PUSH4 0xD811FCF0 PUSH1 0x40 MLOAD DUP2 PUSH4 0xFFFFFFFF AND PUSH1 0xE0 SHL DUP2 MSTORE PUSH1 0x4 ADD PUSH1 0x20 PUSH1 0x40 MLOAD DUP1 DUP4 SUB DUP2 DUP7 GAS STATICCALL ISZERO DUP1 ISZERO PUSH2 0x556 JUMPI RETURNDATASIZE PUSH1 0x0 DUP1 RETURNDATACOPY RETURNDATASIZE PUSH1 0x0 REVERT JUMPDEST POP POP POP POP PUSH1 0x40 MLOAD RETURNDATASIZE PUSH1 0x1F NOT PUSH1 0x1F DUP3 ADD AND DUP3 ADD DUP1 PUSH1 0x40 MSTORE POP DUP2 ADD SWAP1 PUSH2 0x57A SWAP2 SWAP1 PUSH2 0x14C7 JUMP JUMPDEST PUSH20 0xFFFFFFFFFFFFFFFFFFFFFFFFFFFFFFFFFFFFFFFF AND PUSH2 0x8FC PUSH1 0x0 DUP1 SLOAD SWAP1 PUSH2 0x100 EXP SWAP1 DIV PUSH20 0xFFFFFFFFFFFFFFFFFFFFFFFFFFFFFFFFFFFFFFFF AND PUSH20 0xFFFFFFFFFFFFFFFFFFFFFFFFFFFFFFFFFFFFFFFF AND PUSH4 0xA035B1FE PUSH1 0x40 MLOAD DUP2 PUSH4 0xFFFFFFFF AND PUSH1 0xE0 SHL DUP2 MSTORE PUSH1 0x4 ADD PUSH1 0x20 PUSH1 0x40 MLOAD DUP1 DUP4 SUB DUP2 DUP7 GAS STATICCALL ISZERO DUP1 ISZERO PUSH2 0x5FE JUMPI RETURNDATASIZE PUSH1 0x0 DUP1 RETURNDATACOPY RETURNDATASIZE PUSH1 0x0 REVERT JUMPDEST POP POP POP POP PUSH1 0x40 MLOAD RETURNDATASIZE PUSH1 0x1F NOT PUSH1 0x1F DUP3 ADD AND DUP3 ADD DUP1 PUSH1 0x40 MSTORE POP DUP2 ADD SWAP1 PUSH2 0x622 SWAP2 SWAP1 PUSH2 0x15E9 JUMP JUMPDEST PUSH1 0x1 SLOAD PUSH2 0x62F SWAP2 SWAP1 PUSH2 0x1645 JUMP JUMPDEST SWAP1 DUP2 ISZERO MUL SWAP1 PUSH1 0x40 MLOAD PUSH1 0x0 PUSH1 0x40 MLOAD DUP1 DUP4 SUB DUP2 DUP6 DUP9 DUP9 CALL SWAP4 POP POP POP POP ISZERO DUP1 ISZERO PUSH2 0x65A JUMPI RETURNDATASIZE PUSH1 0x0 DUP1 RETURNDATACOPY RETURNDATASIZE PUSH1 0x0 REVERT JUMPDEST POP JUMP JUMPDEST PUSH1 0x5 SLOAD DUP2 JUMP JUMPDEST PUSH1 0x2 SLOAD DUP2 JUMP JUMPDEST PUSH1 0x2 PUSH1 0x3 DUP2 GT ISZERO PUSH2 0x67D JUMPI PUSH2 0x67C PUSH2 0x13B2 JUMP JUMPDEST JUMPDEST PUSH1 0x8 PUSH1 0x0 SWAP1 SLOAD SWAP1 PUSH2 0x100 EXP SWAP1 DIV PUSH1 0xFF AND PUSH1 0x3 DUP2 GT ISZERO PUSH2 0x69F JUMPI PUSH2 0x69E PUSH2 0x13B2 JUMP JUMPDEST JUMPDEST EQ PUSH2 0x6DF JUMPI PUSH1 0x40 MLOAD PUSH32 0x8C379A000000000000000000000000000000000000000000000000000000000 DUP2 MSTORE PUSH1 0x4 ADD PUSH2 0x6D6 SWAP1 PUSH2 0x16D3 JUMP JUMPDEST PUSH1 0x40 MLOAD DUP1 SWAP2 SUB SWAP1 REVERT JUMPDEST PUSH1 0x9 PUSH1 0x0 CALLER PUSH20 0xFFFFFFFFFFFFFFFFFFFFFFFFFFFFFFFFFFFFFFFF AND PUSH20 0xFFFFFFFFFFFFFFFFFFFFFFFFFFFFFFFFFFFFFFFF AND DUP2 MSTORE PUSH1 0x20 ADD SWAP1 DUP2 MSTORE PUSH1 0x20 ADD PUSH1 0x0 KECCAK256 PUSH1 0x0 SWAP1 SLOAD SWAP1 PUSH2 0x100 EXP SWAP1 DIV PUSH1 0xFF AND PUSH2 0x76B JUMPI PUSH1 0x40 MLOAD PUSH32 0x8C379A000000000000000000000000000000000000000000000000000000000 DUP2 MSTORE PUSH1 0x4 ADD PUSH2 0x762 SWAP1 PUSH2 0x1765 JUMP JUMPDEST PUSH1 0x40 MLOAD DUP1 SWAP2 SUB SWAP1 REVERT JUMPDEST PUSH1 0x0 PUSH1 0x9 PUSH1 0x0 CALLER PUSH20 0xFFFFFFFFFFFFFFFFFFFFFFFFFFFFFFFFFFFFFFFF AND PUSH20 0xFFFFFFFFFFFFFFFFFFFFFFFFFFFFFFFFFFFFFFFF AND DUP2 MSTORE PUSH1 0x20 ADD SWAP1 DUP2 MSTORE PUSH1 0x20 ADD PUSH1 0x0 KECCAK256 PUSH1 0x0 PUSH2 0x100 EXP DUP2 SLOAD DUP2 PUSH1 0xFF MUL NOT AND SWAP1 DUP4 ISZERO ISZERO MUL OR SWAP1 SSTORE POP CALLER PUSH20 0xFFFFFFFFFFFFFFFFFFFFFFFFFFFFFFFFFFFFFFFF AND PUSH2 0x8FC PUSH1 0x0 DUP1 SLOAD SWAP1 PUSH2 0x100 EXP SWAP1 DIV PUSH20 0xFFFFFFFFFFFFFFFFFFFFFFFFFFFFFFFFFFFFFFFF AND PUSH20 0xFFFFFFFFFFFFFFFFFFFFFFFFFFFFFFFFFFFFFFFF AND PUSH4 0xA035B1FE PUSH1 0x40 MLOAD DUP2 PUSH4 0xFFFFFFFF AND PUSH1 0xE0 SHL DUP2 MSTORE PUSH1 0x4 ADD PUSH1 0x20 PUSH1 0x40 MLOAD DUP1 DUP4 SUB DUP2 DUP7 GAS STATICCALL ISZERO DUP1 ISZERO PUSH2 0x848 JUMPI RETURNDATASIZE PUSH1 0x0 DUP1 RETURNDATACOPY RETURNDATASIZE PUSH1 0x0 REVERT JUMPDEST POP POP POP POP PUSH1 0x40 MLOAD RETURNDATASIZE PUSH1 0x1F NOT PUSH1 0x1F DUP3 ADD AND DUP3 ADD DUP1 PUSH1 0x40 MSTORE POP DUP2 ADD SWAP1 PUSH2 0x86C SWAP2 SWAP1 PUSH2 0x15E9 JUMP JUMPDEST SWAP1 DUP2 ISZERO MUL SWAP1 PUSH1 0x40 MLOAD PUSH1 0x0 PUSH1 0x40 MLOAD DUP1 DUP4 SUB DUP2 DUP6 DUP9 DUP9 CALL SWAP4 POP POP POP POP ISZERO DUP1 ISZERO PUSH2 0x897 JUMPI RETURNDATASIZE PUSH1 0x0 DUP1 RETURNDATACOPY RETURNDATASIZE PUSH1 0x0 REVERT JUMPDEST POP JUMP JUMPDEST PUSH1 0x1 PUSH1 0x3 DUP2 GT ISZERO PUSH2 0x8AE JUMPI PUSH2 0x8AD PUSH2 0x13B2 JUMP JUMPDEST JUMPDEST PUSH1 0x8 PUSH1 0x0 SWAP1 SLOAD SWAP1 PUSH2 0x100 EXP SWAP1 DIV PUSH1 0xFF AND PUSH1 0x3 DUP2 GT ISZERO PUSH2 0x8D0 JUMPI PUSH2 0x8CF PUSH2 0x13B2 JUMP JUMPDEST JUMPDEST EQ PUSH2 0x910 JUMPI PUSH1 0x40 MLOAD PUSH32 0x8C379A000000000000000000000000000000000000000000000000000000000 DUP2 MSTORE PUSH1 0x4 ADD PUSH2 0x907 SWAP1 PUSH2 0x17F7 JUMP JUMPDEST PUSH1 0x40 MLOAD DUP1 SWAP2 SUB SWAP1 REVERT JUMPDEST PUSH1 0x9 PUSH1 0x0 CALLER PUSH20 0xFFFFFFFFFFFFFFFFFFFFFFFFFFFFFFFFFFFFFFFF AND PUSH20 0xFFFFFFFFFFFFFFFFFFFFFFFFFFFFFFFFFFFFFFFF AND DUP2 MSTORE PUSH1 0x20 ADD SWAP1 DUP2 MSTORE PUSH1 0x20 ADD PUSH1 0x0 KECCAK256 PUSH1 0x0 SWAP1 SLOAD SWAP1 PUSH2 0x100 EXP SWAP1 DIV PUSH1 0xFF AND PUSH2 0x99C JUMPI PUSH1 0x40 MLOAD PUSH32 0x8C379A000000000000000000000000000000000000000000000000000000000 DUP2 MSTORE PUSH1 0x4 ADD PUSH2 0x993 SWAP1 PUSH2 0x1889 JUMP JUMPDEST PUSH1 0x40 MLOAD DUP1 SWAP2 SUB SWAP1 REVERT JUMPDEST PUSH1 0x1 PUSH1 0x7 PUSH1 0x0 DUP3 DUP3 SLOAD PUSH2 0x9AF SWAP2 SWAP1 PUSH2 0x18A9 JUMP JUMPDEST SWAP3 POP POP DUP2 SWAP1 SSTORE POP PUSH1 0x6 SLOAD PUSH1 0x7 SLOAD GT ISZERO PUSH2 0xAB4 JUMPI PUSH1 0x2 PUSH1 0x8 PUSH1 0x0 PUSH2 0x100 EXP DUP2 SLOAD DUP2 PUSH1 0xFF MUL NOT AND SWAP1 DUP4 PUSH1 0x3 DUP2 GT ISZERO PUSH2 0x9E8 JUMPI PUSH2 0x9E7 PUSH2 0x13B2 JUMP JUMPDEST JUMPDEST MUL OR SWAP1 SSTORE POP PUSH1 0x0 DUP1 SLOAD SWAP1 PUSH2 0x100 EXP SWAP1 DIV PUSH20 0xFFFFFFFFFFFFFFFFFFFFFFFFFFFFFFFFFFFFFFFF AND PUSH20 0xFFFFFFFFFFFFFFFFFFFFFFFFFFFFFFFFFFFFFFFF AND PUSH4 0xEAA61DEA PUSH1 0x40 MLOAD DUP2 PUSH4 0xFFFFFFFF AND PUSH1 0xE0 SHL DUP2 MSTORE PUSH1 0x4 ADD PUSH1 0x0 PUSH1 0x40 MLOAD DUP1 DUP4 SUB DUP2 PUSH1 0x0 DUP8 DUP1 EXTCODESIZE ISZERO DUP1 ISZERO PUSH2 0xA55 JUMPI PUSH1 0x0 DUP1 REVERT JUMPDEST POP GAS CALL ISZERO DUP1 ISZERO PUSH2 0xA69 JUMPI RETURNDATASIZE PUSH1 0x0 DUP1 RETURNDATACOPY RETURNDATASIZE PUSH1 0x0 REVERT JUMPDEST POP POP POP POP PUSH32 0x246F97586713CF6803BC7C189486B4345BE349CEE213B4CAE772D5052AB5F059 PUSH1 0x8 PUSH1 0x0 SWAP1 SLOAD SWAP1 PUSH2 0x100 EXP SWAP1 DIV PUSH1 0xFF AND PUSH1 0x40 MLOAD PUSH2 0xAAB SWAP2 SWAP1 PUSH2 0x1429 JUMP JUMPDEST PUSH1 0x40 MLOAD DUP1 SWAP2 SUB SWAP1 LOG1 JUMPDEST JUMP JUMPDEST PUSH1 0x4 SLOAD DUP2 JUMP JUMPDEST PUSH1 0x0 PUSH1 0x3 DUP2 GT ISZERO PUSH2 0xAD0 JUMPI PUSH2 0xACF PUSH2 0x13B2 JUMP JUMPDEST JUMPDEST PUSH1 0x8 PUSH1 0x0 SWAP1 SLOAD SWAP1 PUSH2 0x100 EXP SWAP1 DIV PUSH1 0xFF AND PUSH1 0x3 DUP2 GT ISZERO PUSH2 0xAF2 JUMPI PUSH2 0xAF1 PUSH2 0x13B2 JUMP JUMPDEST JUMPDEST EQ PUSH2 0xB32 JUMPI PUSH1 0x40 MLOAD PUSH32 0x8C379A000000000000000000000000000000000000000000000000000000000 DUP2 MSTORE PUSH1 0x4 ADD PUSH2 0xB29 SWAP1 PUSH2 0x194F JUMP JUMPDEST PUSH1 0x40 MLOAD DUP1 SWAP2 SUB SWAP1 REVERT JUMPDEST PUSH1 0x4 SLOAD TIMESTAMP GT PUSH2 0xB76 JUMPI PUSH1 0x40 MLOAD PUSH32 0x8C379A000000000000000000000000000000000000000000000000000000000 DUP2 MSTORE PUSH1 0x4 ADD PUSH2 0xB6D SWAP1 PUSH2 0x19E1 JUMP JUMPDEST PUSH1 0x40 MLOAD DUP1 SWAP2 SUB SWAP1 REVERT JUMPDEST PUSH1 0x2 PUSH1 0x8 PUSH1 0x0 PUSH2 0x100 EXP DUP2 SLOAD DUP2 PUSH1 0xFF MUL NOT AND SWAP1 DUP4 PUSH1 0x3 DUP2 GT ISZERO PUSH2 0xB9C JUMPI PUSH2 0xB9B PUSH2 0x13B2 JUMP JUMPDEST JUMPDEST MUL OR SWAP1 SSTORE POP PUSH32 0x246F97586713CF6803BC7C189486B4345BE349CEE213B4CAE772D5052AB5F059 PUSH1 0x8 PUSH1 0x0 SWAP1 SLOAD SWAP1 PUSH2 0x100 EXP SWAP1 DIV PUSH1 0xFF AND PUSH1 0x40 MLOAD PUSH2 0xBDF SWAP2 SWAP1 PUSH2 0x1429 JUMP JUMPDEST PUSH1 0x40 MLOAD DUP1 SWAP2 SUB SWAP1 LOG1 JUMP JUMPDEST PUSH1 0x7 SLOAD DUP2 JUMP JUMPDEST PUSH1 0x1 PUSH1 0x3 DUP2 GT ISZERO PUSH2 0xC03 JUMPI PUSH2 0xC02 PUSH2 0x13B2 JUMP JUMPDEST JUMPDEST PUSH1 0x8 PUSH1 0x0 SWAP1 SLOAD SWAP1 PUSH2 0x100 EXP SWAP1 DIV PUSH1 0xFF AND PUSH1 0x3 DUP2 GT ISZERO PUSH2 0xC25 JUMPI PUSH2 0xC24 PUSH2 0x13B2 JUMP JUMPDEST JUMPDEST EQ PUSH2 0xC2F JUMPI PUSH1 0x0 DUP1 REVERT JUMPDEST PUSH1 0x0 DUP1 SLOAD SWAP1 PUSH2 0x100 EXP SWAP1 DIV PUSH20 0xFFFFFFFFFFFFFFFFFFFFFFFFFFFFFFFFFFFFFFFF AND PUSH20 0xFFFFFFFFFFFFFFFFFFFFFFFFFFFFFFFFFFFFFFFF AND PUSH4 0xD811FCF0 PUSH1 0x40 MLOAD DUP2 PUSH4 0xFFFFFFFF AND PUSH1 0xE0 SHL DUP2 MSTORE PUSH1 0x4 ADD PUSH1 0x20 PUSH1 0x40 MLOAD DUP1 DUP4 SUB DUP2 DUP7 GAS STATICCALL ISZERO DUP1 ISZERO PUSH2 0xC9A JUMPI RETURNDATASIZE PUSH1 0x0 DUP1 RETURNDATACOPY RETURNDATASIZE PUSH1 0x0 REVERT JUMPDEST POP POP POP POP PUSH1 0x40 MLOAD RETURNDATASIZE PUSH1 0x1F NOT PUSH1 0x1F DUP3 ADD AND DUP3 ADD DUP1 PUSH1 0x40 MSTORE POP DUP2 ADD SWAP1 PUSH2 0xCBE SWAP2 SWAP1 PUSH2 0x14C7 JUMP JUMPDEST PUSH20 0xFFFFFFFFFFFFFFFFFFFFFFFFFFFFFFFFFFFFFFFF AND CALLER PUSH20 0xFFFFFFFFFFFFFFFFFFFFFFFFFFFFFFFFFFFFFFFF AND EQ PUSH2 0xD2B JUMPI PUSH1 0x40 MLOAD PUSH32 0x8C379A000000000000000000000000000000000000000000000000000000000 DUP2 MSTORE PUSH1 0x4 ADD PUSH2 0xD22 SWAP1 PUSH2 0x1A73 JUMP JUMPDEST PUSH1 0x40 MLOAD DUP1 SWAP2 SUB SWAP1 REVERT JUMPDEST PUSH1 0x2 PUSH1 0x8 PUSH1 0x0 PUSH2 0x100 EXP DUP2 SLOAD DUP2 PUSH1 0xFF MUL NOT AND SWAP1 DUP4 PUSH1 0x3 DUP2 GT ISZERO PUSH2 0xD51 JUMPI PUSH2 0xD50 PUSH2 0x13B2 JUMP JUMPDEST JUMPDEST MUL OR SWAP1 SSTORE POP PUSH32 0x246F97586713CF6803BC7C189486B4345BE349CEE213B4CAE772D5052AB5F059 PUSH1 0x8 PUSH1 0x0 SWAP1 SLOAD SWAP1 PUSH2 0x100 EXP SWAP1 DIV PUSH1 0xFF AND PUSH1 0x40 MLOAD PUSH2 0xD94 SWAP2 SWAP1 PUSH2 0x1429 JUMP JUMPDEST PUSH1 0x40 MLOAD DUP1 SWAP2 SUB SWAP1 LOG1 JUMP JUMPDEST PUSH1 0x0 DUP1 SLOAD SWAP1 PUSH2 0x100 EXP SWAP1 DIV PUSH20 0xFFFFFFFFFFFFFFFFFFFFFFFFFFFFFFFFFFFFFFFF AND DUP2 JUMP JUMPDEST PUSH1 0x3 SLOAD DUP2 JUMP JUMPDEST PUSH1 0x8 PUSH1 0x0 SWAP1 SLOAD SWAP1 PUSH2 0x100 EXP SWAP1 DIV PUSH1 0xFF AND DUP2 JUMP JUMPDEST PUSH1 0x6 SLOAD DUP2 JUMP JUMPDEST PUSH1 0x1 SLOAD DUP2 JUMP JUMPDEST PUSH1 0x0 DUP1 PUSH1 0x3 DUP2 GT ISZERO PUSH2 0xDFC JUMPI PUSH2 0xDFB PUSH2 0x13B2 JUMP JUMPDEST JUMPDEST PUSH1 0x8 PUSH1 0x0 SWAP1 SLOAD SWAP1 PUSH2 0x100 EXP SWAP1 DIV PUSH1 0xFF AND PUSH1 0x3 DUP2 GT ISZERO PUSH2 0xE1E JUMPI PUSH2 0xE1D PUSH2 0x13B2 JUMP JUMPDEST JUMPDEST EQ PUSH2 0xE28 JUMPI PUSH1 0x0 DUP1 REVERT JUMPDEST PUSH1 0x1 SLOAD PUSH1 0x1 PUSH1 0x0 DUP1 SLOAD SWAP1 PUSH2 0x100 EXP SWAP1 DIV PUSH20 0xFFFFFFFFFFFFFFFFFFFFFFFFFFFFFFFFFFFFFFFF AND PUSH20 0xFFFFFFFFFFFFFFFFFFFFFFFFFFFFFFFFFFFFFFFF AND PUSH4 0x6D86B8A5 PUSH1 0x40 MLOAD DUP2 PUSH4 0xFFFFFFFF AND PUSH1 0xE0 SHL DUP2 MSTORE PUSH1 0x4 ADD PUSH1 0x20 PUSH1 0x40 MLOAD DUP1 DUP4 SUB DUP2 DUP7 GAS STATICCALL ISZERO DUP1 ISZERO PUSH2 0xE98 JUMPI RETURNDATASIZE PUSH1 0x0 DUP1 RETURNDATACOPY RETURNDATASIZE PUSH1 0x0 REVERT JUMPDEST POP POP POP POP PUSH1 0x40 MLOAD RETURNDATASIZE PUSH1 0x1F NOT PUSH1 0x1F DUP3 ADD AND DUP3 ADD DUP1 PUSH1 0x40 MSTORE POP DUP2 ADD SWAP1 PUSH2 0xEBC SWAP2 SWAP1 PUSH2 0x15E9 JUMP JUMPDEST PUSH2 0xEC6 SWAP2 SWAP1 PUSH2 0x1A93 JUMP JUMPDEST GT ISZERO PUSH2 0xED1 JUMPI PUSH1 0x0 DUP1 REVERT JUMPDEST CALLVALUE PUSH1 0x0 DUP1 SLOAD SWAP1 PUSH2 0x100 EXP SWAP1 DIV PUSH20 0xFFFFFFFFFFFFFFFFFFFFFFFFFFFFFFFFFFFFFFFF AND PUSH20 0xFFFFFFFFFFFFFFFFFFFFFFFFFFFFFFFFFFFFFFFF AND PUSH4 0xA035B1FE PUSH1 0x40 MLOAD DUP2 PUSH4 0xFFFFFFFF AND PUSH1 0xE0 SHL DUP2 MSTORE PUSH1 0x4 ADD PUSH1 0x20 PUSH1 0x40 MLOAD DUP1 DUP4 SUB DUP2 DUP7 GAS STATICCALL ISZERO DUP1 ISZERO PUSH2 0xF3D JUMPI RETURNDATASIZE PUSH1 0x0 DUP1 RETURNDATACOPY RETURNDATASIZE PUSH1 0x0 REVERT JUMPDEST POP POP POP POP PUSH1 0x40 MLOAD RETURNDATASIZE PUSH1 0x1F NOT PUSH1 0x1F DUP3 ADD AND DUP3 ADD DUP1 PUSH1 0x40 MSTORE POP DUP2 ADD SWAP1 PUSH2 0xF61 SWAP2 SWAP1 PUSH2 0x15E9 JUMP JUMPDEST EQ PUSH2 0xF6B JUMPI PUSH1 0x0 DUP1 REVERT JUMPDEST PUSH1 0x4 SLOAD TIMESTAMP GT ISZERO PUSH2 0xFEB JUMPI PUSH1 0x2 PUSH1 0x8 PUSH1 0x0 PUSH2 0x100 EXP DUP2 SLOAD DUP2 PUSH1 0xFF MUL NOT AND SWAP1 DUP4 PUSH1 0x3 DUP2 GT ISZERO PUSH2 0xF9B JUMPI PUSH2 0xF9A PUSH2 0x13B2 JUMP JUMPDEST JUMPDEST MUL OR SWAP1 SSTORE POP PUSH32 0x246F97586713CF6803BC7C189486B4345BE349CEE213B4CAE772D5052AB5F059 PUSH1 0x8 PUSH1 0x0 SWAP1 SLOAD SWAP1 PUSH2 0x100 EXP SWAP1 DIV PUSH1 0xFF AND PUSH1 0x40 MLOAD PUSH2 0xFDE SWAP2 SWAP1 PUSH2 0x1429 JUMP JUMPDEST PUSH1 0x40 MLOAD DUP1 SWAP2 SUB SWAP1 LOG1 PUSH2 0x12AC JUMP JUMPDEST PUSH1 0x1 PUSH1 0x9 PUSH1 0x0 CALLER PUSH20 0xFFFFFFFFFFFFFFFFFFFFFFFFFFFFFFFFFFFFFFFF AND PUSH20 0xFFFFFFFFFFFFFFFFFFFFFFFFFFFFFFFFFFFFFFFF AND DUP2 MSTORE PUSH1 0x20 ADD SWAP1 DUP2 MSTORE PUSH1 0x20 ADD PUSH1 0x0 KECCAK256 PUSH1 0x0 PUSH2 0x100 EXP DUP2 SLOAD DUP2 PUSH1 0xFF MUL NOT AND SWAP1 DUP4 ISZERO ISZERO MUL OR SWAP1 SSTORE POP PUSH1 0x1 DUP1 PUSH1 0x0 DUP3 DUP3 SLOAD PUSH2 0x1055 SWAP2 SWAP1 PUSH2 0x18A9 JUMP JUMPDEST SWAP3 POP POP DUP2 SWAP1 SSTORE POP PUSH1 0x0 DUP1 SLOAD SWAP1 PUSH2 0x100 EXP SWAP1 DIV PUSH20 0xFFFFFFFFFFFFFFFFFFFFFFFFFFFFFFFFFFFFFFFF AND PUSH20 0xFFFFFFFFFFFFFFFFFFFFFFFFFFFFFFFFFFFFFFFF AND PUSH4 0x6D86B8A5 PUSH1 0x40 MLOAD DUP2 PUSH4 0xFFFFFFFF AND PUSH1 0xE0 SHL DUP2 MSTORE PUSH1 0x4 ADD PUSH1 0x20 PUSH1 0x40 MLOAD DUP1 DUP4 SUB DUP2 DUP7 GAS STATICCALL ISZERO DUP1 ISZERO PUSH2 0x10C7 JUMPI RETURNDATASIZE PUSH1 0x0 DUP1 RETURNDATACOPY RETURNDATASIZE PUSH1 0x0 REVERT JUMPDEST POP POP POP POP PUSH1 0x40 MLOAD RETURNDATASIZE PUSH1 0x1F NOT PUSH1 0x1F DUP3 ADD AND DUP3 ADD DUP1 PUSH1 0x40 MSTORE POP DUP2 ADD SWAP1 PUSH2 0x10EB SWAP2 SWAP1 PUSH2 0x15E9 JUMP JUMPDEST PUSH1 0x1 SLOAD SUB PUSH2 0x1258 JUMPI PUSH1 0x0 DUP1 SLOAD SWAP1 PUSH2 0x100 EXP SWAP1 DIV PUSH20 0xFFFFFFFFFFFFFFFFFFFFFFFFFFFFFFFFFFFFFFFF AND PUSH20 0xFFFFFFFFFFFFFFFFFFFFFFFFFFFFFFFFFFFFFFFF AND PUSH4 0xF5C609E0 PUSH1 0x40 MLOAD DUP2 PUSH4 0xFFFFFFFF AND PUSH1 0xE0 SHL DUP2 MSTORE PUSH1 0x4 ADD PUSH1 0x0 PUSH1 0x40 MLOAD DUP1 DUP4 SUB DUP2 PUSH1 0x0 DUP8 DUP1 EXTCODESIZE ISZERO DUP1 ISZERO PUSH2 0x115B JUMPI PUSH1 0x0 DUP1 REVERT JUMPDEST POP GAS CALL SWAP3 POP POP POP DUP1 ISZERO PUSH2 0x116C JUMPI POP PUSH1 0x1 JUMPDEST PUSH2 0x11E5 JUMPI PUSH2 0x1178 PUSH2 0x1AD4 JUMP JUMPDEST DUP1 PUSH4 0x8C379A0 SUB PUSH2 0x11D4 JUMPI POP PUSH2 0x118C PUSH2 0x1B67 JUMP JUMPDEST DUP1 PUSH2 0x1197 JUMPI POP PUSH2 0x11D6 JUMP JUMPDEST PUSH32 0x33222BAE2FF20E6FE48A14A7C1EF3EB4CCA76359E8E5BF7B877CC3CD76D2FFB3 DUP2 PUSH1 0x40 MLOAD PUSH2 0x11C6 SWAP2 SWAP1 PUSH2 0x1C65 JUMP JUMPDEST PUSH1 0x40 MLOAD DUP1 SWAP2 SUB SWAP1 LOG1 POP PUSH2 0x11E0 JUMP JUMPDEST POP JUMPDEST RETURNDATASIZE PUSH1 0x0 DUP1 RETURNDATACOPY RETURNDATASIZE PUSH1 0x0 REVERT JUMPDEST PUSH2 0x1257 JUMP JUMPDEST PUSH1 0x1 PUSH1 0x8 PUSH1 0x0 PUSH2 0x100 EXP DUP2 SLOAD DUP2 PUSH1 0xFF MUL NOT AND SWAP1 DUP4 PUSH1 0x3 DUP2 GT ISZERO PUSH2 0x120B JUMPI PUSH2 0x120A PUSH2 0x13B2 JUMP JUMPDEST JUMPDEST MUL OR SWAP1 SSTORE POP PUSH32 0x246F97586713CF6803BC7C189486B4345BE349CEE213B4CAE772D5052AB5F059 PUSH1 0x8 PUSH1 0x0 SWAP1 SLOAD SWAP1 PUSH2 0x100 EXP SWAP1 DIV PUSH1 0xFF AND PUSH1 0x40 MLOAD PUSH2 0x124E SWAP2 SWAP1 PUSH2 0x1429 JUMP JUMPDEST PUSH1 0x40 MLOAD DUP1 SWAP2 SUB SWAP1 LOG1 JUMPDEST JUMPDEST PUSH1 0x9 PUSH1 0x0 CALLER PUSH20 0xFFFFFFFFFFFFFFFFFFFFFFFFFFFFFFFFFFFFFFFF AND PUSH20 0xFFFFFFFFFFFFFFFFFFFFFFFFFFFFFFFFFFFFFFFF AND DUP2 MSTORE PUSH1 0x20 ADD SWAP1 DUP2 MSTORE PUSH1 0x20 ADD PUSH1 0x0 KECCAK256 PUSH1 0x0 SWAP1 SLOAD SWAP1 PUSH2 0x100 EXP SWAP1 DIV PUSH1 0xFF AND SWAP1 POP PUSH2 0x12AD JUMP JUMPDEST JUMPDEST SWAP1 JUMP JUMPDEST PUSH1 0x0 DUP2 SWAP1 POP SWAP2 SWAP1 POP JUMP JUMPDEST PUSH2 0x12C3 DUP2 PUSH2 0x12B0 JUMP JUMPDEST DUP3 MSTORE POP POP JUMP JUMPDEST PUSH1 0x0 PUSH1 0x20 DUP3 ADD SWAP1 POP PUSH2 0x12DE PUSH1 0x0 DUP4 ADD DUP5 PUSH2 0x12BA JUMP JUMPDEST SWAP3 SWAP2 POP POP JUMP JUMPDEST PUSH1 0x0 DUP2 SWAP1 POP SWAP2 SWAP1 POP JUMP JUMPDEST PUSH2 0x12F7 DUP2 PUSH2 0x12E4 JUMP JUMPDEST DUP3 MSTORE POP POP JUMP JUMPDEST PUSH1 0x0 PUSH1 0x20 DUP3 ADD SWAP1 POP PUSH2 0x1312 PUSH1 0x0 DUP4 ADD DUP5 PUSH2 0x12EE JUMP JUMPDEST SWAP3 SWAP2 POP POP JUMP JUMPDEST PUSH1 0x0 PUSH20 0xFFFFFFFFFFFFFFFFFFFFFFFFFFFFFFFFFFFFFFFF DUP3 AND SWAP1 POP SWAP2 SWAP1 POP JUMP JUMPDEST PUSH1 0x0 DUP2 SWAP1 POP SWAP2 SWAP1 POP JUMP JUMPDEST PUSH1 0x0 PUSH2 0x135D PUSH2 0x1358 PUSH2 0x1353 DUP5 PUSH2 0x1318 JUMP JUMPDEST PUSH2 0x1338 JUMP JUMPDEST PUSH2 0x1318 JUMP JUMPDEST SWAP1 POP SWAP2 SWAP1 POP JUMP JUMPDEST PUSH1 0x0 PUSH2 0x136F DUP3 PUSH2 0x1342 JUMP JUMPDEST SWAP1 POP SWAP2 SWAP1 POP JUMP JUMPDEST PUSH1 0x0 PUSH2 0x1381 DUP3 PUSH2 0x1364 JUMP JUMPDEST SWAP1 POP SWAP2 SWAP1 POP JUMP JUMPDEST PUSH2 0x1391 DUP2 PUSH2 0x1376 JUMP JUMPDEST DUP3 MSTORE POP POP JUMP JUMPDEST PUSH1 0x0 PUSH1 0x20 DUP3 ADD SWAP1 POP PUSH2 0x13AC PUSH1 0x0 DUP4 ADD DUP5 PUSH2 0x1388 JUMP JUMPDEST SWAP3 SWAP2 POP POP JUMP JUMPDEST PUSH32 0x4E487B7100000000000000000000000000000000000000000000000000000000 PUSH1 0x0 MSTORE PUSH1 0x21 PUSH1 0x4 MSTORE PUSH1 0x24 PUSH1 0x0 REVERT JUMPDEST PUSH1 0x4 DUP2 LT PUSH2 0x13F2 JUMPI PUSH2 0x13F1 PUSH2 0x13B2 JUMP JUMPDEST JUMPDEST POP JUMP JUMPDEST PUSH1 0x0 DUP2 SWAP1 POP PUSH2 0x1403 DUP3 PUSH2 0x13E1 JUMP JUMPDEST SWAP2 SWAP1 POP JUMP JUMPDEST PUSH1 0x0 PUSH2 0x1413 DUP3 PUSH2 0x13F5 JUMP JUMPDEST SWAP1 POP SWAP2 SWAP1 POP JUMP JUMPDEST PUSH2 0x1423 DUP2 PUSH2 0x1408 JUMP JUMPDEST DUP3 MSTORE POP POP JUMP JUMPDEST PUSH1 0x0 PUSH1 0x20 DUP3 ADD SWAP1 POP PUSH2 0x143E PUSH1 0x0 DUP4 ADD DUP5 PUSH2 0x141A JUMP JUMPDEST SWAP3 SWAP2 POP POP JUMP JUMPDEST PUSH1 0x0 DUP2 ISZERO ISZERO SWAP1 POP SWAP2 SWAP1 POP JUMP JUMPDEST PUSH2 0x1459 DUP2 PUSH2 0x1444 JUMP JUMPDEST DUP3 MSTORE POP POP JUMP JUMPDEST PUSH1 0x0 PUSH1 0x20 DUP3 ADD SWAP1 POP PUSH2 0x1474 PUSH1 0x0 DUP4 ADD DUP5 PUSH2 0x1450 JUMP JUMPDEST SWAP3 SWAP2 POP POP JUMP JUMPDEST PUSH1 0x0 PUSH1 0x40 MLOAD SWAP1 POP SWAP1 JUMP JUMPDEST PUSH1 0x0 DUP1 REVERT JUMPDEST PUSH1 0x0 PUSH2 0x1494 DUP3 PUSH2 0x1318 JUMP JUMPDEST SWAP1 POP SWAP2 SWAP1 POP JUMP JUMPDEST PUSH2 0x14A4 DUP2 PUSH2 0x1489 JUMP JUMPDEST DUP2 EQ PUSH2 0x14AF JUMPI PUSH1 0x0 DUP1 REVERT JUMPDEST POP JUMP JUMPDEST PUSH1 0x0 DUP2 MLOAD SWAP1 POP PUSH2 0x14C1 DUP2 PUSH2 0x149B JUMP JUMPDEST SWAP3 SWAP2 POP POP JUMP JUMPDEST PUSH1 0x0 PUSH1 0x20 DUP3 DUP5 SUB SLT ISZERO PUSH2 0x14DD JUMPI PUSH2 0x14DC PUSH2 0x1484 JUMP JUMPDEST JUMPDEST PUSH1 0x0 PUSH2 0x14EB DUP5 DUP3 DUP6 ADD PUSH2 0x14B2 JUMP JUMPDEST SWAP2 POP POP SWAP3 SWAP2 POP POP JUMP JUMPDEST PUSH1 0x0 DUP3 DUP3 MSTORE PUSH1 0x20 DUP3 ADD SWAP1 POP SWAP3 SWAP2 POP POP JUMP JUMPDEST PUSH32 0x4F6E6C7920746865206661726D6572206F66207468652070726F647563652063 PUSH1 0x0 DUP3 ADD MSTORE PUSH32 0x616E206E6F74696679207468617420746865206F726465722068617320626565 PUSH1 0x20 DUP3 ADD MSTORE PUSH32 0x6E2073656E740000000000000000000000000000000000000000000000000000 PUSH1 0x40 DUP3 ADD MSTORE POP JUMP JUMPDEST PUSH1 0x0 PUSH2 0x1587 PUSH1 0x46 DUP4 PUSH2 0x14F4 JUMP JUMPDEST SWAP2 POP PUSH2 0x1592 DUP3 PUSH2 0x1505 JUMP JUMPDEST PUSH1 0x60 DUP3 ADD SWAP1 POP SWAP2 SWAP1 POP JUMP JUMPDEST PUSH1 0x0 PUSH1 0x20 DUP3 ADD SWAP1 POP DUP2 DUP2 SUB PUSH1 0x0 DUP4 ADD MSTORE PUSH2 0x15B6 DUP2 PUSH2 0x157A JUMP JUMPDEST SWAP1 POP SWAP2 SWAP1 POP JUMP JUMPDEST PUSH2 0x15C6 DUP2 PUSH2 0x12B0 JUMP JUMPDEST DUP2 EQ PUSH2 0x15D1 JUMPI PUSH1 0x0 DUP1 REVERT JUMPDEST POP JUMP JUMPDEST PUSH1 0x0 DUP2 MLOAD SWAP1 POP PUSH2 0x15E3 DUP2 PUSH2 0x15BD JUMP JUMPDEST SWAP3 SWAP2 POP POP JUMP JUMPDEST PUSH1 0x0 PUSH1 0x20 DUP3 DUP5 SUB SLT ISZERO PUSH2 0x15FF JUMPI PUSH2 0x15FE PUSH2 0x1484 JUMP JUMPDEST JUMPDEST PUSH1 0x0 PUSH2 0x160D DUP5 DUP3 DUP6 ADD PUSH2 0x15D4 JUMP JUMPDEST SWAP2 POP POP SWAP3 SWAP2 POP POP JUMP JUMPDEST PUSH32 0x4E487B7100000000000000000000000000000000000000000000000000000000 PUSH1 0x0 MSTORE PUSH1 0x11 PUSH1 0x4 MSTORE PUSH1 0x24 PUSH1 0x0 REVERT JUMPDEST PUSH1 0x0 PUSH2 0x1650 DUP3 PUSH2 0x12B0 JUMP JUMPDEST SWAP2 POP PUSH2 0x165B DUP4 PUSH2 0x12B0 JUMP JUMPDEST SWAP3 POP DUP3 DUP3 MUL PUSH2 0x1669 DUP2 PUSH2 0x12B0 JUMP JUMPDEST SWAP2 POP DUP3 DUP3 DIV DUP5 EQ DUP4 ISZERO OR PUSH2 0x1680 JUMPI PUSH2 0x167F PUSH2 0x1616 JUMP JUMPDEST JUMPDEST POP SWAP3 SWAP2 POP POP JUMP JUMPDEST PUSH32 0x6F7264657220686173206E6F74206265656E2072656A65637465640000000000 PUSH1 0x0 DUP3 ADD MSTORE POP JUMP JUMPDEST PUSH1 0x0 PUSH2 0x16BD PUSH1 0x1B DUP4 PUSH2 0x14F4 JUMP JUMPDEST SWAP2 POP PUSH2 0x16C8 DUP3 PUSH2 0x1687 JUMP JUMPDEST PUSH1 0x20 DUP3 ADD SWAP1 POP SWAP2 SWAP1 POP JUMP JUMPDEST PUSH1 0x0 PUSH1 0x20 DUP3 ADD SWAP1 POP DUP2 DUP2 SUB PUSH1 0x0 DUP4 ADD MSTORE PUSH2 0x16EC DUP2 PUSH2 0x16B0 JUMP JUMPDEST SWAP1 POP SWAP2 SWAP1 POP JUMP JUMPDEST PUSH32 0x637573746F6D657220686173206E6F206F75747374616E64696E672062616C61 PUSH1 0x0 DUP3 ADD MSTORE PUSH32 0x6E636520746F20726566756E6400000000000000000000000000000000000000 PUSH1 0x20 DUP3 ADD MSTORE POP JUMP JUMPDEST PUSH1 0x0 PUSH2 0x174F PUSH1 0x2D DUP4 PUSH2 0x14F4 JUMP JUMPDEST SWAP2 POP PUSH2 0x175A DUP3 PUSH2 0x16F3 JUMP JUMPDEST PUSH1 0x40 DUP3 ADD SWAP1 POP SWAP2 SWAP1 POP JUMP JUMPDEST PUSH1 0x0 PUSH1 0x20 DUP3 ADD SWAP1 POP DUP2 DUP2 SUB PUSH1 0x0 DUP4 ADD MSTORE PUSH2 0x177E DUP2 PUSH2 0x1742 JUMP JUMPDEST SWAP1 POP SWAP2 SWAP1 POP JUMP JUMPDEST PUSH32 0x6D656D626572732063616E206F6E6C7920766F746520746F2072656A65637420 PUSH1 0x0 DUP3 ADD MSTORE PUSH32 0x70656E64696E67206F7264657273000000000000000000000000000000000000 PUSH1 0x20 DUP3 ADD MSTORE POP JUMP JUMPDEST PUSH1 0x0 PUSH2 0x17E1 PUSH1 0x2E DUP4 PUSH2 0x14F4 JUMP JUMPDEST SWAP2 POP PUSH2 0x17EC DUP3 PUSH2 0x1785 JUMP JUMPDEST PUSH1 0x40 DUP3 ADD SWAP1 POP SWAP2 SWAP1 POP JUMP JUMPDEST PUSH1 0x0 PUSH1 0x20 DUP3 ADD SWAP1 POP DUP2 DUP2 SUB PUSH1 0x0 DUP4 ADD MSTORE PUSH2 0x1810 DUP2 PUSH2 0x17D4 JUMP JUMPDEST SWAP1 POP SWAP2 SWAP1 POP JUMP JUMPDEST PUSH32 0x6F6E6C79206D656D62657273206F6620746869732067726F7570206F72646572 PUSH1 0x0 DUP3 ADD MSTORE PUSH32 0x206D617920766F746520746F2072656A65637420746865206F72646572000000 PUSH1 0x20 DUP3 ADD MSTORE POP JUMP JUMPDEST PUSH1 0x0 PUSH2 0x1873 PUSH1 0x3D DUP4 PUSH2 0x14F4 JUMP JUMPDEST SWAP2 POP PUSH2 0x187E DUP3 PUSH2 0x1817 JUMP JUMPDEST PUSH1 0x40 DUP3 ADD SWAP1 POP SWAP2 SWAP1 POP JUMP JUMPDEST PUSH1 0x0 PUSH1 0x20 DUP3 ADD SWAP1 POP DUP2 DUP2 SUB PUSH1 0x0 DUP4 ADD MSTORE PUSH2 0x18A2 DUP2 PUSH2 0x1866 JUMP JUMPDEST SWAP1 POP SWAP2 SWAP1 POP JUMP JUMPDEST PUSH1 0x0 PUSH2 0x18B4 DUP3 PUSH2 0x12B0 JUMP JUMPDEST SWAP2 POP PUSH2 0x18BF DUP4 PUSH2 0x12B0 JUMP JUMPDEST SWAP3 POP DUP3 DUP3 ADD SWAP1 POP DUP1 DUP3 GT ISZERO PUSH2 0x18D7 JUMPI PUSH2 0x18D6 PUSH2 0x1616 JUMP JUMPDEST JUMPDEST SWAP3 SWAP2 POP POP JUMP JUMPDEST PUSH32 0x546865206F72646572207374617465206973206E6F74206F70656E2C20736F20 PUSH1 0x0 DUP3 ADD MSTORE PUSH32 0x63616E206E6F742062652074696D6564206F7574000000000000000000000000 PUSH1 0x20 DUP3 ADD MSTORE POP JUMP JUMPDEST PUSH1 0x0 PUSH2 0x1939 PUSH1 0x34 DUP4 PUSH2 0x14F4 JUMP JUMPDEST SWAP2 POP PUSH2 0x1944 DUP3 PUSH2 0x18DD JUMP JUMPDEST PUSH1 0x40 DUP3 ADD SWAP1 POP SWAP2 SWAP1 POP JUMP JUMPDEST PUSH1 0x0 PUSH1 0x20 DUP3 ADD SWAP1 POP DUP2 DUP2 SUB PUSH1 0x0 DUP4 ADD MSTORE PUSH2 0x1968 DUP2 PUSH2 0x192C JUMP JUMPDEST SWAP1 POP SWAP2 SWAP1 POP JUMP JUMPDEST PUSH32 0x5468652067726F7570206F7264657220686173206E6F74207965742074696D65 PUSH1 0x0 DUP3 ADD MSTORE PUSH32 0x64206F7574000000000000000000000000000000000000000000000000000000 PUSH1 0x20 DUP3 ADD MSTORE POP JUMP JUMPDEST PUSH1 0x0 PUSH2 0x19CB PUSH1 0x25 DUP4 PUSH2 0x14F4 JUMP JUMPDEST SWAP2 POP PUSH2 0x19D6 DUP3 PUSH2 0x196F JUMP JUMPDEST PUSH1 0x40 DUP3 ADD SWAP1 POP SWAP2 SWAP1 POP JUMP JUMPDEST PUSH1 0x0 PUSH1 0x20 DUP3 ADD SWAP1 POP DUP2 DUP2 SUB PUSH1 0x0 DUP4 ADD MSTORE PUSH2 0x19FA DUP2 PUSH2 0x19BE JUMP JUMPDEST SWAP1 POP SWAP2 SWAP1 POP JUMP JUMPDEST PUSH32 0x4F6E6C7920746865206661726D6572206F66207468652070726F647563652063 PUSH1 0x0 DUP3 ADD MSTORE PUSH32 0x616E2072656A65637420746865206F7264657200000000000000000000000000 PUSH1 0x20 DUP3 ADD MSTORE POP JUMP JUMPDEST PUSH1 0x0 PUSH2 0x1A5D PUSH1 0x33 DUP4 PUSH2 0x14F4 JUMP JUMPDEST SWAP2 POP PUSH2 0x1A68 DUP3 PUSH2 0x1A01 JUMP JUMPDEST PUSH1 0x40 DUP3 ADD SWAP1 POP SWAP2 SWAP1 POP JUMP JUMPDEST PUSH1 0x0 PUSH1 0x20 DUP3 ADD SWAP1 POP DUP2 DUP2 SUB PUSH1 0x0 DUP4 ADD MSTORE PUSH2 0x1A8C DUP2 PUSH2 0x1A50 JUMP JUMPDEST SWAP1 POP SWAP2 SWAP1 POP JUMP JUMPDEST PUSH1 0x0 PUSH2 0x1A9E DUP3 PUSH2 0x12B0 JUMP JUMPDEST SWAP2 POP PUSH2 0x1AA9 DUP4 PUSH2 0x12B0 JUMP JUMPDEST SWAP3 POP DUP3 DUP3 SUB SWAP1 POP DUP2 DUP2 GT ISZERO PUSH2 0x1AC1 JUMPI PUSH2 0x1AC0 PUSH2 0x1616 JUMP JUMPDEST JUMPDEST SWAP3 SWAP2 POP POP JUMP JUMPDEST PUSH1 0x0 DUP2 PUSH1 0xE0 SHR SWAP1 POP SWAP2 SWAP1 POP JUMP JUMPDEST PUSH1 0x0 PUSH1 0x3 RETURNDATASIZE GT ISZERO PUSH2 0x1AF3 JUMPI PUSH1 0x4 PUSH1 0x0 DUP1 RETURNDATACOPY PUSH2 0x1AF0 PUSH1 0x0 MLOAD PUSH2 0x1AC7 JUMP JUMPDEST SWAP1 POP JUMPDEST SWAP1 JUMP JUMPDEST PUSH1 0x0 PUSH1 0x1F NOT PUSH1 0x1F DUP4 ADD AND SWAP1 POP SWAP2 SWAP1 POP JUMP JUMPDEST PUSH32 0x4E487B7100000000000000000000000000000000000000000000000000000000 PUSH1 0x0 MSTORE PUSH1 0x41 PUSH1 0x4 MSTORE PUSH1 0x24 PUSH1 0x0 REVERT JUMPDEST PUSH2 0x1B3F DUP3 PUSH2 0x1AF6 JUMP JUMPDEST DUP2 ADD DUP2 DUP2 LT PUSH8 0xFFFFFFFFFFFFFFFF DUP3 GT OR ISZERO PUSH2 0x1B5E JUMPI PUSH2 0x1B5D PUSH2 0x1B07 JUMP JUMPDEST JUMPDEST DUP1 PUSH1 0x40 MSTORE POP POP POP JUMP JUMPDEST PUSH1 0x0 PUSH1 0x44 RETURNDATASIZE LT PUSH2 0x1BF4 JUMPI PUSH2 0x1B79 PUSH2 0x147A JUMP JUMPDEST PUSH1 0x4 RETURNDATASIZE SUB PUSH1 0x4 DUP3 RETURNDATACOPY DUP1 MLOAD RETURNDATASIZE PUSH1 0x24 DUP3 ADD GT PUSH8 0xFFFFFFFFFFFFFFFF DUP3 GT OR ISZERO PUSH2 0x1BA1 JUMPI POP POP PUSH2 0x1BF4 JUMP JUMPDEST DUP1 DUP3 ADD DUP1 MLOAD PUSH8 0xFFFFFFFFFFFFFFFF DUP2 GT ISZERO PUSH2 0x1BBF JUMPI POP POP POP POP PUSH2 0x1BF4 JUMP JUMPDEST DUP1 PUSH1 0x20 DUP4 ADD ADD PUSH1 0x4 RETURNDATASIZE SUB DUP6 ADD DUP2 GT ISZERO PUSH2 0x1BDC JUMPI POP POP POP POP POP PUSH2 0x1BF4 JUMP JUMPDEST PUSH2 0x1BEB DUP3 PUSH1 0x20 ADD DUP6 ADD DUP7 PUSH2 0x1B36 JUMP JUMPDEST DUP3 SWAP6 POP POP POP POP POP POP JUMPDEST SWAP1 JUMP JUMPDEST PUSH1 0x0 DUP2 MLOAD SWAP1 POP SWAP2 SWAP1 POP JUMP JUMPDEST PUSH1 0x0 JUMPDEST DUP4 DUP2 LT ISZERO PUSH2 0x1C20 JUMPI DUP1 DUP3 ADD MLOAD DUP2 DUP5 ADD MSTORE PUSH1 0x20 DUP2 ADD SWAP1 POP PUSH2 0x1C05 JUMP JUMPDEST PUSH1 0x0 DUP5 DUP5 ADD MSTORE POP POP POP POP JUMP JUMPDEST PUSH1 0x0 PUSH2 0x1C37 DUP3 PUSH2 0x1BF7 JUMP JUMPDEST PUSH2 0x1C41 DUP2 DUP6 PUSH2 0x14F4 JUMP JUMPDEST SWAP4 POP PUSH2 0x1C51 DUP2 DUP6 PUSH1 0x20 DUP7 ADD PUSH2 0x1C02 JUMP JUMPDEST PUSH2 0x1C5A DUP2 PUSH2 0x1AF6 JUMP JUMPDEST DUP5 ADD SWAP2 POP POP SWAP3 SWAP2 POP POP JUMP JUMPDEST PUSH1 0x0 PUSH1 0x20 DUP3 ADD SWAP1 POP DUP2 DUP2 SUB PUSH1 0x0 DUP4 ADD MSTORE PUSH2 0x1C7F DUP2 DUP5 PUSH2 0x1C2C JUMP JUMPDEST SWAP1 POP SWAP3 SWAP2 POP POP JUMP INVALID LOG2 PUSH5 0x6970667358 0x22 SLT KECCAK256 0xDA SWAP3 CREATE 0xC7 0xF8 SHR 0xBD DUP12 COINBASE SHR PREVRANDAO 0xE2 PUSH11 0xA0FF9BDD647713665FB53C 0x5D GASPRICE 0x2E SELFDESTRUCT 0xBB 0x23 PREVRANDAO KECCAK256 PUSH5 0x736F6C6343 STOP ADDMOD SLT STOP CALLER "
				},
				"gasEstimates": {
					"creation": {
						"codeDepositCost": "1471400",
						"executionCost": "infinite",
						"totalCost": "infinite"
					},
					"external": {
						"acceptOrder()": "infinite",
						"endTime()": "2496",
						"groupOrderHash()": "2497",
						"minimumTimeLimit()": "353",
						"placeOrder()": "infinite",
						"portionsAgreed()": "2495",
						"portionsPerPerson()": "2519",
						"produce()": "infinite",
						"rejectOrder()": "infinite",
						"requiredVotesToReject()": "2473",
						"startTime()": "2518",
						"state()": "2582",
						"timeOutGroupOrder()": "32275",
						"voteToReject()": "infinite",
						"votesToReject()": "2452",
						"withdrawFunds()": "infinite"
					}
				},
				"methodIdentifiers": {
					"acceptOrder()": "13fc80d3",
					"endTime()": "3197cbb6",
					"groupOrderHash()": "18491f0c",
					"minimumTimeLimit()": "00b2d43b",
					"placeOrder()": "f5c609e0",
					"portionsAgreed()": "f56b3ad5",
					"portionsPerPerson()": "2110b78b",
					"produce()": "656b9952",
					"rejectOrder()": "5f29a5ee",
					"requiredVotesToReject()": "d008902c",
					"startTime()": "78e97925",
					"state()": "c19d93fb",
					"timeOutGroupOrder()": "40c78e98",
					"voteToReject()": "2e6d9662",
					"votesToReject()": "4b436ae6",
					"withdrawFunds()": "24600fc3"
				}
			},
			"storageLayout": {
				"storage": [
					{
						"astId": 230,
						"contract": "contracts/GroupOrder.sol:GroupOrder",
						"label": "produce",
						"offset": 0,
						"slot": "0",
						"type": "t_contract(Produce)859"
					},
					{
						"astId": 232,
						"contract": "contracts/GroupOrder.sol:GroupOrder",
						"label": "portionsAgreed",
						"offset": 0,
						"slot": "1",
						"type": "t_uint256"
					},
					{
						"astId": 234,
						"contract": "contracts/GroupOrder.sol:GroupOrder",
						"label": "portionsPerPerson",
						"offset": 0,
						"slot": "2",
						"type": "t_uint256"
					},
					{
						"astId": 236,
						"contract": "contracts/GroupOrder.sol:GroupOrder",
						"label": "startTime",
						"offset": 0,
						"slot": "3",
						"type": "t_uint256"
					},
					{
						"astId": 238,
						"contract": "contracts/GroupOrder.sol:GroupOrder",
						"label": "endTime",
						"offset": 0,
						"slot": "4",
						"type": "t_uint256"
					},
					{
						"astId": 250,
						"contract": "contracts/GroupOrder.sol:GroupOrder",
						"label": "groupOrderHash",
						"offset": 0,
						"slot": "5",
						"type": "t_bytes32"
					},
					{
						"astId": 252,
						"contract": "contracts/GroupOrder.sol:GroupOrder",
						"label": "requiredVotesToReject",
						"offset": 0,
						"slot": "6",
						"type": "t_uint256"
					},
					{
						"astId": 255,
						"contract": "contracts/GroupOrder.sol:GroupOrder",
						"label": "votesToReject",
						"offset": 0,
						"slot": "7",
						"type": "t_uint256"
					},
					{
						"astId": 263,
						"contract": "contracts/GroupOrder.sol:GroupOrder",
						"label": "state",
						"offset": 0,
						"slot": "8",
						"type": "t_enum(State)260"
					},
					{
						"astId": 267,
						"contract": "contracts/GroupOrder.sol:GroupOrder",
						"label": "orders",
						"offset": 0,
						"slot": "9",
						"type": "t_mapping(t_address,t_bool)"
					}
				],
				"types": {
					"t_address": {
						"encoding": "inplace",
						"label": "address",
						"numberOfBytes": "20"
					},
					"t_bool": {
						"encoding": "inplace",
						"label": "bool",
						"numberOfBytes": "1"
					},
					"t_bytes32": {
						"encoding": "inplace",
						"label": "bytes32",
						"numberOfBytes": "32"
					},
					"t_contract(Produce)859": {
						"encoding": "inplace",
						"label": "contract Produce",
						"numberOfBytes": "20"
					},
					"t_enum(State)260": {
						"encoding": "inplace",
						"label": "enum GroupOrder.State",
						"numberOfBytes": "1"
					},
					"t_mapping(t_address,t_bool)": {
						"encoding": "mapping",
						"key": "t_address",
						"label": "mapping(address => bool)",
						"numberOfBytes": "32",
						"value": "t_bool"
					},
					"t_uint256": {
						"encoding": "inplace",
						"label": "uint256",
						"numberOfBytes": "32"
					}
				}
			},
			"userdoc": {
				"kind": "user",
				"methods": {
					"placeOrder()": {
						"notice": "One person gets one order to ensure equal economic participation"
					}
				},
				"version": 1
			}
		}
	}
}