{
	"contracts/MarketWithNoLeader.sol": {
		"MarketWithNoLeader": {
			"abi": [
				{
					"inputs": [],
					"stateMutability": "nonpayable",
					"type": "constructor"
				},
				{
					"inputs": [
						{
							"internalType": "uint256",
							"name": "_name",
							"type": "uint256"
						},
						{
							"internalType": "uint256",
							"name": "_price",
							"type": "uint256"
						},
						{
							"internalType": "uint256",
							"name": "_orderSize",
							"type": "uint256"
						},
						{
							"internalType": "bytes32",
							"name": "_amount",
							"type": "bytes32"
						},
						{
							"internalType": "uint256",
							"name": "_limitOnPendingOrders",
							"type": "uint256"
						},
						{
							"internalType": "address",
							"name": "_delivererOfProduce",
							"type": "address"
						}
					],
					"name": "addProduce",
					"outputs": [
						{
							"internalType": "address",
							"name": "produceContract",
							"type": "address"
						}
					],
					"stateMutability": "nonpayable",
					"type": "function"
				},
				{
					"inputs": [
						{
							"internalType": "address",
							"name": "",
							"type": "address"
						}
					],
					"name": "farmerList",
					"outputs": [
						{
							"internalType": "bool",
							"name": "",
							"type": "bool"
						}
					],
					"stateMutability": "view",
					"type": "function"
				},
				{
					"inputs": [
						{
							"internalType": "address",
							"name": "produceAddress",
							"type": "address"
						}
					],
					"name": "removeProduce",
					"outputs": [],
					"stateMutability": "nonpayable",
					"type": "function"
				}
			],
			"devdoc": {
				"kind": "dev",
				"methods": {},
				"version": 1
			},
			"evm": {
				"assembly": "    /* \"contracts/MarketWithNoLeader.sol\":154:1818  contract MarketWithNoLeader {... */\n  mstore(0x40, 0xa0)\n    /* \"contracts/MarketWithNoLeader.sol\":609:686  constructor() {... */\n  callvalue\n  dup1\n  iszero\n  tag_1\n  jumpi\n  0x00\n  dup1\n  revert\ntag_1:\n  pop\n    /* \"contracts/MarketWithNoLeader.sol\":665:678  new Produce() */\n  mload(0x40)\n  tag_4\n  swap1\n  tag_5\n  jump\t// in\ntag_4:\n  mload(0x40)\n  dup1\n  swap2\n  sub\n  swap1\n  0x00\n  create\n  dup1\n  iszero\n  dup1\n  iszero\n  tag_6\n  jumpi\n  returndatasize\n  0x00\n  dup1\n  returndatacopy\n  revert(0x00, returndatasize)\ntag_6:\n  pop\n    /* \"contracts/MarketWithNoLeader.sol\":633:679  produceImplementation = address(new Produce()) */\n  0xffffffffffffffffffffffffffffffffffffffff\n  and\n  0x80\n  dup2\n  0xffffffffffffffffffffffffffffffffffffffff\n  and\n  0x60\n  shl\n  dup2\n  mstore\n  pop\n  pop\n    /* \"contracts/MarketWithNoLeader.sol\":154:1818  contract MarketWithNoLeader {... */\n  jump(tag_7)\ntag_5:\n  dataSize(sub_1)\n  dup1\n  dataOffset(sub_1)\n  dup4\n  codecopy\n  add\n  swap1\n  jump\t// out\ntag_7:\n  shr(0x60, mload(0x80))\n  codecopy(0x00, dataOffset(sub_0), dataSize(sub_0))\n  0x00\n  assignImmutable(\"0x8e10998fd91c70dc4a99901d823a85a712e31928b74aed89c0b37021d9258966\")\n  return(0x00, dataSize(sub_0))\nstop\n\nsub_0: assembly {\n        /* \"contracts/MarketWithNoLeader.sol\":154:1818  contract MarketWithNoLeader {... */\n      mstore(0x40, 0x80)\n      callvalue\n      dup1\n      iszero\n      tag_1\n      jumpi\n      0x00\n      dup1\n      revert\n    tag_1:\n      pop\n      jumpi(tag_2, lt(calldatasize, 0x04))\n      shr(0xe0, calldataload(0x00))\n      dup1\n      0x7b6833c3\n      eq\n      tag_3\n      jumpi\n      dup1\n      0x7cfc97be\n      eq\n      tag_4\n      jumpi\n      dup1\n      0xa1d861a9\n      eq\n      tag_5\n      jumpi\n    tag_2:\n      0x00\n      dup1\n      revert\n        /* \"contracts/MarketWithNoLeader.sol\":1502:1814  function removeProduce(address produceAddress) public {... */\n    tag_3:\n      tag_6\n      0x04\n      dup1\n      calldatasize\n      sub\n      dup2\n      add\n      swap1\n      tag_7\n      swap2\n      swap1\n      tag_8\n      jump\t// in\n    tag_7:\n      tag_9\n      jump\t// in\n    tag_6:\n      stop\n        /* \"contracts/MarketWithNoLeader.sol\":693:1496  function addProduce( ... */\n    tag_4:\n      tag_10\n      0x04\n      dup1\n      calldatasize\n      sub\n      dup2\n      add\n      swap1\n      tag_11\n      swap2\n      swap1\n      tag_12\n      jump\t// in\n    tag_11:\n      tag_13\n      jump\t// in\n    tag_10:\n      mload(0x40)\n      tag_14\n      swap2\n      swap1\n      tag_15\n      jump\t// in\n    tag_14:\n      mload(0x40)\n      dup1\n      swap2\n      sub\n      swap1\n      return\n        /* \"contracts/MarketWithNoLeader.sol\":561:602  mapping(address=> bool) public farmerList */\n    tag_5:\n      tag_16\n      0x04\n      dup1\n      calldatasize\n      sub\n      dup2\n      add\n      swap1\n      tag_17\n      swap2\n      swap1\n      tag_8\n      jump\t// in\n    tag_17:\n      tag_18\n      jump\t// in\n    tag_16:\n      mload(0x40)\n      tag_19\n      swap2\n      swap1\n      tag_20\n      jump\t// in\n    tag_19:\n      mload(0x40)\n      dup1\n      swap2\n      sub\n      swap1\n      return\n        /* \"contracts/MarketWithNoLeader.sol\":1502:1814  function removeProduce(address produceAddress) public {... */\n    tag_9:\n        /* \"contracts/MarketWithNoLeader.sol\":1574:1585  produceList */\n      0x01\n        /* \"contracts/MarketWithNoLeader.sol\":1574:1601  produceList[produceAddress] */\n      0x00\n        /* \"contracts/MarketWithNoLeader.sol\":1586:1600  produceAddress */\n      dup3\n        /* \"contracts/MarketWithNoLeader.sol\":1574:1601  produceList[produceAddress] */\n      0xffffffffffffffffffffffffffffffffffffffff\n      and\n      0xffffffffffffffffffffffffffffffffffffffff\n      and\n      dup2\n      mstore\n      0x20\n      add\n      swap1\n      dup2\n      mstore\n      0x20\n      add\n      0x00\n      keccak256\n      0x00\n      swap1\n      sload\n      swap1\n      0x0100\n      exp\n      swap1\n      div\n      0xff\n      and\n        /* \"contracts/MarketWithNoLeader.sol\":1566:1646  require(produceList[produceAddress], \"This produce is not listed on the Market\") */\n      tag_22\n      jumpi\n      mload(0x40)\n      0x08c379a000000000000000000000000000000000000000000000000000000000\n      dup2\n      mstore\n      0x04\n      add\n      tag_23\n      swap1\n      tag_24\n      jump\t// in\n    tag_23:\n      mload(0x40)\n      dup1\n      swap2\n      sub\n      swap1\n      revert\n    tag_22:\n        /* \"contracts/MarketWithNoLeader.sol\":1698:1708  msg.sender */\n      caller\n        /* \"contracts/MarketWithNoLeader.sol\":1664:1708  Produce(produceAddress).owner()== msg.sender */\n      0xffffffffffffffffffffffffffffffffffffffff\n      and\n        /* \"contracts/MarketWithNoLeader.sol\":1672:1686  produceAddress */\n      dup2\n        /* \"contracts/MarketWithNoLeader.sol\":1664:1693  Produce(produceAddress).owner */\n      0xffffffffffffffffffffffffffffffffffffffff\n      and\n      0x8da5cb5b\n        /* \"contracts/MarketWithNoLeader.sol\":1664:1695  Produce(produceAddress).owner() */\n      mload(0x40)\n      dup2\n      0xffffffff\n      and\n      0xe0\n      shl\n      dup2\n      mstore\n      0x04\n      add\n      0x20\n      mload(0x40)\n      dup1\n      dup4\n      sub\n      dup2\n      dup7\n      dup1\n      extcodesize\n      iszero\n      dup1\n      iszero\n      tag_25\n      jumpi\n      0x00\n      dup1\n      revert\n    tag_25:\n      pop\n      gas\n      staticcall\n      iszero\n      dup1\n      iszero\n      tag_27\n      jumpi\n      returndatasize\n      0x00\n      dup1\n      returndatacopy\n      revert(0x00, returndatasize)\n    tag_27:\n      pop\n      pop\n      pop\n      pop\n      mload(0x40)\n      returndatasize\n      not(0x1f)\n      0x1f\n      dup3\n      add\n      and\n      dup3\n      add\n      dup1\n      0x40\n      mstore\n      pop\n      dup2\n      add\n      swap1\n      tag_28\n      swap2\n      swap1\n      tag_29\n      jump\t// in\n    tag_28:\n        /* \"contracts/MarketWithNoLeader.sol\":1664:1708  Produce(produceAddress).owner()== msg.sender */\n      0xffffffffffffffffffffffffffffffffffffffff\n      and\n      eq\n        /* \"contracts/MarketWithNoLeader.sol\":1656:1762  require(Produce(produceAddress).owner()== msg.sender, \"Only produce owner can remove produce from Market\") */\n      tag_30\n      jumpi\n      mload(0x40)\n      0x08c379a000000000000000000000000000000000000000000000000000000000\n      dup2\n      mstore\n      0x04\n      add\n      tag_31\n      swap1\n      tag_32\n      jump\t// in\n    tag_31:\n      mload(0x40)\n      dup1\n      swap2\n      sub\n      swap1\n      revert\n    tag_30:\n        /* \"contracts/MarketWithNoLeader.sol\":1802:1807  false */\n      0x00\n        /* \"contracts/MarketWithNoLeader.sol\":1772:1783  produceList */\n      0x01\n        /* \"contracts/MarketWithNoLeader.sol\":1772:1799  produceList[produceAddress] */\n      0x00\n        /* \"contracts/MarketWithNoLeader.sol\":1784:1798  produceAddress */\n      dup4\n        /* \"contracts/MarketWithNoLeader.sol\":1772:1799  produceList[produceAddress] */\n      0xffffffffffffffffffffffffffffffffffffffff\n      and\n      0xffffffffffffffffffffffffffffffffffffffff\n      and\n      dup2\n      mstore\n      0x20\n      add\n      swap1\n      dup2\n      mstore\n      0x20\n      add\n      0x00\n      keccak256\n      0x00\n        /* \"contracts/MarketWithNoLeader.sol\":1772:1807  produceList[produceAddress] = false */\n      0x0100\n      exp\n      dup2\n      sload\n      dup2\n      0xff\n      mul\n      not\n      and\n      swap1\n      dup4\n      iszero\n      iszero\n      mul\n      or\n      swap1\n      sstore\n      pop\n        /* \"contracts/MarketWithNoLeader.sol\":1502:1814  function removeProduce(address produceAddress) public {... */\n      pop\n      jump\t// out\n        /* \"contracts/MarketWithNoLeader.sol\":693:1496  function addProduce( ... */\n    tag_13:\n        /* \"contracts/MarketWithNoLeader.sol\":918:941  address produceContract */\n      0x00\n        /* \"contracts/MarketWithNoLeader.sol\":957:980  address newProduceClone */\n      dup1\n        /* \"contracts/MarketWithNoLeader.sol\":983:1018  Clones.clone(produceImplementation) */\n      tag_34\n        /* \"contracts/MarketWithNoLeader.sol\":996:1017  produceImplementation */\n      immutable(\"0x8e10998fd91c70dc4a99901d823a85a712e31928b74aed89c0b37021d9258966\")\n        /* \"contracts/MarketWithNoLeader.sol\":983:995  Clones.clone */\n      tag_35\n        /* \"contracts/MarketWithNoLeader.sol\":983:1018  Clones.clone(produceImplementation) */\n      jump\t// in\n    tag_34:\n        /* \"contracts/MarketWithNoLeader.sol\":957:1018  address newProduceClone = Clones.clone(produceImplementation) */\n      swap1\n      pop\n        /* \"contracts/MarketWithNoLeader.sol\":1040:1055  newProduceClone */\n      dup1\n        /* \"contracts/MarketWithNoLeader.sol\":1032:1066  Produce(newProduceClone).initilize */\n      0xffffffffffffffffffffffffffffffffffffffff\n      and\n      0x5f1f38af\n        /* \"contracts/MarketWithNoLeader.sol\":1085:1095  msg.sender */\n      caller\n        /* \"contracts/MarketWithNoLeader.sol\":1114:1119  _name */\n      dup11\n        /* \"contracts/MarketWithNoLeader.sol\":1138:1144  _price */\n      dup11\n        /* \"contracts/MarketWithNoLeader.sol\":1163:1173  _orderSize */\n      dup11\n        /* \"contracts/MarketWithNoLeader.sol\":1192:1199  _amount */\n      dup11\n        /* \"contracts/MarketWithNoLeader.sol\":1218:1239  _limitOnPendingOrders */\n      dup11\n        /* \"contracts/MarketWithNoLeader.sol\":1258:1277  _delivererOfProduce */\n      dup11\n        /* \"contracts/MarketWithNoLeader.sol\":1032:1291  Produce(newProduceClone).initilize(... */\n      mload(0x40)\n      dup9\n      0xffffffff\n      and\n      0xe0\n      shl\n      dup2\n      mstore\n      0x04\n      add\n      tag_36\n      swap8\n      swap7\n      swap6\n      swap5\n      swap4\n      swap3\n      swap2\n      swap1\n      tag_37\n      jump\t// in\n    tag_36:\n      0x00\n      mload(0x40)\n      dup1\n      dup4\n      sub\n      dup2\n      0x00\n      dup8\n      dup1\n      extcodesize\n      iszero\n      dup1\n      iszero\n      tag_38\n      jumpi\n      0x00\n      dup1\n      revert\n    tag_38:\n      pop\n      gas\n      call\n      iszero\n      dup1\n      iszero\n      tag_40\n      jumpi\n      returndatasize\n      0x00\n      dup1\n      returndatacopy\n      revert(0x00, returndatasize)\n    tag_40:\n      pop\n      pop\n      pop\n      pop\n        /* \"contracts/MarketWithNoLeader.sol\":1305:1321  produceAddresses */\n      0x00\n        /* \"contracts/MarketWithNoLeader.sol\":1335:1350  newProduceClone */\n      dup2\n        /* \"contracts/MarketWithNoLeader.sol\":1305:1352  produceAddresses.push(address(newProduceClone)) */\n      swap1\n      dup1\n      0x01\n      dup2\n      sload\n      add\n      dup1\n      dup3\n      sstore\n      dup1\n      swap2\n      pop\n      pop\n      0x01\n      swap1\n      sub\n      swap1\n      0x00\n      mstore\n      keccak256(0x00, 0x20)\n      add\n      0x00\n      swap1\n      swap2\n      swap1\n      swap2\n      swap1\n      swap2\n      0x0100\n      exp\n      dup2\n      sload\n      dup2\n      0xffffffffffffffffffffffffffffffffffffffff\n      mul\n      not\n      and\n      swap1\n      dup4\n      0xffffffffffffffffffffffffffffffffffffffff\n      and\n      mul\n      or\n      swap1\n      sstore\n      pop\n        /* \"contracts/MarketWithNoLeader.sol\":1406:1410  true */\n      0x01\n        /* \"contracts/MarketWithNoLeader.sol\":1366:1377  produceList */\n      dup1\n        /* \"contracts/MarketWithNoLeader.sol\":1366:1403  produceList[address(newProduceClone)] */\n      0x00\n        /* \"contracts/MarketWithNoLeader.sol\":1386:1401  newProduceClone */\n      dup4\n        /* \"contracts/MarketWithNoLeader.sol\":1366:1403  produceList[address(newProduceClone)] */\n      0xffffffffffffffffffffffffffffffffffffffff\n      and\n      0xffffffffffffffffffffffffffffffffffffffff\n      and\n      dup2\n      mstore\n      0x20\n      add\n      swap1\n      dup2\n      mstore\n      0x20\n      add\n      0x00\n      keccak256\n      0x00\n        /* \"contracts/MarketWithNoLeader.sol\":1366:1410  produceList[address(newProduceClone)] = true */\n      0x0100\n      exp\n      dup2\n      sload\n      dup2\n      0xff\n      mul\n      not\n      and\n      swap1\n      dup4\n      iszero\n      iszero\n      mul\n      or\n      swap1\n      sstore\n      pop\n        /* \"contracts/MarketWithNoLeader.sol\":1449:1453  true */\n      0x01\n        /* \"contracts/MarketWithNoLeader.sol\":1424:1434  farmerList */\n      0x02\n        /* \"contracts/MarketWithNoLeader.sol\":1424:1446  farmerList[msg.sender] */\n      0x00\n        /* \"contracts/MarketWithNoLeader.sol\":1435:1445  msg.sender */\n      caller\n        /* \"contracts/MarketWithNoLeader.sol\":1424:1446  farmerList[msg.sender] */\n      0xffffffffffffffffffffffffffffffffffffffff\n      and\n      0xffffffffffffffffffffffffffffffffffffffff\n      and\n      dup2\n      mstore\n      0x20\n      add\n      swap1\n      dup2\n      mstore\n      0x20\n      add\n      0x00\n      keccak256\n      0x00\n        /* \"contracts/MarketWithNoLeader.sol\":1424:1453  farmerList[msg.sender] = true */\n      0x0100\n      exp\n      dup2\n      sload\n      dup2\n      0xff\n      mul\n      not\n      and\n      swap1\n      dup4\n      iszero\n      iszero\n      mul\n      or\n      swap1\n      sstore\n      pop\n        /* \"contracts/MarketWithNoLeader.sol\":1467:1489  return produceContract */\n      pop\n        /* \"contracts/MarketWithNoLeader.sol\":693:1496  function addProduce( ... */\n      swap7\n      swap6\n      pop\n      pop\n      pop\n      pop\n      pop\n      pop\n      jump\t// out\n        /* \"contracts/MarketWithNoLeader.sol\":561:602  mapping(address=> bool) public farmerList */\n    tag_18:\n      mstore(0x20, 0x02)\n      dup1\n      0x00\n      mstore\n      keccak256(0x00, 0x40)\n      0x00\n      swap2\n      pop\n      sload\n      swap1\n      0x0100\n      exp\n      swap1\n      div\n      0xff\n      and\n      dup2\n      jump\t// out\n        /* \"@openzeppelin/contracts/proxy/Clones.sol\":973:1732  function clone(address implementation) internal returns (address instance) {... */\n    tag_35:\n        /* \"@openzeppelin/contracts/proxy/Clones.sol\":1030:1046  address instance */\n      0x00\n        /* \"@openzeppelin/contracts/proxy/Clones.sol\":1362:1410  0x3d602d80600a3d3981f3363d3d373d3d3d363d73000000 */\n      0x3d602d80600a3d3981f3363d3d373d3d3d363d73000000\n        /* \"@openzeppelin/contracts/proxy/Clones.sol\":1344:1358  implementation */\n      dup3\n        /* \"@openzeppelin/contracts/proxy/Clones.sol\":1338:1342  0x60 */\n      0x60\n        /* \"@openzeppelin/contracts/proxy/Clones.sol\":1334:1359  shl(0x60, implementation) */\n      shl\n        /* \"@openzeppelin/contracts/proxy/Clones.sol\":1328:1332  0xe8 */\n      0xe8\n        /* \"@openzeppelin/contracts/proxy/Clones.sol\":1324:1360  shr(0xe8, shl(0x60, implementation)) */\n      shr\n        /* \"@openzeppelin/contracts/proxy/Clones.sol\":1321:1411  or(shr(0xe8, shl(0x60, implementation)), 0x3d602d80600a3d3981f3363d3d373d3d3d363d73000000) */\n      or\n        /* \"@openzeppelin/contracts/proxy/Clones.sol\":1315:1319  0x00 */\n      0x00\n        /* \"@openzeppelin/contracts/proxy/Clones.sol\":1308:1412  mstore(0x00, or(shr(0xe8, shl(0x60, implementation)), 0x3d602d80600a3d3981f3363d3d373d3d3d363d73000000)) */\n      mstore\n        /* \"@openzeppelin/contracts/proxy/Clones.sol\":1569:1601  0x5af43d82803e903d91602b57fd5bf3 */\n      0x5af43d82803e903d91602b57fd5bf3\n        /* \"@openzeppelin/contracts/proxy/Clones.sol\":1552:1566  implementation */\n      dup3\n        /* \"@openzeppelin/contracts/proxy/Clones.sol\":1546:1550  0x78 */\n      0x78\n        /* \"@openzeppelin/contracts/proxy/Clones.sol\":1542:1567  shl(0x78, implementation) */\n      shl\n        /* \"@openzeppelin/contracts/proxy/Clones.sol\":1539:1602  or(shl(0x78, implementation), 0x5af43d82803e903d91602b57fd5bf3) */\n      or\n        /* \"@openzeppelin/contracts/proxy/Clones.sol\":1533:1537  0x20 */\n      0x20\n        /* \"@openzeppelin/contracts/proxy/Clones.sol\":1526:1603  mstore(0x20, or(shl(0x78, implementation), 0x5af43d82803e903d91602b57fd5bf3)) */\n      mstore\n        /* \"@openzeppelin/contracts/proxy/Clones.sol\":1644:1648  0x37 */\n      0x37\n        /* \"@openzeppelin/contracts/proxy/Clones.sol\":1638:1642  0x09 */\n      0x09\n        /* \"@openzeppelin/contracts/proxy/Clones.sol\":1635:1636  0 */\n      0x00\n        /* \"@openzeppelin/contracts/proxy/Clones.sol\":1628:1649  create(0, 0x09, 0x37) */\n      create\n        /* \"@openzeppelin/contracts/proxy/Clones.sol\":1616:1649  instance := create(0, 0x09, 0x37) */\n      swap1\n      pop\n        /* \"@openzeppelin/contracts/proxy/Clones.sol\":1696:1697  0 */\n      0x00\n        /* \"@openzeppelin/contracts/proxy/Clones.sol\":1676:1698  instance != address(0) */\n      0xffffffffffffffffffffffffffffffffffffffff\n      and\n        /* \"@openzeppelin/contracts/proxy/Clones.sol\":1676:1684  instance */\n      dup2\n        /* \"@openzeppelin/contracts/proxy/Clones.sol\":1676:1698  instance != address(0) */\n      0xffffffffffffffffffffffffffffffffffffffff\n      and\n      eq\n      iszero\n        /* \"@openzeppelin/contracts/proxy/Clones.sol\":1668:1725  require(instance != address(0), \"ERC1167: create failed\") */\n      tag_43\n      jumpi\n      mload(0x40)\n      0x08c379a000000000000000000000000000000000000000000000000000000000\n      dup2\n      mstore\n      0x04\n      add\n      tag_44\n      swap1\n      tag_45\n      jump\t// in\n    tag_44:\n      mload(0x40)\n      dup1\n      swap2\n      sub\n      swap1\n      revert\n    tag_43:\n        /* \"@openzeppelin/contracts/proxy/Clones.sol\":973:1732  function clone(address implementation) internal returns (address instance) {... */\n      swap2\n      swap1\n      pop\n      jump\t// out\n        /* \"#utility.yul\":7:146   */\n    tag_47:\n        /* \"#utility.yul\":53:58   */\n      0x00\n        /* \"#utility.yul\":91:97   */\n      dup2\n        /* \"#utility.yul\":78:98   */\n      calldataload\n        /* \"#utility.yul\":69:98   */\n      swap1\n      pop\n        /* \"#utility.yul\":107:140   */\n      tag_49\n        /* \"#utility.yul\":134:139   */\n      dup2\n        /* \"#utility.yul\":107:140   */\n      tag_50\n      jump\t// in\n    tag_49:\n        /* \"#utility.yul\":7:146   */\n      swap3\n      swap2\n      pop\n      pop\n      jump\t// out\n        /* \"#utility.yul\":152:295   */\n    tag_51:\n        /* \"#utility.yul\":209:214   */\n      0x00\n        /* \"#utility.yul\":240:246   */\n      dup2\n        /* \"#utility.yul\":234:247   */\n      mload\n        /* \"#utility.yul\":225:247   */\n      swap1\n      pop\n        /* \"#utility.yul\":256:289   */\n      tag_53\n        /* \"#utility.yul\":283:288   */\n      dup2\n        /* \"#utility.yul\":256:289   */\n      tag_50\n      jump\t// in\n    tag_53:\n        /* \"#utility.yul\":152:295   */\n      swap3\n      swap2\n      pop\n      pop\n      jump\t// out\n        /* \"#utility.yul\":301:440   */\n    tag_54:\n        /* \"#utility.yul\":347:352   */\n      0x00\n        /* \"#utility.yul\":385:391   */\n      dup2\n        /* \"#utility.yul\":372:392   */\n      calldataload\n        /* \"#utility.yul\":363:392   */\n      swap1\n      pop\n        /* \"#utility.yul\":401:434   */\n      tag_56\n        /* \"#utility.yul\":428:433   */\n      dup2\n        /* \"#utility.yul\":401:434   */\n      tag_57\n      jump\t// in\n    tag_56:\n        /* \"#utility.yul\":301:440   */\n      swap3\n      swap2\n      pop\n      pop\n      jump\t// out\n        /* \"#utility.yul\":446:585   */\n    tag_58:\n        /* \"#utility.yul\":492:497   */\n      0x00\n        /* \"#utility.yul\":530:536   */\n      dup2\n        /* \"#utility.yul\":517:537   */\n      calldataload\n        /* \"#utility.yul\":508:537   */\n      swap1\n      pop\n        /* \"#utility.yul\":546:579   */\n      tag_60\n        /* \"#utility.yul\":573:578   */\n      dup2\n        /* \"#utility.yul\":546:579   */\n      tag_61\n      jump\t// in\n    tag_60:\n        /* \"#utility.yul\":446:585   */\n      swap3\n      swap2\n      pop\n      pop\n      jump\t// out\n        /* \"#utility.yul\":591:920   */\n    tag_8:\n        /* \"#utility.yul\":650:656   */\n      0x00\n        /* \"#utility.yul\":699:701   */\n      0x20\n        /* \"#utility.yul\":687:696   */\n      dup3\n        /* \"#utility.yul\":678:685   */\n      dup5\n        /* \"#utility.yul\":674:697   */\n      sub\n        /* \"#utility.yul\":670:702   */\n      slt\n        /* \"#utility.yul\":667:786   */\n      iszero\n      tag_63\n      jumpi\n        /* \"#utility.yul\":705:784   */\n      tag_64\n      tag_65\n      jump\t// in\n    tag_64:\n        /* \"#utility.yul\":667:786   */\n    tag_63:\n        /* \"#utility.yul\":825:826   */\n      0x00\n        /* \"#utility.yul\":850:903   */\n      tag_66\n        /* \"#utility.yul\":895:902   */\n      dup5\n        /* \"#utility.yul\":886:892   */\n      dup3\n        /* \"#utility.yul\":875:884   */\n      dup6\n        /* \"#utility.yul\":871:893   */\n      add\n        /* \"#utility.yul\":850:903   */\n      tag_47\n      jump\t// in\n    tag_66:\n        /* \"#utility.yul\":840:903   */\n      swap2\n      pop\n        /* \"#utility.yul\":796:913   */\n      pop\n        /* \"#utility.yul\":591:920   */\n      swap3\n      swap2\n      pop\n      pop\n      jump\t// out\n        /* \"#utility.yul\":926:1277   */\n    tag_29:\n        /* \"#utility.yul\":996:1002   */\n      0x00\n        /* \"#utility.yul\":1045:1047   */\n      0x20\n        /* \"#utility.yul\":1033:1042   */\n      dup3\n        /* \"#utility.yul\":1024:1031   */\n      dup5\n        /* \"#utility.yul\":1020:1043   */\n      sub\n        /* \"#utility.yul\":1016:1048   */\n      slt\n        /* \"#utility.yul\":1013:1132   */\n      iszero\n      tag_68\n      jumpi\n        /* \"#utility.yul\":1051:1130   */\n      tag_69\n      tag_65\n      jump\t// in\n    tag_69:\n        /* \"#utility.yul\":1013:1132   */\n    tag_68:\n        /* \"#utility.yul\":1171:1172   */\n      0x00\n        /* \"#utility.yul\":1196:1260   */\n      tag_70\n        /* \"#utility.yul\":1252:1259   */\n      dup5\n        /* \"#utility.yul\":1243:1249   */\n      dup3\n        /* \"#utility.yul\":1232:1241   */\n      dup6\n        /* \"#utility.yul\":1228:1250   */\n      add\n        /* \"#utility.yul\":1196:1260   */\n      tag_51\n      jump\t// in\n    tag_70:\n        /* \"#utility.yul\":1186:1260   */\n      swap2\n      pop\n        /* \"#utility.yul\":1142:1270   */\n      pop\n        /* \"#utility.yul\":926:1277   */\n      swap3\n      swap2\n      pop\n      pop\n      jump\t// out\n        /* \"#utility.yul\":1283:2340   */\n    tag_12:\n        /* \"#utility.yul\":1387:1393   */\n      0x00\n        /* \"#utility.yul\":1395:1401   */\n      dup1\n        /* \"#utility.yul\":1403:1409   */\n      0x00\n        /* \"#utility.yul\":1411:1417   */\n      dup1\n        /* \"#utility.yul\":1419:1425   */\n      0x00\n        /* \"#utility.yul\":1427:1433   */\n      dup1\n        /* \"#utility.yul\":1476:1479   */\n      0xc0\n        /* \"#utility.yul\":1464:1473   */\n      dup8\n        /* \"#utility.yul\":1455:1462   */\n      dup10\n        /* \"#utility.yul\":1451:1474   */\n      sub\n        /* \"#utility.yul\":1447:1480   */\n      slt\n        /* \"#utility.yul\":1444:1564   */\n      iszero\n      tag_72\n      jumpi\n        /* \"#utility.yul\":1483:1562   */\n      tag_73\n      tag_65\n      jump\t// in\n    tag_73:\n        /* \"#utility.yul\":1444:1564   */\n    tag_72:\n        /* \"#utility.yul\":1603:1604   */\n      0x00\n        /* \"#utility.yul\":1628:1681   */\n      tag_74\n        /* \"#utility.yul\":1673:1680   */\n      dup10\n        /* \"#utility.yul\":1664:1670   */\n      dup3\n        /* \"#utility.yul\":1653:1662   */\n      dup11\n        /* \"#utility.yul\":1649:1671   */\n      add\n        /* \"#utility.yul\":1628:1681   */\n      tag_58\n      jump\t// in\n    tag_74:\n        /* \"#utility.yul\":1618:1681   */\n      swap7\n      pop\n        /* \"#utility.yul\":1574:1691   */\n      pop\n        /* \"#utility.yul\":1730:1732   */\n      0x20\n        /* \"#utility.yul\":1756:1809   */\n      tag_75\n        /* \"#utility.yul\":1801:1808   */\n      dup10\n        /* \"#utility.yul\":1792:1798   */\n      dup3\n        /* \"#utility.yul\":1781:1790   */\n      dup11\n        /* \"#utility.yul\":1777:1799   */\n      add\n        /* \"#utility.yul\":1756:1809   */\n      tag_58\n      jump\t// in\n    tag_75:\n        /* \"#utility.yul\":1746:1809   */\n      swap6\n      pop\n        /* \"#utility.yul\":1701:1819   */\n      pop\n        /* \"#utility.yul\":1858:1860   */\n      0x40\n        /* \"#utility.yul\":1884:1937   */\n      tag_76\n        /* \"#utility.yul\":1929:1936   */\n      dup10\n        /* \"#utility.yul\":1920:1926   */\n      dup3\n        /* \"#utility.yul\":1909:1918   */\n      dup11\n        /* \"#utility.yul\":1905:1927   */\n      add\n        /* \"#utility.yul\":1884:1937   */\n      tag_58\n      jump\t// in\n    tag_76:\n        /* \"#utility.yul\":1874:1937   */\n      swap5\n      pop\n        /* \"#utility.yul\":1829:1947   */\n      pop\n        /* \"#utility.yul\":1986:1988   */\n      0x60\n        /* \"#utility.yul\":2012:2065   */\n      tag_77\n        /* \"#utility.yul\":2057:2064   */\n      dup10\n        /* \"#utility.yul\":2048:2054   */\n      dup3\n        /* \"#utility.yul\":2037:2046   */\n      dup11\n        /* \"#utility.yul\":2033:2055   */\n      add\n        /* \"#utility.yul\":2012:2065   */\n      tag_54\n      jump\t// in\n    tag_77:\n        /* \"#utility.yul\":2002:2065   */\n      swap4\n      pop\n        /* \"#utility.yul\":1957:2075   */\n      pop\n        /* \"#utility.yul\":2114:2117   */\n      0x80\n        /* \"#utility.yul\":2141:2194   */\n      tag_78\n        /* \"#utility.yul\":2186:2193   */\n      dup10\n        /* \"#utility.yul\":2177:2183   */\n      dup3\n        /* \"#utility.yul\":2166:2175   */\n      dup11\n        /* \"#utility.yul\":2162:2184   */\n      add\n        /* \"#utility.yul\":2141:2194   */\n      tag_58\n      jump\t// in\n    tag_78:\n        /* \"#utility.yul\":2131:2194   */\n      swap3\n      pop\n        /* \"#utility.yul\":2085:2204   */\n      pop\n        /* \"#utility.yul\":2243:2246   */\n      0xa0\n        /* \"#utility.yul\":2270:2323   */\n      tag_79\n        /* \"#utility.yul\":2315:2322   */\n      dup10\n        /* \"#utility.yul\":2306:2312   */\n      dup3\n        /* \"#utility.yul\":2295:2304   */\n      dup11\n        /* \"#utility.yul\":2291:2313   */\n      add\n        /* \"#utility.yul\":2270:2323   */\n      tag_47\n      jump\t// in\n    tag_79:\n        /* \"#utility.yul\":2260:2323   */\n      swap2\n      pop\n        /* \"#utility.yul\":2214:2333   */\n      pop\n        /* \"#utility.yul\":1283:2340   */\n      swap3\n      swap6\n      pop\n      swap3\n      swap6\n      pop\n      swap3\n      swap6\n      jump\t// out\n        /* \"#utility.yul\":2346:2464   */\n    tag_80:\n        /* \"#utility.yul\":2433:2457   */\n      tag_82\n        /* \"#utility.yul\":2451:2456   */\n      dup2\n        /* \"#utility.yul\":2433:2457   */\n      tag_83\n      jump\t// in\n    tag_82:\n        /* \"#utility.yul\":2428:2431   */\n      dup3\n        /* \"#utility.yul\":2421:2458   */\n      mstore\n        /* \"#utility.yul\":2346:2464   */\n      pop\n      pop\n      jump\t// out\n        /* \"#utility.yul\":2470:2579   */\n    tag_84:\n        /* \"#utility.yul\":2551:2572   */\n      tag_86\n        /* \"#utility.yul\":2566:2571   */\n      dup2\n        /* \"#utility.yul\":2551:2572   */\n      tag_87\n      jump\t// in\n    tag_86:\n        /* \"#utility.yul\":2546:2549   */\n      dup3\n        /* \"#utility.yul\":2539:2573   */\n      mstore\n        /* \"#utility.yul\":2470:2579   */\n      pop\n      pop\n      jump\t// out\n        /* \"#utility.yul\":2585:2703   */\n    tag_88:\n        /* \"#utility.yul\":2672:2696   */\n      tag_90\n        /* \"#utility.yul\":2690:2695   */\n      dup2\n        /* \"#utility.yul\":2672:2696   */\n      tag_91\n      jump\t// in\n    tag_90:\n        /* \"#utility.yul\":2667:2670   */\n      dup3\n        /* \"#utility.yul\":2660:2697   */\n      mstore\n        /* \"#utility.yul\":2585:2703   */\n      pop\n      pop\n      jump\t// out\n        /* \"#utility.yul\":2709:3075   */\n    tag_92:\n        /* \"#utility.yul\":2851:2854   */\n      0x00\n        /* \"#utility.yul\":2872:2939   */\n      tag_94\n        /* \"#utility.yul\":2936:2938   */\n      0x28\n        /* \"#utility.yul\":2931:2934   */\n      dup4\n        /* \"#utility.yul\":2872:2939   */\n      tag_95\n      jump\t// in\n    tag_94:\n        /* \"#utility.yul\":2865:2939   */\n      swap2\n      pop\n        /* \"#utility.yul\":2948:3041   */\n      tag_96\n        /* \"#utility.yul\":3037:3040   */\n      dup3\n        /* \"#utility.yul\":2948:3041   */\n      tag_97\n      jump\t// in\n    tag_96:\n        /* \"#utility.yul\":3066:3068   */\n      0x40\n        /* \"#utility.yul\":3061:3064   */\n      dup3\n        /* \"#utility.yul\":3057:3069   */\n      add\n        /* \"#utility.yul\":3050:3069   */\n      swap1\n      pop\n        /* \"#utility.yul\":2709:3075   */\n      swap2\n      swap1\n      pop\n      jump\t// out\n        /* \"#utility.yul\":3081:3447   */\n    tag_98:\n        /* \"#utility.yul\":3223:3226   */\n      0x00\n        /* \"#utility.yul\":3244:3311   */\n      tag_100\n        /* \"#utility.yul\":3308:3310   */\n      0x16\n        /* \"#utility.yul\":3303:3306   */\n      dup4\n        /* \"#utility.yul\":3244:3311   */\n      tag_95\n      jump\t// in\n    tag_100:\n        /* \"#utility.yul\":3237:3311   */\n      swap2\n      pop\n        /* \"#utility.yul\":3320:3413   */\n      tag_101\n        /* \"#utility.yul\":3409:3412   */\n      dup3\n        /* \"#utility.yul\":3320:3413   */\n      tag_102\n      jump\t// in\n    tag_101:\n        /* \"#utility.yul\":3438:3440   */\n      0x20\n        /* \"#utility.yul\":3433:3436   */\n      dup3\n        /* \"#utility.yul\":3429:3441   */\n      add\n        /* \"#utility.yul\":3422:3441   */\n      swap1\n      pop\n        /* \"#utility.yul\":3081:3447   */\n      swap2\n      swap1\n      pop\n      jump\t// out\n        /* \"#utility.yul\":3453:3819   */\n    tag_103:\n        /* \"#utility.yul\":3595:3598   */\n      0x00\n        /* \"#utility.yul\":3616:3683   */\n      tag_105\n        /* \"#utility.yul\":3680:3682   */\n      0x31\n        /* \"#utility.yul\":3675:3678   */\n      dup4\n        /* \"#utility.yul\":3616:3683   */\n      tag_95\n      jump\t// in\n    tag_105:\n        /* \"#utility.yul\":3609:3683   */\n      swap2\n      pop\n        /* \"#utility.yul\":3692:3785   */\n      tag_106\n        /* \"#utility.yul\":3781:3784   */\n      dup3\n        /* \"#utility.yul\":3692:3785   */\n      tag_107\n      jump\t// in\n    tag_106:\n        /* \"#utility.yul\":3810:3812   */\n      0x40\n        /* \"#utility.yul\":3805:3808   */\n      dup3\n        /* \"#utility.yul\":3801:3813   */\n      add\n        /* \"#utility.yul\":3794:3813   */\n      swap1\n      pop\n        /* \"#utility.yul\":3453:3819   */\n      swap2\n      swap1\n      pop\n      jump\t// out\n        /* \"#utility.yul\":3825:3943   */\n    tag_108:\n        /* \"#utility.yul\":3912:3936   */\n      tag_110\n        /* \"#utility.yul\":3930:3935   */\n      dup2\n        /* \"#utility.yul\":3912:3936   */\n      tag_111\n      jump\t// in\n    tag_110:\n        /* \"#utility.yul\":3907:3910   */\n      dup3\n        /* \"#utility.yul\":3900:3937   */\n      mstore\n        /* \"#utility.yul\":3825:3943   */\n      pop\n      pop\n      jump\t// out\n        /* \"#utility.yul\":3949:4171   */\n    tag_15:\n        /* \"#utility.yul\":4042:4046   */\n      0x00\n        /* \"#utility.yul\":4080:4082   */\n      0x20\n        /* \"#utility.yul\":4069:4078   */\n      dup3\n        /* \"#utility.yul\":4065:4083   */\n      add\n        /* \"#utility.yul\":4057:4083   */\n      swap1\n      pop\n        /* \"#utility.yul\":4093:4164   */\n      tag_113\n        /* \"#utility.yul\":4161:4162   */\n      0x00\n        /* \"#utility.yul\":4150:4159   */\n      dup4\n        /* \"#utility.yul\":4146:4163   */\n      add\n        /* \"#utility.yul\":4137:4143   */\n      dup5\n        /* \"#utility.yul\":4093:4164   */\n      tag_80\n      jump\t// in\n    tag_113:\n        /* \"#utility.yul\":3949:4171   */\n      swap3\n      swap2\n      pop\n      pop\n      jump\t// out\n        /* \"#utility.yul\":4177:5063   */\n    tag_37:\n        /* \"#utility.yul\":4438:4442   */\n      0x00\n        /* \"#utility.yul\":4476:4479   */\n      0xe0\n        /* \"#utility.yul\":4465:4474   */\n      dup3\n        /* \"#utility.yul\":4461:4480   */\n      add\n        /* \"#utility.yul\":4453:4480   */\n      swap1\n      pop\n        /* \"#utility.yul\":4490:4561   */\n      tag_115\n        /* \"#utility.yul\":4558:4559   */\n      0x00\n        /* \"#utility.yul\":4547:4556   */\n      dup4\n        /* \"#utility.yul\":4543:4560   */\n      add\n        /* \"#utility.yul\":4534:4540   */\n      dup11\n        /* \"#utility.yul\":4490:4561   */\n      tag_80\n      jump\t// in\n    tag_115:\n        /* \"#utility.yul\":4571:4643   */\n      tag_116\n        /* \"#utility.yul\":4639:4641   */\n      0x20\n        /* \"#utility.yul\":4628:4637   */\n      dup4\n        /* \"#utility.yul\":4624:4642   */\n      add\n        /* \"#utility.yul\":4615:4621   */\n      dup10\n        /* \"#utility.yul\":4571:4643   */\n      tag_108\n      jump\t// in\n    tag_116:\n        /* \"#utility.yul\":4653:4725   */\n      tag_117\n        /* \"#utility.yul\":4721:4723   */\n      0x40\n        /* \"#utility.yul\":4710:4719   */\n      dup4\n        /* \"#utility.yul\":4706:4724   */\n      add\n        /* \"#utility.yul\":4697:4703   */\n      dup9\n        /* \"#utility.yul\":4653:4725   */\n      tag_108\n      jump\t// in\n    tag_117:\n        /* \"#utility.yul\":4735:4807   */\n      tag_118\n        /* \"#utility.yul\":4803:4805   */\n      0x60\n        /* \"#utility.yul\":4792:4801   */\n      dup4\n        /* \"#utility.yul\":4788:4806   */\n      add\n        /* \"#utility.yul\":4779:4785   */\n      dup8\n        /* \"#utility.yul\":4735:4807   */\n      tag_108\n      jump\t// in\n    tag_118:\n        /* \"#utility.yul\":4817:4890   */\n      tag_119\n        /* \"#utility.yul\":4885:4888   */\n      0x80\n        /* \"#utility.yul\":4874:4883   */\n      dup4\n        /* \"#utility.yul\":4870:4889   */\n      add\n        /* \"#utility.yul\":4861:4867   */\n      dup7\n        /* \"#utility.yul\":4817:4890   */\n      tag_88\n      jump\t// in\n    tag_119:\n        /* \"#utility.yul\":4900:4973   */\n      tag_120\n        /* \"#utility.yul\":4968:4971   */\n      0xa0\n        /* \"#utility.yul\":4957:4966   */\n      dup4\n        /* \"#utility.yul\":4953:4972   */\n      add\n        /* \"#utility.yul\":4944:4950   */\n      dup6\n        /* \"#utility.yul\":4900:4973   */\n      tag_108\n      jump\t// in\n    tag_120:\n        /* \"#utility.yul\":4983:5056   */\n      tag_121\n        /* \"#utility.yul\":5051:5054   */\n      0xc0\n        /* \"#utility.yul\":5040:5049   */\n      dup4\n        /* \"#utility.yul\":5036:5055   */\n      add\n        /* \"#utility.yul\":5027:5033   */\n      dup5\n        /* \"#utility.yul\":4983:5056   */\n      tag_80\n      jump\t// in\n    tag_121:\n        /* \"#utility.yul\":4177:5063   */\n      swap9\n      swap8\n      pop\n      pop\n      pop\n      pop\n      pop\n      pop\n      pop\n      pop\n      jump\t// out\n        /* \"#utility.yul\":5069:5279   */\n    tag_20:\n        /* \"#utility.yul\":5156:5160   */\n      0x00\n        /* \"#utility.yul\":5194:5196   */\n      0x20\n        /* \"#utility.yul\":5183:5192   */\n      dup3\n        /* \"#utility.yul\":5179:5197   */\n      add\n        /* \"#utility.yul\":5171:5197   */\n      swap1\n      pop\n        /* \"#utility.yul\":5207:5272   */\n      tag_123\n        /* \"#utility.yul\":5269:5270   */\n      0x00\n        /* \"#utility.yul\":5258:5267   */\n      dup4\n        /* \"#utility.yul\":5254:5271   */\n      add\n        /* \"#utility.yul\":5245:5251   */\n      dup5\n        /* \"#utility.yul\":5207:5272   */\n      tag_84\n      jump\t// in\n    tag_123:\n        /* \"#utility.yul\":5069:5279   */\n      swap3\n      swap2\n      pop\n      pop\n      jump\t// out\n        /* \"#utility.yul\":5285:5704   */\n    tag_24:\n        /* \"#utility.yul\":5451:5455   */\n      0x00\n        /* \"#utility.yul\":5489:5491   */\n      0x20\n        /* \"#utility.yul\":5478:5487   */\n      dup3\n        /* \"#utility.yul\":5474:5492   */\n      add\n        /* \"#utility.yul\":5466:5492   */\n      swap1\n      pop\n        /* \"#utility.yul\":5538:5547   */\n      dup2\n        /* \"#utility.yul\":5532:5536   */\n      dup2\n        /* \"#utility.yul\":5528:5548   */\n      sub\n        /* \"#utility.yul\":5524:5525   */\n      0x00\n        /* \"#utility.yul\":5513:5522   */\n      dup4\n        /* \"#utility.yul\":5509:5526   */\n      add\n        /* \"#utility.yul\":5502:5549   */\n      mstore\n        /* \"#utility.yul\":5566:5697   */\n      tag_125\n        /* \"#utility.yul\":5692:5696   */\n      dup2\n        /* \"#utility.yul\":5566:5697   */\n      tag_92\n      jump\t// in\n    tag_125:\n        /* \"#utility.yul\":5558:5697   */\n      swap1\n      pop\n        /* \"#utility.yul\":5285:5704   */\n      swap2\n      swap1\n      pop\n      jump\t// out\n        /* \"#utility.yul\":5710:6129   */\n    tag_45:\n        /* \"#utility.yul\":5876:5880   */\n      0x00\n        /* \"#utility.yul\":5914:5916   */\n      0x20\n        /* \"#utility.yul\":5903:5912   */\n      dup3\n        /* \"#utility.yul\":5899:5917   */\n      add\n        /* \"#utility.yul\":5891:5917   */\n      swap1\n      pop\n        /* \"#utility.yul\":5963:5972   */\n      dup2\n        /* \"#utility.yul\":5957:5961   */\n      dup2\n        /* \"#utility.yul\":5953:5973   */\n      sub\n        /* \"#utility.yul\":5949:5950   */\n      0x00\n        /* \"#utility.yul\":5938:5947   */\n      dup4\n        /* \"#utility.yul\":5934:5951   */\n      add\n        /* \"#utility.yul\":5927:5974   */\n      mstore\n        /* \"#utility.yul\":5991:6122   */\n      tag_127\n        /* \"#utility.yul\":6117:6121   */\n      dup2\n        /* \"#utility.yul\":5991:6122   */\n      tag_98\n      jump\t// in\n    tag_127:\n        /* \"#utility.yul\":5983:6122   */\n      swap1\n      pop\n        /* \"#utility.yul\":5710:6129   */\n      swap2\n      swap1\n      pop\n      jump\t// out\n        /* \"#utility.yul\":6135:6554   */\n    tag_32:\n        /* \"#utility.yul\":6301:6305   */\n      0x00\n        /* \"#utility.yul\":6339:6341   */\n      0x20\n        /* \"#utility.yul\":6328:6337   */\n      dup3\n        /* \"#utility.yul\":6324:6342   */\n      add\n        /* \"#utility.yul\":6316:6342   */\n      swap1\n      pop\n        /* \"#utility.yul\":6388:6397   */\n      dup2\n        /* \"#utility.yul\":6382:6386   */\n      dup2\n        /* \"#utility.yul\":6378:6398   */\n      sub\n        /* \"#utility.yul\":6374:6375   */\n      0x00\n        /* \"#utility.yul\":6363:6372   */\n      dup4\n        /* \"#utility.yul\":6359:6376   */\n      add\n        /* \"#utility.yul\":6352:6399   */\n      mstore\n        /* \"#utility.yul\":6416:6547   */\n      tag_129\n        /* \"#utility.yul\":6542:6546   */\n      dup2\n        /* \"#utility.yul\":6416:6547   */\n      tag_103\n      jump\t// in\n    tag_129:\n        /* \"#utility.yul\":6408:6547   */\n      swap1\n      pop\n        /* \"#utility.yul\":6135:6554   */\n      swap2\n      swap1\n      pop\n      jump\t// out\n        /* \"#utility.yul\":6641:6810   */\n    tag_95:\n        /* \"#utility.yul\":6725:6736   */\n      0x00\n        /* \"#utility.yul\":6759:6765   */\n      dup3\n        /* \"#utility.yul\":6754:6757   */\n      dup3\n        /* \"#utility.yul\":6747:6766   */\n      mstore\n        /* \"#utility.yul\":6799:6803   */\n      0x20\n        /* \"#utility.yul\":6794:6797   */\n      dup3\n        /* \"#utility.yul\":6790:6804   */\n      add\n        /* \"#utility.yul\":6775:6804   */\n      swap1\n      pop\n        /* \"#utility.yul\":6641:6810   */\n      swap3\n      swap2\n      pop\n      pop\n      jump\t// out\n        /* \"#utility.yul\":6816:6912   */\n    tag_83:\n        /* \"#utility.yul\":6853:6860   */\n      0x00\n        /* \"#utility.yul\":6882:6906   */\n      tag_134\n        /* \"#utility.yul\":6900:6905   */\n      dup3\n        /* \"#utility.yul\":6882:6906   */\n      tag_135\n      jump\t// in\n    tag_134:\n        /* \"#utility.yul\":6871:6906   */\n      swap1\n      pop\n        /* \"#utility.yul\":6816:6912   */\n      swap2\n      swap1\n      pop\n      jump\t// out\n        /* \"#utility.yul\":6918:7008   */\n    tag_87:\n        /* \"#utility.yul\":6952:6959   */\n      0x00\n        /* \"#utility.yul\":6995:7000   */\n      dup2\n        /* \"#utility.yul\":6988:7001   */\n      iszero\n        /* \"#utility.yul\":6981:7002   */\n      iszero\n        /* \"#utility.yul\":6970:7002   */\n      swap1\n      pop\n        /* \"#utility.yul\":6918:7008   */\n      swap2\n      swap1\n      pop\n      jump\t// out\n        /* \"#utility.yul\":7014:7091   */\n    tag_91:\n        /* \"#utility.yul\":7051:7058   */\n      0x00\n        /* \"#utility.yul\":7080:7085   */\n      dup2\n        /* \"#utility.yul\":7069:7085   */\n      swap1\n      pop\n        /* \"#utility.yul\":7014:7091   */\n      swap2\n      swap1\n      pop\n      jump\t// out\n        /* \"#utility.yul\":7097:7223   */\n    tag_135:\n        /* \"#utility.yul\":7134:7141   */\n      0x00\n        /* \"#utility.yul\":7174:7216   */\n      0xffffffffffffffffffffffffffffffffffffffff\n        /* \"#utility.yul\":7167:7172   */\n      dup3\n        /* \"#utility.yul\":7163:7217   */\n      and\n        /* \"#utility.yul\":7152:7217   */\n      swap1\n      pop\n        /* \"#utility.yul\":7097:7223   */\n      swap2\n      swap1\n      pop\n      jump\t// out\n        /* \"#utility.yul\":7229:7306   */\n    tag_111:\n        /* \"#utility.yul\":7266:7273   */\n      0x00\n        /* \"#utility.yul\":7295:7300   */\n      dup2\n        /* \"#utility.yul\":7284:7300   */\n      swap1\n      pop\n        /* \"#utility.yul\":7229:7306   */\n      swap2\n      swap1\n      pop\n      jump\t// out\n        /* \"#utility.yul\":7435:7552   */\n    tag_65:\n        /* \"#utility.yul\":7544:7545   */\n      0x00\n        /* \"#utility.yul\":7541:7542   */\n      dup1\n        /* \"#utility.yul\":7534:7546   */\n      revert\n        /* \"#utility.yul\":7558:7785   */\n    tag_97:\n        /* \"#utility.yul\":7698:7732   */\n      0x546869732070726f64756365206973206e6f74206c6973746564206f6e207468\n        /* \"#utility.yul\":7694:7695   */\n      0x00\n        /* \"#utility.yul\":7686:7692   */\n      dup3\n        /* \"#utility.yul\":7682:7696   */\n      add\n        /* \"#utility.yul\":7675:7733   */\n      mstore\n        /* \"#utility.yul\":7767:7777   */\n      0x65204d61726b6574000000000000000000000000000000000000000000000000\n        /* \"#utility.yul\":7762:7764   */\n      0x20\n        /* \"#utility.yul\":7754:7760   */\n      dup3\n        /* \"#utility.yul\":7750:7765   */\n      add\n        /* \"#utility.yul\":7743:7778   */\n      mstore\n        /* \"#utility.yul\":7558:7785   */\n      pop\n      jump\t// out\n        /* \"#utility.yul\":7791:7963   */\n    tag_102:\n        /* \"#utility.yul\":7931:7955   */\n      0x455243313136373a20637265617465206661696c656400000000000000000000\n        /* \"#utility.yul\":7927:7928   */\n      0x00\n        /* \"#utility.yul\":7919:7925   */\n      dup3\n        /* \"#utility.yul\":7915:7929   */\n      add\n        /* \"#utility.yul\":7908:7956   */\n      mstore\n        /* \"#utility.yul\":7791:7963   */\n      pop\n      jump\t// out\n        /* \"#utility.yul\":7969:8205   */\n    tag_107:\n        /* \"#utility.yul\":8109:8143   */\n      0x4f6e6c792070726f64756365206f776e65722063616e2072656d6f7665207072\n        /* \"#utility.yul\":8105:8106   */\n      0x00\n        /* \"#utility.yul\":8097:8103   */\n      dup3\n        /* \"#utility.yul\":8093:8107   */\n      add\n        /* \"#utility.yul\":8086:8144   */\n      mstore\n        /* \"#utility.yul\":8178:8197   */\n      0x6f647563652066726f6d204d61726b6574000000000000000000000000000000\n        /* \"#utility.yul\":8173:8175   */\n      0x20\n        /* \"#utility.yul\":8165:8171   */\n      dup3\n        /* \"#utility.yul\":8161:8176   */\n      add\n        /* \"#utility.yul\":8154:8198   */\n      mstore\n        /* \"#utility.yul\":7969:8205   */\n      pop\n      jump\t// out\n        /* \"#utility.yul\":8211:8333   */\n    tag_50:\n        /* \"#utility.yul\":8284:8308   */\n      tag_147\n        /* \"#utility.yul\":8302:8307   */\n      dup2\n        /* \"#utility.yul\":8284:8308   */\n      tag_83\n      jump\t// in\n    tag_147:\n        /* \"#utility.yul\":8277:8282   */\n      dup2\n        /* \"#utility.yul\":8274:8309   */\n      eq\n        /* \"#utility.yul\":8264:8327   */\n      tag_148\n      jumpi\n        /* \"#utility.yul\":8323:8324   */\n      0x00\n        /* \"#utility.yul\":8320:8321   */\n      dup1\n        /* \"#utility.yul\":8313:8325   */\n      revert\n        /* \"#utility.yul\":8264:8327   */\n    tag_148:\n        /* \"#utility.yul\":8211:8333   */\n      pop\n      jump\t// out\n        /* \"#utility.yul\":8339:8461   */\n    tag_57:\n        /* \"#utility.yul\":8412:8436   */\n      tag_150\n        /* \"#utility.yul\":8430:8435   */\n      dup2\n        /* \"#utility.yul\":8412:8436   */\n      tag_91\n      jump\t// in\n    tag_150:\n        /* \"#utility.yul\":8405:8410   */\n      dup2\n        /* \"#utility.yul\":8402:8437   */\n      eq\n        /* \"#utility.yul\":8392:8455   */\n      tag_151\n      jumpi\n        /* \"#utility.yul\":8451:8452   */\n      0x00\n        /* \"#utility.yul\":8448:8449   */\n      dup1\n        /* \"#utility.yul\":8441:8453   */\n      revert\n        /* \"#utility.yul\":8392:8455   */\n    tag_151:\n        /* \"#utility.yul\":8339:8461   */\n      pop\n      jump\t// out\n        /* \"#utility.yul\":8467:8589   */\n    tag_61:\n        /* \"#utility.yul\":8540:8564   */\n      tag_153\n        /* \"#utility.yul\":8558:8563   */\n      dup2\n        /* \"#utility.yul\":8540:8564   */\n      tag_111\n      jump\t// in\n    tag_153:\n        /* \"#utility.yul\":8533:8538   */\n      dup2\n        /* \"#utility.yul\":8530:8565   */\n      eq\n        /* \"#utility.yul\":8520:8583   */\n      tag_154\n      jumpi\n        /* \"#utility.yul\":8579:8580   */\n      0x00\n        /* \"#utility.yul\":8576:8577   */\n      dup1\n        /* \"#utility.yul\":8569:8581   */\n      revert\n        /* \"#utility.yul\":8520:8583   */\n    tag_154:\n        /* \"#utility.yul\":8467:8589   */\n      pop\n      jump\t// out\n\n    auxdata: 0xa2646970667358221220c6e03037f333259cf403481fce004c549a066387edbe23fa762f5013cd41835364736f6c63430008070033\n}\n\nsub_1: assembly {\n        /* \"contracts/Produce.sol\":140:1964  contract Produce is Ownable{... */\n      mstore(0x40, 0x80)\n        /* \"contracts/Produce.sol\":529:587  constructor() {... */\n      callvalue\n      dup1\n      iszero\n      tag_1\n      jumpi\n      0x00\n      dup1\n      revert\n    tag_1:\n      pop\n        /* \"@openzeppelin/contracts/access/Ownable.sol\":936:968  _transferOwnership(_msgSender()) */\n      tag_5\n        /* \"@openzeppelin/contracts/access/Ownable.sol\":955:967  _msgSender() */\n      tag_6\n        /* \"@openzeppelin/contracts/access/Ownable.sol\":955:965  _msgSender */\n      shl(0x20, tag_7)\n        /* \"@openzeppelin/contracts/access/Ownable.sol\":955:967  _msgSender() */\n      0x20\n      shr\n      jump\t// in\n    tag_6:\n        /* \"@openzeppelin/contracts/access/Ownable.sol\":936:954  _transferOwnership */\n      shl(0x20, tag_8)\n        /* \"@openzeppelin/contracts/access/Ownable.sol\":936:968  _transferOwnership(_msgSender()) */\n      0x20\n      shr\n      jump\t// in\n    tag_5:\n        /* \"contracts/Produce.sol\":561:580  State.UNINITIALIZED */\n      0x00\n        /* \"contracts/Produce.sol\":553:558  state */\n      0x09\n      0x14\n        /* \"contracts/Produce.sol\":553:580  state = State.UNINITIALIZED */\n      0x0100\n      exp\n      dup2\n      sload\n      dup2\n      0xff\n      mul\n      not\n      and\n      swap1\n      dup4\n      0x01\n      dup2\n      gt\n      iszero\n      tag_10\n      jumpi\n      tag_11\n      tag_12\n      jump\t// in\n    tag_11:\n    tag_10:\n      mul\n      or\n      swap1\n      sstore\n      pop\n        /* \"contracts/Produce.sol\":140:1964  contract Produce is Ownable{... */\n      jump(tag_13)\n        /* \"@openzeppelin/contracts/utils/Context.sol\":640:736  function _msgSender() internal view virtual returns (address) {... */\n    tag_7:\n        /* \"@openzeppelin/contracts/utils/Context.sol\":693:700  address */\n      0x00\n        /* \"@openzeppelin/contracts/utils/Context.sol\":719:729  msg.sender */\n      caller\n        /* \"@openzeppelin/contracts/utils/Context.sol\":712:729  return msg.sender */\n      swap1\n      pop\n        /* \"@openzeppelin/contracts/utils/Context.sol\":640:736  function _msgSender() internal view virtual returns (address) {... */\n      swap1\n      jump\t// out\n        /* \"@openzeppelin/contracts/access/Ownable.sol\":2433:2620  function _transferOwnership(address newOwner) internal virtual {... */\n    tag_8:\n        /* \"@openzeppelin/contracts/access/Ownable.sol\":2506:2522  address oldOwner */\n      0x00\n        /* \"@openzeppelin/contracts/access/Ownable.sol\":2525:2531  _owner */\n      dup1\n      0x00\n      swap1\n      sload\n      swap1\n      0x0100\n      exp\n      swap1\n      div\n      0xffffffffffffffffffffffffffffffffffffffff\n      and\n        /* \"@openzeppelin/contracts/access/Ownable.sol\":2506:2531  address oldOwner = _owner */\n      swap1\n      pop\n        /* \"@openzeppelin/contracts/access/Ownable.sol\":2550:2558  newOwner */\n      dup2\n        /* \"@openzeppelin/contracts/access/Ownable.sol\":2541:2547  _owner */\n      0x00\n      dup1\n        /* \"@openzeppelin/contracts/access/Ownable.sol\":2541:2558  _owner = newOwner */\n      0x0100\n      exp\n      dup2\n      sload\n      dup2\n      0xffffffffffffffffffffffffffffffffffffffff\n      mul\n      not\n      and\n      swap1\n      dup4\n      0xffffffffffffffffffffffffffffffffffffffff\n      and\n      mul\n      or\n      swap1\n      sstore\n      pop\n        /* \"@openzeppelin/contracts/access/Ownable.sol\":2604:2612  newOwner */\n      dup2\n        /* \"@openzeppelin/contracts/access/Ownable.sol\":2573:2613  OwnershipTransferred(oldOwner, newOwner) */\n      0xffffffffffffffffffffffffffffffffffffffff\n      and\n        /* \"@openzeppelin/contracts/access/Ownable.sol\":2594:2602  oldOwner */\n      dup2\n        /* \"@openzeppelin/contracts/access/Ownable.sol\":2573:2613  OwnershipTransferred(oldOwner, newOwner) */\n      0xffffffffffffffffffffffffffffffffffffffff\n      and\n      0x8be0079c531659141344cd1fd0a4f28419497f9722a3daafe3b4186f6b6457e0\n      mload(0x40)\n      mload(0x40)\n      dup1\n      swap2\n      sub\n      swap1\n      log3\n        /* \"@openzeppelin/contracts/access/Ownable.sol\":2496:2620  {... */\n      pop\n        /* \"@openzeppelin/contracts/access/Ownable.sol\":2433:2620  function _transferOwnership(address newOwner) internal virtual {... */\n      pop\n      jump\t// out\n        /* \"#utility.yul\":7:187   */\n    tag_12:\n        /* \"#utility.yul\":55:132   */\n      0x4e487b7100000000000000000000000000000000000000000000000000000000\n        /* \"#utility.yul\":52:53   */\n      0x00\n        /* \"#utility.yul\":45:133   */\n      mstore\n        /* \"#utility.yul\":152:156   */\n      0x21\n        /* \"#utility.yul\":149:150   */\n      0x04\n        /* \"#utility.yul\":142:157   */\n      mstore\n        /* \"#utility.yul\":176:180   */\n      0x24\n        /* \"#utility.yul\":173:174   */\n      0x00\n        /* \"#utility.yul\":166:181   */\n      revert\n        /* \"contracts/Produce.sol\":140:1964  contract Produce is Ownable{... */\n    tag_13:\n      dataSize(sub_0)\n      dup1\n      dataOffset(sub_0)\n      0x00\n      codecopy\n      0x00\n      return\n    stop\n\n    sub_0: assembly {\n            /* \"contracts/Produce.sol\":140:1964  contract Produce is Ownable{... */\n          mstore(0x40, 0x80)\n          jumpi(tag_1, lt(calldatasize, 0x04))\n          shr(0xe0, calldataload(0x00))\n          dup1\n          0x8da5cb5b\n          gt\n          tag_16\n          jumpi\n          dup1\n          0xd32dacc1\n          gt\n          tag_17\n          jumpi\n          dup1\n          0xd32dacc1\n          eq\n          tag_12\n          jumpi\n          dup1\n          0xd811fcf0\n          eq\n          tag_13\n          jumpi\n          dup1\n          0xf2fde38b\n          eq\n          tag_14\n          jumpi\n          dup1\n          0xf5c609e0\n          eq\n          tag_15\n          jumpi\n          jump(tag_1)\n        tag_17:\n          dup1\n          0x8da5cb5b\n          eq\n          tag_9\n          jumpi\n          dup1\n          0xa035b1fe\n          eq\n          tag_10\n          jumpi\n          dup1\n          0xaa8c217c\n          eq\n          tag_11\n          jumpi\n          jump(tag_1)\n        tag_16:\n          dup1\n          0x6d86b8a5\n          gt\n          tag_18\n          jumpi\n          dup1\n          0x6d86b8a5\n          eq\n          tag_5\n          jumpi\n          dup1\n          0x715018a6\n          eq\n          tag_6\n          jumpi\n          dup1\n          0x80f55605\n          eq\n          tag_7\n          jumpi\n          dup1\n          0x81bbfb61\n          eq\n          tag_8\n          jumpi\n          jump(tag_1)\n        tag_18:\n          dup1\n          0x06fdde03\n          eq\n          tag_2\n          jumpi\n          dup1\n          0x530d124e\n          eq\n          tag_3\n          jumpi\n          dup1\n          0x5f1f38af\n          eq\n          tag_4\n          jumpi\n        tag_1:\n          0x00\n          dup1\n          revert\n            /* \"contracts/Produce.sol\":299:318  uint256 public name */\n        tag_2:\n          callvalue\n          dup1\n          iszero\n          tag_19\n          jumpi\n          0x00\n          dup1\n          revert\n        tag_19:\n          pop\n          tag_20\n          tag_21\n          jump\t// in\n        tag_20:\n          mload(0x40)\n          tag_22\n          swap2\n          swap1\n          tag_23\n          jump\t// in\n        tag_22:\n          mload(0x40)\n          dup1\n          swap2\n          sub\n          swap1\n          return\n            /* \"contracts/Produce.sol\":257:292  uint256 public limitOnPendingOrders */\n        tag_3:\n          callvalue\n          dup1\n          iszero\n          tag_24\n          jumpi\n          0x00\n          dup1\n          revert\n        tag_24:\n          pop\n          tag_25\n          tag_26\n          jump\t// in\n        tag_25:\n          mload(0x40)\n          tag_27\n          swap2\n          swap1\n          tag_23\n          jump\t// in\n        tag_27:\n          mload(0x40)\n          dup1\n          swap2\n          sub\n          swap1\n          return\n            /* \"contracts/Produce.sol\":593:1223  function initilize(... */\n        tag_4:\n          callvalue\n          dup1\n          iszero\n          tag_28\n          jumpi\n          0x00\n          dup1\n          revert\n        tag_28:\n          pop\n          tag_29\n          0x04\n          dup1\n          calldatasize\n          sub\n          dup2\n          add\n          swap1\n          tag_30\n          swap2\n          swap1\n          tag_31\n          jump\t// in\n        tag_30:\n          tag_32\n          jump\t// in\n        tag_29:\n          stop\n            /* \"contracts/Produce.sol\":350:374  uint256 public orderSize */\n        tag_5:\n          callvalue\n          dup1\n          iszero\n          tag_33\n          jumpi\n          0x00\n          dup1\n          revert\n        tag_33:\n          pop\n          tag_34\n          tag_35\n          jump\t// in\n        tag_34:\n          mload(0x40)\n          tag_36\n          swap2\n          swap1\n          tag_23\n          jump\t// in\n        tag_36:\n          mload(0x40)\n          dup1\n          swap2\n          sub\n          swap1\n          return\n            /* \"@openzeppelin/contracts/access/Ownable.sol\":1831:1932  function renounceOwnership() public virtual onlyOwner {... */\n        tag_6:\n          callvalue\n          dup1\n          iszero\n          tag_37\n          jumpi\n          0x00\n          dup1\n          revert\n        tag_37:\n          pop\n          tag_38\n          tag_39\n          jump\t// in\n        tag_38:\n          stop\n            /* \"contracts/Produce.sol\":200:221  address public market */\n        tag_7:\n          callvalue\n          dup1\n          iszero\n          tag_40\n          jumpi\n          0x00\n          dup1\n          revert\n        tag_40:\n          pop\n          tag_41\n          tag_42\n          jump\t// in\n        tag_41:\n          mload(0x40)\n          tag_43\n          swap2\n          swap1\n          tag_44\n          jump\t// in\n        tag_43:\n          mload(0x40)\n          dup1\n          swap2\n          sub\n          swap1\n          return\n            /* \"contracts/Produce.sol\":407:431  address public deliverer */\n        tag_8:\n          callvalue\n          dup1\n          iszero\n          tag_45\n          jumpi\n          0x00\n          dup1\n          revert\n        tag_45:\n          pop\n          tag_46\n          tag_47\n          jump\t// in\n        tag_46:\n          mload(0x40)\n          tag_48\n          swap2\n          swap1\n          tag_44\n          jump\t// in\n        tag_48:\n          mload(0x40)\n          dup1\n          swap2\n          sub\n          swap1\n          return\n            /* \"@openzeppelin/contracts/access/Ownable.sol\":1201:1286  function owner() public view virtual returns (address) {... */\n        tag_9:\n          callvalue\n          dup1\n          iszero\n          tag_49\n          jumpi\n          0x00\n          dup1\n          revert\n        tag_49:\n          pop\n          tag_50\n          tag_51\n          jump\t// in\n        tag_50:\n          mload(0x40)\n          tag_52\n          swap2\n          swap1\n          tag_44\n          jump\t// in\n        tag_52:\n          mload(0x40)\n          dup1\n          swap2\n          sub\n          swap1\n          return\n            /* \"contracts/Produce.sol\":324:344  uint256 public price */\n        tag_10:\n          callvalue\n          dup1\n          iszero\n          tag_53\n          jumpi\n          0x00\n          dup1\n          revert\n        tag_53:\n          pop\n          tag_54\n          tag_55\n          jump\t// in\n        tag_54:\n          mload(0x40)\n          tag_56\n          swap2\n          swap1\n          tag_23\n          jump\t// in\n        tag_56:\n          mload(0x40)\n          dup1\n          swap2\n          sub\n          swap1\n          return\n            /* \"contracts/Produce.sol\":380:401  bytes32 public amount */\n        tag_11:\n          callvalue\n          dup1\n          iszero\n          tag_57\n          jumpi\n          0x00\n          dup1\n          revert\n        tag_57:\n          pop\n          tag_58\n          tag_59\n          jump\t// in\n        tag_58:\n          mload(0x40)\n          tag_60\n          swap2\n          swap1\n          tag_61\n          jump\t// in\n        tag_60:\n          mload(0x40)\n          dup1\n          swap2\n          sub\n          swap1\n          return\n            /* \"contracts/Produce.sol\":1725:1960  function takeOrder() external onlyOwner returns (address order) {... */\n        tag_12:\n          callvalue\n          dup1\n          iszero\n          tag_62\n          jumpi\n          0x00\n          dup1\n          revert\n        tag_62:\n          pop\n          tag_63\n          tag_64\n          jump\t// in\n        tag_63:\n          mload(0x40)\n          tag_65\n          swap2\n          swap1\n          tag_44\n          jump\t// in\n        tag_65:\n          mload(0x40)\n          dup1\n          swap2\n          sub\n          swap1\n          return\n            /* \"contracts/Produce.sol\":173:194  address public farmer */\n        tag_13:\n          callvalue\n          dup1\n          iszero\n          tag_66\n          jumpi\n          0x00\n          dup1\n          revert\n        tag_66:\n          pop\n          tag_67\n          tag_68\n          jump\t// in\n        tag_67:\n          mload(0x40)\n          tag_69\n          swap2\n          swap1\n          tag_44\n          jump\t// in\n        tag_69:\n          mload(0x40)\n          dup1\n          swap2\n          sub\n          swap1\n          return\n            /* \"@openzeppelin/contracts/access/Ownable.sol\":2081:2279  function transferOwnership(address newOwner) public virtual onlyOwner {... */\n        tag_14:\n          callvalue\n          dup1\n          iszero\n          tag_70\n          jumpi\n          0x00\n          dup1\n          revert\n        tag_70:\n          pop\n          tag_71\n          0x04\n          dup1\n          calldatasize\n          sub\n          dup2\n          add\n          swap1\n          tag_72\n          swap2\n          swap1\n          tag_73\n          jump\t// in\n        tag_72:\n          tag_74\n          jump\t// in\n        tag_71:\n          stop\n            /* \"contracts/Produce.sol\":1276:1661  function placeOrder() external payable {... */\n        tag_15:\n          tag_75\n          tag_76\n          jump\t// in\n        tag_75:\n          stop\n            /* \"contracts/Produce.sol\":299:318  uint256 public name */\n        tag_21:\n          sload(0x05)\n          dup2\n          jump\t// out\n            /* \"contracts/Produce.sol\":257:292  uint256 public limitOnPendingOrders */\n        tag_26:\n          sload(0x04)\n          dup2\n          jump\t// out\n            /* \"contracts/Produce.sol\":593:1223  function initilize(... */\n        tag_32:\n            /* \"contracts/Produce.sol\":853:872  State.UNINITIALIZED */\n          0x00\n            /* \"contracts/Produce.sol\":846:872  state==State.UNINITIALIZED */\n          0x01\n          dup2\n          gt\n          iszero\n          tag_78\n          jumpi\n          tag_79\n          tag_80\n          jump\t// in\n        tag_79:\n        tag_78:\n            /* \"contracts/Produce.sol\":846:851  state */\n          0x09\n          0x14\n          swap1\n          sload\n          swap1\n          0x0100\n          exp\n          swap1\n          div\n          0xff\n          and\n            /* \"contracts/Produce.sol\":846:872  state==State.UNINITIALIZED */\n          0x01\n          dup2\n          gt\n          iszero\n          tag_81\n          jumpi\n          tag_82\n          tag_80\n          jump\t// in\n        tag_82:\n        tag_81:\n          eq\n            /* \"contracts/Produce.sol\":838:917  require(state==State.UNINITIALIZED, \"This produce has already been initilized\") */\n          tag_83\n          jumpi\n          mload(0x40)\n          0x08c379a000000000000000000000000000000000000000000000000000000000\n          dup2\n          mstore\n          0x04\n          add\n          tag_84\n          swap1\n          tag_85\n          jump\t// in\n        tag_84:\n          mload(0x40)\n          dup1\n          swap2\n          sub\n          swap1\n          revert\n        tag_83:\n            /* \"contracts/Produce.sol\":927:954  _transferOwnership(_farmer) */\n          tag_86\n            /* \"contracts/Produce.sol\":946:953  _farmer */\n          dup8\n            /* \"contracts/Produce.sol\":927:945  _transferOwnership */\n          tag_87\n            /* \"contracts/Produce.sol\":927:954  _transferOwnership(_farmer) */\n          jump\t// in\n        tag_86:\n            /* \"contracts/Produce.sol\":973:983  msg.sender */\n          caller\n            /* \"contracts/Produce.sol\":964:970  market */\n          0x02\n          0x00\n            /* \"contracts/Produce.sol\":964:983  market = msg.sender */\n          0x0100\n          exp\n          dup2\n          sload\n          dup2\n          0xffffffffffffffffffffffffffffffffffffffff\n          mul\n          not\n          and\n          swap1\n          dup4\n          0xffffffffffffffffffffffffffffffffffffffff\n          and\n          mul\n          or\n          swap1\n          sstore\n          pop\n            /* \"contracts/Produce.sol\":1016:1037  _limitOnPendingOrders */\n          dup2\n            /* \"contracts/Produce.sol\":993:1013  limitOnPendingOrders */\n          0x04\n            /* \"contracts/Produce.sol\":993:1037  limitOnPendingOrders = _limitOnPendingOrders */\n          dup2\n          swap1\n          sstore\n          pop\n            /* \"contracts/Produce.sol\":1054:1059  _name */\n          dup6\n            /* \"contracts/Produce.sol\":1047:1051  name */\n          0x05\n            /* \"contracts/Produce.sol\":1047:1059  name = _name */\n          dup2\n          swap1\n          sstore\n          pop\n            /* \"contracts/Produce.sol\":1077:1083  _price */\n          dup5\n            /* \"contracts/Produce.sol\":1069:1074  price */\n          0x06\n            /* \"contracts/Produce.sol\":1069:1083  price = _price */\n          dup2\n          swap1\n          sstore\n          pop\n            /* \"contracts/Produce.sol\":1105:1115  _orderSize */\n          dup4\n            /* \"contracts/Produce.sol\":1093:1102  orderSize */\n          0x07\n            /* \"contracts/Produce.sol\":1093:1115  orderSize = _orderSize */\n          dup2\n          swap1\n          sstore\n          pop\n            /* \"contracts/Produce.sol\":1134:1141  _amount */\n          dup3\n            /* \"contracts/Produce.sol\":1125:1131  amount */\n          0x08\n            /* \"contracts/Produce.sol\":1125:1141  amount = _amount */\n          dup2\n          swap1\n          sstore\n          pop\n            /* \"contracts/Produce.sol\":1163:1182  _delivererOfProduce */\n          dup1\n            /* \"contracts/Produce.sol\":1151:1160  deliverer */\n          0x09\n          0x00\n            /* \"contracts/Produce.sol\":1151:1182  deliverer = _delivererOfProduce */\n          0x0100\n          exp\n          dup2\n          sload\n          dup2\n          0xffffffffffffffffffffffffffffffffffffffff\n          mul\n          not\n          and\n          swap1\n          dup4\n          0xffffffffffffffffffffffffffffffffffffffff\n          and\n          mul\n          or\n          swap1\n          sstore\n          pop\n            /* \"contracts/Produce.sol\":1200:1216  State.PRODUCESET */\n          0x01\n            /* \"contracts/Produce.sol\":1192:1197  state */\n          0x09\n          0x14\n            /* \"contracts/Produce.sol\":1192:1216  state = State.PRODUCESET */\n          0x0100\n          exp\n          dup2\n          sload\n          dup2\n          0xff\n          mul\n          not\n          and\n          swap1\n          dup4\n          0x01\n          dup2\n          gt\n          iszero\n          tag_88\n          jumpi\n          tag_89\n          tag_80\n          jump\t// in\n        tag_89:\n        tag_88:\n          mul\n          or\n          swap1\n          sstore\n          pop\n            /* \"contracts/Produce.sol\":593:1223  function initilize(... */\n          pop\n          pop\n          pop\n          pop\n          pop\n          pop\n          pop\n          jump\t// out\n            /* \"contracts/Produce.sol\":350:374  uint256 public orderSize */\n        tag_35:\n          sload(0x07)\n          dup2\n          jump\t// out\n            /* \"@openzeppelin/contracts/access/Ownable.sol\":1831:1932  function renounceOwnership() public virtual onlyOwner {... */\n        tag_39:\n            /* \"@openzeppelin/contracts/access/Ownable.sol\":1094:1107  _checkOwner() */\n          tag_91\n            /* \"@openzeppelin/contracts/access/Ownable.sol\":1094:1105  _checkOwner */\n          tag_92\n            /* \"@openzeppelin/contracts/access/Ownable.sol\":1094:1107  _checkOwner() */\n          jump\t// in\n        tag_91:\n            /* \"@openzeppelin/contracts/access/Ownable.sol\":1895:1925  _transferOwnership(address(0)) */\n          tag_94\n            /* \"@openzeppelin/contracts/access/Ownable.sol\":1922:1923  0 */\n          0x00\n            /* \"@openzeppelin/contracts/access/Ownable.sol\":1895:1913  _transferOwnership */\n          tag_87\n            /* \"@openzeppelin/contracts/access/Ownable.sol\":1895:1925  _transferOwnership(address(0)) */\n          jump\t// in\n        tag_94:\n            /* \"@openzeppelin/contracts/access/Ownable.sol\":1831:1932  function renounceOwnership() public virtual onlyOwner {... */\n          jump\t// out\n            /* \"contracts/Produce.sol\":200:221  address public market */\n        tag_42:\n          0x02\n          0x00\n          swap1\n          sload\n          swap1\n          0x0100\n          exp\n          swap1\n          div\n          0xffffffffffffffffffffffffffffffffffffffff\n          and\n          dup2\n          jump\t// out\n            /* \"contracts/Produce.sol\":407:431  address public deliverer */\n        tag_47:\n          0x09\n          0x00\n          swap1\n          sload\n          swap1\n          0x0100\n          exp\n          swap1\n          div\n          0xffffffffffffffffffffffffffffffffffffffff\n          and\n          dup2\n          jump\t// out\n            /* \"@openzeppelin/contracts/access/Ownable.sol\":1201:1286  function owner() public view virtual returns (address) {... */\n        tag_51:\n            /* \"@openzeppelin/contracts/access/Ownable.sol\":1247:1254  address */\n          0x00\n            /* \"@openzeppelin/contracts/access/Ownable.sol\":1273:1279  _owner */\n          dup1\n          0x00\n          swap1\n          sload\n          swap1\n          0x0100\n          exp\n          swap1\n          div\n          0xffffffffffffffffffffffffffffffffffffffff\n          and\n            /* \"@openzeppelin/contracts/access/Ownable.sol\":1266:1279  return _owner */\n          swap1\n          pop\n            /* \"@openzeppelin/contracts/access/Ownable.sol\":1201:1286  function owner() public view virtual returns (address) {... */\n          swap1\n          jump\t// out\n            /* \"contracts/Produce.sol\":324:344  uint256 public price */\n        tag_55:\n          sload(0x06)\n          dup2\n          jump\t// out\n            /* \"contracts/Produce.sol\":380:401  bytes32 public amount */\n        tag_59:\n          sload(0x08)\n          dup2\n          jump\t// out\n            /* \"contracts/Produce.sol\":1725:1960  function takeOrder() external onlyOwner returns (address order) {... */\n        tag_64:\n            /* \"contracts/Produce.sol\":1774:1787  address order */\n          0x00\n            /* \"@openzeppelin/contracts/access/Ownable.sol\":1094:1107  _checkOwner() */\n          tag_97\n            /* \"@openzeppelin/contracts/access/Ownable.sol\":1094:1105  _checkOwner */\n          tag_92\n            /* \"@openzeppelin/contracts/access/Ownable.sol\":1094:1107  _checkOwner() */\n          jump\t// in\n        tag_97:\n            /* \"contracts/Produce.sol\":1823:1824  0 */\n          0x00\n            /* \"contracts/Produce.sol\":1807:1813  orders */\n          0x03\n            /* \"contracts/Produce.sol\":1807:1820  orders.length */\n          dup1\n          sload\n          swap1\n          pop\n            /* \"contracts/Produce.sol\":1807:1824  orders.length > 0 */\n          gt\n            /* \"contracts/Produce.sol\":1799:1846  require(orders.length > 0, \"No orders to take\") */\n          tag_99\n          jumpi\n          mload(0x40)\n          0x08c379a000000000000000000000000000000000000000000000000000000000\n          dup2\n          mstore\n          0x04\n          add\n          tag_100\n          swap1\n          tag_101\n          jump\t// in\n        tag_100:\n          mload(0x40)\n          dup1\n          swap2\n          sub\n          swap1\n          revert\n        tag_99:\n            /* \"contracts/Produce.sol\":1856:1875  address orderToTake */\n          0x00\n            /* \"contracts/Produce.sol\":1878:1884  orders */\n          0x03\n            /* \"contracts/Produce.sol\":1901:1902  1 */\n          0x01\n            /* \"contracts/Produce.sol\":1885:1891  orders */\n          0x03\n            /* \"contracts/Produce.sol\":1885:1898  orders.length */\n          dup1\n          sload\n          swap1\n          pop\n            /* \"contracts/Produce.sol\":1885:1902  orders.length - 1 */\n          tag_102\n          swap2\n          swap1\n          tag_103\n          jump\t// in\n        tag_102:\n            /* \"contracts/Produce.sol\":1878:1903  orders[orders.length - 1] */\n          dup2\n          sload\n          dup2\n          lt\n          tag_104\n          jumpi\n          tag_105\n          tag_106\n          jump\t// in\n        tag_105:\n        tag_104:\n          swap1\n          0x00\n          mstore\n          keccak256(0x00, 0x20)\n          add\n          0x00\n          swap1\n          sload\n          swap1\n          0x0100\n          exp\n          swap1\n          div\n          0xffffffffffffffffffffffffffffffffffffffff\n          and\n            /* \"contracts/Produce.sol\":1856:1903  address orderToTake = orders[orders.length - 1] */\n          swap1\n          pop\n            /* \"contracts/Produce.sol\":1913:1919  orders */\n          0x03\n            /* \"contracts/Produce.sol\":1913:1925  orders.pop() */\n          dup1\n          sload\n          dup1\n          tag_108\n          jumpi\n          tag_109\n          tag_110\n          jump\t// in\n        tag_109:\n        tag_108:\n          0x01\n          swap1\n          sub\n          dup2\n          dup2\n          swap1\n          0x00\n          mstore\n          keccak256(0x00, 0x20)\n          add\n          exp(0x0100, 0x00)\n          dup2\n          sload\n          swap1\n          0xffffffffffffffffffffffffffffffffffffffff\n          mul\n          not\n          and\n          swap1\n          sstore\n          swap1\n          sstore\n            /* \"contracts/Produce.sol\":1942:1953  orderToTake */\n          dup1\n            /* \"contracts/Produce.sol\":1935:1953  return orderToTake */\n          swap2\n          pop\n          pop\n            /* \"contracts/Produce.sol\":1725:1960  function takeOrder() external onlyOwner returns (address order) {... */\n          swap1\n          jump\t// out\n            /* \"contracts/Produce.sol\":173:194  address public farmer */\n        tag_68:\n          0x01\n          0x00\n          swap1\n          sload\n          swap1\n          0x0100\n          exp\n          swap1\n          div\n          0xffffffffffffffffffffffffffffffffffffffff\n          and\n          dup2\n          jump\t// out\n            /* \"@openzeppelin/contracts/access/Ownable.sol\":2081:2279  function transferOwnership(address newOwner) public virtual onlyOwner {... */\n        tag_74:\n            /* \"@openzeppelin/contracts/access/Ownable.sol\":1094:1107  _checkOwner() */\n          tag_113\n            /* \"@openzeppelin/contracts/access/Ownable.sol\":1094:1105  _checkOwner */\n          tag_92\n            /* \"@openzeppelin/contracts/access/Ownable.sol\":1094:1107  _checkOwner() */\n          jump\t// in\n        tag_113:\n            /* \"@openzeppelin/contracts/access/Ownable.sol\":2189:2190  0 */\n          0x00\n            /* \"@openzeppelin/contracts/access/Ownable.sol\":2169:2191  newOwner != address(0) */\n          0xffffffffffffffffffffffffffffffffffffffff\n          and\n            /* \"@openzeppelin/contracts/access/Ownable.sol\":2169:2177  newOwner */\n          dup2\n            /* \"@openzeppelin/contracts/access/Ownable.sol\":2169:2191  newOwner != address(0) */\n          0xffffffffffffffffffffffffffffffffffffffff\n          and\n          eq\n          iszero\n            /* \"@openzeppelin/contracts/access/Ownable.sol\":2161:2234  require(newOwner != address(0), \"Ownable: new owner is the zero address\") */\n          tag_115\n          jumpi\n          mload(0x40)\n          0x08c379a000000000000000000000000000000000000000000000000000000000\n          dup2\n          mstore\n          0x04\n          add\n          tag_116\n          swap1\n          tag_117\n          jump\t// in\n        tag_116:\n          mload(0x40)\n          dup1\n          swap2\n          sub\n          swap1\n          revert\n        tag_115:\n            /* \"@openzeppelin/contracts/access/Ownable.sol\":2244:2272  _transferOwnership(newOwner) */\n          tag_118\n            /* \"@openzeppelin/contracts/access/Ownable.sol\":2263:2271  newOwner */\n          dup2\n            /* \"@openzeppelin/contracts/access/Ownable.sol\":2244:2262  _transferOwnership */\n          tag_87\n            /* \"@openzeppelin/contracts/access/Ownable.sol\":2244:2272  _transferOwnership(newOwner) */\n          jump\t// in\n        tag_118:\n            /* \"@openzeppelin/contracts/access/Ownable.sol\":2081:2279  function transferOwnership(address newOwner) public virtual onlyOwner {... */\n          pop\n          jump\t// out\n            /* \"contracts/Produce.sol\":1276:1661  function placeOrder() external payable {... */\n        tag_76:\n            /* \"contracts/Produce.sol\":1360:1367  owner() */\n          tag_120\n            /* \"contracts/Produce.sol\":1360:1365  owner */\n          tag_51\n            /* \"contracts/Produce.sol\":1360:1367  owner() */\n          jump\t// in\n        tag_120:\n            /* \"contracts/Produce.sol\":1346:1367  msg.sender != owner() */\n          0xffffffffffffffffffffffffffffffffffffffff\n          and\n            /* \"contracts/Produce.sol\":1346:1356  msg.sender */\n          caller\n            /* \"contracts/Produce.sol\":1346:1367  msg.sender != owner() */\n          0xffffffffffffffffffffffffffffffffffffffff\n          and\n          eq\n          iszero\n            /* \"contracts/Produce.sol\":1325:1440  require(... */\n          tag_121\n          jumpi\n          mload(0x40)\n          0x08c379a000000000000000000000000000000000000000000000000000000000\n          dup2\n          mstore\n          0x04\n          add\n          tag_122\n          swap1\n          tag_123\n          jump\t// in\n        tag_122:\n          mload(0x40)\n          dup1\n          swap2\n          sub\n          swap1\n          revert\n        tag_121:\n            /* \"contracts/Produce.sol\":1496:1501  price */\n          sload(0x06)\n            /* \"contracts/Produce.sol\":1484:1493  orderSize */\n          sload(0x07)\n            /* \"contracts/Produce.sol\":1484:1501  orderSize * price */\n          tag_124\n          swap2\n          swap1\n          tag_125\n          jump\t// in\n        tag_124:\n            /* \"contracts/Produce.sol\":1471:1480  msg.value */\n          callvalue\n            /* \"contracts/Produce.sol\":1471:1501  msg.value == orderSize * price */\n          eq\n            /* \"contracts/Produce.sol\":1450:1566  require(... */\n          tag_126\n          jumpi\n          mload(0x40)\n          0x08c379a000000000000000000000000000000000000000000000000000000000\n          dup2\n          mstore\n          0x04\n          add\n          tag_127\n          swap1\n          tag_128\n          jump\t// in\n        tag_127:\n          mload(0x40)\n          dup1\n          swap2\n          sub\n          swap1\n          revert\n        tag_126:\n            /* \"contracts/Produce.sol\":1600:1620  limitOnPendingOrders */\n          sload(0x04)\n            /* \"contracts/Produce.sol\":1584:1590  orders */\n          0x03\n            /* \"contracts/Produce.sol\":1584:1597  orders.length */\n          dup1\n          sload\n          swap1\n          pop\n            /* \"contracts/Produce.sol\":1584:1620  orders.length < limitOnPendingOrders */\n          lt\n            /* \"contracts/Produce.sol\":1576:1621  require(orders.length < limitOnPendingOrders) */\n          tag_129\n          jumpi\n          0x00\n          dup1\n          revert\n        tag_129:\n            /* \"contracts/Produce.sol\":1631:1637  orders */\n          0x03\n            /* \"contracts/Produce.sol\":1643:1653  msg.sender */\n          caller\n            /* \"contracts/Produce.sol\":1631:1654  orders.push(msg.sender) */\n          swap1\n          dup1\n          0x01\n          dup2\n          sload\n          add\n          dup1\n          dup3\n          sstore\n          dup1\n          swap2\n          pop\n          pop\n          0x01\n          swap1\n          sub\n          swap1\n          0x00\n          mstore\n          keccak256(0x00, 0x20)\n          add\n          0x00\n          swap1\n          swap2\n          swap1\n          swap2\n          swap1\n          swap2\n          0x0100\n          exp\n          dup2\n          sload\n          dup2\n          0xffffffffffffffffffffffffffffffffffffffff\n          mul\n          not\n          and\n          swap1\n          dup4\n          0xffffffffffffffffffffffffffffffffffffffff\n          and\n          mul\n          or\n          swap1\n          sstore\n          pop\n            /* \"contracts/Produce.sol\":1276:1661  function placeOrder() external payable {... */\n          jump\t// out\n            /* \"@openzeppelin/contracts/access/Ownable.sol\":2433:2620  function _transferOwnership(address newOwner) internal virtual {... */\n        tag_87:\n            /* \"@openzeppelin/contracts/access/Ownable.sol\":2506:2522  address oldOwner */\n          0x00\n            /* \"@openzeppelin/contracts/access/Ownable.sol\":2525:2531  _owner */\n          dup1\n          0x00\n          swap1\n          sload\n          swap1\n          0x0100\n          exp\n          swap1\n          div\n          0xffffffffffffffffffffffffffffffffffffffff\n          and\n            /* \"@openzeppelin/contracts/access/Ownable.sol\":2506:2531  address oldOwner = _owner */\n          swap1\n          pop\n            /* \"@openzeppelin/contracts/access/Ownable.sol\":2550:2558  newOwner */\n          dup2\n            /* \"@openzeppelin/contracts/access/Ownable.sol\":2541:2547  _owner */\n          0x00\n          dup1\n            /* \"@openzeppelin/contracts/access/Ownable.sol\":2541:2558  _owner = newOwner */\n          0x0100\n          exp\n          dup2\n          sload\n          dup2\n          0xffffffffffffffffffffffffffffffffffffffff\n          mul\n          not\n          and\n          swap1\n          dup4\n          0xffffffffffffffffffffffffffffffffffffffff\n          and\n          mul\n          or\n          swap1\n          sstore\n          pop\n            /* \"@openzeppelin/contracts/access/Ownable.sol\":2604:2612  newOwner */\n          dup2\n            /* \"@openzeppelin/contracts/access/Ownable.sol\":2573:2613  OwnershipTransferred(oldOwner, newOwner) */\n          0xffffffffffffffffffffffffffffffffffffffff\n          and\n            /* \"@openzeppelin/contracts/access/Ownable.sol\":2594:2602  oldOwner */\n          dup2\n            /* \"@openzeppelin/contracts/access/Ownable.sol\":2573:2613  OwnershipTransferred(oldOwner, newOwner) */\n          0xffffffffffffffffffffffffffffffffffffffff\n          and\n          0x8be0079c531659141344cd1fd0a4f28419497f9722a3daafe3b4186f6b6457e0\n          mload(0x40)\n          mload(0x40)\n          dup1\n          swap2\n          sub\n          swap1\n          log3\n            /* \"@openzeppelin/contracts/access/Ownable.sol\":2496:2620  {... */\n          pop\n            /* \"@openzeppelin/contracts/access/Ownable.sol\":2433:2620  function _transferOwnership(address newOwner) internal virtual {... */\n          pop\n          jump\t// out\n            /* \"@openzeppelin/contracts/access/Ownable.sol\":1359:1489  function _checkOwner() internal view virtual {... */\n        tag_92:\n            /* \"@openzeppelin/contracts/access/Ownable.sol\":1433:1445  _msgSender() */\n          tag_133\n            /* \"@openzeppelin/contracts/access/Ownable.sol\":1433:1443  _msgSender */\n          tag_134\n            /* \"@openzeppelin/contracts/access/Ownable.sol\":1433:1445  _msgSender() */\n          jump\t// in\n        tag_133:\n            /* \"@openzeppelin/contracts/access/Ownable.sol\":1422:1445  owner() == _msgSender() */\n          0xffffffffffffffffffffffffffffffffffffffff\n          and\n            /* \"@openzeppelin/contracts/access/Ownable.sol\":1422:1429  owner() */\n          tag_135\n            /* \"@openzeppelin/contracts/access/Ownable.sol\":1422:1427  owner */\n          tag_51\n            /* \"@openzeppelin/contracts/access/Ownable.sol\":1422:1429  owner() */\n          jump\t// in\n        tag_135:\n            /* \"@openzeppelin/contracts/access/Ownable.sol\":1422:1445  owner() == _msgSender() */\n          0xffffffffffffffffffffffffffffffffffffffff\n          and\n          eq\n            /* \"@openzeppelin/contracts/access/Ownable.sol\":1414:1482  require(owner() == _msgSender(), \"Ownable: caller is not the owner\") */\n          tag_136\n          jumpi\n          mload(0x40)\n          0x08c379a000000000000000000000000000000000000000000000000000000000\n          dup2\n          mstore\n          0x04\n          add\n          tag_137\n          swap1\n          tag_138\n          jump\t// in\n        tag_137:\n          mload(0x40)\n          dup1\n          swap2\n          sub\n          swap1\n          revert\n        tag_136:\n            /* \"@openzeppelin/contracts/access/Ownable.sol\":1359:1489  function _checkOwner() internal view virtual {... */\n          jump\t// out\n            /* \"@openzeppelin/contracts/utils/Context.sol\":640:736  function _msgSender() internal view virtual returns (address) {... */\n        tag_134:\n            /* \"@openzeppelin/contracts/utils/Context.sol\":693:700  address */\n          0x00\n            /* \"@openzeppelin/contracts/utils/Context.sol\":719:729  msg.sender */\n          caller\n            /* \"@openzeppelin/contracts/utils/Context.sol\":712:729  return msg.sender */\n          swap1\n          pop\n            /* \"@openzeppelin/contracts/utils/Context.sol\":640:736  function _msgSender() internal view virtual returns (address) {... */\n          swap1\n          jump\t// out\n            /* \"#utility.yul\":7:146   */\n        tag_141:\n            /* \"#utility.yul\":53:58   */\n          0x00\n            /* \"#utility.yul\":91:97   */\n          dup2\n            /* \"#utility.yul\":78:98   */\n          calldataload\n            /* \"#utility.yul\":69:98   */\n          swap1\n          pop\n            /* \"#utility.yul\":107:140   */\n          tag_143\n            /* \"#utility.yul\":134:139   */\n          dup2\n            /* \"#utility.yul\":107:140   */\n          tag_144\n          jump\t// in\n        tag_143:\n            /* \"#utility.yul\":7:146   */\n          swap3\n          swap2\n          pop\n          pop\n          jump\t// out\n            /* \"#utility.yul\":152:291   */\n        tag_145:\n            /* \"#utility.yul\":198:203   */\n          0x00\n            /* \"#utility.yul\":236:242   */\n          dup2\n            /* \"#utility.yul\":223:243   */\n          calldataload\n            /* \"#utility.yul\":214:243   */\n          swap1\n          pop\n            /* \"#utility.yul\":252:285   */\n          tag_147\n            /* \"#utility.yul\":279:284   */\n          dup2\n            /* \"#utility.yul\":252:285   */\n          tag_148\n          jump\t// in\n        tag_147:\n            /* \"#utility.yul\":152:291   */\n          swap3\n          swap2\n          pop\n          pop\n          jump\t// out\n            /* \"#utility.yul\":297:436   */\n        tag_149:\n            /* \"#utility.yul\":343:348   */\n          0x00\n            /* \"#utility.yul\":381:387   */\n          dup2\n            /* \"#utility.yul\":368:388   */\n          calldataload\n            /* \"#utility.yul\":359:388   */\n          swap1\n          pop\n            /* \"#utility.yul\":397:430   */\n          tag_151\n            /* \"#utility.yul\":424:429   */\n          dup2\n            /* \"#utility.yul\":397:430   */\n          tag_152\n          jump\t// in\n        tag_151:\n            /* \"#utility.yul\":297:436   */\n          swap3\n          swap2\n          pop\n          pop\n          jump\t// out\n            /* \"#utility.yul\":442:771   */\n        tag_73:\n            /* \"#utility.yul\":501:507   */\n          0x00\n            /* \"#utility.yul\":550:552   */\n          0x20\n            /* \"#utility.yul\":538:547   */\n          dup3\n            /* \"#utility.yul\":529:536   */\n          dup5\n            /* \"#utility.yul\":525:548   */\n          sub\n            /* \"#utility.yul\":521:553   */\n          slt\n            /* \"#utility.yul\":518:637   */\n          iszero\n          tag_154\n          jumpi\n            /* \"#utility.yul\":556:635   */\n          tag_155\n          tag_156\n          jump\t// in\n        tag_155:\n            /* \"#utility.yul\":518:637   */\n        tag_154:\n            /* \"#utility.yul\":676:677   */\n          0x00\n            /* \"#utility.yul\":701:754   */\n          tag_157\n            /* \"#utility.yul\":746:753   */\n          dup5\n            /* \"#utility.yul\":737:743   */\n          dup3\n            /* \"#utility.yul\":726:735   */\n          dup6\n            /* \"#utility.yul\":722:744   */\n          add\n            /* \"#utility.yul\":701:754   */\n          tag_141\n          jump\t// in\n        tag_157:\n            /* \"#utility.yul\":691:754   */\n          swap2\n          pop\n            /* \"#utility.yul\":647:764   */\n          pop\n            /* \"#utility.yul\":442:771   */\n          swap3\n          swap2\n          pop\n          pop\n          jump\t// out\n            /* \"#utility.yul\":777:1980   */\n        tag_31:\n            /* \"#utility.yul\":890:896   */\n          0x00\n            /* \"#utility.yul\":898:904   */\n          dup1\n            /* \"#utility.yul\":906:912   */\n          0x00\n            /* \"#utility.yul\":914:920   */\n          dup1\n            /* \"#utility.yul\":922:928   */\n          0x00\n            /* \"#utility.yul\":930:936   */\n          dup1\n            /* \"#utility.yul\":938:944   */\n          0x00\n            /* \"#utility.yul\":987:990   */\n          0xe0\n            /* \"#utility.yul\":975:984   */\n          dup9\n            /* \"#utility.yul\":966:973   */\n          dup11\n            /* \"#utility.yul\":962:985   */\n          sub\n            /* \"#utility.yul\":958:991   */\n          slt\n            /* \"#utility.yul\":955:1075   */\n          iszero\n          tag_159\n          jumpi\n            /* \"#utility.yul\":994:1073   */\n          tag_160\n          tag_156\n          jump\t// in\n        tag_160:\n            /* \"#utility.yul\":955:1075   */\n        tag_159:\n            /* \"#utility.yul\":1114:1115   */\n          0x00\n            /* \"#utility.yul\":1139:1192   */\n          tag_161\n            /* \"#utility.yul\":1184:1191   */\n          dup11\n            /* \"#utility.yul\":1175:1181   */\n          dup3\n            /* \"#utility.yul\":1164:1173   */\n          dup12\n            /* \"#utility.yul\":1160:1182   */\n          add\n            /* \"#utility.yul\":1139:1192   */\n          tag_141\n          jump\t// in\n        tag_161:\n            /* \"#utility.yul\":1129:1192   */\n          swap8\n          pop\n            /* \"#utility.yul\":1085:1202   */\n          pop\n            /* \"#utility.yul\":1241:1243   */\n          0x20\n            /* \"#utility.yul\":1267:1320   */\n          tag_162\n            /* \"#utility.yul\":1312:1319   */\n          dup11\n            /* \"#utility.yul\":1303:1309   */\n          dup3\n            /* \"#utility.yul\":1292:1301   */\n          dup12\n            /* \"#utility.yul\":1288:1310   */\n          add\n            /* \"#utility.yul\":1267:1320   */\n          tag_149\n          jump\t// in\n        tag_162:\n            /* \"#utility.yul\":1257:1320   */\n          swap7\n          pop\n            /* \"#utility.yul\":1212:1330   */\n          pop\n            /* \"#utility.yul\":1369:1371   */\n          0x40\n            /* \"#utility.yul\":1395:1448   */\n          tag_163\n            /* \"#utility.yul\":1440:1447   */\n          dup11\n            /* \"#utility.yul\":1431:1437   */\n          dup3\n            /* \"#utility.yul\":1420:1429   */\n          dup12\n            /* \"#utility.yul\":1416:1438   */\n          add\n            /* \"#utility.yul\":1395:1448   */\n          tag_149\n          jump\t// in\n        tag_163:\n            /* \"#utility.yul\":1385:1448   */\n          swap6\n          pop\n            /* \"#utility.yul\":1340:1458   */\n          pop\n            /* \"#utility.yul\":1497:1499   */\n          0x60\n            /* \"#utility.yul\":1523:1576   */\n          tag_164\n            /* \"#utility.yul\":1568:1575   */\n          dup11\n            /* \"#utility.yul\":1559:1565   */\n          dup3\n            /* \"#utility.yul\":1548:1557   */\n          dup12\n            /* \"#utility.yul\":1544:1566   */\n          add\n            /* \"#utility.yul\":1523:1576   */\n          tag_149\n          jump\t// in\n        tag_164:\n            /* \"#utility.yul\":1513:1576   */\n          swap5\n          pop\n            /* \"#utility.yul\":1468:1586   */\n          pop\n            /* \"#utility.yul\":1625:1628   */\n          0x80\n            /* \"#utility.yul\":1652:1705   */\n          tag_165\n            /* \"#utility.yul\":1697:1704   */\n          dup11\n            /* \"#utility.yul\":1688:1694   */\n          dup3\n            /* \"#utility.yul\":1677:1686   */\n          dup12\n            /* \"#utility.yul\":1673:1695   */\n          add\n            /* \"#utility.yul\":1652:1705   */\n          tag_145\n          jump\t// in\n        tag_165:\n            /* \"#utility.yul\":1642:1705   */\n          swap4\n          pop\n            /* \"#utility.yul\":1596:1715   */\n          pop\n            /* \"#utility.yul\":1754:1757   */\n          0xa0\n            /* \"#utility.yul\":1781:1834   */\n          tag_166\n            /* \"#utility.yul\":1826:1833   */\n          dup11\n            /* \"#utility.yul\":1817:1823   */\n          dup3\n            /* \"#utility.yul\":1806:1815   */\n          dup12\n            /* \"#utility.yul\":1802:1824   */\n          add\n            /* \"#utility.yul\":1781:1834   */\n          tag_149\n          jump\t// in\n        tag_166:\n            /* \"#utility.yul\":1771:1834   */\n          swap3\n          pop\n            /* \"#utility.yul\":1725:1844   */\n          pop\n            /* \"#utility.yul\":1883:1886   */\n          0xc0\n            /* \"#utility.yul\":1910:1963   */\n          tag_167\n            /* \"#utility.yul\":1955:1962   */\n          dup11\n            /* \"#utility.yul\":1946:1952   */\n          dup3\n            /* \"#utility.yul\":1935:1944   */\n          dup12\n            /* \"#utility.yul\":1931:1953   */\n          add\n            /* \"#utility.yul\":1910:1963   */\n          tag_141\n          jump\t// in\n        tag_167:\n            /* \"#utility.yul\":1900:1963   */\n          swap2\n          pop\n            /* \"#utility.yul\":1854:1973   */\n          pop\n            /* \"#utility.yul\":777:1980   */\n          swap3\n          swap6\n          swap9\n          swap2\n          swap5\n          swap8\n          pop\n          swap3\n          swap6\n          pop\n          jump\t// out\n            /* \"#utility.yul\":1986:2104   */\n        tag_168:\n            /* \"#utility.yul\":2073:2097   */\n          tag_170\n            /* \"#utility.yul\":2091:2096   */\n          dup2\n            /* \"#utility.yul\":2073:2097   */\n          tag_171\n          jump\t// in\n        tag_170:\n            /* \"#utility.yul\":2068:2071   */\n          dup3\n            /* \"#utility.yul\":2061:2098   */\n          mstore\n            /* \"#utility.yul\":1986:2104   */\n          pop\n          pop\n          jump\t// out\n            /* \"#utility.yul\":2110:2228   */\n        tag_172:\n            /* \"#utility.yul\":2197:2221   */\n          tag_174\n            /* \"#utility.yul\":2215:2220   */\n          dup2\n            /* \"#utility.yul\":2197:2221   */\n          tag_175\n          jump\t// in\n        tag_174:\n            /* \"#utility.yul\":2192:2195   */\n          dup3\n            /* \"#utility.yul\":2185:2222   */\n          mstore\n            /* \"#utility.yul\":2110:2228   */\n          pop\n          pop\n          jump\t// out\n            /* \"#utility.yul\":2234:2600   */\n        tag_176:\n            /* \"#utility.yul\":2376:2379   */\n          0x00\n            /* \"#utility.yul\":2397:2464   */\n          tag_178\n            /* \"#utility.yul\":2461:2463   */\n          0x27\n            /* \"#utility.yul\":2456:2459   */\n          dup4\n            /* \"#utility.yul\":2397:2464   */\n          tag_179\n          jump\t// in\n        tag_178:\n            /* \"#utility.yul\":2390:2464   */\n          swap2\n          pop\n            /* \"#utility.yul\":2473:2566   */\n          tag_180\n            /* \"#utility.yul\":2562:2565   */\n          dup3\n            /* \"#utility.yul\":2473:2566   */\n          tag_181\n          jump\t// in\n        tag_180:\n            /* \"#utility.yul\":2591:2593   */\n          0x40\n            /* \"#utility.yul\":2586:2589   */\n          dup3\n            /* \"#utility.yul\":2582:2594   */\n          add\n            /* \"#utility.yul\":2575:2594   */\n          swap1\n          pop\n            /* \"#utility.yul\":2234:2600   */\n          swap2\n          swap1\n          pop\n          jump\t// out\n            /* \"#utility.yul\":2606:2972   */\n        tag_182:\n            /* \"#utility.yul\":2748:2751   */\n          0x00\n            /* \"#utility.yul\":2769:2836   */\n          tag_184\n            /* \"#utility.yul\":2833:2835   */\n          0x26\n            /* \"#utility.yul\":2828:2831   */\n          dup4\n            /* \"#utility.yul\":2769:2836   */\n          tag_179\n          jump\t// in\n        tag_184:\n            /* \"#utility.yul\":2762:2836   */\n          swap2\n          pop\n            /* \"#utility.yul\":2845:2938   */\n          tag_185\n            /* \"#utility.yul\":2934:2937   */\n          dup3\n            /* \"#utility.yul\":2845:2938   */\n          tag_186\n          jump\t// in\n        tag_185:\n            /* \"#utility.yul\":2963:2965   */\n          0x40\n            /* \"#utility.yul\":2958:2961   */\n          dup3\n            /* \"#utility.yul\":2954:2966   */\n          add\n            /* \"#utility.yul\":2947:2966   */\n          swap1\n          pop\n            /* \"#utility.yul\":2606:2972   */\n          swap2\n          swap1\n          pop\n          jump\t// out\n            /* \"#utility.yul\":2978:3344   */\n        tag_187:\n            /* \"#utility.yul\":3120:3123   */\n          0x00\n            /* \"#utility.yul\":3141:3208   */\n          tag_189\n            /* \"#utility.yul\":3205:3207   */\n          0x28\n            /* \"#utility.yul\":3200:3203   */\n          dup4\n            /* \"#utility.yul\":3141:3208   */\n          tag_179\n          jump\t// in\n        tag_189:\n            /* \"#utility.yul\":3134:3208   */\n          swap2\n          pop\n            /* \"#utility.yul\":3217:3310   */\n          tag_190\n            /* \"#utility.yul\":3306:3309   */\n          dup3\n            /* \"#utility.yul\":3217:3310   */\n          tag_191\n          jump\t// in\n        tag_190:\n            /* \"#utility.yul\":3335:3337   */\n          0x40\n            /* \"#utility.yul\":3330:3333   */\n          dup3\n            /* \"#utility.yul\":3326:3338   */\n          add\n            /* \"#utility.yul\":3319:3338   */\n          swap1\n          pop\n            /* \"#utility.yul\":2978:3344   */\n          swap2\n          swap1\n          pop\n          jump\t// out\n            /* \"#utility.yul\":3350:3716   */\n        tag_192:\n            /* \"#utility.yul\":3492:3495   */\n          0x00\n            /* \"#utility.yul\":3513:3580   */\n          tag_194\n            /* \"#utility.yul\":3577:3579   */\n          0x2f\n            /* \"#utility.yul\":3572:3575   */\n          dup4\n            /* \"#utility.yul\":3513:3580   */\n          tag_179\n          jump\t// in\n        tag_194:\n            /* \"#utility.yul\":3506:3580   */\n          swap2\n          pop\n            /* \"#utility.yul\":3589:3682   */\n          tag_195\n            /* \"#utility.yul\":3678:3681   */\n          dup3\n            /* \"#utility.yul\":3589:3682   */\n          tag_196\n          jump\t// in\n        tag_195:\n            /* \"#utility.yul\":3707:3709   */\n          0x40\n            /* \"#utility.yul\":3702:3705   */\n          dup3\n            /* \"#utility.yul\":3698:3710   */\n          add\n            /* \"#utility.yul\":3691:3710   */\n          swap1\n          pop\n            /* \"#utility.yul\":3350:3716   */\n          swap2\n          swap1\n          pop\n          jump\t// out\n            /* \"#utility.yul\":3722:4088   */\n        tag_197:\n            /* \"#utility.yul\":3864:3867   */\n          0x00\n            /* \"#utility.yul\":3885:3952   */\n          tag_199\n            /* \"#utility.yul\":3949:3951   */\n          0x20\n            /* \"#utility.yul\":3944:3947   */\n          dup4\n            /* \"#utility.yul\":3885:3952   */\n          tag_179\n          jump\t// in\n        tag_199:\n            /* \"#utility.yul\":3878:3952   */\n          swap2\n          pop\n            /* \"#utility.yul\":3961:4054   */\n          tag_200\n            /* \"#utility.yul\":4050:4053   */\n          dup3\n            /* \"#utility.yul\":3961:4054   */\n          tag_201\n          jump\t// in\n        tag_200:\n            /* \"#utility.yul\":4079:4081   */\n          0x20\n            /* \"#utility.yul\":4074:4077   */\n          dup3\n            /* \"#utility.yul\":4070:4082   */\n          add\n            /* \"#utility.yul\":4063:4082   */\n          swap1\n          pop\n            /* \"#utility.yul\":3722:4088   */\n          swap2\n          swap1\n          pop\n          jump\t// out\n            /* \"#utility.yul\":4094:4460   */\n        tag_202:\n            /* \"#utility.yul\":4236:4239   */\n          0x00\n            /* \"#utility.yul\":4257:4324   */\n          tag_204\n            /* \"#utility.yul\":4321:4323   */\n          0x11\n            /* \"#utility.yul\":4316:4319   */\n          dup4\n            /* \"#utility.yul\":4257:4324   */\n          tag_179\n          jump\t// in\n        tag_204:\n            /* \"#utility.yul\":4250:4324   */\n          swap2\n          pop\n            /* \"#utility.yul\":4333:4426   */\n          tag_205\n            /* \"#utility.yul\":4422:4425   */\n          dup3\n            /* \"#utility.yul\":4333:4426   */\n          tag_206\n          jump\t// in\n        tag_205:\n            /* \"#utility.yul\":4451:4453   */\n          0x20\n            /* \"#utility.yul\":4446:4449   */\n          dup3\n            /* \"#utility.yul\":4442:4454   */\n          add\n            /* \"#utility.yul\":4435:4454   */\n          swap1\n          pop\n            /* \"#utility.yul\":4094:4460   */\n          swap2\n          swap1\n          pop\n          jump\t// out\n            /* \"#utility.yul\":4466:4584   */\n        tag_207:\n            /* \"#utility.yul\":4553:4577   */\n          tag_209\n            /* \"#utility.yul\":4571:4576   */\n          dup2\n            /* \"#utility.yul\":4553:4577   */\n          tag_210\n          jump\t// in\n        tag_209:\n            /* \"#utility.yul\":4548:4551   */\n          dup3\n            /* \"#utility.yul\":4541:4578   */\n          mstore\n            /* \"#utility.yul\":4466:4584   */\n          pop\n          pop\n          jump\t// out\n            /* \"#utility.yul\":4590:4812   */\n        tag_44:\n            /* \"#utility.yul\":4683:4687   */\n          0x00\n            /* \"#utility.yul\":4721:4723   */\n          0x20\n            /* \"#utility.yul\":4710:4719   */\n          dup3\n            /* \"#utility.yul\":4706:4724   */\n          add\n            /* \"#utility.yul\":4698:4724   */\n          swap1\n          pop\n            /* \"#utility.yul\":4734:4805   */\n          tag_212\n            /* \"#utility.yul\":4802:4803   */\n          0x00\n            /* \"#utility.yul\":4791:4800   */\n          dup4\n            /* \"#utility.yul\":4787:4804   */\n          add\n            /* \"#utility.yul\":4778:4784   */\n          dup5\n            /* \"#utility.yul\":4734:4805   */\n          tag_168\n          jump\t// in\n        tag_212:\n            /* \"#utility.yul\":4590:4812   */\n          swap3\n          swap2\n          pop\n          pop\n          jump\t// out\n            /* \"#utility.yul\":4818:5040   */\n        tag_61:\n            /* \"#utility.yul\":4911:4915   */\n          0x00\n            /* \"#utility.yul\":4949:4951   */\n          0x20\n            /* \"#utility.yul\":4938:4947   */\n          dup3\n            /* \"#utility.yul\":4934:4952   */\n          add\n            /* \"#utility.yul\":4926:4952   */\n          swap1\n          pop\n            /* \"#utility.yul\":4962:5033   */\n          tag_214\n            /* \"#utility.yul\":5030:5031   */\n          0x00\n            /* \"#utility.yul\":5019:5028   */\n          dup4\n            /* \"#utility.yul\":5015:5032   */\n          add\n            /* \"#utility.yul\":5006:5012   */\n          dup5\n            /* \"#utility.yul\":4962:5033   */\n          tag_172\n          jump\t// in\n        tag_214:\n            /* \"#utility.yul\":4818:5040   */\n          swap3\n          swap2\n          pop\n          pop\n          jump\t// out\n            /* \"#utility.yul\":5046:5465   */\n        tag_128:\n            /* \"#utility.yul\":5212:5216   */\n          0x00\n            /* \"#utility.yul\":5250:5252   */\n          0x20\n            /* \"#utility.yul\":5239:5248   */\n          dup3\n            /* \"#utility.yul\":5235:5253   */\n          add\n            /* \"#utility.yul\":5227:5253   */\n          swap1\n          pop\n            /* \"#utility.yul\":5299:5308   */\n          dup2\n            /* \"#utility.yul\":5293:5297   */\n          dup2\n            /* \"#utility.yul\":5289:5309   */\n          sub\n            /* \"#utility.yul\":5285:5286   */\n          0x00\n            /* \"#utility.yul\":5274:5283   */\n          dup4\n            /* \"#utility.yul\":5270:5287   */\n          add\n            /* \"#utility.yul\":5263:5310   */\n          mstore\n            /* \"#utility.yul\":5327:5458   */\n          tag_216\n            /* \"#utility.yul\":5453:5457   */\n          dup2\n            /* \"#utility.yul\":5327:5458   */\n          tag_176\n          jump\t// in\n        tag_216:\n            /* \"#utility.yul\":5319:5458   */\n          swap1\n          pop\n            /* \"#utility.yul\":5046:5465   */\n          swap2\n          swap1\n          pop\n          jump\t// out\n            /* \"#utility.yul\":5471:5890   */\n        tag_117:\n            /* \"#utility.yul\":5637:5641   */\n          0x00\n            /* \"#utility.yul\":5675:5677   */\n          0x20\n            /* \"#utility.yul\":5664:5673   */\n          dup3\n            /* \"#utility.yul\":5660:5678   */\n          add\n            /* \"#utility.yul\":5652:5678   */\n          swap1\n          pop\n            /* \"#utility.yul\":5724:5733   */\n          dup2\n            /* \"#utility.yul\":5718:5722   */\n          dup2\n            /* \"#utility.yul\":5714:5734   */\n          sub\n            /* \"#utility.yul\":5710:5711   */\n          0x00\n            /* \"#utility.yul\":5699:5708   */\n          dup4\n            /* \"#utility.yul\":5695:5712   */\n          add\n            /* \"#utility.yul\":5688:5735   */\n          mstore\n            /* \"#utility.yul\":5752:5883   */\n          tag_218\n            /* \"#utility.yul\":5878:5882   */\n          dup2\n            /* \"#utility.yul\":5752:5883   */\n          tag_182\n          jump\t// in\n        tag_218:\n            /* \"#utility.yul\":5744:5883   */\n          swap1\n          pop\n            /* \"#utility.yul\":5471:5890   */\n          swap2\n          swap1\n          pop\n          jump\t// out\n            /* \"#utility.yul\":5896:6315   */\n        tag_85:\n            /* \"#utility.yul\":6062:6066   */\n          0x00\n            /* \"#utility.yul\":6100:6102   */\n          0x20\n            /* \"#utility.yul\":6089:6098   */\n          dup3\n            /* \"#utility.yul\":6085:6103   */\n          add\n            /* \"#utility.yul\":6077:6103   */\n          swap1\n          pop\n            /* \"#utility.yul\":6149:6158   */\n          dup2\n            /* \"#utility.yul\":6143:6147   */\n          dup2\n            /* \"#utility.yul\":6139:6159   */\n          sub\n            /* \"#utility.yul\":6135:6136   */\n          0x00\n            /* \"#utility.yul\":6124:6133   */\n          dup4\n            /* \"#utility.yul\":6120:6137   */\n          add\n            /* \"#utility.yul\":6113:6160   */\n          mstore\n            /* \"#utility.yul\":6177:6308   */\n          tag_220\n            /* \"#utility.yul\":6303:6307   */\n          dup2\n            /* \"#utility.yul\":6177:6308   */\n          tag_187\n          jump\t// in\n        tag_220:\n            /* \"#utility.yul\":6169:6308   */\n          swap1\n          pop\n            /* \"#utility.yul\":5896:6315   */\n          swap2\n          swap1\n          pop\n          jump\t// out\n            /* \"#utility.yul\":6321:6740   */\n        tag_123:\n            /* \"#utility.yul\":6487:6491   */\n          0x00\n            /* \"#utility.yul\":6525:6527   */\n          0x20\n            /* \"#utility.yul\":6514:6523   */\n          dup3\n            /* \"#utility.yul\":6510:6528   */\n          add\n            /* \"#utility.yul\":6502:6528   */\n          swap1\n          pop\n            /* \"#utility.yul\":6574:6583   */\n          dup2\n            /* \"#utility.yul\":6568:6572   */\n          dup2\n            /* \"#utility.yul\":6564:6584   */\n          sub\n            /* \"#utility.yul\":6560:6561   */\n          0x00\n            /* \"#utility.yul\":6549:6558   */\n          dup4\n            /* \"#utility.yul\":6545:6562   */\n          add\n            /* \"#utility.yul\":6538:6585   */\n          mstore\n            /* \"#utility.yul\":6602:6733   */\n          tag_222\n            /* \"#utility.yul\":6728:6732   */\n          dup2\n            /* \"#utility.yul\":6602:6733   */\n          tag_192\n          jump\t// in\n        tag_222:\n            /* \"#utility.yul\":6594:6733   */\n          swap1\n          pop\n            /* \"#utility.yul\":6321:6740   */\n          swap2\n          swap1\n          pop\n          jump\t// out\n            /* \"#utility.yul\":6746:7165   */\n        tag_138:\n            /* \"#utility.yul\":6912:6916   */\n          0x00\n            /* \"#utility.yul\":6950:6952   */\n          0x20\n            /* \"#utility.yul\":6939:6948   */\n          dup3\n            /* \"#utility.yul\":6935:6953   */\n          add\n            /* \"#utility.yul\":6927:6953   */\n          swap1\n          pop\n            /* \"#utility.yul\":6999:7008   */\n          dup2\n            /* \"#utility.yul\":6993:6997   */\n          dup2\n            /* \"#utility.yul\":6989:7009   */\n          sub\n            /* \"#utility.yul\":6985:6986   */\n          0x00\n            /* \"#utility.yul\":6974:6983   */\n          dup4\n            /* \"#utility.yul\":6970:6987   */\n          add\n            /* \"#utility.yul\":6963:7010   */\n          mstore\n            /* \"#utility.yul\":7027:7158   */\n          tag_224\n            /* \"#utility.yul\":7153:7157   */\n          dup2\n            /* \"#utility.yul\":7027:7158   */\n          tag_197\n          jump\t// in\n        tag_224:\n            /* \"#utility.yul\":7019:7158   */\n          swap1\n          pop\n            /* \"#utility.yul\":6746:7165   */\n          swap2\n          swap1\n          pop\n          jump\t// out\n            /* \"#utility.yul\":7171:7590   */\n        tag_101:\n            /* \"#utility.yul\":7337:7341   */\n          0x00\n            /* \"#utility.yul\":7375:7377   */\n          0x20\n            /* \"#utility.yul\":7364:7373   */\n          dup3\n            /* \"#utility.yul\":7360:7378   */\n          add\n            /* \"#utility.yul\":7352:7378   */\n          swap1\n          pop\n            /* \"#utility.yul\":7424:7433   */\n          dup2\n            /* \"#utility.yul\":7418:7422   */\n          dup2\n            /* \"#utility.yul\":7414:7434   */\n          sub\n            /* \"#utility.yul\":7410:7411   */\n          0x00\n            /* \"#utility.yul\":7399:7408   */\n          dup4\n            /* \"#utility.yul\":7395:7412   */\n          add\n            /* \"#utility.yul\":7388:7435   */\n          mstore\n            /* \"#utility.yul\":7452:7583   */\n          tag_226\n            /* \"#utility.yul\":7578:7582   */\n          dup2\n            /* \"#utility.yul\":7452:7583   */\n          tag_202\n          jump\t// in\n        tag_226:\n            /* \"#utility.yul\":7444:7583   */\n          swap1\n          pop\n            /* \"#utility.yul\":7171:7590   */\n          swap2\n          swap1\n          pop\n          jump\t// out\n            /* \"#utility.yul\":7596:7818   */\n        tag_23:\n            /* \"#utility.yul\":7689:7693   */\n          0x00\n            /* \"#utility.yul\":7727:7729   */\n          0x20\n            /* \"#utility.yul\":7716:7725   */\n          dup3\n            /* \"#utility.yul\":7712:7730   */\n          add\n            /* \"#utility.yul\":7704:7730   */\n          swap1\n          pop\n            /* \"#utility.yul\":7740:7811   */\n          tag_228\n            /* \"#utility.yul\":7808:7809   */\n          0x00\n            /* \"#utility.yul\":7797:7806   */\n          dup4\n            /* \"#utility.yul\":7793:7810   */\n          add\n            /* \"#utility.yul\":7784:7790   */\n          dup5\n            /* \"#utility.yul\":7740:7811   */\n          tag_207\n          jump\t// in\n        tag_228:\n            /* \"#utility.yul\":7596:7818   */\n          swap3\n          swap2\n          pop\n          pop\n          jump\t// out\n            /* \"#utility.yul\":7905:8074   */\n        tag_179:\n            /* \"#utility.yul\":7989:8000   */\n          0x00\n            /* \"#utility.yul\":8023:8029   */\n          dup3\n            /* \"#utility.yul\":8018:8021   */\n          dup3\n            /* \"#utility.yul\":8011:8030   */\n          mstore\n            /* \"#utility.yul\":8063:8067   */\n          0x20\n            /* \"#utility.yul\":8058:8061   */\n          dup3\n            /* \"#utility.yul\":8054:8068   */\n          add\n            /* \"#utility.yul\":8039:8068   */\n          swap1\n          pop\n            /* \"#utility.yul\":7905:8074   */\n          swap3\n          swap2\n          pop\n          pop\n          jump\t// out\n            /* \"#utility.yul\":8080:8428   */\n        tag_125:\n            /* \"#utility.yul\":8120:8127   */\n          0x00\n            /* \"#utility.yul\":8143:8163   */\n          tag_233\n            /* \"#utility.yul\":8161:8162   */\n          dup3\n            /* \"#utility.yul\":8143:8163   */\n          tag_210\n          jump\t// in\n        tag_233:\n            /* \"#utility.yul\":8138:8163   */\n          swap2\n          pop\n            /* \"#utility.yul\":8177:8197   */\n          tag_234\n            /* \"#utility.yul\":8195:8196   */\n          dup4\n            /* \"#utility.yul\":8177:8197   */\n          tag_210\n          jump\t// in\n        tag_234:\n            /* \"#utility.yul\":8172:8197   */\n          swap3\n          pop\n            /* \"#utility.yul\":8365:8366   */\n          dup2\n            /* \"#utility.yul\":8297:8363   */\n          0xffffffffffffffffffffffffffffffffffffffffffffffffffffffffffffffff\n            /* \"#utility.yul\":8293:8367   */\n          div\n            /* \"#utility.yul\":8290:8291   */\n          dup4\n            /* \"#utility.yul\":8287:8368   */\n          gt\n            /* \"#utility.yul\":8282:8283   */\n          dup3\n            /* \"#utility.yul\":8275:8284   */\n          iszero\n            /* \"#utility.yul\":8268:8285   */\n          iszero\n            /* \"#utility.yul\":8264:8369   */\n          and\n            /* \"#utility.yul\":8261:8392   */\n          iszero\n          tag_235\n          jumpi\n            /* \"#utility.yul\":8372:8390   */\n          tag_236\n          tag_237\n          jump\t// in\n        tag_236:\n            /* \"#utility.yul\":8261:8392   */\n        tag_235:\n            /* \"#utility.yul\":8420:8421   */\n          dup3\n            /* \"#utility.yul\":8417:8418   */\n          dup3\n            /* \"#utility.yul\":8413:8422   */\n          mul\n            /* \"#utility.yul\":8402:8422   */\n          swap1\n          pop\n            /* \"#utility.yul\":8080:8428   */\n          swap3\n          swap2\n          pop\n          pop\n          jump\t// out\n            /* \"#utility.yul\":8434:8625   */\n        tag_103:\n            /* \"#utility.yul\":8474:8478   */\n          0x00\n            /* \"#utility.yul\":8494:8514   */\n          tag_239\n            /* \"#utility.yul\":8512:8513   */\n          dup3\n            /* \"#utility.yul\":8494:8514   */\n          tag_210\n          jump\t// in\n        tag_239:\n            /* \"#utility.yul\":8489:8514   */\n          swap2\n          pop\n            /* \"#utility.yul\":8528:8548   */\n          tag_240\n            /* \"#utility.yul\":8546:8547   */\n          dup4\n            /* \"#utility.yul\":8528:8548   */\n          tag_210\n          jump\t// in\n        tag_240:\n            /* \"#utility.yul\":8523:8548   */\n          swap3\n          pop\n            /* \"#utility.yul\":8567:8568   */\n          dup3\n            /* \"#utility.yul\":8564:8565   */\n          dup3\n            /* \"#utility.yul\":8561:8569   */\n          lt\n            /* \"#utility.yul\":8558:8592   */\n          iszero\n          tag_241\n          jumpi\n            /* \"#utility.yul\":8572:8590   */\n          tag_242\n          tag_237\n          jump\t// in\n        tag_242:\n            /* \"#utility.yul\":8558:8592   */\n        tag_241:\n            /* \"#utility.yul\":8617:8618   */\n          dup3\n            /* \"#utility.yul\":8614:8615   */\n          dup3\n            /* \"#utility.yul\":8610:8619   */\n          sub\n            /* \"#utility.yul\":8602:8619   */\n          swap1\n          pop\n            /* \"#utility.yul\":8434:8625   */\n          swap3\n          swap2\n          pop\n          pop\n          jump\t// out\n            /* \"#utility.yul\":8631:8727   */\n        tag_171:\n            /* \"#utility.yul\":8668:8675   */\n          0x00\n            /* \"#utility.yul\":8697:8721   */\n          tag_244\n            /* \"#utility.yul\":8715:8720   */\n          dup3\n            /* \"#utility.yul\":8697:8721   */\n          tag_245\n          jump\t// in\n        tag_244:\n            /* \"#utility.yul\":8686:8721   */\n          swap1\n          pop\n            /* \"#utility.yul\":8631:8727   */\n          swap2\n          swap1\n          pop\n          jump\t// out\n            /* \"#utility.yul\":8733:8810   */\n        tag_175:\n            /* \"#utility.yul\":8770:8777   */\n          0x00\n            /* \"#utility.yul\":8799:8804   */\n          dup2\n            /* \"#utility.yul\":8788:8804   */\n          swap1\n          pop\n            /* \"#utility.yul\":8733:8810   */\n          swap2\n          swap1\n          pop\n          jump\t// out\n            /* \"#utility.yul\":8816:8942   */\n        tag_245:\n            /* \"#utility.yul\":8853:8860   */\n          0x00\n            /* \"#utility.yul\":8893:8935   */\n          0xffffffffffffffffffffffffffffffffffffffff\n            /* \"#utility.yul\":8886:8891   */\n          dup3\n            /* \"#utility.yul\":8882:8936   */\n          and\n            /* \"#utility.yul\":8871:8936   */\n          swap1\n          pop\n            /* \"#utility.yul\":8816:8942   */\n          swap2\n          swap1\n          pop\n          jump\t// out\n            /* \"#utility.yul\":8948:9025   */\n        tag_210:\n            /* \"#utility.yul\":8985:8992   */\n          0x00\n            /* \"#utility.yul\":9014:9019   */\n          dup2\n            /* \"#utility.yul\":9003:9019   */\n          swap1\n          pop\n            /* \"#utility.yul\":8948:9025   */\n          swap2\n          swap1\n          pop\n          jump\t// out\n            /* \"#utility.yul\":9031:9211   */\n        tag_237:\n            /* \"#utility.yul\":9079:9156   */\n          0x4e487b7100000000000000000000000000000000000000000000000000000000\n            /* \"#utility.yul\":9076:9077   */\n          0x00\n            /* \"#utility.yul\":9069:9157   */\n          mstore\n            /* \"#utility.yul\":9176:9180   */\n          0x11\n            /* \"#utility.yul\":9173:9174   */\n          0x04\n            /* \"#utility.yul\":9166:9181   */\n          mstore\n            /* \"#utility.yul\":9200:9204   */\n          0x24\n            /* \"#utility.yul\":9197:9198   */\n          0x00\n            /* \"#utility.yul\":9190:9205   */\n          revert\n            /* \"#utility.yul\":9217:9397   */\n        tag_80:\n            /* \"#utility.yul\":9265:9342   */\n          0x4e487b7100000000000000000000000000000000000000000000000000000000\n            /* \"#utility.yul\":9262:9263   */\n          0x00\n            /* \"#utility.yul\":9255:9343   */\n          mstore\n            /* \"#utility.yul\":9362:9366   */\n          0x21\n            /* \"#utility.yul\":9359:9360   */\n          0x04\n            /* \"#utility.yul\":9352:9367   */\n          mstore\n            /* \"#utility.yul\":9386:9390   */\n          0x24\n            /* \"#utility.yul\":9383:9384   */\n          0x00\n            /* \"#utility.yul\":9376:9391   */\n          revert\n            /* \"#utility.yul\":9403:9583   */\n        tag_110:\n            /* \"#utility.yul\":9451:9528   */\n          0x4e487b7100000000000000000000000000000000000000000000000000000000\n            /* \"#utility.yul\":9448:9449   */\n          0x00\n            /* \"#utility.yul\":9441:9529   */\n          mstore\n            /* \"#utility.yul\":9548:9552   */\n          0x31\n            /* \"#utility.yul\":9545:9546   */\n          0x04\n            /* \"#utility.yul\":9538:9553   */\n          mstore\n            /* \"#utility.yul\":9572:9576   */\n          0x24\n            /* \"#utility.yul\":9569:9570   */\n          0x00\n            /* \"#utility.yul\":9562:9577   */\n          revert\n            /* \"#utility.yul\":9589:9769   */\n        tag_106:\n            /* \"#utility.yul\":9637:9714   */\n          0x4e487b7100000000000000000000000000000000000000000000000000000000\n            /* \"#utility.yul\":9634:9635   */\n          0x00\n            /* \"#utility.yul\":9627:9715   */\n          mstore\n            /* \"#utility.yul\":9734:9738   */\n          0x32\n            /* \"#utility.yul\":9731:9732   */\n          0x04\n            /* \"#utility.yul\":9724:9739   */\n          mstore\n            /* \"#utility.yul\":9758:9762   */\n          0x24\n            /* \"#utility.yul\":9755:9756   */\n          0x00\n            /* \"#utility.yul\":9748:9763   */\n          revert\n            /* \"#utility.yul\":9898:10015   */\n        tag_156:\n            /* \"#utility.yul\":10007:10008   */\n          0x00\n            /* \"#utility.yul\":10004:10005   */\n          dup1\n            /* \"#utility.yul\":9997:10009   */\n          revert\n            /* \"#utility.yul\":10021:10247   */\n        tag_181:\n            /* \"#utility.yul\":10161:10195   */\n          0x6f72646572206d757374206265206f6620636f72726563742073697a6520616e\n            /* \"#utility.yul\":10157:10158   */\n          0x00\n            /* \"#utility.yul\":10149:10155   */\n          dup3\n            /* \"#utility.yul\":10145:10159   */\n          add\n            /* \"#utility.yul\":10138:10196   */\n          mstore\n            /* \"#utility.yul\":10230:10239   */\n          0x6420707269636500000000000000000000000000000000000000000000000000\n            /* \"#utility.yul\":10225:10227   */\n          0x20\n            /* \"#utility.yul\":10217:10223   */\n          dup3\n            /* \"#utility.yul\":10213:10228   */\n          add\n            /* \"#utility.yul\":10206:10240   */\n          mstore\n            /* \"#utility.yul\":10021:10247   */\n          pop\n          jump\t// out\n            /* \"#utility.yul\":10253:10478   */\n        tag_186:\n            /* \"#utility.yul\":10393:10427   */\n          0x4f776e61626c653a206e6577206f776e657220697320746865207a65726f2061\n            /* \"#utility.yul\":10389:10390   */\n          0x00\n            /* \"#utility.yul\":10381:10387   */\n          dup3\n            /* \"#utility.yul\":10377:10391   */\n          add\n            /* \"#utility.yul\":10370:10428   */\n          mstore\n            /* \"#utility.yul\":10462:10470   */\n          0x6464726573730000000000000000000000000000000000000000000000000000\n            /* \"#utility.yul\":10457:10459   */\n          0x20\n            /* \"#utility.yul\":10449:10455   */\n          dup3\n            /* \"#utility.yul\":10445:10460   */\n          add\n            /* \"#utility.yul\":10438:10471   */\n          mstore\n            /* \"#utility.yul\":10253:10478   */\n          pop\n          jump\t// out\n            /* \"#utility.yul\":10484:10711   */\n        tag_191:\n            /* \"#utility.yul\":10624:10658   */\n          0x546869732070726f647563652068617320616c7265616479206265656e20696e\n            /* \"#utility.yul\":10620:10621   */\n          0x00\n            /* \"#utility.yul\":10612:10618   */\n          dup3\n            /* \"#utility.yul\":10608:10622   */\n          add\n            /* \"#utility.yul\":10601:10659   */\n          mstore\n            /* \"#utility.yul\":10693:10703   */\n          0x6974696c697a6564000000000000000000000000000000000000000000000000\n            /* \"#utility.yul\":10688:10690   */\n          0x20\n            /* \"#utility.yul\":10680:10686   */\n          dup3\n            /* \"#utility.yul\":10676:10691   */\n          add\n            /* \"#utility.yul\":10669:10704   */\n          mstore\n            /* \"#utility.yul\":10484:10711   */\n          pop\n          jump\t// out\n            /* \"#utility.yul\":10717:10951   */\n        tag_196:\n            /* \"#utility.yul\":10857:10891   */\n          0x6661726d65722063616e6e6f7420706c616365206f7264657220666f72207468\n            /* \"#utility.yul\":10853:10854   */\n          0x00\n            /* \"#utility.yul\":10845:10851   */\n          dup3\n            /* \"#utility.yul\":10841:10855   */\n          add\n            /* \"#utility.yul\":10834:10892   */\n          mstore\n            /* \"#utility.yul\":10926:10943   */\n          0x656972206f776e2070726f647563650000000000000000000000000000000000\n            /* \"#utility.yul\":10921:10923   */\n          0x20\n            /* \"#utility.yul\":10913:10919   */\n          dup3\n            /* \"#utility.yul\":10909:10924   */\n          add\n            /* \"#utility.yul\":10902:10944   */\n          mstore\n            /* \"#utility.yul\":10717:10951   */\n          pop\n          jump\t// out\n            /* \"#utility.yul\":10957:11139   */\n        tag_201:\n            /* \"#utility.yul\":11097:11131   */\n          0x4f776e61626c653a2063616c6c6572206973206e6f7420746865206f776e6572\n            /* \"#utility.yul\":11093:11094   */\n          0x00\n            /* \"#utility.yul\":11085:11091   */\n          dup3\n            /* \"#utility.yul\":11081:11095   */\n          add\n            /* \"#utility.yul\":11074:11132   */\n          mstore\n            /* \"#utility.yul\":10957:11139   */\n          pop\n          jump\t// out\n            /* \"#utility.yul\":11145:11312   */\n        tag_206:\n            /* \"#utility.yul\":11285:11304   */\n          0x4e6f206f726465727320746f2074616b65000000000000000000000000000000\n            /* \"#utility.yul\":11281:11282   */\n          0x00\n            /* \"#utility.yul\":11273:11279   */\n          dup3\n            /* \"#utility.yul\":11269:11283   */\n          add\n            /* \"#utility.yul\":11262:11305   */\n          mstore\n            /* \"#utility.yul\":11145:11312   */\n          pop\n          jump\t// out\n            /* \"#utility.yul\":11318:11440   */\n        tag_144:\n            /* \"#utility.yul\":11391:11415   */\n          tag_263\n            /* \"#utility.yul\":11409:11414   */\n          dup2\n            /* \"#utility.yul\":11391:11415   */\n          tag_171\n          jump\t// in\n        tag_263:\n            /* \"#utility.yul\":11384:11389   */\n          dup2\n            /* \"#utility.yul\":11381:11416   */\n          eq\n            /* \"#utility.yul\":11371:11434   */\n          tag_264\n          jumpi\n            /* \"#utility.yul\":11430:11431   */\n          0x00\n            /* \"#utility.yul\":11427:11428   */\n          dup1\n            /* \"#utility.yul\":11420:11432   */\n          revert\n            /* \"#utility.yul\":11371:11434   */\n        tag_264:\n            /* \"#utility.yul\":11318:11440   */\n          pop\n          jump\t// out\n            /* \"#utility.yul\":11446:11568   */\n        tag_148:\n            /* \"#utility.yul\":11519:11543   */\n          tag_266\n            /* \"#utility.yul\":11537:11542   */\n          dup2\n            /* \"#utility.yul\":11519:11543   */\n          tag_175\n          jump\t// in\n        tag_266:\n            /* \"#utility.yul\":11512:11517   */\n          dup2\n            /* \"#utility.yul\":11509:11544   */\n          eq\n            /* \"#utility.yul\":11499:11562   */\n          tag_267\n          jumpi\n            /* \"#utility.yul\":11558:11559   */\n          0x00\n            /* \"#utility.yul\":11555:11556   */\n          dup1\n            /* \"#utility.yul\":11548:11560   */\n          revert\n            /* \"#utility.yul\":11499:11562   */\n        tag_267:\n            /* \"#utility.yul\":11446:11568   */\n          pop\n          jump\t// out\n            /* \"#utility.yul\":11574:11696   */\n        tag_152:\n            /* \"#utility.yul\":11647:11671   */\n          tag_269\n            /* \"#utility.yul\":11665:11670   */\n          dup2\n            /* \"#utility.yul\":11647:11671   */\n          tag_210\n          jump\t// in\n        tag_269:\n            /* \"#utility.yul\":11640:11645   */\n          dup2\n            /* \"#utility.yul\":11637:11672   */\n          eq\n            /* \"#utility.yul\":11627:11690   */\n          tag_270\n          jumpi\n            /* \"#utility.yul\":11686:11687   */\n          0x00\n            /* \"#utility.yul\":11683:11684   */\n          dup1\n            /* \"#utility.yul\":11676:11688   */\n          revert\n            /* \"#utility.yul\":11627:11690   */\n        tag_270:\n            /* \"#utility.yul\":11574:11696   */\n          pop\n          jump\t// out\n\n        auxdata: 0xa2646970667358221220fe2f813ce240478a30f5d4d2da9696e589917efc61330b52b09d6865ddbc802b64736f6c63430008070033\n    }\n}\n",
				"bytecode": {
					"linkReferences": {},
					"object": "60a060405234801561001057600080fd5b5060405161001d90610075565b604051809103906000f080158015610039573d6000803e3d6000fd5b5073ffffffffffffffffffffffffffffffffffffffff1660808173ffffffffffffffffffffffffffffffffffffffff1660601b81525050610082565b61115d80610a6083390190565b60805160601c6109c06100a0600039600061029c01526109c06000f3fe608060405234801561001057600080fd5b50600436106100415760003560e01c80637b6833c3146100465780637cfc97be14610062578063a1d861a914610092575b600080fd5b610060600480360381019061005b9190610585565b6100c2565b005b61007c600480360381019061007791906105df565b610294565b6040516100899190610711565b60405180910390f35b6100ac60048036038101906100a79190610585565b610456565b6040516100b9919061079b565b60405180910390f35b600160008273ffffffffffffffffffffffffffffffffffffffff1673ffffffffffffffffffffffffffffffffffffffff16815260200190815260200160002060009054906101000a900460ff1661014e576040517f08c379a0000000000000000000000000000000000000000000000000000000008152600401610145906107b6565b60405180910390fd5b3373ffffffffffffffffffffffffffffffffffffffff168173ffffffffffffffffffffffffffffffffffffffff16638da5cb5b6040518163ffffffff1660e01b815260040160206040518083038186803b1580156101ab57600080fd5b505afa1580156101bf573d6000803e3d6000fd5b505050506040513d601f19601f820116820180604052508101906101e391906105b2565b73ffffffffffffffffffffffffffffffffffffffff1614610239576040517f08c379a0000000000000000000000000000000000000000000000000000000008152600401610230906107f6565b60405180910390fd5b6000600160008373ffffffffffffffffffffffffffffffffffffffff1673ffffffffffffffffffffffffffffffffffffffff16815260200190815260200160002060006101000a81548160ff02191690831515021790555050565b6000806102c07f0000000000000000000000000000000000000000000000000000000000000000610476565b90508073ffffffffffffffffffffffffffffffffffffffff16635f1f38af338a8a8a8a8a8a6040518863ffffffff1660e01b8152600401610307979695949392919061072c565b600060405180830381600087803b15801561032157600080fd5b505af1158015610335573d6000803e3d6000fd5b505050506000819080600181540180825580915050600190039060005260206000200160009091909190916101000a81548173ffffffffffffffffffffffffffffffffffffffff021916908373ffffffffffffffffffffffffffffffffffffffff16021790555060018060008373ffffffffffffffffffffffffffffffffffffffff1673ffffffffffffffffffffffffffffffffffffffff16815260200190815260200160002060006101000a81548160ff0219169083151502179055506001600260003373ffffffffffffffffffffffffffffffffffffffff1673ffffffffffffffffffffffffffffffffffffffff16815260200190815260200160002060006101000a81548160ff021916908315150217905550509695505050505050565b60026020528060005260406000206000915054906101000a900460ff1681565b6000763d602d80600a3d3981f3363d3d373d3d3d363d730000008260601b60e81c176000526e5af43d82803e903d91602b57fd5bf38260781b17602052603760096000f09050600073ffffffffffffffffffffffffffffffffffffffff168173ffffffffffffffffffffffffffffffffffffffff16141561052c576040517f08c379a0000000000000000000000000000000000000000000000000000000008152600401610523906107d6565b60405180910390fd5b919050565b60008135905061054081610945565b92915050565b60008151905061055581610945565b92915050565b60008135905061056a8161095c565b92915050565b60008135905061057f81610973565b92915050565b60006020828403121561059b5761059a610879565b5b60006105a984828501610531565b91505092915050565b6000602082840312156105c8576105c7610879565b5b60006105d684828501610546565b91505092915050565b60008060008060008060c087890312156105fc576105fb610879565b5b600061060a89828a01610570565b965050602061061b89828a01610570565b955050604061062c89828a01610570565b945050606061063d89828a0161055b565b935050608061064e89828a01610570565b92505060a061065f89828a01610531565b9150509295509295509295565b61067581610827565b82525050565b61068481610839565b82525050565b61069381610845565b82525050565b60006106a6602883610816565b91506106b18261087e565b604082019050919050565b60006106c9601683610816565b91506106d4826108cd565b602082019050919050565b60006106ec603183610816565b91506106f7826108f6565b604082019050919050565b61070b8161086f565b82525050565b6000602082019050610726600083018461066c565b92915050565b600060e082019050610741600083018a61066c565b61074e6020830189610702565b61075b6040830188610702565b6107686060830187610702565b610775608083018661068a565b61078260a0830185610702565b61078f60c083018461066c565b98975050505050505050565b60006020820190506107b0600083018461067b565b92915050565b600060208201905081810360008301526107cf81610699565b9050919050565b600060208201905081810360008301526107ef816106bc565b9050919050565b6000602082019050818103600083015261080f816106df565b9050919050565b600082825260208201905092915050565b60006108328261084f565b9050919050565b60008115159050919050565b6000819050919050565b600073ffffffffffffffffffffffffffffffffffffffff82169050919050565b6000819050919050565b600080fd5b7f546869732070726f64756365206973206e6f74206c6973746564206f6e20746860008201527f65204d61726b6574000000000000000000000000000000000000000000000000602082015250565b7f455243313136373a20637265617465206661696c656400000000000000000000600082015250565b7f4f6e6c792070726f64756365206f776e65722063616e2072656d6f766520707260008201527f6f647563652066726f6d204d61726b6574000000000000000000000000000000602082015250565b61094e81610827565b811461095957600080fd5b50565b61096581610845565b811461097057600080fd5b50565b61097c8161086f565b811461098757600080fd5b5056fea2646970667358221220c6e03037f333259cf403481fce004c549a066387edbe23fa762f5013cd41835364736f6c63430008070033608060405234801561001057600080fd5b5061002d61002261005d60201b60201c565b61006560201b60201c565b6000600960146101000a81548160ff0219169083600181111561005357610052610129565b5b0217905550610158565b600033905090565b60008060009054906101000a900473ffffffffffffffffffffffffffffffffffffffff169050816000806101000a81548173ffffffffffffffffffffffffffffffffffffffff021916908373ffffffffffffffffffffffffffffffffffffffff1602179055508173ffffffffffffffffffffffffffffffffffffffff168173ffffffffffffffffffffffffffffffffffffffff167f8be0079c531659141344cd1fd0a4f28419497f9722a3daafe3b4186f6b6457e060405160405180910390a35050565b7f4e487b7100000000000000000000000000000000000000000000000000000000600052602160045260246000fd5b610ff6806101676000396000f3fe6080604052600436106100dd5760003560e01c80638da5cb5b1161007f578063d32dacc111610059578063d32dacc11461027a578063d811fcf0146102a5578063f2fde38b146102d0578063f5c609e0146102f9576100dd565b80638da5cb5b146101f9578063a035b1fe14610224578063aa8c217c1461024f576100dd565b80636d86b8a5116100bb5780636d86b8a514610161578063715018a61461018c57806380f55605146101a357806381bbfb61146101ce576100dd565b806306fdde03146100e2578063530d124e1461010d5780635f1f38af14610138575b600080fd5b3480156100ee57600080fd5b506100f7610303565b6040516101049190610c2c565b60405180910390f35b34801561011957600080fd5b50610122610309565b60405161012f9190610c2c565b60405180910390f35b34801561014457600080fd5b5061015f600480360381019061015a9190610995565b61030f565b005b34801561016d57600080fd5b50610176610467565b6040516101839190610c2c565b60405180910390f35b34801561019857600080fd5b506101a161046d565b005b3480156101af57600080fd5b506101b8610481565b6040516101c59190610b36565b60405180910390f35b3480156101da57600080fd5b506101e36104a7565b6040516101f09190610b36565b60405180910390f35b34801561020557600080fd5b5061020e6104cd565b60405161021b9190610b36565b60405180910390f35b34801561023057600080fd5b506102396104f6565b6040516102469190610c2c565b60405180910390f35b34801561025b57600080fd5b506102646104fc565b6040516102719190610b51565b60405180910390f35b34801561028657600080fd5b5061028f610502565b60405161029c9190610b36565b60405180910390f35b3480156102b157600080fd5b506102ba6105f6565b6040516102c79190610b36565b60405180910390f35b3480156102dc57600080fd5b506102f760048036038101906102f29190610968565b61061c565b005b6103016106a0565b005b60055481565b60045481565b6000600181111561032357610322610d5b565b5b600960149054906101000a900460ff16600181111561034557610344610d5b565b5b14610385576040517f08c379a000000000000000000000000000000000000000000000000000000000815260040161037c90610bac565b60405180910390fd5b61038e876107df565b33600260006101000a81548173ffffffffffffffffffffffffffffffffffffffff021916908373ffffffffffffffffffffffffffffffffffffffff160217905550816004819055508560058190555084600681905550836007819055508260088190555080600960006101000a81548173ffffffffffffffffffffffffffffffffffffffff021916908373ffffffffffffffffffffffffffffffffffffffff1602179055506001600960146101000a81548160ff0219169083600181111561045957610458610d5b565b5b021790555050505050505050565b60075481565b6104756108a3565b61047f60006107df565b565b600260009054906101000a900473ffffffffffffffffffffffffffffffffffffffff1681565b600960009054906101000a900473ffffffffffffffffffffffffffffffffffffffff1681565b60008060009054906101000a900473ffffffffffffffffffffffffffffffffffffffff16905090565b60065481565b60085481565b600061050c6108a3565b600060038054905011610554576040517f08c379a000000000000000000000000000000000000000000000000000000000815260040161054b90610c0c565b60405180910390fd5b60006003600160038054905061056a9190610cb2565b8154811061057b5761057a610db9565b5b9060005260206000200160009054906101000a900473ffffffffffffffffffffffffffffffffffffffff16905060038054806105ba576105b9610d8a565b5b6001900381819060005260206000200160006101000a81549073ffffffffffffffffffffffffffffffffffffffff021916905590558091505090565b600160009054906101000a900473ffffffffffffffffffffffffffffffffffffffff1681565b6106246108a3565b600073ffffffffffffffffffffffffffffffffffffffff168173ffffffffffffffffffffffffffffffffffffffff161415610694576040517f08c379a000000000000000000000000000000000000000000000000000000000815260040161068b90610b8c565b60405180910390fd5b61069d816107df565b50565b6106a86104cd565b73ffffffffffffffffffffffffffffffffffffffff163373ffffffffffffffffffffffffffffffffffffffff161415610716576040517f08c379a000000000000000000000000000000000000000000000000000000000815260040161070d90610bcc565b60405180910390fd5b6006546007546107269190610c58565b3414610767576040517f08c379a000000000000000000000000000000000000000000000000000000000815260040161075e90610b6c565b60405180910390fd5b6004546003805490501061077a57600080fd5b6003339080600181540180825580915050600190039060005260206000200160009091909190916101000a81548173ffffffffffffffffffffffffffffffffffffffff021916908373ffffffffffffffffffffffffffffffffffffffff160217905550565b60008060009054906101000a900473ffffffffffffffffffffffffffffffffffffffff169050816000806101000a81548173ffffffffffffffffffffffffffffffffffffffff021916908373ffffffffffffffffffffffffffffffffffffffff1602179055508173ffffffffffffffffffffffffffffffffffffffff168173ffffffffffffffffffffffffffffffffffffffff167f8be0079c531659141344cd1fd0a4f28419497f9722a3daafe3b4186f6b6457e060405160405180910390a35050565b6108ab610921565b73ffffffffffffffffffffffffffffffffffffffff166108c96104cd565b73ffffffffffffffffffffffffffffffffffffffff161461091f576040517f08c379a000000000000000000000000000000000000000000000000000000000815260040161091690610bec565b60405180910390fd5b565b600033905090565b60008135905061093881610f7b565b92915050565b60008135905061094d81610f92565b92915050565b60008135905061096281610fa9565b92915050565b60006020828403121561097e5761097d610de8565b5b600061098c84828501610929565b91505092915050565b600080600080600080600060e0888a0312156109b4576109b3610de8565b5b60006109c28a828b01610929565b97505060206109d38a828b01610953565b96505060406109e48a828b01610953565b95505060606109f58a828b01610953565b9450506080610a068a828b0161093e565b93505060a0610a178a828b01610953565b92505060c0610a288a828b01610929565b91505092959891949750929550565b610a4081610ce6565b82525050565b610a4f81610cf8565b82525050565b6000610a62602783610c47565b9150610a6d82610ded565b604082019050919050565b6000610a85602683610c47565b9150610a9082610e3c565b604082019050919050565b6000610aa8602883610c47565b9150610ab382610e8b565b604082019050919050565b6000610acb602f83610c47565b9150610ad682610eda565b604082019050919050565b6000610aee602083610c47565b9150610af982610f29565b602082019050919050565b6000610b11601183610c47565b9150610b1c82610f52565b602082019050919050565b610b3081610d22565b82525050565b6000602082019050610b4b6000830184610a37565b92915050565b6000602082019050610b666000830184610a46565b92915050565b60006020820190508181036000830152610b8581610a55565b9050919050565b60006020820190508181036000830152610ba581610a78565b9050919050565b60006020820190508181036000830152610bc581610a9b565b9050919050565b60006020820190508181036000830152610be581610abe565b9050919050565b60006020820190508181036000830152610c0581610ae1565b9050919050565b60006020820190508181036000830152610c2581610b04565b9050919050565b6000602082019050610c416000830184610b27565b92915050565b600082825260208201905092915050565b6000610c6382610d22565b9150610c6e83610d22565b9250817fffffffffffffffffffffffffffffffffffffffffffffffffffffffffffffffff0483118215151615610ca757610ca6610d2c565b5b828202905092915050565b6000610cbd82610d22565b9150610cc883610d22565b925082821015610cdb57610cda610d2c565b5b828203905092915050565b6000610cf182610d02565b9050919050565b6000819050919050565b600073ffffffffffffffffffffffffffffffffffffffff82169050919050565b6000819050919050565b7f4e487b7100000000000000000000000000000000000000000000000000000000600052601160045260246000fd5b7f4e487b7100000000000000000000000000000000000000000000000000000000600052602160045260246000fd5b7f4e487b7100000000000000000000000000000000000000000000000000000000600052603160045260246000fd5b7f4e487b7100000000000000000000000000000000000000000000000000000000600052603260045260246000fd5b600080fd5b7f6f72646572206d757374206265206f6620636f72726563742073697a6520616e60008201527f6420707269636500000000000000000000000000000000000000000000000000602082015250565b7f4f776e61626c653a206e6577206f776e657220697320746865207a65726f206160008201527f6464726573730000000000000000000000000000000000000000000000000000602082015250565b7f546869732070726f647563652068617320616c7265616479206265656e20696e60008201527f6974696c697a6564000000000000000000000000000000000000000000000000602082015250565b7f6661726d65722063616e6e6f7420706c616365206f7264657220666f7220746860008201527f656972206f776e2070726f647563650000000000000000000000000000000000602082015250565b7f4f776e61626c653a2063616c6c6572206973206e6f7420746865206f776e6572600082015250565b7f4e6f206f726465727320746f2074616b65000000000000000000000000000000600082015250565b610f8481610ce6565b8114610f8f57600080fd5b50565b610f9b81610cf8565b8114610fa657600080fd5b50565b610fb281610d22565b8114610fbd57600080fd5b5056fea2646970667358221220fe2f813ce240478a30f5d4d2da9696e589917efc61330b52b09d6865ddbc802b64736f6c63430008070033",
					"opcodes": "PUSH1 0xA0 PUSH1 0x40 MSTORE CALLVALUE DUP1 ISZERO PUSH2 0x10 JUMPI PUSH1 0x0 DUP1 REVERT JUMPDEST POP PUSH1 0x40 MLOAD PUSH2 0x1D SWAP1 PUSH2 0x75 JUMP JUMPDEST PUSH1 0x40 MLOAD DUP1 SWAP2 SUB SWAP1 PUSH1 0x0 CREATE DUP1 ISZERO DUP1 ISZERO PUSH2 0x39 JUMPI RETURNDATASIZE PUSH1 0x0 DUP1 RETURNDATACOPY RETURNDATASIZE PUSH1 0x0 REVERT JUMPDEST POP PUSH20 0xFFFFFFFFFFFFFFFFFFFFFFFFFFFFFFFFFFFFFFFF AND PUSH1 0x80 DUP2 PUSH20 0xFFFFFFFFFFFFFFFFFFFFFFFFFFFFFFFFFFFFFFFF AND PUSH1 0x60 SHL DUP2 MSTORE POP POP PUSH2 0x82 JUMP JUMPDEST PUSH2 0x115D DUP1 PUSH2 0xA60 DUP4 CODECOPY ADD SWAP1 JUMP JUMPDEST PUSH1 0x80 MLOAD PUSH1 0x60 SHR PUSH2 0x9C0 PUSH2 0xA0 PUSH1 0x0 CODECOPY PUSH1 0x0 PUSH2 0x29C ADD MSTORE PUSH2 0x9C0 PUSH1 0x0 RETURN INVALID PUSH1 0x80 PUSH1 0x40 MSTORE CALLVALUE DUP1 ISZERO PUSH2 0x10 JUMPI PUSH1 0x0 DUP1 REVERT JUMPDEST POP PUSH1 0x4 CALLDATASIZE LT PUSH2 0x41 JUMPI PUSH1 0x0 CALLDATALOAD PUSH1 0xE0 SHR DUP1 PUSH4 0x7B6833C3 EQ PUSH2 0x46 JUMPI DUP1 PUSH4 0x7CFC97BE EQ PUSH2 0x62 JUMPI DUP1 PUSH4 0xA1D861A9 EQ PUSH2 0x92 JUMPI JUMPDEST PUSH1 0x0 DUP1 REVERT JUMPDEST PUSH2 0x60 PUSH1 0x4 DUP1 CALLDATASIZE SUB DUP2 ADD SWAP1 PUSH2 0x5B SWAP2 SWAP1 PUSH2 0x585 JUMP JUMPDEST PUSH2 0xC2 JUMP JUMPDEST STOP JUMPDEST PUSH2 0x7C PUSH1 0x4 DUP1 CALLDATASIZE SUB DUP2 ADD SWAP1 PUSH2 0x77 SWAP2 SWAP1 PUSH2 0x5DF JUMP JUMPDEST PUSH2 0x294 JUMP JUMPDEST PUSH1 0x40 MLOAD PUSH2 0x89 SWAP2 SWAP1 PUSH2 0x711 JUMP JUMPDEST PUSH1 0x40 MLOAD DUP1 SWAP2 SUB SWAP1 RETURN JUMPDEST PUSH2 0xAC PUSH1 0x4 DUP1 CALLDATASIZE SUB DUP2 ADD SWAP1 PUSH2 0xA7 SWAP2 SWAP1 PUSH2 0x585 JUMP JUMPDEST PUSH2 0x456 JUMP JUMPDEST PUSH1 0x40 MLOAD PUSH2 0xB9 SWAP2 SWAP1 PUSH2 0x79B JUMP JUMPDEST PUSH1 0x40 MLOAD DUP1 SWAP2 SUB SWAP1 RETURN JUMPDEST PUSH1 0x1 PUSH1 0x0 DUP3 PUSH20 0xFFFFFFFFFFFFFFFFFFFFFFFFFFFFFFFFFFFFFFFF AND PUSH20 0xFFFFFFFFFFFFFFFFFFFFFFFFFFFFFFFFFFFFFFFF AND DUP2 MSTORE PUSH1 0x20 ADD SWAP1 DUP2 MSTORE PUSH1 0x20 ADD PUSH1 0x0 KECCAK256 PUSH1 0x0 SWAP1 SLOAD SWAP1 PUSH2 0x100 EXP SWAP1 DIV PUSH1 0xFF AND PUSH2 0x14E JUMPI PUSH1 0x40 MLOAD PUSH32 0x8C379A000000000000000000000000000000000000000000000000000000000 DUP2 MSTORE PUSH1 0x4 ADD PUSH2 0x145 SWAP1 PUSH2 0x7B6 JUMP JUMPDEST PUSH1 0x40 MLOAD DUP1 SWAP2 SUB SWAP1 REVERT JUMPDEST CALLER PUSH20 0xFFFFFFFFFFFFFFFFFFFFFFFFFFFFFFFFFFFFFFFF AND DUP2 PUSH20 0xFFFFFFFFFFFFFFFFFFFFFFFFFFFFFFFFFFFFFFFF AND PUSH4 0x8DA5CB5B PUSH1 0x40 MLOAD DUP2 PUSH4 0xFFFFFFFF AND PUSH1 0xE0 SHL DUP2 MSTORE PUSH1 0x4 ADD PUSH1 0x20 PUSH1 0x40 MLOAD DUP1 DUP4 SUB DUP2 DUP7 DUP1 EXTCODESIZE ISZERO DUP1 ISZERO PUSH2 0x1AB JUMPI PUSH1 0x0 DUP1 REVERT JUMPDEST POP GAS STATICCALL ISZERO DUP1 ISZERO PUSH2 0x1BF JUMPI RETURNDATASIZE PUSH1 0x0 DUP1 RETURNDATACOPY RETURNDATASIZE PUSH1 0x0 REVERT JUMPDEST POP POP POP POP PUSH1 0x40 MLOAD RETURNDATASIZE PUSH1 0x1F NOT PUSH1 0x1F DUP3 ADD AND DUP3 ADD DUP1 PUSH1 0x40 MSTORE POP DUP2 ADD SWAP1 PUSH2 0x1E3 SWAP2 SWAP1 PUSH2 0x5B2 JUMP JUMPDEST PUSH20 0xFFFFFFFFFFFFFFFFFFFFFFFFFFFFFFFFFFFFFFFF AND EQ PUSH2 0x239 JUMPI PUSH1 0x40 MLOAD PUSH32 0x8C379A000000000000000000000000000000000000000000000000000000000 DUP2 MSTORE PUSH1 0x4 ADD PUSH2 0x230 SWAP1 PUSH2 0x7F6 JUMP JUMPDEST PUSH1 0x40 MLOAD DUP1 SWAP2 SUB SWAP1 REVERT JUMPDEST PUSH1 0x0 PUSH1 0x1 PUSH1 0x0 DUP4 PUSH20 0xFFFFFFFFFFFFFFFFFFFFFFFFFFFFFFFFFFFFFFFF AND PUSH20 0xFFFFFFFFFFFFFFFFFFFFFFFFFFFFFFFFFFFFFFFF AND DUP2 MSTORE PUSH1 0x20 ADD SWAP1 DUP2 MSTORE PUSH1 0x20 ADD PUSH1 0x0 KECCAK256 PUSH1 0x0 PUSH2 0x100 EXP DUP2 SLOAD DUP2 PUSH1 0xFF MUL NOT AND SWAP1 DUP4 ISZERO ISZERO MUL OR SWAP1 SSTORE POP POP JUMP JUMPDEST PUSH1 0x0 DUP1 PUSH2 0x2C0 PUSH32 0x0 PUSH2 0x476 JUMP JUMPDEST SWAP1 POP DUP1 PUSH20 0xFFFFFFFFFFFFFFFFFFFFFFFFFFFFFFFFFFFFFFFF AND PUSH4 0x5F1F38AF CALLER DUP11 DUP11 DUP11 DUP11 DUP11 DUP11 PUSH1 0x40 MLOAD DUP9 PUSH4 0xFFFFFFFF AND PUSH1 0xE0 SHL DUP2 MSTORE PUSH1 0x4 ADD PUSH2 0x307 SWAP8 SWAP7 SWAP6 SWAP5 SWAP4 SWAP3 SWAP2 SWAP1 PUSH2 0x72C JUMP JUMPDEST PUSH1 0x0 PUSH1 0x40 MLOAD DUP1 DUP4 SUB DUP2 PUSH1 0x0 DUP8 DUP1 EXTCODESIZE ISZERO DUP1 ISZERO PUSH2 0x321 JUMPI PUSH1 0x0 DUP1 REVERT JUMPDEST POP GAS CALL ISZERO DUP1 ISZERO PUSH2 0x335 JUMPI RETURNDATASIZE PUSH1 0x0 DUP1 RETURNDATACOPY RETURNDATASIZE PUSH1 0x0 REVERT JUMPDEST POP POP POP POP PUSH1 0x0 DUP2 SWAP1 DUP1 PUSH1 0x1 DUP2 SLOAD ADD DUP1 DUP3 SSTORE DUP1 SWAP2 POP POP PUSH1 0x1 SWAP1 SUB SWAP1 PUSH1 0x0 MSTORE PUSH1 0x20 PUSH1 0x0 KECCAK256 ADD PUSH1 0x0 SWAP1 SWAP2 SWAP1 SWAP2 SWAP1 SWAP2 PUSH2 0x100 EXP DUP2 SLOAD DUP2 PUSH20 0xFFFFFFFFFFFFFFFFFFFFFFFFFFFFFFFFFFFFFFFF MUL NOT AND SWAP1 DUP4 PUSH20 0xFFFFFFFFFFFFFFFFFFFFFFFFFFFFFFFFFFFFFFFF AND MUL OR SWAP1 SSTORE POP PUSH1 0x1 DUP1 PUSH1 0x0 DUP4 PUSH20 0xFFFFFFFFFFFFFFFFFFFFFFFFFFFFFFFFFFFFFFFF AND PUSH20 0xFFFFFFFFFFFFFFFFFFFFFFFFFFFFFFFFFFFFFFFF AND DUP2 MSTORE PUSH1 0x20 ADD SWAP1 DUP2 MSTORE PUSH1 0x20 ADD PUSH1 0x0 KECCAK256 PUSH1 0x0 PUSH2 0x100 EXP DUP2 SLOAD DUP2 PUSH1 0xFF MUL NOT AND SWAP1 DUP4 ISZERO ISZERO MUL OR SWAP1 SSTORE POP PUSH1 0x1 PUSH1 0x2 PUSH1 0x0 CALLER PUSH20 0xFFFFFFFFFFFFFFFFFFFFFFFFFFFFFFFFFFFFFFFF AND PUSH20 0xFFFFFFFFFFFFFFFFFFFFFFFFFFFFFFFFFFFFFFFF AND DUP2 MSTORE PUSH1 0x20 ADD SWAP1 DUP2 MSTORE PUSH1 0x20 ADD PUSH1 0x0 KECCAK256 PUSH1 0x0 PUSH2 0x100 EXP DUP2 SLOAD DUP2 PUSH1 0xFF MUL NOT AND SWAP1 DUP4 ISZERO ISZERO MUL OR SWAP1 SSTORE POP POP SWAP7 SWAP6 POP POP POP POP POP POP JUMP JUMPDEST PUSH1 0x2 PUSH1 0x20 MSTORE DUP1 PUSH1 0x0 MSTORE PUSH1 0x40 PUSH1 0x0 KECCAK256 PUSH1 0x0 SWAP2 POP SLOAD SWAP1 PUSH2 0x100 EXP SWAP1 DIV PUSH1 0xFF AND DUP2 JUMP JUMPDEST PUSH1 0x0 PUSH23 0x3D602D80600A3D3981F3363D3D373D3D3D363D73000000 DUP3 PUSH1 0x60 SHL PUSH1 0xE8 SHR OR PUSH1 0x0 MSTORE PUSH15 0x5AF43D82803E903D91602B57FD5BF3 DUP3 PUSH1 0x78 SHL OR PUSH1 0x20 MSTORE PUSH1 0x37 PUSH1 0x9 PUSH1 0x0 CREATE SWAP1 POP PUSH1 0x0 PUSH20 0xFFFFFFFFFFFFFFFFFFFFFFFFFFFFFFFFFFFFFFFF AND DUP2 PUSH20 0xFFFFFFFFFFFFFFFFFFFFFFFFFFFFFFFFFFFFFFFF AND EQ ISZERO PUSH2 0x52C JUMPI PUSH1 0x40 MLOAD PUSH32 0x8C379A000000000000000000000000000000000000000000000000000000000 DUP2 MSTORE PUSH1 0x4 ADD PUSH2 0x523 SWAP1 PUSH2 0x7D6 JUMP JUMPDEST PUSH1 0x40 MLOAD DUP1 SWAP2 SUB SWAP1 REVERT JUMPDEST SWAP2 SWAP1 POP JUMP JUMPDEST PUSH1 0x0 DUP2 CALLDATALOAD SWAP1 POP PUSH2 0x540 DUP2 PUSH2 0x945 JUMP JUMPDEST SWAP3 SWAP2 POP POP JUMP JUMPDEST PUSH1 0x0 DUP2 MLOAD SWAP1 POP PUSH2 0x555 DUP2 PUSH2 0x945 JUMP JUMPDEST SWAP3 SWAP2 POP POP JUMP JUMPDEST PUSH1 0x0 DUP2 CALLDATALOAD SWAP1 POP PUSH2 0x56A DUP2 PUSH2 0x95C JUMP JUMPDEST SWAP3 SWAP2 POP POP JUMP JUMPDEST PUSH1 0x0 DUP2 CALLDATALOAD SWAP1 POP PUSH2 0x57F DUP2 PUSH2 0x973 JUMP JUMPDEST SWAP3 SWAP2 POP POP JUMP JUMPDEST PUSH1 0x0 PUSH1 0x20 DUP3 DUP5 SUB SLT ISZERO PUSH2 0x59B JUMPI PUSH2 0x59A PUSH2 0x879 JUMP JUMPDEST JUMPDEST PUSH1 0x0 PUSH2 0x5A9 DUP5 DUP3 DUP6 ADD PUSH2 0x531 JUMP JUMPDEST SWAP2 POP POP SWAP3 SWAP2 POP POP JUMP JUMPDEST PUSH1 0x0 PUSH1 0x20 DUP3 DUP5 SUB SLT ISZERO PUSH2 0x5C8 JUMPI PUSH2 0x5C7 PUSH2 0x879 JUMP JUMPDEST JUMPDEST PUSH1 0x0 PUSH2 0x5D6 DUP5 DUP3 DUP6 ADD PUSH2 0x546 JUMP JUMPDEST SWAP2 POP POP SWAP3 SWAP2 POP POP JUMP JUMPDEST PUSH1 0x0 DUP1 PUSH1 0x0 DUP1 PUSH1 0x0 DUP1 PUSH1 0xC0 DUP8 DUP10 SUB SLT ISZERO PUSH2 0x5FC JUMPI PUSH2 0x5FB PUSH2 0x879 JUMP JUMPDEST JUMPDEST PUSH1 0x0 PUSH2 0x60A DUP10 DUP3 DUP11 ADD PUSH2 0x570 JUMP JUMPDEST SWAP7 POP POP PUSH1 0x20 PUSH2 0x61B DUP10 DUP3 DUP11 ADD PUSH2 0x570 JUMP JUMPDEST SWAP6 POP POP PUSH1 0x40 PUSH2 0x62C DUP10 DUP3 DUP11 ADD PUSH2 0x570 JUMP JUMPDEST SWAP5 POP POP PUSH1 0x60 PUSH2 0x63D DUP10 DUP3 DUP11 ADD PUSH2 0x55B JUMP JUMPDEST SWAP4 POP POP PUSH1 0x80 PUSH2 0x64E DUP10 DUP3 DUP11 ADD PUSH2 0x570 JUMP JUMPDEST SWAP3 POP POP PUSH1 0xA0 PUSH2 0x65F DUP10 DUP3 DUP11 ADD PUSH2 0x531 JUMP JUMPDEST SWAP2 POP POP SWAP3 SWAP6 POP SWAP3 SWAP6 POP SWAP3 SWAP6 JUMP JUMPDEST PUSH2 0x675 DUP2 PUSH2 0x827 JUMP JUMPDEST DUP3 MSTORE POP POP JUMP JUMPDEST PUSH2 0x684 DUP2 PUSH2 0x839 JUMP JUMPDEST DUP3 MSTORE POP POP JUMP JUMPDEST PUSH2 0x693 DUP2 PUSH2 0x845 JUMP JUMPDEST DUP3 MSTORE POP POP JUMP JUMPDEST PUSH1 0x0 PUSH2 0x6A6 PUSH1 0x28 DUP4 PUSH2 0x816 JUMP JUMPDEST SWAP2 POP PUSH2 0x6B1 DUP3 PUSH2 0x87E JUMP JUMPDEST PUSH1 0x40 DUP3 ADD SWAP1 POP SWAP2 SWAP1 POP JUMP JUMPDEST PUSH1 0x0 PUSH2 0x6C9 PUSH1 0x16 DUP4 PUSH2 0x816 JUMP JUMPDEST SWAP2 POP PUSH2 0x6D4 DUP3 PUSH2 0x8CD JUMP JUMPDEST PUSH1 0x20 DUP3 ADD SWAP1 POP SWAP2 SWAP1 POP JUMP JUMPDEST PUSH1 0x0 PUSH2 0x6EC PUSH1 0x31 DUP4 PUSH2 0x816 JUMP JUMPDEST SWAP2 POP PUSH2 0x6F7 DUP3 PUSH2 0x8F6 JUMP JUMPDEST PUSH1 0x40 DUP3 ADD SWAP1 POP SWAP2 SWAP1 POP JUMP JUMPDEST PUSH2 0x70B DUP2 PUSH2 0x86F JUMP JUMPDEST DUP3 MSTORE POP POP JUMP JUMPDEST PUSH1 0x0 PUSH1 0x20 DUP3 ADD SWAP1 POP PUSH2 0x726 PUSH1 0x0 DUP4 ADD DUP5 PUSH2 0x66C JUMP JUMPDEST SWAP3 SWAP2 POP POP JUMP JUMPDEST PUSH1 0x0 PUSH1 0xE0 DUP3 ADD SWAP1 POP PUSH2 0x741 PUSH1 0x0 DUP4 ADD DUP11 PUSH2 0x66C JUMP JUMPDEST PUSH2 0x74E PUSH1 0x20 DUP4 ADD DUP10 PUSH2 0x702 JUMP JUMPDEST PUSH2 0x75B PUSH1 0x40 DUP4 ADD DUP9 PUSH2 0x702 JUMP JUMPDEST PUSH2 0x768 PUSH1 0x60 DUP4 ADD DUP8 PUSH2 0x702 JUMP JUMPDEST PUSH2 0x775 PUSH1 0x80 DUP4 ADD DUP7 PUSH2 0x68A JUMP JUMPDEST PUSH2 0x782 PUSH1 0xA0 DUP4 ADD DUP6 PUSH2 0x702 JUMP JUMPDEST PUSH2 0x78F PUSH1 0xC0 DUP4 ADD DUP5 PUSH2 0x66C JUMP JUMPDEST SWAP9 SWAP8 POP POP POP POP POP POP POP POP JUMP JUMPDEST PUSH1 0x0 PUSH1 0x20 DUP3 ADD SWAP1 POP PUSH2 0x7B0 PUSH1 0x0 DUP4 ADD DUP5 PUSH2 0x67B JUMP JUMPDEST SWAP3 SWAP2 POP POP JUMP JUMPDEST PUSH1 0x0 PUSH1 0x20 DUP3 ADD SWAP1 POP DUP2 DUP2 SUB PUSH1 0x0 DUP4 ADD MSTORE PUSH2 0x7CF DUP2 PUSH2 0x699 JUMP JUMPDEST SWAP1 POP SWAP2 SWAP1 POP JUMP JUMPDEST PUSH1 0x0 PUSH1 0x20 DUP3 ADD SWAP1 POP DUP2 DUP2 SUB PUSH1 0x0 DUP4 ADD MSTORE PUSH2 0x7EF DUP2 PUSH2 0x6BC JUMP JUMPDEST SWAP1 POP SWAP2 SWAP1 POP JUMP JUMPDEST PUSH1 0x0 PUSH1 0x20 DUP3 ADD SWAP1 POP DUP2 DUP2 SUB PUSH1 0x0 DUP4 ADD MSTORE PUSH2 0x80F DUP2 PUSH2 0x6DF JUMP JUMPDEST SWAP1 POP SWAP2 SWAP1 POP JUMP JUMPDEST PUSH1 0x0 DUP3 DUP3 MSTORE PUSH1 0x20 DUP3 ADD SWAP1 POP SWAP3 SWAP2 POP POP JUMP JUMPDEST PUSH1 0x0 PUSH2 0x832 DUP3 PUSH2 0x84F JUMP JUMPDEST SWAP1 POP SWAP2 SWAP1 POP JUMP JUMPDEST PUSH1 0x0 DUP2 ISZERO ISZERO SWAP1 POP SWAP2 SWAP1 POP JUMP JUMPDEST PUSH1 0x0 DUP2 SWAP1 POP SWAP2 SWAP1 POP JUMP JUMPDEST PUSH1 0x0 PUSH20 0xFFFFFFFFFFFFFFFFFFFFFFFFFFFFFFFFFFFFFFFF DUP3 AND SWAP1 POP SWAP2 SWAP1 POP JUMP JUMPDEST PUSH1 0x0 DUP2 SWAP1 POP SWAP2 SWAP1 POP JUMP JUMPDEST PUSH1 0x0 DUP1 REVERT JUMPDEST PUSH32 0x546869732070726F64756365206973206E6F74206C6973746564206F6E207468 PUSH1 0x0 DUP3 ADD MSTORE PUSH32 0x65204D61726B6574000000000000000000000000000000000000000000000000 PUSH1 0x20 DUP3 ADD MSTORE POP JUMP JUMPDEST PUSH32 0x455243313136373A20637265617465206661696C656400000000000000000000 PUSH1 0x0 DUP3 ADD MSTORE POP JUMP JUMPDEST PUSH32 0x4F6E6C792070726F64756365206F776E65722063616E2072656D6F7665207072 PUSH1 0x0 DUP3 ADD MSTORE PUSH32 0x6F647563652066726F6D204D61726B6574000000000000000000000000000000 PUSH1 0x20 DUP3 ADD MSTORE POP JUMP JUMPDEST PUSH2 0x94E DUP2 PUSH2 0x827 JUMP JUMPDEST DUP2 EQ PUSH2 0x959 JUMPI PUSH1 0x0 DUP1 REVERT JUMPDEST POP JUMP JUMPDEST PUSH2 0x965 DUP2 PUSH2 0x845 JUMP JUMPDEST DUP2 EQ PUSH2 0x970 JUMPI PUSH1 0x0 DUP1 REVERT JUMPDEST POP JUMP JUMPDEST PUSH2 0x97C DUP2 PUSH2 0x86F JUMP JUMPDEST DUP2 EQ PUSH2 0x987 JUMPI PUSH1 0x0 DUP1 REVERT JUMPDEST POP JUMP INVALID LOG2 PUSH5 0x6970667358 0x22 SLT KECCAK256 0xC6 0xE0 ADDRESS CALLDATACOPY RETURN CALLER 0x25 SWAP13 DELEGATECALL SUB BASEFEE 0x1F 0xCE STOP 0x4C SLOAD SWAP11 MOD PUSH4 0x87EDBE23 STATICCALL PUSH23 0x2F5013CD41835364736F6C634300080700336080604052 CALLVALUE DUP1 ISZERO PUSH2 0x10 JUMPI PUSH1 0x0 DUP1 REVERT JUMPDEST POP PUSH2 0x2D PUSH2 0x22 PUSH2 0x5D PUSH1 0x20 SHL PUSH1 0x20 SHR JUMP JUMPDEST PUSH2 0x65 PUSH1 0x20 SHL PUSH1 0x20 SHR JUMP JUMPDEST PUSH1 0x0 PUSH1 0x9 PUSH1 0x14 PUSH2 0x100 EXP DUP2 SLOAD DUP2 PUSH1 0xFF MUL NOT AND SWAP1 DUP4 PUSH1 0x1 DUP2 GT ISZERO PUSH2 0x53 JUMPI PUSH2 0x52 PUSH2 0x129 JUMP JUMPDEST JUMPDEST MUL OR SWAP1 SSTORE POP PUSH2 0x158 JUMP JUMPDEST PUSH1 0x0 CALLER SWAP1 POP SWAP1 JUMP JUMPDEST PUSH1 0x0 DUP1 PUSH1 0x0 SWAP1 SLOAD SWAP1 PUSH2 0x100 EXP SWAP1 DIV PUSH20 0xFFFFFFFFFFFFFFFFFFFFFFFFFFFFFFFFFFFFFFFF AND SWAP1 POP DUP2 PUSH1 0x0 DUP1 PUSH2 0x100 EXP DUP2 SLOAD DUP2 PUSH20 0xFFFFFFFFFFFFFFFFFFFFFFFFFFFFFFFFFFFFFFFF MUL NOT AND SWAP1 DUP4 PUSH20 0xFFFFFFFFFFFFFFFFFFFFFFFFFFFFFFFFFFFFFFFF AND MUL OR SWAP1 SSTORE POP DUP2 PUSH20 0xFFFFFFFFFFFFFFFFFFFFFFFFFFFFFFFFFFFFFFFF AND DUP2 PUSH20 0xFFFFFFFFFFFFFFFFFFFFFFFFFFFFFFFFFFFFFFFF AND PUSH32 0x8BE0079C531659141344CD1FD0A4F28419497F9722A3DAAFE3B4186F6B6457E0 PUSH1 0x40 MLOAD PUSH1 0x40 MLOAD DUP1 SWAP2 SUB SWAP1 LOG3 POP POP JUMP JUMPDEST PUSH32 0x4E487B7100000000000000000000000000000000000000000000000000000000 PUSH1 0x0 MSTORE PUSH1 0x21 PUSH1 0x4 MSTORE PUSH1 0x24 PUSH1 0x0 REVERT JUMPDEST PUSH2 0xFF6 DUP1 PUSH2 0x167 PUSH1 0x0 CODECOPY PUSH1 0x0 RETURN INVALID PUSH1 0x80 PUSH1 0x40 MSTORE PUSH1 0x4 CALLDATASIZE LT PUSH2 0xDD JUMPI PUSH1 0x0 CALLDATALOAD PUSH1 0xE0 SHR DUP1 PUSH4 0x8DA5CB5B GT PUSH2 0x7F JUMPI DUP1 PUSH4 0xD32DACC1 GT PUSH2 0x59 JUMPI DUP1 PUSH4 0xD32DACC1 EQ PUSH2 0x27A JUMPI DUP1 PUSH4 0xD811FCF0 EQ PUSH2 0x2A5 JUMPI DUP1 PUSH4 0xF2FDE38B EQ PUSH2 0x2D0 JUMPI DUP1 PUSH4 0xF5C609E0 EQ PUSH2 0x2F9 JUMPI PUSH2 0xDD JUMP JUMPDEST DUP1 PUSH4 0x8DA5CB5B EQ PUSH2 0x1F9 JUMPI DUP1 PUSH4 0xA035B1FE EQ PUSH2 0x224 JUMPI DUP1 PUSH4 0xAA8C217C EQ PUSH2 0x24F JUMPI PUSH2 0xDD JUMP JUMPDEST DUP1 PUSH4 0x6D86B8A5 GT PUSH2 0xBB JUMPI DUP1 PUSH4 0x6D86B8A5 EQ PUSH2 0x161 JUMPI DUP1 PUSH4 0x715018A6 EQ PUSH2 0x18C JUMPI DUP1 PUSH4 0x80F55605 EQ PUSH2 0x1A3 JUMPI DUP1 PUSH4 0x81BBFB61 EQ PUSH2 0x1CE JUMPI PUSH2 0xDD JUMP JUMPDEST DUP1 PUSH4 0x6FDDE03 EQ PUSH2 0xE2 JUMPI DUP1 PUSH4 0x530D124E EQ PUSH2 0x10D JUMPI DUP1 PUSH4 0x5F1F38AF EQ PUSH2 0x138 JUMPI JUMPDEST PUSH1 0x0 DUP1 REVERT JUMPDEST CALLVALUE DUP1 ISZERO PUSH2 0xEE JUMPI PUSH1 0x0 DUP1 REVERT JUMPDEST POP PUSH2 0xF7 PUSH2 0x303 JUMP JUMPDEST PUSH1 0x40 MLOAD PUSH2 0x104 SWAP2 SWAP1 PUSH2 0xC2C JUMP JUMPDEST PUSH1 0x40 MLOAD DUP1 SWAP2 SUB SWAP1 RETURN JUMPDEST CALLVALUE DUP1 ISZERO PUSH2 0x119 JUMPI PUSH1 0x0 DUP1 REVERT JUMPDEST POP PUSH2 0x122 PUSH2 0x309 JUMP JUMPDEST PUSH1 0x40 MLOAD PUSH2 0x12F SWAP2 SWAP1 PUSH2 0xC2C JUMP JUMPDEST PUSH1 0x40 MLOAD DUP1 SWAP2 SUB SWAP1 RETURN JUMPDEST CALLVALUE DUP1 ISZERO PUSH2 0x144 JUMPI PUSH1 0x0 DUP1 REVERT JUMPDEST POP PUSH2 0x15F PUSH1 0x4 DUP1 CALLDATASIZE SUB DUP2 ADD SWAP1 PUSH2 0x15A SWAP2 SWAP1 PUSH2 0x995 JUMP JUMPDEST PUSH2 0x30F JUMP JUMPDEST STOP JUMPDEST CALLVALUE DUP1 ISZERO PUSH2 0x16D JUMPI PUSH1 0x0 DUP1 REVERT JUMPDEST POP PUSH2 0x176 PUSH2 0x467 JUMP JUMPDEST PUSH1 0x40 MLOAD PUSH2 0x183 SWAP2 SWAP1 PUSH2 0xC2C JUMP JUMPDEST PUSH1 0x40 MLOAD DUP1 SWAP2 SUB SWAP1 RETURN JUMPDEST CALLVALUE DUP1 ISZERO PUSH2 0x198 JUMPI PUSH1 0x0 DUP1 REVERT JUMPDEST POP PUSH2 0x1A1 PUSH2 0x46D JUMP JUMPDEST STOP JUMPDEST CALLVALUE DUP1 ISZERO PUSH2 0x1AF JUMPI PUSH1 0x0 DUP1 REVERT JUMPDEST POP PUSH2 0x1B8 PUSH2 0x481 JUMP JUMPDEST PUSH1 0x40 MLOAD PUSH2 0x1C5 SWAP2 SWAP1 PUSH2 0xB36 JUMP JUMPDEST PUSH1 0x40 MLOAD DUP1 SWAP2 SUB SWAP1 RETURN JUMPDEST CALLVALUE DUP1 ISZERO PUSH2 0x1DA JUMPI PUSH1 0x0 DUP1 REVERT JUMPDEST POP PUSH2 0x1E3 PUSH2 0x4A7 JUMP JUMPDEST PUSH1 0x40 MLOAD PUSH2 0x1F0 SWAP2 SWAP1 PUSH2 0xB36 JUMP JUMPDEST PUSH1 0x40 MLOAD DUP1 SWAP2 SUB SWAP1 RETURN JUMPDEST CALLVALUE DUP1 ISZERO PUSH2 0x205 JUMPI PUSH1 0x0 DUP1 REVERT JUMPDEST POP PUSH2 0x20E PUSH2 0x4CD JUMP JUMPDEST PUSH1 0x40 MLOAD PUSH2 0x21B SWAP2 SWAP1 PUSH2 0xB36 JUMP JUMPDEST PUSH1 0x40 MLOAD DUP1 SWAP2 SUB SWAP1 RETURN JUMPDEST CALLVALUE DUP1 ISZERO PUSH2 0x230 JUMPI PUSH1 0x0 DUP1 REVERT JUMPDEST POP PUSH2 0x239 PUSH2 0x4F6 JUMP JUMPDEST PUSH1 0x40 MLOAD PUSH2 0x246 SWAP2 SWAP1 PUSH2 0xC2C JUMP JUMPDEST PUSH1 0x40 MLOAD DUP1 SWAP2 SUB SWAP1 RETURN JUMPDEST CALLVALUE DUP1 ISZERO PUSH2 0x25B JUMPI PUSH1 0x0 DUP1 REVERT JUMPDEST POP PUSH2 0x264 PUSH2 0x4FC JUMP JUMPDEST PUSH1 0x40 MLOAD PUSH2 0x271 SWAP2 SWAP1 PUSH2 0xB51 JUMP JUMPDEST PUSH1 0x40 MLOAD DUP1 SWAP2 SUB SWAP1 RETURN JUMPDEST CALLVALUE DUP1 ISZERO PUSH2 0x286 JUMPI PUSH1 0x0 DUP1 REVERT JUMPDEST POP PUSH2 0x28F PUSH2 0x502 JUMP JUMPDEST PUSH1 0x40 MLOAD PUSH2 0x29C SWAP2 SWAP1 PUSH2 0xB36 JUMP JUMPDEST PUSH1 0x40 MLOAD DUP1 SWAP2 SUB SWAP1 RETURN JUMPDEST CALLVALUE DUP1 ISZERO PUSH2 0x2B1 JUMPI PUSH1 0x0 DUP1 REVERT JUMPDEST POP PUSH2 0x2BA PUSH2 0x5F6 JUMP JUMPDEST PUSH1 0x40 MLOAD PUSH2 0x2C7 SWAP2 SWAP1 PUSH2 0xB36 JUMP JUMPDEST PUSH1 0x40 MLOAD DUP1 SWAP2 SUB SWAP1 RETURN JUMPDEST CALLVALUE DUP1 ISZERO PUSH2 0x2DC JUMPI PUSH1 0x0 DUP1 REVERT JUMPDEST POP PUSH2 0x2F7 PUSH1 0x4 DUP1 CALLDATASIZE SUB DUP2 ADD SWAP1 PUSH2 0x2F2 SWAP2 SWAP1 PUSH2 0x968 JUMP JUMPDEST PUSH2 0x61C JUMP JUMPDEST STOP JUMPDEST PUSH2 0x301 PUSH2 0x6A0 JUMP JUMPDEST STOP JUMPDEST PUSH1 0x5 SLOAD DUP2 JUMP JUMPDEST PUSH1 0x4 SLOAD DUP2 JUMP JUMPDEST PUSH1 0x0 PUSH1 0x1 DUP2 GT ISZERO PUSH2 0x323 JUMPI PUSH2 0x322 PUSH2 0xD5B JUMP JUMPDEST JUMPDEST PUSH1 0x9 PUSH1 0x14 SWAP1 SLOAD SWAP1 PUSH2 0x100 EXP SWAP1 DIV PUSH1 0xFF AND PUSH1 0x1 DUP2 GT ISZERO PUSH2 0x345 JUMPI PUSH2 0x344 PUSH2 0xD5B JUMP JUMPDEST JUMPDEST EQ PUSH2 0x385 JUMPI PUSH1 0x40 MLOAD PUSH32 0x8C379A000000000000000000000000000000000000000000000000000000000 DUP2 MSTORE PUSH1 0x4 ADD PUSH2 0x37C SWAP1 PUSH2 0xBAC JUMP JUMPDEST PUSH1 0x40 MLOAD DUP1 SWAP2 SUB SWAP1 REVERT JUMPDEST PUSH2 0x38E DUP8 PUSH2 0x7DF JUMP JUMPDEST CALLER PUSH1 0x2 PUSH1 0x0 PUSH2 0x100 EXP DUP2 SLOAD DUP2 PUSH20 0xFFFFFFFFFFFFFFFFFFFFFFFFFFFFFFFFFFFFFFFF MUL NOT AND SWAP1 DUP4 PUSH20 0xFFFFFFFFFFFFFFFFFFFFFFFFFFFFFFFFFFFFFFFF AND MUL OR SWAP1 SSTORE POP DUP2 PUSH1 0x4 DUP2 SWAP1 SSTORE POP DUP6 PUSH1 0x5 DUP2 SWAP1 SSTORE POP DUP5 PUSH1 0x6 DUP2 SWAP1 SSTORE POP DUP4 PUSH1 0x7 DUP2 SWAP1 SSTORE POP DUP3 PUSH1 0x8 DUP2 SWAP1 SSTORE POP DUP1 PUSH1 0x9 PUSH1 0x0 PUSH2 0x100 EXP DUP2 SLOAD DUP2 PUSH20 0xFFFFFFFFFFFFFFFFFFFFFFFFFFFFFFFFFFFFFFFF MUL NOT AND SWAP1 DUP4 PUSH20 0xFFFFFFFFFFFFFFFFFFFFFFFFFFFFFFFFFFFFFFFF AND MUL OR SWAP1 SSTORE POP PUSH1 0x1 PUSH1 0x9 PUSH1 0x14 PUSH2 0x100 EXP DUP2 SLOAD DUP2 PUSH1 0xFF MUL NOT AND SWAP1 DUP4 PUSH1 0x1 DUP2 GT ISZERO PUSH2 0x459 JUMPI PUSH2 0x458 PUSH2 0xD5B JUMP JUMPDEST JUMPDEST MUL OR SWAP1 SSTORE POP POP POP POP POP POP POP POP JUMP JUMPDEST PUSH1 0x7 SLOAD DUP2 JUMP JUMPDEST PUSH2 0x475 PUSH2 0x8A3 JUMP JUMPDEST PUSH2 0x47F PUSH1 0x0 PUSH2 0x7DF JUMP JUMPDEST JUMP JUMPDEST PUSH1 0x2 PUSH1 0x0 SWAP1 SLOAD SWAP1 PUSH2 0x100 EXP SWAP1 DIV PUSH20 0xFFFFFFFFFFFFFFFFFFFFFFFFFFFFFFFFFFFFFFFF AND DUP2 JUMP JUMPDEST PUSH1 0x9 PUSH1 0x0 SWAP1 SLOAD SWAP1 PUSH2 0x100 EXP SWAP1 DIV PUSH20 0xFFFFFFFFFFFFFFFFFFFFFFFFFFFFFFFFFFFFFFFF AND DUP2 JUMP JUMPDEST PUSH1 0x0 DUP1 PUSH1 0x0 SWAP1 SLOAD SWAP1 PUSH2 0x100 EXP SWAP1 DIV PUSH20 0xFFFFFFFFFFFFFFFFFFFFFFFFFFFFFFFFFFFFFFFF AND SWAP1 POP SWAP1 JUMP JUMPDEST PUSH1 0x6 SLOAD DUP2 JUMP JUMPDEST PUSH1 0x8 SLOAD DUP2 JUMP JUMPDEST PUSH1 0x0 PUSH2 0x50C PUSH2 0x8A3 JUMP JUMPDEST PUSH1 0x0 PUSH1 0x3 DUP1 SLOAD SWAP1 POP GT PUSH2 0x554 JUMPI PUSH1 0x40 MLOAD PUSH32 0x8C379A000000000000000000000000000000000000000000000000000000000 DUP2 MSTORE PUSH1 0x4 ADD PUSH2 0x54B SWAP1 PUSH2 0xC0C JUMP JUMPDEST PUSH1 0x40 MLOAD DUP1 SWAP2 SUB SWAP1 REVERT JUMPDEST PUSH1 0x0 PUSH1 0x3 PUSH1 0x1 PUSH1 0x3 DUP1 SLOAD SWAP1 POP PUSH2 0x56A SWAP2 SWAP1 PUSH2 0xCB2 JUMP JUMPDEST DUP2 SLOAD DUP2 LT PUSH2 0x57B JUMPI PUSH2 0x57A PUSH2 0xDB9 JUMP JUMPDEST JUMPDEST SWAP1 PUSH1 0x0 MSTORE PUSH1 0x20 PUSH1 0x0 KECCAK256 ADD PUSH1 0x0 SWAP1 SLOAD SWAP1 PUSH2 0x100 EXP SWAP1 DIV PUSH20 0xFFFFFFFFFFFFFFFFFFFFFFFFFFFFFFFFFFFFFFFF AND SWAP1 POP PUSH1 0x3 DUP1 SLOAD DUP1 PUSH2 0x5BA JUMPI PUSH2 0x5B9 PUSH2 0xD8A JUMP JUMPDEST JUMPDEST PUSH1 0x1 SWAP1 SUB DUP2 DUP2 SWAP1 PUSH1 0x0 MSTORE PUSH1 0x20 PUSH1 0x0 KECCAK256 ADD PUSH1 0x0 PUSH2 0x100 EXP DUP2 SLOAD SWAP1 PUSH20 0xFFFFFFFFFFFFFFFFFFFFFFFFFFFFFFFFFFFFFFFF MUL NOT AND SWAP1 SSTORE SWAP1 SSTORE DUP1 SWAP2 POP POP SWAP1 JUMP JUMPDEST PUSH1 0x1 PUSH1 0x0 SWAP1 SLOAD SWAP1 PUSH2 0x100 EXP SWAP1 DIV PUSH20 0xFFFFFFFFFFFFFFFFFFFFFFFFFFFFFFFFFFFFFFFF AND DUP2 JUMP JUMPDEST PUSH2 0x624 PUSH2 0x8A3 JUMP JUMPDEST PUSH1 0x0 PUSH20 0xFFFFFFFFFFFFFFFFFFFFFFFFFFFFFFFFFFFFFFFF AND DUP2 PUSH20 0xFFFFFFFFFFFFFFFFFFFFFFFFFFFFFFFFFFFFFFFF AND EQ ISZERO PUSH2 0x694 JUMPI PUSH1 0x40 MLOAD PUSH32 0x8C379A000000000000000000000000000000000000000000000000000000000 DUP2 MSTORE PUSH1 0x4 ADD PUSH2 0x68B SWAP1 PUSH2 0xB8C JUMP JUMPDEST PUSH1 0x40 MLOAD DUP1 SWAP2 SUB SWAP1 REVERT JUMPDEST PUSH2 0x69D DUP2 PUSH2 0x7DF JUMP JUMPDEST POP JUMP JUMPDEST PUSH2 0x6A8 PUSH2 0x4CD JUMP JUMPDEST PUSH20 0xFFFFFFFFFFFFFFFFFFFFFFFFFFFFFFFFFFFFFFFF AND CALLER PUSH20 0xFFFFFFFFFFFFFFFFFFFFFFFFFFFFFFFFFFFFFFFF AND EQ ISZERO PUSH2 0x716 JUMPI PUSH1 0x40 MLOAD PUSH32 0x8C379A000000000000000000000000000000000000000000000000000000000 DUP2 MSTORE PUSH1 0x4 ADD PUSH2 0x70D SWAP1 PUSH2 0xBCC JUMP JUMPDEST PUSH1 0x40 MLOAD DUP1 SWAP2 SUB SWAP1 REVERT JUMPDEST PUSH1 0x6 SLOAD PUSH1 0x7 SLOAD PUSH2 0x726 SWAP2 SWAP1 PUSH2 0xC58 JUMP JUMPDEST CALLVALUE EQ PUSH2 0x767 JUMPI PUSH1 0x40 MLOAD PUSH32 0x8C379A000000000000000000000000000000000000000000000000000000000 DUP2 MSTORE PUSH1 0x4 ADD PUSH2 0x75E SWAP1 PUSH2 0xB6C JUMP JUMPDEST PUSH1 0x40 MLOAD DUP1 SWAP2 SUB SWAP1 REVERT JUMPDEST PUSH1 0x4 SLOAD PUSH1 0x3 DUP1 SLOAD SWAP1 POP LT PUSH2 0x77A JUMPI PUSH1 0x0 DUP1 REVERT JUMPDEST PUSH1 0x3 CALLER SWAP1 DUP1 PUSH1 0x1 DUP2 SLOAD ADD DUP1 DUP3 SSTORE DUP1 SWAP2 POP POP PUSH1 0x1 SWAP1 SUB SWAP1 PUSH1 0x0 MSTORE PUSH1 0x20 PUSH1 0x0 KECCAK256 ADD PUSH1 0x0 SWAP1 SWAP2 SWAP1 SWAP2 SWAP1 SWAP2 PUSH2 0x100 EXP DUP2 SLOAD DUP2 PUSH20 0xFFFFFFFFFFFFFFFFFFFFFFFFFFFFFFFFFFFFFFFF MUL NOT AND SWAP1 DUP4 PUSH20 0xFFFFFFFFFFFFFFFFFFFFFFFFFFFFFFFFFFFFFFFF AND MUL OR SWAP1 SSTORE POP JUMP JUMPDEST PUSH1 0x0 DUP1 PUSH1 0x0 SWAP1 SLOAD SWAP1 PUSH2 0x100 EXP SWAP1 DIV PUSH20 0xFFFFFFFFFFFFFFFFFFFFFFFFFFFFFFFFFFFFFFFF AND SWAP1 POP DUP2 PUSH1 0x0 DUP1 PUSH2 0x100 EXP DUP2 SLOAD DUP2 PUSH20 0xFFFFFFFFFFFFFFFFFFFFFFFFFFFFFFFFFFFFFFFF MUL NOT AND SWAP1 DUP4 PUSH20 0xFFFFFFFFFFFFFFFFFFFFFFFFFFFFFFFFFFFFFFFF AND MUL OR SWAP1 SSTORE POP DUP2 PUSH20 0xFFFFFFFFFFFFFFFFFFFFFFFFFFFFFFFFFFFFFFFF AND DUP2 PUSH20 0xFFFFFFFFFFFFFFFFFFFFFFFFFFFFFFFFFFFFFFFF AND PUSH32 0x8BE0079C531659141344CD1FD0A4F28419497F9722A3DAAFE3B4186F6B6457E0 PUSH1 0x40 MLOAD PUSH1 0x40 MLOAD DUP1 SWAP2 SUB SWAP1 LOG3 POP POP JUMP JUMPDEST PUSH2 0x8AB PUSH2 0x921 JUMP JUMPDEST PUSH20 0xFFFFFFFFFFFFFFFFFFFFFFFFFFFFFFFFFFFFFFFF AND PUSH2 0x8C9 PUSH2 0x4CD JUMP JUMPDEST PUSH20 0xFFFFFFFFFFFFFFFFFFFFFFFFFFFFFFFFFFFFFFFF AND EQ PUSH2 0x91F JUMPI PUSH1 0x40 MLOAD PUSH32 0x8C379A000000000000000000000000000000000000000000000000000000000 DUP2 MSTORE PUSH1 0x4 ADD PUSH2 0x916 SWAP1 PUSH2 0xBEC JUMP JUMPDEST PUSH1 0x40 MLOAD DUP1 SWAP2 SUB SWAP1 REVERT JUMPDEST JUMP JUMPDEST PUSH1 0x0 CALLER SWAP1 POP SWAP1 JUMP JUMPDEST PUSH1 0x0 DUP2 CALLDATALOAD SWAP1 POP PUSH2 0x938 DUP2 PUSH2 0xF7B JUMP JUMPDEST SWAP3 SWAP2 POP POP JUMP JUMPDEST PUSH1 0x0 DUP2 CALLDATALOAD SWAP1 POP PUSH2 0x94D DUP2 PUSH2 0xF92 JUMP JUMPDEST SWAP3 SWAP2 POP POP JUMP JUMPDEST PUSH1 0x0 DUP2 CALLDATALOAD SWAP1 POP PUSH2 0x962 DUP2 PUSH2 0xFA9 JUMP JUMPDEST SWAP3 SWAP2 POP POP JUMP JUMPDEST PUSH1 0x0 PUSH1 0x20 DUP3 DUP5 SUB SLT ISZERO PUSH2 0x97E JUMPI PUSH2 0x97D PUSH2 0xDE8 JUMP JUMPDEST JUMPDEST PUSH1 0x0 PUSH2 0x98C DUP5 DUP3 DUP6 ADD PUSH2 0x929 JUMP JUMPDEST SWAP2 POP POP SWAP3 SWAP2 POP POP JUMP JUMPDEST PUSH1 0x0 DUP1 PUSH1 0x0 DUP1 PUSH1 0x0 DUP1 PUSH1 0x0 PUSH1 0xE0 DUP9 DUP11 SUB SLT ISZERO PUSH2 0x9B4 JUMPI PUSH2 0x9B3 PUSH2 0xDE8 JUMP JUMPDEST JUMPDEST PUSH1 0x0 PUSH2 0x9C2 DUP11 DUP3 DUP12 ADD PUSH2 0x929 JUMP JUMPDEST SWAP8 POP POP PUSH1 0x20 PUSH2 0x9D3 DUP11 DUP3 DUP12 ADD PUSH2 0x953 JUMP JUMPDEST SWAP7 POP POP PUSH1 0x40 PUSH2 0x9E4 DUP11 DUP3 DUP12 ADD PUSH2 0x953 JUMP JUMPDEST SWAP6 POP POP PUSH1 0x60 PUSH2 0x9F5 DUP11 DUP3 DUP12 ADD PUSH2 0x953 JUMP JUMPDEST SWAP5 POP POP PUSH1 0x80 PUSH2 0xA06 DUP11 DUP3 DUP12 ADD PUSH2 0x93E JUMP JUMPDEST SWAP4 POP POP PUSH1 0xA0 PUSH2 0xA17 DUP11 DUP3 DUP12 ADD PUSH2 0x953 JUMP JUMPDEST SWAP3 POP POP PUSH1 0xC0 PUSH2 0xA28 DUP11 DUP3 DUP12 ADD PUSH2 0x929 JUMP JUMPDEST SWAP2 POP POP SWAP3 SWAP6 SWAP9 SWAP2 SWAP5 SWAP8 POP SWAP3 SWAP6 POP JUMP JUMPDEST PUSH2 0xA40 DUP2 PUSH2 0xCE6 JUMP JUMPDEST DUP3 MSTORE POP POP JUMP JUMPDEST PUSH2 0xA4F DUP2 PUSH2 0xCF8 JUMP JUMPDEST DUP3 MSTORE POP POP JUMP JUMPDEST PUSH1 0x0 PUSH2 0xA62 PUSH1 0x27 DUP4 PUSH2 0xC47 JUMP JUMPDEST SWAP2 POP PUSH2 0xA6D DUP3 PUSH2 0xDED JUMP JUMPDEST PUSH1 0x40 DUP3 ADD SWAP1 POP SWAP2 SWAP1 POP JUMP JUMPDEST PUSH1 0x0 PUSH2 0xA85 PUSH1 0x26 DUP4 PUSH2 0xC47 JUMP JUMPDEST SWAP2 POP PUSH2 0xA90 DUP3 PUSH2 0xE3C JUMP JUMPDEST PUSH1 0x40 DUP3 ADD SWAP1 POP SWAP2 SWAP1 POP JUMP JUMPDEST PUSH1 0x0 PUSH2 0xAA8 PUSH1 0x28 DUP4 PUSH2 0xC47 JUMP JUMPDEST SWAP2 POP PUSH2 0xAB3 DUP3 PUSH2 0xE8B JUMP JUMPDEST PUSH1 0x40 DUP3 ADD SWAP1 POP SWAP2 SWAP1 POP JUMP JUMPDEST PUSH1 0x0 PUSH2 0xACB PUSH1 0x2F DUP4 PUSH2 0xC47 JUMP JUMPDEST SWAP2 POP PUSH2 0xAD6 DUP3 PUSH2 0xEDA JUMP JUMPDEST PUSH1 0x40 DUP3 ADD SWAP1 POP SWAP2 SWAP1 POP JUMP JUMPDEST PUSH1 0x0 PUSH2 0xAEE PUSH1 0x20 DUP4 PUSH2 0xC47 JUMP JUMPDEST SWAP2 POP PUSH2 0xAF9 DUP3 PUSH2 0xF29 JUMP JUMPDEST PUSH1 0x20 DUP3 ADD SWAP1 POP SWAP2 SWAP1 POP JUMP JUMPDEST PUSH1 0x0 PUSH2 0xB11 PUSH1 0x11 DUP4 PUSH2 0xC47 JUMP JUMPDEST SWAP2 POP PUSH2 0xB1C DUP3 PUSH2 0xF52 JUMP JUMPDEST PUSH1 0x20 DUP3 ADD SWAP1 POP SWAP2 SWAP1 POP JUMP JUMPDEST PUSH2 0xB30 DUP2 PUSH2 0xD22 JUMP JUMPDEST DUP3 MSTORE POP POP JUMP JUMPDEST PUSH1 0x0 PUSH1 0x20 DUP3 ADD SWAP1 POP PUSH2 0xB4B PUSH1 0x0 DUP4 ADD DUP5 PUSH2 0xA37 JUMP JUMPDEST SWAP3 SWAP2 POP POP JUMP JUMPDEST PUSH1 0x0 PUSH1 0x20 DUP3 ADD SWAP1 POP PUSH2 0xB66 PUSH1 0x0 DUP4 ADD DUP5 PUSH2 0xA46 JUMP JUMPDEST SWAP3 SWAP2 POP POP JUMP JUMPDEST PUSH1 0x0 PUSH1 0x20 DUP3 ADD SWAP1 POP DUP2 DUP2 SUB PUSH1 0x0 DUP4 ADD MSTORE PUSH2 0xB85 DUP2 PUSH2 0xA55 JUMP JUMPDEST SWAP1 POP SWAP2 SWAP1 POP JUMP JUMPDEST PUSH1 0x0 PUSH1 0x20 DUP3 ADD SWAP1 POP DUP2 DUP2 SUB PUSH1 0x0 DUP4 ADD MSTORE PUSH2 0xBA5 DUP2 PUSH2 0xA78 JUMP JUMPDEST SWAP1 POP SWAP2 SWAP1 POP JUMP JUMPDEST PUSH1 0x0 PUSH1 0x20 DUP3 ADD SWAP1 POP DUP2 DUP2 SUB PUSH1 0x0 DUP4 ADD MSTORE PUSH2 0xBC5 DUP2 PUSH2 0xA9B JUMP JUMPDEST SWAP1 POP SWAP2 SWAP1 POP JUMP JUMPDEST PUSH1 0x0 PUSH1 0x20 DUP3 ADD SWAP1 POP DUP2 DUP2 SUB PUSH1 0x0 DUP4 ADD MSTORE PUSH2 0xBE5 DUP2 PUSH2 0xABE JUMP JUMPDEST SWAP1 POP SWAP2 SWAP1 POP JUMP JUMPDEST PUSH1 0x0 PUSH1 0x20 DUP3 ADD SWAP1 POP DUP2 DUP2 SUB PUSH1 0x0 DUP4 ADD MSTORE PUSH2 0xC05 DUP2 PUSH2 0xAE1 JUMP JUMPDEST SWAP1 POP SWAP2 SWAP1 POP JUMP JUMPDEST PUSH1 0x0 PUSH1 0x20 DUP3 ADD SWAP1 POP DUP2 DUP2 SUB PUSH1 0x0 DUP4 ADD MSTORE PUSH2 0xC25 DUP2 PUSH2 0xB04 JUMP JUMPDEST SWAP1 POP SWAP2 SWAP1 POP JUMP JUMPDEST PUSH1 0x0 PUSH1 0x20 DUP3 ADD SWAP1 POP PUSH2 0xC41 PUSH1 0x0 DUP4 ADD DUP5 PUSH2 0xB27 JUMP JUMPDEST SWAP3 SWAP2 POP POP JUMP JUMPDEST PUSH1 0x0 DUP3 DUP3 MSTORE PUSH1 0x20 DUP3 ADD SWAP1 POP SWAP3 SWAP2 POP POP JUMP JUMPDEST PUSH1 0x0 PUSH2 0xC63 DUP3 PUSH2 0xD22 JUMP JUMPDEST SWAP2 POP PUSH2 0xC6E DUP4 PUSH2 0xD22 JUMP JUMPDEST SWAP3 POP DUP2 PUSH32 0xFFFFFFFFFFFFFFFFFFFFFFFFFFFFFFFFFFFFFFFFFFFFFFFFFFFFFFFFFFFFFFFF DIV DUP4 GT DUP3 ISZERO ISZERO AND ISZERO PUSH2 0xCA7 JUMPI PUSH2 0xCA6 PUSH2 0xD2C JUMP JUMPDEST JUMPDEST DUP3 DUP3 MUL SWAP1 POP SWAP3 SWAP2 POP POP JUMP JUMPDEST PUSH1 0x0 PUSH2 0xCBD DUP3 PUSH2 0xD22 JUMP JUMPDEST SWAP2 POP PUSH2 0xCC8 DUP4 PUSH2 0xD22 JUMP JUMPDEST SWAP3 POP DUP3 DUP3 LT ISZERO PUSH2 0xCDB JUMPI PUSH2 0xCDA PUSH2 0xD2C JUMP JUMPDEST JUMPDEST DUP3 DUP3 SUB SWAP1 POP SWAP3 SWAP2 POP POP JUMP JUMPDEST PUSH1 0x0 PUSH2 0xCF1 DUP3 PUSH2 0xD02 JUMP JUMPDEST SWAP1 POP SWAP2 SWAP1 POP JUMP JUMPDEST PUSH1 0x0 DUP2 SWAP1 POP SWAP2 SWAP1 POP JUMP JUMPDEST PUSH1 0x0 PUSH20 0xFFFFFFFFFFFFFFFFFFFFFFFFFFFFFFFFFFFFFFFF DUP3 AND SWAP1 POP SWAP2 SWAP1 POP JUMP JUMPDEST PUSH1 0x0 DUP2 SWAP1 POP SWAP2 SWAP1 POP JUMP JUMPDEST PUSH32 0x4E487B7100000000000000000000000000000000000000000000000000000000 PUSH1 0x0 MSTORE PUSH1 0x11 PUSH1 0x4 MSTORE PUSH1 0x24 PUSH1 0x0 REVERT JUMPDEST PUSH32 0x4E487B7100000000000000000000000000000000000000000000000000000000 PUSH1 0x0 MSTORE PUSH1 0x21 PUSH1 0x4 MSTORE PUSH1 0x24 PUSH1 0x0 REVERT JUMPDEST PUSH32 0x4E487B7100000000000000000000000000000000000000000000000000000000 PUSH1 0x0 MSTORE PUSH1 0x31 PUSH1 0x4 MSTORE PUSH1 0x24 PUSH1 0x0 REVERT JUMPDEST PUSH32 0x4E487B7100000000000000000000000000000000000000000000000000000000 PUSH1 0x0 MSTORE PUSH1 0x32 PUSH1 0x4 MSTORE PUSH1 0x24 PUSH1 0x0 REVERT JUMPDEST PUSH1 0x0 DUP1 REVERT JUMPDEST PUSH32 0x6F72646572206D757374206265206F6620636F72726563742073697A6520616E PUSH1 0x0 DUP3 ADD MSTORE PUSH32 0x6420707269636500000000000000000000000000000000000000000000000000 PUSH1 0x20 DUP3 ADD MSTORE POP JUMP JUMPDEST PUSH32 0x4F776E61626C653A206E6577206F776E657220697320746865207A65726F2061 PUSH1 0x0 DUP3 ADD MSTORE PUSH32 0x6464726573730000000000000000000000000000000000000000000000000000 PUSH1 0x20 DUP3 ADD MSTORE POP JUMP JUMPDEST PUSH32 0x546869732070726F647563652068617320616C7265616479206265656E20696E PUSH1 0x0 DUP3 ADD MSTORE PUSH32 0x6974696C697A6564000000000000000000000000000000000000000000000000 PUSH1 0x20 DUP3 ADD MSTORE POP JUMP JUMPDEST PUSH32 0x6661726D65722063616E6E6F7420706C616365206F7264657220666F72207468 PUSH1 0x0 DUP3 ADD MSTORE PUSH32 0x656972206F776E2070726F647563650000000000000000000000000000000000 PUSH1 0x20 DUP3 ADD MSTORE POP JUMP JUMPDEST PUSH32 0x4F776E61626C653A2063616C6C6572206973206E6F7420746865206F776E6572 PUSH1 0x0 DUP3 ADD MSTORE POP JUMP JUMPDEST PUSH32 0x4E6F206F726465727320746F2074616B65000000000000000000000000000000 PUSH1 0x0 DUP3 ADD MSTORE POP JUMP JUMPDEST PUSH2 0xF84 DUP2 PUSH2 0xCE6 JUMP JUMPDEST DUP2 EQ PUSH2 0xF8F JUMPI PUSH1 0x0 DUP1 REVERT JUMPDEST POP JUMP JUMPDEST PUSH2 0xF9B DUP2 PUSH2 0xCF8 JUMP JUMPDEST DUP2 EQ PUSH2 0xFA6 JUMPI PUSH1 0x0 DUP1 REVERT JUMPDEST POP JUMP JUMPDEST PUSH2 0xFB2 DUP2 PUSH2 0xD22 JUMP JUMPDEST DUP2 EQ PUSH2 0xFBD JUMPI PUSH1 0x0 DUP1 REVERT JUMPDEST POP JUMP INVALID LOG2 PUSH5 0x6970667358 0x22 SLT KECCAK256 INVALID 0x2F DUP2 EXTCODECOPY 0xE2 BLOCKHASH SELFBALANCE DUP11 ADDRESS CREATE2 0xD4 0xD2 0xDA SWAP7 SWAP7 0xE5 DUP10 SWAP2 PUSH31 0xFC61330B52B09D6865DDBC802B64736F6C6343000807003300000000000000 "
				},
				"gasEstimates": {
					"creation": {
						"codeDepositCost": "499200",
						"executionCost": "infinite",
						"totalCost": "infinite"
					},
					"external": {
						"addProduce(uint256,uint256,uint256,bytes32,uint256,address)": "infinite",
						"farmerList(address)": "2867",
						"removeProduce(address)": "infinite"
					}
				},
				"methodIdentifiers": {
					"addProduce(uint256,uint256,uint256,bytes32,uint256,address)": "7cfc97be",
					"farmerList(address)": "a1d861a9",
					"removeProduce(address)": "7b6833c3"
				}
			},
			"storageLayout": {
				"storage": [
					{
						"astId": 352,
						"contract": "contracts/MarketWithNoLeader.sol:MarketWithNoLeader",
						"label": "produceAddresses",
						"offset": 0,
						"slot": "0",
						"type": "t_array(t_address)dyn_storage"
					},
					{
						"astId": 356,
						"contract": "contracts/MarketWithNoLeader.sol:MarketWithNoLeader",
						"label": "produceList",
						"offset": 0,
						"slot": "1",
						"type": "t_mapping(t_address,t_bool)"
					},
					{
						"astId": 360,
						"contract": "contracts/MarketWithNoLeader.sol:MarketWithNoLeader",
						"label": "farmerList",
						"offset": 0,
						"slot": "2",
						"type": "t_mapping(t_address,t_bool)"
					}
				],
				"types": {
					"t_address": {
						"encoding": "inplace",
						"label": "address",
						"numberOfBytes": "20"
					},
					"t_array(t_address)dyn_storage": {
						"base": "t_address",
						"encoding": "dynamic_array",
						"label": "address[]",
						"numberOfBytes": "32"
					},
					"t_bool": {
						"encoding": "inplace",
						"label": "bool",
						"numberOfBytes": "1"
					},
					"t_mapping(t_address,t_bool)": {
						"encoding": "mapping",
						"key": "t_address",
						"label": "mapping(address => bool)",
						"numberOfBytes": "32",
						"value": "t_bool"
					}
				}
			},
			"userdoc": {
				"kind": "user",
				"methods": {},
				"version": 1
			}
		}
	}
}