{
	"contracts/Produce.sol": {
		"Produce": {
			"abi": [
				{
					"inputs": [],
					"stateMutability": "nonpayable",
					"type": "constructor"
				},
				{
					"anonymous": false,
					"inputs": [
						{
							"indexed": true,
							"internalType": "address",
							"name": "previousOwner",
							"type": "address"
						},
						{
							"indexed": true,
							"internalType": "address",
							"name": "newOwner",
							"type": "address"
						}
					],
					"name": "OwnershipTransferred",
					"type": "event"
				},
				{
					"inputs": [],
					"name": "amount",
					"outputs": [
						{
							"internalType": "bytes32",
							"name": "",
							"type": "bytes32"
						}
					],
					"stateMutability": "view",
					"type": "function"
				},
				{
					"inputs": [],
					"name": "deliverer",
					"outputs": [
						{
							"internalType": "address",
							"name": "",
							"type": "address"
						}
					],
					"stateMutability": "view",
					"type": "function"
				},
				{
					"inputs": [],
					"name": "farmer",
					"outputs": [
						{
							"internalType": "address",
							"name": "",
							"type": "address"
						}
					],
					"stateMutability": "view",
					"type": "function"
				},
				{
					"inputs": [
						{
							"internalType": "address",
							"name": "_farmer",
							"type": "address"
						},
						{
							"internalType": "uint256",
							"name": "_name",
							"type": "uint256"
						},
						{
							"internalType": "uint256",
							"name": "_price",
							"type": "uint256"
						},
						{
							"internalType": "uint256",
							"name": "_orderSize",
							"type": "uint256"
						},
						{
							"internalType": "bytes32",
							"name": "_amount",
							"type": "bytes32"
						},
						{
							"internalType": "uint256",
							"name": "_limitOnPendingOrders",
							"type": "uint256"
						},
						{
							"internalType": "address",
							"name": "_delivererOfProduce",
							"type": "address"
						}
					],
					"name": "initilize",
					"outputs": [],
					"stateMutability": "nonpayable",
					"type": "function"
				},
				{
					"inputs": [],
					"name": "limitOnPendingOrders",
					"outputs": [
						{
							"internalType": "uint256",
							"name": "",
							"type": "uint256"
						}
					],
					"stateMutability": "view",
					"type": "function"
				},
				{
					"inputs": [],
					"name": "market",
					"outputs": [
						{
							"internalType": "address",
							"name": "",
							"type": "address"
						}
					],
					"stateMutability": "view",
					"type": "function"
				},
				{
					"inputs": [],
					"name": "name",
					"outputs": [
						{
							"internalType": "uint256",
							"name": "",
							"type": "uint256"
						}
					],
					"stateMutability": "view",
					"type": "function"
				},
				{
					"inputs": [],
					"name": "orderSize",
					"outputs": [
						{
							"internalType": "uint256",
							"name": "",
							"type": "uint256"
						}
					],
					"stateMutability": "view",
					"type": "function"
				},
				{
					"inputs": [],
					"name": "owner",
					"outputs": [
						{
							"internalType": "address",
							"name": "",
							"type": "address"
						}
					],
					"stateMutability": "view",
					"type": "function"
				},
				{
					"inputs": [],
					"name": "placeOrder",
					"outputs": [],
					"stateMutability": "payable",
					"type": "function"
				},
				{
					"inputs": [],
					"name": "price",
					"outputs": [
						{
							"internalType": "uint256",
							"name": "",
							"type": "uint256"
						}
					],
					"stateMutability": "view",
					"type": "function"
				},
				{
					"inputs": [],
					"name": "renounceOwnership",
					"outputs": [],
					"stateMutability": "nonpayable",
					"type": "function"
				},
				{
					"inputs": [],
					"name": "takeOrder",
					"outputs": [
						{
							"internalType": "address",
							"name": "order",
							"type": "address"
						}
					],
					"stateMutability": "nonpayable",
					"type": "function"
				},
				{
					"inputs": [
						{
							"internalType": "address",
							"name": "newOwner",
							"type": "address"
						}
					],
					"name": "transferOwnership",
					"outputs": [],
					"stateMutability": "nonpayable",
					"type": "function"
				}
			],
			"devdoc": {
				"kind": "dev",
				"methods": {
					"owner()": {
						"details": "Returns the address of the current owner."
					},
					"renounceOwnership()": {
						"details": "Leaves the contract without owner. It will not be possible to call `onlyOwner` functions anymore. Can only be called by the current owner. NOTE: Renouncing ownership will leave the contract without an owner, thereby removing any functionality that is only available to the owner."
					},
					"transferOwnership(address)": {
						"details": "Transfers ownership of the contract to a new account (`newOwner`). Can only be called by the current owner."
					}
				},
				"version": 1
			},
			"evm": {
				"assembly": "    /* \"contracts/Produce.sol\":140:1964  contract Produce is Ownable{... */\n  mstore(0x40, 0x80)\n    /* \"contracts/Produce.sol\":529:587  constructor() {... */\n  callvalue\n  dup1\n  iszero\n  tag_1\n  jumpi\n  0x00\n  dup1\n  revert\ntag_1:\n  pop\n    /* \"@openzeppelin/contracts/access/Ownable.sol\":936:968  _transferOwnership(_msgSender()) */\n  tag_5\n    /* \"@openzeppelin/contracts/access/Ownable.sol\":955:967  _msgSender() */\n  tag_6\n    /* \"@openzeppelin/contracts/access/Ownable.sol\":955:965  _msgSender */\n  shl(0x20, tag_7)\n    /* \"@openzeppelin/contracts/access/Ownable.sol\":955:967  _msgSender() */\n  0x20\n  shr\n  jump\t// in\ntag_6:\n    /* \"@openzeppelin/contracts/access/Ownable.sol\":936:954  _transferOwnership */\n  shl(0x20, tag_8)\n    /* \"@openzeppelin/contracts/access/Ownable.sol\":936:968  _transferOwnership(_msgSender()) */\n  0x20\n  shr\n  jump\t// in\ntag_5:\n    /* \"contracts/Produce.sol\":561:580  State.UNINITIALIZED */\n  0x00\n    /* \"contracts/Produce.sol\":553:558  state */\n  0x09\n  0x14\n    /* \"contracts/Produce.sol\":553:580  state = State.UNINITIALIZED */\n  0x0100\n  exp\n  dup2\n  sload\n  dup2\n  0xff\n  mul\n  not\n  and\n  swap1\n  dup4\n  0x01\n  dup2\n  gt\n  iszero\n  tag_10\n  jumpi\n  tag_11\n  tag_12\n  jump\t// in\ntag_11:\ntag_10:\n  mul\n  or\n  swap1\n  sstore\n  pop\n    /* \"contracts/Produce.sol\":140:1964  contract Produce is Ownable{... */\n  jump(tag_13)\n    /* \"@openzeppelin/contracts/utils/Context.sol\":640:736  function _msgSender() internal view virtual returns (address) {... */\ntag_7:\n    /* \"@openzeppelin/contracts/utils/Context.sol\":693:700  address */\n  0x00\n    /* \"@openzeppelin/contracts/utils/Context.sol\":719:729  msg.sender */\n  caller\n    /* \"@openzeppelin/contracts/utils/Context.sol\":712:729  return msg.sender */\n  swap1\n  pop\n    /* \"@openzeppelin/contracts/utils/Context.sol\":640:736  function _msgSender() internal view virtual returns (address) {... */\n  swap1\n  jump\t// out\n    /* \"@openzeppelin/contracts/access/Ownable.sol\":2433:2620  function _transferOwnership(address newOwner) internal virtual {... */\ntag_8:\n    /* \"@openzeppelin/contracts/access/Ownable.sol\":2506:2522  address oldOwner */\n  0x00\n    /* \"@openzeppelin/contracts/access/Ownable.sol\":2525:2531  _owner */\n  dup1\n  0x00\n  swap1\n  sload\n  swap1\n  0x0100\n  exp\n  swap1\n  div\n  0xffffffffffffffffffffffffffffffffffffffff\n  and\n    /* \"@openzeppelin/contracts/access/Ownable.sol\":2506:2531  address oldOwner = _owner */\n  swap1\n  pop\n    /* \"@openzeppelin/contracts/access/Ownable.sol\":2550:2558  newOwner */\n  dup2\n    /* \"@openzeppelin/contracts/access/Ownable.sol\":2541:2547  _owner */\n  0x00\n  dup1\n    /* \"@openzeppelin/contracts/access/Ownable.sol\":2541:2558  _owner = newOwner */\n  0x0100\n  exp\n  dup2\n  sload\n  dup2\n  0xffffffffffffffffffffffffffffffffffffffff\n  mul\n  not\n  and\n  swap1\n  dup4\n  0xffffffffffffffffffffffffffffffffffffffff\n  and\n  mul\n  or\n  swap1\n  sstore\n  pop\n    /* \"@openzeppelin/contracts/access/Ownable.sol\":2604:2612  newOwner */\n  dup2\n    /* \"@openzeppelin/contracts/access/Ownable.sol\":2573:2613  OwnershipTransferred(oldOwner, newOwner) */\n  0xffffffffffffffffffffffffffffffffffffffff\n  and\n    /* \"@openzeppelin/contracts/access/Ownable.sol\":2594:2602  oldOwner */\n  dup2\n    /* \"@openzeppelin/contracts/access/Ownable.sol\":2573:2613  OwnershipTransferred(oldOwner, newOwner) */\n  0xffffffffffffffffffffffffffffffffffffffff\n  and\n  0x8be0079c531659141344cd1fd0a4f28419497f9722a3daafe3b4186f6b6457e0\n  mload(0x40)\n  mload(0x40)\n  dup1\n  swap2\n  sub\n  swap1\n  log3\n    /* \"@openzeppelin/contracts/access/Ownable.sol\":2496:2620  {... */\n  pop\n    /* \"@openzeppelin/contracts/access/Ownable.sol\":2433:2620  function _transferOwnership(address newOwner) internal virtual {... */\n  pop\n  jump\t// out\n    /* \"#utility.yul\":7:187   */\ntag_12:\n    /* \"#utility.yul\":55:132   */\n  0x4e487b7100000000000000000000000000000000000000000000000000000000\n    /* \"#utility.yul\":52:53   */\n  0x00\n    /* \"#utility.yul\":45:133   */\n  mstore\n    /* \"#utility.yul\":152:156   */\n  0x21\n    /* \"#utility.yul\":149:150   */\n  0x04\n    /* \"#utility.yul\":142:157   */\n  mstore\n    /* \"#utility.yul\":176:180   */\n  0x24\n    /* \"#utility.yul\":173:174   */\n  0x00\n    /* \"#utility.yul\":166:181   */\n  revert\n    /* \"contracts/Produce.sol\":140:1964  contract Produce is Ownable{... */\ntag_13:\n  dataSize(sub_0)\n  dup1\n  dataOffset(sub_0)\n  0x00\n  codecopy\n  0x00\n  return\nstop\n\nsub_0: assembly {\n        /* \"contracts/Produce.sol\":140:1964  contract Produce is Ownable{... */\n      mstore(0x40, 0x80)\n      jumpi(tag_1, lt(calldatasize, 0x04))\n      shr(0xe0, calldataload(0x00))\n      dup1\n      0x8da5cb5b\n      gt\n      tag_16\n      jumpi\n      dup1\n      0xd32dacc1\n      gt\n      tag_17\n      jumpi\n      dup1\n      0xd32dacc1\n      eq\n      tag_12\n      jumpi\n      dup1\n      0xd811fcf0\n      eq\n      tag_13\n      jumpi\n      dup1\n      0xf2fde38b\n      eq\n      tag_14\n      jumpi\n      dup1\n      0xf5c609e0\n      eq\n      tag_15\n      jumpi\n      jump(tag_1)\n    tag_17:\n      dup1\n      0x8da5cb5b\n      eq\n      tag_9\n      jumpi\n      dup1\n      0xa035b1fe\n      eq\n      tag_10\n      jumpi\n      dup1\n      0xaa8c217c\n      eq\n      tag_11\n      jumpi\n      jump(tag_1)\n    tag_16:\n      dup1\n      0x6d86b8a5\n      gt\n      tag_18\n      jumpi\n      dup1\n      0x6d86b8a5\n      eq\n      tag_5\n      jumpi\n      dup1\n      0x715018a6\n      eq\n      tag_6\n      jumpi\n      dup1\n      0x80f55605\n      eq\n      tag_7\n      jumpi\n      dup1\n      0x81bbfb61\n      eq\n      tag_8\n      jumpi\n      jump(tag_1)\n    tag_18:\n      dup1\n      0x06fdde03\n      eq\n      tag_2\n      jumpi\n      dup1\n      0x530d124e\n      eq\n      tag_3\n      jumpi\n      dup1\n      0x5f1f38af\n      eq\n      tag_4\n      jumpi\n    tag_1:\n      0x00\n      dup1\n      revert\n        /* \"contracts/Produce.sol\":299:318  uint256 public name */\n    tag_2:\n      callvalue\n      dup1\n      iszero\n      tag_19\n      jumpi\n      0x00\n      dup1\n      revert\n    tag_19:\n      pop\n      tag_20\n      tag_21\n      jump\t// in\n    tag_20:\n      mload(0x40)\n      tag_22\n      swap2\n      swap1\n      tag_23\n      jump\t// in\n    tag_22:\n      mload(0x40)\n      dup1\n      swap2\n      sub\n      swap1\n      return\n        /* \"contracts/Produce.sol\":257:292  uint256 public limitOnPendingOrders */\n    tag_3:\n      callvalue\n      dup1\n      iszero\n      tag_24\n      jumpi\n      0x00\n      dup1\n      revert\n    tag_24:\n      pop\n      tag_25\n      tag_26\n      jump\t// in\n    tag_25:\n      mload(0x40)\n      tag_27\n      swap2\n      swap1\n      tag_23\n      jump\t// in\n    tag_27:\n      mload(0x40)\n      dup1\n      swap2\n      sub\n      swap1\n      return\n        /* \"contracts/Produce.sol\":593:1223  function initilize(... */\n    tag_4:\n      callvalue\n      dup1\n      iszero\n      tag_28\n      jumpi\n      0x00\n      dup1\n      revert\n    tag_28:\n      pop\n      tag_29\n      0x04\n      dup1\n      calldatasize\n      sub\n      dup2\n      add\n      swap1\n      tag_30\n      swap2\n      swap1\n      tag_31\n      jump\t// in\n    tag_30:\n      tag_32\n      jump\t// in\n    tag_29:\n      stop\n        /* \"contracts/Produce.sol\":350:374  uint256 public orderSize */\n    tag_5:\n      callvalue\n      dup1\n      iszero\n      tag_33\n      jumpi\n      0x00\n      dup1\n      revert\n    tag_33:\n      pop\n      tag_34\n      tag_35\n      jump\t// in\n    tag_34:\n      mload(0x40)\n      tag_36\n      swap2\n      swap1\n      tag_23\n      jump\t// in\n    tag_36:\n      mload(0x40)\n      dup1\n      swap2\n      sub\n      swap1\n      return\n        /* \"@openzeppelin/contracts/access/Ownable.sol\":1831:1932  function renounceOwnership() public virtual onlyOwner {... */\n    tag_6:\n      callvalue\n      dup1\n      iszero\n      tag_37\n      jumpi\n      0x00\n      dup1\n      revert\n    tag_37:\n      pop\n      tag_38\n      tag_39\n      jump\t// in\n    tag_38:\n      stop\n        /* \"contracts/Produce.sol\":200:221  address public market */\n    tag_7:\n      callvalue\n      dup1\n      iszero\n      tag_40\n      jumpi\n      0x00\n      dup1\n      revert\n    tag_40:\n      pop\n      tag_41\n      tag_42\n      jump\t// in\n    tag_41:\n      mload(0x40)\n      tag_43\n      swap2\n      swap1\n      tag_44\n      jump\t// in\n    tag_43:\n      mload(0x40)\n      dup1\n      swap2\n      sub\n      swap1\n      return\n        /* \"contracts/Produce.sol\":407:431  address public deliverer */\n    tag_8:\n      callvalue\n      dup1\n      iszero\n      tag_45\n      jumpi\n      0x00\n      dup1\n      revert\n    tag_45:\n      pop\n      tag_46\n      tag_47\n      jump\t// in\n    tag_46:\n      mload(0x40)\n      tag_48\n      swap2\n      swap1\n      tag_44\n      jump\t// in\n    tag_48:\n      mload(0x40)\n      dup1\n      swap2\n      sub\n      swap1\n      return\n        /* \"@openzeppelin/contracts/access/Ownable.sol\":1201:1286  function owner() public view virtual returns (address) {... */\n    tag_9:\n      callvalue\n      dup1\n      iszero\n      tag_49\n      jumpi\n      0x00\n      dup1\n      revert\n    tag_49:\n      pop\n      tag_50\n      tag_51\n      jump\t// in\n    tag_50:\n      mload(0x40)\n      tag_52\n      swap2\n      swap1\n      tag_44\n      jump\t// in\n    tag_52:\n      mload(0x40)\n      dup1\n      swap2\n      sub\n      swap1\n      return\n        /* \"contracts/Produce.sol\":324:344  uint256 public price */\n    tag_10:\n      callvalue\n      dup1\n      iszero\n      tag_53\n      jumpi\n      0x00\n      dup1\n      revert\n    tag_53:\n      pop\n      tag_54\n      tag_55\n      jump\t// in\n    tag_54:\n      mload(0x40)\n      tag_56\n      swap2\n      swap1\n      tag_23\n      jump\t// in\n    tag_56:\n      mload(0x40)\n      dup1\n      swap2\n      sub\n      swap1\n      return\n        /* \"contracts/Produce.sol\":380:401  bytes32 public amount */\n    tag_11:\n      callvalue\n      dup1\n      iszero\n      tag_57\n      jumpi\n      0x00\n      dup1\n      revert\n    tag_57:\n      pop\n      tag_58\n      tag_59\n      jump\t// in\n    tag_58:\n      mload(0x40)\n      tag_60\n      swap2\n      swap1\n      tag_61\n      jump\t// in\n    tag_60:\n      mload(0x40)\n      dup1\n      swap2\n      sub\n      swap1\n      return\n        /* \"contracts/Produce.sol\":1725:1960  function takeOrder() external onlyOwner returns (address order) {... */\n    tag_12:\n      callvalue\n      dup1\n      iszero\n      tag_62\n      jumpi\n      0x00\n      dup1\n      revert\n    tag_62:\n      pop\n      tag_63\n      tag_64\n      jump\t// in\n    tag_63:\n      mload(0x40)\n      tag_65\n      swap2\n      swap1\n      tag_44\n      jump\t// in\n    tag_65:\n      mload(0x40)\n      dup1\n      swap2\n      sub\n      swap1\n      return\n        /* \"contracts/Produce.sol\":173:194  address public farmer */\n    tag_13:\n      callvalue\n      dup1\n      iszero\n      tag_66\n      jumpi\n      0x00\n      dup1\n      revert\n    tag_66:\n      pop\n      tag_67\n      tag_68\n      jump\t// in\n    tag_67:\n      mload(0x40)\n      tag_69\n      swap2\n      swap1\n      tag_44\n      jump\t// in\n    tag_69:\n      mload(0x40)\n      dup1\n      swap2\n      sub\n      swap1\n      return\n        /* \"@openzeppelin/contracts/access/Ownable.sol\":2081:2279  function transferOwnership(address newOwner) public virtual onlyOwner {... */\n    tag_14:\n      callvalue\n      dup1\n      iszero\n      tag_70\n      jumpi\n      0x00\n      dup1\n      revert\n    tag_70:\n      pop\n      tag_71\n      0x04\n      dup1\n      calldatasize\n      sub\n      dup2\n      add\n      swap1\n      tag_72\n      swap2\n      swap1\n      tag_73\n      jump\t// in\n    tag_72:\n      tag_74\n      jump\t// in\n    tag_71:\n      stop\n        /* \"contracts/Produce.sol\":1276:1661  function placeOrder() external payable {... */\n    tag_15:\n      tag_75\n      tag_76\n      jump\t// in\n    tag_75:\n      stop\n        /* \"contracts/Produce.sol\":299:318  uint256 public name */\n    tag_21:\n      sload(0x05)\n      dup2\n      jump\t// out\n        /* \"contracts/Produce.sol\":257:292  uint256 public limitOnPendingOrders */\n    tag_26:\n      sload(0x04)\n      dup2\n      jump\t// out\n        /* \"contracts/Produce.sol\":593:1223  function initilize(... */\n    tag_32:\n        /* \"contracts/Produce.sol\":853:872  State.UNINITIALIZED */\n      0x00\n        /* \"contracts/Produce.sol\":846:872  state==State.UNINITIALIZED */\n      0x01\n      dup2\n      gt\n      iszero\n      tag_78\n      jumpi\n      tag_79\n      tag_80\n      jump\t// in\n    tag_79:\n    tag_78:\n        /* \"contracts/Produce.sol\":846:851  state */\n      0x09\n      0x14\n      swap1\n      sload\n      swap1\n      0x0100\n      exp\n      swap1\n      div\n      0xff\n      and\n        /* \"contracts/Produce.sol\":846:872  state==State.UNINITIALIZED */\n      0x01\n      dup2\n      gt\n      iszero\n      tag_81\n      jumpi\n      tag_82\n      tag_80\n      jump\t// in\n    tag_82:\n    tag_81:\n      eq\n        /* \"contracts/Produce.sol\":838:917  require(state==State.UNINITIALIZED, \"This produce has already been initilized\") */\n      tag_83\n      jumpi\n      mload(0x40)\n      0x08c379a000000000000000000000000000000000000000000000000000000000\n      dup2\n      mstore\n      0x04\n      add\n      tag_84\n      swap1\n      tag_85\n      jump\t// in\n    tag_84:\n      mload(0x40)\n      dup1\n      swap2\n      sub\n      swap1\n      revert\n    tag_83:\n        /* \"contracts/Produce.sol\":927:954  _transferOwnership(_farmer) */\n      tag_86\n        /* \"contracts/Produce.sol\":946:953  _farmer */\n      dup8\n        /* \"contracts/Produce.sol\":927:945  _transferOwnership */\n      tag_87\n        /* \"contracts/Produce.sol\":927:954  _transferOwnership(_farmer) */\n      jump\t// in\n    tag_86:\n        /* \"contracts/Produce.sol\":973:983  msg.sender */\n      caller\n        /* \"contracts/Produce.sol\":964:970  market */\n      0x02\n      0x00\n        /* \"contracts/Produce.sol\":964:983  market = msg.sender */\n      0x0100\n      exp\n      dup2\n      sload\n      dup2\n      0xffffffffffffffffffffffffffffffffffffffff\n      mul\n      not\n      and\n      swap1\n      dup4\n      0xffffffffffffffffffffffffffffffffffffffff\n      and\n      mul\n      or\n      swap1\n      sstore\n      pop\n        /* \"contracts/Produce.sol\":1016:1037  _limitOnPendingOrders */\n      dup2\n        /* \"contracts/Produce.sol\":993:1013  limitOnPendingOrders */\n      0x04\n        /* \"contracts/Produce.sol\":993:1037  limitOnPendingOrders = _limitOnPendingOrders */\n      dup2\n      swap1\n      sstore\n      pop\n        /* \"contracts/Produce.sol\":1054:1059  _name */\n      dup6\n        /* \"contracts/Produce.sol\":1047:1051  name */\n      0x05\n        /* \"contracts/Produce.sol\":1047:1059  name = _name */\n      dup2\n      swap1\n      sstore\n      pop\n        /* \"contracts/Produce.sol\":1077:1083  _price */\n      dup5\n        /* \"contracts/Produce.sol\":1069:1074  price */\n      0x06\n        /* \"contracts/Produce.sol\":1069:1083  price = _price */\n      dup2\n      swap1\n      sstore\n      pop\n        /* \"contracts/Produce.sol\":1105:1115  _orderSize */\n      dup4\n        /* \"contracts/Produce.sol\":1093:1102  orderSize */\n      0x07\n        /* \"contracts/Produce.sol\":1093:1115  orderSize = _orderSize */\n      dup2\n      swap1\n      sstore\n      pop\n        /* \"contracts/Produce.sol\":1134:1141  _amount */\n      dup3\n        /* \"contracts/Produce.sol\":1125:1131  amount */\n      0x08\n        /* \"contracts/Produce.sol\":1125:1141  amount = _amount */\n      dup2\n      swap1\n      sstore\n      pop\n        /* \"contracts/Produce.sol\":1163:1182  _delivererOfProduce */\n      dup1\n        /* \"contracts/Produce.sol\":1151:1160  deliverer */\n      0x09\n      0x00\n        /* \"contracts/Produce.sol\":1151:1182  deliverer = _delivererOfProduce */\n      0x0100\n      exp\n      dup2\n      sload\n      dup2\n      0xffffffffffffffffffffffffffffffffffffffff\n      mul\n      not\n      and\n      swap1\n      dup4\n      0xffffffffffffffffffffffffffffffffffffffff\n      and\n      mul\n      or\n      swap1\n      sstore\n      pop\n        /* \"contracts/Produce.sol\":1200:1216  State.PRODUCESET */\n      0x01\n        /* \"contracts/Produce.sol\":1192:1197  state */\n      0x09\n      0x14\n        /* \"contracts/Produce.sol\":1192:1216  state = State.PRODUCESET */\n      0x0100\n      exp\n      dup2\n      sload\n      dup2\n      0xff\n      mul\n      not\n      and\n      swap1\n      dup4\n      0x01\n      dup2\n      gt\n      iszero\n      tag_88\n      jumpi\n      tag_89\n      tag_80\n      jump\t// in\n    tag_89:\n    tag_88:\n      mul\n      or\n      swap1\n      sstore\n      pop\n        /* \"contracts/Produce.sol\":593:1223  function initilize(... */\n      pop\n      pop\n      pop\n      pop\n      pop\n      pop\n      pop\n      jump\t// out\n        /* \"contracts/Produce.sol\":350:374  uint256 public orderSize */\n    tag_35:\n      sload(0x07)\n      dup2\n      jump\t// out\n        /* \"@openzeppelin/contracts/access/Ownable.sol\":1831:1932  function renounceOwnership() public virtual onlyOwner {... */\n    tag_39:\n        /* \"@openzeppelin/contracts/access/Ownable.sol\":1094:1107  _checkOwner() */\n      tag_91\n        /* \"@openzeppelin/contracts/access/Ownable.sol\":1094:1105  _checkOwner */\n      tag_92\n        /* \"@openzeppelin/contracts/access/Ownable.sol\":1094:1107  _checkOwner() */\n      jump\t// in\n    tag_91:\n        /* \"@openzeppelin/contracts/access/Ownable.sol\":1895:1925  _transferOwnership(address(0)) */\n      tag_94\n        /* \"@openzeppelin/contracts/access/Ownable.sol\":1922:1923  0 */\n      0x00\n        /* \"@openzeppelin/contracts/access/Ownable.sol\":1895:1913  _transferOwnership */\n      tag_87\n        /* \"@openzeppelin/contracts/access/Ownable.sol\":1895:1925  _transferOwnership(address(0)) */\n      jump\t// in\n    tag_94:\n        /* \"@openzeppelin/contracts/access/Ownable.sol\":1831:1932  function renounceOwnership() public virtual onlyOwner {... */\n      jump\t// out\n        /* \"contracts/Produce.sol\":200:221  address public market */\n    tag_42:\n      0x02\n      0x00\n      swap1\n      sload\n      swap1\n      0x0100\n      exp\n      swap1\n      div\n      0xffffffffffffffffffffffffffffffffffffffff\n      and\n      dup2\n      jump\t// out\n        /* \"contracts/Produce.sol\":407:431  address public deliverer */\n    tag_47:\n      0x09\n      0x00\n      swap1\n      sload\n      swap1\n      0x0100\n      exp\n      swap1\n      div\n      0xffffffffffffffffffffffffffffffffffffffff\n      and\n      dup2\n      jump\t// out\n        /* \"@openzeppelin/contracts/access/Ownable.sol\":1201:1286  function owner() public view virtual returns (address) {... */\n    tag_51:\n        /* \"@openzeppelin/contracts/access/Ownable.sol\":1247:1254  address */\n      0x00\n        /* \"@openzeppelin/contracts/access/Ownable.sol\":1273:1279  _owner */\n      dup1\n      0x00\n      swap1\n      sload\n      swap1\n      0x0100\n      exp\n      swap1\n      div\n      0xffffffffffffffffffffffffffffffffffffffff\n      and\n        /* \"@openzeppelin/contracts/access/Ownable.sol\":1266:1279  return _owner */\n      swap1\n      pop\n        /* \"@openzeppelin/contracts/access/Ownable.sol\":1201:1286  function owner() public view virtual returns (address) {... */\n      swap1\n      jump\t// out\n        /* \"contracts/Produce.sol\":324:344  uint256 public price */\n    tag_55:\n      sload(0x06)\n      dup2\n      jump\t// out\n        /* \"contracts/Produce.sol\":380:401  bytes32 public amount */\n    tag_59:\n      sload(0x08)\n      dup2\n      jump\t// out\n        /* \"contracts/Produce.sol\":1725:1960  function takeOrder() external onlyOwner returns (address order) {... */\n    tag_64:\n        /* \"contracts/Produce.sol\":1774:1787  address order */\n      0x00\n        /* \"@openzeppelin/contracts/access/Ownable.sol\":1094:1107  _checkOwner() */\n      tag_97\n        /* \"@openzeppelin/contracts/access/Ownable.sol\":1094:1105  _checkOwner */\n      tag_92\n        /* \"@openzeppelin/contracts/access/Ownable.sol\":1094:1107  _checkOwner() */\n      jump\t// in\n    tag_97:\n        /* \"contracts/Produce.sol\":1823:1824  0 */\n      0x00\n        /* \"contracts/Produce.sol\":1807:1813  orders */\n      0x03\n        /* \"contracts/Produce.sol\":1807:1820  orders.length */\n      dup1\n      sload\n      swap1\n      pop\n        /* \"contracts/Produce.sol\":1807:1824  orders.length > 0 */\n      gt\n        /* \"contracts/Produce.sol\":1799:1846  require(orders.length > 0, \"No orders to take\") */\n      tag_99\n      jumpi\n      mload(0x40)\n      0x08c379a000000000000000000000000000000000000000000000000000000000\n      dup2\n      mstore\n      0x04\n      add\n      tag_100\n      swap1\n      tag_101\n      jump\t// in\n    tag_100:\n      mload(0x40)\n      dup1\n      swap2\n      sub\n      swap1\n      revert\n    tag_99:\n        /* \"contracts/Produce.sol\":1856:1875  address orderToTake */\n      0x00\n        /* \"contracts/Produce.sol\":1878:1884  orders */\n      0x03\n        /* \"contracts/Produce.sol\":1901:1902  1 */\n      0x01\n        /* \"contracts/Produce.sol\":1885:1891  orders */\n      0x03\n        /* \"contracts/Produce.sol\":1885:1898  orders.length */\n      dup1\n      sload\n      swap1\n      pop\n        /* \"contracts/Produce.sol\":1885:1902  orders.length - 1 */\n      tag_102\n      swap2\n      swap1\n      tag_103\n      jump\t// in\n    tag_102:\n        /* \"contracts/Produce.sol\":1878:1903  orders[orders.length - 1] */\n      dup2\n      sload\n      dup2\n      lt\n      tag_104\n      jumpi\n      tag_105\n      tag_106\n      jump\t// in\n    tag_105:\n    tag_104:\n      swap1\n      0x00\n      mstore\n      keccak256(0x00, 0x20)\n      add\n      0x00\n      swap1\n      sload\n      swap1\n      0x0100\n      exp\n      swap1\n      div\n      0xffffffffffffffffffffffffffffffffffffffff\n      and\n        /* \"contracts/Produce.sol\":1856:1903  address orderToTake = orders[orders.length - 1] */\n      swap1\n      pop\n        /* \"contracts/Produce.sol\":1913:1919  orders */\n      0x03\n        /* \"contracts/Produce.sol\":1913:1925  orders.pop() */\n      dup1\n      sload\n      dup1\n      tag_108\n      jumpi\n      tag_109\n      tag_110\n      jump\t// in\n    tag_109:\n    tag_108:\n      0x01\n      swap1\n      sub\n      dup2\n      dup2\n      swap1\n      0x00\n      mstore\n      keccak256(0x00, 0x20)\n      add\n      exp(0x0100, 0x00)\n      dup2\n      sload\n      swap1\n      0xffffffffffffffffffffffffffffffffffffffff\n      mul\n      not\n      and\n      swap1\n      sstore\n      swap1\n      sstore\n        /* \"contracts/Produce.sol\":1942:1953  orderToTake */\n      dup1\n        /* \"contracts/Produce.sol\":1935:1953  return orderToTake */\n      swap2\n      pop\n      pop\n        /* \"contracts/Produce.sol\":1725:1960  function takeOrder() external onlyOwner returns (address order) {... */\n      swap1\n      jump\t// out\n        /* \"contracts/Produce.sol\":173:194  address public farmer */\n    tag_68:\n      0x01\n      0x00\n      swap1\n      sload\n      swap1\n      0x0100\n      exp\n      swap1\n      div\n      0xffffffffffffffffffffffffffffffffffffffff\n      and\n      dup2\n      jump\t// out\n        /* \"@openzeppelin/contracts/access/Ownable.sol\":2081:2279  function transferOwnership(address newOwner) public virtual onlyOwner {... */\n    tag_74:\n        /* \"@openzeppelin/contracts/access/Ownable.sol\":1094:1107  _checkOwner() */\n      tag_113\n        /* \"@openzeppelin/contracts/access/Ownable.sol\":1094:1105  _checkOwner */\n      tag_92\n        /* \"@openzeppelin/contracts/access/Ownable.sol\":1094:1107  _checkOwner() */\n      jump\t// in\n    tag_113:\n        /* \"@openzeppelin/contracts/access/Ownable.sol\":2189:2190  0 */\n      0x00\n        /* \"@openzeppelin/contracts/access/Ownable.sol\":2169:2191  newOwner != address(0) */\n      0xffffffffffffffffffffffffffffffffffffffff\n      and\n        /* \"@openzeppelin/contracts/access/Ownable.sol\":2169:2177  newOwner */\n      dup2\n        /* \"@openzeppelin/contracts/access/Ownable.sol\":2169:2191  newOwner != address(0) */\n      0xffffffffffffffffffffffffffffffffffffffff\n      and\n      eq\n      iszero\n        /* \"@openzeppelin/contracts/access/Ownable.sol\":2161:2234  require(newOwner != address(0), \"Ownable: new owner is the zero address\") */\n      tag_115\n      jumpi\n      mload(0x40)\n      0x08c379a000000000000000000000000000000000000000000000000000000000\n      dup2\n      mstore\n      0x04\n      add\n      tag_116\n      swap1\n      tag_117\n      jump\t// in\n    tag_116:\n      mload(0x40)\n      dup1\n      swap2\n      sub\n      swap1\n      revert\n    tag_115:\n        /* \"@openzeppelin/contracts/access/Ownable.sol\":2244:2272  _transferOwnership(newOwner) */\n      tag_118\n        /* \"@openzeppelin/contracts/access/Ownable.sol\":2263:2271  newOwner */\n      dup2\n        /* \"@openzeppelin/contracts/access/Ownable.sol\":2244:2262  _transferOwnership */\n      tag_87\n        /* \"@openzeppelin/contracts/access/Ownable.sol\":2244:2272  _transferOwnership(newOwner) */\n      jump\t// in\n    tag_118:\n        /* \"@openzeppelin/contracts/access/Ownable.sol\":2081:2279  function transferOwnership(address newOwner) public virtual onlyOwner {... */\n      pop\n      jump\t// out\n        /* \"contracts/Produce.sol\":1276:1661  function placeOrder() external payable {... */\n    tag_76:\n        /* \"contracts/Produce.sol\":1360:1367  owner() */\n      tag_120\n        /* \"contracts/Produce.sol\":1360:1365  owner */\n      tag_51\n        /* \"contracts/Produce.sol\":1360:1367  owner() */\n      jump\t// in\n    tag_120:\n        /* \"contracts/Produce.sol\":1346:1367  msg.sender != owner() */\n      0xffffffffffffffffffffffffffffffffffffffff\n      and\n        /* \"contracts/Produce.sol\":1346:1356  msg.sender */\n      caller\n        /* \"contracts/Produce.sol\":1346:1367  msg.sender != owner() */\n      0xffffffffffffffffffffffffffffffffffffffff\n      and\n      eq\n      iszero\n        /* \"contracts/Produce.sol\":1325:1440  require(... */\n      tag_121\n      jumpi\n      mload(0x40)\n      0x08c379a000000000000000000000000000000000000000000000000000000000\n      dup2\n      mstore\n      0x04\n      add\n      tag_122\n      swap1\n      tag_123\n      jump\t// in\n    tag_122:\n      mload(0x40)\n      dup1\n      swap2\n      sub\n      swap1\n      revert\n    tag_121:\n        /* \"contracts/Produce.sol\":1496:1501  price */\n      sload(0x06)\n        /* \"contracts/Produce.sol\":1484:1493  orderSize */\n      sload(0x07)\n        /* \"contracts/Produce.sol\":1484:1501  orderSize * price */\n      tag_124\n      swap2\n      swap1\n      tag_125\n      jump\t// in\n    tag_124:\n        /* \"contracts/Produce.sol\":1471:1480  msg.value */\n      callvalue\n        /* \"contracts/Produce.sol\":1471:1501  msg.value == orderSize * price */\n      eq\n        /* \"contracts/Produce.sol\":1450:1566  require(... */\n      tag_126\n      jumpi\n      mload(0x40)\n      0x08c379a000000000000000000000000000000000000000000000000000000000\n      dup2\n      mstore\n      0x04\n      add\n      tag_127\n      swap1\n      tag_128\n      jump\t// in\n    tag_127:\n      mload(0x40)\n      dup1\n      swap2\n      sub\n      swap1\n      revert\n    tag_126:\n        /* \"contracts/Produce.sol\":1600:1620  limitOnPendingOrders */\n      sload(0x04)\n        /* \"contracts/Produce.sol\":1584:1590  orders */\n      0x03\n        /* \"contracts/Produce.sol\":1584:1597  orders.length */\n      dup1\n      sload\n      swap1\n      pop\n        /* \"contracts/Produce.sol\":1584:1620  orders.length < limitOnPendingOrders */\n      lt\n        /* \"contracts/Produce.sol\":1576:1621  require(orders.length < limitOnPendingOrders) */\n      tag_129\n      jumpi\n      0x00\n      dup1\n      revert\n    tag_129:\n        /* \"contracts/Produce.sol\":1631:1637  orders */\n      0x03\n        /* \"contracts/Produce.sol\":1643:1653  msg.sender */\n      caller\n        /* \"contracts/Produce.sol\":1631:1654  orders.push(msg.sender) */\n      swap1\n      dup1\n      0x01\n      dup2\n      sload\n      add\n      dup1\n      dup3\n      sstore\n      dup1\n      swap2\n      pop\n      pop\n      0x01\n      swap1\n      sub\n      swap1\n      0x00\n      mstore\n      keccak256(0x00, 0x20)\n      add\n      0x00\n      swap1\n      swap2\n      swap1\n      swap2\n      swap1\n      swap2\n      0x0100\n      exp\n      dup2\n      sload\n      dup2\n      0xffffffffffffffffffffffffffffffffffffffff\n      mul\n      not\n      and\n      swap1\n      dup4\n      0xffffffffffffffffffffffffffffffffffffffff\n      and\n      mul\n      or\n      swap1\n      sstore\n      pop\n        /* \"contracts/Produce.sol\":1276:1661  function placeOrder() external payable {... */\n      jump\t// out\n        /* \"@openzeppelin/contracts/access/Ownable.sol\":2433:2620  function _transferOwnership(address newOwner) internal virtual {... */\n    tag_87:\n        /* \"@openzeppelin/contracts/access/Ownable.sol\":2506:2522  address oldOwner */\n      0x00\n        /* \"@openzeppelin/contracts/access/Ownable.sol\":2525:2531  _owner */\n      dup1\n      0x00\n      swap1\n      sload\n      swap1\n      0x0100\n      exp\n      swap1\n      div\n      0xffffffffffffffffffffffffffffffffffffffff\n      and\n        /* \"@openzeppelin/contracts/access/Ownable.sol\":2506:2531  address oldOwner = _owner */\n      swap1\n      pop\n        /* \"@openzeppelin/contracts/access/Ownable.sol\":2550:2558  newOwner */\n      dup2\n        /* \"@openzeppelin/contracts/access/Ownable.sol\":2541:2547  _owner */\n      0x00\n      dup1\n        /* \"@openzeppelin/contracts/access/Ownable.sol\":2541:2558  _owner = newOwner */\n      0x0100\n      exp\n      dup2\n      sload\n      dup2\n      0xffffffffffffffffffffffffffffffffffffffff\n      mul\n      not\n      and\n      swap1\n      dup4\n      0xffffffffffffffffffffffffffffffffffffffff\n      and\n      mul\n      or\n      swap1\n      sstore\n      pop\n        /* \"@openzeppelin/contracts/access/Ownable.sol\":2604:2612  newOwner */\n      dup2\n        /* \"@openzeppelin/contracts/access/Ownable.sol\":2573:2613  OwnershipTransferred(oldOwner, newOwner) */\n      0xffffffffffffffffffffffffffffffffffffffff\n      and\n        /* \"@openzeppelin/contracts/access/Ownable.sol\":2594:2602  oldOwner */\n      dup2\n        /* \"@openzeppelin/contracts/access/Ownable.sol\":2573:2613  OwnershipTransferred(oldOwner, newOwner) */\n      0xffffffffffffffffffffffffffffffffffffffff\n      and\n      0x8be0079c531659141344cd1fd0a4f28419497f9722a3daafe3b4186f6b6457e0\n      mload(0x40)\n      mload(0x40)\n      dup1\n      swap2\n      sub\n      swap1\n      log3\n        /* \"@openzeppelin/contracts/access/Ownable.sol\":2496:2620  {... */\n      pop\n        /* \"@openzeppelin/contracts/access/Ownable.sol\":2433:2620  function _transferOwnership(address newOwner) internal virtual {... */\n      pop\n      jump\t// out\n        /* \"@openzeppelin/contracts/access/Ownable.sol\":1359:1489  function _checkOwner() internal view virtual {... */\n    tag_92:\n        /* \"@openzeppelin/contracts/access/Ownable.sol\":1433:1445  _msgSender() */\n      tag_133\n        /* \"@openzeppelin/contracts/access/Ownable.sol\":1433:1443  _msgSender */\n      tag_134\n        /* \"@openzeppelin/contracts/access/Ownable.sol\":1433:1445  _msgSender() */\n      jump\t// in\n    tag_133:\n        /* \"@openzeppelin/contracts/access/Ownable.sol\":1422:1445  owner() == _msgSender() */\n      0xffffffffffffffffffffffffffffffffffffffff\n      and\n        /* \"@openzeppelin/contracts/access/Ownable.sol\":1422:1429  owner() */\n      tag_135\n        /* \"@openzeppelin/contracts/access/Ownable.sol\":1422:1427  owner */\n      tag_51\n        /* \"@openzeppelin/contracts/access/Ownable.sol\":1422:1429  owner() */\n      jump\t// in\n    tag_135:\n        /* \"@openzeppelin/contracts/access/Ownable.sol\":1422:1445  owner() == _msgSender() */\n      0xffffffffffffffffffffffffffffffffffffffff\n      and\n      eq\n        /* \"@openzeppelin/contracts/access/Ownable.sol\":1414:1482  require(owner() == _msgSender(), \"Ownable: caller is not the owner\") */\n      tag_136\n      jumpi\n      mload(0x40)\n      0x08c379a000000000000000000000000000000000000000000000000000000000\n      dup2\n      mstore\n      0x04\n      add\n      tag_137\n      swap1\n      tag_138\n      jump\t// in\n    tag_137:\n      mload(0x40)\n      dup1\n      swap2\n      sub\n      swap1\n      revert\n    tag_136:\n        /* \"@openzeppelin/contracts/access/Ownable.sol\":1359:1489  function _checkOwner() internal view virtual {... */\n      jump\t// out\n        /* \"@openzeppelin/contracts/utils/Context.sol\":640:736  function _msgSender() internal view virtual returns (address) {... */\n    tag_134:\n        /* \"@openzeppelin/contracts/utils/Context.sol\":693:700  address */\n      0x00\n        /* \"@openzeppelin/contracts/utils/Context.sol\":719:729  msg.sender */\n      caller\n        /* \"@openzeppelin/contracts/utils/Context.sol\":712:729  return msg.sender */\n      swap1\n      pop\n        /* \"@openzeppelin/contracts/utils/Context.sol\":640:736  function _msgSender() internal view virtual returns (address) {... */\n      swap1\n      jump\t// out\n        /* \"#utility.yul\":7:146   */\n    tag_141:\n        /* \"#utility.yul\":53:58   */\n      0x00\n        /* \"#utility.yul\":91:97   */\n      dup2\n        /* \"#utility.yul\":78:98   */\n      calldataload\n        /* \"#utility.yul\":69:98   */\n      swap1\n      pop\n        /* \"#utility.yul\":107:140   */\n      tag_143\n        /* \"#utility.yul\":134:139   */\n      dup2\n        /* \"#utility.yul\":107:140   */\n      tag_144\n      jump\t// in\n    tag_143:\n        /* \"#utility.yul\":7:146   */\n      swap3\n      swap2\n      pop\n      pop\n      jump\t// out\n        /* \"#utility.yul\":152:291   */\n    tag_145:\n        /* \"#utility.yul\":198:203   */\n      0x00\n        /* \"#utility.yul\":236:242   */\n      dup2\n        /* \"#utility.yul\":223:243   */\n      calldataload\n        /* \"#utility.yul\":214:243   */\n      swap1\n      pop\n        /* \"#utility.yul\":252:285   */\n      tag_147\n        /* \"#utility.yul\":279:284   */\n      dup2\n        /* \"#utility.yul\":252:285   */\n      tag_148\n      jump\t// in\n    tag_147:\n        /* \"#utility.yul\":152:291   */\n      swap3\n      swap2\n      pop\n      pop\n      jump\t// out\n        /* \"#utility.yul\":297:436   */\n    tag_149:\n        /* \"#utility.yul\":343:348   */\n      0x00\n        /* \"#utility.yul\":381:387   */\n      dup2\n        /* \"#utility.yul\":368:388   */\n      calldataload\n        /* \"#utility.yul\":359:388   */\n      swap1\n      pop\n        /* \"#utility.yul\":397:430   */\n      tag_151\n        /* \"#utility.yul\":424:429   */\n      dup2\n        /* \"#utility.yul\":397:430   */\n      tag_152\n      jump\t// in\n    tag_151:\n        /* \"#utility.yul\":297:436   */\n      swap3\n      swap2\n      pop\n      pop\n      jump\t// out\n        /* \"#utility.yul\":442:771   */\n    tag_73:\n        /* \"#utility.yul\":501:507   */\n      0x00\n        /* \"#utility.yul\":550:552   */\n      0x20\n        /* \"#utility.yul\":538:547   */\n      dup3\n        /* \"#utility.yul\":529:536   */\n      dup5\n        /* \"#utility.yul\":525:548   */\n      sub\n        /* \"#utility.yul\":521:553   */\n      slt\n        /* \"#utility.yul\":518:637   */\n      iszero\n      tag_154\n      jumpi\n        /* \"#utility.yul\":556:635   */\n      tag_155\n      tag_156\n      jump\t// in\n    tag_155:\n        /* \"#utility.yul\":518:637   */\n    tag_154:\n        /* \"#utility.yul\":676:677   */\n      0x00\n        /* \"#utility.yul\":701:754   */\n      tag_157\n        /* \"#utility.yul\":746:753   */\n      dup5\n        /* \"#utility.yul\":737:743   */\n      dup3\n        /* \"#utility.yul\":726:735   */\n      dup6\n        /* \"#utility.yul\":722:744   */\n      add\n        /* \"#utility.yul\":701:754   */\n      tag_141\n      jump\t// in\n    tag_157:\n        /* \"#utility.yul\":691:754   */\n      swap2\n      pop\n        /* \"#utility.yul\":647:764   */\n      pop\n        /* \"#utility.yul\":442:771   */\n      swap3\n      swap2\n      pop\n      pop\n      jump\t// out\n        /* \"#utility.yul\":777:1980   */\n    tag_31:\n        /* \"#utility.yul\":890:896   */\n      0x00\n        /* \"#utility.yul\":898:904   */\n      dup1\n        /* \"#utility.yul\":906:912   */\n      0x00\n        /* \"#utility.yul\":914:920   */\n      dup1\n        /* \"#utility.yul\":922:928   */\n      0x00\n        /* \"#utility.yul\":930:936   */\n      dup1\n        /* \"#utility.yul\":938:944   */\n      0x00\n        /* \"#utility.yul\":987:990   */\n      0xe0\n        /* \"#utility.yul\":975:984   */\n      dup9\n        /* \"#utility.yul\":966:973   */\n      dup11\n        /* \"#utility.yul\":962:985   */\n      sub\n        /* \"#utility.yul\":958:991   */\n      slt\n        /* \"#utility.yul\":955:1075   */\n      iszero\n      tag_159\n      jumpi\n        /* \"#utility.yul\":994:1073   */\n      tag_160\n      tag_156\n      jump\t// in\n    tag_160:\n        /* \"#utility.yul\":955:1075   */\n    tag_159:\n        /* \"#utility.yul\":1114:1115   */\n      0x00\n        /* \"#utility.yul\":1139:1192   */\n      tag_161\n        /* \"#utility.yul\":1184:1191   */\n      dup11\n        /* \"#utility.yul\":1175:1181   */\n      dup3\n        /* \"#utility.yul\":1164:1173   */\n      dup12\n        /* \"#utility.yul\":1160:1182   */\n      add\n        /* \"#utility.yul\":1139:1192   */\n      tag_141\n      jump\t// in\n    tag_161:\n        /* \"#utility.yul\":1129:1192   */\n      swap8\n      pop\n        /* \"#utility.yul\":1085:1202   */\n      pop\n        /* \"#utility.yul\":1241:1243   */\n      0x20\n        /* \"#utility.yul\":1267:1320   */\n      tag_162\n        /* \"#utility.yul\":1312:1319   */\n      dup11\n        /* \"#utility.yul\":1303:1309   */\n      dup3\n        /* \"#utility.yul\":1292:1301   */\n      dup12\n        /* \"#utility.yul\":1288:1310   */\n      add\n        /* \"#utility.yul\":1267:1320   */\n      tag_149\n      jump\t// in\n    tag_162:\n        /* \"#utility.yul\":1257:1320   */\n      swap7\n      pop\n        /* \"#utility.yul\":1212:1330   */\n      pop\n        /* \"#utility.yul\":1369:1371   */\n      0x40\n        /* \"#utility.yul\":1395:1448   */\n      tag_163\n        /* \"#utility.yul\":1440:1447   */\n      dup11\n        /* \"#utility.yul\":1431:1437   */\n      dup3\n        /* \"#utility.yul\":1420:1429   */\n      dup12\n        /* \"#utility.yul\":1416:1438   */\n      add\n        /* \"#utility.yul\":1395:1448   */\n      tag_149\n      jump\t// in\n    tag_163:\n        /* \"#utility.yul\":1385:1448   */\n      swap6\n      pop\n        /* \"#utility.yul\":1340:1458   */\n      pop\n        /* \"#utility.yul\":1497:1499   */\n      0x60\n        /* \"#utility.yul\":1523:1576   */\n      tag_164\n        /* \"#utility.yul\":1568:1575   */\n      dup11\n        /* \"#utility.yul\":1559:1565   */\n      dup3\n        /* \"#utility.yul\":1548:1557   */\n      dup12\n        /* \"#utility.yul\":1544:1566   */\n      add\n        /* \"#utility.yul\":1523:1576   */\n      tag_149\n      jump\t// in\n    tag_164:\n        /* \"#utility.yul\":1513:1576   */\n      swap5\n      pop\n        /* \"#utility.yul\":1468:1586   */\n      pop\n        /* \"#utility.yul\":1625:1628   */\n      0x80\n        /* \"#utility.yul\":1652:1705   */\n      tag_165\n        /* \"#utility.yul\":1697:1704   */\n      dup11\n        /* \"#utility.yul\":1688:1694   */\n      dup3\n        /* \"#utility.yul\":1677:1686   */\n      dup12\n        /* \"#utility.yul\":1673:1695   */\n      add\n        /* \"#utility.yul\":1652:1705   */\n      tag_145\n      jump\t// in\n    tag_165:\n        /* \"#utility.yul\":1642:1705   */\n      swap4\n      pop\n        /* \"#utility.yul\":1596:1715   */\n      pop\n        /* \"#utility.yul\":1754:1757   */\n      0xa0\n        /* \"#utility.yul\":1781:1834   */\n      tag_166\n        /* \"#utility.yul\":1826:1833   */\n      dup11\n        /* \"#utility.yul\":1817:1823   */\n      dup3\n        /* \"#utility.yul\":1806:1815   */\n      dup12\n        /* \"#utility.yul\":1802:1824   */\n      add\n        /* \"#utility.yul\":1781:1834   */\n      tag_149\n      jump\t// in\n    tag_166:\n        /* \"#utility.yul\":1771:1834   */\n      swap3\n      pop\n        /* \"#utility.yul\":1725:1844   */\n      pop\n        /* \"#utility.yul\":1883:1886   */\n      0xc0\n        /* \"#utility.yul\":1910:1963   */\n      tag_167\n        /* \"#utility.yul\":1955:1962   */\n      dup11\n        /* \"#utility.yul\":1946:1952   */\n      dup3\n        /* \"#utility.yul\":1935:1944   */\n      dup12\n        /* \"#utility.yul\":1931:1953   */\n      add\n        /* \"#utility.yul\":1910:1963   */\n      tag_141\n      jump\t// in\n    tag_167:\n        /* \"#utility.yul\":1900:1963   */\n      swap2\n      pop\n        /* \"#utility.yul\":1854:1973   */\n      pop\n        /* \"#utility.yul\":777:1980   */\n      swap3\n      swap6\n      swap9\n      swap2\n      swap5\n      swap8\n      pop\n      swap3\n      swap6\n      pop\n      jump\t// out\n        /* \"#utility.yul\":1986:2104   */\n    tag_168:\n        /* \"#utility.yul\":2073:2097   */\n      tag_170\n        /* \"#utility.yul\":2091:2096   */\n      dup2\n        /* \"#utility.yul\":2073:2097   */\n      tag_171\n      jump\t// in\n    tag_170:\n        /* \"#utility.yul\":2068:2071   */\n      dup3\n        /* \"#utility.yul\":2061:2098   */\n      mstore\n        /* \"#utility.yul\":1986:2104   */\n      pop\n      pop\n      jump\t// out\n        /* \"#utility.yul\":2110:2228   */\n    tag_172:\n        /* \"#utility.yul\":2197:2221   */\n      tag_174\n        /* \"#utility.yul\":2215:2220   */\n      dup2\n        /* \"#utility.yul\":2197:2221   */\n      tag_175\n      jump\t// in\n    tag_174:\n        /* \"#utility.yul\":2192:2195   */\n      dup3\n        /* \"#utility.yul\":2185:2222   */\n      mstore\n        /* \"#utility.yul\":2110:2228   */\n      pop\n      pop\n      jump\t// out\n        /* \"#utility.yul\":2234:2600   */\n    tag_176:\n        /* \"#utility.yul\":2376:2379   */\n      0x00\n        /* \"#utility.yul\":2397:2464   */\n      tag_178\n        /* \"#utility.yul\":2461:2463   */\n      0x27\n        /* \"#utility.yul\":2456:2459   */\n      dup4\n        /* \"#utility.yul\":2397:2464   */\n      tag_179\n      jump\t// in\n    tag_178:\n        /* \"#utility.yul\":2390:2464   */\n      swap2\n      pop\n        /* \"#utility.yul\":2473:2566   */\n      tag_180\n        /* \"#utility.yul\":2562:2565   */\n      dup3\n        /* \"#utility.yul\":2473:2566   */\n      tag_181\n      jump\t// in\n    tag_180:\n        /* \"#utility.yul\":2591:2593   */\n      0x40\n        /* \"#utility.yul\":2586:2589   */\n      dup3\n        /* \"#utility.yul\":2582:2594   */\n      add\n        /* \"#utility.yul\":2575:2594   */\n      swap1\n      pop\n        /* \"#utility.yul\":2234:2600   */\n      swap2\n      swap1\n      pop\n      jump\t// out\n        /* \"#utility.yul\":2606:2972   */\n    tag_182:\n        /* \"#utility.yul\":2748:2751   */\n      0x00\n        /* \"#utility.yul\":2769:2836   */\n      tag_184\n        /* \"#utility.yul\":2833:2835   */\n      0x26\n        /* \"#utility.yul\":2828:2831   */\n      dup4\n        /* \"#utility.yul\":2769:2836   */\n      tag_179\n      jump\t// in\n    tag_184:\n        /* \"#utility.yul\":2762:2836   */\n      swap2\n      pop\n        /* \"#utility.yul\":2845:2938   */\n      tag_185\n        /* \"#utility.yul\":2934:2937   */\n      dup3\n        /* \"#utility.yul\":2845:2938   */\n      tag_186\n      jump\t// in\n    tag_185:\n        /* \"#utility.yul\":2963:2965   */\n      0x40\n        /* \"#utility.yul\":2958:2961   */\n      dup3\n        /* \"#utility.yul\":2954:2966   */\n      add\n        /* \"#utility.yul\":2947:2966   */\n      swap1\n      pop\n        /* \"#utility.yul\":2606:2972   */\n      swap2\n      swap1\n      pop\n      jump\t// out\n        /* \"#utility.yul\":2978:3344   */\n    tag_187:\n        /* \"#utility.yul\":3120:3123   */\n      0x00\n        /* \"#utility.yul\":3141:3208   */\n      tag_189\n        /* \"#utility.yul\":3205:3207   */\n      0x28\n        /* \"#utility.yul\":3200:3203   */\n      dup4\n        /* \"#utility.yul\":3141:3208   */\n      tag_179\n      jump\t// in\n    tag_189:\n        /* \"#utility.yul\":3134:3208   */\n      swap2\n      pop\n        /* \"#utility.yul\":3217:3310   */\n      tag_190\n        /* \"#utility.yul\":3306:3309   */\n      dup3\n        /* \"#utility.yul\":3217:3310   */\n      tag_191\n      jump\t// in\n    tag_190:\n        /* \"#utility.yul\":3335:3337   */\n      0x40\n        /* \"#utility.yul\":3330:3333   */\n      dup3\n        /* \"#utility.yul\":3326:3338   */\n      add\n        /* \"#utility.yul\":3319:3338   */\n      swap1\n      pop\n        /* \"#utility.yul\":2978:3344   */\n      swap2\n      swap1\n      pop\n      jump\t// out\n        /* \"#utility.yul\":3350:3716   */\n    tag_192:\n        /* \"#utility.yul\":3492:3495   */\n      0x00\n        /* \"#utility.yul\":3513:3580   */\n      tag_194\n        /* \"#utility.yul\":3577:3579   */\n      0x2f\n        /* \"#utility.yul\":3572:3575   */\n      dup4\n        /* \"#utility.yul\":3513:3580   */\n      tag_179\n      jump\t// in\n    tag_194:\n        /* \"#utility.yul\":3506:3580   */\n      swap2\n      pop\n        /* \"#utility.yul\":3589:3682   */\n      tag_195\n        /* \"#utility.yul\":3678:3681   */\n      dup3\n        /* \"#utility.yul\":3589:3682   */\n      tag_196\n      jump\t// in\n    tag_195:\n        /* \"#utility.yul\":3707:3709   */\n      0x40\n        /* \"#utility.yul\":3702:3705   */\n      dup3\n        /* \"#utility.yul\":3698:3710   */\n      add\n        /* \"#utility.yul\":3691:3710   */\n      swap1\n      pop\n        /* \"#utility.yul\":3350:3716   */\n      swap2\n      swap1\n      pop\n      jump\t// out\n        /* \"#utility.yul\":3722:4088   */\n    tag_197:\n        /* \"#utility.yul\":3864:3867   */\n      0x00\n        /* \"#utility.yul\":3885:3952   */\n      tag_199\n        /* \"#utility.yul\":3949:3951   */\n      0x20\n        /* \"#utility.yul\":3944:3947   */\n      dup4\n        /* \"#utility.yul\":3885:3952   */\n      tag_179\n      jump\t// in\n    tag_199:\n        /* \"#utility.yul\":3878:3952   */\n      swap2\n      pop\n        /* \"#utility.yul\":3961:4054   */\n      tag_200\n        /* \"#utility.yul\":4050:4053   */\n      dup3\n        /* \"#utility.yul\":3961:4054   */\n      tag_201\n      jump\t// in\n    tag_200:\n        /* \"#utility.yul\":4079:4081   */\n      0x20\n        /* \"#utility.yul\":4074:4077   */\n      dup3\n        /* \"#utility.yul\":4070:4082   */\n      add\n        /* \"#utility.yul\":4063:4082   */\n      swap1\n      pop\n        /* \"#utility.yul\":3722:4088   */\n      swap2\n      swap1\n      pop\n      jump\t// out\n        /* \"#utility.yul\":4094:4460   */\n    tag_202:\n        /* \"#utility.yul\":4236:4239   */\n      0x00\n        /* \"#utility.yul\":4257:4324   */\n      tag_204\n        /* \"#utility.yul\":4321:4323   */\n      0x11\n        /* \"#utility.yul\":4316:4319   */\n      dup4\n        /* \"#utility.yul\":4257:4324   */\n      tag_179\n      jump\t// in\n    tag_204:\n        /* \"#utility.yul\":4250:4324   */\n      swap2\n      pop\n        /* \"#utility.yul\":4333:4426   */\n      tag_205\n        /* \"#utility.yul\":4422:4425   */\n      dup3\n        /* \"#utility.yul\":4333:4426   */\n      tag_206\n      jump\t// in\n    tag_205:\n        /* \"#utility.yul\":4451:4453   */\n      0x20\n        /* \"#utility.yul\":4446:4449   */\n      dup3\n        /* \"#utility.yul\":4442:4454   */\n      add\n        /* \"#utility.yul\":4435:4454   */\n      swap1\n      pop\n        /* \"#utility.yul\":4094:4460   */\n      swap2\n      swap1\n      pop\n      jump\t// out\n        /* \"#utility.yul\":4466:4584   */\n    tag_207:\n        /* \"#utility.yul\":4553:4577   */\n      tag_209\n        /* \"#utility.yul\":4571:4576   */\n      dup2\n        /* \"#utility.yul\":4553:4577   */\n      tag_210\n      jump\t// in\n    tag_209:\n        /* \"#utility.yul\":4548:4551   */\n      dup3\n        /* \"#utility.yul\":4541:4578   */\n      mstore\n        /* \"#utility.yul\":4466:4584   */\n      pop\n      pop\n      jump\t// out\n        /* \"#utility.yul\":4590:4812   */\n    tag_44:\n        /* \"#utility.yul\":4683:4687   */\n      0x00\n        /* \"#utility.yul\":4721:4723   */\n      0x20\n        /* \"#utility.yul\":4710:4719   */\n      dup3\n        /* \"#utility.yul\":4706:4724   */\n      add\n        /* \"#utility.yul\":4698:4724   */\n      swap1\n      pop\n        /* \"#utility.yul\":4734:4805   */\n      tag_212\n        /* \"#utility.yul\":4802:4803   */\n      0x00\n        /* \"#utility.yul\":4791:4800   */\n      dup4\n        /* \"#utility.yul\":4787:4804   */\n      add\n        /* \"#utility.yul\":4778:4784   */\n      dup5\n        /* \"#utility.yul\":4734:4805   */\n      tag_168\n      jump\t// in\n    tag_212:\n        /* \"#utility.yul\":4590:4812   */\n      swap3\n      swap2\n      pop\n      pop\n      jump\t// out\n        /* \"#utility.yul\":4818:5040   */\n    tag_61:\n        /* \"#utility.yul\":4911:4915   */\n      0x00\n        /* \"#utility.yul\":4949:4951   */\n      0x20\n        /* \"#utility.yul\":4938:4947   */\n      dup3\n        /* \"#utility.yul\":4934:4952   */\n      add\n        /* \"#utility.yul\":4926:4952   */\n      swap1\n      pop\n        /* \"#utility.yul\":4962:5033   */\n      tag_214\n        /* \"#utility.yul\":5030:5031   */\n      0x00\n        /* \"#utility.yul\":5019:5028   */\n      dup4\n        /* \"#utility.yul\":5015:5032   */\n      add\n        /* \"#utility.yul\":5006:5012   */\n      dup5\n        /* \"#utility.yul\":4962:5033   */\n      tag_172\n      jump\t// in\n    tag_214:\n        /* \"#utility.yul\":4818:5040   */\n      swap3\n      swap2\n      pop\n      pop\n      jump\t// out\n        /* \"#utility.yul\":5046:5465   */\n    tag_128:\n        /* \"#utility.yul\":5212:5216   */\n      0x00\n        /* \"#utility.yul\":5250:5252   */\n      0x20\n        /* \"#utility.yul\":5239:5248   */\n      dup3\n        /* \"#utility.yul\":5235:5253   */\n      add\n        /* \"#utility.yul\":5227:5253   */\n      swap1\n      pop\n        /* \"#utility.yul\":5299:5308   */\n      dup2\n        /* \"#utility.yul\":5293:5297   */\n      dup2\n        /* \"#utility.yul\":5289:5309   */\n      sub\n        /* \"#utility.yul\":5285:5286   */\n      0x00\n        /* \"#utility.yul\":5274:5283   */\n      dup4\n        /* \"#utility.yul\":5270:5287   */\n      add\n        /* \"#utility.yul\":5263:5310   */\n      mstore\n        /* \"#utility.yul\":5327:5458   */\n      tag_216\n        /* \"#utility.yul\":5453:5457   */\n      dup2\n        /* \"#utility.yul\":5327:5458   */\n      tag_176\n      jump\t// in\n    tag_216:\n        /* \"#utility.yul\":5319:5458   */\n      swap1\n      pop\n        /* \"#utility.yul\":5046:5465   */\n      swap2\n      swap1\n      pop\n      jump\t// out\n        /* \"#utility.yul\":5471:5890   */\n    tag_117:\n        /* \"#utility.yul\":5637:5641   */\n      0x00\n        /* \"#utility.yul\":5675:5677   */\n      0x20\n        /* \"#utility.yul\":5664:5673   */\n      dup3\n        /* \"#utility.yul\":5660:5678   */\n      add\n        /* \"#utility.yul\":5652:5678   */\n      swap1\n      pop\n        /* \"#utility.yul\":5724:5733   */\n      dup2\n        /* \"#utility.yul\":5718:5722   */\n      dup2\n        /* \"#utility.yul\":5714:5734   */\n      sub\n        /* \"#utility.yul\":5710:5711   */\n      0x00\n        /* \"#utility.yul\":5699:5708   */\n      dup4\n        /* \"#utility.yul\":5695:5712   */\n      add\n        /* \"#utility.yul\":5688:5735   */\n      mstore\n        /* \"#utility.yul\":5752:5883   */\n      tag_218\n        /* \"#utility.yul\":5878:5882   */\n      dup2\n        /* \"#utility.yul\":5752:5883   */\n      tag_182\n      jump\t// in\n    tag_218:\n        /* \"#utility.yul\":5744:5883   */\n      swap1\n      pop\n        /* \"#utility.yul\":5471:5890   */\n      swap2\n      swap1\n      pop\n      jump\t// out\n        /* \"#utility.yul\":5896:6315   */\n    tag_85:\n        /* \"#utility.yul\":6062:6066   */\n      0x00\n        /* \"#utility.yul\":6100:6102   */\n      0x20\n        /* \"#utility.yul\":6089:6098   */\n      dup3\n        /* \"#utility.yul\":6085:6103   */\n      add\n        /* \"#utility.yul\":6077:6103   */\n      swap1\n      pop\n        /* \"#utility.yul\":6149:6158   */\n      dup2\n        /* \"#utility.yul\":6143:6147   */\n      dup2\n        /* \"#utility.yul\":6139:6159   */\n      sub\n        /* \"#utility.yul\":6135:6136   */\n      0x00\n        /* \"#utility.yul\":6124:6133   */\n      dup4\n        /* \"#utility.yul\":6120:6137   */\n      add\n        /* \"#utility.yul\":6113:6160   */\n      mstore\n        /* \"#utility.yul\":6177:6308   */\n      tag_220\n        /* \"#utility.yul\":6303:6307   */\n      dup2\n        /* \"#utility.yul\":6177:6308   */\n      tag_187\n      jump\t// in\n    tag_220:\n        /* \"#utility.yul\":6169:6308   */\n      swap1\n      pop\n        /* \"#utility.yul\":5896:6315   */\n      swap2\n      swap1\n      pop\n      jump\t// out\n        /* \"#utility.yul\":6321:6740   */\n    tag_123:\n        /* \"#utility.yul\":6487:6491   */\n      0x00\n        /* \"#utility.yul\":6525:6527   */\n      0x20\n        /* \"#utility.yul\":6514:6523   */\n      dup3\n        /* \"#utility.yul\":6510:6528   */\n      add\n        /* \"#utility.yul\":6502:6528   */\n      swap1\n      pop\n        /* \"#utility.yul\":6574:6583   */\n      dup2\n        /* \"#utility.yul\":6568:6572   */\n      dup2\n        /* \"#utility.yul\":6564:6584   */\n      sub\n        /* \"#utility.yul\":6560:6561   */\n      0x00\n        /* \"#utility.yul\":6549:6558   */\n      dup4\n        /* \"#utility.yul\":6545:6562   */\n      add\n        /* \"#utility.yul\":6538:6585   */\n      mstore\n        /* \"#utility.yul\":6602:6733   */\n      tag_222\n        /* \"#utility.yul\":6728:6732   */\n      dup2\n        /* \"#utility.yul\":6602:6733   */\n      tag_192\n      jump\t// in\n    tag_222:\n        /* \"#utility.yul\":6594:6733   */\n      swap1\n      pop\n        /* \"#utility.yul\":6321:6740   */\n      swap2\n      swap1\n      pop\n      jump\t// out\n        /* \"#utility.yul\":6746:7165   */\n    tag_138:\n        /* \"#utility.yul\":6912:6916   */\n      0x00\n        /* \"#utility.yul\":6950:6952   */\n      0x20\n        /* \"#utility.yul\":6939:6948   */\n      dup3\n        /* \"#utility.yul\":6935:6953   */\n      add\n        /* \"#utility.yul\":6927:6953   */\n      swap1\n      pop\n        /* \"#utility.yul\":6999:7008   */\n      dup2\n        /* \"#utility.yul\":6993:6997   */\n      dup2\n        /* \"#utility.yul\":6989:7009   */\n      sub\n        /* \"#utility.yul\":6985:6986   */\n      0x00\n        /* \"#utility.yul\":6974:6983   */\n      dup4\n        /* \"#utility.yul\":6970:6987   */\n      add\n        /* \"#utility.yul\":6963:7010   */\n      mstore\n        /* \"#utility.yul\":7027:7158   */\n      tag_224\n        /* \"#utility.yul\":7153:7157   */\n      dup2\n        /* \"#utility.yul\":7027:7158   */\n      tag_197\n      jump\t// in\n    tag_224:\n        /* \"#utility.yul\":7019:7158   */\n      swap1\n      pop\n        /* \"#utility.yul\":6746:7165   */\n      swap2\n      swap1\n      pop\n      jump\t// out\n        /* \"#utility.yul\":7171:7590   */\n    tag_101:\n        /* \"#utility.yul\":7337:7341   */\n      0x00\n        /* \"#utility.yul\":7375:7377   */\n      0x20\n        /* \"#utility.yul\":7364:7373   */\n      dup3\n        /* \"#utility.yul\":7360:7378   */\n      add\n        /* \"#utility.yul\":7352:7378   */\n      swap1\n      pop\n        /* \"#utility.yul\":7424:7433   */\n      dup2\n        /* \"#utility.yul\":7418:7422   */\n      dup2\n        /* \"#utility.yul\":7414:7434   */\n      sub\n        /* \"#utility.yul\":7410:7411   */\n      0x00\n        /* \"#utility.yul\":7399:7408   */\n      dup4\n        /* \"#utility.yul\":7395:7412   */\n      add\n        /* \"#utility.yul\":7388:7435   */\n      mstore\n        /* \"#utility.yul\":7452:7583   */\n      tag_226\n        /* \"#utility.yul\":7578:7582   */\n      dup2\n        /* \"#utility.yul\":7452:7583   */\n      tag_202\n      jump\t// in\n    tag_226:\n        /* \"#utility.yul\":7444:7583   */\n      swap1\n      pop\n        /* \"#utility.yul\":7171:7590   */\n      swap2\n      swap1\n      pop\n      jump\t// out\n        /* \"#utility.yul\":7596:7818   */\n    tag_23:\n        /* \"#utility.yul\":7689:7693   */\n      0x00\n        /* \"#utility.yul\":7727:7729   */\n      0x20\n        /* \"#utility.yul\":7716:7725   */\n      dup3\n        /* \"#utility.yul\":7712:7730   */\n      add\n        /* \"#utility.yul\":7704:7730   */\n      swap1\n      pop\n        /* \"#utility.yul\":7740:7811   */\n      tag_228\n        /* \"#utility.yul\":7808:7809   */\n      0x00\n        /* \"#utility.yul\":7797:7806   */\n      dup4\n        /* \"#utility.yul\":7793:7810   */\n      add\n        /* \"#utility.yul\":7784:7790   */\n      dup5\n        /* \"#utility.yul\":7740:7811   */\n      tag_207\n      jump\t// in\n    tag_228:\n        /* \"#utility.yul\":7596:7818   */\n      swap3\n      swap2\n      pop\n      pop\n      jump\t// out\n        /* \"#utility.yul\":7905:8074   */\n    tag_179:\n        /* \"#utility.yul\":7989:8000   */\n      0x00\n        /* \"#utility.yul\":8023:8029   */\n      dup3\n        /* \"#utility.yul\":8018:8021   */\n      dup3\n        /* \"#utility.yul\":8011:8030   */\n      mstore\n        /* \"#utility.yul\":8063:8067   */\n      0x20\n        /* \"#utility.yul\":8058:8061   */\n      dup3\n        /* \"#utility.yul\":8054:8068   */\n      add\n        /* \"#utility.yul\":8039:8068   */\n      swap1\n      pop\n        /* \"#utility.yul\":7905:8074   */\n      swap3\n      swap2\n      pop\n      pop\n      jump\t// out\n        /* \"#utility.yul\":8080:8428   */\n    tag_125:\n        /* \"#utility.yul\":8120:8127   */\n      0x00\n        /* \"#utility.yul\":8143:8163   */\n      tag_233\n        /* \"#utility.yul\":8161:8162   */\n      dup3\n        /* \"#utility.yul\":8143:8163   */\n      tag_210\n      jump\t// in\n    tag_233:\n        /* \"#utility.yul\":8138:8163   */\n      swap2\n      pop\n        /* \"#utility.yul\":8177:8197   */\n      tag_234\n        /* \"#utility.yul\":8195:8196   */\n      dup4\n        /* \"#utility.yul\":8177:8197   */\n      tag_210\n      jump\t// in\n    tag_234:\n        /* \"#utility.yul\":8172:8197   */\n      swap3\n      pop\n        /* \"#utility.yul\":8365:8366   */\n      dup2\n        /* \"#utility.yul\":8297:8363   */\n      0xffffffffffffffffffffffffffffffffffffffffffffffffffffffffffffffff\n        /* \"#utility.yul\":8293:8367   */\n      div\n        /* \"#utility.yul\":8290:8291   */\n      dup4\n        /* \"#utility.yul\":8287:8368   */\n      gt\n        /* \"#utility.yul\":8282:8283   */\n      dup3\n        /* \"#utility.yul\":8275:8284   */\n      iszero\n        /* \"#utility.yul\":8268:8285   */\n      iszero\n        /* \"#utility.yul\":8264:8369   */\n      and\n        /* \"#utility.yul\":8261:8392   */\n      iszero\n      tag_235\n      jumpi\n        /* \"#utility.yul\":8372:8390   */\n      tag_236\n      tag_237\n      jump\t// in\n    tag_236:\n        /* \"#utility.yul\":8261:8392   */\n    tag_235:\n        /* \"#utility.yul\":8420:8421   */\n      dup3\n        /* \"#utility.yul\":8417:8418   */\n      dup3\n        /* \"#utility.yul\":8413:8422   */\n      mul\n        /* \"#utility.yul\":8402:8422   */\n      swap1\n      pop\n        /* \"#utility.yul\":8080:8428   */\n      swap3\n      swap2\n      pop\n      pop\n      jump\t// out\n        /* \"#utility.yul\":8434:8625   */\n    tag_103:\n        /* \"#utility.yul\":8474:8478   */\n      0x00\n        /* \"#utility.yul\":8494:8514   */\n      tag_239\n        /* \"#utility.yul\":8512:8513   */\n      dup3\n        /* \"#utility.yul\":8494:8514   */\n      tag_210\n      jump\t// in\n    tag_239:\n        /* \"#utility.yul\":8489:8514   */\n      swap2\n      pop\n        /* \"#utility.yul\":8528:8548   */\n      tag_240\n        /* \"#utility.yul\":8546:8547   */\n      dup4\n        /* \"#utility.yul\":8528:8548   */\n      tag_210\n      jump\t// in\n    tag_240:\n        /* \"#utility.yul\":8523:8548   */\n      swap3\n      pop\n        /* \"#utility.yul\":8567:8568   */\n      dup3\n        /* \"#utility.yul\":8564:8565   */\n      dup3\n        /* \"#utility.yul\":8561:8569   */\n      lt\n        /* \"#utility.yul\":8558:8592   */\n      iszero\n      tag_241\n      jumpi\n        /* \"#utility.yul\":8572:8590   */\n      tag_242\n      tag_237\n      jump\t// in\n    tag_242:\n        /* \"#utility.yul\":8558:8592   */\n    tag_241:\n        /* \"#utility.yul\":8617:8618   */\n      dup3\n        /* \"#utility.yul\":8614:8615   */\n      dup3\n        /* \"#utility.yul\":8610:8619   */\n      sub\n        /* \"#utility.yul\":8602:8619   */\n      swap1\n      pop\n        /* \"#utility.yul\":8434:8625   */\n      swap3\n      swap2\n      pop\n      pop\n      jump\t// out\n        /* \"#utility.yul\":8631:8727   */\n    tag_171:\n        /* \"#utility.yul\":8668:8675   */\n      0x00\n        /* \"#utility.yul\":8697:8721   */\n      tag_244\n        /* \"#utility.yul\":8715:8720   */\n      dup3\n        /* \"#utility.yul\":8697:8721   */\n      tag_245\n      jump\t// in\n    tag_244:\n        /* \"#utility.yul\":8686:8721   */\n      swap1\n      pop\n        /* \"#utility.yul\":8631:8727   */\n      swap2\n      swap1\n      pop\n      jump\t// out\n        /* \"#utility.yul\":8733:8810   */\n    tag_175:\n        /* \"#utility.yul\":8770:8777   */\n      0x00\n        /* \"#utility.yul\":8799:8804   */\n      dup2\n        /* \"#utility.yul\":8788:8804   */\n      swap1\n      pop\n        /* \"#utility.yul\":8733:8810   */\n      swap2\n      swap1\n      pop\n      jump\t// out\n        /* \"#utility.yul\":8816:8942   */\n    tag_245:\n        /* \"#utility.yul\":8853:8860   */\n      0x00\n        /* \"#utility.yul\":8893:8935   */\n      0xffffffffffffffffffffffffffffffffffffffff\n        /* \"#utility.yul\":8886:8891   */\n      dup3\n        /* \"#utility.yul\":8882:8936   */\n      and\n        /* \"#utility.yul\":8871:8936   */\n      swap1\n      pop\n        /* \"#utility.yul\":8816:8942   */\n      swap2\n      swap1\n      pop\n      jump\t// out\n        /* \"#utility.yul\":8948:9025   */\n    tag_210:\n        /* \"#utility.yul\":8985:8992   */\n      0x00\n        /* \"#utility.yul\":9014:9019   */\n      dup2\n        /* \"#utility.yul\":9003:9019   */\n      swap1\n      pop\n        /* \"#utility.yul\":8948:9025   */\n      swap2\n      swap1\n      pop\n      jump\t// out\n        /* \"#utility.yul\":9031:9211   */\n    tag_237:\n        /* \"#utility.yul\":9079:9156   */\n      0x4e487b7100000000000000000000000000000000000000000000000000000000\n        /* \"#utility.yul\":9076:9077   */\n      0x00\n        /* \"#utility.yul\":9069:9157   */\n      mstore\n        /* \"#utility.yul\":9176:9180   */\n      0x11\n        /* \"#utility.yul\":9173:9174   */\n      0x04\n        /* \"#utility.yul\":9166:9181   */\n      mstore\n        /* \"#utility.yul\":9200:9204   */\n      0x24\n        /* \"#utility.yul\":9197:9198   */\n      0x00\n        /* \"#utility.yul\":9190:9205   */\n      revert\n        /* \"#utility.yul\":9217:9397   */\n    tag_80:\n        /* \"#utility.yul\":9265:9342   */\n      0x4e487b7100000000000000000000000000000000000000000000000000000000\n        /* \"#utility.yul\":9262:9263   */\n      0x00\n        /* \"#utility.yul\":9255:9343   */\n      mstore\n        /* \"#utility.yul\":9362:9366   */\n      0x21\n        /* \"#utility.yul\":9359:9360   */\n      0x04\n        /* \"#utility.yul\":9352:9367   */\n      mstore\n        /* \"#utility.yul\":9386:9390   */\n      0x24\n        /* \"#utility.yul\":9383:9384   */\n      0x00\n        /* \"#utility.yul\":9376:9391   */\n      revert\n        /* \"#utility.yul\":9403:9583   */\n    tag_110:\n        /* \"#utility.yul\":9451:9528   */\n      0x4e487b7100000000000000000000000000000000000000000000000000000000\n        /* \"#utility.yul\":9448:9449   */\n      0x00\n        /* \"#utility.yul\":9441:9529   */\n      mstore\n        /* \"#utility.yul\":9548:9552   */\n      0x31\n        /* \"#utility.yul\":9545:9546   */\n      0x04\n        /* \"#utility.yul\":9538:9553   */\n      mstore\n        /* \"#utility.yul\":9572:9576   */\n      0x24\n        /* \"#utility.yul\":9569:9570   */\n      0x00\n        /* \"#utility.yul\":9562:9577   */\n      revert\n        /* \"#utility.yul\":9589:9769   */\n    tag_106:\n        /* \"#utility.yul\":9637:9714   */\n      0x4e487b7100000000000000000000000000000000000000000000000000000000\n        /* \"#utility.yul\":9634:9635   */\n      0x00\n        /* \"#utility.yul\":9627:9715   */\n      mstore\n        /* \"#utility.yul\":9734:9738   */\n      0x32\n        /* \"#utility.yul\":9731:9732   */\n      0x04\n        /* \"#utility.yul\":9724:9739   */\n      mstore\n        /* \"#utility.yul\":9758:9762   */\n      0x24\n        /* \"#utility.yul\":9755:9756   */\n      0x00\n        /* \"#utility.yul\":9748:9763   */\n      revert\n        /* \"#utility.yul\":9898:10015   */\n    tag_156:\n        /* \"#utility.yul\":10007:10008   */\n      0x00\n        /* \"#utility.yul\":10004:10005   */\n      dup1\n        /* \"#utility.yul\":9997:10009   */\n      revert\n        /* \"#utility.yul\":10021:10247   */\n    tag_181:\n        /* \"#utility.yul\":10161:10195   */\n      0x6f72646572206d757374206265206f6620636f72726563742073697a6520616e\n        /* \"#utility.yul\":10157:10158   */\n      0x00\n        /* \"#utility.yul\":10149:10155   */\n      dup3\n        /* \"#utility.yul\":10145:10159   */\n      add\n        /* \"#utility.yul\":10138:10196   */\n      mstore\n        /* \"#utility.yul\":10230:10239   */\n      0x6420707269636500000000000000000000000000000000000000000000000000\n        /* \"#utility.yul\":10225:10227   */\n      0x20\n        /* \"#utility.yul\":10217:10223   */\n      dup3\n        /* \"#utility.yul\":10213:10228   */\n      add\n        /* \"#utility.yul\":10206:10240   */\n      mstore\n        /* \"#utility.yul\":10021:10247   */\n      pop\n      jump\t// out\n        /* \"#utility.yul\":10253:10478   */\n    tag_186:\n        /* \"#utility.yul\":10393:10427   */\n      0x4f776e61626c653a206e6577206f776e657220697320746865207a65726f2061\n        /* \"#utility.yul\":10389:10390   */\n      0x00\n        /* \"#utility.yul\":10381:10387   */\n      dup3\n        /* \"#utility.yul\":10377:10391   */\n      add\n        /* \"#utility.yul\":10370:10428   */\n      mstore\n        /* \"#utility.yul\":10462:10470   */\n      0x6464726573730000000000000000000000000000000000000000000000000000\n        /* \"#utility.yul\":10457:10459   */\n      0x20\n        /* \"#utility.yul\":10449:10455   */\n      dup3\n        /* \"#utility.yul\":10445:10460   */\n      add\n        /* \"#utility.yul\":10438:10471   */\n      mstore\n        /* \"#utility.yul\":10253:10478   */\n      pop\n      jump\t// out\n        /* \"#utility.yul\":10484:10711   */\n    tag_191:\n        /* \"#utility.yul\":10624:10658   */\n      0x546869732070726f647563652068617320616c7265616479206265656e20696e\n        /* \"#utility.yul\":10620:10621   */\n      0x00\n        /* \"#utility.yul\":10612:10618   */\n      dup3\n        /* \"#utility.yul\":10608:10622   */\n      add\n        /* \"#utility.yul\":10601:10659   */\n      mstore\n        /* \"#utility.yul\":10693:10703   */\n      0x6974696c697a6564000000000000000000000000000000000000000000000000\n        /* \"#utility.yul\":10688:10690   */\n      0x20\n        /* \"#utility.yul\":10680:10686   */\n      dup3\n        /* \"#utility.yul\":10676:10691   */\n      add\n        /* \"#utility.yul\":10669:10704   */\n      mstore\n        /* \"#utility.yul\":10484:10711   */\n      pop\n      jump\t// out\n        /* \"#utility.yul\":10717:10951   */\n    tag_196:\n        /* \"#utility.yul\":10857:10891   */\n      0x6661726d65722063616e6e6f7420706c616365206f7264657220666f72207468\n        /* \"#utility.yul\":10853:10854   */\n      0x00\n        /* \"#utility.yul\":10845:10851   */\n      dup3\n        /* \"#utility.yul\":10841:10855   */\n      add\n        /* \"#utility.yul\":10834:10892   */\n      mstore\n        /* \"#utility.yul\":10926:10943   */\n      0x656972206f776e2070726f647563650000000000000000000000000000000000\n        /* \"#utility.yul\":10921:10923   */\n      0x20\n        /* \"#utility.yul\":10913:10919   */\n      dup3\n        /* \"#utility.yul\":10909:10924   */\n      add\n        /* \"#utility.yul\":10902:10944   */\n      mstore\n        /* \"#utility.yul\":10717:10951   */\n      pop\n      jump\t// out\n        /* \"#utility.yul\":10957:11139   */\n    tag_201:\n        /* \"#utility.yul\":11097:11131   */\n      0x4f776e61626c653a2063616c6c6572206973206e6f7420746865206f776e6572\n        /* \"#utility.yul\":11093:11094   */\n      0x00\n        /* \"#utility.yul\":11085:11091   */\n      dup3\n        /* \"#utility.yul\":11081:11095   */\n      add\n        /* \"#utility.yul\":11074:11132   */\n      mstore\n        /* \"#utility.yul\":10957:11139   */\n      pop\n      jump\t// out\n        /* \"#utility.yul\":11145:11312   */\n    tag_206:\n        /* \"#utility.yul\":11285:11304   */\n      0x4e6f206f726465727320746f2074616b65000000000000000000000000000000\n        /* \"#utility.yul\":11281:11282   */\n      0x00\n        /* \"#utility.yul\":11273:11279   */\n      dup3\n        /* \"#utility.yul\":11269:11283   */\n      add\n        /* \"#utility.yul\":11262:11305   */\n      mstore\n        /* \"#utility.yul\":11145:11312   */\n      pop\n      jump\t// out\n        /* \"#utility.yul\":11318:11440   */\n    tag_144:\n        /* \"#utility.yul\":11391:11415   */\n      tag_263\n        /* \"#utility.yul\":11409:11414   */\n      dup2\n        /* \"#utility.yul\":11391:11415   */\n      tag_171\n      jump\t// in\n    tag_263:\n        /* \"#utility.yul\":11384:11389   */\n      dup2\n        /* \"#utility.yul\":11381:11416   */\n      eq\n        /* \"#utility.yul\":11371:11434   */\n      tag_264\n      jumpi\n        /* \"#utility.yul\":11430:11431   */\n      0x00\n        /* \"#utility.yul\":11427:11428   */\n      dup1\n        /* \"#utility.yul\":11420:11432   */\n      revert\n        /* \"#utility.yul\":11371:11434   */\n    tag_264:\n        /* \"#utility.yul\":11318:11440   */\n      pop\n      jump\t// out\n        /* \"#utility.yul\":11446:11568   */\n    tag_148:\n        /* \"#utility.yul\":11519:11543   */\n      tag_266\n        /* \"#utility.yul\":11537:11542   */\n      dup2\n        /* \"#utility.yul\":11519:11543   */\n      tag_175\n      jump\t// in\n    tag_266:\n        /* \"#utility.yul\":11512:11517   */\n      dup2\n        /* \"#utility.yul\":11509:11544   */\n      eq\n        /* \"#utility.yul\":11499:11562   */\n      tag_267\n      jumpi\n        /* \"#utility.yul\":11558:11559   */\n      0x00\n        /* \"#utility.yul\":11555:11556   */\n      dup1\n        /* \"#utility.yul\":11548:11560   */\n      revert\n        /* \"#utility.yul\":11499:11562   */\n    tag_267:\n        /* \"#utility.yul\":11446:11568   */\n      pop\n      jump\t// out\n        /* \"#utility.yul\":11574:11696   */\n    tag_152:\n        /* \"#utility.yul\":11647:11671   */\n      tag_269\n        /* \"#utility.yul\":11665:11670   */\n      dup2\n        /* \"#utility.yul\":11647:11671   */\n      tag_210\n      jump\t// in\n    tag_269:\n        /* \"#utility.yul\":11640:11645   */\n      dup2\n        /* \"#utility.yul\":11637:11672   */\n      eq\n        /* \"#utility.yul\":11627:11690   */\n      tag_270\n      jumpi\n        /* \"#utility.yul\":11686:11687   */\n      0x00\n        /* \"#utility.yul\":11683:11684   */\n      dup1\n        /* \"#utility.yul\":11676:11688   */\n      revert\n        /* \"#utility.yul\":11627:11690   */\n    tag_270:\n        /* \"#utility.yul\":11574:11696   */\n      pop\n      jump\t// out\n\n    auxdata: 0xa2646970667358221220fe2f813ce240478a30f5d4d2da9696e589917efc61330b52b09d6865ddbc802b64736f6c63430008070033\n}\n",
				"bytecode": {
					"linkReferences": {},
					"object": "608060405234801561001057600080fd5b5061002d61002261005d60201b60201c565b61006560201b60201c565b6000600960146101000a81548160ff0219169083600181111561005357610052610129565b5b0217905550610158565b600033905090565b60008060009054906101000a900473ffffffffffffffffffffffffffffffffffffffff169050816000806101000a81548173ffffffffffffffffffffffffffffffffffffffff021916908373ffffffffffffffffffffffffffffffffffffffff1602179055508173ffffffffffffffffffffffffffffffffffffffff168173ffffffffffffffffffffffffffffffffffffffff167f8be0079c531659141344cd1fd0a4f28419497f9722a3daafe3b4186f6b6457e060405160405180910390a35050565b7f4e487b7100000000000000000000000000000000000000000000000000000000600052602160045260246000fd5b610ff6806101676000396000f3fe6080604052600436106100dd5760003560e01c80638da5cb5b1161007f578063d32dacc111610059578063d32dacc11461027a578063d811fcf0146102a5578063f2fde38b146102d0578063f5c609e0146102f9576100dd565b80638da5cb5b146101f9578063a035b1fe14610224578063aa8c217c1461024f576100dd565b80636d86b8a5116100bb5780636d86b8a514610161578063715018a61461018c57806380f55605146101a357806381bbfb61146101ce576100dd565b806306fdde03146100e2578063530d124e1461010d5780635f1f38af14610138575b600080fd5b3480156100ee57600080fd5b506100f7610303565b6040516101049190610c2c565b60405180910390f35b34801561011957600080fd5b50610122610309565b60405161012f9190610c2c565b60405180910390f35b34801561014457600080fd5b5061015f600480360381019061015a9190610995565b61030f565b005b34801561016d57600080fd5b50610176610467565b6040516101839190610c2c565b60405180910390f35b34801561019857600080fd5b506101a161046d565b005b3480156101af57600080fd5b506101b8610481565b6040516101c59190610b36565b60405180910390f35b3480156101da57600080fd5b506101e36104a7565b6040516101f09190610b36565b60405180910390f35b34801561020557600080fd5b5061020e6104cd565b60405161021b9190610b36565b60405180910390f35b34801561023057600080fd5b506102396104f6565b6040516102469190610c2c565b60405180910390f35b34801561025b57600080fd5b506102646104fc565b6040516102719190610b51565b60405180910390f35b34801561028657600080fd5b5061028f610502565b60405161029c9190610b36565b60405180910390f35b3480156102b157600080fd5b506102ba6105f6565b6040516102c79190610b36565b60405180910390f35b3480156102dc57600080fd5b506102f760048036038101906102f29190610968565b61061c565b005b6103016106a0565b005b60055481565b60045481565b6000600181111561032357610322610d5b565b5b600960149054906101000a900460ff16600181111561034557610344610d5b565b5b14610385576040517f08c379a000000000000000000000000000000000000000000000000000000000815260040161037c90610bac565b60405180910390fd5b61038e876107df565b33600260006101000a81548173ffffffffffffffffffffffffffffffffffffffff021916908373ffffffffffffffffffffffffffffffffffffffff160217905550816004819055508560058190555084600681905550836007819055508260088190555080600960006101000a81548173ffffffffffffffffffffffffffffffffffffffff021916908373ffffffffffffffffffffffffffffffffffffffff1602179055506001600960146101000a81548160ff0219169083600181111561045957610458610d5b565b5b021790555050505050505050565b60075481565b6104756108a3565b61047f60006107df565b565b600260009054906101000a900473ffffffffffffffffffffffffffffffffffffffff1681565b600960009054906101000a900473ffffffffffffffffffffffffffffffffffffffff1681565b60008060009054906101000a900473ffffffffffffffffffffffffffffffffffffffff16905090565b60065481565b60085481565b600061050c6108a3565b600060038054905011610554576040517f08c379a000000000000000000000000000000000000000000000000000000000815260040161054b90610c0c565b60405180910390fd5b60006003600160038054905061056a9190610cb2565b8154811061057b5761057a610db9565b5b9060005260206000200160009054906101000a900473ffffffffffffffffffffffffffffffffffffffff16905060038054806105ba576105b9610d8a565b5b6001900381819060005260206000200160006101000a81549073ffffffffffffffffffffffffffffffffffffffff021916905590558091505090565b600160009054906101000a900473ffffffffffffffffffffffffffffffffffffffff1681565b6106246108a3565b600073ffffffffffffffffffffffffffffffffffffffff168173ffffffffffffffffffffffffffffffffffffffff161415610694576040517f08c379a000000000000000000000000000000000000000000000000000000000815260040161068b90610b8c565b60405180910390fd5b61069d816107df565b50565b6106a86104cd565b73ffffffffffffffffffffffffffffffffffffffff163373ffffffffffffffffffffffffffffffffffffffff161415610716576040517f08c379a000000000000000000000000000000000000000000000000000000000815260040161070d90610bcc565b60405180910390fd5b6006546007546107269190610c58565b3414610767576040517f08c379a000000000000000000000000000000000000000000000000000000000815260040161075e90610b6c565b60405180910390fd5b6004546003805490501061077a57600080fd5b6003339080600181540180825580915050600190039060005260206000200160009091909190916101000a81548173ffffffffffffffffffffffffffffffffffffffff021916908373ffffffffffffffffffffffffffffffffffffffff160217905550565b60008060009054906101000a900473ffffffffffffffffffffffffffffffffffffffff169050816000806101000a81548173ffffffffffffffffffffffffffffffffffffffff021916908373ffffffffffffffffffffffffffffffffffffffff1602179055508173ffffffffffffffffffffffffffffffffffffffff168173ffffffffffffffffffffffffffffffffffffffff167f8be0079c531659141344cd1fd0a4f28419497f9722a3daafe3b4186f6b6457e060405160405180910390a35050565b6108ab610921565b73ffffffffffffffffffffffffffffffffffffffff166108c96104cd565b73ffffffffffffffffffffffffffffffffffffffff161461091f576040517f08c379a000000000000000000000000000000000000000000000000000000000815260040161091690610bec565b60405180910390fd5b565b600033905090565b60008135905061093881610f7b565b92915050565b60008135905061094d81610f92565b92915050565b60008135905061096281610fa9565b92915050565b60006020828403121561097e5761097d610de8565b5b600061098c84828501610929565b91505092915050565b600080600080600080600060e0888a0312156109b4576109b3610de8565b5b60006109c28a828b01610929565b97505060206109d38a828b01610953565b96505060406109e48a828b01610953565b95505060606109f58a828b01610953565b9450506080610a068a828b0161093e565b93505060a0610a178a828b01610953565b92505060c0610a288a828b01610929565b91505092959891949750929550565b610a4081610ce6565b82525050565b610a4f81610cf8565b82525050565b6000610a62602783610c47565b9150610a6d82610ded565b604082019050919050565b6000610a85602683610c47565b9150610a9082610e3c565b604082019050919050565b6000610aa8602883610c47565b9150610ab382610e8b565b604082019050919050565b6000610acb602f83610c47565b9150610ad682610eda565b604082019050919050565b6000610aee602083610c47565b9150610af982610f29565b602082019050919050565b6000610b11601183610c47565b9150610b1c82610f52565b602082019050919050565b610b3081610d22565b82525050565b6000602082019050610b4b6000830184610a37565b92915050565b6000602082019050610b666000830184610a46565b92915050565b60006020820190508181036000830152610b8581610a55565b9050919050565b60006020820190508181036000830152610ba581610a78565b9050919050565b60006020820190508181036000830152610bc581610a9b565b9050919050565b60006020820190508181036000830152610be581610abe565b9050919050565b60006020820190508181036000830152610c0581610ae1565b9050919050565b60006020820190508181036000830152610c2581610b04565b9050919050565b6000602082019050610c416000830184610b27565b92915050565b600082825260208201905092915050565b6000610c6382610d22565b9150610c6e83610d22565b9250817fffffffffffffffffffffffffffffffffffffffffffffffffffffffffffffffff0483118215151615610ca757610ca6610d2c565b5b828202905092915050565b6000610cbd82610d22565b9150610cc883610d22565b925082821015610cdb57610cda610d2c565b5b828203905092915050565b6000610cf182610d02565b9050919050565b6000819050919050565b600073ffffffffffffffffffffffffffffffffffffffff82169050919050565b6000819050919050565b7f4e487b7100000000000000000000000000000000000000000000000000000000600052601160045260246000fd5b7f4e487b7100000000000000000000000000000000000000000000000000000000600052602160045260246000fd5b7f4e487b7100000000000000000000000000000000000000000000000000000000600052603160045260246000fd5b7f4e487b7100000000000000000000000000000000000000000000000000000000600052603260045260246000fd5b600080fd5b7f6f72646572206d757374206265206f6620636f72726563742073697a6520616e60008201527f6420707269636500000000000000000000000000000000000000000000000000602082015250565b7f4f776e61626c653a206e6577206f776e657220697320746865207a65726f206160008201527f6464726573730000000000000000000000000000000000000000000000000000602082015250565b7f546869732070726f647563652068617320616c7265616479206265656e20696e60008201527f6974696c697a6564000000000000000000000000000000000000000000000000602082015250565b7f6661726d65722063616e6e6f7420706c616365206f7264657220666f7220746860008201527f656972206f776e2070726f647563650000000000000000000000000000000000602082015250565b7f4f776e61626c653a2063616c6c6572206973206e6f7420746865206f776e6572600082015250565b7f4e6f206f726465727320746f2074616b65000000000000000000000000000000600082015250565b610f8481610ce6565b8114610f8f57600080fd5b50565b610f9b81610cf8565b8114610fa657600080fd5b50565b610fb281610d22565b8114610fbd57600080fd5b5056fea2646970667358221220fe2f813ce240478a30f5d4d2da9696e589917efc61330b52b09d6865ddbc802b64736f6c63430008070033",
					"opcodes": "PUSH1 0x80 PUSH1 0x40 MSTORE CALLVALUE DUP1 ISZERO PUSH2 0x10 JUMPI PUSH1 0x0 DUP1 REVERT JUMPDEST POP PUSH2 0x2D PUSH2 0x22 PUSH2 0x5D PUSH1 0x20 SHL PUSH1 0x20 SHR JUMP JUMPDEST PUSH2 0x65 PUSH1 0x20 SHL PUSH1 0x20 SHR JUMP JUMPDEST PUSH1 0x0 PUSH1 0x9 PUSH1 0x14 PUSH2 0x100 EXP DUP2 SLOAD DUP2 PUSH1 0xFF MUL NOT AND SWAP1 DUP4 PUSH1 0x1 DUP2 GT ISZERO PUSH2 0x53 JUMPI PUSH2 0x52 PUSH2 0x129 JUMP JUMPDEST JUMPDEST MUL OR SWAP1 SSTORE POP PUSH2 0x158 JUMP JUMPDEST PUSH1 0x0 CALLER SWAP1 POP SWAP1 JUMP JUMPDEST PUSH1 0x0 DUP1 PUSH1 0x0 SWAP1 SLOAD SWAP1 PUSH2 0x100 EXP SWAP1 DIV PUSH20 0xFFFFFFFFFFFFFFFFFFFFFFFFFFFFFFFFFFFFFFFF AND SWAP1 POP DUP2 PUSH1 0x0 DUP1 PUSH2 0x100 EXP DUP2 SLOAD DUP2 PUSH20 0xFFFFFFFFFFFFFFFFFFFFFFFFFFFFFFFFFFFFFFFF MUL NOT AND SWAP1 DUP4 PUSH20 0xFFFFFFFFFFFFFFFFFFFFFFFFFFFFFFFFFFFFFFFF AND MUL OR SWAP1 SSTORE POP DUP2 PUSH20 0xFFFFFFFFFFFFFFFFFFFFFFFFFFFFFFFFFFFFFFFF AND DUP2 PUSH20 0xFFFFFFFFFFFFFFFFFFFFFFFFFFFFFFFFFFFFFFFF AND PUSH32 0x8BE0079C531659141344CD1FD0A4F28419497F9722A3DAAFE3B4186F6B6457E0 PUSH1 0x40 MLOAD PUSH1 0x40 MLOAD DUP1 SWAP2 SUB SWAP1 LOG3 POP POP JUMP JUMPDEST PUSH32 0x4E487B7100000000000000000000000000000000000000000000000000000000 PUSH1 0x0 MSTORE PUSH1 0x21 PUSH1 0x4 MSTORE PUSH1 0x24 PUSH1 0x0 REVERT JUMPDEST PUSH2 0xFF6 DUP1 PUSH2 0x167 PUSH1 0x0 CODECOPY PUSH1 0x0 RETURN INVALID PUSH1 0x80 PUSH1 0x40 MSTORE PUSH1 0x4 CALLDATASIZE LT PUSH2 0xDD JUMPI PUSH1 0x0 CALLDATALOAD PUSH1 0xE0 SHR DUP1 PUSH4 0x8DA5CB5B GT PUSH2 0x7F JUMPI DUP1 PUSH4 0xD32DACC1 GT PUSH2 0x59 JUMPI DUP1 PUSH4 0xD32DACC1 EQ PUSH2 0x27A JUMPI DUP1 PUSH4 0xD811FCF0 EQ PUSH2 0x2A5 JUMPI DUP1 PUSH4 0xF2FDE38B EQ PUSH2 0x2D0 JUMPI DUP1 PUSH4 0xF5C609E0 EQ PUSH2 0x2F9 JUMPI PUSH2 0xDD JUMP JUMPDEST DUP1 PUSH4 0x8DA5CB5B EQ PUSH2 0x1F9 JUMPI DUP1 PUSH4 0xA035B1FE EQ PUSH2 0x224 JUMPI DUP1 PUSH4 0xAA8C217C EQ PUSH2 0x24F JUMPI PUSH2 0xDD JUMP JUMPDEST DUP1 PUSH4 0x6D86B8A5 GT PUSH2 0xBB JUMPI DUP1 PUSH4 0x6D86B8A5 EQ PUSH2 0x161 JUMPI DUP1 PUSH4 0x715018A6 EQ PUSH2 0x18C JUMPI DUP1 PUSH4 0x80F55605 EQ PUSH2 0x1A3 JUMPI DUP1 PUSH4 0x81BBFB61 EQ PUSH2 0x1CE JUMPI PUSH2 0xDD JUMP JUMPDEST DUP1 PUSH4 0x6FDDE03 EQ PUSH2 0xE2 JUMPI DUP1 PUSH4 0x530D124E EQ PUSH2 0x10D JUMPI DUP1 PUSH4 0x5F1F38AF EQ PUSH2 0x138 JUMPI JUMPDEST PUSH1 0x0 DUP1 REVERT JUMPDEST CALLVALUE DUP1 ISZERO PUSH2 0xEE JUMPI PUSH1 0x0 DUP1 REVERT JUMPDEST POP PUSH2 0xF7 PUSH2 0x303 JUMP JUMPDEST PUSH1 0x40 MLOAD PUSH2 0x104 SWAP2 SWAP1 PUSH2 0xC2C JUMP JUMPDEST PUSH1 0x40 MLOAD DUP1 SWAP2 SUB SWAP1 RETURN JUMPDEST CALLVALUE DUP1 ISZERO PUSH2 0x119 JUMPI PUSH1 0x0 DUP1 REVERT JUMPDEST POP PUSH2 0x122 PUSH2 0x309 JUMP JUMPDEST PUSH1 0x40 MLOAD PUSH2 0x12F SWAP2 SWAP1 PUSH2 0xC2C JUMP JUMPDEST PUSH1 0x40 MLOAD DUP1 SWAP2 SUB SWAP1 RETURN JUMPDEST CALLVALUE DUP1 ISZERO PUSH2 0x144 JUMPI PUSH1 0x0 DUP1 REVERT JUMPDEST POP PUSH2 0x15F PUSH1 0x4 DUP1 CALLDATASIZE SUB DUP2 ADD SWAP1 PUSH2 0x15A SWAP2 SWAP1 PUSH2 0x995 JUMP JUMPDEST PUSH2 0x30F JUMP JUMPDEST STOP JUMPDEST CALLVALUE DUP1 ISZERO PUSH2 0x16D JUMPI PUSH1 0x0 DUP1 REVERT JUMPDEST POP PUSH2 0x176 PUSH2 0x467 JUMP JUMPDEST PUSH1 0x40 MLOAD PUSH2 0x183 SWAP2 SWAP1 PUSH2 0xC2C JUMP JUMPDEST PUSH1 0x40 MLOAD DUP1 SWAP2 SUB SWAP1 RETURN JUMPDEST CALLVALUE DUP1 ISZERO PUSH2 0x198 JUMPI PUSH1 0x0 DUP1 REVERT JUMPDEST POP PUSH2 0x1A1 PUSH2 0x46D JUMP JUMPDEST STOP JUMPDEST CALLVALUE DUP1 ISZERO PUSH2 0x1AF JUMPI PUSH1 0x0 DUP1 REVERT JUMPDEST POP PUSH2 0x1B8 PUSH2 0x481 JUMP JUMPDEST PUSH1 0x40 MLOAD PUSH2 0x1C5 SWAP2 SWAP1 PUSH2 0xB36 JUMP JUMPDEST PUSH1 0x40 MLOAD DUP1 SWAP2 SUB SWAP1 RETURN JUMPDEST CALLVALUE DUP1 ISZERO PUSH2 0x1DA JUMPI PUSH1 0x0 DUP1 REVERT JUMPDEST POP PUSH2 0x1E3 PUSH2 0x4A7 JUMP JUMPDEST PUSH1 0x40 MLOAD PUSH2 0x1F0 SWAP2 SWAP1 PUSH2 0xB36 JUMP JUMPDEST PUSH1 0x40 MLOAD DUP1 SWAP2 SUB SWAP1 RETURN JUMPDEST CALLVALUE DUP1 ISZERO PUSH2 0x205 JUMPI PUSH1 0x0 DUP1 REVERT JUMPDEST POP PUSH2 0x20E PUSH2 0x4CD JUMP JUMPDEST PUSH1 0x40 MLOAD PUSH2 0x21B SWAP2 SWAP1 PUSH2 0xB36 JUMP JUMPDEST PUSH1 0x40 MLOAD DUP1 SWAP2 SUB SWAP1 RETURN JUMPDEST CALLVALUE DUP1 ISZERO PUSH2 0x230 JUMPI PUSH1 0x0 DUP1 REVERT JUMPDEST POP PUSH2 0x239 PUSH2 0x4F6 JUMP JUMPDEST PUSH1 0x40 MLOAD PUSH2 0x246 SWAP2 SWAP1 PUSH2 0xC2C JUMP JUMPDEST PUSH1 0x40 MLOAD DUP1 SWAP2 SUB SWAP1 RETURN JUMPDEST CALLVALUE DUP1 ISZERO PUSH2 0x25B JUMPI PUSH1 0x0 DUP1 REVERT JUMPDEST POP PUSH2 0x264 PUSH2 0x4FC JUMP JUMPDEST PUSH1 0x40 MLOAD PUSH2 0x271 SWAP2 SWAP1 PUSH2 0xB51 JUMP JUMPDEST PUSH1 0x40 MLOAD DUP1 SWAP2 SUB SWAP1 RETURN JUMPDEST CALLVALUE DUP1 ISZERO PUSH2 0x286 JUMPI PUSH1 0x0 DUP1 REVERT JUMPDEST POP PUSH2 0x28F PUSH2 0x502 JUMP JUMPDEST PUSH1 0x40 MLOAD PUSH2 0x29C SWAP2 SWAP1 PUSH2 0xB36 JUMP JUMPDEST PUSH1 0x40 MLOAD DUP1 SWAP2 SUB SWAP1 RETURN JUMPDEST CALLVALUE DUP1 ISZERO PUSH2 0x2B1 JUMPI PUSH1 0x0 DUP1 REVERT JUMPDEST POP PUSH2 0x2BA PUSH2 0x5F6 JUMP JUMPDEST PUSH1 0x40 MLOAD PUSH2 0x2C7 SWAP2 SWAP1 PUSH2 0xB36 JUMP JUMPDEST PUSH1 0x40 MLOAD DUP1 SWAP2 SUB SWAP1 RETURN JUMPDEST CALLVALUE DUP1 ISZERO PUSH2 0x2DC JUMPI PUSH1 0x0 DUP1 REVERT JUMPDEST POP PUSH2 0x2F7 PUSH1 0x4 DUP1 CALLDATASIZE SUB DUP2 ADD SWAP1 PUSH2 0x2F2 SWAP2 SWAP1 PUSH2 0x968 JUMP JUMPDEST PUSH2 0x61C JUMP JUMPDEST STOP JUMPDEST PUSH2 0x301 PUSH2 0x6A0 JUMP JUMPDEST STOP JUMPDEST PUSH1 0x5 SLOAD DUP2 JUMP JUMPDEST PUSH1 0x4 SLOAD DUP2 JUMP JUMPDEST PUSH1 0x0 PUSH1 0x1 DUP2 GT ISZERO PUSH2 0x323 JUMPI PUSH2 0x322 PUSH2 0xD5B JUMP JUMPDEST JUMPDEST PUSH1 0x9 PUSH1 0x14 SWAP1 SLOAD SWAP1 PUSH2 0x100 EXP SWAP1 DIV PUSH1 0xFF AND PUSH1 0x1 DUP2 GT ISZERO PUSH2 0x345 JUMPI PUSH2 0x344 PUSH2 0xD5B JUMP JUMPDEST JUMPDEST EQ PUSH2 0x385 JUMPI PUSH1 0x40 MLOAD PUSH32 0x8C379A000000000000000000000000000000000000000000000000000000000 DUP2 MSTORE PUSH1 0x4 ADD PUSH2 0x37C SWAP1 PUSH2 0xBAC JUMP JUMPDEST PUSH1 0x40 MLOAD DUP1 SWAP2 SUB SWAP1 REVERT JUMPDEST PUSH2 0x38E DUP8 PUSH2 0x7DF JUMP JUMPDEST CALLER PUSH1 0x2 PUSH1 0x0 PUSH2 0x100 EXP DUP2 SLOAD DUP2 PUSH20 0xFFFFFFFFFFFFFFFFFFFFFFFFFFFFFFFFFFFFFFFF MUL NOT AND SWAP1 DUP4 PUSH20 0xFFFFFFFFFFFFFFFFFFFFFFFFFFFFFFFFFFFFFFFF AND MUL OR SWAP1 SSTORE POP DUP2 PUSH1 0x4 DUP2 SWAP1 SSTORE POP DUP6 PUSH1 0x5 DUP2 SWAP1 SSTORE POP DUP5 PUSH1 0x6 DUP2 SWAP1 SSTORE POP DUP4 PUSH1 0x7 DUP2 SWAP1 SSTORE POP DUP3 PUSH1 0x8 DUP2 SWAP1 SSTORE POP DUP1 PUSH1 0x9 PUSH1 0x0 PUSH2 0x100 EXP DUP2 SLOAD DUP2 PUSH20 0xFFFFFFFFFFFFFFFFFFFFFFFFFFFFFFFFFFFFFFFF MUL NOT AND SWAP1 DUP4 PUSH20 0xFFFFFFFFFFFFFFFFFFFFFFFFFFFFFFFFFFFFFFFF AND MUL OR SWAP1 SSTORE POP PUSH1 0x1 PUSH1 0x9 PUSH1 0x14 PUSH2 0x100 EXP DUP2 SLOAD DUP2 PUSH1 0xFF MUL NOT AND SWAP1 DUP4 PUSH1 0x1 DUP2 GT ISZERO PUSH2 0x459 JUMPI PUSH2 0x458 PUSH2 0xD5B JUMP JUMPDEST JUMPDEST MUL OR SWAP1 SSTORE POP POP POP POP POP POP POP POP JUMP JUMPDEST PUSH1 0x7 SLOAD DUP2 JUMP JUMPDEST PUSH2 0x475 PUSH2 0x8A3 JUMP JUMPDEST PUSH2 0x47F PUSH1 0x0 PUSH2 0x7DF JUMP JUMPDEST JUMP JUMPDEST PUSH1 0x2 PUSH1 0x0 SWAP1 SLOAD SWAP1 PUSH2 0x100 EXP SWAP1 DIV PUSH20 0xFFFFFFFFFFFFFFFFFFFFFFFFFFFFFFFFFFFFFFFF AND DUP2 JUMP JUMPDEST PUSH1 0x9 PUSH1 0x0 SWAP1 SLOAD SWAP1 PUSH2 0x100 EXP SWAP1 DIV PUSH20 0xFFFFFFFFFFFFFFFFFFFFFFFFFFFFFFFFFFFFFFFF AND DUP2 JUMP JUMPDEST PUSH1 0x0 DUP1 PUSH1 0x0 SWAP1 SLOAD SWAP1 PUSH2 0x100 EXP SWAP1 DIV PUSH20 0xFFFFFFFFFFFFFFFFFFFFFFFFFFFFFFFFFFFFFFFF AND SWAP1 POP SWAP1 JUMP JUMPDEST PUSH1 0x6 SLOAD DUP2 JUMP JUMPDEST PUSH1 0x8 SLOAD DUP2 JUMP JUMPDEST PUSH1 0x0 PUSH2 0x50C PUSH2 0x8A3 JUMP JUMPDEST PUSH1 0x0 PUSH1 0x3 DUP1 SLOAD SWAP1 POP GT PUSH2 0x554 JUMPI PUSH1 0x40 MLOAD PUSH32 0x8C379A000000000000000000000000000000000000000000000000000000000 DUP2 MSTORE PUSH1 0x4 ADD PUSH2 0x54B SWAP1 PUSH2 0xC0C JUMP JUMPDEST PUSH1 0x40 MLOAD DUP1 SWAP2 SUB SWAP1 REVERT JUMPDEST PUSH1 0x0 PUSH1 0x3 PUSH1 0x1 PUSH1 0x3 DUP1 SLOAD SWAP1 POP PUSH2 0x56A SWAP2 SWAP1 PUSH2 0xCB2 JUMP JUMPDEST DUP2 SLOAD DUP2 LT PUSH2 0x57B JUMPI PUSH2 0x57A PUSH2 0xDB9 JUMP JUMPDEST JUMPDEST SWAP1 PUSH1 0x0 MSTORE PUSH1 0x20 PUSH1 0x0 KECCAK256 ADD PUSH1 0x0 SWAP1 SLOAD SWAP1 PUSH2 0x100 EXP SWAP1 DIV PUSH20 0xFFFFFFFFFFFFFFFFFFFFFFFFFFFFFFFFFFFFFFFF AND SWAP1 POP PUSH1 0x3 DUP1 SLOAD DUP1 PUSH2 0x5BA JUMPI PUSH2 0x5B9 PUSH2 0xD8A JUMP JUMPDEST JUMPDEST PUSH1 0x1 SWAP1 SUB DUP2 DUP2 SWAP1 PUSH1 0x0 MSTORE PUSH1 0x20 PUSH1 0x0 KECCAK256 ADD PUSH1 0x0 PUSH2 0x100 EXP DUP2 SLOAD SWAP1 PUSH20 0xFFFFFFFFFFFFFFFFFFFFFFFFFFFFFFFFFFFFFFFF MUL NOT AND SWAP1 SSTORE SWAP1 SSTORE DUP1 SWAP2 POP POP SWAP1 JUMP JUMPDEST PUSH1 0x1 PUSH1 0x0 SWAP1 SLOAD SWAP1 PUSH2 0x100 EXP SWAP1 DIV PUSH20 0xFFFFFFFFFFFFFFFFFFFFFFFFFFFFFFFFFFFFFFFF AND DUP2 JUMP JUMPDEST PUSH2 0x624 PUSH2 0x8A3 JUMP JUMPDEST PUSH1 0x0 PUSH20 0xFFFFFFFFFFFFFFFFFFFFFFFFFFFFFFFFFFFFFFFF AND DUP2 PUSH20 0xFFFFFFFFFFFFFFFFFFFFFFFFFFFFFFFFFFFFFFFF AND EQ ISZERO PUSH2 0x694 JUMPI PUSH1 0x40 MLOAD PUSH32 0x8C379A000000000000000000000000000000000000000000000000000000000 DUP2 MSTORE PUSH1 0x4 ADD PUSH2 0x68B SWAP1 PUSH2 0xB8C JUMP JUMPDEST PUSH1 0x40 MLOAD DUP1 SWAP2 SUB SWAP1 REVERT JUMPDEST PUSH2 0x69D DUP2 PUSH2 0x7DF JUMP JUMPDEST POP JUMP JUMPDEST PUSH2 0x6A8 PUSH2 0x4CD JUMP JUMPDEST PUSH20 0xFFFFFFFFFFFFFFFFFFFFFFFFFFFFFFFFFFFFFFFF AND CALLER PUSH20 0xFFFFFFFFFFFFFFFFFFFFFFFFFFFFFFFFFFFFFFFF AND EQ ISZERO PUSH2 0x716 JUMPI PUSH1 0x40 MLOAD PUSH32 0x8C379A000000000000000000000000000000000000000000000000000000000 DUP2 MSTORE PUSH1 0x4 ADD PUSH2 0x70D SWAP1 PUSH2 0xBCC JUMP JUMPDEST PUSH1 0x40 MLOAD DUP1 SWAP2 SUB SWAP1 REVERT JUMPDEST PUSH1 0x6 SLOAD PUSH1 0x7 SLOAD PUSH2 0x726 SWAP2 SWAP1 PUSH2 0xC58 JUMP JUMPDEST CALLVALUE EQ PUSH2 0x767 JUMPI PUSH1 0x40 MLOAD PUSH32 0x8C379A000000000000000000000000000000000000000000000000000000000 DUP2 MSTORE PUSH1 0x4 ADD PUSH2 0x75E SWAP1 PUSH2 0xB6C JUMP JUMPDEST PUSH1 0x40 MLOAD DUP1 SWAP2 SUB SWAP1 REVERT JUMPDEST PUSH1 0x4 SLOAD PUSH1 0x3 DUP1 SLOAD SWAP1 POP LT PUSH2 0x77A JUMPI PUSH1 0x0 DUP1 REVERT JUMPDEST PUSH1 0x3 CALLER SWAP1 DUP1 PUSH1 0x1 DUP2 SLOAD ADD DUP1 DUP3 SSTORE DUP1 SWAP2 POP POP PUSH1 0x1 SWAP1 SUB SWAP1 PUSH1 0x0 MSTORE PUSH1 0x20 PUSH1 0x0 KECCAK256 ADD PUSH1 0x0 SWAP1 SWAP2 SWAP1 SWAP2 SWAP1 SWAP2 PUSH2 0x100 EXP DUP2 SLOAD DUP2 PUSH20 0xFFFFFFFFFFFFFFFFFFFFFFFFFFFFFFFFFFFFFFFF MUL NOT AND SWAP1 DUP4 PUSH20 0xFFFFFFFFFFFFFFFFFFFFFFFFFFFFFFFFFFFFFFFF AND MUL OR SWAP1 SSTORE POP JUMP JUMPDEST PUSH1 0x0 DUP1 PUSH1 0x0 SWAP1 SLOAD SWAP1 PUSH2 0x100 EXP SWAP1 DIV PUSH20 0xFFFFFFFFFFFFFFFFFFFFFFFFFFFFFFFFFFFFFFFF AND SWAP1 POP DUP2 PUSH1 0x0 DUP1 PUSH2 0x100 EXP DUP2 SLOAD DUP2 PUSH20 0xFFFFFFFFFFFFFFFFFFFFFFFFFFFFFFFFFFFFFFFF MUL NOT AND SWAP1 DUP4 PUSH20 0xFFFFFFFFFFFFFFFFFFFFFFFFFFFFFFFFFFFFFFFF AND MUL OR SWAP1 SSTORE POP DUP2 PUSH20 0xFFFFFFFFFFFFFFFFFFFFFFFFFFFFFFFFFFFFFFFF AND DUP2 PUSH20 0xFFFFFFFFFFFFFFFFFFFFFFFFFFFFFFFFFFFFFFFF AND PUSH32 0x8BE0079C531659141344CD1FD0A4F28419497F9722A3DAAFE3B4186F6B6457E0 PUSH1 0x40 MLOAD PUSH1 0x40 MLOAD DUP1 SWAP2 SUB SWAP1 LOG3 POP POP JUMP JUMPDEST PUSH2 0x8AB PUSH2 0x921 JUMP JUMPDEST PUSH20 0xFFFFFFFFFFFFFFFFFFFFFFFFFFFFFFFFFFFFFFFF AND PUSH2 0x8C9 PUSH2 0x4CD JUMP JUMPDEST PUSH20 0xFFFFFFFFFFFFFFFFFFFFFFFFFFFFFFFFFFFFFFFF AND EQ PUSH2 0x91F JUMPI PUSH1 0x40 MLOAD PUSH32 0x8C379A000000000000000000000000000000000000000000000000000000000 DUP2 MSTORE PUSH1 0x4 ADD PUSH2 0x916 SWAP1 PUSH2 0xBEC JUMP JUMPDEST PUSH1 0x40 MLOAD DUP1 SWAP2 SUB SWAP1 REVERT JUMPDEST JUMP JUMPDEST PUSH1 0x0 CALLER SWAP1 POP SWAP1 JUMP JUMPDEST PUSH1 0x0 DUP2 CALLDATALOAD SWAP1 POP PUSH2 0x938 DUP2 PUSH2 0xF7B JUMP JUMPDEST SWAP3 SWAP2 POP POP JUMP JUMPDEST PUSH1 0x0 DUP2 CALLDATALOAD SWAP1 POP PUSH2 0x94D DUP2 PUSH2 0xF92 JUMP JUMPDEST SWAP3 SWAP2 POP POP JUMP JUMPDEST PUSH1 0x0 DUP2 CALLDATALOAD SWAP1 POP PUSH2 0x962 DUP2 PUSH2 0xFA9 JUMP JUMPDEST SWAP3 SWAP2 POP POP JUMP JUMPDEST PUSH1 0x0 PUSH1 0x20 DUP3 DUP5 SUB SLT ISZERO PUSH2 0x97E JUMPI PUSH2 0x97D PUSH2 0xDE8 JUMP JUMPDEST JUMPDEST PUSH1 0x0 PUSH2 0x98C DUP5 DUP3 DUP6 ADD PUSH2 0x929 JUMP JUMPDEST SWAP2 POP POP SWAP3 SWAP2 POP POP JUMP JUMPDEST PUSH1 0x0 DUP1 PUSH1 0x0 DUP1 PUSH1 0x0 DUP1 PUSH1 0x0 PUSH1 0xE0 DUP9 DUP11 SUB SLT ISZERO PUSH2 0x9B4 JUMPI PUSH2 0x9B3 PUSH2 0xDE8 JUMP JUMPDEST JUMPDEST PUSH1 0x0 PUSH2 0x9C2 DUP11 DUP3 DUP12 ADD PUSH2 0x929 JUMP JUMPDEST SWAP8 POP POP PUSH1 0x20 PUSH2 0x9D3 DUP11 DUP3 DUP12 ADD PUSH2 0x953 JUMP JUMPDEST SWAP7 POP POP PUSH1 0x40 PUSH2 0x9E4 DUP11 DUP3 DUP12 ADD PUSH2 0x953 JUMP JUMPDEST SWAP6 POP POP PUSH1 0x60 PUSH2 0x9F5 DUP11 DUP3 DUP12 ADD PUSH2 0x953 JUMP JUMPDEST SWAP5 POP POP PUSH1 0x80 PUSH2 0xA06 DUP11 DUP3 DUP12 ADD PUSH2 0x93E JUMP JUMPDEST SWAP4 POP POP PUSH1 0xA0 PUSH2 0xA17 DUP11 DUP3 DUP12 ADD PUSH2 0x953 JUMP JUMPDEST SWAP3 POP POP PUSH1 0xC0 PUSH2 0xA28 DUP11 DUP3 DUP12 ADD PUSH2 0x929 JUMP JUMPDEST SWAP2 POP POP SWAP3 SWAP6 SWAP9 SWAP2 SWAP5 SWAP8 POP SWAP3 SWAP6 POP JUMP JUMPDEST PUSH2 0xA40 DUP2 PUSH2 0xCE6 JUMP JUMPDEST DUP3 MSTORE POP POP JUMP JUMPDEST PUSH2 0xA4F DUP2 PUSH2 0xCF8 JUMP JUMPDEST DUP3 MSTORE POP POP JUMP JUMPDEST PUSH1 0x0 PUSH2 0xA62 PUSH1 0x27 DUP4 PUSH2 0xC47 JUMP JUMPDEST SWAP2 POP PUSH2 0xA6D DUP3 PUSH2 0xDED JUMP JUMPDEST PUSH1 0x40 DUP3 ADD SWAP1 POP SWAP2 SWAP1 POP JUMP JUMPDEST PUSH1 0x0 PUSH2 0xA85 PUSH1 0x26 DUP4 PUSH2 0xC47 JUMP JUMPDEST SWAP2 POP PUSH2 0xA90 DUP3 PUSH2 0xE3C JUMP JUMPDEST PUSH1 0x40 DUP3 ADD SWAP1 POP SWAP2 SWAP1 POP JUMP JUMPDEST PUSH1 0x0 PUSH2 0xAA8 PUSH1 0x28 DUP4 PUSH2 0xC47 JUMP JUMPDEST SWAP2 POP PUSH2 0xAB3 DUP3 PUSH2 0xE8B JUMP JUMPDEST PUSH1 0x40 DUP3 ADD SWAP1 POP SWAP2 SWAP1 POP JUMP JUMPDEST PUSH1 0x0 PUSH2 0xACB PUSH1 0x2F DUP4 PUSH2 0xC47 JUMP JUMPDEST SWAP2 POP PUSH2 0xAD6 DUP3 PUSH2 0xEDA JUMP JUMPDEST PUSH1 0x40 DUP3 ADD SWAP1 POP SWAP2 SWAP1 POP JUMP JUMPDEST PUSH1 0x0 PUSH2 0xAEE PUSH1 0x20 DUP4 PUSH2 0xC47 JUMP JUMPDEST SWAP2 POP PUSH2 0xAF9 DUP3 PUSH2 0xF29 JUMP JUMPDEST PUSH1 0x20 DUP3 ADD SWAP1 POP SWAP2 SWAP1 POP JUMP JUMPDEST PUSH1 0x0 PUSH2 0xB11 PUSH1 0x11 DUP4 PUSH2 0xC47 JUMP JUMPDEST SWAP2 POP PUSH2 0xB1C DUP3 PUSH2 0xF52 JUMP JUMPDEST PUSH1 0x20 DUP3 ADD SWAP1 POP SWAP2 SWAP1 POP JUMP JUMPDEST PUSH2 0xB30 DUP2 PUSH2 0xD22 JUMP JUMPDEST DUP3 MSTORE POP POP JUMP JUMPDEST PUSH1 0x0 PUSH1 0x20 DUP3 ADD SWAP1 POP PUSH2 0xB4B PUSH1 0x0 DUP4 ADD DUP5 PUSH2 0xA37 JUMP JUMPDEST SWAP3 SWAP2 POP POP JUMP JUMPDEST PUSH1 0x0 PUSH1 0x20 DUP3 ADD SWAP1 POP PUSH2 0xB66 PUSH1 0x0 DUP4 ADD DUP5 PUSH2 0xA46 JUMP JUMPDEST SWAP3 SWAP2 POP POP JUMP JUMPDEST PUSH1 0x0 PUSH1 0x20 DUP3 ADD SWAP1 POP DUP2 DUP2 SUB PUSH1 0x0 DUP4 ADD MSTORE PUSH2 0xB85 DUP2 PUSH2 0xA55 JUMP JUMPDEST SWAP1 POP SWAP2 SWAP1 POP JUMP JUMPDEST PUSH1 0x0 PUSH1 0x20 DUP3 ADD SWAP1 POP DUP2 DUP2 SUB PUSH1 0x0 DUP4 ADD MSTORE PUSH2 0xBA5 DUP2 PUSH2 0xA78 JUMP JUMPDEST SWAP1 POP SWAP2 SWAP1 POP JUMP JUMPDEST PUSH1 0x0 PUSH1 0x20 DUP3 ADD SWAP1 POP DUP2 DUP2 SUB PUSH1 0x0 DUP4 ADD MSTORE PUSH2 0xBC5 DUP2 PUSH2 0xA9B JUMP JUMPDEST SWAP1 POP SWAP2 SWAP1 POP JUMP JUMPDEST PUSH1 0x0 PUSH1 0x20 DUP3 ADD SWAP1 POP DUP2 DUP2 SUB PUSH1 0x0 DUP4 ADD MSTORE PUSH2 0xBE5 DUP2 PUSH2 0xABE JUMP JUMPDEST SWAP1 POP SWAP2 SWAP1 POP JUMP JUMPDEST PUSH1 0x0 PUSH1 0x20 DUP3 ADD SWAP1 POP DUP2 DUP2 SUB PUSH1 0x0 DUP4 ADD MSTORE PUSH2 0xC05 DUP2 PUSH2 0xAE1 JUMP JUMPDEST SWAP1 POP SWAP2 SWAP1 POP JUMP JUMPDEST PUSH1 0x0 PUSH1 0x20 DUP3 ADD SWAP1 POP DUP2 DUP2 SUB PUSH1 0x0 DUP4 ADD MSTORE PUSH2 0xC25 DUP2 PUSH2 0xB04 JUMP JUMPDEST SWAP1 POP SWAP2 SWAP1 POP JUMP JUMPDEST PUSH1 0x0 PUSH1 0x20 DUP3 ADD SWAP1 POP PUSH2 0xC41 PUSH1 0x0 DUP4 ADD DUP5 PUSH2 0xB27 JUMP JUMPDEST SWAP3 SWAP2 POP POP JUMP JUMPDEST PUSH1 0x0 DUP3 DUP3 MSTORE PUSH1 0x20 DUP3 ADD SWAP1 POP SWAP3 SWAP2 POP POP JUMP JUMPDEST PUSH1 0x0 PUSH2 0xC63 DUP3 PUSH2 0xD22 JUMP JUMPDEST SWAP2 POP PUSH2 0xC6E DUP4 PUSH2 0xD22 JUMP JUMPDEST SWAP3 POP DUP2 PUSH32 0xFFFFFFFFFFFFFFFFFFFFFFFFFFFFFFFFFFFFFFFFFFFFFFFFFFFFFFFFFFFFFFFF DIV DUP4 GT DUP3 ISZERO ISZERO AND ISZERO PUSH2 0xCA7 JUMPI PUSH2 0xCA6 PUSH2 0xD2C JUMP JUMPDEST JUMPDEST DUP3 DUP3 MUL SWAP1 POP SWAP3 SWAP2 POP POP JUMP JUMPDEST PUSH1 0x0 PUSH2 0xCBD DUP3 PUSH2 0xD22 JUMP JUMPDEST SWAP2 POP PUSH2 0xCC8 DUP4 PUSH2 0xD22 JUMP JUMPDEST SWAP3 POP DUP3 DUP3 LT ISZERO PUSH2 0xCDB JUMPI PUSH2 0xCDA PUSH2 0xD2C JUMP JUMPDEST JUMPDEST DUP3 DUP3 SUB SWAP1 POP SWAP3 SWAP2 POP POP JUMP JUMPDEST PUSH1 0x0 PUSH2 0xCF1 DUP3 PUSH2 0xD02 JUMP JUMPDEST SWAP1 POP SWAP2 SWAP1 POP JUMP JUMPDEST PUSH1 0x0 DUP2 SWAP1 POP SWAP2 SWAP1 POP JUMP JUMPDEST PUSH1 0x0 PUSH20 0xFFFFFFFFFFFFFFFFFFFFFFFFFFFFFFFFFFFFFFFF DUP3 AND SWAP1 POP SWAP2 SWAP1 POP JUMP JUMPDEST PUSH1 0x0 DUP2 SWAP1 POP SWAP2 SWAP1 POP JUMP JUMPDEST PUSH32 0x4E487B7100000000000000000000000000000000000000000000000000000000 PUSH1 0x0 MSTORE PUSH1 0x11 PUSH1 0x4 MSTORE PUSH1 0x24 PUSH1 0x0 REVERT JUMPDEST PUSH32 0x4E487B7100000000000000000000000000000000000000000000000000000000 PUSH1 0x0 MSTORE PUSH1 0x21 PUSH1 0x4 MSTORE PUSH1 0x24 PUSH1 0x0 REVERT JUMPDEST PUSH32 0x4E487B7100000000000000000000000000000000000000000000000000000000 PUSH1 0x0 MSTORE PUSH1 0x31 PUSH1 0x4 MSTORE PUSH1 0x24 PUSH1 0x0 REVERT JUMPDEST PUSH32 0x4E487B7100000000000000000000000000000000000000000000000000000000 PUSH1 0x0 MSTORE PUSH1 0x32 PUSH1 0x4 MSTORE PUSH1 0x24 PUSH1 0x0 REVERT JUMPDEST PUSH1 0x0 DUP1 REVERT JUMPDEST PUSH32 0x6F72646572206D757374206265206F6620636F72726563742073697A6520616E PUSH1 0x0 DUP3 ADD MSTORE PUSH32 0x6420707269636500000000000000000000000000000000000000000000000000 PUSH1 0x20 DUP3 ADD MSTORE POP JUMP JUMPDEST PUSH32 0x4F776E61626C653A206E6577206F776E657220697320746865207A65726F2061 PUSH1 0x0 DUP3 ADD MSTORE PUSH32 0x6464726573730000000000000000000000000000000000000000000000000000 PUSH1 0x20 DUP3 ADD MSTORE POP JUMP JUMPDEST PUSH32 0x546869732070726F647563652068617320616C7265616479206265656E20696E PUSH1 0x0 DUP3 ADD MSTORE PUSH32 0x6974696C697A6564000000000000000000000000000000000000000000000000 PUSH1 0x20 DUP3 ADD MSTORE POP JUMP JUMPDEST PUSH32 0x6661726D65722063616E6E6F7420706C616365206F7264657220666F72207468 PUSH1 0x0 DUP3 ADD MSTORE PUSH32 0x656972206F776E2070726F647563650000000000000000000000000000000000 PUSH1 0x20 DUP3 ADD MSTORE POP JUMP JUMPDEST PUSH32 0x4F776E61626C653A2063616C6C6572206973206E6F7420746865206F776E6572 PUSH1 0x0 DUP3 ADD MSTORE POP JUMP JUMPDEST PUSH32 0x4E6F206F726465727320746F2074616B65000000000000000000000000000000 PUSH1 0x0 DUP3 ADD MSTORE POP JUMP JUMPDEST PUSH2 0xF84 DUP2 PUSH2 0xCE6 JUMP JUMPDEST DUP2 EQ PUSH2 0xF8F JUMPI PUSH1 0x0 DUP1 REVERT JUMPDEST POP JUMP JUMPDEST PUSH2 0xF9B DUP2 PUSH2 0xCF8 JUMP JUMPDEST DUP2 EQ PUSH2 0xFA6 JUMPI PUSH1 0x0 DUP1 REVERT JUMPDEST POP JUMP JUMPDEST PUSH2 0xFB2 DUP2 PUSH2 0xD22 JUMP JUMPDEST DUP2 EQ PUSH2 0xFBD JUMPI PUSH1 0x0 DUP1 REVERT JUMPDEST POP JUMP INVALID LOG2 PUSH5 0x6970667358 0x22 SLT KECCAK256 INVALID 0x2F DUP2 EXTCODECOPY 0xE2 BLOCKHASH SELFBALANCE DUP11 ADDRESS CREATE2 0xD4 0xD2 0xDA SWAP7 SWAP7 0xE5 DUP10 SWAP2 PUSH31 0xFC61330B52B09D6865DDBC802B64736F6C6343000807003300000000000000 "
				},
				"gasEstimates": {
					"creation": {
						"codeDepositCost": "817200",
						"executionCost": "infinite",
						"totalCost": "infinite"
					},
					"external": {
						"amount()": "2496",
						"deliverer()": "2603",
						"farmer()": "2558",
						"initilize(address,uint256,uint256,uint256,bytes32,uint256,address)": "infinite",
						"limitOnPendingOrders()": "2475",
						"market()": "2581",
						"name()": "2453",
						"orderSize()": "2452",
						"owner()": "2545",
						"placeOrder()": "infinite",
						"price()": "2474",
						"renounceOwnership()": "30443",
						"takeOrder()": "infinite",
						"transferOwnership(address)": "30813"
					}
				},
				"methodIdentifiers": {
					"amount()": "aa8c217c",
					"deliverer()": "81bbfb61",
					"farmer()": "d811fcf0",
					"initilize(address,uint256,uint256,uint256,bytes32,uint256,address)": "5f1f38af",
					"limitOnPendingOrders()": "530d124e",
					"market()": "80f55605",
					"name()": "06fdde03",
					"orderSize()": "6d86b8a5",
					"owner()": "8da5cb5b",
					"placeOrder()": "f5c609e0",
					"price()": "a035b1fe",
					"renounceOwnership()": "715018a6",
					"takeOrder()": "d32dacc1",
					"transferOwnership(address)": "f2fde38b"
				}
			},
			"storageLayout": {
				"storage": [
					{
						"astId": 7,
						"contract": "contracts/Produce.sol:Produce",
						"label": "_owner",
						"offset": 0,
						"slot": "0",
						"type": "t_address"
					},
					{
						"astId": 480,
						"contract": "contracts/Produce.sol:Produce",
						"label": "farmer",
						"offset": 0,
						"slot": "1",
						"type": "t_address"
					},
					{
						"astId": 482,
						"contract": "contracts/Produce.sol:Produce",
						"label": "market",
						"offset": 0,
						"slot": "2",
						"type": "t_address"
					},
					{
						"astId": 485,
						"contract": "contracts/Produce.sol:Produce",
						"label": "orders",
						"offset": 0,
						"slot": "3",
						"type": "t_array(t_address)dyn_storage"
					},
					{
						"astId": 487,
						"contract": "contracts/Produce.sol:Produce",
						"label": "limitOnPendingOrders",
						"offset": 0,
						"slot": "4",
						"type": "t_uint256"
					},
					{
						"astId": 489,
						"contract": "contracts/Produce.sol:Produce",
						"label": "name",
						"offset": 0,
						"slot": "5",
						"type": "t_uint256"
					},
					{
						"astId": 491,
						"contract": "contracts/Produce.sol:Produce",
						"label": "price",
						"offset": 0,
						"slot": "6",
						"type": "t_uint256"
					},
					{
						"astId": 493,
						"contract": "contracts/Produce.sol:Produce",
						"label": "orderSize",
						"offset": 0,
						"slot": "7",
						"type": "t_uint256"
					},
					{
						"astId": 495,
						"contract": "contracts/Produce.sol:Produce",
						"label": "amount",
						"offset": 0,
						"slot": "8",
						"type": "t_bytes32"
					},
					{
						"astId": 497,
						"contract": "contracts/Produce.sol:Produce",
						"label": "deliverer",
						"offset": 0,
						"slot": "9",
						"type": "t_address"
					},
					{
						"astId": 503,
						"contract": "contracts/Produce.sol:Produce",
						"label": "state",
						"offset": 20,
						"slot": "9",
						"type": "t_enum(State)500"
					}
				],
				"types": {
					"t_address": {
						"encoding": "inplace",
						"label": "address",
						"numberOfBytes": "20"
					},
					"t_array(t_address)dyn_storage": {
						"base": "t_address",
						"encoding": "dynamic_array",
						"label": "address[]",
						"numberOfBytes": "32"
					},
					"t_bytes32": {
						"encoding": "inplace",
						"label": "bytes32",
						"numberOfBytes": "32"
					},
					"t_enum(State)500": {
						"encoding": "inplace",
						"label": "enum Produce.State",
						"numberOfBytes": "1"
					},
					"t_uint256": {
						"encoding": "inplace",
						"label": "uint256",
						"numberOfBytes": "32"
					}
				}
			},
			"userdoc": {
				"kind": "user",
				"methods": {
					"placeOrder()": {
						"notice": "Place an order an order of the produce"
					},
					"takeOrder()": {
						"notice": "This allows farmers to take a single produceOrder"
					}
				},
				"version": 1
			}
		}
	}
}