{
	"contracts/Market.sol": {
		"Market": {
			"abi": [
				{
					"inputs": [],
					"stateMutability": "nonpayable",
					"type": "constructor"
				},
				{
					"inputs": [
						{
							"internalType": "uint256",
							"name": "_name",
							"type": "uint256"
						},
						{
							"internalType": "uint256",
							"name": "_price",
							"type": "uint256"
						},
						{
							"internalType": "uint256",
							"name": "_orderSize",
							"type": "uint256"
						},
						{
							"internalType": "bytes32",
							"name": "_amount",
							"type": "bytes32"
						},
						{
							"internalType": "uint256",
							"name": "_limitOnPendingOrders",
							"type": "uint256"
						}
					],
					"name": "addProduce",
					"outputs": [
						{
							"internalType": "address",
							"name": "produceContract",
							"type": "address"
						}
					],
					"stateMutability": "nonpayable",
					"type": "function"
				},
				{
					"inputs": [
						{
							"internalType": "address",
							"name": "",
							"type": "address"
						}
					],
					"name": "farmerList",
					"outputs": [
						{
							"internalType": "bool",
							"name": "",
							"type": "bool"
						}
					],
					"stateMutability": "view",
					"type": "function"
				},
				{
					"inputs": [
						{
							"internalType": "address",
							"name": "produceAddress",
							"type": "address"
						}
					],
					"name": "removeProduce",
					"outputs": [],
					"stateMutability": "nonpayable",
					"type": "function"
				}
			],
			"devdoc": {
				"kind": "dev",
				"methods": {},
				"version": 1
			},
			"evm": {
				"assembly": "    /* \"contracts/Market.sol\":142:1718  contract Market {... */\n  mstore(0x40, 0xa0)\n    /* \"contracts/Market.sol\":585:662  constructor() {... */\n  callvalue\n  dup1\n  iszero\n  tag_1\n  jumpi\n  0x00\n  dup1\n  revert\ntag_1:\n  pop\n    /* \"contracts/Market.sol\":641:654  new Produce() */\n  mload(0x40)\n  tag_4\n  swap1\n  tag_5\n  jump\t// in\ntag_4:\n  mload(0x40)\n  dup1\n  swap2\n  sub\n  swap1\n  0x00\n  create\n  dup1\n  iszero\n  dup1\n  iszero\n  tag_6\n  jumpi\n  returndatasize\n  0x00\n  dup1\n  returndatacopy\n  revert(0x00, returndatasize)\ntag_6:\n  pop\n    /* \"contracts/Market.sol\":609:655  produceImplementation = address(new Produce()) */\n  0xffffffffffffffffffffffffffffffffffffffff\n  and\n  0x80\n  dup2\n  0xffffffffffffffffffffffffffffffffffffffff\n  and\n  0x60\n  shl\n  dup2\n  mstore\n  pop\n  pop\n    /* \"contracts/Market.sol\":142:1718  contract Market {... */\n  jump(tag_7)\ntag_5:\n  dataSize(sub_1)\n  dup1\n  dataOffset(sub_1)\n  dup4\n  codecopy\n  add\n  swap1\n  jump\t// out\ntag_7:\n  shr(0x60, mload(0x80))\n  codecopy(0x00, dataOffset(sub_0), dataSize(sub_0))\n  0x00\n  assignImmutable(\"0xba29c92f83f4de98d3d45f425254e56d997394d41fbe14eb717b7e43b163ec7b\")\n  return(0x00, dataSize(sub_0))\nstop\n\nsub_0: assembly {\n        /* \"contracts/Market.sol\":142:1718  contract Market {... */\n      mstore(0x40, 0x80)\n      callvalue\n      dup1\n      iszero\n      tag_1\n      jumpi\n      0x00\n      dup1\n      revert\n    tag_1:\n      pop\n      jumpi(tag_2, lt(calldatasize, 0x04))\n      shr(0xe0, calldataload(0x00))\n      dup1\n      0x594659f5\n      eq\n      tag_3\n      jumpi\n      dup1\n      0x7b6833c3\n      eq\n      tag_4\n      jumpi\n      dup1\n      0xa1d861a9\n      eq\n      tag_5\n      jumpi\n    tag_2:\n      0x00\n      dup1\n      revert\n        /* \"contracts/Market.sol\":669:1397  function addProduce( ... */\n    tag_3:\n      tag_6\n      0x04\n      dup1\n      calldatasize\n      sub\n      dup2\n      add\n      swap1\n      tag_7\n      swap2\n      swap1\n      tag_8\n      jump\t// in\n    tag_7:\n      tag_9\n      jump\t// in\n    tag_6:\n      mload(0x40)\n      tag_10\n      swap2\n      swap1\n      tag_11\n      jump\t// in\n    tag_10:\n      mload(0x40)\n      dup1\n      swap2\n      sub\n      swap1\n      return\n        /* \"contracts/Market.sol\":1403:1715  function removeProduce(address produceAddress) public {... */\n    tag_4:\n      tag_12\n      0x04\n      dup1\n      calldatasize\n      sub\n      dup2\n      add\n      swap1\n      tag_13\n      swap2\n      swap1\n      tag_14\n      jump\t// in\n    tag_13:\n      tag_15\n      jump\t// in\n    tag_12:\n      stop\n        /* \"contracts/Market.sol\":537:578  mapping(address=> bool) public farmerList */\n    tag_5:\n      tag_16\n      0x04\n      dup1\n      calldatasize\n      sub\n      dup2\n      add\n      swap1\n      tag_17\n      swap2\n      swap1\n      tag_14\n      jump\t// in\n    tag_17:\n      tag_18\n      jump\t// in\n    tag_16:\n      mload(0x40)\n      tag_19\n      swap2\n      swap1\n      tag_20\n      jump\t// in\n    tag_19:\n      mload(0x40)\n      dup1\n      swap2\n      sub\n      swap1\n      return\n        /* \"contracts/Market.sol\":669:1397  function addProduce( ... */\n    tag_9:\n        /* \"contracts/Market.sol\":857:880  address produceContract */\n      0x00\n        /* \"contracts/Market.sol\":896:919  address newProduceClone */\n      dup1\n        /* \"contracts/Market.sol\":922:957  Clones.clone(produceImplementation) */\n      tag_22\n        /* \"contracts/Market.sol\":935:956  produceImplementation */\n      immutable(\"0xba29c92f83f4de98d3d45f425254e56d997394d41fbe14eb717b7e43b163ec7b\")\n        /* \"contracts/Market.sol\":922:934  Clones.clone */\n      tag_23\n        /* \"contracts/Market.sol\":922:957  Clones.clone(produceImplementation) */\n      jump\t// in\n    tag_22:\n        /* \"contracts/Market.sol\":896:957  address newProduceClone = Clones.clone(produceImplementation) */\n      swap1\n      pop\n        /* \"contracts/Market.sol\":979:994  newProduceClone */\n      dup1\n        /* \"contracts/Market.sol\":971:1005  Produce(newProduceClone).initilize */\n      0xffffffffffffffffffffffffffffffffffffffff\n      and\n      0xc8dde807\n        /* \"contracts/Market.sol\":1024:1034  msg.sender */\n      caller\n        /* \"contracts/Market.sol\":1053:1058  _name */\n      dup10\n        /* \"contracts/Market.sol\":1077:1083  _price */\n      dup10\n        /* \"contracts/Market.sol\":1102:1112  _orderSize */\n      dup10\n        /* \"contracts/Market.sol\":1131:1138  _amount */\n      dup10\n        /* \"contracts/Market.sol\":1157:1178  _limitOnPendingOrders */\n      dup10\n        /* \"contracts/Market.sol\":971:1192  Produce(newProduceClone).initilize(... */\n      mload(0x40)\n      dup8\n      0xffffffff\n      and\n      0xe0\n      shl\n      dup2\n      mstore\n      0x04\n      add\n      tag_24\n      swap7\n      swap6\n      swap5\n      swap4\n      swap3\n      swap2\n      swap1\n      tag_25\n      jump\t// in\n    tag_24:\n      0x00\n      mload(0x40)\n      dup1\n      dup4\n      sub\n      dup2\n      0x00\n      dup8\n      dup1\n      extcodesize\n      iszero\n      dup1\n      iszero\n      tag_26\n      jumpi\n      0x00\n      dup1\n      revert\n    tag_26:\n      pop\n      gas\n      call\n      iszero\n      dup1\n      iszero\n      tag_28\n      jumpi\n      returndatasize\n      0x00\n      dup1\n      returndatacopy\n      revert(0x00, returndatasize)\n    tag_28:\n      pop\n      pop\n      pop\n      pop\n        /* \"contracts/Market.sol\":1206:1222  produceAddresses */\n      0x00\n        /* \"contracts/Market.sol\":1236:1251  newProduceClone */\n      dup2\n        /* \"contracts/Market.sol\":1206:1253  produceAddresses.push(address(newProduceClone)) */\n      swap1\n      dup1\n      0x01\n      dup2\n      sload\n      add\n      dup1\n      dup3\n      sstore\n      dup1\n      swap2\n      pop\n      pop\n      0x01\n      swap1\n      sub\n      swap1\n      0x00\n      mstore\n      keccak256(0x00, 0x20)\n      add\n      0x00\n      swap1\n      swap2\n      swap1\n      swap2\n      swap1\n      swap2\n      0x0100\n      exp\n      dup2\n      sload\n      dup2\n      0xffffffffffffffffffffffffffffffffffffffff\n      mul\n      not\n      and\n      swap1\n      dup4\n      0xffffffffffffffffffffffffffffffffffffffff\n      and\n      mul\n      or\n      swap1\n      sstore\n      pop\n        /* \"contracts/Market.sol\":1307:1311  true */\n      0x01\n        /* \"contracts/Market.sol\":1267:1278  produceList */\n      dup1\n        /* \"contracts/Market.sol\":1267:1304  produceList[address(newProduceClone)] */\n      0x00\n        /* \"contracts/Market.sol\":1287:1302  newProduceClone */\n      dup4\n        /* \"contracts/Market.sol\":1267:1304  produceList[address(newProduceClone)] */\n      0xffffffffffffffffffffffffffffffffffffffff\n      and\n      0xffffffffffffffffffffffffffffffffffffffff\n      and\n      dup2\n      mstore\n      0x20\n      add\n      swap1\n      dup2\n      mstore\n      0x20\n      add\n      0x00\n      keccak256\n      0x00\n        /* \"contracts/Market.sol\":1267:1311  produceList[address(newProduceClone)] = true */\n      0x0100\n      exp\n      dup2\n      sload\n      dup2\n      0xff\n      mul\n      not\n      and\n      swap1\n      dup4\n      iszero\n      iszero\n      mul\n      or\n      swap1\n      sstore\n      pop\n        /* \"contracts/Market.sol\":1350:1354  true */\n      0x01\n        /* \"contracts/Market.sol\":1325:1335  farmerList */\n      0x02\n        /* \"contracts/Market.sol\":1325:1347  farmerList[msg.sender] */\n      0x00\n        /* \"contracts/Market.sol\":1336:1346  msg.sender */\n      caller\n        /* \"contracts/Market.sol\":1325:1347  farmerList[msg.sender] */\n      0xffffffffffffffffffffffffffffffffffffffff\n      and\n      0xffffffffffffffffffffffffffffffffffffffff\n      and\n      dup2\n      mstore\n      0x20\n      add\n      swap1\n      dup2\n      mstore\n      0x20\n      add\n      0x00\n      keccak256\n      0x00\n        /* \"contracts/Market.sol\":1325:1354  farmerList[msg.sender] = true */\n      0x0100\n      exp\n      dup2\n      sload\n      dup2\n      0xff\n      mul\n      not\n      and\n      swap1\n      dup4\n      iszero\n      iszero\n      mul\n      or\n      swap1\n      sstore\n      pop\n        /* \"contracts/Market.sol\":1368:1390  return produceContract */\n      pop\n        /* \"contracts/Market.sol\":669:1397  function addProduce( ... */\n      swap6\n      swap5\n      pop\n      pop\n      pop\n      pop\n      pop\n      jump\t// out\n        /* \"contracts/Market.sol\":1403:1715  function removeProduce(address produceAddress) public {... */\n    tag_15:\n        /* \"contracts/Market.sol\":1475:1486  produceList */\n      0x01\n        /* \"contracts/Market.sol\":1475:1502  produceList[produceAddress] */\n      0x00\n        /* \"contracts/Market.sol\":1487:1501  produceAddress */\n      dup3\n        /* \"contracts/Market.sol\":1475:1502  produceList[produceAddress] */\n      0xffffffffffffffffffffffffffffffffffffffff\n      and\n      0xffffffffffffffffffffffffffffffffffffffff\n      and\n      dup2\n      mstore\n      0x20\n      add\n      swap1\n      dup2\n      mstore\n      0x20\n      add\n      0x00\n      keccak256\n      0x00\n      swap1\n      sload\n      swap1\n      0x0100\n      exp\n      swap1\n      div\n      0xff\n      and\n        /* \"contracts/Market.sol\":1467:1547  require(produceList[produceAddress], \"This produce is not listed on the Market\") */\n      tag_31\n      jumpi\n      mload(0x40)\n      0x08c379a000000000000000000000000000000000000000000000000000000000\n      dup2\n      mstore\n      0x04\n      add\n      tag_32\n      swap1\n      tag_33\n      jump\t// in\n    tag_32:\n      mload(0x40)\n      dup1\n      swap2\n      sub\n      swap1\n      revert\n    tag_31:\n        /* \"contracts/Market.sol\":1599:1609  msg.sender */\n      caller\n        /* \"contracts/Market.sol\":1565:1609  Produce(produceAddress).owner()== msg.sender */\n      0xffffffffffffffffffffffffffffffffffffffff\n      and\n        /* \"contracts/Market.sol\":1573:1587  produceAddress */\n      dup2\n        /* \"contracts/Market.sol\":1565:1594  Produce(produceAddress).owner */\n      0xffffffffffffffffffffffffffffffffffffffff\n      and\n      0x8da5cb5b\n        /* \"contracts/Market.sol\":1565:1596  Produce(produceAddress).owner() */\n      mload(0x40)\n      dup2\n      0xffffffff\n      and\n      0xe0\n      shl\n      dup2\n      mstore\n      0x04\n      add\n      0x20\n      mload(0x40)\n      dup1\n      dup4\n      sub\n      dup2\n      dup7\n      dup1\n      extcodesize\n      iszero\n      dup1\n      iszero\n      tag_34\n      jumpi\n      0x00\n      dup1\n      revert\n    tag_34:\n      pop\n      gas\n      staticcall\n      iszero\n      dup1\n      iszero\n      tag_36\n      jumpi\n      returndatasize\n      0x00\n      dup1\n      returndatacopy\n      revert(0x00, returndatasize)\n    tag_36:\n      pop\n      pop\n      pop\n      pop\n      mload(0x40)\n      returndatasize\n      not(0x1f)\n      0x1f\n      dup3\n      add\n      and\n      dup3\n      add\n      dup1\n      0x40\n      mstore\n      pop\n      dup2\n      add\n      swap1\n      tag_37\n      swap2\n      swap1\n      tag_38\n      jump\t// in\n    tag_37:\n        /* \"contracts/Market.sol\":1565:1609  Produce(produceAddress).owner()== msg.sender */\n      0xffffffffffffffffffffffffffffffffffffffff\n      and\n      eq\n        /* \"contracts/Market.sol\":1557:1663  require(Produce(produceAddress).owner()== msg.sender, \"Only produce owner can remove produce from Market\") */\n      tag_39\n      jumpi\n      mload(0x40)\n      0x08c379a000000000000000000000000000000000000000000000000000000000\n      dup2\n      mstore\n      0x04\n      add\n      tag_40\n      swap1\n      tag_41\n      jump\t// in\n    tag_40:\n      mload(0x40)\n      dup1\n      swap2\n      sub\n      swap1\n      revert\n    tag_39:\n        /* \"contracts/Market.sol\":1703:1708  false */\n      0x00\n        /* \"contracts/Market.sol\":1673:1684  produceList */\n      0x01\n        /* \"contracts/Market.sol\":1673:1700  produceList[produceAddress] */\n      0x00\n        /* \"contracts/Market.sol\":1685:1699  produceAddress */\n      dup4\n        /* \"contracts/Market.sol\":1673:1700  produceList[produceAddress] */\n      0xffffffffffffffffffffffffffffffffffffffff\n      and\n      0xffffffffffffffffffffffffffffffffffffffff\n      and\n      dup2\n      mstore\n      0x20\n      add\n      swap1\n      dup2\n      mstore\n      0x20\n      add\n      0x00\n      keccak256\n      0x00\n        /* \"contracts/Market.sol\":1673:1708  produceList[produceAddress] = false */\n      0x0100\n      exp\n      dup2\n      sload\n      dup2\n      0xff\n      mul\n      not\n      and\n      swap1\n      dup4\n      iszero\n      iszero\n      mul\n      or\n      swap1\n      sstore\n      pop\n        /* \"contracts/Market.sol\":1403:1715  function removeProduce(address produceAddress) public {... */\n      pop\n      jump\t// out\n        /* \"contracts/Market.sol\":537:578  mapping(address=> bool) public farmerList */\n    tag_18:\n      mstore(0x20, 0x02)\n      dup1\n      0x00\n      mstore\n      keccak256(0x00, 0x40)\n      0x00\n      swap2\n      pop\n      sload\n      swap1\n      0x0100\n      exp\n      swap1\n      div\n      0xff\n      and\n      dup2\n      jump\t// out\n        /* \"@openzeppelin/contracts/proxy/Clones.sol\":973:1732  function clone(address implementation) internal returns (address instance) {... */\n    tag_23:\n        /* \"@openzeppelin/contracts/proxy/Clones.sol\":1030:1046  address instance */\n      0x00\n        /* \"@openzeppelin/contracts/proxy/Clones.sol\":1362:1410  0x3d602d80600a3d3981f3363d3d373d3d3d363d73000000 */\n      0x3d602d80600a3d3981f3363d3d373d3d3d363d73000000\n        /* \"@openzeppelin/contracts/proxy/Clones.sol\":1344:1358  implementation */\n      dup3\n        /* \"@openzeppelin/contracts/proxy/Clones.sol\":1338:1342  0x60 */\n      0x60\n        /* \"@openzeppelin/contracts/proxy/Clones.sol\":1334:1359  shl(0x60, implementation) */\n      shl\n        /* \"@openzeppelin/contracts/proxy/Clones.sol\":1328:1332  0xe8 */\n      0xe8\n        /* \"@openzeppelin/contracts/proxy/Clones.sol\":1324:1360  shr(0xe8, shl(0x60, implementation)) */\n      shr\n        /* \"@openzeppelin/contracts/proxy/Clones.sol\":1321:1411  or(shr(0xe8, shl(0x60, implementation)), 0x3d602d80600a3d3981f3363d3d373d3d3d363d73000000) */\n      or\n        /* \"@openzeppelin/contracts/proxy/Clones.sol\":1315:1319  0x00 */\n      0x00\n        /* \"@openzeppelin/contracts/proxy/Clones.sol\":1308:1412  mstore(0x00, or(shr(0xe8, shl(0x60, implementation)), 0x3d602d80600a3d3981f3363d3d373d3d3d363d73000000)) */\n      mstore\n        /* \"@openzeppelin/contracts/proxy/Clones.sol\":1569:1601  0x5af43d82803e903d91602b57fd5bf3 */\n      0x5af43d82803e903d91602b57fd5bf3\n        /* \"@openzeppelin/contracts/proxy/Clones.sol\":1552:1566  implementation */\n      dup3\n        /* \"@openzeppelin/contracts/proxy/Clones.sol\":1546:1550  0x78 */\n      0x78\n        /* \"@openzeppelin/contracts/proxy/Clones.sol\":1542:1567  shl(0x78, implementation) */\n      shl\n        /* \"@openzeppelin/contracts/proxy/Clones.sol\":1539:1602  or(shl(0x78, implementation), 0x5af43d82803e903d91602b57fd5bf3) */\n      or\n        /* \"@openzeppelin/contracts/proxy/Clones.sol\":1533:1537  0x20 */\n      0x20\n        /* \"@openzeppelin/contracts/proxy/Clones.sol\":1526:1603  mstore(0x20, or(shl(0x78, implementation), 0x5af43d82803e903d91602b57fd5bf3)) */\n      mstore\n        /* \"@openzeppelin/contracts/proxy/Clones.sol\":1644:1648  0x37 */\n      0x37\n        /* \"@openzeppelin/contracts/proxy/Clones.sol\":1638:1642  0x09 */\n      0x09\n        /* \"@openzeppelin/contracts/proxy/Clones.sol\":1635:1636  0 */\n      0x00\n        /* \"@openzeppelin/contracts/proxy/Clones.sol\":1628:1649  create(0, 0x09, 0x37) */\n      create\n        /* \"@openzeppelin/contracts/proxy/Clones.sol\":1616:1649  instance := create(0, 0x09, 0x37) */\n      swap1\n      pop\n        /* \"@openzeppelin/contracts/proxy/Clones.sol\":1696:1697  0 */\n      0x00\n        /* \"@openzeppelin/contracts/proxy/Clones.sol\":1676:1698  instance != address(0) */\n      0xffffffffffffffffffffffffffffffffffffffff\n      and\n        /* \"@openzeppelin/contracts/proxy/Clones.sol\":1676:1684  instance */\n      dup2\n        /* \"@openzeppelin/contracts/proxy/Clones.sol\":1676:1698  instance != address(0) */\n      0xffffffffffffffffffffffffffffffffffffffff\n      and\n      eq\n      iszero\n        /* \"@openzeppelin/contracts/proxy/Clones.sol\":1668:1725  require(instance != address(0), \"ERC1167: create failed\") */\n      tag_43\n      jumpi\n      mload(0x40)\n      0x08c379a000000000000000000000000000000000000000000000000000000000\n      dup2\n      mstore\n      0x04\n      add\n      tag_44\n      swap1\n      tag_45\n      jump\t// in\n    tag_44:\n      mload(0x40)\n      dup1\n      swap2\n      sub\n      swap1\n      revert\n    tag_43:\n        /* \"@openzeppelin/contracts/proxy/Clones.sol\":973:1732  function clone(address implementation) internal returns (address instance) {... */\n      swap2\n      swap1\n      pop\n      jump\t// out\n        /* \"#utility.yul\":7:146   */\n    tag_47:\n        /* \"#utility.yul\":53:58   */\n      0x00\n        /* \"#utility.yul\":91:97   */\n      dup2\n        /* \"#utility.yul\":78:98   */\n      calldataload\n        /* \"#utility.yul\":69:98   */\n      swap1\n      pop\n        /* \"#utility.yul\":107:140   */\n      tag_49\n        /* \"#utility.yul\":134:139   */\n      dup2\n        /* \"#utility.yul\":107:140   */\n      tag_50\n      jump\t// in\n    tag_49:\n        /* \"#utility.yul\":7:146   */\n      swap3\n      swap2\n      pop\n      pop\n      jump\t// out\n        /* \"#utility.yul\":152:295   */\n    tag_51:\n        /* \"#utility.yul\":209:214   */\n      0x00\n        /* \"#utility.yul\":240:246   */\n      dup2\n        /* \"#utility.yul\":234:247   */\n      mload\n        /* \"#utility.yul\":225:247   */\n      swap1\n      pop\n        /* \"#utility.yul\":256:289   */\n      tag_53\n        /* \"#utility.yul\":283:288   */\n      dup2\n        /* \"#utility.yul\":256:289   */\n      tag_50\n      jump\t// in\n    tag_53:\n        /* \"#utility.yul\":152:295   */\n      swap3\n      swap2\n      pop\n      pop\n      jump\t// out\n        /* \"#utility.yul\":301:440   */\n    tag_54:\n        /* \"#utility.yul\":347:352   */\n      0x00\n        /* \"#utility.yul\":385:391   */\n      dup2\n        /* \"#utility.yul\":372:392   */\n      calldataload\n        /* \"#utility.yul\":363:392   */\n      swap1\n      pop\n        /* \"#utility.yul\":401:434   */\n      tag_56\n        /* \"#utility.yul\":428:433   */\n      dup2\n        /* \"#utility.yul\":401:434   */\n      tag_57\n      jump\t// in\n    tag_56:\n        /* \"#utility.yul\":301:440   */\n      swap3\n      swap2\n      pop\n      pop\n      jump\t// out\n        /* \"#utility.yul\":446:585   */\n    tag_58:\n        /* \"#utility.yul\":492:497   */\n      0x00\n        /* \"#utility.yul\":530:536   */\n      dup2\n        /* \"#utility.yul\":517:537   */\n      calldataload\n        /* \"#utility.yul\":508:537   */\n      swap1\n      pop\n        /* \"#utility.yul\":546:579   */\n      tag_60\n        /* \"#utility.yul\":573:578   */\n      dup2\n        /* \"#utility.yul\":546:579   */\n      tag_61\n      jump\t// in\n    tag_60:\n        /* \"#utility.yul\":446:585   */\n      swap3\n      swap2\n      pop\n      pop\n      jump\t// out\n        /* \"#utility.yul\":591:920   */\n    tag_14:\n        /* \"#utility.yul\":650:656   */\n      0x00\n        /* \"#utility.yul\":699:701   */\n      0x20\n        /* \"#utility.yul\":687:696   */\n      dup3\n        /* \"#utility.yul\":678:685   */\n      dup5\n        /* \"#utility.yul\":674:697   */\n      sub\n        /* \"#utility.yul\":670:702   */\n      slt\n        /* \"#utility.yul\":667:786   */\n      iszero\n      tag_63\n      jumpi\n        /* \"#utility.yul\":705:784   */\n      tag_64\n      tag_65\n      jump\t// in\n    tag_64:\n        /* \"#utility.yul\":667:786   */\n    tag_63:\n        /* \"#utility.yul\":825:826   */\n      0x00\n        /* \"#utility.yul\":850:903   */\n      tag_66\n        /* \"#utility.yul\":895:902   */\n      dup5\n        /* \"#utility.yul\":886:892   */\n      dup3\n        /* \"#utility.yul\":875:884   */\n      dup6\n        /* \"#utility.yul\":871:893   */\n      add\n        /* \"#utility.yul\":850:903   */\n      tag_47\n      jump\t// in\n    tag_66:\n        /* \"#utility.yul\":840:903   */\n      swap2\n      pop\n        /* \"#utility.yul\":796:913   */\n      pop\n        /* \"#utility.yul\":591:920   */\n      swap3\n      swap2\n      pop\n      pop\n      jump\t// out\n        /* \"#utility.yul\":926:1277   */\n    tag_38:\n        /* \"#utility.yul\":996:1002   */\n      0x00\n        /* \"#utility.yul\":1045:1047   */\n      0x20\n        /* \"#utility.yul\":1033:1042   */\n      dup3\n        /* \"#utility.yul\":1024:1031   */\n      dup5\n        /* \"#utility.yul\":1020:1043   */\n      sub\n        /* \"#utility.yul\":1016:1048   */\n      slt\n        /* \"#utility.yul\":1013:1132   */\n      iszero\n      tag_68\n      jumpi\n        /* \"#utility.yul\":1051:1130   */\n      tag_69\n      tag_65\n      jump\t// in\n    tag_69:\n        /* \"#utility.yul\":1013:1132   */\n    tag_68:\n        /* \"#utility.yul\":1171:1172   */\n      0x00\n        /* \"#utility.yul\":1196:1260   */\n      tag_70\n        /* \"#utility.yul\":1252:1259   */\n      dup5\n        /* \"#utility.yul\":1243:1249   */\n      dup3\n        /* \"#utility.yul\":1232:1241   */\n      dup6\n        /* \"#utility.yul\":1228:1250   */\n      add\n        /* \"#utility.yul\":1196:1260   */\n      tag_51\n      jump\t// in\n    tag_70:\n        /* \"#utility.yul\":1186:1260   */\n      swap2\n      pop\n        /* \"#utility.yul\":1142:1270   */\n      pop\n        /* \"#utility.yul\":926:1277   */\n      swap3\n      swap2\n      pop\n      pop\n      jump\t// out\n        /* \"#utility.yul\":1283:2194   */\n    tag_8:\n        /* \"#utility.yul\":1378:1384   */\n      0x00\n        /* \"#utility.yul\":1386:1392   */\n      dup1\n        /* \"#utility.yul\":1394:1400   */\n      0x00\n        /* \"#utility.yul\":1402:1408   */\n      dup1\n        /* \"#utility.yul\":1410:1416   */\n      0x00\n        /* \"#utility.yul\":1459:1462   */\n      0xa0\n        /* \"#utility.yul\":1447:1456   */\n      dup7\n        /* \"#utility.yul\":1438:1445   */\n      dup9\n        /* \"#utility.yul\":1434:1457   */\n      sub\n        /* \"#utility.yul\":1430:1463   */\n      slt\n        /* \"#utility.yul\":1427:1547   */\n      iszero\n      tag_72\n      jumpi\n        /* \"#utility.yul\":1466:1545   */\n      tag_73\n      tag_65\n      jump\t// in\n    tag_73:\n        /* \"#utility.yul\":1427:1547   */\n    tag_72:\n        /* \"#utility.yul\":1586:1587   */\n      0x00\n        /* \"#utility.yul\":1611:1664   */\n      tag_74\n        /* \"#utility.yul\":1656:1663   */\n      dup9\n        /* \"#utility.yul\":1647:1653   */\n      dup3\n        /* \"#utility.yul\":1636:1645   */\n      dup10\n        /* \"#utility.yul\":1632:1654   */\n      add\n        /* \"#utility.yul\":1611:1664   */\n      tag_58\n      jump\t// in\n    tag_74:\n        /* \"#utility.yul\":1601:1664   */\n      swap6\n      pop\n        /* \"#utility.yul\":1557:1674   */\n      pop\n        /* \"#utility.yul\":1713:1715   */\n      0x20\n        /* \"#utility.yul\":1739:1792   */\n      tag_75\n        /* \"#utility.yul\":1784:1791   */\n      dup9\n        /* \"#utility.yul\":1775:1781   */\n      dup3\n        /* \"#utility.yul\":1764:1773   */\n      dup10\n        /* \"#utility.yul\":1760:1782   */\n      add\n        /* \"#utility.yul\":1739:1792   */\n      tag_58\n      jump\t// in\n    tag_75:\n        /* \"#utility.yul\":1729:1792   */\n      swap5\n      pop\n        /* \"#utility.yul\":1684:1802   */\n      pop\n        /* \"#utility.yul\":1841:1843   */\n      0x40\n        /* \"#utility.yul\":1867:1920   */\n      tag_76\n        /* \"#utility.yul\":1912:1919   */\n      dup9\n        /* \"#utility.yul\":1903:1909   */\n      dup3\n        /* \"#utility.yul\":1892:1901   */\n      dup10\n        /* \"#utility.yul\":1888:1910   */\n      add\n        /* \"#utility.yul\":1867:1920   */\n      tag_58\n      jump\t// in\n    tag_76:\n        /* \"#utility.yul\":1857:1920   */\n      swap4\n      pop\n        /* \"#utility.yul\":1812:1930   */\n      pop\n        /* \"#utility.yul\":1969:1971   */\n      0x60\n        /* \"#utility.yul\":1995:2048   */\n      tag_77\n        /* \"#utility.yul\":2040:2047   */\n      dup9\n        /* \"#utility.yul\":2031:2037   */\n      dup3\n        /* \"#utility.yul\":2020:2029   */\n      dup10\n        /* \"#utility.yul\":2016:2038   */\n      add\n        /* \"#utility.yul\":1995:2048   */\n      tag_54\n      jump\t// in\n    tag_77:\n        /* \"#utility.yul\":1985:2048   */\n      swap3\n      pop\n        /* \"#utility.yul\":1940:2058   */\n      pop\n        /* \"#utility.yul\":2097:2100   */\n      0x80\n        /* \"#utility.yul\":2124:2177   */\n      tag_78\n        /* \"#utility.yul\":2169:2176   */\n      dup9\n        /* \"#utility.yul\":2160:2166   */\n      dup3\n        /* \"#utility.yul\":2149:2158   */\n      dup10\n        /* \"#utility.yul\":2145:2167   */\n      add\n        /* \"#utility.yul\":2124:2177   */\n      tag_58\n      jump\t// in\n    tag_78:\n        /* \"#utility.yul\":2114:2177   */\n      swap2\n      pop\n        /* \"#utility.yul\":2068:2187   */\n      pop\n        /* \"#utility.yul\":1283:2194   */\n      swap3\n      swap6\n      pop\n      swap3\n      swap6\n      swap1\n      swap4\n      pop\n      jump\t// out\n        /* \"#utility.yul\":2200:2318   */\n    tag_79:\n        /* \"#utility.yul\":2287:2311   */\n      tag_81\n        /* \"#utility.yul\":2305:2310   */\n      dup2\n        /* \"#utility.yul\":2287:2311   */\n      tag_82\n      jump\t// in\n    tag_81:\n        /* \"#utility.yul\":2282:2285   */\n      dup3\n        /* \"#utility.yul\":2275:2312   */\n      mstore\n        /* \"#utility.yul\":2200:2318   */\n      pop\n      pop\n      jump\t// out\n        /* \"#utility.yul\":2324:2433   */\n    tag_83:\n        /* \"#utility.yul\":2405:2426   */\n      tag_85\n        /* \"#utility.yul\":2420:2425   */\n      dup2\n        /* \"#utility.yul\":2405:2426   */\n      tag_86\n      jump\t// in\n    tag_85:\n        /* \"#utility.yul\":2400:2403   */\n      dup3\n        /* \"#utility.yul\":2393:2427   */\n      mstore\n        /* \"#utility.yul\":2324:2433   */\n      pop\n      pop\n      jump\t// out\n        /* \"#utility.yul\":2439:2557   */\n    tag_87:\n        /* \"#utility.yul\":2526:2550   */\n      tag_89\n        /* \"#utility.yul\":2544:2549   */\n      dup2\n        /* \"#utility.yul\":2526:2550   */\n      tag_90\n      jump\t// in\n    tag_89:\n        /* \"#utility.yul\":2521:2524   */\n      dup3\n        /* \"#utility.yul\":2514:2551   */\n      mstore\n        /* \"#utility.yul\":2439:2557   */\n      pop\n      pop\n      jump\t// out\n        /* \"#utility.yul\":2563:2929   */\n    tag_91:\n        /* \"#utility.yul\":2705:2708   */\n      0x00\n        /* \"#utility.yul\":2726:2793   */\n      tag_93\n        /* \"#utility.yul\":2790:2792   */\n      0x28\n        /* \"#utility.yul\":2785:2788   */\n      dup4\n        /* \"#utility.yul\":2726:2793   */\n      tag_94\n      jump\t// in\n    tag_93:\n        /* \"#utility.yul\":2719:2793   */\n      swap2\n      pop\n        /* \"#utility.yul\":2802:2895   */\n      tag_95\n        /* \"#utility.yul\":2891:2894   */\n      dup3\n        /* \"#utility.yul\":2802:2895   */\n      tag_96\n      jump\t// in\n    tag_95:\n        /* \"#utility.yul\":2920:2922   */\n      0x40\n        /* \"#utility.yul\":2915:2918   */\n      dup3\n        /* \"#utility.yul\":2911:2923   */\n      add\n        /* \"#utility.yul\":2904:2923   */\n      swap1\n      pop\n        /* \"#utility.yul\":2563:2929   */\n      swap2\n      swap1\n      pop\n      jump\t// out\n        /* \"#utility.yul\":2935:3301   */\n    tag_97:\n        /* \"#utility.yul\":3077:3080   */\n      0x00\n        /* \"#utility.yul\":3098:3165   */\n      tag_99\n        /* \"#utility.yul\":3162:3164   */\n      0x16\n        /* \"#utility.yul\":3157:3160   */\n      dup4\n        /* \"#utility.yul\":3098:3165   */\n      tag_94\n      jump\t// in\n    tag_99:\n        /* \"#utility.yul\":3091:3165   */\n      swap2\n      pop\n        /* \"#utility.yul\":3174:3267   */\n      tag_100\n        /* \"#utility.yul\":3263:3266   */\n      dup3\n        /* \"#utility.yul\":3174:3267   */\n      tag_101\n      jump\t// in\n    tag_100:\n        /* \"#utility.yul\":3292:3294   */\n      0x20\n        /* \"#utility.yul\":3287:3290   */\n      dup3\n        /* \"#utility.yul\":3283:3295   */\n      add\n        /* \"#utility.yul\":3276:3295   */\n      swap1\n      pop\n        /* \"#utility.yul\":2935:3301   */\n      swap2\n      swap1\n      pop\n      jump\t// out\n        /* \"#utility.yul\":3307:3673   */\n    tag_102:\n        /* \"#utility.yul\":3449:3452   */\n      0x00\n        /* \"#utility.yul\":3470:3537   */\n      tag_104\n        /* \"#utility.yul\":3534:3536   */\n      0x31\n        /* \"#utility.yul\":3529:3532   */\n      dup4\n        /* \"#utility.yul\":3470:3537   */\n      tag_94\n      jump\t// in\n    tag_104:\n        /* \"#utility.yul\":3463:3537   */\n      swap2\n      pop\n        /* \"#utility.yul\":3546:3639   */\n      tag_105\n        /* \"#utility.yul\":3635:3638   */\n      dup3\n        /* \"#utility.yul\":3546:3639   */\n      tag_106\n      jump\t// in\n    tag_105:\n        /* \"#utility.yul\":3664:3666   */\n      0x40\n        /* \"#utility.yul\":3659:3662   */\n      dup3\n        /* \"#utility.yul\":3655:3667   */\n      add\n        /* \"#utility.yul\":3648:3667   */\n      swap1\n      pop\n        /* \"#utility.yul\":3307:3673   */\n      swap2\n      swap1\n      pop\n      jump\t// out\n        /* \"#utility.yul\":3679:3797   */\n    tag_107:\n        /* \"#utility.yul\":3766:3790   */\n      tag_109\n        /* \"#utility.yul\":3784:3789   */\n      dup2\n        /* \"#utility.yul\":3766:3790   */\n      tag_110\n      jump\t// in\n    tag_109:\n        /* \"#utility.yul\":3761:3764   */\n      dup3\n        /* \"#utility.yul\":3754:3791   */\n      mstore\n        /* \"#utility.yul\":3679:3797   */\n      pop\n      pop\n      jump\t// out\n        /* \"#utility.yul\":3803:4025   */\n    tag_11:\n        /* \"#utility.yul\":3896:3900   */\n      0x00\n        /* \"#utility.yul\":3934:3936   */\n      0x20\n        /* \"#utility.yul\":3923:3932   */\n      dup3\n        /* \"#utility.yul\":3919:3937   */\n      add\n        /* \"#utility.yul\":3911:3937   */\n      swap1\n      pop\n        /* \"#utility.yul\":3947:4018   */\n      tag_112\n        /* \"#utility.yul\":4015:4016   */\n      0x00\n        /* \"#utility.yul\":4004:4013   */\n      dup4\n        /* \"#utility.yul\":4000:4017   */\n      add\n        /* \"#utility.yul\":3991:3997   */\n      dup5\n        /* \"#utility.yul\":3947:4018   */\n      tag_79\n      jump\t// in\n    tag_112:\n        /* \"#utility.yul\":3803:4025   */\n      swap3\n      swap2\n      pop\n      pop\n      jump\t// out\n        /* \"#utility.yul\":4031:4806   */\n    tag_25:\n        /* \"#utility.yul\":4264:4268   */\n      0x00\n        /* \"#utility.yul\":4302:4305   */\n      0xc0\n        /* \"#utility.yul\":4291:4300   */\n      dup3\n        /* \"#utility.yul\":4287:4306   */\n      add\n        /* \"#utility.yul\":4279:4306   */\n      swap1\n      pop\n        /* \"#utility.yul\":4316:4387   */\n      tag_114\n        /* \"#utility.yul\":4384:4385   */\n      0x00\n        /* \"#utility.yul\":4373:4382   */\n      dup4\n        /* \"#utility.yul\":4369:4386   */\n      add\n        /* \"#utility.yul\":4360:4366   */\n      dup10\n        /* \"#utility.yul\":4316:4387   */\n      tag_79\n      jump\t// in\n    tag_114:\n        /* \"#utility.yul\":4397:4469   */\n      tag_115\n        /* \"#utility.yul\":4465:4467   */\n      0x20\n        /* \"#utility.yul\":4454:4463   */\n      dup4\n        /* \"#utility.yul\":4450:4468   */\n      add\n        /* \"#utility.yul\":4441:4447   */\n      dup9\n        /* \"#utility.yul\":4397:4469   */\n      tag_107\n      jump\t// in\n    tag_115:\n        /* \"#utility.yul\":4479:4551   */\n      tag_116\n        /* \"#utility.yul\":4547:4549   */\n      0x40\n        /* \"#utility.yul\":4536:4545   */\n      dup4\n        /* \"#utility.yul\":4532:4550   */\n      add\n        /* \"#utility.yul\":4523:4529   */\n      dup8\n        /* \"#utility.yul\":4479:4551   */\n      tag_107\n      jump\t// in\n    tag_116:\n        /* \"#utility.yul\":4561:4633   */\n      tag_117\n        /* \"#utility.yul\":4629:4631   */\n      0x60\n        /* \"#utility.yul\":4618:4627   */\n      dup4\n        /* \"#utility.yul\":4614:4632   */\n      add\n        /* \"#utility.yul\":4605:4611   */\n      dup7\n        /* \"#utility.yul\":4561:4633   */\n      tag_107\n      jump\t// in\n    tag_117:\n        /* \"#utility.yul\":4643:4716   */\n      tag_118\n        /* \"#utility.yul\":4711:4714   */\n      0x80\n        /* \"#utility.yul\":4700:4709   */\n      dup4\n        /* \"#utility.yul\":4696:4715   */\n      add\n        /* \"#utility.yul\":4687:4693   */\n      dup6\n        /* \"#utility.yul\":4643:4716   */\n      tag_87\n      jump\t// in\n    tag_118:\n        /* \"#utility.yul\":4726:4799   */\n      tag_119\n        /* \"#utility.yul\":4794:4797   */\n      0xa0\n        /* \"#utility.yul\":4783:4792   */\n      dup4\n        /* \"#utility.yul\":4779:4798   */\n      add\n        /* \"#utility.yul\":4770:4776   */\n      dup5\n        /* \"#utility.yul\":4726:4799   */\n      tag_107\n      jump\t// in\n    tag_119:\n        /* \"#utility.yul\":4031:4806   */\n      swap8\n      swap7\n      pop\n      pop\n      pop\n      pop\n      pop\n      pop\n      pop\n      jump\t// out\n        /* \"#utility.yul\":4812:5022   */\n    tag_20:\n        /* \"#utility.yul\":4899:4903   */\n      0x00\n        /* \"#utility.yul\":4937:4939   */\n      0x20\n        /* \"#utility.yul\":4926:4935   */\n      dup3\n        /* \"#utility.yul\":4922:4940   */\n      add\n        /* \"#utility.yul\":4914:4940   */\n      swap1\n      pop\n        /* \"#utility.yul\":4950:5015   */\n      tag_121\n        /* \"#utility.yul\":5012:5013   */\n      0x00\n        /* \"#utility.yul\":5001:5010   */\n      dup4\n        /* \"#utility.yul\":4997:5014   */\n      add\n        /* \"#utility.yul\":4988:4994   */\n      dup5\n        /* \"#utility.yul\":4950:5015   */\n      tag_83\n      jump\t// in\n    tag_121:\n        /* \"#utility.yul\":4812:5022   */\n      swap3\n      swap2\n      pop\n      pop\n      jump\t// out\n        /* \"#utility.yul\":5028:5447   */\n    tag_33:\n        /* \"#utility.yul\":5194:5198   */\n      0x00\n        /* \"#utility.yul\":5232:5234   */\n      0x20\n        /* \"#utility.yul\":5221:5230   */\n      dup3\n        /* \"#utility.yul\":5217:5235   */\n      add\n        /* \"#utility.yul\":5209:5235   */\n      swap1\n      pop\n        /* \"#utility.yul\":5281:5290   */\n      dup2\n        /* \"#utility.yul\":5275:5279   */\n      dup2\n        /* \"#utility.yul\":5271:5291   */\n      sub\n        /* \"#utility.yul\":5267:5268   */\n      0x00\n        /* \"#utility.yul\":5256:5265   */\n      dup4\n        /* \"#utility.yul\":5252:5269   */\n      add\n        /* \"#utility.yul\":5245:5292   */\n      mstore\n        /* \"#utility.yul\":5309:5440   */\n      tag_123\n        /* \"#utility.yul\":5435:5439   */\n      dup2\n        /* \"#utility.yul\":5309:5440   */\n      tag_91\n      jump\t// in\n    tag_123:\n        /* \"#utility.yul\":5301:5440   */\n      swap1\n      pop\n        /* \"#utility.yul\":5028:5447   */\n      swap2\n      swap1\n      pop\n      jump\t// out\n        /* \"#utility.yul\":5453:5872   */\n    tag_45:\n        /* \"#utility.yul\":5619:5623   */\n      0x00\n        /* \"#utility.yul\":5657:5659   */\n      0x20\n        /* \"#utility.yul\":5646:5655   */\n      dup3\n        /* \"#utility.yul\":5642:5660   */\n      add\n        /* \"#utility.yul\":5634:5660   */\n      swap1\n      pop\n        /* \"#utility.yul\":5706:5715   */\n      dup2\n        /* \"#utility.yul\":5700:5704   */\n      dup2\n        /* \"#utility.yul\":5696:5716   */\n      sub\n        /* \"#utility.yul\":5692:5693   */\n      0x00\n        /* \"#utility.yul\":5681:5690   */\n      dup4\n        /* \"#utility.yul\":5677:5694   */\n      add\n        /* \"#utility.yul\":5670:5717   */\n      mstore\n        /* \"#utility.yul\":5734:5865   */\n      tag_125\n        /* \"#utility.yul\":5860:5864   */\n      dup2\n        /* \"#utility.yul\":5734:5865   */\n      tag_97\n      jump\t// in\n    tag_125:\n        /* \"#utility.yul\":5726:5865   */\n      swap1\n      pop\n        /* \"#utility.yul\":5453:5872   */\n      swap2\n      swap1\n      pop\n      jump\t// out\n        /* \"#utility.yul\":5878:6297   */\n    tag_41:\n        /* \"#utility.yul\":6044:6048   */\n      0x00\n        /* \"#utility.yul\":6082:6084   */\n      0x20\n        /* \"#utility.yul\":6071:6080   */\n      dup3\n        /* \"#utility.yul\":6067:6085   */\n      add\n        /* \"#utility.yul\":6059:6085   */\n      swap1\n      pop\n        /* \"#utility.yul\":6131:6140   */\n      dup2\n        /* \"#utility.yul\":6125:6129   */\n      dup2\n        /* \"#utility.yul\":6121:6141   */\n      sub\n        /* \"#utility.yul\":6117:6118   */\n      0x00\n        /* \"#utility.yul\":6106:6115   */\n      dup4\n        /* \"#utility.yul\":6102:6119   */\n      add\n        /* \"#utility.yul\":6095:6142   */\n      mstore\n        /* \"#utility.yul\":6159:6290   */\n      tag_127\n        /* \"#utility.yul\":6285:6289   */\n      dup2\n        /* \"#utility.yul\":6159:6290   */\n      tag_102\n      jump\t// in\n    tag_127:\n        /* \"#utility.yul\":6151:6290   */\n      swap1\n      pop\n        /* \"#utility.yul\":5878:6297   */\n      swap2\n      swap1\n      pop\n      jump\t// out\n        /* \"#utility.yul\":6384:6553   */\n    tag_94:\n        /* \"#utility.yul\":6468:6479   */\n      0x00\n        /* \"#utility.yul\":6502:6508   */\n      dup3\n        /* \"#utility.yul\":6497:6500   */\n      dup3\n        /* \"#utility.yul\":6490:6509   */\n      mstore\n        /* \"#utility.yul\":6542:6546   */\n      0x20\n        /* \"#utility.yul\":6537:6540   */\n      dup3\n        /* \"#utility.yul\":6533:6547   */\n      add\n        /* \"#utility.yul\":6518:6547   */\n      swap1\n      pop\n        /* \"#utility.yul\":6384:6553   */\n      swap3\n      swap2\n      pop\n      pop\n      jump\t// out\n        /* \"#utility.yul\":6559:6655   */\n    tag_82:\n        /* \"#utility.yul\":6596:6603   */\n      0x00\n        /* \"#utility.yul\":6625:6649   */\n      tag_132\n        /* \"#utility.yul\":6643:6648   */\n      dup3\n        /* \"#utility.yul\":6625:6649   */\n      tag_133\n      jump\t// in\n    tag_132:\n        /* \"#utility.yul\":6614:6649   */\n      swap1\n      pop\n        /* \"#utility.yul\":6559:6655   */\n      swap2\n      swap1\n      pop\n      jump\t// out\n        /* \"#utility.yul\":6661:6751   */\n    tag_86:\n        /* \"#utility.yul\":6695:6702   */\n      0x00\n        /* \"#utility.yul\":6738:6743   */\n      dup2\n        /* \"#utility.yul\":6731:6744   */\n      iszero\n        /* \"#utility.yul\":6724:6745   */\n      iszero\n        /* \"#utility.yul\":6713:6745   */\n      swap1\n      pop\n        /* \"#utility.yul\":6661:6751   */\n      swap2\n      swap1\n      pop\n      jump\t// out\n        /* \"#utility.yul\":6757:6834   */\n    tag_90:\n        /* \"#utility.yul\":6794:6801   */\n      0x00\n        /* \"#utility.yul\":6823:6828   */\n      dup2\n        /* \"#utility.yul\":6812:6828   */\n      swap1\n      pop\n        /* \"#utility.yul\":6757:6834   */\n      swap2\n      swap1\n      pop\n      jump\t// out\n        /* \"#utility.yul\":6840:6966   */\n    tag_133:\n        /* \"#utility.yul\":6877:6884   */\n      0x00\n        /* \"#utility.yul\":6917:6959   */\n      0xffffffffffffffffffffffffffffffffffffffff\n        /* \"#utility.yul\":6910:6915   */\n      dup3\n        /* \"#utility.yul\":6906:6960   */\n      and\n        /* \"#utility.yul\":6895:6960   */\n      swap1\n      pop\n        /* \"#utility.yul\":6840:6966   */\n      swap2\n      swap1\n      pop\n      jump\t// out\n        /* \"#utility.yul\":6972:7049   */\n    tag_110:\n        /* \"#utility.yul\":7009:7016   */\n      0x00\n        /* \"#utility.yul\":7038:7043   */\n      dup2\n        /* \"#utility.yul\":7027:7043   */\n      swap1\n      pop\n        /* \"#utility.yul\":6972:7049   */\n      swap2\n      swap1\n      pop\n      jump\t// out\n        /* \"#utility.yul\":7178:7295   */\n    tag_65:\n        /* \"#utility.yul\":7287:7288   */\n      0x00\n        /* \"#utility.yul\":7284:7285   */\n      dup1\n        /* \"#utility.yul\":7277:7289   */\n      revert\n        /* \"#utility.yul\":7301:7528   */\n    tag_96:\n        /* \"#utility.yul\":7441:7475   */\n      0x546869732070726f64756365206973206e6f74206c6973746564206f6e207468\n        /* \"#utility.yul\":7437:7438   */\n      0x00\n        /* \"#utility.yul\":7429:7435   */\n      dup3\n        /* \"#utility.yul\":7425:7439   */\n      add\n        /* \"#utility.yul\":7418:7476   */\n      mstore\n        /* \"#utility.yul\":7510:7520   */\n      0x65204d61726b6574000000000000000000000000000000000000000000000000\n        /* \"#utility.yul\":7505:7507   */\n      0x20\n        /* \"#utility.yul\":7497:7503   */\n      dup3\n        /* \"#utility.yul\":7493:7508   */\n      add\n        /* \"#utility.yul\":7486:7521   */\n      mstore\n        /* \"#utility.yul\":7301:7528   */\n      pop\n      jump\t// out\n        /* \"#utility.yul\":7534:7706   */\n    tag_101:\n        /* \"#utility.yul\":7674:7698   */\n      0x455243313136373a20637265617465206661696c656400000000000000000000\n        /* \"#utility.yul\":7670:7671   */\n      0x00\n        /* \"#utility.yul\":7662:7668   */\n      dup3\n        /* \"#utility.yul\":7658:7672   */\n      add\n        /* \"#utility.yul\":7651:7699   */\n      mstore\n        /* \"#utility.yul\":7534:7706   */\n      pop\n      jump\t// out\n        /* \"#utility.yul\":7712:7948   */\n    tag_106:\n        /* \"#utility.yul\":7852:7886   */\n      0x4f6e6c792070726f64756365206f776e65722063616e2072656d6f7665207072\n        /* \"#utility.yul\":7848:7849   */\n      0x00\n        /* \"#utility.yul\":7840:7846   */\n      dup3\n        /* \"#utility.yul\":7836:7850   */\n      add\n        /* \"#utility.yul\":7829:7887   */\n      mstore\n        /* \"#utility.yul\":7921:7940   */\n      0x6f647563652066726f6d204d61726b6574000000000000000000000000000000\n        /* \"#utility.yul\":7916:7918   */\n      0x20\n        /* \"#utility.yul\":7908:7914   */\n      dup3\n        /* \"#utility.yul\":7904:7919   */\n      add\n        /* \"#utility.yul\":7897:7941   */\n      mstore\n        /* \"#utility.yul\":7712:7948   */\n      pop\n      jump\t// out\n        /* \"#utility.yul\":7954:8076   */\n    tag_50:\n        /* \"#utility.yul\":8027:8051   */\n      tag_145\n        /* \"#utility.yul\":8045:8050   */\n      dup2\n        /* \"#utility.yul\":8027:8051   */\n      tag_82\n      jump\t// in\n    tag_145:\n        /* \"#utility.yul\":8020:8025   */\n      dup2\n        /* \"#utility.yul\":8017:8052   */\n      eq\n        /* \"#utility.yul\":8007:8070   */\n      tag_146\n      jumpi\n        /* \"#utility.yul\":8066:8067   */\n      0x00\n        /* \"#utility.yul\":8063:8064   */\n      dup1\n        /* \"#utility.yul\":8056:8068   */\n      revert\n        /* \"#utility.yul\":8007:8070   */\n    tag_146:\n        /* \"#utility.yul\":7954:8076   */\n      pop\n      jump\t// out\n        /* \"#utility.yul\":8082:8204   */\n    tag_57:\n        /* \"#utility.yul\":8155:8179   */\n      tag_148\n        /* \"#utility.yul\":8173:8178   */\n      dup2\n        /* \"#utility.yul\":8155:8179   */\n      tag_90\n      jump\t// in\n    tag_148:\n        /* \"#utility.yul\":8148:8153   */\n      dup2\n        /* \"#utility.yul\":8145:8180   */\n      eq\n        /* \"#utility.yul\":8135:8198   */\n      tag_149\n      jumpi\n        /* \"#utility.yul\":8194:8195   */\n      0x00\n        /* \"#utility.yul\":8191:8192   */\n      dup1\n        /* \"#utility.yul\":8184:8196   */\n      revert\n        /* \"#utility.yul\":8135:8198   */\n    tag_149:\n        /* \"#utility.yul\":8082:8204   */\n      pop\n      jump\t// out\n        /* \"#utility.yul\":8210:8332   */\n    tag_61:\n        /* \"#utility.yul\":8283:8307   */\n      tag_151\n        /* \"#utility.yul\":8301:8306   */\n      dup2\n        /* \"#utility.yul\":8283:8307   */\n      tag_110\n      jump\t// in\n    tag_151:\n        /* \"#utility.yul\":8276:8281   */\n      dup2\n        /* \"#utility.yul\":8273:8308   */\n      eq\n        /* \"#utility.yul\":8263:8326   */\n      tag_152\n      jumpi\n        /* \"#utility.yul\":8322:8323   */\n      0x00\n        /* \"#utility.yul\":8319:8320   */\n      dup1\n        /* \"#utility.yul\":8312:8324   */\n      revert\n        /* \"#utility.yul\":8263:8326   */\n    tag_152:\n        /* \"#utility.yul\":8210:8332   */\n      pop\n      jump\t// out\n\n    auxdata: 0xa2646970667358221220e20d12f00627fd14faa28217efcabed613bdc2acea638711da9d9567185e7ace64736f6c63430008070033\n}\n\nsub_1: assembly {\n        /* \"contracts/Produce.sol\":140:1524  contract Produce is Ownable{... */\n      mstore(0x40, 0x80)\n      callvalue\n      dup1\n      iszero\n      tag_1\n      jumpi\n      0x00\n      dup1\n      revert\n    tag_1:\n      pop\n        /* \"@openzeppelin/contracts/access/Ownable.sol\":936:968  _transferOwnership(_msgSender()) */\n      tag_4\n        /* \"@openzeppelin/contracts/access/Ownable.sol\":955:967  _msgSender() */\n      tag_5\n        /* \"@openzeppelin/contracts/access/Ownable.sol\":955:965  _msgSender */\n      shl(0x20, tag_6)\n        /* \"@openzeppelin/contracts/access/Ownable.sol\":955:967  _msgSender() */\n      0x20\n      shr\n      jump\t// in\n    tag_5:\n        /* \"@openzeppelin/contracts/access/Ownable.sol\":936:954  _transferOwnership */\n      shl(0x20, tag_7)\n        /* \"@openzeppelin/contracts/access/Ownable.sol\":936:968  _transferOwnership(_msgSender()) */\n      0x20\n      shr\n      jump\t// in\n    tag_4:\n        /* \"contracts/Produce.sol\":140:1524  contract Produce is Ownable{... */\n      jump(tag_8)\n        /* \"@openzeppelin/contracts/utils/Context.sol\":640:736  function _msgSender() internal view virtual returns (address) {... */\n    tag_6:\n        /* \"@openzeppelin/contracts/utils/Context.sol\":693:700  address */\n      0x00\n        /* \"@openzeppelin/contracts/utils/Context.sol\":719:729  msg.sender */\n      caller\n        /* \"@openzeppelin/contracts/utils/Context.sol\":712:729  return msg.sender */\n      swap1\n      pop\n        /* \"@openzeppelin/contracts/utils/Context.sol\":640:736  function _msgSender() internal view virtual returns (address) {... */\n      swap1\n      jump\t// out\n        /* \"@openzeppelin/contracts/access/Ownable.sol\":2433:2620  function _transferOwnership(address newOwner) internal virtual {... */\n    tag_7:\n        /* \"@openzeppelin/contracts/access/Ownable.sol\":2506:2522  address oldOwner */\n      0x00\n        /* \"@openzeppelin/contracts/access/Ownable.sol\":2525:2531  _owner */\n      dup1\n      0x00\n      swap1\n      sload\n      swap1\n      0x0100\n      exp\n      swap1\n      div\n      0xffffffffffffffffffffffffffffffffffffffff\n      and\n        /* \"@openzeppelin/contracts/access/Ownable.sol\":2506:2531  address oldOwner = _owner */\n      swap1\n      pop\n        /* \"@openzeppelin/contracts/access/Ownable.sol\":2550:2558  newOwner */\n      dup2\n        /* \"@openzeppelin/contracts/access/Ownable.sol\":2541:2547  _owner */\n      0x00\n      dup1\n        /* \"@openzeppelin/contracts/access/Ownable.sol\":2541:2558  _owner = newOwner */\n      0x0100\n      exp\n      dup2\n      sload\n      dup2\n      0xffffffffffffffffffffffffffffffffffffffff\n      mul\n      not\n      and\n      swap1\n      dup4\n      0xffffffffffffffffffffffffffffffffffffffff\n      and\n      mul\n      or\n      swap1\n      sstore\n      pop\n        /* \"@openzeppelin/contracts/access/Ownable.sol\":2604:2612  newOwner */\n      dup2\n        /* \"@openzeppelin/contracts/access/Ownable.sol\":2573:2613  OwnershipTransferred(oldOwner, newOwner) */\n      0xffffffffffffffffffffffffffffffffffffffff\n      and\n        /* \"@openzeppelin/contracts/access/Ownable.sol\":2594:2602  oldOwner */\n      dup2\n        /* \"@openzeppelin/contracts/access/Ownable.sol\":2573:2613  OwnershipTransferred(oldOwner, newOwner) */\n      0xffffffffffffffffffffffffffffffffffffffff\n      and\n      0x8be0079c531659141344cd1fd0a4f28419497f9722a3daafe3b4186f6b6457e0\n      mload(0x40)\n      mload(0x40)\n      dup1\n      swap2\n      sub\n      swap1\n      log3\n        /* \"@openzeppelin/contracts/access/Ownable.sol\":2496:2620  {... */\n      pop\n        /* \"@openzeppelin/contracts/access/Ownable.sol\":2433:2620  function _transferOwnership(address newOwner) internal virtual {... */\n      pop\n      jump\t// out\n        /* \"contracts/Produce.sol\":140:1524  contract Produce is Ownable{... */\n    tag_8:\n      dataSize(sub_0)\n      dup1\n      dataOffset(sub_0)\n      0x00\n      codecopy\n      0x00\n      return\n    stop\n\n    sub_0: assembly {\n            /* \"contracts/Produce.sol\":140:1524  contract Produce is Ownable{... */\n          mstore(0x40, 0x80)\n          jumpi(tag_1, lt(calldatasize, 0x04))\n          shr(0xe0, calldataload(0x00))\n          dup1\n          0xaa8c217c\n          gt\n          tag_14\n          jumpi\n          dup1\n          0xaa8c217c\n          eq\n          tag_8\n          jumpi\n          dup1\n          0xc8dde807\n          eq\n          tag_9\n          jumpi\n          dup1\n          0xd32dacc1\n          eq\n          tag_10\n          jumpi\n          dup1\n          0xd811fcf0\n          eq\n          tag_11\n          jumpi\n          dup1\n          0xf2fde38b\n          eq\n          tag_12\n          jumpi\n          dup1\n          0xf5c609e0\n          eq\n          tag_13\n          jumpi\n          jump(tag_1)\n        tag_14:\n          dup1\n          0x06fdde03\n          eq\n          tag_2\n          jumpi\n          dup1\n          0x530d124e\n          eq\n          tag_3\n          jumpi\n          dup1\n          0x6d86b8a5\n          eq\n          tag_4\n          jumpi\n          dup1\n          0x715018a6\n          eq\n          tag_5\n          jumpi\n          dup1\n          0x8da5cb5b\n          eq\n          tag_6\n          jumpi\n          dup1\n          0xa035b1fe\n          eq\n          tag_7\n          jumpi\n        tag_1:\n          0x00\n          dup1\n          revert\n            /* \"contracts/Produce.sol\":272:291  uint256 public name */\n        tag_2:\n          callvalue\n          dup1\n          iszero\n          tag_15\n          jumpi\n          0x00\n          dup1\n          revert\n        tag_15:\n          pop\n          tag_16\n          tag_17\n          jump\t// in\n        tag_16:\n          mload(0x40)\n          tag_18\n          swap2\n          swap1\n          tag_19\n          jump\t// in\n        tag_18:\n          mload(0x40)\n          dup1\n          swap2\n          sub\n          swap1\n          return\n            /* \"contracts/Produce.sol\":230:265  uint256 public limitOnPendingOrders */\n        tag_3:\n          callvalue\n          dup1\n          iszero\n          tag_20\n          jumpi\n          0x00\n          dup1\n          revert\n        tag_20:\n          pop\n          tag_21\n          tag_22\n          jump\t// in\n        tag_21:\n          mload(0x40)\n          tag_23\n          swap2\n          swap1\n          tag_19\n          jump\t// in\n        tag_23:\n          mload(0x40)\n          dup1\n          swap2\n          sub\n          swap1\n          return\n            /* \"contracts/Produce.sol\":323:347  uint256 public orderSize */\n        tag_4:\n          callvalue\n          dup1\n          iszero\n          tag_24\n          jumpi\n          0x00\n          dup1\n          revert\n        tag_24:\n          pop\n          tag_25\n          tag_26\n          jump\t// in\n        tag_25:\n          mload(0x40)\n          tag_27\n          swap2\n          swap1\n          tag_19\n          jump\t// in\n        tag_27:\n          mload(0x40)\n          dup1\n          swap2\n          sub\n          swap1\n          return\n            /* \"@openzeppelin/contracts/access/Ownable.sol\":1831:1932  function renounceOwnership() public virtual onlyOwner {... */\n        tag_5:\n          callvalue\n          dup1\n          iszero\n          tag_28\n          jumpi\n          0x00\n          dup1\n          revert\n        tag_28:\n          pop\n          tag_29\n          tag_30\n          jump\t// in\n        tag_29:\n          stop\n            /* \"@openzeppelin/contracts/access/Ownable.sol\":1201:1286  function owner() public view virtual returns (address) {... */\n        tag_6:\n          callvalue\n          dup1\n          iszero\n          tag_31\n          jumpi\n          0x00\n          dup1\n          revert\n        tag_31:\n          pop\n          tag_32\n          tag_33\n          jump\t// in\n        tag_32:\n          mload(0x40)\n          tag_34\n          swap2\n          swap1\n          tag_35\n          jump\t// in\n        tag_34:\n          mload(0x40)\n          dup1\n          swap2\n          sub\n          swap1\n          return\n            /* \"contracts/Produce.sol\":297:317  uint256 public price */\n        tag_7:\n          callvalue\n          dup1\n          iszero\n          tag_36\n          jumpi\n          0x00\n          dup1\n          revert\n        tag_36:\n          pop\n          tag_37\n          tag_38\n          jump\t// in\n        tag_37:\n          mload(0x40)\n          tag_39\n          swap2\n          swap1\n          tag_19\n          jump\t// in\n        tag_39:\n          mload(0x40)\n          dup1\n          swap2\n          sub\n          swap1\n          return\n            /* \"contracts/Produce.sol\":353:374  bytes32 public amount */\n        tag_8:\n          callvalue\n          dup1\n          iszero\n          tag_40\n          jumpi\n          0x00\n          dup1\n          revert\n        tag_40:\n          pop\n          tag_41\n          tag_42\n          jump\t// in\n        tag_41:\n          mload(0x40)\n          tag_43\n          swap2\n          swap1\n          tag_44\n          jump\t// in\n        tag_43:\n          mload(0x40)\n          dup1\n          swap2\n          sub\n          swap1\n          return\n            /* \"contracts/Produce.sol\":382:783  function initilize(... */\n        tag_9:\n          callvalue\n          dup1\n          iszero\n          tag_45\n          jumpi\n          0x00\n          dup1\n          revert\n        tag_45:\n          pop\n          tag_46\n          0x04\n          dup1\n          calldatasize\n          sub\n          dup2\n          add\n          swap1\n          tag_47\n          swap2\n          swap1\n          tag_48\n          jump\t// in\n        tag_47:\n          tag_49\n          jump\t// in\n        tag_46:\n          stop\n            /* \"contracts/Produce.sol\":1285:1520  function takeOrder() external onlyOwner returns (address order) {... */\n        tag_10:\n          callvalue\n          dup1\n          iszero\n          tag_50\n          jumpi\n          0x00\n          dup1\n          revert\n        tag_50:\n          pop\n          tag_51\n          tag_52\n          jump\t// in\n        tag_51:\n          mload(0x40)\n          tag_53\n          swap2\n          swap1\n          tag_35\n          jump\t// in\n        tag_53:\n          mload(0x40)\n          dup1\n          swap2\n          sub\n          swap1\n          return\n            /* \"contracts/Produce.sol\":173:194  address public farmer */\n        tag_11:\n          callvalue\n          dup1\n          iszero\n          tag_54\n          jumpi\n          0x00\n          dup1\n          revert\n        tag_54:\n          pop\n          tag_55\n          tag_56\n          jump\t// in\n        tag_55:\n          mload(0x40)\n          tag_57\n          swap2\n          swap1\n          tag_35\n          jump\t// in\n        tag_57:\n          mload(0x40)\n          dup1\n          swap2\n          sub\n          swap1\n          return\n            /* \"@openzeppelin/contracts/access/Ownable.sol\":2081:2279  function transferOwnership(address newOwner) public virtual onlyOwner {... */\n        tag_12:\n          callvalue\n          dup1\n          iszero\n          tag_58\n          jumpi\n          0x00\n          dup1\n          revert\n        tag_58:\n          pop\n          tag_59\n          0x04\n          dup1\n          calldatasize\n          sub\n          dup2\n          add\n          swap1\n          tag_60\n          swap2\n          swap1\n          tag_61\n          jump\t// in\n        tag_60:\n          tag_62\n          jump\t// in\n        tag_59:\n          stop\n            /* \"contracts/Produce.sol\":836:1221  function placeOrder() external payable {... */\n        tag_13:\n          tag_63\n          tag_64\n          jump\t// in\n        tag_63:\n          stop\n            /* \"contracts/Produce.sol\":272:291  uint256 public name */\n        tag_17:\n          sload(0x04)\n          dup2\n          jump\t// out\n            /* \"contracts/Produce.sol\":230:265  uint256 public limitOnPendingOrders */\n        tag_22:\n          sload(0x03)\n          dup2\n          jump\t// out\n            /* \"contracts/Produce.sol\":323:347  uint256 public orderSize */\n        tag_26:\n          sload(0x06)\n          dup2\n          jump\t// out\n            /* \"@openzeppelin/contracts/access/Ownable.sol\":1831:1932  function renounceOwnership() public virtual onlyOwner {... */\n        tag_30:\n            /* \"@openzeppelin/contracts/access/Ownable.sol\":1094:1107  _checkOwner() */\n          tag_66\n            /* \"@openzeppelin/contracts/access/Ownable.sol\":1094:1105  _checkOwner */\n          tag_67\n            /* \"@openzeppelin/contracts/access/Ownable.sol\":1094:1107  _checkOwner() */\n          jump\t// in\n        tag_66:\n            /* \"@openzeppelin/contracts/access/Ownable.sol\":1895:1925  _transferOwnership(address(0)) */\n          tag_69\n            /* \"@openzeppelin/contracts/access/Ownable.sol\":1922:1923  0 */\n          0x00\n            /* \"@openzeppelin/contracts/access/Ownable.sol\":1895:1913  _transferOwnership */\n          tag_70\n            /* \"@openzeppelin/contracts/access/Ownable.sol\":1895:1925  _transferOwnership(address(0)) */\n          jump\t// in\n        tag_69:\n            /* \"@openzeppelin/contracts/access/Ownable.sol\":1831:1932  function renounceOwnership() public virtual onlyOwner {... */\n          jump\t// out\n            /* \"@openzeppelin/contracts/access/Ownable.sol\":1201:1286  function owner() public view virtual returns (address) {... */\n        tag_33:\n            /* \"@openzeppelin/contracts/access/Ownable.sol\":1247:1254  address */\n          0x00\n            /* \"@openzeppelin/contracts/access/Ownable.sol\":1273:1279  _owner */\n          dup1\n          0x00\n          swap1\n          sload\n          swap1\n          0x0100\n          exp\n          swap1\n          div\n          0xffffffffffffffffffffffffffffffffffffffff\n          and\n            /* \"@openzeppelin/contracts/access/Ownable.sol\":1266:1279  return _owner */\n          swap1\n          pop\n            /* \"@openzeppelin/contracts/access/Ownable.sol\":1201:1286  function owner() public view virtual returns (address) {... */\n          swap1\n          jump\t// out\n            /* \"contracts/Produce.sol\":297:317  uint256 public price */\n        tag_38:\n          sload(0x05)\n          dup2\n          jump\t// out\n            /* \"contracts/Produce.sol\":353:374  bytes32 public amount */\n        tag_42:\n          sload(0x07)\n          dup2\n          jump\t// out\n            /* \"contracts/Produce.sol\":382:783  function initilize(... */\n        tag_49:\n            /* \"contracts/Produce.sol\":590:617  _transferOwnership(_farmer) */\n          tag_73\n            /* \"contracts/Produce.sol\":609:616  _farmer */\n          dup7\n            /* \"contracts/Produce.sol\":590:608  _transferOwnership */\n          tag_70\n            /* \"contracts/Produce.sol\":590:617  _transferOwnership(_farmer) */\n          jump\t// in\n        tag_73:\n            /* \"contracts/Produce.sol\":650:671  _limitOnPendingOrders */\n          dup1\n            /* \"contracts/Produce.sol\":627:647  limitOnPendingOrders */\n          0x03\n            /* \"contracts/Produce.sol\":627:671  limitOnPendingOrders = _limitOnPendingOrders */\n          dup2\n          swap1\n          sstore\n          pop\n            /* \"contracts/Produce.sol\":688:693  _name */\n          dup5\n            /* \"contracts/Produce.sol\":681:685  name */\n          0x04\n            /* \"contracts/Produce.sol\":681:693  name = _name */\n          dup2\n          swap1\n          sstore\n          pop\n            /* \"contracts/Produce.sol\":711:717  _price */\n          dup4\n            /* \"contracts/Produce.sol\":703:708  price */\n          0x05\n            /* \"contracts/Produce.sol\":703:717  price = _price */\n          dup2\n          swap1\n          sstore\n          pop\n            /* \"contracts/Produce.sol\":739:749  _orderSize */\n          dup3\n            /* \"contracts/Produce.sol\":727:736  orderSize */\n          0x06\n            /* \"contracts/Produce.sol\":727:749  orderSize = _orderSize */\n          dup2\n          swap1\n          sstore\n          pop\n            /* \"contracts/Produce.sol\":768:775  _amount */\n          dup2\n            /* \"contracts/Produce.sol\":759:765  amount */\n          0x07\n            /* \"contracts/Produce.sol\":759:775  amount = _amount */\n          dup2\n          swap1\n          sstore\n          pop\n            /* \"contracts/Produce.sol\":382:783  function initilize(... */\n          pop\n          pop\n          pop\n          pop\n          pop\n          pop\n          jump\t// out\n            /* \"contracts/Produce.sol\":1285:1520  function takeOrder() external onlyOwner returns (address order) {... */\n        tag_52:\n            /* \"contracts/Produce.sol\":1334:1347  address order */\n          0x00\n            /* \"@openzeppelin/contracts/access/Ownable.sol\":1094:1107  _checkOwner() */\n          tag_75\n            /* \"@openzeppelin/contracts/access/Ownable.sol\":1094:1105  _checkOwner */\n          tag_67\n            /* \"@openzeppelin/contracts/access/Ownable.sol\":1094:1107  _checkOwner() */\n          jump\t// in\n        tag_75:\n            /* \"contracts/Produce.sol\":1383:1384  0 */\n          0x00\n            /* \"contracts/Produce.sol\":1367:1373  orders */\n          0x02\n            /* \"contracts/Produce.sol\":1367:1380  orders.length */\n          dup1\n          sload\n          swap1\n          pop\n            /* \"contracts/Produce.sol\":1367:1384  orders.length > 0 */\n          gt\n            /* \"contracts/Produce.sol\":1359:1406  require(orders.length > 0, \"No orders to take\") */\n          tag_77\n          jumpi\n          mload(0x40)\n          0x08c379a000000000000000000000000000000000000000000000000000000000\n          dup2\n          mstore\n          0x04\n          add\n          tag_78\n          swap1\n          tag_79\n          jump\t// in\n        tag_78:\n          mload(0x40)\n          dup1\n          swap2\n          sub\n          swap1\n          revert\n        tag_77:\n            /* \"contracts/Produce.sol\":1416:1435  address orderToTake */\n          0x00\n            /* \"contracts/Produce.sol\":1438:1444  orders */\n          0x02\n            /* \"contracts/Produce.sol\":1461:1462  1 */\n          0x01\n            /* \"contracts/Produce.sol\":1445:1451  orders */\n          0x02\n            /* \"contracts/Produce.sol\":1445:1458  orders.length */\n          dup1\n          sload\n          swap1\n          pop\n            /* \"contracts/Produce.sol\":1445:1462  orders.length - 1 */\n          tag_80\n          swap2\n          swap1\n          tag_81\n          jump\t// in\n        tag_80:\n            /* \"contracts/Produce.sol\":1438:1463  orders[orders.length - 1] */\n          dup2\n          sload\n          dup2\n          lt\n          tag_82\n          jumpi\n          tag_83\n          tag_84\n          jump\t// in\n        tag_83:\n        tag_82:\n          swap1\n          0x00\n          mstore\n          keccak256(0x00, 0x20)\n          add\n          0x00\n          swap1\n          sload\n          swap1\n          0x0100\n          exp\n          swap1\n          div\n          0xffffffffffffffffffffffffffffffffffffffff\n          and\n            /* \"contracts/Produce.sol\":1416:1463  address orderToTake = orders[orders.length - 1] */\n          swap1\n          pop\n            /* \"contracts/Produce.sol\":1473:1479  orders */\n          0x02\n            /* \"contracts/Produce.sol\":1473:1485  orders.pop() */\n          dup1\n          sload\n          dup1\n          tag_86\n          jumpi\n          tag_87\n          tag_88\n          jump\t// in\n        tag_87:\n        tag_86:\n          0x01\n          swap1\n          sub\n          dup2\n          dup2\n          swap1\n          0x00\n          mstore\n          keccak256(0x00, 0x20)\n          add\n          exp(0x0100, 0x00)\n          dup2\n          sload\n          swap1\n          0xffffffffffffffffffffffffffffffffffffffff\n          mul\n          not\n          and\n          swap1\n          sstore\n          swap1\n          sstore\n            /* \"contracts/Produce.sol\":1502:1513  orderToTake */\n          dup1\n            /* \"contracts/Produce.sol\":1495:1513  return orderToTake */\n          swap2\n          pop\n          pop\n            /* \"contracts/Produce.sol\":1285:1520  function takeOrder() external onlyOwner returns (address order) {... */\n          swap1\n          jump\t// out\n            /* \"contracts/Produce.sol\":173:194  address public farmer */\n        tag_56:\n          0x01\n          0x00\n          swap1\n          sload\n          swap1\n          0x0100\n          exp\n          swap1\n          div\n          0xffffffffffffffffffffffffffffffffffffffff\n          and\n          dup2\n          jump\t// out\n            /* \"@openzeppelin/contracts/access/Ownable.sol\":2081:2279  function transferOwnership(address newOwner) public virtual onlyOwner {... */\n        tag_62:\n            /* \"@openzeppelin/contracts/access/Ownable.sol\":1094:1107  _checkOwner() */\n          tag_91\n            /* \"@openzeppelin/contracts/access/Ownable.sol\":1094:1105  _checkOwner */\n          tag_67\n            /* \"@openzeppelin/contracts/access/Ownable.sol\":1094:1107  _checkOwner() */\n          jump\t// in\n        tag_91:\n            /* \"@openzeppelin/contracts/access/Ownable.sol\":2189:2190  0 */\n          0x00\n            /* \"@openzeppelin/contracts/access/Ownable.sol\":2169:2191  newOwner != address(0) */\n          0xffffffffffffffffffffffffffffffffffffffff\n          and\n            /* \"@openzeppelin/contracts/access/Ownable.sol\":2169:2177  newOwner */\n          dup2\n            /* \"@openzeppelin/contracts/access/Ownable.sol\":2169:2191  newOwner != address(0) */\n          0xffffffffffffffffffffffffffffffffffffffff\n          and\n          eq\n          iszero\n            /* \"@openzeppelin/contracts/access/Ownable.sol\":2161:2234  require(newOwner != address(0), \"Ownable: new owner is the zero address\") */\n          tag_93\n          jumpi\n          mload(0x40)\n          0x08c379a000000000000000000000000000000000000000000000000000000000\n          dup2\n          mstore\n          0x04\n          add\n          tag_94\n          swap1\n          tag_95\n          jump\t// in\n        tag_94:\n          mload(0x40)\n          dup1\n          swap2\n          sub\n          swap1\n          revert\n        tag_93:\n            /* \"@openzeppelin/contracts/access/Ownable.sol\":2244:2272  _transferOwnership(newOwner) */\n          tag_96\n            /* \"@openzeppelin/contracts/access/Ownable.sol\":2263:2271  newOwner */\n          dup2\n            /* \"@openzeppelin/contracts/access/Ownable.sol\":2244:2262  _transferOwnership */\n          tag_70\n            /* \"@openzeppelin/contracts/access/Ownable.sol\":2244:2272  _transferOwnership(newOwner) */\n          jump\t// in\n        tag_96:\n            /* \"@openzeppelin/contracts/access/Ownable.sol\":2081:2279  function transferOwnership(address newOwner) public virtual onlyOwner {... */\n          pop\n          jump\t// out\n            /* \"contracts/Produce.sol\":836:1221  function placeOrder() external payable {... */\n        tag_64:\n            /* \"contracts/Produce.sol\":920:927  owner() */\n          tag_98\n            /* \"contracts/Produce.sol\":920:925  owner */\n          tag_33\n            /* \"contracts/Produce.sol\":920:927  owner() */\n          jump\t// in\n        tag_98:\n            /* \"contracts/Produce.sol\":906:927  msg.sender != owner() */\n          0xffffffffffffffffffffffffffffffffffffffff\n          and\n            /* \"contracts/Produce.sol\":906:916  msg.sender */\n          caller\n            /* \"contracts/Produce.sol\":906:927  msg.sender != owner() */\n          0xffffffffffffffffffffffffffffffffffffffff\n          and\n          eq\n          iszero\n            /* \"contracts/Produce.sol\":885:1000  require(... */\n          tag_99\n          jumpi\n          mload(0x40)\n          0x08c379a000000000000000000000000000000000000000000000000000000000\n          dup2\n          mstore\n          0x04\n          add\n          tag_100\n          swap1\n          tag_101\n          jump\t// in\n        tag_100:\n          mload(0x40)\n          dup1\n          swap2\n          sub\n          swap1\n          revert\n        tag_99:\n            /* \"contracts/Produce.sol\":1056:1061  price */\n          sload(0x05)\n            /* \"contracts/Produce.sol\":1044:1053  orderSize */\n          sload(0x06)\n            /* \"contracts/Produce.sol\":1044:1061  orderSize * price */\n          tag_102\n          swap2\n          swap1\n          tag_103\n          jump\t// in\n        tag_102:\n            /* \"contracts/Produce.sol\":1031:1040  msg.value */\n          callvalue\n            /* \"contracts/Produce.sol\":1031:1061  msg.value == orderSize * price */\n          eq\n            /* \"contracts/Produce.sol\":1010:1126  require(... */\n          tag_104\n          jumpi\n          mload(0x40)\n          0x08c379a000000000000000000000000000000000000000000000000000000000\n          dup2\n          mstore\n          0x04\n          add\n          tag_105\n          swap1\n          tag_106\n          jump\t// in\n        tag_105:\n          mload(0x40)\n          dup1\n          swap2\n          sub\n          swap1\n          revert\n        tag_104:\n            /* \"contracts/Produce.sol\":1160:1180  limitOnPendingOrders */\n          sload(0x03)\n            /* \"contracts/Produce.sol\":1144:1150  orders */\n          0x02\n            /* \"contracts/Produce.sol\":1144:1157  orders.length */\n          dup1\n          sload\n          swap1\n          pop\n            /* \"contracts/Produce.sol\":1144:1180  orders.length < limitOnPendingOrders */\n          lt\n            /* \"contracts/Produce.sol\":1136:1181  require(orders.length < limitOnPendingOrders) */\n          tag_107\n          jumpi\n          0x00\n          dup1\n          revert\n        tag_107:\n            /* \"contracts/Produce.sol\":1191:1197  orders */\n          0x02\n            /* \"contracts/Produce.sol\":1203:1213  msg.sender */\n          caller\n            /* \"contracts/Produce.sol\":1191:1214  orders.push(msg.sender) */\n          swap1\n          dup1\n          0x01\n          dup2\n          sload\n          add\n          dup1\n          dup3\n          sstore\n          dup1\n          swap2\n          pop\n          pop\n          0x01\n          swap1\n          sub\n          swap1\n          0x00\n          mstore\n          keccak256(0x00, 0x20)\n          add\n          0x00\n          swap1\n          swap2\n          swap1\n          swap2\n          swap1\n          swap2\n          0x0100\n          exp\n          dup2\n          sload\n          dup2\n          0xffffffffffffffffffffffffffffffffffffffff\n          mul\n          not\n          and\n          swap1\n          dup4\n          0xffffffffffffffffffffffffffffffffffffffff\n          and\n          mul\n          or\n          swap1\n          sstore\n          pop\n            /* \"contracts/Produce.sol\":836:1221  function placeOrder() external payable {... */\n          jump\t// out\n            /* \"@openzeppelin/contracts/access/Ownable.sol\":1359:1489  function _checkOwner() internal view virtual {... */\n        tag_67:\n            /* \"@openzeppelin/contracts/access/Ownable.sol\":1433:1445  _msgSender() */\n          tag_110\n            /* \"@openzeppelin/contracts/access/Ownable.sol\":1433:1443  _msgSender */\n          tag_111\n            /* \"@openzeppelin/contracts/access/Ownable.sol\":1433:1445  _msgSender() */\n          jump\t// in\n        tag_110:\n            /* \"@openzeppelin/contracts/access/Ownable.sol\":1422:1445  owner() == _msgSender() */\n          0xffffffffffffffffffffffffffffffffffffffff\n          and\n            /* \"@openzeppelin/contracts/access/Ownable.sol\":1422:1429  owner() */\n          tag_112\n            /* \"@openzeppelin/contracts/access/Ownable.sol\":1422:1427  owner */\n          tag_33\n            /* \"@openzeppelin/contracts/access/Ownable.sol\":1422:1429  owner() */\n          jump\t// in\n        tag_112:\n            /* \"@openzeppelin/contracts/access/Ownable.sol\":1422:1445  owner() == _msgSender() */\n          0xffffffffffffffffffffffffffffffffffffffff\n          and\n          eq\n            /* \"@openzeppelin/contracts/access/Ownable.sol\":1414:1482  require(owner() == _msgSender(), \"Ownable: caller is not the owner\") */\n          tag_113\n          jumpi\n          mload(0x40)\n          0x08c379a000000000000000000000000000000000000000000000000000000000\n          dup2\n          mstore\n          0x04\n          add\n          tag_114\n          swap1\n          tag_115\n          jump\t// in\n        tag_114:\n          mload(0x40)\n          dup1\n          swap2\n          sub\n          swap1\n          revert\n        tag_113:\n            /* \"@openzeppelin/contracts/access/Ownable.sol\":1359:1489  function _checkOwner() internal view virtual {... */\n          jump\t// out\n            /* \"@openzeppelin/contracts/access/Ownable.sol\":2433:2620  function _transferOwnership(address newOwner) internal virtual {... */\n        tag_70:\n            /* \"@openzeppelin/contracts/access/Ownable.sol\":2506:2522  address oldOwner */\n          0x00\n            /* \"@openzeppelin/contracts/access/Ownable.sol\":2525:2531  _owner */\n          dup1\n          0x00\n          swap1\n          sload\n          swap1\n          0x0100\n          exp\n          swap1\n          div\n          0xffffffffffffffffffffffffffffffffffffffff\n          and\n            /* \"@openzeppelin/contracts/access/Ownable.sol\":2506:2531  address oldOwner = _owner */\n          swap1\n          pop\n            /* \"@openzeppelin/contracts/access/Ownable.sol\":2550:2558  newOwner */\n          dup2\n            /* \"@openzeppelin/contracts/access/Ownable.sol\":2541:2547  _owner */\n          0x00\n          dup1\n            /* \"@openzeppelin/contracts/access/Ownable.sol\":2541:2558  _owner = newOwner */\n          0x0100\n          exp\n          dup2\n          sload\n          dup2\n          0xffffffffffffffffffffffffffffffffffffffff\n          mul\n          not\n          and\n          swap1\n          dup4\n          0xffffffffffffffffffffffffffffffffffffffff\n          and\n          mul\n          or\n          swap1\n          sstore\n          pop\n            /* \"@openzeppelin/contracts/access/Ownable.sol\":2604:2612  newOwner */\n          dup2\n            /* \"@openzeppelin/contracts/access/Ownable.sol\":2573:2613  OwnershipTransferred(oldOwner, newOwner) */\n          0xffffffffffffffffffffffffffffffffffffffff\n          and\n            /* \"@openzeppelin/contracts/access/Ownable.sol\":2594:2602  oldOwner */\n          dup2\n            /* \"@openzeppelin/contracts/access/Ownable.sol\":2573:2613  OwnershipTransferred(oldOwner, newOwner) */\n          0xffffffffffffffffffffffffffffffffffffffff\n          and\n          0x8be0079c531659141344cd1fd0a4f28419497f9722a3daafe3b4186f6b6457e0\n          mload(0x40)\n          mload(0x40)\n          dup1\n          swap2\n          sub\n          swap1\n          log3\n            /* \"@openzeppelin/contracts/access/Ownable.sol\":2496:2620  {... */\n          pop\n            /* \"@openzeppelin/contracts/access/Ownable.sol\":2433:2620  function _transferOwnership(address newOwner) internal virtual {... */\n          pop\n          jump\t// out\n            /* \"@openzeppelin/contracts/utils/Context.sol\":640:736  function _msgSender() internal view virtual returns (address) {... */\n        tag_111:\n            /* \"@openzeppelin/contracts/utils/Context.sol\":693:700  address */\n          0x00\n            /* \"@openzeppelin/contracts/utils/Context.sol\":719:729  msg.sender */\n          caller\n            /* \"@openzeppelin/contracts/utils/Context.sol\":712:729  return msg.sender */\n          swap1\n          pop\n            /* \"@openzeppelin/contracts/utils/Context.sol\":640:736  function _msgSender() internal view virtual returns (address) {... */\n          swap1\n          jump\t// out\n            /* \"#utility.yul\":7:146   */\n        tag_119:\n            /* \"#utility.yul\":53:58   */\n          0x00\n            /* \"#utility.yul\":91:97   */\n          dup2\n            /* \"#utility.yul\":78:98   */\n          calldataload\n            /* \"#utility.yul\":69:98   */\n          swap1\n          pop\n            /* \"#utility.yul\":107:140   */\n          tag_121\n            /* \"#utility.yul\":134:139   */\n          dup2\n            /* \"#utility.yul\":107:140   */\n          tag_122\n          jump\t// in\n        tag_121:\n            /* \"#utility.yul\":7:146   */\n          swap3\n          swap2\n          pop\n          pop\n          jump\t// out\n            /* \"#utility.yul\":152:291   */\n        tag_123:\n            /* \"#utility.yul\":198:203   */\n          0x00\n            /* \"#utility.yul\":236:242   */\n          dup2\n            /* \"#utility.yul\":223:243   */\n          calldataload\n            /* \"#utility.yul\":214:243   */\n          swap1\n          pop\n            /* \"#utility.yul\":252:285   */\n          tag_125\n            /* \"#utility.yul\":279:284   */\n          dup2\n            /* \"#utility.yul\":252:285   */\n          tag_126\n          jump\t// in\n        tag_125:\n            /* \"#utility.yul\":152:291   */\n          swap3\n          swap2\n          pop\n          pop\n          jump\t// out\n            /* \"#utility.yul\":297:436   */\n        tag_127:\n            /* \"#utility.yul\":343:348   */\n          0x00\n            /* \"#utility.yul\":381:387   */\n          dup2\n            /* \"#utility.yul\":368:388   */\n          calldataload\n            /* \"#utility.yul\":359:388   */\n          swap1\n          pop\n            /* \"#utility.yul\":397:430   */\n          tag_129\n            /* \"#utility.yul\":424:429   */\n          dup2\n            /* \"#utility.yul\":397:430   */\n          tag_130\n          jump\t// in\n        tag_129:\n            /* \"#utility.yul\":297:436   */\n          swap3\n          swap2\n          pop\n          pop\n          jump\t// out\n            /* \"#utility.yul\":442:771   */\n        tag_61:\n            /* \"#utility.yul\":501:507   */\n          0x00\n            /* \"#utility.yul\":550:552   */\n          0x20\n            /* \"#utility.yul\":538:547   */\n          dup3\n            /* \"#utility.yul\":529:536   */\n          dup5\n            /* \"#utility.yul\":525:548   */\n          sub\n            /* \"#utility.yul\":521:553   */\n          slt\n            /* \"#utility.yul\":518:637   */\n          iszero\n          tag_132\n          jumpi\n            /* \"#utility.yul\":556:635   */\n          tag_133\n          tag_134\n          jump\t// in\n        tag_133:\n            /* \"#utility.yul\":518:637   */\n        tag_132:\n            /* \"#utility.yul\":676:677   */\n          0x00\n            /* \"#utility.yul\":701:754   */\n          tag_135\n            /* \"#utility.yul\":746:753   */\n          dup5\n            /* \"#utility.yul\":737:743   */\n          dup3\n            /* \"#utility.yul\":726:735   */\n          dup6\n            /* \"#utility.yul\":722:744   */\n          add\n            /* \"#utility.yul\":701:754   */\n          tag_119\n          jump\t// in\n        tag_135:\n            /* \"#utility.yul\":691:754   */\n          swap2\n          pop\n            /* \"#utility.yul\":647:764   */\n          pop\n            /* \"#utility.yul\":442:771   */\n          swap3\n          swap2\n          pop\n          pop\n          jump\t// out\n            /* \"#utility.yul\":777:1834   */\n        tag_48:\n            /* \"#utility.yul\":881:887   */\n          0x00\n            /* \"#utility.yul\":889:895   */\n          dup1\n            /* \"#utility.yul\":897:903   */\n          0x00\n            /* \"#utility.yul\":905:911   */\n          dup1\n            /* \"#utility.yul\":913:919   */\n          0x00\n            /* \"#utility.yul\":921:927   */\n          dup1\n            /* \"#utility.yul\":970:973   */\n          0xc0\n            /* \"#utility.yul\":958:967   */\n          dup8\n            /* \"#utility.yul\":949:956   */\n          dup10\n            /* \"#utility.yul\":945:968   */\n          sub\n            /* \"#utility.yul\":941:974   */\n          slt\n            /* \"#utility.yul\":938:1058   */\n          iszero\n          tag_137\n          jumpi\n            /* \"#utility.yul\":977:1056   */\n          tag_138\n          tag_134\n          jump\t// in\n        tag_138:\n            /* \"#utility.yul\":938:1058   */\n        tag_137:\n            /* \"#utility.yul\":1097:1098   */\n          0x00\n            /* \"#utility.yul\":1122:1175   */\n          tag_139\n            /* \"#utility.yul\":1167:1174   */\n          dup10\n            /* \"#utility.yul\":1158:1164   */\n          dup3\n            /* \"#utility.yul\":1147:1156   */\n          dup11\n            /* \"#utility.yul\":1143:1165   */\n          add\n            /* \"#utility.yul\":1122:1175   */\n          tag_119\n          jump\t// in\n        tag_139:\n            /* \"#utility.yul\":1112:1175   */\n          swap7\n          pop\n            /* \"#utility.yul\":1068:1185   */\n          pop\n            /* \"#utility.yul\":1224:1226   */\n          0x20\n            /* \"#utility.yul\":1250:1303   */\n          tag_140\n            /* \"#utility.yul\":1295:1302   */\n          dup10\n            /* \"#utility.yul\":1286:1292   */\n          dup3\n            /* \"#utility.yul\":1275:1284   */\n          dup11\n            /* \"#utility.yul\":1271:1293   */\n          add\n            /* \"#utility.yul\":1250:1303   */\n          tag_127\n          jump\t// in\n        tag_140:\n            /* \"#utility.yul\":1240:1303   */\n          swap6\n          pop\n            /* \"#utility.yul\":1195:1313   */\n          pop\n            /* \"#utility.yul\":1352:1354   */\n          0x40\n            /* \"#utility.yul\":1378:1431   */\n          tag_141\n            /* \"#utility.yul\":1423:1430   */\n          dup10\n            /* \"#utility.yul\":1414:1420   */\n          dup3\n            /* \"#utility.yul\":1403:1412   */\n          dup11\n            /* \"#utility.yul\":1399:1421   */\n          add\n            /* \"#utility.yul\":1378:1431   */\n          tag_127\n          jump\t// in\n        tag_141:\n            /* \"#utility.yul\":1368:1431   */\n          swap5\n          pop\n            /* \"#utility.yul\":1323:1441   */\n          pop\n            /* \"#utility.yul\":1480:1482   */\n          0x60\n            /* \"#utility.yul\":1506:1559   */\n          tag_142\n            /* \"#utility.yul\":1551:1558   */\n          dup10\n            /* \"#utility.yul\":1542:1548   */\n          dup3\n            /* \"#utility.yul\":1531:1540   */\n          dup11\n            /* \"#utility.yul\":1527:1549   */\n          add\n            /* \"#utility.yul\":1506:1559   */\n          tag_127\n          jump\t// in\n        tag_142:\n            /* \"#utility.yul\":1496:1559   */\n          swap4\n          pop\n            /* \"#utility.yul\":1451:1569   */\n          pop\n            /* \"#utility.yul\":1608:1611   */\n          0x80\n            /* \"#utility.yul\":1635:1688   */\n          tag_143\n            /* \"#utility.yul\":1680:1687   */\n          dup10\n            /* \"#utility.yul\":1671:1677   */\n          dup3\n            /* \"#utility.yul\":1660:1669   */\n          dup11\n            /* \"#utility.yul\":1656:1678   */\n          add\n            /* \"#utility.yul\":1635:1688   */\n          tag_123\n          jump\t// in\n        tag_143:\n            /* \"#utility.yul\":1625:1688   */\n          swap3\n          pop\n            /* \"#utility.yul\":1579:1698   */\n          pop\n            /* \"#utility.yul\":1737:1740   */\n          0xa0\n            /* \"#utility.yul\":1764:1817   */\n          tag_144\n            /* \"#utility.yul\":1809:1816   */\n          dup10\n            /* \"#utility.yul\":1800:1806   */\n          dup3\n            /* \"#utility.yul\":1789:1798   */\n          dup11\n            /* \"#utility.yul\":1785:1807   */\n          add\n            /* \"#utility.yul\":1764:1817   */\n          tag_127\n          jump\t// in\n        tag_144:\n            /* \"#utility.yul\":1754:1817   */\n          swap2\n          pop\n            /* \"#utility.yul\":1708:1827   */\n          pop\n            /* \"#utility.yul\":777:1834   */\n          swap3\n          swap6\n          pop\n          swap3\n          swap6\n          pop\n          swap3\n          swap6\n          jump\t// out\n            /* \"#utility.yul\":1840:1958   */\n        tag_145:\n            /* \"#utility.yul\":1927:1951   */\n          tag_147\n            /* \"#utility.yul\":1945:1950   */\n          dup2\n            /* \"#utility.yul\":1927:1951   */\n          tag_148\n          jump\t// in\n        tag_147:\n            /* \"#utility.yul\":1922:1925   */\n          dup3\n            /* \"#utility.yul\":1915:1952   */\n          mstore\n            /* \"#utility.yul\":1840:1958   */\n          pop\n          pop\n          jump\t// out\n            /* \"#utility.yul\":1964:2082   */\n        tag_149:\n            /* \"#utility.yul\":2051:2075   */\n          tag_151\n            /* \"#utility.yul\":2069:2074   */\n          dup2\n            /* \"#utility.yul\":2051:2075   */\n          tag_152\n          jump\t// in\n        tag_151:\n            /* \"#utility.yul\":2046:2049   */\n          dup3\n            /* \"#utility.yul\":2039:2076   */\n          mstore\n            /* \"#utility.yul\":1964:2082   */\n          pop\n          pop\n          jump\t// out\n            /* \"#utility.yul\":2088:2454   */\n        tag_153:\n            /* \"#utility.yul\":2230:2233   */\n          0x00\n            /* \"#utility.yul\":2251:2318   */\n          tag_155\n            /* \"#utility.yul\":2315:2317   */\n          0x27\n            /* \"#utility.yul\":2310:2313   */\n          dup4\n            /* \"#utility.yul\":2251:2318   */\n          tag_156\n          jump\t// in\n        tag_155:\n            /* \"#utility.yul\":2244:2318   */\n          swap2\n          pop\n            /* \"#utility.yul\":2327:2420   */\n          tag_157\n            /* \"#utility.yul\":2416:2419   */\n          dup3\n            /* \"#utility.yul\":2327:2420   */\n          tag_158\n          jump\t// in\n        tag_157:\n            /* \"#utility.yul\":2445:2447   */\n          0x40\n            /* \"#utility.yul\":2440:2443   */\n          dup3\n            /* \"#utility.yul\":2436:2448   */\n          add\n            /* \"#utility.yul\":2429:2448   */\n          swap1\n          pop\n            /* \"#utility.yul\":2088:2454   */\n          swap2\n          swap1\n          pop\n          jump\t// out\n            /* \"#utility.yul\":2460:2826   */\n        tag_159:\n            /* \"#utility.yul\":2602:2605   */\n          0x00\n            /* \"#utility.yul\":2623:2690   */\n          tag_161\n            /* \"#utility.yul\":2687:2689   */\n          0x26\n            /* \"#utility.yul\":2682:2685   */\n          dup4\n            /* \"#utility.yul\":2623:2690   */\n          tag_156\n          jump\t// in\n        tag_161:\n            /* \"#utility.yul\":2616:2690   */\n          swap2\n          pop\n            /* \"#utility.yul\":2699:2792   */\n          tag_162\n            /* \"#utility.yul\":2788:2791   */\n          dup3\n            /* \"#utility.yul\":2699:2792   */\n          tag_163\n          jump\t// in\n        tag_162:\n            /* \"#utility.yul\":2817:2819   */\n          0x40\n            /* \"#utility.yul\":2812:2815   */\n          dup3\n            /* \"#utility.yul\":2808:2820   */\n          add\n            /* \"#utility.yul\":2801:2820   */\n          swap1\n          pop\n            /* \"#utility.yul\":2460:2826   */\n          swap2\n          swap1\n          pop\n          jump\t// out\n            /* \"#utility.yul\":2832:3198   */\n        tag_164:\n            /* \"#utility.yul\":2974:2977   */\n          0x00\n            /* \"#utility.yul\":2995:3062   */\n          tag_166\n            /* \"#utility.yul\":3059:3061   */\n          0x2f\n            /* \"#utility.yul\":3054:3057   */\n          dup4\n            /* \"#utility.yul\":2995:3062   */\n          tag_156\n          jump\t// in\n        tag_166:\n            /* \"#utility.yul\":2988:3062   */\n          swap2\n          pop\n            /* \"#utility.yul\":3071:3164   */\n          tag_167\n            /* \"#utility.yul\":3160:3163   */\n          dup3\n            /* \"#utility.yul\":3071:3164   */\n          tag_168\n          jump\t// in\n        tag_167:\n            /* \"#utility.yul\":3189:3191   */\n          0x40\n            /* \"#utility.yul\":3184:3187   */\n          dup3\n            /* \"#utility.yul\":3180:3192   */\n          add\n            /* \"#utility.yul\":3173:3192   */\n          swap1\n          pop\n            /* \"#utility.yul\":2832:3198   */\n          swap2\n          swap1\n          pop\n          jump\t// out\n            /* \"#utility.yul\":3204:3570   */\n        tag_169:\n            /* \"#utility.yul\":3346:3349   */\n          0x00\n            /* \"#utility.yul\":3367:3434   */\n          tag_171\n            /* \"#utility.yul\":3431:3433   */\n          0x20\n            /* \"#utility.yul\":3426:3429   */\n          dup4\n            /* \"#utility.yul\":3367:3434   */\n          tag_156\n          jump\t// in\n        tag_171:\n            /* \"#utility.yul\":3360:3434   */\n          swap2\n          pop\n            /* \"#utility.yul\":3443:3536   */\n          tag_172\n            /* \"#utility.yul\":3532:3535   */\n          dup3\n            /* \"#utility.yul\":3443:3536   */\n          tag_173\n          jump\t// in\n        tag_172:\n            /* \"#utility.yul\":3561:3563   */\n          0x20\n            /* \"#utility.yul\":3556:3559   */\n          dup3\n            /* \"#utility.yul\":3552:3564   */\n          add\n            /* \"#utility.yul\":3545:3564   */\n          swap1\n          pop\n            /* \"#utility.yul\":3204:3570   */\n          swap2\n          swap1\n          pop\n          jump\t// out\n            /* \"#utility.yul\":3576:3942   */\n        tag_174:\n            /* \"#utility.yul\":3718:3721   */\n          0x00\n            /* \"#utility.yul\":3739:3806   */\n          tag_176\n            /* \"#utility.yul\":3803:3805   */\n          0x11\n            /* \"#utility.yul\":3798:3801   */\n          dup4\n            /* \"#utility.yul\":3739:3806   */\n          tag_156\n          jump\t// in\n        tag_176:\n            /* \"#utility.yul\":3732:3806   */\n          swap2\n          pop\n            /* \"#utility.yul\":3815:3908   */\n          tag_177\n            /* \"#utility.yul\":3904:3907   */\n          dup3\n            /* \"#utility.yul\":3815:3908   */\n          tag_178\n          jump\t// in\n        tag_177:\n            /* \"#utility.yul\":3933:3935   */\n          0x20\n            /* \"#utility.yul\":3928:3931   */\n          dup3\n            /* \"#utility.yul\":3924:3936   */\n          add\n            /* \"#utility.yul\":3917:3936   */\n          swap1\n          pop\n            /* \"#utility.yul\":3576:3942   */\n          swap2\n          swap1\n          pop\n          jump\t// out\n            /* \"#utility.yul\":3948:4066   */\n        tag_179:\n            /* \"#utility.yul\":4035:4059   */\n          tag_181\n            /* \"#utility.yul\":4053:4058   */\n          dup2\n            /* \"#utility.yul\":4035:4059   */\n          tag_182\n          jump\t// in\n        tag_181:\n            /* \"#utility.yul\":4030:4033   */\n          dup3\n            /* \"#utility.yul\":4023:4060   */\n          mstore\n            /* \"#utility.yul\":3948:4066   */\n          pop\n          pop\n          jump\t// out\n            /* \"#utility.yul\":4072:4294   */\n        tag_35:\n            /* \"#utility.yul\":4165:4169   */\n          0x00\n            /* \"#utility.yul\":4203:4205   */\n          0x20\n            /* \"#utility.yul\":4192:4201   */\n          dup3\n            /* \"#utility.yul\":4188:4206   */\n          add\n            /* \"#utility.yul\":4180:4206   */\n          swap1\n          pop\n            /* \"#utility.yul\":4216:4287   */\n          tag_184\n            /* \"#utility.yul\":4284:4285   */\n          0x00\n            /* \"#utility.yul\":4273:4282   */\n          dup4\n            /* \"#utility.yul\":4269:4286   */\n          add\n            /* \"#utility.yul\":4260:4266   */\n          dup5\n            /* \"#utility.yul\":4216:4287   */\n          tag_145\n          jump\t// in\n        tag_184:\n            /* \"#utility.yul\":4072:4294   */\n          swap3\n          swap2\n          pop\n          pop\n          jump\t// out\n            /* \"#utility.yul\":4300:4522   */\n        tag_44:\n            /* \"#utility.yul\":4393:4397   */\n          0x00\n            /* \"#utility.yul\":4431:4433   */\n          0x20\n            /* \"#utility.yul\":4420:4429   */\n          dup3\n            /* \"#utility.yul\":4416:4434   */\n          add\n            /* \"#utility.yul\":4408:4434   */\n          swap1\n          pop\n            /* \"#utility.yul\":4444:4515   */\n          tag_186\n            /* \"#utility.yul\":4512:4513   */\n          0x00\n            /* \"#utility.yul\":4501:4510   */\n          dup4\n            /* \"#utility.yul\":4497:4514   */\n          add\n            /* \"#utility.yul\":4488:4494   */\n          dup5\n            /* \"#utility.yul\":4444:4515   */\n          tag_149\n          jump\t// in\n        tag_186:\n            /* \"#utility.yul\":4300:4522   */\n          swap3\n          swap2\n          pop\n          pop\n          jump\t// out\n            /* \"#utility.yul\":4528:4947   */\n        tag_106:\n            /* \"#utility.yul\":4694:4698   */\n          0x00\n            /* \"#utility.yul\":4732:4734   */\n          0x20\n            /* \"#utility.yul\":4721:4730   */\n          dup3\n            /* \"#utility.yul\":4717:4735   */\n          add\n            /* \"#utility.yul\":4709:4735   */\n          swap1\n          pop\n            /* \"#utility.yul\":4781:4790   */\n          dup2\n            /* \"#utility.yul\":4775:4779   */\n          dup2\n            /* \"#utility.yul\":4771:4791   */\n          sub\n            /* \"#utility.yul\":4767:4768   */\n          0x00\n            /* \"#utility.yul\":4756:4765   */\n          dup4\n            /* \"#utility.yul\":4752:4769   */\n          add\n            /* \"#utility.yul\":4745:4792   */\n          mstore\n            /* \"#utility.yul\":4809:4940   */\n          tag_188\n            /* \"#utility.yul\":4935:4939   */\n          dup2\n            /* \"#utility.yul\":4809:4940   */\n          tag_153\n          jump\t// in\n        tag_188:\n            /* \"#utility.yul\":4801:4940   */\n          swap1\n          pop\n            /* \"#utility.yul\":4528:4947   */\n          swap2\n          swap1\n          pop\n          jump\t// out\n            /* \"#utility.yul\":4953:5372   */\n        tag_95:\n            /* \"#utility.yul\":5119:5123   */\n          0x00\n            /* \"#utility.yul\":5157:5159   */\n          0x20\n            /* \"#utility.yul\":5146:5155   */\n          dup3\n            /* \"#utility.yul\":5142:5160   */\n          add\n            /* \"#utility.yul\":5134:5160   */\n          swap1\n          pop\n            /* \"#utility.yul\":5206:5215   */\n          dup2\n            /* \"#utility.yul\":5200:5204   */\n          dup2\n            /* \"#utility.yul\":5196:5216   */\n          sub\n            /* \"#utility.yul\":5192:5193   */\n          0x00\n            /* \"#utility.yul\":5181:5190   */\n          dup4\n            /* \"#utility.yul\":5177:5194   */\n          add\n            /* \"#utility.yul\":5170:5217   */\n          mstore\n            /* \"#utility.yul\":5234:5365   */\n          tag_190\n            /* \"#utility.yul\":5360:5364   */\n          dup2\n            /* \"#utility.yul\":5234:5365   */\n          tag_159\n          jump\t// in\n        tag_190:\n            /* \"#utility.yul\":5226:5365   */\n          swap1\n          pop\n            /* \"#utility.yul\":4953:5372   */\n          swap2\n          swap1\n          pop\n          jump\t// out\n            /* \"#utility.yul\":5378:5797   */\n        tag_101:\n            /* \"#utility.yul\":5544:5548   */\n          0x00\n            /* \"#utility.yul\":5582:5584   */\n          0x20\n            /* \"#utility.yul\":5571:5580   */\n          dup3\n            /* \"#utility.yul\":5567:5585   */\n          add\n            /* \"#utility.yul\":5559:5585   */\n          swap1\n          pop\n            /* \"#utility.yul\":5631:5640   */\n          dup2\n            /* \"#utility.yul\":5625:5629   */\n          dup2\n            /* \"#utility.yul\":5621:5641   */\n          sub\n            /* \"#utility.yul\":5617:5618   */\n          0x00\n            /* \"#utility.yul\":5606:5615   */\n          dup4\n            /* \"#utility.yul\":5602:5619   */\n          add\n            /* \"#utility.yul\":5595:5642   */\n          mstore\n            /* \"#utility.yul\":5659:5790   */\n          tag_192\n            /* \"#utility.yul\":5785:5789   */\n          dup2\n            /* \"#utility.yul\":5659:5790   */\n          tag_164\n          jump\t// in\n        tag_192:\n            /* \"#utility.yul\":5651:5790   */\n          swap1\n          pop\n            /* \"#utility.yul\":5378:5797   */\n          swap2\n          swap1\n          pop\n          jump\t// out\n            /* \"#utility.yul\":5803:6222   */\n        tag_115:\n            /* \"#utility.yul\":5969:5973   */\n          0x00\n            /* \"#utility.yul\":6007:6009   */\n          0x20\n            /* \"#utility.yul\":5996:6005   */\n          dup3\n            /* \"#utility.yul\":5992:6010   */\n          add\n            /* \"#utility.yul\":5984:6010   */\n          swap1\n          pop\n            /* \"#utility.yul\":6056:6065   */\n          dup2\n            /* \"#utility.yul\":6050:6054   */\n          dup2\n            /* \"#utility.yul\":6046:6066   */\n          sub\n            /* \"#utility.yul\":6042:6043   */\n          0x00\n            /* \"#utility.yul\":6031:6040   */\n          dup4\n            /* \"#utility.yul\":6027:6044   */\n          add\n            /* \"#utility.yul\":6020:6067   */\n          mstore\n            /* \"#utility.yul\":6084:6215   */\n          tag_194\n            /* \"#utility.yul\":6210:6214   */\n          dup2\n            /* \"#utility.yul\":6084:6215   */\n          tag_169\n          jump\t// in\n        tag_194:\n            /* \"#utility.yul\":6076:6215   */\n          swap1\n          pop\n            /* \"#utility.yul\":5803:6222   */\n          swap2\n          swap1\n          pop\n          jump\t// out\n            /* \"#utility.yul\":6228:6647   */\n        tag_79:\n            /* \"#utility.yul\":6394:6398   */\n          0x00\n            /* \"#utility.yul\":6432:6434   */\n          0x20\n            /* \"#utility.yul\":6421:6430   */\n          dup3\n            /* \"#utility.yul\":6417:6435   */\n          add\n            /* \"#utility.yul\":6409:6435   */\n          swap1\n          pop\n            /* \"#utility.yul\":6481:6490   */\n          dup2\n            /* \"#utility.yul\":6475:6479   */\n          dup2\n            /* \"#utility.yul\":6471:6491   */\n          sub\n            /* \"#utility.yul\":6467:6468   */\n          0x00\n            /* \"#utility.yul\":6456:6465   */\n          dup4\n            /* \"#utility.yul\":6452:6469   */\n          add\n            /* \"#utility.yul\":6445:6492   */\n          mstore\n            /* \"#utility.yul\":6509:6640   */\n          tag_196\n            /* \"#utility.yul\":6635:6639   */\n          dup2\n            /* \"#utility.yul\":6509:6640   */\n          tag_174\n          jump\t// in\n        tag_196:\n            /* \"#utility.yul\":6501:6640   */\n          swap1\n          pop\n            /* \"#utility.yul\":6228:6647   */\n          swap2\n          swap1\n          pop\n          jump\t// out\n            /* \"#utility.yul\":6653:6875   */\n        tag_19:\n            /* \"#utility.yul\":6746:6750   */\n          0x00\n            /* \"#utility.yul\":6784:6786   */\n          0x20\n            /* \"#utility.yul\":6773:6782   */\n          dup3\n            /* \"#utility.yul\":6769:6787   */\n          add\n            /* \"#utility.yul\":6761:6787   */\n          swap1\n          pop\n            /* \"#utility.yul\":6797:6868   */\n          tag_198\n            /* \"#utility.yul\":6865:6866   */\n          0x00\n            /* \"#utility.yul\":6854:6863   */\n          dup4\n            /* \"#utility.yul\":6850:6867   */\n          add\n            /* \"#utility.yul\":6841:6847   */\n          dup5\n            /* \"#utility.yul\":6797:6868   */\n          tag_179\n          jump\t// in\n        tag_198:\n            /* \"#utility.yul\":6653:6875   */\n          swap3\n          swap2\n          pop\n          pop\n          jump\t// out\n            /* \"#utility.yul\":6962:7131   */\n        tag_156:\n            /* \"#utility.yul\":7046:7057   */\n          0x00\n            /* \"#utility.yul\":7080:7086   */\n          dup3\n            /* \"#utility.yul\":7075:7078   */\n          dup3\n            /* \"#utility.yul\":7068:7087   */\n          mstore\n            /* \"#utility.yul\":7120:7124   */\n          0x20\n            /* \"#utility.yul\":7115:7118   */\n          dup3\n            /* \"#utility.yul\":7111:7125   */\n          add\n            /* \"#utility.yul\":7096:7125   */\n          swap1\n          pop\n            /* \"#utility.yul\":6962:7131   */\n          swap3\n          swap2\n          pop\n          pop\n          jump\t// out\n            /* \"#utility.yul\":7137:7485   */\n        tag_103:\n            /* \"#utility.yul\":7177:7184   */\n          0x00\n            /* \"#utility.yul\":7200:7220   */\n          tag_203\n            /* \"#utility.yul\":7218:7219   */\n          dup3\n            /* \"#utility.yul\":7200:7220   */\n          tag_182\n          jump\t// in\n        tag_203:\n            /* \"#utility.yul\":7195:7220   */\n          swap2\n          pop\n            /* \"#utility.yul\":7234:7254   */\n          tag_204\n            /* \"#utility.yul\":7252:7253   */\n          dup4\n            /* \"#utility.yul\":7234:7254   */\n          tag_182\n          jump\t// in\n        tag_204:\n            /* \"#utility.yul\":7229:7254   */\n          swap3\n          pop\n            /* \"#utility.yul\":7422:7423   */\n          dup2\n            /* \"#utility.yul\":7354:7420   */\n          0xffffffffffffffffffffffffffffffffffffffffffffffffffffffffffffffff\n            /* \"#utility.yul\":7350:7424   */\n          div\n            /* \"#utility.yul\":7347:7348   */\n          dup4\n            /* \"#utility.yul\":7344:7425   */\n          gt\n            /* \"#utility.yul\":7339:7340   */\n          dup3\n            /* \"#utility.yul\":7332:7341   */\n          iszero\n            /* \"#utility.yul\":7325:7342   */\n          iszero\n            /* \"#utility.yul\":7321:7426   */\n          and\n            /* \"#utility.yul\":7318:7449   */\n          iszero\n          tag_205\n          jumpi\n            /* \"#utility.yul\":7429:7447   */\n          tag_206\n          tag_207\n          jump\t// in\n        tag_206:\n            /* \"#utility.yul\":7318:7449   */\n        tag_205:\n            /* \"#utility.yul\":7477:7478   */\n          dup3\n            /* \"#utility.yul\":7474:7475   */\n          dup3\n            /* \"#utility.yul\":7470:7479   */\n          mul\n            /* \"#utility.yul\":7459:7479   */\n          swap1\n          pop\n            /* \"#utility.yul\":7137:7485   */\n          swap3\n          swap2\n          pop\n          pop\n          jump\t// out\n            /* \"#utility.yul\":7491:7682   */\n        tag_81:\n            /* \"#utility.yul\":7531:7535   */\n          0x00\n            /* \"#utility.yul\":7551:7571   */\n          tag_209\n            /* \"#utility.yul\":7569:7570   */\n          dup3\n            /* \"#utility.yul\":7551:7571   */\n          tag_182\n          jump\t// in\n        tag_209:\n            /* \"#utility.yul\":7546:7571   */\n          swap2\n          pop\n            /* \"#utility.yul\":7585:7605   */\n          tag_210\n            /* \"#utility.yul\":7603:7604   */\n          dup4\n            /* \"#utility.yul\":7585:7605   */\n          tag_182\n          jump\t// in\n        tag_210:\n            /* \"#utility.yul\":7580:7605   */\n          swap3\n          pop\n            /* \"#utility.yul\":7624:7625   */\n          dup3\n            /* \"#utility.yul\":7621:7622   */\n          dup3\n            /* \"#utility.yul\":7618:7626   */\n          lt\n            /* \"#utility.yul\":7615:7649   */\n          iszero\n          tag_211\n          jumpi\n            /* \"#utility.yul\":7629:7647   */\n          tag_212\n          tag_207\n          jump\t// in\n        tag_212:\n            /* \"#utility.yul\":7615:7649   */\n        tag_211:\n            /* \"#utility.yul\":7674:7675   */\n          dup3\n            /* \"#utility.yul\":7671:7672   */\n          dup3\n            /* \"#utility.yul\":7667:7676   */\n          sub\n            /* \"#utility.yul\":7659:7676   */\n          swap1\n          pop\n            /* \"#utility.yul\":7491:7682   */\n          swap3\n          swap2\n          pop\n          pop\n          jump\t// out\n            /* \"#utility.yul\":7688:7784   */\n        tag_148:\n            /* \"#utility.yul\":7725:7732   */\n          0x00\n            /* \"#utility.yul\":7754:7778   */\n          tag_214\n            /* \"#utility.yul\":7772:7777   */\n          dup3\n            /* \"#utility.yul\":7754:7778   */\n          tag_215\n          jump\t// in\n        tag_214:\n            /* \"#utility.yul\":7743:7778   */\n          swap1\n          pop\n            /* \"#utility.yul\":7688:7784   */\n          swap2\n          swap1\n          pop\n          jump\t// out\n            /* \"#utility.yul\":7790:7867   */\n        tag_152:\n            /* \"#utility.yul\":7827:7834   */\n          0x00\n            /* \"#utility.yul\":7856:7861   */\n          dup2\n            /* \"#utility.yul\":7845:7861   */\n          swap1\n          pop\n            /* \"#utility.yul\":7790:7867   */\n          swap2\n          swap1\n          pop\n          jump\t// out\n            /* \"#utility.yul\":7873:7999   */\n        tag_215:\n            /* \"#utility.yul\":7910:7917   */\n          0x00\n            /* \"#utility.yul\":7950:7992   */\n          0xffffffffffffffffffffffffffffffffffffffff\n            /* \"#utility.yul\":7943:7948   */\n          dup3\n            /* \"#utility.yul\":7939:7993   */\n          and\n            /* \"#utility.yul\":7928:7993   */\n          swap1\n          pop\n            /* \"#utility.yul\":7873:7999   */\n          swap2\n          swap1\n          pop\n          jump\t// out\n            /* \"#utility.yul\":8005:8082   */\n        tag_182:\n            /* \"#utility.yul\":8042:8049   */\n          0x00\n            /* \"#utility.yul\":8071:8076   */\n          dup2\n            /* \"#utility.yul\":8060:8076   */\n          swap1\n          pop\n            /* \"#utility.yul\":8005:8082   */\n          swap2\n          swap1\n          pop\n          jump\t// out\n            /* \"#utility.yul\":8088:8268   */\n        tag_207:\n            /* \"#utility.yul\":8136:8213   */\n          0x4e487b7100000000000000000000000000000000000000000000000000000000\n            /* \"#utility.yul\":8133:8134   */\n          0x00\n            /* \"#utility.yul\":8126:8214   */\n          mstore\n            /* \"#utility.yul\":8233:8237   */\n          0x11\n            /* \"#utility.yul\":8230:8231   */\n          0x04\n            /* \"#utility.yul\":8223:8238   */\n          mstore\n            /* \"#utility.yul\":8257:8261   */\n          0x24\n            /* \"#utility.yul\":8254:8255   */\n          0x00\n            /* \"#utility.yul\":8247:8262   */\n          revert\n            /* \"#utility.yul\":8274:8454   */\n        tag_88:\n            /* \"#utility.yul\":8322:8399   */\n          0x4e487b7100000000000000000000000000000000000000000000000000000000\n            /* \"#utility.yul\":8319:8320   */\n          0x00\n            /* \"#utility.yul\":8312:8400   */\n          mstore\n            /* \"#utility.yul\":8419:8423   */\n          0x31\n            /* \"#utility.yul\":8416:8417   */\n          0x04\n            /* \"#utility.yul\":8409:8424   */\n          mstore\n            /* \"#utility.yul\":8443:8447   */\n          0x24\n            /* \"#utility.yul\":8440:8441   */\n          0x00\n            /* \"#utility.yul\":8433:8448   */\n          revert\n            /* \"#utility.yul\":8460:8640   */\n        tag_84:\n            /* \"#utility.yul\":8508:8585   */\n          0x4e487b7100000000000000000000000000000000000000000000000000000000\n            /* \"#utility.yul\":8505:8506   */\n          0x00\n            /* \"#utility.yul\":8498:8586   */\n          mstore\n            /* \"#utility.yul\":8605:8609   */\n          0x32\n            /* \"#utility.yul\":8602:8603   */\n          0x04\n            /* \"#utility.yul\":8595:8610   */\n          mstore\n            /* \"#utility.yul\":8629:8633   */\n          0x24\n            /* \"#utility.yul\":8626:8627   */\n          0x00\n            /* \"#utility.yul\":8619:8634   */\n          revert\n            /* \"#utility.yul\":8769:8886   */\n        tag_134:\n            /* \"#utility.yul\":8878:8879   */\n          0x00\n            /* \"#utility.yul\":8875:8876   */\n          dup1\n            /* \"#utility.yul\":8868:8880   */\n          revert\n            /* \"#utility.yul\":8892:9118   */\n        tag_158:\n            /* \"#utility.yul\":9032:9066   */\n          0x6f72646572206d757374206265206f6620636f72726563742073697a6520616e\n            /* \"#utility.yul\":9028:9029   */\n          0x00\n            /* \"#utility.yul\":9020:9026   */\n          dup3\n            /* \"#utility.yul\":9016:9030   */\n          add\n            /* \"#utility.yul\":9009:9067   */\n          mstore\n            /* \"#utility.yul\":9101:9110   */\n          0x6420707269636500000000000000000000000000000000000000000000000000\n            /* \"#utility.yul\":9096:9098   */\n          0x20\n            /* \"#utility.yul\":9088:9094   */\n          dup3\n            /* \"#utility.yul\":9084:9099   */\n          add\n            /* \"#utility.yul\":9077:9111   */\n          mstore\n            /* \"#utility.yul\":8892:9118   */\n          pop\n          jump\t// out\n            /* \"#utility.yul\":9124:9349   */\n        tag_163:\n            /* \"#utility.yul\":9264:9298   */\n          0x4f776e61626c653a206e6577206f776e657220697320746865207a65726f2061\n            /* \"#utility.yul\":9260:9261   */\n          0x00\n            /* \"#utility.yul\":9252:9258   */\n          dup3\n            /* \"#utility.yul\":9248:9262   */\n          add\n            /* \"#utility.yul\":9241:9299   */\n          mstore\n            /* \"#utility.yul\":9333:9341   */\n          0x6464726573730000000000000000000000000000000000000000000000000000\n            /* \"#utility.yul\":9328:9330   */\n          0x20\n            /* \"#utility.yul\":9320:9326   */\n          dup3\n            /* \"#utility.yul\":9316:9331   */\n          add\n            /* \"#utility.yul\":9309:9342   */\n          mstore\n            /* \"#utility.yul\":9124:9349   */\n          pop\n          jump\t// out\n            /* \"#utility.yul\":9355:9589   */\n        tag_168:\n            /* \"#utility.yul\":9495:9529   */\n          0x6661726d65722063616e6e6f7420706c616365206f7264657220666f72207468\n            /* \"#utility.yul\":9491:9492   */\n          0x00\n            /* \"#utility.yul\":9483:9489   */\n          dup3\n            /* \"#utility.yul\":9479:9493   */\n          add\n            /* \"#utility.yul\":9472:9530   */\n          mstore\n            /* \"#utility.yul\":9564:9581   */\n          0x656972206f776e2070726f647563650000000000000000000000000000000000\n            /* \"#utility.yul\":9559:9561   */\n          0x20\n            /* \"#utility.yul\":9551:9557   */\n          dup3\n            /* \"#utility.yul\":9547:9562   */\n          add\n            /* \"#utility.yul\":9540:9582   */\n          mstore\n            /* \"#utility.yul\":9355:9589   */\n          pop\n          jump\t// out\n            /* \"#utility.yul\":9595:9777   */\n        tag_173:\n            /* \"#utility.yul\":9735:9769   */\n          0x4f776e61626c653a2063616c6c6572206973206e6f7420746865206f776e6572\n            /* \"#utility.yul\":9731:9732   */\n          0x00\n            /* \"#utility.yul\":9723:9729   */\n          dup3\n            /* \"#utility.yul\":9719:9733   */\n          add\n            /* \"#utility.yul\":9712:9770   */\n          mstore\n            /* \"#utility.yul\":9595:9777   */\n          pop\n          jump\t// out\n            /* \"#utility.yul\":9783:9950   */\n        tag_178:\n            /* \"#utility.yul\":9923:9942   */\n          0x4e6f206f726465727320746f2074616b65000000000000000000000000000000\n            /* \"#utility.yul\":9919:9920   */\n          0x00\n            /* \"#utility.yul\":9911:9917   */\n          dup3\n            /* \"#utility.yul\":9907:9921   */\n          add\n            /* \"#utility.yul\":9900:9943   */\n          mstore\n            /* \"#utility.yul\":9783:9950   */\n          pop\n          jump\t// out\n            /* \"#utility.yul\":9956:10078   */\n        tag_122:\n            /* \"#utility.yul\":10029:10053   */\n          tag_231\n            /* \"#utility.yul\":10047:10052   */\n          dup2\n            /* \"#utility.yul\":10029:10053   */\n          tag_148\n          jump\t// in\n        tag_231:\n            /* \"#utility.yul\":10022:10027   */\n          dup2\n            /* \"#utility.yul\":10019:10054   */\n          eq\n            /* \"#utility.yul\":10009:10072   */\n          tag_232\n          jumpi\n            /* \"#utility.yul\":10068:10069   */\n          0x00\n            /* \"#utility.yul\":10065:10066   */\n          dup1\n            /* \"#utility.yul\":10058:10070   */\n          revert\n            /* \"#utility.yul\":10009:10072   */\n        tag_232:\n            /* \"#utility.yul\":9956:10078   */\n          pop\n          jump\t// out\n            /* \"#utility.yul\":10084:10206   */\n        tag_126:\n            /* \"#utility.yul\":10157:10181   */\n          tag_234\n            /* \"#utility.yul\":10175:10180   */\n          dup2\n            /* \"#utility.yul\":10157:10181   */\n          tag_152\n          jump\t// in\n        tag_234:\n            /* \"#utility.yul\":10150:10155   */\n          dup2\n            /* \"#utility.yul\":10147:10182   */\n          eq\n            /* \"#utility.yul\":10137:10200   */\n          tag_235\n          jumpi\n            /* \"#utility.yul\":10196:10197   */\n          0x00\n            /* \"#utility.yul\":10193:10194   */\n          dup1\n            /* \"#utility.yul\":10186:10198   */\n          revert\n            /* \"#utility.yul\":10137:10200   */\n        tag_235:\n            /* \"#utility.yul\":10084:10206   */\n          pop\n          jump\t// out\n            /* \"#utility.yul\":10212:10334   */\n        tag_130:\n            /* \"#utility.yul\":10285:10309   */\n          tag_237\n            /* \"#utility.yul\":10303:10308   */\n          dup2\n            /* \"#utility.yul\":10285:10309   */\n          tag_182\n          jump\t// in\n        tag_237:\n            /* \"#utility.yul\":10278:10283   */\n          dup2\n            /* \"#utility.yul\":10275:10310   */\n          eq\n            /* \"#utility.yul\":10265:10328   */\n          tag_238\n          jumpi\n            /* \"#utility.yul\":10324:10325   */\n          0x00\n            /* \"#utility.yul\":10321:10322   */\n          dup1\n            /* \"#utility.yul\":10314:10326   */\n          revert\n            /* \"#utility.yul\":10265:10328   */\n        tag_238:\n            /* \"#utility.yul\":10212:10334   */\n          pop\n          jump\t// out\n\n        auxdata: 0xa2646970667358221220d22417537919a5b6d0b03c93a6e57add9d0efb4a096db01587e394631f3ae58364736f6c63430008070033\n    }\n}\n",
				"bytecode": {
					"linkReferences": {},
					"object": "60a060405234801561001057600080fd5b5060405161001d90610075565b604051809103906000f080158015610039573d6000803e3d6000fd5b5073ffffffffffffffffffffffffffffffffffffffff1660808173ffffffffffffffffffffffffffffffffffffffff1660601b81525050610082565b610e3180610a3c83390190565b60805160601c61099d61009f600039600060ca015261099d6000f3fe608060405234801561001057600080fd5b50600436106100415760003560e01c8063594659f5146100465780637b6833c314610076578063a1d861a914610092575b600080fd5b610060600480360381019061005b91906105dc565b6100c2565b60405161006d91906106fc565b60405180910390f35b610090600480360381019061008b9190610582565b610281565b005b6100ac60048036038101906100a79190610582565b610453565b6040516100b99190610778565b60405180910390f35b6000806100ee7f0000000000000000000000000000000000000000000000000000000000000000610473565b90508073ffffffffffffffffffffffffffffffffffffffff1663c8dde8073389898989896040518763ffffffff1660e01b815260040161013396959493929190610717565b600060405180830381600087803b15801561014d57600080fd5b505af1158015610161573d6000803e3d6000fd5b505050506000819080600181540180825580915050600190039060005260206000200160009091909190916101000a81548173ffffffffffffffffffffffffffffffffffffffff021916908373ffffffffffffffffffffffffffffffffffffffff16021790555060018060008373ffffffffffffffffffffffffffffffffffffffff1673ffffffffffffffffffffffffffffffffffffffff16815260200190815260200160002060006101000a81548160ff0219169083151502179055506001600260003373ffffffffffffffffffffffffffffffffffffffff1673ffffffffffffffffffffffffffffffffffffffff16815260200190815260200160002060006101000a81548160ff0219169083151502179055505095945050505050565b600160008273ffffffffffffffffffffffffffffffffffffffff1673ffffffffffffffffffffffffffffffffffffffff16815260200190815260200160002060009054906101000a900460ff1661030d576040517f08c379a000000000000000000000000000000000000000000000000000000000815260040161030490610793565b60405180910390fd5b3373ffffffffffffffffffffffffffffffffffffffff168173ffffffffffffffffffffffffffffffffffffffff16638da5cb5b6040518163ffffffff1660e01b815260040160206040518083038186803b15801561036a57600080fd5b505afa15801561037e573d6000803e3d6000fd5b505050506040513d601f19601f820116820180604052508101906103a291906105af565b73ffffffffffffffffffffffffffffffffffffffff16146103f8576040517f08c379a00000000000000000000000000000000000000000000000000000000081526004016103ef906107d3565b60405180910390fd5b6000600160008373ffffffffffffffffffffffffffffffffffffffff1673ffffffffffffffffffffffffffffffffffffffff16815260200190815260200160002060006101000a81548160ff02191690831515021790555050565b60026020528060005260406000206000915054906101000a900460ff1681565b6000763d602d80600a3d3981f3363d3d373d3d3d363d730000008260601b60e81c176000526e5af43d82803e903d91602b57fd5bf38260781b17602052603760096000f09050600073ffffffffffffffffffffffffffffffffffffffff168173ffffffffffffffffffffffffffffffffffffffff161415610529576040517f08c379a0000000000000000000000000000000000000000000000000000000008152600401610520906107b3565b60405180910390fd5b919050565b60008135905061053d81610922565b92915050565b60008151905061055281610922565b92915050565b60008135905061056781610939565b92915050565b60008135905061057c81610950565b92915050565b60006020828403121561059857610597610856565b5b60006105a68482850161052e565b91505092915050565b6000602082840312156105c5576105c4610856565b5b60006105d384828501610543565b91505092915050565b600080600080600060a086880312156105f8576105f7610856565b5b60006106068882890161056d565b95505060206106178882890161056d565b94505060406106288882890161056d565b935050606061063988828901610558565b925050608061064a8882890161056d565b9150509295509295909350565b61066081610804565b82525050565b61066f81610816565b82525050565b61067e81610822565b82525050565b60006106916028836107f3565b915061069c8261085b565b604082019050919050565b60006106b46016836107f3565b91506106bf826108aa565b602082019050919050565b60006106d76031836107f3565b91506106e2826108d3565b604082019050919050565b6106f68161084c565b82525050565b60006020820190506107116000830184610657565b92915050565b600060c08201905061072c6000830189610657565b61073960208301886106ed565b61074660408301876106ed565b61075360608301866106ed565b6107606080830185610675565b61076d60a08301846106ed565b979650505050505050565b600060208201905061078d6000830184610666565b92915050565b600060208201905081810360008301526107ac81610684565b9050919050565b600060208201905081810360008301526107cc816106a7565b9050919050565b600060208201905081810360008301526107ec816106ca565b9050919050565b600082825260208201905092915050565b600061080f8261082c565b9050919050565b60008115159050919050565b6000819050919050565b600073ffffffffffffffffffffffffffffffffffffffff82169050919050565b6000819050919050565b600080fd5b7f546869732070726f64756365206973206e6f74206c6973746564206f6e20746860008201527f65204d61726b6574000000000000000000000000000000000000000000000000602082015250565b7f455243313136373a20637265617465206661696c656400000000000000000000600082015250565b7f4f6e6c792070726f64756365206f776e65722063616e2072656d6f766520707260008201527f6f647563652066726f6d204d61726b6574000000000000000000000000000000602082015250565b61092b81610804565b811461093657600080fd5b50565b61094281610822565b811461094d57600080fd5b50565b6109598161084c565b811461096457600080fd5b5056fea2646970667358221220e20d12f00627fd14faa28217efcabed613bdc2acea638711da9d9567185e7ace64736f6c63430008070033608060405234801561001057600080fd5b5061002d61002261003260201b60201c565b61003a60201b60201c565b6100fe565b600033905090565b60008060009054906101000a900473ffffffffffffffffffffffffffffffffffffffff169050816000806101000a81548173ffffffffffffffffffffffffffffffffffffffff021916908373ffffffffffffffffffffffffffffffffffffffff1602179055508173ffffffffffffffffffffffffffffffffffffffff168173ffffffffffffffffffffffffffffffffffffffff167f8be0079c531659141344cd1fd0a4f28419497f9722a3daafe3b4186f6b6457e060405160405180910390a35050565b610d248061010d6000396000f3fe6080604052600436106100a75760003560e01c8063aa8c217c11610064578063aa8c217c1461019a578063c8dde807146101c5578063d32dacc1146101ee578063d811fcf014610219578063f2fde38b14610244578063f5c609e01461026d576100a7565b806306fdde03146100ac578063530d124e146100d75780636d86b8a514610102578063715018a61461012d5780638da5cb5b14610144578063a035b1fe1461016f575b600080fd5b3480156100b857600080fd5b506100c1610277565b6040516100ce91906109d8565b60405180910390f35b3480156100e357600080fd5b506100ec61027d565b6040516100f991906109d8565b60405180910390f35b34801561010e57600080fd5b50610117610283565b60405161012491906109d8565b60405180910390f35b34801561013957600080fd5b50610142610289565b005b34801561015057600080fd5b5061015961029d565b6040516101669190610902565b60405180910390f35b34801561017b57600080fd5b506101846102c6565b60405161019191906109d8565b60405180910390f35b3480156101a657600080fd5b506101af6102cc565b6040516101bc919061091d565b60405180910390f35b3480156101d157600080fd5b506101ec60048036038101906101e79190610799565b6102d2565b005b3480156101fa57600080fd5b50610203610306565b6040516102109190610902565b60405180910390f35b34801561022557600080fd5b5061022e6103fa565b60405161023b9190610902565b60405180910390f35b34801561025057600080fd5b5061026b6004803603810190610266919061076c565b610420565b005b6102756104a4565b005b60045481565b60035481565b60065481565b6102916105e3565b61029b6000610661565b565b60008060009054906101000a900473ffffffffffffffffffffffffffffffffffffffff16905090565b60055481565b60075481565b6102db86610661565b8060038190555084600481905550836005819055508260068190555081600781905550505050505050565b60006103106105e3565b600060028054905011610358576040517f08c379a000000000000000000000000000000000000000000000000000000000815260040161034f906109b8565b60405180910390fd5b60006002600160028054905061036e9190610a5e565b8154811061037f5761037e610b36565b5b9060005260206000200160009054906101000a900473ffffffffffffffffffffffffffffffffffffffff16905060028054806103be576103bd610b07565b5b6001900381819060005260206000200160006101000a81549073ffffffffffffffffffffffffffffffffffffffff021916905590558091505090565b600160009054906101000a900473ffffffffffffffffffffffffffffffffffffffff1681565b6104286105e3565b600073ffffffffffffffffffffffffffffffffffffffff168173ffffffffffffffffffffffffffffffffffffffff161415610498576040517f08c379a000000000000000000000000000000000000000000000000000000000815260040161048f90610958565b60405180910390fd5b6104a181610661565b50565b6104ac61029d565b73ffffffffffffffffffffffffffffffffffffffff163373ffffffffffffffffffffffffffffffffffffffff16141561051a576040517f08c379a000000000000000000000000000000000000000000000000000000000815260040161051190610978565b60405180910390fd5b60055460065461052a9190610a04565b341461056b576040517f08c379a000000000000000000000000000000000000000000000000000000000815260040161056290610938565b60405180910390fd5b6003546002805490501061057e57600080fd5b6002339080600181540180825580915050600190039060005260206000200160009091909190916101000a81548173ffffffffffffffffffffffffffffffffffffffff021916908373ffffffffffffffffffffffffffffffffffffffff160217905550565b6105eb610725565b73ffffffffffffffffffffffffffffffffffffffff1661060961029d565b73ffffffffffffffffffffffffffffffffffffffff161461065f576040517f08c379a000000000000000000000000000000000000000000000000000000000815260040161065690610998565b60405180910390fd5b565b60008060009054906101000a900473ffffffffffffffffffffffffffffffffffffffff169050816000806101000a81548173ffffffffffffffffffffffffffffffffffffffff021916908373ffffffffffffffffffffffffffffffffffffffff1602179055508173ffffffffffffffffffffffffffffffffffffffff168173ffffffffffffffffffffffffffffffffffffffff167f8be0079c531659141344cd1fd0a4f28419497f9722a3daafe3b4186f6b6457e060405160405180910390a35050565b600033905090565b60008135905061073c81610ca9565b92915050565b60008135905061075181610cc0565b92915050565b60008135905061076681610cd7565b92915050565b60006020828403121561078257610781610b65565b5b60006107908482850161072d565b91505092915050565b60008060008060008060c087890312156107b6576107b5610b65565b5b60006107c489828a0161072d565b96505060206107d589828a01610757565b95505060406107e689828a01610757565b94505060606107f789828a01610757565b935050608061080889828a01610742565b92505060a061081989828a01610757565b9150509295509295509295565b61082f81610a92565b82525050565b61083e81610aa4565b82525050565b60006108516027836109f3565b915061085c82610b6a565b604082019050919050565b60006108746026836109f3565b915061087f82610bb9565b604082019050919050565b6000610897602f836109f3565b91506108a282610c08565b604082019050919050565b60006108ba6020836109f3565b91506108c582610c57565b602082019050919050565b60006108dd6011836109f3565b91506108e882610c80565b602082019050919050565b6108fc81610ace565b82525050565b60006020820190506109176000830184610826565b92915050565b60006020820190506109326000830184610835565b92915050565b6000602082019050818103600083015261095181610844565b9050919050565b6000602082019050818103600083015261097181610867565b9050919050565b600060208201905081810360008301526109918161088a565b9050919050565b600060208201905081810360008301526109b1816108ad565b9050919050565b600060208201905081810360008301526109d1816108d0565b9050919050565b60006020820190506109ed60008301846108f3565b92915050565b600082825260208201905092915050565b6000610a0f82610ace565b9150610a1a83610ace565b9250817fffffffffffffffffffffffffffffffffffffffffffffffffffffffffffffffff0483118215151615610a5357610a52610ad8565b5b828202905092915050565b6000610a6982610ace565b9150610a7483610ace565b925082821015610a8757610a86610ad8565b5b828203905092915050565b6000610a9d82610aae565b9050919050565b6000819050919050565b600073ffffffffffffffffffffffffffffffffffffffff82169050919050565b6000819050919050565b7f4e487b7100000000000000000000000000000000000000000000000000000000600052601160045260246000fd5b7f4e487b7100000000000000000000000000000000000000000000000000000000600052603160045260246000fd5b7f4e487b7100000000000000000000000000000000000000000000000000000000600052603260045260246000fd5b600080fd5b7f6f72646572206d757374206265206f6620636f72726563742073697a6520616e60008201527f6420707269636500000000000000000000000000000000000000000000000000602082015250565b7f4f776e61626c653a206e6577206f776e657220697320746865207a65726f206160008201527f6464726573730000000000000000000000000000000000000000000000000000602082015250565b7f6661726d65722063616e6e6f7420706c616365206f7264657220666f7220746860008201527f656972206f776e2070726f647563650000000000000000000000000000000000602082015250565b7f4f776e61626c653a2063616c6c6572206973206e6f7420746865206f776e6572600082015250565b7f4e6f206f726465727320746f2074616b65000000000000000000000000000000600082015250565b610cb281610a92565b8114610cbd57600080fd5b50565b610cc981610aa4565b8114610cd457600080fd5b50565b610ce081610ace565b8114610ceb57600080fd5b5056fea2646970667358221220d22417537919a5b6d0b03c93a6e57add9d0efb4a096db01587e394631f3ae58364736f6c63430008070033",
					"opcodes": "PUSH1 0xA0 PUSH1 0x40 MSTORE CALLVALUE DUP1 ISZERO PUSH2 0x10 JUMPI PUSH1 0x0 DUP1 REVERT JUMPDEST POP PUSH1 0x40 MLOAD PUSH2 0x1D SWAP1 PUSH2 0x75 JUMP JUMPDEST PUSH1 0x40 MLOAD DUP1 SWAP2 SUB SWAP1 PUSH1 0x0 CREATE DUP1 ISZERO DUP1 ISZERO PUSH2 0x39 JUMPI RETURNDATASIZE PUSH1 0x0 DUP1 RETURNDATACOPY RETURNDATASIZE PUSH1 0x0 REVERT JUMPDEST POP PUSH20 0xFFFFFFFFFFFFFFFFFFFFFFFFFFFFFFFFFFFFFFFF AND PUSH1 0x80 DUP2 PUSH20 0xFFFFFFFFFFFFFFFFFFFFFFFFFFFFFFFFFFFFFFFF AND PUSH1 0x60 SHL DUP2 MSTORE POP POP PUSH2 0x82 JUMP JUMPDEST PUSH2 0xE31 DUP1 PUSH2 0xA3C DUP4 CODECOPY ADD SWAP1 JUMP JUMPDEST PUSH1 0x80 MLOAD PUSH1 0x60 SHR PUSH2 0x99D PUSH2 0x9F PUSH1 0x0 CODECOPY PUSH1 0x0 PUSH1 0xCA ADD MSTORE PUSH2 0x99D PUSH1 0x0 RETURN INVALID PUSH1 0x80 PUSH1 0x40 MSTORE CALLVALUE DUP1 ISZERO PUSH2 0x10 JUMPI PUSH1 0x0 DUP1 REVERT JUMPDEST POP PUSH1 0x4 CALLDATASIZE LT PUSH2 0x41 JUMPI PUSH1 0x0 CALLDATALOAD PUSH1 0xE0 SHR DUP1 PUSH4 0x594659F5 EQ PUSH2 0x46 JUMPI DUP1 PUSH4 0x7B6833C3 EQ PUSH2 0x76 JUMPI DUP1 PUSH4 0xA1D861A9 EQ PUSH2 0x92 JUMPI JUMPDEST PUSH1 0x0 DUP1 REVERT JUMPDEST PUSH2 0x60 PUSH1 0x4 DUP1 CALLDATASIZE SUB DUP2 ADD SWAP1 PUSH2 0x5B SWAP2 SWAP1 PUSH2 0x5DC JUMP JUMPDEST PUSH2 0xC2 JUMP JUMPDEST PUSH1 0x40 MLOAD PUSH2 0x6D SWAP2 SWAP1 PUSH2 0x6FC JUMP JUMPDEST PUSH1 0x40 MLOAD DUP1 SWAP2 SUB SWAP1 RETURN JUMPDEST PUSH2 0x90 PUSH1 0x4 DUP1 CALLDATASIZE SUB DUP2 ADD SWAP1 PUSH2 0x8B SWAP2 SWAP1 PUSH2 0x582 JUMP JUMPDEST PUSH2 0x281 JUMP JUMPDEST STOP JUMPDEST PUSH2 0xAC PUSH1 0x4 DUP1 CALLDATASIZE SUB DUP2 ADD SWAP1 PUSH2 0xA7 SWAP2 SWAP1 PUSH2 0x582 JUMP JUMPDEST PUSH2 0x453 JUMP JUMPDEST PUSH1 0x40 MLOAD PUSH2 0xB9 SWAP2 SWAP1 PUSH2 0x778 JUMP JUMPDEST PUSH1 0x40 MLOAD DUP1 SWAP2 SUB SWAP1 RETURN JUMPDEST PUSH1 0x0 DUP1 PUSH2 0xEE PUSH32 0x0 PUSH2 0x473 JUMP JUMPDEST SWAP1 POP DUP1 PUSH20 0xFFFFFFFFFFFFFFFFFFFFFFFFFFFFFFFFFFFFFFFF AND PUSH4 0xC8DDE807 CALLER DUP10 DUP10 DUP10 DUP10 DUP10 PUSH1 0x40 MLOAD DUP8 PUSH4 0xFFFFFFFF AND PUSH1 0xE0 SHL DUP2 MSTORE PUSH1 0x4 ADD PUSH2 0x133 SWAP7 SWAP6 SWAP5 SWAP4 SWAP3 SWAP2 SWAP1 PUSH2 0x717 JUMP JUMPDEST PUSH1 0x0 PUSH1 0x40 MLOAD DUP1 DUP4 SUB DUP2 PUSH1 0x0 DUP8 DUP1 EXTCODESIZE ISZERO DUP1 ISZERO PUSH2 0x14D JUMPI PUSH1 0x0 DUP1 REVERT JUMPDEST POP GAS CALL ISZERO DUP1 ISZERO PUSH2 0x161 JUMPI RETURNDATASIZE PUSH1 0x0 DUP1 RETURNDATACOPY RETURNDATASIZE PUSH1 0x0 REVERT JUMPDEST POP POP POP POP PUSH1 0x0 DUP2 SWAP1 DUP1 PUSH1 0x1 DUP2 SLOAD ADD DUP1 DUP3 SSTORE DUP1 SWAP2 POP POP PUSH1 0x1 SWAP1 SUB SWAP1 PUSH1 0x0 MSTORE PUSH1 0x20 PUSH1 0x0 KECCAK256 ADD PUSH1 0x0 SWAP1 SWAP2 SWAP1 SWAP2 SWAP1 SWAP2 PUSH2 0x100 EXP DUP2 SLOAD DUP2 PUSH20 0xFFFFFFFFFFFFFFFFFFFFFFFFFFFFFFFFFFFFFFFF MUL NOT AND SWAP1 DUP4 PUSH20 0xFFFFFFFFFFFFFFFFFFFFFFFFFFFFFFFFFFFFFFFF AND MUL OR SWAP1 SSTORE POP PUSH1 0x1 DUP1 PUSH1 0x0 DUP4 PUSH20 0xFFFFFFFFFFFFFFFFFFFFFFFFFFFFFFFFFFFFFFFF AND PUSH20 0xFFFFFFFFFFFFFFFFFFFFFFFFFFFFFFFFFFFFFFFF AND DUP2 MSTORE PUSH1 0x20 ADD SWAP1 DUP2 MSTORE PUSH1 0x20 ADD PUSH1 0x0 KECCAK256 PUSH1 0x0 PUSH2 0x100 EXP DUP2 SLOAD DUP2 PUSH1 0xFF MUL NOT AND SWAP1 DUP4 ISZERO ISZERO MUL OR SWAP1 SSTORE POP PUSH1 0x1 PUSH1 0x2 PUSH1 0x0 CALLER PUSH20 0xFFFFFFFFFFFFFFFFFFFFFFFFFFFFFFFFFFFFFFFF AND PUSH20 0xFFFFFFFFFFFFFFFFFFFFFFFFFFFFFFFFFFFFFFFF AND DUP2 MSTORE PUSH1 0x20 ADD SWAP1 DUP2 MSTORE PUSH1 0x20 ADD PUSH1 0x0 KECCAK256 PUSH1 0x0 PUSH2 0x100 EXP DUP2 SLOAD DUP2 PUSH1 0xFF MUL NOT AND SWAP1 DUP4 ISZERO ISZERO MUL OR SWAP1 SSTORE POP POP SWAP6 SWAP5 POP POP POP POP POP JUMP JUMPDEST PUSH1 0x1 PUSH1 0x0 DUP3 PUSH20 0xFFFFFFFFFFFFFFFFFFFFFFFFFFFFFFFFFFFFFFFF AND PUSH20 0xFFFFFFFFFFFFFFFFFFFFFFFFFFFFFFFFFFFFFFFF AND DUP2 MSTORE PUSH1 0x20 ADD SWAP1 DUP2 MSTORE PUSH1 0x20 ADD PUSH1 0x0 KECCAK256 PUSH1 0x0 SWAP1 SLOAD SWAP1 PUSH2 0x100 EXP SWAP1 DIV PUSH1 0xFF AND PUSH2 0x30D JUMPI PUSH1 0x40 MLOAD PUSH32 0x8C379A000000000000000000000000000000000000000000000000000000000 DUP2 MSTORE PUSH1 0x4 ADD PUSH2 0x304 SWAP1 PUSH2 0x793 JUMP JUMPDEST PUSH1 0x40 MLOAD DUP1 SWAP2 SUB SWAP1 REVERT JUMPDEST CALLER PUSH20 0xFFFFFFFFFFFFFFFFFFFFFFFFFFFFFFFFFFFFFFFF AND DUP2 PUSH20 0xFFFFFFFFFFFFFFFFFFFFFFFFFFFFFFFFFFFFFFFF AND PUSH4 0x8DA5CB5B PUSH1 0x40 MLOAD DUP2 PUSH4 0xFFFFFFFF AND PUSH1 0xE0 SHL DUP2 MSTORE PUSH1 0x4 ADD PUSH1 0x20 PUSH1 0x40 MLOAD DUP1 DUP4 SUB DUP2 DUP7 DUP1 EXTCODESIZE ISZERO DUP1 ISZERO PUSH2 0x36A JUMPI PUSH1 0x0 DUP1 REVERT JUMPDEST POP GAS STATICCALL ISZERO DUP1 ISZERO PUSH2 0x37E JUMPI RETURNDATASIZE PUSH1 0x0 DUP1 RETURNDATACOPY RETURNDATASIZE PUSH1 0x0 REVERT JUMPDEST POP POP POP POP PUSH1 0x40 MLOAD RETURNDATASIZE PUSH1 0x1F NOT PUSH1 0x1F DUP3 ADD AND DUP3 ADD DUP1 PUSH1 0x40 MSTORE POP DUP2 ADD SWAP1 PUSH2 0x3A2 SWAP2 SWAP1 PUSH2 0x5AF JUMP JUMPDEST PUSH20 0xFFFFFFFFFFFFFFFFFFFFFFFFFFFFFFFFFFFFFFFF AND EQ PUSH2 0x3F8 JUMPI PUSH1 0x40 MLOAD PUSH32 0x8C379A000000000000000000000000000000000000000000000000000000000 DUP2 MSTORE PUSH1 0x4 ADD PUSH2 0x3EF SWAP1 PUSH2 0x7D3 JUMP JUMPDEST PUSH1 0x40 MLOAD DUP1 SWAP2 SUB SWAP1 REVERT JUMPDEST PUSH1 0x0 PUSH1 0x1 PUSH1 0x0 DUP4 PUSH20 0xFFFFFFFFFFFFFFFFFFFFFFFFFFFFFFFFFFFFFFFF AND PUSH20 0xFFFFFFFFFFFFFFFFFFFFFFFFFFFFFFFFFFFFFFFF AND DUP2 MSTORE PUSH1 0x20 ADD SWAP1 DUP2 MSTORE PUSH1 0x20 ADD PUSH1 0x0 KECCAK256 PUSH1 0x0 PUSH2 0x100 EXP DUP2 SLOAD DUP2 PUSH1 0xFF MUL NOT AND SWAP1 DUP4 ISZERO ISZERO MUL OR SWAP1 SSTORE POP POP JUMP JUMPDEST PUSH1 0x2 PUSH1 0x20 MSTORE DUP1 PUSH1 0x0 MSTORE PUSH1 0x40 PUSH1 0x0 KECCAK256 PUSH1 0x0 SWAP2 POP SLOAD SWAP1 PUSH2 0x100 EXP SWAP1 DIV PUSH1 0xFF AND DUP2 JUMP JUMPDEST PUSH1 0x0 PUSH23 0x3D602D80600A3D3981F3363D3D373D3D3D363D73000000 DUP3 PUSH1 0x60 SHL PUSH1 0xE8 SHR OR PUSH1 0x0 MSTORE PUSH15 0x5AF43D82803E903D91602B57FD5BF3 DUP3 PUSH1 0x78 SHL OR PUSH1 0x20 MSTORE PUSH1 0x37 PUSH1 0x9 PUSH1 0x0 CREATE SWAP1 POP PUSH1 0x0 PUSH20 0xFFFFFFFFFFFFFFFFFFFFFFFFFFFFFFFFFFFFFFFF AND DUP2 PUSH20 0xFFFFFFFFFFFFFFFFFFFFFFFFFFFFFFFFFFFFFFFF AND EQ ISZERO PUSH2 0x529 JUMPI PUSH1 0x40 MLOAD PUSH32 0x8C379A000000000000000000000000000000000000000000000000000000000 DUP2 MSTORE PUSH1 0x4 ADD PUSH2 0x520 SWAP1 PUSH2 0x7B3 JUMP JUMPDEST PUSH1 0x40 MLOAD DUP1 SWAP2 SUB SWAP1 REVERT JUMPDEST SWAP2 SWAP1 POP JUMP JUMPDEST PUSH1 0x0 DUP2 CALLDATALOAD SWAP1 POP PUSH2 0x53D DUP2 PUSH2 0x922 JUMP JUMPDEST SWAP3 SWAP2 POP POP JUMP JUMPDEST PUSH1 0x0 DUP2 MLOAD SWAP1 POP PUSH2 0x552 DUP2 PUSH2 0x922 JUMP JUMPDEST SWAP3 SWAP2 POP POP JUMP JUMPDEST PUSH1 0x0 DUP2 CALLDATALOAD SWAP1 POP PUSH2 0x567 DUP2 PUSH2 0x939 JUMP JUMPDEST SWAP3 SWAP2 POP POP JUMP JUMPDEST PUSH1 0x0 DUP2 CALLDATALOAD SWAP1 POP PUSH2 0x57C DUP2 PUSH2 0x950 JUMP JUMPDEST SWAP3 SWAP2 POP POP JUMP JUMPDEST PUSH1 0x0 PUSH1 0x20 DUP3 DUP5 SUB SLT ISZERO PUSH2 0x598 JUMPI PUSH2 0x597 PUSH2 0x856 JUMP JUMPDEST JUMPDEST PUSH1 0x0 PUSH2 0x5A6 DUP5 DUP3 DUP6 ADD PUSH2 0x52E JUMP JUMPDEST SWAP2 POP POP SWAP3 SWAP2 POP POP JUMP JUMPDEST PUSH1 0x0 PUSH1 0x20 DUP3 DUP5 SUB SLT ISZERO PUSH2 0x5C5 JUMPI PUSH2 0x5C4 PUSH2 0x856 JUMP JUMPDEST JUMPDEST PUSH1 0x0 PUSH2 0x5D3 DUP5 DUP3 DUP6 ADD PUSH2 0x543 JUMP JUMPDEST SWAP2 POP POP SWAP3 SWAP2 POP POP JUMP JUMPDEST PUSH1 0x0 DUP1 PUSH1 0x0 DUP1 PUSH1 0x0 PUSH1 0xA0 DUP7 DUP9 SUB SLT ISZERO PUSH2 0x5F8 JUMPI PUSH2 0x5F7 PUSH2 0x856 JUMP JUMPDEST JUMPDEST PUSH1 0x0 PUSH2 0x606 DUP9 DUP3 DUP10 ADD PUSH2 0x56D JUMP JUMPDEST SWAP6 POP POP PUSH1 0x20 PUSH2 0x617 DUP9 DUP3 DUP10 ADD PUSH2 0x56D JUMP JUMPDEST SWAP5 POP POP PUSH1 0x40 PUSH2 0x628 DUP9 DUP3 DUP10 ADD PUSH2 0x56D JUMP JUMPDEST SWAP4 POP POP PUSH1 0x60 PUSH2 0x639 DUP9 DUP3 DUP10 ADD PUSH2 0x558 JUMP JUMPDEST SWAP3 POP POP PUSH1 0x80 PUSH2 0x64A DUP9 DUP3 DUP10 ADD PUSH2 0x56D JUMP JUMPDEST SWAP2 POP POP SWAP3 SWAP6 POP SWAP3 SWAP6 SWAP1 SWAP4 POP JUMP JUMPDEST PUSH2 0x660 DUP2 PUSH2 0x804 JUMP JUMPDEST DUP3 MSTORE POP POP JUMP JUMPDEST PUSH2 0x66F DUP2 PUSH2 0x816 JUMP JUMPDEST DUP3 MSTORE POP POP JUMP JUMPDEST PUSH2 0x67E DUP2 PUSH2 0x822 JUMP JUMPDEST DUP3 MSTORE POP POP JUMP JUMPDEST PUSH1 0x0 PUSH2 0x691 PUSH1 0x28 DUP4 PUSH2 0x7F3 JUMP JUMPDEST SWAP2 POP PUSH2 0x69C DUP3 PUSH2 0x85B JUMP JUMPDEST PUSH1 0x40 DUP3 ADD SWAP1 POP SWAP2 SWAP1 POP JUMP JUMPDEST PUSH1 0x0 PUSH2 0x6B4 PUSH1 0x16 DUP4 PUSH2 0x7F3 JUMP JUMPDEST SWAP2 POP PUSH2 0x6BF DUP3 PUSH2 0x8AA JUMP JUMPDEST PUSH1 0x20 DUP3 ADD SWAP1 POP SWAP2 SWAP1 POP JUMP JUMPDEST PUSH1 0x0 PUSH2 0x6D7 PUSH1 0x31 DUP4 PUSH2 0x7F3 JUMP JUMPDEST SWAP2 POP PUSH2 0x6E2 DUP3 PUSH2 0x8D3 JUMP JUMPDEST PUSH1 0x40 DUP3 ADD SWAP1 POP SWAP2 SWAP1 POP JUMP JUMPDEST PUSH2 0x6F6 DUP2 PUSH2 0x84C JUMP JUMPDEST DUP3 MSTORE POP POP JUMP JUMPDEST PUSH1 0x0 PUSH1 0x20 DUP3 ADD SWAP1 POP PUSH2 0x711 PUSH1 0x0 DUP4 ADD DUP5 PUSH2 0x657 JUMP JUMPDEST SWAP3 SWAP2 POP POP JUMP JUMPDEST PUSH1 0x0 PUSH1 0xC0 DUP3 ADD SWAP1 POP PUSH2 0x72C PUSH1 0x0 DUP4 ADD DUP10 PUSH2 0x657 JUMP JUMPDEST PUSH2 0x739 PUSH1 0x20 DUP4 ADD DUP9 PUSH2 0x6ED JUMP JUMPDEST PUSH2 0x746 PUSH1 0x40 DUP4 ADD DUP8 PUSH2 0x6ED JUMP JUMPDEST PUSH2 0x753 PUSH1 0x60 DUP4 ADD DUP7 PUSH2 0x6ED JUMP JUMPDEST PUSH2 0x760 PUSH1 0x80 DUP4 ADD DUP6 PUSH2 0x675 JUMP JUMPDEST PUSH2 0x76D PUSH1 0xA0 DUP4 ADD DUP5 PUSH2 0x6ED JUMP JUMPDEST SWAP8 SWAP7 POP POP POP POP POP POP POP JUMP JUMPDEST PUSH1 0x0 PUSH1 0x20 DUP3 ADD SWAP1 POP PUSH2 0x78D PUSH1 0x0 DUP4 ADD DUP5 PUSH2 0x666 JUMP JUMPDEST SWAP3 SWAP2 POP POP JUMP JUMPDEST PUSH1 0x0 PUSH1 0x20 DUP3 ADD SWAP1 POP DUP2 DUP2 SUB PUSH1 0x0 DUP4 ADD MSTORE PUSH2 0x7AC DUP2 PUSH2 0x684 JUMP JUMPDEST SWAP1 POP SWAP2 SWAP1 POP JUMP JUMPDEST PUSH1 0x0 PUSH1 0x20 DUP3 ADD SWAP1 POP DUP2 DUP2 SUB PUSH1 0x0 DUP4 ADD MSTORE PUSH2 0x7CC DUP2 PUSH2 0x6A7 JUMP JUMPDEST SWAP1 POP SWAP2 SWAP1 POP JUMP JUMPDEST PUSH1 0x0 PUSH1 0x20 DUP3 ADD SWAP1 POP DUP2 DUP2 SUB PUSH1 0x0 DUP4 ADD MSTORE PUSH2 0x7EC DUP2 PUSH2 0x6CA JUMP JUMPDEST SWAP1 POP SWAP2 SWAP1 POP JUMP JUMPDEST PUSH1 0x0 DUP3 DUP3 MSTORE PUSH1 0x20 DUP3 ADD SWAP1 POP SWAP3 SWAP2 POP POP JUMP JUMPDEST PUSH1 0x0 PUSH2 0x80F DUP3 PUSH2 0x82C JUMP JUMPDEST SWAP1 POP SWAP2 SWAP1 POP JUMP JUMPDEST PUSH1 0x0 DUP2 ISZERO ISZERO SWAP1 POP SWAP2 SWAP1 POP JUMP JUMPDEST PUSH1 0x0 DUP2 SWAP1 POP SWAP2 SWAP1 POP JUMP JUMPDEST PUSH1 0x0 PUSH20 0xFFFFFFFFFFFFFFFFFFFFFFFFFFFFFFFFFFFFFFFF DUP3 AND SWAP1 POP SWAP2 SWAP1 POP JUMP JUMPDEST PUSH1 0x0 DUP2 SWAP1 POP SWAP2 SWAP1 POP JUMP JUMPDEST PUSH1 0x0 DUP1 REVERT JUMPDEST PUSH32 0x546869732070726F64756365206973206E6F74206C6973746564206F6E207468 PUSH1 0x0 DUP3 ADD MSTORE PUSH32 0x65204D61726B6574000000000000000000000000000000000000000000000000 PUSH1 0x20 DUP3 ADD MSTORE POP JUMP JUMPDEST PUSH32 0x455243313136373A20637265617465206661696C656400000000000000000000 PUSH1 0x0 DUP3 ADD MSTORE POP JUMP JUMPDEST PUSH32 0x4F6E6C792070726F64756365206F776E65722063616E2072656D6F7665207072 PUSH1 0x0 DUP3 ADD MSTORE PUSH32 0x6F647563652066726F6D204D61726B6574000000000000000000000000000000 PUSH1 0x20 DUP3 ADD MSTORE POP JUMP JUMPDEST PUSH2 0x92B DUP2 PUSH2 0x804 JUMP JUMPDEST DUP2 EQ PUSH2 0x936 JUMPI PUSH1 0x0 DUP1 REVERT JUMPDEST POP JUMP JUMPDEST PUSH2 0x942 DUP2 PUSH2 0x822 JUMP JUMPDEST DUP2 EQ PUSH2 0x94D JUMPI PUSH1 0x0 DUP1 REVERT JUMPDEST POP JUMP JUMPDEST PUSH2 0x959 DUP2 PUSH2 0x84C JUMP JUMPDEST DUP2 EQ PUSH2 0x964 JUMPI PUSH1 0x0 DUP1 REVERT JUMPDEST POP JUMP INVALID LOG2 PUSH5 0x6970667358 0x22 SLT KECCAK256 0xE2 0xD SLT CREATE MOD 0x27 REVERT EQ STATICCALL LOG2 DUP3 OR 0xEF 0xCA 0xBE 0xD6 SGT 0xBD 0xC2 0xAC 0xEA PUSH4 0x8711DA9D SWAP6 PUSH8 0x185E7ACE64736F6C PUSH4 0x43000807 STOP CALLER PUSH1 0x80 PUSH1 0x40 MSTORE CALLVALUE DUP1 ISZERO PUSH2 0x10 JUMPI PUSH1 0x0 DUP1 REVERT JUMPDEST POP PUSH2 0x2D PUSH2 0x22 PUSH2 0x32 PUSH1 0x20 SHL PUSH1 0x20 SHR JUMP JUMPDEST PUSH2 0x3A PUSH1 0x20 SHL PUSH1 0x20 SHR JUMP JUMPDEST PUSH2 0xFE JUMP JUMPDEST PUSH1 0x0 CALLER SWAP1 POP SWAP1 JUMP JUMPDEST PUSH1 0x0 DUP1 PUSH1 0x0 SWAP1 SLOAD SWAP1 PUSH2 0x100 EXP SWAP1 DIV PUSH20 0xFFFFFFFFFFFFFFFFFFFFFFFFFFFFFFFFFFFFFFFF AND SWAP1 POP DUP2 PUSH1 0x0 DUP1 PUSH2 0x100 EXP DUP2 SLOAD DUP2 PUSH20 0xFFFFFFFFFFFFFFFFFFFFFFFFFFFFFFFFFFFFFFFF MUL NOT AND SWAP1 DUP4 PUSH20 0xFFFFFFFFFFFFFFFFFFFFFFFFFFFFFFFFFFFFFFFF AND MUL OR SWAP1 SSTORE POP DUP2 PUSH20 0xFFFFFFFFFFFFFFFFFFFFFFFFFFFFFFFFFFFFFFFF AND DUP2 PUSH20 0xFFFFFFFFFFFFFFFFFFFFFFFFFFFFFFFFFFFFFFFF AND PUSH32 0x8BE0079C531659141344CD1FD0A4F28419497F9722A3DAAFE3B4186F6B6457E0 PUSH1 0x40 MLOAD PUSH1 0x40 MLOAD DUP1 SWAP2 SUB SWAP1 LOG3 POP POP JUMP JUMPDEST PUSH2 0xD24 DUP1 PUSH2 0x10D PUSH1 0x0 CODECOPY PUSH1 0x0 RETURN INVALID PUSH1 0x80 PUSH1 0x40 MSTORE PUSH1 0x4 CALLDATASIZE LT PUSH2 0xA7 JUMPI PUSH1 0x0 CALLDATALOAD PUSH1 0xE0 SHR DUP1 PUSH4 0xAA8C217C GT PUSH2 0x64 JUMPI DUP1 PUSH4 0xAA8C217C EQ PUSH2 0x19A JUMPI DUP1 PUSH4 0xC8DDE807 EQ PUSH2 0x1C5 JUMPI DUP1 PUSH4 0xD32DACC1 EQ PUSH2 0x1EE JUMPI DUP1 PUSH4 0xD811FCF0 EQ PUSH2 0x219 JUMPI DUP1 PUSH4 0xF2FDE38B EQ PUSH2 0x244 JUMPI DUP1 PUSH4 0xF5C609E0 EQ PUSH2 0x26D JUMPI PUSH2 0xA7 JUMP JUMPDEST DUP1 PUSH4 0x6FDDE03 EQ PUSH2 0xAC JUMPI DUP1 PUSH4 0x530D124E EQ PUSH2 0xD7 JUMPI DUP1 PUSH4 0x6D86B8A5 EQ PUSH2 0x102 JUMPI DUP1 PUSH4 0x715018A6 EQ PUSH2 0x12D JUMPI DUP1 PUSH4 0x8DA5CB5B EQ PUSH2 0x144 JUMPI DUP1 PUSH4 0xA035B1FE EQ PUSH2 0x16F JUMPI JUMPDEST PUSH1 0x0 DUP1 REVERT JUMPDEST CALLVALUE DUP1 ISZERO PUSH2 0xB8 JUMPI PUSH1 0x0 DUP1 REVERT JUMPDEST POP PUSH2 0xC1 PUSH2 0x277 JUMP JUMPDEST PUSH1 0x40 MLOAD PUSH2 0xCE SWAP2 SWAP1 PUSH2 0x9D8 JUMP JUMPDEST PUSH1 0x40 MLOAD DUP1 SWAP2 SUB SWAP1 RETURN JUMPDEST CALLVALUE DUP1 ISZERO PUSH2 0xE3 JUMPI PUSH1 0x0 DUP1 REVERT JUMPDEST POP PUSH2 0xEC PUSH2 0x27D JUMP JUMPDEST PUSH1 0x40 MLOAD PUSH2 0xF9 SWAP2 SWAP1 PUSH2 0x9D8 JUMP JUMPDEST PUSH1 0x40 MLOAD DUP1 SWAP2 SUB SWAP1 RETURN JUMPDEST CALLVALUE DUP1 ISZERO PUSH2 0x10E JUMPI PUSH1 0x0 DUP1 REVERT JUMPDEST POP PUSH2 0x117 PUSH2 0x283 JUMP JUMPDEST PUSH1 0x40 MLOAD PUSH2 0x124 SWAP2 SWAP1 PUSH2 0x9D8 JUMP JUMPDEST PUSH1 0x40 MLOAD DUP1 SWAP2 SUB SWAP1 RETURN JUMPDEST CALLVALUE DUP1 ISZERO PUSH2 0x139 JUMPI PUSH1 0x0 DUP1 REVERT JUMPDEST POP PUSH2 0x142 PUSH2 0x289 JUMP JUMPDEST STOP JUMPDEST CALLVALUE DUP1 ISZERO PUSH2 0x150 JUMPI PUSH1 0x0 DUP1 REVERT JUMPDEST POP PUSH2 0x159 PUSH2 0x29D JUMP JUMPDEST PUSH1 0x40 MLOAD PUSH2 0x166 SWAP2 SWAP1 PUSH2 0x902 JUMP JUMPDEST PUSH1 0x40 MLOAD DUP1 SWAP2 SUB SWAP1 RETURN JUMPDEST CALLVALUE DUP1 ISZERO PUSH2 0x17B JUMPI PUSH1 0x0 DUP1 REVERT JUMPDEST POP PUSH2 0x184 PUSH2 0x2C6 JUMP JUMPDEST PUSH1 0x40 MLOAD PUSH2 0x191 SWAP2 SWAP1 PUSH2 0x9D8 JUMP JUMPDEST PUSH1 0x40 MLOAD DUP1 SWAP2 SUB SWAP1 RETURN JUMPDEST CALLVALUE DUP1 ISZERO PUSH2 0x1A6 JUMPI PUSH1 0x0 DUP1 REVERT JUMPDEST POP PUSH2 0x1AF PUSH2 0x2CC JUMP JUMPDEST PUSH1 0x40 MLOAD PUSH2 0x1BC SWAP2 SWAP1 PUSH2 0x91D JUMP JUMPDEST PUSH1 0x40 MLOAD DUP1 SWAP2 SUB SWAP1 RETURN JUMPDEST CALLVALUE DUP1 ISZERO PUSH2 0x1D1 JUMPI PUSH1 0x0 DUP1 REVERT JUMPDEST POP PUSH2 0x1EC PUSH1 0x4 DUP1 CALLDATASIZE SUB DUP2 ADD SWAP1 PUSH2 0x1E7 SWAP2 SWAP1 PUSH2 0x799 JUMP JUMPDEST PUSH2 0x2D2 JUMP JUMPDEST STOP JUMPDEST CALLVALUE DUP1 ISZERO PUSH2 0x1FA JUMPI PUSH1 0x0 DUP1 REVERT JUMPDEST POP PUSH2 0x203 PUSH2 0x306 JUMP JUMPDEST PUSH1 0x40 MLOAD PUSH2 0x210 SWAP2 SWAP1 PUSH2 0x902 JUMP JUMPDEST PUSH1 0x40 MLOAD DUP1 SWAP2 SUB SWAP1 RETURN JUMPDEST CALLVALUE DUP1 ISZERO PUSH2 0x225 JUMPI PUSH1 0x0 DUP1 REVERT JUMPDEST POP PUSH2 0x22E PUSH2 0x3FA JUMP JUMPDEST PUSH1 0x40 MLOAD PUSH2 0x23B SWAP2 SWAP1 PUSH2 0x902 JUMP JUMPDEST PUSH1 0x40 MLOAD DUP1 SWAP2 SUB SWAP1 RETURN JUMPDEST CALLVALUE DUP1 ISZERO PUSH2 0x250 JUMPI PUSH1 0x0 DUP1 REVERT JUMPDEST POP PUSH2 0x26B PUSH1 0x4 DUP1 CALLDATASIZE SUB DUP2 ADD SWAP1 PUSH2 0x266 SWAP2 SWAP1 PUSH2 0x76C JUMP JUMPDEST PUSH2 0x420 JUMP JUMPDEST STOP JUMPDEST PUSH2 0x275 PUSH2 0x4A4 JUMP JUMPDEST STOP JUMPDEST PUSH1 0x4 SLOAD DUP2 JUMP JUMPDEST PUSH1 0x3 SLOAD DUP2 JUMP JUMPDEST PUSH1 0x6 SLOAD DUP2 JUMP JUMPDEST PUSH2 0x291 PUSH2 0x5E3 JUMP JUMPDEST PUSH2 0x29B PUSH1 0x0 PUSH2 0x661 JUMP JUMPDEST JUMP JUMPDEST PUSH1 0x0 DUP1 PUSH1 0x0 SWAP1 SLOAD SWAP1 PUSH2 0x100 EXP SWAP1 DIV PUSH20 0xFFFFFFFFFFFFFFFFFFFFFFFFFFFFFFFFFFFFFFFF AND SWAP1 POP SWAP1 JUMP JUMPDEST PUSH1 0x5 SLOAD DUP2 JUMP JUMPDEST PUSH1 0x7 SLOAD DUP2 JUMP JUMPDEST PUSH2 0x2DB DUP7 PUSH2 0x661 JUMP JUMPDEST DUP1 PUSH1 0x3 DUP2 SWAP1 SSTORE POP DUP5 PUSH1 0x4 DUP2 SWAP1 SSTORE POP DUP4 PUSH1 0x5 DUP2 SWAP1 SSTORE POP DUP3 PUSH1 0x6 DUP2 SWAP1 SSTORE POP DUP2 PUSH1 0x7 DUP2 SWAP1 SSTORE POP POP POP POP POP POP POP JUMP JUMPDEST PUSH1 0x0 PUSH2 0x310 PUSH2 0x5E3 JUMP JUMPDEST PUSH1 0x0 PUSH1 0x2 DUP1 SLOAD SWAP1 POP GT PUSH2 0x358 JUMPI PUSH1 0x40 MLOAD PUSH32 0x8C379A000000000000000000000000000000000000000000000000000000000 DUP2 MSTORE PUSH1 0x4 ADD PUSH2 0x34F SWAP1 PUSH2 0x9B8 JUMP JUMPDEST PUSH1 0x40 MLOAD DUP1 SWAP2 SUB SWAP1 REVERT JUMPDEST PUSH1 0x0 PUSH1 0x2 PUSH1 0x1 PUSH1 0x2 DUP1 SLOAD SWAP1 POP PUSH2 0x36E SWAP2 SWAP1 PUSH2 0xA5E JUMP JUMPDEST DUP2 SLOAD DUP2 LT PUSH2 0x37F JUMPI PUSH2 0x37E PUSH2 0xB36 JUMP JUMPDEST JUMPDEST SWAP1 PUSH1 0x0 MSTORE PUSH1 0x20 PUSH1 0x0 KECCAK256 ADD PUSH1 0x0 SWAP1 SLOAD SWAP1 PUSH2 0x100 EXP SWAP1 DIV PUSH20 0xFFFFFFFFFFFFFFFFFFFFFFFFFFFFFFFFFFFFFFFF AND SWAP1 POP PUSH1 0x2 DUP1 SLOAD DUP1 PUSH2 0x3BE JUMPI PUSH2 0x3BD PUSH2 0xB07 JUMP JUMPDEST JUMPDEST PUSH1 0x1 SWAP1 SUB DUP2 DUP2 SWAP1 PUSH1 0x0 MSTORE PUSH1 0x20 PUSH1 0x0 KECCAK256 ADD PUSH1 0x0 PUSH2 0x100 EXP DUP2 SLOAD SWAP1 PUSH20 0xFFFFFFFFFFFFFFFFFFFFFFFFFFFFFFFFFFFFFFFF MUL NOT AND SWAP1 SSTORE SWAP1 SSTORE DUP1 SWAP2 POP POP SWAP1 JUMP JUMPDEST PUSH1 0x1 PUSH1 0x0 SWAP1 SLOAD SWAP1 PUSH2 0x100 EXP SWAP1 DIV PUSH20 0xFFFFFFFFFFFFFFFFFFFFFFFFFFFFFFFFFFFFFFFF AND DUP2 JUMP JUMPDEST PUSH2 0x428 PUSH2 0x5E3 JUMP JUMPDEST PUSH1 0x0 PUSH20 0xFFFFFFFFFFFFFFFFFFFFFFFFFFFFFFFFFFFFFFFF AND DUP2 PUSH20 0xFFFFFFFFFFFFFFFFFFFFFFFFFFFFFFFFFFFFFFFF AND EQ ISZERO PUSH2 0x498 JUMPI PUSH1 0x40 MLOAD PUSH32 0x8C379A000000000000000000000000000000000000000000000000000000000 DUP2 MSTORE PUSH1 0x4 ADD PUSH2 0x48F SWAP1 PUSH2 0x958 JUMP JUMPDEST PUSH1 0x40 MLOAD DUP1 SWAP2 SUB SWAP1 REVERT JUMPDEST PUSH2 0x4A1 DUP2 PUSH2 0x661 JUMP JUMPDEST POP JUMP JUMPDEST PUSH2 0x4AC PUSH2 0x29D JUMP JUMPDEST PUSH20 0xFFFFFFFFFFFFFFFFFFFFFFFFFFFFFFFFFFFFFFFF AND CALLER PUSH20 0xFFFFFFFFFFFFFFFFFFFFFFFFFFFFFFFFFFFFFFFF AND EQ ISZERO PUSH2 0x51A JUMPI PUSH1 0x40 MLOAD PUSH32 0x8C379A000000000000000000000000000000000000000000000000000000000 DUP2 MSTORE PUSH1 0x4 ADD PUSH2 0x511 SWAP1 PUSH2 0x978 JUMP JUMPDEST PUSH1 0x40 MLOAD DUP1 SWAP2 SUB SWAP1 REVERT JUMPDEST PUSH1 0x5 SLOAD PUSH1 0x6 SLOAD PUSH2 0x52A SWAP2 SWAP1 PUSH2 0xA04 JUMP JUMPDEST CALLVALUE EQ PUSH2 0x56B JUMPI PUSH1 0x40 MLOAD PUSH32 0x8C379A000000000000000000000000000000000000000000000000000000000 DUP2 MSTORE PUSH1 0x4 ADD PUSH2 0x562 SWAP1 PUSH2 0x938 JUMP JUMPDEST PUSH1 0x40 MLOAD DUP1 SWAP2 SUB SWAP1 REVERT JUMPDEST PUSH1 0x3 SLOAD PUSH1 0x2 DUP1 SLOAD SWAP1 POP LT PUSH2 0x57E JUMPI PUSH1 0x0 DUP1 REVERT JUMPDEST PUSH1 0x2 CALLER SWAP1 DUP1 PUSH1 0x1 DUP2 SLOAD ADD DUP1 DUP3 SSTORE DUP1 SWAP2 POP POP PUSH1 0x1 SWAP1 SUB SWAP1 PUSH1 0x0 MSTORE PUSH1 0x20 PUSH1 0x0 KECCAK256 ADD PUSH1 0x0 SWAP1 SWAP2 SWAP1 SWAP2 SWAP1 SWAP2 PUSH2 0x100 EXP DUP2 SLOAD DUP2 PUSH20 0xFFFFFFFFFFFFFFFFFFFFFFFFFFFFFFFFFFFFFFFF MUL NOT AND SWAP1 DUP4 PUSH20 0xFFFFFFFFFFFFFFFFFFFFFFFFFFFFFFFFFFFFFFFF AND MUL OR SWAP1 SSTORE POP JUMP JUMPDEST PUSH2 0x5EB PUSH2 0x725 JUMP JUMPDEST PUSH20 0xFFFFFFFFFFFFFFFFFFFFFFFFFFFFFFFFFFFFFFFF AND PUSH2 0x609 PUSH2 0x29D JUMP JUMPDEST PUSH20 0xFFFFFFFFFFFFFFFFFFFFFFFFFFFFFFFFFFFFFFFF AND EQ PUSH2 0x65F JUMPI PUSH1 0x40 MLOAD PUSH32 0x8C379A000000000000000000000000000000000000000000000000000000000 DUP2 MSTORE PUSH1 0x4 ADD PUSH2 0x656 SWAP1 PUSH2 0x998 JUMP JUMPDEST PUSH1 0x40 MLOAD DUP1 SWAP2 SUB SWAP1 REVERT JUMPDEST JUMP JUMPDEST PUSH1 0x0 DUP1 PUSH1 0x0 SWAP1 SLOAD SWAP1 PUSH2 0x100 EXP SWAP1 DIV PUSH20 0xFFFFFFFFFFFFFFFFFFFFFFFFFFFFFFFFFFFFFFFF AND SWAP1 POP DUP2 PUSH1 0x0 DUP1 PUSH2 0x100 EXP DUP2 SLOAD DUP2 PUSH20 0xFFFFFFFFFFFFFFFFFFFFFFFFFFFFFFFFFFFFFFFF MUL NOT AND SWAP1 DUP4 PUSH20 0xFFFFFFFFFFFFFFFFFFFFFFFFFFFFFFFFFFFFFFFF AND MUL OR SWAP1 SSTORE POP DUP2 PUSH20 0xFFFFFFFFFFFFFFFFFFFFFFFFFFFFFFFFFFFFFFFF AND DUP2 PUSH20 0xFFFFFFFFFFFFFFFFFFFFFFFFFFFFFFFFFFFFFFFF AND PUSH32 0x8BE0079C531659141344CD1FD0A4F28419497F9722A3DAAFE3B4186F6B6457E0 PUSH1 0x40 MLOAD PUSH1 0x40 MLOAD DUP1 SWAP2 SUB SWAP1 LOG3 POP POP JUMP JUMPDEST PUSH1 0x0 CALLER SWAP1 POP SWAP1 JUMP JUMPDEST PUSH1 0x0 DUP2 CALLDATALOAD SWAP1 POP PUSH2 0x73C DUP2 PUSH2 0xCA9 JUMP JUMPDEST SWAP3 SWAP2 POP POP JUMP JUMPDEST PUSH1 0x0 DUP2 CALLDATALOAD SWAP1 POP PUSH2 0x751 DUP2 PUSH2 0xCC0 JUMP JUMPDEST SWAP3 SWAP2 POP POP JUMP JUMPDEST PUSH1 0x0 DUP2 CALLDATALOAD SWAP1 POP PUSH2 0x766 DUP2 PUSH2 0xCD7 JUMP JUMPDEST SWAP3 SWAP2 POP POP JUMP JUMPDEST PUSH1 0x0 PUSH1 0x20 DUP3 DUP5 SUB SLT ISZERO PUSH2 0x782 JUMPI PUSH2 0x781 PUSH2 0xB65 JUMP JUMPDEST JUMPDEST PUSH1 0x0 PUSH2 0x790 DUP5 DUP3 DUP6 ADD PUSH2 0x72D JUMP JUMPDEST SWAP2 POP POP SWAP3 SWAP2 POP POP JUMP JUMPDEST PUSH1 0x0 DUP1 PUSH1 0x0 DUP1 PUSH1 0x0 DUP1 PUSH1 0xC0 DUP8 DUP10 SUB SLT ISZERO PUSH2 0x7B6 JUMPI PUSH2 0x7B5 PUSH2 0xB65 JUMP JUMPDEST JUMPDEST PUSH1 0x0 PUSH2 0x7C4 DUP10 DUP3 DUP11 ADD PUSH2 0x72D JUMP JUMPDEST SWAP7 POP POP PUSH1 0x20 PUSH2 0x7D5 DUP10 DUP3 DUP11 ADD PUSH2 0x757 JUMP JUMPDEST SWAP6 POP POP PUSH1 0x40 PUSH2 0x7E6 DUP10 DUP3 DUP11 ADD PUSH2 0x757 JUMP JUMPDEST SWAP5 POP POP PUSH1 0x60 PUSH2 0x7F7 DUP10 DUP3 DUP11 ADD PUSH2 0x757 JUMP JUMPDEST SWAP4 POP POP PUSH1 0x80 PUSH2 0x808 DUP10 DUP3 DUP11 ADD PUSH2 0x742 JUMP JUMPDEST SWAP3 POP POP PUSH1 0xA0 PUSH2 0x819 DUP10 DUP3 DUP11 ADD PUSH2 0x757 JUMP JUMPDEST SWAP2 POP POP SWAP3 SWAP6 POP SWAP3 SWAP6 POP SWAP3 SWAP6 JUMP JUMPDEST PUSH2 0x82F DUP2 PUSH2 0xA92 JUMP JUMPDEST DUP3 MSTORE POP POP JUMP JUMPDEST PUSH2 0x83E DUP2 PUSH2 0xAA4 JUMP JUMPDEST DUP3 MSTORE POP POP JUMP JUMPDEST PUSH1 0x0 PUSH2 0x851 PUSH1 0x27 DUP4 PUSH2 0x9F3 JUMP JUMPDEST SWAP2 POP PUSH2 0x85C DUP3 PUSH2 0xB6A JUMP JUMPDEST PUSH1 0x40 DUP3 ADD SWAP1 POP SWAP2 SWAP1 POP JUMP JUMPDEST PUSH1 0x0 PUSH2 0x874 PUSH1 0x26 DUP4 PUSH2 0x9F3 JUMP JUMPDEST SWAP2 POP PUSH2 0x87F DUP3 PUSH2 0xBB9 JUMP JUMPDEST PUSH1 0x40 DUP3 ADD SWAP1 POP SWAP2 SWAP1 POP JUMP JUMPDEST PUSH1 0x0 PUSH2 0x897 PUSH1 0x2F DUP4 PUSH2 0x9F3 JUMP JUMPDEST SWAP2 POP PUSH2 0x8A2 DUP3 PUSH2 0xC08 JUMP JUMPDEST PUSH1 0x40 DUP3 ADD SWAP1 POP SWAP2 SWAP1 POP JUMP JUMPDEST PUSH1 0x0 PUSH2 0x8BA PUSH1 0x20 DUP4 PUSH2 0x9F3 JUMP JUMPDEST SWAP2 POP PUSH2 0x8C5 DUP3 PUSH2 0xC57 JUMP JUMPDEST PUSH1 0x20 DUP3 ADD SWAP1 POP SWAP2 SWAP1 POP JUMP JUMPDEST PUSH1 0x0 PUSH2 0x8DD PUSH1 0x11 DUP4 PUSH2 0x9F3 JUMP JUMPDEST SWAP2 POP PUSH2 0x8E8 DUP3 PUSH2 0xC80 JUMP JUMPDEST PUSH1 0x20 DUP3 ADD SWAP1 POP SWAP2 SWAP1 POP JUMP JUMPDEST PUSH2 0x8FC DUP2 PUSH2 0xACE JUMP JUMPDEST DUP3 MSTORE POP POP JUMP JUMPDEST PUSH1 0x0 PUSH1 0x20 DUP3 ADD SWAP1 POP PUSH2 0x917 PUSH1 0x0 DUP4 ADD DUP5 PUSH2 0x826 JUMP JUMPDEST SWAP3 SWAP2 POP POP JUMP JUMPDEST PUSH1 0x0 PUSH1 0x20 DUP3 ADD SWAP1 POP PUSH2 0x932 PUSH1 0x0 DUP4 ADD DUP5 PUSH2 0x835 JUMP JUMPDEST SWAP3 SWAP2 POP POP JUMP JUMPDEST PUSH1 0x0 PUSH1 0x20 DUP3 ADD SWAP1 POP DUP2 DUP2 SUB PUSH1 0x0 DUP4 ADD MSTORE PUSH2 0x951 DUP2 PUSH2 0x844 JUMP JUMPDEST SWAP1 POP SWAP2 SWAP1 POP JUMP JUMPDEST PUSH1 0x0 PUSH1 0x20 DUP3 ADD SWAP1 POP DUP2 DUP2 SUB PUSH1 0x0 DUP4 ADD MSTORE PUSH2 0x971 DUP2 PUSH2 0x867 JUMP JUMPDEST SWAP1 POP SWAP2 SWAP1 POP JUMP JUMPDEST PUSH1 0x0 PUSH1 0x20 DUP3 ADD SWAP1 POP DUP2 DUP2 SUB PUSH1 0x0 DUP4 ADD MSTORE PUSH2 0x991 DUP2 PUSH2 0x88A JUMP JUMPDEST SWAP1 POP SWAP2 SWAP1 POP JUMP JUMPDEST PUSH1 0x0 PUSH1 0x20 DUP3 ADD SWAP1 POP DUP2 DUP2 SUB PUSH1 0x0 DUP4 ADD MSTORE PUSH2 0x9B1 DUP2 PUSH2 0x8AD JUMP JUMPDEST SWAP1 POP SWAP2 SWAP1 POP JUMP JUMPDEST PUSH1 0x0 PUSH1 0x20 DUP3 ADD SWAP1 POP DUP2 DUP2 SUB PUSH1 0x0 DUP4 ADD MSTORE PUSH2 0x9D1 DUP2 PUSH2 0x8D0 JUMP JUMPDEST SWAP1 POP SWAP2 SWAP1 POP JUMP JUMPDEST PUSH1 0x0 PUSH1 0x20 DUP3 ADD SWAP1 POP PUSH2 0x9ED PUSH1 0x0 DUP4 ADD DUP5 PUSH2 0x8F3 JUMP JUMPDEST SWAP3 SWAP2 POP POP JUMP JUMPDEST PUSH1 0x0 DUP3 DUP3 MSTORE PUSH1 0x20 DUP3 ADD SWAP1 POP SWAP3 SWAP2 POP POP JUMP JUMPDEST PUSH1 0x0 PUSH2 0xA0F DUP3 PUSH2 0xACE JUMP JUMPDEST SWAP2 POP PUSH2 0xA1A DUP4 PUSH2 0xACE JUMP JUMPDEST SWAP3 POP DUP2 PUSH32 0xFFFFFFFFFFFFFFFFFFFFFFFFFFFFFFFFFFFFFFFFFFFFFFFFFFFFFFFFFFFFFFFF DIV DUP4 GT DUP3 ISZERO ISZERO AND ISZERO PUSH2 0xA53 JUMPI PUSH2 0xA52 PUSH2 0xAD8 JUMP JUMPDEST JUMPDEST DUP3 DUP3 MUL SWAP1 POP SWAP3 SWAP2 POP POP JUMP JUMPDEST PUSH1 0x0 PUSH2 0xA69 DUP3 PUSH2 0xACE JUMP JUMPDEST SWAP2 POP PUSH2 0xA74 DUP4 PUSH2 0xACE JUMP JUMPDEST SWAP3 POP DUP3 DUP3 LT ISZERO PUSH2 0xA87 JUMPI PUSH2 0xA86 PUSH2 0xAD8 JUMP JUMPDEST JUMPDEST DUP3 DUP3 SUB SWAP1 POP SWAP3 SWAP2 POP POP JUMP JUMPDEST PUSH1 0x0 PUSH2 0xA9D DUP3 PUSH2 0xAAE JUMP JUMPDEST SWAP1 POP SWAP2 SWAP1 POP JUMP JUMPDEST PUSH1 0x0 DUP2 SWAP1 POP SWAP2 SWAP1 POP JUMP JUMPDEST PUSH1 0x0 PUSH20 0xFFFFFFFFFFFFFFFFFFFFFFFFFFFFFFFFFFFFFFFF DUP3 AND SWAP1 POP SWAP2 SWAP1 POP JUMP JUMPDEST PUSH1 0x0 DUP2 SWAP1 POP SWAP2 SWAP1 POP JUMP JUMPDEST PUSH32 0x4E487B7100000000000000000000000000000000000000000000000000000000 PUSH1 0x0 MSTORE PUSH1 0x11 PUSH1 0x4 MSTORE PUSH1 0x24 PUSH1 0x0 REVERT JUMPDEST PUSH32 0x4E487B7100000000000000000000000000000000000000000000000000000000 PUSH1 0x0 MSTORE PUSH1 0x31 PUSH1 0x4 MSTORE PUSH1 0x24 PUSH1 0x0 REVERT JUMPDEST PUSH32 0x4E487B7100000000000000000000000000000000000000000000000000000000 PUSH1 0x0 MSTORE PUSH1 0x32 PUSH1 0x4 MSTORE PUSH1 0x24 PUSH1 0x0 REVERT JUMPDEST PUSH1 0x0 DUP1 REVERT JUMPDEST PUSH32 0x6F72646572206D757374206265206F6620636F72726563742073697A6520616E PUSH1 0x0 DUP3 ADD MSTORE PUSH32 0x6420707269636500000000000000000000000000000000000000000000000000 PUSH1 0x20 DUP3 ADD MSTORE POP JUMP JUMPDEST PUSH32 0x4F776E61626C653A206E6577206F776E657220697320746865207A65726F2061 PUSH1 0x0 DUP3 ADD MSTORE PUSH32 0x6464726573730000000000000000000000000000000000000000000000000000 PUSH1 0x20 DUP3 ADD MSTORE POP JUMP JUMPDEST PUSH32 0x6661726D65722063616E6E6F7420706C616365206F7264657220666F72207468 PUSH1 0x0 DUP3 ADD MSTORE PUSH32 0x656972206F776E2070726F647563650000000000000000000000000000000000 PUSH1 0x20 DUP3 ADD MSTORE POP JUMP JUMPDEST PUSH32 0x4F776E61626C653A2063616C6C6572206973206E6F7420746865206F776E6572 PUSH1 0x0 DUP3 ADD MSTORE POP JUMP JUMPDEST PUSH32 0x4E6F206F726465727320746F2074616B65000000000000000000000000000000 PUSH1 0x0 DUP3 ADD MSTORE POP JUMP JUMPDEST PUSH2 0xCB2 DUP2 PUSH2 0xA92 JUMP JUMPDEST DUP2 EQ PUSH2 0xCBD JUMPI PUSH1 0x0 DUP1 REVERT JUMPDEST POP JUMP JUMPDEST PUSH2 0xCC9 DUP2 PUSH2 0xAA4 JUMP JUMPDEST DUP2 EQ PUSH2 0xCD4 JUMPI PUSH1 0x0 DUP1 REVERT JUMPDEST POP JUMP JUMPDEST PUSH2 0xCE0 DUP2 PUSH2 0xACE JUMP JUMPDEST DUP2 EQ PUSH2 0xCEB JUMPI PUSH1 0x0 DUP1 REVERT JUMPDEST POP JUMP INVALID LOG2 PUSH5 0x6970667358 0x22 SLT KECCAK256 0xD2 0x24 OR MSTORE8 PUSH26 0x19A5B6D0B03C93A6E57ADD9D0EFB4A096DB01587E394631F3AE5 DUP4 PUSH5 0x736F6C6343 STOP ADDMOD SMOD STOP CALLER "
				},
				"gasEstimates": {
					"creation": {
						"codeDepositCost": "492200",
						"executionCost": "infinite",
						"totalCost": "infinite"
					},
					"external": {
						"addProduce(uint256,uint256,uint256,bytes32,uint256)": "infinite",
						"farmerList(address)": "2867",
						"removeProduce(address)": "infinite"
					}
				},
				"methodIdentifiers": {
					"addProduce(uint256,uint256,uint256,bytes32,uint256)": "594659f5",
					"farmerList(address)": "a1d861a9",
					"removeProduce(address)": "7b6833c3"
				}
			},
			"storageLayout": {
				"storage": [
					{
						"astId": 422,
						"contract": "contracts/Market.sol:Market",
						"label": "produceAddresses",
						"offset": 0,
						"slot": "0",
						"type": "t_array(t_address)dyn_storage"
					},
					{
						"astId": 426,
						"contract": "contracts/Market.sol:Market",
						"label": "produceList",
						"offset": 0,
						"slot": "1",
						"type": "t_mapping(t_address,t_bool)"
					},
					{
						"astId": 430,
						"contract": "contracts/Market.sol:Market",
						"label": "farmerList",
						"offset": 0,
						"slot": "2",
						"type": "t_mapping(t_address,t_bool)"
					}
				],
				"types": {
					"t_address": {
						"encoding": "inplace",
						"label": "address",
						"numberOfBytes": "20"
					},
					"t_array(t_address)dyn_storage": {
						"base": "t_address",
						"encoding": "dynamic_array",
						"label": "address[]",
						"numberOfBytes": "32"
					},
					"t_bool": {
						"encoding": "inplace",
						"label": "bool",
						"numberOfBytes": "1"
					},
					"t_mapping(t_address,t_bool)": {
						"encoding": "mapping",
						"key": "t_address",
						"label": "mapping(address => bool)",
						"numberOfBytes": "32",
						"value": "t_bool"
					}
				}
			},
			"userdoc": {
				"kind": "user",
				"methods": {},
				"version": 1
			}
		}
	}
}