{
	"contracts/Produce.sol": {
		"Produce": {
			"abi": [
				{
					"inputs": [],
					"stateMutability": "nonpayable",
					"type": "constructor"
				},
				{
					"anonymous": false,
					"inputs": [
						{
							"indexed": true,
							"internalType": "address",
							"name": "previousOwner",
							"type": "address"
						},
						{
							"indexed": true,
							"internalType": "address",
							"name": "newOwner",
							"type": "address"
						}
					],
					"name": "OwnershipTransferred",
					"type": "event"
				},
				{
					"inputs": [],
					"name": "amount",
					"outputs": [
						{
							"internalType": "bytes32",
							"name": "",
							"type": "bytes32"
						}
					],
					"stateMutability": "view",
					"type": "function"
				},
				{
					"inputs": [],
					"name": "farmer",
					"outputs": [
						{
							"internalType": "address",
							"name": "",
							"type": "address"
						}
					],
					"stateMutability": "view",
					"type": "function"
				},
				{
					"inputs": [
						{
							"internalType": "address",
							"name": "_farmer",
							"type": "address"
						},
						{
							"internalType": "uint256",
							"name": "_name",
							"type": "uint256"
						},
						{
							"internalType": "uint256",
							"name": "_price",
							"type": "uint256"
						},
						{
							"internalType": "uint256",
							"name": "_orderSize",
							"type": "uint256"
						},
						{
							"internalType": "bytes32",
							"name": "_amount",
							"type": "bytes32"
						},
						{
							"internalType": "uint256",
							"name": "_limitOnPendingOrders",
							"type": "uint256"
						}
					],
					"name": "initilize",
					"outputs": [],
					"stateMutability": "nonpayable",
					"type": "function"
				},
				{
					"inputs": [],
					"name": "limitOnPendingOrders",
					"outputs": [
						{
							"internalType": "uint256",
							"name": "",
							"type": "uint256"
						}
					],
					"stateMutability": "view",
					"type": "function"
				},
				{
					"inputs": [],
					"name": "name",
					"outputs": [
						{
							"internalType": "uint256",
							"name": "",
							"type": "uint256"
						}
					],
					"stateMutability": "view",
					"type": "function"
				},
				{
					"inputs": [],
					"name": "orderSize",
					"outputs": [
						{
							"internalType": "uint256",
							"name": "",
							"type": "uint256"
						}
					],
					"stateMutability": "view",
					"type": "function"
				},
				{
					"inputs": [],
					"name": "owner",
					"outputs": [
						{
							"internalType": "address",
							"name": "",
							"type": "address"
						}
					],
					"stateMutability": "view",
					"type": "function"
				},
				{
					"inputs": [],
					"name": "placeOrder",
					"outputs": [],
					"stateMutability": "payable",
					"type": "function"
				},
				{
					"inputs": [],
					"name": "price",
					"outputs": [
						{
							"internalType": "uint256",
							"name": "",
							"type": "uint256"
						}
					],
					"stateMutability": "view",
					"type": "function"
				},
				{
					"inputs": [],
					"name": "renounceOwnership",
					"outputs": [],
					"stateMutability": "nonpayable",
					"type": "function"
				},
				{
					"inputs": [],
					"name": "takeOrder",
					"outputs": [
						{
							"internalType": "address",
							"name": "order",
							"type": "address"
						}
					],
					"stateMutability": "nonpayable",
					"type": "function"
				},
				{
					"inputs": [
						{
							"internalType": "address",
							"name": "newOwner",
							"type": "address"
						}
					],
					"name": "transferOwnership",
					"outputs": [],
					"stateMutability": "nonpayable",
					"type": "function"
				}
			],
			"devdoc": {
				"kind": "dev",
				"methods": {
					"owner()": {
						"details": "Returns the address of the current owner."
					},
					"renounceOwnership()": {
						"details": "Leaves the contract without owner. It will not be possible to call `onlyOwner` functions anymore. Can only be called by the current owner. NOTE: Renouncing ownership will leave the contract without an owner, thereby removing any functionality that is only available to the owner."
					},
					"transferOwnership(address)": {
						"details": "Transfers ownership of the contract to a new account (`newOwner`). Can only be called by the current owner."
					}
				},
				"version": 1
			},
			"evm": {
				"assembly": "    /* \"contracts/Produce.sol\":140:1800  contract Produce is Ownable{... */\n  mstore(0x40, 0x80)\n    /* \"contracts/Produce.sol\":472:530  constructor() {... */\n  callvalue\n  dup1\n  iszero\n  tag_1\n  jumpi\n  0x00\n  dup1\n  revert\ntag_1:\n  pop\n    /* \"@openzeppelin/contracts/access/Ownable.sol\":936:968  _transferOwnership(_msgSender()) */\n  tag_5\n    /* \"@openzeppelin/contracts/access/Ownable.sol\":955:967  _msgSender() */\n  tag_6\n    /* \"@openzeppelin/contracts/access/Ownable.sol\":955:965  _msgSender */\n  shl(0x20, tag_7)\n    /* \"@openzeppelin/contracts/access/Ownable.sol\":955:967  _msgSender() */\n  0x20\n  shr\n  jump\t// in\ntag_6:\n    /* \"@openzeppelin/contracts/access/Ownable.sol\":936:954  _transferOwnership */\n  shl(0x20, tag_8)\n    /* \"@openzeppelin/contracts/access/Ownable.sol\":936:968  _transferOwnership(_msgSender()) */\n  0x20\n  shr\n  jump\t// in\ntag_5:\n    /* \"contracts/Produce.sol\":504:523  State.UNINITIALIZED */\n  0x00\n    /* \"contracts/Produce.sol\":496:501  state */\n  0x08\n  0x00\n    /* \"contracts/Produce.sol\":496:523  state = State.UNINITIALIZED */\n  0x0100\n  exp\n  dup2\n  sload\n  dup2\n  0xff\n  mul\n  not\n  and\n  swap1\n  dup4\n  0x01\n  dup2\n  gt\n  iszero\n  tag_10\n  jumpi\n  tag_11\n  tag_12\n  jump\t// in\ntag_11:\ntag_10:\n  mul\n  or\n  swap1\n  sstore\n  pop\n    /* \"contracts/Produce.sol\":140:1800  contract Produce is Ownable{... */\n  jump(tag_13)\n    /* \"@openzeppelin/contracts/utils/Context.sol\":640:736  function _msgSender() internal view virtual returns (address) {... */\ntag_7:\n    /* \"@openzeppelin/contracts/utils/Context.sol\":693:700  address */\n  0x00\n    /* \"@openzeppelin/contracts/utils/Context.sol\":719:729  msg.sender */\n  caller\n    /* \"@openzeppelin/contracts/utils/Context.sol\":712:729  return msg.sender */\n  swap1\n  pop\n    /* \"@openzeppelin/contracts/utils/Context.sol\":640:736  function _msgSender() internal view virtual returns (address) {... */\n  swap1\n  jump\t// out\n    /* \"@openzeppelin/contracts/access/Ownable.sol\":2433:2620  function _transferOwnership(address newOwner) internal virtual {... */\ntag_8:\n    /* \"@openzeppelin/contracts/access/Ownable.sol\":2506:2522  address oldOwner */\n  0x00\n    /* \"@openzeppelin/contracts/access/Ownable.sol\":2525:2531  _owner */\n  dup1\n  0x00\n  swap1\n  sload\n  swap1\n  0x0100\n  exp\n  swap1\n  div\n  0xffffffffffffffffffffffffffffffffffffffff\n  and\n    /* \"@openzeppelin/contracts/access/Ownable.sol\":2506:2531  address oldOwner = _owner */\n  swap1\n  pop\n    /* \"@openzeppelin/contracts/access/Ownable.sol\":2550:2558  newOwner */\n  dup2\n    /* \"@openzeppelin/contracts/access/Ownable.sol\":2541:2547  _owner */\n  0x00\n  dup1\n    /* \"@openzeppelin/contracts/access/Ownable.sol\":2541:2558  _owner = newOwner */\n  0x0100\n  exp\n  dup2\n  sload\n  dup2\n  0xffffffffffffffffffffffffffffffffffffffff\n  mul\n  not\n  and\n  swap1\n  dup4\n  0xffffffffffffffffffffffffffffffffffffffff\n  and\n  mul\n  or\n  swap1\n  sstore\n  pop\n    /* \"@openzeppelin/contracts/access/Ownable.sol\":2604:2612  newOwner */\n  dup2\n    /* \"@openzeppelin/contracts/access/Ownable.sol\":2573:2613  OwnershipTransferred(oldOwner, newOwner) */\n  0xffffffffffffffffffffffffffffffffffffffff\n  and\n    /* \"@openzeppelin/contracts/access/Ownable.sol\":2594:2602  oldOwner */\n  dup2\n    /* \"@openzeppelin/contracts/access/Ownable.sol\":2573:2613  OwnershipTransferred(oldOwner, newOwner) */\n  0xffffffffffffffffffffffffffffffffffffffff\n  and\n  0x8be0079c531659141344cd1fd0a4f28419497f9722a3daafe3b4186f6b6457e0\n  mload(0x40)\n  mload(0x40)\n  dup1\n  swap2\n  sub\n  swap1\n  log3\n    /* \"@openzeppelin/contracts/access/Ownable.sol\":2496:2620  {... */\n  pop\n    /* \"@openzeppelin/contracts/access/Ownable.sol\":2433:2620  function _transferOwnership(address newOwner) internal virtual {... */\n  pop\n  jump\t// out\n    /* \"#utility.yul\":7:187   */\ntag_12:\n    /* \"#utility.yul\":55:132   */\n  0x4e487b7100000000000000000000000000000000000000000000000000000000\n    /* \"#utility.yul\":52:53   */\n  0x00\n    /* \"#utility.yul\":45:133   */\n  mstore\n    /* \"#utility.yul\":152:156   */\n  0x21\n    /* \"#utility.yul\":149:150   */\n  0x04\n    /* \"#utility.yul\":142:157   */\n  mstore\n    /* \"#utility.yul\":176:180   */\n  0x24\n    /* \"#utility.yul\":173:174   */\n  0x00\n    /* \"#utility.yul\":166:181   */\n  revert\n    /* \"contracts/Produce.sol\":140:1800  contract Produce is Ownable{... */\ntag_13:\n  dataSize(sub_0)\n  dup1\n  dataOffset(sub_0)\n  0x00\n  codecopy\n  0x00\n  return\nstop\n\nsub_0: assembly {\n        /* \"contracts/Produce.sol\":140:1800  contract Produce is Ownable{... */\n      mstore(0x40, 0x80)\n      jumpi(tag_1, lt(calldatasize, 0x04))\n      shr(0xe0, calldataload(0x00))\n      dup1\n      0xaa8c217c\n      gt\n      tag_14\n      jumpi\n      dup1\n      0xaa8c217c\n      eq\n      tag_8\n      jumpi\n      dup1\n      0xc8dde807\n      eq\n      tag_9\n      jumpi\n      dup1\n      0xd32dacc1\n      eq\n      tag_10\n      jumpi\n      dup1\n      0xd811fcf0\n      eq\n      tag_11\n      jumpi\n      dup1\n      0xf2fde38b\n      eq\n      tag_12\n      jumpi\n      dup1\n      0xf5c609e0\n      eq\n      tag_13\n      jumpi\n      jump(tag_1)\n    tag_14:\n      dup1\n      0x06fdde03\n      eq\n      tag_2\n      jumpi\n      dup1\n      0x530d124e\n      eq\n      tag_3\n      jumpi\n      dup1\n      0x6d86b8a5\n      eq\n      tag_4\n      jumpi\n      dup1\n      0x715018a6\n      eq\n      tag_5\n      jumpi\n      dup1\n      0x8da5cb5b\n      eq\n      tag_6\n      jumpi\n      dup1\n      0xa035b1fe\n      eq\n      tag_7\n      jumpi\n    tag_1:\n      0x00\n      dup1\n      revert\n        /* \"contracts/Produce.sol\":272:291  uint256 public name */\n    tag_2:\n      callvalue\n      dup1\n      iszero\n      tag_15\n      jumpi\n      0x00\n      dup1\n      revert\n    tag_15:\n      pop\n      tag_16\n      tag_17\n      jump\t// in\n    tag_16:\n      mload(0x40)\n      tag_18\n      swap2\n      swap1\n      tag_19\n      jump\t// in\n    tag_18:\n      mload(0x40)\n      dup1\n      swap2\n      sub\n      swap1\n      return\n        /* \"contracts/Produce.sol\":230:265  uint256 public limitOnPendingOrders */\n    tag_3:\n      callvalue\n      dup1\n      iszero\n      tag_20\n      jumpi\n      0x00\n      dup1\n      revert\n    tag_20:\n      pop\n      tag_21\n      tag_22\n      jump\t// in\n    tag_21:\n      mload(0x40)\n      tag_23\n      swap2\n      swap1\n      tag_19\n      jump\t// in\n    tag_23:\n      mload(0x40)\n      dup1\n      swap2\n      sub\n      swap1\n      return\n        /* \"contracts/Produce.sol\":323:347  uint256 public orderSize */\n    tag_4:\n      callvalue\n      dup1\n      iszero\n      tag_24\n      jumpi\n      0x00\n      dup1\n      revert\n    tag_24:\n      pop\n      tag_25\n      tag_26\n      jump\t// in\n    tag_25:\n      mload(0x40)\n      tag_27\n      swap2\n      swap1\n      tag_19\n      jump\t// in\n    tag_27:\n      mload(0x40)\n      dup1\n      swap2\n      sub\n      swap1\n      return\n        /* \"@openzeppelin/contracts/access/Ownable.sol\":1831:1932  function renounceOwnership() public virtual onlyOwner {... */\n    tag_5:\n      callvalue\n      dup1\n      iszero\n      tag_28\n      jumpi\n      0x00\n      dup1\n      revert\n    tag_28:\n      pop\n      tag_29\n      tag_30\n      jump\t// in\n    tag_29:\n      stop\n        /* \"@openzeppelin/contracts/access/Ownable.sol\":1201:1286  function owner() public view virtual returns (address) {... */\n    tag_6:\n      callvalue\n      dup1\n      iszero\n      tag_31\n      jumpi\n      0x00\n      dup1\n      revert\n    tag_31:\n      pop\n      tag_32\n      tag_33\n      jump\t// in\n    tag_32:\n      mload(0x40)\n      tag_34\n      swap2\n      swap1\n      tag_35\n      jump\t// in\n    tag_34:\n      mload(0x40)\n      dup1\n      swap2\n      sub\n      swap1\n      return\n        /* \"contracts/Produce.sol\":297:317  uint256 public price */\n    tag_7:\n      callvalue\n      dup1\n      iszero\n      tag_36\n      jumpi\n      0x00\n      dup1\n      revert\n    tag_36:\n      pop\n      tag_37\n      tag_38\n      jump\t// in\n    tag_37:\n      mload(0x40)\n      tag_39\n      swap2\n      swap1\n      tag_19\n      jump\t// in\n    tag_39:\n      mload(0x40)\n      dup1\n      swap2\n      sub\n      swap1\n      return\n        /* \"contracts/Produce.sol\":353:374  bytes32 public amount */\n    tag_8:\n      callvalue\n      dup1\n      iszero\n      tag_40\n      jumpi\n      0x00\n      dup1\n      revert\n    tag_40:\n      pop\n      tag_41\n      tag_42\n      jump\t// in\n    tag_41:\n      mload(0x40)\n      tag_43\n      swap2\n      swap1\n      tag_44\n      jump\t// in\n    tag_43:\n      mload(0x40)\n      dup1\n      swap2\n      sub\n      swap1\n      return\n        /* \"contracts/Produce.sol\":536:1059  function initilize(... */\n    tag_9:\n      callvalue\n      dup1\n      iszero\n      tag_45\n      jumpi\n      0x00\n      dup1\n      revert\n    tag_45:\n      pop\n      tag_46\n      0x04\n      dup1\n      calldatasize\n      sub\n      dup2\n      add\n      swap1\n      tag_47\n      swap2\n      swap1\n      tag_48\n      jump\t// in\n    tag_47:\n      tag_49\n      jump\t// in\n    tag_46:\n      stop\n        /* \"contracts/Produce.sol\":1561:1796  function takeOrder() external onlyOwner returns (address order) {... */\n    tag_10:\n      callvalue\n      dup1\n      iszero\n      tag_50\n      jumpi\n      0x00\n      dup1\n      revert\n    tag_50:\n      pop\n      tag_51\n      tag_52\n      jump\t// in\n    tag_51:\n      mload(0x40)\n      tag_53\n      swap2\n      swap1\n      tag_35\n      jump\t// in\n    tag_53:\n      mload(0x40)\n      dup1\n      swap2\n      sub\n      swap1\n      return\n        /* \"contracts/Produce.sol\":173:194  address public farmer */\n    tag_11:\n      callvalue\n      dup1\n      iszero\n      tag_54\n      jumpi\n      0x00\n      dup1\n      revert\n    tag_54:\n      pop\n      tag_55\n      tag_56\n      jump\t// in\n    tag_55:\n      mload(0x40)\n      tag_57\n      swap2\n      swap1\n      tag_35\n      jump\t// in\n    tag_57:\n      mload(0x40)\n      dup1\n      swap2\n      sub\n      swap1\n      return\n        /* \"@openzeppelin/contracts/access/Ownable.sol\":2081:2279  function transferOwnership(address newOwner) public virtual onlyOwner {... */\n    tag_12:\n      callvalue\n      dup1\n      iszero\n      tag_58\n      jumpi\n      0x00\n      dup1\n      revert\n    tag_58:\n      pop\n      tag_59\n      0x04\n      dup1\n      calldatasize\n      sub\n      dup2\n      add\n      swap1\n      tag_60\n      swap2\n      swap1\n      tag_61\n      jump\t// in\n    tag_60:\n      tag_62\n      jump\t// in\n    tag_59:\n      stop\n        /* \"contracts/Produce.sol\":1112:1497  function placeOrder() external payable {... */\n    tag_13:\n      tag_63\n      tag_64\n      jump\t// in\n    tag_63:\n      stop\n        /* \"contracts/Produce.sol\":272:291  uint256 public name */\n    tag_17:\n      sload(0x04)\n      dup2\n      jump\t// out\n        /* \"contracts/Produce.sol\":230:265  uint256 public limitOnPendingOrders */\n    tag_22:\n      sload(0x03)\n      dup2\n      jump\t// out\n        /* \"contracts/Produce.sol\":323:347  uint256 public orderSize */\n    tag_26:\n      sload(0x06)\n      dup2\n      jump\t// out\n        /* \"@openzeppelin/contracts/access/Ownable.sol\":1831:1932  function renounceOwnership() public virtual onlyOwner {... */\n    tag_30:\n        /* \"@openzeppelin/contracts/access/Ownable.sol\":1094:1107  _checkOwner() */\n      tag_66\n        /* \"@openzeppelin/contracts/access/Ownable.sol\":1094:1105  _checkOwner */\n      tag_67\n        /* \"@openzeppelin/contracts/access/Ownable.sol\":1094:1107  _checkOwner() */\n      jump\t// in\n    tag_66:\n        /* \"@openzeppelin/contracts/access/Ownable.sol\":1895:1925  _transferOwnership(address(0)) */\n      tag_69\n        /* \"@openzeppelin/contracts/access/Ownable.sol\":1922:1923  0 */\n      0x00\n        /* \"@openzeppelin/contracts/access/Ownable.sol\":1895:1913  _transferOwnership */\n      tag_70\n        /* \"@openzeppelin/contracts/access/Ownable.sol\":1895:1925  _transferOwnership(address(0)) */\n      jump\t// in\n    tag_69:\n        /* \"@openzeppelin/contracts/access/Ownable.sol\":1831:1932  function renounceOwnership() public virtual onlyOwner {... */\n      jump\t// out\n        /* \"@openzeppelin/contracts/access/Ownable.sol\":1201:1286  function owner() public view virtual returns (address) {... */\n    tag_33:\n        /* \"@openzeppelin/contracts/access/Ownable.sol\":1247:1254  address */\n      0x00\n        /* \"@openzeppelin/contracts/access/Ownable.sol\":1273:1279  _owner */\n      dup1\n      0x00\n      swap1\n      sload\n      swap1\n      0x0100\n      exp\n      swap1\n      div\n      0xffffffffffffffffffffffffffffffffffffffff\n      and\n        /* \"@openzeppelin/contracts/access/Ownable.sol\":1266:1279  return _owner */\n      swap1\n      pop\n        /* \"@openzeppelin/contracts/access/Ownable.sol\":1201:1286  function owner() public view virtual returns (address) {... */\n      swap1\n      jump\t// out\n        /* \"contracts/Produce.sol\":297:317  uint256 public price */\n    tag_38:\n      sload(0x05)\n      dup2\n      jump\t// out\n        /* \"contracts/Produce.sol\":353:374  bytes32 public amount */\n    tag_42:\n      sload(0x07)\n      dup2\n      jump\t// out\n        /* \"contracts/Produce.sol\":536:1059  function initilize(... */\n    tag_49:\n        /* \"contracts/Produce.sol\":759:778  State.UNINITIALIZED */\n      0x00\n        /* \"contracts/Produce.sol\":752:778  state==State.UNINITIALIZED */\n      0x01\n      dup2\n      gt\n      iszero\n      tag_73\n      jumpi\n      tag_74\n      tag_75\n      jump\t// in\n    tag_74:\n    tag_73:\n        /* \"contracts/Produce.sol\":752:757  state */\n      0x08\n      0x00\n      swap1\n      sload\n      swap1\n      0x0100\n      exp\n      swap1\n      div\n      0xff\n      and\n        /* \"contracts/Produce.sol\":752:778  state==State.UNINITIALIZED */\n      0x01\n      dup2\n      gt\n      iszero\n      tag_76\n      jumpi\n      tag_77\n      tag_75\n      jump\t// in\n    tag_77:\n    tag_76:\n      eq\n        /* \"contracts/Produce.sol\":744:823  require(state==State.UNINITIALIZED, \"This produce has already been initilized\") */\n      tag_78\n      jumpi\n      mload(0x40)\n      0x08c379a000000000000000000000000000000000000000000000000000000000\n      dup2\n      mstore\n      0x04\n      add\n      tag_79\n      swap1\n      tag_80\n      jump\t// in\n    tag_79:\n      mload(0x40)\n      dup1\n      swap2\n      sub\n      swap1\n      revert\n    tag_78:\n        /* \"contracts/Produce.sol\":833:860  _transferOwnership(_farmer) */\n      tag_81\n        /* \"contracts/Produce.sol\":852:859  _farmer */\n      dup7\n        /* \"contracts/Produce.sol\":833:851  _transferOwnership */\n      tag_70\n        /* \"contracts/Produce.sol\":833:860  _transferOwnership(_farmer) */\n      jump\t// in\n    tag_81:\n        /* \"contracts/Produce.sol\":893:914  _limitOnPendingOrders */\n      dup1\n        /* \"contracts/Produce.sol\":870:890  limitOnPendingOrders */\n      0x03\n        /* \"contracts/Produce.sol\":870:914  limitOnPendingOrders = _limitOnPendingOrders */\n      dup2\n      swap1\n      sstore\n      pop\n        /* \"contracts/Produce.sol\":931:936  _name */\n      dup5\n        /* \"contracts/Produce.sol\":924:928  name */\n      0x04\n        /* \"contracts/Produce.sol\":924:936  name = _name */\n      dup2\n      swap1\n      sstore\n      pop\n        /* \"contracts/Produce.sol\":954:960  _price */\n      dup4\n        /* \"contracts/Produce.sol\":946:951  price */\n      0x05\n        /* \"contracts/Produce.sol\":946:960  price = _price */\n      dup2\n      swap1\n      sstore\n      pop\n        /* \"contracts/Produce.sol\":982:992  _orderSize */\n      dup3\n        /* \"contracts/Produce.sol\":970:979  orderSize */\n      0x06\n        /* \"contracts/Produce.sol\":970:992  orderSize = _orderSize */\n      dup2\n      swap1\n      sstore\n      pop\n        /* \"contracts/Produce.sol\":1011:1018  _amount */\n      dup2\n        /* \"contracts/Produce.sol\":1002:1008  amount */\n      0x07\n        /* \"contracts/Produce.sol\":1002:1018  amount = _amount */\n      dup2\n      swap1\n      sstore\n      pop\n        /* \"contracts/Produce.sol\":1036:1052  State.PRODUCESET */\n      0x01\n        /* \"contracts/Produce.sol\":1028:1033  state */\n      0x08\n      0x00\n        /* \"contracts/Produce.sol\":1028:1052  state = State.PRODUCESET */\n      0x0100\n      exp\n      dup2\n      sload\n      dup2\n      0xff\n      mul\n      not\n      and\n      swap1\n      dup4\n      0x01\n      dup2\n      gt\n      iszero\n      tag_82\n      jumpi\n      tag_83\n      tag_75\n      jump\t// in\n    tag_83:\n    tag_82:\n      mul\n      or\n      swap1\n      sstore\n      pop\n        /* \"contracts/Produce.sol\":536:1059  function initilize(... */\n      pop\n      pop\n      pop\n      pop\n      pop\n      pop\n      jump\t// out\n        /* \"contracts/Produce.sol\":1561:1796  function takeOrder() external onlyOwner returns (address order) {... */\n    tag_52:\n        /* \"contracts/Produce.sol\":1610:1623  address order */\n      0x00\n        /* \"@openzeppelin/contracts/access/Ownable.sol\":1094:1107  _checkOwner() */\n      tag_85\n        /* \"@openzeppelin/contracts/access/Ownable.sol\":1094:1105  _checkOwner */\n      tag_67\n        /* \"@openzeppelin/contracts/access/Ownable.sol\":1094:1107  _checkOwner() */\n      jump\t// in\n    tag_85:\n        /* \"contracts/Produce.sol\":1659:1660  0 */\n      0x00\n        /* \"contracts/Produce.sol\":1643:1649  orders */\n      0x02\n        /* \"contracts/Produce.sol\":1643:1656  orders.length */\n      dup1\n      sload\n      swap1\n      pop\n        /* \"contracts/Produce.sol\":1643:1660  orders.length > 0 */\n      gt\n        /* \"contracts/Produce.sol\":1635:1682  require(orders.length > 0, \"No orders to take\") */\n      tag_87\n      jumpi\n      mload(0x40)\n      0x08c379a000000000000000000000000000000000000000000000000000000000\n      dup2\n      mstore\n      0x04\n      add\n      tag_88\n      swap1\n      tag_89\n      jump\t// in\n    tag_88:\n      mload(0x40)\n      dup1\n      swap2\n      sub\n      swap1\n      revert\n    tag_87:\n        /* \"contracts/Produce.sol\":1692:1711  address orderToTake */\n      0x00\n        /* \"contracts/Produce.sol\":1714:1720  orders */\n      0x02\n        /* \"contracts/Produce.sol\":1737:1738  1 */\n      0x01\n        /* \"contracts/Produce.sol\":1721:1727  orders */\n      0x02\n        /* \"contracts/Produce.sol\":1721:1734  orders.length */\n      dup1\n      sload\n      swap1\n      pop\n        /* \"contracts/Produce.sol\":1721:1738  orders.length - 1 */\n      tag_90\n      swap2\n      swap1\n      tag_91\n      jump\t// in\n    tag_90:\n        /* \"contracts/Produce.sol\":1714:1739  orders[orders.length - 1] */\n      dup2\n      sload\n      dup2\n      lt\n      tag_92\n      jumpi\n      tag_93\n      tag_94\n      jump\t// in\n    tag_93:\n    tag_92:\n      swap1\n      0x00\n      mstore\n      keccak256(0x00, 0x20)\n      add\n      0x00\n      swap1\n      sload\n      swap1\n      0x0100\n      exp\n      swap1\n      div\n      0xffffffffffffffffffffffffffffffffffffffff\n      and\n        /* \"contracts/Produce.sol\":1692:1739  address orderToTake = orders[orders.length - 1] */\n      swap1\n      pop\n        /* \"contracts/Produce.sol\":1749:1755  orders */\n      0x02\n        /* \"contracts/Produce.sol\":1749:1761  orders.pop() */\n      dup1\n      sload\n      dup1\n      tag_96\n      jumpi\n      tag_97\n      tag_98\n      jump\t// in\n    tag_97:\n    tag_96:\n      0x01\n      swap1\n      sub\n      dup2\n      dup2\n      swap1\n      0x00\n      mstore\n      keccak256(0x00, 0x20)\n      add\n      exp(0x0100, 0x00)\n      dup2\n      sload\n      swap1\n      0xffffffffffffffffffffffffffffffffffffffff\n      mul\n      not\n      and\n      swap1\n      sstore\n      swap1\n      sstore\n        /* \"contracts/Produce.sol\":1778:1789  orderToTake */\n      dup1\n        /* \"contracts/Produce.sol\":1771:1789  return orderToTake */\n      swap2\n      pop\n      pop\n        /* \"contracts/Produce.sol\":1561:1796  function takeOrder() external onlyOwner returns (address order) {... */\n      swap1\n      jump\t// out\n        /* \"contracts/Produce.sol\":173:194  address public farmer */\n    tag_56:\n      0x01\n      0x00\n      swap1\n      sload\n      swap1\n      0x0100\n      exp\n      swap1\n      div\n      0xffffffffffffffffffffffffffffffffffffffff\n      and\n      dup2\n      jump\t// out\n        /* \"@openzeppelin/contracts/access/Ownable.sol\":2081:2279  function transferOwnership(address newOwner) public virtual onlyOwner {... */\n    tag_62:\n        /* \"@openzeppelin/contracts/access/Ownable.sol\":1094:1107  _checkOwner() */\n      tag_101\n        /* \"@openzeppelin/contracts/access/Ownable.sol\":1094:1105  _checkOwner */\n      tag_67\n        /* \"@openzeppelin/contracts/access/Ownable.sol\":1094:1107  _checkOwner() */\n      jump\t// in\n    tag_101:\n        /* \"@openzeppelin/contracts/access/Ownable.sol\":2189:2190  0 */\n      0x00\n        /* \"@openzeppelin/contracts/access/Ownable.sol\":2169:2191  newOwner != address(0) */\n      0xffffffffffffffffffffffffffffffffffffffff\n      and\n        /* \"@openzeppelin/contracts/access/Ownable.sol\":2169:2177  newOwner */\n      dup2\n        /* \"@openzeppelin/contracts/access/Ownable.sol\":2169:2191  newOwner != address(0) */\n      0xffffffffffffffffffffffffffffffffffffffff\n      and\n      eq\n      iszero\n        /* \"@openzeppelin/contracts/access/Ownable.sol\":2161:2234  require(newOwner != address(0), \"Ownable: new owner is the zero address\") */\n      tag_103\n      jumpi\n      mload(0x40)\n      0x08c379a000000000000000000000000000000000000000000000000000000000\n      dup2\n      mstore\n      0x04\n      add\n      tag_104\n      swap1\n      tag_105\n      jump\t// in\n    tag_104:\n      mload(0x40)\n      dup1\n      swap2\n      sub\n      swap1\n      revert\n    tag_103:\n        /* \"@openzeppelin/contracts/access/Ownable.sol\":2244:2272  _transferOwnership(newOwner) */\n      tag_106\n        /* \"@openzeppelin/contracts/access/Ownable.sol\":2263:2271  newOwner */\n      dup2\n        /* \"@openzeppelin/contracts/access/Ownable.sol\":2244:2262  _transferOwnership */\n      tag_70\n        /* \"@openzeppelin/contracts/access/Ownable.sol\":2244:2272  _transferOwnership(newOwner) */\n      jump\t// in\n    tag_106:\n        /* \"@openzeppelin/contracts/access/Ownable.sol\":2081:2279  function transferOwnership(address newOwner) public virtual onlyOwner {... */\n      pop\n      jump\t// out\n        /* \"contracts/Produce.sol\":1112:1497  function placeOrder() external payable {... */\n    tag_64:\n        /* \"contracts/Produce.sol\":1196:1203  owner() */\n      tag_108\n        /* \"contracts/Produce.sol\":1196:1201  owner */\n      tag_33\n        /* \"contracts/Produce.sol\":1196:1203  owner() */\n      jump\t// in\n    tag_108:\n        /* \"contracts/Produce.sol\":1182:1203  msg.sender != owner() */\n      0xffffffffffffffffffffffffffffffffffffffff\n      and\n        /* \"contracts/Produce.sol\":1182:1192  msg.sender */\n      caller\n        /* \"contracts/Produce.sol\":1182:1203  msg.sender != owner() */\n      0xffffffffffffffffffffffffffffffffffffffff\n      and\n      eq\n      iszero\n        /* \"contracts/Produce.sol\":1161:1276  require(... */\n      tag_109\n      jumpi\n      mload(0x40)\n      0x08c379a000000000000000000000000000000000000000000000000000000000\n      dup2\n      mstore\n      0x04\n      add\n      tag_110\n      swap1\n      tag_111\n      jump\t// in\n    tag_110:\n      mload(0x40)\n      dup1\n      swap2\n      sub\n      swap1\n      revert\n    tag_109:\n        /* \"contracts/Produce.sol\":1332:1337  price */\n      sload(0x05)\n        /* \"contracts/Produce.sol\":1320:1329  orderSize */\n      sload(0x06)\n        /* \"contracts/Produce.sol\":1320:1337  orderSize * price */\n      tag_112\n      swap2\n      swap1\n      tag_113\n      jump\t// in\n    tag_112:\n        /* \"contracts/Produce.sol\":1307:1316  msg.value */\n      callvalue\n        /* \"contracts/Produce.sol\":1307:1337  msg.value == orderSize * price */\n      eq\n        /* \"contracts/Produce.sol\":1286:1402  require(... */\n      tag_114\n      jumpi\n      mload(0x40)\n      0x08c379a000000000000000000000000000000000000000000000000000000000\n      dup2\n      mstore\n      0x04\n      add\n      tag_115\n      swap1\n      tag_116\n      jump\t// in\n    tag_115:\n      mload(0x40)\n      dup1\n      swap2\n      sub\n      swap1\n      revert\n    tag_114:\n        /* \"contracts/Produce.sol\":1436:1456  limitOnPendingOrders */\n      sload(0x03)\n        /* \"contracts/Produce.sol\":1420:1426  orders */\n      0x02\n        /* \"contracts/Produce.sol\":1420:1433  orders.length */\n      dup1\n      sload\n      swap1\n      pop\n        /* \"contracts/Produce.sol\":1420:1456  orders.length < limitOnPendingOrders */\n      lt\n        /* \"contracts/Produce.sol\":1412:1457  require(orders.length < limitOnPendingOrders) */\n      tag_117\n      jumpi\n      0x00\n      dup1\n      revert\n    tag_117:\n        /* \"contracts/Produce.sol\":1467:1473  orders */\n      0x02\n        /* \"contracts/Produce.sol\":1479:1489  msg.sender */\n      caller\n        /* \"contracts/Produce.sol\":1467:1490  orders.push(msg.sender) */\n      swap1\n      dup1\n      0x01\n      dup2\n      sload\n      add\n      dup1\n      dup3\n      sstore\n      dup1\n      swap2\n      pop\n      pop\n      0x01\n      swap1\n      sub\n      swap1\n      0x00\n      mstore\n      keccak256(0x00, 0x20)\n      add\n      0x00\n      swap1\n      swap2\n      swap1\n      swap2\n      swap1\n      swap2\n      0x0100\n      exp\n      dup2\n      sload\n      dup2\n      0xffffffffffffffffffffffffffffffffffffffff\n      mul\n      not\n      and\n      swap1\n      dup4\n      0xffffffffffffffffffffffffffffffffffffffff\n      and\n      mul\n      or\n      swap1\n      sstore\n      pop\n        /* \"contracts/Produce.sol\":1112:1497  function placeOrder() external payable {... */\n      jump\t// out\n        /* \"@openzeppelin/contracts/access/Ownable.sol\":1359:1489  function _checkOwner() internal view virtual {... */\n    tag_67:\n        /* \"@openzeppelin/contracts/access/Ownable.sol\":1433:1445  _msgSender() */\n      tag_120\n        /* \"@openzeppelin/contracts/access/Ownable.sol\":1433:1443  _msgSender */\n      tag_121\n        /* \"@openzeppelin/contracts/access/Ownable.sol\":1433:1445  _msgSender() */\n      jump\t// in\n    tag_120:\n        /* \"@openzeppelin/contracts/access/Ownable.sol\":1422:1445  owner() == _msgSender() */\n      0xffffffffffffffffffffffffffffffffffffffff\n      and\n        /* \"@openzeppelin/contracts/access/Ownable.sol\":1422:1429  owner() */\n      tag_122\n        /* \"@openzeppelin/contracts/access/Ownable.sol\":1422:1427  owner */\n      tag_33\n        /* \"@openzeppelin/contracts/access/Ownable.sol\":1422:1429  owner() */\n      jump\t// in\n    tag_122:\n        /* \"@openzeppelin/contracts/access/Ownable.sol\":1422:1445  owner() == _msgSender() */\n      0xffffffffffffffffffffffffffffffffffffffff\n      and\n      eq\n        /* \"@openzeppelin/contracts/access/Ownable.sol\":1414:1482  require(owner() == _msgSender(), \"Ownable: caller is not the owner\") */\n      tag_123\n      jumpi\n      mload(0x40)\n      0x08c379a000000000000000000000000000000000000000000000000000000000\n      dup2\n      mstore\n      0x04\n      add\n      tag_124\n      swap1\n      tag_125\n      jump\t// in\n    tag_124:\n      mload(0x40)\n      dup1\n      swap2\n      sub\n      swap1\n      revert\n    tag_123:\n        /* \"@openzeppelin/contracts/access/Ownable.sol\":1359:1489  function _checkOwner() internal view virtual {... */\n      jump\t// out\n        /* \"@openzeppelin/contracts/access/Ownable.sol\":2433:2620  function _transferOwnership(address newOwner) internal virtual {... */\n    tag_70:\n        /* \"@openzeppelin/contracts/access/Ownable.sol\":2506:2522  address oldOwner */\n      0x00\n        /* \"@openzeppelin/contracts/access/Ownable.sol\":2525:2531  _owner */\n      dup1\n      0x00\n      swap1\n      sload\n      swap1\n      0x0100\n      exp\n      swap1\n      div\n      0xffffffffffffffffffffffffffffffffffffffff\n      and\n        /* \"@openzeppelin/contracts/access/Ownable.sol\":2506:2531  address oldOwner = _owner */\n      swap1\n      pop\n        /* \"@openzeppelin/contracts/access/Ownable.sol\":2550:2558  newOwner */\n      dup2\n        /* \"@openzeppelin/contracts/access/Ownable.sol\":2541:2547  _owner */\n      0x00\n      dup1\n        /* \"@openzeppelin/contracts/access/Ownable.sol\":2541:2558  _owner = newOwner */\n      0x0100\n      exp\n      dup2\n      sload\n      dup2\n      0xffffffffffffffffffffffffffffffffffffffff\n      mul\n      not\n      and\n      swap1\n      dup4\n      0xffffffffffffffffffffffffffffffffffffffff\n      and\n      mul\n      or\n      swap1\n      sstore\n      pop\n        /* \"@openzeppelin/contracts/access/Ownable.sol\":2604:2612  newOwner */\n      dup2\n        /* \"@openzeppelin/contracts/access/Ownable.sol\":2573:2613  OwnershipTransferred(oldOwner, newOwner) */\n      0xffffffffffffffffffffffffffffffffffffffff\n      and\n        /* \"@openzeppelin/contracts/access/Ownable.sol\":2594:2602  oldOwner */\n      dup2\n        /* \"@openzeppelin/contracts/access/Ownable.sol\":2573:2613  OwnershipTransferred(oldOwner, newOwner) */\n      0xffffffffffffffffffffffffffffffffffffffff\n      and\n      0x8be0079c531659141344cd1fd0a4f28419497f9722a3daafe3b4186f6b6457e0\n      mload(0x40)\n      mload(0x40)\n      dup1\n      swap2\n      sub\n      swap1\n      log3\n        /* \"@openzeppelin/contracts/access/Ownable.sol\":2496:2620  {... */\n      pop\n        /* \"@openzeppelin/contracts/access/Ownable.sol\":2433:2620  function _transferOwnership(address newOwner) internal virtual {... */\n      pop\n      jump\t// out\n        /* \"@openzeppelin/contracts/utils/Context.sol\":640:736  function _msgSender() internal view virtual returns (address) {... */\n    tag_121:\n        /* \"@openzeppelin/contracts/utils/Context.sol\":693:700  address */\n      0x00\n        /* \"@openzeppelin/contracts/utils/Context.sol\":719:729  msg.sender */\n      caller\n        /* \"@openzeppelin/contracts/utils/Context.sol\":712:729  return msg.sender */\n      swap1\n      pop\n        /* \"@openzeppelin/contracts/utils/Context.sol\":640:736  function _msgSender() internal view virtual returns (address) {... */\n      swap1\n      jump\t// out\n        /* \"#utility.yul\":7:146   */\n    tag_129:\n        /* \"#utility.yul\":53:58   */\n      0x00\n        /* \"#utility.yul\":91:97   */\n      dup2\n        /* \"#utility.yul\":78:98   */\n      calldataload\n        /* \"#utility.yul\":69:98   */\n      swap1\n      pop\n        /* \"#utility.yul\":107:140   */\n      tag_131\n        /* \"#utility.yul\":134:139   */\n      dup2\n        /* \"#utility.yul\":107:140   */\n      tag_132\n      jump\t// in\n    tag_131:\n        /* \"#utility.yul\":7:146   */\n      swap3\n      swap2\n      pop\n      pop\n      jump\t// out\n        /* \"#utility.yul\":152:291   */\n    tag_133:\n        /* \"#utility.yul\":198:203   */\n      0x00\n        /* \"#utility.yul\":236:242   */\n      dup2\n        /* \"#utility.yul\":223:243   */\n      calldataload\n        /* \"#utility.yul\":214:243   */\n      swap1\n      pop\n        /* \"#utility.yul\":252:285   */\n      tag_135\n        /* \"#utility.yul\":279:284   */\n      dup2\n        /* \"#utility.yul\":252:285   */\n      tag_136\n      jump\t// in\n    tag_135:\n        /* \"#utility.yul\":152:291   */\n      swap3\n      swap2\n      pop\n      pop\n      jump\t// out\n        /* \"#utility.yul\":297:436   */\n    tag_137:\n        /* \"#utility.yul\":343:348   */\n      0x00\n        /* \"#utility.yul\":381:387   */\n      dup2\n        /* \"#utility.yul\":368:388   */\n      calldataload\n        /* \"#utility.yul\":359:388   */\n      swap1\n      pop\n        /* \"#utility.yul\":397:430   */\n      tag_139\n        /* \"#utility.yul\":424:429   */\n      dup2\n        /* \"#utility.yul\":397:430   */\n      tag_140\n      jump\t// in\n    tag_139:\n        /* \"#utility.yul\":297:436   */\n      swap3\n      swap2\n      pop\n      pop\n      jump\t// out\n        /* \"#utility.yul\":442:771   */\n    tag_61:\n        /* \"#utility.yul\":501:507   */\n      0x00\n        /* \"#utility.yul\":550:552   */\n      0x20\n        /* \"#utility.yul\":538:547   */\n      dup3\n        /* \"#utility.yul\":529:536   */\n      dup5\n        /* \"#utility.yul\":525:548   */\n      sub\n        /* \"#utility.yul\":521:553   */\n      slt\n        /* \"#utility.yul\":518:637   */\n      iszero\n      tag_142\n      jumpi\n        /* \"#utility.yul\":556:635   */\n      tag_143\n      tag_144\n      jump\t// in\n    tag_143:\n        /* \"#utility.yul\":518:637   */\n    tag_142:\n        /* \"#utility.yul\":676:677   */\n      0x00\n        /* \"#utility.yul\":701:754   */\n      tag_145\n        /* \"#utility.yul\":746:753   */\n      dup5\n        /* \"#utility.yul\":737:743   */\n      dup3\n        /* \"#utility.yul\":726:735   */\n      dup6\n        /* \"#utility.yul\":722:744   */\n      add\n        /* \"#utility.yul\":701:754   */\n      tag_129\n      jump\t// in\n    tag_145:\n        /* \"#utility.yul\":691:754   */\n      swap2\n      pop\n        /* \"#utility.yul\":647:764   */\n      pop\n        /* \"#utility.yul\":442:771   */\n      swap3\n      swap2\n      pop\n      pop\n      jump\t// out\n        /* \"#utility.yul\":777:1834   */\n    tag_48:\n        /* \"#utility.yul\":881:887   */\n      0x00\n        /* \"#utility.yul\":889:895   */\n      dup1\n        /* \"#utility.yul\":897:903   */\n      0x00\n        /* \"#utility.yul\":905:911   */\n      dup1\n        /* \"#utility.yul\":913:919   */\n      0x00\n        /* \"#utility.yul\":921:927   */\n      dup1\n        /* \"#utility.yul\":970:973   */\n      0xc0\n        /* \"#utility.yul\":958:967   */\n      dup8\n        /* \"#utility.yul\":949:956   */\n      dup10\n        /* \"#utility.yul\":945:968   */\n      sub\n        /* \"#utility.yul\":941:974   */\n      slt\n        /* \"#utility.yul\":938:1058   */\n      iszero\n      tag_147\n      jumpi\n        /* \"#utility.yul\":977:1056   */\n      tag_148\n      tag_144\n      jump\t// in\n    tag_148:\n        /* \"#utility.yul\":938:1058   */\n    tag_147:\n        /* \"#utility.yul\":1097:1098   */\n      0x00\n        /* \"#utility.yul\":1122:1175   */\n      tag_149\n        /* \"#utility.yul\":1167:1174   */\n      dup10\n        /* \"#utility.yul\":1158:1164   */\n      dup3\n        /* \"#utility.yul\":1147:1156   */\n      dup11\n        /* \"#utility.yul\":1143:1165   */\n      add\n        /* \"#utility.yul\":1122:1175   */\n      tag_129\n      jump\t// in\n    tag_149:\n        /* \"#utility.yul\":1112:1175   */\n      swap7\n      pop\n        /* \"#utility.yul\":1068:1185   */\n      pop\n        /* \"#utility.yul\":1224:1226   */\n      0x20\n        /* \"#utility.yul\":1250:1303   */\n      tag_150\n        /* \"#utility.yul\":1295:1302   */\n      dup10\n        /* \"#utility.yul\":1286:1292   */\n      dup3\n        /* \"#utility.yul\":1275:1284   */\n      dup11\n        /* \"#utility.yul\":1271:1293   */\n      add\n        /* \"#utility.yul\":1250:1303   */\n      tag_137\n      jump\t// in\n    tag_150:\n        /* \"#utility.yul\":1240:1303   */\n      swap6\n      pop\n        /* \"#utility.yul\":1195:1313   */\n      pop\n        /* \"#utility.yul\":1352:1354   */\n      0x40\n        /* \"#utility.yul\":1378:1431   */\n      tag_151\n        /* \"#utility.yul\":1423:1430   */\n      dup10\n        /* \"#utility.yul\":1414:1420   */\n      dup3\n        /* \"#utility.yul\":1403:1412   */\n      dup11\n        /* \"#utility.yul\":1399:1421   */\n      add\n        /* \"#utility.yul\":1378:1431   */\n      tag_137\n      jump\t// in\n    tag_151:\n        /* \"#utility.yul\":1368:1431   */\n      swap5\n      pop\n        /* \"#utility.yul\":1323:1441   */\n      pop\n        /* \"#utility.yul\":1480:1482   */\n      0x60\n        /* \"#utility.yul\":1506:1559   */\n      tag_152\n        /* \"#utility.yul\":1551:1558   */\n      dup10\n        /* \"#utility.yul\":1542:1548   */\n      dup3\n        /* \"#utility.yul\":1531:1540   */\n      dup11\n        /* \"#utility.yul\":1527:1549   */\n      add\n        /* \"#utility.yul\":1506:1559   */\n      tag_137\n      jump\t// in\n    tag_152:\n        /* \"#utility.yul\":1496:1559   */\n      swap4\n      pop\n        /* \"#utility.yul\":1451:1569   */\n      pop\n        /* \"#utility.yul\":1608:1611   */\n      0x80\n        /* \"#utility.yul\":1635:1688   */\n      tag_153\n        /* \"#utility.yul\":1680:1687   */\n      dup10\n        /* \"#utility.yul\":1671:1677   */\n      dup3\n        /* \"#utility.yul\":1660:1669   */\n      dup11\n        /* \"#utility.yul\":1656:1678   */\n      add\n        /* \"#utility.yul\":1635:1688   */\n      tag_133\n      jump\t// in\n    tag_153:\n        /* \"#utility.yul\":1625:1688   */\n      swap3\n      pop\n        /* \"#utility.yul\":1579:1698   */\n      pop\n        /* \"#utility.yul\":1737:1740   */\n      0xa0\n        /* \"#utility.yul\":1764:1817   */\n      tag_154\n        /* \"#utility.yul\":1809:1816   */\n      dup10\n        /* \"#utility.yul\":1800:1806   */\n      dup3\n        /* \"#utility.yul\":1789:1798   */\n      dup11\n        /* \"#utility.yul\":1785:1807   */\n      add\n        /* \"#utility.yul\":1764:1817   */\n      tag_137\n      jump\t// in\n    tag_154:\n        /* \"#utility.yul\":1754:1817   */\n      swap2\n      pop\n        /* \"#utility.yul\":1708:1827   */\n      pop\n        /* \"#utility.yul\":777:1834   */\n      swap3\n      swap6\n      pop\n      swap3\n      swap6\n      pop\n      swap3\n      swap6\n      jump\t// out\n        /* \"#utility.yul\":1840:1958   */\n    tag_155:\n        /* \"#utility.yul\":1927:1951   */\n      tag_157\n        /* \"#utility.yul\":1945:1950   */\n      dup2\n        /* \"#utility.yul\":1927:1951   */\n      tag_158\n      jump\t// in\n    tag_157:\n        /* \"#utility.yul\":1922:1925   */\n      dup3\n        /* \"#utility.yul\":1915:1952   */\n      mstore\n        /* \"#utility.yul\":1840:1958   */\n      pop\n      pop\n      jump\t// out\n        /* \"#utility.yul\":1964:2082   */\n    tag_159:\n        /* \"#utility.yul\":2051:2075   */\n      tag_161\n        /* \"#utility.yul\":2069:2074   */\n      dup2\n        /* \"#utility.yul\":2051:2075   */\n      tag_162\n      jump\t// in\n    tag_161:\n        /* \"#utility.yul\":2046:2049   */\n      dup3\n        /* \"#utility.yul\":2039:2076   */\n      mstore\n        /* \"#utility.yul\":1964:2082   */\n      pop\n      pop\n      jump\t// out\n        /* \"#utility.yul\":2088:2454   */\n    tag_163:\n        /* \"#utility.yul\":2230:2233   */\n      0x00\n        /* \"#utility.yul\":2251:2318   */\n      tag_165\n        /* \"#utility.yul\":2315:2317   */\n      0x27\n        /* \"#utility.yul\":2310:2313   */\n      dup4\n        /* \"#utility.yul\":2251:2318   */\n      tag_166\n      jump\t// in\n    tag_165:\n        /* \"#utility.yul\":2244:2318   */\n      swap2\n      pop\n        /* \"#utility.yul\":2327:2420   */\n      tag_167\n        /* \"#utility.yul\":2416:2419   */\n      dup3\n        /* \"#utility.yul\":2327:2420   */\n      tag_168\n      jump\t// in\n    tag_167:\n        /* \"#utility.yul\":2445:2447   */\n      0x40\n        /* \"#utility.yul\":2440:2443   */\n      dup3\n        /* \"#utility.yul\":2436:2448   */\n      add\n        /* \"#utility.yul\":2429:2448   */\n      swap1\n      pop\n        /* \"#utility.yul\":2088:2454   */\n      swap2\n      swap1\n      pop\n      jump\t// out\n        /* \"#utility.yul\":2460:2826   */\n    tag_169:\n        /* \"#utility.yul\":2602:2605   */\n      0x00\n        /* \"#utility.yul\":2623:2690   */\n      tag_171\n        /* \"#utility.yul\":2687:2689   */\n      0x26\n        /* \"#utility.yul\":2682:2685   */\n      dup4\n        /* \"#utility.yul\":2623:2690   */\n      tag_166\n      jump\t// in\n    tag_171:\n        /* \"#utility.yul\":2616:2690   */\n      swap2\n      pop\n        /* \"#utility.yul\":2699:2792   */\n      tag_172\n        /* \"#utility.yul\":2788:2791   */\n      dup3\n        /* \"#utility.yul\":2699:2792   */\n      tag_173\n      jump\t// in\n    tag_172:\n        /* \"#utility.yul\":2817:2819   */\n      0x40\n        /* \"#utility.yul\":2812:2815   */\n      dup3\n        /* \"#utility.yul\":2808:2820   */\n      add\n        /* \"#utility.yul\":2801:2820   */\n      swap1\n      pop\n        /* \"#utility.yul\":2460:2826   */\n      swap2\n      swap1\n      pop\n      jump\t// out\n        /* \"#utility.yul\":2832:3198   */\n    tag_174:\n        /* \"#utility.yul\":2974:2977   */\n      0x00\n        /* \"#utility.yul\":2995:3062   */\n      tag_176\n        /* \"#utility.yul\":3059:3061   */\n      0x28\n        /* \"#utility.yul\":3054:3057   */\n      dup4\n        /* \"#utility.yul\":2995:3062   */\n      tag_166\n      jump\t// in\n    tag_176:\n        /* \"#utility.yul\":2988:3062   */\n      swap2\n      pop\n        /* \"#utility.yul\":3071:3164   */\n      tag_177\n        /* \"#utility.yul\":3160:3163   */\n      dup3\n        /* \"#utility.yul\":3071:3164   */\n      tag_178\n      jump\t// in\n    tag_177:\n        /* \"#utility.yul\":3189:3191   */\n      0x40\n        /* \"#utility.yul\":3184:3187   */\n      dup3\n        /* \"#utility.yul\":3180:3192   */\n      add\n        /* \"#utility.yul\":3173:3192   */\n      swap1\n      pop\n        /* \"#utility.yul\":2832:3198   */\n      swap2\n      swap1\n      pop\n      jump\t// out\n        /* \"#utility.yul\":3204:3570   */\n    tag_179:\n        /* \"#utility.yul\":3346:3349   */\n      0x00\n        /* \"#utility.yul\":3367:3434   */\n      tag_181\n        /* \"#utility.yul\":3431:3433   */\n      0x2f\n        /* \"#utility.yul\":3426:3429   */\n      dup4\n        /* \"#utility.yul\":3367:3434   */\n      tag_166\n      jump\t// in\n    tag_181:\n        /* \"#utility.yul\":3360:3434   */\n      swap2\n      pop\n        /* \"#utility.yul\":3443:3536   */\n      tag_182\n        /* \"#utility.yul\":3532:3535   */\n      dup3\n        /* \"#utility.yul\":3443:3536   */\n      tag_183\n      jump\t// in\n    tag_182:\n        /* \"#utility.yul\":3561:3563   */\n      0x40\n        /* \"#utility.yul\":3556:3559   */\n      dup3\n        /* \"#utility.yul\":3552:3564   */\n      add\n        /* \"#utility.yul\":3545:3564   */\n      swap1\n      pop\n        /* \"#utility.yul\":3204:3570   */\n      swap2\n      swap1\n      pop\n      jump\t// out\n        /* \"#utility.yul\":3576:3942   */\n    tag_184:\n        /* \"#utility.yul\":3718:3721   */\n      0x00\n        /* \"#utility.yul\":3739:3806   */\n      tag_186\n        /* \"#utility.yul\":3803:3805   */\n      0x20\n        /* \"#utility.yul\":3798:3801   */\n      dup4\n        /* \"#utility.yul\":3739:3806   */\n      tag_166\n      jump\t// in\n    tag_186:\n        /* \"#utility.yul\":3732:3806   */\n      swap2\n      pop\n        /* \"#utility.yul\":3815:3908   */\n      tag_187\n        /* \"#utility.yul\":3904:3907   */\n      dup3\n        /* \"#utility.yul\":3815:3908   */\n      tag_188\n      jump\t// in\n    tag_187:\n        /* \"#utility.yul\":3933:3935   */\n      0x20\n        /* \"#utility.yul\":3928:3931   */\n      dup3\n        /* \"#utility.yul\":3924:3936   */\n      add\n        /* \"#utility.yul\":3917:3936   */\n      swap1\n      pop\n        /* \"#utility.yul\":3576:3942   */\n      swap2\n      swap1\n      pop\n      jump\t// out\n        /* \"#utility.yul\":3948:4314   */\n    tag_189:\n        /* \"#utility.yul\":4090:4093   */\n      0x00\n        /* \"#utility.yul\":4111:4178   */\n      tag_191\n        /* \"#utility.yul\":4175:4177   */\n      0x11\n        /* \"#utility.yul\":4170:4173   */\n      dup4\n        /* \"#utility.yul\":4111:4178   */\n      tag_166\n      jump\t// in\n    tag_191:\n        /* \"#utility.yul\":4104:4178   */\n      swap2\n      pop\n        /* \"#utility.yul\":4187:4280   */\n      tag_192\n        /* \"#utility.yul\":4276:4279   */\n      dup3\n        /* \"#utility.yul\":4187:4280   */\n      tag_193\n      jump\t// in\n    tag_192:\n        /* \"#utility.yul\":4305:4307   */\n      0x20\n        /* \"#utility.yul\":4300:4303   */\n      dup3\n        /* \"#utility.yul\":4296:4308   */\n      add\n        /* \"#utility.yul\":4289:4308   */\n      swap1\n      pop\n        /* \"#utility.yul\":3948:4314   */\n      swap2\n      swap1\n      pop\n      jump\t// out\n        /* \"#utility.yul\":4320:4438   */\n    tag_194:\n        /* \"#utility.yul\":4407:4431   */\n      tag_196\n        /* \"#utility.yul\":4425:4430   */\n      dup2\n        /* \"#utility.yul\":4407:4431   */\n      tag_197\n      jump\t// in\n    tag_196:\n        /* \"#utility.yul\":4402:4405   */\n      dup3\n        /* \"#utility.yul\":4395:4432   */\n      mstore\n        /* \"#utility.yul\":4320:4438   */\n      pop\n      pop\n      jump\t// out\n        /* \"#utility.yul\":4444:4666   */\n    tag_35:\n        /* \"#utility.yul\":4537:4541   */\n      0x00\n        /* \"#utility.yul\":4575:4577   */\n      0x20\n        /* \"#utility.yul\":4564:4573   */\n      dup3\n        /* \"#utility.yul\":4560:4578   */\n      add\n        /* \"#utility.yul\":4552:4578   */\n      swap1\n      pop\n        /* \"#utility.yul\":4588:4659   */\n      tag_199\n        /* \"#utility.yul\":4656:4657   */\n      0x00\n        /* \"#utility.yul\":4645:4654   */\n      dup4\n        /* \"#utility.yul\":4641:4658   */\n      add\n        /* \"#utility.yul\":4632:4638   */\n      dup5\n        /* \"#utility.yul\":4588:4659   */\n      tag_155\n      jump\t// in\n    tag_199:\n        /* \"#utility.yul\":4444:4666   */\n      swap3\n      swap2\n      pop\n      pop\n      jump\t// out\n        /* \"#utility.yul\":4672:4894   */\n    tag_44:\n        /* \"#utility.yul\":4765:4769   */\n      0x00\n        /* \"#utility.yul\":4803:4805   */\n      0x20\n        /* \"#utility.yul\":4792:4801   */\n      dup3\n        /* \"#utility.yul\":4788:4806   */\n      add\n        /* \"#utility.yul\":4780:4806   */\n      swap1\n      pop\n        /* \"#utility.yul\":4816:4887   */\n      tag_201\n        /* \"#utility.yul\":4884:4885   */\n      0x00\n        /* \"#utility.yul\":4873:4882   */\n      dup4\n        /* \"#utility.yul\":4869:4886   */\n      add\n        /* \"#utility.yul\":4860:4866   */\n      dup5\n        /* \"#utility.yul\":4816:4887   */\n      tag_159\n      jump\t// in\n    tag_201:\n        /* \"#utility.yul\":4672:4894   */\n      swap3\n      swap2\n      pop\n      pop\n      jump\t// out\n        /* \"#utility.yul\":4900:5319   */\n    tag_116:\n        /* \"#utility.yul\":5066:5070   */\n      0x00\n        /* \"#utility.yul\":5104:5106   */\n      0x20\n        /* \"#utility.yul\":5093:5102   */\n      dup3\n        /* \"#utility.yul\":5089:5107   */\n      add\n        /* \"#utility.yul\":5081:5107   */\n      swap1\n      pop\n        /* \"#utility.yul\":5153:5162   */\n      dup2\n        /* \"#utility.yul\":5147:5151   */\n      dup2\n        /* \"#utility.yul\":5143:5163   */\n      sub\n        /* \"#utility.yul\":5139:5140   */\n      0x00\n        /* \"#utility.yul\":5128:5137   */\n      dup4\n        /* \"#utility.yul\":5124:5141   */\n      add\n        /* \"#utility.yul\":5117:5164   */\n      mstore\n        /* \"#utility.yul\":5181:5312   */\n      tag_203\n        /* \"#utility.yul\":5307:5311   */\n      dup2\n        /* \"#utility.yul\":5181:5312   */\n      tag_163\n      jump\t// in\n    tag_203:\n        /* \"#utility.yul\":5173:5312   */\n      swap1\n      pop\n        /* \"#utility.yul\":4900:5319   */\n      swap2\n      swap1\n      pop\n      jump\t// out\n        /* \"#utility.yul\":5325:5744   */\n    tag_105:\n        /* \"#utility.yul\":5491:5495   */\n      0x00\n        /* \"#utility.yul\":5529:5531   */\n      0x20\n        /* \"#utility.yul\":5518:5527   */\n      dup3\n        /* \"#utility.yul\":5514:5532   */\n      add\n        /* \"#utility.yul\":5506:5532   */\n      swap1\n      pop\n        /* \"#utility.yul\":5578:5587   */\n      dup2\n        /* \"#utility.yul\":5572:5576   */\n      dup2\n        /* \"#utility.yul\":5568:5588   */\n      sub\n        /* \"#utility.yul\":5564:5565   */\n      0x00\n        /* \"#utility.yul\":5553:5562   */\n      dup4\n        /* \"#utility.yul\":5549:5566   */\n      add\n        /* \"#utility.yul\":5542:5589   */\n      mstore\n        /* \"#utility.yul\":5606:5737   */\n      tag_205\n        /* \"#utility.yul\":5732:5736   */\n      dup2\n        /* \"#utility.yul\":5606:5737   */\n      tag_169\n      jump\t// in\n    tag_205:\n        /* \"#utility.yul\":5598:5737   */\n      swap1\n      pop\n        /* \"#utility.yul\":5325:5744   */\n      swap2\n      swap1\n      pop\n      jump\t// out\n        /* \"#utility.yul\":5750:6169   */\n    tag_80:\n        /* \"#utility.yul\":5916:5920   */\n      0x00\n        /* \"#utility.yul\":5954:5956   */\n      0x20\n        /* \"#utility.yul\":5943:5952   */\n      dup3\n        /* \"#utility.yul\":5939:5957   */\n      add\n        /* \"#utility.yul\":5931:5957   */\n      swap1\n      pop\n        /* \"#utility.yul\":6003:6012   */\n      dup2\n        /* \"#utility.yul\":5997:6001   */\n      dup2\n        /* \"#utility.yul\":5993:6013   */\n      sub\n        /* \"#utility.yul\":5989:5990   */\n      0x00\n        /* \"#utility.yul\":5978:5987   */\n      dup4\n        /* \"#utility.yul\":5974:5991   */\n      add\n        /* \"#utility.yul\":5967:6014   */\n      mstore\n        /* \"#utility.yul\":6031:6162   */\n      tag_207\n        /* \"#utility.yul\":6157:6161   */\n      dup2\n        /* \"#utility.yul\":6031:6162   */\n      tag_174\n      jump\t// in\n    tag_207:\n        /* \"#utility.yul\":6023:6162   */\n      swap1\n      pop\n        /* \"#utility.yul\":5750:6169   */\n      swap2\n      swap1\n      pop\n      jump\t// out\n        /* \"#utility.yul\":6175:6594   */\n    tag_111:\n        /* \"#utility.yul\":6341:6345   */\n      0x00\n        /* \"#utility.yul\":6379:6381   */\n      0x20\n        /* \"#utility.yul\":6368:6377   */\n      dup3\n        /* \"#utility.yul\":6364:6382   */\n      add\n        /* \"#utility.yul\":6356:6382   */\n      swap1\n      pop\n        /* \"#utility.yul\":6428:6437   */\n      dup2\n        /* \"#utility.yul\":6422:6426   */\n      dup2\n        /* \"#utility.yul\":6418:6438   */\n      sub\n        /* \"#utility.yul\":6414:6415   */\n      0x00\n        /* \"#utility.yul\":6403:6412   */\n      dup4\n        /* \"#utility.yul\":6399:6416   */\n      add\n        /* \"#utility.yul\":6392:6439   */\n      mstore\n        /* \"#utility.yul\":6456:6587   */\n      tag_209\n        /* \"#utility.yul\":6582:6586   */\n      dup2\n        /* \"#utility.yul\":6456:6587   */\n      tag_179\n      jump\t// in\n    tag_209:\n        /* \"#utility.yul\":6448:6587   */\n      swap1\n      pop\n        /* \"#utility.yul\":6175:6594   */\n      swap2\n      swap1\n      pop\n      jump\t// out\n        /* \"#utility.yul\":6600:7019   */\n    tag_125:\n        /* \"#utility.yul\":6766:6770   */\n      0x00\n        /* \"#utility.yul\":6804:6806   */\n      0x20\n        /* \"#utility.yul\":6793:6802   */\n      dup3\n        /* \"#utility.yul\":6789:6807   */\n      add\n        /* \"#utility.yul\":6781:6807   */\n      swap1\n      pop\n        /* \"#utility.yul\":6853:6862   */\n      dup2\n        /* \"#utility.yul\":6847:6851   */\n      dup2\n        /* \"#utility.yul\":6843:6863   */\n      sub\n        /* \"#utility.yul\":6839:6840   */\n      0x00\n        /* \"#utility.yul\":6828:6837   */\n      dup4\n        /* \"#utility.yul\":6824:6841   */\n      add\n        /* \"#utility.yul\":6817:6864   */\n      mstore\n        /* \"#utility.yul\":6881:7012   */\n      tag_211\n        /* \"#utility.yul\":7007:7011   */\n      dup2\n        /* \"#utility.yul\":6881:7012   */\n      tag_184\n      jump\t// in\n    tag_211:\n        /* \"#utility.yul\":6873:7012   */\n      swap1\n      pop\n        /* \"#utility.yul\":6600:7019   */\n      swap2\n      swap1\n      pop\n      jump\t// out\n        /* \"#utility.yul\":7025:7444   */\n    tag_89:\n        /* \"#utility.yul\":7191:7195   */\n      0x00\n        /* \"#utility.yul\":7229:7231   */\n      0x20\n        /* \"#utility.yul\":7218:7227   */\n      dup3\n        /* \"#utility.yul\":7214:7232   */\n      add\n        /* \"#utility.yul\":7206:7232   */\n      swap1\n      pop\n        /* \"#utility.yul\":7278:7287   */\n      dup2\n        /* \"#utility.yul\":7272:7276   */\n      dup2\n        /* \"#utility.yul\":7268:7288   */\n      sub\n        /* \"#utility.yul\":7264:7265   */\n      0x00\n        /* \"#utility.yul\":7253:7262   */\n      dup4\n        /* \"#utility.yul\":7249:7266   */\n      add\n        /* \"#utility.yul\":7242:7289   */\n      mstore\n        /* \"#utility.yul\":7306:7437   */\n      tag_213\n        /* \"#utility.yul\":7432:7436   */\n      dup2\n        /* \"#utility.yul\":7306:7437   */\n      tag_189\n      jump\t// in\n    tag_213:\n        /* \"#utility.yul\":7298:7437   */\n      swap1\n      pop\n        /* \"#utility.yul\":7025:7444   */\n      swap2\n      swap1\n      pop\n      jump\t// out\n        /* \"#utility.yul\":7450:7672   */\n    tag_19:\n        /* \"#utility.yul\":7543:7547   */\n      0x00\n        /* \"#utility.yul\":7581:7583   */\n      0x20\n        /* \"#utility.yul\":7570:7579   */\n      dup3\n        /* \"#utility.yul\":7566:7584   */\n      add\n        /* \"#utility.yul\":7558:7584   */\n      swap1\n      pop\n        /* \"#utility.yul\":7594:7665   */\n      tag_215\n        /* \"#utility.yul\":7662:7663   */\n      0x00\n        /* \"#utility.yul\":7651:7660   */\n      dup4\n        /* \"#utility.yul\":7647:7664   */\n      add\n        /* \"#utility.yul\":7638:7644   */\n      dup5\n        /* \"#utility.yul\":7594:7665   */\n      tag_194\n      jump\t// in\n    tag_215:\n        /* \"#utility.yul\":7450:7672   */\n      swap3\n      swap2\n      pop\n      pop\n      jump\t// out\n        /* \"#utility.yul\":7759:7928   */\n    tag_166:\n        /* \"#utility.yul\":7843:7854   */\n      0x00\n        /* \"#utility.yul\":7877:7883   */\n      dup3\n        /* \"#utility.yul\":7872:7875   */\n      dup3\n        /* \"#utility.yul\":7865:7884   */\n      mstore\n        /* \"#utility.yul\":7917:7921   */\n      0x20\n        /* \"#utility.yul\":7912:7915   */\n      dup3\n        /* \"#utility.yul\":7908:7922   */\n      add\n        /* \"#utility.yul\":7893:7922   */\n      swap1\n      pop\n        /* \"#utility.yul\":7759:7928   */\n      swap3\n      swap2\n      pop\n      pop\n      jump\t// out\n        /* \"#utility.yul\":7934:8282   */\n    tag_113:\n        /* \"#utility.yul\":7974:7981   */\n      0x00\n        /* \"#utility.yul\":7997:8017   */\n      tag_220\n        /* \"#utility.yul\":8015:8016   */\n      dup3\n        /* \"#utility.yul\":7997:8017   */\n      tag_197\n      jump\t// in\n    tag_220:\n        /* \"#utility.yul\":7992:8017   */\n      swap2\n      pop\n        /* \"#utility.yul\":8031:8051   */\n      tag_221\n        /* \"#utility.yul\":8049:8050   */\n      dup4\n        /* \"#utility.yul\":8031:8051   */\n      tag_197\n      jump\t// in\n    tag_221:\n        /* \"#utility.yul\":8026:8051   */\n      swap3\n      pop\n        /* \"#utility.yul\":8219:8220   */\n      dup2\n        /* \"#utility.yul\":8151:8217   */\n      0xffffffffffffffffffffffffffffffffffffffffffffffffffffffffffffffff\n        /* \"#utility.yul\":8147:8221   */\n      div\n        /* \"#utility.yul\":8144:8145   */\n      dup4\n        /* \"#utility.yul\":8141:8222   */\n      gt\n        /* \"#utility.yul\":8136:8137   */\n      dup3\n        /* \"#utility.yul\":8129:8138   */\n      iszero\n        /* \"#utility.yul\":8122:8139   */\n      iszero\n        /* \"#utility.yul\":8118:8223   */\n      and\n        /* \"#utility.yul\":8115:8246   */\n      iszero\n      tag_222\n      jumpi\n        /* \"#utility.yul\":8226:8244   */\n      tag_223\n      tag_224\n      jump\t// in\n    tag_223:\n        /* \"#utility.yul\":8115:8246   */\n    tag_222:\n        /* \"#utility.yul\":8274:8275   */\n      dup3\n        /* \"#utility.yul\":8271:8272   */\n      dup3\n        /* \"#utility.yul\":8267:8276   */\n      mul\n        /* \"#utility.yul\":8256:8276   */\n      swap1\n      pop\n        /* \"#utility.yul\":7934:8282   */\n      swap3\n      swap2\n      pop\n      pop\n      jump\t// out\n        /* \"#utility.yul\":8288:8479   */\n    tag_91:\n        /* \"#utility.yul\":8328:8332   */\n      0x00\n        /* \"#utility.yul\":8348:8368   */\n      tag_226\n        /* \"#utility.yul\":8366:8367   */\n      dup3\n        /* \"#utility.yul\":8348:8368   */\n      tag_197\n      jump\t// in\n    tag_226:\n        /* \"#utility.yul\":8343:8368   */\n      swap2\n      pop\n        /* \"#utility.yul\":8382:8402   */\n      tag_227\n        /* \"#utility.yul\":8400:8401   */\n      dup4\n        /* \"#utility.yul\":8382:8402   */\n      tag_197\n      jump\t// in\n    tag_227:\n        /* \"#utility.yul\":8377:8402   */\n      swap3\n      pop\n        /* \"#utility.yul\":8421:8422   */\n      dup3\n        /* \"#utility.yul\":8418:8419   */\n      dup3\n        /* \"#utility.yul\":8415:8423   */\n      lt\n        /* \"#utility.yul\":8412:8446   */\n      iszero\n      tag_228\n      jumpi\n        /* \"#utility.yul\":8426:8444   */\n      tag_229\n      tag_224\n      jump\t// in\n    tag_229:\n        /* \"#utility.yul\":8412:8446   */\n    tag_228:\n        /* \"#utility.yul\":8471:8472   */\n      dup3\n        /* \"#utility.yul\":8468:8469   */\n      dup3\n        /* \"#utility.yul\":8464:8473   */\n      sub\n        /* \"#utility.yul\":8456:8473   */\n      swap1\n      pop\n        /* \"#utility.yul\":8288:8479   */\n      swap3\n      swap2\n      pop\n      pop\n      jump\t// out\n        /* \"#utility.yul\":8485:8581   */\n    tag_158:\n        /* \"#utility.yul\":8522:8529   */\n      0x00\n        /* \"#utility.yul\":8551:8575   */\n      tag_231\n        /* \"#utility.yul\":8569:8574   */\n      dup3\n        /* \"#utility.yul\":8551:8575   */\n      tag_232\n      jump\t// in\n    tag_231:\n        /* \"#utility.yul\":8540:8575   */\n      swap1\n      pop\n        /* \"#utility.yul\":8485:8581   */\n      swap2\n      swap1\n      pop\n      jump\t// out\n        /* \"#utility.yul\":8587:8664   */\n    tag_162:\n        /* \"#utility.yul\":8624:8631   */\n      0x00\n        /* \"#utility.yul\":8653:8658   */\n      dup2\n        /* \"#utility.yul\":8642:8658   */\n      swap1\n      pop\n        /* \"#utility.yul\":8587:8664   */\n      swap2\n      swap1\n      pop\n      jump\t// out\n        /* \"#utility.yul\":8670:8796   */\n    tag_232:\n        /* \"#utility.yul\":8707:8714   */\n      0x00\n        /* \"#utility.yul\":8747:8789   */\n      0xffffffffffffffffffffffffffffffffffffffff\n        /* \"#utility.yul\":8740:8745   */\n      dup3\n        /* \"#utility.yul\":8736:8790   */\n      and\n        /* \"#utility.yul\":8725:8790   */\n      swap1\n      pop\n        /* \"#utility.yul\":8670:8796   */\n      swap2\n      swap1\n      pop\n      jump\t// out\n        /* \"#utility.yul\":8802:8879   */\n    tag_197:\n        /* \"#utility.yul\":8839:8846   */\n      0x00\n        /* \"#utility.yul\":8868:8873   */\n      dup2\n        /* \"#utility.yul\":8857:8873   */\n      swap1\n      pop\n        /* \"#utility.yul\":8802:8879   */\n      swap2\n      swap1\n      pop\n      jump\t// out\n        /* \"#utility.yul\":8885:9065   */\n    tag_224:\n        /* \"#utility.yul\":8933:9010   */\n      0x4e487b7100000000000000000000000000000000000000000000000000000000\n        /* \"#utility.yul\":8930:8931   */\n      0x00\n        /* \"#utility.yul\":8923:9011   */\n      mstore\n        /* \"#utility.yul\":9030:9034   */\n      0x11\n        /* \"#utility.yul\":9027:9028   */\n      0x04\n        /* \"#utility.yul\":9020:9035   */\n      mstore\n        /* \"#utility.yul\":9054:9058   */\n      0x24\n        /* \"#utility.yul\":9051:9052   */\n      0x00\n        /* \"#utility.yul\":9044:9059   */\n      revert\n        /* \"#utility.yul\":9071:9251   */\n    tag_75:\n        /* \"#utility.yul\":9119:9196   */\n      0x4e487b7100000000000000000000000000000000000000000000000000000000\n        /* \"#utility.yul\":9116:9117   */\n      0x00\n        /* \"#utility.yul\":9109:9197   */\n      mstore\n        /* \"#utility.yul\":9216:9220   */\n      0x21\n        /* \"#utility.yul\":9213:9214   */\n      0x04\n        /* \"#utility.yul\":9206:9221   */\n      mstore\n        /* \"#utility.yul\":9240:9244   */\n      0x24\n        /* \"#utility.yul\":9237:9238   */\n      0x00\n        /* \"#utility.yul\":9230:9245   */\n      revert\n        /* \"#utility.yul\":9257:9437   */\n    tag_98:\n        /* \"#utility.yul\":9305:9382   */\n      0x4e487b7100000000000000000000000000000000000000000000000000000000\n        /* \"#utility.yul\":9302:9303   */\n      0x00\n        /* \"#utility.yul\":9295:9383   */\n      mstore\n        /* \"#utility.yul\":9402:9406   */\n      0x31\n        /* \"#utility.yul\":9399:9400   */\n      0x04\n        /* \"#utility.yul\":9392:9407   */\n      mstore\n        /* \"#utility.yul\":9426:9430   */\n      0x24\n        /* \"#utility.yul\":9423:9424   */\n      0x00\n        /* \"#utility.yul\":9416:9431   */\n      revert\n        /* \"#utility.yul\":9443:9623   */\n    tag_94:\n        /* \"#utility.yul\":9491:9568   */\n      0x4e487b7100000000000000000000000000000000000000000000000000000000\n        /* \"#utility.yul\":9488:9489   */\n      0x00\n        /* \"#utility.yul\":9481:9569   */\n      mstore\n        /* \"#utility.yul\":9588:9592   */\n      0x32\n        /* \"#utility.yul\":9585:9586   */\n      0x04\n        /* \"#utility.yul\":9578:9593   */\n      mstore\n        /* \"#utility.yul\":9612:9616   */\n      0x24\n        /* \"#utility.yul\":9609:9610   */\n      0x00\n        /* \"#utility.yul\":9602:9617   */\n      revert\n        /* \"#utility.yul\":9752:9869   */\n    tag_144:\n        /* \"#utility.yul\":9861:9862   */\n      0x00\n        /* \"#utility.yul\":9858:9859   */\n      dup1\n        /* \"#utility.yul\":9851:9863   */\n      revert\n        /* \"#utility.yul\":9875:10101   */\n    tag_168:\n        /* \"#utility.yul\":10015:10049   */\n      0x6f72646572206d757374206265206f6620636f72726563742073697a6520616e\n        /* \"#utility.yul\":10011:10012   */\n      0x00\n        /* \"#utility.yul\":10003:10009   */\n      dup3\n        /* \"#utility.yul\":9999:10013   */\n      add\n        /* \"#utility.yul\":9992:10050   */\n      mstore\n        /* \"#utility.yul\":10084:10093   */\n      0x6420707269636500000000000000000000000000000000000000000000000000\n        /* \"#utility.yul\":10079:10081   */\n      0x20\n        /* \"#utility.yul\":10071:10077   */\n      dup3\n        /* \"#utility.yul\":10067:10082   */\n      add\n        /* \"#utility.yul\":10060:10094   */\n      mstore\n        /* \"#utility.yul\":9875:10101   */\n      pop\n      jump\t// out\n        /* \"#utility.yul\":10107:10332   */\n    tag_173:\n        /* \"#utility.yul\":10247:10281   */\n      0x4f776e61626c653a206e6577206f776e657220697320746865207a65726f2061\n        /* \"#utility.yul\":10243:10244   */\n      0x00\n        /* \"#utility.yul\":10235:10241   */\n      dup3\n        /* \"#utility.yul\":10231:10245   */\n      add\n        /* \"#utility.yul\":10224:10282   */\n      mstore\n        /* \"#utility.yul\":10316:10324   */\n      0x6464726573730000000000000000000000000000000000000000000000000000\n        /* \"#utility.yul\":10311:10313   */\n      0x20\n        /* \"#utility.yul\":10303:10309   */\n      dup3\n        /* \"#utility.yul\":10299:10314   */\n      add\n        /* \"#utility.yul\":10292:10325   */\n      mstore\n        /* \"#utility.yul\":10107:10332   */\n      pop\n      jump\t// out\n        /* \"#utility.yul\":10338:10565   */\n    tag_178:\n        /* \"#utility.yul\":10478:10512   */\n      0x546869732070726f647563652068617320616c7265616479206265656e20696e\n        /* \"#utility.yul\":10474:10475   */\n      0x00\n        /* \"#utility.yul\":10466:10472   */\n      dup3\n        /* \"#utility.yul\":10462:10476   */\n      add\n        /* \"#utility.yul\":10455:10513   */\n      mstore\n        /* \"#utility.yul\":10547:10557   */\n      0x6974696c697a6564000000000000000000000000000000000000000000000000\n        /* \"#utility.yul\":10542:10544   */\n      0x20\n        /* \"#utility.yul\":10534:10540   */\n      dup3\n        /* \"#utility.yul\":10530:10545   */\n      add\n        /* \"#utility.yul\":10523:10558   */\n      mstore\n        /* \"#utility.yul\":10338:10565   */\n      pop\n      jump\t// out\n        /* \"#utility.yul\":10571:10805   */\n    tag_183:\n        /* \"#utility.yul\":10711:10745   */\n      0x6661726d65722063616e6e6f7420706c616365206f7264657220666f72207468\n        /* \"#utility.yul\":10707:10708   */\n      0x00\n        /* \"#utility.yul\":10699:10705   */\n      dup3\n        /* \"#utility.yul\":10695:10709   */\n      add\n        /* \"#utility.yul\":10688:10746   */\n      mstore\n        /* \"#utility.yul\":10780:10797   */\n      0x656972206f776e2070726f647563650000000000000000000000000000000000\n        /* \"#utility.yul\":10775:10777   */\n      0x20\n        /* \"#utility.yul\":10767:10773   */\n      dup3\n        /* \"#utility.yul\":10763:10778   */\n      add\n        /* \"#utility.yul\":10756:10798   */\n      mstore\n        /* \"#utility.yul\":10571:10805   */\n      pop\n      jump\t// out\n        /* \"#utility.yul\":10811:10993   */\n    tag_188:\n        /* \"#utility.yul\":10951:10985   */\n      0x4f776e61626c653a2063616c6c6572206973206e6f7420746865206f776e6572\n        /* \"#utility.yul\":10947:10948   */\n      0x00\n        /* \"#utility.yul\":10939:10945   */\n      dup3\n        /* \"#utility.yul\":10935:10949   */\n      add\n        /* \"#utility.yul\":10928:10986   */\n      mstore\n        /* \"#utility.yul\":10811:10993   */\n      pop\n      jump\t// out\n        /* \"#utility.yul\":10999:11166   */\n    tag_193:\n        /* \"#utility.yul\":11139:11158   */\n      0x4e6f206f726465727320746f2074616b65000000000000000000000000000000\n        /* \"#utility.yul\":11135:11136   */\n      0x00\n        /* \"#utility.yul\":11127:11133   */\n      dup3\n        /* \"#utility.yul\":11123:11137   */\n      add\n        /* \"#utility.yul\":11116:11159   */\n      mstore\n        /* \"#utility.yul\":10999:11166   */\n      pop\n      jump\t// out\n        /* \"#utility.yul\":11172:11294   */\n    tag_132:\n        /* \"#utility.yul\":11245:11269   */\n      tag_250\n        /* \"#utility.yul\":11263:11268   */\n      dup2\n        /* \"#utility.yul\":11245:11269   */\n      tag_158\n      jump\t// in\n    tag_250:\n        /* \"#utility.yul\":11238:11243   */\n      dup2\n        /* \"#utility.yul\":11235:11270   */\n      eq\n        /* \"#utility.yul\":11225:11288   */\n      tag_251\n      jumpi\n        /* \"#utility.yul\":11284:11285   */\n      0x00\n        /* \"#utility.yul\":11281:11282   */\n      dup1\n        /* \"#utility.yul\":11274:11286   */\n      revert\n        /* \"#utility.yul\":11225:11288   */\n    tag_251:\n        /* \"#utility.yul\":11172:11294   */\n      pop\n      jump\t// out\n        /* \"#utility.yul\":11300:11422   */\n    tag_136:\n        /* \"#utility.yul\":11373:11397   */\n      tag_253\n        /* \"#utility.yul\":11391:11396   */\n      dup2\n        /* \"#utility.yul\":11373:11397   */\n      tag_162\n      jump\t// in\n    tag_253:\n        /* \"#utility.yul\":11366:11371   */\n      dup2\n        /* \"#utility.yul\":11363:11398   */\n      eq\n        /* \"#utility.yul\":11353:11416   */\n      tag_254\n      jumpi\n        /* \"#utility.yul\":11412:11413   */\n      0x00\n        /* \"#utility.yul\":11409:11410   */\n      dup1\n        /* \"#utility.yul\":11402:11414   */\n      revert\n        /* \"#utility.yul\":11353:11416   */\n    tag_254:\n        /* \"#utility.yul\":11300:11422   */\n      pop\n      jump\t// out\n        /* \"#utility.yul\":11428:11550   */\n    tag_140:\n        /* \"#utility.yul\":11501:11525   */\n      tag_256\n        /* \"#utility.yul\":11519:11524   */\n      dup2\n        /* \"#utility.yul\":11501:11525   */\n      tag_197\n      jump\t// in\n    tag_256:\n        /* \"#utility.yul\":11494:11499   */\n      dup2\n        /* \"#utility.yul\":11491:11526   */\n      eq\n        /* \"#utility.yul\":11481:11544   */\n      tag_257\n      jumpi\n        /* \"#utility.yul\":11540:11541   */\n      0x00\n        /* \"#utility.yul\":11537:11538   */\n      dup1\n        /* \"#utility.yul\":11530:11542   */\n      revert\n        /* \"#utility.yul\":11481:11544   */\n    tag_257:\n        /* \"#utility.yul\":11428:11550   */\n      pop\n      jump\t// out\n\n    auxdata: 0xa26469706673582212200a2ab8675bae6593c07383db2bfd0d05c2ea610ea411364338e338560db48ec664736f6c63430008070033\n}\n",
				"bytecode": {
					"linkReferences": {},
					"object": "608060405234801561001057600080fd5b5061002d61002261005d60201b60201c565b61006560201b60201c565b6000600860006101000a81548160ff0219169083600181111561005357610052610129565b5b0217905550610158565b600033905090565b60008060009054906101000a900473ffffffffffffffffffffffffffffffffffffffff169050816000806101000a81548173ffffffffffffffffffffffffffffffffffffffff021916908373ffffffffffffffffffffffffffffffffffffffff1602179055508173ffffffffffffffffffffffffffffffffffffffff168173ffffffffffffffffffffffffffffffffffffffff167f8be0079c531659141344cd1fd0a4f28419497f9722a3daafe3b4186f6b6457e060405160405180910390a35050565b7f4e487b7100000000000000000000000000000000000000000000000000000000600052602160045260246000fd5b610e86806101676000396000f3fe6080604052600436106100a75760003560e01c8063aa8c217c11610064578063aa8c217c1461019a578063c8dde807146101c5578063d32dacc1146101ee578063d811fcf014610219578063f2fde38b14610244578063f5c609e01461026d576100a7565b806306fdde03146100ac578063530d124e146100d75780636d86b8a514610102578063715018a61461012d5780638da5cb5b14610144578063a035b1fe1461016f575b600080fd5b3480156100b857600080fd5b506100c1610277565b6040516100ce9190610abc565b60405180910390f35b3480156100e357600080fd5b506100ec61027d565b6040516100f99190610abc565b60405180910390f35b34801561010e57600080fd5b50610117610283565b6040516101249190610abc565b60405180910390f35b34801561013957600080fd5b50610142610289565b005b34801561015057600080fd5b5061015961029d565b60405161016691906109c6565b60405180910390f35b34801561017b57600080fd5b506101846102c6565b6040516101919190610abc565b60405180910390f35b3480156101a657600080fd5b506101af6102cc565b6040516101bc91906109e1565b60405180910390f35b3480156101d157600080fd5b506101ec60048036038101906101e7919061083a565b6102d2565b005b3480156101fa57600080fd5b506102036103a7565b60405161021091906109c6565b60405180910390f35b34801561022557600080fd5b5061022e61049b565b60405161023b91906109c6565b60405180910390f35b34801561025057600080fd5b5061026b6004803603810190610266919061080d565b6104c1565b005b610275610545565b005b60045481565b60035481565b60065481565b610291610684565b61029b6000610702565b565b60008060009054906101000a900473ffffffffffffffffffffffffffffffffffffffff16905090565b60055481565b60075481565b600060018111156102e6576102e5610beb565b5b600860009054906101000a900460ff16600181111561030857610307610beb565b5b14610348576040517f08c379a000000000000000000000000000000000000000000000000000000000815260040161033f90610a3c565b60405180910390fd5b61035186610702565b80600381905550846004819055508360058190555082600681905550816007819055506001600860006101000a81548160ff0219169083600181111561039a57610399610beb565b5b0217905550505050505050565b60006103b1610684565b6000600280549050116103f9576040517f08c379a00000000000000000000000000000000000000000000000000000000081526004016103f090610a9c565b60405180910390fd5b60006002600160028054905061040f9190610b42565b815481106104205761041f610c49565b5b9060005260206000200160009054906101000a900473ffffffffffffffffffffffffffffffffffffffff169050600280548061045f5761045e610c1a565b5b6001900381819060005260206000200160006101000a81549073ffffffffffffffffffffffffffffffffffffffff021916905590558091505090565b600160009054906101000a900473ffffffffffffffffffffffffffffffffffffffff1681565b6104c9610684565b600073ffffffffffffffffffffffffffffffffffffffff168173ffffffffffffffffffffffffffffffffffffffff161415610539576040517f08c379a000000000000000000000000000000000000000000000000000000000815260040161053090610a1c565b60405180910390fd5b61054281610702565b50565b61054d61029d565b73ffffffffffffffffffffffffffffffffffffffff163373ffffffffffffffffffffffffffffffffffffffff1614156105bb576040517f08c379a00000000000000000000000000000000000000000000000000000000081526004016105b290610a5c565b60405180910390fd5b6005546006546105cb9190610ae8565b341461060c576040517f08c379a0000000000000000000000000000000000000000000000000000000008152600401610603906109fc565b60405180910390fd5b6003546002805490501061061f57600080fd5b6002339080600181540180825580915050600190039060005260206000200160009091909190916101000a81548173ffffffffffffffffffffffffffffffffffffffff021916908373ffffffffffffffffffffffffffffffffffffffff160217905550565b61068c6107c6565b73ffffffffffffffffffffffffffffffffffffffff166106aa61029d565b73ffffffffffffffffffffffffffffffffffffffff1614610700576040517f08c379a00000000000000000000000000000000000000000000000000000000081526004016106f790610a7c565b60405180910390fd5b565b60008060009054906101000a900473ffffffffffffffffffffffffffffffffffffffff169050816000806101000a81548173ffffffffffffffffffffffffffffffffffffffff021916908373ffffffffffffffffffffffffffffffffffffffff1602179055508173ffffffffffffffffffffffffffffffffffffffff168173ffffffffffffffffffffffffffffffffffffffff167f8be0079c531659141344cd1fd0a4f28419497f9722a3daafe3b4186f6b6457e060405160405180910390a35050565b600033905090565b6000813590506107dd81610e0b565b92915050565b6000813590506107f281610e22565b92915050565b60008135905061080781610e39565b92915050565b60006020828403121561082357610822610c78565b5b6000610831848285016107ce565b91505092915050565b60008060008060008060c0878903121561085757610856610c78565b5b600061086589828a016107ce565b965050602061087689828a016107f8565b955050604061088789828a016107f8565b945050606061089889828a016107f8565b93505060806108a989828a016107e3565b92505060a06108ba89828a016107f8565b9150509295509295509295565b6108d081610b76565b82525050565b6108df81610b88565b82525050565b60006108f2602783610ad7565b91506108fd82610c7d565b604082019050919050565b6000610915602683610ad7565b915061092082610ccc565b604082019050919050565b6000610938602883610ad7565b915061094382610d1b565b604082019050919050565b600061095b602f83610ad7565b915061096682610d6a565b604082019050919050565b600061097e602083610ad7565b915061098982610db9565b602082019050919050565b60006109a1601183610ad7565b91506109ac82610de2565b602082019050919050565b6109c081610bb2565b82525050565b60006020820190506109db60008301846108c7565b92915050565b60006020820190506109f660008301846108d6565b92915050565b60006020820190508181036000830152610a15816108e5565b9050919050565b60006020820190508181036000830152610a3581610908565b9050919050565b60006020820190508181036000830152610a558161092b565b9050919050565b60006020820190508181036000830152610a758161094e565b9050919050565b60006020820190508181036000830152610a9581610971565b9050919050565b60006020820190508181036000830152610ab581610994565b9050919050565b6000602082019050610ad160008301846109b7565b92915050565b600082825260208201905092915050565b6000610af382610bb2565b9150610afe83610bb2565b9250817fffffffffffffffffffffffffffffffffffffffffffffffffffffffffffffffff0483118215151615610b3757610b36610bbc565b5b828202905092915050565b6000610b4d82610bb2565b9150610b5883610bb2565b925082821015610b6b57610b6a610bbc565b5b828203905092915050565b6000610b8182610b92565b9050919050565b6000819050919050565b600073ffffffffffffffffffffffffffffffffffffffff82169050919050565b6000819050919050565b7f4e487b7100000000000000000000000000000000000000000000000000000000600052601160045260246000fd5b7f4e487b7100000000000000000000000000000000000000000000000000000000600052602160045260246000fd5b7f4e487b7100000000000000000000000000000000000000000000000000000000600052603160045260246000fd5b7f4e487b7100000000000000000000000000000000000000000000000000000000600052603260045260246000fd5b600080fd5b7f6f72646572206d757374206265206f6620636f72726563742073697a6520616e60008201527f6420707269636500000000000000000000000000000000000000000000000000602082015250565b7f4f776e61626c653a206e6577206f776e657220697320746865207a65726f206160008201527f6464726573730000000000000000000000000000000000000000000000000000602082015250565b7f546869732070726f647563652068617320616c7265616479206265656e20696e60008201527f6974696c697a6564000000000000000000000000000000000000000000000000602082015250565b7f6661726d65722063616e6e6f7420706c616365206f7264657220666f7220746860008201527f656972206f776e2070726f647563650000000000000000000000000000000000602082015250565b7f4f776e61626c653a2063616c6c6572206973206e6f7420746865206f776e6572600082015250565b7f4e6f206f726465727320746f2074616b65000000000000000000000000000000600082015250565b610e1481610b76565b8114610e1f57600080fd5b50565b610e2b81610b88565b8114610e3657600080fd5b50565b610e4281610bb2565b8114610e4d57600080fd5b5056fea26469706673582212200a2ab8675bae6593c07383db2bfd0d05c2ea610ea411364338e338560db48ec664736f6c63430008070033",
					"opcodes": "PUSH1 0x80 PUSH1 0x40 MSTORE CALLVALUE DUP1 ISZERO PUSH2 0x10 JUMPI PUSH1 0x0 DUP1 REVERT JUMPDEST POP PUSH2 0x2D PUSH2 0x22 PUSH2 0x5D PUSH1 0x20 SHL PUSH1 0x20 SHR JUMP JUMPDEST PUSH2 0x65 PUSH1 0x20 SHL PUSH1 0x20 SHR JUMP JUMPDEST PUSH1 0x0 PUSH1 0x8 PUSH1 0x0 PUSH2 0x100 EXP DUP2 SLOAD DUP2 PUSH1 0xFF MUL NOT AND SWAP1 DUP4 PUSH1 0x1 DUP2 GT ISZERO PUSH2 0x53 JUMPI PUSH2 0x52 PUSH2 0x129 JUMP JUMPDEST JUMPDEST MUL OR SWAP1 SSTORE POP PUSH2 0x158 JUMP JUMPDEST PUSH1 0x0 CALLER SWAP1 POP SWAP1 JUMP JUMPDEST PUSH1 0x0 DUP1 PUSH1 0x0 SWAP1 SLOAD SWAP1 PUSH2 0x100 EXP SWAP1 DIV PUSH20 0xFFFFFFFFFFFFFFFFFFFFFFFFFFFFFFFFFFFFFFFF AND SWAP1 POP DUP2 PUSH1 0x0 DUP1 PUSH2 0x100 EXP DUP2 SLOAD DUP2 PUSH20 0xFFFFFFFFFFFFFFFFFFFFFFFFFFFFFFFFFFFFFFFF MUL NOT AND SWAP1 DUP4 PUSH20 0xFFFFFFFFFFFFFFFFFFFFFFFFFFFFFFFFFFFFFFFF AND MUL OR SWAP1 SSTORE POP DUP2 PUSH20 0xFFFFFFFFFFFFFFFFFFFFFFFFFFFFFFFFFFFFFFFF AND DUP2 PUSH20 0xFFFFFFFFFFFFFFFFFFFFFFFFFFFFFFFFFFFFFFFF AND PUSH32 0x8BE0079C531659141344CD1FD0A4F28419497F9722A3DAAFE3B4186F6B6457E0 PUSH1 0x40 MLOAD PUSH1 0x40 MLOAD DUP1 SWAP2 SUB SWAP1 LOG3 POP POP JUMP JUMPDEST PUSH32 0x4E487B7100000000000000000000000000000000000000000000000000000000 PUSH1 0x0 MSTORE PUSH1 0x21 PUSH1 0x4 MSTORE PUSH1 0x24 PUSH1 0x0 REVERT JUMPDEST PUSH2 0xE86 DUP1 PUSH2 0x167 PUSH1 0x0 CODECOPY PUSH1 0x0 RETURN INVALID PUSH1 0x80 PUSH1 0x40 MSTORE PUSH1 0x4 CALLDATASIZE LT PUSH2 0xA7 JUMPI PUSH1 0x0 CALLDATALOAD PUSH1 0xE0 SHR DUP1 PUSH4 0xAA8C217C GT PUSH2 0x64 JUMPI DUP1 PUSH4 0xAA8C217C EQ PUSH2 0x19A JUMPI DUP1 PUSH4 0xC8DDE807 EQ PUSH2 0x1C5 JUMPI DUP1 PUSH4 0xD32DACC1 EQ PUSH2 0x1EE JUMPI DUP1 PUSH4 0xD811FCF0 EQ PUSH2 0x219 JUMPI DUP1 PUSH4 0xF2FDE38B EQ PUSH2 0x244 JUMPI DUP1 PUSH4 0xF5C609E0 EQ PUSH2 0x26D JUMPI PUSH2 0xA7 JUMP JUMPDEST DUP1 PUSH4 0x6FDDE03 EQ PUSH2 0xAC JUMPI DUP1 PUSH4 0x530D124E EQ PUSH2 0xD7 JUMPI DUP1 PUSH4 0x6D86B8A5 EQ PUSH2 0x102 JUMPI DUP1 PUSH4 0x715018A6 EQ PUSH2 0x12D JUMPI DUP1 PUSH4 0x8DA5CB5B EQ PUSH2 0x144 JUMPI DUP1 PUSH4 0xA035B1FE EQ PUSH2 0x16F JUMPI JUMPDEST PUSH1 0x0 DUP1 REVERT JUMPDEST CALLVALUE DUP1 ISZERO PUSH2 0xB8 JUMPI PUSH1 0x0 DUP1 REVERT JUMPDEST POP PUSH2 0xC1 PUSH2 0x277 JUMP JUMPDEST PUSH1 0x40 MLOAD PUSH2 0xCE SWAP2 SWAP1 PUSH2 0xABC JUMP JUMPDEST PUSH1 0x40 MLOAD DUP1 SWAP2 SUB SWAP1 RETURN JUMPDEST CALLVALUE DUP1 ISZERO PUSH2 0xE3 JUMPI PUSH1 0x0 DUP1 REVERT JUMPDEST POP PUSH2 0xEC PUSH2 0x27D JUMP JUMPDEST PUSH1 0x40 MLOAD PUSH2 0xF9 SWAP2 SWAP1 PUSH2 0xABC JUMP JUMPDEST PUSH1 0x40 MLOAD DUP1 SWAP2 SUB SWAP1 RETURN JUMPDEST CALLVALUE DUP1 ISZERO PUSH2 0x10E JUMPI PUSH1 0x0 DUP1 REVERT JUMPDEST POP PUSH2 0x117 PUSH2 0x283 JUMP JUMPDEST PUSH1 0x40 MLOAD PUSH2 0x124 SWAP2 SWAP1 PUSH2 0xABC JUMP JUMPDEST PUSH1 0x40 MLOAD DUP1 SWAP2 SUB SWAP1 RETURN JUMPDEST CALLVALUE DUP1 ISZERO PUSH2 0x139 JUMPI PUSH1 0x0 DUP1 REVERT JUMPDEST POP PUSH2 0x142 PUSH2 0x289 JUMP JUMPDEST STOP JUMPDEST CALLVALUE DUP1 ISZERO PUSH2 0x150 JUMPI PUSH1 0x0 DUP1 REVERT JUMPDEST POP PUSH2 0x159 PUSH2 0x29D JUMP JUMPDEST PUSH1 0x40 MLOAD PUSH2 0x166 SWAP2 SWAP1 PUSH2 0x9C6 JUMP JUMPDEST PUSH1 0x40 MLOAD DUP1 SWAP2 SUB SWAP1 RETURN JUMPDEST CALLVALUE DUP1 ISZERO PUSH2 0x17B JUMPI PUSH1 0x0 DUP1 REVERT JUMPDEST POP PUSH2 0x184 PUSH2 0x2C6 JUMP JUMPDEST PUSH1 0x40 MLOAD PUSH2 0x191 SWAP2 SWAP1 PUSH2 0xABC JUMP JUMPDEST PUSH1 0x40 MLOAD DUP1 SWAP2 SUB SWAP1 RETURN JUMPDEST CALLVALUE DUP1 ISZERO PUSH2 0x1A6 JUMPI PUSH1 0x0 DUP1 REVERT JUMPDEST POP PUSH2 0x1AF PUSH2 0x2CC JUMP JUMPDEST PUSH1 0x40 MLOAD PUSH2 0x1BC SWAP2 SWAP1 PUSH2 0x9E1 JUMP JUMPDEST PUSH1 0x40 MLOAD DUP1 SWAP2 SUB SWAP1 RETURN JUMPDEST CALLVALUE DUP1 ISZERO PUSH2 0x1D1 JUMPI PUSH1 0x0 DUP1 REVERT JUMPDEST POP PUSH2 0x1EC PUSH1 0x4 DUP1 CALLDATASIZE SUB DUP2 ADD SWAP1 PUSH2 0x1E7 SWAP2 SWAP1 PUSH2 0x83A JUMP JUMPDEST PUSH2 0x2D2 JUMP JUMPDEST STOP JUMPDEST CALLVALUE DUP1 ISZERO PUSH2 0x1FA JUMPI PUSH1 0x0 DUP1 REVERT JUMPDEST POP PUSH2 0x203 PUSH2 0x3A7 JUMP JUMPDEST PUSH1 0x40 MLOAD PUSH2 0x210 SWAP2 SWAP1 PUSH2 0x9C6 JUMP JUMPDEST PUSH1 0x40 MLOAD DUP1 SWAP2 SUB SWAP1 RETURN JUMPDEST CALLVALUE DUP1 ISZERO PUSH2 0x225 JUMPI PUSH1 0x0 DUP1 REVERT JUMPDEST POP PUSH2 0x22E PUSH2 0x49B JUMP JUMPDEST PUSH1 0x40 MLOAD PUSH2 0x23B SWAP2 SWAP1 PUSH2 0x9C6 JUMP JUMPDEST PUSH1 0x40 MLOAD DUP1 SWAP2 SUB SWAP1 RETURN JUMPDEST CALLVALUE DUP1 ISZERO PUSH2 0x250 JUMPI PUSH1 0x0 DUP1 REVERT JUMPDEST POP PUSH2 0x26B PUSH1 0x4 DUP1 CALLDATASIZE SUB DUP2 ADD SWAP1 PUSH2 0x266 SWAP2 SWAP1 PUSH2 0x80D JUMP JUMPDEST PUSH2 0x4C1 JUMP JUMPDEST STOP JUMPDEST PUSH2 0x275 PUSH2 0x545 JUMP JUMPDEST STOP JUMPDEST PUSH1 0x4 SLOAD DUP2 JUMP JUMPDEST PUSH1 0x3 SLOAD DUP2 JUMP JUMPDEST PUSH1 0x6 SLOAD DUP2 JUMP JUMPDEST PUSH2 0x291 PUSH2 0x684 JUMP JUMPDEST PUSH2 0x29B PUSH1 0x0 PUSH2 0x702 JUMP JUMPDEST JUMP JUMPDEST PUSH1 0x0 DUP1 PUSH1 0x0 SWAP1 SLOAD SWAP1 PUSH2 0x100 EXP SWAP1 DIV PUSH20 0xFFFFFFFFFFFFFFFFFFFFFFFFFFFFFFFFFFFFFFFF AND SWAP1 POP SWAP1 JUMP JUMPDEST PUSH1 0x5 SLOAD DUP2 JUMP JUMPDEST PUSH1 0x7 SLOAD DUP2 JUMP JUMPDEST PUSH1 0x0 PUSH1 0x1 DUP2 GT ISZERO PUSH2 0x2E6 JUMPI PUSH2 0x2E5 PUSH2 0xBEB JUMP JUMPDEST JUMPDEST PUSH1 0x8 PUSH1 0x0 SWAP1 SLOAD SWAP1 PUSH2 0x100 EXP SWAP1 DIV PUSH1 0xFF AND PUSH1 0x1 DUP2 GT ISZERO PUSH2 0x308 JUMPI PUSH2 0x307 PUSH2 0xBEB JUMP JUMPDEST JUMPDEST EQ PUSH2 0x348 JUMPI PUSH1 0x40 MLOAD PUSH32 0x8C379A000000000000000000000000000000000000000000000000000000000 DUP2 MSTORE PUSH1 0x4 ADD PUSH2 0x33F SWAP1 PUSH2 0xA3C JUMP JUMPDEST PUSH1 0x40 MLOAD DUP1 SWAP2 SUB SWAP1 REVERT JUMPDEST PUSH2 0x351 DUP7 PUSH2 0x702 JUMP JUMPDEST DUP1 PUSH1 0x3 DUP2 SWAP1 SSTORE POP DUP5 PUSH1 0x4 DUP2 SWAP1 SSTORE POP DUP4 PUSH1 0x5 DUP2 SWAP1 SSTORE POP DUP3 PUSH1 0x6 DUP2 SWAP1 SSTORE POP DUP2 PUSH1 0x7 DUP2 SWAP1 SSTORE POP PUSH1 0x1 PUSH1 0x8 PUSH1 0x0 PUSH2 0x100 EXP DUP2 SLOAD DUP2 PUSH1 0xFF MUL NOT AND SWAP1 DUP4 PUSH1 0x1 DUP2 GT ISZERO PUSH2 0x39A JUMPI PUSH2 0x399 PUSH2 0xBEB JUMP JUMPDEST JUMPDEST MUL OR SWAP1 SSTORE POP POP POP POP POP POP POP JUMP JUMPDEST PUSH1 0x0 PUSH2 0x3B1 PUSH2 0x684 JUMP JUMPDEST PUSH1 0x0 PUSH1 0x2 DUP1 SLOAD SWAP1 POP GT PUSH2 0x3F9 JUMPI PUSH1 0x40 MLOAD PUSH32 0x8C379A000000000000000000000000000000000000000000000000000000000 DUP2 MSTORE PUSH1 0x4 ADD PUSH2 0x3F0 SWAP1 PUSH2 0xA9C JUMP JUMPDEST PUSH1 0x40 MLOAD DUP1 SWAP2 SUB SWAP1 REVERT JUMPDEST PUSH1 0x0 PUSH1 0x2 PUSH1 0x1 PUSH1 0x2 DUP1 SLOAD SWAP1 POP PUSH2 0x40F SWAP2 SWAP1 PUSH2 0xB42 JUMP JUMPDEST DUP2 SLOAD DUP2 LT PUSH2 0x420 JUMPI PUSH2 0x41F PUSH2 0xC49 JUMP JUMPDEST JUMPDEST SWAP1 PUSH1 0x0 MSTORE PUSH1 0x20 PUSH1 0x0 KECCAK256 ADD PUSH1 0x0 SWAP1 SLOAD SWAP1 PUSH2 0x100 EXP SWAP1 DIV PUSH20 0xFFFFFFFFFFFFFFFFFFFFFFFFFFFFFFFFFFFFFFFF AND SWAP1 POP PUSH1 0x2 DUP1 SLOAD DUP1 PUSH2 0x45F JUMPI PUSH2 0x45E PUSH2 0xC1A JUMP JUMPDEST JUMPDEST PUSH1 0x1 SWAP1 SUB DUP2 DUP2 SWAP1 PUSH1 0x0 MSTORE PUSH1 0x20 PUSH1 0x0 KECCAK256 ADD PUSH1 0x0 PUSH2 0x100 EXP DUP2 SLOAD SWAP1 PUSH20 0xFFFFFFFFFFFFFFFFFFFFFFFFFFFFFFFFFFFFFFFF MUL NOT AND SWAP1 SSTORE SWAP1 SSTORE DUP1 SWAP2 POP POP SWAP1 JUMP JUMPDEST PUSH1 0x1 PUSH1 0x0 SWAP1 SLOAD SWAP1 PUSH2 0x100 EXP SWAP1 DIV PUSH20 0xFFFFFFFFFFFFFFFFFFFFFFFFFFFFFFFFFFFFFFFF AND DUP2 JUMP JUMPDEST PUSH2 0x4C9 PUSH2 0x684 JUMP JUMPDEST PUSH1 0x0 PUSH20 0xFFFFFFFFFFFFFFFFFFFFFFFFFFFFFFFFFFFFFFFF AND DUP2 PUSH20 0xFFFFFFFFFFFFFFFFFFFFFFFFFFFFFFFFFFFFFFFF AND EQ ISZERO PUSH2 0x539 JUMPI PUSH1 0x40 MLOAD PUSH32 0x8C379A000000000000000000000000000000000000000000000000000000000 DUP2 MSTORE PUSH1 0x4 ADD PUSH2 0x530 SWAP1 PUSH2 0xA1C JUMP JUMPDEST PUSH1 0x40 MLOAD DUP1 SWAP2 SUB SWAP1 REVERT JUMPDEST PUSH2 0x542 DUP2 PUSH2 0x702 JUMP JUMPDEST POP JUMP JUMPDEST PUSH2 0x54D PUSH2 0x29D JUMP JUMPDEST PUSH20 0xFFFFFFFFFFFFFFFFFFFFFFFFFFFFFFFFFFFFFFFF AND CALLER PUSH20 0xFFFFFFFFFFFFFFFFFFFFFFFFFFFFFFFFFFFFFFFF AND EQ ISZERO PUSH2 0x5BB JUMPI PUSH1 0x40 MLOAD PUSH32 0x8C379A000000000000000000000000000000000000000000000000000000000 DUP2 MSTORE PUSH1 0x4 ADD PUSH2 0x5B2 SWAP1 PUSH2 0xA5C JUMP JUMPDEST PUSH1 0x40 MLOAD DUP1 SWAP2 SUB SWAP1 REVERT JUMPDEST PUSH1 0x5 SLOAD PUSH1 0x6 SLOAD PUSH2 0x5CB SWAP2 SWAP1 PUSH2 0xAE8 JUMP JUMPDEST CALLVALUE EQ PUSH2 0x60C JUMPI PUSH1 0x40 MLOAD PUSH32 0x8C379A000000000000000000000000000000000000000000000000000000000 DUP2 MSTORE PUSH1 0x4 ADD PUSH2 0x603 SWAP1 PUSH2 0x9FC JUMP JUMPDEST PUSH1 0x40 MLOAD DUP1 SWAP2 SUB SWAP1 REVERT JUMPDEST PUSH1 0x3 SLOAD PUSH1 0x2 DUP1 SLOAD SWAP1 POP LT PUSH2 0x61F JUMPI PUSH1 0x0 DUP1 REVERT JUMPDEST PUSH1 0x2 CALLER SWAP1 DUP1 PUSH1 0x1 DUP2 SLOAD ADD DUP1 DUP3 SSTORE DUP1 SWAP2 POP POP PUSH1 0x1 SWAP1 SUB SWAP1 PUSH1 0x0 MSTORE PUSH1 0x20 PUSH1 0x0 KECCAK256 ADD PUSH1 0x0 SWAP1 SWAP2 SWAP1 SWAP2 SWAP1 SWAP2 PUSH2 0x100 EXP DUP2 SLOAD DUP2 PUSH20 0xFFFFFFFFFFFFFFFFFFFFFFFFFFFFFFFFFFFFFFFF MUL NOT AND SWAP1 DUP4 PUSH20 0xFFFFFFFFFFFFFFFFFFFFFFFFFFFFFFFFFFFFFFFF AND MUL OR SWAP1 SSTORE POP JUMP JUMPDEST PUSH2 0x68C PUSH2 0x7C6 JUMP JUMPDEST PUSH20 0xFFFFFFFFFFFFFFFFFFFFFFFFFFFFFFFFFFFFFFFF AND PUSH2 0x6AA PUSH2 0x29D JUMP JUMPDEST PUSH20 0xFFFFFFFFFFFFFFFFFFFFFFFFFFFFFFFFFFFFFFFF AND EQ PUSH2 0x700 JUMPI PUSH1 0x40 MLOAD PUSH32 0x8C379A000000000000000000000000000000000000000000000000000000000 DUP2 MSTORE PUSH1 0x4 ADD PUSH2 0x6F7 SWAP1 PUSH2 0xA7C JUMP JUMPDEST PUSH1 0x40 MLOAD DUP1 SWAP2 SUB SWAP1 REVERT JUMPDEST JUMP JUMPDEST PUSH1 0x0 DUP1 PUSH1 0x0 SWAP1 SLOAD SWAP1 PUSH2 0x100 EXP SWAP1 DIV PUSH20 0xFFFFFFFFFFFFFFFFFFFFFFFFFFFFFFFFFFFFFFFF AND SWAP1 POP DUP2 PUSH1 0x0 DUP1 PUSH2 0x100 EXP DUP2 SLOAD DUP2 PUSH20 0xFFFFFFFFFFFFFFFFFFFFFFFFFFFFFFFFFFFFFFFF MUL NOT AND SWAP1 DUP4 PUSH20 0xFFFFFFFFFFFFFFFFFFFFFFFFFFFFFFFFFFFFFFFF AND MUL OR SWAP1 SSTORE POP DUP2 PUSH20 0xFFFFFFFFFFFFFFFFFFFFFFFFFFFFFFFFFFFFFFFF AND DUP2 PUSH20 0xFFFFFFFFFFFFFFFFFFFFFFFFFFFFFFFFFFFFFFFF AND PUSH32 0x8BE0079C531659141344CD1FD0A4F28419497F9722A3DAAFE3B4186F6B6457E0 PUSH1 0x40 MLOAD PUSH1 0x40 MLOAD DUP1 SWAP2 SUB SWAP1 LOG3 POP POP JUMP JUMPDEST PUSH1 0x0 CALLER SWAP1 POP SWAP1 JUMP JUMPDEST PUSH1 0x0 DUP2 CALLDATALOAD SWAP1 POP PUSH2 0x7DD DUP2 PUSH2 0xE0B JUMP JUMPDEST SWAP3 SWAP2 POP POP JUMP JUMPDEST PUSH1 0x0 DUP2 CALLDATALOAD SWAP1 POP PUSH2 0x7F2 DUP2 PUSH2 0xE22 JUMP JUMPDEST SWAP3 SWAP2 POP POP JUMP JUMPDEST PUSH1 0x0 DUP2 CALLDATALOAD SWAP1 POP PUSH2 0x807 DUP2 PUSH2 0xE39 JUMP JUMPDEST SWAP3 SWAP2 POP POP JUMP JUMPDEST PUSH1 0x0 PUSH1 0x20 DUP3 DUP5 SUB SLT ISZERO PUSH2 0x823 JUMPI PUSH2 0x822 PUSH2 0xC78 JUMP JUMPDEST JUMPDEST PUSH1 0x0 PUSH2 0x831 DUP5 DUP3 DUP6 ADD PUSH2 0x7CE JUMP JUMPDEST SWAP2 POP POP SWAP3 SWAP2 POP POP JUMP JUMPDEST PUSH1 0x0 DUP1 PUSH1 0x0 DUP1 PUSH1 0x0 DUP1 PUSH1 0xC0 DUP8 DUP10 SUB SLT ISZERO PUSH2 0x857 JUMPI PUSH2 0x856 PUSH2 0xC78 JUMP JUMPDEST JUMPDEST PUSH1 0x0 PUSH2 0x865 DUP10 DUP3 DUP11 ADD PUSH2 0x7CE JUMP JUMPDEST SWAP7 POP POP PUSH1 0x20 PUSH2 0x876 DUP10 DUP3 DUP11 ADD PUSH2 0x7F8 JUMP JUMPDEST SWAP6 POP POP PUSH1 0x40 PUSH2 0x887 DUP10 DUP3 DUP11 ADD PUSH2 0x7F8 JUMP JUMPDEST SWAP5 POP POP PUSH1 0x60 PUSH2 0x898 DUP10 DUP3 DUP11 ADD PUSH2 0x7F8 JUMP JUMPDEST SWAP4 POP POP PUSH1 0x80 PUSH2 0x8A9 DUP10 DUP3 DUP11 ADD PUSH2 0x7E3 JUMP JUMPDEST SWAP3 POP POP PUSH1 0xA0 PUSH2 0x8BA DUP10 DUP3 DUP11 ADD PUSH2 0x7F8 JUMP JUMPDEST SWAP2 POP POP SWAP3 SWAP6 POP SWAP3 SWAP6 POP SWAP3 SWAP6 JUMP JUMPDEST PUSH2 0x8D0 DUP2 PUSH2 0xB76 JUMP JUMPDEST DUP3 MSTORE POP POP JUMP JUMPDEST PUSH2 0x8DF DUP2 PUSH2 0xB88 JUMP JUMPDEST DUP3 MSTORE POP POP JUMP JUMPDEST PUSH1 0x0 PUSH2 0x8F2 PUSH1 0x27 DUP4 PUSH2 0xAD7 JUMP JUMPDEST SWAP2 POP PUSH2 0x8FD DUP3 PUSH2 0xC7D JUMP JUMPDEST PUSH1 0x40 DUP3 ADD SWAP1 POP SWAP2 SWAP1 POP JUMP JUMPDEST PUSH1 0x0 PUSH2 0x915 PUSH1 0x26 DUP4 PUSH2 0xAD7 JUMP JUMPDEST SWAP2 POP PUSH2 0x920 DUP3 PUSH2 0xCCC JUMP JUMPDEST PUSH1 0x40 DUP3 ADD SWAP1 POP SWAP2 SWAP1 POP JUMP JUMPDEST PUSH1 0x0 PUSH2 0x938 PUSH1 0x28 DUP4 PUSH2 0xAD7 JUMP JUMPDEST SWAP2 POP PUSH2 0x943 DUP3 PUSH2 0xD1B JUMP JUMPDEST PUSH1 0x40 DUP3 ADD SWAP1 POP SWAP2 SWAP1 POP JUMP JUMPDEST PUSH1 0x0 PUSH2 0x95B PUSH1 0x2F DUP4 PUSH2 0xAD7 JUMP JUMPDEST SWAP2 POP PUSH2 0x966 DUP3 PUSH2 0xD6A JUMP JUMPDEST PUSH1 0x40 DUP3 ADD SWAP1 POP SWAP2 SWAP1 POP JUMP JUMPDEST PUSH1 0x0 PUSH2 0x97E PUSH1 0x20 DUP4 PUSH2 0xAD7 JUMP JUMPDEST SWAP2 POP PUSH2 0x989 DUP3 PUSH2 0xDB9 JUMP JUMPDEST PUSH1 0x20 DUP3 ADD SWAP1 POP SWAP2 SWAP1 POP JUMP JUMPDEST PUSH1 0x0 PUSH2 0x9A1 PUSH1 0x11 DUP4 PUSH2 0xAD7 JUMP JUMPDEST SWAP2 POP PUSH2 0x9AC DUP3 PUSH2 0xDE2 JUMP JUMPDEST PUSH1 0x20 DUP3 ADD SWAP1 POP SWAP2 SWAP1 POP JUMP JUMPDEST PUSH2 0x9C0 DUP2 PUSH2 0xBB2 JUMP JUMPDEST DUP3 MSTORE POP POP JUMP JUMPDEST PUSH1 0x0 PUSH1 0x20 DUP3 ADD SWAP1 POP PUSH2 0x9DB PUSH1 0x0 DUP4 ADD DUP5 PUSH2 0x8C7 JUMP JUMPDEST SWAP3 SWAP2 POP POP JUMP JUMPDEST PUSH1 0x0 PUSH1 0x20 DUP3 ADD SWAP1 POP PUSH2 0x9F6 PUSH1 0x0 DUP4 ADD DUP5 PUSH2 0x8D6 JUMP JUMPDEST SWAP3 SWAP2 POP POP JUMP JUMPDEST PUSH1 0x0 PUSH1 0x20 DUP3 ADD SWAP1 POP DUP2 DUP2 SUB PUSH1 0x0 DUP4 ADD MSTORE PUSH2 0xA15 DUP2 PUSH2 0x8E5 JUMP JUMPDEST SWAP1 POP SWAP2 SWAP1 POP JUMP JUMPDEST PUSH1 0x0 PUSH1 0x20 DUP3 ADD SWAP1 POP DUP2 DUP2 SUB PUSH1 0x0 DUP4 ADD MSTORE PUSH2 0xA35 DUP2 PUSH2 0x908 JUMP JUMPDEST SWAP1 POP SWAP2 SWAP1 POP JUMP JUMPDEST PUSH1 0x0 PUSH1 0x20 DUP3 ADD SWAP1 POP DUP2 DUP2 SUB PUSH1 0x0 DUP4 ADD MSTORE PUSH2 0xA55 DUP2 PUSH2 0x92B JUMP JUMPDEST SWAP1 POP SWAP2 SWAP1 POP JUMP JUMPDEST PUSH1 0x0 PUSH1 0x20 DUP3 ADD SWAP1 POP DUP2 DUP2 SUB PUSH1 0x0 DUP4 ADD MSTORE PUSH2 0xA75 DUP2 PUSH2 0x94E JUMP JUMPDEST SWAP1 POP SWAP2 SWAP1 POP JUMP JUMPDEST PUSH1 0x0 PUSH1 0x20 DUP3 ADD SWAP1 POP DUP2 DUP2 SUB PUSH1 0x0 DUP4 ADD MSTORE PUSH2 0xA95 DUP2 PUSH2 0x971 JUMP JUMPDEST SWAP1 POP SWAP2 SWAP1 POP JUMP JUMPDEST PUSH1 0x0 PUSH1 0x20 DUP3 ADD SWAP1 POP DUP2 DUP2 SUB PUSH1 0x0 DUP4 ADD MSTORE PUSH2 0xAB5 DUP2 PUSH2 0x994 JUMP JUMPDEST SWAP1 POP SWAP2 SWAP1 POP JUMP JUMPDEST PUSH1 0x0 PUSH1 0x20 DUP3 ADD SWAP1 POP PUSH2 0xAD1 PUSH1 0x0 DUP4 ADD DUP5 PUSH2 0x9B7 JUMP JUMPDEST SWAP3 SWAP2 POP POP JUMP JUMPDEST PUSH1 0x0 DUP3 DUP3 MSTORE PUSH1 0x20 DUP3 ADD SWAP1 POP SWAP3 SWAP2 POP POP JUMP JUMPDEST PUSH1 0x0 PUSH2 0xAF3 DUP3 PUSH2 0xBB2 JUMP JUMPDEST SWAP2 POP PUSH2 0xAFE DUP4 PUSH2 0xBB2 JUMP JUMPDEST SWAP3 POP DUP2 PUSH32 0xFFFFFFFFFFFFFFFFFFFFFFFFFFFFFFFFFFFFFFFFFFFFFFFFFFFFFFFFFFFFFFFF DIV DUP4 GT DUP3 ISZERO ISZERO AND ISZERO PUSH2 0xB37 JUMPI PUSH2 0xB36 PUSH2 0xBBC JUMP JUMPDEST JUMPDEST DUP3 DUP3 MUL SWAP1 POP SWAP3 SWAP2 POP POP JUMP JUMPDEST PUSH1 0x0 PUSH2 0xB4D DUP3 PUSH2 0xBB2 JUMP JUMPDEST SWAP2 POP PUSH2 0xB58 DUP4 PUSH2 0xBB2 JUMP JUMPDEST SWAP3 POP DUP3 DUP3 LT ISZERO PUSH2 0xB6B JUMPI PUSH2 0xB6A PUSH2 0xBBC JUMP JUMPDEST JUMPDEST DUP3 DUP3 SUB SWAP1 POP SWAP3 SWAP2 POP POP JUMP JUMPDEST PUSH1 0x0 PUSH2 0xB81 DUP3 PUSH2 0xB92 JUMP JUMPDEST SWAP1 POP SWAP2 SWAP1 POP JUMP JUMPDEST PUSH1 0x0 DUP2 SWAP1 POP SWAP2 SWAP1 POP JUMP JUMPDEST PUSH1 0x0 PUSH20 0xFFFFFFFFFFFFFFFFFFFFFFFFFFFFFFFFFFFFFFFF DUP3 AND SWAP1 POP SWAP2 SWAP1 POP JUMP JUMPDEST PUSH1 0x0 DUP2 SWAP1 POP SWAP2 SWAP1 POP JUMP JUMPDEST PUSH32 0x4E487B7100000000000000000000000000000000000000000000000000000000 PUSH1 0x0 MSTORE PUSH1 0x11 PUSH1 0x4 MSTORE PUSH1 0x24 PUSH1 0x0 REVERT JUMPDEST PUSH32 0x4E487B7100000000000000000000000000000000000000000000000000000000 PUSH1 0x0 MSTORE PUSH1 0x21 PUSH1 0x4 MSTORE PUSH1 0x24 PUSH1 0x0 REVERT JUMPDEST PUSH32 0x4E487B7100000000000000000000000000000000000000000000000000000000 PUSH1 0x0 MSTORE PUSH1 0x31 PUSH1 0x4 MSTORE PUSH1 0x24 PUSH1 0x0 REVERT JUMPDEST PUSH32 0x4E487B7100000000000000000000000000000000000000000000000000000000 PUSH1 0x0 MSTORE PUSH1 0x32 PUSH1 0x4 MSTORE PUSH1 0x24 PUSH1 0x0 REVERT JUMPDEST PUSH1 0x0 DUP1 REVERT JUMPDEST PUSH32 0x6F72646572206D757374206265206F6620636F72726563742073697A6520616E PUSH1 0x0 DUP3 ADD MSTORE PUSH32 0x6420707269636500000000000000000000000000000000000000000000000000 PUSH1 0x20 DUP3 ADD MSTORE POP JUMP JUMPDEST PUSH32 0x4F776E61626C653A206E6577206F776E657220697320746865207A65726F2061 PUSH1 0x0 DUP3 ADD MSTORE PUSH32 0x6464726573730000000000000000000000000000000000000000000000000000 PUSH1 0x20 DUP3 ADD MSTORE POP JUMP JUMPDEST PUSH32 0x546869732070726F647563652068617320616C7265616479206265656E20696E PUSH1 0x0 DUP3 ADD MSTORE PUSH32 0x6974696C697A6564000000000000000000000000000000000000000000000000 PUSH1 0x20 DUP3 ADD MSTORE POP JUMP JUMPDEST PUSH32 0x6661726D65722063616E6E6F7420706C616365206F7264657220666F72207468 PUSH1 0x0 DUP3 ADD MSTORE PUSH32 0x656972206F776E2070726F647563650000000000000000000000000000000000 PUSH1 0x20 DUP3 ADD MSTORE POP JUMP JUMPDEST PUSH32 0x4F776E61626C653A2063616C6C6572206973206E6F7420746865206F776E6572 PUSH1 0x0 DUP3 ADD MSTORE POP JUMP JUMPDEST PUSH32 0x4E6F206F726465727320746F2074616B65000000000000000000000000000000 PUSH1 0x0 DUP3 ADD MSTORE POP JUMP JUMPDEST PUSH2 0xE14 DUP2 PUSH2 0xB76 JUMP JUMPDEST DUP2 EQ PUSH2 0xE1F JUMPI PUSH1 0x0 DUP1 REVERT JUMPDEST POP JUMP JUMPDEST PUSH2 0xE2B DUP2 PUSH2 0xB88 JUMP JUMPDEST DUP2 EQ PUSH2 0xE36 JUMPI PUSH1 0x0 DUP1 REVERT JUMPDEST POP JUMP JUMPDEST PUSH2 0xE42 DUP2 PUSH2 0xBB2 JUMP JUMPDEST DUP2 EQ PUSH2 0xE4D JUMPI PUSH1 0x0 DUP1 REVERT JUMPDEST POP JUMP INVALID LOG2 PUSH5 0x6970667358 0x22 SLT KECCAK256 EXP 0x2A 0xB8 PUSH8 0x5BAE6593C07383DB 0x2B REVERT 0xD SDIV 0xC2 0xEA PUSH2 0xEA4 GT CALLDATASIZE NUMBER CODESIZE 0xE3 CODESIZE JUMP 0xD 0xB4 DUP15 0xC6 PUSH5 0x736F6C6343 STOP ADDMOD SMOD STOP CALLER "
				},
				"gasEstimates": {
					"creation": {
						"codeDepositCost": "743600",
						"executionCost": "infinite",
						"totalCost": "infinite"
					},
					"external": {
						"amount()": "2429",
						"farmer()": "2580",
						"initilize(address,uint256,uint256,uint256,bytes32,uint256)": "infinite",
						"limitOnPendingOrders()": "2452",
						"name()": "2430",
						"orderSize()": "2474",
						"owner()": "2611",
						"placeOrder()": "infinite",
						"price()": "2540",
						"renounceOwnership()": "30465",
						"takeOrder()": "infinite",
						"transferOwnership(address)": "30835"
					}
				},
				"methodIdentifiers": {
					"amount()": "aa8c217c",
					"farmer()": "d811fcf0",
					"initilize(address,uint256,uint256,uint256,bytes32,uint256)": "c8dde807",
					"limitOnPendingOrders()": "530d124e",
					"name()": "06fdde03",
					"orderSize()": "6d86b8a5",
					"owner()": "8da5cb5b",
					"placeOrder()": "f5c609e0",
					"price()": "a035b1fe",
					"renounceOwnership()": "715018a6",
					"takeOrder()": "d32dacc1",
					"transferOwnership(address)": "f2fde38b"
				}
			},
			"storageLayout": {
				"storage": [
					{
						"astId": 7,
						"contract": "contracts/Produce.sol:Produce",
						"label": "_owner",
						"offset": 0,
						"slot": "0",
						"type": "t_address"
					},
					{
						"astId": 348,
						"contract": "contracts/Produce.sol:Produce",
						"label": "farmer",
						"offset": 0,
						"slot": "1",
						"type": "t_address"
					},
					{
						"astId": 351,
						"contract": "contracts/Produce.sol:Produce",
						"label": "orders",
						"offset": 0,
						"slot": "2",
						"type": "t_array(t_address)dyn_storage"
					},
					{
						"astId": 353,
						"contract": "contracts/Produce.sol:Produce",
						"label": "limitOnPendingOrders",
						"offset": 0,
						"slot": "3",
						"type": "t_uint256"
					},
					{
						"astId": 355,
						"contract": "contracts/Produce.sol:Produce",
						"label": "name",
						"offset": 0,
						"slot": "4",
						"type": "t_uint256"
					},
					{
						"astId": 357,
						"contract": "contracts/Produce.sol:Produce",
						"label": "price",
						"offset": 0,
						"slot": "5",
						"type": "t_uint256"
					},
					{
						"astId": 359,
						"contract": "contracts/Produce.sol:Produce",
						"label": "orderSize",
						"offset": 0,
						"slot": "6",
						"type": "t_uint256"
					},
					{
						"astId": 361,
						"contract": "contracts/Produce.sol:Produce",
						"label": "amount",
						"offset": 0,
						"slot": "7",
						"type": "t_bytes32"
					},
					{
						"astId": 367,
						"contract": "contracts/Produce.sol:Produce",
						"label": "state",
						"offset": 0,
						"slot": "8",
						"type": "t_enum(State)364"
					}
				],
				"types": {
					"t_address": {
						"encoding": "inplace",
						"label": "address",
						"numberOfBytes": "20"
					},
					"t_array(t_address)dyn_storage": {
						"base": "t_address",
						"encoding": "dynamic_array",
						"label": "address[]",
						"numberOfBytes": "32"
					},
					"t_bytes32": {
						"encoding": "inplace",
						"label": "bytes32",
						"numberOfBytes": "32"
					},
					"t_enum(State)364": {
						"encoding": "inplace",
						"label": "enum Produce.State",
						"numberOfBytes": "1"
					},
					"t_uint256": {
						"encoding": "inplace",
						"label": "uint256",
						"numberOfBytes": "32"
					}
				}
			},
			"userdoc": {
				"kind": "user",
				"methods": {
					"placeOrder()": {
						"notice": "Place an order an order of the produce"
					},
					"takeOrder()": {
						"notice": "This allows farmers to take a single produceOrder"
					}
				},
				"version": 1
			}
		}
	}
}