{
	"contracts/Market.sol": {
		"Market": {
			"abi": [
				{
					"inputs": [],
					"stateMutability": "nonpayable",
					"type": "constructor"
				},
				{
					"anonymous": false,
					"inputs": [
						{
							"indexed": false,
							"internalType": "address",
							"name": "produce",
							"type": "address"
						},
						{
							"indexed": false,
							"internalType": "address",
							"name": "farmer",
							"type": "address"
						}
					],
					"name": "ProduceAddedToMarket",
					"type": "event"
				},
				{
					"anonymous": false,
					"inputs": [
						{
							"indexed": false,
							"internalType": "address",
							"name": "produce",
							"type": "address"
						}
					],
					"name": "ProduceDeletedFromMarket",
					"type": "event"
				},
				{
					"inputs": [
						{
							"internalType": "bytes32",
							"name": "_produceHash",
							"type": "bytes32"
						},
						{
							"internalType": "uint256",
							"name": "_price",
							"type": "uint256"
						},
						{
							"internalType": "uint256",
							"name": "_orderSize",
							"type": "uint256"
						}
					],
					"name": "addProduce",
					"outputs": [],
					"stateMutability": "nonpayable",
					"type": "function"
				},
				{
					"inputs": [
						{
							"internalType": "address",
							"name": "",
							"type": "address"
						}
					],
					"name": "farmerList",
					"outputs": [
						{
							"internalType": "bool",
							"name": "",
							"type": "bool"
						}
					],
					"stateMutability": "view",
					"type": "function"
				},
				{
					"inputs": [
						{
							"internalType": "address",
							"name": "produceAddress",
							"type": "address"
						}
					],
					"name": "removeProduce",
					"outputs": [],
					"stateMutability": "nonpayable",
					"type": "function"
				}
			],
			"devdoc": {
				"kind": "dev",
				"methods": {},
				"version": 1
			},
			"evm": {
				"assembly": "    /* \"contracts/Market.sol\":142:1695  contract Market {... */\n  mstore(0x40, 0xa0)\n    /* \"contracts/Market.sol\":676:753  constructor() {... */\n  callvalue\n  dup1\n  iszero\n  tag_1\n  jumpi\n  0x00\n  dup1\n  revert\ntag_1:\n  pop\n    /* \"contracts/Market.sol\":732:745  new Produce() */\n  mload(0x40)\n  tag_4\n  swap1\n  tag_5\n  jump\t// in\ntag_4:\n  mload(0x40)\n  dup1\n  swap2\n  sub\n  swap1\n  0x00\n  create\n  dup1\n  iszero\n  dup1\n  iszero\n  tag_6\n  jumpi\n  returndatasize\n  0x00\n  dup1\n  returndatacopy\n  revert(0x00, returndatasize)\ntag_6:\n  pop\n    /* \"contracts/Market.sol\":700:746  produceImplementation = address(new Produce()) */\n  0xffffffffffffffffffffffffffffffffffffffff\n  and\n  0x80\n  dup2\n  0xffffffffffffffffffffffffffffffffffffffff\n  and\n  dup2\n  mstore\n  pop\n  pop\n    /* \"contracts/Market.sol\":142:1695  contract Market {... */\n  jump(tag_7)\ntag_5:\n  dataSize(sub_1)\n  dup1\n  dataOffset(sub_1)\n  dup4\n  codecopy\n  add\n  swap1\n  jump\t// out\ntag_7:\n  mload(0x80)\n  codecopy(0x00, dataOffset(sub_0), dataSize(sub_0))\n  0x00\n  assignImmutable(\"0xfb99367007fd9c292fe20455f4aefac1b6d18fbfb06adbfe9341c081cfd9cc19\")\n  return(0x00, dataSize(sub_0))\nstop\n\nsub_0: assembly {\n        /* \"contracts/Market.sol\":142:1695  contract Market {... */\n      mstore(0x40, 0x80)\n      callvalue\n      dup1\n      iszero\n      tag_1\n      jumpi\n      0x00\n      dup1\n      revert\n    tag_1:\n      pop\n      jumpi(tag_2, lt(calldatasize, 0x04))\n      shr(0xe0, calldataload(0x00))\n      dup1\n      0x445cc412\n      eq\n      tag_3\n      jumpi\n      dup1\n      0x7b6833c3\n      eq\n      tag_4\n      jumpi\n      dup1\n      0xa1d861a9\n      eq\n      tag_5\n      jumpi\n    tag_2:\n      0x00\n      dup1\n      revert\n        /* \"contracts/Market.sol\":760:1318  function addProduce( ... */\n    tag_3:\n      tag_6\n      0x04\n      dup1\n      calldatasize\n      sub\n      dup2\n      add\n      swap1\n      tag_7\n      swap2\n      swap1\n      tag_8\n      jump\t// in\n    tag_7:\n      tag_9\n      jump\t// in\n    tag_6:\n      stop\n        /* \"contracts/Market.sol\":1324:1691  function removeProduce(address produceAddress) public {... */\n    tag_4:\n      tag_10\n      0x04\n      dup1\n      calldatasize\n      sub\n      dup2\n      add\n      swap1\n      tag_11\n      swap2\n      swap1\n      tag_12\n      jump\t// in\n    tag_11:\n      tag_13\n      jump\t// in\n    tag_10:\n      stop\n        /* \"contracts/Market.sol\":628:669  mapping(address=> bool) public farmerList */\n    tag_5:\n      tag_14\n      0x04\n      dup1\n      calldatasize\n      sub\n      dup2\n      add\n      swap1\n      tag_15\n      swap2\n      swap1\n      tag_12\n      jump\t// in\n    tag_15:\n      tag_16\n      jump\t// in\n    tag_14:\n      mload(0x40)\n      tag_17\n      swap2\n      swap1\n      tag_18\n      jump\t// in\n    tag_17:\n      mload(0x40)\n      dup1\n      swap2\n      sub\n      swap1\n      return\n        /* \"contracts/Market.sol\":760:1318  function addProduce( ... */\n    tag_9:\n        /* \"contracts/Market.sol\":896:919  address newProduceClone */\n      0x00\n        /* \"contracts/Market.sol\":922:957  Clones.clone(produceImplementation) */\n      tag_20\n        /* \"contracts/Market.sol\":935:956  produceImplementation */\n      immutable(\"0xfb99367007fd9c292fe20455f4aefac1b6d18fbfb06adbfe9341c081cfd9cc19\")\n        /* \"contracts/Market.sol\":922:934  Clones.clone */\n      tag_21\n        /* \"contracts/Market.sol\":922:957  Clones.clone(produceImplementation) */\n      jump\t// in\n    tag_20:\n        /* \"contracts/Market.sol\":896:957  address newProduceClone = Clones.clone(produceImplementation) */\n      swap1\n      pop\n        /* \"contracts/Market.sol\":979:994  newProduceClone */\n      dup1\n        /* \"contracts/Market.sol\":971:1005  Produce(newProduceClone).initilize */\n      0xffffffffffffffffffffffffffffffffffffffff\n      and\n      0x76c820f6\n        /* \"contracts/Market.sol\":1024:1034  msg.sender */\n      caller\n        /* \"contracts/Market.sol\":1053:1065  _produceHash */\n      dup7\n        /* \"contracts/Market.sol\":1084:1090  _price */\n      dup7\n        /* \"contracts/Market.sol\":1109:1119  _orderSize */\n      dup7\n        /* \"contracts/Market.sol\":971:1133  Produce(newProduceClone).initilize(... */\n      mload(0x40)\n      dup6\n      0xffffffff\n      and\n      0xe0\n      shl\n      dup2\n      mstore\n      0x04\n      add\n      tag_22\n      swap5\n      swap4\n      swap3\n      swap2\n      swap1\n      tag_23\n      jump\t// in\n    tag_22:\n      0x00\n      mload(0x40)\n      dup1\n      dup4\n      sub\n      dup2\n      0x00\n      dup8\n      dup1\n      extcodesize\n      iszero\n      dup1\n      iszero\n      tag_24\n      jumpi\n      0x00\n      dup1\n      revert\n    tag_24:\n      pop\n      gas\n      call\n      iszero\n      dup1\n      iszero\n      tag_26\n      jumpi\n      returndatasize\n      0x00\n      dup1\n      returndatacopy\n      revert(0x00, returndatasize)\n    tag_26:\n      pop\n      pop\n      pop\n      pop\n        /* \"contracts/Market.sol\":1187:1191  true */\n      0x01\n        /* \"contracts/Market.sol\":1147:1158  produceList */\n      0x00\n        /* \"contracts/Market.sol\":1147:1184  produceList[address(newProduceClone)] */\n      dup1\n        /* \"contracts/Market.sol\":1167:1182  newProduceClone */\n      dup4\n        /* \"contracts/Market.sol\":1147:1184  produceList[address(newProduceClone)] */\n      0xffffffffffffffffffffffffffffffffffffffff\n      and\n      0xffffffffffffffffffffffffffffffffffffffff\n      and\n      dup2\n      mstore\n      0x20\n      add\n      swap1\n      dup2\n      mstore\n      0x20\n      add\n      0x00\n      keccak256\n      0x00\n        /* \"contracts/Market.sol\":1147:1191  produceList[address(newProduceClone)] = true */\n      0x0100\n      exp\n      dup2\n      sload\n      dup2\n      0xff\n      mul\n      not\n      and\n      swap1\n      dup4\n      iszero\n      iszero\n      mul\n      or\n      swap1\n      sstore\n      pop\n        /* \"contracts/Market.sol\":1230:1234  true */\n      0x01\n        /* \"contracts/Market.sol\":1205:1215  farmerList */\n      dup1\n        /* \"contracts/Market.sol\":1205:1227  farmerList[msg.sender] */\n      0x00\n        /* \"contracts/Market.sol\":1216:1226  msg.sender */\n      caller\n        /* \"contracts/Market.sol\":1205:1227  farmerList[msg.sender] */\n      0xffffffffffffffffffffffffffffffffffffffff\n      and\n      0xffffffffffffffffffffffffffffffffffffffff\n      and\n      dup2\n      mstore\n      0x20\n      add\n      swap1\n      dup2\n      mstore\n      0x20\n      add\n      0x00\n      keccak256\n      0x00\n        /* \"contracts/Market.sol\":1205:1234  farmerList[msg.sender] = true */\n      0x0100\n      exp\n      dup2\n      sload\n      dup2\n      0xff\n      mul\n      not\n      and\n      swap1\n      dup4\n      iszero\n      iszero\n      mul\n      or\n      swap1\n      sstore\n      pop\n        /* \"contracts/Market.sol\":1253:1311  ProduceAddedToMarket(address(newProduceClone), msg.sender) */\n      0xb684fa9d171811ea44de622bf7206329d0d78c3c4516f49225d183e2b2380a4f\n        /* \"contracts/Market.sol\":1282:1297  newProduceClone */\n      dup2\n        /* \"contracts/Market.sol\":1300:1310  msg.sender */\n      caller\n        /* \"contracts/Market.sol\":1253:1311  ProduceAddedToMarket(address(newProduceClone), msg.sender) */\n      mload(0x40)\n      tag_27\n      swap3\n      swap2\n      swap1\n      tag_28\n      jump\t// in\n    tag_27:\n      mload(0x40)\n      dup1\n      swap2\n      sub\n      swap1\n      log1\n        /* \"contracts/Market.sol\":882:1318  {... */\n      pop\n        /* \"contracts/Market.sol\":760:1318  function addProduce( ... */\n      pop\n      pop\n      pop\n      jump\t// out\n        /* \"contracts/Market.sol\":1324:1691  function removeProduce(address produceAddress) public {... */\n    tag_13:\n        /* \"contracts/Market.sol\":1396:1407  produceList */\n      0x00\n        /* \"contracts/Market.sol\":1396:1423  produceList[produceAddress] */\n      dup1\n        /* \"contracts/Market.sol\":1408:1422  produceAddress */\n      dup3\n        /* \"contracts/Market.sol\":1396:1423  produceList[produceAddress] */\n      0xffffffffffffffffffffffffffffffffffffffff\n      and\n      0xffffffffffffffffffffffffffffffffffffffff\n      and\n      dup2\n      mstore\n      0x20\n      add\n      swap1\n      dup2\n      mstore\n      0x20\n      add\n      0x00\n      keccak256\n      0x00\n      swap1\n      sload\n      swap1\n      0x0100\n      exp\n      swap1\n      div\n      0xff\n      and\n        /* \"contracts/Market.sol\":1388:1468  require(produceList[produceAddress], \"This produce is not listed on the Market\") */\n      tag_30\n      jumpi\n      mload(0x40)\n      0x08c379a000000000000000000000000000000000000000000000000000000000\n      dup2\n      mstore\n      0x04\n      add\n      tag_31\n      swap1\n      tag_32\n      jump\t// in\n    tag_31:\n      mload(0x40)\n      dup1\n      swap2\n      sub\n      swap1\n      revert\n    tag_30:\n        /* \"contracts/Market.sol\":1520:1530  msg.sender */\n      caller\n        /* \"contracts/Market.sol\":1486:1530  Produce(produceAddress).owner()== msg.sender */\n      0xffffffffffffffffffffffffffffffffffffffff\n      and\n        /* \"contracts/Market.sol\":1494:1508  produceAddress */\n      dup2\n        /* \"contracts/Market.sol\":1486:1515  Produce(produceAddress).owner */\n      0xffffffffffffffffffffffffffffffffffffffff\n      and\n      0x8da5cb5b\n        /* \"contracts/Market.sol\":1486:1517  Produce(produceAddress).owner() */\n      mload(0x40)\n      dup2\n      0xffffffff\n      and\n      0xe0\n      shl\n      dup2\n      mstore\n      0x04\n      add\n      0x20\n      mload(0x40)\n      dup1\n      dup4\n      sub\n      dup2\n      dup7\n      gas\n      staticcall\n      iszero\n      dup1\n      iszero\n      tag_34\n      jumpi\n      returndatasize\n      0x00\n      dup1\n      returndatacopy\n      revert(0x00, returndatasize)\n    tag_34:\n      pop\n      pop\n      pop\n      pop\n      mload(0x40)\n      returndatasize\n      not(0x1f)\n      0x1f\n      dup3\n      add\n      and\n      dup3\n      add\n      dup1\n      0x40\n      mstore\n      pop\n      dup2\n      add\n      swap1\n      tag_35\n      swap2\n      swap1\n      tag_36\n      jump\t// in\n    tag_35:\n        /* \"contracts/Market.sol\":1486:1530  Produce(produceAddress).owner()== msg.sender */\n      0xffffffffffffffffffffffffffffffffffffffff\n      and\n      eq\n        /* \"contracts/Market.sol\":1478:1584  require(Produce(produceAddress).owner()== msg.sender, \"Only produce owner can remove produce from Market\") */\n      tag_37\n      jumpi\n      mload(0x40)\n      0x08c379a000000000000000000000000000000000000000000000000000000000\n      dup2\n      mstore\n      0x04\n      add\n      tag_38\n      swap1\n      tag_39\n      jump\t// in\n    tag_38:\n      mload(0x40)\n      dup1\n      swap2\n      sub\n      swap1\n      revert\n    tag_37:\n        /* \"contracts/Market.sol\":1624:1629  false */\n      0x00\n        /* \"contracts/Market.sol\":1594:1605  produceList */\n      dup1\n        /* \"contracts/Market.sol\":1594:1621  produceList[produceAddress] */\n      0x00\n        /* \"contracts/Market.sol\":1606:1620  produceAddress */\n      dup4\n        /* \"contracts/Market.sol\":1594:1621  produceList[produceAddress] */\n      0xffffffffffffffffffffffffffffffffffffffff\n      and\n      0xffffffffffffffffffffffffffffffffffffffff\n      and\n      dup2\n      mstore\n      0x20\n      add\n      swap1\n      dup2\n      mstore\n      0x20\n      add\n      0x00\n      keccak256\n      0x00\n        /* \"contracts/Market.sol\":1594:1629  produceList[produceAddress] = false */\n      0x0100\n      exp\n      dup2\n      sload\n      dup2\n      0xff\n      mul\n      not\n      and\n      swap1\n      dup4\n      iszero\n      iszero\n      mul\n      or\n      swap1\n      sstore\n      pop\n        /* \"contracts/Market.sol\":1644:1684  ProduceDeletedFromMarket(produceAddress) */\n      0xfe9cc347cf9f23be7601aec4449a0fdb16aa073766a538536e42a92027f657e8\n        /* \"contracts/Market.sol\":1669:1683  produceAddress */\n      dup2\n        /* \"contracts/Market.sol\":1644:1684  ProduceDeletedFromMarket(produceAddress) */\n      mload(0x40)\n      tag_40\n      swap2\n      swap1\n      tag_41\n      jump\t// in\n    tag_40:\n      mload(0x40)\n      dup1\n      swap2\n      sub\n      swap1\n      log1\n        /* \"contracts/Market.sol\":1324:1691  function removeProduce(address produceAddress) public {... */\n      pop\n      jump\t// out\n        /* \"contracts/Market.sol\":628:669  mapping(address=> bool) public farmerList */\n    tag_16:\n      mstore(0x20, 0x01)\n      dup1\n      0x00\n      mstore\n      keccak256(0x00, 0x40)\n      0x00\n      swap2\n      pop\n      sload\n      swap1\n      0x0100\n      exp\n      swap1\n      div\n      0xff\n      and\n      dup2\n      jump\t// out\n        /* \"@openzeppelin/contracts/proxy/Clones.sol\":973:1732  function clone(address implementation) internal returns (address instance) {... */\n    tag_21:\n        /* \"@openzeppelin/contracts/proxy/Clones.sol\":1030:1046  address instance */\n      0x00\n        /* \"@openzeppelin/contracts/proxy/Clones.sol\":1362:1410  0x3d602d80600a3d3981f3363d3d373d3d3d363d73000000 */\n      0x3d602d80600a3d3981f3363d3d373d3d3d363d73000000\n        /* \"@openzeppelin/contracts/proxy/Clones.sol\":1344:1358  implementation */\n      dup3\n        /* \"@openzeppelin/contracts/proxy/Clones.sol\":1338:1342  0x60 */\n      0x60\n        /* \"@openzeppelin/contracts/proxy/Clones.sol\":1334:1359  shl(0x60, implementation) */\n      shl\n        /* \"@openzeppelin/contracts/proxy/Clones.sol\":1328:1332  0xe8 */\n      0xe8\n        /* \"@openzeppelin/contracts/proxy/Clones.sol\":1324:1360  shr(0xe8, shl(0x60, implementation)) */\n      shr\n        /* \"@openzeppelin/contracts/proxy/Clones.sol\":1321:1411  or(shr(0xe8, shl(0x60, implementation)), 0x3d602d80600a3d3981f3363d3d373d3d3d363d73000000) */\n      or\n        /* \"@openzeppelin/contracts/proxy/Clones.sol\":1315:1319  0x00 */\n      0x00\n        /* \"@openzeppelin/contracts/proxy/Clones.sol\":1308:1412  mstore(0x00, or(shr(0xe8, shl(0x60, implementation)), 0x3d602d80600a3d3981f3363d3d373d3d3d363d73000000)) */\n      mstore\n        /* \"@openzeppelin/contracts/proxy/Clones.sol\":1569:1601  0x5af43d82803e903d91602b57fd5bf3 */\n      0x5af43d82803e903d91602b57fd5bf3\n        /* \"@openzeppelin/contracts/proxy/Clones.sol\":1552:1566  implementation */\n      dup3\n        /* \"@openzeppelin/contracts/proxy/Clones.sol\":1546:1550  0x78 */\n      0x78\n        /* \"@openzeppelin/contracts/proxy/Clones.sol\":1542:1567  shl(0x78, implementation) */\n      shl\n        /* \"@openzeppelin/contracts/proxy/Clones.sol\":1539:1602  or(shl(0x78, implementation), 0x5af43d82803e903d91602b57fd5bf3) */\n      or\n        /* \"@openzeppelin/contracts/proxy/Clones.sol\":1533:1537  0x20 */\n      0x20\n        /* \"@openzeppelin/contracts/proxy/Clones.sol\":1526:1603  mstore(0x20, or(shl(0x78, implementation), 0x5af43d82803e903d91602b57fd5bf3)) */\n      mstore\n        /* \"@openzeppelin/contracts/proxy/Clones.sol\":1644:1648  0x37 */\n      0x37\n        /* \"@openzeppelin/contracts/proxy/Clones.sol\":1638:1642  0x09 */\n      0x09\n        /* \"@openzeppelin/contracts/proxy/Clones.sol\":1635:1636  0 */\n      0x00\n        /* \"@openzeppelin/contracts/proxy/Clones.sol\":1628:1649  create(0, 0x09, 0x37) */\n      create\n        /* \"@openzeppelin/contracts/proxy/Clones.sol\":1616:1649  instance := create(0, 0x09, 0x37) */\n      swap1\n      pop\n        /* \"@openzeppelin/contracts/proxy/Clones.sol\":1696:1697  0 */\n      0x00\n        /* \"@openzeppelin/contracts/proxy/Clones.sol\":1676:1698  instance != address(0) */\n      0xffffffffffffffffffffffffffffffffffffffff\n      and\n        /* \"@openzeppelin/contracts/proxy/Clones.sol\":1676:1684  instance */\n      dup2\n        /* \"@openzeppelin/contracts/proxy/Clones.sol\":1676:1698  instance != address(0) */\n      0xffffffffffffffffffffffffffffffffffffffff\n      and\n      sub\n        /* \"@openzeppelin/contracts/proxy/Clones.sol\":1668:1725  require(instance != address(0), \"ERC1167: create failed\") */\n      tag_43\n      jumpi\n      mload(0x40)\n      0x08c379a000000000000000000000000000000000000000000000000000000000\n      dup2\n      mstore\n      0x04\n      add\n      tag_44\n      swap1\n      tag_45\n      jump\t// in\n    tag_44:\n      mload(0x40)\n      dup1\n      swap2\n      sub\n      swap1\n      revert\n    tag_43:\n        /* \"@openzeppelin/contracts/proxy/Clones.sol\":973:1732  function clone(address implementation) internal returns (address instance) {... */\n      swap2\n      swap1\n      pop\n      jump\t// out\n        /* \"#utility.yul\":88:205   */\n    tag_47:\n        /* \"#utility.yul\":197:198   */\n      0x00\n        /* \"#utility.yul\":194:195   */\n      dup1\n        /* \"#utility.yul\":187:199   */\n      revert\n        /* \"#utility.yul\":334:411   */\n    tag_49:\n        /* \"#utility.yul\":371:378   */\n      0x00\n        /* \"#utility.yul\":400:405   */\n      dup2\n        /* \"#utility.yul\":389:405   */\n      swap1\n      pop\n        /* \"#utility.yul\":334:411   */\n      swap2\n      swap1\n      pop\n      jump\t// out\n        /* \"#utility.yul\":417:539   */\n    tag_50:\n        /* \"#utility.yul\":490:514   */\n      tag_78\n        /* \"#utility.yul\":508:513   */\n      dup2\n        /* \"#utility.yul\":490:514   */\n      tag_49\n      jump\t// in\n    tag_78:\n        /* \"#utility.yul\":483:488   */\n      dup2\n        /* \"#utility.yul\":480:515   */\n      eq\n        /* \"#utility.yul\":470:533   */\n      tag_79\n      jumpi\n        /* \"#utility.yul\":529:530   */\n      0x00\n        /* \"#utility.yul\":526:527   */\n      dup1\n        /* \"#utility.yul\":519:531   */\n      revert\n        /* \"#utility.yul\":470:533   */\n    tag_79:\n        /* \"#utility.yul\":417:539   */\n      pop\n      jump\t// out\n        /* \"#utility.yul\":545:684   */\n    tag_51:\n        /* \"#utility.yul\":591:596   */\n      0x00\n        /* \"#utility.yul\":629:635   */\n      dup2\n        /* \"#utility.yul\":616:636   */\n      calldataload\n        /* \"#utility.yul\":607:636   */\n      swap1\n      pop\n        /* \"#utility.yul\":645:678   */\n      tag_81\n        /* \"#utility.yul\":672:677   */\n      dup2\n        /* \"#utility.yul\":645:678   */\n      tag_50\n      jump\t// in\n    tag_81:\n        /* \"#utility.yul\":545:684   */\n      swap3\n      swap2\n      pop\n      pop\n      jump\t// out\n        /* \"#utility.yul\":690:767   */\n    tag_52:\n        /* \"#utility.yul\":727:734   */\n      0x00\n        /* \"#utility.yul\":756:761   */\n      dup2\n        /* \"#utility.yul\":745:761   */\n      swap1\n      pop\n        /* \"#utility.yul\":690:767   */\n      swap2\n      swap1\n      pop\n      jump\t// out\n        /* \"#utility.yul\":773:895   */\n    tag_53:\n        /* \"#utility.yul\":846:870   */\n      tag_84\n        /* \"#utility.yul\":864:869   */\n      dup2\n        /* \"#utility.yul\":846:870   */\n      tag_52\n      jump\t// in\n    tag_84:\n        /* \"#utility.yul\":839:844   */\n      dup2\n        /* \"#utility.yul\":836:871   */\n      eq\n        /* \"#utility.yul\":826:889   */\n      tag_85\n      jumpi\n        /* \"#utility.yul\":885:886   */\n      0x00\n        /* \"#utility.yul\":882:883   */\n      dup1\n        /* \"#utility.yul\":875:887   */\n      revert\n        /* \"#utility.yul\":826:889   */\n    tag_85:\n        /* \"#utility.yul\":773:895   */\n      pop\n      jump\t// out\n        /* \"#utility.yul\":901:1040   */\n    tag_54:\n        /* \"#utility.yul\":947:952   */\n      0x00\n        /* \"#utility.yul\":985:991   */\n      dup2\n        /* \"#utility.yul\":972:992   */\n      calldataload\n        /* \"#utility.yul\":963:992   */\n      swap1\n      pop\n        /* \"#utility.yul\":1001:1034   */\n      tag_87\n        /* \"#utility.yul\":1028:1033   */\n      dup2\n        /* \"#utility.yul\":1001:1034   */\n      tag_53\n      jump\t// in\n    tag_87:\n        /* \"#utility.yul\":901:1040   */\n      swap3\n      swap2\n      pop\n      pop\n      jump\t// out\n        /* \"#utility.yul\":1046:1665   */\n    tag_8:\n        /* \"#utility.yul\":1123:1129   */\n      0x00\n        /* \"#utility.yul\":1131:1137   */\n      dup1\n        /* \"#utility.yul\":1139:1145   */\n      0x00\n        /* \"#utility.yul\":1188:1190   */\n      0x60\n        /* \"#utility.yul\":1176:1185   */\n      dup5\n        /* \"#utility.yul\":1167:1174   */\n      dup7\n        /* \"#utility.yul\":1163:1186   */\n      sub\n        /* \"#utility.yul\":1159:1191   */\n      slt\n        /* \"#utility.yul\":1156:1275   */\n      iszero\n      tag_89\n      jumpi\n        /* \"#utility.yul\":1194:1273   */\n      tag_90\n      tag_47\n      jump\t// in\n    tag_90:\n        /* \"#utility.yul\":1156:1275   */\n    tag_89:\n        /* \"#utility.yul\":1314:1315   */\n      0x00\n        /* \"#utility.yul\":1339:1392   */\n      tag_91\n        /* \"#utility.yul\":1384:1391   */\n      dup7\n        /* \"#utility.yul\":1375:1381   */\n      dup3\n        /* \"#utility.yul\":1364:1373   */\n      dup8\n        /* \"#utility.yul\":1360:1382   */\n      add\n        /* \"#utility.yul\":1339:1392   */\n      tag_51\n      jump\t// in\n    tag_91:\n        /* \"#utility.yul\":1329:1392   */\n      swap4\n      pop\n        /* \"#utility.yul\":1285:1402   */\n      pop\n        /* \"#utility.yul\":1441:1443   */\n      0x20\n        /* \"#utility.yul\":1467:1520   */\n      tag_92\n        /* \"#utility.yul\":1512:1519   */\n      dup7\n        /* \"#utility.yul\":1503:1509   */\n      dup3\n        /* \"#utility.yul\":1492:1501   */\n      dup8\n        /* \"#utility.yul\":1488:1510   */\n      add\n        /* \"#utility.yul\":1467:1520   */\n      tag_54\n      jump\t// in\n    tag_92:\n        /* \"#utility.yul\":1457:1520   */\n      swap3\n      pop\n        /* \"#utility.yul\":1412:1530   */\n      pop\n        /* \"#utility.yul\":1569:1571   */\n      0x40\n        /* \"#utility.yul\":1595:1648   */\n      tag_93\n        /* \"#utility.yul\":1640:1647   */\n      dup7\n        /* \"#utility.yul\":1631:1637   */\n      dup3\n        /* \"#utility.yul\":1620:1629   */\n      dup8\n        /* \"#utility.yul\":1616:1638   */\n      add\n        /* \"#utility.yul\":1595:1648   */\n      tag_54\n      jump\t// in\n    tag_93:\n        /* \"#utility.yul\":1585:1648   */\n      swap2\n      pop\n        /* \"#utility.yul\":1540:1658   */\n      pop\n        /* \"#utility.yul\":1046:1665   */\n      swap3\n      pop\n      swap3\n      pop\n      swap3\n      jump\t// out\n        /* \"#utility.yul\":1671:1797   */\n    tag_55:\n        /* \"#utility.yul\":1708:1715   */\n      0x00\n        /* \"#utility.yul\":1748:1790   */\n      0xffffffffffffffffffffffffffffffffffffffff\n        /* \"#utility.yul\":1741:1746   */\n      dup3\n        /* \"#utility.yul\":1737:1791   */\n      and\n        /* \"#utility.yul\":1726:1791   */\n      swap1\n      pop\n        /* \"#utility.yul\":1671:1797   */\n      swap2\n      swap1\n      pop\n      jump\t// out\n        /* \"#utility.yul\":1803:1899   */\n    tag_56:\n        /* \"#utility.yul\":1840:1847   */\n      0x00\n        /* \"#utility.yul\":1869:1893   */\n      tag_96\n        /* \"#utility.yul\":1887:1892   */\n      dup3\n        /* \"#utility.yul\":1869:1893   */\n      tag_55\n      jump\t// in\n    tag_96:\n        /* \"#utility.yul\":1858:1893   */\n      swap1\n      pop\n        /* \"#utility.yul\":1803:1899   */\n      swap2\n      swap1\n      pop\n      jump\t// out\n        /* \"#utility.yul\":1905:2027   */\n    tag_57:\n        /* \"#utility.yul\":1978:2002   */\n      tag_98\n        /* \"#utility.yul\":1996:2001   */\n      dup2\n        /* \"#utility.yul\":1978:2002   */\n      tag_56\n      jump\t// in\n    tag_98:\n        /* \"#utility.yul\":1971:1976   */\n      dup2\n        /* \"#utility.yul\":1968:2003   */\n      eq\n        /* \"#utility.yul\":1958:2021   */\n      tag_99\n      jumpi\n        /* \"#utility.yul\":2017:2018   */\n      0x00\n        /* \"#utility.yul\":2014:2015   */\n      dup1\n        /* \"#utility.yul\":2007:2019   */\n      revert\n        /* \"#utility.yul\":1958:2021   */\n    tag_99:\n        /* \"#utility.yul\":1905:2027   */\n      pop\n      jump\t// out\n        /* \"#utility.yul\":2033:2172   */\n    tag_58:\n        /* \"#utility.yul\":2079:2084   */\n      0x00\n        /* \"#utility.yul\":2117:2123   */\n      dup2\n        /* \"#utility.yul\":2104:2124   */\n      calldataload\n        /* \"#utility.yul\":2095:2124   */\n      swap1\n      pop\n        /* \"#utility.yul\":2133:2166   */\n      tag_101\n        /* \"#utility.yul\":2160:2165   */\n      dup2\n        /* \"#utility.yul\":2133:2166   */\n      tag_57\n      jump\t// in\n    tag_101:\n        /* \"#utility.yul\":2033:2172   */\n      swap3\n      swap2\n      pop\n      pop\n      jump\t// out\n        /* \"#utility.yul\":2178:2507   */\n    tag_12:\n        /* \"#utility.yul\":2237:2243   */\n      0x00\n        /* \"#utility.yul\":2286:2288   */\n      0x20\n        /* \"#utility.yul\":2274:2283   */\n      dup3\n        /* \"#utility.yul\":2265:2272   */\n      dup5\n        /* \"#utility.yul\":2261:2284   */\n      sub\n        /* \"#utility.yul\":2257:2289   */\n      slt\n        /* \"#utility.yul\":2254:2373   */\n      iszero\n      tag_103\n      jumpi\n        /* \"#utility.yul\":2292:2371   */\n      tag_104\n      tag_47\n      jump\t// in\n    tag_104:\n        /* \"#utility.yul\":2254:2373   */\n    tag_103:\n        /* \"#utility.yul\":2412:2413   */\n      0x00\n        /* \"#utility.yul\":2437:2490   */\n      tag_105\n        /* \"#utility.yul\":2482:2489   */\n      dup5\n        /* \"#utility.yul\":2473:2479   */\n      dup3\n        /* \"#utility.yul\":2462:2471   */\n      dup6\n        /* \"#utility.yul\":2458:2480   */\n      add\n        /* \"#utility.yul\":2437:2490   */\n      tag_58\n      jump\t// in\n    tag_105:\n        /* \"#utility.yul\":2427:2490   */\n      swap2\n      pop\n        /* \"#utility.yul\":2383:2500   */\n      pop\n        /* \"#utility.yul\":2178:2507   */\n      swap3\n      swap2\n      pop\n      pop\n      jump\t// out\n        /* \"#utility.yul\":2513:2603   */\n    tag_59:\n        /* \"#utility.yul\":2547:2554   */\n      0x00\n        /* \"#utility.yul\":2590:2595   */\n      dup2\n        /* \"#utility.yul\":2583:2596   */\n      iszero\n        /* \"#utility.yul\":2576:2597   */\n      iszero\n        /* \"#utility.yul\":2565:2597   */\n      swap1\n      pop\n        /* \"#utility.yul\":2513:2603   */\n      swap2\n      swap1\n      pop\n      jump\t// out\n        /* \"#utility.yul\":2609:2718   */\n    tag_60:\n        /* \"#utility.yul\":2690:2711   */\n      tag_108\n        /* \"#utility.yul\":2705:2710   */\n      dup2\n        /* \"#utility.yul\":2690:2711   */\n      tag_59\n      jump\t// in\n    tag_108:\n        /* \"#utility.yul\":2685:2688   */\n      dup3\n        /* \"#utility.yul\":2678:2712   */\n      mstore\n        /* \"#utility.yul\":2609:2718   */\n      pop\n      pop\n      jump\t// out\n        /* \"#utility.yul\":2724:2934   */\n    tag_18:\n        /* \"#utility.yul\":2811:2815   */\n      0x00\n        /* \"#utility.yul\":2849:2851   */\n      0x20\n        /* \"#utility.yul\":2838:2847   */\n      dup3\n        /* \"#utility.yul\":2834:2852   */\n      add\n        /* \"#utility.yul\":2826:2852   */\n      swap1\n      pop\n        /* \"#utility.yul\":2862:2927   */\n      tag_110\n        /* \"#utility.yul\":2924:2925   */\n      0x00\n        /* \"#utility.yul\":2913:2922   */\n      dup4\n        /* \"#utility.yul\":2909:2926   */\n      add\n        /* \"#utility.yul\":2900:2906   */\n      dup5\n        /* \"#utility.yul\":2862:2927   */\n      tag_60\n      jump\t// in\n    tag_110:\n        /* \"#utility.yul\":2724:2934   */\n      swap3\n      swap2\n      pop\n      pop\n      jump\t// out\n        /* \"#utility.yul\":2940:3058   */\n    tag_61:\n        /* \"#utility.yul\":3027:3051   */\n      tag_112\n        /* \"#utility.yul\":3045:3050   */\n      dup2\n        /* \"#utility.yul\":3027:3051   */\n      tag_56\n      jump\t// in\n    tag_112:\n        /* \"#utility.yul\":3022:3025   */\n      dup3\n        /* \"#utility.yul\":3015:3052   */\n      mstore\n        /* \"#utility.yul\":2940:3058   */\n      pop\n      pop\n      jump\t// out\n        /* \"#utility.yul\":3064:3182   */\n    tag_62:\n        /* \"#utility.yul\":3151:3175   */\n      tag_114\n        /* \"#utility.yul\":3169:3174   */\n      dup2\n        /* \"#utility.yul\":3151:3175   */\n      tag_49\n      jump\t// in\n    tag_114:\n        /* \"#utility.yul\":3146:3149   */\n      dup3\n        /* \"#utility.yul\":3139:3176   */\n      mstore\n        /* \"#utility.yul\":3064:3182   */\n      pop\n      pop\n      jump\t// out\n        /* \"#utility.yul\":3188:3306   */\n    tag_63:\n        /* \"#utility.yul\":3275:3299   */\n      tag_116\n        /* \"#utility.yul\":3293:3298   */\n      dup2\n        /* \"#utility.yul\":3275:3299   */\n      tag_52\n      jump\t// in\n    tag_116:\n        /* \"#utility.yul\":3270:3273   */\n      dup3\n        /* \"#utility.yul\":3263:3300   */\n      mstore\n        /* \"#utility.yul\":3188:3306   */\n      pop\n      pop\n      jump\t// out\n        /* \"#utility.yul\":3312:3865   */\n    tag_23:\n        /* \"#utility.yul\":3489:3493   */\n      0x00\n        /* \"#utility.yul\":3527:3530   */\n      0x80\n        /* \"#utility.yul\":3516:3525   */\n      dup3\n        /* \"#utility.yul\":3512:3531   */\n      add\n        /* \"#utility.yul\":3504:3531   */\n      swap1\n      pop\n        /* \"#utility.yul\":3541:3612   */\n      tag_118\n        /* \"#utility.yul\":3609:3610   */\n      0x00\n        /* \"#utility.yul\":3598:3607   */\n      dup4\n        /* \"#utility.yul\":3594:3611   */\n      add\n        /* \"#utility.yul\":3585:3591   */\n      dup8\n        /* \"#utility.yul\":3541:3612   */\n      tag_61\n      jump\t// in\n    tag_118:\n        /* \"#utility.yul\":3622:3694   */\n      tag_119\n        /* \"#utility.yul\":3690:3692   */\n      0x20\n        /* \"#utility.yul\":3679:3688   */\n      dup4\n        /* \"#utility.yul\":3675:3693   */\n      add\n        /* \"#utility.yul\":3666:3672   */\n      dup7\n        /* \"#utility.yul\":3622:3694   */\n      tag_62\n      jump\t// in\n    tag_119:\n        /* \"#utility.yul\":3704:3776   */\n      tag_120\n        /* \"#utility.yul\":3772:3774   */\n      0x40\n        /* \"#utility.yul\":3761:3770   */\n      dup4\n        /* \"#utility.yul\":3757:3775   */\n      add\n        /* \"#utility.yul\":3748:3754   */\n      dup6\n        /* \"#utility.yul\":3704:3776   */\n      tag_63\n      jump\t// in\n    tag_120:\n        /* \"#utility.yul\":3786:3858   */\n      tag_121\n        /* \"#utility.yul\":3854:3856   */\n      0x60\n        /* \"#utility.yul\":3843:3852   */\n      dup4\n        /* \"#utility.yul\":3839:3857   */\n      add\n        /* \"#utility.yul\":3830:3836   */\n      dup5\n        /* \"#utility.yul\":3786:3858   */\n      tag_63\n      jump\t// in\n    tag_121:\n        /* \"#utility.yul\":3312:3865   */\n      swap6\n      swap5\n      pop\n      pop\n      pop\n      pop\n      pop\n      jump\t// out\n        /* \"#utility.yul\":3871:4203   */\n    tag_28:\n        /* \"#utility.yul\":3992:3996   */\n      0x00\n        /* \"#utility.yul\":4030:4032   */\n      0x40\n        /* \"#utility.yul\":4019:4028   */\n      dup3\n        /* \"#utility.yul\":4015:4033   */\n      add\n        /* \"#utility.yul\":4007:4033   */\n      swap1\n      pop\n        /* \"#utility.yul\":4043:4114   */\n      tag_123\n        /* \"#utility.yul\":4111:4112   */\n      0x00\n        /* \"#utility.yul\":4100:4109   */\n      dup4\n        /* \"#utility.yul\":4096:4113   */\n      add\n        /* \"#utility.yul\":4087:4093   */\n      dup6\n        /* \"#utility.yul\":4043:4114   */\n      tag_61\n      jump\t// in\n    tag_123:\n        /* \"#utility.yul\":4124:4196   */\n      tag_124\n        /* \"#utility.yul\":4192:4194   */\n      0x20\n        /* \"#utility.yul\":4181:4190   */\n      dup4\n        /* \"#utility.yul\":4177:4195   */\n      add\n        /* \"#utility.yul\":4168:4174   */\n      dup5\n        /* \"#utility.yul\":4124:4196   */\n      tag_61\n      jump\t// in\n    tag_124:\n        /* \"#utility.yul\":3871:4203   */\n      swap4\n      swap3\n      pop\n      pop\n      pop\n      jump\t// out\n        /* \"#utility.yul\":4209:4378   */\n    tag_64:\n        /* \"#utility.yul\":4293:4304   */\n      0x00\n        /* \"#utility.yul\":4327:4333   */\n      dup3\n        /* \"#utility.yul\":4322:4325   */\n      dup3\n        /* \"#utility.yul\":4315:4334   */\n      mstore\n        /* \"#utility.yul\":4367:4371   */\n      0x20\n        /* \"#utility.yul\":4362:4365   */\n      dup3\n        /* \"#utility.yul\":4358:4372   */\n      add\n        /* \"#utility.yul\":4343:4372   */\n      swap1\n      pop\n        /* \"#utility.yul\":4209:4378   */\n      swap3\n      swap2\n      pop\n      pop\n      jump\t// out\n        /* \"#utility.yul\":4384:4611   */\n    tag_65:\n        /* \"#utility.yul\":4524:4558   */\n      0x546869732070726f64756365206973206e6f74206c6973746564206f6e207468\n        /* \"#utility.yul\":4520:4521   */\n      0x00\n        /* \"#utility.yul\":4512:4518   */\n      dup3\n        /* \"#utility.yul\":4508:4522   */\n      add\n        /* \"#utility.yul\":4501:4559   */\n      mstore\n        /* \"#utility.yul\":4593:4603   */\n      0x65204d61726b6574000000000000000000000000000000000000000000000000\n        /* \"#utility.yul\":4588:4590   */\n      0x20\n        /* \"#utility.yul\":4580:4586   */\n      dup3\n        /* \"#utility.yul\":4576:4591   */\n      add\n        /* \"#utility.yul\":4569:4604   */\n      mstore\n        /* \"#utility.yul\":4384:4611   */\n      pop\n      jump\t// out\n        /* \"#utility.yul\":4617:4983   */\n    tag_66:\n        /* \"#utility.yul\":4759:4762   */\n      0x00\n        /* \"#utility.yul\":4780:4847   */\n      tag_128\n        /* \"#utility.yul\":4844:4846   */\n      0x28\n        /* \"#utility.yul\":4839:4842   */\n      dup4\n        /* \"#utility.yul\":4780:4847   */\n      tag_64\n      jump\t// in\n    tag_128:\n        /* \"#utility.yul\":4773:4847   */\n      swap2\n      pop\n        /* \"#utility.yul\":4856:4949   */\n      tag_129\n        /* \"#utility.yul\":4945:4948   */\n      dup3\n        /* \"#utility.yul\":4856:4949   */\n      tag_65\n      jump\t// in\n    tag_129:\n        /* \"#utility.yul\":4974:4976   */\n      0x40\n        /* \"#utility.yul\":4969:4972   */\n      dup3\n        /* \"#utility.yul\":4965:4977   */\n      add\n        /* \"#utility.yul\":4958:4977   */\n      swap1\n      pop\n        /* \"#utility.yul\":4617:4983   */\n      swap2\n      swap1\n      pop\n      jump\t// out\n        /* \"#utility.yul\":4989:5408   */\n    tag_32:\n        /* \"#utility.yul\":5155:5159   */\n      0x00\n        /* \"#utility.yul\":5193:5195   */\n      0x20\n        /* \"#utility.yul\":5182:5191   */\n      dup3\n        /* \"#utility.yul\":5178:5196   */\n      add\n        /* \"#utility.yul\":5170:5196   */\n      swap1\n      pop\n        /* \"#utility.yul\":5242:5251   */\n      dup2\n        /* \"#utility.yul\":5236:5240   */\n      dup2\n        /* \"#utility.yul\":5232:5252   */\n      sub\n        /* \"#utility.yul\":5228:5229   */\n      0x00\n        /* \"#utility.yul\":5217:5226   */\n      dup4\n        /* \"#utility.yul\":5213:5230   */\n      add\n        /* \"#utility.yul\":5206:5253   */\n      mstore\n        /* \"#utility.yul\":5270:5401   */\n      tag_131\n        /* \"#utility.yul\":5396:5400   */\n      dup2\n        /* \"#utility.yul\":5270:5401   */\n      tag_66\n      jump\t// in\n    tag_131:\n        /* \"#utility.yul\":5262:5401   */\n      swap1\n      pop\n        /* \"#utility.yul\":4989:5408   */\n      swap2\n      swap1\n      pop\n      jump\t// out\n        /* \"#utility.yul\":5414:5557   */\n    tag_67:\n        /* \"#utility.yul\":5471:5476   */\n      0x00\n        /* \"#utility.yul\":5502:5508   */\n      dup2\n        /* \"#utility.yul\":5496:5509   */\n      mload\n        /* \"#utility.yul\":5487:5509   */\n      swap1\n      pop\n        /* \"#utility.yul\":5518:5551   */\n      tag_133\n        /* \"#utility.yul\":5545:5550   */\n      dup2\n        /* \"#utility.yul\":5518:5551   */\n      tag_57\n      jump\t// in\n    tag_133:\n        /* \"#utility.yul\":5414:5557   */\n      swap3\n      swap2\n      pop\n      pop\n      jump\t// out\n        /* \"#utility.yul\":5563:5914   */\n    tag_36:\n        /* \"#utility.yul\":5633:5639   */\n      0x00\n        /* \"#utility.yul\":5682:5684   */\n      0x20\n        /* \"#utility.yul\":5670:5679   */\n      dup3\n        /* \"#utility.yul\":5661:5668   */\n      dup5\n        /* \"#utility.yul\":5657:5680   */\n      sub\n        /* \"#utility.yul\":5653:5685   */\n      slt\n        /* \"#utility.yul\":5650:5769   */\n      iszero\n      tag_135\n      jumpi\n        /* \"#utility.yul\":5688:5767   */\n      tag_136\n      tag_47\n      jump\t// in\n    tag_136:\n        /* \"#utility.yul\":5650:5769   */\n    tag_135:\n        /* \"#utility.yul\":5808:5809   */\n      0x00\n        /* \"#utility.yul\":5833:5897   */\n      tag_137\n        /* \"#utility.yul\":5889:5896   */\n      dup5\n        /* \"#utility.yul\":5880:5886   */\n      dup3\n        /* \"#utility.yul\":5869:5878   */\n      dup6\n        /* \"#utility.yul\":5865:5887   */\n      add\n        /* \"#utility.yul\":5833:5897   */\n      tag_67\n      jump\t// in\n    tag_137:\n        /* \"#utility.yul\":5823:5897   */\n      swap2\n      pop\n        /* \"#utility.yul\":5779:5907   */\n      pop\n        /* \"#utility.yul\":5563:5914   */\n      swap3\n      swap2\n      pop\n      pop\n      jump\t// out\n        /* \"#utility.yul\":5920:6156   */\n    tag_68:\n        /* \"#utility.yul\":6060:6094   */\n      0x4f6e6c792070726f64756365206f776e65722063616e2072656d6f7665207072\n        /* \"#utility.yul\":6056:6057   */\n      0x00\n        /* \"#utility.yul\":6048:6054   */\n      dup3\n        /* \"#utility.yul\":6044:6058   */\n      add\n        /* \"#utility.yul\":6037:6095   */\n      mstore\n        /* \"#utility.yul\":6129:6148   */\n      0x6f647563652066726f6d204d61726b6574000000000000000000000000000000\n        /* \"#utility.yul\":6124:6126   */\n      0x20\n        /* \"#utility.yul\":6116:6122   */\n      dup3\n        /* \"#utility.yul\":6112:6127   */\n      add\n        /* \"#utility.yul\":6105:6149   */\n      mstore\n        /* \"#utility.yul\":5920:6156   */\n      pop\n      jump\t// out\n        /* \"#utility.yul\":6162:6528   */\n    tag_69:\n        /* \"#utility.yul\":6304:6307   */\n      0x00\n        /* \"#utility.yul\":6325:6392   */\n      tag_140\n        /* \"#utility.yul\":6389:6391   */\n      0x31\n        /* \"#utility.yul\":6384:6387   */\n      dup4\n        /* \"#utility.yul\":6325:6392   */\n      tag_64\n      jump\t// in\n    tag_140:\n        /* \"#utility.yul\":6318:6392   */\n      swap2\n      pop\n        /* \"#utility.yul\":6401:6494   */\n      tag_141\n        /* \"#utility.yul\":6490:6493   */\n      dup3\n        /* \"#utility.yul\":6401:6494   */\n      tag_68\n      jump\t// in\n    tag_141:\n        /* \"#utility.yul\":6519:6521   */\n      0x40\n        /* \"#utility.yul\":6514:6517   */\n      dup3\n        /* \"#utility.yul\":6510:6522   */\n      add\n        /* \"#utility.yul\":6503:6522   */\n      swap1\n      pop\n        /* \"#utility.yul\":6162:6528   */\n      swap2\n      swap1\n      pop\n      jump\t// out\n        /* \"#utility.yul\":6534:6953   */\n    tag_39:\n        /* \"#utility.yul\":6700:6704   */\n      0x00\n        /* \"#utility.yul\":6738:6740   */\n      0x20\n        /* \"#utility.yul\":6727:6736   */\n      dup3\n        /* \"#utility.yul\":6723:6741   */\n      add\n        /* \"#utility.yul\":6715:6741   */\n      swap1\n      pop\n        /* \"#utility.yul\":6787:6796   */\n      dup2\n        /* \"#utility.yul\":6781:6785   */\n      dup2\n        /* \"#utility.yul\":6777:6797   */\n      sub\n        /* \"#utility.yul\":6773:6774   */\n      0x00\n        /* \"#utility.yul\":6762:6771   */\n      dup4\n        /* \"#utility.yul\":6758:6775   */\n      add\n        /* \"#utility.yul\":6751:6798   */\n      mstore\n        /* \"#utility.yul\":6815:6946   */\n      tag_143\n        /* \"#utility.yul\":6941:6945   */\n      dup2\n        /* \"#utility.yul\":6815:6946   */\n      tag_69\n      jump\t// in\n    tag_143:\n        /* \"#utility.yul\":6807:6946   */\n      swap1\n      pop\n        /* \"#utility.yul\":6534:6953   */\n      swap2\n      swap1\n      pop\n      jump\t// out\n        /* \"#utility.yul\":6959:7181   */\n    tag_41:\n        /* \"#utility.yul\":7052:7056   */\n      0x00\n        /* \"#utility.yul\":7090:7092   */\n      0x20\n        /* \"#utility.yul\":7079:7088   */\n      dup3\n        /* \"#utility.yul\":7075:7093   */\n      add\n        /* \"#utility.yul\":7067:7093   */\n      swap1\n      pop\n        /* \"#utility.yul\":7103:7174   */\n      tag_145\n        /* \"#utility.yul\":7171:7172   */\n      0x00\n        /* \"#utility.yul\":7160:7169   */\n      dup4\n        /* \"#utility.yul\":7156:7173   */\n      add\n        /* \"#utility.yul\":7147:7153   */\n      dup5\n        /* \"#utility.yul\":7103:7174   */\n      tag_61\n      jump\t// in\n    tag_145:\n        /* \"#utility.yul\":6959:7181   */\n      swap3\n      swap2\n      pop\n      pop\n      jump\t// out\n        /* \"#utility.yul\":7187:7359   */\n    tag_70:\n        /* \"#utility.yul\":7327:7351   */\n      0x455243313136373a20637265617465206661696c656400000000000000000000\n        /* \"#utility.yul\":7323:7324   */\n      0x00\n        /* \"#utility.yul\":7315:7321   */\n      dup3\n        /* \"#utility.yul\":7311:7325   */\n      add\n        /* \"#utility.yul\":7304:7352   */\n      mstore\n        /* \"#utility.yul\":7187:7359   */\n      pop\n      jump\t// out\n        /* \"#utility.yul\":7365:7731   */\n    tag_71:\n        /* \"#utility.yul\":7507:7510   */\n      0x00\n        /* \"#utility.yul\":7528:7595   */\n      tag_148\n        /* \"#utility.yul\":7592:7594   */\n      0x16\n        /* \"#utility.yul\":7587:7590   */\n      dup4\n        /* \"#utility.yul\":7528:7595   */\n      tag_64\n      jump\t// in\n    tag_148:\n        /* \"#utility.yul\":7521:7595   */\n      swap2\n      pop\n        /* \"#utility.yul\":7604:7697   */\n      tag_149\n        /* \"#utility.yul\":7693:7696   */\n      dup3\n        /* \"#utility.yul\":7604:7697   */\n      tag_70\n      jump\t// in\n    tag_149:\n        /* \"#utility.yul\":7722:7724   */\n      0x20\n        /* \"#utility.yul\":7717:7720   */\n      dup3\n        /* \"#utility.yul\":7713:7725   */\n      add\n        /* \"#utility.yul\":7706:7725   */\n      swap1\n      pop\n        /* \"#utility.yul\":7365:7731   */\n      swap2\n      swap1\n      pop\n      jump\t// out\n        /* \"#utility.yul\":7737:8156   */\n    tag_45:\n        /* \"#utility.yul\":7903:7907   */\n      0x00\n        /* \"#utility.yul\":7941:7943   */\n      0x20\n        /* \"#utility.yul\":7930:7939   */\n      dup3\n        /* \"#utility.yul\":7926:7944   */\n      add\n        /* \"#utility.yul\":7918:7944   */\n      swap1\n      pop\n        /* \"#utility.yul\":7990:7999   */\n      dup2\n        /* \"#utility.yul\":7984:7988   */\n      dup2\n        /* \"#utility.yul\":7980:8000   */\n      sub\n        /* \"#utility.yul\":7976:7977   */\n      0x00\n        /* \"#utility.yul\":7965:7974   */\n      dup4\n        /* \"#utility.yul\":7961:7978   */\n      add\n        /* \"#utility.yul\":7954:8001   */\n      mstore\n        /* \"#utility.yul\":8018:8149   */\n      tag_151\n        /* \"#utility.yul\":8144:8148   */\n      dup2\n        /* \"#utility.yul\":8018:8149   */\n      tag_71\n      jump\t// in\n    tag_151:\n        /* \"#utility.yul\":8010:8149   */\n      swap1\n      pop\n        /* \"#utility.yul\":7737:8156   */\n      swap2\n      swap1\n      pop\n      jump\t// out\n\n    auxdata: 0xa264697066735822122055f9533cb5a535683c98621b75c1804d96675430dca884ea52e790f71884b8f264736f6c63430008120033\n}\n\nsub_1: assembly {\n        /* \"contracts/Produce.sol\":140:1521  contract Produce is Ownable{... */\n      mstore(0x40, 0x80)\n        /* \"contracts/Produce.sol\":503:561  constructor() {... */\n      callvalue\n      dup1\n      iszero\n      tag_1\n      jumpi\n      0x00\n      dup1\n      revert\n    tag_1:\n      pop\n        /* \"@openzeppelin/contracts/access/Ownable.sol\":936:968  _transferOwnership(_msgSender()) */\n      tag_5\n        /* \"@openzeppelin/contracts/access/Ownable.sol\":955:967  _msgSender() */\n      tag_6\n        /* \"@openzeppelin/contracts/access/Ownable.sol\":955:965  _msgSender */\n      shl(0x20, tag_7)\n        /* \"@openzeppelin/contracts/access/Ownable.sol\":955:967  _msgSender() */\n      0x20\n      shr\n      jump\t// in\n    tag_6:\n        /* \"@openzeppelin/contracts/access/Ownable.sol\":936:954  _transferOwnership */\n      shl(0x20, tag_8)\n        /* \"@openzeppelin/contracts/access/Ownable.sol\":936:968  _transferOwnership(_msgSender()) */\n      0x20\n      shr\n      jump\t// in\n    tag_5:\n        /* \"contracts/Produce.sol\":535:554  State.UNINITIALIZED */\n      0x00\n        /* \"contracts/Produce.sol\":527:532  state */\n      0x07\n      0x00\n        /* \"contracts/Produce.sol\":527:554  state = State.UNINITIALIZED */\n      0x0100\n      exp\n      dup2\n      sload\n      dup2\n      0xff\n      mul\n      not\n      and\n      swap1\n      dup4\n      0x02\n      dup2\n      gt\n      iszero\n      tag_10\n      jumpi\n      tag_11\n      tag_12\n      jump\t// in\n    tag_11:\n    tag_10:\n      mul\n      or\n      swap1\n      sstore\n      pop\n        /* \"contracts/Produce.sol\":140:1521  contract Produce is Ownable{... */\n      jump(tag_13)\n        /* \"@openzeppelin/contracts/utils/Context.sol\":640:736  function _msgSender() internal view virtual returns (address) {... */\n    tag_7:\n        /* \"@openzeppelin/contracts/utils/Context.sol\":693:700  address */\n      0x00\n        /* \"@openzeppelin/contracts/utils/Context.sol\":719:729  msg.sender */\n      caller\n        /* \"@openzeppelin/contracts/utils/Context.sol\":712:729  return msg.sender */\n      swap1\n      pop\n        /* \"@openzeppelin/contracts/utils/Context.sol\":640:736  function _msgSender() internal view virtual returns (address) {... */\n      swap1\n      jump\t// out\n        /* \"@openzeppelin/contracts/access/Ownable.sol\":2433:2620  function _transferOwnership(address newOwner) internal virtual {... */\n    tag_8:\n        /* \"@openzeppelin/contracts/access/Ownable.sol\":2506:2522  address oldOwner */\n      0x00\n        /* \"@openzeppelin/contracts/access/Ownable.sol\":2525:2531  _owner */\n      dup1\n      0x00\n      swap1\n      sload\n      swap1\n      0x0100\n      exp\n      swap1\n      div\n      0xffffffffffffffffffffffffffffffffffffffff\n      and\n        /* \"@openzeppelin/contracts/access/Ownable.sol\":2506:2531  address oldOwner = _owner */\n      swap1\n      pop\n        /* \"@openzeppelin/contracts/access/Ownable.sol\":2550:2558  newOwner */\n      dup2\n        /* \"@openzeppelin/contracts/access/Ownable.sol\":2541:2547  _owner */\n      0x00\n      dup1\n        /* \"@openzeppelin/contracts/access/Ownable.sol\":2541:2558  _owner = newOwner */\n      0x0100\n      exp\n      dup2\n      sload\n      dup2\n      0xffffffffffffffffffffffffffffffffffffffff\n      mul\n      not\n      and\n      swap1\n      dup4\n      0xffffffffffffffffffffffffffffffffffffffff\n      and\n      mul\n      or\n      swap1\n      sstore\n      pop\n        /* \"@openzeppelin/contracts/access/Ownable.sol\":2604:2612  newOwner */\n      dup2\n        /* \"@openzeppelin/contracts/access/Ownable.sol\":2573:2613  OwnershipTransferred(oldOwner, newOwner) */\n      0xffffffffffffffffffffffffffffffffffffffff\n      and\n        /* \"@openzeppelin/contracts/access/Ownable.sol\":2594:2602  oldOwner */\n      dup2\n        /* \"@openzeppelin/contracts/access/Ownable.sol\":2573:2613  OwnershipTransferred(oldOwner, newOwner) */\n      0xffffffffffffffffffffffffffffffffffffffff\n      and\n      0x8be0079c531659141344cd1fd0a4f28419497f9722a3daafe3b4186f6b6457e0\n      mload(0x40)\n      mload(0x40)\n      dup1\n      swap2\n      sub\n      swap1\n      log3\n        /* \"@openzeppelin/contracts/access/Ownable.sol\":2496:2620  {... */\n      pop\n        /* \"@openzeppelin/contracts/access/Ownable.sol\":2433:2620  function _transferOwnership(address newOwner) internal virtual {... */\n      pop\n      jump\t// out\n        /* \"#utility.yul\":7:187   */\n    tag_12:\n        /* \"#utility.yul\":55:132   */\n      0x4e487b7100000000000000000000000000000000000000000000000000000000\n        /* \"#utility.yul\":52:53   */\n      0x00\n        /* \"#utility.yul\":45:133   */\n      mstore\n        /* \"#utility.yul\":152:156   */\n      0x21\n        /* \"#utility.yul\":149:150   */\n      0x04\n        /* \"#utility.yul\":142:157   */\n      mstore\n        /* \"#utility.yul\":176:180   */\n      0x24\n        /* \"#utility.yul\":173:174   */\n      0x00\n        /* \"#utility.yul\":166:181   */\n      revert\n        /* \"contracts/Produce.sol\":140:1521  contract Produce is Ownable{... */\n    tag_13:\n      dataSize(sub_0)\n      dup1\n      dataOffset(sub_0)\n      0x00\n      codecopy\n      0x00\n      return\n    stop\n\n    sub_0: assembly {\n            /* \"contracts/Produce.sol\":140:1521  contract Produce is Ownable{... */\n          mstore(0x40, 0x80)\n          callvalue\n          dup1\n          iszero\n          tag_1\n          jumpi\n          0x00\n          dup1\n          revert\n        tag_1:\n          pop\n          jumpi(tag_2, lt(calldatasize, 0x04))\n          shr(0xe0, calldataload(0x00))\n          dup1\n          0xa035b1fe\n          gt\n          tag_14\n          jumpi\n          dup1\n          0xa035b1fe\n          eq\n          tag_8\n          jumpi\n          dup1\n          0xd811fcf0\n          eq\n          tag_9\n          jumpi\n          dup1\n          0xeaa61dea\n          eq\n          tag_10\n          jumpi\n          dup1\n          0xf2fde38b\n          eq\n          tag_11\n          jumpi\n          dup1\n          0xf5c609e0\n          eq\n          tag_12\n          jumpi\n          dup1\n          0xfa34f63a\n          eq\n          tag_13\n          jumpi\n          jump(tag_2)\n        tag_14:\n          dup1\n          0x6d86b8a5\n          eq\n          tag_3\n          jumpi\n          dup1\n          0x715018a6\n          eq\n          tag_4\n          jumpi\n          dup1\n          0x76c820f6\n          eq\n          tag_5\n          jumpi\n          dup1\n          0x80f55605\n          eq\n          tag_6\n          jumpi\n          dup1\n          0x8da5cb5b\n          eq\n          tag_7\n          jumpi\n        tag_2:\n          0x00\n          dup1\n          revert\n            /* \"contracts/Produce.sol\":329:353  uint256 public orderSize */\n        tag_3:\n          tag_15\n          tag_16\n          jump\t// in\n        tag_15:\n          mload(0x40)\n          tag_17\n          swap2\n          swap1\n          tag_18\n          jump\t// in\n        tag_17:\n          mload(0x40)\n          dup1\n          swap2\n          sub\n          swap1\n          return\n            /* \"@openzeppelin/contracts/access/Ownable.sol\":1831:1932  function renounceOwnership() public virtual onlyOwner {... */\n        tag_4:\n          tag_19\n          tag_20\n          jump\t// in\n        tag_19:\n          stop\n            /* \"contracts/Produce.sol\":567:990  function initilize(... */\n        tag_5:\n          tag_21\n          0x04\n          dup1\n          calldatasize\n          sub\n          dup2\n          add\n          swap1\n          tag_22\n          swap2\n          swap1\n          tag_23\n          jump\t// in\n        tag_22:\n          tag_24\n          jump\t// in\n        tag_21:\n          stop\n            /* \"contracts/Produce.sol\":244:265  address public market */\n        tag_6:\n          tag_25\n          tag_26\n          jump\t// in\n        tag_25:\n          mload(0x40)\n          tag_27\n          swap2\n          swap1\n          tag_28\n          jump\t// in\n        tag_27:\n          mload(0x40)\n          dup1\n          swap2\n          sub\n          swap1\n          return\n            /* \"@openzeppelin/contracts/access/Ownable.sol\":1201:1286  function owner() public view virtual returns (address) {... */\n        tag_7:\n          tag_29\n          tag_30\n          jump\t// in\n        tag_29:\n          mload(0x40)\n          tag_31\n          swap2\n          swap1\n          tag_28\n          jump\t// in\n        tag_31:\n          mload(0x40)\n          dup1\n          swap2\n          sub\n          swap1\n          return\n            /* \"contracts/Produce.sol\":303:323  uint256 public price */\n        tag_8:\n          tag_32\n          tag_33\n          jump\t// in\n        tag_32:\n          mload(0x40)\n          tag_34\n          swap2\n          swap1\n          tag_18\n          jump\t// in\n        tag_34:\n          mload(0x40)\n          dup1\n          swap2\n          sub\n          swap1\n          return\n            /* \"contracts/Produce.sol\":217:238  address public farmer */\n        tag_9:\n          tag_35\n          tag_36\n          jump\t// in\n        tag_35:\n          mload(0x40)\n          tag_37\n          swap2\n          swap1\n          tag_28\n          jump\t// in\n        tag_37:\n          mload(0x40)\n          dup1\n          swap2\n          sub\n          swap1\n          return\n            /* \"contracts/Produce.sol\":1367:1517  function removeOrder() external {... */\n        tag_10:\n          tag_38\n          tag_39\n          jump\t// in\n        tag_38:\n          stop\n            /* \"@openzeppelin/contracts/access/Ownable.sol\":2081:2279  function transferOwnership(address newOwner) public virtual onlyOwner {... */\n        tag_11:\n          tag_40\n          0x04\n          dup1\n          calldatasize\n          sub\n          dup2\n          add\n          swap1\n          tag_41\n          swap2\n          swap1\n          tag_42\n          jump\t// in\n        tag_41:\n          tag_43\n          jump\t// in\n        tag_40:\n          stop\n            /* \"contracts/Produce.sol\":1043:1361  function placeOrder() external {... */\n        tag_12:\n          tag_44\n          tag_45\n          jump\t// in\n        tag_44:\n          stop\n            /* \"contracts/Produce.sol\":271:297  bytes32 public produceHash */\n        tag_13:\n          tag_46\n          tag_47\n          jump\t// in\n        tag_46:\n          mload(0x40)\n          tag_48\n          swap2\n          swap1\n          tag_49\n          jump\t// in\n        tag_48:\n          mload(0x40)\n          dup1\n          swap2\n          sub\n          swap1\n          return\n            /* \"contracts/Produce.sol\":329:353  uint256 public orderSize */\n        tag_16:\n          sload(0x05)\n          dup2\n          jump\t// out\n            /* \"@openzeppelin/contracts/access/Ownable.sol\":1831:1932  function renounceOwnership() public virtual onlyOwner {... */\n        tag_20:\n            /* \"@openzeppelin/contracts/access/Ownable.sol\":1094:1107  _checkOwner() */\n          tag_51\n            /* \"@openzeppelin/contracts/access/Ownable.sol\":1094:1105  _checkOwner */\n          tag_52\n            /* \"@openzeppelin/contracts/access/Ownable.sol\":1094:1107  _checkOwner() */\n          jump\t// in\n        tag_51:\n            /* \"@openzeppelin/contracts/access/Ownable.sol\":1895:1925  _transferOwnership(address(0)) */\n          tag_54\n            /* \"@openzeppelin/contracts/access/Ownable.sol\":1922:1923  0 */\n          0x00\n            /* \"@openzeppelin/contracts/access/Ownable.sol\":1895:1913  _transferOwnership */\n          tag_55\n            /* \"@openzeppelin/contracts/access/Ownable.sol\":1895:1925  _transferOwnership(address(0)) */\n          jump\t// in\n        tag_54:\n            /* \"@openzeppelin/contracts/access/Ownable.sol\":1831:1932  function renounceOwnership() public virtual onlyOwner {... */\n          jump\t// out\n            /* \"contracts/Produce.sol\":567:990  function initilize(... */\n        tag_24:\n            /* \"contracts/Produce.sol\":733:752  State.UNINITIALIZED */\n          0x00\n            /* \"contracts/Produce.sol\":726:752  state==State.UNINITIALIZED */\n          0x02\n          dup2\n          gt\n          iszero\n          tag_57\n          jumpi\n          tag_58\n          tag_59\n          jump\t// in\n        tag_58:\n        tag_57:\n            /* \"contracts/Produce.sol\":726:731  state */\n          0x07\n          0x00\n          swap1\n          sload\n          swap1\n          0x0100\n          exp\n          swap1\n          div\n          0xff\n          and\n            /* \"contracts/Produce.sol\":726:752  state==State.UNINITIALIZED */\n          0x02\n          dup2\n          gt\n          iszero\n          tag_60\n          jumpi\n          tag_61\n          tag_59\n          jump\t// in\n        tag_61:\n        tag_60:\n          eq\n            /* \"contracts/Produce.sol\":718:797  require(state==State.UNINITIALIZED, \"This produce has already been initilized\") */\n          tag_62\n          jumpi\n          mload(0x40)\n          0x08c379a000000000000000000000000000000000000000000000000000000000\n          dup2\n          mstore\n          0x04\n          add\n          tag_63\n          swap1\n          tag_64\n          jump\t// in\n        tag_63:\n          mload(0x40)\n          dup1\n          swap2\n          sub\n          swap1\n          revert\n        tag_62:\n            /* \"contracts/Produce.sol\":807:834  _transferOwnership(_farmer) */\n          tag_65\n            /* \"contracts/Produce.sol\":826:833  _farmer */\n          dup5\n            /* \"contracts/Produce.sol\":807:825  _transferOwnership */\n          tag_55\n            /* \"contracts/Produce.sol\":807:834  _transferOwnership(_farmer) */\n          jump\t// in\n        tag_65:\n            /* \"contracts/Produce.sol\":853:863  msg.sender */\n          caller\n            /* \"contracts/Produce.sol\":844:850  market */\n          0x02\n          0x00\n            /* \"contracts/Produce.sol\":844:863  market = msg.sender */\n          0x0100\n          exp\n          dup2\n          sload\n          dup2\n          0xffffffffffffffffffffffffffffffffffffffff\n          mul\n          not\n          and\n          swap1\n          dup4\n          0xffffffffffffffffffffffffffffffffffffffff\n          and\n          mul\n          or\n          swap1\n          sstore\n          pop\n            /* \"contracts/Produce.sol\":887:899  _produceHash */\n          dup3\n            /* \"contracts/Produce.sol\":873:884  produceHash */\n          0x03\n            /* \"contracts/Produce.sol\":873:899  produceHash = _produceHash */\n          dup2\n          swap1\n          sstore\n          pop\n            /* \"contracts/Produce.sol\":917:923  _price */\n          dup2\n            /* \"contracts/Produce.sol\":909:914  price */\n          0x04\n            /* \"contracts/Produce.sol\":909:923  price = _price */\n          dup2\n          swap1\n          sstore\n          pop\n            /* \"contracts/Produce.sol\":945:955  _orderSize */\n          dup1\n            /* \"contracts/Produce.sol\":933:942  orderSize */\n          0x05\n            /* \"contracts/Produce.sol\":933:955  orderSize = _orderSize */\n          dup2\n          swap1\n          sstore\n          pop\n            /* \"contracts/Produce.sol\":973:983  State.OPEN */\n          0x01\n            /* \"contracts/Produce.sol\":965:970  state */\n          0x07\n          0x00\n            /* \"contracts/Produce.sol\":965:983  state = State.OPEN */\n          0x0100\n          exp\n          dup2\n          sload\n          dup2\n          0xff\n          mul\n          not\n          and\n          swap1\n          dup4\n          0x02\n          dup2\n          gt\n          iszero\n          tag_66\n          jumpi\n          tag_67\n          tag_59\n          jump\t// in\n        tag_67:\n        tag_66:\n          mul\n          or\n          swap1\n          sstore\n          pop\n            /* \"contracts/Produce.sol\":567:990  function initilize(... */\n          pop\n          pop\n          pop\n          pop\n          jump\t// out\n            /* \"contracts/Produce.sol\":244:265  address public market */\n        tag_26:\n          0x02\n          0x00\n          swap1\n          sload\n          swap1\n          0x0100\n          exp\n          swap1\n          div\n          0xffffffffffffffffffffffffffffffffffffffff\n          and\n          dup2\n          jump\t// out\n            /* \"@openzeppelin/contracts/access/Ownable.sol\":1201:1286  function owner() public view virtual returns (address) {... */\n        tag_30:\n            /* \"@openzeppelin/contracts/access/Ownable.sol\":1247:1254  address */\n          0x00\n            /* \"@openzeppelin/contracts/access/Ownable.sol\":1273:1279  _owner */\n          dup1\n          0x00\n          swap1\n          sload\n          swap1\n          0x0100\n          exp\n          swap1\n          div\n          0xffffffffffffffffffffffffffffffffffffffff\n          and\n            /* \"@openzeppelin/contracts/access/Ownable.sol\":1266:1279  return _owner */\n          swap1\n          pop\n            /* \"@openzeppelin/contracts/access/Ownable.sol\":1201:1286  function owner() public view virtual returns (address) {... */\n          swap1\n          jump\t// out\n            /* \"contracts/Produce.sol\":303:323  uint256 public price */\n        tag_33:\n          sload(0x04)\n          dup2\n          jump\t// out\n            /* \"contracts/Produce.sol\":217:238  address public farmer */\n        tag_36:\n          0x01\n          0x00\n          swap1\n          sload\n          swap1\n          0x0100\n          exp\n          swap1\n          div\n          0xffffffffffffffffffffffffffffffffffffffff\n          and\n          dup2\n          jump\t// out\n            /* \"contracts/Produce.sol\":1367:1517  function removeOrder() external {... */\n        tag_39:\n            /* \"contracts/Produce.sol\":1417:1428  produceList */\n          0x06\n            /* \"contracts/Produce.sol\":1417:1440  produceList[msg.sender] */\n          0x00\n            /* \"contracts/Produce.sol\":1429:1439  msg.sender */\n          caller\n            /* \"contracts/Produce.sol\":1417:1440  produceList[msg.sender] */\n          0xffffffffffffffffffffffffffffffffffffffff\n          and\n          0xffffffffffffffffffffffffffffffffffffffff\n          and\n          dup2\n          mstore\n          0x20\n          add\n          swap1\n          dup2\n          mstore\n          0x20\n          add\n          0x00\n          keccak256\n          0x00\n          swap1\n          sload\n          swap1\n          0x0100\n          exp\n          swap1\n          div\n          0xff\n          and\n            /* \"contracts/Produce.sol\":1409:1469  require(produceList[msg.sender], \"no order has been placed\") */\n          tag_70\n          jumpi\n          mload(0x40)\n          0x08c379a000000000000000000000000000000000000000000000000000000000\n          dup2\n          mstore\n          0x04\n          add\n          tag_71\n          swap1\n          tag_72\n          jump\t// in\n        tag_71:\n          mload(0x40)\n          dup1\n          swap2\n          sub\n          swap1\n          revert\n        tag_70:\n            /* \"contracts/Produce.sol\":1505:1510  false */\n          0x00\n            /* \"contracts/Produce.sol\":1479:1490  produceList */\n          0x06\n            /* \"contracts/Produce.sol\":1479:1502  produceList[msg.sender] */\n          0x00\n            /* \"contracts/Produce.sol\":1491:1501  msg.sender */\n          caller\n            /* \"contracts/Produce.sol\":1479:1502  produceList[msg.sender] */\n          0xffffffffffffffffffffffffffffffffffffffff\n          and\n          0xffffffffffffffffffffffffffffffffffffffff\n          and\n          dup2\n          mstore\n          0x20\n          add\n          swap1\n          dup2\n          mstore\n          0x20\n          add\n          0x00\n          keccak256\n          0x00\n            /* \"contracts/Produce.sol\":1479:1510  produceList[msg.sender] = false */\n          0x0100\n          exp\n          dup2\n          sload\n          dup2\n          0xff\n          mul\n          not\n          and\n          swap1\n          dup4\n          iszero\n          iszero\n          mul\n          or\n          swap1\n          sstore\n          pop\n            /* \"contracts/Produce.sol\":1367:1517  function removeOrder() external {... */\n          jump\t// out\n            /* \"@openzeppelin/contracts/access/Ownable.sol\":2081:2279  function transferOwnership(address newOwner) public virtual onlyOwner {... */\n        tag_43:\n            /* \"@openzeppelin/contracts/access/Ownable.sol\":1094:1107  _checkOwner() */\n          tag_74\n            /* \"@openzeppelin/contracts/access/Ownable.sol\":1094:1105  _checkOwner */\n          tag_52\n            /* \"@openzeppelin/contracts/access/Ownable.sol\":1094:1107  _checkOwner() */\n          jump\t// in\n        tag_74:\n            /* \"@openzeppelin/contracts/access/Ownable.sol\":2189:2190  0 */\n          0x00\n            /* \"@openzeppelin/contracts/access/Ownable.sol\":2169:2191  newOwner != address(0) */\n          0xffffffffffffffffffffffffffffffffffffffff\n          and\n            /* \"@openzeppelin/contracts/access/Ownable.sol\":2169:2177  newOwner */\n          dup2\n            /* \"@openzeppelin/contracts/access/Ownable.sol\":2169:2191  newOwner != address(0) */\n          0xffffffffffffffffffffffffffffffffffffffff\n          and\n          sub\n            /* \"@openzeppelin/contracts/access/Ownable.sol\":2161:2234  require(newOwner != address(0), \"Ownable: new owner is the zero address\") */\n          tag_76\n          jumpi\n          mload(0x40)\n          0x08c379a000000000000000000000000000000000000000000000000000000000\n          dup2\n          mstore\n          0x04\n          add\n          tag_77\n          swap1\n          tag_78\n          jump\t// in\n        tag_77:\n          mload(0x40)\n          dup1\n          swap2\n          sub\n          swap1\n          revert\n        tag_76:\n            /* \"@openzeppelin/contracts/access/Ownable.sol\":2244:2272  _transferOwnership(newOwner) */\n          tag_79\n            /* \"@openzeppelin/contracts/access/Ownable.sol\":2263:2271  newOwner */\n          dup2\n            /* \"@openzeppelin/contracts/access/Ownable.sol\":2244:2262  _transferOwnership */\n          tag_55\n            /* \"@openzeppelin/contracts/access/Ownable.sol\":2244:2272  _transferOwnership(newOwner) */\n          jump\t// in\n        tag_79:\n            /* \"@openzeppelin/contracts/access/Ownable.sol\":2081:2279  function transferOwnership(address newOwner) public virtual onlyOwner {... */\n          pop\n          jump\t// out\n            /* \"contracts/Produce.sol\":1043:1361  function placeOrder() external {... */\n        tag_45:\n            /* \"contracts/Produce.sol\":1119:1126  owner() */\n          tag_81\n            /* \"contracts/Produce.sol\":1119:1124  owner */\n          tag_30\n            /* \"contracts/Produce.sol\":1119:1126  owner() */\n          jump\t// in\n        tag_81:\n            /* \"contracts/Produce.sol\":1105:1126  msg.sender != owner() */\n          0xffffffffffffffffffffffffffffffffffffffff\n          and\n            /* \"contracts/Produce.sol\":1105:1115  msg.sender */\n          caller\n            /* \"contracts/Produce.sol\":1105:1126  msg.sender != owner() */\n          0xffffffffffffffffffffffffffffffffffffffff\n          and\n          sub\n            /* \"contracts/Produce.sol\":1084:1199  require(... */\n          tag_82\n          jumpi\n          mload(0x40)\n          0x08c379a000000000000000000000000000000000000000000000000000000000\n          dup2\n          mstore\n          0x04\n          add\n          tag_83\n          swap1\n          tag_84\n          jump\t// in\n        tag_83:\n          mload(0x40)\n          dup1\n          swap2\n          sub\n          swap1\n          revert\n        tag_82:\n            /* \"contracts/Produce.sol\":1218:1229  produceList */\n          0x06\n            /* \"contracts/Produce.sol\":1218:1241  produceList[msg.sender] */\n          0x00\n            /* \"contracts/Produce.sol\":1230:1240  msg.sender */\n          caller\n            /* \"contracts/Produce.sol\":1218:1241  produceList[msg.sender] */\n          0xffffffffffffffffffffffffffffffffffffffff\n          and\n          0xffffffffffffffffffffffffffffffffffffffff\n          and\n          dup2\n          mstore\n          0x20\n          add\n          swap1\n          dup2\n          mstore\n          0x20\n          add\n          0x00\n          keccak256\n          0x00\n          swap1\n          sload\n          swap1\n          0x0100\n          exp\n          swap1\n          div\n          0xff\n          and\n            /* \"contracts/Produce.sol\":1217:1241  !produceList[msg.sender] */\n          iszero\n            /* \"contracts/Produce.sol\":1209:1276  require(!produceList[msg.sender],  \"order has already been placed\") */\n          tag_85\n          jumpi\n          mload(0x40)\n          0x08c379a000000000000000000000000000000000000000000000000000000000\n          dup2\n          mstore\n          0x04\n          add\n          tag_86\n          swap1\n          tag_87\n          jump\t// in\n        tag_86:\n          mload(0x40)\n          dup1\n          swap2\n          sub\n          swap1\n          revert\n        tag_85:\n            /* \"contracts/Produce.sol\":1312:1316  true */\n          0x01\n            /* \"contracts/Produce.sol\":1286:1297  produceList */\n          0x06\n            /* \"contracts/Produce.sol\":1286:1309  produceList[msg.sender] */\n          0x00\n            /* \"contracts/Produce.sol\":1298:1308  msg.sender */\n          caller\n            /* \"contracts/Produce.sol\":1286:1309  produceList[msg.sender] */\n          0xffffffffffffffffffffffffffffffffffffffff\n          and\n          0xffffffffffffffffffffffffffffffffffffffff\n          and\n          dup2\n          mstore\n          0x20\n          add\n          swap1\n          dup2\n          mstore\n          0x20\n          add\n          0x00\n          keccak256\n          0x00\n            /* \"contracts/Produce.sol\":1286:1316  produceList[msg.sender] = true */\n          0x0100\n          exp\n          dup2\n          sload\n          dup2\n          0xff\n          mul\n          not\n          and\n          swap1\n          dup4\n          iszero\n          iszero\n          mul\n          or\n          swap1\n          sstore\n          pop\n            /* \"contracts/Produce.sol\":1331:1354  OrderQueued(msg.sender) */\n          0xe7183a38a6aa8fb99c4071a88f3acd0b3c30fd4b05330c2f0a0724bb0254f804\n            /* \"contracts/Produce.sol\":1343:1353  msg.sender */\n          caller\n            /* \"contracts/Produce.sol\":1331:1354  OrderQueued(msg.sender) */\n          mload(0x40)\n          tag_88\n          swap2\n          swap1\n          tag_28\n          jump\t// in\n        tag_88:\n          mload(0x40)\n          dup1\n          swap2\n          sub\n          swap1\n          log1\n            /* \"contracts/Produce.sol\":1043:1361  function placeOrder() external {... */\n          jump\t// out\n            /* \"contracts/Produce.sol\":271:297  bytes32 public produceHash */\n        tag_47:\n          sload(0x03)\n          dup2\n          jump\t// out\n            /* \"@openzeppelin/contracts/access/Ownable.sol\":1359:1489  function _checkOwner() internal view virtual {... */\n        tag_52:\n            /* \"@openzeppelin/contracts/access/Ownable.sol\":1433:1445  _msgSender() */\n          tag_90\n            /* \"@openzeppelin/contracts/access/Ownable.sol\":1433:1443  _msgSender */\n          tag_91\n            /* \"@openzeppelin/contracts/access/Ownable.sol\":1433:1445  _msgSender() */\n          jump\t// in\n        tag_90:\n            /* \"@openzeppelin/contracts/access/Ownable.sol\":1422:1445  owner() == _msgSender() */\n          0xffffffffffffffffffffffffffffffffffffffff\n          and\n            /* \"@openzeppelin/contracts/access/Ownable.sol\":1422:1429  owner() */\n          tag_92\n            /* \"@openzeppelin/contracts/access/Ownable.sol\":1422:1427  owner */\n          tag_30\n            /* \"@openzeppelin/contracts/access/Ownable.sol\":1422:1429  owner() */\n          jump\t// in\n        tag_92:\n            /* \"@openzeppelin/contracts/access/Ownable.sol\":1422:1445  owner() == _msgSender() */\n          0xffffffffffffffffffffffffffffffffffffffff\n          and\n          eq\n            /* \"@openzeppelin/contracts/access/Ownable.sol\":1414:1482  require(owner() == _msgSender(), \"Ownable: caller is not the owner\") */\n          tag_93\n          jumpi\n          mload(0x40)\n          0x08c379a000000000000000000000000000000000000000000000000000000000\n          dup2\n          mstore\n          0x04\n          add\n          tag_94\n          swap1\n          tag_95\n          jump\t// in\n        tag_94:\n          mload(0x40)\n          dup1\n          swap2\n          sub\n          swap1\n          revert\n        tag_93:\n            /* \"@openzeppelin/contracts/access/Ownable.sol\":1359:1489  function _checkOwner() internal view virtual {... */\n          jump\t// out\n            /* \"@openzeppelin/contracts/access/Ownable.sol\":2433:2620  function _transferOwnership(address newOwner) internal virtual {... */\n        tag_55:\n            /* \"@openzeppelin/contracts/access/Ownable.sol\":2506:2522  address oldOwner */\n          0x00\n            /* \"@openzeppelin/contracts/access/Ownable.sol\":2525:2531  _owner */\n          dup1\n          0x00\n          swap1\n          sload\n          swap1\n          0x0100\n          exp\n          swap1\n          div\n          0xffffffffffffffffffffffffffffffffffffffff\n          and\n            /* \"@openzeppelin/contracts/access/Ownable.sol\":2506:2531  address oldOwner = _owner */\n          swap1\n          pop\n            /* \"@openzeppelin/contracts/access/Ownable.sol\":2550:2558  newOwner */\n          dup2\n            /* \"@openzeppelin/contracts/access/Ownable.sol\":2541:2547  _owner */\n          0x00\n          dup1\n            /* \"@openzeppelin/contracts/access/Ownable.sol\":2541:2558  _owner = newOwner */\n          0x0100\n          exp\n          dup2\n          sload\n          dup2\n          0xffffffffffffffffffffffffffffffffffffffff\n          mul\n          not\n          and\n          swap1\n          dup4\n          0xffffffffffffffffffffffffffffffffffffffff\n          and\n          mul\n          or\n          swap1\n          sstore\n          pop\n            /* \"@openzeppelin/contracts/access/Ownable.sol\":2604:2612  newOwner */\n          dup2\n            /* \"@openzeppelin/contracts/access/Ownable.sol\":2573:2613  OwnershipTransferred(oldOwner, newOwner) */\n          0xffffffffffffffffffffffffffffffffffffffff\n          and\n            /* \"@openzeppelin/contracts/access/Ownable.sol\":2594:2602  oldOwner */\n          dup2\n            /* \"@openzeppelin/contracts/access/Ownable.sol\":2573:2613  OwnershipTransferred(oldOwner, newOwner) */\n          0xffffffffffffffffffffffffffffffffffffffff\n          and\n          0x8be0079c531659141344cd1fd0a4f28419497f9722a3daafe3b4186f6b6457e0\n          mload(0x40)\n          mload(0x40)\n          dup1\n          swap2\n          sub\n          swap1\n          log3\n            /* \"@openzeppelin/contracts/access/Ownable.sol\":2496:2620  {... */\n          pop\n            /* \"@openzeppelin/contracts/access/Ownable.sol\":2433:2620  function _transferOwnership(address newOwner) internal virtual {... */\n          pop\n          jump\t// out\n            /* \"@openzeppelin/contracts/utils/Context.sol\":640:736  function _msgSender() internal view virtual returns (address) {... */\n        tag_91:\n            /* \"@openzeppelin/contracts/utils/Context.sol\":693:700  address */\n          0x00\n            /* \"@openzeppelin/contracts/utils/Context.sol\":719:729  msg.sender */\n          caller\n            /* \"@openzeppelin/contracts/utils/Context.sol\":712:729  return msg.sender */\n          swap1\n          pop\n            /* \"@openzeppelin/contracts/utils/Context.sol\":640:736  function _msgSender() internal view virtual returns (address) {... */\n          swap1\n          jump\t// out\n            /* \"#utility.yul\":7:84   */\n        tag_98:\n            /* \"#utility.yul\":44:51   */\n          0x00\n            /* \"#utility.yul\":73:78   */\n          dup2\n            /* \"#utility.yul\":62:78   */\n          swap1\n          pop\n            /* \"#utility.yul\":7:84   */\n          swap2\n          swap1\n          pop\n          jump\t// out\n            /* \"#utility.yul\":90:208   */\n        tag_99:\n            /* \"#utility.yul\":177:201   */\n          tag_130\n            /* \"#utility.yul\":195:200   */\n          dup2\n            /* \"#utility.yul\":177:201   */\n          tag_98\n          jump\t// in\n        tag_130:\n            /* \"#utility.yul\":172:175   */\n          dup3\n            /* \"#utility.yul\":165:202   */\n          mstore\n            /* \"#utility.yul\":90:208   */\n          pop\n          pop\n          jump\t// out\n            /* \"#utility.yul\":214:436   */\n        tag_18:\n            /* \"#utility.yul\":307:311   */\n          0x00\n            /* \"#utility.yul\":345:347   */\n          0x20\n            /* \"#utility.yul\":334:343   */\n          dup3\n            /* \"#utility.yul\":330:348   */\n          add\n            /* \"#utility.yul\":322:348   */\n          swap1\n          pop\n            /* \"#utility.yul\":358:429   */\n          tag_132\n            /* \"#utility.yul\":426:427   */\n          0x00\n            /* \"#utility.yul\":415:424   */\n          dup4\n            /* \"#utility.yul\":411:428   */\n          add\n            /* \"#utility.yul\":402:408   */\n          dup5\n            /* \"#utility.yul\":358:429   */\n          tag_99\n          jump\t// in\n        tag_132:\n            /* \"#utility.yul\":214:436   */\n          swap3\n          swap2\n          pop\n          pop\n          jump\t// out\n            /* \"#utility.yul\":523:640   */\n        tag_101:\n            /* \"#utility.yul\":632:633   */\n          0x00\n            /* \"#utility.yul\":629:630   */\n          dup1\n            /* \"#utility.yul\":622:634   */\n          revert\n            /* \"#utility.yul\":769:895   */\n        tag_103:\n            /* \"#utility.yul\":806:813   */\n          0x00\n            /* \"#utility.yul\":846:888   */\n          0xffffffffffffffffffffffffffffffffffffffff\n            /* \"#utility.yul\":839:844   */\n          dup3\n            /* \"#utility.yul\":835:889   */\n          and\n            /* \"#utility.yul\":824:889   */\n          swap1\n          pop\n            /* \"#utility.yul\":769:895   */\n          swap2\n          swap1\n          pop\n          jump\t// out\n            /* \"#utility.yul\":901:997   */\n        tag_104:\n            /* \"#utility.yul\":938:945   */\n          0x00\n            /* \"#utility.yul\":967:991   */\n          tag_138\n            /* \"#utility.yul\":985:990   */\n          dup3\n            /* \"#utility.yul\":967:991   */\n          tag_103\n          jump\t// in\n        tag_138:\n            /* \"#utility.yul\":956:991   */\n          swap1\n          pop\n            /* \"#utility.yul\":901:997   */\n          swap2\n          swap1\n          pop\n          jump\t// out\n            /* \"#utility.yul\":1003:1125   */\n        tag_105:\n            /* \"#utility.yul\":1076:1100   */\n          tag_140\n            /* \"#utility.yul\":1094:1099   */\n          dup2\n            /* \"#utility.yul\":1076:1100   */\n          tag_104\n          jump\t// in\n        tag_140:\n            /* \"#utility.yul\":1069:1074   */\n          dup2\n            /* \"#utility.yul\":1066:1101   */\n          eq\n            /* \"#utility.yul\":1056:1119   */\n          tag_141\n          jumpi\n            /* \"#utility.yul\":1115:1116   */\n          0x00\n            /* \"#utility.yul\":1112:1113   */\n          dup1\n            /* \"#utility.yul\":1105:1117   */\n          revert\n            /* \"#utility.yul\":1056:1119   */\n        tag_141:\n            /* \"#utility.yul\":1003:1125   */\n          pop\n          jump\t// out\n            /* \"#utility.yul\":1131:1270   */\n        tag_106:\n            /* \"#utility.yul\":1177:1182   */\n          0x00\n            /* \"#utility.yul\":1215:1221   */\n          dup2\n            /* \"#utility.yul\":1202:1222   */\n          calldataload\n            /* \"#utility.yul\":1193:1222   */\n          swap1\n          pop\n            /* \"#utility.yul\":1231:1264   */\n          tag_143\n            /* \"#utility.yul\":1258:1263   */\n          dup2\n            /* \"#utility.yul\":1231:1264   */\n          tag_105\n          jump\t// in\n        tag_143:\n            /* \"#utility.yul\":1131:1270   */\n          swap3\n          swap2\n          pop\n          pop\n          jump\t// out\n            /* \"#utility.yul\":1276:1353   */\n        tag_107:\n            /* \"#utility.yul\":1313:1320   */\n          0x00\n            /* \"#utility.yul\":1342:1347   */\n          dup2\n            /* \"#utility.yul\":1331:1347   */\n          swap1\n          pop\n            /* \"#utility.yul\":1276:1353   */\n          swap2\n          swap1\n          pop\n          jump\t// out\n            /* \"#utility.yul\":1359:1481   */\n        tag_108:\n            /* \"#utility.yul\":1432:1456   */\n          tag_146\n            /* \"#utility.yul\":1450:1455   */\n          dup2\n            /* \"#utility.yul\":1432:1456   */\n          tag_107\n          jump\t// in\n        tag_146:\n            /* \"#utility.yul\":1425:1430   */\n          dup2\n            /* \"#utility.yul\":1422:1457   */\n          eq\n            /* \"#utility.yul\":1412:1475   */\n          tag_147\n          jumpi\n            /* \"#utility.yul\":1471:1472   */\n          0x00\n            /* \"#utility.yul\":1468:1469   */\n          dup1\n            /* \"#utility.yul\":1461:1473   */\n          revert\n            /* \"#utility.yul\":1412:1475   */\n        tag_147:\n            /* \"#utility.yul\":1359:1481   */\n          pop\n          jump\t// out\n            /* \"#utility.yul\":1487:1626   */\n        tag_109:\n            /* \"#utility.yul\":1533:1538   */\n          0x00\n            /* \"#utility.yul\":1571:1577   */\n          dup2\n            /* \"#utility.yul\":1558:1578   */\n          calldataload\n            /* \"#utility.yul\":1549:1578   */\n          swap1\n          pop\n            /* \"#utility.yul\":1587:1620   */\n          tag_149\n            /* \"#utility.yul\":1614:1619   */\n          dup2\n            /* \"#utility.yul\":1587:1620   */\n          tag_108\n          jump\t// in\n        tag_149:\n            /* \"#utility.yul\":1487:1626   */\n          swap3\n          swap2\n          pop\n          pop\n          jump\t// out\n            /* \"#utility.yul\":1632:1754   */\n        tag_110:\n            /* \"#utility.yul\":1705:1729   */\n          tag_151\n            /* \"#utility.yul\":1723:1728   */\n          dup2\n            /* \"#utility.yul\":1705:1729   */\n          tag_98\n          jump\t// in\n        tag_151:\n            /* \"#utility.yul\":1698:1703   */\n          dup2\n            /* \"#utility.yul\":1695:1730   */\n          eq\n            /* \"#utility.yul\":1685:1748   */\n          tag_152\n          jumpi\n            /* \"#utility.yul\":1744:1745   */\n          0x00\n            /* \"#utility.yul\":1741:1742   */\n          dup1\n            /* \"#utility.yul\":1734:1746   */\n          revert\n            /* \"#utility.yul\":1685:1748   */\n        tag_152:\n            /* \"#utility.yul\":1632:1754   */\n          pop\n          jump\t// out\n            /* \"#utility.yul\":1760:1899   */\n        tag_111:\n            /* \"#utility.yul\":1806:1811   */\n          0x00\n            /* \"#utility.yul\":1844:1850   */\n          dup2\n            /* \"#utility.yul\":1831:1851   */\n          calldataload\n            /* \"#utility.yul\":1822:1851   */\n          swap1\n          pop\n            /* \"#utility.yul\":1860:1893   */\n          tag_154\n            /* \"#utility.yul\":1887:1892   */\n          dup2\n            /* \"#utility.yul\":1860:1893   */\n          tag_110\n          jump\t// in\n        tag_154:\n            /* \"#utility.yul\":1760:1899   */\n          swap3\n          swap2\n          pop\n          pop\n          jump\t// out\n            /* \"#utility.yul\":1905:2670   */\n        tag_23:\n            /* \"#utility.yul\":1991:1997   */\n          0x00\n            /* \"#utility.yul\":1999:2005   */\n          dup1\n            /* \"#utility.yul\":2007:2013   */\n          0x00\n            /* \"#utility.yul\":2015:2021   */\n          dup1\n            /* \"#utility.yul\":2064:2067   */\n          0x80\n            /* \"#utility.yul\":2052:2061   */\n          dup6\n            /* \"#utility.yul\":2043:2050   */\n          dup8\n            /* \"#utility.yul\":2039:2062   */\n          sub\n            /* \"#utility.yul\":2035:2068   */\n          slt\n            /* \"#utility.yul\":2032:2152   */\n          iszero\n          tag_156\n          jumpi\n            /* \"#utility.yul\":2071:2150   */\n          tag_157\n          tag_101\n          jump\t// in\n        tag_157:\n            /* \"#utility.yul\":2032:2152   */\n        tag_156:\n            /* \"#utility.yul\":2191:2192   */\n          0x00\n            /* \"#utility.yul\":2216:2269   */\n          tag_158\n            /* \"#utility.yul\":2261:2268   */\n          dup8\n            /* \"#utility.yul\":2252:2258   */\n          dup3\n            /* \"#utility.yul\":2241:2250   */\n          dup9\n            /* \"#utility.yul\":2237:2259   */\n          add\n            /* \"#utility.yul\":2216:2269   */\n          tag_106\n          jump\t// in\n        tag_158:\n            /* \"#utility.yul\":2206:2269   */\n          swap5\n          pop\n            /* \"#utility.yul\":2162:2279   */\n          pop\n            /* \"#utility.yul\":2318:2320   */\n          0x20\n            /* \"#utility.yul\":2344:2397   */\n          tag_159\n            /* \"#utility.yul\":2389:2396   */\n          dup8\n            /* \"#utility.yul\":2380:2386   */\n          dup3\n            /* \"#utility.yul\":2369:2378   */\n          dup9\n            /* \"#utility.yul\":2365:2387   */\n          add\n            /* \"#utility.yul\":2344:2397   */\n          tag_109\n          jump\t// in\n        tag_159:\n            /* \"#utility.yul\":2334:2397   */\n          swap4\n          pop\n            /* \"#utility.yul\":2289:2407   */\n          pop\n            /* \"#utility.yul\":2446:2448   */\n          0x40\n            /* \"#utility.yul\":2472:2525   */\n          tag_160\n            /* \"#utility.yul\":2517:2524   */\n          dup8\n            /* \"#utility.yul\":2508:2514   */\n          dup3\n            /* \"#utility.yul\":2497:2506   */\n          dup9\n            /* \"#utility.yul\":2493:2515   */\n          add\n            /* \"#utility.yul\":2472:2525   */\n          tag_111\n          jump\t// in\n        tag_160:\n            /* \"#utility.yul\":2462:2525   */\n          swap3\n          pop\n            /* \"#utility.yul\":2417:2535   */\n          pop\n            /* \"#utility.yul\":2574:2576   */\n          0x60\n            /* \"#utility.yul\":2600:2653   */\n          tag_161\n            /* \"#utility.yul\":2645:2652   */\n          dup8\n            /* \"#utility.yul\":2636:2642   */\n          dup3\n            /* \"#utility.yul\":2625:2634   */\n          dup9\n            /* \"#utility.yul\":2621:2643   */\n          add\n            /* \"#utility.yul\":2600:2653   */\n          tag_111\n          jump\t// in\n        tag_161:\n            /* \"#utility.yul\":2590:2653   */\n          swap2\n          pop\n            /* \"#utility.yul\":2545:2663   */\n          pop\n            /* \"#utility.yul\":1905:2670   */\n          swap3\n          swap6\n          swap2\n          swap5\n          pop\n          swap3\n          pop\n          jump\t// out\n            /* \"#utility.yul\":2676:2794   */\n        tag_112:\n            /* \"#utility.yul\":2763:2787   */\n          tag_163\n            /* \"#utility.yul\":2781:2786   */\n          dup2\n            /* \"#utility.yul\":2763:2787   */\n          tag_104\n          jump\t// in\n        tag_163:\n            /* \"#utility.yul\":2758:2761   */\n          dup3\n            /* \"#utility.yul\":2751:2788   */\n          mstore\n            /* \"#utility.yul\":2676:2794   */\n          pop\n          pop\n          jump\t// out\n            /* \"#utility.yul\":2800:3022   */\n        tag_28:\n            /* \"#utility.yul\":2893:2897   */\n          0x00\n            /* \"#utility.yul\":2931:2933   */\n          0x20\n            /* \"#utility.yul\":2920:2929   */\n          dup3\n            /* \"#utility.yul\":2916:2934   */\n          add\n            /* \"#utility.yul\":2908:2934   */\n          swap1\n          pop\n            /* \"#utility.yul\":2944:3015   */\n          tag_165\n            /* \"#utility.yul\":3012:3013   */\n          0x00\n            /* \"#utility.yul\":3001:3010   */\n          dup4\n            /* \"#utility.yul\":2997:3014   */\n          add\n            /* \"#utility.yul\":2988:2994   */\n          dup5\n            /* \"#utility.yul\":2944:3015   */\n          tag_112\n          jump\t// in\n        tag_165:\n            /* \"#utility.yul\":2800:3022   */\n          swap3\n          swap2\n          pop\n          pop\n          jump\t// out\n            /* \"#utility.yul\":3028:3357   */\n        tag_42:\n            /* \"#utility.yul\":3087:3093   */\n          0x00\n            /* \"#utility.yul\":3136:3138   */\n          0x20\n            /* \"#utility.yul\":3124:3133   */\n          dup3\n            /* \"#utility.yul\":3115:3122   */\n          dup5\n            /* \"#utility.yul\":3111:3134   */\n          sub\n            /* \"#utility.yul\":3107:3139   */\n          slt\n            /* \"#utility.yul\":3104:3223   */\n          iszero\n          tag_167\n          jumpi\n            /* \"#utility.yul\":3142:3221   */\n          tag_168\n          tag_101\n          jump\t// in\n        tag_168:\n            /* \"#utility.yul\":3104:3223   */\n        tag_167:\n            /* \"#utility.yul\":3262:3263   */\n          0x00\n            /* \"#utility.yul\":3287:3340   */\n          tag_169\n            /* \"#utility.yul\":3332:3339   */\n          dup5\n            /* \"#utility.yul\":3323:3329   */\n          dup3\n            /* \"#utility.yul\":3312:3321   */\n          dup6\n            /* \"#utility.yul\":3308:3330   */\n          add\n            /* \"#utility.yul\":3287:3340   */\n          tag_106\n          jump\t// in\n        tag_169:\n            /* \"#utility.yul\":3277:3340   */\n          swap2\n          pop\n            /* \"#utility.yul\":3233:3350   */\n          pop\n            /* \"#utility.yul\":3028:3357   */\n          swap3\n          swap2\n          pop\n          pop\n          jump\t// out\n            /* \"#utility.yul\":3363:3481   */\n        tag_113:\n            /* \"#utility.yul\":3450:3474   */\n          tag_171\n            /* \"#utility.yul\":3468:3473   */\n          dup2\n            /* \"#utility.yul\":3450:3474   */\n          tag_107\n          jump\t// in\n        tag_171:\n            /* \"#utility.yul\":3445:3448   */\n          dup3\n            /* \"#utility.yul\":3438:3475   */\n          mstore\n            /* \"#utility.yul\":3363:3481   */\n          pop\n          pop\n          jump\t// out\n            /* \"#utility.yul\":3487:3709   */\n        tag_49:\n            /* \"#utility.yul\":3580:3584   */\n          0x00\n            /* \"#utility.yul\":3618:3620   */\n          0x20\n            /* \"#utility.yul\":3607:3616   */\n          dup3\n            /* \"#utility.yul\":3603:3621   */\n          add\n            /* \"#utility.yul\":3595:3621   */\n          swap1\n          pop\n            /* \"#utility.yul\":3631:3702   */\n          tag_173\n            /* \"#utility.yul\":3699:3700   */\n          0x00\n            /* \"#utility.yul\":3688:3697   */\n          dup4\n            /* \"#utility.yul\":3684:3701   */\n          add\n            /* \"#utility.yul\":3675:3681   */\n          dup5\n            /* \"#utility.yul\":3631:3702   */\n          tag_113\n          jump\t// in\n        tag_173:\n            /* \"#utility.yul\":3487:3709   */\n          swap3\n          swap2\n          pop\n          pop\n          jump\t// out\n            /* \"#utility.yul\":3715:3895   */\n        tag_59:\n            /* \"#utility.yul\":3763:3840   */\n          0x4e487b7100000000000000000000000000000000000000000000000000000000\n            /* \"#utility.yul\":3760:3761   */\n          0x00\n            /* \"#utility.yul\":3753:3841   */\n          mstore\n            /* \"#utility.yul\":3860:3864   */\n          0x21\n            /* \"#utility.yul\":3857:3858   */\n          0x04\n            /* \"#utility.yul\":3850:3865   */\n          mstore\n            /* \"#utility.yul\":3884:3888   */\n          0x24\n            /* \"#utility.yul\":3881:3882   */\n          0x00\n            /* \"#utility.yul\":3874:3889   */\n          revert\n            /* \"#utility.yul\":3901:4070   */\n        tag_114:\n            /* \"#utility.yul\":3985:3996   */\n          0x00\n            /* \"#utility.yul\":4019:4025   */\n          dup3\n            /* \"#utility.yul\":4014:4017   */\n          dup3\n            /* \"#utility.yul\":4007:4026   */\n          mstore\n            /* \"#utility.yul\":4059:4063   */\n          0x20\n            /* \"#utility.yul\":4054:4057   */\n          dup3\n            /* \"#utility.yul\":4050:4064   */\n          add\n            /* \"#utility.yul\":4035:4064   */\n          swap1\n          pop\n            /* \"#utility.yul\":3901:4070   */\n          swap3\n          swap2\n          pop\n          pop\n          jump\t// out\n            /* \"#utility.yul\":4076:4303   */\n        tag_115:\n            /* \"#utility.yul\":4216:4250   */\n          0x546869732070726f647563652068617320616c7265616479206265656e20696e\n            /* \"#utility.yul\":4212:4213   */\n          0x00\n            /* \"#utility.yul\":4204:4210   */\n          dup3\n            /* \"#utility.yul\":4200:4214   */\n          add\n            /* \"#utility.yul\":4193:4251   */\n          mstore\n            /* \"#utility.yul\":4285:4295   */\n          0x6974696c697a6564000000000000000000000000000000000000000000000000\n            /* \"#utility.yul\":4280:4282   */\n          0x20\n            /* \"#utility.yul\":4272:4278   */\n          dup3\n            /* \"#utility.yul\":4268:4283   */\n          add\n            /* \"#utility.yul\":4261:4296   */\n          mstore\n            /* \"#utility.yul\":4076:4303   */\n          pop\n          jump\t// out\n            /* \"#utility.yul\":4309:4675   */\n        tag_116:\n            /* \"#utility.yul\":4451:4454   */\n          0x00\n            /* \"#utility.yul\":4472:4539   */\n          tag_178\n            /* \"#utility.yul\":4536:4538   */\n          0x28\n            /* \"#utility.yul\":4531:4534   */\n          dup4\n            /* \"#utility.yul\":4472:4539   */\n          tag_114\n          jump\t// in\n        tag_178:\n            /* \"#utility.yul\":4465:4539   */\n          swap2\n          pop\n            /* \"#utility.yul\":4548:4641   */\n          tag_179\n            /* \"#utility.yul\":4637:4640   */\n          dup3\n            /* \"#utility.yul\":4548:4641   */\n          tag_115\n          jump\t// in\n        tag_179:\n            /* \"#utility.yul\":4666:4668   */\n          0x40\n            /* \"#utility.yul\":4661:4664   */\n          dup3\n            /* \"#utility.yul\":4657:4669   */\n          add\n            /* \"#utility.yul\":4650:4669   */\n          swap1\n          pop\n            /* \"#utility.yul\":4309:4675   */\n          swap2\n          swap1\n          pop\n          jump\t// out\n            /* \"#utility.yul\":4681:5100   */\n        tag_64:\n            /* \"#utility.yul\":4847:4851   */\n          0x00\n            /* \"#utility.yul\":4885:4887   */\n          0x20\n            /* \"#utility.yul\":4874:4883   */\n          dup3\n            /* \"#utility.yul\":4870:4888   */\n          add\n            /* \"#utility.yul\":4862:4888   */\n          swap1\n          pop\n            /* \"#utility.yul\":4934:4943   */\n          dup2\n            /* \"#utility.yul\":4928:4932   */\n          dup2\n            /* \"#utility.yul\":4924:4944   */\n          sub\n            /* \"#utility.yul\":4920:4921   */\n          0x00\n            /* \"#utility.yul\":4909:4918   */\n          dup4\n            /* \"#utility.yul\":4905:4922   */\n          add\n            /* \"#utility.yul\":4898:4945   */\n          mstore\n            /* \"#utility.yul\":4962:5093   */\n          tag_181\n            /* \"#utility.yul\":5088:5092   */\n          dup2\n            /* \"#utility.yul\":4962:5093   */\n          tag_116\n          jump\t// in\n        tag_181:\n            /* \"#utility.yul\":4954:5093   */\n          swap1\n          pop\n            /* \"#utility.yul\":4681:5100   */\n          swap2\n          swap1\n          pop\n          jump\t// out\n            /* \"#utility.yul\":5106:5280   */\n        tag_117:\n            /* \"#utility.yul\":5246:5272   */\n          0x6e6f206f7264657220686173206265656e20706c616365640000000000000000\n            /* \"#utility.yul\":5242:5243   */\n          0x00\n            /* \"#utility.yul\":5234:5240   */\n          dup3\n            /* \"#utility.yul\":5230:5244   */\n          add\n            /* \"#utility.yul\":5223:5273   */\n          mstore\n            /* \"#utility.yul\":5106:5280   */\n          pop\n          jump\t// out\n            /* \"#utility.yul\":5286:5652   */\n        tag_118:\n            /* \"#utility.yul\":5428:5431   */\n          0x00\n            /* \"#utility.yul\":5449:5516   */\n          tag_184\n            /* \"#utility.yul\":5513:5515   */\n          0x18\n            /* \"#utility.yul\":5508:5511   */\n          dup4\n            /* \"#utility.yul\":5449:5516   */\n          tag_114\n          jump\t// in\n        tag_184:\n            /* \"#utility.yul\":5442:5516   */\n          swap2\n          pop\n            /* \"#utility.yul\":5525:5618   */\n          tag_185\n            /* \"#utility.yul\":5614:5617   */\n          dup3\n            /* \"#utility.yul\":5525:5618   */\n          tag_117\n          jump\t// in\n        tag_185:\n            /* \"#utility.yul\":5643:5645   */\n          0x20\n            /* \"#utility.yul\":5638:5641   */\n          dup3\n            /* \"#utility.yul\":5634:5646   */\n          add\n            /* \"#utility.yul\":5627:5646   */\n          swap1\n          pop\n            /* \"#utility.yul\":5286:5652   */\n          swap2\n          swap1\n          pop\n          jump\t// out\n            /* \"#utility.yul\":5658:6077   */\n        tag_72:\n            /* \"#utility.yul\":5824:5828   */\n          0x00\n            /* \"#utility.yul\":5862:5864   */\n          0x20\n            /* \"#utility.yul\":5851:5860   */\n          dup3\n            /* \"#utility.yul\":5847:5865   */\n          add\n            /* \"#utility.yul\":5839:5865   */\n          swap1\n          pop\n            /* \"#utility.yul\":5911:5920   */\n          dup2\n            /* \"#utility.yul\":5905:5909   */\n          dup2\n            /* \"#utility.yul\":5901:5921   */\n          sub\n            /* \"#utility.yul\":5897:5898   */\n          0x00\n            /* \"#utility.yul\":5886:5895   */\n          dup4\n            /* \"#utility.yul\":5882:5899   */\n          add\n            /* \"#utility.yul\":5875:5922   */\n          mstore\n            /* \"#utility.yul\":5939:6070   */\n          tag_187\n            /* \"#utility.yul\":6065:6069   */\n          dup2\n            /* \"#utility.yul\":5939:6070   */\n          tag_118\n          jump\t// in\n        tag_187:\n            /* \"#utility.yul\":5931:6070   */\n          swap1\n          pop\n            /* \"#utility.yul\":5658:6077   */\n          swap2\n          swap1\n          pop\n          jump\t// out\n            /* \"#utility.yul\":6083:6308   */\n        tag_119:\n            /* \"#utility.yul\":6223:6257   */\n          0x4f776e61626c653a206e6577206f776e657220697320746865207a65726f2061\n            /* \"#utility.yul\":6219:6220   */\n          0x00\n            /* \"#utility.yul\":6211:6217   */\n          dup3\n            /* \"#utility.yul\":6207:6221   */\n          add\n            /* \"#utility.yul\":6200:6258   */\n          mstore\n            /* \"#utility.yul\":6292:6300   */\n          0x6464726573730000000000000000000000000000000000000000000000000000\n            /* \"#utility.yul\":6287:6289   */\n          0x20\n            /* \"#utility.yul\":6279:6285   */\n          dup3\n            /* \"#utility.yul\":6275:6290   */\n          add\n            /* \"#utility.yul\":6268:6301   */\n          mstore\n            /* \"#utility.yul\":6083:6308   */\n          pop\n          jump\t// out\n            /* \"#utility.yul\":6314:6680   */\n        tag_120:\n            /* \"#utility.yul\":6456:6459   */\n          0x00\n            /* \"#utility.yul\":6477:6544   */\n          tag_190\n            /* \"#utility.yul\":6541:6543   */\n          0x26\n            /* \"#utility.yul\":6536:6539   */\n          dup4\n            /* \"#utility.yul\":6477:6544   */\n          tag_114\n          jump\t// in\n        tag_190:\n            /* \"#utility.yul\":6470:6544   */\n          swap2\n          pop\n            /* \"#utility.yul\":6553:6646   */\n          tag_191\n            /* \"#utility.yul\":6642:6645   */\n          dup3\n            /* \"#utility.yul\":6553:6646   */\n          tag_119\n          jump\t// in\n        tag_191:\n            /* \"#utility.yul\":6671:6673   */\n          0x40\n            /* \"#utility.yul\":6666:6669   */\n          dup3\n            /* \"#utility.yul\":6662:6674   */\n          add\n            /* \"#utility.yul\":6655:6674   */\n          swap1\n          pop\n            /* \"#utility.yul\":6314:6680   */\n          swap2\n          swap1\n          pop\n          jump\t// out\n            /* \"#utility.yul\":6686:7105   */\n        tag_78:\n            /* \"#utility.yul\":6852:6856   */\n          0x00\n            /* \"#utility.yul\":6890:6892   */\n          0x20\n            /* \"#utility.yul\":6879:6888   */\n          dup3\n            /* \"#utility.yul\":6875:6893   */\n          add\n            /* \"#utility.yul\":6867:6893   */\n          swap1\n          pop\n            /* \"#utility.yul\":6939:6948   */\n          dup2\n            /* \"#utility.yul\":6933:6937   */\n          dup2\n            /* \"#utility.yul\":6929:6949   */\n          sub\n            /* \"#utility.yul\":6925:6926   */\n          0x00\n            /* \"#utility.yul\":6914:6923   */\n          dup4\n            /* \"#utility.yul\":6910:6927   */\n          add\n            /* \"#utility.yul\":6903:6950   */\n          mstore\n            /* \"#utility.yul\":6967:7098   */\n          tag_193\n            /* \"#utility.yul\":7093:7097   */\n          dup2\n            /* \"#utility.yul\":6967:7098   */\n          tag_120\n          jump\t// in\n        tag_193:\n            /* \"#utility.yul\":6959:7098   */\n          swap1\n          pop\n            /* \"#utility.yul\":6686:7105   */\n          swap2\n          swap1\n          pop\n          jump\t// out\n            /* \"#utility.yul\":7111:7345   */\n        tag_121:\n            /* \"#utility.yul\":7251:7285   */\n          0x6661726d65722063616e6e6f7420706c616365206f7264657220666f72207468\n            /* \"#utility.yul\":7247:7248   */\n          0x00\n            /* \"#utility.yul\":7239:7245   */\n          dup3\n            /* \"#utility.yul\":7235:7249   */\n          add\n            /* \"#utility.yul\":7228:7286   */\n          mstore\n            /* \"#utility.yul\":7320:7337   */\n          0x656972206f776e2070726f647563650000000000000000000000000000000000\n            /* \"#utility.yul\":7315:7317   */\n          0x20\n            /* \"#utility.yul\":7307:7313   */\n          dup3\n            /* \"#utility.yul\":7303:7318   */\n          add\n            /* \"#utility.yul\":7296:7338   */\n          mstore\n            /* \"#utility.yul\":7111:7345   */\n          pop\n          jump\t// out\n            /* \"#utility.yul\":7351:7717   */\n        tag_122:\n            /* \"#utility.yul\":7493:7496   */\n          0x00\n            /* \"#utility.yul\":7514:7581   */\n          tag_196\n            /* \"#utility.yul\":7578:7580   */\n          0x2f\n            /* \"#utility.yul\":7573:7576   */\n          dup4\n            /* \"#utility.yul\":7514:7581   */\n          tag_114\n          jump\t// in\n        tag_196:\n            /* \"#utility.yul\":7507:7581   */\n          swap2\n          pop\n            /* \"#utility.yul\":7590:7683   */\n          tag_197\n            /* \"#utility.yul\":7679:7682   */\n          dup3\n            /* \"#utility.yul\":7590:7683   */\n          tag_121\n          jump\t// in\n        tag_197:\n            /* \"#utility.yul\":7708:7710   */\n          0x40\n            /* \"#utility.yul\":7703:7706   */\n          dup3\n            /* \"#utility.yul\":7699:7711   */\n          add\n            /* \"#utility.yul\":7692:7711   */\n          swap1\n          pop\n            /* \"#utility.yul\":7351:7717   */\n          swap2\n          swap1\n          pop\n          jump\t// out\n            /* \"#utility.yul\":7723:8142   */\n        tag_84:\n            /* \"#utility.yul\":7889:7893   */\n          0x00\n            /* \"#utility.yul\":7927:7929   */\n          0x20\n            /* \"#utility.yul\":7916:7925   */\n          dup3\n            /* \"#utility.yul\":7912:7930   */\n          add\n            /* \"#utility.yul\":7904:7930   */\n          swap1\n          pop\n            /* \"#utility.yul\":7976:7985   */\n          dup2\n            /* \"#utility.yul\":7970:7974   */\n          dup2\n            /* \"#utility.yul\":7966:7986   */\n          sub\n            /* \"#utility.yul\":7962:7963   */\n          0x00\n            /* \"#utility.yul\":7951:7960   */\n          dup4\n            /* \"#utility.yul\":7947:7964   */\n          add\n            /* \"#utility.yul\":7940:7987   */\n          mstore\n            /* \"#utility.yul\":8004:8135   */\n          tag_199\n            /* \"#utility.yul\":8130:8134   */\n          dup2\n            /* \"#utility.yul\":8004:8135   */\n          tag_122\n          jump\t// in\n        tag_199:\n            /* \"#utility.yul\":7996:8135   */\n          swap1\n          pop\n            /* \"#utility.yul\":7723:8142   */\n          swap2\n          swap1\n          pop\n          jump\t// out\n            /* \"#utility.yul\":8148:8327   */\n        tag_123:\n            /* \"#utility.yul\":8288:8319   */\n          0x6f726465722068617320616c7265616479206265656e20706c61636564000000\n            /* \"#utility.yul\":8284:8285   */\n          0x00\n            /* \"#utility.yul\":8276:8282   */\n          dup3\n            /* \"#utility.yul\":8272:8286   */\n          add\n            /* \"#utility.yul\":8265:8320   */\n          mstore\n            /* \"#utility.yul\":8148:8327   */\n          pop\n          jump\t// out\n            /* \"#utility.yul\":8333:8699   */\n        tag_124:\n            /* \"#utility.yul\":8475:8478   */\n          0x00\n            /* \"#utility.yul\":8496:8563   */\n          tag_202\n            /* \"#utility.yul\":8560:8562   */\n          0x1d\n            /* \"#utility.yul\":8555:8558   */\n          dup4\n            /* \"#utility.yul\":8496:8563   */\n          tag_114\n          jump\t// in\n        tag_202:\n            /* \"#utility.yul\":8489:8563   */\n          swap2\n          pop\n            /* \"#utility.yul\":8572:8665   */\n          tag_203\n            /* \"#utility.yul\":8661:8664   */\n          dup3\n            /* \"#utility.yul\":8572:8665   */\n          tag_123\n          jump\t// in\n        tag_203:\n            /* \"#utility.yul\":8690:8692   */\n          0x20\n            /* \"#utility.yul\":8685:8688   */\n          dup3\n            /* \"#utility.yul\":8681:8693   */\n          add\n            /* \"#utility.yul\":8674:8693   */\n          swap1\n          pop\n            /* \"#utility.yul\":8333:8699   */\n          swap2\n          swap1\n          pop\n          jump\t// out\n            /* \"#utility.yul\":8705:9124   */\n        tag_87:\n            /* \"#utility.yul\":8871:8875   */\n          0x00\n            /* \"#utility.yul\":8909:8911   */\n          0x20\n            /* \"#utility.yul\":8898:8907   */\n          dup3\n            /* \"#utility.yul\":8894:8912   */\n          add\n            /* \"#utility.yul\":8886:8912   */\n          swap1\n          pop\n            /* \"#utility.yul\":8958:8967   */\n          dup2\n            /* \"#utility.yul\":8952:8956   */\n          dup2\n            /* \"#utility.yul\":8948:8968   */\n          sub\n            /* \"#utility.yul\":8944:8945   */\n          0x00\n            /* \"#utility.yul\":8933:8942   */\n          dup4\n            /* \"#utility.yul\":8929:8946   */\n          add\n            /* \"#utility.yul\":8922:8969   */\n          mstore\n            /* \"#utility.yul\":8986:9117   */\n          tag_205\n            /* \"#utility.yul\":9112:9116   */\n          dup2\n            /* \"#utility.yul\":8986:9117   */\n          tag_124\n          jump\t// in\n        tag_205:\n            /* \"#utility.yul\":8978:9117   */\n          swap1\n          pop\n            /* \"#utility.yul\":8705:9124   */\n          swap2\n          swap1\n          pop\n          jump\t// out\n            /* \"#utility.yul\":9130:9312   */\n        tag_125:\n            /* \"#utility.yul\":9270:9304   */\n          0x4f776e61626c653a2063616c6c6572206973206e6f7420746865206f776e6572\n            /* \"#utility.yul\":9266:9267   */\n          0x00\n            /* \"#utility.yul\":9258:9264   */\n          dup3\n            /* \"#utility.yul\":9254:9268   */\n          add\n            /* \"#utility.yul\":9247:9305   */\n          mstore\n            /* \"#utility.yul\":9130:9312   */\n          pop\n          jump\t// out\n            /* \"#utility.yul\":9318:9684   */\n        tag_126:\n            /* \"#utility.yul\":9460:9463   */\n          0x00\n            /* \"#utility.yul\":9481:9548   */\n          tag_208\n            /* \"#utility.yul\":9545:9547   */\n          0x20\n            /* \"#utility.yul\":9540:9543   */\n          dup4\n            /* \"#utility.yul\":9481:9548   */\n          tag_114\n          jump\t// in\n        tag_208:\n            /* \"#utility.yul\":9474:9548   */\n          swap2\n          pop\n            /* \"#utility.yul\":9557:9650   */\n          tag_209\n            /* \"#utility.yul\":9646:9649   */\n          dup3\n            /* \"#utility.yul\":9557:9650   */\n          tag_125\n          jump\t// in\n        tag_209:\n            /* \"#utility.yul\":9675:9677   */\n          0x20\n            /* \"#utility.yul\":9670:9673   */\n          dup3\n            /* \"#utility.yul\":9666:9678   */\n          add\n            /* \"#utility.yul\":9659:9678   */\n          swap1\n          pop\n            /* \"#utility.yul\":9318:9684   */\n          swap2\n          swap1\n          pop\n          jump\t// out\n            /* \"#utility.yul\":9690:10109   */\n        tag_95:\n            /* \"#utility.yul\":9856:9860   */\n          0x00\n            /* \"#utility.yul\":9894:9896   */\n          0x20\n            /* \"#utility.yul\":9883:9892   */\n          dup3\n            /* \"#utility.yul\":9879:9897   */\n          add\n            /* \"#utility.yul\":9871:9897   */\n          swap1\n          pop\n            /* \"#utility.yul\":9943:9952   */\n          dup2\n            /* \"#utility.yul\":9937:9941   */\n          dup2\n            /* \"#utility.yul\":9933:9953   */\n          sub\n            /* \"#utility.yul\":9929:9930   */\n          0x00\n            /* \"#utility.yul\":9918:9927   */\n          dup4\n            /* \"#utility.yul\":9914:9931   */\n          add\n            /* \"#utility.yul\":9907:9954   */\n          mstore\n            /* \"#utility.yul\":9971:10102   */\n          tag_211\n            /* \"#utility.yul\":10097:10101   */\n          dup2\n            /* \"#utility.yul\":9971:10102   */\n          tag_126\n          jump\t// in\n        tag_211:\n            /* \"#utility.yul\":9963:10102   */\n          swap1\n          pop\n            /* \"#utility.yul\":9690:10109   */\n          swap2\n          swap1\n          pop\n          jump\t// out\n\n        auxdata: 0xa264697066735822122030912b51a14a56d310157725919a2a9208cdb3956c8c59acfaa7c4df0b332b7664736f6c63430008120033\n    }\n}\n",
				"bytecode": {
					"linkReferences": {},
					"object": "60a060405234801561001057600080fd5b5060405161001d90610072565b604051809103906000f080158015610039573d6000803e3d6000fd5b5073ffffffffffffffffffffffffffffffffffffffff1660808173ffffffffffffffffffffffffffffffffffffffff168152505061007f565b610e57806109f883390190565b60805161095f610099600039600060b5015261095f6000f3fe608060405234801561001057600080fd5b50600436106100415760003560e01c8063445cc412146100465780637b6833c314610062578063a1d861a91461007e575b600080fd5b610060600480360381019061005b919061057c565b6100ae565b005b61007c6004803603810190610077919061062d565b610239565b005b6100986004803603810190610093919061062d565b610431565b6040516100a59190610675565b60405180910390f35b60006100d97f0000000000000000000000000000000000000000000000000000000000000000610451565b90508073ffffffffffffffffffffffffffffffffffffffff166376c820f6338686866040518563ffffffff1660e01b815260040161011a94939291906106bd565b600060405180830381600087803b15801561013457600080fd5b505af1158015610148573d6000803e3d6000fd5b5050505060016000808373ffffffffffffffffffffffffffffffffffffffff1673ffffffffffffffffffffffffffffffffffffffff16815260200190815260200160002060006101000a81548160ff02191690831515021790555060018060003373ffffffffffffffffffffffffffffffffffffffff1673ffffffffffffffffffffffffffffffffffffffff16815260200190815260200160002060006101000a81548160ff0219169083151502179055507fb684fa9d171811ea44de622bf7206329d0d78c3c4516f49225d183e2b2380a4f813360405161022b929190610702565b60405180910390a150505050565b6000808273ffffffffffffffffffffffffffffffffffffffff1673ffffffffffffffffffffffffffffffffffffffff16815260200190815260200160002060009054906101000a900460ff166102c4576040517f08c379a00000000000000000000000000000000000000000000000000000000081526004016102bb906107ae565b60405180910390fd5b3373ffffffffffffffffffffffffffffffffffffffff168173ffffffffffffffffffffffffffffffffffffffff16638da5cb5b6040518163ffffffff1660e01b8152600401602060405180830381865afa158015610326573d6000803e3d6000fd5b505050506040513d601f19601f8201168201806040525081019061034a91906107e3565b73ffffffffffffffffffffffffffffffffffffffff16146103a0576040517f08c379a000000000000000000000000000000000000000000000000000000000815260040161039790610882565b60405180910390fd5b60008060008373ffffffffffffffffffffffffffffffffffffffff1673ffffffffffffffffffffffffffffffffffffffff16815260200190815260200160002060006101000a81548160ff0219169083151502179055507ffe9cc347cf9f23be7601aec4449a0fdb16aa073766a538536e42a92027f657e88160405161042691906108a2565b60405180910390a150565b60016020528060005260406000206000915054906101000a900460ff1681565b6000763d602d80600a3d3981f3363d3d373d3d3d363d730000008260601b60e81c176000526e5af43d82803e903d91602b57fd5bf38260781b17602052603760096000f09050600073ffffffffffffffffffffffffffffffffffffffff168173ffffffffffffffffffffffffffffffffffffffff1603610506576040517f08c379a00000000000000000000000000000000000000000000000000000000081526004016104fd90610909565b60405180910390fd5b919050565b600080fd5b6000819050919050565b61052381610510565b811461052e57600080fd5b50565b6000813590506105408161051a565b92915050565b6000819050919050565b61055981610546565b811461056457600080fd5b50565b60008135905061057681610550565b92915050565b6000806000606084860312156105955761059461050b565b5b60006105a386828701610531565b93505060206105b486828701610567565b92505060406105c586828701610567565b9150509250925092565b600073ffffffffffffffffffffffffffffffffffffffff82169050919050565b60006105fa826105cf565b9050919050565b61060a816105ef565b811461061557600080fd5b50565b60008135905061062781610601565b92915050565b6000602082840312156106435761064261050b565b5b600061065184828501610618565b91505092915050565b60008115159050919050565b61066f8161065a565b82525050565b600060208201905061068a6000830184610666565b92915050565b610699816105ef565b82525050565b6106a881610510565b82525050565b6106b781610546565b82525050565b60006080820190506106d26000830187610690565b6106df602083018661069f565b6106ec60408301856106ae565b6106f960608301846106ae565b95945050505050565b60006040820190506107176000830185610690565b6107246020830184610690565b9392505050565b600082825260208201905092915050565b7f546869732070726f64756365206973206e6f74206c6973746564206f6e20746860008201527f65204d61726b6574000000000000000000000000000000000000000000000000602082015250565b600061079860288361072b565b91506107a38261073c565b604082019050919050565b600060208201905081810360008301526107c78161078b565b9050919050565b6000815190506107dd81610601565b92915050565b6000602082840312156107f9576107f861050b565b5b6000610807848285016107ce565b91505092915050565b7f4f6e6c792070726f64756365206f776e65722063616e2072656d6f766520707260008201527f6f647563652066726f6d204d61726b6574000000000000000000000000000000602082015250565b600061086c60318361072b565b915061087782610810565b604082019050919050565b6000602082019050818103600083015261089b8161085f565b9050919050565b60006020820190506108b76000830184610690565b92915050565b7f455243313136373a20637265617465206661696c656400000000000000000000600082015250565b60006108f360168361072b565b91506108fe826108bd565b602082019050919050565b60006020820190508181036000830152610922816108e6565b905091905056fea264697066735822122055f9533cb5a535683c98621b75c1804d96675430dca884ea52e790f71884b8f264736f6c63430008120033608060405234801561001057600080fd5b5061002d61002261005d60201b60201c565b61006560201b60201c565b6000600760006101000a81548160ff0219169083600281111561005357610052610129565b5b0217905550610158565b600033905090565b60008060009054906101000a900473ffffffffffffffffffffffffffffffffffffffff169050816000806101000a81548173ffffffffffffffffffffffffffffffffffffffff021916908373ffffffffffffffffffffffffffffffffffffffff1602179055508173ffffffffffffffffffffffffffffffffffffffff168173ffffffffffffffffffffffffffffffffffffffff167f8be0079c531659141344cd1fd0a4f28419497f9722a3daafe3b4186f6b6457e060405160405180910390a35050565b7f4e487b7100000000000000000000000000000000000000000000000000000000600052602160045260246000fd5b610cf0806101676000396000f3fe608060405234801561001057600080fd5b50600436106100a95760003560e01c8063a035b1fe11610071578063a035b1fe1461012e578063d811fcf01461014c578063eaa61dea1461016a578063f2fde38b14610174578063f5c609e014610190578063fa34f63a1461019a576100a9565b80636d86b8a5146100ae578063715018a6146100cc57806376c820f6146100d657806380f55605146100f25780638da5cb5b14610110575b600080fd5b6100b66101b8565b6040516100c391906107b8565b60405180910390f35b6100d46101be565b005b6100f060048036038101906100eb9190610898565b6101d2565b005b6100fa6102d8565b604051610107919061090e565b60405180910390f35b6101186102fe565b604051610125919061090e565b60405180910390f35b610136610327565b60405161014391906107b8565b60405180910390f35b61015461032d565b604051610161919061090e565b60405180910390f35b610172610353565b005b61018e60048036038101906101899190610929565b610439565b005b6101986104bc565b005b6101a261064f565b6040516101af9190610965565b60405180910390f35b60055481565b6101c6610655565b6101d060006106d3565b565b600060028111156101e6576101e5610980565b5b600760009054906101000a900460ff16600281111561020857610207610980565b5b14610248576040517f08c379a000000000000000000000000000000000000000000000000000000000815260040161023f90610a32565b60405180910390fd5b610251846106d3565b33600260006101000a81548173ffffffffffffffffffffffffffffffffffffffff021916908373ffffffffffffffffffffffffffffffffffffffff1602179055508260038190555081600481905550806005819055506001600760006101000a81548160ff021916908360028111156102cd576102cc610980565b5b021790555050505050565b600260009054906101000a900473ffffffffffffffffffffffffffffffffffffffff1681565b60008060009054906101000a900473ffffffffffffffffffffffffffffffffffffffff16905090565b60045481565b600160009054906101000a900473ffffffffffffffffffffffffffffffffffffffff1681565b600660003373ffffffffffffffffffffffffffffffffffffffff1673ffffffffffffffffffffffffffffffffffffffff16815260200190815260200160002060009054906101000a900460ff166103df576040517f08c379a00000000000000000000000000000000000000000000000000000000081526004016103d690610a9e565b60405180910390fd5b6000600660003373ffffffffffffffffffffffffffffffffffffffff1673ffffffffffffffffffffffffffffffffffffffff16815260200190815260200160002060006101000a81548160ff021916908315150217905550565b610441610655565b600073ffffffffffffffffffffffffffffffffffffffff168173ffffffffffffffffffffffffffffffffffffffff16036104b0576040517f08c379a00000000000000000000000000000000000000000000000000000000081526004016104a790610b30565b60405180910390fd5b6104b9816106d3565b50565b6104c46102fe565b73ffffffffffffffffffffffffffffffffffffffff163373ffffffffffffffffffffffffffffffffffffffff1603610531576040517f08c379a000000000000000000000000000000000000000000000000000000000815260040161052890610bc2565b60405180910390fd5b600660003373ffffffffffffffffffffffffffffffffffffffff1673ffffffffffffffffffffffffffffffffffffffff16815260200190815260200160002060009054906101000a900460ff16156105be576040517f08c379a00000000000000000000000000000000000000000000000000000000081526004016105b590610c2e565b60405180910390fd5b6001600660003373ffffffffffffffffffffffffffffffffffffffff1673ffffffffffffffffffffffffffffffffffffffff16815260200190815260200160002060006101000a81548160ff0219169083151502179055507fe7183a38a6aa8fb99c4071a88f3acd0b3c30fd4b05330c2f0a0724bb0254f80433604051610645919061090e565b60405180910390a1565b60035481565b61065d610797565b73ffffffffffffffffffffffffffffffffffffffff1661067b6102fe565b73ffffffffffffffffffffffffffffffffffffffff16146106d1576040517f08c379a00000000000000000000000000000000000000000000000000000000081526004016106c890610c9a565b60405180910390fd5b565b60008060009054906101000a900473ffffffffffffffffffffffffffffffffffffffff169050816000806101000a81548173ffffffffffffffffffffffffffffffffffffffff021916908373ffffffffffffffffffffffffffffffffffffffff1602179055508173ffffffffffffffffffffffffffffffffffffffff168173ffffffffffffffffffffffffffffffffffffffff167f8be0079c531659141344cd1fd0a4f28419497f9722a3daafe3b4186f6b6457e060405160405180910390a35050565b600033905090565b6000819050919050565b6107b28161079f565b82525050565b60006020820190506107cd60008301846107a9565b92915050565b600080fd5b600073ffffffffffffffffffffffffffffffffffffffff82169050919050565b6000610803826107d8565b9050919050565b610813816107f8565b811461081e57600080fd5b50565b6000813590506108308161080a565b92915050565b6000819050919050565b61084981610836565b811461085457600080fd5b50565b60008135905061086681610840565b92915050565b6108758161079f565b811461088057600080fd5b50565b6000813590506108928161086c565b92915050565b600080600080608085870312156108b2576108b16107d3565b5b60006108c087828801610821565b94505060206108d187828801610857565b93505060406108e287828801610883565b92505060606108f387828801610883565b91505092959194509250565b610908816107f8565b82525050565b600060208201905061092360008301846108ff565b92915050565b60006020828403121561093f5761093e6107d3565b5b600061094d84828501610821565b91505092915050565b61095f81610836565b82525050565b600060208201905061097a6000830184610956565b92915050565b7f4e487b7100000000000000000000000000000000000000000000000000000000600052602160045260246000fd5b600082825260208201905092915050565b7f546869732070726f647563652068617320616c7265616479206265656e20696e60008201527f6974696c697a6564000000000000000000000000000000000000000000000000602082015250565b6000610a1c6028836109af565b9150610a27826109c0565b604082019050919050565b60006020820190508181036000830152610a4b81610a0f565b9050919050565b7f6e6f206f7264657220686173206265656e20706c616365640000000000000000600082015250565b6000610a886018836109af565b9150610a9382610a52565b602082019050919050565b60006020820190508181036000830152610ab781610a7b565b9050919050565b7f4f776e61626c653a206e6577206f776e657220697320746865207a65726f206160008201527f6464726573730000000000000000000000000000000000000000000000000000602082015250565b6000610b1a6026836109af565b9150610b2582610abe565b604082019050919050565b60006020820190508181036000830152610b4981610b0d565b9050919050565b7f6661726d65722063616e6e6f7420706c616365206f7264657220666f7220746860008201527f656972206f776e2070726f647563650000000000000000000000000000000000602082015250565b6000610bac602f836109af565b9150610bb782610b50565b604082019050919050565b60006020820190508181036000830152610bdb81610b9f565b9050919050565b7f6f726465722068617320616c7265616479206265656e20706c61636564000000600082015250565b6000610c18601d836109af565b9150610c2382610be2565b602082019050919050565b60006020820190508181036000830152610c4781610c0b565b9050919050565b7f4f776e61626c653a2063616c6c6572206973206e6f7420746865206f776e6572600082015250565b6000610c846020836109af565b9150610c8f82610c4e565b602082019050919050565b60006020820190508181036000830152610cb381610c77565b905091905056fea264697066735822122030912b51a14a56d310157725919a2a9208cdb3956c8c59acfaa7c4df0b332b7664736f6c63430008120033",
					"opcodes": "PUSH1 0xA0 PUSH1 0x40 MSTORE CALLVALUE DUP1 ISZERO PUSH2 0x10 JUMPI PUSH1 0x0 DUP1 REVERT JUMPDEST POP PUSH1 0x40 MLOAD PUSH2 0x1D SWAP1 PUSH2 0x72 JUMP JUMPDEST PUSH1 0x40 MLOAD DUP1 SWAP2 SUB SWAP1 PUSH1 0x0 CREATE DUP1 ISZERO DUP1 ISZERO PUSH2 0x39 JUMPI RETURNDATASIZE PUSH1 0x0 DUP1 RETURNDATACOPY RETURNDATASIZE PUSH1 0x0 REVERT JUMPDEST POP PUSH20 0xFFFFFFFFFFFFFFFFFFFFFFFFFFFFFFFFFFFFFFFF AND PUSH1 0x80 DUP2 PUSH20 0xFFFFFFFFFFFFFFFFFFFFFFFFFFFFFFFFFFFFFFFF AND DUP2 MSTORE POP POP PUSH2 0x7F JUMP JUMPDEST PUSH2 0xE57 DUP1 PUSH2 0x9F8 DUP4 CODECOPY ADD SWAP1 JUMP JUMPDEST PUSH1 0x80 MLOAD PUSH2 0x95F PUSH2 0x99 PUSH1 0x0 CODECOPY PUSH1 0x0 PUSH1 0xB5 ADD MSTORE PUSH2 0x95F PUSH1 0x0 RETURN INVALID PUSH1 0x80 PUSH1 0x40 MSTORE CALLVALUE DUP1 ISZERO PUSH2 0x10 JUMPI PUSH1 0x0 DUP1 REVERT JUMPDEST POP PUSH1 0x4 CALLDATASIZE LT PUSH2 0x41 JUMPI PUSH1 0x0 CALLDATALOAD PUSH1 0xE0 SHR DUP1 PUSH4 0x445CC412 EQ PUSH2 0x46 JUMPI DUP1 PUSH4 0x7B6833C3 EQ PUSH2 0x62 JUMPI DUP1 PUSH4 0xA1D861A9 EQ PUSH2 0x7E JUMPI JUMPDEST PUSH1 0x0 DUP1 REVERT JUMPDEST PUSH2 0x60 PUSH1 0x4 DUP1 CALLDATASIZE SUB DUP2 ADD SWAP1 PUSH2 0x5B SWAP2 SWAP1 PUSH2 0x57C JUMP JUMPDEST PUSH2 0xAE JUMP JUMPDEST STOP JUMPDEST PUSH2 0x7C PUSH1 0x4 DUP1 CALLDATASIZE SUB DUP2 ADD SWAP1 PUSH2 0x77 SWAP2 SWAP1 PUSH2 0x62D JUMP JUMPDEST PUSH2 0x239 JUMP JUMPDEST STOP JUMPDEST PUSH2 0x98 PUSH1 0x4 DUP1 CALLDATASIZE SUB DUP2 ADD SWAP1 PUSH2 0x93 SWAP2 SWAP1 PUSH2 0x62D JUMP JUMPDEST PUSH2 0x431 JUMP JUMPDEST PUSH1 0x40 MLOAD PUSH2 0xA5 SWAP2 SWAP1 PUSH2 0x675 JUMP JUMPDEST PUSH1 0x40 MLOAD DUP1 SWAP2 SUB SWAP1 RETURN JUMPDEST PUSH1 0x0 PUSH2 0xD9 PUSH32 0x0 PUSH2 0x451 JUMP JUMPDEST SWAP1 POP DUP1 PUSH20 0xFFFFFFFFFFFFFFFFFFFFFFFFFFFFFFFFFFFFFFFF AND PUSH4 0x76C820F6 CALLER DUP7 DUP7 DUP7 PUSH1 0x40 MLOAD DUP6 PUSH4 0xFFFFFFFF AND PUSH1 0xE0 SHL DUP2 MSTORE PUSH1 0x4 ADD PUSH2 0x11A SWAP5 SWAP4 SWAP3 SWAP2 SWAP1 PUSH2 0x6BD JUMP JUMPDEST PUSH1 0x0 PUSH1 0x40 MLOAD DUP1 DUP4 SUB DUP2 PUSH1 0x0 DUP8 DUP1 EXTCODESIZE ISZERO DUP1 ISZERO PUSH2 0x134 JUMPI PUSH1 0x0 DUP1 REVERT JUMPDEST POP GAS CALL ISZERO DUP1 ISZERO PUSH2 0x148 JUMPI RETURNDATASIZE PUSH1 0x0 DUP1 RETURNDATACOPY RETURNDATASIZE PUSH1 0x0 REVERT JUMPDEST POP POP POP POP PUSH1 0x1 PUSH1 0x0 DUP1 DUP4 PUSH20 0xFFFFFFFFFFFFFFFFFFFFFFFFFFFFFFFFFFFFFFFF AND PUSH20 0xFFFFFFFFFFFFFFFFFFFFFFFFFFFFFFFFFFFFFFFF AND DUP2 MSTORE PUSH1 0x20 ADD SWAP1 DUP2 MSTORE PUSH1 0x20 ADD PUSH1 0x0 KECCAK256 PUSH1 0x0 PUSH2 0x100 EXP DUP2 SLOAD DUP2 PUSH1 0xFF MUL NOT AND SWAP1 DUP4 ISZERO ISZERO MUL OR SWAP1 SSTORE POP PUSH1 0x1 DUP1 PUSH1 0x0 CALLER PUSH20 0xFFFFFFFFFFFFFFFFFFFFFFFFFFFFFFFFFFFFFFFF AND PUSH20 0xFFFFFFFFFFFFFFFFFFFFFFFFFFFFFFFFFFFFFFFF AND DUP2 MSTORE PUSH1 0x20 ADD SWAP1 DUP2 MSTORE PUSH1 0x20 ADD PUSH1 0x0 KECCAK256 PUSH1 0x0 PUSH2 0x100 EXP DUP2 SLOAD DUP2 PUSH1 0xFF MUL NOT AND SWAP1 DUP4 ISZERO ISZERO MUL OR SWAP1 SSTORE POP PUSH32 0xB684FA9D171811EA44DE622BF7206329D0D78C3C4516F49225D183E2B2380A4F DUP2 CALLER PUSH1 0x40 MLOAD PUSH2 0x22B SWAP3 SWAP2 SWAP1 PUSH2 0x702 JUMP JUMPDEST PUSH1 0x40 MLOAD DUP1 SWAP2 SUB SWAP1 LOG1 POP POP POP POP JUMP JUMPDEST PUSH1 0x0 DUP1 DUP3 PUSH20 0xFFFFFFFFFFFFFFFFFFFFFFFFFFFFFFFFFFFFFFFF AND PUSH20 0xFFFFFFFFFFFFFFFFFFFFFFFFFFFFFFFFFFFFFFFF AND DUP2 MSTORE PUSH1 0x20 ADD SWAP1 DUP2 MSTORE PUSH1 0x20 ADD PUSH1 0x0 KECCAK256 PUSH1 0x0 SWAP1 SLOAD SWAP1 PUSH2 0x100 EXP SWAP1 DIV PUSH1 0xFF AND PUSH2 0x2C4 JUMPI PUSH1 0x40 MLOAD PUSH32 0x8C379A000000000000000000000000000000000000000000000000000000000 DUP2 MSTORE PUSH1 0x4 ADD PUSH2 0x2BB SWAP1 PUSH2 0x7AE JUMP JUMPDEST PUSH1 0x40 MLOAD DUP1 SWAP2 SUB SWAP1 REVERT JUMPDEST CALLER PUSH20 0xFFFFFFFFFFFFFFFFFFFFFFFFFFFFFFFFFFFFFFFF AND DUP2 PUSH20 0xFFFFFFFFFFFFFFFFFFFFFFFFFFFFFFFFFFFFFFFF AND PUSH4 0x8DA5CB5B PUSH1 0x40 MLOAD DUP2 PUSH4 0xFFFFFFFF AND PUSH1 0xE0 SHL DUP2 MSTORE PUSH1 0x4 ADD PUSH1 0x20 PUSH1 0x40 MLOAD DUP1 DUP4 SUB DUP2 DUP7 GAS STATICCALL ISZERO DUP1 ISZERO PUSH2 0x326 JUMPI RETURNDATASIZE PUSH1 0x0 DUP1 RETURNDATACOPY RETURNDATASIZE PUSH1 0x0 REVERT JUMPDEST POP POP POP POP PUSH1 0x40 MLOAD RETURNDATASIZE PUSH1 0x1F NOT PUSH1 0x1F DUP3 ADD AND DUP3 ADD DUP1 PUSH1 0x40 MSTORE POP DUP2 ADD SWAP1 PUSH2 0x34A SWAP2 SWAP1 PUSH2 0x7E3 JUMP JUMPDEST PUSH20 0xFFFFFFFFFFFFFFFFFFFFFFFFFFFFFFFFFFFFFFFF AND EQ PUSH2 0x3A0 JUMPI PUSH1 0x40 MLOAD PUSH32 0x8C379A000000000000000000000000000000000000000000000000000000000 DUP2 MSTORE PUSH1 0x4 ADD PUSH2 0x397 SWAP1 PUSH2 0x882 JUMP JUMPDEST PUSH1 0x40 MLOAD DUP1 SWAP2 SUB SWAP1 REVERT JUMPDEST PUSH1 0x0 DUP1 PUSH1 0x0 DUP4 PUSH20 0xFFFFFFFFFFFFFFFFFFFFFFFFFFFFFFFFFFFFFFFF AND PUSH20 0xFFFFFFFFFFFFFFFFFFFFFFFFFFFFFFFFFFFFFFFF AND DUP2 MSTORE PUSH1 0x20 ADD SWAP1 DUP2 MSTORE PUSH1 0x20 ADD PUSH1 0x0 KECCAK256 PUSH1 0x0 PUSH2 0x100 EXP DUP2 SLOAD DUP2 PUSH1 0xFF MUL NOT AND SWAP1 DUP4 ISZERO ISZERO MUL OR SWAP1 SSTORE POP PUSH32 0xFE9CC347CF9F23BE7601AEC4449A0FDB16AA073766A538536E42A92027F657E8 DUP2 PUSH1 0x40 MLOAD PUSH2 0x426 SWAP2 SWAP1 PUSH2 0x8A2 JUMP JUMPDEST PUSH1 0x40 MLOAD DUP1 SWAP2 SUB SWAP1 LOG1 POP JUMP JUMPDEST PUSH1 0x1 PUSH1 0x20 MSTORE DUP1 PUSH1 0x0 MSTORE PUSH1 0x40 PUSH1 0x0 KECCAK256 PUSH1 0x0 SWAP2 POP SLOAD SWAP1 PUSH2 0x100 EXP SWAP1 DIV PUSH1 0xFF AND DUP2 JUMP JUMPDEST PUSH1 0x0 PUSH23 0x3D602D80600A3D3981F3363D3D373D3D3D363D73000000 DUP3 PUSH1 0x60 SHL PUSH1 0xE8 SHR OR PUSH1 0x0 MSTORE PUSH15 0x5AF43D82803E903D91602B57FD5BF3 DUP3 PUSH1 0x78 SHL OR PUSH1 0x20 MSTORE PUSH1 0x37 PUSH1 0x9 PUSH1 0x0 CREATE SWAP1 POP PUSH1 0x0 PUSH20 0xFFFFFFFFFFFFFFFFFFFFFFFFFFFFFFFFFFFFFFFF AND DUP2 PUSH20 0xFFFFFFFFFFFFFFFFFFFFFFFFFFFFFFFFFFFFFFFF AND SUB PUSH2 0x506 JUMPI PUSH1 0x40 MLOAD PUSH32 0x8C379A000000000000000000000000000000000000000000000000000000000 DUP2 MSTORE PUSH1 0x4 ADD PUSH2 0x4FD SWAP1 PUSH2 0x909 JUMP JUMPDEST PUSH1 0x40 MLOAD DUP1 SWAP2 SUB SWAP1 REVERT JUMPDEST SWAP2 SWAP1 POP JUMP JUMPDEST PUSH1 0x0 DUP1 REVERT JUMPDEST PUSH1 0x0 DUP2 SWAP1 POP SWAP2 SWAP1 POP JUMP JUMPDEST PUSH2 0x523 DUP2 PUSH2 0x510 JUMP JUMPDEST DUP2 EQ PUSH2 0x52E JUMPI PUSH1 0x0 DUP1 REVERT JUMPDEST POP JUMP JUMPDEST PUSH1 0x0 DUP2 CALLDATALOAD SWAP1 POP PUSH2 0x540 DUP2 PUSH2 0x51A JUMP JUMPDEST SWAP3 SWAP2 POP POP JUMP JUMPDEST PUSH1 0x0 DUP2 SWAP1 POP SWAP2 SWAP1 POP JUMP JUMPDEST PUSH2 0x559 DUP2 PUSH2 0x546 JUMP JUMPDEST DUP2 EQ PUSH2 0x564 JUMPI PUSH1 0x0 DUP1 REVERT JUMPDEST POP JUMP JUMPDEST PUSH1 0x0 DUP2 CALLDATALOAD SWAP1 POP PUSH2 0x576 DUP2 PUSH2 0x550 JUMP JUMPDEST SWAP3 SWAP2 POP POP JUMP JUMPDEST PUSH1 0x0 DUP1 PUSH1 0x0 PUSH1 0x60 DUP5 DUP7 SUB SLT ISZERO PUSH2 0x595 JUMPI PUSH2 0x594 PUSH2 0x50B JUMP JUMPDEST JUMPDEST PUSH1 0x0 PUSH2 0x5A3 DUP7 DUP3 DUP8 ADD PUSH2 0x531 JUMP JUMPDEST SWAP4 POP POP PUSH1 0x20 PUSH2 0x5B4 DUP7 DUP3 DUP8 ADD PUSH2 0x567 JUMP JUMPDEST SWAP3 POP POP PUSH1 0x40 PUSH2 0x5C5 DUP7 DUP3 DUP8 ADD PUSH2 0x567 JUMP JUMPDEST SWAP2 POP POP SWAP3 POP SWAP3 POP SWAP3 JUMP JUMPDEST PUSH1 0x0 PUSH20 0xFFFFFFFFFFFFFFFFFFFFFFFFFFFFFFFFFFFFFFFF DUP3 AND SWAP1 POP SWAP2 SWAP1 POP JUMP JUMPDEST PUSH1 0x0 PUSH2 0x5FA DUP3 PUSH2 0x5CF JUMP JUMPDEST SWAP1 POP SWAP2 SWAP1 POP JUMP JUMPDEST PUSH2 0x60A DUP2 PUSH2 0x5EF JUMP JUMPDEST DUP2 EQ PUSH2 0x615 JUMPI PUSH1 0x0 DUP1 REVERT JUMPDEST POP JUMP JUMPDEST PUSH1 0x0 DUP2 CALLDATALOAD SWAP1 POP PUSH2 0x627 DUP2 PUSH2 0x601 JUMP JUMPDEST SWAP3 SWAP2 POP POP JUMP JUMPDEST PUSH1 0x0 PUSH1 0x20 DUP3 DUP5 SUB SLT ISZERO PUSH2 0x643 JUMPI PUSH2 0x642 PUSH2 0x50B JUMP JUMPDEST JUMPDEST PUSH1 0x0 PUSH2 0x651 DUP5 DUP3 DUP6 ADD PUSH2 0x618 JUMP JUMPDEST SWAP2 POP POP SWAP3 SWAP2 POP POP JUMP JUMPDEST PUSH1 0x0 DUP2 ISZERO ISZERO SWAP1 POP SWAP2 SWAP1 POP JUMP JUMPDEST PUSH2 0x66F DUP2 PUSH2 0x65A JUMP JUMPDEST DUP3 MSTORE POP POP JUMP JUMPDEST PUSH1 0x0 PUSH1 0x20 DUP3 ADD SWAP1 POP PUSH2 0x68A PUSH1 0x0 DUP4 ADD DUP5 PUSH2 0x666 JUMP JUMPDEST SWAP3 SWAP2 POP POP JUMP JUMPDEST PUSH2 0x699 DUP2 PUSH2 0x5EF JUMP JUMPDEST DUP3 MSTORE POP POP JUMP JUMPDEST PUSH2 0x6A8 DUP2 PUSH2 0x510 JUMP JUMPDEST DUP3 MSTORE POP POP JUMP JUMPDEST PUSH2 0x6B7 DUP2 PUSH2 0x546 JUMP JUMPDEST DUP3 MSTORE POP POP JUMP JUMPDEST PUSH1 0x0 PUSH1 0x80 DUP3 ADD SWAP1 POP PUSH2 0x6D2 PUSH1 0x0 DUP4 ADD DUP8 PUSH2 0x690 JUMP JUMPDEST PUSH2 0x6DF PUSH1 0x20 DUP4 ADD DUP7 PUSH2 0x69F JUMP JUMPDEST PUSH2 0x6EC PUSH1 0x40 DUP4 ADD DUP6 PUSH2 0x6AE JUMP JUMPDEST PUSH2 0x6F9 PUSH1 0x60 DUP4 ADD DUP5 PUSH2 0x6AE JUMP JUMPDEST SWAP6 SWAP5 POP POP POP POP POP JUMP JUMPDEST PUSH1 0x0 PUSH1 0x40 DUP3 ADD SWAP1 POP PUSH2 0x717 PUSH1 0x0 DUP4 ADD DUP6 PUSH2 0x690 JUMP JUMPDEST PUSH2 0x724 PUSH1 0x20 DUP4 ADD DUP5 PUSH2 0x690 JUMP JUMPDEST SWAP4 SWAP3 POP POP POP JUMP JUMPDEST PUSH1 0x0 DUP3 DUP3 MSTORE PUSH1 0x20 DUP3 ADD SWAP1 POP SWAP3 SWAP2 POP POP JUMP JUMPDEST PUSH32 0x546869732070726F64756365206973206E6F74206C6973746564206F6E207468 PUSH1 0x0 DUP3 ADD MSTORE PUSH32 0x65204D61726B6574000000000000000000000000000000000000000000000000 PUSH1 0x20 DUP3 ADD MSTORE POP JUMP JUMPDEST PUSH1 0x0 PUSH2 0x798 PUSH1 0x28 DUP4 PUSH2 0x72B JUMP JUMPDEST SWAP2 POP PUSH2 0x7A3 DUP3 PUSH2 0x73C JUMP JUMPDEST PUSH1 0x40 DUP3 ADD SWAP1 POP SWAP2 SWAP1 POP JUMP JUMPDEST PUSH1 0x0 PUSH1 0x20 DUP3 ADD SWAP1 POP DUP2 DUP2 SUB PUSH1 0x0 DUP4 ADD MSTORE PUSH2 0x7C7 DUP2 PUSH2 0x78B JUMP JUMPDEST SWAP1 POP SWAP2 SWAP1 POP JUMP JUMPDEST PUSH1 0x0 DUP2 MLOAD SWAP1 POP PUSH2 0x7DD DUP2 PUSH2 0x601 JUMP JUMPDEST SWAP3 SWAP2 POP POP JUMP JUMPDEST PUSH1 0x0 PUSH1 0x20 DUP3 DUP5 SUB SLT ISZERO PUSH2 0x7F9 JUMPI PUSH2 0x7F8 PUSH2 0x50B JUMP JUMPDEST JUMPDEST PUSH1 0x0 PUSH2 0x807 DUP5 DUP3 DUP6 ADD PUSH2 0x7CE JUMP JUMPDEST SWAP2 POP POP SWAP3 SWAP2 POP POP JUMP JUMPDEST PUSH32 0x4F6E6C792070726F64756365206F776E65722063616E2072656D6F7665207072 PUSH1 0x0 DUP3 ADD MSTORE PUSH32 0x6F647563652066726F6D204D61726B6574000000000000000000000000000000 PUSH1 0x20 DUP3 ADD MSTORE POP JUMP JUMPDEST PUSH1 0x0 PUSH2 0x86C PUSH1 0x31 DUP4 PUSH2 0x72B JUMP JUMPDEST SWAP2 POP PUSH2 0x877 DUP3 PUSH2 0x810 JUMP JUMPDEST PUSH1 0x40 DUP3 ADD SWAP1 POP SWAP2 SWAP1 POP JUMP JUMPDEST PUSH1 0x0 PUSH1 0x20 DUP3 ADD SWAP1 POP DUP2 DUP2 SUB PUSH1 0x0 DUP4 ADD MSTORE PUSH2 0x89B DUP2 PUSH2 0x85F JUMP JUMPDEST SWAP1 POP SWAP2 SWAP1 POP JUMP JUMPDEST PUSH1 0x0 PUSH1 0x20 DUP3 ADD SWAP1 POP PUSH2 0x8B7 PUSH1 0x0 DUP4 ADD DUP5 PUSH2 0x690 JUMP JUMPDEST SWAP3 SWAP2 POP POP JUMP JUMPDEST PUSH32 0x455243313136373A20637265617465206661696C656400000000000000000000 PUSH1 0x0 DUP3 ADD MSTORE POP JUMP JUMPDEST PUSH1 0x0 PUSH2 0x8F3 PUSH1 0x16 DUP4 PUSH2 0x72B JUMP JUMPDEST SWAP2 POP PUSH2 0x8FE DUP3 PUSH2 0x8BD JUMP JUMPDEST PUSH1 0x20 DUP3 ADD SWAP1 POP SWAP2 SWAP1 POP JUMP JUMPDEST PUSH1 0x0 PUSH1 0x20 DUP3 ADD SWAP1 POP DUP2 DUP2 SUB PUSH1 0x0 DUP4 ADD MSTORE PUSH2 0x922 DUP2 PUSH2 0x8E6 JUMP JUMPDEST SWAP1 POP SWAP2 SWAP1 POP JUMP INVALID LOG2 PUSH5 0x6970667358 0x22 SLT KECCAK256 SSTORE 0xF9 MSTORE8 EXTCODECOPY 0xB5 0xA5 CALLDATALOAD PUSH9 0x3C98621B75C1804D96 PUSH8 0x5430DCA884EA52E7 SWAP1 0xF7 XOR DUP5 0xB8 CALLCODE PUSH5 0x736F6C6343 STOP ADDMOD SLT STOP CALLER PUSH1 0x80 PUSH1 0x40 MSTORE CALLVALUE DUP1 ISZERO PUSH2 0x10 JUMPI PUSH1 0x0 DUP1 REVERT JUMPDEST POP PUSH2 0x2D PUSH2 0x22 PUSH2 0x5D PUSH1 0x20 SHL PUSH1 0x20 SHR JUMP JUMPDEST PUSH2 0x65 PUSH1 0x20 SHL PUSH1 0x20 SHR JUMP JUMPDEST PUSH1 0x0 PUSH1 0x7 PUSH1 0x0 PUSH2 0x100 EXP DUP2 SLOAD DUP2 PUSH1 0xFF MUL NOT AND SWAP1 DUP4 PUSH1 0x2 DUP2 GT ISZERO PUSH2 0x53 JUMPI PUSH2 0x52 PUSH2 0x129 JUMP JUMPDEST JUMPDEST MUL OR SWAP1 SSTORE POP PUSH2 0x158 JUMP JUMPDEST PUSH1 0x0 CALLER SWAP1 POP SWAP1 JUMP JUMPDEST PUSH1 0x0 DUP1 PUSH1 0x0 SWAP1 SLOAD SWAP1 PUSH2 0x100 EXP SWAP1 DIV PUSH20 0xFFFFFFFFFFFFFFFFFFFFFFFFFFFFFFFFFFFFFFFF AND SWAP1 POP DUP2 PUSH1 0x0 DUP1 PUSH2 0x100 EXP DUP2 SLOAD DUP2 PUSH20 0xFFFFFFFFFFFFFFFFFFFFFFFFFFFFFFFFFFFFFFFF MUL NOT AND SWAP1 DUP4 PUSH20 0xFFFFFFFFFFFFFFFFFFFFFFFFFFFFFFFFFFFFFFFF AND MUL OR SWAP1 SSTORE POP DUP2 PUSH20 0xFFFFFFFFFFFFFFFFFFFFFFFFFFFFFFFFFFFFFFFF AND DUP2 PUSH20 0xFFFFFFFFFFFFFFFFFFFFFFFFFFFFFFFFFFFFFFFF AND PUSH32 0x8BE0079C531659141344CD1FD0A4F28419497F9722A3DAAFE3B4186F6B6457E0 PUSH1 0x40 MLOAD PUSH1 0x40 MLOAD DUP1 SWAP2 SUB SWAP1 LOG3 POP POP JUMP JUMPDEST PUSH32 0x4E487B7100000000000000000000000000000000000000000000000000000000 PUSH1 0x0 MSTORE PUSH1 0x21 PUSH1 0x4 MSTORE PUSH1 0x24 PUSH1 0x0 REVERT JUMPDEST PUSH2 0xCF0 DUP1 PUSH2 0x167 PUSH1 0x0 CODECOPY PUSH1 0x0 RETURN INVALID PUSH1 0x80 PUSH1 0x40 MSTORE CALLVALUE DUP1 ISZERO PUSH2 0x10 JUMPI PUSH1 0x0 DUP1 REVERT JUMPDEST POP PUSH1 0x4 CALLDATASIZE LT PUSH2 0xA9 JUMPI PUSH1 0x0 CALLDATALOAD PUSH1 0xE0 SHR DUP1 PUSH4 0xA035B1FE GT PUSH2 0x71 JUMPI DUP1 PUSH4 0xA035B1FE EQ PUSH2 0x12E JUMPI DUP1 PUSH4 0xD811FCF0 EQ PUSH2 0x14C JUMPI DUP1 PUSH4 0xEAA61DEA EQ PUSH2 0x16A JUMPI DUP1 PUSH4 0xF2FDE38B EQ PUSH2 0x174 JUMPI DUP1 PUSH4 0xF5C609E0 EQ PUSH2 0x190 JUMPI DUP1 PUSH4 0xFA34F63A EQ PUSH2 0x19A JUMPI PUSH2 0xA9 JUMP JUMPDEST DUP1 PUSH4 0x6D86B8A5 EQ PUSH2 0xAE JUMPI DUP1 PUSH4 0x715018A6 EQ PUSH2 0xCC JUMPI DUP1 PUSH4 0x76C820F6 EQ PUSH2 0xD6 JUMPI DUP1 PUSH4 0x80F55605 EQ PUSH2 0xF2 JUMPI DUP1 PUSH4 0x8DA5CB5B EQ PUSH2 0x110 JUMPI JUMPDEST PUSH1 0x0 DUP1 REVERT JUMPDEST PUSH2 0xB6 PUSH2 0x1B8 JUMP JUMPDEST PUSH1 0x40 MLOAD PUSH2 0xC3 SWAP2 SWAP1 PUSH2 0x7B8 JUMP JUMPDEST PUSH1 0x40 MLOAD DUP1 SWAP2 SUB SWAP1 RETURN JUMPDEST PUSH2 0xD4 PUSH2 0x1BE JUMP JUMPDEST STOP JUMPDEST PUSH2 0xF0 PUSH1 0x4 DUP1 CALLDATASIZE SUB DUP2 ADD SWAP1 PUSH2 0xEB SWAP2 SWAP1 PUSH2 0x898 JUMP JUMPDEST PUSH2 0x1D2 JUMP JUMPDEST STOP JUMPDEST PUSH2 0xFA PUSH2 0x2D8 JUMP JUMPDEST PUSH1 0x40 MLOAD PUSH2 0x107 SWAP2 SWAP1 PUSH2 0x90E JUMP JUMPDEST PUSH1 0x40 MLOAD DUP1 SWAP2 SUB SWAP1 RETURN JUMPDEST PUSH2 0x118 PUSH2 0x2FE JUMP JUMPDEST PUSH1 0x40 MLOAD PUSH2 0x125 SWAP2 SWAP1 PUSH2 0x90E JUMP JUMPDEST PUSH1 0x40 MLOAD DUP1 SWAP2 SUB SWAP1 RETURN JUMPDEST PUSH2 0x136 PUSH2 0x327 JUMP JUMPDEST PUSH1 0x40 MLOAD PUSH2 0x143 SWAP2 SWAP1 PUSH2 0x7B8 JUMP JUMPDEST PUSH1 0x40 MLOAD DUP1 SWAP2 SUB SWAP1 RETURN JUMPDEST PUSH2 0x154 PUSH2 0x32D JUMP JUMPDEST PUSH1 0x40 MLOAD PUSH2 0x161 SWAP2 SWAP1 PUSH2 0x90E JUMP JUMPDEST PUSH1 0x40 MLOAD DUP1 SWAP2 SUB SWAP1 RETURN JUMPDEST PUSH2 0x172 PUSH2 0x353 JUMP JUMPDEST STOP JUMPDEST PUSH2 0x18E PUSH1 0x4 DUP1 CALLDATASIZE SUB DUP2 ADD SWAP1 PUSH2 0x189 SWAP2 SWAP1 PUSH2 0x929 JUMP JUMPDEST PUSH2 0x439 JUMP JUMPDEST STOP JUMPDEST PUSH2 0x198 PUSH2 0x4BC JUMP JUMPDEST STOP JUMPDEST PUSH2 0x1A2 PUSH2 0x64F JUMP JUMPDEST PUSH1 0x40 MLOAD PUSH2 0x1AF SWAP2 SWAP1 PUSH2 0x965 JUMP JUMPDEST PUSH1 0x40 MLOAD DUP1 SWAP2 SUB SWAP1 RETURN JUMPDEST PUSH1 0x5 SLOAD DUP2 JUMP JUMPDEST PUSH2 0x1C6 PUSH2 0x655 JUMP JUMPDEST PUSH2 0x1D0 PUSH1 0x0 PUSH2 0x6D3 JUMP JUMPDEST JUMP JUMPDEST PUSH1 0x0 PUSH1 0x2 DUP2 GT ISZERO PUSH2 0x1E6 JUMPI PUSH2 0x1E5 PUSH2 0x980 JUMP JUMPDEST JUMPDEST PUSH1 0x7 PUSH1 0x0 SWAP1 SLOAD SWAP1 PUSH2 0x100 EXP SWAP1 DIV PUSH1 0xFF AND PUSH1 0x2 DUP2 GT ISZERO PUSH2 0x208 JUMPI PUSH2 0x207 PUSH2 0x980 JUMP JUMPDEST JUMPDEST EQ PUSH2 0x248 JUMPI PUSH1 0x40 MLOAD PUSH32 0x8C379A000000000000000000000000000000000000000000000000000000000 DUP2 MSTORE PUSH1 0x4 ADD PUSH2 0x23F SWAP1 PUSH2 0xA32 JUMP JUMPDEST PUSH1 0x40 MLOAD DUP1 SWAP2 SUB SWAP1 REVERT JUMPDEST PUSH2 0x251 DUP5 PUSH2 0x6D3 JUMP JUMPDEST CALLER PUSH1 0x2 PUSH1 0x0 PUSH2 0x100 EXP DUP2 SLOAD DUP2 PUSH20 0xFFFFFFFFFFFFFFFFFFFFFFFFFFFFFFFFFFFFFFFF MUL NOT AND SWAP1 DUP4 PUSH20 0xFFFFFFFFFFFFFFFFFFFFFFFFFFFFFFFFFFFFFFFF AND MUL OR SWAP1 SSTORE POP DUP3 PUSH1 0x3 DUP2 SWAP1 SSTORE POP DUP2 PUSH1 0x4 DUP2 SWAP1 SSTORE POP DUP1 PUSH1 0x5 DUP2 SWAP1 SSTORE POP PUSH1 0x1 PUSH1 0x7 PUSH1 0x0 PUSH2 0x100 EXP DUP2 SLOAD DUP2 PUSH1 0xFF MUL NOT AND SWAP1 DUP4 PUSH1 0x2 DUP2 GT ISZERO PUSH2 0x2CD JUMPI PUSH2 0x2CC PUSH2 0x980 JUMP JUMPDEST JUMPDEST MUL OR SWAP1 SSTORE POP POP POP POP POP JUMP JUMPDEST PUSH1 0x2 PUSH1 0x0 SWAP1 SLOAD SWAP1 PUSH2 0x100 EXP SWAP1 DIV PUSH20 0xFFFFFFFFFFFFFFFFFFFFFFFFFFFFFFFFFFFFFFFF AND DUP2 JUMP JUMPDEST PUSH1 0x0 DUP1 PUSH1 0x0 SWAP1 SLOAD SWAP1 PUSH2 0x100 EXP SWAP1 DIV PUSH20 0xFFFFFFFFFFFFFFFFFFFFFFFFFFFFFFFFFFFFFFFF AND SWAP1 POP SWAP1 JUMP JUMPDEST PUSH1 0x4 SLOAD DUP2 JUMP JUMPDEST PUSH1 0x1 PUSH1 0x0 SWAP1 SLOAD SWAP1 PUSH2 0x100 EXP SWAP1 DIV PUSH20 0xFFFFFFFFFFFFFFFFFFFFFFFFFFFFFFFFFFFFFFFF AND DUP2 JUMP JUMPDEST PUSH1 0x6 PUSH1 0x0 CALLER PUSH20 0xFFFFFFFFFFFFFFFFFFFFFFFFFFFFFFFFFFFFFFFF AND PUSH20 0xFFFFFFFFFFFFFFFFFFFFFFFFFFFFFFFFFFFFFFFF AND DUP2 MSTORE PUSH1 0x20 ADD SWAP1 DUP2 MSTORE PUSH1 0x20 ADD PUSH1 0x0 KECCAK256 PUSH1 0x0 SWAP1 SLOAD SWAP1 PUSH2 0x100 EXP SWAP1 DIV PUSH1 0xFF AND PUSH2 0x3DF JUMPI PUSH1 0x40 MLOAD PUSH32 0x8C379A000000000000000000000000000000000000000000000000000000000 DUP2 MSTORE PUSH1 0x4 ADD PUSH2 0x3D6 SWAP1 PUSH2 0xA9E JUMP JUMPDEST PUSH1 0x40 MLOAD DUP1 SWAP2 SUB SWAP1 REVERT JUMPDEST PUSH1 0x0 PUSH1 0x6 PUSH1 0x0 CALLER PUSH20 0xFFFFFFFFFFFFFFFFFFFFFFFFFFFFFFFFFFFFFFFF AND PUSH20 0xFFFFFFFFFFFFFFFFFFFFFFFFFFFFFFFFFFFFFFFF AND DUP2 MSTORE PUSH1 0x20 ADD SWAP1 DUP2 MSTORE PUSH1 0x20 ADD PUSH1 0x0 KECCAK256 PUSH1 0x0 PUSH2 0x100 EXP DUP2 SLOAD DUP2 PUSH1 0xFF MUL NOT AND SWAP1 DUP4 ISZERO ISZERO MUL OR SWAP1 SSTORE POP JUMP JUMPDEST PUSH2 0x441 PUSH2 0x655 JUMP JUMPDEST PUSH1 0x0 PUSH20 0xFFFFFFFFFFFFFFFFFFFFFFFFFFFFFFFFFFFFFFFF AND DUP2 PUSH20 0xFFFFFFFFFFFFFFFFFFFFFFFFFFFFFFFFFFFFFFFF AND SUB PUSH2 0x4B0 JUMPI PUSH1 0x40 MLOAD PUSH32 0x8C379A000000000000000000000000000000000000000000000000000000000 DUP2 MSTORE PUSH1 0x4 ADD PUSH2 0x4A7 SWAP1 PUSH2 0xB30 JUMP JUMPDEST PUSH1 0x40 MLOAD DUP1 SWAP2 SUB SWAP1 REVERT JUMPDEST PUSH2 0x4B9 DUP2 PUSH2 0x6D3 JUMP JUMPDEST POP JUMP JUMPDEST PUSH2 0x4C4 PUSH2 0x2FE JUMP JUMPDEST PUSH20 0xFFFFFFFFFFFFFFFFFFFFFFFFFFFFFFFFFFFFFFFF AND CALLER PUSH20 0xFFFFFFFFFFFFFFFFFFFFFFFFFFFFFFFFFFFFFFFF AND SUB PUSH2 0x531 JUMPI PUSH1 0x40 MLOAD PUSH32 0x8C379A000000000000000000000000000000000000000000000000000000000 DUP2 MSTORE PUSH1 0x4 ADD PUSH2 0x528 SWAP1 PUSH2 0xBC2 JUMP JUMPDEST PUSH1 0x40 MLOAD DUP1 SWAP2 SUB SWAP1 REVERT JUMPDEST PUSH1 0x6 PUSH1 0x0 CALLER PUSH20 0xFFFFFFFFFFFFFFFFFFFFFFFFFFFFFFFFFFFFFFFF AND PUSH20 0xFFFFFFFFFFFFFFFFFFFFFFFFFFFFFFFFFFFFFFFF AND DUP2 MSTORE PUSH1 0x20 ADD SWAP1 DUP2 MSTORE PUSH1 0x20 ADD PUSH1 0x0 KECCAK256 PUSH1 0x0 SWAP1 SLOAD SWAP1 PUSH2 0x100 EXP SWAP1 DIV PUSH1 0xFF AND ISZERO PUSH2 0x5BE JUMPI PUSH1 0x40 MLOAD PUSH32 0x8C379A000000000000000000000000000000000000000000000000000000000 DUP2 MSTORE PUSH1 0x4 ADD PUSH2 0x5B5 SWAP1 PUSH2 0xC2E JUMP JUMPDEST PUSH1 0x40 MLOAD DUP1 SWAP2 SUB SWAP1 REVERT JUMPDEST PUSH1 0x1 PUSH1 0x6 PUSH1 0x0 CALLER PUSH20 0xFFFFFFFFFFFFFFFFFFFFFFFFFFFFFFFFFFFFFFFF AND PUSH20 0xFFFFFFFFFFFFFFFFFFFFFFFFFFFFFFFFFFFFFFFF AND DUP2 MSTORE PUSH1 0x20 ADD SWAP1 DUP2 MSTORE PUSH1 0x20 ADD PUSH1 0x0 KECCAK256 PUSH1 0x0 PUSH2 0x100 EXP DUP2 SLOAD DUP2 PUSH1 0xFF MUL NOT AND SWAP1 DUP4 ISZERO ISZERO MUL OR SWAP1 SSTORE POP PUSH32 0xE7183A38A6AA8FB99C4071A88F3ACD0B3C30FD4B05330C2F0A0724BB0254F804 CALLER PUSH1 0x40 MLOAD PUSH2 0x645 SWAP2 SWAP1 PUSH2 0x90E JUMP JUMPDEST PUSH1 0x40 MLOAD DUP1 SWAP2 SUB SWAP1 LOG1 JUMP JUMPDEST PUSH1 0x3 SLOAD DUP2 JUMP JUMPDEST PUSH2 0x65D PUSH2 0x797 JUMP JUMPDEST PUSH20 0xFFFFFFFFFFFFFFFFFFFFFFFFFFFFFFFFFFFFFFFF AND PUSH2 0x67B PUSH2 0x2FE JUMP JUMPDEST PUSH20 0xFFFFFFFFFFFFFFFFFFFFFFFFFFFFFFFFFFFFFFFF AND EQ PUSH2 0x6D1 JUMPI PUSH1 0x40 MLOAD PUSH32 0x8C379A000000000000000000000000000000000000000000000000000000000 DUP2 MSTORE PUSH1 0x4 ADD PUSH2 0x6C8 SWAP1 PUSH2 0xC9A JUMP JUMPDEST PUSH1 0x40 MLOAD DUP1 SWAP2 SUB SWAP1 REVERT JUMPDEST JUMP JUMPDEST PUSH1 0x0 DUP1 PUSH1 0x0 SWAP1 SLOAD SWAP1 PUSH2 0x100 EXP SWAP1 DIV PUSH20 0xFFFFFFFFFFFFFFFFFFFFFFFFFFFFFFFFFFFFFFFF AND SWAP1 POP DUP2 PUSH1 0x0 DUP1 PUSH2 0x100 EXP DUP2 SLOAD DUP2 PUSH20 0xFFFFFFFFFFFFFFFFFFFFFFFFFFFFFFFFFFFFFFFF MUL NOT AND SWAP1 DUP4 PUSH20 0xFFFFFFFFFFFFFFFFFFFFFFFFFFFFFFFFFFFFFFFF AND MUL OR SWAP1 SSTORE POP DUP2 PUSH20 0xFFFFFFFFFFFFFFFFFFFFFFFFFFFFFFFFFFFFFFFF AND DUP2 PUSH20 0xFFFFFFFFFFFFFFFFFFFFFFFFFFFFFFFFFFFFFFFF AND PUSH32 0x8BE0079C531659141344CD1FD0A4F28419497F9722A3DAAFE3B4186F6B6457E0 PUSH1 0x40 MLOAD PUSH1 0x40 MLOAD DUP1 SWAP2 SUB SWAP1 LOG3 POP POP JUMP JUMPDEST PUSH1 0x0 CALLER SWAP1 POP SWAP1 JUMP JUMPDEST PUSH1 0x0 DUP2 SWAP1 POP SWAP2 SWAP1 POP JUMP JUMPDEST PUSH2 0x7B2 DUP2 PUSH2 0x79F JUMP JUMPDEST DUP3 MSTORE POP POP JUMP JUMPDEST PUSH1 0x0 PUSH1 0x20 DUP3 ADD SWAP1 POP PUSH2 0x7CD PUSH1 0x0 DUP4 ADD DUP5 PUSH2 0x7A9 JUMP JUMPDEST SWAP3 SWAP2 POP POP JUMP JUMPDEST PUSH1 0x0 DUP1 REVERT JUMPDEST PUSH1 0x0 PUSH20 0xFFFFFFFFFFFFFFFFFFFFFFFFFFFFFFFFFFFFFFFF DUP3 AND SWAP1 POP SWAP2 SWAP1 POP JUMP JUMPDEST PUSH1 0x0 PUSH2 0x803 DUP3 PUSH2 0x7D8 JUMP JUMPDEST SWAP1 POP SWAP2 SWAP1 POP JUMP JUMPDEST PUSH2 0x813 DUP2 PUSH2 0x7F8 JUMP JUMPDEST DUP2 EQ PUSH2 0x81E JUMPI PUSH1 0x0 DUP1 REVERT JUMPDEST POP JUMP JUMPDEST PUSH1 0x0 DUP2 CALLDATALOAD SWAP1 POP PUSH2 0x830 DUP2 PUSH2 0x80A JUMP JUMPDEST SWAP3 SWAP2 POP POP JUMP JUMPDEST PUSH1 0x0 DUP2 SWAP1 POP SWAP2 SWAP1 POP JUMP JUMPDEST PUSH2 0x849 DUP2 PUSH2 0x836 JUMP JUMPDEST DUP2 EQ PUSH2 0x854 JUMPI PUSH1 0x0 DUP1 REVERT JUMPDEST POP JUMP JUMPDEST PUSH1 0x0 DUP2 CALLDATALOAD SWAP1 POP PUSH2 0x866 DUP2 PUSH2 0x840 JUMP JUMPDEST SWAP3 SWAP2 POP POP JUMP JUMPDEST PUSH2 0x875 DUP2 PUSH2 0x79F JUMP JUMPDEST DUP2 EQ PUSH2 0x880 JUMPI PUSH1 0x0 DUP1 REVERT JUMPDEST POP JUMP JUMPDEST PUSH1 0x0 DUP2 CALLDATALOAD SWAP1 POP PUSH2 0x892 DUP2 PUSH2 0x86C JUMP JUMPDEST SWAP3 SWAP2 POP POP JUMP JUMPDEST PUSH1 0x0 DUP1 PUSH1 0x0 DUP1 PUSH1 0x80 DUP6 DUP8 SUB SLT ISZERO PUSH2 0x8B2 JUMPI PUSH2 0x8B1 PUSH2 0x7D3 JUMP JUMPDEST JUMPDEST PUSH1 0x0 PUSH2 0x8C0 DUP8 DUP3 DUP9 ADD PUSH2 0x821 JUMP JUMPDEST SWAP5 POP POP PUSH1 0x20 PUSH2 0x8D1 DUP8 DUP3 DUP9 ADD PUSH2 0x857 JUMP JUMPDEST SWAP4 POP POP PUSH1 0x40 PUSH2 0x8E2 DUP8 DUP3 DUP9 ADD PUSH2 0x883 JUMP JUMPDEST SWAP3 POP POP PUSH1 0x60 PUSH2 0x8F3 DUP8 DUP3 DUP9 ADD PUSH2 0x883 JUMP JUMPDEST SWAP2 POP POP SWAP3 SWAP6 SWAP2 SWAP5 POP SWAP3 POP JUMP JUMPDEST PUSH2 0x908 DUP2 PUSH2 0x7F8 JUMP JUMPDEST DUP3 MSTORE POP POP JUMP JUMPDEST PUSH1 0x0 PUSH1 0x20 DUP3 ADD SWAP1 POP PUSH2 0x923 PUSH1 0x0 DUP4 ADD DUP5 PUSH2 0x8FF JUMP JUMPDEST SWAP3 SWAP2 POP POP JUMP JUMPDEST PUSH1 0x0 PUSH1 0x20 DUP3 DUP5 SUB SLT ISZERO PUSH2 0x93F JUMPI PUSH2 0x93E PUSH2 0x7D3 JUMP JUMPDEST JUMPDEST PUSH1 0x0 PUSH2 0x94D DUP5 DUP3 DUP6 ADD PUSH2 0x821 JUMP JUMPDEST SWAP2 POP POP SWAP3 SWAP2 POP POP JUMP JUMPDEST PUSH2 0x95F DUP2 PUSH2 0x836 JUMP JUMPDEST DUP3 MSTORE POP POP JUMP JUMPDEST PUSH1 0x0 PUSH1 0x20 DUP3 ADD SWAP1 POP PUSH2 0x97A PUSH1 0x0 DUP4 ADD DUP5 PUSH2 0x956 JUMP JUMPDEST SWAP3 SWAP2 POP POP JUMP JUMPDEST PUSH32 0x4E487B7100000000000000000000000000000000000000000000000000000000 PUSH1 0x0 MSTORE PUSH1 0x21 PUSH1 0x4 MSTORE PUSH1 0x24 PUSH1 0x0 REVERT JUMPDEST PUSH1 0x0 DUP3 DUP3 MSTORE PUSH1 0x20 DUP3 ADD SWAP1 POP SWAP3 SWAP2 POP POP JUMP JUMPDEST PUSH32 0x546869732070726F647563652068617320616C7265616479206265656E20696E PUSH1 0x0 DUP3 ADD MSTORE PUSH32 0x6974696C697A6564000000000000000000000000000000000000000000000000 PUSH1 0x20 DUP3 ADD MSTORE POP JUMP JUMPDEST PUSH1 0x0 PUSH2 0xA1C PUSH1 0x28 DUP4 PUSH2 0x9AF JUMP JUMPDEST SWAP2 POP PUSH2 0xA27 DUP3 PUSH2 0x9C0 JUMP JUMPDEST PUSH1 0x40 DUP3 ADD SWAP1 POP SWAP2 SWAP1 POP JUMP JUMPDEST PUSH1 0x0 PUSH1 0x20 DUP3 ADD SWAP1 POP DUP2 DUP2 SUB PUSH1 0x0 DUP4 ADD MSTORE PUSH2 0xA4B DUP2 PUSH2 0xA0F JUMP JUMPDEST SWAP1 POP SWAP2 SWAP1 POP JUMP JUMPDEST PUSH32 0x6E6F206F7264657220686173206265656E20706C616365640000000000000000 PUSH1 0x0 DUP3 ADD MSTORE POP JUMP JUMPDEST PUSH1 0x0 PUSH2 0xA88 PUSH1 0x18 DUP4 PUSH2 0x9AF JUMP JUMPDEST SWAP2 POP PUSH2 0xA93 DUP3 PUSH2 0xA52 JUMP JUMPDEST PUSH1 0x20 DUP3 ADD SWAP1 POP SWAP2 SWAP1 POP JUMP JUMPDEST PUSH1 0x0 PUSH1 0x20 DUP3 ADD SWAP1 POP DUP2 DUP2 SUB PUSH1 0x0 DUP4 ADD MSTORE PUSH2 0xAB7 DUP2 PUSH2 0xA7B JUMP JUMPDEST SWAP1 POP SWAP2 SWAP1 POP JUMP JUMPDEST PUSH32 0x4F776E61626C653A206E6577206F776E657220697320746865207A65726F2061 PUSH1 0x0 DUP3 ADD MSTORE PUSH32 0x6464726573730000000000000000000000000000000000000000000000000000 PUSH1 0x20 DUP3 ADD MSTORE POP JUMP JUMPDEST PUSH1 0x0 PUSH2 0xB1A PUSH1 0x26 DUP4 PUSH2 0x9AF JUMP JUMPDEST SWAP2 POP PUSH2 0xB25 DUP3 PUSH2 0xABE JUMP JUMPDEST PUSH1 0x40 DUP3 ADD SWAP1 POP SWAP2 SWAP1 POP JUMP JUMPDEST PUSH1 0x0 PUSH1 0x20 DUP3 ADD SWAP1 POP DUP2 DUP2 SUB PUSH1 0x0 DUP4 ADD MSTORE PUSH2 0xB49 DUP2 PUSH2 0xB0D JUMP JUMPDEST SWAP1 POP SWAP2 SWAP1 POP JUMP JUMPDEST PUSH32 0x6661726D65722063616E6E6F7420706C616365206F7264657220666F72207468 PUSH1 0x0 DUP3 ADD MSTORE PUSH32 0x656972206F776E2070726F647563650000000000000000000000000000000000 PUSH1 0x20 DUP3 ADD MSTORE POP JUMP JUMPDEST PUSH1 0x0 PUSH2 0xBAC PUSH1 0x2F DUP4 PUSH2 0x9AF JUMP JUMPDEST SWAP2 POP PUSH2 0xBB7 DUP3 PUSH2 0xB50 JUMP JUMPDEST PUSH1 0x40 DUP3 ADD SWAP1 POP SWAP2 SWAP1 POP JUMP JUMPDEST PUSH1 0x0 PUSH1 0x20 DUP3 ADD SWAP1 POP DUP2 DUP2 SUB PUSH1 0x0 DUP4 ADD MSTORE PUSH2 0xBDB DUP2 PUSH2 0xB9F JUMP JUMPDEST SWAP1 POP SWAP2 SWAP1 POP JUMP JUMPDEST PUSH32 0x6F726465722068617320616C7265616479206265656E20706C61636564000000 PUSH1 0x0 DUP3 ADD MSTORE POP JUMP JUMPDEST PUSH1 0x0 PUSH2 0xC18 PUSH1 0x1D DUP4 PUSH2 0x9AF JUMP JUMPDEST SWAP2 POP PUSH2 0xC23 DUP3 PUSH2 0xBE2 JUMP JUMPDEST PUSH1 0x20 DUP3 ADD SWAP1 POP SWAP2 SWAP1 POP JUMP JUMPDEST PUSH1 0x0 PUSH1 0x20 DUP3 ADD SWAP1 POP DUP2 DUP2 SUB PUSH1 0x0 DUP4 ADD MSTORE PUSH2 0xC47 DUP2 PUSH2 0xC0B JUMP JUMPDEST SWAP1 POP SWAP2 SWAP1 POP JUMP JUMPDEST PUSH32 0x4F776E61626C653A2063616C6C6572206973206E6F7420746865206F776E6572 PUSH1 0x0 DUP3 ADD MSTORE POP JUMP JUMPDEST PUSH1 0x0 PUSH2 0xC84 PUSH1 0x20 DUP4 PUSH2 0x9AF JUMP JUMPDEST SWAP2 POP PUSH2 0xC8F DUP3 PUSH2 0xC4E JUMP JUMPDEST PUSH1 0x20 DUP3 ADD SWAP1 POP SWAP2 SWAP1 POP JUMP JUMPDEST PUSH1 0x0 PUSH1 0x20 DUP3 ADD SWAP1 POP DUP2 DUP2 SUB PUSH1 0x0 DUP4 ADD MSTORE PUSH2 0xCB3 DUP2 PUSH2 0xC77 JUMP JUMPDEST SWAP1 POP SWAP2 SWAP1 POP JUMP INVALID LOG2 PUSH5 0x6970667358 0x22 SLT KECCAK256 ADDRESS SWAP2 0x2B MLOAD LOG1 0x4A JUMP 0xD3 LT ISZERO PUSH24 0x25919A2A9208CDB3956C8C59ACFAA7C4DF0B332B7664736F PUSH13 0x63430008120033000000000000 "
				},
				"gasEstimates": {
					"creation": {
						"codeDepositCost": "479800",
						"executionCost": "infinite",
						"totalCost": "infinite"
					},
					"external": {
						"addProduce(bytes32,uint256,uint256)": "infinite",
						"farmerList(address)": "2867",
						"removeProduce(address)": "infinite"
					}
				},
				"methodIdentifiers": {
					"addProduce(bytes32,uint256,uint256)": "445cc412",
					"farmerList(address)": "a1d861a9",
					"removeProduce(address)": "7b6833c3"
				}
			},
			"storageLayout": {
				"storage": [
					{
						"astId": 234,
						"contract": "contracts/Market.sol:Market",
						"label": "produceList",
						"offset": 0,
						"slot": "0",
						"type": "t_mapping(t_address,t_bool)"
					},
					{
						"astId": 238,
						"contract": "contracts/Market.sol:Market",
						"label": "farmerList",
						"offset": 0,
						"slot": "1",
						"type": "t_mapping(t_address,t_bool)"
					}
				],
				"types": {
					"t_address": {
						"encoding": "inplace",
						"label": "address",
						"numberOfBytes": "20"
					},
					"t_bool": {
						"encoding": "inplace",
						"label": "bool",
						"numberOfBytes": "1"
					},
					"t_mapping(t_address,t_bool)": {
						"encoding": "mapping",
						"key": "t_address",
						"label": "mapping(address => bool)",
						"numberOfBytes": "32",
						"value": "t_bool"
					}
				}
			},
			"userdoc": {
				"kind": "user",
				"methods": {},
				"version": 1
			}
		}
	}
}