{
	"contracts/Produce.sol": {
		"Produce": {
			"abi": [
				{
					"inputs": [],
					"stateMutability": "nonpayable",
					"type": "constructor"
				},
				{
					"anonymous": false,
					"inputs": [
						{
							"indexed": true,
							"internalType": "address",
							"name": "previousOwner",
							"type": "address"
						},
						{
							"indexed": true,
							"internalType": "address",
							"name": "newOwner",
							"type": "address"
						}
					],
					"name": "OwnershipTransferred",
					"type": "event"
				},
				{
					"inputs": [],
					"name": "amount",
					"outputs": [
						{
							"internalType": "uint256",
							"name": "",
							"type": "uint256"
						}
					],
					"stateMutability": "view",
					"type": "function"
				},
				{
					"inputs": [],
					"name": "farmer",
					"outputs": [
						{
							"internalType": "address",
							"name": "",
							"type": "address"
						}
					],
					"stateMutability": "view",
					"type": "function"
				},
				{
					"inputs": [
						{
							"internalType": "address",
							"name": "_farmer",
							"type": "address"
						},
						{
							"internalType": "uint256",
							"name": "_name",
							"type": "uint256"
						},
						{
							"internalType": "uint256",
							"name": "_price",
							"type": "uint256"
						},
						{
							"internalType": "uint256",
							"name": "_orderSize",
							"type": "uint256"
						},
						{
							"internalType": "uint256",
							"name": "_amount",
							"type": "uint256"
						},
						{
							"internalType": "uint256",
							"name": "_limitOnPendingOrders",
							"type": "uint256"
						}
					],
					"name": "initilize",
					"outputs": [],
					"stateMutability": "nonpayable",
					"type": "function"
				},
				{
					"inputs": [],
					"name": "limitOnPendingOrders",
					"outputs": [
						{
							"internalType": "uint256",
							"name": "",
							"type": "uint256"
						}
					],
					"stateMutability": "view",
					"type": "function"
				},
				{
					"inputs": [],
					"name": "market",
					"outputs": [
						{
							"internalType": "address",
							"name": "",
							"type": "address"
						}
					],
					"stateMutability": "view",
					"type": "function"
				},
				{
					"inputs": [],
					"name": "name",
					"outputs": [
						{
							"internalType": "uint256",
							"name": "",
							"type": "uint256"
						}
					],
					"stateMutability": "view",
					"type": "function"
				},
				{
					"inputs": [],
					"name": "orderSize",
					"outputs": [
						{
							"internalType": "uint256",
							"name": "",
							"type": "uint256"
						}
					],
					"stateMutability": "view",
					"type": "function"
				},
				{
					"inputs": [],
					"name": "owner",
					"outputs": [
						{
							"internalType": "address",
							"name": "",
							"type": "address"
						}
					],
					"stateMutability": "view",
					"type": "function"
				},
				{
					"inputs": [],
					"name": "placeOrder",
					"outputs": [],
					"stateMutability": "payable",
					"type": "function"
				},
				{
					"inputs": [],
					"name": "price",
					"outputs": [
						{
							"internalType": "uint256",
							"name": "",
							"type": "uint256"
						}
					],
					"stateMutability": "view",
					"type": "function"
				},
				{
					"inputs": [],
					"name": "renounceOwnership",
					"outputs": [],
					"stateMutability": "nonpayable",
					"type": "function"
				},
				{
					"inputs": [],
					"name": "takeOrder",
					"outputs": [
						{
							"internalType": "address",
							"name": "order",
							"type": "address"
						}
					],
					"stateMutability": "nonpayable",
					"type": "function"
				},
				{
					"inputs": [
						{
							"internalType": "address",
							"name": "newOwner",
							"type": "address"
						}
					],
					"name": "transferOwnership",
					"outputs": [],
					"stateMutability": "nonpayable",
					"type": "function"
				}
			],
			"devdoc": {
				"kind": "dev",
				"methods": {
					"owner()": {
						"details": "Returns the address of the current owner."
					},
					"renounceOwnership()": {
						"details": "Leaves the contract without owner. It will not be possible to call `onlyOwner` functions anymore. Can only be called by the current owner. NOTE: Renouncing ownership will leave the contract without an owner, thereby removing any functionality that is only available to the owner."
					},
					"transferOwnership(address)": {
						"details": "Transfers ownership of the contract to a new account (`newOwner`). Can only be called by the current owner."
					}
				},
				"version": 1
			},
			"evm": {
				"assembly": "    /* \"contracts/Produce.sol\":140:1856  contract Produce is Ownable{... */\n  mstore(0x40, 0x80)\n    /* \"contracts/Produce.sol\":499:557  constructor() {... */\n  callvalue\n  dup1\n  iszero\n  tag_1\n  jumpi\n  0x00\n  dup1\n  revert\ntag_1:\n  pop\n    /* \"@openzeppelin/contracts/access/Ownable.sol\":936:968  _transferOwnership(_msgSender()) */\n  tag_5\n    /* \"@openzeppelin/contracts/access/Ownable.sol\":955:967  _msgSender() */\n  tag_6\n    /* \"@openzeppelin/contracts/access/Ownable.sol\":955:965  _msgSender */\n  shl(0x20, tag_7)\n    /* \"@openzeppelin/contracts/access/Ownable.sol\":955:967  _msgSender() */\n  0x20\n  shr\n  jump\t// in\ntag_6:\n    /* \"@openzeppelin/contracts/access/Ownable.sol\":936:954  _transferOwnership */\n  shl(0x20, tag_8)\n    /* \"@openzeppelin/contracts/access/Ownable.sol\":936:968  _transferOwnership(_msgSender()) */\n  0x20\n  shr\n  jump\t// in\ntag_5:\n    /* \"contracts/Produce.sol\":531:550  State.UNINITIALIZED */\n  0x00\n    /* \"contracts/Produce.sol\":523:528  state */\n  0x09\n  0x00\n    /* \"contracts/Produce.sol\":523:550  state = State.UNINITIALIZED */\n  0x0100\n  exp\n  dup2\n  sload\n  dup2\n  0xff\n  mul\n  not\n  and\n  swap1\n  dup4\n  0x01\n  dup2\n  gt\n  iszero\n  tag_10\n  jumpi\n  tag_11\n  tag_12\n  jump\t// in\ntag_11:\ntag_10:\n  mul\n  or\n  swap1\n  sstore\n  pop\n    /* \"contracts/Produce.sol\":140:1856  contract Produce is Ownable{... */\n  jump(tag_13)\n    /* \"@openzeppelin/contracts/utils/Context.sol\":640:736  function _msgSender() internal view virtual returns (address) {... */\ntag_7:\n    /* \"@openzeppelin/contracts/utils/Context.sol\":693:700  address */\n  0x00\n    /* \"@openzeppelin/contracts/utils/Context.sol\":719:729  msg.sender */\n  caller\n    /* \"@openzeppelin/contracts/utils/Context.sol\":712:729  return msg.sender */\n  swap1\n  pop\n    /* \"@openzeppelin/contracts/utils/Context.sol\":640:736  function _msgSender() internal view virtual returns (address) {... */\n  swap1\n  jump\t// out\n    /* \"@openzeppelin/contracts/access/Ownable.sol\":2433:2620  function _transferOwnership(address newOwner) internal virtual {... */\ntag_8:\n    /* \"@openzeppelin/contracts/access/Ownable.sol\":2506:2522  address oldOwner */\n  0x00\n    /* \"@openzeppelin/contracts/access/Ownable.sol\":2525:2531  _owner */\n  dup1\n  0x00\n  swap1\n  sload\n  swap1\n  0x0100\n  exp\n  swap1\n  div\n  0xffffffffffffffffffffffffffffffffffffffff\n  and\n    /* \"@openzeppelin/contracts/access/Ownable.sol\":2506:2531  address oldOwner = _owner */\n  swap1\n  pop\n    /* \"@openzeppelin/contracts/access/Ownable.sol\":2550:2558  newOwner */\n  dup2\n    /* \"@openzeppelin/contracts/access/Ownable.sol\":2541:2547  _owner */\n  0x00\n  dup1\n    /* \"@openzeppelin/contracts/access/Ownable.sol\":2541:2558  _owner = newOwner */\n  0x0100\n  exp\n  dup2\n  sload\n  dup2\n  0xffffffffffffffffffffffffffffffffffffffff\n  mul\n  not\n  and\n  swap1\n  dup4\n  0xffffffffffffffffffffffffffffffffffffffff\n  and\n  mul\n  or\n  swap1\n  sstore\n  pop\n    /* \"@openzeppelin/contracts/access/Ownable.sol\":2604:2612  newOwner */\n  dup2\n    /* \"@openzeppelin/contracts/access/Ownable.sol\":2573:2613  OwnershipTransferred(oldOwner, newOwner) */\n  0xffffffffffffffffffffffffffffffffffffffff\n  and\n    /* \"@openzeppelin/contracts/access/Ownable.sol\":2594:2602  oldOwner */\n  dup2\n    /* \"@openzeppelin/contracts/access/Ownable.sol\":2573:2613  OwnershipTransferred(oldOwner, newOwner) */\n  0xffffffffffffffffffffffffffffffffffffffff\n  and\n  0x8be0079c531659141344cd1fd0a4f28419497f9722a3daafe3b4186f6b6457e0\n  mload(0x40)\n  mload(0x40)\n  dup1\n  swap2\n  sub\n  swap1\n  log3\n    /* \"@openzeppelin/contracts/access/Ownable.sol\":2496:2620  {... */\n  pop\n    /* \"@openzeppelin/contracts/access/Ownable.sol\":2433:2620  function _transferOwnership(address newOwner) internal virtual {... */\n  pop\n  jump\t// out\n    /* \"#utility.yul\":7:187   */\ntag_12:\n    /* \"#utility.yul\":55:132   */\n  0x4e487b7100000000000000000000000000000000000000000000000000000000\n    /* \"#utility.yul\":52:53   */\n  0x00\n    /* \"#utility.yul\":45:133   */\n  mstore\n    /* \"#utility.yul\":152:156   */\n  0x21\n    /* \"#utility.yul\":149:150   */\n  0x04\n    /* \"#utility.yul\":142:157   */\n  mstore\n    /* \"#utility.yul\":176:180   */\n  0x24\n    /* \"#utility.yul\":173:174   */\n  0x00\n    /* \"#utility.yul\":166:181   */\n  revert\n    /* \"contracts/Produce.sol\":140:1856  contract Produce is Ownable{... */\ntag_13:\n  dataSize(sub_0)\n  dup1\n  dataOffset(sub_0)\n  0x00\n  codecopy\n  0x00\n  return\nstop\n\nsub_0: assembly {\n        /* \"contracts/Produce.sol\":140:1856  contract Produce is Ownable{... */\n      mstore(0x40, 0x80)\n      jumpi(tag_1, lt(calldatasize, 0x04))\n      shr(0xe0, calldataload(0x00))\n      dup1\n      0xa035b1fe\n      gt\n      tag_15\n      jumpi\n      dup1\n      0xd32dacc1\n      gt\n      tag_16\n      jumpi\n      dup1\n      0xd32dacc1\n      eq\n      tag_11\n      jumpi\n      dup1\n      0xd811fcf0\n      eq\n      tag_12\n      jumpi\n      dup1\n      0xf2fde38b\n      eq\n      tag_13\n      jumpi\n      dup1\n      0xf5c609e0\n      eq\n      tag_14\n      jumpi\n      jump(tag_1)\n    tag_16:\n      dup1\n      0xa035b1fe\n      eq\n      tag_8\n      jumpi\n      dup1\n      0xa6bcd45c\n      eq\n      tag_9\n      jumpi\n      dup1\n      0xaa8c217c\n      eq\n      tag_10\n      jumpi\n      jump(tag_1)\n    tag_15:\n      dup1\n      0x06fdde03\n      eq\n      tag_2\n      jumpi\n      dup1\n      0x530d124e\n      eq\n      tag_3\n      jumpi\n      dup1\n      0x6d86b8a5\n      eq\n      tag_4\n      jumpi\n      dup1\n      0x715018a6\n      eq\n      tag_5\n      jumpi\n      dup1\n      0x80f55605\n      eq\n      tag_6\n      jumpi\n      dup1\n      0x8da5cb5b\n      eq\n      tag_7\n      jumpi\n    tag_1:\n      0x00\n      dup1\n      revert\n        /* \"contracts/Produce.sol\":299:318  uint256 public name */\n    tag_2:\n      callvalue\n      dup1\n      iszero\n      tag_17\n      jumpi\n      0x00\n      dup1\n      revert\n    tag_17:\n      pop\n      tag_18\n      tag_19\n      jump\t// in\n    tag_18:\n      mload(0x40)\n      tag_20\n      swap2\n      swap1\n      tag_21\n      jump\t// in\n    tag_20:\n      mload(0x40)\n      dup1\n      swap2\n      sub\n      swap1\n      return\n        /* \"contracts/Produce.sol\":257:292  uint256 public limitOnPendingOrders */\n    tag_3:\n      callvalue\n      dup1\n      iszero\n      tag_22\n      jumpi\n      0x00\n      dup1\n      revert\n    tag_22:\n      pop\n      tag_23\n      tag_24\n      jump\t// in\n    tag_23:\n      mload(0x40)\n      tag_25\n      swap2\n      swap1\n      tag_21\n      jump\t// in\n    tag_25:\n      mload(0x40)\n      dup1\n      swap2\n      sub\n      swap1\n      return\n        /* \"contracts/Produce.sol\":350:374  uint256 public orderSize */\n    tag_4:\n      callvalue\n      dup1\n      iszero\n      tag_26\n      jumpi\n      0x00\n      dup1\n      revert\n    tag_26:\n      pop\n      tag_27\n      tag_28\n      jump\t// in\n    tag_27:\n      mload(0x40)\n      tag_29\n      swap2\n      swap1\n      tag_21\n      jump\t// in\n    tag_29:\n      mload(0x40)\n      dup1\n      swap2\n      sub\n      swap1\n      return\n        /* \"@openzeppelin/contracts/access/Ownable.sol\":1831:1932  function renounceOwnership() public virtual onlyOwner {... */\n    tag_5:\n      callvalue\n      dup1\n      iszero\n      tag_30\n      jumpi\n      0x00\n      dup1\n      revert\n    tag_30:\n      pop\n      tag_31\n      tag_32\n      jump\t// in\n    tag_31:\n      stop\n        /* \"contracts/Produce.sol\":200:221  address public market */\n    tag_6:\n      callvalue\n      dup1\n      iszero\n      tag_33\n      jumpi\n      0x00\n      dup1\n      revert\n    tag_33:\n      pop\n      tag_34\n      tag_35\n      jump\t// in\n    tag_34:\n      mload(0x40)\n      tag_36\n      swap2\n      swap1\n      tag_37\n      jump\t// in\n    tag_36:\n      mload(0x40)\n      dup1\n      swap2\n      sub\n      swap1\n      return\n        /* \"@openzeppelin/contracts/access/Ownable.sol\":1201:1286  function owner() public view virtual returns (address) {... */\n    tag_7:\n      callvalue\n      dup1\n      iszero\n      tag_38\n      jumpi\n      0x00\n      dup1\n      revert\n    tag_38:\n      pop\n      tag_39\n      tag_40\n      jump\t// in\n    tag_39:\n      mload(0x40)\n      tag_41\n      swap2\n      swap1\n      tag_37\n      jump\t// in\n    tag_41:\n      mload(0x40)\n      dup1\n      swap2\n      sub\n      swap1\n      return\n        /* \"contracts/Produce.sol\":324:344  uint256 public price */\n    tag_8:\n      callvalue\n      dup1\n      iszero\n      tag_42\n      jumpi\n      0x00\n      dup1\n      revert\n    tag_42:\n      pop\n      tag_43\n      tag_44\n      jump\t// in\n    tag_43:\n      mload(0x40)\n      tag_45\n      swap2\n      swap1\n      tag_21\n      jump\t// in\n    tag_45:\n      mload(0x40)\n      dup1\n      swap2\n      sub\n      swap1\n      return\n        /* \"contracts/Produce.sol\":563:1115  function initilize(... */\n    tag_9:\n      callvalue\n      dup1\n      iszero\n      tag_46\n      jumpi\n      0x00\n      dup1\n      revert\n    tag_46:\n      pop\n      tag_47\n      0x04\n      dup1\n      calldatasize\n      sub\n      dup2\n      add\n      swap1\n      tag_48\n      swap2\n      swap1\n      tag_49\n      jump\t// in\n    tag_48:\n      tag_50\n      jump\t// in\n    tag_47:\n      stop\n        /* \"contracts/Produce.sol\":380:401  uint256 public amount */\n    tag_10:\n      callvalue\n      dup1\n      iszero\n      tag_51\n      jumpi\n      0x00\n      dup1\n      revert\n    tag_51:\n      pop\n      tag_52\n      tag_53\n      jump\t// in\n    tag_52:\n      mload(0x40)\n      tag_54\n      swap2\n      swap1\n      tag_21\n      jump\t// in\n    tag_54:\n      mload(0x40)\n      dup1\n      swap2\n      sub\n      swap1\n      return\n        /* \"contracts/Produce.sol\":1617:1852  function takeOrder() external onlyOwner returns (address order) {... */\n    tag_11:\n      callvalue\n      dup1\n      iszero\n      tag_55\n      jumpi\n      0x00\n      dup1\n      revert\n    tag_55:\n      pop\n      tag_56\n      tag_57\n      jump\t// in\n    tag_56:\n      mload(0x40)\n      tag_58\n      swap2\n      swap1\n      tag_37\n      jump\t// in\n    tag_58:\n      mload(0x40)\n      dup1\n      swap2\n      sub\n      swap1\n      return\n        /* \"contracts/Produce.sol\":173:194  address public farmer */\n    tag_12:\n      callvalue\n      dup1\n      iszero\n      tag_59\n      jumpi\n      0x00\n      dup1\n      revert\n    tag_59:\n      pop\n      tag_60\n      tag_61\n      jump\t// in\n    tag_60:\n      mload(0x40)\n      tag_62\n      swap2\n      swap1\n      tag_37\n      jump\t// in\n    tag_62:\n      mload(0x40)\n      dup1\n      swap2\n      sub\n      swap1\n      return\n        /* \"@openzeppelin/contracts/access/Ownable.sol\":2081:2279  function transferOwnership(address newOwner) public virtual onlyOwner {... */\n    tag_13:\n      callvalue\n      dup1\n      iszero\n      tag_63\n      jumpi\n      0x00\n      dup1\n      revert\n    tag_63:\n      pop\n      tag_64\n      0x04\n      dup1\n      calldatasize\n      sub\n      dup2\n      add\n      swap1\n      tag_65\n      swap2\n      swap1\n      tag_66\n      jump\t// in\n    tag_65:\n      tag_67\n      jump\t// in\n    tag_64:\n      stop\n        /* \"contracts/Produce.sol\":1168:1553  function placeOrder() external payable {... */\n    tag_14:\n      tag_68\n      tag_69\n      jump\t// in\n    tag_68:\n      stop\n        /* \"contracts/Produce.sol\":299:318  uint256 public name */\n    tag_19:\n      sload(0x05)\n      dup2\n      jump\t// out\n        /* \"contracts/Produce.sol\":257:292  uint256 public limitOnPendingOrders */\n    tag_24:\n      sload(0x04)\n      dup2\n      jump\t// out\n        /* \"contracts/Produce.sol\":350:374  uint256 public orderSize */\n    tag_28:\n      sload(0x07)\n      dup2\n      jump\t// out\n        /* \"@openzeppelin/contracts/access/Ownable.sol\":1831:1932  function renounceOwnership() public virtual onlyOwner {... */\n    tag_32:\n        /* \"@openzeppelin/contracts/access/Ownable.sol\":1094:1107  _checkOwner() */\n      tag_71\n        /* \"@openzeppelin/contracts/access/Ownable.sol\":1094:1105  _checkOwner */\n      tag_72\n        /* \"@openzeppelin/contracts/access/Ownable.sol\":1094:1107  _checkOwner() */\n      jump\t// in\n    tag_71:\n        /* \"@openzeppelin/contracts/access/Ownable.sol\":1895:1925  _transferOwnership(address(0)) */\n      tag_74\n        /* \"@openzeppelin/contracts/access/Ownable.sol\":1922:1923  0 */\n      0x00\n        /* \"@openzeppelin/contracts/access/Ownable.sol\":1895:1913  _transferOwnership */\n      tag_75\n        /* \"@openzeppelin/contracts/access/Ownable.sol\":1895:1925  _transferOwnership(address(0)) */\n      jump\t// in\n    tag_74:\n        /* \"@openzeppelin/contracts/access/Ownable.sol\":1831:1932  function renounceOwnership() public virtual onlyOwner {... */\n      jump\t// out\n        /* \"contracts/Produce.sol\":200:221  address public market */\n    tag_35:\n      0x02\n      0x00\n      swap1\n      sload\n      swap1\n      0x0100\n      exp\n      swap1\n      div\n      0xffffffffffffffffffffffffffffffffffffffff\n      and\n      dup2\n      jump\t// out\n        /* \"@openzeppelin/contracts/access/Ownable.sol\":1201:1286  function owner() public view virtual returns (address) {... */\n    tag_40:\n        /* \"@openzeppelin/contracts/access/Ownable.sol\":1247:1254  address */\n      0x00\n        /* \"@openzeppelin/contracts/access/Ownable.sol\":1273:1279  _owner */\n      dup1\n      0x00\n      swap1\n      sload\n      swap1\n      0x0100\n      exp\n      swap1\n      div\n      0xffffffffffffffffffffffffffffffffffffffff\n      and\n        /* \"@openzeppelin/contracts/access/Ownable.sol\":1266:1279  return _owner */\n      swap1\n      pop\n        /* \"@openzeppelin/contracts/access/Ownable.sol\":1201:1286  function owner() public view virtual returns (address) {... */\n      swap1\n      jump\t// out\n        /* \"contracts/Produce.sol\":324:344  uint256 public price */\n    tag_44:\n      sload(0x06)\n      dup2\n      jump\t// out\n        /* \"contracts/Produce.sol\":563:1115  function initilize(... */\n    tag_50:\n        /* \"contracts/Produce.sol\":786:805  State.UNINITIALIZED */\n      0x00\n        /* \"contracts/Produce.sol\":779:805  state==State.UNINITIALIZED */\n      0x01\n      dup2\n      gt\n      iszero\n      tag_78\n      jumpi\n      tag_79\n      tag_80\n      jump\t// in\n    tag_79:\n    tag_78:\n        /* \"contracts/Produce.sol\":779:784  state */\n      0x09\n      0x00\n      swap1\n      sload\n      swap1\n      0x0100\n      exp\n      swap1\n      div\n      0xff\n      and\n        /* \"contracts/Produce.sol\":779:805  state==State.UNINITIALIZED */\n      0x01\n      dup2\n      gt\n      iszero\n      tag_81\n      jumpi\n      tag_82\n      tag_80\n      jump\t// in\n    tag_82:\n    tag_81:\n      eq\n        /* \"contracts/Produce.sol\":771:850  require(state==State.UNINITIALIZED, \"This produce has already been initilized\") */\n      tag_83\n      jumpi\n      mload(0x40)\n      0x08c379a000000000000000000000000000000000000000000000000000000000\n      dup2\n      mstore\n      0x04\n      add\n      tag_84\n      swap1\n      tag_85\n      jump\t// in\n    tag_84:\n      mload(0x40)\n      dup1\n      swap2\n      sub\n      swap1\n      revert\n    tag_83:\n        /* \"contracts/Produce.sol\":860:887  _transferOwnership(_farmer) */\n      tag_86\n        /* \"contracts/Produce.sol\":879:886  _farmer */\n      dup7\n        /* \"contracts/Produce.sol\":860:878  _transferOwnership */\n      tag_75\n        /* \"contracts/Produce.sol\":860:887  _transferOwnership(_farmer) */\n      jump\t// in\n    tag_86:\n        /* \"contracts/Produce.sol\":906:916  msg.sender */\n      caller\n        /* \"contracts/Produce.sol\":897:903  market */\n      0x02\n      0x00\n        /* \"contracts/Produce.sol\":897:916  market = msg.sender */\n      0x0100\n      exp\n      dup2\n      sload\n      dup2\n      0xffffffffffffffffffffffffffffffffffffffff\n      mul\n      not\n      and\n      swap1\n      dup4\n      0xffffffffffffffffffffffffffffffffffffffff\n      and\n      mul\n      or\n      swap1\n      sstore\n      pop\n        /* \"contracts/Produce.sol\":949:970  _limitOnPendingOrders */\n      dup1\n        /* \"contracts/Produce.sol\":926:946  limitOnPendingOrders */\n      0x04\n        /* \"contracts/Produce.sol\":926:970  limitOnPendingOrders = _limitOnPendingOrders */\n      dup2\n      swap1\n      sstore\n      pop\n        /* \"contracts/Produce.sol\":987:992  _name */\n      dup5\n        /* \"contracts/Produce.sol\":980:984  name */\n      0x05\n        /* \"contracts/Produce.sol\":980:992  name = _name */\n      dup2\n      swap1\n      sstore\n      pop\n        /* \"contracts/Produce.sol\":1010:1016  _price */\n      dup4\n        /* \"contracts/Produce.sol\":1002:1007  price */\n      0x06\n        /* \"contracts/Produce.sol\":1002:1016  price = _price */\n      dup2\n      swap1\n      sstore\n      pop\n        /* \"contracts/Produce.sol\":1038:1048  _orderSize */\n      dup3\n        /* \"contracts/Produce.sol\":1026:1035  orderSize */\n      0x07\n        /* \"contracts/Produce.sol\":1026:1048  orderSize = _orderSize */\n      dup2\n      swap1\n      sstore\n      pop\n        /* \"contracts/Produce.sol\":1067:1074  _amount */\n      dup2\n        /* \"contracts/Produce.sol\":1058:1064  amount */\n      0x08\n        /* \"contracts/Produce.sol\":1058:1074  amount = _amount */\n      dup2\n      swap1\n      sstore\n      pop\n        /* \"contracts/Produce.sol\":1092:1108  State.PRODUCESET */\n      0x01\n        /* \"contracts/Produce.sol\":1084:1089  state */\n      0x09\n      0x00\n        /* \"contracts/Produce.sol\":1084:1108  state = State.PRODUCESET */\n      0x0100\n      exp\n      dup2\n      sload\n      dup2\n      0xff\n      mul\n      not\n      and\n      swap1\n      dup4\n      0x01\n      dup2\n      gt\n      iszero\n      tag_87\n      jumpi\n      tag_88\n      tag_80\n      jump\t// in\n    tag_88:\n    tag_87:\n      mul\n      or\n      swap1\n      sstore\n      pop\n        /* \"contracts/Produce.sol\":563:1115  function initilize(... */\n      pop\n      pop\n      pop\n      pop\n      pop\n      pop\n      jump\t// out\n        /* \"contracts/Produce.sol\":380:401  uint256 public amount */\n    tag_53:\n      sload(0x08)\n      dup2\n      jump\t// out\n        /* \"contracts/Produce.sol\":1617:1852  function takeOrder() external onlyOwner returns (address order) {... */\n    tag_57:\n        /* \"contracts/Produce.sol\":1666:1679  address order */\n      0x00\n        /* \"@openzeppelin/contracts/access/Ownable.sol\":1094:1107  _checkOwner() */\n      tag_90\n        /* \"@openzeppelin/contracts/access/Ownable.sol\":1094:1105  _checkOwner */\n      tag_72\n        /* \"@openzeppelin/contracts/access/Ownable.sol\":1094:1107  _checkOwner() */\n      jump\t// in\n    tag_90:\n        /* \"contracts/Produce.sol\":1715:1716  0 */\n      0x00\n        /* \"contracts/Produce.sol\":1699:1705  orders */\n      0x03\n        /* \"contracts/Produce.sol\":1699:1712  orders.length */\n      dup1\n      sload\n      swap1\n      pop\n        /* \"contracts/Produce.sol\":1699:1716  orders.length > 0 */\n      gt\n        /* \"contracts/Produce.sol\":1691:1738  require(orders.length > 0, \"No orders to take\") */\n      tag_92\n      jumpi\n      mload(0x40)\n      0x08c379a000000000000000000000000000000000000000000000000000000000\n      dup2\n      mstore\n      0x04\n      add\n      tag_93\n      swap1\n      tag_94\n      jump\t// in\n    tag_93:\n      mload(0x40)\n      dup1\n      swap2\n      sub\n      swap1\n      revert\n    tag_92:\n        /* \"contracts/Produce.sol\":1748:1767  address orderToTake */\n      0x00\n        /* \"contracts/Produce.sol\":1770:1776  orders */\n      0x03\n        /* \"contracts/Produce.sol\":1793:1794  1 */\n      0x01\n        /* \"contracts/Produce.sol\":1777:1783  orders */\n      0x03\n        /* \"contracts/Produce.sol\":1777:1790  orders.length */\n      dup1\n      sload\n      swap1\n      pop\n        /* \"contracts/Produce.sol\":1777:1794  orders.length - 1 */\n      tag_95\n      swap2\n      swap1\n      tag_96\n      jump\t// in\n    tag_95:\n        /* \"contracts/Produce.sol\":1770:1795  orders[orders.length - 1] */\n      dup2\n      sload\n      dup2\n      lt\n      tag_97\n      jumpi\n      tag_98\n      tag_99\n      jump\t// in\n    tag_98:\n    tag_97:\n      swap1\n      0x00\n      mstore\n      keccak256(0x00, 0x20)\n      add\n      0x00\n      swap1\n      sload\n      swap1\n      0x0100\n      exp\n      swap1\n      div\n      0xffffffffffffffffffffffffffffffffffffffff\n      and\n        /* \"contracts/Produce.sol\":1748:1795  address orderToTake = orders[orders.length - 1] */\n      swap1\n      pop\n        /* \"contracts/Produce.sol\":1805:1811  orders */\n      0x03\n        /* \"contracts/Produce.sol\":1805:1817  orders.pop() */\n      dup1\n      sload\n      dup1\n      tag_101\n      jumpi\n      tag_102\n      tag_103\n      jump\t// in\n    tag_102:\n    tag_101:\n      0x01\n      swap1\n      sub\n      dup2\n      dup2\n      swap1\n      0x00\n      mstore\n      keccak256(0x00, 0x20)\n      add\n      exp(0x0100, 0x00)\n      dup2\n      sload\n      swap1\n      0xffffffffffffffffffffffffffffffffffffffff\n      mul\n      not\n      and\n      swap1\n      sstore\n      swap1\n      sstore\n        /* \"contracts/Produce.sol\":1834:1845  orderToTake */\n      dup1\n        /* \"contracts/Produce.sol\":1827:1845  return orderToTake */\n      swap2\n      pop\n      pop\n        /* \"contracts/Produce.sol\":1617:1852  function takeOrder() external onlyOwner returns (address order) {... */\n      swap1\n      jump\t// out\n        /* \"contracts/Produce.sol\":173:194  address public farmer */\n    tag_61:\n      0x01\n      0x00\n      swap1\n      sload\n      swap1\n      0x0100\n      exp\n      swap1\n      div\n      0xffffffffffffffffffffffffffffffffffffffff\n      and\n      dup2\n      jump\t// out\n        /* \"@openzeppelin/contracts/access/Ownable.sol\":2081:2279  function transferOwnership(address newOwner) public virtual onlyOwner {... */\n    tag_67:\n        /* \"@openzeppelin/contracts/access/Ownable.sol\":1094:1107  _checkOwner() */\n      tag_106\n        /* \"@openzeppelin/contracts/access/Ownable.sol\":1094:1105  _checkOwner */\n      tag_72\n        /* \"@openzeppelin/contracts/access/Ownable.sol\":1094:1107  _checkOwner() */\n      jump\t// in\n    tag_106:\n        /* \"@openzeppelin/contracts/access/Ownable.sol\":2189:2190  0 */\n      0x00\n        /* \"@openzeppelin/contracts/access/Ownable.sol\":2169:2191  newOwner != address(0) */\n      0xffffffffffffffffffffffffffffffffffffffff\n      and\n        /* \"@openzeppelin/contracts/access/Ownable.sol\":2169:2177  newOwner */\n      dup2\n        /* \"@openzeppelin/contracts/access/Ownable.sol\":2169:2191  newOwner != address(0) */\n      0xffffffffffffffffffffffffffffffffffffffff\n      and\n      eq\n      iszero\n        /* \"@openzeppelin/contracts/access/Ownable.sol\":2161:2234  require(newOwner != address(0), \"Ownable: new owner is the zero address\") */\n      tag_108\n      jumpi\n      mload(0x40)\n      0x08c379a000000000000000000000000000000000000000000000000000000000\n      dup2\n      mstore\n      0x04\n      add\n      tag_109\n      swap1\n      tag_110\n      jump\t// in\n    tag_109:\n      mload(0x40)\n      dup1\n      swap2\n      sub\n      swap1\n      revert\n    tag_108:\n        /* \"@openzeppelin/contracts/access/Ownable.sol\":2244:2272  _transferOwnership(newOwner) */\n      tag_111\n        /* \"@openzeppelin/contracts/access/Ownable.sol\":2263:2271  newOwner */\n      dup2\n        /* \"@openzeppelin/contracts/access/Ownable.sol\":2244:2262  _transferOwnership */\n      tag_75\n        /* \"@openzeppelin/contracts/access/Ownable.sol\":2244:2272  _transferOwnership(newOwner) */\n      jump\t// in\n    tag_111:\n        /* \"@openzeppelin/contracts/access/Ownable.sol\":2081:2279  function transferOwnership(address newOwner) public virtual onlyOwner {... */\n      pop\n      jump\t// out\n        /* \"contracts/Produce.sol\":1168:1553  function placeOrder() external payable {... */\n    tag_69:\n        /* \"contracts/Produce.sol\":1252:1259  owner() */\n      tag_113\n        /* \"contracts/Produce.sol\":1252:1257  owner */\n      tag_40\n        /* \"contracts/Produce.sol\":1252:1259  owner() */\n      jump\t// in\n    tag_113:\n        /* \"contracts/Produce.sol\":1238:1259  msg.sender != owner() */\n      0xffffffffffffffffffffffffffffffffffffffff\n      and\n        /* \"contracts/Produce.sol\":1238:1248  msg.sender */\n      caller\n        /* \"contracts/Produce.sol\":1238:1259  msg.sender != owner() */\n      0xffffffffffffffffffffffffffffffffffffffff\n      and\n      eq\n      iszero\n        /* \"contracts/Produce.sol\":1217:1332  require(... */\n      tag_114\n      jumpi\n      mload(0x40)\n      0x08c379a000000000000000000000000000000000000000000000000000000000\n      dup2\n      mstore\n      0x04\n      add\n      tag_115\n      swap1\n      tag_116\n      jump\t// in\n    tag_115:\n      mload(0x40)\n      dup1\n      swap2\n      sub\n      swap1\n      revert\n    tag_114:\n        /* \"contracts/Produce.sol\":1388:1393  price */\n      sload(0x06)\n        /* \"contracts/Produce.sol\":1376:1385  orderSize */\n      sload(0x07)\n        /* \"contracts/Produce.sol\":1376:1393  orderSize * price */\n      tag_117\n      swap2\n      swap1\n      tag_118\n      jump\t// in\n    tag_117:\n        /* \"contracts/Produce.sol\":1363:1372  msg.value */\n      callvalue\n        /* \"contracts/Produce.sol\":1363:1393  msg.value == orderSize * price */\n      eq\n        /* \"contracts/Produce.sol\":1342:1458  require(... */\n      tag_119\n      jumpi\n      mload(0x40)\n      0x08c379a000000000000000000000000000000000000000000000000000000000\n      dup2\n      mstore\n      0x04\n      add\n      tag_120\n      swap1\n      tag_121\n      jump\t// in\n    tag_120:\n      mload(0x40)\n      dup1\n      swap2\n      sub\n      swap1\n      revert\n    tag_119:\n        /* \"contracts/Produce.sol\":1492:1512  limitOnPendingOrders */\n      sload(0x04)\n        /* \"contracts/Produce.sol\":1476:1482  orders */\n      0x03\n        /* \"contracts/Produce.sol\":1476:1489  orders.length */\n      dup1\n      sload\n      swap1\n      pop\n        /* \"contracts/Produce.sol\":1476:1512  orders.length < limitOnPendingOrders */\n      lt\n        /* \"contracts/Produce.sol\":1468:1513  require(orders.length < limitOnPendingOrders) */\n      tag_122\n      jumpi\n      0x00\n      dup1\n      revert\n    tag_122:\n        /* \"contracts/Produce.sol\":1523:1529  orders */\n      0x03\n        /* \"contracts/Produce.sol\":1535:1545  msg.sender */\n      caller\n        /* \"contracts/Produce.sol\":1523:1546  orders.push(msg.sender) */\n      swap1\n      dup1\n      0x01\n      dup2\n      sload\n      add\n      dup1\n      dup3\n      sstore\n      dup1\n      swap2\n      pop\n      pop\n      0x01\n      swap1\n      sub\n      swap1\n      0x00\n      mstore\n      keccak256(0x00, 0x20)\n      add\n      0x00\n      swap1\n      swap2\n      swap1\n      swap2\n      swap1\n      swap2\n      0x0100\n      exp\n      dup2\n      sload\n      dup2\n      0xffffffffffffffffffffffffffffffffffffffff\n      mul\n      not\n      and\n      swap1\n      dup4\n      0xffffffffffffffffffffffffffffffffffffffff\n      and\n      mul\n      or\n      swap1\n      sstore\n      pop\n        /* \"contracts/Produce.sol\":1168:1553  function placeOrder() external payable {... */\n      jump\t// out\n        /* \"@openzeppelin/contracts/access/Ownable.sol\":1359:1489  function _checkOwner() internal view virtual {... */\n    tag_72:\n        /* \"@openzeppelin/contracts/access/Ownable.sol\":1433:1445  _msgSender() */\n      tag_125\n        /* \"@openzeppelin/contracts/access/Ownable.sol\":1433:1443  _msgSender */\n      tag_126\n        /* \"@openzeppelin/contracts/access/Ownable.sol\":1433:1445  _msgSender() */\n      jump\t// in\n    tag_125:\n        /* \"@openzeppelin/contracts/access/Ownable.sol\":1422:1445  owner() == _msgSender() */\n      0xffffffffffffffffffffffffffffffffffffffff\n      and\n        /* \"@openzeppelin/contracts/access/Ownable.sol\":1422:1429  owner() */\n      tag_127\n        /* \"@openzeppelin/contracts/access/Ownable.sol\":1422:1427  owner */\n      tag_40\n        /* \"@openzeppelin/contracts/access/Ownable.sol\":1422:1429  owner() */\n      jump\t// in\n    tag_127:\n        /* \"@openzeppelin/contracts/access/Ownable.sol\":1422:1445  owner() == _msgSender() */\n      0xffffffffffffffffffffffffffffffffffffffff\n      and\n      eq\n        /* \"@openzeppelin/contracts/access/Ownable.sol\":1414:1482  require(owner() == _msgSender(), \"Ownable: caller is not the owner\") */\n      tag_128\n      jumpi\n      mload(0x40)\n      0x08c379a000000000000000000000000000000000000000000000000000000000\n      dup2\n      mstore\n      0x04\n      add\n      tag_129\n      swap1\n      tag_130\n      jump\t// in\n    tag_129:\n      mload(0x40)\n      dup1\n      swap2\n      sub\n      swap1\n      revert\n    tag_128:\n        /* \"@openzeppelin/contracts/access/Ownable.sol\":1359:1489  function _checkOwner() internal view virtual {... */\n      jump\t// out\n        /* \"@openzeppelin/contracts/access/Ownable.sol\":2433:2620  function _transferOwnership(address newOwner) internal virtual {... */\n    tag_75:\n        /* \"@openzeppelin/contracts/access/Ownable.sol\":2506:2522  address oldOwner */\n      0x00\n        /* \"@openzeppelin/contracts/access/Ownable.sol\":2525:2531  _owner */\n      dup1\n      0x00\n      swap1\n      sload\n      swap1\n      0x0100\n      exp\n      swap1\n      div\n      0xffffffffffffffffffffffffffffffffffffffff\n      and\n        /* \"@openzeppelin/contracts/access/Ownable.sol\":2506:2531  address oldOwner = _owner */\n      swap1\n      pop\n        /* \"@openzeppelin/contracts/access/Ownable.sol\":2550:2558  newOwner */\n      dup2\n        /* \"@openzeppelin/contracts/access/Ownable.sol\":2541:2547  _owner */\n      0x00\n      dup1\n        /* \"@openzeppelin/contracts/access/Ownable.sol\":2541:2558  _owner = newOwner */\n      0x0100\n      exp\n      dup2\n      sload\n      dup2\n      0xffffffffffffffffffffffffffffffffffffffff\n      mul\n      not\n      and\n      swap1\n      dup4\n      0xffffffffffffffffffffffffffffffffffffffff\n      and\n      mul\n      or\n      swap1\n      sstore\n      pop\n        /* \"@openzeppelin/contracts/access/Ownable.sol\":2604:2612  newOwner */\n      dup2\n        /* \"@openzeppelin/contracts/access/Ownable.sol\":2573:2613  OwnershipTransferred(oldOwner, newOwner) */\n      0xffffffffffffffffffffffffffffffffffffffff\n      and\n        /* \"@openzeppelin/contracts/access/Ownable.sol\":2594:2602  oldOwner */\n      dup2\n        /* \"@openzeppelin/contracts/access/Ownable.sol\":2573:2613  OwnershipTransferred(oldOwner, newOwner) */\n      0xffffffffffffffffffffffffffffffffffffffff\n      and\n      0x8be0079c531659141344cd1fd0a4f28419497f9722a3daafe3b4186f6b6457e0\n      mload(0x40)\n      mload(0x40)\n      dup1\n      swap2\n      sub\n      swap1\n      log3\n        /* \"@openzeppelin/contracts/access/Ownable.sol\":2496:2620  {... */\n      pop\n        /* \"@openzeppelin/contracts/access/Ownable.sol\":2433:2620  function _transferOwnership(address newOwner) internal virtual {... */\n      pop\n      jump\t// out\n        /* \"@openzeppelin/contracts/utils/Context.sol\":640:736  function _msgSender() internal view virtual returns (address) {... */\n    tag_126:\n        /* \"@openzeppelin/contracts/utils/Context.sol\":693:700  address */\n      0x00\n        /* \"@openzeppelin/contracts/utils/Context.sol\":719:729  msg.sender */\n      caller\n        /* \"@openzeppelin/contracts/utils/Context.sol\":712:729  return msg.sender */\n      swap1\n      pop\n        /* \"@openzeppelin/contracts/utils/Context.sol\":640:736  function _msgSender() internal view virtual returns (address) {... */\n      swap1\n      jump\t// out\n        /* \"#utility.yul\":7:146   */\n    tag_134:\n        /* \"#utility.yul\":53:58   */\n      0x00\n        /* \"#utility.yul\":91:97   */\n      dup2\n        /* \"#utility.yul\":78:98   */\n      calldataload\n        /* \"#utility.yul\":69:98   */\n      swap1\n      pop\n        /* \"#utility.yul\":107:140   */\n      tag_136\n        /* \"#utility.yul\":134:139   */\n      dup2\n        /* \"#utility.yul\":107:140   */\n      tag_137\n      jump\t// in\n    tag_136:\n        /* \"#utility.yul\":7:146   */\n      swap3\n      swap2\n      pop\n      pop\n      jump\t// out\n        /* \"#utility.yul\":152:291   */\n    tag_138:\n        /* \"#utility.yul\":198:203   */\n      0x00\n        /* \"#utility.yul\":236:242   */\n      dup2\n        /* \"#utility.yul\":223:243   */\n      calldataload\n        /* \"#utility.yul\":214:243   */\n      swap1\n      pop\n        /* \"#utility.yul\":252:285   */\n      tag_140\n        /* \"#utility.yul\":279:284   */\n      dup2\n        /* \"#utility.yul\":252:285   */\n      tag_141\n      jump\t// in\n    tag_140:\n        /* \"#utility.yul\":152:291   */\n      swap3\n      swap2\n      pop\n      pop\n      jump\t// out\n        /* \"#utility.yul\":297:626   */\n    tag_66:\n        /* \"#utility.yul\":356:362   */\n      0x00\n        /* \"#utility.yul\":405:407   */\n      0x20\n        /* \"#utility.yul\":393:402   */\n      dup3\n        /* \"#utility.yul\":384:391   */\n      dup5\n        /* \"#utility.yul\":380:403   */\n      sub\n        /* \"#utility.yul\":376:408   */\n      slt\n        /* \"#utility.yul\":373:492   */\n      iszero\n      tag_143\n      jumpi\n        /* \"#utility.yul\":411:490   */\n      tag_144\n      tag_145\n      jump\t// in\n    tag_144:\n        /* \"#utility.yul\":373:492   */\n    tag_143:\n        /* \"#utility.yul\":531:532   */\n      0x00\n        /* \"#utility.yul\":556:609   */\n      tag_146\n        /* \"#utility.yul\":601:608   */\n      dup5\n        /* \"#utility.yul\":592:598   */\n      dup3\n        /* \"#utility.yul\":581:590   */\n      dup6\n        /* \"#utility.yul\":577:599   */\n      add\n        /* \"#utility.yul\":556:609   */\n      tag_134\n      jump\t// in\n    tag_146:\n        /* \"#utility.yul\":546:609   */\n      swap2\n      pop\n        /* \"#utility.yul\":502:619   */\n      pop\n        /* \"#utility.yul\":297:626   */\n      swap3\n      swap2\n      pop\n      pop\n      jump\t// out\n        /* \"#utility.yul\":632:1689   */\n    tag_49:\n        /* \"#utility.yul\":736:742   */\n      0x00\n        /* \"#utility.yul\":744:750   */\n      dup1\n        /* \"#utility.yul\":752:758   */\n      0x00\n        /* \"#utility.yul\":760:766   */\n      dup1\n        /* \"#utility.yul\":768:774   */\n      0x00\n        /* \"#utility.yul\":776:782   */\n      dup1\n        /* \"#utility.yul\":825:828   */\n      0xc0\n        /* \"#utility.yul\":813:822   */\n      dup8\n        /* \"#utility.yul\":804:811   */\n      dup10\n        /* \"#utility.yul\":800:823   */\n      sub\n        /* \"#utility.yul\":796:829   */\n      slt\n        /* \"#utility.yul\":793:913   */\n      iszero\n      tag_148\n      jumpi\n        /* \"#utility.yul\":832:911   */\n      tag_149\n      tag_145\n      jump\t// in\n    tag_149:\n        /* \"#utility.yul\":793:913   */\n    tag_148:\n        /* \"#utility.yul\":952:953   */\n      0x00\n        /* \"#utility.yul\":977:1030   */\n      tag_150\n        /* \"#utility.yul\":1022:1029   */\n      dup10\n        /* \"#utility.yul\":1013:1019   */\n      dup3\n        /* \"#utility.yul\":1002:1011   */\n      dup11\n        /* \"#utility.yul\":998:1020   */\n      add\n        /* \"#utility.yul\":977:1030   */\n      tag_134\n      jump\t// in\n    tag_150:\n        /* \"#utility.yul\":967:1030   */\n      swap7\n      pop\n        /* \"#utility.yul\":923:1040   */\n      pop\n        /* \"#utility.yul\":1079:1081   */\n      0x20\n        /* \"#utility.yul\":1105:1158   */\n      tag_151\n        /* \"#utility.yul\":1150:1157   */\n      dup10\n        /* \"#utility.yul\":1141:1147   */\n      dup3\n        /* \"#utility.yul\":1130:1139   */\n      dup11\n        /* \"#utility.yul\":1126:1148   */\n      add\n        /* \"#utility.yul\":1105:1158   */\n      tag_138\n      jump\t// in\n    tag_151:\n        /* \"#utility.yul\":1095:1158   */\n      swap6\n      pop\n        /* \"#utility.yul\":1050:1168   */\n      pop\n        /* \"#utility.yul\":1207:1209   */\n      0x40\n        /* \"#utility.yul\":1233:1286   */\n      tag_152\n        /* \"#utility.yul\":1278:1285   */\n      dup10\n        /* \"#utility.yul\":1269:1275   */\n      dup3\n        /* \"#utility.yul\":1258:1267   */\n      dup11\n        /* \"#utility.yul\":1254:1276   */\n      add\n        /* \"#utility.yul\":1233:1286   */\n      tag_138\n      jump\t// in\n    tag_152:\n        /* \"#utility.yul\":1223:1286   */\n      swap5\n      pop\n        /* \"#utility.yul\":1178:1296   */\n      pop\n        /* \"#utility.yul\":1335:1337   */\n      0x60\n        /* \"#utility.yul\":1361:1414   */\n      tag_153\n        /* \"#utility.yul\":1406:1413   */\n      dup10\n        /* \"#utility.yul\":1397:1403   */\n      dup3\n        /* \"#utility.yul\":1386:1395   */\n      dup11\n        /* \"#utility.yul\":1382:1404   */\n      add\n        /* \"#utility.yul\":1361:1414   */\n      tag_138\n      jump\t// in\n    tag_153:\n        /* \"#utility.yul\":1351:1414   */\n      swap4\n      pop\n        /* \"#utility.yul\":1306:1424   */\n      pop\n        /* \"#utility.yul\":1463:1466   */\n      0x80\n        /* \"#utility.yul\":1490:1543   */\n      tag_154\n        /* \"#utility.yul\":1535:1542   */\n      dup10\n        /* \"#utility.yul\":1526:1532   */\n      dup3\n        /* \"#utility.yul\":1515:1524   */\n      dup11\n        /* \"#utility.yul\":1511:1533   */\n      add\n        /* \"#utility.yul\":1490:1543   */\n      tag_138\n      jump\t// in\n    tag_154:\n        /* \"#utility.yul\":1480:1543   */\n      swap3\n      pop\n        /* \"#utility.yul\":1434:1553   */\n      pop\n        /* \"#utility.yul\":1592:1595   */\n      0xa0\n        /* \"#utility.yul\":1619:1672   */\n      tag_155\n        /* \"#utility.yul\":1664:1671   */\n      dup10\n        /* \"#utility.yul\":1655:1661   */\n      dup3\n        /* \"#utility.yul\":1644:1653   */\n      dup11\n        /* \"#utility.yul\":1640:1662   */\n      add\n        /* \"#utility.yul\":1619:1672   */\n      tag_138\n      jump\t// in\n    tag_155:\n        /* \"#utility.yul\":1609:1672   */\n      swap2\n      pop\n        /* \"#utility.yul\":1563:1682   */\n      pop\n        /* \"#utility.yul\":632:1689   */\n      swap3\n      swap6\n      pop\n      swap3\n      swap6\n      pop\n      swap3\n      swap6\n      jump\t// out\n        /* \"#utility.yul\":1695:1813   */\n    tag_156:\n        /* \"#utility.yul\":1782:1806   */\n      tag_158\n        /* \"#utility.yul\":1800:1805   */\n      dup2\n        /* \"#utility.yul\":1782:1806   */\n      tag_159\n      jump\t// in\n    tag_158:\n        /* \"#utility.yul\":1777:1780   */\n      dup3\n        /* \"#utility.yul\":1770:1807   */\n      mstore\n        /* \"#utility.yul\":1695:1813   */\n      pop\n      pop\n      jump\t// out\n        /* \"#utility.yul\":1819:2185   */\n    tag_160:\n        /* \"#utility.yul\":1961:1964   */\n      0x00\n        /* \"#utility.yul\":1982:2049   */\n      tag_162\n        /* \"#utility.yul\":2046:2048   */\n      0x27\n        /* \"#utility.yul\":2041:2044   */\n      dup4\n        /* \"#utility.yul\":1982:2049   */\n      tag_163\n      jump\t// in\n    tag_162:\n        /* \"#utility.yul\":1975:2049   */\n      swap2\n      pop\n        /* \"#utility.yul\":2058:2151   */\n      tag_164\n        /* \"#utility.yul\":2147:2150   */\n      dup3\n        /* \"#utility.yul\":2058:2151   */\n      tag_165\n      jump\t// in\n    tag_164:\n        /* \"#utility.yul\":2176:2178   */\n      0x40\n        /* \"#utility.yul\":2171:2174   */\n      dup3\n        /* \"#utility.yul\":2167:2179   */\n      add\n        /* \"#utility.yul\":2160:2179   */\n      swap1\n      pop\n        /* \"#utility.yul\":1819:2185   */\n      swap2\n      swap1\n      pop\n      jump\t// out\n        /* \"#utility.yul\":2191:2557   */\n    tag_166:\n        /* \"#utility.yul\":2333:2336   */\n      0x00\n        /* \"#utility.yul\":2354:2421   */\n      tag_168\n        /* \"#utility.yul\":2418:2420   */\n      0x26\n        /* \"#utility.yul\":2413:2416   */\n      dup4\n        /* \"#utility.yul\":2354:2421   */\n      tag_163\n      jump\t// in\n    tag_168:\n        /* \"#utility.yul\":2347:2421   */\n      swap2\n      pop\n        /* \"#utility.yul\":2430:2523   */\n      tag_169\n        /* \"#utility.yul\":2519:2522   */\n      dup3\n        /* \"#utility.yul\":2430:2523   */\n      tag_170\n      jump\t// in\n    tag_169:\n        /* \"#utility.yul\":2548:2550   */\n      0x40\n        /* \"#utility.yul\":2543:2546   */\n      dup3\n        /* \"#utility.yul\":2539:2551   */\n      add\n        /* \"#utility.yul\":2532:2551   */\n      swap1\n      pop\n        /* \"#utility.yul\":2191:2557   */\n      swap2\n      swap1\n      pop\n      jump\t// out\n        /* \"#utility.yul\":2563:2929   */\n    tag_171:\n        /* \"#utility.yul\":2705:2708   */\n      0x00\n        /* \"#utility.yul\":2726:2793   */\n      tag_173\n        /* \"#utility.yul\":2790:2792   */\n      0x28\n        /* \"#utility.yul\":2785:2788   */\n      dup4\n        /* \"#utility.yul\":2726:2793   */\n      tag_163\n      jump\t// in\n    tag_173:\n        /* \"#utility.yul\":2719:2793   */\n      swap2\n      pop\n        /* \"#utility.yul\":2802:2895   */\n      tag_174\n        /* \"#utility.yul\":2891:2894   */\n      dup3\n        /* \"#utility.yul\":2802:2895   */\n      tag_175\n      jump\t// in\n    tag_174:\n        /* \"#utility.yul\":2920:2922   */\n      0x40\n        /* \"#utility.yul\":2915:2918   */\n      dup3\n        /* \"#utility.yul\":2911:2923   */\n      add\n        /* \"#utility.yul\":2904:2923   */\n      swap1\n      pop\n        /* \"#utility.yul\":2563:2929   */\n      swap2\n      swap1\n      pop\n      jump\t// out\n        /* \"#utility.yul\":2935:3301   */\n    tag_176:\n        /* \"#utility.yul\":3077:3080   */\n      0x00\n        /* \"#utility.yul\":3098:3165   */\n      tag_178\n        /* \"#utility.yul\":3162:3164   */\n      0x2f\n        /* \"#utility.yul\":3157:3160   */\n      dup4\n        /* \"#utility.yul\":3098:3165   */\n      tag_163\n      jump\t// in\n    tag_178:\n        /* \"#utility.yul\":3091:3165   */\n      swap2\n      pop\n        /* \"#utility.yul\":3174:3267   */\n      tag_179\n        /* \"#utility.yul\":3263:3266   */\n      dup3\n        /* \"#utility.yul\":3174:3267   */\n      tag_180\n      jump\t// in\n    tag_179:\n        /* \"#utility.yul\":3292:3294   */\n      0x40\n        /* \"#utility.yul\":3287:3290   */\n      dup3\n        /* \"#utility.yul\":3283:3295   */\n      add\n        /* \"#utility.yul\":3276:3295   */\n      swap1\n      pop\n        /* \"#utility.yul\":2935:3301   */\n      swap2\n      swap1\n      pop\n      jump\t// out\n        /* \"#utility.yul\":3307:3673   */\n    tag_181:\n        /* \"#utility.yul\":3449:3452   */\n      0x00\n        /* \"#utility.yul\":3470:3537   */\n      tag_183\n        /* \"#utility.yul\":3534:3536   */\n      0x20\n        /* \"#utility.yul\":3529:3532   */\n      dup4\n        /* \"#utility.yul\":3470:3537   */\n      tag_163\n      jump\t// in\n    tag_183:\n        /* \"#utility.yul\":3463:3537   */\n      swap2\n      pop\n        /* \"#utility.yul\":3546:3639   */\n      tag_184\n        /* \"#utility.yul\":3635:3638   */\n      dup3\n        /* \"#utility.yul\":3546:3639   */\n      tag_185\n      jump\t// in\n    tag_184:\n        /* \"#utility.yul\":3664:3666   */\n      0x20\n        /* \"#utility.yul\":3659:3662   */\n      dup3\n        /* \"#utility.yul\":3655:3667   */\n      add\n        /* \"#utility.yul\":3648:3667   */\n      swap1\n      pop\n        /* \"#utility.yul\":3307:3673   */\n      swap2\n      swap1\n      pop\n      jump\t// out\n        /* \"#utility.yul\":3679:4045   */\n    tag_186:\n        /* \"#utility.yul\":3821:3824   */\n      0x00\n        /* \"#utility.yul\":3842:3909   */\n      tag_188\n        /* \"#utility.yul\":3906:3908   */\n      0x11\n        /* \"#utility.yul\":3901:3904   */\n      dup4\n        /* \"#utility.yul\":3842:3909   */\n      tag_163\n      jump\t// in\n    tag_188:\n        /* \"#utility.yul\":3835:3909   */\n      swap2\n      pop\n        /* \"#utility.yul\":3918:4011   */\n      tag_189\n        /* \"#utility.yul\":4007:4010   */\n      dup3\n        /* \"#utility.yul\":3918:4011   */\n      tag_190\n      jump\t// in\n    tag_189:\n        /* \"#utility.yul\":4036:4038   */\n      0x20\n        /* \"#utility.yul\":4031:4034   */\n      dup3\n        /* \"#utility.yul\":4027:4039   */\n      add\n        /* \"#utility.yul\":4020:4039   */\n      swap1\n      pop\n        /* \"#utility.yul\":3679:4045   */\n      swap2\n      swap1\n      pop\n      jump\t// out\n        /* \"#utility.yul\":4051:4169   */\n    tag_191:\n        /* \"#utility.yul\":4138:4162   */\n      tag_193\n        /* \"#utility.yul\":4156:4161   */\n      dup2\n        /* \"#utility.yul\":4138:4162   */\n      tag_194\n      jump\t// in\n    tag_193:\n        /* \"#utility.yul\":4133:4136   */\n      dup3\n        /* \"#utility.yul\":4126:4163   */\n      mstore\n        /* \"#utility.yul\":4051:4169   */\n      pop\n      pop\n      jump\t// out\n        /* \"#utility.yul\":4175:4397   */\n    tag_37:\n        /* \"#utility.yul\":4268:4272   */\n      0x00\n        /* \"#utility.yul\":4306:4308   */\n      0x20\n        /* \"#utility.yul\":4295:4304   */\n      dup3\n        /* \"#utility.yul\":4291:4309   */\n      add\n        /* \"#utility.yul\":4283:4309   */\n      swap1\n      pop\n        /* \"#utility.yul\":4319:4390   */\n      tag_196\n        /* \"#utility.yul\":4387:4388   */\n      0x00\n        /* \"#utility.yul\":4376:4385   */\n      dup4\n        /* \"#utility.yul\":4372:4389   */\n      add\n        /* \"#utility.yul\":4363:4369   */\n      dup5\n        /* \"#utility.yul\":4319:4390   */\n      tag_156\n      jump\t// in\n    tag_196:\n        /* \"#utility.yul\":4175:4397   */\n      swap3\n      swap2\n      pop\n      pop\n      jump\t// out\n        /* \"#utility.yul\":4403:4822   */\n    tag_121:\n        /* \"#utility.yul\":4569:4573   */\n      0x00\n        /* \"#utility.yul\":4607:4609   */\n      0x20\n        /* \"#utility.yul\":4596:4605   */\n      dup3\n        /* \"#utility.yul\":4592:4610   */\n      add\n        /* \"#utility.yul\":4584:4610   */\n      swap1\n      pop\n        /* \"#utility.yul\":4656:4665   */\n      dup2\n        /* \"#utility.yul\":4650:4654   */\n      dup2\n        /* \"#utility.yul\":4646:4666   */\n      sub\n        /* \"#utility.yul\":4642:4643   */\n      0x00\n        /* \"#utility.yul\":4631:4640   */\n      dup4\n        /* \"#utility.yul\":4627:4644   */\n      add\n        /* \"#utility.yul\":4620:4667   */\n      mstore\n        /* \"#utility.yul\":4684:4815   */\n      tag_198\n        /* \"#utility.yul\":4810:4814   */\n      dup2\n        /* \"#utility.yul\":4684:4815   */\n      tag_160\n      jump\t// in\n    tag_198:\n        /* \"#utility.yul\":4676:4815   */\n      swap1\n      pop\n        /* \"#utility.yul\":4403:4822   */\n      swap2\n      swap1\n      pop\n      jump\t// out\n        /* \"#utility.yul\":4828:5247   */\n    tag_110:\n        /* \"#utility.yul\":4994:4998   */\n      0x00\n        /* \"#utility.yul\":5032:5034   */\n      0x20\n        /* \"#utility.yul\":5021:5030   */\n      dup3\n        /* \"#utility.yul\":5017:5035   */\n      add\n        /* \"#utility.yul\":5009:5035   */\n      swap1\n      pop\n        /* \"#utility.yul\":5081:5090   */\n      dup2\n        /* \"#utility.yul\":5075:5079   */\n      dup2\n        /* \"#utility.yul\":5071:5091   */\n      sub\n        /* \"#utility.yul\":5067:5068   */\n      0x00\n        /* \"#utility.yul\":5056:5065   */\n      dup4\n        /* \"#utility.yul\":5052:5069   */\n      add\n        /* \"#utility.yul\":5045:5092   */\n      mstore\n        /* \"#utility.yul\":5109:5240   */\n      tag_200\n        /* \"#utility.yul\":5235:5239   */\n      dup2\n        /* \"#utility.yul\":5109:5240   */\n      tag_166\n      jump\t// in\n    tag_200:\n        /* \"#utility.yul\":5101:5240   */\n      swap1\n      pop\n        /* \"#utility.yul\":4828:5247   */\n      swap2\n      swap1\n      pop\n      jump\t// out\n        /* \"#utility.yul\":5253:5672   */\n    tag_85:\n        /* \"#utility.yul\":5419:5423   */\n      0x00\n        /* \"#utility.yul\":5457:5459   */\n      0x20\n        /* \"#utility.yul\":5446:5455   */\n      dup3\n        /* \"#utility.yul\":5442:5460   */\n      add\n        /* \"#utility.yul\":5434:5460   */\n      swap1\n      pop\n        /* \"#utility.yul\":5506:5515   */\n      dup2\n        /* \"#utility.yul\":5500:5504   */\n      dup2\n        /* \"#utility.yul\":5496:5516   */\n      sub\n        /* \"#utility.yul\":5492:5493   */\n      0x00\n        /* \"#utility.yul\":5481:5490   */\n      dup4\n        /* \"#utility.yul\":5477:5494   */\n      add\n        /* \"#utility.yul\":5470:5517   */\n      mstore\n        /* \"#utility.yul\":5534:5665   */\n      tag_202\n        /* \"#utility.yul\":5660:5664   */\n      dup2\n        /* \"#utility.yul\":5534:5665   */\n      tag_171\n      jump\t// in\n    tag_202:\n        /* \"#utility.yul\":5526:5665   */\n      swap1\n      pop\n        /* \"#utility.yul\":5253:5672   */\n      swap2\n      swap1\n      pop\n      jump\t// out\n        /* \"#utility.yul\":5678:6097   */\n    tag_116:\n        /* \"#utility.yul\":5844:5848   */\n      0x00\n        /* \"#utility.yul\":5882:5884   */\n      0x20\n        /* \"#utility.yul\":5871:5880   */\n      dup3\n        /* \"#utility.yul\":5867:5885   */\n      add\n        /* \"#utility.yul\":5859:5885   */\n      swap1\n      pop\n        /* \"#utility.yul\":5931:5940   */\n      dup2\n        /* \"#utility.yul\":5925:5929   */\n      dup2\n        /* \"#utility.yul\":5921:5941   */\n      sub\n        /* \"#utility.yul\":5917:5918   */\n      0x00\n        /* \"#utility.yul\":5906:5915   */\n      dup4\n        /* \"#utility.yul\":5902:5919   */\n      add\n        /* \"#utility.yul\":5895:5942   */\n      mstore\n        /* \"#utility.yul\":5959:6090   */\n      tag_204\n        /* \"#utility.yul\":6085:6089   */\n      dup2\n        /* \"#utility.yul\":5959:6090   */\n      tag_176\n      jump\t// in\n    tag_204:\n        /* \"#utility.yul\":5951:6090   */\n      swap1\n      pop\n        /* \"#utility.yul\":5678:6097   */\n      swap2\n      swap1\n      pop\n      jump\t// out\n        /* \"#utility.yul\":6103:6522   */\n    tag_130:\n        /* \"#utility.yul\":6269:6273   */\n      0x00\n        /* \"#utility.yul\":6307:6309   */\n      0x20\n        /* \"#utility.yul\":6296:6305   */\n      dup3\n        /* \"#utility.yul\":6292:6310   */\n      add\n        /* \"#utility.yul\":6284:6310   */\n      swap1\n      pop\n        /* \"#utility.yul\":6356:6365   */\n      dup2\n        /* \"#utility.yul\":6350:6354   */\n      dup2\n        /* \"#utility.yul\":6346:6366   */\n      sub\n        /* \"#utility.yul\":6342:6343   */\n      0x00\n        /* \"#utility.yul\":6331:6340   */\n      dup4\n        /* \"#utility.yul\":6327:6344   */\n      add\n        /* \"#utility.yul\":6320:6367   */\n      mstore\n        /* \"#utility.yul\":6384:6515   */\n      tag_206\n        /* \"#utility.yul\":6510:6514   */\n      dup2\n        /* \"#utility.yul\":6384:6515   */\n      tag_181\n      jump\t// in\n    tag_206:\n        /* \"#utility.yul\":6376:6515   */\n      swap1\n      pop\n        /* \"#utility.yul\":6103:6522   */\n      swap2\n      swap1\n      pop\n      jump\t// out\n        /* \"#utility.yul\":6528:6947   */\n    tag_94:\n        /* \"#utility.yul\":6694:6698   */\n      0x00\n        /* \"#utility.yul\":6732:6734   */\n      0x20\n        /* \"#utility.yul\":6721:6730   */\n      dup3\n        /* \"#utility.yul\":6717:6735   */\n      add\n        /* \"#utility.yul\":6709:6735   */\n      swap1\n      pop\n        /* \"#utility.yul\":6781:6790   */\n      dup2\n        /* \"#utility.yul\":6775:6779   */\n      dup2\n        /* \"#utility.yul\":6771:6791   */\n      sub\n        /* \"#utility.yul\":6767:6768   */\n      0x00\n        /* \"#utility.yul\":6756:6765   */\n      dup4\n        /* \"#utility.yul\":6752:6769   */\n      add\n        /* \"#utility.yul\":6745:6792   */\n      mstore\n        /* \"#utility.yul\":6809:6940   */\n      tag_208\n        /* \"#utility.yul\":6935:6939   */\n      dup2\n        /* \"#utility.yul\":6809:6940   */\n      tag_186\n      jump\t// in\n    tag_208:\n        /* \"#utility.yul\":6801:6940   */\n      swap1\n      pop\n        /* \"#utility.yul\":6528:6947   */\n      swap2\n      swap1\n      pop\n      jump\t// out\n        /* \"#utility.yul\":6953:7175   */\n    tag_21:\n        /* \"#utility.yul\":7046:7050   */\n      0x00\n        /* \"#utility.yul\":7084:7086   */\n      0x20\n        /* \"#utility.yul\":7073:7082   */\n      dup3\n        /* \"#utility.yul\":7069:7087   */\n      add\n        /* \"#utility.yul\":7061:7087   */\n      swap1\n      pop\n        /* \"#utility.yul\":7097:7168   */\n      tag_210\n        /* \"#utility.yul\":7165:7166   */\n      0x00\n        /* \"#utility.yul\":7154:7163   */\n      dup4\n        /* \"#utility.yul\":7150:7167   */\n      add\n        /* \"#utility.yul\":7141:7147   */\n      dup5\n        /* \"#utility.yul\":7097:7168   */\n      tag_191\n      jump\t// in\n    tag_210:\n        /* \"#utility.yul\":6953:7175   */\n      swap3\n      swap2\n      pop\n      pop\n      jump\t// out\n        /* \"#utility.yul\":7262:7431   */\n    tag_163:\n        /* \"#utility.yul\":7346:7357   */\n      0x00\n        /* \"#utility.yul\":7380:7386   */\n      dup3\n        /* \"#utility.yul\":7375:7378   */\n      dup3\n        /* \"#utility.yul\":7368:7387   */\n      mstore\n        /* \"#utility.yul\":7420:7424   */\n      0x20\n        /* \"#utility.yul\":7415:7418   */\n      dup3\n        /* \"#utility.yul\":7411:7425   */\n      add\n        /* \"#utility.yul\":7396:7425   */\n      swap1\n      pop\n        /* \"#utility.yul\":7262:7431   */\n      swap3\n      swap2\n      pop\n      pop\n      jump\t// out\n        /* \"#utility.yul\":7437:7785   */\n    tag_118:\n        /* \"#utility.yul\":7477:7484   */\n      0x00\n        /* \"#utility.yul\":7500:7520   */\n      tag_215\n        /* \"#utility.yul\":7518:7519   */\n      dup3\n        /* \"#utility.yul\":7500:7520   */\n      tag_194\n      jump\t// in\n    tag_215:\n        /* \"#utility.yul\":7495:7520   */\n      swap2\n      pop\n        /* \"#utility.yul\":7534:7554   */\n      tag_216\n        /* \"#utility.yul\":7552:7553   */\n      dup4\n        /* \"#utility.yul\":7534:7554   */\n      tag_194\n      jump\t// in\n    tag_216:\n        /* \"#utility.yul\":7529:7554   */\n      swap3\n      pop\n        /* \"#utility.yul\":7722:7723   */\n      dup2\n        /* \"#utility.yul\":7654:7720   */\n      0xffffffffffffffffffffffffffffffffffffffffffffffffffffffffffffffff\n        /* \"#utility.yul\":7650:7724   */\n      div\n        /* \"#utility.yul\":7647:7648   */\n      dup4\n        /* \"#utility.yul\":7644:7725   */\n      gt\n        /* \"#utility.yul\":7639:7640   */\n      dup3\n        /* \"#utility.yul\":7632:7641   */\n      iszero\n        /* \"#utility.yul\":7625:7642   */\n      iszero\n        /* \"#utility.yul\":7621:7726   */\n      and\n        /* \"#utility.yul\":7618:7749   */\n      iszero\n      tag_217\n      jumpi\n        /* \"#utility.yul\":7729:7747   */\n      tag_218\n      tag_219\n      jump\t// in\n    tag_218:\n        /* \"#utility.yul\":7618:7749   */\n    tag_217:\n        /* \"#utility.yul\":7777:7778   */\n      dup3\n        /* \"#utility.yul\":7774:7775   */\n      dup3\n        /* \"#utility.yul\":7770:7779   */\n      mul\n        /* \"#utility.yul\":7759:7779   */\n      swap1\n      pop\n        /* \"#utility.yul\":7437:7785   */\n      swap3\n      swap2\n      pop\n      pop\n      jump\t// out\n        /* \"#utility.yul\":7791:7982   */\n    tag_96:\n        /* \"#utility.yul\":7831:7835   */\n      0x00\n        /* \"#utility.yul\":7851:7871   */\n      tag_221\n        /* \"#utility.yul\":7869:7870   */\n      dup3\n        /* \"#utility.yul\":7851:7871   */\n      tag_194\n      jump\t// in\n    tag_221:\n        /* \"#utility.yul\":7846:7871   */\n      swap2\n      pop\n        /* \"#utility.yul\":7885:7905   */\n      tag_222\n        /* \"#utility.yul\":7903:7904   */\n      dup4\n        /* \"#utility.yul\":7885:7905   */\n      tag_194\n      jump\t// in\n    tag_222:\n        /* \"#utility.yul\":7880:7905   */\n      swap3\n      pop\n        /* \"#utility.yul\":7924:7925   */\n      dup3\n        /* \"#utility.yul\":7921:7922   */\n      dup3\n        /* \"#utility.yul\":7918:7926   */\n      lt\n        /* \"#utility.yul\":7915:7949   */\n      iszero\n      tag_223\n      jumpi\n        /* \"#utility.yul\":7929:7947   */\n      tag_224\n      tag_219\n      jump\t// in\n    tag_224:\n        /* \"#utility.yul\":7915:7949   */\n    tag_223:\n        /* \"#utility.yul\":7974:7975   */\n      dup3\n        /* \"#utility.yul\":7971:7972   */\n      dup3\n        /* \"#utility.yul\":7967:7976   */\n      sub\n        /* \"#utility.yul\":7959:7976   */\n      swap1\n      pop\n        /* \"#utility.yul\":7791:7982   */\n      swap3\n      swap2\n      pop\n      pop\n      jump\t// out\n        /* \"#utility.yul\":7988:8084   */\n    tag_159:\n        /* \"#utility.yul\":8025:8032   */\n      0x00\n        /* \"#utility.yul\":8054:8078   */\n      tag_226\n        /* \"#utility.yul\":8072:8077   */\n      dup3\n        /* \"#utility.yul\":8054:8078   */\n      tag_227\n      jump\t// in\n    tag_226:\n        /* \"#utility.yul\":8043:8078   */\n      swap1\n      pop\n        /* \"#utility.yul\":7988:8084   */\n      swap2\n      swap1\n      pop\n      jump\t// out\n        /* \"#utility.yul\":8090:8216   */\n    tag_227:\n        /* \"#utility.yul\":8127:8134   */\n      0x00\n        /* \"#utility.yul\":8167:8209   */\n      0xffffffffffffffffffffffffffffffffffffffff\n        /* \"#utility.yul\":8160:8165   */\n      dup3\n        /* \"#utility.yul\":8156:8210   */\n      and\n        /* \"#utility.yul\":8145:8210   */\n      swap1\n      pop\n        /* \"#utility.yul\":8090:8216   */\n      swap2\n      swap1\n      pop\n      jump\t// out\n        /* \"#utility.yul\":8222:8299   */\n    tag_194:\n        /* \"#utility.yul\":8259:8266   */\n      0x00\n        /* \"#utility.yul\":8288:8293   */\n      dup2\n        /* \"#utility.yul\":8277:8293   */\n      swap1\n      pop\n        /* \"#utility.yul\":8222:8299   */\n      swap2\n      swap1\n      pop\n      jump\t// out\n        /* \"#utility.yul\":8305:8485   */\n    tag_219:\n        /* \"#utility.yul\":8353:8430   */\n      0x4e487b7100000000000000000000000000000000000000000000000000000000\n        /* \"#utility.yul\":8350:8351   */\n      0x00\n        /* \"#utility.yul\":8343:8431   */\n      mstore\n        /* \"#utility.yul\":8450:8454   */\n      0x11\n        /* \"#utility.yul\":8447:8448   */\n      0x04\n        /* \"#utility.yul\":8440:8455   */\n      mstore\n        /* \"#utility.yul\":8474:8478   */\n      0x24\n        /* \"#utility.yul\":8471:8472   */\n      0x00\n        /* \"#utility.yul\":8464:8479   */\n      revert\n        /* \"#utility.yul\":8491:8671   */\n    tag_80:\n        /* \"#utility.yul\":8539:8616   */\n      0x4e487b7100000000000000000000000000000000000000000000000000000000\n        /* \"#utility.yul\":8536:8537   */\n      0x00\n        /* \"#utility.yul\":8529:8617   */\n      mstore\n        /* \"#utility.yul\":8636:8640   */\n      0x21\n        /* \"#utility.yul\":8633:8634   */\n      0x04\n        /* \"#utility.yul\":8626:8641   */\n      mstore\n        /* \"#utility.yul\":8660:8664   */\n      0x24\n        /* \"#utility.yul\":8657:8658   */\n      0x00\n        /* \"#utility.yul\":8650:8665   */\n      revert\n        /* \"#utility.yul\":8677:8857   */\n    tag_103:\n        /* \"#utility.yul\":8725:8802   */\n      0x4e487b7100000000000000000000000000000000000000000000000000000000\n        /* \"#utility.yul\":8722:8723   */\n      0x00\n        /* \"#utility.yul\":8715:8803   */\n      mstore\n        /* \"#utility.yul\":8822:8826   */\n      0x31\n        /* \"#utility.yul\":8819:8820   */\n      0x04\n        /* \"#utility.yul\":8812:8827   */\n      mstore\n        /* \"#utility.yul\":8846:8850   */\n      0x24\n        /* \"#utility.yul\":8843:8844   */\n      0x00\n        /* \"#utility.yul\":8836:8851   */\n      revert\n        /* \"#utility.yul\":8863:9043   */\n    tag_99:\n        /* \"#utility.yul\":8911:8988   */\n      0x4e487b7100000000000000000000000000000000000000000000000000000000\n        /* \"#utility.yul\":8908:8909   */\n      0x00\n        /* \"#utility.yul\":8901:8989   */\n      mstore\n        /* \"#utility.yul\":9008:9012   */\n      0x32\n        /* \"#utility.yul\":9005:9006   */\n      0x04\n        /* \"#utility.yul\":8998:9013   */\n      mstore\n        /* \"#utility.yul\":9032:9036   */\n      0x24\n        /* \"#utility.yul\":9029:9030   */\n      0x00\n        /* \"#utility.yul\":9022:9037   */\n      revert\n        /* \"#utility.yul\":9172:9289   */\n    tag_145:\n        /* \"#utility.yul\":9281:9282   */\n      0x00\n        /* \"#utility.yul\":9278:9279   */\n      dup1\n        /* \"#utility.yul\":9271:9283   */\n      revert\n        /* \"#utility.yul\":9295:9521   */\n    tag_165:\n        /* \"#utility.yul\":9435:9469   */\n      0x6f72646572206d757374206265206f6620636f72726563742073697a6520616e\n        /* \"#utility.yul\":9431:9432   */\n      0x00\n        /* \"#utility.yul\":9423:9429   */\n      dup3\n        /* \"#utility.yul\":9419:9433   */\n      add\n        /* \"#utility.yul\":9412:9470   */\n      mstore\n        /* \"#utility.yul\":9504:9513   */\n      0x6420707269636500000000000000000000000000000000000000000000000000\n        /* \"#utility.yul\":9499:9501   */\n      0x20\n        /* \"#utility.yul\":9491:9497   */\n      dup3\n        /* \"#utility.yul\":9487:9502   */\n      add\n        /* \"#utility.yul\":9480:9514   */\n      mstore\n        /* \"#utility.yul\":9295:9521   */\n      pop\n      jump\t// out\n        /* \"#utility.yul\":9527:9752   */\n    tag_170:\n        /* \"#utility.yul\":9667:9701   */\n      0x4f776e61626c653a206e6577206f776e657220697320746865207a65726f2061\n        /* \"#utility.yul\":9663:9664   */\n      0x00\n        /* \"#utility.yul\":9655:9661   */\n      dup3\n        /* \"#utility.yul\":9651:9665   */\n      add\n        /* \"#utility.yul\":9644:9702   */\n      mstore\n        /* \"#utility.yul\":9736:9744   */\n      0x6464726573730000000000000000000000000000000000000000000000000000\n        /* \"#utility.yul\":9731:9733   */\n      0x20\n        /* \"#utility.yul\":9723:9729   */\n      dup3\n        /* \"#utility.yul\":9719:9734   */\n      add\n        /* \"#utility.yul\":9712:9745   */\n      mstore\n        /* \"#utility.yul\":9527:9752   */\n      pop\n      jump\t// out\n        /* \"#utility.yul\":9758:9985   */\n    tag_175:\n        /* \"#utility.yul\":9898:9932   */\n      0x546869732070726f647563652068617320616c7265616479206265656e20696e\n        /* \"#utility.yul\":9894:9895   */\n      0x00\n        /* \"#utility.yul\":9886:9892   */\n      dup3\n        /* \"#utility.yul\":9882:9896   */\n      add\n        /* \"#utility.yul\":9875:9933   */\n      mstore\n        /* \"#utility.yul\":9967:9977   */\n      0x6974696c697a6564000000000000000000000000000000000000000000000000\n        /* \"#utility.yul\":9962:9964   */\n      0x20\n        /* \"#utility.yul\":9954:9960   */\n      dup3\n        /* \"#utility.yul\":9950:9965   */\n      add\n        /* \"#utility.yul\":9943:9978   */\n      mstore\n        /* \"#utility.yul\":9758:9985   */\n      pop\n      jump\t// out\n        /* \"#utility.yul\":9991:10225   */\n    tag_180:\n        /* \"#utility.yul\":10131:10165   */\n      0x6661726d65722063616e6e6f7420706c616365206f7264657220666f72207468\n        /* \"#utility.yul\":10127:10128   */\n      0x00\n        /* \"#utility.yul\":10119:10125   */\n      dup3\n        /* \"#utility.yul\":10115:10129   */\n      add\n        /* \"#utility.yul\":10108:10166   */\n      mstore\n        /* \"#utility.yul\":10200:10217   */\n      0x656972206f776e2070726f647563650000000000000000000000000000000000\n        /* \"#utility.yul\":10195:10197   */\n      0x20\n        /* \"#utility.yul\":10187:10193   */\n      dup3\n        /* \"#utility.yul\":10183:10198   */\n      add\n        /* \"#utility.yul\":10176:10218   */\n      mstore\n        /* \"#utility.yul\":9991:10225   */\n      pop\n      jump\t// out\n        /* \"#utility.yul\":10231:10413   */\n    tag_185:\n        /* \"#utility.yul\":10371:10405   */\n      0x4f776e61626c653a2063616c6c6572206973206e6f7420746865206f776e6572\n        /* \"#utility.yul\":10367:10368   */\n      0x00\n        /* \"#utility.yul\":10359:10365   */\n      dup3\n        /* \"#utility.yul\":10355:10369   */\n      add\n        /* \"#utility.yul\":10348:10406   */\n      mstore\n        /* \"#utility.yul\":10231:10413   */\n      pop\n      jump\t// out\n        /* \"#utility.yul\":10419:10586   */\n    tag_190:\n        /* \"#utility.yul\":10559:10578   */\n      0x4e6f206f726465727320746f2074616b65000000000000000000000000000000\n        /* \"#utility.yul\":10555:10556   */\n      0x00\n        /* \"#utility.yul\":10547:10553   */\n      dup3\n        /* \"#utility.yul\":10543:10557   */\n      add\n        /* \"#utility.yul\":10536:10579   */\n      mstore\n        /* \"#utility.yul\":10419:10586   */\n      pop\n      jump\t// out\n        /* \"#utility.yul\":10592:10714   */\n    tag_137:\n        /* \"#utility.yul\":10665:10689   */\n      tag_244\n        /* \"#utility.yul\":10683:10688   */\n      dup2\n        /* \"#utility.yul\":10665:10689   */\n      tag_159\n      jump\t// in\n    tag_244:\n        /* \"#utility.yul\":10658:10663   */\n      dup2\n        /* \"#utility.yul\":10655:10690   */\n      eq\n        /* \"#utility.yul\":10645:10708   */\n      tag_245\n      jumpi\n        /* \"#utility.yul\":10704:10705   */\n      0x00\n        /* \"#utility.yul\":10701:10702   */\n      dup1\n        /* \"#utility.yul\":10694:10706   */\n      revert\n        /* \"#utility.yul\":10645:10708   */\n    tag_245:\n        /* \"#utility.yul\":10592:10714   */\n      pop\n      jump\t// out\n        /* \"#utility.yul\":10720:10842   */\n    tag_141:\n        /* \"#utility.yul\":10793:10817   */\n      tag_247\n        /* \"#utility.yul\":10811:10816   */\n      dup2\n        /* \"#utility.yul\":10793:10817   */\n      tag_194\n      jump\t// in\n    tag_247:\n        /* \"#utility.yul\":10786:10791   */\n      dup2\n        /* \"#utility.yul\":10783:10818   */\n      eq\n        /* \"#utility.yul\":10773:10836   */\n      tag_248\n      jumpi\n        /* \"#utility.yul\":10832:10833   */\n      0x00\n        /* \"#utility.yul\":10829:10830   */\n      dup1\n        /* \"#utility.yul\":10822:10834   */\n      revert\n        /* \"#utility.yul\":10773:10836   */\n    tag_248:\n        /* \"#utility.yul\":10720:10842   */\n      pop\n      jump\t// out\n\n    auxdata: 0xa2646970667358221220ec23c8a52114d91921d0c79ee4b70277edf192febb570559a2ea449ecddb061464736f6c63430008070033\n}\n",
				"bytecode": {
					"linkReferences": {},
					"object": "608060405234801561001057600080fd5b5061002d61002261005d60201b60201c565b61006560201b60201c565b6000600960006101000a81548160ff0219169083600181111561005357610052610129565b5b0217905550610158565b600033905090565b60008060009054906101000a900473ffffffffffffffffffffffffffffffffffffffff169050816000806101000a81548173ffffffffffffffffffffffffffffffffffffffff021916908373ffffffffffffffffffffffffffffffffffffffff1602179055508173ffffffffffffffffffffffffffffffffffffffff168173ffffffffffffffffffffffffffffffffffffffff167f8be0079c531659141344cd1fd0a4f28419497f9722a3daafe3b4186f6b6457e060405160405180910390a35050565b7f4e487b7100000000000000000000000000000000000000000000000000000000600052602160045260246000fd5b610ed3806101676000396000f3fe6080604052600436106100c25760003560e01c8063a035b1fe1161007f578063d32dacc111610059578063d32dacc114610234578063d811fcf01461025f578063f2fde38b1461028a578063f5c609e0146102b3576100c2565b8063a035b1fe146101b5578063a6bcd45c146101e0578063aa8c217c14610209576100c2565b806306fdde03146100c7578063530d124e146100f25780636d86b8a51461011d578063715018a61461014857806380f556051461015f5780638da5cb5b1461018a575b600080fd5b3480156100d357600080fd5b506100dc6102bd565b6040516100e99190610b2a565b60405180910390f35b3480156100fe57600080fd5b506101076102c3565b6040516101149190610b2a565b60405180910390f35b34801561012957600080fd5b506101326102c9565b60405161013f9190610b2a565b60405180910390f35b34801561015457600080fd5b5061015d6102cf565b005b34801561016b57600080fd5b506101746102e3565b6040516101819190610a4f565b60405180910390f35b34801561019657600080fd5b5061019f610309565b6040516101ac9190610a4f565b60405180910390f35b3480156101c157600080fd5b506101ca610332565b6040516101d79190610b2a565b60405180910390f35b3480156101ec57600080fd5b50610207600480360381019061020291906108d2565b610338565b005b34801561021557600080fd5b5061021e61044e565b60405161022b9190610b2a565b60405180910390f35b34801561024057600080fd5b50610249610454565b6040516102569190610a4f565b60405180910390f35b34801561026b57600080fd5b50610274610548565b6040516102819190610a4f565b60405180910390f35b34801561029657600080fd5b506102b160048036038101906102ac91906108a5565b61056e565b005b6102bb6105f2565b005b60055481565b60045481565b60075481565b6102d7610731565b6102e160006107af565b565b600260009054906101000a900473ffffffffffffffffffffffffffffffffffffffff1681565b60008060009054906101000a900473ffffffffffffffffffffffffffffffffffffffff16905090565b60065481565b6000600181111561034c5761034b610c4f565b5b600960009054906101000a900460ff16600181111561036e5761036d610c4f565b5b146103ae576040517f08c379a00000000000000000000000000000000000000000000000000000000081526004016103a590610aaa565b60405180910390fd5b6103b7866107af565b33600260006101000a81548173ffffffffffffffffffffffffffffffffffffffff021916908373ffffffffffffffffffffffffffffffffffffffff16021790555080600481905550846005819055508360068190555082600781905550816008819055506001600960006101000a81548160ff0219169083600181111561044157610440610c4f565b5b0217905550505050505050565b60085481565b600061045e610731565b6000600380549050116104a6576040517f08c379a000000000000000000000000000000000000000000000000000000000815260040161049d90610b0a565b60405180910390fd5b6000600360016003805490506104bc9190610bb0565b815481106104cd576104cc610cad565b5b9060005260206000200160009054906101000a900473ffffffffffffffffffffffffffffffffffffffff169050600380548061050c5761050b610c7e565b5b6001900381819060005260206000200160006101000a81549073ffffffffffffffffffffffffffffffffffffffff021916905590558091505090565b600160009054906101000a900473ffffffffffffffffffffffffffffffffffffffff1681565b610576610731565b600073ffffffffffffffffffffffffffffffffffffffff168173ffffffffffffffffffffffffffffffffffffffff1614156105e6576040517f08c379a00000000000000000000000000000000000000000000000000000000081526004016105dd90610a8a565b60405180910390fd5b6105ef816107af565b50565b6105fa610309565b73ffffffffffffffffffffffffffffffffffffffff163373ffffffffffffffffffffffffffffffffffffffff161415610668576040517f08c379a000000000000000000000000000000000000000000000000000000000815260040161065f90610aca565b60405180910390fd5b6006546007546106789190610b56565b34146106b9576040517f08c379a00000000000000000000000000000000000000000000000000000000081526004016106b090610a6a565b60405180910390fd5b600454600380549050106106cc57600080fd5b6003339080600181540180825580915050600190039060005260206000200160009091909190916101000a81548173ffffffffffffffffffffffffffffffffffffffff021916908373ffffffffffffffffffffffffffffffffffffffff160217905550565b610739610873565b73ffffffffffffffffffffffffffffffffffffffff16610757610309565b73ffffffffffffffffffffffffffffffffffffffff16146107ad576040517f08c379a00000000000000000000000000000000000000000000000000000000081526004016107a490610aea565b60405180910390fd5b565b60008060009054906101000a900473ffffffffffffffffffffffffffffffffffffffff169050816000806101000a81548173ffffffffffffffffffffffffffffffffffffffff021916908373ffffffffffffffffffffffffffffffffffffffff1602179055508173ffffffffffffffffffffffffffffffffffffffff168173ffffffffffffffffffffffffffffffffffffffff167f8be0079c531659141344cd1fd0a4f28419497f9722a3daafe3b4186f6b6457e060405160405180910390a35050565b600033905090565b60008135905061088a81610e6f565b92915050565b60008135905061089f81610e86565b92915050565b6000602082840312156108bb576108ba610cdc565b5b60006108c98482850161087b565b91505092915050565b60008060008060008060c087890312156108ef576108ee610cdc565b5b60006108fd89828a0161087b565b965050602061090e89828a01610890565b955050604061091f89828a01610890565b945050606061093089828a01610890565b935050608061094189828a01610890565b92505060a061095289828a01610890565b9150509295509295509295565b61096881610be4565b82525050565b600061097b602783610b45565b915061098682610ce1565b604082019050919050565b600061099e602683610b45565b91506109a982610d30565b604082019050919050565b60006109c1602883610b45565b91506109cc82610d7f565b604082019050919050565b60006109e4602f83610b45565b91506109ef82610dce565b604082019050919050565b6000610a07602083610b45565b9150610a1282610e1d565b602082019050919050565b6000610a2a601183610b45565b9150610a3582610e46565b602082019050919050565b610a4981610c16565b82525050565b6000602082019050610a64600083018461095f565b92915050565b60006020820190508181036000830152610a838161096e565b9050919050565b60006020820190508181036000830152610aa381610991565b9050919050565b60006020820190508181036000830152610ac3816109b4565b9050919050565b60006020820190508181036000830152610ae3816109d7565b9050919050565b60006020820190508181036000830152610b03816109fa565b9050919050565b60006020820190508181036000830152610b2381610a1d565b9050919050565b6000602082019050610b3f6000830184610a40565b92915050565b600082825260208201905092915050565b6000610b6182610c16565b9150610b6c83610c16565b9250817fffffffffffffffffffffffffffffffffffffffffffffffffffffffffffffffff0483118215151615610ba557610ba4610c20565b5b828202905092915050565b6000610bbb82610c16565b9150610bc683610c16565b925082821015610bd957610bd8610c20565b5b828203905092915050565b6000610bef82610bf6565b9050919050565b600073ffffffffffffffffffffffffffffffffffffffff82169050919050565b6000819050919050565b7f4e487b7100000000000000000000000000000000000000000000000000000000600052601160045260246000fd5b7f4e487b7100000000000000000000000000000000000000000000000000000000600052602160045260246000fd5b7f4e487b7100000000000000000000000000000000000000000000000000000000600052603160045260246000fd5b7f4e487b7100000000000000000000000000000000000000000000000000000000600052603260045260246000fd5b600080fd5b7f6f72646572206d757374206265206f6620636f72726563742073697a6520616e60008201527f6420707269636500000000000000000000000000000000000000000000000000602082015250565b7f4f776e61626c653a206e6577206f776e657220697320746865207a65726f206160008201527f6464726573730000000000000000000000000000000000000000000000000000602082015250565b7f546869732070726f647563652068617320616c7265616479206265656e20696e60008201527f6974696c697a6564000000000000000000000000000000000000000000000000602082015250565b7f6661726d65722063616e6e6f7420706c616365206f7264657220666f7220746860008201527f656972206f776e2070726f647563650000000000000000000000000000000000602082015250565b7f4f776e61626c653a2063616c6c6572206973206e6f7420746865206f776e6572600082015250565b7f4e6f206f726465727320746f2074616b65000000000000000000000000000000600082015250565b610e7881610be4565b8114610e8357600080fd5b50565b610e8f81610c16565b8114610e9a57600080fd5b5056fea2646970667358221220ec23c8a52114d91921d0c79ee4b70277edf192febb570559a2ea449ecddb061464736f6c63430008070033",
					"opcodes": "PUSH1 0x80 PUSH1 0x40 MSTORE CALLVALUE DUP1 ISZERO PUSH2 0x10 JUMPI PUSH1 0x0 DUP1 REVERT JUMPDEST POP PUSH2 0x2D PUSH2 0x22 PUSH2 0x5D PUSH1 0x20 SHL PUSH1 0x20 SHR JUMP JUMPDEST PUSH2 0x65 PUSH1 0x20 SHL PUSH1 0x20 SHR JUMP JUMPDEST PUSH1 0x0 PUSH1 0x9 PUSH1 0x0 PUSH2 0x100 EXP DUP2 SLOAD DUP2 PUSH1 0xFF MUL NOT AND SWAP1 DUP4 PUSH1 0x1 DUP2 GT ISZERO PUSH2 0x53 JUMPI PUSH2 0x52 PUSH2 0x129 JUMP JUMPDEST JUMPDEST MUL OR SWAP1 SSTORE POP PUSH2 0x158 JUMP JUMPDEST PUSH1 0x0 CALLER SWAP1 POP SWAP1 JUMP JUMPDEST PUSH1 0x0 DUP1 PUSH1 0x0 SWAP1 SLOAD SWAP1 PUSH2 0x100 EXP SWAP1 DIV PUSH20 0xFFFFFFFFFFFFFFFFFFFFFFFFFFFFFFFFFFFFFFFF AND SWAP1 POP DUP2 PUSH1 0x0 DUP1 PUSH2 0x100 EXP DUP2 SLOAD DUP2 PUSH20 0xFFFFFFFFFFFFFFFFFFFFFFFFFFFFFFFFFFFFFFFF MUL NOT AND SWAP1 DUP4 PUSH20 0xFFFFFFFFFFFFFFFFFFFFFFFFFFFFFFFFFFFFFFFF AND MUL OR SWAP1 SSTORE POP DUP2 PUSH20 0xFFFFFFFFFFFFFFFFFFFFFFFFFFFFFFFFFFFFFFFF AND DUP2 PUSH20 0xFFFFFFFFFFFFFFFFFFFFFFFFFFFFFFFFFFFFFFFF AND PUSH32 0x8BE0079C531659141344CD1FD0A4F28419497F9722A3DAAFE3B4186F6B6457E0 PUSH1 0x40 MLOAD PUSH1 0x40 MLOAD DUP1 SWAP2 SUB SWAP1 LOG3 POP POP JUMP JUMPDEST PUSH32 0x4E487B7100000000000000000000000000000000000000000000000000000000 PUSH1 0x0 MSTORE PUSH1 0x21 PUSH1 0x4 MSTORE PUSH1 0x24 PUSH1 0x0 REVERT JUMPDEST PUSH2 0xED3 DUP1 PUSH2 0x167 PUSH1 0x0 CODECOPY PUSH1 0x0 RETURN INVALID PUSH1 0x80 PUSH1 0x40 MSTORE PUSH1 0x4 CALLDATASIZE LT PUSH2 0xC2 JUMPI PUSH1 0x0 CALLDATALOAD PUSH1 0xE0 SHR DUP1 PUSH4 0xA035B1FE GT PUSH2 0x7F JUMPI DUP1 PUSH4 0xD32DACC1 GT PUSH2 0x59 JUMPI DUP1 PUSH4 0xD32DACC1 EQ PUSH2 0x234 JUMPI DUP1 PUSH4 0xD811FCF0 EQ PUSH2 0x25F JUMPI DUP1 PUSH4 0xF2FDE38B EQ PUSH2 0x28A JUMPI DUP1 PUSH4 0xF5C609E0 EQ PUSH2 0x2B3 JUMPI PUSH2 0xC2 JUMP JUMPDEST DUP1 PUSH4 0xA035B1FE EQ PUSH2 0x1B5 JUMPI DUP1 PUSH4 0xA6BCD45C EQ PUSH2 0x1E0 JUMPI DUP1 PUSH4 0xAA8C217C EQ PUSH2 0x209 JUMPI PUSH2 0xC2 JUMP JUMPDEST DUP1 PUSH4 0x6FDDE03 EQ PUSH2 0xC7 JUMPI DUP1 PUSH4 0x530D124E EQ PUSH2 0xF2 JUMPI DUP1 PUSH4 0x6D86B8A5 EQ PUSH2 0x11D JUMPI DUP1 PUSH4 0x715018A6 EQ PUSH2 0x148 JUMPI DUP1 PUSH4 0x80F55605 EQ PUSH2 0x15F JUMPI DUP1 PUSH4 0x8DA5CB5B EQ PUSH2 0x18A JUMPI JUMPDEST PUSH1 0x0 DUP1 REVERT JUMPDEST CALLVALUE DUP1 ISZERO PUSH2 0xD3 JUMPI PUSH1 0x0 DUP1 REVERT JUMPDEST POP PUSH2 0xDC PUSH2 0x2BD JUMP JUMPDEST PUSH1 0x40 MLOAD PUSH2 0xE9 SWAP2 SWAP1 PUSH2 0xB2A JUMP JUMPDEST PUSH1 0x40 MLOAD DUP1 SWAP2 SUB SWAP1 RETURN JUMPDEST CALLVALUE DUP1 ISZERO PUSH2 0xFE JUMPI PUSH1 0x0 DUP1 REVERT JUMPDEST POP PUSH2 0x107 PUSH2 0x2C3 JUMP JUMPDEST PUSH1 0x40 MLOAD PUSH2 0x114 SWAP2 SWAP1 PUSH2 0xB2A JUMP JUMPDEST PUSH1 0x40 MLOAD DUP1 SWAP2 SUB SWAP1 RETURN JUMPDEST CALLVALUE DUP1 ISZERO PUSH2 0x129 JUMPI PUSH1 0x0 DUP1 REVERT JUMPDEST POP PUSH2 0x132 PUSH2 0x2C9 JUMP JUMPDEST PUSH1 0x40 MLOAD PUSH2 0x13F SWAP2 SWAP1 PUSH2 0xB2A JUMP JUMPDEST PUSH1 0x40 MLOAD DUP1 SWAP2 SUB SWAP1 RETURN JUMPDEST CALLVALUE DUP1 ISZERO PUSH2 0x154 JUMPI PUSH1 0x0 DUP1 REVERT JUMPDEST POP PUSH2 0x15D PUSH2 0x2CF JUMP JUMPDEST STOP JUMPDEST CALLVALUE DUP1 ISZERO PUSH2 0x16B JUMPI PUSH1 0x0 DUP1 REVERT JUMPDEST POP PUSH2 0x174 PUSH2 0x2E3 JUMP JUMPDEST PUSH1 0x40 MLOAD PUSH2 0x181 SWAP2 SWAP1 PUSH2 0xA4F JUMP JUMPDEST PUSH1 0x40 MLOAD DUP1 SWAP2 SUB SWAP1 RETURN JUMPDEST CALLVALUE DUP1 ISZERO PUSH2 0x196 JUMPI PUSH1 0x0 DUP1 REVERT JUMPDEST POP PUSH2 0x19F PUSH2 0x309 JUMP JUMPDEST PUSH1 0x40 MLOAD PUSH2 0x1AC SWAP2 SWAP1 PUSH2 0xA4F JUMP JUMPDEST PUSH1 0x40 MLOAD DUP1 SWAP2 SUB SWAP1 RETURN JUMPDEST CALLVALUE DUP1 ISZERO PUSH2 0x1C1 JUMPI PUSH1 0x0 DUP1 REVERT JUMPDEST POP PUSH2 0x1CA PUSH2 0x332 JUMP JUMPDEST PUSH1 0x40 MLOAD PUSH2 0x1D7 SWAP2 SWAP1 PUSH2 0xB2A JUMP JUMPDEST PUSH1 0x40 MLOAD DUP1 SWAP2 SUB SWAP1 RETURN JUMPDEST CALLVALUE DUP1 ISZERO PUSH2 0x1EC JUMPI PUSH1 0x0 DUP1 REVERT JUMPDEST POP PUSH2 0x207 PUSH1 0x4 DUP1 CALLDATASIZE SUB DUP2 ADD SWAP1 PUSH2 0x202 SWAP2 SWAP1 PUSH2 0x8D2 JUMP JUMPDEST PUSH2 0x338 JUMP JUMPDEST STOP JUMPDEST CALLVALUE DUP1 ISZERO PUSH2 0x215 JUMPI PUSH1 0x0 DUP1 REVERT JUMPDEST POP PUSH2 0x21E PUSH2 0x44E JUMP JUMPDEST PUSH1 0x40 MLOAD PUSH2 0x22B SWAP2 SWAP1 PUSH2 0xB2A JUMP JUMPDEST PUSH1 0x40 MLOAD DUP1 SWAP2 SUB SWAP1 RETURN JUMPDEST CALLVALUE DUP1 ISZERO PUSH2 0x240 JUMPI PUSH1 0x0 DUP1 REVERT JUMPDEST POP PUSH2 0x249 PUSH2 0x454 JUMP JUMPDEST PUSH1 0x40 MLOAD PUSH2 0x256 SWAP2 SWAP1 PUSH2 0xA4F JUMP JUMPDEST PUSH1 0x40 MLOAD DUP1 SWAP2 SUB SWAP1 RETURN JUMPDEST CALLVALUE DUP1 ISZERO PUSH2 0x26B JUMPI PUSH1 0x0 DUP1 REVERT JUMPDEST POP PUSH2 0x274 PUSH2 0x548 JUMP JUMPDEST PUSH1 0x40 MLOAD PUSH2 0x281 SWAP2 SWAP1 PUSH2 0xA4F JUMP JUMPDEST PUSH1 0x40 MLOAD DUP1 SWAP2 SUB SWAP1 RETURN JUMPDEST CALLVALUE DUP1 ISZERO PUSH2 0x296 JUMPI PUSH1 0x0 DUP1 REVERT JUMPDEST POP PUSH2 0x2B1 PUSH1 0x4 DUP1 CALLDATASIZE SUB DUP2 ADD SWAP1 PUSH2 0x2AC SWAP2 SWAP1 PUSH2 0x8A5 JUMP JUMPDEST PUSH2 0x56E JUMP JUMPDEST STOP JUMPDEST PUSH2 0x2BB PUSH2 0x5F2 JUMP JUMPDEST STOP JUMPDEST PUSH1 0x5 SLOAD DUP2 JUMP JUMPDEST PUSH1 0x4 SLOAD DUP2 JUMP JUMPDEST PUSH1 0x7 SLOAD DUP2 JUMP JUMPDEST PUSH2 0x2D7 PUSH2 0x731 JUMP JUMPDEST PUSH2 0x2E1 PUSH1 0x0 PUSH2 0x7AF JUMP JUMPDEST JUMP JUMPDEST PUSH1 0x2 PUSH1 0x0 SWAP1 SLOAD SWAP1 PUSH2 0x100 EXP SWAP1 DIV PUSH20 0xFFFFFFFFFFFFFFFFFFFFFFFFFFFFFFFFFFFFFFFF AND DUP2 JUMP JUMPDEST PUSH1 0x0 DUP1 PUSH1 0x0 SWAP1 SLOAD SWAP1 PUSH2 0x100 EXP SWAP1 DIV PUSH20 0xFFFFFFFFFFFFFFFFFFFFFFFFFFFFFFFFFFFFFFFF AND SWAP1 POP SWAP1 JUMP JUMPDEST PUSH1 0x6 SLOAD DUP2 JUMP JUMPDEST PUSH1 0x0 PUSH1 0x1 DUP2 GT ISZERO PUSH2 0x34C JUMPI PUSH2 0x34B PUSH2 0xC4F JUMP JUMPDEST JUMPDEST PUSH1 0x9 PUSH1 0x0 SWAP1 SLOAD SWAP1 PUSH2 0x100 EXP SWAP1 DIV PUSH1 0xFF AND PUSH1 0x1 DUP2 GT ISZERO PUSH2 0x36E JUMPI PUSH2 0x36D PUSH2 0xC4F JUMP JUMPDEST JUMPDEST EQ PUSH2 0x3AE JUMPI PUSH1 0x40 MLOAD PUSH32 0x8C379A000000000000000000000000000000000000000000000000000000000 DUP2 MSTORE PUSH1 0x4 ADD PUSH2 0x3A5 SWAP1 PUSH2 0xAAA JUMP JUMPDEST PUSH1 0x40 MLOAD DUP1 SWAP2 SUB SWAP1 REVERT JUMPDEST PUSH2 0x3B7 DUP7 PUSH2 0x7AF JUMP JUMPDEST CALLER PUSH1 0x2 PUSH1 0x0 PUSH2 0x100 EXP DUP2 SLOAD DUP2 PUSH20 0xFFFFFFFFFFFFFFFFFFFFFFFFFFFFFFFFFFFFFFFF MUL NOT AND SWAP1 DUP4 PUSH20 0xFFFFFFFFFFFFFFFFFFFFFFFFFFFFFFFFFFFFFFFF AND MUL OR SWAP1 SSTORE POP DUP1 PUSH1 0x4 DUP2 SWAP1 SSTORE POP DUP5 PUSH1 0x5 DUP2 SWAP1 SSTORE POP DUP4 PUSH1 0x6 DUP2 SWAP1 SSTORE POP DUP3 PUSH1 0x7 DUP2 SWAP1 SSTORE POP DUP2 PUSH1 0x8 DUP2 SWAP1 SSTORE POP PUSH1 0x1 PUSH1 0x9 PUSH1 0x0 PUSH2 0x100 EXP DUP2 SLOAD DUP2 PUSH1 0xFF MUL NOT AND SWAP1 DUP4 PUSH1 0x1 DUP2 GT ISZERO PUSH2 0x441 JUMPI PUSH2 0x440 PUSH2 0xC4F JUMP JUMPDEST JUMPDEST MUL OR SWAP1 SSTORE POP POP POP POP POP POP POP JUMP JUMPDEST PUSH1 0x8 SLOAD DUP2 JUMP JUMPDEST PUSH1 0x0 PUSH2 0x45E PUSH2 0x731 JUMP JUMPDEST PUSH1 0x0 PUSH1 0x3 DUP1 SLOAD SWAP1 POP GT PUSH2 0x4A6 JUMPI PUSH1 0x40 MLOAD PUSH32 0x8C379A000000000000000000000000000000000000000000000000000000000 DUP2 MSTORE PUSH1 0x4 ADD PUSH2 0x49D SWAP1 PUSH2 0xB0A JUMP JUMPDEST PUSH1 0x40 MLOAD DUP1 SWAP2 SUB SWAP1 REVERT JUMPDEST PUSH1 0x0 PUSH1 0x3 PUSH1 0x1 PUSH1 0x3 DUP1 SLOAD SWAP1 POP PUSH2 0x4BC SWAP2 SWAP1 PUSH2 0xBB0 JUMP JUMPDEST DUP2 SLOAD DUP2 LT PUSH2 0x4CD JUMPI PUSH2 0x4CC PUSH2 0xCAD JUMP JUMPDEST JUMPDEST SWAP1 PUSH1 0x0 MSTORE PUSH1 0x20 PUSH1 0x0 KECCAK256 ADD PUSH1 0x0 SWAP1 SLOAD SWAP1 PUSH2 0x100 EXP SWAP1 DIV PUSH20 0xFFFFFFFFFFFFFFFFFFFFFFFFFFFFFFFFFFFFFFFF AND SWAP1 POP PUSH1 0x3 DUP1 SLOAD DUP1 PUSH2 0x50C JUMPI PUSH2 0x50B PUSH2 0xC7E JUMP JUMPDEST JUMPDEST PUSH1 0x1 SWAP1 SUB DUP2 DUP2 SWAP1 PUSH1 0x0 MSTORE PUSH1 0x20 PUSH1 0x0 KECCAK256 ADD PUSH1 0x0 PUSH2 0x100 EXP DUP2 SLOAD SWAP1 PUSH20 0xFFFFFFFFFFFFFFFFFFFFFFFFFFFFFFFFFFFFFFFF MUL NOT AND SWAP1 SSTORE SWAP1 SSTORE DUP1 SWAP2 POP POP SWAP1 JUMP JUMPDEST PUSH1 0x1 PUSH1 0x0 SWAP1 SLOAD SWAP1 PUSH2 0x100 EXP SWAP1 DIV PUSH20 0xFFFFFFFFFFFFFFFFFFFFFFFFFFFFFFFFFFFFFFFF AND DUP2 JUMP JUMPDEST PUSH2 0x576 PUSH2 0x731 JUMP JUMPDEST PUSH1 0x0 PUSH20 0xFFFFFFFFFFFFFFFFFFFFFFFFFFFFFFFFFFFFFFFF AND DUP2 PUSH20 0xFFFFFFFFFFFFFFFFFFFFFFFFFFFFFFFFFFFFFFFF AND EQ ISZERO PUSH2 0x5E6 JUMPI PUSH1 0x40 MLOAD PUSH32 0x8C379A000000000000000000000000000000000000000000000000000000000 DUP2 MSTORE PUSH1 0x4 ADD PUSH2 0x5DD SWAP1 PUSH2 0xA8A JUMP JUMPDEST PUSH1 0x40 MLOAD DUP1 SWAP2 SUB SWAP1 REVERT JUMPDEST PUSH2 0x5EF DUP2 PUSH2 0x7AF JUMP JUMPDEST POP JUMP JUMPDEST PUSH2 0x5FA PUSH2 0x309 JUMP JUMPDEST PUSH20 0xFFFFFFFFFFFFFFFFFFFFFFFFFFFFFFFFFFFFFFFF AND CALLER PUSH20 0xFFFFFFFFFFFFFFFFFFFFFFFFFFFFFFFFFFFFFFFF AND EQ ISZERO PUSH2 0x668 JUMPI PUSH1 0x40 MLOAD PUSH32 0x8C379A000000000000000000000000000000000000000000000000000000000 DUP2 MSTORE PUSH1 0x4 ADD PUSH2 0x65F SWAP1 PUSH2 0xACA JUMP JUMPDEST PUSH1 0x40 MLOAD DUP1 SWAP2 SUB SWAP1 REVERT JUMPDEST PUSH1 0x6 SLOAD PUSH1 0x7 SLOAD PUSH2 0x678 SWAP2 SWAP1 PUSH2 0xB56 JUMP JUMPDEST CALLVALUE EQ PUSH2 0x6B9 JUMPI PUSH1 0x40 MLOAD PUSH32 0x8C379A000000000000000000000000000000000000000000000000000000000 DUP2 MSTORE PUSH1 0x4 ADD PUSH2 0x6B0 SWAP1 PUSH2 0xA6A JUMP JUMPDEST PUSH1 0x40 MLOAD DUP1 SWAP2 SUB SWAP1 REVERT JUMPDEST PUSH1 0x4 SLOAD PUSH1 0x3 DUP1 SLOAD SWAP1 POP LT PUSH2 0x6CC JUMPI PUSH1 0x0 DUP1 REVERT JUMPDEST PUSH1 0x3 CALLER SWAP1 DUP1 PUSH1 0x1 DUP2 SLOAD ADD DUP1 DUP3 SSTORE DUP1 SWAP2 POP POP PUSH1 0x1 SWAP1 SUB SWAP1 PUSH1 0x0 MSTORE PUSH1 0x20 PUSH1 0x0 KECCAK256 ADD PUSH1 0x0 SWAP1 SWAP2 SWAP1 SWAP2 SWAP1 SWAP2 PUSH2 0x100 EXP DUP2 SLOAD DUP2 PUSH20 0xFFFFFFFFFFFFFFFFFFFFFFFFFFFFFFFFFFFFFFFF MUL NOT AND SWAP1 DUP4 PUSH20 0xFFFFFFFFFFFFFFFFFFFFFFFFFFFFFFFFFFFFFFFF AND MUL OR SWAP1 SSTORE POP JUMP JUMPDEST PUSH2 0x739 PUSH2 0x873 JUMP JUMPDEST PUSH20 0xFFFFFFFFFFFFFFFFFFFFFFFFFFFFFFFFFFFFFFFF AND PUSH2 0x757 PUSH2 0x309 JUMP JUMPDEST PUSH20 0xFFFFFFFFFFFFFFFFFFFFFFFFFFFFFFFFFFFFFFFF AND EQ PUSH2 0x7AD JUMPI PUSH1 0x40 MLOAD PUSH32 0x8C379A000000000000000000000000000000000000000000000000000000000 DUP2 MSTORE PUSH1 0x4 ADD PUSH2 0x7A4 SWAP1 PUSH2 0xAEA JUMP JUMPDEST PUSH1 0x40 MLOAD DUP1 SWAP2 SUB SWAP1 REVERT JUMPDEST JUMP JUMPDEST PUSH1 0x0 DUP1 PUSH1 0x0 SWAP1 SLOAD SWAP1 PUSH2 0x100 EXP SWAP1 DIV PUSH20 0xFFFFFFFFFFFFFFFFFFFFFFFFFFFFFFFFFFFFFFFF AND SWAP1 POP DUP2 PUSH1 0x0 DUP1 PUSH2 0x100 EXP DUP2 SLOAD DUP2 PUSH20 0xFFFFFFFFFFFFFFFFFFFFFFFFFFFFFFFFFFFFFFFF MUL NOT AND SWAP1 DUP4 PUSH20 0xFFFFFFFFFFFFFFFFFFFFFFFFFFFFFFFFFFFFFFFF AND MUL OR SWAP1 SSTORE POP DUP2 PUSH20 0xFFFFFFFFFFFFFFFFFFFFFFFFFFFFFFFFFFFFFFFF AND DUP2 PUSH20 0xFFFFFFFFFFFFFFFFFFFFFFFFFFFFFFFFFFFFFFFF AND PUSH32 0x8BE0079C531659141344CD1FD0A4F28419497F9722A3DAAFE3B4186F6B6457E0 PUSH1 0x40 MLOAD PUSH1 0x40 MLOAD DUP1 SWAP2 SUB SWAP1 LOG3 POP POP JUMP JUMPDEST PUSH1 0x0 CALLER SWAP1 POP SWAP1 JUMP JUMPDEST PUSH1 0x0 DUP2 CALLDATALOAD SWAP1 POP PUSH2 0x88A DUP2 PUSH2 0xE6F JUMP JUMPDEST SWAP3 SWAP2 POP POP JUMP JUMPDEST PUSH1 0x0 DUP2 CALLDATALOAD SWAP1 POP PUSH2 0x89F DUP2 PUSH2 0xE86 JUMP JUMPDEST SWAP3 SWAP2 POP POP JUMP JUMPDEST PUSH1 0x0 PUSH1 0x20 DUP3 DUP5 SUB SLT ISZERO PUSH2 0x8BB JUMPI PUSH2 0x8BA PUSH2 0xCDC JUMP JUMPDEST JUMPDEST PUSH1 0x0 PUSH2 0x8C9 DUP5 DUP3 DUP6 ADD PUSH2 0x87B JUMP JUMPDEST SWAP2 POP POP SWAP3 SWAP2 POP POP JUMP JUMPDEST PUSH1 0x0 DUP1 PUSH1 0x0 DUP1 PUSH1 0x0 DUP1 PUSH1 0xC0 DUP8 DUP10 SUB SLT ISZERO PUSH2 0x8EF JUMPI PUSH2 0x8EE PUSH2 0xCDC JUMP JUMPDEST JUMPDEST PUSH1 0x0 PUSH2 0x8FD DUP10 DUP3 DUP11 ADD PUSH2 0x87B JUMP JUMPDEST SWAP7 POP POP PUSH1 0x20 PUSH2 0x90E DUP10 DUP3 DUP11 ADD PUSH2 0x890 JUMP JUMPDEST SWAP6 POP POP PUSH1 0x40 PUSH2 0x91F DUP10 DUP3 DUP11 ADD PUSH2 0x890 JUMP JUMPDEST SWAP5 POP POP PUSH1 0x60 PUSH2 0x930 DUP10 DUP3 DUP11 ADD PUSH2 0x890 JUMP JUMPDEST SWAP4 POP POP PUSH1 0x80 PUSH2 0x941 DUP10 DUP3 DUP11 ADD PUSH2 0x890 JUMP JUMPDEST SWAP3 POP POP PUSH1 0xA0 PUSH2 0x952 DUP10 DUP3 DUP11 ADD PUSH2 0x890 JUMP JUMPDEST SWAP2 POP POP SWAP3 SWAP6 POP SWAP3 SWAP6 POP SWAP3 SWAP6 JUMP JUMPDEST PUSH2 0x968 DUP2 PUSH2 0xBE4 JUMP JUMPDEST DUP3 MSTORE POP POP JUMP JUMPDEST PUSH1 0x0 PUSH2 0x97B PUSH1 0x27 DUP4 PUSH2 0xB45 JUMP JUMPDEST SWAP2 POP PUSH2 0x986 DUP3 PUSH2 0xCE1 JUMP JUMPDEST PUSH1 0x40 DUP3 ADD SWAP1 POP SWAP2 SWAP1 POP JUMP JUMPDEST PUSH1 0x0 PUSH2 0x99E PUSH1 0x26 DUP4 PUSH2 0xB45 JUMP JUMPDEST SWAP2 POP PUSH2 0x9A9 DUP3 PUSH2 0xD30 JUMP JUMPDEST PUSH1 0x40 DUP3 ADD SWAP1 POP SWAP2 SWAP1 POP JUMP JUMPDEST PUSH1 0x0 PUSH2 0x9C1 PUSH1 0x28 DUP4 PUSH2 0xB45 JUMP JUMPDEST SWAP2 POP PUSH2 0x9CC DUP3 PUSH2 0xD7F JUMP JUMPDEST PUSH1 0x40 DUP3 ADD SWAP1 POP SWAP2 SWAP1 POP JUMP JUMPDEST PUSH1 0x0 PUSH2 0x9E4 PUSH1 0x2F DUP4 PUSH2 0xB45 JUMP JUMPDEST SWAP2 POP PUSH2 0x9EF DUP3 PUSH2 0xDCE JUMP JUMPDEST PUSH1 0x40 DUP3 ADD SWAP1 POP SWAP2 SWAP1 POP JUMP JUMPDEST PUSH1 0x0 PUSH2 0xA07 PUSH1 0x20 DUP4 PUSH2 0xB45 JUMP JUMPDEST SWAP2 POP PUSH2 0xA12 DUP3 PUSH2 0xE1D JUMP JUMPDEST PUSH1 0x20 DUP3 ADD SWAP1 POP SWAP2 SWAP1 POP JUMP JUMPDEST PUSH1 0x0 PUSH2 0xA2A PUSH1 0x11 DUP4 PUSH2 0xB45 JUMP JUMPDEST SWAP2 POP PUSH2 0xA35 DUP3 PUSH2 0xE46 JUMP JUMPDEST PUSH1 0x20 DUP3 ADD SWAP1 POP SWAP2 SWAP1 POP JUMP JUMPDEST PUSH2 0xA49 DUP2 PUSH2 0xC16 JUMP JUMPDEST DUP3 MSTORE POP POP JUMP JUMPDEST PUSH1 0x0 PUSH1 0x20 DUP3 ADD SWAP1 POP PUSH2 0xA64 PUSH1 0x0 DUP4 ADD DUP5 PUSH2 0x95F JUMP JUMPDEST SWAP3 SWAP2 POP POP JUMP JUMPDEST PUSH1 0x0 PUSH1 0x20 DUP3 ADD SWAP1 POP DUP2 DUP2 SUB PUSH1 0x0 DUP4 ADD MSTORE PUSH2 0xA83 DUP2 PUSH2 0x96E JUMP JUMPDEST SWAP1 POP SWAP2 SWAP1 POP JUMP JUMPDEST PUSH1 0x0 PUSH1 0x20 DUP3 ADD SWAP1 POP DUP2 DUP2 SUB PUSH1 0x0 DUP4 ADD MSTORE PUSH2 0xAA3 DUP2 PUSH2 0x991 JUMP JUMPDEST SWAP1 POP SWAP2 SWAP1 POP JUMP JUMPDEST PUSH1 0x0 PUSH1 0x20 DUP3 ADD SWAP1 POP DUP2 DUP2 SUB PUSH1 0x0 DUP4 ADD MSTORE PUSH2 0xAC3 DUP2 PUSH2 0x9B4 JUMP JUMPDEST SWAP1 POP SWAP2 SWAP1 POP JUMP JUMPDEST PUSH1 0x0 PUSH1 0x20 DUP3 ADD SWAP1 POP DUP2 DUP2 SUB PUSH1 0x0 DUP4 ADD MSTORE PUSH2 0xAE3 DUP2 PUSH2 0x9D7 JUMP JUMPDEST SWAP1 POP SWAP2 SWAP1 POP JUMP JUMPDEST PUSH1 0x0 PUSH1 0x20 DUP3 ADD SWAP1 POP DUP2 DUP2 SUB PUSH1 0x0 DUP4 ADD MSTORE PUSH2 0xB03 DUP2 PUSH2 0x9FA JUMP JUMPDEST SWAP1 POP SWAP2 SWAP1 POP JUMP JUMPDEST PUSH1 0x0 PUSH1 0x20 DUP3 ADD SWAP1 POP DUP2 DUP2 SUB PUSH1 0x0 DUP4 ADD MSTORE PUSH2 0xB23 DUP2 PUSH2 0xA1D JUMP JUMPDEST SWAP1 POP SWAP2 SWAP1 POP JUMP JUMPDEST PUSH1 0x0 PUSH1 0x20 DUP3 ADD SWAP1 POP PUSH2 0xB3F PUSH1 0x0 DUP4 ADD DUP5 PUSH2 0xA40 JUMP JUMPDEST SWAP3 SWAP2 POP POP JUMP JUMPDEST PUSH1 0x0 DUP3 DUP3 MSTORE PUSH1 0x20 DUP3 ADD SWAP1 POP SWAP3 SWAP2 POP POP JUMP JUMPDEST PUSH1 0x0 PUSH2 0xB61 DUP3 PUSH2 0xC16 JUMP JUMPDEST SWAP2 POP PUSH2 0xB6C DUP4 PUSH2 0xC16 JUMP JUMPDEST SWAP3 POP DUP2 PUSH32 0xFFFFFFFFFFFFFFFFFFFFFFFFFFFFFFFFFFFFFFFFFFFFFFFFFFFFFFFFFFFFFFFF DIV DUP4 GT DUP3 ISZERO ISZERO AND ISZERO PUSH2 0xBA5 JUMPI PUSH2 0xBA4 PUSH2 0xC20 JUMP JUMPDEST JUMPDEST DUP3 DUP3 MUL SWAP1 POP SWAP3 SWAP2 POP POP JUMP JUMPDEST PUSH1 0x0 PUSH2 0xBBB DUP3 PUSH2 0xC16 JUMP JUMPDEST SWAP2 POP PUSH2 0xBC6 DUP4 PUSH2 0xC16 JUMP JUMPDEST SWAP3 POP DUP3 DUP3 LT ISZERO PUSH2 0xBD9 JUMPI PUSH2 0xBD8 PUSH2 0xC20 JUMP JUMPDEST JUMPDEST DUP3 DUP3 SUB SWAP1 POP SWAP3 SWAP2 POP POP JUMP JUMPDEST PUSH1 0x0 PUSH2 0xBEF DUP3 PUSH2 0xBF6 JUMP JUMPDEST SWAP1 POP SWAP2 SWAP1 POP JUMP JUMPDEST PUSH1 0x0 PUSH20 0xFFFFFFFFFFFFFFFFFFFFFFFFFFFFFFFFFFFFFFFF DUP3 AND SWAP1 POP SWAP2 SWAP1 POP JUMP JUMPDEST PUSH1 0x0 DUP2 SWAP1 POP SWAP2 SWAP1 POP JUMP JUMPDEST PUSH32 0x4E487B7100000000000000000000000000000000000000000000000000000000 PUSH1 0x0 MSTORE PUSH1 0x11 PUSH1 0x4 MSTORE PUSH1 0x24 PUSH1 0x0 REVERT JUMPDEST PUSH32 0x4E487B7100000000000000000000000000000000000000000000000000000000 PUSH1 0x0 MSTORE PUSH1 0x21 PUSH1 0x4 MSTORE PUSH1 0x24 PUSH1 0x0 REVERT JUMPDEST PUSH32 0x4E487B7100000000000000000000000000000000000000000000000000000000 PUSH1 0x0 MSTORE PUSH1 0x31 PUSH1 0x4 MSTORE PUSH1 0x24 PUSH1 0x0 REVERT JUMPDEST PUSH32 0x4E487B7100000000000000000000000000000000000000000000000000000000 PUSH1 0x0 MSTORE PUSH1 0x32 PUSH1 0x4 MSTORE PUSH1 0x24 PUSH1 0x0 REVERT JUMPDEST PUSH1 0x0 DUP1 REVERT JUMPDEST PUSH32 0x6F72646572206D757374206265206F6620636F72726563742073697A6520616E PUSH1 0x0 DUP3 ADD MSTORE PUSH32 0x6420707269636500000000000000000000000000000000000000000000000000 PUSH1 0x20 DUP3 ADD MSTORE POP JUMP JUMPDEST PUSH32 0x4F776E61626C653A206E6577206F776E657220697320746865207A65726F2061 PUSH1 0x0 DUP3 ADD MSTORE PUSH32 0x6464726573730000000000000000000000000000000000000000000000000000 PUSH1 0x20 DUP3 ADD MSTORE POP JUMP JUMPDEST PUSH32 0x546869732070726F647563652068617320616C7265616479206265656E20696E PUSH1 0x0 DUP3 ADD MSTORE PUSH32 0x6974696C697A6564000000000000000000000000000000000000000000000000 PUSH1 0x20 DUP3 ADD MSTORE POP JUMP JUMPDEST PUSH32 0x6661726D65722063616E6E6F7420706C616365206F7264657220666F72207468 PUSH1 0x0 DUP3 ADD MSTORE PUSH32 0x656972206F776E2070726F647563650000000000000000000000000000000000 PUSH1 0x20 DUP3 ADD MSTORE POP JUMP JUMPDEST PUSH32 0x4F776E61626C653A2063616C6C6572206973206E6F7420746865206F776E6572 PUSH1 0x0 DUP3 ADD MSTORE POP JUMP JUMPDEST PUSH32 0x4E6F206F726465727320746F2074616B65000000000000000000000000000000 PUSH1 0x0 DUP3 ADD MSTORE POP JUMP JUMPDEST PUSH2 0xE78 DUP2 PUSH2 0xBE4 JUMP JUMPDEST DUP2 EQ PUSH2 0xE83 JUMPI PUSH1 0x0 DUP1 REVERT JUMPDEST POP JUMP JUMPDEST PUSH2 0xE8F DUP2 PUSH2 0xC16 JUMP JUMPDEST DUP2 EQ PUSH2 0xE9A JUMPI PUSH1 0x0 DUP1 REVERT JUMPDEST POP JUMP INVALID LOG2 PUSH5 0x6970667358 0x22 SLT KECCAK256 0xEC 0x23 0xC8 0xA5 0x21 EQ 0xD9 NOT 0x21 0xD0 0xC7 SWAP15 0xE4 0xB7 MUL PUSH24 0xEDF192FEBB570559A2EA449ECDDB061464736F6C63430008 SMOD STOP CALLER "
				},
				"gasEstimates": {
					"creation": {
						"codeDepositCost": "759000",
						"executionCost": "infinite",
						"totalCost": "infinite"
					},
					"external": {
						"amount()": "2496",
						"farmer()": "2558",
						"initilize(address,uint256,uint256,uint256,uint256,uint256)": "infinite",
						"limitOnPendingOrders()": "2452",
						"market()": "2603",
						"name()": "2430",
						"orderSize()": "2474",
						"owner()": "2633",
						"placeOrder()": "infinite",
						"price()": "2452",
						"renounceOwnership()": "30465",
						"takeOrder()": "infinite",
						"transferOwnership(address)": "30813"
					}
				},
				"methodIdentifiers": {
					"amount()": "aa8c217c",
					"farmer()": "d811fcf0",
					"initilize(address,uint256,uint256,uint256,uint256,uint256)": "a6bcd45c",
					"limitOnPendingOrders()": "530d124e",
					"market()": "80f55605",
					"name()": "06fdde03",
					"orderSize()": "6d86b8a5",
					"owner()": "8da5cb5b",
					"placeOrder()": "f5c609e0",
					"price()": "a035b1fe",
					"renounceOwnership()": "715018a6",
					"takeOrder()": "d32dacc1",
					"transferOwnership(address)": "f2fde38b"
				}
			},
			"storageLayout": {
				"storage": [
					{
						"astId": 7,
						"contract": "contracts/Produce.sol:Produce",
						"label": "_owner",
						"offset": 0,
						"slot": "0",
						"type": "t_address"
					},
					{
						"astId": 351,
						"contract": "contracts/Produce.sol:Produce",
						"label": "farmer",
						"offset": 0,
						"slot": "1",
						"type": "t_address"
					},
					{
						"astId": 353,
						"contract": "contracts/Produce.sol:Produce",
						"label": "market",
						"offset": 0,
						"slot": "2",
						"type": "t_address"
					},
					{
						"astId": 356,
						"contract": "contracts/Produce.sol:Produce",
						"label": "orders",
						"offset": 0,
						"slot": "3",
						"type": "t_array(t_address)dyn_storage"
					},
					{
						"astId": 358,
						"contract": "contracts/Produce.sol:Produce",
						"label": "limitOnPendingOrders",
						"offset": 0,
						"slot": "4",
						"type": "t_uint256"
					},
					{
						"astId": 360,
						"contract": "contracts/Produce.sol:Produce",
						"label": "name",
						"offset": 0,
						"slot": "5",
						"type": "t_uint256"
					},
					{
						"astId": 362,
						"contract": "contracts/Produce.sol:Produce",
						"label": "price",
						"offset": 0,
						"slot": "6",
						"type": "t_uint256"
					},
					{
						"astId": 364,
						"contract": "contracts/Produce.sol:Produce",
						"label": "orderSize",
						"offset": 0,
						"slot": "7",
						"type": "t_uint256"
					},
					{
						"astId": 366,
						"contract": "contracts/Produce.sol:Produce",
						"label": "amount",
						"offset": 0,
						"slot": "8",
						"type": "t_uint256"
					},
					{
						"astId": 372,
						"contract": "contracts/Produce.sol:Produce",
						"label": "state",
						"offset": 0,
						"slot": "9",
						"type": "t_enum(State)369"
					}
				],
				"types": {
					"t_address": {
						"encoding": "inplace",
						"label": "address",
						"numberOfBytes": "20"
					},
					"t_array(t_address)dyn_storage": {
						"base": "t_address",
						"encoding": "dynamic_array",
						"label": "address[]",
						"numberOfBytes": "32"
					},
					"t_enum(State)369": {
						"encoding": "inplace",
						"label": "enum Produce.State",
						"numberOfBytes": "1"
					},
					"t_uint256": {
						"encoding": "inplace",
						"label": "uint256",
						"numberOfBytes": "32"
					}
				}
			},
			"userdoc": {
				"kind": "user",
				"methods": {
					"placeOrder()": {
						"notice": "Place an order an order of the produce"
					},
					"takeOrder()": {
						"notice": "This allows farmers to take a single produceOrder"
					}
				},
				"version": 1
			}
		}
	}
}