{
	"contracts/GroupOrder.sol": {
		"GroupOrder": {
			"abi": [
				{
					"inputs": [
						{
							"internalType": "address",
							"name": "produce_",
							"type": "address"
						},
						{
							"internalType": "uint256",
							"name": "timeLimit_",
							"type": "uint256"
						}
					],
					"stateMutability": "nonpayable",
					"type": "constructor"
				},
				{
					"inputs": [],
					"name": "endTime",
					"outputs": [
						{
							"internalType": "uint256",
							"name": "",
							"type": "uint256"
						}
					],
					"stateMutability": "view",
					"type": "function"
				},
				{
					"inputs": [],
					"name": "notifyOrderSent",
					"outputs": [],
					"stateMutability": "nonpayable",
					"type": "function"
				},
				{
					"inputs": [
						{
							"internalType": "uint256",
							"name": "",
							"type": "uint256"
						}
					],
					"name": "orderList",
					"outputs": [
						{
							"internalType": "address",
							"name": "",
							"type": "address"
						}
					],
					"stateMutability": "view",
					"type": "function"
				},
				{
					"inputs": [
						{
							"internalType": "uint256",
							"name": "numberOfPortions",
							"type": "uint256"
						}
					],
					"name": "placeOrder",
					"outputs": [
						{
							"internalType": "uint256",
							"name": "portions",
							"type": "uint256"
						}
					],
					"stateMutability": "payable",
					"type": "function"
				},
				{
					"inputs": [],
					"name": "portionsAgreed",
					"outputs": [
						{
							"internalType": "uint256",
							"name": "",
							"type": "uint256"
						}
					],
					"stateMutability": "view",
					"type": "function"
				},
				{
					"inputs": [],
					"name": "produce",
					"outputs": [
						{
							"internalType": "contract Produce",
							"name": "",
							"type": "address"
						}
					],
					"stateMutability": "view",
					"type": "function"
				},
				{
					"inputs": [],
					"name": "rejectOrder",
					"outputs": [],
					"stateMutability": "nonpayable",
					"type": "function"
				},
				{
					"inputs": [],
					"name": "startTime",
					"outputs": [
						{
							"internalType": "uint256",
							"name": "",
							"type": "uint256"
						}
					],
					"stateMutability": "view",
					"type": "function"
				},
				{
					"inputs": [],
					"name": "state",
					"outputs": [
						{
							"internalType": "enum GroupOrder.State",
							"name": "",
							"type": "uint8"
						}
					],
					"stateMutability": "view",
					"type": "function"
				},
				{
					"inputs": [],
					"name": "submitOrder",
					"outputs": [],
					"stateMutability": "nonpayable",
					"type": "function"
				},
				{
					"inputs": [],
					"name": "timeOutGroupOrder",
					"outputs": [],
					"stateMutability": "nonpayable",
					"type": "function"
				},
				{
					"inputs": [],
					"name": "withdrawFunds",
					"outputs": [],
					"stateMutability": "nonpayable",
					"type": "function"
				}
			],
			"devdoc": {
				"kind": "dev",
				"methods": {
					"placeOrder(uint256)": {
						"details": "returns boolean flag variable representing whether the order has been sent",
						"params": {
							"numberOfPortions": "number of portions required for order"
						}
					}
				},
				"version": 1
			},
			"evm": {
				"assembly": "    /* \"contracts/GroupOrder.sol\":140:3519  contract GroupOrder {... */\n  mstore(0x40, 0x80)\n    /* \"contracts/GroupOrder.sol\":471:840  constructor(address produce_, uint256 timeLimit_) {... */\n  callvalue\n  dup1\n  iszero\n  tag_1\n  jumpi\n  0x00\n  dup1\n  revert\ntag_1:\n  pop\n  mload(0x40)\n  sub(codesize, bytecodeSize)\n  dup1\n  bytecodeSize\n  dup4\n  codecopy\n  dup2\n  dup2\n  add\n  0x40\n  mstore\n  dup2\n  add\n  swap1\n  tag_2\n  swap2\n  swap1\n  tag_3\n  jump\t// in\ntag_2:\n    /* \"contracts/GroupOrder.sol\":684:688  1500 */\n  0x05dc\n    /* \"contracts/GroupOrder.sol\":671:681  timeLimit_ */\n  dup2\n    /* \"contracts/GroupOrder.sol\":671:688  timeLimit_ > 1500 */\n  gt\n    /* \"contracts/GroupOrder.sol\":663:689  require(timeLimit_ > 1500) */\n  tag_6\n  jumpi\n  0x00\n  dup1\n  revert\ntag_6:\n    /* \"contracts/GroupOrder.sol\":717:725  produce_ */\n  dup2\n    /* \"contracts/GroupOrder.sol\":699:706  produce */\n  0x00\n  dup1\n    /* \"contracts/GroupOrder.sol\":699:726  produce = Produce(produce_) */\n  0x0100\n  exp\n  dup2\n  sload\n  dup2\n  0xffffffffffffffffffffffffffffffffffffffff\n  mul\n  not\n  and\n  swap1\n  dup4\n  0xffffffffffffffffffffffffffffffffffffffff\n  and\n  mul\n  or\n  swap1\n  sstore\n  pop\n    /* \"contracts/GroupOrder.sol\":748:763  block.timestamp */\n  timestamp\n    /* \"contracts/GroupOrder.sol\":736:745  startTime */\n  0x02\n    /* \"contracts/GroupOrder.sol\":736:763  startTime = block.timestamp */\n  dup2\n  swap1\n  sstore\n  pop\n    /* \"contracts/GroupOrder.sol\":795:805  timeLimit_ */\n  dup1\n    /* \"contracts/GroupOrder.sol\":783:792  startTime */\n  sload(0x02)\n    /* \"contracts/GroupOrder.sol\":783:805  startTime + timeLimit_ */\n  tag_7\n  swap2\n  swap1\n  tag_8\n  jump\t// in\ntag_7:\n    /* \"contracts/GroupOrder.sol\":773:780  endTime */\n  0x03\n    /* \"contracts/GroupOrder.sol\":773:805  endTime = startTime + timeLimit_ */\n  dup2\n  swap1\n  sstore\n  pop\n    /* \"contracts/GroupOrder.sol\":823:833  State.OPEN */\n  0x00\n    /* \"contracts/GroupOrder.sol\":815:820  state */\n  0x04\n  0x00\n    /* \"contracts/GroupOrder.sol\":815:833  state = State.OPEN */\n  0x0100\n  exp\n  dup2\n  sload\n  dup2\n  0xff\n  mul\n  not\n  and\n  swap1\n  dup4\n  0x03\n  dup2\n  gt\n  iszero\n  tag_9\n  jumpi\n  tag_10\n  tag_11\n  jump\t// in\ntag_10:\ntag_9:\n  mul\n  or\n  swap1\n  sstore\n  pop\n    /* \"contracts/GroupOrder.sol\":471:840  constructor(address produce_, uint256 timeLimit_) {... */\n  pop\n  pop\n    /* \"contracts/GroupOrder.sol\":140:3519  contract GroupOrder {... */\n  jump(tag_12)\n    /* \"#utility.yul\":7:150   */\ntag_14:\n    /* \"#utility.yul\":64:69   */\n  0x00\n    /* \"#utility.yul\":95:101   */\n  dup2\n    /* \"#utility.yul\":89:102   */\n  mload\n    /* \"#utility.yul\":80:102   */\n  swap1\n  pop\n    /* \"#utility.yul\":111:144   */\n  tag_16\n    /* \"#utility.yul\":138:143   */\n  dup2\n    /* \"#utility.yul\":111:144   */\n  tag_17\n  jump\t// in\ntag_16:\n    /* \"#utility.yul\":7:150   */\n  swap3\n  swap2\n  pop\n  pop\n  jump\t// out\n    /* \"#utility.yul\":156:299   */\ntag_18:\n    /* \"#utility.yul\":213:218   */\n  0x00\n    /* \"#utility.yul\":244:250   */\n  dup2\n    /* \"#utility.yul\":238:251   */\n  mload\n    /* \"#utility.yul\":229:251   */\n  swap1\n  pop\n    /* \"#utility.yul\":260:293   */\n  tag_20\n    /* \"#utility.yul\":287:292   */\n  dup2\n    /* \"#utility.yul\":260:293   */\n  tag_21\n  jump\t// in\ntag_20:\n    /* \"#utility.yul\":156:299   */\n  swap3\n  swap2\n  pop\n  pop\n  jump\t// out\n    /* \"#utility.yul\":305:812   */\ntag_3:\n    /* \"#utility.yul\":384:390   */\n  0x00\n    /* \"#utility.yul\":392:398   */\n  dup1\n    /* \"#utility.yul\":441:443   */\n  0x40\n    /* \"#utility.yul\":429:438   */\n  dup4\n    /* \"#utility.yul\":420:427   */\n  dup6\n    /* \"#utility.yul\":416:439   */\n  sub\n    /* \"#utility.yul\":412:444   */\n  slt\n    /* \"#utility.yul\":409:528   */\n  iszero\n  tag_23\n  jumpi\n    /* \"#utility.yul\":447:526   */\n  tag_24\n  tag_25\n  jump\t// in\ntag_24:\n    /* \"#utility.yul\":409:528   */\ntag_23:\n    /* \"#utility.yul\":567:568   */\n  0x00\n    /* \"#utility.yul\":592:656   */\n  tag_26\n    /* \"#utility.yul\":648:655   */\n  dup6\n    /* \"#utility.yul\":639:645   */\n  dup3\n    /* \"#utility.yul\":628:637   */\n  dup7\n    /* \"#utility.yul\":624:646   */\n  add\n    /* \"#utility.yul\":592:656   */\n  tag_14\n  jump\t// in\ntag_26:\n    /* \"#utility.yul\":582:656   */\n  swap3\n  pop\n    /* \"#utility.yul\":538:666   */\n  pop\n    /* \"#utility.yul\":705:707   */\n  0x20\n    /* \"#utility.yul\":731:795   */\n  tag_27\n    /* \"#utility.yul\":787:794   */\n  dup6\n    /* \"#utility.yul\":778:784   */\n  dup3\n    /* \"#utility.yul\":767:776   */\n  dup7\n    /* \"#utility.yul\":763:785   */\n  add\n    /* \"#utility.yul\":731:795   */\n  tag_18\n  jump\t// in\ntag_27:\n    /* \"#utility.yul\":721:795   */\n  swap2\n  pop\n    /* \"#utility.yul\":676:805   */\n  pop\n    /* \"#utility.yul\":305:812   */\n  swap3\n  pop\n  swap3\n  swap1\n  pop\n  jump\t// out\n    /* \"#utility.yul\":899:1204   */\ntag_8:\n    /* \"#utility.yul\":939:942   */\n  0x00\n    /* \"#utility.yul\":958:978   */\n  tag_31\n    /* \"#utility.yul\":976:977   */\n  dup3\n    /* \"#utility.yul\":958:978   */\n  tag_32\n  jump\t// in\ntag_31:\n    /* \"#utility.yul\":953:978   */\n  swap2\n  pop\n    /* \"#utility.yul\":992:1012   */\n  tag_33\n    /* \"#utility.yul\":1010:1011   */\n  dup4\n    /* \"#utility.yul\":992:1012   */\n  tag_32\n  jump\t// in\ntag_33:\n    /* \"#utility.yul\":987:1012   */\n  swap3\n  pop\n    /* \"#utility.yul\":1146:1147   */\n  dup3\n    /* \"#utility.yul\":1078:1144   */\n  0xffffffffffffffffffffffffffffffffffffffffffffffffffffffffffffffff\n    /* \"#utility.yul\":1074:1148   */\n  sub\n    /* \"#utility.yul\":1071:1072   */\n  dup3\n    /* \"#utility.yul\":1068:1149   */\n  gt\n    /* \"#utility.yul\":1065:1172   */\n  iszero\n  tag_34\n  jumpi\n    /* \"#utility.yul\":1152:1170   */\n  tag_35\n  tag_36\n  jump\t// in\ntag_35:\n    /* \"#utility.yul\":1065:1172   */\ntag_34:\n    /* \"#utility.yul\":1196:1197   */\n  dup3\n    /* \"#utility.yul\":1193:1194   */\n  dup3\n    /* \"#utility.yul\":1189:1198   */\n  add\n    /* \"#utility.yul\":1182:1198   */\n  swap1\n  pop\n    /* \"#utility.yul\":899:1204   */\n  swap3\n  swap2\n  pop\n  pop\n  jump\t// out\n    /* \"#utility.yul\":1210:1306   */\ntag_37:\n    /* \"#utility.yul\":1247:1254   */\n  0x00\n    /* \"#utility.yul\":1276:1300   */\n  tag_39\n    /* \"#utility.yul\":1294:1299   */\n  dup3\n    /* \"#utility.yul\":1276:1300   */\n  tag_40\n  jump\t// in\ntag_39:\n    /* \"#utility.yul\":1265:1300   */\n  swap1\n  pop\n    /* \"#utility.yul\":1210:1306   */\n  swap2\n  swap1\n  pop\n  jump\t// out\n    /* \"#utility.yul\":1312:1438   */\ntag_40:\n    /* \"#utility.yul\":1349:1356   */\n  0x00\n    /* \"#utility.yul\":1389:1431   */\n  0xffffffffffffffffffffffffffffffffffffffff\n    /* \"#utility.yul\":1382:1387   */\n  dup3\n    /* \"#utility.yul\":1378:1432   */\n  and\n    /* \"#utility.yul\":1367:1432   */\n  swap1\n  pop\n    /* \"#utility.yul\":1312:1438   */\n  swap2\n  swap1\n  pop\n  jump\t// out\n    /* \"#utility.yul\":1444:1521   */\ntag_32:\n    /* \"#utility.yul\":1481:1488   */\n  0x00\n    /* \"#utility.yul\":1510:1515   */\n  dup2\n    /* \"#utility.yul\":1499:1515   */\n  swap1\n  pop\n    /* \"#utility.yul\":1444:1521   */\n  swap2\n  swap1\n  pop\n  jump\t// out\n    /* \"#utility.yul\":1527:1707   */\ntag_36:\n    /* \"#utility.yul\":1575:1652   */\n  0x4e487b7100000000000000000000000000000000000000000000000000000000\n    /* \"#utility.yul\":1572:1573   */\n  0x00\n    /* \"#utility.yul\":1565:1653   */\n  mstore\n    /* \"#utility.yul\":1672:1676   */\n  0x11\n    /* \"#utility.yul\":1669:1670   */\n  0x04\n    /* \"#utility.yul\":1662:1677   */\n  mstore\n    /* \"#utility.yul\":1696:1700   */\n  0x24\n    /* \"#utility.yul\":1693:1694   */\n  0x00\n    /* \"#utility.yul\":1686:1701   */\n  revert\n    /* \"#utility.yul\":1713:1893   */\ntag_11:\n    /* \"#utility.yul\":1761:1838   */\n  0x4e487b7100000000000000000000000000000000000000000000000000000000\n    /* \"#utility.yul\":1758:1759   */\n  0x00\n    /* \"#utility.yul\":1751:1839   */\n  mstore\n    /* \"#utility.yul\":1858:1862   */\n  0x21\n    /* \"#utility.yul\":1855:1856   */\n  0x04\n    /* \"#utility.yul\":1848:1863   */\n  mstore\n    /* \"#utility.yul\":1882:1886   */\n  0x24\n    /* \"#utility.yul\":1879:1880   */\n  0x00\n    /* \"#utility.yul\":1872:1887   */\n  revert\n    /* \"#utility.yul\":2022:2139   */\ntag_25:\n    /* \"#utility.yul\":2131:2132   */\n  0x00\n    /* \"#utility.yul\":2128:2129   */\n  dup1\n    /* \"#utility.yul\":2121:2133   */\n  revert\n    /* \"#utility.yul\":2145:2267   */\ntag_17:\n    /* \"#utility.yul\":2218:2242   */\n  tag_49\n    /* \"#utility.yul\":2236:2241   */\n  dup2\n    /* \"#utility.yul\":2218:2242   */\n  tag_37\n  jump\t// in\ntag_49:\n    /* \"#utility.yul\":2211:2216   */\n  dup2\n    /* \"#utility.yul\":2208:2243   */\n  eq\n    /* \"#utility.yul\":2198:2261   */\n  tag_50\n  jumpi\n    /* \"#utility.yul\":2257:2258   */\n  0x00\n    /* \"#utility.yul\":2254:2255   */\n  dup1\n    /* \"#utility.yul\":2247:2259   */\n  revert\n    /* \"#utility.yul\":2198:2261   */\ntag_50:\n    /* \"#utility.yul\":2145:2267   */\n  pop\n  jump\t// out\n    /* \"#utility.yul\":2273:2395   */\ntag_21:\n    /* \"#utility.yul\":2346:2370   */\n  tag_52\n    /* \"#utility.yul\":2364:2369   */\n  dup2\n    /* \"#utility.yul\":2346:2370   */\n  tag_32\n  jump\t// in\ntag_52:\n    /* \"#utility.yul\":2339:2344   */\n  dup2\n    /* \"#utility.yul\":2336:2371   */\n  eq\n    /* \"#utility.yul\":2326:2389   */\n  tag_53\n  jumpi\n    /* \"#utility.yul\":2385:2386   */\n  0x00\n    /* \"#utility.yul\":2382:2383   */\n  dup1\n    /* \"#utility.yul\":2375:2387   */\n  revert\n    /* \"#utility.yul\":2326:2389   */\ntag_53:\n    /* \"#utility.yul\":2273:2395   */\n  pop\n  jump\t// out\n    /* \"contracts/GroupOrder.sol\":140:3519  contract GroupOrder {... */\ntag_12:\n  dataSize(sub_0)\n  dup1\n  dataOffset(sub_0)\n  0x00\n  codecopy\n  0x00\n  return\nstop\n\nsub_0: assembly {\n        /* \"contracts/GroupOrder.sol\":140:3519  contract GroupOrder {... */\n      mstore(0x40, 0x80)\n      jumpi(tag_1, lt(calldatasize, 0x04))\n      shr(0xe0, calldataload(0x00))\n      dup1\n      0x76f75e7f\n      gt\n      tag_14\n      jumpi\n      dup1\n      0x76f75e7f\n      eq\n      tag_8\n      jumpi\n      dup1\n      0x78e97925\n      eq\n      tag_9\n      jumpi\n      dup1\n      0x7de4fbb6\n      eq\n      tag_10\n      jumpi\n      dup1\n      0xba2255f4\n      eq\n      tag_11\n      jumpi\n      dup1\n      0xc19d93fb\n      eq\n      tag_12\n      jumpi\n      dup1\n      0xf56b3ad5\n      eq\n      tag_13\n      jumpi\n      jump(tag_1)\n    tag_14:\n      dup1\n      0x24600fc3\n      eq\n      tag_2\n      jumpi\n      dup1\n      0x3197cbb6\n      eq\n      tag_3\n      jumpi\n      dup1\n      0x409b509d\n      eq\n      tag_4\n      jumpi\n      dup1\n      0x40c78e98\n      eq\n      tag_5\n      jumpi\n      dup1\n      0x5f29a5ee\n      eq\n      tag_6\n      jumpi\n      dup1\n      0x656b9952\n      eq\n      tag_7\n      jumpi\n    tag_1:\n      0x00\n      dup1\n      revert\n        /* \"contracts/GroupOrder.sol\":2776:3137  function withdrawFunds() external {... */\n    tag_2:\n      callvalue\n      dup1\n      iszero\n      tag_15\n      jumpi\n      0x00\n      dup1\n      revert\n    tag_15:\n      pop\n      tag_16\n      tag_17\n      jump\t// in\n    tag_16:\n      stop\n        /* \"contracts/GroupOrder.sol\":259:281  uint256 public endTime */\n    tag_3:\n      callvalue\n      dup1\n      iszero\n      tag_18\n      jumpi\n      0x00\n      dup1\n      revert\n    tag_18:\n      pop\n      tag_19\n      tag_20\n      jump\t// in\n    tag_19:\n      mload(0x40)\n      tag_21\n      swap2\n      swap1\n      tag_22\n      jump\t// in\n    tag_21:\n      mload(0x40)\n      dup1\n      swap2\n      sub\n      swap1\n      return\n        /* \"contracts/GroupOrder.sol\":930:1124  function submitOrder() external {... */\n    tag_4:\n      callvalue\n      dup1\n      iszero\n      tag_23\n      jumpi\n      0x00\n      dup1\n      revert\n    tag_23:\n      pop\n      tag_24\n      tag_25\n      jump\t// in\n    tag_24:\n      stop\n        /* \"contracts/GroupOrder.sol\":3193:3517  function timeOutGroupOrder() external {... */\n    tag_5:\n      callvalue\n      dup1\n      iszero\n      tag_26\n      jumpi\n      0x00\n      dup1\n      revert\n    tag_26:\n      pop\n      tag_27\n      tag_28\n      jump\t// in\n    tag_27:\n      stop\n        /* \"contracts/GroupOrder.sol\":1981:2190  function rejectOrder() external {... */\n    tag_6:\n      callvalue\n      dup1\n      iszero\n      tag_29\n      jumpi\n      0x00\n      dup1\n      revert\n    tag_29:\n      pop\n      tag_30\n      tag_31\n      jump\t// in\n    tag_30:\n      stop\n        /* \"contracts/GroupOrder.sol\":166:188  Produce public produce */\n    tag_7:\n      callvalue\n      dup1\n      iszero\n      tag_32\n      jumpi\n      0x00\n      dup1\n      revert\n    tag_32:\n      pop\n      tag_33\n      tag_34\n      jump\t// in\n    tag_33:\n      mload(0x40)\n      tag_35\n      swap2\n      swap1\n      tag_36\n      jump\t// in\n    tag_35:\n      mload(0x40)\n      dup1\n      swap2\n      sub\n      swap1\n      return\n        /* \"contracts/GroupOrder.sol\":438:464  address[] public orderList */\n    tag_8:\n      callvalue\n      dup1\n      iszero\n      tag_37\n      jumpi\n      0x00\n      dup1\n      revert\n    tag_37:\n      pop\n      tag_38\n      0x04\n      dup1\n      calldatasize\n      sub\n      dup2\n      add\n      swap1\n      tag_39\n      swap2\n      swap1\n      tag_40\n      jump\t// in\n    tag_39:\n      tag_41\n      jump\t// in\n    tag_38:\n      mload(0x40)\n      tag_42\n      swap2\n      swap1\n      tag_43\n      jump\t// in\n    tag_42:\n      mload(0x40)\n      dup1\n      swap2\n      sub\n      swap1\n      return\n        /* \"contracts/GroupOrder.sol\":229:253  uint256 public startTime */\n    tag_9:\n      callvalue\n      dup1\n      iszero\n      tag_44\n      jumpi\n      0x00\n      dup1\n      revert\n    tag_44:\n      pop\n      tag_45\n      tag_46\n      jump\t// in\n    tag_45:\n      mload(0x40)\n      tag_47\n      swap2\n      swap1\n      tag_22\n      jump\t// in\n    tag_47:\n      mload(0x40)\n      dup1\n      swap2\n      sub\n      swap1\n      return\n        /* \"contracts/GroupOrder.sol\":2344:2691  function notifyOrderSent() external {... */\n    tag_10:\n      callvalue\n      dup1\n      iszero\n      tag_48\n      jumpi\n      0x00\n      dup1\n      revert\n    tag_48:\n      pop\n      tag_49\n      tag_50\n      jump\t// in\n    tag_49:\n      stop\n        /* \"contracts/GroupOrder.sol\":1360:1933  function placeOrder(uint256 numberOfPortions)... */\n    tag_11:\n      tag_51\n      0x04\n      dup1\n      calldatasize\n      sub\n      dup2\n      add\n      swap1\n      tag_52\n      swap2\n      swap1\n      tag_40\n      jump\t// in\n    tag_52:\n      tag_53\n      jump\t// in\n    tag_51:\n      mload(0x40)\n      tag_54\n      swap2\n      swap1\n      tag_22\n      jump\t// in\n    tag_54:\n      mload(0x40)\n      dup1\n      swap2\n      sub\n      swap1\n      return\n        /* \"contracts/GroupOrder.sol\":373:391  State public state */\n    tag_12:\n      callvalue\n      dup1\n      iszero\n      tag_55\n      jumpi\n      0x00\n      dup1\n      revert\n    tag_55:\n      pop\n      tag_56\n      tag_57\n      jump\t// in\n    tag_56:\n      mload(0x40)\n      tag_58\n      swap2\n      swap1\n      tag_59\n      jump\t// in\n    tag_58:\n      mload(0x40)\n      dup1\n      swap2\n      sub\n      swap1\n      return\n        /* \"contracts/GroupOrder.sol\":194:223  uint256 public portionsAgreed */\n    tag_13:\n      callvalue\n      dup1\n      iszero\n      tag_60\n      jumpi\n      0x00\n      dup1\n      revert\n    tag_60:\n      pop\n      tag_61\n      tag_62\n      jump\t// in\n    tag_61:\n      mload(0x40)\n      tag_63\n      swap2\n      swap1\n      tag_22\n      jump\t// in\n    tag_63:\n      mload(0x40)\n      dup1\n      swap2\n      sub\n      swap1\n      return\n        /* \"contracts/GroupOrder.sol\":2776:3137  function withdrawFunds() external {... */\n    tag_17:\n        /* \"contracts/GroupOrder.sol\":2837:2851  State.REJECTED */\n      0x02\n        /* \"contracts/GroupOrder.sol\":2828:2851  state == State.REJECTED */\n      0x03\n      dup2\n      gt\n      iszero\n      tag_65\n      jumpi\n      tag_66\n      tag_67\n      jump\t// in\n    tag_66:\n    tag_65:\n        /* \"contracts/GroupOrder.sol\":2828:2833  state */\n      0x04\n      0x00\n      swap1\n      sload\n      swap1\n      0x0100\n      exp\n      swap1\n      div\n      0xff\n      and\n        /* \"contracts/GroupOrder.sol\":2828:2851  state == State.REJECTED */\n      0x03\n      dup2\n      gt\n      iszero\n      tag_68\n      jumpi\n      tag_69\n      tag_67\n      jump\t// in\n    tag_69:\n    tag_68:\n      eq\n        /* \"contracts/GroupOrder.sol\":2820:2883  require(state == State.REJECTED, \"order has not been rejected\") */\n      tag_70\n      jumpi\n      mload(0x40)\n      0x08c379a000000000000000000000000000000000000000000000000000000000\n      dup2\n      mstore\n      0x04\n      add\n      tag_71\n      swap1\n      tag_72\n      jump\t// in\n    tag_71:\n      mload(0x40)\n      dup1\n      swap2\n      sub\n      swap1\n      revert\n    tag_70:\n        /* \"contracts/GroupOrder.sol\":2935:2936  0 */\n      0x00\n        /* \"contracts/GroupOrder.sol\":2914:2920  orders */\n      0x05\n        /* \"contracts/GroupOrder.sol\":2914:2932  orders[msg.sender] */\n      0x00\n        /* \"contracts/GroupOrder.sol\":2921:2931  msg.sender */\n      caller\n        /* \"contracts/GroupOrder.sol\":2914:2932  orders[msg.sender] */\n      0xffffffffffffffffffffffffffffffffffffffff\n      and\n      0xffffffffffffffffffffffffffffffffffffffff\n      and\n      dup2\n      mstore\n      0x20\n      add\n      swap1\n      dup2\n      mstore\n      0x20\n      add\n      0x00\n      keccak256\n      sload\n        /* \"contracts/GroupOrder.sol\":2914:2936  orders[msg.sender] > 0 */\n      gt\n        /* \"contracts/GroupOrder.sol\":2893:3007  require(... */\n      tag_73\n      jumpi\n      mload(0x40)\n      0x08c379a000000000000000000000000000000000000000000000000000000000\n      dup2\n      mstore\n      0x04\n      add\n      tag_74\n      swap1\n      tag_75\n      jump\t// in\n    tag_74:\n      mload(0x40)\n      dup1\n      swap2\n      sub\n      swap1\n      revert\n    tag_73:\n        /* \"contracts/GroupOrder.sol\":3017:3031  uint256 amount */\n      0x00\n        /* \"contracts/GroupOrder.sol\":3034:3040  orders */\n      0x05\n        /* \"contracts/GroupOrder.sol\":3034:3052  orders[msg.sender] */\n      0x00\n        /* \"contracts/GroupOrder.sol\":3041:3051  msg.sender */\n      caller\n        /* \"contracts/GroupOrder.sol\":3034:3052  orders[msg.sender] */\n      0xffffffffffffffffffffffffffffffffffffffff\n      and\n      0xffffffffffffffffffffffffffffffffffffffff\n      and\n      dup2\n      mstore\n      0x20\n      add\n      swap1\n      dup2\n      mstore\n      0x20\n      add\n      0x00\n      keccak256\n      sload\n        /* \"contracts/GroupOrder.sol\":3017:3052  uint256 amount = orders[msg.sender] */\n      swap1\n      pop\n        /* \"contracts/GroupOrder.sol\":3083:3084  0 */\n      0x00\n        /* \"contracts/GroupOrder.sol\":3062:3068  orders */\n      0x05\n        /* \"contracts/GroupOrder.sol\":3062:3080  orders[msg.sender] */\n      0x00\n        /* \"contracts/GroupOrder.sol\":3069:3079  msg.sender */\n      caller\n        /* \"contracts/GroupOrder.sol\":3062:3080  orders[msg.sender] */\n      0xffffffffffffffffffffffffffffffffffffffff\n      and\n      0xffffffffffffffffffffffffffffffffffffffff\n      and\n      dup2\n      mstore\n      0x20\n      add\n      swap1\n      dup2\n      mstore\n      0x20\n      add\n      0x00\n      keccak256\n        /* \"contracts/GroupOrder.sol\":3062:3084  orders[msg.sender] = 0 */\n      dup2\n      swap1\n      sstore\n      pop\n        /* \"contracts/GroupOrder.sol\":3102:3112  msg.sender */\n      caller\n        /* \"contracts/GroupOrder.sol\":3094:3122  payable(msg.sender).transfer */\n      0xffffffffffffffffffffffffffffffffffffffff\n      and\n        /* \"contracts/GroupOrder.sol\":3094:3130  payable(msg.sender).transfer(amount) */\n      0x08fc\n        /* \"contracts/GroupOrder.sol\":3123:3129  amount */\n      dup3\n        /* \"contracts/GroupOrder.sol\":3094:3130  payable(msg.sender).transfer(amount) */\n      swap1\n      dup2\n      iszero\n      mul\n      swap1\n      mload(0x40)\n      0x00\n      mload(0x40)\n      dup1\n      dup4\n      sub\n      dup2\n      dup6\n      dup9\n      dup9\n      call\n      swap4\n      pop\n      pop\n      pop\n      pop\n      iszero\n      dup1\n      iszero\n      tag_77\n      jumpi\n      returndatasize\n      0x00\n      dup1\n      returndatacopy\n      revert(0x00, returndatasize)\n    tag_77:\n      pop\n        /* \"contracts/GroupOrder.sol\":2810:3137  {... */\n      pop\n        /* \"contracts/GroupOrder.sol\":2776:3137  function withdrawFunds() external {... */\n      jump\t// out\n        /* \"contracts/GroupOrder.sol\":259:281  uint256 public endTime */\n    tag_20:\n      sload(0x03)\n      dup2\n      jump\t// out\n        /* \"contracts/GroupOrder.sol\":930:1124  function submitOrder() external {... */\n    tag_25:\n        /* \"contracts/GroupOrder.sol\":989:999  State.OPEN */\n      0x00\n        /* \"contracts/GroupOrder.sol\":980:999  state == State.OPEN */\n      0x03\n      dup2\n      gt\n      iszero\n      tag_79\n      jumpi\n      tag_80\n      tag_67\n      jump\t// in\n    tag_80:\n    tag_79:\n        /* \"contracts/GroupOrder.sol\":980:985  state */\n      0x04\n      0x00\n      swap1\n      sload\n      swap1\n      0x0100\n      exp\n      swap1\n      div\n      0xff\n      and\n        /* \"contracts/GroupOrder.sol\":980:999  state == State.OPEN */\n      0x03\n      dup2\n      gt\n      iszero\n      tag_81\n      jumpi\n      tag_82\n      tag_67\n      jump\t// in\n    tag_82:\n    tag_81:\n      eq\n        /* \"contracts/GroupOrder.sol\":972:1000  require(state == State.OPEN) */\n      tag_83\n      jumpi\n      0x00\n      dup1\n      revert\n    tag_83:\n        /* \"contracts/GroupOrder.sol\":1036:1043  produce */\n      0x00\n      dup1\n      sload\n      swap1\n      0x0100\n      exp\n      swap1\n      div\n      0xffffffffffffffffffffffffffffffffffffffff\n      and\n        /* \"contracts/GroupOrder.sol\":1036:1053  produce.orderSize */\n      0xffffffffffffffffffffffffffffffffffffffff\n      and\n      0x6d86b8a5\n        /* \"contracts/GroupOrder.sol\":1036:1055  produce.orderSize() */\n      mload(0x40)\n      dup2\n      0xffffffff\n      and\n      0xe0\n      shl\n      dup2\n      mstore\n      0x04\n      add\n      0x20\n      mload(0x40)\n      dup1\n      dup4\n      sub\n      dup2\n      dup7\n      dup1\n      extcodesize\n      iszero\n      dup1\n      iszero\n      tag_84\n      jumpi\n      0x00\n      dup1\n      revert\n    tag_84:\n      pop\n      gas\n      staticcall\n      iszero\n      dup1\n      iszero\n      tag_86\n      jumpi\n      returndatasize\n      0x00\n      dup1\n      returndatacopy\n      revert(0x00, returndatasize)\n    tag_86:\n      pop\n      pop\n      pop\n      pop\n      mload(0x40)\n      returndatasize\n      not(0x1f)\n      0x1f\n      dup3\n      add\n      and\n      dup3\n      add\n      dup1\n      0x40\n      mstore\n      pop\n      dup2\n      add\n      swap1\n      tag_87\n      swap2\n      swap1\n      tag_88\n      jump\t// in\n    tag_87:\n        /* \"contracts/GroupOrder.sol\":1018:1032  portionsAgreed */\n      sload(0x01)\n        /* \"contracts/GroupOrder.sol\":1018:1055  portionsAgreed == produce.orderSize() */\n      eq\n        /* \"contracts/GroupOrder.sol\":1010:1056  require(portionsAgreed == produce.orderSize()) */\n      tag_89\n      jumpi\n      0x00\n      dup1\n      revert\n    tag_89:\n        /* \"contracts/GroupOrder.sol\":1074:1087  State.PENDING */\n      0x01\n        /* \"contracts/GroupOrder.sol\":1066:1071  state */\n      0x04\n      0x00\n        /* \"contracts/GroupOrder.sol\":1066:1087  state = State.PENDING */\n      0x0100\n      exp\n      dup2\n      sload\n      dup2\n      0xff\n      mul\n      not\n      and\n      swap1\n      dup4\n      0x03\n      dup2\n      gt\n      iszero\n      tag_90\n      jumpi\n      tag_91\n      tag_67\n      jump\t// in\n    tag_91:\n    tag_90:\n      mul\n      or\n      swap1\n      sstore\n      pop\n        /* \"contracts/GroupOrder.sol\":1097:1104  produce */\n      0x00\n      dup1\n      sload\n      swap1\n      0x0100\n      exp\n      swap1\n      div\n      0xffffffffffffffffffffffffffffffffffffffff\n      and\n        /* \"contracts/GroupOrder.sol\":1097:1115  produce.placeOrder */\n      0xffffffffffffffffffffffffffffffffffffffff\n      and\n      0xf5c609e0\n        /* \"contracts/GroupOrder.sol\":1097:1117  produce.placeOrder() */\n      mload(0x40)\n      dup2\n      0xffffffff\n      and\n      0xe0\n      shl\n      dup2\n      mstore\n      0x04\n      add\n      0x00\n      mload(0x40)\n      dup1\n      dup4\n      sub\n      dup2\n      0x00\n      dup8\n      dup1\n      extcodesize\n      iszero\n      dup1\n      iszero\n      tag_92\n      jumpi\n      0x00\n      dup1\n      revert\n    tag_92:\n      pop\n      gas\n      call\n      iszero\n      dup1\n      iszero\n      tag_94\n      jumpi\n      returndatasize\n      0x00\n      dup1\n      returndatacopy\n      revert(0x00, returndatasize)\n    tag_94:\n      pop\n      pop\n      pop\n      pop\n        /* \"contracts/GroupOrder.sol\":930:1124  function submitOrder() external {... */\n      jump\t// out\n        /* \"contracts/GroupOrder.sol\":3193:3517  function timeOutGroupOrder() external {... */\n    tag_28:\n        /* \"contracts/GroupOrder.sol\":3271:3281  State.OPEN */\n      0x00\n        /* \"contracts/GroupOrder.sol\":3262:3281  state == State.OPEN */\n      0x03\n      dup2\n      gt\n      iszero\n      tag_96\n      jumpi\n      tag_97\n      tag_67\n      jump\t// in\n    tag_97:\n    tag_96:\n        /* \"contracts/GroupOrder.sol\":3262:3267  state */\n      0x04\n      0x00\n      swap1\n      sload\n      swap1\n      0x0100\n      exp\n      swap1\n      div\n      0xff\n      and\n        /* \"contracts/GroupOrder.sol\":3262:3281  state == State.OPEN */\n      0x03\n      dup2\n      gt\n      iszero\n      tag_98\n      jumpi\n      tag_99\n      tag_67\n      jump\t// in\n    tag_99:\n    tag_98:\n      eq\n        /* \"contracts/GroupOrder.sol\":3241:3359  require(... */\n      tag_100\n      jumpi\n      mload(0x40)\n      0x08c379a000000000000000000000000000000000000000000000000000000000\n      dup2\n      mstore\n      0x04\n      add\n      tag_101\n      swap1\n      tag_102\n      jump\t// in\n    tag_101:\n      mload(0x40)\n      dup1\n      swap2\n      sub\n      swap1\n      revert\n    tag_100:\n        /* \"contracts/GroupOrder.sol\":3408:3415  endTime */\n      sload(0x03)\n        /* \"contracts/GroupOrder.sol\":3390:3405  block.timestamp */\n      timestamp\n        /* \"contracts/GroupOrder.sol\":3390:3415  block.timestamp > endTime */\n      gt\n        /* \"contracts/GroupOrder.sol\":3369:3478  require(... */\n      tag_103\n      jumpi\n      mload(0x40)\n      0x08c379a000000000000000000000000000000000000000000000000000000000\n      dup2\n      mstore\n      0x04\n      add\n      tag_104\n      swap1\n      tag_105\n      jump\t// in\n    tag_104:\n      mload(0x40)\n      dup1\n      swap2\n      sub\n      swap1\n      revert\n    tag_103:\n        /* \"contracts/GroupOrder.sol\":3496:3510  State.REJECTED */\n      0x02\n        /* \"contracts/GroupOrder.sol\":3488:3493  state */\n      0x04\n      0x00\n        /* \"contracts/GroupOrder.sol\":3488:3510  state = State.REJECTED */\n      0x0100\n      exp\n      dup2\n      sload\n      dup2\n      0xff\n      mul\n      not\n      and\n      swap1\n      dup4\n      0x03\n      dup2\n      gt\n      iszero\n      tag_106\n      jumpi\n      tag_107\n      tag_67\n      jump\t// in\n    tag_107:\n    tag_106:\n      mul\n      or\n      swap1\n      sstore\n      pop\n        /* \"contracts/GroupOrder.sol\":3193:3517  function timeOutGroupOrder() external {... */\n      jump\t// out\n        /* \"contracts/GroupOrder.sol\":1981:2190  function rejectOrder() external {... */\n    tag_31:\n        /* \"contracts/GroupOrder.sol\":2058:2065  produce */\n      0x00\n      dup1\n      sload\n      swap1\n      0x0100\n      exp\n      swap1\n      div\n      0xffffffffffffffffffffffffffffffffffffffff\n      and\n        /* \"contracts/GroupOrder.sol\":2058:2072  produce.farmer */\n      0xffffffffffffffffffffffffffffffffffffffff\n      and\n      0xd811fcf0\n        /* \"contracts/GroupOrder.sol\":2058:2074  produce.farmer() */\n      mload(0x40)\n      dup2\n      0xffffffff\n      and\n      0xe0\n      shl\n      dup2\n      mstore\n      0x04\n      add\n      0x20\n      mload(0x40)\n      dup1\n      dup4\n      sub\n      dup2\n      dup7\n      dup1\n      extcodesize\n      iszero\n      dup1\n      iszero\n      tag_109\n      jumpi\n      0x00\n      dup1\n      revert\n    tag_109:\n      pop\n      gas\n      staticcall\n      iszero\n      dup1\n      iszero\n      tag_111\n      jumpi\n      returndatasize\n      0x00\n      dup1\n      returndatacopy\n      revert(0x00, returndatasize)\n    tag_111:\n      pop\n      pop\n      pop\n      pop\n      mload(0x40)\n      returndatasize\n      not(0x1f)\n      0x1f\n      dup3\n      add\n      and\n      dup3\n      add\n      dup1\n      0x40\n      mstore\n      pop\n      dup2\n      add\n      swap1\n      tag_112\n      swap2\n      swap1\n      tag_113\n      jump\t// in\n    tag_112:\n        /* \"contracts/GroupOrder.sol\":2044:2074  msg.sender == produce.farmer() */\n      0xffffffffffffffffffffffffffffffffffffffff\n      and\n        /* \"contracts/GroupOrder.sol\":2044:2054  msg.sender */\n      caller\n        /* \"contracts/GroupOrder.sol\":2044:2074  msg.sender == produce.farmer() */\n      0xffffffffffffffffffffffffffffffffffffffff\n      and\n      eq\n        /* \"contracts/GroupOrder.sol\":2023:2151  require(... */\n      tag_114\n      jumpi\n      mload(0x40)\n      0x08c379a000000000000000000000000000000000000000000000000000000000\n      dup2\n      mstore\n      0x04\n      add\n      tag_115\n      swap1\n      tag_116\n      jump\t// in\n    tag_115:\n      mload(0x40)\n      dup1\n      swap2\n      sub\n      swap1\n      revert\n    tag_114:\n        /* \"contracts/GroupOrder.sol\":2169:2183  State.REJECTED */\n      0x02\n        /* \"contracts/GroupOrder.sol\":2161:2166  state */\n      0x04\n      0x00\n        /* \"contracts/GroupOrder.sol\":2161:2183  state = State.REJECTED */\n      0x0100\n      exp\n      dup2\n      sload\n      dup2\n      0xff\n      mul\n      not\n      and\n      swap1\n      dup4\n      0x03\n      dup2\n      gt\n      iszero\n      tag_117\n      jumpi\n      tag_118\n      tag_67\n      jump\t// in\n    tag_118:\n    tag_117:\n      mul\n      or\n      swap1\n      sstore\n      pop\n        /* \"contracts/GroupOrder.sol\":1981:2190  function rejectOrder() external {... */\n      jump\t// out\n        /* \"contracts/GroupOrder.sol\":166:188  Produce public produce */\n    tag_34:\n      0x00\n      dup1\n      sload\n      swap1\n      0x0100\n      exp\n      swap1\n      div\n      0xffffffffffffffffffffffffffffffffffffffff\n      and\n      dup2\n      jump\t// out\n        /* \"contracts/GroupOrder.sol\":438:464  address[] public orderList */\n    tag_41:\n      0x06\n      dup2\n      dup2\n      sload\n      dup2\n      lt\n      tag_119\n      jumpi\n      0x00\n      dup1\n      revert\n    tag_119:\n      swap1\n      0x00\n      mstore\n      keccak256(0x00, 0x20)\n      add\n      0x00\n      swap2\n      pop\n      sload\n      swap1\n      0x0100\n      exp\n      swap1\n      div\n      0xffffffffffffffffffffffffffffffffffffffff\n      and\n      dup2\n      jump\t// out\n        /* \"contracts/GroupOrder.sol\":229:253  uint256 public startTime */\n    tag_46:\n      sload(0x02)\n      dup2\n      jump\t// out\n        /* \"contracts/GroupOrder.sol\":2344:2691  function notifyOrderSent() external {... */\n    tag_50:\n        /* \"contracts/GroupOrder.sol\":2407:2420  State.PENDING */\n      0x01\n        /* \"contracts/GroupOrder.sol\":2398:2420  state == State.PENDING */\n      0x03\n      dup2\n      gt\n      iszero\n      tag_122\n      jumpi\n      tag_123\n      tag_67\n      jump\t// in\n    tag_123:\n    tag_122:\n        /* \"contracts/GroupOrder.sol\":2398:2403  state */\n      0x04\n      0x00\n      swap1\n      sload\n      swap1\n      0x0100\n      exp\n      swap1\n      div\n      0xff\n      and\n        /* \"contracts/GroupOrder.sol\":2398:2420  state == State.PENDING */\n      0x03\n      dup2\n      gt\n      iszero\n      tag_124\n      jumpi\n      tag_125\n      tag_67\n      jump\t// in\n    tag_125:\n    tag_124:\n      eq\n        /* \"contracts/GroupOrder.sol\":2390:2421  require(state == State.PENDING) */\n      tag_126\n      jumpi\n      0x00\n      dup1\n      revert\n    tag_126:\n        /* \"contracts/GroupOrder.sol\":2466:2473  produce */\n      0x00\n      dup1\n      sload\n      swap1\n      0x0100\n      exp\n      swap1\n      div\n      0xffffffffffffffffffffffffffffffffffffffff\n      and\n        /* \"contracts/GroupOrder.sol\":2466:2480  produce.farmer */\n      0xffffffffffffffffffffffffffffffffffffffff\n      and\n      0xd811fcf0\n        /* \"contracts/GroupOrder.sol\":2466:2482  produce.farmer() */\n      mload(0x40)\n      dup2\n      0xffffffff\n      and\n      0xe0\n      shl\n      dup2\n      mstore\n      0x04\n      add\n      0x20\n      mload(0x40)\n      dup1\n      dup4\n      sub\n      dup2\n      dup7\n      dup1\n      extcodesize\n      iszero\n      dup1\n      iszero\n      tag_127\n      jumpi\n      0x00\n      dup1\n      revert\n    tag_127:\n      pop\n      gas\n      staticcall\n      iszero\n      dup1\n      iszero\n      tag_129\n      jumpi\n      returndatasize\n      0x00\n      dup1\n      returndatacopy\n      revert(0x00, returndatasize)\n    tag_129:\n      pop\n      pop\n      pop\n      pop\n      mload(0x40)\n      returndatasize\n      not(0x1f)\n      0x1f\n      dup3\n      add\n      and\n      dup3\n      add\n      dup1\n      0x40\n      mstore\n      pop\n      dup2\n      add\n      swap1\n      tag_130\n      swap2\n      swap1\n      tag_113\n      jump\t// in\n    tag_130:\n        /* \"contracts/GroupOrder.sol\":2452:2482  msg.sender == produce.farmer() */\n      0xffffffffffffffffffffffffffffffffffffffff\n      and\n        /* \"contracts/GroupOrder.sol\":2452:2462  msg.sender */\n      caller\n        /* \"contracts/GroupOrder.sol\":2452:2482  msg.sender == produce.farmer() */\n      0xffffffffffffffffffffffffffffffffffffffff\n      and\n      eq\n        /* \"contracts/GroupOrder.sol\":2431:2578  require(... */\n      tag_131\n      jumpi\n      mload(0x40)\n      0x08c379a000000000000000000000000000000000000000000000000000000000\n      dup2\n      mstore\n      0x04\n      add\n      tag_132\n      swap1\n      tag_133\n      jump\t// in\n    tag_132:\n      mload(0x40)\n      dup1\n      swap2\n      sub\n      swap1\n      revert\n    tag_131:\n        /* \"contracts/GroupOrder.sol\":2596:2606  State.SENT */\n      0x03\n        /* \"contracts/GroupOrder.sol\":2588:2593  state */\n      0x04\n      0x00\n        /* \"contracts/GroupOrder.sol\":2588:2606  state = State.SENT */\n      0x0100\n      exp\n      dup2\n      sload\n      dup2\n      0xff\n      mul\n      not\n      and\n      swap1\n      dup4\n      0x03\n      dup2\n      gt\n      iszero\n      tag_134\n      jumpi\n      tag_135\n      tag_67\n      jump\t// in\n    tag_135:\n    tag_134:\n      mul\n      or\n      swap1\n      sstore\n      pop\n        /* \"contracts/GroupOrder.sol\":2624:2631  produce */\n      0x00\n      dup1\n      sload\n      swap1\n      0x0100\n      exp\n      swap1\n      div\n      0xffffffffffffffffffffffffffffffffffffffff\n      and\n        /* \"contracts/GroupOrder.sol\":2624:2638  produce.farmer */\n      0xffffffffffffffffffffffffffffffffffffffff\n      and\n      0xd811fcf0\n        /* \"contracts/GroupOrder.sol\":2624:2640  produce.farmer() */\n      mload(0x40)\n      dup2\n      0xffffffff\n      and\n      0xe0\n      shl\n      dup2\n      mstore\n      0x04\n      add\n      0x20\n      mload(0x40)\n      dup1\n      dup4\n      sub\n      dup2\n      dup7\n      dup1\n      extcodesize\n      iszero\n      dup1\n      iszero\n      tag_136\n      jumpi\n      0x00\n      dup1\n      revert\n    tag_136:\n      pop\n      gas\n      staticcall\n      iszero\n      dup1\n      iszero\n      tag_138\n      jumpi\n      returndatasize\n      0x00\n      dup1\n      returndatacopy\n      revert(0x00, returndatasize)\n    tag_138:\n      pop\n      pop\n      pop\n      pop\n      mload(0x40)\n      returndatasize\n      not(0x1f)\n      0x1f\n      dup3\n      add\n      and\n      dup3\n      add\n      dup1\n      0x40\n      mstore\n      pop\n      dup2\n      add\n      swap1\n      tag_139\n      swap2\n      swap1\n      tag_113\n      jump\t// in\n    tag_139:\n        /* \"contracts/GroupOrder.sol\":2616:2650  payable(produce.farmer()).transfer */\n      0xffffffffffffffffffffffffffffffffffffffff\n      and\n        /* \"contracts/GroupOrder.sol\":2616:2684  payable(produce.farmer()).transfer(portionsAgreed * produce.price()) */\n      0x08fc\n        /* \"contracts/GroupOrder.sol\":2668:2675  produce */\n      0x00\n      dup1\n      sload\n      swap1\n      0x0100\n      exp\n      swap1\n      div\n      0xffffffffffffffffffffffffffffffffffffffff\n      and\n        /* \"contracts/GroupOrder.sol\":2668:2681  produce.price */\n      0xffffffffffffffffffffffffffffffffffffffff\n      and\n      0xa035b1fe\n        /* \"contracts/GroupOrder.sol\":2668:2683  produce.price() */\n      mload(0x40)\n      dup2\n      0xffffffff\n      and\n      0xe0\n      shl\n      dup2\n      mstore\n      0x04\n      add\n      0x20\n      mload(0x40)\n      dup1\n      dup4\n      sub\n      dup2\n      dup7\n      dup1\n      extcodesize\n      iszero\n      dup1\n      iszero\n      tag_140\n      jumpi\n      0x00\n      dup1\n      revert\n    tag_140:\n      pop\n      gas\n      staticcall\n      iszero\n      dup1\n      iszero\n      tag_142\n      jumpi\n      returndatasize\n      0x00\n      dup1\n      returndatacopy\n      revert(0x00, returndatasize)\n    tag_142:\n      pop\n      pop\n      pop\n      pop\n      mload(0x40)\n      returndatasize\n      not(0x1f)\n      0x1f\n      dup3\n      add\n      and\n      dup3\n      add\n      dup1\n      0x40\n      mstore\n      pop\n      dup2\n      add\n      swap1\n      tag_143\n      swap2\n      swap1\n      tag_88\n      jump\t// in\n    tag_143:\n        /* \"contracts/GroupOrder.sol\":2651:2665  portionsAgreed */\n      sload(0x01)\n        /* \"contracts/GroupOrder.sol\":2651:2683  portionsAgreed * produce.price() */\n      tag_144\n      swap2\n      swap1\n      tag_145\n      jump\t// in\n    tag_144:\n        /* \"contracts/GroupOrder.sol\":2616:2684  payable(produce.farmer()).transfer(portionsAgreed * produce.price()) */\n      swap1\n      dup2\n      iszero\n      mul\n      swap1\n      mload(0x40)\n      0x00\n      mload(0x40)\n      dup1\n      dup4\n      sub\n      dup2\n      dup6\n      dup9\n      dup9\n      call\n      swap4\n      pop\n      pop\n      pop\n      pop\n      iszero\n      dup1\n      iszero\n      tag_147\n      jumpi\n      returndatasize\n      0x00\n      dup1\n      returndatacopy\n      revert(0x00, returndatasize)\n    tag_147:\n      pop\n        /* \"contracts/GroupOrder.sol\":2344:2691  function notifyOrderSent() external {... */\n      jump\t// out\n        /* \"contracts/GroupOrder.sol\":1360:1933  function placeOrder(uint256 numberOfPortions)... */\n    tag_53:\n        /* \"contracts/GroupOrder.sol\":1456:1472  uint256 portions */\n      0x00\n        /* \"contracts/GroupOrder.sol\":1505:1515  State.OPEN */\n      dup1\n        /* \"contracts/GroupOrder.sol\":1496:1515  state == State.OPEN */\n      0x03\n      dup2\n      gt\n      iszero\n      tag_149\n      jumpi\n      tag_150\n      tag_67\n      jump\t// in\n    tag_150:\n    tag_149:\n        /* \"contracts/GroupOrder.sol\":1496:1501  state */\n      0x04\n      0x00\n      swap1\n      sload\n      swap1\n      0x0100\n      exp\n      swap1\n      div\n      0xff\n      and\n        /* \"contracts/GroupOrder.sol\":1496:1515  state == State.OPEN */\n      0x03\n      dup2\n      gt\n      iszero\n      tag_151\n      jumpi\n      tag_152\n      tag_67\n      jump\t// in\n    tag_152:\n    tag_151:\n      eq\n        /* \"contracts/GroupOrder.sol\":1488:1516  require(state == State.OPEN) */\n      tag_153\n      jumpi\n      0x00\n      dup1\n      revert\n    tag_153:\n        /* \"contracts/GroupOrder.sol\":1576:1592  numberOfPortions */\n      dup2\n        /* \"contracts/GroupOrder.sol\":1556:1572  numberOfPortions */\n      dup3\n        /* \"contracts/GroupOrder.sol\":1534:1541  produce */\n      0x00\n      dup1\n      sload\n      swap1\n      0x0100\n      exp\n      swap1\n      div\n      0xffffffffffffffffffffffffffffffffffffffff\n      and\n        /* \"contracts/GroupOrder.sol\":1534:1551  produce.orderSize */\n      0xffffffffffffffffffffffffffffffffffffffff\n      and\n      0x6d86b8a5\n        /* \"contracts/GroupOrder.sol\":1534:1553  produce.orderSize() */\n      mload(0x40)\n      dup2\n      0xffffffff\n      and\n      0xe0\n      shl\n      dup2\n      mstore\n      0x04\n      add\n      0x20\n      mload(0x40)\n      dup1\n      dup4\n      sub\n      dup2\n      dup7\n      dup1\n      extcodesize\n      iszero\n      dup1\n      iszero\n      tag_154\n      jumpi\n      0x00\n      dup1\n      revert\n    tag_154:\n      pop\n      gas\n      staticcall\n      iszero\n      dup1\n      iszero\n      tag_156\n      jumpi\n      returndatasize\n      0x00\n      dup1\n      returndatacopy\n      revert(0x00, returndatasize)\n    tag_156:\n      pop\n      pop\n      pop\n      pop\n      mload(0x40)\n      returndatasize\n      not(0x1f)\n      0x1f\n      dup3\n      add\n      and\n      dup3\n      add\n      dup1\n      0x40\n      mstore\n      pop\n      dup2\n      add\n      swap1\n      tag_157\n      swap2\n      swap1\n      tag_88\n      jump\t// in\n    tag_157:\n        /* \"contracts/GroupOrder.sol\":1534:1572  produce.orderSize() - numberOfPortions */\n      tag_158\n      swap2\n      swap1\n      tag_159\n      jump\t// in\n    tag_158:\n        /* \"contracts/GroupOrder.sol\":1534:1592  produce.orderSize() - numberOfPortions >= numberOfPortions */\n      lt\n      iszero\n        /* \"contracts/GroupOrder.sol\":1526:1593  require(produce.orderSize() - numberOfPortions >= numberOfPortions) */\n      tag_160\n      jumpi\n      0x00\n      dup1\n      revert\n    tag_160:\n        /* \"contracts/GroupOrder.sol\":1649:1658  msg.value */\n      callvalue\n        /* \"contracts/GroupOrder.sol\":1630:1637  produce */\n      0x00\n      dup1\n      sload\n      swap1\n      0x0100\n      exp\n      swap1\n      div\n      0xffffffffffffffffffffffffffffffffffffffff\n      and\n        /* \"contracts/GroupOrder.sol\":1630:1643  produce.price */\n      0xffffffffffffffffffffffffffffffffffffffff\n      and\n      0xa035b1fe\n        /* \"contracts/GroupOrder.sol\":1630:1645  produce.price() */\n      mload(0x40)\n      dup2\n      0xffffffff\n      and\n      0xe0\n      shl\n      dup2\n      mstore\n      0x04\n      add\n      0x20\n      mload(0x40)\n      dup1\n      dup4\n      sub\n      dup2\n      dup7\n      dup1\n      extcodesize\n      iszero\n      dup1\n      iszero\n      tag_161\n      jumpi\n      0x00\n      dup1\n      revert\n    tag_161:\n      pop\n      gas\n      staticcall\n      iszero\n      dup1\n      iszero\n      tag_163\n      jumpi\n      returndatasize\n      0x00\n      dup1\n      returndatacopy\n      revert(0x00, returndatasize)\n    tag_163:\n      pop\n      pop\n      pop\n      pop\n      mload(0x40)\n      returndatasize\n      not(0x1f)\n      0x1f\n      dup3\n      add\n      and\n      dup3\n      add\n      dup1\n      0x40\n      mstore\n      pop\n      dup2\n      add\n      swap1\n      tag_164\n      swap2\n      swap1\n      tag_88\n      jump\t// in\n    tag_164:\n        /* \"contracts/GroupOrder.sol\":1611:1627  numberOfPortions */\n      dup4\n        /* \"contracts/GroupOrder.sol\":1611:1645  numberOfPortions * produce.price() */\n      tag_165\n      swap2\n      swap1\n      tag_145\n      jump\t// in\n    tag_165:\n        /* \"contracts/GroupOrder.sol\":1611:1658  numberOfPortions * produce.price() == msg.value */\n      eq\n        /* \"contracts/GroupOrder.sol\":1603:1659  require(numberOfPortions * produce.price() == msg.value) */\n      tag_166\n      jumpi\n      0x00\n      dup1\n      revert\n    tag_166:\n        /* \"contracts/GroupOrder.sol\":1691:1698  endTime */\n      sload(0x03)\n        /* \"contracts/GroupOrder.sol\":1673:1688  block.timestamp */\n      timestamp\n        /* \"contracts/GroupOrder.sol\":1673:1698  block.timestamp > endTime */\n      gt\n        /* \"contracts/GroupOrder.sol\":1669:1927  if (block.timestamp > endTime) {... */\n      iszero\n      tag_167\n      jumpi\n        /* \"contracts/GroupOrder.sol\":1722:1736  State.REJECTED */\n      0x02\n        /* \"contracts/GroupOrder.sol\":1714:1719  state */\n      0x04\n      0x00\n        /* \"contracts/GroupOrder.sol\":1714:1736  state = State.REJECTED */\n      0x0100\n      exp\n      dup2\n      sload\n      dup2\n      0xff\n      mul\n      not\n      and\n      swap1\n      dup4\n      0x03\n      dup2\n      gt\n      iszero\n      tag_168\n      jumpi\n      tag_169\n      tag_67\n      jump\t// in\n    tag_169:\n    tag_168:\n      mul\n      or\n      swap1\n      sstore\n      pop\n        /* \"contracts/GroupOrder.sol\":1669:1927  if (block.timestamp > endTime) {... */\n      jump(tag_170)\n    tag_167:\n        /* \"contracts/GroupOrder.sol\":1767:1776  orderList */\n      0x06\n        /* \"contracts/GroupOrder.sol\":1782:1792  msg.sender */\n      caller\n        /* \"contracts/GroupOrder.sol\":1767:1793  orderList.push(msg.sender) */\n      swap1\n      dup1\n      0x01\n      dup2\n      sload\n      add\n      dup1\n      dup3\n      sstore\n      dup1\n      swap2\n      pop\n      pop\n      0x01\n      swap1\n      sub\n      swap1\n      0x00\n      mstore\n      keccak256(0x00, 0x20)\n      add\n      0x00\n      swap1\n      swap2\n      swap1\n      swap2\n      swap1\n      swap2\n      0x0100\n      exp\n      dup2\n      sload\n      dup2\n      0xffffffffffffffffffffffffffffffffffffffff\n      mul\n      not\n      and\n      swap1\n      dup4\n      0xffffffffffffffffffffffffffffffffffffffff\n      and\n      mul\n      or\n      swap1\n      sstore\n      pop\n        /* \"contracts/GroupOrder.sol\":1829:1837  portions */\n      dup1\n        /* \"contracts/GroupOrder.sol\":1807:1813  orders */\n      0x05\n        /* \"contracts/GroupOrder.sol\":1807:1825  orders[msg.sender] */\n      0x00\n        /* \"contracts/GroupOrder.sol\":1814:1824  msg.sender */\n      caller\n        /* \"contracts/GroupOrder.sol\":1807:1825  orders[msg.sender] */\n      0xffffffffffffffffffffffffffffffffffffffff\n      and\n      0xffffffffffffffffffffffffffffffffffffffff\n      and\n      dup2\n      mstore\n      0x20\n      add\n      swap1\n      dup2\n      mstore\n      0x20\n      add\n      0x00\n      keccak256\n      0x00\n        /* \"contracts/GroupOrder.sol\":1807:1837  orders[msg.sender] += portions */\n      dup3\n      dup3\n      sload\n      tag_172\n      swap2\n      swap1\n      tag_173\n      jump\t// in\n    tag_172:\n      swap3\n      pop\n      pop\n      dup2\n      swap1\n      sstore\n      pop\n        /* \"contracts/GroupOrder.sol\":1869:1877  portions */\n      dup1\n        /* \"contracts/GroupOrder.sol\":1851:1865  portionsAgreed */\n      0x01\n      0x00\n        /* \"contracts/GroupOrder.sol\":1851:1877  portionsAgreed += portions */\n      dup3\n      dup3\n      sload\n      tag_174\n      swap2\n      swap1\n      tag_173\n      jump\t// in\n    tag_174:\n      swap3\n      pop\n      pop\n      dup2\n      swap1\n      sstore\n      pop\n        /* \"contracts/GroupOrder.sol\":1898:1904  orders */\n      0x05\n        /* \"contracts/GroupOrder.sol\":1898:1916  orders[msg.sender] */\n      0x00\n        /* \"contracts/GroupOrder.sol\":1905:1915  msg.sender */\n      caller\n        /* \"contracts/GroupOrder.sol\":1898:1916  orders[msg.sender] */\n      0xffffffffffffffffffffffffffffffffffffffff\n      and\n      0xffffffffffffffffffffffffffffffffffffffff\n      and\n      dup2\n      mstore\n      0x20\n      add\n      swap1\n      dup2\n      mstore\n      0x20\n      add\n      0x00\n      keccak256\n      sload\n        /* \"contracts/GroupOrder.sol\":1891:1916  return orders[msg.sender] */\n      swap1\n      pop\n      jump(tag_148)\n        /* \"contracts/GroupOrder.sol\":1669:1927  if (block.timestamp > endTime) {... */\n    tag_170:\n        /* \"contracts/GroupOrder.sol\":1360:1933  function placeOrder(uint256 numberOfPortions)... */\n    tag_148:\n      swap2\n      swap1\n      pop\n      jump\t// out\n        /* \"contracts/GroupOrder.sol\":373:391  State public state */\n    tag_57:\n      0x04\n      0x00\n      swap1\n      sload\n      swap1\n      0x0100\n      exp\n      swap1\n      div\n      0xff\n      and\n      dup2\n      jump\t// out\n        /* \"contracts/GroupOrder.sol\":194:223  uint256 public portionsAgreed */\n    tag_62:\n      sload(0x01)\n      dup2\n      jump\t// out\n        /* \"#utility.yul\":7:150   */\n    tag_176:\n        /* \"#utility.yul\":64:69   */\n      0x00\n        /* \"#utility.yul\":95:101   */\n      dup2\n        /* \"#utility.yul\":89:102   */\n      mload\n        /* \"#utility.yul\":80:102   */\n      swap1\n      pop\n        /* \"#utility.yul\":111:144   */\n      tag_178\n        /* \"#utility.yul\":138:143   */\n      dup2\n        /* \"#utility.yul\":111:144   */\n      tag_179\n      jump\t// in\n    tag_178:\n        /* \"#utility.yul\":7:150   */\n      swap3\n      swap2\n      pop\n      pop\n      jump\t// out\n        /* \"#utility.yul\":156:295   */\n    tag_180:\n        /* \"#utility.yul\":202:207   */\n      0x00\n        /* \"#utility.yul\":240:246   */\n      dup2\n        /* \"#utility.yul\":227:247   */\n      calldataload\n        /* \"#utility.yul\":218:247   */\n      swap1\n      pop\n        /* \"#utility.yul\":256:289   */\n      tag_182\n        /* \"#utility.yul\":283:288   */\n      dup2\n        /* \"#utility.yul\":256:289   */\n      tag_183\n      jump\t// in\n    tag_182:\n        /* \"#utility.yul\":156:295   */\n      swap3\n      swap2\n      pop\n      pop\n      jump\t// out\n        /* \"#utility.yul\":301:444   */\n    tag_184:\n        /* \"#utility.yul\":358:363   */\n      0x00\n        /* \"#utility.yul\":389:395   */\n      dup2\n        /* \"#utility.yul\":383:396   */\n      mload\n        /* \"#utility.yul\":374:396   */\n      swap1\n      pop\n        /* \"#utility.yul\":405:438   */\n      tag_186\n        /* \"#utility.yul\":432:437   */\n      dup2\n        /* \"#utility.yul\":405:438   */\n      tag_183\n      jump\t// in\n    tag_186:\n        /* \"#utility.yul\":301:444   */\n      swap3\n      swap2\n      pop\n      pop\n      jump\t// out\n        /* \"#utility.yul\":450:801   */\n    tag_113:\n        /* \"#utility.yul\":520:526   */\n      0x00\n        /* \"#utility.yul\":569:571   */\n      0x20\n        /* \"#utility.yul\":557:566   */\n      dup3\n        /* \"#utility.yul\":548:555   */\n      dup5\n        /* \"#utility.yul\":544:567   */\n      sub\n        /* \"#utility.yul\":540:572   */\n      slt\n        /* \"#utility.yul\":537:656   */\n      iszero\n      tag_188\n      jumpi\n        /* \"#utility.yul\":575:654   */\n      tag_189\n      tag_190\n      jump\t// in\n    tag_189:\n        /* \"#utility.yul\":537:656   */\n    tag_188:\n        /* \"#utility.yul\":695:696   */\n      0x00\n        /* \"#utility.yul\":720:784   */\n      tag_191\n        /* \"#utility.yul\":776:783   */\n      dup5\n        /* \"#utility.yul\":767:773   */\n      dup3\n        /* \"#utility.yul\":756:765   */\n      dup6\n        /* \"#utility.yul\":752:774   */\n      add\n        /* \"#utility.yul\":720:784   */\n      tag_176\n      jump\t// in\n    tag_191:\n        /* \"#utility.yul\":710:784   */\n      swap2\n      pop\n        /* \"#utility.yul\":666:794   */\n      pop\n        /* \"#utility.yul\":450:801   */\n      swap3\n      swap2\n      pop\n      pop\n      jump\t// out\n        /* \"#utility.yul\":807:1136   */\n    tag_40:\n        /* \"#utility.yul\":866:872   */\n      0x00\n        /* \"#utility.yul\":915:917   */\n      0x20\n        /* \"#utility.yul\":903:912   */\n      dup3\n        /* \"#utility.yul\":894:901   */\n      dup5\n        /* \"#utility.yul\":890:913   */\n      sub\n        /* \"#utility.yul\":886:918   */\n      slt\n        /* \"#utility.yul\":883:1002   */\n      iszero\n      tag_193\n      jumpi\n        /* \"#utility.yul\":921:1000   */\n      tag_194\n      tag_190\n      jump\t// in\n    tag_194:\n        /* \"#utility.yul\":883:1002   */\n    tag_193:\n        /* \"#utility.yul\":1041:1042   */\n      0x00\n        /* \"#utility.yul\":1066:1119   */\n      tag_195\n        /* \"#utility.yul\":1111:1118   */\n      dup5\n        /* \"#utility.yul\":1102:1108   */\n      dup3\n        /* \"#utility.yul\":1091:1100   */\n      dup6\n        /* \"#utility.yul\":1087:1109   */\n      add\n        /* \"#utility.yul\":1066:1119   */\n      tag_180\n      jump\t// in\n    tag_195:\n        /* \"#utility.yul\":1056:1119   */\n      swap2\n      pop\n        /* \"#utility.yul\":1012:1129   */\n      pop\n        /* \"#utility.yul\":807:1136   */\n      swap3\n      swap2\n      pop\n      pop\n      jump\t// out\n        /* \"#utility.yul\":1142:1493   */\n    tag_88:\n        /* \"#utility.yul\":1212:1218   */\n      0x00\n        /* \"#utility.yul\":1261:1263   */\n      0x20\n        /* \"#utility.yul\":1249:1258   */\n      dup3\n        /* \"#utility.yul\":1240:1247   */\n      dup5\n        /* \"#utility.yul\":1236:1259   */\n      sub\n        /* \"#utility.yul\":1232:1264   */\n      slt\n        /* \"#utility.yul\":1229:1348   */\n      iszero\n      tag_197\n      jumpi\n        /* \"#utility.yul\":1267:1346   */\n      tag_198\n      tag_190\n      jump\t// in\n    tag_198:\n        /* \"#utility.yul\":1229:1348   */\n    tag_197:\n        /* \"#utility.yul\":1387:1388   */\n      0x00\n        /* \"#utility.yul\":1412:1476   */\n      tag_199\n        /* \"#utility.yul\":1468:1475   */\n      dup5\n        /* \"#utility.yul\":1459:1465   */\n      dup3\n        /* \"#utility.yul\":1448:1457   */\n      dup6\n        /* \"#utility.yul\":1444:1466   */\n      add\n        /* \"#utility.yul\":1412:1476   */\n      tag_184\n      jump\t// in\n    tag_199:\n        /* \"#utility.yul\":1402:1476   */\n      swap2\n      pop\n        /* \"#utility.yul\":1358:1486   */\n      pop\n        /* \"#utility.yul\":1142:1493   */\n      swap3\n      swap2\n      pop\n      pop\n      jump\t// out\n        /* \"#utility.yul\":1499:1617   */\n    tag_200:\n        /* \"#utility.yul\":1586:1610   */\n      tag_202\n        /* \"#utility.yul\":1604:1609   */\n      dup2\n        /* \"#utility.yul\":1586:1610   */\n      tag_203\n      jump\t// in\n    tag_202:\n        /* \"#utility.yul\":1581:1584   */\n      dup3\n        /* \"#utility.yul\":1574:1611   */\n      mstore\n        /* \"#utility.yul\":1499:1617   */\n      pop\n      pop\n      jump\t// out\n        /* \"#utility.yul\":1623:1784   */\n    tag_204:\n        /* \"#utility.yul\":1725:1777   */\n      tag_206\n        /* \"#utility.yul\":1771:1776   */\n      dup2\n        /* \"#utility.yul\":1725:1777   */\n      tag_207\n      jump\t// in\n    tag_206:\n        /* \"#utility.yul\":1720:1723   */\n      dup3\n        /* \"#utility.yul\":1713:1778   */\n      mstore\n        /* \"#utility.yul\":1623:1784   */\n      pop\n      pop\n      jump\t// out\n        /* \"#utility.yul\":1790:1935   */\n    tag_208:\n        /* \"#utility.yul\":1884:1928   */\n      tag_210\n        /* \"#utility.yul\":1922:1927   */\n      dup2\n        /* \"#utility.yul\":1884:1928   */\n      tag_211\n      jump\t// in\n    tag_210:\n        /* \"#utility.yul\":1879:1882   */\n      dup3\n        /* \"#utility.yul\":1872:1929   */\n      mstore\n        /* \"#utility.yul\":1790:1935   */\n      pop\n      pop\n      jump\t// out\n        /* \"#utility.yul\":1941:2307   */\n    tag_212:\n        /* \"#utility.yul\":2083:2086   */\n      0x00\n        /* \"#utility.yul\":2104:2171   */\n      tag_214\n        /* \"#utility.yul\":2168:2170   */\n      0x33\n        /* \"#utility.yul\":2163:2166   */\n      dup4\n        /* \"#utility.yul\":2104:2171   */\n      tag_215\n      jump\t// in\n    tag_214:\n        /* \"#utility.yul\":2097:2171   */\n      swap2\n      pop\n        /* \"#utility.yul\":2180:2273   */\n      tag_216\n        /* \"#utility.yul\":2269:2272   */\n      dup3\n        /* \"#utility.yul\":2180:2273   */\n      tag_217\n      jump\t// in\n    tag_216:\n        /* \"#utility.yul\":2298:2300   */\n      0x40\n        /* \"#utility.yul\":2293:2296   */\n      dup3\n        /* \"#utility.yul\":2289:2301   */\n      add\n        /* \"#utility.yul\":2282:2301   */\n      swap1\n      pop\n        /* \"#utility.yul\":1941:2307   */\n      swap2\n      swap1\n      pop\n      jump\t// out\n        /* \"#utility.yul\":2313:2679   */\n    tag_218:\n        /* \"#utility.yul\":2455:2458   */\n      0x00\n        /* \"#utility.yul\":2476:2543   */\n      tag_220\n        /* \"#utility.yul\":2540:2542   */\n      0x1b\n        /* \"#utility.yul\":2535:2538   */\n      dup4\n        /* \"#utility.yul\":2476:2543   */\n      tag_215\n      jump\t// in\n    tag_220:\n        /* \"#utility.yul\":2469:2543   */\n      swap2\n      pop\n        /* \"#utility.yul\":2552:2645   */\n      tag_221\n        /* \"#utility.yul\":2641:2644   */\n      dup3\n        /* \"#utility.yul\":2552:2645   */\n      tag_222\n      jump\t// in\n    tag_221:\n        /* \"#utility.yul\":2670:2672   */\n      0x20\n        /* \"#utility.yul\":2665:2668   */\n      dup3\n        /* \"#utility.yul\":2661:2673   */\n      add\n        /* \"#utility.yul\":2654:2673   */\n      swap1\n      pop\n        /* \"#utility.yul\":2313:2679   */\n      swap2\n      swap1\n      pop\n      jump\t// out\n        /* \"#utility.yul\":2685:3051   */\n    tag_223:\n        /* \"#utility.yul\":2827:2830   */\n      0x00\n        /* \"#utility.yul\":2848:2915   */\n      tag_225\n        /* \"#utility.yul\":2912:2914   */\n      0x2d\n        /* \"#utility.yul\":2907:2910   */\n      dup4\n        /* \"#utility.yul\":2848:2915   */\n      tag_215\n      jump\t// in\n    tag_225:\n        /* \"#utility.yul\":2841:2915   */\n      swap2\n      pop\n        /* \"#utility.yul\":2924:3017   */\n      tag_226\n        /* \"#utility.yul\":3013:3016   */\n      dup3\n        /* \"#utility.yul\":2924:3017   */\n      tag_227\n      jump\t// in\n    tag_226:\n        /* \"#utility.yul\":3042:3044   */\n      0x40\n        /* \"#utility.yul\":3037:3040   */\n      dup3\n        /* \"#utility.yul\":3033:3045   */\n      add\n        /* \"#utility.yul\":3026:3045   */\n      swap1\n      pop\n        /* \"#utility.yul\":2685:3051   */\n      swap2\n      swap1\n      pop\n      jump\t// out\n        /* \"#utility.yul\":3057:3423   */\n    tag_228:\n        /* \"#utility.yul\":3199:3202   */\n      0x00\n        /* \"#utility.yul\":3220:3287   */\n      tag_230\n        /* \"#utility.yul\":3284:3286   */\n      0x25\n        /* \"#utility.yul\":3279:3282   */\n      dup4\n        /* \"#utility.yul\":3220:3287   */\n      tag_215\n      jump\t// in\n    tag_230:\n        /* \"#utility.yul\":3213:3287   */\n      swap2\n      pop\n        /* \"#utility.yul\":3296:3389   */\n      tag_231\n        /* \"#utility.yul\":3385:3388   */\n      dup3\n        /* \"#utility.yul\":3296:3389   */\n      tag_232\n      jump\t// in\n    tag_231:\n        /* \"#utility.yul\":3414:3416   */\n      0x40\n        /* \"#utility.yul\":3409:3412   */\n      dup3\n        /* \"#utility.yul\":3405:3417   */\n      add\n        /* \"#utility.yul\":3398:3417   */\n      swap1\n      pop\n        /* \"#utility.yul\":3057:3423   */\n      swap2\n      swap1\n      pop\n      jump\t// out\n        /* \"#utility.yul\":3429:3795   */\n    tag_233:\n        /* \"#utility.yul\":3571:3574   */\n      0x00\n        /* \"#utility.yul\":3592:3659   */\n      tag_235\n        /* \"#utility.yul\":3656:3658   */\n      0x46\n        /* \"#utility.yul\":3651:3654   */\n      dup4\n        /* \"#utility.yul\":3592:3659   */\n      tag_215\n      jump\t// in\n    tag_235:\n        /* \"#utility.yul\":3585:3659   */\n      swap2\n      pop\n        /* \"#utility.yul\":3668:3761   */\n      tag_236\n        /* \"#utility.yul\":3757:3760   */\n      dup3\n        /* \"#utility.yul\":3668:3761   */\n      tag_237\n      jump\t// in\n    tag_236:\n        /* \"#utility.yul\":3786:3788   */\n      0x60\n        /* \"#utility.yul\":3781:3784   */\n      dup3\n        /* \"#utility.yul\":3777:3789   */\n      add\n        /* \"#utility.yul\":3770:3789   */\n      swap1\n      pop\n        /* \"#utility.yul\":3429:3795   */\n      swap2\n      swap1\n      pop\n      jump\t// out\n        /* \"#utility.yul\":3801:4167   */\n    tag_238:\n        /* \"#utility.yul\":3943:3946   */\n      0x00\n        /* \"#utility.yul\":3964:4031   */\n      tag_240\n        /* \"#utility.yul\":4028:4030   */\n      0x34\n        /* \"#utility.yul\":4023:4026   */\n      dup4\n        /* \"#utility.yul\":3964:4031   */\n      tag_215\n      jump\t// in\n    tag_240:\n        /* \"#utility.yul\":3957:4031   */\n      swap2\n      pop\n        /* \"#utility.yul\":4040:4133   */\n      tag_241\n        /* \"#utility.yul\":4129:4132   */\n      dup3\n        /* \"#utility.yul\":4040:4133   */\n      tag_242\n      jump\t// in\n    tag_241:\n        /* \"#utility.yul\":4158:4160   */\n      0x40\n        /* \"#utility.yul\":4153:4156   */\n      dup3\n        /* \"#utility.yul\":4149:4161   */\n      add\n        /* \"#utility.yul\":4142:4161   */\n      swap1\n      pop\n        /* \"#utility.yul\":3801:4167   */\n      swap2\n      swap1\n      pop\n      jump\t// out\n        /* \"#utility.yul\":4173:4291   */\n    tag_243:\n        /* \"#utility.yul\":4260:4284   */\n      tag_245\n        /* \"#utility.yul\":4278:4283   */\n      dup2\n        /* \"#utility.yul\":4260:4284   */\n      tag_246\n      jump\t// in\n    tag_245:\n        /* \"#utility.yul\":4255:4258   */\n      dup3\n        /* \"#utility.yul\":4248:4285   */\n      mstore\n        /* \"#utility.yul\":4173:4291   */\n      pop\n      pop\n      jump\t// out\n        /* \"#utility.yul\":4297:4519   */\n    tag_43:\n        /* \"#utility.yul\":4390:4394   */\n      0x00\n        /* \"#utility.yul\":4428:4430   */\n      0x20\n        /* \"#utility.yul\":4417:4426   */\n      dup3\n        /* \"#utility.yul\":4413:4431   */\n      add\n        /* \"#utility.yul\":4405:4431   */\n      swap1\n      pop\n        /* \"#utility.yul\":4441:4512   */\n      tag_248\n        /* \"#utility.yul\":4509:4510   */\n      0x00\n        /* \"#utility.yul\":4498:4507   */\n      dup4\n        /* \"#utility.yul\":4494:4511   */\n      add\n        /* \"#utility.yul\":4485:4491   */\n      dup5\n        /* \"#utility.yul\":4441:4512   */\n      tag_200\n      jump\t// in\n    tag_248:\n        /* \"#utility.yul\":4297:4519   */\n      swap3\n      swap2\n      pop\n      pop\n      jump\t// out\n        /* \"#utility.yul\":4525:4777   */\n    tag_36:\n        /* \"#utility.yul\":4633:4637   */\n      0x00\n        /* \"#utility.yul\":4671:4673   */\n      0x20\n        /* \"#utility.yul\":4660:4669   */\n      dup3\n        /* \"#utility.yul\":4656:4674   */\n      add\n        /* \"#utility.yul\":4648:4674   */\n      swap1\n      pop\n        /* \"#utility.yul\":4684:4770   */\n      tag_250\n        /* \"#utility.yul\":4767:4768   */\n      0x00\n        /* \"#utility.yul\":4756:4765   */\n      dup4\n        /* \"#utility.yul\":4752:4769   */\n      add\n        /* \"#utility.yul\":4743:4749   */\n      dup5\n        /* \"#utility.yul\":4684:4770   */\n      tag_204\n      jump\t// in\n    tag_250:\n        /* \"#utility.yul\":4525:4777   */\n      swap3\n      swap2\n      pop\n      pop\n      jump\t// out\n        /* \"#utility.yul\":4783:5019   */\n    tag_59:\n        /* \"#utility.yul\":4883:4887   */\n      0x00\n        /* \"#utility.yul\":4921:4923   */\n      0x20\n        /* \"#utility.yul\":4910:4919   */\n      dup3\n        /* \"#utility.yul\":4906:4924   */\n      add\n        /* \"#utility.yul\":4898:4924   */\n      swap1\n      pop\n        /* \"#utility.yul\":4934:5012   */\n      tag_252\n        /* \"#utility.yul\":5009:5010   */\n      0x00\n        /* \"#utility.yul\":4998:5007   */\n      dup4\n        /* \"#utility.yul\":4994:5011   */\n      add\n        /* \"#utility.yul\":4985:4991   */\n      dup5\n        /* \"#utility.yul\":4934:5012   */\n      tag_208\n      jump\t// in\n    tag_252:\n        /* \"#utility.yul\":4783:5019   */\n      swap3\n      swap2\n      pop\n      pop\n      jump\t// out\n        /* \"#utility.yul\":5025:5444   */\n    tag_116:\n        /* \"#utility.yul\":5191:5195   */\n      0x00\n        /* \"#utility.yul\":5229:5231   */\n      0x20\n        /* \"#utility.yul\":5218:5227   */\n      dup3\n        /* \"#utility.yul\":5214:5232   */\n      add\n        /* \"#utility.yul\":5206:5232   */\n      swap1\n      pop\n        /* \"#utility.yul\":5278:5287   */\n      dup2\n        /* \"#utility.yul\":5272:5276   */\n      dup2\n        /* \"#utility.yul\":5268:5288   */\n      sub\n        /* \"#utility.yul\":5264:5265   */\n      0x00\n        /* \"#utility.yul\":5253:5262   */\n      dup4\n        /* \"#utility.yul\":5249:5266   */\n      add\n        /* \"#utility.yul\":5242:5289   */\n      mstore\n        /* \"#utility.yul\":5306:5437   */\n      tag_254\n        /* \"#utility.yul\":5432:5436   */\n      dup2\n        /* \"#utility.yul\":5306:5437   */\n      tag_212\n      jump\t// in\n    tag_254:\n        /* \"#utility.yul\":5298:5437   */\n      swap1\n      pop\n        /* \"#utility.yul\":5025:5444   */\n      swap2\n      swap1\n      pop\n      jump\t// out\n        /* \"#utility.yul\":5450:5869   */\n    tag_72:\n        /* \"#utility.yul\":5616:5620   */\n      0x00\n        /* \"#utility.yul\":5654:5656   */\n      0x20\n        /* \"#utility.yul\":5643:5652   */\n      dup3\n        /* \"#utility.yul\":5639:5657   */\n      add\n        /* \"#utility.yul\":5631:5657   */\n      swap1\n      pop\n        /* \"#utility.yul\":5703:5712   */\n      dup2\n        /* \"#utility.yul\":5697:5701   */\n      dup2\n        /* \"#utility.yul\":5693:5713   */\n      sub\n        /* \"#utility.yul\":5689:5690   */\n      0x00\n        /* \"#utility.yul\":5678:5687   */\n      dup4\n        /* \"#utility.yul\":5674:5691   */\n      add\n        /* \"#utility.yul\":5667:5714   */\n      mstore\n        /* \"#utility.yul\":5731:5862   */\n      tag_256\n        /* \"#utility.yul\":5857:5861   */\n      dup2\n        /* \"#utility.yul\":5731:5862   */\n      tag_218\n      jump\t// in\n    tag_256:\n        /* \"#utility.yul\":5723:5862   */\n      swap1\n      pop\n        /* \"#utility.yul\":5450:5869   */\n      swap2\n      swap1\n      pop\n      jump\t// out\n        /* \"#utility.yul\":5875:6294   */\n    tag_75:\n        /* \"#utility.yul\":6041:6045   */\n      0x00\n        /* \"#utility.yul\":6079:6081   */\n      0x20\n        /* \"#utility.yul\":6068:6077   */\n      dup3\n        /* \"#utility.yul\":6064:6082   */\n      add\n        /* \"#utility.yul\":6056:6082   */\n      swap1\n      pop\n        /* \"#utility.yul\":6128:6137   */\n      dup2\n        /* \"#utility.yul\":6122:6126   */\n      dup2\n        /* \"#utility.yul\":6118:6138   */\n      sub\n        /* \"#utility.yul\":6114:6115   */\n      0x00\n        /* \"#utility.yul\":6103:6112   */\n      dup4\n        /* \"#utility.yul\":6099:6116   */\n      add\n        /* \"#utility.yul\":6092:6139   */\n      mstore\n        /* \"#utility.yul\":6156:6287   */\n      tag_258\n        /* \"#utility.yul\":6282:6286   */\n      dup2\n        /* \"#utility.yul\":6156:6287   */\n      tag_223\n      jump\t// in\n    tag_258:\n        /* \"#utility.yul\":6148:6287   */\n      swap1\n      pop\n        /* \"#utility.yul\":5875:6294   */\n      swap2\n      swap1\n      pop\n      jump\t// out\n        /* \"#utility.yul\":6300:6719   */\n    tag_105:\n        /* \"#utility.yul\":6466:6470   */\n      0x00\n        /* \"#utility.yul\":6504:6506   */\n      0x20\n        /* \"#utility.yul\":6493:6502   */\n      dup3\n        /* \"#utility.yul\":6489:6507   */\n      add\n        /* \"#utility.yul\":6481:6507   */\n      swap1\n      pop\n        /* \"#utility.yul\":6553:6562   */\n      dup2\n        /* \"#utility.yul\":6547:6551   */\n      dup2\n        /* \"#utility.yul\":6543:6563   */\n      sub\n        /* \"#utility.yul\":6539:6540   */\n      0x00\n        /* \"#utility.yul\":6528:6537   */\n      dup4\n        /* \"#utility.yul\":6524:6541   */\n      add\n        /* \"#utility.yul\":6517:6564   */\n      mstore\n        /* \"#utility.yul\":6581:6712   */\n      tag_260\n        /* \"#utility.yul\":6707:6711   */\n      dup2\n        /* \"#utility.yul\":6581:6712   */\n      tag_228\n      jump\t// in\n    tag_260:\n        /* \"#utility.yul\":6573:6712   */\n      swap1\n      pop\n        /* \"#utility.yul\":6300:6719   */\n      swap2\n      swap1\n      pop\n      jump\t// out\n        /* \"#utility.yul\":6725:7144   */\n    tag_133:\n        /* \"#utility.yul\":6891:6895   */\n      0x00\n        /* \"#utility.yul\":6929:6931   */\n      0x20\n        /* \"#utility.yul\":6918:6927   */\n      dup3\n        /* \"#utility.yul\":6914:6932   */\n      add\n        /* \"#utility.yul\":6906:6932   */\n      swap1\n      pop\n        /* \"#utility.yul\":6978:6987   */\n      dup2\n        /* \"#utility.yul\":6972:6976   */\n      dup2\n        /* \"#utility.yul\":6968:6988   */\n      sub\n        /* \"#utility.yul\":6964:6965   */\n      0x00\n        /* \"#utility.yul\":6953:6962   */\n      dup4\n        /* \"#utility.yul\":6949:6966   */\n      add\n        /* \"#utility.yul\":6942:6989   */\n      mstore\n        /* \"#utility.yul\":7006:7137   */\n      tag_262\n        /* \"#utility.yul\":7132:7136   */\n      dup2\n        /* \"#utility.yul\":7006:7137   */\n      tag_233\n      jump\t// in\n    tag_262:\n        /* \"#utility.yul\":6998:7137   */\n      swap1\n      pop\n        /* \"#utility.yul\":6725:7144   */\n      swap2\n      swap1\n      pop\n      jump\t// out\n        /* \"#utility.yul\":7150:7569   */\n    tag_102:\n        /* \"#utility.yul\":7316:7320   */\n      0x00\n        /* \"#utility.yul\":7354:7356   */\n      0x20\n        /* \"#utility.yul\":7343:7352   */\n      dup3\n        /* \"#utility.yul\":7339:7357   */\n      add\n        /* \"#utility.yul\":7331:7357   */\n      swap1\n      pop\n        /* \"#utility.yul\":7403:7412   */\n      dup2\n        /* \"#utility.yul\":7397:7401   */\n      dup2\n        /* \"#utility.yul\":7393:7413   */\n      sub\n        /* \"#utility.yul\":7389:7390   */\n      0x00\n        /* \"#utility.yul\":7378:7387   */\n      dup4\n        /* \"#utility.yul\":7374:7391   */\n      add\n        /* \"#utility.yul\":7367:7414   */\n      mstore\n        /* \"#utility.yul\":7431:7562   */\n      tag_264\n        /* \"#utility.yul\":7557:7561   */\n      dup2\n        /* \"#utility.yul\":7431:7562   */\n      tag_238\n      jump\t// in\n    tag_264:\n        /* \"#utility.yul\":7423:7562   */\n      swap1\n      pop\n        /* \"#utility.yul\":7150:7569   */\n      swap2\n      swap1\n      pop\n      jump\t// out\n        /* \"#utility.yul\":7575:7797   */\n    tag_22:\n        /* \"#utility.yul\":7668:7672   */\n      0x00\n        /* \"#utility.yul\":7706:7708   */\n      0x20\n        /* \"#utility.yul\":7695:7704   */\n      dup3\n        /* \"#utility.yul\":7691:7709   */\n      add\n        /* \"#utility.yul\":7683:7709   */\n      swap1\n      pop\n        /* \"#utility.yul\":7719:7790   */\n      tag_266\n        /* \"#utility.yul\":7787:7788   */\n      0x00\n        /* \"#utility.yul\":7776:7785   */\n      dup4\n        /* \"#utility.yul\":7772:7789   */\n      add\n        /* \"#utility.yul\":7763:7769   */\n      dup5\n        /* \"#utility.yul\":7719:7790   */\n      tag_243\n      jump\t// in\n    tag_266:\n        /* \"#utility.yul\":7575:7797   */\n      swap3\n      swap2\n      pop\n      pop\n      jump\t// out\n        /* \"#utility.yul\":7884:8053   */\n    tag_215:\n        /* \"#utility.yul\":7968:7979   */\n      0x00\n        /* \"#utility.yul\":8002:8008   */\n      dup3\n        /* \"#utility.yul\":7997:8000   */\n      dup3\n        /* \"#utility.yul\":7990:8009   */\n      mstore\n        /* \"#utility.yul\":8042:8046   */\n      0x20\n        /* \"#utility.yul\":8037:8040   */\n      dup3\n        /* \"#utility.yul\":8033:8047   */\n      add\n        /* \"#utility.yul\":8018:8047   */\n      swap1\n      pop\n        /* \"#utility.yul\":7884:8053   */\n      swap3\n      swap2\n      pop\n      pop\n      jump\t// out\n        /* \"#utility.yul\":8059:8364   */\n    tag_173:\n        /* \"#utility.yul\":8099:8102   */\n      0x00\n        /* \"#utility.yul\":8118:8138   */\n      tag_271\n        /* \"#utility.yul\":8136:8137   */\n      dup3\n        /* \"#utility.yul\":8118:8138   */\n      tag_246\n      jump\t// in\n    tag_271:\n        /* \"#utility.yul\":8113:8138   */\n      swap2\n      pop\n        /* \"#utility.yul\":8152:8172   */\n      tag_272\n        /* \"#utility.yul\":8170:8171   */\n      dup4\n        /* \"#utility.yul\":8152:8172   */\n      tag_246\n      jump\t// in\n    tag_272:\n        /* \"#utility.yul\":8147:8172   */\n      swap3\n      pop\n        /* \"#utility.yul\":8306:8307   */\n      dup3\n        /* \"#utility.yul\":8238:8304   */\n      0xffffffffffffffffffffffffffffffffffffffffffffffffffffffffffffffff\n        /* \"#utility.yul\":8234:8308   */\n      sub\n        /* \"#utility.yul\":8231:8232   */\n      dup3\n        /* \"#utility.yul\":8228:8309   */\n      gt\n        /* \"#utility.yul\":8225:8332   */\n      iszero\n      tag_273\n      jumpi\n        /* \"#utility.yul\":8312:8330   */\n      tag_274\n      tag_275\n      jump\t// in\n    tag_274:\n        /* \"#utility.yul\":8225:8332   */\n    tag_273:\n        /* \"#utility.yul\":8356:8357   */\n      dup3\n        /* \"#utility.yul\":8353:8354   */\n      dup3\n        /* \"#utility.yul\":8349:8358   */\n      add\n        /* \"#utility.yul\":8342:8358   */\n      swap1\n      pop\n        /* \"#utility.yul\":8059:8364   */\n      swap3\n      swap2\n      pop\n      pop\n      jump\t// out\n        /* \"#utility.yul\":8370:8718   */\n    tag_145:\n        /* \"#utility.yul\":8410:8417   */\n      0x00\n        /* \"#utility.yul\":8433:8453   */\n      tag_277\n        /* \"#utility.yul\":8451:8452   */\n      dup3\n        /* \"#utility.yul\":8433:8453   */\n      tag_246\n      jump\t// in\n    tag_277:\n        /* \"#utility.yul\":8428:8453   */\n      swap2\n      pop\n        /* \"#utility.yul\":8467:8487   */\n      tag_278\n        /* \"#utility.yul\":8485:8486   */\n      dup4\n        /* \"#utility.yul\":8467:8487   */\n      tag_246\n      jump\t// in\n    tag_278:\n        /* \"#utility.yul\":8462:8487   */\n      swap3\n      pop\n        /* \"#utility.yul\":8655:8656   */\n      dup2\n        /* \"#utility.yul\":8587:8653   */\n      0xffffffffffffffffffffffffffffffffffffffffffffffffffffffffffffffff\n        /* \"#utility.yul\":8583:8657   */\n      div\n        /* \"#utility.yul\":8580:8581   */\n      dup4\n        /* \"#utility.yul\":8577:8658   */\n      gt\n        /* \"#utility.yul\":8572:8573   */\n      dup3\n        /* \"#utility.yul\":8565:8574   */\n      iszero\n        /* \"#utility.yul\":8558:8575   */\n      iszero\n        /* \"#utility.yul\":8554:8659   */\n      and\n        /* \"#utility.yul\":8551:8682   */\n      iszero\n      tag_279\n      jumpi\n        /* \"#utility.yul\":8662:8680   */\n      tag_280\n      tag_275\n      jump\t// in\n    tag_280:\n        /* \"#utility.yul\":8551:8682   */\n    tag_279:\n        /* \"#utility.yul\":8710:8711   */\n      dup3\n        /* \"#utility.yul\":8707:8708   */\n      dup3\n        /* \"#utility.yul\":8703:8712   */\n      mul\n        /* \"#utility.yul\":8692:8712   */\n      swap1\n      pop\n        /* \"#utility.yul\":8370:8718   */\n      swap3\n      swap2\n      pop\n      pop\n      jump\t// out\n        /* \"#utility.yul\":8724:8915   */\n    tag_159:\n        /* \"#utility.yul\":8764:8768   */\n      0x00\n        /* \"#utility.yul\":8784:8804   */\n      tag_282\n        /* \"#utility.yul\":8802:8803   */\n      dup3\n        /* \"#utility.yul\":8784:8804   */\n      tag_246\n      jump\t// in\n    tag_282:\n        /* \"#utility.yul\":8779:8804   */\n      swap2\n      pop\n        /* \"#utility.yul\":8818:8838   */\n      tag_283\n        /* \"#utility.yul\":8836:8837   */\n      dup4\n        /* \"#utility.yul\":8818:8838   */\n      tag_246\n      jump\t// in\n    tag_283:\n        /* \"#utility.yul\":8813:8838   */\n      swap3\n      pop\n        /* \"#utility.yul\":8857:8858   */\n      dup3\n        /* \"#utility.yul\":8854:8855   */\n      dup3\n        /* \"#utility.yul\":8851:8859   */\n      lt\n        /* \"#utility.yul\":8848:8882   */\n      iszero\n      tag_284\n      jumpi\n        /* \"#utility.yul\":8862:8880   */\n      tag_285\n      tag_275\n      jump\t// in\n    tag_285:\n        /* \"#utility.yul\":8848:8882   */\n    tag_284:\n        /* \"#utility.yul\":8907:8908   */\n      dup3\n        /* \"#utility.yul\":8904:8905   */\n      dup3\n        /* \"#utility.yul\":8900:8909   */\n      sub\n        /* \"#utility.yul\":8892:8909   */\n      swap1\n      pop\n        /* \"#utility.yul\":8724:8915   */\n      swap3\n      swap2\n      pop\n      pop\n      jump\t// out\n        /* \"#utility.yul\":8921:9017   */\n    tag_203:\n        /* \"#utility.yul\":8958:8965   */\n      0x00\n        /* \"#utility.yul\":8987:9011   */\n      tag_287\n        /* \"#utility.yul\":9005:9010   */\n      dup3\n        /* \"#utility.yul\":8987:9011   */\n      tag_288\n      jump\t// in\n    tag_287:\n        /* \"#utility.yul\":8976:9011   */\n      swap1\n      pop\n        /* \"#utility.yul\":8921:9017   */\n      swap2\n      swap1\n      pop\n      jump\t// out\n        /* \"#utility.yul\":9023:9152   */\n    tag_289:\n        /* \"#utility.yul\":9069:9076   */\n      0x00\n        /* \"#utility.yul\":9098:9103   */\n      dup2\n        /* \"#utility.yul\":9087:9103   */\n      swap1\n      pop\n        /* \"#utility.yul\":9104:9146   */\n      tag_291\n        /* \"#utility.yul\":9140:9145   */\n      dup3\n        /* \"#utility.yul\":9104:9146   */\n      tag_292\n      jump\t// in\n    tag_291:\n        /* \"#utility.yul\":9023:9152   */\n      swap2\n      swap1\n      pop\n      jump\t// out\n        /* \"#utility.yul\":9158:9284   */\n    tag_288:\n        /* \"#utility.yul\":9195:9202   */\n      0x00\n        /* \"#utility.yul\":9235:9277   */\n      0xffffffffffffffffffffffffffffffffffffffff\n        /* \"#utility.yul\":9228:9233   */\n      dup3\n        /* \"#utility.yul\":9224:9278   */\n      and\n        /* \"#utility.yul\":9213:9278   */\n      swap1\n      pop\n        /* \"#utility.yul\":9158:9284   */\n      swap2\n      swap1\n      pop\n      jump\t// out\n        /* \"#utility.yul\":9290:9367   */\n    tag_246:\n        /* \"#utility.yul\":9327:9334   */\n      0x00\n        /* \"#utility.yul\":9356:9361   */\n      dup2\n        /* \"#utility.yul\":9345:9361   */\n      swap1\n      pop\n        /* \"#utility.yul\":9290:9367   */\n      swap2\n      swap1\n      pop\n      jump\t// out\n        /* \"#utility.yul\":9373:9514   */\n    tag_207:\n        /* \"#utility.yul\":9438:9447   */\n      0x00\n        /* \"#utility.yul\":9471:9508   */\n      tag_296\n        /* \"#utility.yul\":9502:9507   */\n      dup3\n        /* \"#utility.yul\":9471:9508   */\n      tag_297\n      jump\t// in\n    tag_296:\n        /* \"#utility.yul\":9458:9508   */\n      swap1\n      pop\n        /* \"#utility.yul\":9373:9514   */\n      swap2\n      swap1\n      pop\n      jump\t// out\n        /* \"#utility.yul\":9520:9649   */\n    tag_211:\n        /* \"#utility.yul\":9577:9586   */\n      0x00\n        /* \"#utility.yul\":9610:9643   */\n      tag_299\n        /* \"#utility.yul\":9637:9642   */\n      dup3\n        /* \"#utility.yul\":9610:9643   */\n      tag_289\n      jump\t// in\n    tag_299:\n        /* \"#utility.yul\":9597:9643   */\n      swap1\n      pop\n        /* \"#utility.yul\":9520:9649   */\n      swap2\n      swap1\n      pop\n      jump\t// out\n        /* \"#utility.yul\":9655:9781   */\n    tag_297:\n        /* \"#utility.yul\":9705:9714   */\n      0x00\n        /* \"#utility.yul\":9738:9775   */\n      tag_301\n        /* \"#utility.yul\":9769:9774   */\n      dup3\n        /* \"#utility.yul\":9738:9775   */\n      tag_302\n      jump\t// in\n    tag_301:\n        /* \"#utility.yul\":9725:9775   */\n      swap1\n      pop\n        /* \"#utility.yul\":9655:9781   */\n      swap2\n      swap1\n      pop\n      jump\t// out\n        /* \"#utility.yul\":9787:9900   */\n    tag_302:\n        /* \"#utility.yul\":9837:9846   */\n      0x00\n        /* \"#utility.yul\":9870:9894   */\n      tag_304\n        /* \"#utility.yul\":9888:9893   */\n      dup3\n        /* \"#utility.yul\":9870:9894   */\n      tag_288\n      jump\t// in\n    tag_304:\n        /* \"#utility.yul\":9857:9894   */\n      swap1\n      pop\n        /* \"#utility.yul\":9787:9900   */\n      swap2\n      swap1\n      pop\n      jump\t// out\n        /* \"#utility.yul\":9906:10086   */\n    tag_275:\n        /* \"#utility.yul\":9954:10031   */\n      0x4e487b7100000000000000000000000000000000000000000000000000000000\n        /* \"#utility.yul\":9951:9952   */\n      0x00\n        /* \"#utility.yul\":9944:10032   */\n      mstore\n        /* \"#utility.yul\":10051:10055   */\n      0x11\n        /* \"#utility.yul\":10048:10049   */\n      0x04\n        /* \"#utility.yul\":10041:10056   */\n      mstore\n        /* \"#utility.yul\":10075:10079   */\n      0x24\n        /* \"#utility.yul\":10072:10073   */\n      0x00\n        /* \"#utility.yul\":10065:10080   */\n      revert\n        /* \"#utility.yul\":10092:10272   */\n    tag_67:\n        /* \"#utility.yul\":10140:10217   */\n      0x4e487b7100000000000000000000000000000000000000000000000000000000\n        /* \"#utility.yul\":10137:10138   */\n      0x00\n        /* \"#utility.yul\":10130:10218   */\n      mstore\n        /* \"#utility.yul\":10237:10241   */\n      0x21\n        /* \"#utility.yul\":10234:10235   */\n      0x04\n        /* \"#utility.yul\":10227:10242   */\n      mstore\n        /* \"#utility.yul\":10261:10265   */\n      0x24\n        /* \"#utility.yul\":10258:10259   */\n      0x00\n        /* \"#utility.yul\":10251:10266   */\n      revert\n        /* \"#utility.yul\":10401:10518   */\n    tag_190:\n        /* \"#utility.yul\":10510:10511   */\n      0x00\n        /* \"#utility.yul\":10507:10508   */\n      dup1\n        /* \"#utility.yul\":10500:10512   */\n      revert\n        /* \"#utility.yul\":10524:10762   */\n    tag_217:\n        /* \"#utility.yul\":10664:10698   */\n      0x4f6e6c7920746865206661726d6572206f66207468652070726f647563652063\n        /* \"#utility.yul\":10660:10661   */\n      0x00\n        /* \"#utility.yul\":10652:10658   */\n      dup3\n        /* \"#utility.yul\":10648:10662   */\n      add\n        /* \"#utility.yul\":10641:10699   */\n      mstore\n        /* \"#utility.yul\":10733:10754   */\n      0x616e2072656a65637420746865206f7264657200000000000000000000000000\n        /* \"#utility.yul\":10728:10730   */\n      0x20\n        /* \"#utility.yul\":10720:10726   */\n      dup3\n        /* \"#utility.yul\":10716:10731   */\n      add\n        /* \"#utility.yul\":10709:10755   */\n      mstore\n        /* \"#utility.yul\":10524:10762   */\n      pop\n      jump\t// out\n        /* \"#utility.yul\":10768:10945   */\n    tag_222:\n        /* \"#utility.yul\":10908:10937   */\n      0x6f7264657220686173206e6f74206265656e2072656a65637465640000000000\n        /* \"#utility.yul\":10904:10905   */\n      0x00\n        /* \"#utility.yul\":10896:10902   */\n      dup3\n        /* \"#utility.yul\":10892:10906   */\n      add\n        /* \"#utility.yul\":10885:10938   */\n      mstore\n        /* \"#utility.yul\":10768:10945   */\n      pop\n      jump\t// out\n        /* \"#utility.yul\":10951:11183   */\n    tag_227:\n        /* \"#utility.yul\":11091:11125   */\n      0x637573746f6d657220686173206e6f206f75747374616e64696e672062616c61\n        /* \"#utility.yul\":11087:11088   */\n      0x00\n        /* \"#utility.yul\":11079:11085   */\n      dup3\n        /* \"#utility.yul\":11075:11089   */\n      add\n        /* \"#utility.yul\":11068:11126   */\n      mstore\n        /* \"#utility.yul\":11160:11175   */\n      0x6e636520746f20726566756e6400000000000000000000000000000000000000\n        /* \"#utility.yul\":11155:11157   */\n      0x20\n        /* \"#utility.yul\":11147:11153   */\n      dup3\n        /* \"#utility.yul\":11143:11158   */\n      add\n        /* \"#utility.yul\":11136:11176   */\n      mstore\n        /* \"#utility.yul\":10951:11183   */\n      pop\n      jump\t// out\n        /* \"#utility.yul\":11189:11413   */\n    tag_232:\n        /* \"#utility.yul\":11329:11363   */\n      0x5468652067726f7570206f7264657220686173206e6f74207965742074696d65\n        /* \"#utility.yul\":11325:11326   */\n      0x00\n        /* \"#utility.yul\":11317:11323   */\n      dup3\n        /* \"#utility.yul\":11313:11327   */\n      add\n        /* \"#utility.yul\":11306:11364   */\n      mstore\n        /* \"#utility.yul\":11398:11405   */\n      0x64206f7574000000000000000000000000000000000000000000000000000000\n        /* \"#utility.yul\":11393:11395   */\n      0x20\n        /* \"#utility.yul\":11385:11391   */\n      dup3\n        /* \"#utility.yul\":11381:11396   */\n      add\n        /* \"#utility.yul\":11374:11406   */\n      mstore\n        /* \"#utility.yul\":11189:11413   */\n      pop\n      jump\t// out\n        /* \"#utility.yul\":11419:11713   */\n    tag_237:\n        /* \"#utility.yul\":11559:11593   */\n      0x4f6e6c7920746865206661726d6572206f66207468652070726f647563652063\n        /* \"#utility.yul\":11555:11556   */\n      0x00\n        /* \"#utility.yul\":11547:11553   */\n      dup3\n        /* \"#utility.yul\":11543:11557   */\n      add\n        /* \"#utility.yul\":11536:11594   */\n      mstore\n        /* \"#utility.yul\":11628:11662   */\n      0x616e206e6f74696679207468617420746865206f726465722068617320626565\n        /* \"#utility.yul\":11623:11625   */\n      0x20\n        /* \"#utility.yul\":11615:11621   */\n      dup3\n        /* \"#utility.yul\":11611:11626   */\n      add\n        /* \"#utility.yul\":11604:11663   */\n      mstore\n        /* \"#utility.yul\":11697:11705   */\n      0x6e2073656e740000000000000000000000000000000000000000000000000000\n        /* \"#utility.yul\":11692:11694   */\n      0x40\n        /* \"#utility.yul\":11684:11690   */\n      dup3\n        /* \"#utility.yul\":11680:11695   */\n      add\n        /* \"#utility.yul\":11673:11706   */\n      mstore\n        /* \"#utility.yul\":11419:11713   */\n      pop\n      jump\t// out\n        /* \"#utility.yul\":11719:11958   */\n    tag_242:\n        /* \"#utility.yul\":11859:11893   */\n      0x546865206f72646572207374617465206973206e6f74206f70656e2c20736f20\n        /* \"#utility.yul\":11855:11856   */\n      0x00\n        /* \"#utility.yul\":11847:11853   */\n      dup3\n        /* \"#utility.yul\":11843:11857   */\n      add\n        /* \"#utility.yul\":11836:11894   */\n      mstore\n        /* \"#utility.yul\":11928:11950   */\n      0x63616e206e6f742062652074696d6564206f7574000000000000000000000000\n        /* \"#utility.yul\":11923:11925   */\n      0x20\n        /* \"#utility.yul\":11915:11921   */\n      dup3\n        /* \"#utility.yul\":11911:11926   */\n      add\n        /* \"#utility.yul\":11904:11951   */\n      mstore\n        /* \"#utility.yul\":11719:11958   */\n      pop\n      jump\t// out\n        /* \"#utility.yul\":11964:12078   */\n    tag_292:\n        /* \"#utility.yul\":12046:12047   */\n      0x04\n        /* \"#utility.yul\":12039:12044   */\n      dup2\n        /* \"#utility.yul\":12036:12048   */\n      lt\n        /* \"#utility.yul\":12026:12072   */\n      tag_317\n      jumpi\n        /* \"#utility.yul\":12052:12070   */\n      tag_318\n      tag_67\n      jump\t// in\n    tag_318:\n        /* \"#utility.yul\":12026:12072   */\n    tag_317:\n        /* \"#utility.yul\":11964:12078   */\n      pop\n      jump\t// out\n        /* \"#utility.yul\":12084:12206   */\n    tag_179:\n        /* \"#utility.yul\":12157:12181   */\n      tag_320\n        /* \"#utility.yul\":12175:12180   */\n      dup2\n        /* \"#utility.yul\":12157:12181   */\n      tag_203\n      jump\t// in\n    tag_320:\n        /* \"#utility.yul\":12150:12155   */\n      dup2\n        /* \"#utility.yul\":12147:12182   */\n      eq\n        /* \"#utility.yul\":12137:12200   */\n      tag_321\n      jumpi\n        /* \"#utility.yul\":12196:12197   */\n      0x00\n        /* \"#utility.yul\":12193:12194   */\n      dup1\n        /* \"#utility.yul\":12186:12198   */\n      revert\n        /* \"#utility.yul\":12137:12200   */\n    tag_321:\n        /* \"#utility.yul\":12084:12206   */\n      pop\n      jump\t// out\n        /* \"#utility.yul\":12212:12334   */\n    tag_183:\n        /* \"#utility.yul\":12285:12309   */\n      tag_323\n        /* \"#utility.yul\":12303:12308   */\n      dup2\n        /* \"#utility.yul\":12285:12309   */\n      tag_246\n      jump\t// in\n    tag_323:\n        /* \"#utility.yul\":12278:12283   */\n      dup2\n        /* \"#utility.yul\":12275:12310   */\n      eq\n        /* \"#utility.yul\":12265:12328   */\n      tag_324\n      jumpi\n        /* \"#utility.yul\":12324:12325   */\n      0x00\n        /* \"#utility.yul\":12321:12322   */\n      dup1\n        /* \"#utility.yul\":12314:12326   */\n      revert\n        /* \"#utility.yul\":12265:12328   */\n    tag_324:\n        /* \"#utility.yul\":12212:12334   */\n      pop\n      jump\t// out\n\n    auxdata: 0xa264697066735822122041e742e06199ec8eae83b627557462f79f3006eda0f4fd732f9c6a11e9e59cbe64736f6c63430008070033\n}\n",
				"bytecode": {
					"linkReferences": {},
					"object": "60806040523480156200001157600080fd5b506040516200184738038062001847833981810160405281019062000037919062000107565b6105dc81116200004657600080fd5b816000806101000a81548173ffffffffffffffffffffffffffffffffffffffff021916908373ffffffffffffffffffffffffffffffffffffffff16021790555042600281905550806002546200009d91906200014e565b6003819055506000600460006101000a81548160ff02191690836003811115620000cc57620000cb62000218565b5b0217905550505062000280565b600081519050620000ea816200024c565b92915050565b600081519050620001018162000266565b92915050565b6000806040838503121562000121576200012062000247565b5b60006200013185828601620000d9565b92505060206200014485828601620000f0565b9150509250929050565b60006200015b82620001df565b91506200016883620001df565b9250827fffffffffffffffffffffffffffffffffffffffffffffffffffffffffffffffff03821115620001a0576200019f620001e9565b5b828201905092915050565b6000620001b882620001bf565b9050919050565b600073ffffffffffffffffffffffffffffffffffffffff82169050919050565b6000819050919050565b7f4e487b7100000000000000000000000000000000000000000000000000000000600052601160045260246000fd5b7f4e487b7100000000000000000000000000000000000000000000000000000000600052602160045260246000fd5b600080fd5b6200025781620001ab565b81146200026357600080fd5b50565b6200027181620001df565b81146200027d57600080fd5b50565b6115b780620002906000396000f3fe6080604052600436106100a75760003560e01c806376f75e7f1161006457806376f75e7f1461015e57806378e979251461019b5780637de4fbb6146101c6578063ba2255f4146101dd578063c19d93fb1461020d578063f56b3ad514610238576100a7565b806324600fc3146100ac5780633197cbb6146100c3578063409b509d146100ee57806340c78e98146101055780635f29a5ee1461011c578063656b995214610133575b600080fd5b3480156100b857600080fd5b506100c1610263565b005b3480156100cf57600080fd5b506100d861042e565b6040516100e5919061115b565b60405180910390f35b3480156100fa57600080fd5b50610103610434565b005b34801561011157600080fd5b5061011a6105cc565b005b34801561012857600080fd5b506101316106b3565b005b34801561013f57600080fd5b506101486107eb565b6040516101559190611065565b60405180910390f35b34801561016a57600080fd5b5061018560048036038101906101809190610ee2565b61080f565b604051610192919061104a565b60405180910390f35b3480156101a757600080fd5b506101b061084e565b6040516101bd919061115b565b60405180910390f35b3480156101d257600080fd5b506101db610854565b005b6101f760048036038101906101f29190610ee2565b610b5a565b604051610204919061115b565b60405180910390f35b34801561021957600080fd5b50610222610e5d565b60405161022f9190611080565b60405180910390f35b34801561024457600080fd5b5061024d610e70565b60405161025a919061115b565b60405180910390f35b6002600381111561027757610276611331565b5b600460009054906101000a900460ff16600381111561029957610298611331565b5b146102d9576040517f08c379a00000000000000000000000000000000000000000000000000000000081526004016102d0906110bb565b60405180910390fd5b6000600560003373ffffffffffffffffffffffffffffffffffffffff1673ffffffffffffffffffffffffffffffffffffffff168152602001908152602001600020541161035b576040517f08c379a0000000000000000000000000000000000000000000000000000000008152600401610352906110db565b60405180910390fd5b6000600560003373ffffffffffffffffffffffffffffffffffffffff1673ffffffffffffffffffffffffffffffffffffffff1681526020019081526020016000205490506000600560003373ffffffffffffffffffffffffffffffffffffffff1673ffffffffffffffffffffffffffffffffffffffff168152602001908152602001600020819055503373ffffffffffffffffffffffffffffffffffffffff166108fc829081150290604051600060405180830381858888f1935050505015801561042a573d6000803e3d6000fd5b5050565b60035481565b6000600381111561044857610447611331565b5b600460009054906101000a900460ff16600381111561046a57610469611331565b5b1461047457600080fd5b60008054906101000a900473ffffffffffffffffffffffffffffffffffffffff1673ffffffffffffffffffffffffffffffffffffffff16636d86b8a56040518163ffffffff1660e01b815260040160206040518083038186803b1580156104da57600080fd5b505afa1580156104ee573d6000803e3d6000fd5b505050506040513d601f19601f820116820180604052508101906105129190610f0f565b6001541461051f57600080fd5b6001600460006101000a81548160ff0219169083600381111561054557610544611331565b5b021790555060008054906101000a900473ffffffffffffffffffffffffffffffffffffffff1673ffffffffffffffffffffffffffffffffffffffff1663f5c609e06040518163ffffffff1660e01b8152600401600060405180830381600087803b1580156105b257600080fd5b505af11580156105c6573d6000803e3d6000fd5b50505050565b600060038111156105e0576105df611331565b5b600460009054906101000a900460ff16600381111561060257610601611331565b5b14610642576040517f08c379a00000000000000000000000000000000000000000000000000000000081526004016106399061113b565b60405180910390fd5b6003544211610686576040517f08c379a000000000000000000000000000000000000000000000000000000000815260040161067d906110fb565b60405180910390fd5b6002600460006101000a81548160ff021916908360038111156106ac576106ab611331565b5b0217905550565b60008054906101000a900473ffffffffffffffffffffffffffffffffffffffff1673ffffffffffffffffffffffffffffffffffffffff1663d811fcf06040518163ffffffff1660e01b815260040160206040518083038186803b15801561071957600080fd5b505afa15801561072d573d6000803e3d6000fd5b505050506040513d601f19601f820116820180604052508101906107519190610eb5565b73ffffffffffffffffffffffffffffffffffffffff163373ffffffffffffffffffffffffffffffffffffffff16146107be576040517f08c379a00000000000000000000000000000000000000000000000000000000081526004016107b59061109b565b60405180910390fd5b6002600460006101000a81548160ff021916908360038111156107e4576107e3611331565b5b0217905550565b60008054906101000a900473ffffffffffffffffffffffffffffffffffffffff1681565b6006818154811061081f57600080fd5b906000526020600020016000915054906101000a900473ffffffffffffffffffffffffffffffffffffffff1681565b60025481565b6001600381111561086857610867611331565b5b600460009054906101000a900460ff16600381111561088a57610889611331565b5b1461089457600080fd5b60008054906101000a900473ffffffffffffffffffffffffffffffffffffffff1673ffffffffffffffffffffffffffffffffffffffff1663d811fcf06040518163ffffffff1660e01b815260040160206040518083038186803b1580156108fa57600080fd5b505afa15801561090e573d6000803e3d6000fd5b505050506040513d601f19601f820116820180604052508101906109329190610eb5565b73ffffffffffffffffffffffffffffffffffffffff163373ffffffffffffffffffffffffffffffffffffffff161461099f576040517f08c379a00000000000000000000000000000000000000000000000000000000081526004016109969061111b565b60405180910390fd5b6003600460006101000a81548160ff021916908360038111156109c5576109c4611331565b5b021790555060008054906101000a900473ffffffffffffffffffffffffffffffffffffffff1673ffffffffffffffffffffffffffffffffffffffff1663d811fcf06040518163ffffffff1660e01b815260040160206040518083038186803b158015610a3057600080fd5b505afa158015610a44573d6000803e3d6000fd5b505050506040513d601f19601f82011682018060405250810190610a689190610eb5565b73ffffffffffffffffffffffffffffffffffffffff166108fc60008054906101000a900473ffffffffffffffffffffffffffffffffffffffff1673ffffffffffffffffffffffffffffffffffffffff1663a035b1fe6040518163ffffffff1660e01b815260040160206040518083038186803b158015610ae757600080fd5b505afa158015610afb573d6000803e3d6000fd5b505050506040513d601f19601f82011682018060405250810190610b1f9190610f0f565b600154610b2c91906111dd565b9081150290604051600060405180830381858888f19350505050158015610b57573d6000803e3d6000fd5b50565b6000806003811115610b6f57610b6e611331565b5b600460009054906101000a900460ff166003811115610b9157610b90611331565b5b14610b9b57600080fd5b818260008054906101000a900473ffffffffffffffffffffffffffffffffffffffff1673ffffffffffffffffffffffffffffffffffffffff16636d86b8a56040518163ffffffff1660e01b815260040160206040518083038186803b158015610c0357600080fd5b505afa158015610c17573d6000803e3d6000fd5b505050506040513d601f19601f82011682018060405250810190610c3b9190610f0f565b610c459190611237565b1015610c5057600080fd5b3460008054906101000a900473ffffffffffffffffffffffffffffffffffffffff1673ffffffffffffffffffffffffffffffffffffffff1663a035b1fe6040518163ffffffff1660e01b815260040160206040518083038186803b158015610cb757600080fd5b505afa158015610ccb573d6000803e3d6000fd5b505050506040513d601f19601f82011682018060405250810190610cef9190610f0f565b83610cfa91906111dd565b14610d0457600080fd5b600354421115610d3e576002600460006101000a81548160ff02191690836003811115610d3457610d33611331565b5b0217905550610e57565b6006339080600181540180825580915050600190039060005260206000200160009091909190916101000a81548173ffffffffffffffffffffffffffffffffffffffff021916908373ffffffffffffffffffffffffffffffffffffffff16021790555080600560003373ffffffffffffffffffffffffffffffffffffffff1673ffffffffffffffffffffffffffffffffffffffff1681526020019081526020016000206000828254610df09190611187565b925050819055508060016000828254610e099190611187565b92505081905550600560003373ffffffffffffffffffffffffffffffffffffffff1673ffffffffffffffffffffffffffffffffffffffff168152602001908152602001600020549050610e58565b5b919050565b600460009054906101000a900460ff1681565b60015481565b600081519050610e8581611553565b92915050565b600081359050610e9a8161156a565b92915050565b600081519050610eaf8161156a565b92915050565b600060208284031215610ecb57610eca611360565b5b6000610ed984828501610e76565b91505092915050565b600060208284031215610ef857610ef7611360565b5b6000610f0684828501610e8b565b91505092915050565b600060208284031215610f2557610f24611360565b5b6000610f3384828501610ea0565b91505092915050565b610f458161126b565b82525050565b610f54816112ba565b82525050565b610f63816112cc565b82525050565b6000610f76603383611176565b9150610f8182611365565b604082019050919050565b6000610f99601b83611176565b9150610fa4826113b4565b602082019050919050565b6000610fbc602d83611176565b9150610fc7826113dd565b604082019050919050565b6000610fdf602583611176565b9150610fea8261142c565b604082019050919050565b6000611002604683611176565b915061100d8261147b565b606082019050919050565b6000611025603483611176565b9150611030826114f0565b604082019050919050565b611044816112b0565b82525050565b600060208201905061105f6000830184610f3c565b92915050565b600060208201905061107a6000830184610f4b565b92915050565b60006020820190506110956000830184610f5a565b92915050565b600060208201905081810360008301526110b481610f69565b9050919050565b600060208201905081810360008301526110d481610f8c565b9050919050565b600060208201905081810360008301526110f481610faf565b9050919050565b6000602082019050818103600083015261111481610fd2565b9050919050565b6000602082019050818103600083015261113481610ff5565b9050919050565b6000602082019050818103600083015261115481611018565b9050919050565b6000602082019050611170600083018461103b565b92915050565b600082825260208201905092915050565b6000611192826112b0565b915061119d836112b0565b9250827fffffffffffffffffffffffffffffffffffffffffffffffffffffffffffffffff038211156111d2576111d1611302565b5b828201905092915050565b60006111e8826112b0565b91506111f3836112b0565b9250817fffffffffffffffffffffffffffffffffffffffffffffffffffffffffffffffff048311821515161561122c5761122b611302565b5b828202905092915050565b6000611242826112b0565b915061124d836112b0565b9250828210156112605761125f611302565b5b828203905092915050565b600061127682611290565b9050919050565b600081905061128b8261153f565b919050565b600073ffffffffffffffffffffffffffffffffffffffff82169050919050565b6000819050919050565b60006112c5826112de565b9050919050565b60006112d78261127d565b9050919050565b60006112e9826112f0565b9050919050565b60006112fb82611290565b9050919050565b7f4e487b7100000000000000000000000000000000000000000000000000000000600052601160045260246000fd5b7f4e487b7100000000000000000000000000000000000000000000000000000000600052602160045260246000fd5b600080fd5b7f4f6e6c7920746865206661726d6572206f66207468652070726f64756365206360008201527f616e2072656a65637420746865206f7264657200000000000000000000000000602082015250565b7f6f7264657220686173206e6f74206265656e2072656a65637465640000000000600082015250565b7f637573746f6d657220686173206e6f206f75747374616e64696e672062616c6160008201527f6e636520746f20726566756e6400000000000000000000000000000000000000602082015250565b7f5468652067726f7570206f7264657220686173206e6f74207965742074696d6560008201527f64206f7574000000000000000000000000000000000000000000000000000000602082015250565b7f4f6e6c7920746865206661726d6572206f66207468652070726f64756365206360008201527f616e206e6f74696679207468617420746865206f72646572206861732062656560208201527f6e2073656e740000000000000000000000000000000000000000000000000000604082015250565b7f546865206f72646572207374617465206973206e6f74206f70656e2c20736f2060008201527f63616e206e6f742062652074696d6564206f7574000000000000000000000000602082015250565b600481106115505761154f611331565b5b50565b61155c8161126b565b811461156757600080fd5b50565b611573816112b0565b811461157e57600080fd5b5056fea264697066735822122041e742e06199ec8eae83b627557462f79f3006eda0f4fd732f9c6a11e9e59cbe64736f6c63430008070033",
					"opcodes": "PUSH1 0x80 PUSH1 0x40 MSTORE CALLVALUE DUP1 ISZERO PUSH3 0x11 JUMPI PUSH1 0x0 DUP1 REVERT JUMPDEST POP PUSH1 0x40 MLOAD PUSH3 0x1847 CODESIZE SUB DUP1 PUSH3 0x1847 DUP4 CODECOPY DUP2 DUP2 ADD PUSH1 0x40 MSTORE DUP2 ADD SWAP1 PUSH3 0x37 SWAP2 SWAP1 PUSH3 0x107 JUMP JUMPDEST PUSH2 0x5DC DUP2 GT PUSH3 0x46 JUMPI PUSH1 0x0 DUP1 REVERT JUMPDEST DUP2 PUSH1 0x0 DUP1 PUSH2 0x100 EXP DUP2 SLOAD DUP2 PUSH20 0xFFFFFFFFFFFFFFFFFFFFFFFFFFFFFFFFFFFFFFFF MUL NOT AND SWAP1 DUP4 PUSH20 0xFFFFFFFFFFFFFFFFFFFFFFFFFFFFFFFFFFFFFFFF AND MUL OR SWAP1 SSTORE POP TIMESTAMP PUSH1 0x2 DUP2 SWAP1 SSTORE POP DUP1 PUSH1 0x2 SLOAD PUSH3 0x9D SWAP2 SWAP1 PUSH3 0x14E JUMP JUMPDEST PUSH1 0x3 DUP2 SWAP1 SSTORE POP PUSH1 0x0 PUSH1 0x4 PUSH1 0x0 PUSH2 0x100 EXP DUP2 SLOAD DUP2 PUSH1 0xFF MUL NOT AND SWAP1 DUP4 PUSH1 0x3 DUP2 GT ISZERO PUSH3 0xCC JUMPI PUSH3 0xCB PUSH3 0x218 JUMP JUMPDEST JUMPDEST MUL OR SWAP1 SSTORE POP POP POP PUSH3 0x280 JUMP JUMPDEST PUSH1 0x0 DUP2 MLOAD SWAP1 POP PUSH3 0xEA DUP2 PUSH3 0x24C JUMP JUMPDEST SWAP3 SWAP2 POP POP JUMP JUMPDEST PUSH1 0x0 DUP2 MLOAD SWAP1 POP PUSH3 0x101 DUP2 PUSH3 0x266 JUMP JUMPDEST SWAP3 SWAP2 POP POP JUMP JUMPDEST PUSH1 0x0 DUP1 PUSH1 0x40 DUP4 DUP6 SUB SLT ISZERO PUSH3 0x121 JUMPI PUSH3 0x120 PUSH3 0x247 JUMP JUMPDEST JUMPDEST PUSH1 0x0 PUSH3 0x131 DUP6 DUP3 DUP7 ADD PUSH3 0xD9 JUMP JUMPDEST SWAP3 POP POP PUSH1 0x20 PUSH3 0x144 DUP6 DUP3 DUP7 ADD PUSH3 0xF0 JUMP JUMPDEST SWAP2 POP POP SWAP3 POP SWAP3 SWAP1 POP JUMP JUMPDEST PUSH1 0x0 PUSH3 0x15B DUP3 PUSH3 0x1DF JUMP JUMPDEST SWAP2 POP PUSH3 0x168 DUP4 PUSH3 0x1DF JUMP JUMPDEST SWAP3 POP DUP3 PUSH32 0xFFFFFFFFFFFFFFFFFFFFFFFFFFFFFFFFFFFFFFFFFFFFFFFFFFFFFFFFFFFFFFFF SUB DUP3 GT ISZERO PUSH3 0x1A0 JUMPI PUSH3 0x19F PUSH3 0x1E9 JUMP JUMPDEST JUMPDEST DUP3 DUP3 ADD SWAP1 POP SWAP3 SWAP2 POP POP JUMP JUMPDEST PUSH1 0x0 PUSH3 0x1B8 DUP3 PUSH3 0x1BF JUMP JUMPDEST SWAP1 POP SWAP2 SWAP1 POP JUMP JUMPDEST PUSH1 0x0 PUSH20 0xFFFFFFFFFFFFFFFFFFFFFFFFFFFFFFFFFFFFFFFF DUP3 AND SWAP1 POP SWAP2 SWAP1 POP JUMP JUMPDEST PUSH1 0x0 DUP2 SWAP1 POP SWAP2 SWAP1 POP JUMP JUMPDEST PUSH32 0x4E487B7100000000000000000000000000000000000000000000000000000000 PUSH1 0x0 MSTORE PUSH1 0x11 PUSH1 0x4 MSTORE PUSH1 0x24 PUSH1 0x0 REVERT JUMPDEST PUSH32 0x4E487B7100000000000000000000000000000000000000000000000000000000 PUSH1 0x0 MSTORE PUSH1 0x21 PUSH1 0x4 MSTORE PUSH1 0x24 PUSH1 0x0 REVERT JUMPDEST PUSH1 0x0 DUP1 REVERT JUMPDEST PUSH3 0x257 DUP2 PUSH3 0x1AB JUMP JUMPDEST DUP2 EQ PUSH3 0x263 JUMPI PUSH1 0x0 DUP1 REVERT JUMPDEST POP JUMP JUMPDEST PUSH3 0x271 DUP2 PUSH3 0x1DF JUMP JUMPDEST DUP2 EQ PUSH3 0x27D JUMPI PUSH1 0x0 DUP1 REVERT JUMPDEST POP JUMP JUMPDEST PUSH2 0x15B7 DUP1 PUSH3 0x290 PUSH1 0x0 CODECOPY PUSH1 0x0 RETURN INVALID PUSH1 0x80 PUSH1 0x40 MSTORE PUSH1 0x4 CALLDATASIZE LT PUSH2 0xA7 JUMPI PUSH1 0x0 CALLDATALOAD PUSH1 0xE0 SHR DUP1 PUSH4 0x76F75E7F GT PUSH2 0x64 JUMPI DUP1 PUSH4 0x76F75E7F EQ PUSH2 0x15E JUMPI DUP1 PUSH4 0x78E97925 EQ PUSH2 0x19B JUMPI DUP1 PUSH4 0x7DE4FBB6 EQ PUSH2 0x1C6 JUMPI DUP1 PUSH4 0xBA2255F4 EQ PUSH2 0x1DD JUMPI DUP1 PUSH4 0xC19D93FB EQ PUSH2 0x20D JUMPI DUP1 PUSH4 0xF56B3AD5 EQ PUSH2 0x238 JUMPI PUSH2 0xA7 JUMP JUMPDEST DUP1 PUSH4 0x24600FC3 EQ PUSH2 0xAC JUMPI DUP1 PUSH4 0x3197CBB6 EQ PUSH2 0xC3 JUMPI DUP1 PUSH4 0x409B509D EQ PUSH2 0xEE JUMPI DUP1 PUSH4 0x40C78E98 EQ PUSH2 0x105 JUMPI DUP1 PUSH4 0x5F29A5EE EQ PUSH2 0x11C JUMPI DUP1 PUSH4 0x656B9952 EQ PUSH2 0x133 JUMPI JUMPDEST PUSH1 0x0 DUP1 REVERT JUMPDEST CALLVALUE DUP1 ISZERO PUSH2 0xB8 JUMPI PUSH1 0x0 DUP1 REVERT JUMPDEST POP PUSH2 0xC1 PUSH2 0x263 JUMP JUMPDEST STOP JUMPDEST CALLVALUE DUP1 ISZERO PUSH2 0xCF JUMPI PUSH1 0x0 DUP1 REVERT JUMPDEST POP PUSH2 0xD8 PUSH2 0x42E JUMP JUMPDEST PUSH1 0x40 MLOAD PUSH2 0xE5 SWAP2 SWAP1 PUSH2 0x115B JUMP JUMPDEST PUSH1 0x40 MLOAD DUP1 SWAP2 SUB SWAP1 RETURN JUMPDEST CALLVALUE DUP1 ISZERO PUSH2 0xFA JUMPI PUSH1 0x0 DUP1 REVERT JUMPDEST POP PUSH2 0x103 PUSH2 0x434 JUMP JUMPDEST STOP JUMPDEST CALLVALUE DUP1 ISZERO PUSH2 0x111 JUMPI PUSH1 0x0 DUP1 REVERT JUMPDEST POP PUSH2 0x11A PUSH2 0x5CC JUMP JUMPDEST STOP JUMPDEST CALLVALUE DUP1 ISZERO PUSH2 0x128 JUMPI PUSH1 0x0 DUP1 REVERT JUMPDEST POP PUSH2 0x131 PUSH2 0x6B3 JUMP JUMPDEST STOP JUMPDEST CALLVALUE DUP1 ISZERO PUSH2 0x13F JUMPI PUSH1 0x0 DUP1 REVERT JUMPDEST POP PUSH2 0x148 PUSH2 0x7EB JUMP JUMPDEST PUSH1 0x40 MLOAD PUSH2 0x155 SWAP2 SWAP1 PUSH2 0x1065 JUMP JUMPDEST PUSH1 0x40 MLOAD DUP1 SWAP2 SUB SWAP1 RETURN JUMPDEST CALLVALUE DUP1 ISZERO PUSH2 0x16A JUMPI PUSH1 0x0 DUP1 REVERT JUMPDEST POP PUSH2 0x185 PUSH1 0x4 DUP1 CALLDATASIZE SUB DUP2 ADD SWAP1 PUSH2 0x180 SWAP2 SWAP1 PUSH2 0xEE2 JUMP JUMPDEST PUSH2 0x80F JUMP JUMPDEST PUSH1 0x40 MLOAD PUSH2 0x192 SWAP2 SWAP1 PUSH2 0x104A JUMP JUMPDEST PUSH1 0x40 MLOAD DUP1 SWAP2 SUB SWAP1 RETURN JUMPDEST CALLVALUE DUP1 ISZERO PUSH2 0x1A7 JUMPI PUSH1 0x0 DUP1 REVERT JUMPDEST POP PUSH2 0x1B0 PUSH2 0x84E JUMP JUMPDEST PUSH1 0x40 MLOAD PUSH2 0x1BD SWAP2 SWAP1 PUSH2 0x115B JUMP JUMPDEST PUSH1 0x40 MLOAD DUP1 SWAP2 SUB SWAP1 RETURN JUMPDEST CALLVALUE DUP1 ISZERO PUSH2 0x1D2 JUMPI PUSH1 0x0 DUP1 REVERT JUMPDEST POP PUSH2 0x1DB PUSH2 0x854 JUMP JUMPDEST STOP JUMPDEST PUSH2 0x1F7 PUSH1 0x4 DUP1 CALLDATASIZE SUB DUP2 ADD SWAP1 PUSH2 0x1F2 SWAP2 SWAP1 PUSH2 0xEE2 JUMP JUMPDEST PUSH2 0xB5A JUMP JUMPDEST PUSH1 0x40 MLOAD PUSH2 0x204 SWAP2 SWAP1 PUSH2 0x115B JUMP JUMPDEST PUSH1 0x40 MLOAD DUP1 SWAP2 SUB SWAP1 RETURN JUMPDEST CALLVALUE DUP1 ISZERO PUSH2 0x219 JUMPI PUSH1 0x0 DUP1 REVERT JUMPDEST POP PUSH2 0x222 PUSH2 0xE5D JUMP JUMPDEST PUSH1 0x40 MLOAD PUSH2 0x22F SWAP2 SWAP1 PUSH2 0x1080 JUMP JUMPDEST PUSH1 0x40 MLOAD DUP1 SWAP2 SUB SWAP1 RETURN JUMPDEST CALLVALUE DUP1 ISZERO PUSH2 0x244 JUMPI PUSH1 0x0 DUP1 REVERT JUMPDEST POP PUSH2 0x24D PUSH2 0xE70 JUMP JUMPDEST PUSH1 0x40 MLOAD PUSH2 0x25A SWAP2 SWAP1 PUSH2 0x115B JUMP JUMPDEST PUSH1 0x40 MLOAD DUP1 SWAP2 SUB SWAP1 RETURN JUMPDEST PUSH1 0x2 PUSH1 0x3 DUP2 GT ISZERO PUSH2 0x277 JUMPI PUSH2 0x276 PUSH2 0x1331 JUMP JUMPDEST JUMPDEST PUSH1 0x4 PUSH1 0x0 SWAP1 SLOAD SWAP1 PUSH2 0x100 EXP SWAP1 DIV PUSH1 0xFF AND PUSH1 0x3 DUP2 GT ISZERO PUSH2 0x299 JUMPI PUSH2 0x298 PUSH2 0x1331 JUMP JUMPDEST JUMPDEST EQ PUSH2 0x2D9 JUMPI PUSH1 0x40 MLOAD PUSH32 0x8C379A000000000000000000000000000000000000000000000000000000000 DUP2 MSTORE PUSH1 0x4 ADD PUSH2 0x2D0 SWAP1 PUSH2 0x10BB JUMP JUMPDEST PUSH1 0x40 MLOAD DUP1 SWAP2 SUB SWAP1 REVERT JUMPDEST PUSH1 0x0 PUSH1 0x5 PUSH1 0x0 CALLER PUSH20 0xFFFFFFFFFFFFFFFFFFFFFFFFFFFFFFFFFFFFFFFF AND PUSH20 0xFFFFFFFFFFFFFFFFFFFFFFFFFFFFFFFFFFFFFFFF AND DUP2 MSTORE PUSH1 0x20 ADD SWAP1 DUP2 MSTORE PUSH1 0x20 ADD PUSH1 0x0 KECCAK256 SLOAD GT PUSH2 0x35B JUMPI PUSH1 0x40 MLOAD PUSH32 0x8C379A000000000000000000000000000000000000000000000000000000000 DUP2 MSTORE PUSH1 0x4 ADD PUSH2 0x352 SWAP1 PUSH2 0x10DB JUMP JUMPDEST PUSH1 0x40 MLOAD DUP1 SWAP2 SUB SWAP1 REVERT JUMPDEST PUSH1 0x0 PUSH1 0x5 PUSH1 0x0 CALLER PUSH20 0xFFFFFFFFFFFFFFFFFFFFFFFFFFFFFFFFFFFFFFFF AND PUSH20 0xFFFFFFFFFFFFFFFFFFFFFFFFFFFFFFFFFFFFFFFF AND DUP2 MSTORE PUSH1 0x20 ADD SWAP1 DUP2 MSTORE PUSH1 0x20 ADD PUSH1 0x0 KECCAK256 SLOAD SWAP1 POP PUSH1 0x0 PUSH1 0x5 PUSH1 0x0 CALLER PUSH20 0xFFFFFFFFFFFFFFFFFFFFFFFFFFFFFFFFFFFFFFFF AND PUSH20 0xFFFFFFFFFFFFFFFFFFFFFFFFFFFFFFFFFFFFFFFF AND DUP2 MSTORE PUSH1 0x20 ADD SWAP1 DUP2 MSTORE PUSH1 0x20 ADD PUSH1 0x0 KECCAK256 DUP2 SWAP1 SSTORE POP CALLER PUSH20 0xFFFFFFFFFFFFFFFFFFFFFFFFFFFFFFFFFFFFFFFF AND PUSH2 0x8FC DUP3 SWAP1 DUP2 ISZERO MUL SWAP1 PUSH1 0x40 MLOAD PUSH1 0x0 PUSH1 0x40 MLOAD DUP1 DUP4 SUB DUP2 DUP6 DUP9 DUP9 CALL SWAP4 POP POP POP POP ISZERO DUP1 ISZERO PUSH2 0x42A JUMPI RETURNDATASIZE PUSH1 0x0 DUP1 RETURNDATACOPY RETURNDATASIZE PUSH1 0x0 REVERT JUMPDEST POP POP JUMP JUMPDEST PUSH1 0x3 SLOAD DUP2 JUMP JUMPDEST PUSH1 0x0 PUSH1 0x3 DUP2 GT ISZERO PUSH2 0x448 JUMPI PUSH2 0x447 PUSH2 0x1331 JUMP JUMPDEST JUMPDEST PUSH1 0x4 PUSH1 0x0 SWAP1 SLOAD SWAP1 PUSH2 0x100 EXP SWAP1 DIV PUSH1 0xFF AND PUSH1 0x3 DUP2 GT ISZERO PUSH2 0x46A JUMPI PUSH2 0x469 PUSH2 0x1331 JUMP JUMPDEST JUMPDEST EQ PUSH2 0x474 JUMPI PUSH1 0x0 DUP1 REVERT JUMPDEST PUSH1 0x0 DUP1 SLOAD SWAP1 PUSH2 0x100 EXP SWAP1 DIV PUSH20 0xFFFFFFFFFFFFFFFFFFFFFFFFFFFFFFFFFFFFFFFF AND PUSH20 0xFFFFFFFFFFFFFFFFFFFFFFFFFFFFFFFFFFFFFFFF AND PUSH4 0x6D86B8A5 PUSH1 0x40 MLOAD DUP2 PUSH4 0xFFFFFFFF AND PUSH1 0xE0 SHL DUP2 MSTORE PUSH1 0x4 ADD PUSH1 0x20 PUSH1 0x40 MLOAD DUP1 DUP4 SUB DUP2 DUP7 DUP1 EXTCODESIZE ISZERO DUP1 ISZERO PUSH2 0x4DA JUMPI PUSH1 0x0 DUP1 REVERT JUMPDEST POP GAS STATICCALL ISZERO DUP1 ISZERO PUSH2 0x4EE JUMPI RETURNDATASIZE PUSH1 0x0 DUP1 RETURNDATACOPY RETURNDATASIZE PUSH1 0x0 REVERT JUMPDEST POP POP POP POP PUSH1 0x40 MLOAD RETURNDATASIZE PUSH1 0x1F NOT PUSH1 0x1F DUP3 ADD AND DUP3 ADD DUP1 PUSH1 0x40 MSTORE POP DUP2 ADD SWAP1 PUSH2 0x512 SWAP2 SWAP1 PUSH2 0xF0F JUMP JUMPDEST PUSH1 0x1 SLOAD EQ PUSH2 0x51F JUMPI PUSH1 0x0 DUP1 REVERT JUMPDEST PUSH1 0x1 PUSH1 0x4 PUSH1 0x0 PUSH2 0x100 EXP DUP2 SLOAD DUP2 PUSH1 0xFF MUL NOT AND SWAP1 DUP4 PUSH1 0x3 DUP2 GT ISZERO PUSH2 0x545 JUMPI PUSH2 0x544 PUSH2 0x1331 JUMP JUMPDEST JUMPDEST MUL OR SWAP1 SSTORE POP PUSH1 0x0 DUP1 SLOAD SWAP1 PUSH2 0x100 EXP SWAP1 DIV PUSH20 0xFFFFFFFFFFFFFFFFFFFFFFFFFFFFFFFFFFFFFFFF AND PUSH20 0xFFFFFFFFFFFFFFFFFFFFFFFFFFFFFFFFFFFFFFFF AND PUSH4 0xF5C609E0 PUSH1 0x40 MLOAD DUP2 PUSH4 0xFFFFFFFF AND PUSH1 0xE0 SHL DUP2 MSTORE PUSH1 0x4 ADD PUSH1 0x0 PUSH1 0x40 MLOAD DUP1 DUP4 SUB DUP2 PUSH1 0x0 DUP8 DUP1 EXTCODESIZE ISZERO DUP1 ISZERO PUSH2 0x5B2 JUMPI PUSH1 0x0 DUP1 REVERT JUMPDEST POP GAS CALL ISZERO DUP1 ISZERO PUSH2 0x5C6 JUMPI RETURNDATASIZE PUSH1 0x0 DUP1 RETURNDATACOPY RETURNDATASIZE PUSH1 0x0 REVERT JUMPDEST POP POP POP POP JUMP JUMPDEST PUSH1 0x0 PUSH1 0x3 DUP2 GT ISZERO PUSH2 0x5E0 JUMPI PUSH2 0x5DF PUSH2 0x1331 JUMP JUMPDEST JUMPDEST PUSH1 0x4 PUSH1 0x0 SWAP1 SLOAD SWAP1 PUSH2 0x100 EXP SWAP1 DIV PUSH1 0xFF AND PUSH1 0x3 DUP2 GT ISZERO PUSH2 0x602 JUMPI PUSH2 0x601 PUSH2 0x1331 JUMP JUMPDEST JUMPDEST EQ PUSH2 0x642 JUMPI PUSH1 0x40 MLOAD PUSH32 0x8C379A000000000000000000000000000000000000000000000000000000000 DUP2 MSTORE PUSH1 0x4 ADD PUSH2 0x639 SWAP1 PUSH2 0x113B JUMP JUMPDEST PUSH1 0x40 MLOAD DUP1 SWAP2 SUB SWAP1 REVERT JUMPDEST PUSH1 0x3 SLOAD TIMESTAMP GT PUSH2 0x686 JUMPI PUSH1 0x40 MLOAD PUSH32 0x8C379A000000000000000000000000000000000000000000000000000000000 DUP2 MSTORE PUSH1 0x4 ADD PUSH2 0x67D SWAP1 PUSH2 0x10FB JUMP JUMPDEST PUSH1 0x40 MLOAD DUP1 SWAP2 SUB SWAP1 REVERT JUMPDEST PUSH1 0x2 PUSH1 0x4 PUSH1 0x0 PUSH2 0x100 EXP DUP2 SLOAD DUP2 PUSH1 0xFF MUL NOT AND SWAP1 DUP4 PUSH1 0x3 DUP2 GT ISZERO PUSH2 0x6AC JUMPI PUSH2 0x6AB PUSH2 0x1331 JUMP JUMPDEST JUMPDEST MUL OR SWAP1 SSTORE POP JUMP JUMPDEST PUSH1 0x0 DUP1 SLOAD SWAP1 PUSH2 0x100 EXP SWAP1 DIV PUSH20 0xFFFFFFFFFFFFFFFFFFFFFFFFFFFFFFFFFFFFFFFF AND PUSH20 0xFFFFFFFFFFFFFFFFFFFFFFFFFFFFFFFFFFFFFFFF AND PUSH4 0xD811FCF0 PUSH1 0x40 MLOAD DUP2 PUSH4 0xFFFFFFFF AND PUSH1 0xE0 SHL DUP2 MSTORE PUSH1 0x4 ADD PUSH1 0x20 PUSH1 0x40 MLOAD DUP1 DUP4 SUB DUP2 DUP7 DUP1 EXTCODESIZE ISZERO DUP1 ISZERO PUSH2 0x719 JUMPI PUSH1 0x0 DUP1 REVERT JUMPDEST POP GAS STATICCALL ISZERO DUP1 ISZERO PUSH2 0x72D JUMPI RETURNDATASIZE PUSH1 0x0 DUP1 RETURNDATACOPY RETURNDATASIZE PUSH1 0x0 REVERT JUMPDEST POP POP POP POP PUSH1 0x40 MLOAD RETURNDATASIZE PUSH1 0x1F NOT PUSH1 0x1F DUP3 ADD AND DUP3 ADD DUP1 PUSH1 0x40 MSTORE POP DUP2 ADD SWAP1 PUSH2 0x751 SWAP2 SWAP1 PUSH2 0xEB5 JUMP JUMPDEST PUSH20 0xFFFFFFFFFFFFFFFFFFFFFFFFFFFFFFFFFFFFFFFF AND CALLER PUSH20 0xFFFFFFFFFFFFFFFFFFFFFFFFFFFFFFFFFFFFFFFF AND EQ PUSH2 0x7BE JUMPI PUSH1 0x40 MLOAD PUSH32 0x8C379A000000000000000000000000000000000000000000000000000000000 DUP2 MSTORE PUSH1 0x4 ADD PUSH2 0x7B5 SWAP1 PUSH2 0x109B JUMP JUMPDEST PUSH1 0x40 MLOAD DUP1 SWAP2 SUB SWAP1 REVERT JUMPDEST PUSH1 0x2 PUSH1 0x4 PUSH1 0x0 PUSH2 0x100 EXP DUP2 SLOAD DUP2 PUSH1 0xFF MUL NOT AND SWAP1 DUP4 PUSH1 0x3 DUP2 GT ISZERO PUSH2 0x7E4 JUMPI PUSH2 0x7E3 PUSH2 0x1331 JUMP JUMPDEST JUMPDEST MUL OR SWAP1 SSTORE POP JUMP JUMPDEST PUSH1 0x0 DUP1 SLOAD SWAP1 PUSH2 0x100 EXP SWAP1 DIV PUSH20 0xFFFFFFFFFFFFFFFFFFFFFFFFFFFFFFFFFFFFFFFF AND DUP2 JUMP JUMPDEST PUSH1 0x6 DUP2 DUP2 SLOAD DUP2 LT PUSH2 0x81F JUMPI PUSH1 0x0 DUP1 REVERT JUMPDEST SWAP1 PUSH1 0x0 MSTORE PUSH1 0x20 PUSH1 0x0 KECCAK256 ADD PUSH1 0x0 SWAP2 POP SLOAD SWAP1 PUSH2 0x100 EXP SWAP1 DIV PUSH20 0xFFFFFFFFFFFFFFFFFFFFFFFFFFFFFFFFFFFFFFFF AND DUP2 JUMP JUMPDEST PUSH1 0x2 SLOAD DUP2 JUMP JUMPDEST PUSH1 0x1 PUSH1 0x3 DUP2 GT ISZERO PUSH2 0x868 JUMPI PUSH2 0x867 PUSH2 0x1331 JUMP JUMPDEST JUMPDEST PUSH1 0x4 PUSH1 0x0 SWAP1 SLOAD SWAP1 PUSH2 0x100 EXP SWAP1 DIV PUSH1 0xFF AND PUSH1 0x3 DUP2 GT ISZERO PUSH2 0x88A JUMPI PUSH2 0x889 PUSH2 0x1331 JUMP JUMPDEST JUMPDEST EQ PUSH2 0x894 JUMPI PUSH1 0x0 DUP1 REVERT JUMPDEST PUSH1 0x0 DUP1 SLOAD SWAP1 PUSH2 0x100 EXP SWAP1 DIV PUSH20 0xFFFFFFFFFFFFFFFFFFFFFFFFFFFFFFFFFFFFFFFF AND PUSH20 0xFFFFFFFFFFFFFFFFFFFFFFFFFFFFFFFFFFFFFFFF AND PUSH4 0xD811FCF0 PUSH1 0x40 MLOAD DUP2 PUSH4 0xFFFFFFFF AND PUSH1 0xE0 SHL DUP2 MSTORE PUSH1 0x4 ADD PUSH1 0x20 PUSH1 0x40 MLOAD DUP1 DUP4 SUB DUP2 DUP7 DUP1 EXTCODESIZE ISZERO DUP1 ISZERO PUSH2 0x8FA JUMPI PUSH1 0x0 DUP1 REVERT JUMPDEST POP GAS STATICCALL ISZERO DUP1 ISZERO PUSH2 0x90E JUMPI RETURNDATASIZE PUSH1 0x0 DUP1 RETURNDATACOPY RETURNDATASIZE PUSH1 0x0 REVERT JUMPDEST POP POP POP POP PUSH1 0x40 MLOAD RETURNDATASIZE PUSH1 0x1F NOT PUSH1 0x1F DUP3 ADD AND DUP3 ADD DUP1 PUSH1 0x40 MSTORE POP DUP2 ADD SWAP1 PUSH2 0x932 SWAP2 SWAP1 PUSH2 0xEB5 JUMP JUMPDEST PUSH20 0xFFFFFFFFFFFFFFFFFFFFFFFFFFFFFFFFFFFFFFFF AND CALLER PUSH20 0xFFFFFFFFFFFFFFFFFFFFFFFFFFFFFFFFFFFFFFFF AND EQ PUSH2 0x99F JUMPI PUSH1 0x40 MLOAD PUSH32 0x8C379A000000000000000000000000000000000000000000000000000000000 DUP2 MSTORE PUSH1 0x4 ADD PUSH2 0x996 SWAP1 PUSH2 0x111B JUMP JUMPDEST PUSH1 0x40 MLOAD DUP1 SWAP2 SUB SWAP1 REVERT JUMPDEST PUSH1 0x3 PUSH1 0x4 PUSH1 0x0 PUSH2 0x100 EXP DUP2 SLOAD DUP2 PUSH1 0xFF MUL NOT AND SWAP1 DUP4 PUSH1 0x3 DUP2 GT ISZERO PUSH2 0x9C5 JUMPI PUSH2 0x9C4 PUSH2 0x1331 JUMP JUMPDEST JUMPDEST MUL OR SWAP1 SSTORE POP PUSH1 0x0 DUP1 SLOAD SWAP1 PUSH2 0x100 EXP SWAP1 DIV PUSH20 0xFFFFFFFFFFFFFFFFFFFFFFFFFFFFFFFFFFFFFFFF AND PUSH20 0xFFFFFFFFFFFFFFFFFFFFFFFFFFFFFFFFFFFFFFFF AND PUSH4 0xD811FCF0 PUSH1 0x40 MLOAD DUP2 PUSH4 0xFFFFFFFF AND PUSH1 0xE0 SHL DUP2 MSTORE PUSH1 0x4 ADD PUSH1 0x20 PUSH1 0x40 MLOAD DUP1 DUP4 SUB DUP2 DUP7 DUP1 EXTCODESIZE ISZERO DUP1 ISZERO PUSH2 0xA30 JUMPI PUSH1 0x0 DUP1 REVERT JUMPDEST POP GAS STATICCALL ISZERO DUP1 ISZERO PUSH2 0xA44 JUMPI RETURNDATASIZE PUSH1 0x0 DUP1 RETURNDATACOPY RETURNDATASIZE PUSH1 0x0 REVERT JUMPDEST POP POP POP POP PUSH1 0x40 MLOAD RETURNDATASIZE PUSH1 0x1F NOT PUSH1 0x1F DUP3 ADD AND DUP3 ADD DUP1 PUSH1 0x40 MSTORE POP DUP2 ADD SWAP1 PUSH2 0xA68 SWAP2 SWAP1 PUSH2 0xEB5 JUMP JUMPDEST PUSH20 0xFFFFFFFFFFFFFFFFFFFFFFFFFFFFFFFFFFFFFFFF AND PUSH2 0x8FC PUSH1 0x0 DUP1 SLOAD SWAP1 PUSH2 0x100 EXP SWAP1 DIV PUSH20 0xFFFFFFFFFFFFFFFFFFFFFFFFFFFFFFFFFFFFFFFF AND PUSH20 0xFFFFFFFFFFFFFFFFFFFFFFFFFFFFFFFFFFFFFFFF AND PUSH4 0xA035B1FE PUSH1 0x40 MLOAD DUP2 PUSH4 0xFFFFFFFF AND PUSH1 0xE0 SHL DUP2 MSTORE PUSH1 0x4 ADD PUSH1 0x20 PUSH1 0x40 MLOAD DUP1 DUP4 SUB DUP2 DUP7 DUP1 EXTCODESIZE ISZERO DUP1 ISZERO PUSH2 0xAE7 JUMPI PUSH1 0x0 DUP1 REVERT JUMPDEST POP GAS STATICCALL ISZERO DUP1 ISZERO PUSH2 0xAFB JUMPI RETURNDATASIZE PUSH1 0x0 DUP1 RETURNDATACOPY RETURNDATASIZE PUSH1 0x0 REVERT JUMPDEST POP POP POP POP PUSH1 0x40 MLOAD RETURNDATASIZE PUSH1 0x1F NOT PUSH1 0x1F DUP3 ADD AND DUP3 ADD DUP1 PUSH1 0x40 MSTORE POP DUP2 ADD SWAP1 PUSH2 0xB1F SWAP2 SWAP1 PUSH2 0xF0F JUMP JUMPDEST PUSH1 0x1 SLOAD PUSH2 0xB2C SWAP2 SWAP1 PUSH2 0x11DD JUMP JUMPDEST SWAP1 DUP2 ISZERO MUL SWAP1 PUSH1 0x40 MLOAD PUSH1 0x0 PUSH1 0x40 MLOAD DUP1 DUP4 SUB DUP2 DUP6 DUP9 DUP9 CALL SWAP4 POP POP POP POP ISZERO DUP1 ISZERO PUSH2 0xB57 JUMPI RETURNDATASIZE PUSH1 0x0 DUP1 RETURNDATACOPY RETURNDATASIZE PUSH1 0x0 REVERT JUMPDEST POP JUMP JUMPDEST PUSH1 0x0 DUP1 PUSH1 0x3 DUP2 GT ISZERO PUSH2 0xB6F JUMPI PUSH2 0xB6E PUSH2 0x1331 JUMP JUMPDEST JUMPDEST PUSH1 0x4 PUSH1 0x0 SWAP1 SLOAD SWAP1 PUSH2 0x100 EXP SWAP1 DIV PUSH1 0xFF AND PUSH1 0x3 DUP2 GT ISZERO PUSH2 0xB91 JUMPI PUSH2 0xB90 PUSH2 0x1331 JUMP JUMPDEST JUMPDEST EQ PUSH2 0xB9B JUMPI PUSH1 0x0 DUP1 REVERT JUMPDEST DUP2 DUP3 PUSH1 0x0 DUP1 SLOAD SWAP1 PUSH2 0x100 EXP SWAP1 DIV PUSH20 0xFFFFFFFFFFFFFFFFFFFFFFFFFFFFFFFFFFFFFFFF AND PUSH20 0xFFFFFFFFFFFFFFFFFFFFFFFFFFFFFFFFFFFFFFFF AND PUSH4 0x6D86B8A5 PUSH1 0x40 MLOAD DUP2 PUSH4 0xFFFFFFFF AND PUSH1 0xE0 SHL DUP2 MSTORE PUSH1 0x4 ADD PUSH1 0x20 PUSH1 0x40 MLOAD DUP1 DUP4 SUB DUP2 DUP7 DUP1 EXTCODESIZE ISZERO DUP1 ISZERO PUSH2 0xC03 JUMPI PUSH1 0x0 DUP1 REVERT JUMPDEST POP GAS STATICCALL ISZERO DUP1 ISZERO PUSH2 0xC17 JUMPI RETURNDATASIZE PUSH1 0x0 DUP1 RETURNDATACOPY RETURNDATASIZE PUSH1 0x0 REVERT JUMPDEST POP POP POP POP PUSH1 0x40 MLOAD RETURNDATASIZE PUSH1 0x1F NOT PUSH1 0x1F DUP3 ADD AND DUP3 ADD DUP1 PUSH1 0x40 MSTORE POP DUP2 ADD SWAP1 PUSH2 0xC3B SWAP2 SWAP1 PUSH2 0xF0F JUMP JUMPDEST PUSH2 0xC45 SWAP2 SWAP1 PUSH2 0x1237 JUMP JUMPDEST LT ISZERO PUSH2 0xC50 JUMPI PUSH1 0x0 DUP1 REVERT JUMPDEST CALLVALUE PUSH1 0x0 DUP1 SLOAD SWAP1 PUSH2 0x100 EXP SWAP1 DIV PUSH20 0xFFFFFFFFFFFFFFFFFFFFFFFFFFFFFFFFFFFFFFFF AND PUSH20 0xFFFFFFFFFFFFFFFFFFFFFFFFFFFFFFFFFFFFFFFF AND PUSH4 0xA035B1FE PUSH1 0x40 MLOAD DUP2 PUSH4 0xFFFFFFFF AND PUSH1 0xE0 SHL DUP2 MSTORE PUSH1 0x4 ADD PUSH1 0x20 PUSH1 0x40 MLOAD DUP1 DUP4 SUB DUP2 DUP7 DUP1 EXTCODESIZE ISZERO DUP1 ISZERO PUSH2 0xCB7 JUMPI PUSH1 0x0 DUP1 REVERT JUMPDEST POP GAS STATICCALL ISZERO DUP1 ISZERO PUSH2 0xCCB JUMPI RETURNDATASIZE PUSH1 0x0 DUP1 RETURNDATACOPY RETURNDATASIZE PUSH1 0x0 REVERT JUMPDEST POP POP POP POP PUSH1 0x40 MLOAD RETURNDATASIZE PUSH1 0x1F NOT PUSH1 0x1F DUP3 ADD AND DUP3 ADD DUP1 PUSH1 0x40 MSTORE POP DUP2 ADD SWAP1 PUSH2 0xCEF SWAP2 SWAP1 PUSH2 0xF0F JUMP JUMPDEST DUP4 PUSH2 0xCFA SWAP2 SWAP1 PUSH2 0x11DD JUMP JUMPDEST EQ PUSH2 0xD04 JUMPI PUSH1 0x0 DUP1 REVERT JUMPDEST PUSH1 0x3 SLOAD TIMESTAMP GT ISZERO PUSH2 0xD3E JUMPI PUSH1 0x2 PUSH1 0x4 PUSH1 0x0 PUSH2 0x100 EXP DUP2 SLOAD DUP2 PUSH1 0xFF MUL NOT AND SWAP1 DUP4 PUSH1 0x3 DUP2 GT ISZERO PUSH2 0xD34 JUMPI PUSH2 0xD33 PUSH2 0x1331 JUMP JUMPDEST JUMPDEST MUL OR SWAP1 SSTORE POP PUSH2 0xE57 JUMP JUMPDEST PUSH1 0x6 CALLER SWAP1 DUP1 PUSH1 0x1 DUP2 SLOAD ADD DUP1 DUP3 SSTORE DUP1 SWAP2 POP POP PUSH1 0x1 SWAP1 SUB SWAP1 PUSH1 0x0 MSTORE PUSH1 0x20 PUSH1 0x0 KECCAK256 ADD PUSH1 0x0 SWAP1 SWAP2 SWAP1 SWAP2 SWAP1 SWAP2 PUSH2 0x100 EXP DUP2 SLOAD DUP2 PUSH20 0xFFFFFFFFFFFFFFFFFFFFFFFFFFFFFFFFFFFFFFFF MUL NOT AND SWAP1 DUP4 PUSH20 0xFFFFFFFFFFFFFFFFFFFFFFFFFFFFFFFFFFFFFFFF AND MUL OR SWAP1 SSTORE POP DUP1 PUSH1 0x5 PUSH1 0x0 CALLER PUSH20 0xFFFFFFFFFFFFFFFFFFFFFFFFFFFFFFFFFFFFFFFF AND PUSH20 0xFFFFFFFFFFFFFFFFFFFFFFFFFFFFFFFFFFFFFFFF AND DUP2 MSTORE PUSH1 0x20 ADD SWAP1 DUP2 MSTORE PUSH1 0x20 ADD PUSH1 0x0 KECCAK256 PUSH1 0x0 DUP3 DUP3 SLOAD PUSH2 0xDF0 SWAP2 SWAP1 PUSH2 0x1187 JUMP JUMPDEST SWAP3 POP POP DUP2 SWAP1 SSTORE POP DUP1 PUSH1 0x1 PUSH1 0x0 DUP3 DUP3 SLOAD PUSH2 0xE09 SWAP2 SWAP1 PUSH2 0x1187 JUMP JUMPDEST SWAP3 POP POP DUP2 SWAP1 SSTORE POP PUSH1 0x5 PUSH1 0x0 CALLER PUSH20 0xFFFFFFFFFFFFFFFFFFFFFFFFFFFFFFFFFFFFFFFF AND PUSH20 0xFFFFFFFFFFFFFFFFFFFFFFFFFFFFFFFFFFFFFFFF AND DUP2 MSTORE PUSH1 0x20 ADD SWAP1 DUP2 MSTORE PUSH1 0x20 ADD PUSH1 0x0 KECCAK256 SLOAD SWAP1 POP PUSH2 0xE58 JUMP JUMPDEST JUMPDEST SWAP2 SWAP1 POP JUMP JUMPDEST PUSH1 0x4 PUSH1 0x0 SWAP1 SLOAD SWAP1 PUSH2 0x100 EXP SWAP1 DIV PUSH1 0xFF AND DUP2 JUMP JUMPDEST PUSH1 0x1 SLOAD DUP2 JUMP JUMPDEST PUSH1 0x0 DUP2 MLOAD SWAP1 POP PUSH2 0xE85 DUP2 PUSH2 0x1553 JUMP JUMPDEST SWAP3 SWAP2 POP POP JUMP JUMPDEST PUSH1 0x0 DUP2 CALLDATALOAD SWAP1 POP PUSH2 0xE9A DUP2 PUSH2 0x156A JUMP JUMPDEST SWAP3 SWAP2 POP POP JUMP JUMPDEST PUSH1 0x0 DUP2 MLOAD SWAP1 POP PUSH2 0xEAF DUP2 PUSH2 0x156A JUMP JUMPDEST SWAP3 SWAP2 POP POP JUMP JUMPDEST PUSH1 0x0 PUSH1 0x20 DUP3 DUP5 SUB SLT ISZERO PUSH2 0xECB JUMPI PUSH2 0xECA PUSH2 0x1360 JUMP JUMPDEST JUMPDEST PUSH1 0x0 PUSH2 0xED9 DUP5 DUP3 DUP6 ADD PUSH2 0xE76 JUMP JUMPDEST SWAP2 POP POP SWAP3 SWAP2 POP POP JUMP JUMPDEST PUSH1 0x0 PUSH1 0x20 DUP3 DUP5 SUB SLT ISZERO PUSH2 0xEF8 JUMPI PUSH2 0xEF7 PUSH2 0x1360 JUMP JUMPDEST JUMPDEST PUSH1 0x0 PUSH2 0xF06 DUP5 DUP3 DUP6 ADD PUSH2 0xE8B JUMP JUMPDEST SWAP2 POP POP SWAP3 SWAP2 POP POP JUMP JUMPDEST PUSH1 0x0 PUSH1 0x20 DUP3 DUP5 SUB SLT ISZERO PUSH2 0xF25 JUMPI PUSH2 0xF24 PUSH2 0x1360 JUMP JUMPDEST JUMPDEST PUSH1 0x0 PUSH2 0xF33 DUP5 DUP3 DUP6 ADD PUSH2 0xEA0 JUMP JUMPDEST SWAP2 POP POP SWAP3 SWAP2 POP POP JUMP JUMPDEST PUSH2 0xF45 DUP2 PUSH2 0x126B JUMP JUMPDEST DUP3 MSTORE POP POP JUMP JUMPDEST PUSH2 0xF54 DUP2 PUSH2 0x12BA JUMP JUMPDEST DUP3 MSTORE POP POP JUMP JUMPDEST PUSH2 0xF63 DUP2 PUSH2 0x12CC JUMP JUMPDEST DUP3 MSTORE POP POP JUMP JUMPDEST PUSH1 0x0 PUSH2 0xF76 PUSH1 0x33 DUP4 PUSH2 0x1176 JUMP JUMPDEST SWAP2 POP PUSH2 0xF81 DUP3 PUSH2 0x1365 JUMP JUMPDEST PUSH1 0x40 DUP3 ADD SWAP1 POP SWAP2 SWAP1 POP JUMP JUMPDEST PUSH1 0x0 PUSH2 0xF99 PUSH1 0x1B DUP4 PUSH2 0x1176 JUMP JUMPDEST SWAP2 POP PUSH2 0xFA4 DUP3 PUSH2 0x13B4 JUMP JUMPDEST PUSH1 0x20 DUP3 ADD SWAP1 POP SWAP2 SWAP1 POP JUMP JUMPDEST PUSH1 0x0 PUSH2 0xFBC PUSH1 0x2D DUP4 PUSH2 0x1176 JUMP JUMPDEST SWAP2 POP PUSH2 0xFC7 DUP3 PUSH2 0x13DD JUMP JUMPDEST PUSH1 0x40 DUP3 ADD SWAP1 POP SWAP2 SWAP1 POP JUMP JUMPDEST PUSH1 0x0 PUSH2 0xFDF PUSH1 0x25 DUP4 PUSH2 0x1176 JUMP JUMPDEST SWAP2 POP PUSH2 0xFEA DUP3 PUSH2 0x142C JUMP JUMPDEST PUSH1 0x40 DUP3 ADD SWAP1 POP SWAP2 SWAP1 POP JUMP JUMPDEST PUSH1 0x0 PUSH2 0x1002 PUSH1 0x46 DUP4 PUSH2 0x1176 JUMP JUMPDEST SWAP2 POP PUSH2 0x100D DUP3 PUSH2 0x147B JUMP JUMPDEST PUSH1 0x60 DUP3 ADD SWAP1 POP SWAP2 SWAP1 POP JUMP JUMPDEST PUSH1 0x0 PUSH2 0x1025 PUSH1 0x34 DUP4 PUSH2 0x1176 JUMP JUMPDEST SWAP2 POP PUSH2 0x1030 DUP3 PUSH2 0x14F0 JUMP JUMPDEST PUSH1 0x40 DUP3 ADD SWAP1 POP SWAP2 SWAP1 POP JUMP JUMPDEST PUSH2 0x1044 DUP2 PUSH2 0x12B0 JUMP JUMPDEST DUP3 MSTORE POP POP JUMP JUMPDEST PUSH1 0x0 PUSH1 0x20 DUP3 ADD SWAP1 POP PUSH2 0x105F PUSH1 0x0 DUP4 ADD DUP5 PUSH2 0xF3C JUMP JUMPDEST SWAP3 SWAP2 POP POP JUMP JUMPDEST PUSH1 0x0 PUSH1 0x20 DUP3 ADD SWAP1 POP PUSH2 0x107A PUSH1 0x0 DUP4 ADD DUP5 PUSH2 0xF4B JUMP JUMPDEST SWAP3 SWAP2 POP POP JUMP JUMPDEST PUSH1 0x0 PUSH1 0x20 DUP3 ADD SWAP1 POP PUSH2 0x1095 PUSH1 0x0 DUP4 ADD DUP5 PUSH2 0xF5A JUMP JUMPDEST SWAP3 SWAP2 POP POP JUMP JUMPDEST PUSH1 0x0 PUSH1 0x20 DUP3 ADD SWAP1 POP DUP2 DUP2 SUB PUSH1 0x0 DUP4 ADD MSTORE PUSH2 0x10B4 DUP2 PUSH2 0xF69 JUMP JUMPDEST SWAP1 POP SWAP2 SWAP1 POP JUMP JUMPDEST PUSH1 0x0 PUSH1 0x20 DUP3 ADD SWAP1 POP DUP2 DUP2 SUB PUSH1 0x0 DUP4 ADD MSTORE PUSH2 0x10D4 DUP2 PUSH2 0xF8C JUMP JUMPDEST SWAP1 POP SWAP2 SWAP1 POP JUMP JUMPDEST PUSH1 0x0 PUSH1 0x20 DUP3 ADD SWAP1 POP DUP2 DUP2 SUB PUSH1 0x0 DUP4 ADD MSTORE PUSH2 0x10F4 DUP2 PUSH2 0xFAF JUMP JUMPDEST SWAP1 POP SWAP2 SWAP1 POP JUMP JUMPDEST PUSH1 0x0 PUSH1 0x20 DUP3 ADD SWAP1 POP DUP2 DUP2 SUB PUSH1 0x0 DUP4 ADD MSTORE PUSH2 0x1114 DUP2 PUSH2 0xFD2 JUMP JUMPDEST SWAP1 POP SWAP2 SWAP1 POP JUMP JUMPDEST PUSH1 0x0 PUSH1 0x20 DUP3 ADD SWAP1 POP DUP2 DUP2 SUB PUSH1 0x0 DUP4 ADD MSTORE PUSH2 0x1134 DUP2 PUSH2 0xFF5 JUMP JUMPDEST SWAP1 POP SWAP2 SWAP1 POP JUMP JUMPDEST PUSH1 0x0 PUSH1 0x20 DUP3 ADD SWAP1 POP DUP2 DUP2 SUB PUSH1 0x0 DUP4 ADD MSTORE PUSH2 0x1154 DUP2 PUSH2 0x1018 JUMP JUMPDEST SWAP1 POP SWAP2 SWAP1 POP JUMP JUMPDEST PUSH1 0x0 PUSH1 0x20 DUP3 ADD SWAP1 POP PUSH2 0x1170 PUSH1 0x0 DUP4 ADD DUP5 PUSH2 0x103B JUMP JUMPDEST SWAP3 SWAP2 POP POP JUMP JUMPDEST PUSH1 0x0 DUP3 DUP3 MSTORE PUSH1 0x20 DUP3 ADD SWAP1 POP SWAP3 SWAP2 POP POP JUMP JUMPDEST PUSH1 0x0 PUSH2 0x1192 DUP3 PUSH2 0x12B0 JUMP JUMPDEST SWAP2 POP PUSH2 0x119D DUP4 PUSH2 0x12B0 JUMP JUMPDEST SWAP3 POP DUP3 PUSH32 0xFFFFFFFFFFFFFFFFFFFFFFFFFFFFFFFFFFFFFFFFFFFFFFFFFFFFFFFFFFFFFFFF SUB DUP3 GT ISZERO PUSH2 0x11D2 JUMPI PUSH2 0x11D1 PUSH2 0x1302 JUMP JUMPDEST JUMPDEST DUP3 DUP3 ADD SWAP1 POP SWAP3 SWAP2 POP POP JUMP JUMPDEST PUSH1 0x0 PUSH2 0x11E8 DUP3 PUSH2 0x12B0 JUMP JUMPDEST SWAP2 POP PUSH2 0x11F3 DUP4 PUSH2 0x12B0 JUMP JUMPDEST SWAP3 POP DUP2 PUSH32 0xFFFFFFFFFFFFFFFFFFFFFFFFFFFFFFFFFFFFFFFFFFFFFFFFFFFFFFFFFFFFFFFF DIV DUP4 GT DUP3 ISZERO ISZERO AND ISZERO PUSH2 0x122C JUMPI PUSH2 0x122B PUSH2 0x1302 JUMP JUMPDEST JUMPDEST DUP3 DUP3 MUL SWAP1 POP SWAP3 SWAP2 POP POP JUMP JUMPDEST PUSH1 0x0 PUSH2 0x1242 DUP3 PUSH2 0x12B0 JUMP JUMPDEST SWAP2 POP PUSH2 0x124D DUP4 PUSH2 0x12B0 JUMP JUMPDEST SWAP3 POP DUP3 DUP3 LT ISZERO PUSH2 0x1260 JUMPI PUSH2 0x125F PUSH2 0x1302 JUMP JUMPDEST JUMPDEST DUP3 DUP3 SUB SWAP1 POP SWAP3 SWAP2 POP POP JUMP JUMPDEST PUSH1 0x0 PUSH2 0x1276 DUP3 PUSH2 0x1290 JUMP JUMPDEST SWAP1 POP SWAP2 SWAP1 POP JUMP JUMPDEST PUSH1 0x0 DUP2 SWAP1 POP PUSH2 0x128B DUP3 PUSH2 0x153F JUMP JUMPDEST SWAP2 SWAP1 POP JUMP JUMPDEST PUSH1 0x0 PUSH20 0xFFFFFFFFFFFFFFFFFFFFFFFFFFFFFFFFFFFFFFFF DUP3 AND SWAP1 POP SWAP2 SWAP1 POP JUMP JUMPDEST PUSH1 0x0 DUP2 SWAP1 POP SWAP2 SWAP1 POP JUMP JUMPDEST PUSH1 0x0 PUSH2 0x12C5 DUP3 PUSH2 0x12DE JUMP JUMPDEST SWAP1 POP SWAP2 SWAP1 POP JUMP JUMPDEST PUSH1 0x0 PUSH2 0x12D7 DUP3 PUSH2 0x127D JUMP JUMPDEST SWAP1 POP SWAP2 SWAP1 POP JUMP JUMPDEST PUSH1 0x0 PUSH2 0x12E9 DUP3 PUSH2 0x12F0 JUMP JUMPDEST SWAP1 POP SWAP2 SWAP1 POP JUMP JUMPDEST PUSH1 0x0 PUSH2 0x12FB DUP3 PUSH2 0x1290 JUMP JUMPDEST SWAP1 POP SWAP2 SWAP1 POP JUMP JUMPDEST PUSH32 0x4E487B7100000000000000000000000000000000000000000000000000000000 PUSH1 0x0 MSTORE PUSH1 0x11 PUSH1 0x4 MSTORE PUSH1 0x24 PUSH1 0x0 REVERT JUMPDEST PUSH32 0x4E487B7100000000000000000000000000000000000000000000000000000000 PUSH1 0x0 MSTORE PUSH1 0x21 PUSH1 0x4 MSTORE PUSH1 0x24 PUSH1 0x0 REVERT JUMPDEST PUSH1 0x0 DUP1 REVERT JUMPDEST PUSH32 0x4F6E6C7920746865206661726D6572206F66207468652070726F647563652063 PUSH1 0x0 DUP3 ADD MSTORE PUSH32 0x616E2072656A65637420746865206F7264657200000000000000000000000000 PUSH1 0x20 DUP3 ADD MSTORE POP JUMP JUMPDEST PUSH32 0x6F7264657220686173206E6F74206265656E2072656A65637465640000000000 PUSH1 0x0 DUP3 ADD MSTORE POP JUMP JUMPDEST PUSH32 0x637573746F6D657220686173206E6F206F75747374616E64696E672062616C61 PUSH1 0x0 DUP3 ADD MSTORE PUSH32 0x6E636520746F20726566756E6400000000000000000000000000000000000000 PUSH1 0x20 DUP3 ADD MSTORE POP JUMP JUMPDEST PUSH32 0x5468652067726F7570206F7264657220686173206E6F74207965742074696D65 PUSH1 0x0 DUP3 ADD MSTORE PUSH32 0x64206F7574000000000000000000000000000000000000000000000000000000 PUSH1 0x20 DUP3 ADD MSTORE POP JUMP JUMPDEST PUSH32 0x4F6E6C7920746865206661726D6572206F66207468652070726F647563652063 PUSH1 0x0 DUP3 ADD MSTORE PUSH32 0x616E206E6F74696679207468617420746865206F726465722068617320626565 PUSH1 0x20 DUP3 ADD MSTORE PUSH32 0x6E2073656E740000000000000000000000000000000000000000000000000000 PUSH1 0x40 DUP3 ADD MSTORE POP JUMP JUMPDEST PUSH32 0x546865206F72646572207374617465206973206E6F74206F70656E2C20736F20 PUSH1 0x0 DUP3 ADD MSTORE PUSH32 0x63616E206E6F742062652074696D6564206F7574000000000000000000000000 PUSH1 0x20 DUP3 ADD MSTORE POP JUMP JUMPDEST PUSH1 0x4 DUP2 LT PUSH2 0x1550 JUMPI PUSH2 0x154F PUSH2 0x1331 JUMP JUMPDEST JUMPDEST POP JUMP JUMPDEST PUSH2 0x155C DUP2 PUSH2 0x126B JUMP JUMPDEST DUP2 EQ PUSH2 0x1567 JUMPI PUSH1 0x0 DUP1 REVERT JUMPDEST POP JUMP JUMPDEST PUSH2 0x1573 DUP2 PUSH2 0x12B0 JUMP JUMPDEST DUP2 EQ PUSH2 0x157E JUMPI PUSH1 0x0 DUP1 REVERT JUMPDEST POP JUMP INVALID LOG2 PUSH5 0x6970667358 0x22 SLT KECCAK256 COINBASE 0xE7 TIMESTAMP 0xE0 PUSH2 0x99EC DUP15 0xAE DUP4 0xB6 0x27 SSTORE PUSH21 0x62F79F3006EDA0F4FD732F9C6A11E9E59CBE64736F PUSH13 0x63430008070033000000000000 "
				},
				"gasEstimates": {
					"creation": {
						"codeDepositCost": "1111800",
						"executionCost": "infinite",
						"totalCost": "infinite"
					},
					"external": {
						"endTime()": "2452",
						"notifyOrderSent()": "infinite",
						"orderList(uint256)": "4956",
						"placeOrder(uint256)": "infinite",
						"portionsAgreed()": "2539",
						"produce()": "2708",
						"rejectOrder()": "infinite",
						"startTime()": "2451",
						"state()": "2648",
						"submitOrder()": "infinite",
						"timeOutGroupOrder()": "28831",
						"withdrawFunds()": "infinite"
					}
				},
				"methodIdentifiers": {
					"endTime()": "3197cbb6",
					"notifyOrderSent()": "7de4fbb6",
					"orderList(uint256)": "76f75e7f",
					"placeOrder(uint256)": "ba2255f4",
					"portionsAgreed()": "f56b3ad5",
					"produce()": "656b9952",
					"rejectOrder()": "5f29a5ee",
					"startTime()": "78e97925",
					"state()": "c19d93fb",
					"submitOrder()": "409b509d",
					"timeOutGroupOrder()": "40c78e98",
					"withdrawFunds()": "24600fc3"
				}
			},
			"storageLayout": {
				"storage": [
					{
						"astId": 221,
						"contract": "contracts/GroupOrder.sol:GroupOrder",
						"label": "produce",
						"offset": 0,
						"slot": "0",
						"type": "t_contract(Produce)807"
					},
					{
						"astId": 223,
						"contract": "contracts/GroupOrder.sol:GroupOrder",
						"label": "portionsAgreed",
						"offset": 0,
						"slot": "1",
						"type": "t_uint256"
					},
					{
						"astId": 225,
						"contract": "contracts/GroupOrder.sol:GroupOrder",
						"label": "startTime",
						"offset": 0,
						"slot": "2",
						"type": "t_uint256"
					},
					{
						"astId": 227,
						"contract": "contracts/GroupOrder.sol:GroupOrder",
						"label": "endTime",
						"offset": 0,
						"slot": "3",
						"type": "t_uint256"
					},
					{
						"astId": 235,
						"contract": "contracts/GroupOrder.sol:GroupOrder",
						"label": "state",
						"offset": 0,
						"slot": "4",
						"type": "t_enum(State)232"
					},
					{
						"astId": 239,
						"contract": "contracts/GroupOrder.sol:GroupOrder",
						"label": "orders",
						"offset": 0,
						"slot": "5",
						"type": "t_mapping(t_address,t_uint256)"
					},
					{
						"astId": 242,
						"contract": "contracts/GroupOrder.sol:GroupOrder",
						"label": "orderList",
						"offset": 0,
						"slot": "6",
						"type": "t_array(t_address)dyn_storage"
					}
				],
				"types": {
					"t_address": {
						"encoding": "inplace",
						"label": "address",
						"numberOfBytes": "20"
					},
					"t_array(t_address)dyn_storage": {
						"base": "t_address",
						"encoding": "dynamic_array",
						"label": "address[]",
						"numberOfBytes": "32"
					},
					"t_contract(Produce)807": {
						"encoding": "inplace",
						"label": "contract Produce",
						"numberOfBytes": "20"
					},
					"t_enum(State)232": {
						"encoding": "inplace",
						"label": "enum GroupOrder.State",
						"numberOfBytes": "1"
					},
					"t_mapping(t_address,t_uint256)": {
						"encoding": "mapping",
						"key": "t_address",
						"label": "mapping(address => uint256)",
						"numberOfBytes": "32",
						"value": "t_uint256"
					},
					"t_uint256": {
						"encoding": "inplace",
						"label": "uint256",
						"numberOfBytes": "32"
					}
				}
			},
			"userdoc": {
				"kind": "user",
				"methods": {
					"placeOrder(uint256)": {
						"notice": "Function for User to pledge individual order to the group order"
					},
					"submitOrder()": {
						"notice": "anyone can submit the order if the portions agreed has reached the max size"
					}
				},
				"version": 1
			}
		}
	}
}