{
	"contracts/Market.sol": {
		"Market": {
			"abi": [
				{
					"inputs": [],
					"stateMutability": "nonpayable",
					"type": "constructor"
				},
				{
					"inputs": [
						{
							"internalType": "uint256",
							"name": "_name",
							"type": "uint256"
						},
						{
							"internalType": "uint256",
							"name": "_price",
							"type": "uint256"
						},
						{
							"internalType": "uint256",
							"name": "_orderSize",
							"type": "uint256"
						},
						{
							"internalType": "bytes32",
							"name": "_amount",
							"type": "bytes32"
						},
						{
							"internalType": "uint256",
							"name": "_limitOnPendingOrders",
							"type": "uint256"
						}
					],
					"name": "addProduce",
					"outputs": [
						{
							"internalType": "address",
							"name": "produceContract",
							"type": "address"
						}
					],
					"stateMutability": "nonpayable",
					"type": "function"
				},
				{
					"inputs": [
						{
							"internalType": "address",
							"name": "",
							"type": "address"
						}
					],
					"name": "farmerList",
					"outputs": [
						{
							"internalType": "bool",
							"name": "",
							"type": "bool"
						}
					],
					"stateMutability": "view",
					"type": "function"
				},
				{
					"inputs": [
						{
							"internalType": "address",
							"name": "produceAddress",
							"type": "address"
						}
					],
					"name": "removeProduce",
					"outputs": [],
					"stateMutability": "nonpayable",
					"type": "function"
				}
			],
			"devdoc": {
				"kind": "dev",
				"methods": {},
				"version": 1
			},
			"evm": {
				"assembly": "    /* \"contracts/Market.sol\":142:1719  contract Market {... */\n  mstore(0x40, 0xa0)\n    /* \"contracts/Market.sol\":585:662  constructor() {... */\n  callvalue\n  dup1\n  iszero\n  tag_1\n  jumpi\n  0x00\n  dup1\n  revert\ntag_1:\n  pop\n    /* \"contracts/Market.sol\":641:654  new Produce() */\n  mload(0x40)\n  tag_4\n  swap1\n  tag_5\n  jump\t// in\ntag_4:\n  mload(0x40)\n  dup1\n  swap2\n  sub\n  swap1\n  0x00\n  create\n  dup1\n  iszero\n  dup1\n  iszero\n  tag_6\n  jumpi\n  returndatasize\n  0x00\n  dup1\n  returndatacopy\n  revert(0x00, returndatasize)\ntag_6:\n  pop\n    /* \"contracts/Market.sol\":609:655  produceImplementation = address(new Produce()) */\n  0xffffffffffffffffffffffffffffffffffffffff\n  and\n  0x80\n  dup2\n  0xffffffffffffffffffffffffffffffffffffffff\n  and\n  dup2\n  mstore\n  pop\n  pop\n    /* \"contracts/Market.sol\":142:1719  contract Market {... */\n  jump(tag_7)\ntag_5:\n  dataSize(sub_1)\n  dup1\n  dataOffset(sub_1)\n  dup4\n  codecopy\n  add\n  swap1\n  jump\t// out\ntag_7:\n  mload(0x80)\n  codecopy(0x00, dataOffset(sub_0), dataSize(sub_0))\n  0x00\n  assignImmutable(\"0xae31ed75e23e551fde6d038a3aec15ab1ea2fb6c912f84d137c43e0d0ce559b2\")\n  return(0x00, dataSize(sub_0))\nstop\n\nsub_0: assembly {\n        /* \"contracts/Market.sol\":142:1719  contract Market {... */\n      mstore(0x40, 0x80)\n      callvalue\n      dup1\n      iszero\n      tag_1\n      jumpi\n      0x00\n      dup1\n      revert\n    tag_1:\n      pop\n      jumpi(tag_2, lt(calldatasize, 0x04))\n      shr(0xe0, calldataload(0x00))\n      dup1\n      0x594659f5\n      eq\n      tag_3\n      jumpi\n      dup1\n      0x7b6833c3\n      eq\n      tag_4\n      jumpi\n      dup1\n      0xa1d861a9\n      eq\n      tag_5\n      jumpi\n    tag_2:\n      0x00\n      dup1\n      revert\n        /* \"contracts/Market.sol\":669:1397  function addProduce( ... */\n    tag_3:\n      tag_6\n      0x04\n      dup1\n      calldatasize\n      sub\n      dup2\n      add\n      swap1\n      tag_7\n      swap2\n      swap1\n      tag_8\n      jump\t// in\n    tag_7:\n      tag_9\n      jump\t// in\n    tag_6:\n      mload(0x40)\n      tag_10\n      swap2\n      swap1\n      tag_11\n      jump\t// in\n    tag_10:\n      mload(0x40)\n      dup1\n      swap2\n      sub\n      swap1\n      return\n        /* \"contracts/Market.sol\":1403:1715  function removeProduce(address produceAddress) public {... */\n    tag_4:\n      tag_12\n      0x04\n      dup1\n      calldatasize\n      sub\n      dup2\n      add\n      swap1\n      tag_13\n      swap2\n      swap1\n      tag_14\n      jump\t// in\n    tag_13:\n      tag_15\n      jump\t// in\n    tag_12:\n      stop\n        /* \"contracts/Market.sol\":537:578  mapping(address=> bool) public farmerList */\n    tag_5:\n      tag_16\n      0x04\n      dup1\n      calldatasize\n      sub\n      dup2\n      add\n      swap1\n      tag_17\n      swap2\n      swap1\n      tag_14\n      jump\t// in\n    tag_17:\n      tag_18\n      jump\t// in\n    tag_16:\n      mload(0x40)\n      tag_19\n      swap2\n      swap1\n      tag_20\n      jump\t// in\n    tag_19:\n      mload(0x40)\n      dup1\n      swap2\n      sub\n      swap1\n      return\n        /* \"contracts/Market.sol\":669:1397  function addProduce( ... */\n    tag_9:\n        /* \"contracts/Market.sol\":857:880  address produceContract */\n      0x00\n        /* \"contracts/Market.sol\":896:919  address newProduceClone */\n      dup1\n        /* \"contracts/Market.sol\":922:957  Clones.clone(produceImplementation) */\n      tag_22\n        /* \"contracts/Market.sol\":935:956  produceImplementation */\n      immutable(\"0xae31ed75e23e551fde6d038a3aec15ab1ea2fb6c912f84d137c43e0d0ce559b2\")\n        /* \"contracts/Market.sol\":922:934  Clones.clone */\n      tag_23\n        /* \"contracts/Market.sol\":922:957  Clones.clone(produceImplementation) */\n      jump\t// in\n    tag_22:\n        /* \"contracts/Market.sol\":896:957  address newProduceClone = Clones.clone(produceImplementation) */\n      swap1\n      pop\n        /* \"contracts/Market.sol\":979:994  newProduceClone */\n      dup1\n        /* \"contracts/Market.sol\":971:1005  Produce(newProduceClone).initilize */\n      0xffffffffffffffffffffffffffffffffffffffff\n      and\n      0xc8dde807\n        /* \"contracts/Market.sol\":1024:1034  msg.sender */\n      caller\n        /* \"contracts/Market.sol\":1053:1058  _name */\n      dup10\n        /* \"contracts/Market.sol\":1077:1083  _price */\n      dup10\n        /* \"contracts/Market.sol\":1102:1112  _orderSize */\n      dup10\n        /* \"contracts/Market.sol\":1131:1138  _amount */\n      dup10\n        /* \"contracts/Market.sol\":1157:1178  _limitOnPendingOrders */\n      dup10\n        /* \"contracts/Market.sol\":971:1192  Produce(newProduceClone).initilize(... */\n      mload(0x40)\n      dup8\n      0xffffffff\n      and\n      0xe0\n      shl\n      dup2\n      mstore\n      0x04\n      add\n      tag_24\n      swap7\n      swap6\n      swap5\n      swap4\n      swap3\n      swap2\n      swap1\n      tag_25\n      jump\t// in\n    tag_24:\n      0x00\n      mload(0x40)\n      dup1\n      dup4\n      sub\n      dup2\n      0x00\n      dup8\n      dup1\n      extcodesize\n      iszero\n      dup1\n      iszero\n      tag_26\n      jumpi\n      0x00\n      dup1\n      revert\n    tag_26:\n      pop\n      gas\n      call\n      iszero\n      dup1\n      iszero\n      tag_28\n      jumpi\n      returndatasize\n      0x00\n      dup1\n      returndatacopy\n      revert(0x00, returndatasize)\n    tag_28:\n      pop\n      pop\n      pop\n      pop\n        /* \"contracts/Market.sol\":1206:1222  produceAddresses */\n      0x00\n        /* \"contracts/Market.sol\":1236:1251  newProduceClone */\n      dup2\n        /* \"contracts/Market.sol\":1206:1253  produceAddresses.push(address(newProduceClone)) */\n      swap1\n      dup1\n      0x01\n      dup2\n      sload\n      add\n      dup1\n      dup3\n      sstore\n      dup1\n      swap2\n      pop\n      pop\n      0x01\n      swap1\n      sub\n      swap1\n      0x00\n      mstore\n      keccak256(0x00, 0x20)\n      add\n      0x00\n      swap1\n      swap2\n      swap1\n      swap2\n      swap1\n      swap2\n      0x0100\n      exp\n      dup2\n      sload\n      dup2\n      0xffffffffffffffffffffffffffffffffffffffff\n      mul\n      not\n      and\n      swap1\n      dup4\n      0xffffffffffffffffffffffffffffffffffffffff\n      and\n      mul\n      or\n      swap1\n      sstore\n      pop\n        /* \"contracts/Market.sol\":1307:1311  true */\n      0x01\n        /* \"contracts/Market.sol\":1267:1278  produceList */\n      dup1\n        /* \"contracts/Market.sol\":1267:1304  produceList[address(newProduceClone)] */\n      0x00\n        /* \"contracts/Market.sol\":1287:1302  newProduceClone */\n      dup4\n        /* \"contracts/Market.sol\":1267:1304  produceList[address(newProduceClone)] */\n      0xffffffffffffffffffffffffffffffffffffffff\n      and\n      0xffffffffffffffffffffffffffffffffffffffff\n      and\n      dup2\n      mstore\n      0x20\n      add\n      swap1\n      dup2\n      mstore\n      0x20\n      add\n      0x00\n      keccak256\n      0x00\n        /* \"contracts/Market.sol\":1267:1311  produceList[address(newProduceClone)] = true */\n      0x0100\n      exp\n      dup2\n      sload\n      dup2\n      0xff\n      mul\n      not\n      and\n      swap1\n      dup4\n      iszero\n      iszero\n      mul\n      or\n      swap1\n      sstore\n      pop\n        /* \"contracts/Market.sol\":1350:1354  true */\n      0x01\n        /* \"contracts/Market.sol\":1325:1335  farmerList */\n      0x02\n        /* \"contracts/Market.sol\":1325:1347  farmerList[msg.sender] */\n      0x00\n        /* \"contracts/Market.sol\":1336:1346  msg.sender */\n      caller\n        /* \"contracts/Market.sol\":1325:1347  farmerList[msg.sender] */\n      0xffffffffffffffffffffffffffffffffffffffff\n      and\n      0xffffffffffffffffffffffffffffffffffffffff\n      and\n      dup2\n      mstore\n      0x20\n      add\n      swap1\n      dup2\n      mstore\n      0x20\n      add\n      0x00\n      keccak256\n      0x00\n        /* \"contracts/Market.sol\":1325:1354  farmerList[msg.sender] = true */\n      0x0100\n      exp\n      dup2\n      sload\n      dup2\n      0xff\n      mul\n      not\n      and\n      swap1\n      dup4\n      iszero\n      iszero\n      mul\n      or\n      swap1\n      sstore\n      pop\n        /* \"contracts/Market.sol\":1368:1390  return produceContract */\n      pop\n        /* \"contracts/Market.sol\":669:1397  function addProduce( ... */\n      swap6\n      swap5\n      pop\n      pop\n      pop\n      pop\n      pop\n      jump\t// out\n        /* \"contracts/Market.sol\":1403:1715  function removeProduce(address produceAddress) public {... */\n    tag_15:\n        /* \"contracts/Market.sol\":1475:1486  produceList */\n      0x01\n        /* \"contracts/Market.sol\":1475:1502  produceList[produceAddress] */\n      0x00\n        /* \"contracts/Market.sol\":1487:1501  produceAddress */\n      dup3\n        /* \"contracts/Market.sol\":1475:1502  produceList[produceAddress] */\n      0xffffffffffffffffffffffffffffffffffffffff\n      and\n      0xffffffffffffffffffffffffffffffffffffffff\n      and\n      dup2\n      mstore\n      0x20\n      add\n      swap1\n      dup2\n      mstore\n      0x20\n      add\n      0x00\n      keccak256\n      0x00\n      swap1\n      sload\n      swap1\n      0x0100\n      exp\n      swap1\n      div\n      0xff\n      and\n        /* \"contracts/Market.sol\":1467:1547  require(produceList[produceAddress], \"This produce is not listed on the Market\") */\n      tag_31\n      jumpi\n      mload(0x40)\n      0x08c379a000000000000000000000000000000000000000000000000000000000\n      dup2\n      mstore\n      0x04\n      add\n      tag_32\n      swap1\n      tag_33\n      jump\t// in\n    tag_32:\n      mload(0x40)\n      dup1\n      swap2\n      sub\n      swap1\n      revert\n    tag_31:\n        /* \"contracts/Market.sol\":1599:1609  msg.sender */\n      caller\n        /* \"contracts/Market.sol\":1565:1609  Produce(produceAddress).owner()== msg.sender */\n      0xffffffffffffffffffffffffffffffffffffffff\n      and\n        /* \"contracts/Market.sol\":1573:1587  produceAddress */\n      dup2\n        /* \"contracts/Market.sol\":1565:1594  Produce(produceAddress).owner */\n      0xffffffffffffffffffffffffffffffffffffffff\n      and\n      0x8da5cb5b\n        /* \"contracts/Market.sol\":1565:1596  Produce(produceAddress).owner() */\n      mload(0x40)\n      dup2\n      0xffffffff\n      and\n      0xe0\n      shl\n      dup2\n      mstore\n      0x04\n      add\n      0x20\n      mload(0x40)\n      dup1\n      dup4\n      sub\n      dup2\n      dup7\n      gas\n      staticcall\n      iszero\n      dup1\n      iszero\n      tag_35\n      jumpi\n      returndatasize\n      0x00\n      dup1\n      returndatacopy\n      revert(0x00, returndatasize)\n    tag_35:\n      pop\n      pop\n      pop\n      pop\n      mload(0x40)\n      returndatasize\n      not(0x1f)\n      0x1f\n      dup3\n      add\n      and\n      dup3\n      add\n      dup1\n      0x40\n      mstore\n      pop\n      dup2\n      add\n      swap1\n      tag_36\n      swap2\n      swap1\n      tag_37\n      jump\t// in\n    tag_36:\n        /* \"contracts/Market.sol\":1565:1609  Produce(produceAddress).owner()== msg.sender */\n      0xffffffffffffffffffffffffffffffffffffffff\n      and\n      eq\n        /* \"contracts/Market.sol\":1557:1663  require(Produce(produceAddress).owner()== msg.sender, \"Only produce owner can remove produce from Market\") */\n      tag_38\n      jumpi\n      mload(0x40)\n      0x08c379a000000000000000000000000000000000000000000000000000000000\n      dup2\n      mstore\n      0x04\n      add\n      tag_39\n      swap1\n      tag_40\n      jump\t// in\n    tag_39:\n      mload(0x40)\n      dup1\n      swap2\n      sub\n      swap1\n      revert\n    tag_38:\n        /* \"contracts/Market.sol\":1703:1708  false */\n      0x00\n        /* \"contracts/Market.sol\":1673:1684  produceList */\n      0x01\n        /* \"contracts/Market.sol\":1673:1700  produceList[produceAddress] */\n      0x00\n        /* \"contracts/Market.sol\":1685:1699  produceAddress */\n      dup4\n        /* \"contracts/Market.sol\":1673:1700  produceList[produceAddress] */\n      0xffffffffffffffffffffffffffffffffffffffff\n      and\n      0xffffffffffffffffffffffffffffffffffffffff\n      and\n      dup2\n      mstore\n      0x20\n      add\n      swap1\n      dup2\n      mstore\n      0x20\n      add\n      0x00\n      keccak256\n      0x00\n        /* \"contracts/Market.sol\":1673:1708  produceList[produceAddress] = false */\n      0x0100\n      exp\n      dup2\n      sload\n      dup2\n      0xff\n      mul\n      not\n      and\n      swap1\n      dup4\n      iszero\n      iszero\n      mul\n      or\n      swap1\n      sstore\n      pop\n        /* \"contracts/Market.sol\":1403:1715  function removeProduce(address produceAddress) public {... */\n      pop\n      jump\t// out\n        /* \"contracts/Market.sol\":537:578  mapping(address=> bool) public farmerList */\n    tag_18:\n      mstore(0x20, 0x02)\n      dup1\n      0x00\n      mstore\n      keccak256(0x00, 0x40)\n      0x00\n      swap2\n      pop\n      sload\n      swap1\n      0x0100\n      exp\n      swap1\n      div\n      0xff\n      and\n      dup2\n      jump\t// out\n        /* \"@openzeppelin/contracts/proxy/Clones.sol\":973:1732  function clone(address implementation) internal returns (address instance) {... */\n    tag_23:\n        /* \"@openzeppelin/contracts/proxy/Clones.sol\":1030:1046  address instance */\n      0x00\n        /* \"@openzeppelin/contracts/proxy/Clones.sol\":1362:1410  0x3d602d80600a3d3981f3363d3d373d3d3d363d73000000 */\n      0x3d602d80600a3d3981f3363d3d373d3d3d363d73000000\n        /* \"@openzeppelin/contracts/proxy/Clones.sol\":1344:1358  implementation */\n      dup3\n        /* \"@openzeppelin/contracts/proxy/Clones.sol\":1338:1342  0x60 */\n      0x60\n        /* \"@openzeppelin/contracts/proxy/Clones.sol\":1334:1359  shl(0x60, implementation) */\n      shl\n        /* \"@openzeppelin/contracts/proxy/Clones.sol\":1328:1332  0xe8 */\n      0xe8\n        /* \"@openzeppelin/contracts/proxy/Clones.sol\":1324:1360  shr(0xe8, shl(0x60, implementation)) */\n      shr\n        /* \"@openzeppelin/contracts/proxy/Clones.sol\":1321:1411  or(shr(0xe8, shl(0x60, implementation)), 0x3d602d80600a3d3981f3363d3d373d3d3d363d73000000) */\n      or\n        /* \"@openzeppelin/contracts/proxy/Clones.sol\":1315:1319  0x00 */\n      0x00\n        /* \"@openzeppelin/contracts/proxy/Clones.sol\":1308:1412  mstore(0x00, or(shr(0xe8, shl(0x60, implementation)), 0x3d602d80600a3d3981f3363d3d373d3d3d363d73000000)) */\n      mstore\n        /* \"@openzeppelin/contracts/proxy/Clones.sol\":1569:1601  0x5af43d82803e903d91602b57fd5bf3 */\n      0x5af43d82803e903d91602b57fd5bf3\n        /* \"@openzeppelin/contracts/proxy/Clones.sol\":1552:1566  implementation */\n      dup3\n        /* \"@openzeppelin/contracts/proxy/Clones.sol\":1546:1550  0x78 */\n      0x78\n        /* \"@openzeppelin/contracts/proxy/Clones.sol\":1542:1567  shl(0x78, implementation) */\n      shl\n        /* \"@openzeppelin/contracts/proxy/Clones.sol\":1539:1602  or(shl(0x78, implementation), 0x5af43d82803e903d91602b57fd5bf3) */\n      or\n        /* \"@openzeppelin/contracts/proxy/Clones.sol\":1533:1537  0x20 */\n      0x20\n        /* \"@openzeppelin/contracts/proxy/Clones.sol\":1526:1603  mstore(0x20, or(shl(0x78, implementation), 0x5af43d82803e903d91602b57fd5bf3)) */\n      mstore\n        /* \"@openzeppelin/contracts/proxy/Clones.sol\":1644:1648  0x37 */\n      0x37\n        /* \"@openzeppelin/contracts/proxy/Clones.sol\":1638:1642  0x09 */\n      0x09\n        /* \"@openzeppelin/contracts/proxy/Clones.sol\":1635:1636  0 */\n      0x00\n        /* \"@openzeppelin/contracts/proxy/Clones.sol\":1628:1649  create(0, 0x09, 0x37) */\n      create\n        /* \"@openzeppelin/contracts/proxy/Clones.sol\":1616:1649  instance := create(0, 0x09, 0x37) */\n      swap1\n      pop\n        /* \"@openzeppelin/contracts/proxy/Clones.sol\":1696:1697  0 */\n      0x00\n        /* \"@openzeppelin/contracts/proxy/Clones.sol\":1676:1698  instance != address(0) */\n      0xffffffffffffffffffffffffffffffffffffffff\n      and\n        /* \"@openzeppelin/contracts/proxy/Clones.sol\":1676:1684  instance */\n      dup2\n        /* \"@openzeppelin/contracts/proxy/Clones.sol\":1676:1698  instance != address(0) */\n      0xffffffffffffffffffffffffffffffffffffffff\n      and\n      sub\n        /* \"@openzeppelin/contracts/proxy/Clones.sol\":1668:1725  require(instance != address(0), \"ERC1167: create failed\") */\n      tag_42\n      jumpi\n      mload(0x40)\n      0x08c379a000000000000000000000000000000000000000000000000000000000\n      dup2\n      mstore\n      0x04\n      add\n      tag_43\n      swap1\n      tag_44\n      jump\t// in\n    tag_43:\n      mload(0x40)\n      dup1\n      swap2\n      sub\n      swap1\n      revert\n    tag_42:\n        /* \"@openzeppelin/contracts/proxy/Clones.sol\":973:1732  function clone(address implementation) internal returns (address instance) {... */\n      swap2\n      swap1\n      pop\n      jump\t// out\n        /* \"#utility.yul\":88:205   */\n    tag_46:\n        /* \"#utility.yul\":197:198   */\n      0x00\n        /* \"#utility.yul\":194:195   */\n      dup1\n        /* \"#utility.yul\":187:199   */\n      revert\n        /* \"#utility.yul\":334:411   */\n    tag_48:\n        /* \"#utility.yul\":371:378   */\n      0x00\n        /* \"#utility.yul\":400:405   */\n      dup2\n        /* \"#utility.yul\":389:405   */\n      swap1\n      pop\n        /* \"#utility.yul\":334:411   */\n      swap2\n      swap1\n      pop\n      jump\t// out\n        /* \"#utility.yul\":417:539   */\n    tag_49:\n        /* \"#utility.yul\":490:514   */\n      tag_77\n        /* \"#utility.yul\":508:513   */\n      dup2\n        /* \"#utility.yul\":490:514   */\n      tag_48\n      jump\t// in\n    tag_77:\n        /* \"#utility.yul\":483:488   */\n      dup2\n        /* \"#utility.yul\":480:515   */\n      eq\n        /* \"#utility.yul\":470:533   */\n      tag_78\n      jumpi\n        /* \"#utility.yul\":529:530   */\n      0x00\n        /* \"#utility.yul\":526:527   */\n      dup1\n        /* \"#utility.yul\":519:531   */\n      revert\n        /* \"#utility.yul\":470:533   */\n    tag_78:\n        /* \"#utility.yul\":417:539   */\n      pop\n      jump\t// out\n        /* \"#utility.yul\":545:684   */\n    tag_50:\n        /* \"#utility.yul\":591:596   */\n      0x00\n        /* \"#utility.yul\":629:635   */\n      dup2\n        /* \"#utility.yul\":616:636   */\n      calldataload\n        /* \"#utility.yul\":607:636   */\n      swap1\n      pop\n        /* \"#utility.yul\":645:678   */\n      tag_80\n        /* \"#utility.yul\":672:677   */\n      dup2\n        /* \"#utility.yul\":645:678   */\n      tag_49\n      jump\t// in\n    tag_80:\n        /* \"#utility.yul\":545:684   */\n      swap3\n      swap2\n      pop\n      pop\n      jump\t// out\n        /* \"#utility.yul\":690:767   */\n    tag_51:\n        /* \"#utility.yul\":727:734   */\n      0x00\n        /* \"#utility.yul\":756:761   */\n      dup2\n        /* \"#utility.yul\":745:761   */\n      swap1\n      pop\n        /* \"#utility.yul\":690:767   */\n      swap2\n      swap1\n      pop\n      jump\t// out\n        /* \"#utility.yul\":773:895   */\n    tag_52:\n        /* \"#utility.yul\":846:870   */\n      tag_83\n        /* \"#utility.yul\":864:869   */\n      dup2\n        /* \"#utility.yul\":846:870   */\n      tag_51\n      jump\t// in\n    tag_83:\n        /* \"#utility.yul\":839:844   */\n      dup2\n        /* \"#utility.yul\":836:871   */\n      eq\n        /* \"#utility.yul\":826:889   */\n      tag_84\n      jumpi\n        /* \"#utility.yul\":885:886   */\n      0x00\n        /* \"#utility.yul\":882:883   */\n      dup1\n        /* \"#utility.yul\":875:887   */\n      revert\n        /* \"#utility.yul\":826:889   */\n    tag_84:\n        /* \"#utility.yul\":773:895   */\n      pop\n      jump\t// out\n        /* \"#utility.yul\":901:1040   */\n    tag_53:\n        /* \"#utility.yul\":947:952   */\n      0x00\n        /* \"#utility.yul\":985:991   */\n      dup2\n        /* \"#utility.yul\":972:992   */\n      calldataload\n        /* \"#utility.yul\":963:992   */\n      swap1\n      pop\n        /* \"#utility.yul\":1001:1034   */\n      tag_86\n        /* \"#utility.yul\":1028:1033   */\n      dup2\n        /* \"#utility.yul\":1001:1034   */\n      tag_52\n      jump\t// in\n    tag_86:\n        /* \"#utility.yul\":901:1040   */\n      swap3\n      swap2\n      pop\n      pop\n      jump\t// out\n        /* \"#utility.yul\":1046:1957   */\n    tag_8:\n        /* \"#utility.yul\":1141:1147   */\n      0x00\n        /* \"#utility.yul\":1149:1155   */\n      dup1\n        /* \"#utility.yul\":1157:1163   */\n      0x00\n        /* \"#utility.yul\":1165:1171   */\n      dup1\n        /* \"#utility.yul\":1173:1179   */\n      0x00\n        /* \"#utility.yul\":1222:1225   */\n      0xa0\n        /* \"#utility.yul\":1210:1219   */\n      dup7\n        /* \"#utility.yul\":1201:1208   */\n      dup9\n        /* \"#utility.yul\":1197:1220   */\n      sub\n        /* \"#utility.yul\":1193:1226   */\n      slt\n        /* \"#utility.yul\":1190:1310   */\n      iszero\n      tag_88\n      jumpi\n        /* \"#utility.yul\":1229:1308   */\n      tag_89\n      tag_46\n      jump\t// in\n    tag_89:\n        /* \"#utility.yul\":1190:1310   */\n    tag_88:\n        /* \"#utility.yul\":1349:1350   */\n      0x00\n        /* \"#utility.yul\":1374:1427   */\n      tag_90\n        /* \"#utility.yul\":1419:1426   */\n      dup9\n        /* \"#utility.yul\":1410:1416   */\n      dup3\n        /* \"#utility.yul\":1399:1408   */\n      dup10\n        /* \"#utility.yul\":1395:1417   */\n      add\n        /* \"#utility.yul\":1374:1427   */\n      tag_50\n      jump\t// in\n    tag_90:\n        /* \"#utility.yul\":1364:1427   */\n      swap6\n      pop\n        /* \"#utility.yul\":1320:1437   */\n      pop\n        /* \"#utility.yul\":1476:1478   */\n      0x20\n        /* \"#utility.yul\":1502:1555   */\n      tag_91\n        /* \"#utility.yul\":1547:1554   */\n      dup9\n        /* \"#utility.yul\":1538:1544   */\n      dup3\n        /* \"#utility.yul\":1527:1536   */\n      dup10\n        /* \"#utility.yul\":1523:1545   */\n      add\n        /* \"#utility.yul\":1502:1555   */\n      tag_50\n      jump\t// in\n    tag_91:\n        /* \"#utility.yul\":1492:1555   */\n      swap5\n      pop\n        /* \"#utility.yul\":1447:1565   */\n      pop\n        /* \"#utility.yul\":1604:1606   */\n      0x40\n        /* \"#utility.yul\":1630:1683   */\n      tag_92\n        /* \"#utility.yul\":1675:1682   */\n      dup9\n        /* \"#utility.yul\":1666:1672   */\n      dup3\n        /* \"#utility.yul\":1655:1664   */\n      dup10\n        /* \"#utility.yul\":1651:1673   */\n      add\n        /* \"#utility.yul\":1630:1683   */\n      tag_50\n      jump\t// in\n    tag_92:\n        /* \"#utility.yul\":1620:1683   */\n      swap4\n      pop\n        /* \"#utility.yul\":1575:1693   */\n      pop\n        /* \"#utility.yul\":1732:1734   */\n      0x60\n        /* \"#utility.yul\":1758:1811   */\n      tag_93\n        /* \"#utility.yul\":1803:1810   */\n      dup9\n        /* \"#utility.yul\":1794:1800   */\n      dup3\n        /* \"#utility.yul\":1783:1792   */\n      dup10\n        /* \"#utility.yul\":1779:1801   */\n      add\n        /* \"#utility.yul\":1758:1811   */\n      tag_53\n      jump\t// in\n    tag_93:\n        /* \"#utility.yul\":1748:1811   */\n      swap3\n      pop\n        /* \"#utility.yul\":1703:1821   */\n      pop\n        /* \"#utility.yul\":1860:1863   */\n      0x80\n        /* \"#utility.yul\":1887:1940   */\n      tag_94\n        /* \"#utility.yul\":1932:1939   */\n      dup9\n        /* \"#utility.yul\":1923:1929   */\n      dup3\n        /* \"#utility.yul\":1912:1921   */\n      dup10\n        /* \"#utility.yul\":1908:1930   */\n      add\n        /* \"#utility.yul\":1887:1940   */\n      tag_50\n      jump\t// in\n    tag_94:\n        /* \"#utility.yul\":1877:1940   */\n      swap2\n      pop\n        /* \"#utility.yul\":1831:1950   */\n      pop\n        /* \"#utility.yul\":1046:1957   */\n      swap3\n      swap6\n      pop\n      swap3\n      swap6\n      swap1\n      swap4\n      pop\n      jump\t// out\n        /* \"#utility.yul\":1963:2089   */\n    tag_54:\n        /* \"#utility.yul\":2000:2007   */\n      0x00\n        /* \"#utility.yul\":2040:2082   */\n      0xffffffffffffffffffffffffffffffffffffffff\n        /* \"#utility.yul\":2033:2038   */\n      dup3\n        /* \"#utility.yul\":2029:2083   */\n      and\n        /* \"#utility.yul\":2018:2083   */\n      swap1\n      pop\n        /* \"#utility.yul\":1963:2089   */\n      swap2\n      swap1\n      pop\n      jump\t// out\n        /* \"#utility.yul\":2095:2191   */\n    tag_55:\n        /* \"#utility.yul\":2132:2139   */\n      0x00\n        /* \"#utility.yul\":2161:2185   */\n      tag_97\n        /* \"#utility.yul\":2179:2184   */\n      dup3\n        /* \"#utility.yul\":2161:2185   */\n      tag_54\n      jump\t// in\n    tag_97:\n        /* \"#utility.yul\":2150:2185   */\n      swap1\n      pop\n        /* \"#utility.yul\":2095:2191   */\n      swap2\n      swap1\n      pop\n      jump\t// out\n        /* \"#utility.yul\":2197:2315   */\n    tag_56:\n        /* \"#utility.yul\":2284:2308   */\n      tag_99\n        /* \"#utility.yul\":2302:2307   */\n      dup2\n        /* \"#utility.yul\":2284:2308   */\n      tag_55\n      jump\t// in\n    tag_99:\n        /* \"#utility.yul\":2279:2282   */\n      dup3\n        /* \"#utility.yul\":2272:2309   */\n      mstore\n        /* \"#utility.yul\":2197:2315   */\n      pop\n      pop\n      jump\t// out\n        /* \"#utility.yul\":2321:2543   */\n    tag_11:\n        /* \"#utility.yul\":2414:2418   */\n      0x00\n        /* \"#utility.yul\":2452:2454   */\n      0x20\n        /* \"#utility.yul\":2441:2450   */\n      dup3\n        /* \"#utility.yul\":2437:2455   */\n      add\n        /* \"#utility.yul\":2429:2455   */\n      swap1\n      pop\n        /* \"#utility.yul\":2465:2536   */\n      tag_101\n        /* \"#utility.yul\":2533:2534   */\n      0x00\n        /* \"#utility.yul\":2522:2531   */\n      dup4\n        /* \"#utility.yul\":2518:2535   */\n      add\n        /* \"#utility.yul\":2509:2515   */\n      dup5\n        /* \"#utility.yul\":2465:2536   */\n      tag_56\n      jump\t// in\n    tag_101:\n        /* \"#utility.yul\":2321:2543   */\n      swap3\n      swap2\n      pop\n      pop\n      jump\t// out\n        /* \"#utility.yul\":2549:2671   */\n    tag_57:\n        /* \"#utility.yul\":2622:2646   */\n      tag_103\n        /* \"#utility.yul\":2640:2645   */\n      dup2\n        /* \"#utility.yul\":2622:2646   */\n      tag_55\n      jump\t// in\n    tag_103:\n        /* \"#utility.yul\":2615:2620   */\n      dup2\n        /* \"#utility.yul\":2612:2647   */\n      eq\n        /* \"#utility.yul\":2602:2665   */\n      tag_104\n      jumpi\n        /* \"#utility.yul\":2661:2662   */\n      0x00\n        /* \"#utility.yul\":2658:2659   */\n      dup1\n        /* \"#utility.yul\":2651:2663   */\n      revert\n        /* \"#utility.yul\":2602:2665   */\n    tag_104:\n        /* \"#utility.yul\":2549:2671   */\n      pop\n      jump\t// out\n        /* \"#utility.yul\":2677:2816   */\n    tag_58:\n        /* \"#utility.yul\":2723:2728   */\n      0x00\n        /* \"#utility.yul\":2761:2767   */\n      dup2\n        /* \"#utility.yul\":2748:2768   */\n      calldataload\n        /* \"#utility.yul\":2739:2768   */\n      swap1\n      pop\n        /* \"#utility.yul\":2777:2810   */\n      tag_106\n        /* \"#utility.yul\":2804:2809   */\n      dup2\n        /* \"#utility.yul\":2777:2810   */\n      tag_57\n      jump\t// in\n    tag_106:\n        /* \"#utility.yul\":2677:2816   */\n      swap3\n      swap2\n      pop\n      pop\n      jump\t// out\n        /* \"#utility.yul\":2822:3151   */\n    tag_14:\n        /* \"#utility.yul\":2881:2887   */\n      0x00\n        /* \"#utility.yul\":2930:2932   */\n      0x20\n        /* \"#utility.yul\":2918:2927   */\n      dup3\n        /* \"#utility.yul\":2909:2916   */\n      dup5\n        /* \"#utility.yul\":2905:2928   */\n      sub\n        /* \"#utility.yul\":2901:2933   */\n      slt\n        /* \"#utility.yul\":2898:3017   */\n      iszero\n      tag_108\n      jumpi\n        /* \"#utility.yul\":2936:3015   */\n      tag_109\n      tag_46\n      jump\t// in\n    tag_109:\n        /* \"#utility.yul\":2898:3017   */\n    tag_108:\n        /* \"#utility.yul\":3056:3057   */\n      0x00\n        /* \"#utility.yul\":3081:3134   */\n      tag_110\n        /* \"#utility.yul\":3126:3133   */\n      dup5\n        /* \"#utility.yul\":3117:3123   */\n      dup3\n        /* \"#utility.yul\":3106:3115   */\n      dup6\n        /* \"#utility.yul\":3102:3124   */\n      add\n        /* \"#utility.yul\":3081:3134   */\n      tag_58\n      jump\t// in\n    tag_110:\n        /* \"#utility.yul\":3071:3134   */\n      swap2\n      pop\n        /* \"#utility.yul\":3027:3144   */\n      pop\n        /* \"#utility.yul\":2822:3151   */\n      swap3\n      swap2\n      pop\n      pop\n      jump\t// out\n        /* \"#utility.yul\":3157:3247   */\n    tag_59:\n        /* \"#utility.yul\":3191:3198   */\n      0x00\n        /* \"#utility.yul\":3234:3239   */\n      dup2\n        /* \"#utility.yul\":3227:3240   */\n      iszero\n        /* \"#utility.yul\":3220:3241   */\n      iszero\n        /* \"#utility.yul\":3209:3241   */\n      swap1\n      pop\n        /* \"#utility.yul\":3157:3247   */\n      swap2\n      swap1\n      pop\n      jump\t// out\n        /* \"#utility.yul\":3253:3362   */\n    tag_60:\n        /* \"#utility.yul\":3334:3355   */\n      tag_113\n        /* \"#utility.yul\":3349:3354   */\n      dup2\n        /* \"#utility.yul\":3334:3355   */\n      tag_59\n      jump\t// in\n    tag_113:\n        /* \"#utility.yul\":3329:3332   */\n      dup3\n        /* \"#utility.yul\":3322:3356   */\n      mstore\n        /* \"#utility.yul\":3253:3362   */\n      pop\n      pop\n      jump\t// out\n        /* \"#utility.yul\":3368:3578   */\n    tag_20:\n        /* \"#utility.yul\":3455:3459   */\n      0x00\n        /* \"#utility.yul\":3493:3495   */\n      0x20\n        /* \"#utility.yul\":3482:3491   */\n      dup3\n        /* \"#utility.yul\":3478:3496   */\n      add\n        /* \"#utility.yul\":3470:3496   */\n      swap1\n      pop\n        /* \"#utility.yul\":3506:3571   */\n      tag_115\n        /* \"#utility.yul\":3568:3569   */\n      0x00\n        /* \"#utility.yul\":3557:3566   */\n      dup4\n        /* \"#utility.yul\":3553:3570   */\n      add\n        /* \"#utility.yul\":3544:3550   */\n      dup5\n        /* \"#utility.yul\":3506:3571   */\n      tag_60\n      jump\t// in\n    tag_115:\n        /* \"#utility.yul\":3368:3578   */\n      swap3\n      swap2\n      pop\n      pop\n      jump\t// out\n        /* \"#utility.yul\":3584:3702   */\n    tag_61:\n        /* \"#utility.yul\":3671:3695   */\n      tag_117\n        /* \"#utility.yul\":3689:3694   */\n      dup2\n        /* \"#utility.yul\":3671:3695   */\n      tag_48\n      jump\t// in\n    tag_117:\n        /* \"#utility.yul\":3666:3669   */\n      dup3\n        /* \"#utility.yul\":3659:3696   */\n      mstore\n        /* \"#utility.yul\":3584:3702   */\n      pop\n      pop\n      jump\t// out\n        /* \"#utility.yul\":3708:3826   */\n    tag_62:\n        /* \"#utility.yul\":3795:3819   */\n      tag_119\n        /* \"#utility.yul\":3813:3818   */\n      dup2\n        /* \"#utility.yul\":3795:3819   */\n      tag_51\n      jump\t// in\n    tag_119:\n        /* \"#utility.yul\":3790:3793   */\n      dup3\n        /* \"#utility.yul\":3783:3820   */\n      mstore\n        /* \"#utility.yul\":3708:3826   */\n      pop\n      pop\n      jump\t// out\n        /* \"#utility.yul\":3832:4607   */\n    tag_25:\n        /* \"#utility.yul\":4065:4069   */\n      0x00\n        /* \"#utility.yul\":4103:4106   */\n      0xc0\n        /* \"#utility.yul\":4092:4101   */\n      dup3\n        /* \"#utility.yul\":4088:4107   */\n      add\n        /* \"#utility.yul\":4080:4107   */\n      swap1\n      pop\n        /* \"#utility.yul\":4117:4188   */\n      tag_121\n        /* \"#utility.yul\":4185:4186   */\n      0x00\n        /* \"#utility.yul\":4174:4183   */\n      dup4\n        /* \"#utility.yul\":4170:4187   */\n      add\n        /* \"#utility.yul\":4161:4167   */\n      dup10\n        /* \"#utility.yul\":4117:4188   */\n      tag_56\n      jump\t// in\n    tag_121:\n        /* \"#utility.yul\":4198:4270   */\n      tag_122\n        /* \"#utility.yul\":4266:4268   */\n      0x20\n        /* \"#utility.yul\":4255:4264   */\n      dup4\n        /* \"#utility.yul\":4251:4269   */\n      add\n        /* \"#utility.yul\":4242:4248   */\n      dup9\n        /* \"#utility.yul\":4198:4270   */\n      tag_61\n      jump\t// in\n    tag_122:\n        /* \"#utility.yul\":4280:4352   */\n      tag_123\n        /* \"#utility.yul\":4348:4350   */\n      0x40\n        /* \"#utility.yul\":4337:4346   */\n      dup4\n        /* \"#utility.yul\":4333:4351   */\n      add\n        /* \"#utility.yul\":4324:4330   */\n      dup8\n        /* \"#utility.yul\":4280:4352   */\n      tag_61\n      jump\t// in\n    tag_123:\n        /* \"#utility.yul\":4362:4434   */\n      tag_124\n        /* \"#utility.yul\":4430:4432   */\n      0x60\n        /* \"#utility.yul\":4419:4428   */\n      dup4\n        /* \"#utility.yul\":4415:4433   */\n      add\n        /* \"#utility.yul\":4406:4412   */\n      dup7\n        /* \"#utility.yul\":4362:4434   */\n      tag_61\n      jump\t// in\n    tag_124:\n        /* \"#utility.yul\":4444:4517   */\n      tag_125\n        /* \"#utility.yul\":4512:4515   */\n      0x80\n        /* \"#utility.yul\":4501:4510   */\n      dup4\n        /* \"#utility.yul\":4497:4516   */\n      add\n        /* \"#utility.yul\":4488:4494   */\n      dup6\n        /* \"#utility.yul\":4444:4517   */\n      tag_62\n      jump\t// in\n    tag_125:\n        /* \"#utility.yul\":4527:4600   */\n      tag_126\n        /* \"#utility.yul\":4595:4598   */\n      0xa0\n        /* \"#utility.yul\":4584:4593   */\n      dup4\n        /* \"#utility.yul\":4580:4599   */\n      add\n        /* \"#utility.yul\":4571:4577   */\n      dup5\n        /* \"#utility.yul\":4527:4600   */\n      tag_61\n      jump\t// in\n    tag_126:\n        /* \"#utility.yul\":3832:4607   */\n      swap8\n      swap7\n      pop\n      pop\n      pop\n      pop\n      pop\n      pop\n      pop\n      jump\t// out\n        /* \"#utility.yul\":4613:4782   */\n    tag_63:\n        /* \"#utility.yul\":4697:4708   */\n      0x00\n        /* \"#utility.yul\":4731:4737   */\n      dup3\n        /* \"#utility.yul\":4726:4729   */\n      dup3\n        /* \"#utility.yul\":4719:4738   */\n      mstore\n        /* \"#utility.yul\":4771:4775   */\n      0x20\n        /* \"#utility.yul\":4766:4769   */\n      dup3\n        /* \"#utility.yul\":4762:4776   */\n      add\n        /* \"#utility.yul\":4747:4776   */\n      swap1\n      pop\n        /* \"#utility.yul\":4613:4782   */\n      swap3\n      swap2\n      pop\n      pop\n      jump\t// out\n        /* \"#utility.yul\":4788:5015   */\n    tag_64:\n        /* \"#utility.yul\":4928:4962   */\n      0x546869732070726f64756365206973206e6f74206c6973746564206f6e207468\n        /* \"#utility.yul\":4924:4925   */\n      0x00\n        /* \"#utility.yul\":4916:4922   */\n      dup3\n        /* \"#utility.yul\":4912:4926   */\n      add\n        /* \"#utility.yul\":4905:4963   */\n      mstore\n        /* \"#utility.yul\":4997:5007   */\n      0x65204d61726b6574000000000000000000000000000000000000000000000000\n        /* \"#utility.yul\":4992:4994   */\n      0x20\n        /* \"#utility.yul\":4984:4990   */\n      dup3\n        /* \"#utility.yul\":4980:4995   */\n      add\n        /* \"#utility.yul\":4973:5008   */\n      mstore\n        /* \"#utility.yul\":4788:5015   */\n      pop\n      jump\t// out\n        /* \"#utility.yul\":5021:5387   */\n    tag_65:\n        /* \"#utility.yul\":5163:5166   */\n      0x00\n        /* \"#utility.yul\":5184:5251   */\n      tag_130\n        /* \"#utility.yul\":5248:5250   */\n      0x28\n        /* \"#utility.yul\":5243:5246   */\n      dup4\n        /* \"#utility.yul\":5184:5251   */\n      tag_63\n      jump\t// in\n    tag_130:\n        /* \"#utility.yul\":5177:5251   */\n      swap2\n      pop\n        /* \"#utility.yul\":5260:5353   */\n      tag_131\n        /* \"#utility.yul\":5349:5352   */\n      dup3\n        /* \"#utility.yul\":5260:5353   */\n      tag_64\n      jump\t// in\n    tag_131:\n        /* \"#utility.yul\":5378:5380   */\n      0x40\n        /* \"#utility.yul\":5373:5376   */\n      dup3\n        /* \"#utility.yul\":5369:5381   */\n      add\n        /* \"#utility.yul\":5362:5381   */\n      swap1\n      pop\n        /* \"#utility.yul\":5021:5387   */\n      swap2\n      swap1\n      pop\n      jump\t// out\n        /* \"#utility.yul\":5393:5812   */\n    tag_33:\n        /* \"#utility.yul\":5559:5563   */\n      0x00\n        /* \"#utility.yul\":5597:5599   */\n      0x20\n        /* \"#utility.yul\":5586:5595   */\n      dup3\n        /* \"#utility.yul\":5582:5600   */\n      add\n        /* \"#utility.yul\":5574:5600   */\n      swap1\n      pop\n        /* \"#utility.yul\":5646:5655   */\n      dup2\n        /* \"#utility.yul\":5640:5644   */\n      dup2\n        /* \"#utility.yul\":5636:5656   */\n      sub\n        /* \"#utility.yul\":5632:5633   */\n      0x00\n        /* \"#utility.yul\":5621:5630   */\n      dup4\n        /* \"#utility.yul\":5617:5634   */\n      add\n        /* \"#utility.yul\":5610:5657   */\n      mstore\n        /* \"#utility.yul\":5674:5805   */\n      tag_133\n        /* \"#utility.yul\":5800:5804   */\n      dup2\n        /* \"#utility.yul\":5674:5805   */\n      tag_65\n      jump\t// in\n    tag_133:\n        /* \"#utility.yul\":5666:5805   */\n      swap1\n      pop\n        /* \"#utility.yul\":5393:5812   */\n      swap2\n      swap1\n      pop\n      jump\t// out\n        /* \"#utility.yul\":5818:5961   */\n    tag_66:\n        /* \"#utility.yul\":5875:5880   */\n      0x00\n        /* \"#utility.yul\":5906:5912   */\n      dup2\n        /* \"#utility.yul\":5900:5913   */\n      mload\n        /* \"#utility.yul\":5891:5913   */\n      swap1\n      pop\n        /* \"#utility.yul\":5922:5955   */\n      tag_135\n        /* \"#utility.yul\":5949:5954   */\n      dup2\n        /* \"#utility.yul\":5922:5955   */\n      tag_57\n      jump\t// in\n    tag_135:\n        /* \"#utility.yul\":5818:5961   */\n      swap3\n      swap2\n      pop\n      pop\n      jump\t// out\n        /* \"#utility.yul\":5967:6318   */\n    tag_37:\n        /* \"#utility.yul\":6037:6043   */\n      0x00\n        /* \"#utility.yul\":6086:6088   */\n      0x20\n        /* \"#utility.yul\":6074:6083   */\n      dup3\n        /* \"#utility.yul\":6065:6072   */\n      dup5\n        /* \"#utility.yul\":6061:6084   */\n      sub\n        /* \"#utility.yul\":6057:6089   */\n      slt\n        /* \"#utility.yul\":6054:6173   */\n      iszero\n      tag_137\n      jumpi\n        /* \"#utility.yul\":6092:6171   */\n      tag_138\n      tag_46\n      jump\t// in\n    tag_138:\n        /* \"#utility.yul\":6054:6173   */\n    tag_137:\n        /* \"#utility.yul\":6212:6213   */\n      0x00\n        /* \"#utility.yul\":6237:6301   */\n      tag_139\n        /* \"#utility.yul\":6293:6300   */\n      dup5\n        /* \"#utility.yul\":6284:6290   */\n      dup3\n        /* \"#utility.yul\":6273:6282   */\n      dup6\n        /* \"#utility.yul\":6269:6291   */\n      add\n        /* \"#utility.yul\":6237:6301   */\n      tag_66\n      jump\t// in\n    tag_139:\n        /* \"#utility.yul\":6227:6301   */\n      swap2\n      pop\n        /* \"#utility.yul\":6183:6311   */\n      pop\n        /* \"#utility.yul\":5967:6318   */\n      swap3\n      swap2\n      pop\n      pop\n      jump\t// out\n        /* \"#utility.yul\":6324:6560   */\n    tag_67:\n        /* \"#utility.yul\":6464:6498   */\n      0x4f6e6c792070726f64756365206f776e65722063616e2072656d6f7665207072\n        /* \"#utility.yul\":6460:6461   */\n      0x00\n        /* \"#utility.yul\":6452:6458   */\n      dup3\n        /* \"#utility.yul\":6448:6462   */\n      add\n        /* \"#utility.yul\":6441:6499   */\n      mstore\n        /* \"#utility.yul\":6533:6552   */\n      0x6f647563652066726f6d204d61726b6574000000000000000000000000000000\n        /* \"#utility.yul\":6528:6530   */\n      0x20\n        /* \"#utility.yul\":6520:6526   */\n      dup3\n        /* \"#utility.yul\":6516:6531   */\n      add\n        /* \"#utility.yul\":6509:6553   */\n      mstore\n        /* \"#utility.yul\":6324:6560   */\n      pop\n      jump\t// out\n        /* \"#utility.yul\":6566:6932   */\n    tag_68:\n        /* \"#utility.yul\":6708:6711   */\n      0x00\n        /* \"#utility.yul\":6729:6796   */\n      tag_142\n        /* \"#utility.yul\":6793:6795   */\n      0x31\n        /* \"#utility.yul\":6788:6791   */\n      dup4\n        /* \"#utility.yul\":6729:6796   */\n      tag_63\n      jump\t// in\n    tag_142:\n        /* \"#utility.yul\":6722:6796   */\n      swap2\n      pop\n        /* \"#utility.yul\":6805:6898   */\n      tag_143\n        /* \"#utility.yul\":6894:6897   */\n      dup3\n        /* \"#utility.yul\":6805:6898   */\n      tag_67\n      jump\t// in\n    tag_143:\n        /* \"#utility.yul\":6923:6925   */\n      0x40\n        /* \"#utility.yul\":6918:6921   */\n      dup3\n        /* \"#utility.yul\":6914:6926   */\n      add\n        /* \"#utility.yul\":6907:6926   */\n      swap1\n      pop\n        /* \"#utility.yul\":6566:6932   */\n      swap2\n      swap1\n      pop\n      jump\t// out\n        /* \"#utility.yul\":6938:7357   */\n    tag_40:\n        /* \"#utility.yul\":7104:7108   */\n      0x00\n        /* \"#utility.yul\":7142:7144   */\n      0x20\n        /* \"#utility.yul\":7131:7140   */\n      dup3\n        /* \"#utility.yul\":7127:7145   */\n      add\n        /* \"#utility.yul\":7119:7145   */\n      swap1\n      pop\n        /* \"#utility.yul\":7191:7200   */\n      dup2\n        /* \"#utility.yul\":7185:7189   */\n      dup2\n        /* \"#utility.yul\":7181:7201   */\n      sub\n        /* \"#utility.yul\":7177:7178   */\n      0x00\n        /* \"#utility.yul\":7166:7175   */\n      dup4\n        /* \"#utility.yul\":7162:7179   */\n      add\n        /* \"#utility.yul\":7155:7202   */\n      mstore\n        /* \"#utility.yul\":7219:7350   */\n      tag_145\n        /* \"#utility.yul\":7345:7349   */\n      dup2\n        /* \"#utility.yul\":7219:7350   */\n      tag_68\n      jump\t// in\n    tag_145:\n        /* \"#utility.yul\":7211:7350   */\n      swap1\n      pop\n        /* \"#utility.yul\":6938:7357   */\n      swap2\n      swap1\n      pop\n      jump\t// out\n        /* \"#utility.yul\":7363:7535   */\n    tag_69:\n        /* \"#utility.yul\":7503:7527   */\n      0x455243313136373a20637265617465206661696c656400000000000000000000\n        /* \"#utility.yul\":7499:7500   */\n      0x00\n        /* \"#utility.yul\":7491:7497   */\n      dup3\n        /* \"#utility.yul\":7487:7501   */\n      add\n        /* \"#utility.yul\":7480:7528   */\n      mstore\n        /* \"#utility.yul\":7363:7535   */\n      pop\n      jump\t// out\n        /* \"#utility.yul\":7541:7907   */\n    tag_70:\n        /* \"#utility.yul\":7683:7686   */\n      0x00\n        /* \"#utility.yul\":7704:7771   */\n      tag_148\n        /* \"#utility.yul\":7768:7770   */\n      0x16\n        /* \"#utility.yul\":7763:7766   */\n      dup4\n        /* \"#utility.yul\":7704:7771   */\n      tag_63\n      jump\t// in\n    tag_148:\n        /* \"#utility.yul\":7697:7771   */\n      swap2\n      pop\n        /* \"#utility.yul\":7780:7873   */\n      tag_149\n        /* \"#utility.yul\":7869:7872   */\n      dup3\n        /* \"#utility.yul\":7780:7873   */\n      tag_69\n      jump\t// in\n    tag_149:\n        /* \"#utility.yul\":7898:7900   */\n      0x20\n        /* \"#utility.yul\":7893:7896   */\n      dup3\n        /* \"#utility.yul\":7889:7901   */\n      add\n        /* \"#utility.yul\":7882:7901   */\n      swap1\n      pop\n        /* \"#utility.yul\":7541:7907   */\n      swap2\n      swap1\n      pop\n      jump\t// out\n        /* \"#utility.yul\":7913:8332   */\n    tag_44:\n        /* \"#utility.yul\":8079:8083   */\n      0x00\n        /* \"#utility.yul\":8117:8119   */\n      0x20\n        /* \"#utility.yul\":8106:8115   */\n      dup3\n        /* \"#utility.yul\":8102:8120   */\n      add\n        /* \"#utility.yul\":8094:8120   */\n      swap1\n      pop\n        /* \"#utility.yul\":8166:8175   */\n      dup2\n        /* \"#utility.yul\":8160:8164   */\n      dup2\n        /* \"#utility.yul\":8156:8176   */\n      sub\n        /* \"#utility.yul\":8152:8153   */\n      0x00\n        /* \"#utility.yul\":8141:8150   */\n      dup4\n        /* \"#utility.yul\":8137:8154   */\n      add\n        /* \"#utility.yul\":8130:8177   */\n      mstore\n        /* \"#utility.yul\":8194:8325   */\n      tag_151\n        /* \"#utility.yul\":8320:8324   */\n      dup2\n        /* \"#utility.yul\":8194:8325   */\n      tag_70\n      jump\t// in\n    tag_151:\n        /* \"#utility.yul\":8186:8325   */\n      swap1\n      pop\n        /* \"#utility.yul\":7913:8332   */\n      swap2\n      swap1\n      pop\n      jump\t// out\n\n    auxdata: 0xa26469706673582212202778a2f27a8c6598d56143b0a21d2299f3f4a012d90c224c95f6a3495595b1da64736f6c63430008110033\n}\n\nsub_1: assembly {\n        /* \"contracts/Produce.sol\":140:1856  contract Produce is Ownable{... */\n      mstore(0x40, 0x80)\n        /* \"contracts/Produce.sol\":499:557  constructor() {... */\n      callvalue\n      dup1\n      iszero\n      tag_1\n      jumpi\n      0x00\n      dup1\n      revert\n    tag_1:\n      pop\n        /* \"@openzeppelin/contracts/access/Ownable.sol\":936:968  _transferOwnership(_msgSender()) */\n      tag_5\n        /* \"@openzeppelin/contracts/access/Ownable.sol\":955:967  _msgSender() */\n      tag_6\n        /* \"@openzeppelin/contracts/access/Ownable.sol\":955:965  _msgSender */\n      shl(0x20, tag_7)\n        /* \"@openzeppelin/contracts/access/Ownable.sol\":955:967  _msgSender() */\n      0x20\n      shr\n      jump\t// in\n    tag_6:\n        /* \"@openzeppelin/contracts/access/Ownable.sol\":936:954  _transferOwnership */\n      shl(0x20, tag_8)\n        /* \"@openzeppelin/contracts/access/Ownable.sol\":936:968  _transferOwnership(_msgSender()) */\n      0x20\n      shr\n      jump\t// in\n    tag_5:\n        /* \"contracts/Produce.sol\":531:550  State.UNINITIALIZED */\n      0x00\n        /* \"contracts/Produce.sol\":523:528  state */\n      0x09\n      0x00\n        /* \"contracts/Produce.sol\":523:550  state = State.UNINITIALIZED */\n      0x0100\n      exp\n      dup2\n      sload\n      dup2\n      0xff\n      mul\n      not\n      and\n      swap1\n      dup4\n      0x01\n      dup2\n      gt\n      iszero\n      tag_10\n      jumpi\n      tag_11\n      tag_12\n      jump\t// in\n    tag_11:\n    tag_10:\n      mul\n      or\n      swap1\n      sstore\n      pop\n        /* \"contracts/Produce.sol\":140:1856  contract Produce is Ownable{... */\n      jump(tag_13)\n        /* \"@openzeppelin/contracts/utils/Context.sol\":640:736  function _msgSender() internal view virtual returns (address) {... */\n    tag_7:\n        /* \"@openzeppelin/contracts/utils/Context.sol\":693:700  address */\n      0x00\n        /* \"@openzeppelin/contracts/utils/Context.sol\":719:729  msg.sender */\n      caller\n        /* \"@openzeppelin/contracts/utils/Context.sol\":712:729  return msg.sender */\n      swap1\n      pop\n        /* \"@openzeppelin/contracts/utils/Context.sol\":640:736  function _msgSender() internal view virtual returns (address) {... */\n      swap1\n      jump\t// out\n        /* \"@openzeppelin/contracts/access/Ownable.sol\":2433:2620  function _transferOwnership(address newOwner) internal virtual {... */\n    tag_8:\n        /* \"@openzeppelin/contracts/access/Ownable.sol\":2506:2522  address oldOwner */\n      0x00\n        /* \"@openzeppelin/contracts/access/Ownable.sol\":2525:2531  _owner */\n      dup1\n      0x00\n      swap1\n      sload\n      swap1\n      0x0100\n      exp\n      swap1\n      div\n      0xffffffffffffffffffffffffffffffffffffffff\n      and\n        /* \"@openzeppelin/contracts/access/Ownable.sol\":2506:2531  address oldOwner = _owner */\n      swap1\n      pop\n        /* \"@openzeppelin/contracts/access/Ownable.sol\":2550:2558  newOwner */\n      dup2\n        /* \"@openzeppelin/contracts/access/Ownable.sol\":2541:2547  _owner */\n      0x00\n      dup1\n        /* \"@openzeppelin/contracts/access/Ownable.sol\":2541:2558  _owner = newOwner */\n      0x0100\n      exp\n      dup2\n      sload\n      dup2\n      0xffffffffffffffffffffffffffffffffffffffff\n      mul\n      not\n      and\n      swap1\n      dup4\n      0xffffffffffffffffffffffffffffffffffffffff\n      and\n      mul\n      or\n      swap1\n      sstore\n      pop\n        /* \"@openzeppelin/contracts/access/Ownable.sol\":2604:2612  newOwner */\n      dup2\n        /* \"@openzeppelin/contracts/access/Ownable.sol\":2573:2613  OwnershipTransferred(oldOwner, newOwner) */\n      0xffffffffffffffffffffffffffffffffffffffff\n      and\n        /* \"@openzeppelin/contracts/access/Ownable.sol\":2594:2602  oldOwner */\n      dup2\n        /* \"@openzeppelin/contracts/access/Ownable.sol\":2573:2613  OwnershipTransferred(oldOwner, newOwner) */\n      0xffffffffffffffffffffffffffffffffffffffff\n      and\n      0x8be0079c531659141344cd1fd0a4f28419497f9722a3daafe3b4186f6b6457e0\n      mload(0x40)\n      mload(0x40)\n      dup1\n      swap2\n      sub\n      swap1\n      log3\n        /* \"@openzeppelin/contracts/access/Ownable.sol\":2496:2620  {... */\n      pop\n        /* \"@openzeppelin/contracts/access/Ownable.sol\":2433:2620  function _transferOwnership(address newOwner) internal virtual {... */\n      pop\n      jump\t// out\n        /* \"#utility.yul\":7:187   */\n    tag_12:\n        /* \"#utility.yul\":55:132   */\n      0x4e487b7100000000000000000000000000000000000000000000000000000000\n        /* \"#utility.yul\":52:53   */\n      0x00\n        /* \"#utility.yul\":45:133   */\n      mstore\n        /* \"#utility.yul\":152:156   */\n      0x21\n        /* \"#utility.yul\":149:150   */\n      0x04\n        /* \"#utility.yul\":142:157   */\n      mstore\n        /* \"#utility.yul\":176:180   */\n      0x24\n        /* \"#utility.yul\":173:174   */\n      0x00\n        /* \"#utility.yul\":166:181   */\n      revert\n        /* \"contracts/Produce.sol\":140:1856  contract Produce is Ownable{... */\n    tag_13:\n      dataSize(sub_0)\n      dup1\n      dataOffset(sub_0)\n      0x00\n      codecopy\n      0x00\n      return\n    stop\n\n    sub_0: assembly {\n            /* \"contracts/Produce.sol\":140:1856  contract Produce is Ownable{... */\n          mstore(0x40, 0x80)\n          jumpi(tag_1, lt(calldatasize, 0x04))\n          shr(0xe0, calldataload(0x00))\n          dup1\n          0xa035b1fe\n          gt\n          tag_15\n          jumpi\n          dup1\n          0xd32dacc1\n          gt\n          tag_16\n          jumpi\n          dup1\n          0xd32dacc1\n          eq\n          tag_11\n          jumpi\n          dup1\n          0xd811fcf0\n          eq\n          tag_12\n          jumpi\n          dup1\n          0xf2fde38b\n          eq\n          tag_13\n          jumpi\n          dup1\n          0xf5c609e0\n          eq\n          tag_14\n          jumpi\n          jump(tag_1)\n        tag_16:\n          dup1\n          0xa035b1fe\n          eq\n          tag_8\n          jumpi\n          dup1\n          0xaa8c217c\n          eq\n          tag_9\n          jumpi\n          dup1\n          0xc8dde807\n          eq\n          tag_10\n          jumpi\n          jump(tag_1)\n        tag_15:\n          dup1\n          0x06fdde03\n          eq\n          tag_2\n          jumpi\n          dup1\n          0x530d124e\n          eq\n          tag_3\n          jumpi\n          dup1\n          0x6d86b8a5\n          eq\n          tag_4\n          jumpi\n          dup1\n          0x715018a6\n          eq\n          tag_5\n          jumpi\n          dup1\n          0x80f55605\n          eq\n          tag_6\n          jumpi\n          dup1\n          0x8da5cb5b\n          eq\n          tag_7\n          jumpi\n        tag_1:\n          0x00\n          dup1\n          revert\n            /* \"contracts/Produce.sol\":299:318  uint256 public name */\n        tag_2:\n          callvalue\n          dup1\n          iszero\n          tag_17\n          jumpi\n          0x00\n          dup1\n          revert\n        tag_17:\n          pop\n          tag_18\n          tag_19\n          jump\t// in\n        tag_18:\n          mload(0x40)\n          tag_20\n          swap2\n          swap1\n          tag_21\n          jump\t// in\n        tag_20:\n          mload(0x40)\n          dup1\n          swap2\n          sub\n          swap1\n          return\n            /* \"contracts/Produce.sol\":257:292  uint256 public limitOnPendingOrders */\n        tag_3:\n          callvalue\n          dup1\n          iszero\n          tag_22\n          jumpi\n          0x00\n          dup1\n          revert\n        tag_22:\n          pop\n          tag_23\n          tag_24\n          jump\t// in\n        tag_23:\n          mload(0x40)\n          tag_25\n          swap2\n          swap1\n          tag_21\n          jump\t// in\n        tag_25:\n          mload(0x40)\n          dup1\n          swap2\n          sub\n          swap1\n          return\n            /* \"contracts/Produce.sol\":350:374  uint256 public orderSize */\n        tag_4:\n          callvalue\n          dup1\n          iszero\n          tag_26\n          jumpi\n          0x00\n          dup1\n          revert\n        tag_26:\n          pop\n          tag_27\n          tag_28\n          jump\t// in\n        tag_27:\n          mload(0x40)\n          tag_29\n          swap2\n          swap1\n          tag_21\n          jump\t// in\n        tag_29:\n          mload(0x40)\n          dup1\n          swap2\n          sub\n          swap1\n          return\n            /* \"@openzeppelin/contracts/access/Ownable.sol\":1831:1932  function renounceOwnership() public virtual onlyOwner {... */\n        tag_5:\n          callvalue\n          dup1\n          iszero\n          tag_30\n          jumpi\n          0x00\n          dup1\n          revert\n        tag_30:\n          pop\n          tag_31\n          tag_32\n          jump\t// in\n        tag_31:\n          stop\n            /* \"contracts/Produce.sol\":200:221  address public market */\n        tag_6:\n          callvalue\n          dup1\n          iszero\n          tag_33\n          jumpi\n          0x00\n          dup1\n          revert\n        tag_33:\n          pop\n          tag_34\n          tag_35\n          jump\t// in\n        tag_34:\n          mload(0x40)\n          tag_36\n          swap2\n          swap1\n          tag_37\n          jump\t// in\n        tag_36:\n          mload(0x40)\n          dup1\n          swap2\n          sub\n          swap1\n          return\n            /* \"@openzeppelin/contracts/access/Ownable.sol\":1201:1286  function owner() public view virtual returns (address) {... */\n        tag_7:\n          callvalue\n          dup1\n          iszero\n          tag_38\n          jumpi\n          0x00\n          dup1\n          revert\n        tag_38:\n          pop\n          tag_39\n          tag_40\n          jump\t// in\n        tag_39:\n          mload(0x40)\n          tag_41\n          swap2\n          swap1\n          tag_37\n          jump\t// in\n        tag_41:\n          mload(0x40)\n          dup1\n          swap2\n          sub\n          swap1\n          return\n            /* \"contracts/Produce.sol\":324:344  uint256 public price */\n        tag_8:\n          callvalue\n          dup1\n          iszero\n          tag_42\n          jumpi\n          0x00\n          dup1\n          revert\n        tag_42:\n          pop\n          tag_43\n          tag_44\n          jump\t// in\n        tag_43:\n          mload(0x40)\n          tag_45\n          swap2\n          swap1\n          tag_21\n          jump\t// in\n        tag_45:\n          mload(0x40)\n          dup1\n          swap2\n          sub\n          swap1\n          return\n            /* \"contracts/Produce.sol\":380:401  bytes32 public amount */\n        tag_9:\n          callvalue\n          dup1\n          iszero\n          tag_46\n          jumpi\n          0x00\n          dup1\n          revert\n        tag_46:\n          pop\n          tag_47\n          tag_48\n          jump\t// in\n        tag_47:\n          mload(0x40)\n          tag_49\n          swap2\n          swap1\n          tag_50\n          jump\t// in\n        tag_49:\n          mload(0x40)\n          dup1\n          swap2\n          sub\n          swap1\n          return\n            /* \"contracts/Produce.sol\":563:1115  function initilize(... */\n        tag_10:\n          callvalue\n          dup1\n          iszero\n          tag_51\n          jumpi\n          0x00\n          dup1\n          revert\n        tag_51:\n          pop\n          tag_52\n          0x04\n          dup1\n          calldatasize\n          sub\n          dup2\n          add\n          swap1\n          tag_53\n          swap2\n          swap1\n          tag_54\n          jump\t// in\n        tag_53:\n          tag_55\n          jump\t// in\n        tag_52:\n          stop\n            /* \"contracts/Produce.sol\":1617:1852  function takeOrder() external onlyOwner returns (address order) {... */\n        tag_11:\n          callvalue\n          dup1\n          iszero\n          tag_56\n          jumpi\n          0x00\n          dup1\n          revert\n        tag_56:\n          pop\n          tag_57\n          tag_58\n          jump\t// in\n        tag_57:\n          mload(0x40)\n          tag_59\n          swap2\n          swap1\n          tag_37\n          jump\t// in\n        tag_59:\n          mload(0x40)\n          dup1\n          swap2\n          sub\n          swap1\n          return\n            /* \"contracts/Produce.sol\":173:194  address public farmer */\n        tag_12:\n          callvalue\n          dup1\n          iszero\n          tag_60\n          jumpi\n          0x00\n          dup1\n          revert\n        tag_60:\n          pop\n          tag_61\n          tag_62\n          jump\t// in\n        tag_61:\n          mload(0x40)\n          tag_63\n          swap2\n          swap1\n          tag_37\n          jump\t// in\n        tag_63:\n          mload(0x40)\n          dup1\n          swap2\n          sub\n          swap1\n          return\n            /* \"@openzeppelin/contracts/access/Ownable.sol\":2081:2279  function transferOwnership(address newOwner) public virtual onlyOwner {... */\n        tag_13:\n          callvalue\n          dup1\n          iszero\n          tag_64\n          jumpi\n          0x00\n          dup1\n          revert\n        tag_64:\n          pop\n          tag_65\n          0x04\n          dup1\n          calldatasize\n          sub\n          dup2\n          add\n          swap1\n          tag_66\n          swap2\n          swap1\n          tag_67\n          jump\t// in\n        tag_66:\n          tag_68\n          jump\t// in\n        tag_65:\n          stop\n            /* \"contracts/Produce.sol\":1168:1553  function placeOrder() external payable {... */\n        tag_14:\n          tag_69\n          tag_70\n          jump\t// in\n        tag_69:\n          stop\n            /* \"contracts/Produce.sol\":299:318  uint256 public name */\n        tag_19:\n          sload(0x05)\n          dup2\n          jump\t// out\n            /* \"contracts/Produce.sol\":257:292  uint256 public limitOnPendingOrders */\n        tag_24:\n          sload(0x04)\n          dup2\n          jump\t// out\n            /* \"contracts/Produce.sol\":350:374  uint256 public orderSize */\n        tag_28:\n          sload(0x07)\n          dup2\n          jump\t// out\n            /* \"@openzeppelin/contracts/access/Ownable.sol\":1831:1932  function renounceOwnership() public virtual onlyOwner {... */\n        tag_32:\n            /* \"@openzeppelin/contracts/access/Ownable.sol\":1094:1107  _checkOwner() */\n          tag_72\n            /* \"@openzeppelin/contracts/access/Ownable.sol\":1094:1105  _checkOwner */\n          tag_73\n            /* \"@openzeppelin/contracts/access/Ownable.sol\":1094:1107  _checkOwner() */\n          jump\t// in\n        tag_72:\n            /* \"@openzeppelin/contracts/access/Ownable.sol\":1895:1925  _transferOwnership(address(0)) */\n          tag_75\n            /* \"@openzeppelin/contracts/access/Ownable.sol\":1922:1923  0 */\n          0x00\n            /* \"@openzeppelin/contracts/access/Ownable.sol\":1895:1913  _transferOwnership */\n          tag_76\n            /* \"@openzeppelin/contracts/access/Ownable.sol\":1895:1925  _transferOwnership(address(0)) */\n          jump\t// in\n        tag_75:\n            /* \"@openzeppelin/contracts/access/Ownable.sol\":1831:1932  function renounceOwnership() public virtual onlyOwner {... */\n          jump\t// out\n            /* \"contracts/Produce.sol\":200:221  address public market */\n        tag_35:\n          0x02\n          0x00\n          swap1\n          sload\n          swap1\n          0x0100\n          exp\n          swap1\n          div\n          0xffffffffffffffffffffffffffffffffffffffff\n          and\n          dup2\n          jump\t// out\n            /* \"@openzeppelin/contracts/access/Ownable.sol\":1201:1286  function owner() public view virtual returns (address) {... */\n        tag_40:\n            /* \"@openzeppelin/contracts/access/Ownable.sol\":1247:1254  address */\n          0x00\n            /* \"@openzeppelin/contracts/access/Ownable.sol\":1273:1279  _owner */\n          dup1\n          0x00\n          swap1\n          sload\n          swap1\n          0x0100\n          exp\n          swap1\n          div\n          0xffffffffffffffffffffffffffffffffffffffff\n          and\n            /* \"@openzeppelin/contracts/access/Ownable.sol\":1266:1279  return _owner */\n          swap1\n          pop\n            /* \"@openzeppelin/contracts/access/Ownable.sol\":1201:1286  function owner() public view virtual returns (address) {... */\n          swap1\n          jump\t// out\n            /* \"contracts/Produce.sol\":324:344  uint256 public price */\n        tag_44:\n          sload(0x06)\n          dup2\n          jump\t// out\n            /* \"contracts/Produce.sol\":380:401  bytes32 public amount */\n        tag_48:\n          sload(0x08)\n          dup2\n          jump\t// out\n            /* \"contracts/Produce.sol\":563:1115  function initilize(... */\n        tag_55:\n            /* \"contracts/Produce.sol\":786:805  State.UNINITIALIZED */\n          0x00\n            /* \"contracts/Produce.sol\":779:805  state==State.UNINITIALIZED */\n          0x01\n          dup2\n          gt\n          iszero\n          tag_79\n          jumpi\n          tag_80\n          tag_81\n          jump\t// in\n        tag_80:\n        tag_79:\n            /* \"contracts/Produce.sol\":779:784  state */\n          0x09\n          0x00\n          swap1\n          sload\n          swap1\n          0x0100\n          exp\n          swap1\n          div\n          0xff\n          and\n            /* \"contracts/Produce.sol\":779:805  state==State.UNINITIALIZED */\n          0x01\n          dup2\n          gt\n          iszero\n          tag_82\n          jumpi\n          tag_83\n          tag_81\n          jump\t// in\n        tag_83:\n        tag_82:\n          eq\n            /* \"contracts/Produce.sol\":771:850  require(state==State.UNINITIALIZED, \"This produce has already been initilized\") */\n          tag_84\n          jumpi\n          mload(0x40)\n          0x08c379a000000000000000000000000000000000000000000000000000000000\n          dup2\n          mstore\n          0x04\n          add\n          tag_85\n          swap1\n          tag_86\n          jump\t// in\n        tag_85:\n          mload(0x40)\n          dup1\n          swap2\n          sub\n          swap1\n          revert\n        tag_84:\n            /* \"contracts/Produce.sol\":860:887  _transferOwnership(_farmer) */\n          tag_87\n            /* \"contracts/Produce.sol\":879:886  _farmer */\n          dup7\n            /* \"contracts/Produce.sol\":860:878  _transferOwnership */\n          tag_76\n            /* \"contracts/Produce.sol\":860:887  _transferOwnership(_farmer) */\n          jump\t// in\n        tag_87:\n            /* \"contracts/Produce.sol\":906:916  msg.sender */\n          caller\n            /* \"contracts/Produce.sol\":897:903  market */\n          0x02\n          0x00\n            /* \"contracts/Produce.sol\":897:916  market = msg.sender */\n          0x0100\n          exp\n          dup2\n          sload\n          dup2\n          0xffffffffffffffffffffffffffffffffffffffff\n          mul\n          not\n          and\n          swap1\n          dup4\n          0xffffffffffffffffffffffffffffffffffffffff\n          and\n          mul\n          or\n          swap1\n          sstore\n          pop\n            /* \"contracts/Produce.sol\":949:970  _limitOnPendingOrders */\n          dup1\n            /* \"contracts/Produce.sol\":926:946  limitOnPendingOrders */\n          0x04\n            /* \"contracts/Produce.sol\":926:970  limitOnPendingOrders = _limitOnPendingOrders */\n          dup2\n          swap1\n          sstore\n          pop\n            /* \"contracts/Produce.sol\":987:992  _name */\n          dup5\n            /* \"contracts/Produce.sol\":980:984  name */\n          0x05\n            /* \"contracts/Produce.sol\":980:992  name = _name */\n          dup2\n          swap1\n          sstore\n          pop\n            /* \"contracts/Produce.sol\":1010:1016  _price */\n          dup4\n            /* \"contracts/Produce.sol\":1002:1007  price */\n          0x06\n            /* \"contracts/Produce.sol\":1002:1016  price = _price */\n          dup2\n          swap1\n          sstore\n          pop\n            /* \"contracts/Produce.sol\":1038:1048  _orderSize */\n          dup3\n            /* \"contracts/Produce.sol\":1026:1035  orderSize */\n          0x07\n            /* \"contracts/Produce.sol\":1026:1048  orderSize = _orderSize */\n          dup2\n          swap1\n          sstore\n          pop\n            /* \"contracts/Produce.sol\":1067:1074  _amount */\n          dup2\n            /* \"contracts/Produce.sol\":1058:1064  amount */\n          0x08\n            /* \"contracts/Produce.sol\":1058:1074  amount = _amount */\n          dup2\n          swap1\n          sstore\n          pop\n            /* \"contracts/Produce.sol\":1092:1108  State.PRODUCESET */\n          0x01\n            /* \"contracts/Produce.sol\":1084:1089  state */\n          0x09\n          0x00\n            /* \"contracts/Produce.sol\":1084:1108  state = State.PRODUCESET */\n          0x0100\n          exp\n          dup2\n          sload\n          dup2\n          0xff\n          mul\n          not\n          and\n          swap1\n          dup4\n          0x01\n          dup2\n          gt\n          iszero\n          tag_88\n          jumpi\n          tag_89\n          tag_81\n          jump\t// in\n        tag_89:\n        tag_88:\n          mul\n          or\n          swap1\n          sstore\n          pop\n            /* \"contracts/Produce.sol\":563:1115  function initilize(... */\n          pop\n          pop\n          pop\n          pop\n          pop\n          pop\n          jump\t// out\n            /* \"contracts/Produce.sol\":1617:1852  function takeOrder() external onlyOwner returns (address order) {... */\n        tag_58:\n            /* \"contracts/Produce.sol\":1666:1679  address order */\n          0x00\n            /* \"@openzeppelin/contracts/access/Ownable.sol\":1094:1107  _checkOwner() */\n          tag_91\n            /* \"@openzeppelin/contracts/access/Ownable.sol\":1094:1105  _checkOwner */\n          tag_73\n            /* \"@openzeppelin/contracts/access/Ownable.sol\":1094:1107  _checkOwner() */\n          jump\t// in\n        tag_91:\n            /* \"contracts/Produce.sol\":1715:1716  0 */\n          0x00\n            /* \"contracts/Produce.sol\":1699:1705  orders */\n          0x03\n            /* \"contracts/Produce.sol\":1699:1712  orders.length */\n          dup1\n          sload\n          swap1\n          pop\n            /* \"contracts/Produce.sol\":1699:1716  orders.length > 0 */\n          gt\n            /* \"contracts/Produce.sol\":1691:1738  require(orders.length > 0, \"No orders to take\") */\n          tag_93\n          jumpi\n          mload(0x40)\n          0x08c379a000000000000000000000000000000000000000000000000000000000\n          dup2\n          mstore\n          0x04\n          add\n          tag_94\n          swap1\n          tag_95\n          jump\t// in\n        tag_94:\n          mload(0x40)\n          dup1\n          swap2\n          sub\n          swap1\n          revert\n        tag_93:\n            /* \"contracts/Produce.sol\":1748:1767  address orderToTake */\n          0x00\n            /* \"contracts/Produce.sol\":1770:1776  orders */\n          0x03\n            /* \"contracts/Produce.sol\":1793:1794  1 */\n          0x01\n            /* \"contracts/Produce.sol\":1777:1783  orders */\n          0x03\n            /* \"contracts/Produce.sol\":1777:1790  orders.length */\n          dup1\n          sload\n          swap1\n          pop\n            /* \"contracts/Produce.sol\":1777:1794  orders.length - 1 */\n          tag_96\n          swap2\n          swap1\n          tag_97\n          jump\t// in\n        tag_96:\n            /* \"contracts/Produce.sol\":1770:1795  orders[orders.length - 1] */\n          dup2\n          sload\n          dup2\n          lt\n          tag_98\n          jumpi\n          tag_99\n          tag_100\n          jump\t// in\n        tag_99:\n        tag_98:\n          swap1\n          0x00\n          mstore\n          keccak256(0x00, 0x20)\n          add\n          0x00\n          swap1\n          sload\n          swap1\n          0x0100\n          exp\n          swap1\n          div\n          0xffffffffffffffffffffffffffffffffffffffff\n          and\n            /* \"contracts/Produce.sol\":1748:1795  address orderToTake = orders[orders.length - 1] */\n          swap1\n          pop\n            /* \"contracts/Produce.sol\":1805:1811  orders */\n          0x03\n            /* \"contracts/Produce.sol\":1805:1817  orders.pop() */\n          dup1\n          sload\n          dup1\n          tag_102\n          jumpi\n          tag_103\n          tag_104\n          jump\t// in\n        tag_103:\n        tag_102:\n          0x01\n          swap1\n          sub\n          dup2\n          dup2\n          swap1\n          0x00\n          mstore\n          keccak256(0x00, 0x20)\n          add\n          exp(0x0100, 0x00)\n          dup2\n          sload\n          swap1\n          0xffffffffffffffffffffffffffffffffffffffff\n          mul\n          not\n          and\n          swap1\n          sstore\n          swap1\n          sstore\n            /* \"contracts/Produce.sol\":1834:1845  orderToTake */\n          dup1\n            /* \"contracts/Produce.sol\":1827:1845  return orderToTake */\n          swap2\n          pop\n          pop\n            /* \"contracts/Produce.sol\":1617:1852  function takeOrder() external onlyOwner returns (address order) {... */\n          swap1\n          jump\t// out\n            /* \"contracts/Produce.sol\":173:194  address public farmer */\n        tag_62:\n          0x01\n          0x00\n          swap1\n          sload\n          swap1\n          0x0100\n          exp\n          swap1\n          div\n          0xffffffffffffffffffffffffffffffffffffffff\n          and\n          dup2\n          jump\t// out\n            /* \"@openzeppelin/contracts/access/Ownable.sol\":2081:2279  function transferOwnership(address newOwner) public virtual onlyOwner {... */\n        tag_68:\n            /* \"@openzeppelin/contracts/access/Ownable.sol\":1094:1107  _checkOwner() */\n          tag_107\n            /* \"@openzeppelin/contracts/access/Ownable.sol\":1094:1105  _checkOwner */\n          tag_73\n            /* \"@openzeppelin/contracts/access/Ownable.sol\":1094:1107  _checkOwner() */\n          jump\t// in\n        tag_107:\n            /* \"@openzeppelin/contracts/access/Ownable.sol\":2189:2190  0 */\n          0x00\n            /* \"@openzeppelin/contracts/access/Ownable.sol\":2169:2191  newOwner != address(0) */\n          0xffffffffffffffffffffffffffffffffffffffff\n          and\n            /* \"@openzeppelin/contracts/access/Ownable.sol\":2169:2177  newOwner */\n          dup2\n            /* \"@openzeppelin/contracts/access/Ownable.sol\":2169:2191  newOwner != address(0) */\n          0xffffffffffffffffffffffffffffffffffffffff\n          and\n          sub\n            /* \"@openzeppelin/contracts/access/Ownable.sol\":2161:2234  require(newOwner != address(0), \"Ownable: new owner is the zero address\") */\n          tag_109\n          jumpi\n          mload(0x40)\n          0x08c379a000000000000000000000000000000000000000000000000000000000\n          dup2\n          mstore\n          0x04\n          add\n          tag_110\n          swap1\n          tag_111\n          jump\t// in\n        tag_110:\n          mload(0x40)\n          dup1\n          swap2\n          sub\n          swap1\n          revert\n        tag_109:\n            /* \"@openzeppelin/contracts/access/Ownable.sol\":2244:2272  _transferOwnership(newOwner) */\n          tag_112\n            /* \"@openzeppelin/contracts/access/Ownable.sol\":2263:2271  newOwner */\n          dup2\n            /* \"@openzeppelin/contracts/access/Ownable.sol\":2244:2262  _transferOwnership */\n          tag_76\n            /* \"@openzeppelin/contracts/access/Ownable.sol\":2244:2272  _transferOwnership(newOwner) */\n          jump\t// in\n        tag_112:\n            /* \"@openzeppelin/contracts/access/Ownable.sol\":2081:2279  function transferOwnership(address newOwner) public virtual onlyOwner {... */\n          pop\n          jump\t// out\n            /* \"contracts/Produce.sol\":1168:1553  function placeOrder() external payable {... */\n        tag_70:\n            /* \"contracts/Produce.sol\":1252:1259  owner() */\n          tag_114\n            /* \"contracts/Produce.sol\":1252:1257  owner */\n          tag_40\n            /* \"contracts/Produce.sol\":1252:1259  owner() */\n          jump\t// in\n        tag_114:\n            /* \"contracts/Produce.sol\":1238:1259  msg.sender != owner() */\n          0xffffffffffffffffffffffffffffffffffffffff\n          and\n            /* \"contracts/Produce.sol\":1238:1248  msg.sender */\n          caller\n            /* \"contracts/Produce.sol\":1238:1259  msg.sender != owner() */\n          0xffffffffffffffffffffffffffffffffffffffff\n          and\n          sub\n            /* \"contracts/Produce.sol\":1217:1332  require(... */\n          tag_115\n          jumpi\n          mload(0x40)\n          0x08c379a000000000000000000000000000000000000000000000000000000000\n          dup2\n          mstore\n          0x04\n          add\n          tag_116\n          swap1\n          tag_117\n          jump\t// in\n        tag_116:\n          mload(0x40)\n          dup1\n          swap2\n          sub\n          swap1\n          revert\n        tag_115:\n            /* \"contracts/Produce.sol\":1388:1393  price */\n          sload(0x06)\n            /* \"contracts/Produce.sol\":1376:1385  orderSize */\n          sload(0x07)\n            /* \"contracts/Produce.sol\":1376:1393  orderSize * price */\n          tag_118\n          swap2\n          swap1\n          tag_119\n          jump\t// in\n        tag_118:\n            /* \"contracts/Produce.sol\":1363:1372  msg.value */\n          callvalue\n            /* \"contracts/Produce.sol\":1363:1393  msg.value == orderSize * price */\n          eq\n            /* \"contracts/Produce.sol\":1342:1458  require(... */\n          tag_120\n          jumpi\n          mload(0x40)\n          0x08c379a000000000000000000000000000000000000000000000000000000000\n          dup2\n          mstore\n          0x04\n          add\n          tag_121\n          swap1\n          tag_122\n          jump\t// in\n        tag_121:\n          mload(0x40)\n          dup1\n          swap2\n          sub\n          swap1\n          revert\n        tag_120:\n            /* \"contracts/Produce.sol\":1492:1512  limitOnPendingOrders */\n          sload(0x04)\n            /* \"contracts/Produce.sol\":1476:1482  orders */\n          0x03\n            /* \"contracts/Produce.sol\":1476:1489  orders.length */\n          dup1\n          sload\n          swap1\n          pop\n            /* \"contracts/Produce.sol\":1476:1512  orders.length < limitOnPendingOrders */\n          lt\n            /* \"contracts/Produce.sol\":1468:1513  require(orders.length < limitOnPendingOrders) */\n          tag_123\n          jumpi\n          0x00\n          dup1\n          revert\n        tag_123:\n            /* \"contracts/Produce.sol\":1523:1529  orders */\n          0x03\n            /* \"contracts/Produce.sol\":1535:1545  msg.sender */\n          caller\n            /* \"contracts/Produce.sol\":1523:1546  orders.push(msg.sender) */\n          swap1\n          dup1\n          0x01\n          dup2\n          sload\n          add\n          dup1\n          dup3\n          sstore\n          dup1\n          swap2\n          pop\n          pop\n          0x01\n          swap1\n          sub\n          swap1\n          0x00\n          mstore\n          keccak256(0x00, 0x20)\n          add\n          0x00\n          swap1\n          swap2\n          swap1\n          swap2\n          swap1\n          swap2\n          0x0100\n          exp\n          dup2\n          sload\n          dup2\n          0xffffffffffffffffffffffffffffffffffffffff\n          mul\n          not\n          and\n          swap1\n          dup4\n          0xffffffffffffffffffffffffffffffffffffffff\n          and\n          mul\n          or\n          swap1\n          sstore\n          pop\n            /* \"contracts/Produce.sol\":1168:1553  function placeOrder() external payable {... */\n          jump\t// out\n            /* \"@openzeppelin/contracts/access/Ownable.sol\":1359:1489  function _checkOwner() internal view virtual {... */\n        tag_73:\n            /* \"@openzeppelin/contracts/access/Ownable.sol\":1433:1445  _msgSender() */\n          tag_126\n            /* \"@openzeppelin/contracts/access/Ownable.sol\":1433:1443  _msgSender */\n          tag_127\n            /* \"@openzeppelin/contracts/access/Ownable.sol\":1433:1445  _msgSender() */\n          jump\t// in\n        tag_126:\n            /* \"@openzeppelin/contracts/access/Ownable.sol\":1422:1445  owner() == _msgSender() */\n          0xffffffffffffffffffffffffffffffffffffffff\n          and\n            /* \"@openzeppelin/contracts/access/Ownable.sol\":1422:1429  owner() */\n          tag_128\n            /* \"@openzeppelin/contracts/access/Ownable.sol\":1422:1427  owner */\n          tag_40\n            /* \"@openzeppelin/contracts/access/Ownable.sol\":1422:1429  owner() */\n          jump\t// in\n        tag_128:\n            /* \"@openzeppelin/contracts/access/Ownable.sol\":1422:1445  owner() == _msgSender() */\n          0xffffffffffffffffffffffffffffffffffffffff\n          and\n          eq\n            /* \"@openzeppelin/contracts/access/Ownable.sol\":1414:1482  require(owner() == _msgSender(), \"Ownable: caller is not the owner\") */\n          tag_129\n          jumpi\n          mload(0x40)\n          0x08c379a000000000000000000000000000000000000000000000000000000000\n          dup2\n          mstore\n          0x04\n          add\n          tag_130\n          swap1\n          tag_131\n          jump\t// in\n        tag_130:\n          mload(0x40)\n          dup1\n          swap2\n          sub\n          swap1\n          revert\n        tag_129:\n            /* \"@openzeppelin/contracts/access/Ownable.sol\":1359:1489  function _checkOwner() internal view virtual {... */\n          jump\t// out\n            /* \"@openzeppelin/contracts/access/Ownable.sol\":2433:2620  function _transferOwnership(address newOwner) internal virtual {... */\n        tag_76:\n            /* \"@openzeppelin/contracts/access/Ownable.sol\":2506:2522  address oldOwner */\n          0x00\n            /* \"@openzeppelin/contracts/access/Ownable.sol\":2525:2531  _owner */\n          dup1\n          0x00\n          swap1\n          sload\n          swap1\n          0x0100\n          exp\n          swap1\n          div\n          0xffffffffffffffffffffffffffffffffffffffff\n          and\n            /* \"@openzeppelin/contracts/access/Ownable.sol\":2506:2531  address oldOwner = _owner */\n          swap1\n          pop\n            /* \"@openzeppelin/contracts/access/Ownable.sol\":2550:2558  newOwner */\n          dup2\n            /* \"@openzeppelin/contracts/access/Ownable.sol\":2541:2547  _owner */\n          0x00\n          dup1\n            /* \"@openzeppelin/contracts/access/Ownable.sol\":2541:2558  _owner = newOwner */\n          0x0100\n          exp\n          dup2\n          sload\n          dup2\n          0xffffffffffffffffffffffffffffffffffffffff\n          mul\n          not\n          and\n          swap1\n          dup4\n          0xffffffffffffffffffffffffffffffffffffffff\n          and\n          mul\n          or\n          swap1\n          sstore\n          pop\n            /* \"@openzeppelin/contracts/access/Ownable.sol\":2604:2612  newOwner */\n          dup2\n            /* \"@openzeppelin/contracts/access/Ownable.sol\":2573:2613  OwnershipTransferred(oldOwner, newOwner) */\n          0xffffffffffffffffffffffffffffffffffffffff\n          and\n            /* \"@openzeppelin/contracts/access/Ownable.sol\":2594:2602  oldOwner */\n          dup2\n            /* \"@openzeppelin/contracts/access/Ownable.sol\":2573:2613  OwnershipTransferred(oldOwner, newOwner) */\n          0xffffffffffffffffffffffffffffffffffffffff\n          and\n          0x8be0079c531659141344cd1fd0a4f28419497f9722a3daafe3b4186f6b6457e0\n          mload(0x40)\n          mload(0x40)\n          dup1\n          swap2\n          sub\n          swap1\n          log3\n            /* \"@openzeppelin/contracts/access/Ownable.sol\":2496:2620  {... */\n          pop\n            /* \"@openzeppelin/contracts/access/Ownable.sol\":2433:2620  function _transferOwnership(address newOwner) internal virtual {... */\n          pop\n          jump\t// out\n            /* \"@openzeppelin/contracts/utils/Context.sol\":640:736  function _msgSender() internal view virtual returns (address) {... */\n        tag_127:\n            /* \"@openzeppelin/contracts/utils/Context.sol\":693:700  address */\n          0x00\n            /* \"@openzeppelin/contracts/utils/Context.sol\":719:729  msg.sender */\n          caller\n            /* \"@openzeppelin/contracts/utils/Context.sol\":712:729  return msg.sender */\n          swap1\n          pop\n            /* \"@openzeppelin/contracts/utils/Context.sol\":640:736  function _msgSender() internal view virtual returns (address) {... */\n          swap1\n          jump\t// out\n            /* \"#utility.yul\":7:84   */\n        tag_134:\n            /* \"#utility.yul\":44:51   */\n          0x00\n            /* \"#utility.yul\":73:78   */\n          dup2\n            /* \"#utility.yul\":62:78   */\n          swap1\n          pop\n            /* \"#utility.yul\":7:84   */\n          swap2\n          swap1\n          pop\n          jump\t// out\n            /* \"#utility.yul\":90:208   */\n        tag_135:\n            /* \"#utility.yul\":177:201   */\n          tag_167\n            /* \"#utility.yul\":195:200   */\n          dup2\n            /* \"#utility.yul\":177:201   */\n          tag_134\n          jump\t// in\n        tag_167:\n            /* \"#utility.yul\":172:175   */\n          dup3\n            /* \"#utility.yul\":165:202   */\n          mstore\n            /* \"#utility.yul\":90:208   */\n          pop\n          pop\n          jump\t// out\n            /* \"#utility.yul\":214:436   */\n        tag_21:\n            /* \"#utility.yul\":307:311   */\n          0x00\n            /* \"#utility.yul\":345:347   */\n          0x20\n            /* \"#utility.yul\":334:343   */\n          dup3\n            /* \"#utility.yul\":330:348   */\n          add\n            /* \"#utility.yul\":322:348   */\n          swap1\n          pop\n            /* \"#utility.yul\":358:429   */\n          tag_169\n            /* \"#utility.yul\":426:427   */\n          0x00\n            /* \"#utility.yul\":415:424   */\n          dup4\n            /* \"#utility.yul\":411:428   */\n          add\n            /* \"#utility.yul\":402:408   */\n          dup5\n            /* \"#utility.yul\":358:429   */\n          tag_135\n          jump\t// in\n        tag_169:\n            /* \"#utility.yul\":214:436   */\n          swap3\n          swap2\n          pop\n          pop\n          jump\t// out\n            /* \"#utility.yul\":442:568   */\n        tag_136:\n            /* \"#utility.yul\":479:486   */\n          0x00\n            /* \"#utility.yul\":519:561   */\n          0xffffffffffffffffffffffffffffffffffffffff\n            /* \"#utility.yul\":512:517   */\n          dup3\n            /* \"#utility.yul\":508:562   */\n          and\n            /* \"#utility.yul\":497:562   */\n          swap1\n          pop\n            /* \"#utility.yul\":442:568   */\n          swap2\n          swap1\n          pop\n          jump\t// out\n            /* \"#utility.yul\":574:670   */\n        tag_137:\n            /* \"#utility.yul\":611:618   */\n          0x00\n            /* \"#utility.yul\":640:664   */\n          tag_172\n            /* \"#utility.yul\":658:663   */\n          dup3\n            /* \"#utility.yul\":640:664   */\n          tag_136\n          jump\t// in\n        tag_172:\n            /* \"#utility.yul\":629:664   */\n          swap1\n          pop\n            /* \"#utility.yul\":574:670   */\n          swap2\n          swap1\n          pop\n          jump\t// out\n            /* \"#utility.yul\":676:794   */\n        tag_138:\n            /* \"#utility.yul\":763:787   */\n          tag_174\n            /* \"#utility.yul\":781:786   */\n          dup2\n            /* \"#utility.yul\":763:787   */\n          tag_137\n          jump\t// in\n        tag_174:\n            /* \"#utility.yul\":758:761   */\n          dup3\n            /* \"#utility.yul\":751:788   */\n          mstore\n            /* \"#utility.yul\":676:794   */\n          pop\n          pop\n          jump\t// out\n            /* \"#utility.yul\":800:1022   */\n        tag_37:\n            /* \"#utility.yul\":893:897   */\n          0x00\n            /* \"#utility.yul\":931:933   */\n          0x20\n            /* \"#utility.yul\":920:929   */\n          dup3\n            /* \"#utility.yul\":916:934   */\n          add\n            /* \"#utility.yul\":908:934   */\n          swap1\n          pop\n            /* \"#utility.yul\":944:1015   */\n          tag_176\n            /* \"#utility.yul\":1012:1013   */\n          0x00\n            /* \"#utility.yul\":1001:1010   */\n          dup4\n            /* \"#utility.yul\":997:1014   */\n          add\n            /* \"#utility.yul\":988:994   */\n          dup5\n            /* \"#utility.yul\":944:1015   */\n          tag_138\n          jump\t// in\n        tag_176:\n            /* \"#utility.yul\":800:1022   */\n          swap3\n          swap2\n          pop\n          pop\n          jump\t// out\n            /* \"#utility.yul\":1028:1105   */\n        tag_139:\n            /* \"#utility.yul\":1065:1072   */\n          0x00\n            /* \"#utility.yul\":1094:1099   */\n          dup2\n            /* \"#utility.yul\":1083:1099   */\n          swap1\n          pop\n            /* \"#utility.yul\":1028:1105   */\n          swap2\n          swap1\n          pop\n          jump\t// out\n            /* \"#utility.yul\":1111:1229   */\n        tag_140:\n            /* \"#utility.yul\":1198:1222   */\n          tag_179\n            /* \"#utility.yul\":1216:1221   */\n          dup2\n            /* \"#utility.yul\":1198:1222   */\n          tag_139\n          jump\t// in\n        tag_179:\n            /* \"#utility.yul\":1193:1196   */\n          dup3\n            /* \"#utility.yul\":1186:1223   */\n          mstore\n            /* \"#utility.yul\":1111:1229   */\n          pop\n          pop\n          jump\t// out\n            /* \"#utility.yul\":1235:1457   */\n        tag_50:\n            /* \"#utility.yul\":1328:1332   */\n          0x00\n            /* \"#utility.yul\":1366:1368   */\n          0x20\n            /* \"#utility.yul\":1355:1364   */\n          dup3\n            /* \"#utility.yul\":1351:1369   */\n          add\n            /* \"#utility.yul\":1343:1369   */\n          swap1\n          pop\n            /* \"#utility.yul\":1379:1450   */\n          tag_181\n            /* \"#utility.yul\":1447:1448   */\n          0x00\n            /* \"#utility.yul\":1436:1445   */\n          dup4\n            /* \"#utility.yul\":1432:1449   */\n          add\n            /* \"#utility.yul\":1423:1429   */\n          dup5\n            /* \"#utility.yul\":1379:1450   */\n          tag_140\n          jump\t// in\n        tag_181:\n            /* \"#utility.yul\":1235:1457   */\n          swap3\n          swap2\n          pop\n          pop\n          jump\t// out\n            /* \"#utility.yul\":1544:1661   */\n        tag_142:\n            /* \"#utility.yul\":1653:1654   */\n          0x00\n            /* \"#utility.yul\":1650:1651   */\n          dup1\n            /* \"#utility.yul\":1643:1655   */\n          revert\n            /* \"#utility.yul\":1790:1912   */\n        tag_144:\n            /* \"#utility.yul\":1863:1887   */\n          tag_186\n            /* \"#utility.yul\":1881:1886   */\n          dup2\n            /* \"#utility.yul\":1863:1887   */\n          tag_137\n          jump\t// in\n        tag_186:\n            /* \"#utility.yul\":1856:1861   */\n          dup2\n            /* \"#utility.yul\":1853:1888   */\n          eq\n            /* \"#utility.yul\":1843:1906   */\n          tag_187\n          jumpi\n            /* \"#utility.yul\":1902:1903   */\n          0x00\n            /* \"#utility.yul\":1899:1900   */\n          dup1\n            /* \"#utility.yul\":1892:1904   */\n          revert\n            /* \"#utility.yul\":1843:1906   */\n        tag_187:\n            /* \"#utility.yul\":1790:1912   */\n          pop\n          jump\t// out\n            /* \"#utility.yul\":1918:2057   */\n        tag_145:\n            /* \"#utility.yul\":1964:1969   */\n          0x00\n            /* \"#utility.yul\":2002:2008   */\n          dup2\n            /* \"#utility.yul\":1989:2009   */\n          calldataload\n            /* \"#utility.yul\":1980:2009   */\n          swap1\n          pop\n            /* \"#utility.yul\":2018:2051   */\n          tag_189\n            /* \"#utility.yul\":2045:2050   */\n          dup2\n            /* \"#utility.yul\":2018:2051   */\n          tag_144\n          jump\t// in\n        tag_189:\n            /* \"#utility.yul\":1918:2057   */\n          swap3\n          swap2\n          pop\n          pop\n          jump\t// out\n            /* \"#utility.yul\":2063:2185   */\n        tag_146:\n            /* \"#utility.yul\":2136:2160   */\n          tag_191\n            /* \"#utility.yul\":2154:2159   */\n          dup2\n            /* \"#utility.yul\":2136:2160   */\n          tag_134\n          jump\t// in\n        tag_191:\n            /* \"#utility.yul\":2129:2134   */\n          dup2\n            /* \"#utility.yul\":2126:2161   */\n          eq\n            /* \"#utility.yul\":2116:2179   */\n          tag_192\n          jumpi\n            /* \"#utility.yul\":2175:2176   */\n          0x00\n            /* \"#utility.yul\":2172:2173   */\n          dup1\n            /* \"#utility.yul\":2165:2177   */\n          revert\n            /* \"#utility.yul\":2116:2179   */\n        tag_192:\n            /* \"#utility.yul\":2063:2185   */\n          pop\n          jump\t// out\n            /* \"#utility.yul\":2191:2330   */\n        tag_147:\n            /* \"#utility.yul\":2237:2242   */\n          0x00\n            /* \"#utility.yul\":2275:2281   */\n          dup2\n            /* \"#utility.yul\":2262:2282   */\n          calldataload\n            /* \"#utility.yul\":2253:2282   */\n          swap1\n          pop\n            /* \"#utility.yul\":2291:2324   */\n          tag_194\n            /* \"#utility.yul\":2318:2323   */\n          dup2\n            /* \"#utility.yul\":2291:2324   */\n          tag_146\n          jump\t// in\n        tag_194:\n            /* \"#utility.yul\":2191:2330   */\n          swap3\n          swap2\n          pop\n          pop\n          jump\t// out\n            /* \"#utility.yul\":2336:2458   */\n        tag_148:\n            /* \"#utility.yul\":2409:2433   */\n          tag_196\n            /* \"#utility.yul\":2427:2432   */\n          dup2\n            /* \"#utility.yul\":2409:2433   */\n          tag_139\n          jump\t// in\n        tag_196:\n            /* \"#utility.yul\":2402:2407   */\n          dup2\n            /* \"#utility.yul\":2399:2434   */\n          eq\n            /* \"#utility.yul\":2389:2452   */\n          tag_197\n          jumpi\n            /* \"#utility.yul\":2448:2449   */\n          0x00\n            /* \"#utility.yul\":2445:2446   */\n          dup1\n            /* \"#utility.yul\":2438:2450   */\n          revert\n            /* \"#utility.yul\":2389:2452   */\n        tag_197:\n            /* \"#utility.yul\":2336:2458   */\n          pop\n          jump\t// out\n            /* \"#utility.yul\":2464:2603   */\n        tag_149:\n            /* \"#utility.yul\":2510:2515   */\n          0x00\n            /* \"#utility.yul\":2548:2554   */\n          dup2\n            /* \"#utility.yul\":2535:2555   */\n          calldataload\n            /* \"#utility.yul\":2526:2555   */\n          swap1\n          pop\n            /* \"#utility.yul\":2564:2597   */\n          tag_199\n            /* \"#utility.yul\":2591:2596   */\n          dup2\n            /* \"#utility.yul\":2564:2597   */\n          tag_148\n          jump\t// in\n        tag_199:\n            /* \"#utility.yul\":2464:2603   */\n          swap3\n          swap2\n          pop\n          pop\n          jump\t// out\n            /* \"#utility.yul\":2609:3666   */\n        tag_54:\n            /* \"#utility.yul\":2713:2719   */\n          0x00\n            /* \"#utility.yul\":2721:2727   */\n          dup1\n            /* \"#utility.yul\":2729:2735   */\n          0x00\n            /* \"#utility.yul\":2737:2743   */\n          dup1\n            /* \"#utility.yul\":2745:2751   */\n          0x00\n            /* \"#utility.yul\":2753:2759   */\n          dup1\n            /* \"#utility.yul\":2802:2805   */\n          0xc0\n            /* \"#utility.yul\":2790:2799   */\n          dup8\n            /* \"#utility.yul\":2781:2788   */\n          dup10\n            /* \"#utility.yul\":2777:2800   */\n          sub\n            /* \"#utility.yul\":2773:2806   */\n          slt\n            /* \"#utility.yul\":2770:2890   */\n          iszero\n          tag_201\n          jumpi\n            /* \"#utility.yul\":2809:2888   */\n          tag_202\n          tag_142\n          jump\t// in\n        tag_202:\n            /* \"#utility.yul\":2770:2890   */\n        tag_201:\n            /* \"#utility.yul\":2929:2930   */\n          0x00\n            /* \"#utility.yul\":2954:3007   */\n          tag_203\n            /* \"#utility.yul\":2999:3006   */\n          dup10\n            /* \"#utility.yul\":2990:2996   */\n          dup3\n            /* \"#utility.yul\":2979:2988   */\n          dup11\n            /* \"#utility.yul\":2975:2997   */\n          add\n            /* \"#utility.yul\":2954:3007   */\n          tag_145\n          jump\t// in\n        tag_203:\n            /* \"#utility.yul\":2944:3007   */\n          swap7\n          pop\n            /* \"#utility.yul\":2900:3017   */\n          pop\n            /* \"#utility.yul\":3056:3058   */\n          0x20\n            /* \"#utility.yul\":3082:3135   */\n          tag_204\n            /* \"#utility.yul\":3127:3134   */\n          dup10\n            /* \"#utility.yul\":3118:3124   */\n          dup3\n            /* \"#utility.yul\":3107:3116   */\n          dup11\n            /* \"#utility.yul\":3103:3125   */\n          add\n            /* \"#utility.yul\":3082:3135   */\n          tag_147\n          jump\t// in\n        tag_204:\n            /* \"#utility.yul\":3072:3135   */\n          swap6\n          pop\n            /* \"#utility.yul\":3027:3145   */\n          pop\n            /* \"#utility.yul\":3184:3186   */\n          0x40\n            /* \"#utility.yul\":3210:3263   */\n          tag_205\n            /* \"#utility.yul\":3255:3262   */\n          dup10\n            /* \"#utility.yul\":3246:3252   */\n          dup3\n            /* \"#utility.yul\":3235:3244   */\n          dup11\n            /* \"#utility.yul\":3231:3253   */\n          add\n            /* \"#utility.yul\":3210:3263   */\n          tag_147\n          jump\t// in\n        tag_205:\n            /* \"#utility.yul\":3200:3263   */\n          swap5\n          pop\n            /* \"#utility.yul\":3155:3273   */\n          pop\n            /* \"#utility.yul\":3312:3314   */\n          0x60\n            /* \"#utility.yul\":3338:3391   */\n          tag_206\n            /* \"#utility.yul\":3383:3390   */\n          dup10\n            /* \"#utility.yul\":3374:3380   */\n          dup3\n            /* \"#utility.yul\":3363:3372   */\n          dup11\n            /* \"#utility.yul\":3359:3381   */\n          add\n            /* \"#utility.yul\":3338:3391   */\n          tag_147\n          jump\t// in\n        tag_206:\n            /* \"#utility.yul\":3328:3391   */\n          swap4\n          pop\n            /* \"#utility.yul\":3283:3401   */\n          pop\n            /* \"#utility.yul\":3440:3443   */\n          0x80\n            /* \"#utility.yul\":3467:3520   */\n          tag_207\n            /* \"#utility.yul\":3512:3519   */\n          dup10\n            /* \"#utility.yul\":3503:3509   */\n          dup3\n            /* \"#utility.yul\":3492:3501   */\n          dup11\n            /* \"#utility.yul\":3488:3510   */\n          add\n            /* \"#utility.yul\":3467:3520   */\n          tag_149\n          jump\t// in\n        tag_207:\n            /* \"#utility.yul\":3457:3520   */\n          swap3\n          pop\n            /* \"#utility.yul\":3411:3530   */\n          pop\n            /* \"#utility.yul\":3569:3572   */\n          0xa0\n            /* \"#utility.yul\":3596:3649   */\n          tag_208\n            /* \"#utility.yul\":3641:3648   */\n          dup10\n            /* \"#utility.yul\":3632:3638   */\n          dup3\n            /* \"#utility.yul\":3621:3630   */\n          dup11\n            /* \"#utility.yul\":3617:3639   */\n          add\n            /* \"#utility.yul\":3596:3649   */\n          tag_147\n          jump\t// in\n        tag_208:\n            /* \"#utility.yul\":3586:3649   */\n          swap2\n          pop\n            /* \"#utility.yul\":3540:3659   */\n          pop\n            /* \"#utility.yul\":2609:3666   */\n          swap3\n          swap6\n          pop\n          swap3\n          swap6\n          pop\n          swap3\n          swap6\n          jump\t// out\n            /* \"#utility.yul\":3672:4001   */\n        tag_67:\n            /* \"#utility.yul\":3731:3737   */\n          0x00\n            /* \"#utility.yul\":3780:3782   */\n          0x20\n            /* \"#utility.yul\":3768:3777   */\n          dup3\n            /* \"#utility.yul\":3759:3766   */\n          dup5\n            /* \"#utility.yul\":3755:3778   */\n          sub\n            /* \"#utility.yul\":3751:3783   */\n          slt\n            /* \"#utility.yul\":3748:3867   */\n          iszero\n          tag_210\n          jumpi\n            /* \"#utility.yul\":3786:3865   */\n          tag_211\n          tag_142\n          jump\t// in\n        tag_211:\n            /* \"#utility.yul\":3748:3867   */\n        tag_210:\n            /* \"#utility.yul\":3906:3907   */\n          0x00\n            /* \"#utility.yul\":3931:3984   */\n          tag_212\n            /* \"#utility.yul\":3976:3983   */\n          dup5\n            /* \"#utility.yul\":3967:3973   */\n          dup3\n            /* \"#utility.yul\":3956:3965   */\n          dup6\n            /* \"#utility.yul\":3952:3974   */\n          add\n            /* \"#utility.yul\":3931:3984   */\n          tag_145\n          jump\t// in\n        tag_212:\n            /* \"#utility.yul\":3921:3984   */\n          swap2\n          pop\n            /* \"#utility.yul\":3877:3994   */\n          pop\n            /* \"#utility.yul\":3672:4001   */\n          swap3\n          swap2\n          pop\n          pop\n          jump\t// out\n            /* \"#utility.yul\":4007:4187   */\n        tag_81:\n            /* \"#utility.yul\":4055:4132   */\n          0x4e487b7100000000000000000000000000000000000000000000000000000000\n            /* \"#utility.yul\":4052:4053   */\n          0x00\n            /* \"#utility.yul\":4045:4133   */\n          mstore\n            /* \"#utility.yul\":4152:4156   */\n          0x21\n            /* \"#utility.yul\":4149:4150   */\n          0x04\n            /* \"#utility.yul\":4142:4157   */\n          mstore\n            /* \"#utility.yul\":4176:4180   */\n          0x24\n            /* \"#utility.yul\":4173:4174   */\n          0x00\n            /* \"#utility.yul\":4166:4181   */\n          revert\n            /* \"#utility.yul\":4193:4362   */\n        tag_150:\n            /* \"#utility.yul\":4277:4288   */\n          0x00\n            /* \"#utility.yul\":4311:4317   */\n          dup3\n            /* \"#utility.yul\":4306:4309   */\n          dup3\n            /* \"#utility.yul\":4299:4318   */\n          mstore\n            /* \"#utility.yul\":4351:4355   */\n          0x20\n            /* \"#utility.yul\":4346:4349   */\n          dup3\n            /* \"#utility.yul\":4342:4356   */\n          add\n            /* \"#utility.yul\":4327:4356   */\n          swap1\n          pop\n            /* \"#utility.yul\":4193:4362   */\n          swap3\n          swap2\n          pop\n          pop\n          jump\t// out\n            /* \"#utility.yul\":4368:4595   */\n        tag_151:\n            /* \"#utility.yul\":4508:4542   */\n          0x546869732070726f647563652068617320616c7265616479206265656e20696e\n            /* \"#utility.yul\":4504:4505   */\n          0x00\n            /* \"#utility.yul\":4496:4502   */\n          dup3\n            /* \"#utility.yul\":4492:4506   */\n          add\n            /* \"#utility.yul\":4485:4543   */\n          mstore\n            /* \"#utility.yul\":4577:4587   */\n          0x6974696c697a6564000000000000000000000000000000000000000000000000\n            /* \"#utility.yul\":4572:4574   */\n          0x20\n            /* \"#utility.yul\":4564:4570   */\n          dup3\n            /* \"#utility.yul\":4560:4575   */\n          add\n            /* \"#utility.yul\":4553:4588   */\n          mstore\n            /* \"#utility.yul\":4368:4595   */\n          pop\n          jump\t// out\n            /* \"#utility.yul\":4601:4967   */\n        tag_152:\n            /* \"#utility.yul\":4743:4746   */\n          0x00\n            /* \"#utility.yul\":4764:4831   */\n          tag_217\n            /* \"#utility.yul\":4828:4830   */\n          0x28\n            /* \"#utility.yul\":4823:4826   */\n          dup4\n            /* \"#utility.yul\":4764:4831   */\n          tag_150\n          jump\t// in\n        tag_217:\n            /* \"#utility.yul\":4757:4831   */\n          swap2\n          pop\n            /* \"#utility.yul\":4840:4933   */\n          tag_218\n            /* \"#utility.yul\":4929:4932   */\n          dup3\n            /* \"#utility.yul\":4840:4933   */\n          tag_151\n          jump\t// in\n        tag_218:\n            /* \"#utility.yul\":4958:4960   */\n          0x40\n            /* \"#utility.yul\":4953:4956   */\n          dup3\n            /* \"#utility.yul\":4949:4961   */\n          add\n            /* \"#utility.yul\":4942:4961   */\n          swap1\n          pop\n            /* \"#utility.yul\":4601:4967   */\n          swap2\n          swap1\n          pop\n          jump\t// out\n            /* \"#utility.yul\":4973:5392   */\n        tag_86:\n            /* \"#utility.yul\":5139:5143   */\n          0x00\n            /* \"#utility.yul\":5177:5179   */\n          0x20\n            /* \"#utility.yul\":5166:5175   */\n          dup3\n            /* \"#utility.yul\":5162:5180   */\n          add\n            /* \"#utility.yul\":5154:5180   */\n          swap1\n          pop\n            /* \"#utility.yul\":5226:5235   */\n          dup2\n            /* \"#utility.yul\":5220:5224   */\n          dup2\n            /* \"#utility.yul\":5216:5236   */\n          sub\n            /* \"#utility.yul\":5212:5213   */\n          0x00\n            /* \"#utility.yul\":5201:5210   */\n          dup4\n            /* \"#utility.yul\":5197:5214   */\n          add\n            /* \"#utility.yul\":5190:5237   */\n          mstore\n            /* \"#utility.yul\":5254:5385   */\n          tag_220\n            /* \"#utility.yul\":5380:5384   */\n          dup2\n            /* \"#utility.yul\":5254:5385   */\n          tag_152\n          jump\t// in\n        tag_220:\n            /* \"#utility.yul\":5246:5385   */\n          swap1\n          pop\n            /* \"#utility.yul\":4973:5392   */\n          swap2\n          swap1\n          pop\n          jump\t// out\n            /* \"#utility.yul\":5398:5565   */\n        tag_153:\n            /* \"#utility.yul\":5538:5557   */\n          0x4e6f206f726465727320746f2074616b65000000000000000000000000000000\n            /* \"#utility.yul\":5534:5535   */\n          0x00\n            /* \"#utility.yul\":5526:5532   */\n          dup3\n            /* \"#utility.yul\":5522:5536   */\n          add\n            /* \"#utility.yul\":5515:5558   */\n          mstore\n            /* \"#utility.yul\":5398:5565   */\n          pop\n          jump\t// out\n            /* \"#utility.yul\":5571:5937   */\n        tag_154:\n            /* \"#utility.yul\":5713:5716   */\n          0x00\n            /* \"#utility.yul\":5734:5801   */\n          tag_223\n            /* \"#utility.yul\":5798:5800   */\n          0x11\n            /* \"#utility.yul\":5793:5796   */\n          dup4\n            /* \"#utility.yul\":5734:5801   */\n          tag_150\n          jump\t// in\n        tag_223:\n            /* \"#utility.yul\":5727:5801   */\n          swap2\n          pop\n            /* \"#utility.yul\":5810:5903   */\n          tag_224\n            /* \"#utility.yul\":5899:5902   */\n          dup3\n            /* \"#utility.yul\":5810:5903   */\n          tag_153\n          jump\t// in\n        tag_224:\n            /* \"#utility.yul\":5928:5930   */\n          0x20\n            /* \"#utility.yul\":5923:5926   */\n          dup3\n            /* \"#utility.yul\":5919:5931   */\n          add\n            /* \"#utility.yul\":5912:5931   */\n          swap1\n          pop\n            /* \"#utility.yul\":5571:5937   */\n          swap2\n          swap1\n          pop\n          jump\t// out\n            /* \"#utility.yul\":5943:6362   */\n        tag_95:\n            /* \"#utility.yul\":6109:6113   */\n          0x00\n            /* \"#utility.yul\":6147:6149   */\n          0x20\n            /* \"#utility.yul\":6136:6145   */\n          dup3\n            /* \"#utility.yul\":6132:6150   */\n          add\n            /* \"#utility.yul\":6124:6150   */\n          swap1\n          pop\n            /* \"#utility.yul\":6196:6205   */\n          dup2\n            /* \"#utility.yul\":6190:6194   */\n          dup2\n            /* \"#utility.yul\":6186:6206   */\n          sub\n            /* \"#utility.yul\":6182:6183   */\n          0x00\n            /* \"#utility.yul\":6171:6180   */\n          dup4\n            /* \"#utility.yul\":6167:6184   */\n          add\n            /* \"#utility.yul\":6160:6207   */\n          mstore\n            /* \"#utility.yul\":6224:6355   */\n          tag_226\n            /* \"#utility.yul\":6350:6354   */\n          dup2\n            /* \"#utility.yul\":6224:6355   */\n          tag_154\n          jump\t// in\n        tag_226:\n            /* \"#utility.yul\":6216:6355   */\n          swap1\n          pop\n            /* \"#utility.yul\":5943:6362   */\n          swap2\n          swap1\n          pop\n          jump\t// out\n            /* \"#utility.yul\":6368:6548   */\n        tag_155:\n            /* \"#utility.yul\":6416:6493   */\n          0x4e487b7100000000000000000000000000000000000000000000000000000000\n            /* \"#utility.yul\":6413:6414   */\n          0x00\n            /* \"#utility.yul\":6406:6494   */\n          mstore\n            /* \"#utility.yul\":6513:6517   */\n          0x11\n            /* \"#utility.yul\":6510:6511   */\n          0x04\n            /* \"#utility.yul\":6503:6518   */\n          mstore\n            /* \"#utility.yul\":6537:6541   */\n          0x24\n            /* \"#utility.yul\":6534:6535   */\n          0x00\n            /* \"#utility.yul\":6527:6542   */\n          revert\n            /* \"#utility.yul\":6554:6748   */\n        tag_97:\n            /* \"#utility.yul\":6594:6598   */\n          0x00\n            /* \"#utility.yul\":6614:6634   */\n          tag_229\n            /* \"#utility.yul\":6632:6633   */\n          dup3\n            /* \"#utility.yul\":6614:6634   */\n          tag_134\n          jump\t// in\n        tag_229:\n            /* \"#utility.yul\":6609:6634   */\n          swap2\n          pop\n            /* \"#utility.yul\":6648:6668   */\n          tag_230\n            /* \"#utility.yul\":6666:6667   */\n          dup4\n            /* \"#utility.yul\":6648:6668   */\n          tag_134\n          jump\t// in\n        tag_230:\n            /* \"#utility.yul\":6643:6668   */\n          swap3\n          pop\n            /* \"#utility.yul\":6692:6693   */\n          dup3\n            /* \"#utility.yul\":6689:6690   */\n          dup3\n            /* \"#utility.yul\":6685:6694   */\n          sub\n            /* \"#utility.yul\":6677:6694   */\n          swap1\n          pop\n            /* \"#utility.yul\":6716:6717   */\n          dup2\n            /* \"#utility.yul\":6710:6714   */\n          dup2\n            /* \"#utility.yul\":6707:6718   */\n          gt\n            /* \"#utility.yul\":6704:6741   */\n          iszero\n          tag_231\n          jumpi\n            /* \"#utility.yul\":6721:6739   */\n          tag_232\n          tag_155\n          jump\t// in\n        tag_232:\n            /* \"#utility.yul\":6704:6741   */\n        tag_231:\n            /* \"#utility.yul\":6554:6748   */\n          swap3\n          swap2\n          pop\n          pop\n          jump\t// out\n            /* \"#utility.yul\":6754:6934   */\n        tag_100:\n            /* \"#utility.yul\":6802:6879   */\n          0x4e487b7100000000000000000000000000000000000000000000000000000000\n            /* \"#utility.yul\":6799:6800   */\n          0x00\n            /* \"#utility.yul\":6792:6880   */\n          mstore\n            /* \"#utility.yul\":6899:6903   */\n          0x32\n            /* \"#utility.yul\":6896:6897   */\n          0x04\n            /* \"#utility.yul\":6889:6904   */\n          mstore\n            /* \"#utility.yul\":6923:6927   */\n          0x24\n            /* \"#utility.yul\":6920:6921   */\n          0x00\n            /* \"#utility.yul\":6913:6928   */\n          revert\n            /* \"#utility.yul\":6940:7120   */\n        tag_104:\n            /* \"#utility.yul\":6988:7065   */\n          0x4e487b7100000000000000000000000000000000000000000000000000000000\n            /* \"#utility.yul\":6985:6986   */\n          0x00\n            /* \"#utility.yul\":6978:7066   */\n          mstore\n            /* \"#utility.yul\":7085:7089   */\n          0x31\n            /* \"#utility.yul\":7082:7083   */\n          0x04\n            /* \"#utility.yul\":7075:7090   */\n          mstore\n            /* \"#utility.yul\":7109:7113   */\n          0x24\n            /* \"#utility.yul\":7106:7107   */\n          0x00\n            /* \"#utility.yul\":7099:7114   */\n          revert\n            /* \"#utility.yul\":7126:7351   */\n        tag_156:\n            /* \"#utility.yul\":7266:7300   */\n          0x4f776e61626c653a206e6577206f776e657220697320746865207a65726f2061\n            /* \"#utility.yul\":7262:7263   */\n          0x00\n            /* \"#utility.yul\":7254:7260   */\n          dup3\n            /* \"#utility.yul\":7250:7264   */\n          add\n            /* \"#utility.yul\":7243:7301   */\n          mstore\n            /* \"#utility.yul\":7335:7343   */\n          0x6464726573730000000000000000000000000000000000000000000000000000\n            /* \"#utility.yul\":7330:7332   */\n          0x20\n            /* \"#utility.yul\":7322:7328   */\n          dup3\n            /* \"#utility.yul\":7318:7333   */\n          add\n            /* \"#utility.yul\":7311:7344   */\n          mstore\n            /* \"#utility.yul\":7126:7351   */\n          pop\n          jump\t// out\n            /* \"#utility.yul\":7357:7723   */\n        tag_157:\n            /* \"#utility.yul\":7499:7502   */\n          0x00\n            /* \"#utility.yul\":7520:7587   */\n          tag_237\n            /* \"#utility.yul\":7584:7586   */\n          0x26\n            /* \"#utility.yul\":7579:7582   */\n          dup4\n            /* \"#utility.yul\":7520:7587   */\n          tag_150\n          jump\t// in\n        tag_237:\n            /* \"#utility.yul\":7513:7587   */\n          swap2\n          pop\n            /* \"#utility.yul\":7596:7689   */\n          tag_238\n            /* \"#utility.yul\":7685:7688   */\n          dup3\n            /* \"#utility.yul\":7596:7689   */\n          tag_156\n          jump\t// in\n        tag_238:\n            /* \"#utility.yul\":7714:7716   */\n          0x40\n            /* \"#utility.yul\":7709:7712   */\n          dup3\n            /* \"#utility.yul\":7705:7717   */\n          add\n            /* \"#utility.yul\":7698:7717   */\n          swap1\n          pop\n            /* \"#utility.yul\":7357:7723   */\n          swap2\n          swap1\n          pop\n          jump\t// out\n            /* \"#utility.yul\":7729:8148   */\n        tag_111:\n            /* \"#utility.yul\":7895:7899   */\n          0x00\n            /* \"#utility.yul\":7933:7935   */\n          0x20\n            /* \"#utility.yul\":7922:7931   */\n          dup3\n            /* \"#utility.yul\":7918:7936   */\n          add\n            /* \"#utility.yul\":7910:7936   */\n          swap1\n          pop\n            /* \"#utility.yul\":7982:7991   */\n          dup2\n            /* \"#utility.yul\":7976:7980   */\n          dup2\n            /* \"#utility.yul\":7972:7992   */\n          sub\n            /* \"#utility.yul\":7968:7969   */\n          0x00\n            /* \"#utility.yul\":7957:7966   */\n          dup4\n            /* \"#utility.yul\":7953:7970   */\n          add\n            /* \"#utility.yul\":7946:7993   */\n          mstore\n            /* \"#utility.yul\":8010:8141   */\n          tag_240\n            /* \"#utility.yul\":8136:8140   */\n          dup2\n            /* \"#utility.yul\":8010:8141   */\n          tag_157\n          jump\t// in\n        tag_240:\n            /* \"#utility.yul\":8002:8141   */\n          swap1\n          pop\n            /* \"#utility.yul\":7729:8148   */\n          swap2\n          swap1\n          pop\n          jump\t// out\n            /* \"#utility.yul\":8154:8388   */\n        tag_158:\n            /* \"#utility.yul\":8294:8328   */\n          0x6661726d65722063616e6e6f7420706c616365206f7264657220666f72207468\n            /* \"#utility.yul\":8290:8291   */\n          0x00\n            /* \"#utility.yul\":8282:8288   */\n          dup3\n            /* \"#utility.yul\":8278:8292   */\n          add\n            /* \"#utility.yul\":8271:8329   */\n          mstore\n            /* \"#utility.yul\":8363:8380   */\n          0x656972206f776e2070726f647563650000000000000000000000000000000000\n            /* \"#utility.yul\":8358:8360   */\n          0x20\n            /* \"#utility.yul\":8350:8356   */\n          dup3\n            /* \"#utility.yul\":8346:8361   */\n          add\n            /* \"#utility.yul\":8339:8381   */\n          mstore\n            /* \"#utility.yul\":8154:8388   */\n          pop\n          jump\t// out\n            /* \"#utility.yul\":8394:8760   */\n        tag_159:\n            /* \"#utility.yul\":8536:8539   */\n          0x00\n            /* \"#utility.yul\":8557:8624   */\n          tag_243\n            /* \"#utility.yul\":8621:8623   */\n          0x2f\n            /* \"#utility.yul\":8616:8619   */\n          dup4\n            /* \"#utility.yul\":8557:8624   */\n          tag_150\n          jump\t// in\n        tag_243:\n            /* \"#utility.yul\":8550:8624   */\n          swap2\n          pop\n            /* \"#utility.yul\":8633:8726   */\n          tag_244\n            /* \"#utility.yul\":8722:8725   */\n          dup3\n            /* \"#utility.yul\":8633:8726   */\n          tag_158\n          jump\t// in\n        tag_244:\n            /* \"#utility.yul\":8751:8753   */\n          0x40\n            /* \"#utility.yul\":8746:8749   */\n          dup3\n            /* \"#utility.yul\":8742:8754   */\n          add\n            /* \"#utility.yul\":8735:8754   */\n          swap1\n          pop\n            /* \"#utility.yul\":8394:8760   */\n          swap2\n          swap1\n          pop\n          jump\t// out\n            /* \"#utility.yul\":8766:9185   */\n        tag_117:\n            /* \"#utility.yul\":8932:8936   */\n          0x00\n            /* \"#utility.yul\":8970:8972   */\n          0x20\n            /* \"#utility.yul\":8959:8968   */\n          dup3\n            /* \"#utility.yul\":8955:8973   */\n          add\n            /* \"#utility.yul\":8947:8973   */\n          swap1\n          pop\n            /* \"#utility.yul\":9019:9028   */\n          dup2\n            /* \"#utility.yul\":9013:9017   */\n          dup2\n            /* \"#utility.yul\":9009:9029   */\n          sub\n            /* \"#utility.yul\":9005:9006   */\n          0x00\n            /* \"#utility.yul\":8994:9003   */\n          dup4\n            /* \"#utility.yul\":8990:9007   */\n          add\n            /* \"#utility.yul\":8983:9030   */\n          mstore\n            /* \"#utility.yul\":9047:9178   */\n          tag_246\n            /* \"#utility.yul\":9173:9177   */\n          dup2\n            /* \"#utility.yul\":9047:9178   */\n          tag_159\n          jump\t// in\n        tag_246:\n            /* \"#utility.yul\":9039:9178   */\n          swap1\n          pop\n            /* \"#utility.yul\":8766:9185   */\n          swap2\n          swap1\n          pop\n          jump\t// out\n            /* \"#utility.yul\":9191:9601   */\n        tag_119:\n            /* \"#utility.yul\":9231:9238   */\n          0x00\n            /* \"#utility.yul\":9254:9274   */\n          tag_248\n            /* \"#utility.yul\":9272:9273   */\n          dup3\n            /* \"#utility.yul\":9254:9274   */\n          tag_134\n          jump\t// in\n        tag_248:\n            /* \"#utility.yul\":9249:9274   */\n          swap2\n          pop\n            /* \"#utility.yul\":9288:9308   */\n          tag_249\n            /* \"#utility.yul\":9306:9307   */\n          dup4\n            /* \"#utility.yul\":9288:9308   */\n          tag_134\n          jump\t// in\n        tag_249:\n            /* \"#utility.yul\":9283:9308   */\n          swap3\n          pop\n            /* \"#utility.yul\":9343:9344   */\n          dup3\n            /* \"#utility.yul\":9340:9341   */\n          dup3\n            /* \"#utility.yul\":9336:9345   */\n          mul\n            /* \"#utility.yul\":9365:9395   */\n          tag_250\n            /* \"#utility.yul\":9383:9394   */\n          dup2\n            /* \"#utility.yul\":9365:9395   */\n          tag_134\n          jump\t// in\n        tag_250:\n            /* \"#utility.yul\":9354:9395   */\n          swap2\n          pop\n            /* \"#utility.yul\":9544:9545   */\n          dup3\n            /* \"#utility.yul\":9535:9542   */\n          dup3\n            /* \"#utility.yul\":9531:9546   */\n          div\n            /* \"#utility.yul\":9528:9529   */\n          dup5\n            /* \"#utility.yul\":9525:9547   */\n          eq\n            /* \"#utility.yul\":9505:9506   */\n          dup4\n            /* \"#utility.yul\":9498:9507   */\n          iszero\n            /* \"#utility.yul\":9478:9561   */\n          or\n            /* \"#utility.yul\":9455:9594   */\n          tag_251\n          jumpi\n            /* \"#utility.yul\":9574:9592   */\n          tag_252\n          tag_155\n          jump\t// in\n        tag_252:\n            /* \"#utility.yul\":9455:9594   */\n        tag_251:\n            /* \"#utility.yul\":9239:9601   */\n          pop\n            /* \"#utility.yul\":9191:9601   */\n          swap3\n          swap2\n          pop\n          pop\n          jump\t// out\n            /* \"#utility.yul\":9607:9833   */\n        tag_160:\n            /* \"#utility.yul\":9747:9781   */\n          0x6f72646572206d757374206265206f6620636f72726563742073697a6520616e\n            /* \"#utility.yul\":9743:9744   */\n          0x00\n            /* \"#utility.yul\":9735:9741   */\n          dup3\n            /* \"#utility.yul\":9731:9745   */\n          add\n            /* \"#utility.yul\":9724:9782   */\n          mstore\n            /* \"#utility.yul\":9816:9825   */\n          0x6420707269636500000000000000000000000000000000000000000000000000\n            /* \"#utility.yul\":9811:9813   */\n          0x20\n            /* \"#utility.yul\":9803:9809   */\n          dup3\n            /* \"#utility.yul\":9799:9814   */\n          add\n            /* \"#utility.yul\":9792:9826   */\n          mstore\n            /* \"#utility.yul\":9607:9833   */\n          pop\n          jump\t// out\n            /* \"#utility.yul\":9839:10205   */\n        tag_161:\n            /* \"#utility.yul\":9981:9984   */\n          0x00\n            /* \"#utility.yul\":10002:10069   */\n          tag_255\n            /* \"#utility.yul\":10066:10068   */\n          0x27\n            /* \"#utility.yul\":10061:10064   */\n          dup4\n            /* \"#utility.yul\":10002:10069   */\n          tag_150\n          jump\t// in\n        tag_255:\n            /* \"#utility.yul\":9995:10069   */\n          swap2\n          pop\n            /* \"#utility.yul\":10078:10171   */\n          tag_256\n            /* \"#utility.yul\":10167:10170   */\n          dup3\n            /* \"#utility.yul\":10078:10171   */\n          tag_160\n          jump\t// in\n        tag_256:\n            /* \"#utility.yul\":10196:10198   */\n          0x40\n            /* \"#utility.yul\":10191:10194   */\n          dup3\n            /* \"#utility.yul\":10187:10199   */\n          add\n            /* \"#utility.yul\":10180:10199   */\n          swap1\n          pop\n            /* \"#utility.yul\":9839:10205   */\n          swap2\n          swap1\n          pop\n          jump\t// out\n            /* \"#utility.yul\":10211:10630   */\n        tag_122:\n            /* \"#utility.yul\":10377:10381   */\n          0x00\n            /* \"#utility.yul\":10415:10417   */\n          0x20\n            /* \"#utility.yul\":10404:10413   */\n          dup3\n            /* \"#utility.yul\":10400:10418   */\n          add\n            /* \"#utility.yul\":10392:10418   */\n          swap1\n          pop\n            /* \"#utility.yul\":10464:10473   */\n          dup2\n            /* \"#utility.yul\":10458:10462   */\n          dup2\n            /* \"#utility.yul\":10454:10474   */\n          sub\n            /* \"#utility.yul\":10450:10451   */\n          0x00\n            /* \"#utility.yul\":10439:10448   */\n          dup4\n            /* \"#utility.yul\":10435:10452   */\n          add\n            /* \"#utility.yul\":10428:10475   */\n          mstore\n            /* \"#utility.yul\":10492:10623   */\n          tag_258\n            /* \"#utility.yul\":10618:10622   */\n          dup2\n            /* \"#utility.yul\":10492:10623   */\n          tag_161\n          jump\t// in\n        tag_258:\n            /* \"#utility.yul\":10484:10623   */\n          swap1\n          pop\n            /* \"#utility.yul\":10211:10630   */\n          swap2\n          swap1\n          pop\n          jump\t// out\n            /* \"#utility.yul\":10636:10818   */\n        tag_162:\n            /* \"#utility.yul\":10776:10810   */\n          0x4f776e61626c653a2063616c6c6572206973206e6f7420746865206f776e6572\n            /* \"#utility.yul\":10772:10773   */\n          0x00\n            /* \"#utility.yul\":10764:10770   */\n          dup3\n            /* \"#utility.yul\":10760:10774   */\n          add\n            /* \"#utility.yul\":10753:10811   */\n          mstore\n            /* \"#utility.yul\":10636:10818   */\n          pop\n          jump\t// out\n            /* \"#utility.yul\":10824:11190   */\n        tag_163:\n            /* \"#utility.yul\":10966:10969   */\n          0x00\n            /* \"#utility.yul\":10987:11054   */\n          tag_261\n            /* \"#utility.yul\":11051:11053   */\n          0x20\n            /* \"#utility.yul\":11046:11049   */\n          dup4\n            /* \"#utility.yul\":10987:11054   */\n          tag_150\n          jump\t// in\n        tag_261:\n            /* \"#utility.yul\":10980:11054   */\n          swap2\n          pop\n            /* \"#utility.yul\":11063:11156   */\n          tag_262\n            /* \"#utility.yul\":11152:11155   */\n          dup3\n            /* \"#utility.yul\":11063:11156   */\n          tag_162\n          jump\t// in\n        tag_262:\n            /* \"#utility.yul\":11181:11183   */\n          0x20\n            /* \"#utility.yul\":11176:11179   */\n          dup3\n            /* \"#utility.yul\":11172:11184   */\n          add\n            /* \"#utility.yul\":11165:11184   */\n          swap1\n          pop\n            /* \"#utility.yul\":10824:11190   */\n          swap2\n          swap1\n          pop\n          jump\t// out\n            /* \"#utility.yul\":11196:11615   */\n        tag_131:\n            /* \"#utility.yul\":11362:11366   */\n          0x00\n            /* \"#utility.yul\":11400:11402   */\n          0x20\n            /* \"#utility.yul\":11389:11398   */\n          dup3\n            /* \"#utility.yul\":11385:11403   */\n          add\n            /* \"#utility.yul\":11377:11403   */\n          swap1\n          pop\n            /* \"#utility.yul\":11449:11458   */\n          dup2\n            /* \"#utility.yul\":11443:11447   */\n          dup2\n            /* \"#utility.yul\":11439:11459   */\n          sub\n            /* \"#utility.yul\":11435:11436   */\n          0x00\n            /* \"#utility.yul\":11424:11433   */\n          dup4\n            /* \"#utility.yul\":11420:11437   */\n          add\n            /* \"#utility.yul\":11413:11460   */\n          mstore\n            /* \"#utility.yul\":11477:11608   */\n          tag_264\n            /* \"#utility.yul\":11603:11607   */\n          dup2\n            /* \"#utility.yul\":11477:11608   */\n          tag_163\n          jump\t// in\n        tag_264:\n            /* \"#utility.yul\":11469:11608   */\n          swap1\n          pop\n            /* \"#utility.yul\":11196:11615   */\n          swap2\n          swap1\n          pop\n          jump\t// out\n\n        auxdata: 0xa264697066735822122054c9d5319a59f92245bc419bfdc172a444db551bda393fab8779398f62d546fc64736f6c63430008110033\n    }\n}\n",
				"bytecode": {
					"linkReferences": {},
					"object": "60a060405234801561001057600080fd5b5060405161001d90610072565b604051809103906000f080158015610039573d6000803e3d6000fd5b5073ffffffffffffffffffffffffffffffffffffffff1660808173ffffffffffffffffffffffffffffffffffffffff168152505061007f565b61108080610a2683390190565b60805161098d610099600039600060ca015261098d6000f3fe608060405234801561001057600080fd5b50600436106100415760003560e01c8063594659f5146100465780637b6833c314610076578063a1d861a914610092575b600080fd5b610060600480360381019061005b919061058f565b6100c2565b60405161006d919061064b565b60405180910390f35b610090600480360381019061008b9190610692565b610281565b005b6100ac60048036038101906100a79190610692565b610444565b6040516100b991906106da565b60405180910390f35b6000806100ee7f0000000000000000000000000000000000000000000000000000000000000000610464565b90508073ffffffffffffffffffffffffffffffffffffffff1663c8dde8073389898989896040518763ffffffff1660e01b815260040161013396959493929190610713565b600060405180830381600087803b15801561014d57600080fd5b505af1158015610161573d6000803e3d6000fd5b505050506000819080600181540180825580915050600190039060005260206000200160009091909190916101000a81548173ffffffffffffffffffffffffffffffffffffffff021916908373ffffffffffffffffffffffffffffffffffffffff16021790555060018060008373ffffffffffffffffffffffffffffffffffffffff1673ffffffffffffffffffffffffffffffffffffffff16815260200190815260200160002060006101000a81548160ff0219169083151502179055506001600260003373ffffffffffffffffffffffffffffffffffffffff1673ffffffffffffffffffffffffffffffffffffffff16815260200190815260200160002060006101000a81548160ff0219169083151502179055505095945050505050565b600160008273ffffffffffffffffffffffffffffffffffffffff1673ffffffffffffffffffffffffffffffffffffffff16815260200190815260200160002060009054906101000a900460ff1661030d576040517f08c379a0000000000000000000000000000000000000000000000000000000008152600401610304906107f7565b60405180910390fd5b3373ffffffffffffffffffffffffffffffffffffffff168173ffffffffffffffffffffffffffffffffffffffff16638da5cb5b6040518163ffffffff1660e01b8152600401602060405180830381865afa15801561036f573d6000803e3d6000fd5b505050506040513d601f19601f82011682018060405250810190610393919061082c565b73ffffffffffffffffffffffffffffffffffffffff16146103e9576040517f08c379a00000000000000000000000000000000000000000000000000000000081526004016103e0906108cb565b60405180910390fd5b6000600160008373ffffffffffffffffffffffffffffffffffffffff1673ffffffffffffffffffffffffffffffffffffffff16815260200190815260200160002060006101000a81548160ff02191690831515021790555050565b60026020528060005260406000206000915054906101000a900460ff1681565b6000763d602d80600a3d3981f3363d3d373d3d3d363d730000008260601b60e81c176000526e5af43d82803e903d91602b57fd5bf38260781b17602052603760096000f09050600073ffffffffffffffffffffffffffffffffffffffff168173ffffffffffffffffffffffffffffffffffffffff1603610519576040517f08c379a000000000000000000000000000000000000000000000000000000000815260040161051090610937565b60405180910390fd5b919050565b600080fd5b6000819050919050565b61053681610523565b811461054157600080fd5b50565b6000813590506105538161052d565b92915050565b6000819050919050565b61056c81610559565b811461057757600080fd5b50565b60008135905061058981610563565b92915050565b600080600080600060a086880312156105ab576105aa61051e565b5b60006105b988828901610544565b95505060206105ca88828901610544565b94505060406105db88828901610544565b93505060606105ec8882890161057a565b92505060806105fd88828901610544565b9150509295509295909350565b600073ffffffffffffffffffffffffffffffffffffffff82169050919050565b60006106358261060a565b9050919050565b6106458161062a565b82525050565b6000602082019050610660600083018461063c565b92915050565b61066f8161062a565b811461067a57600080fd5b50565b60008135905061068c81610666565b92915050565b6000602082840312156106a8576106a761051e565b5b60006106b68482850161067d565b91505092915050565b60008115159050919050565b6106d4816106bf565b82525050565b60006020820190506106ef60008301846106cb565b92915050565b6106fe81610523565b82525050565b61070d81610559565b82525050565b600060c082019050610728600083018961063c565b61073560208301886106f5565b61074260408301876106f5565b61074f60608301866106f5565b61075c6080830185610704565b61076960a08301846106f5565b979650505050505050565b600082825260208201905092915050565b7f546869732070726f64756365206973206e6f74206c6973746564206f6e20746860008201527f65204d61726b6574000000000000000000000000000000000000000000000000602082015250565b60006107e1602883610774565b91506107ec82610785565b604082019050919050565b60006020820190508181036000830152610810816107d4565b9050919050565b60008151905061082681610666565b92915050565b6000602082840312156108425761084161051e565b5b600061085084828501610817565b91505092915050565b7f4f6e6c792070726f64756365206f776e65722063616e2072656d6f766520707260008201527f6f647563652066726f6d204d61726b6574000000000000000000000000000000602082015250565b60006108b5603183610774565b91506108c082610859565b604082019050919050565b600060208201905081810360008301526108e4816108a8565b9050919050565b7f455243313136373a20637265617465206661696c656400000000000000000000600082015250565b6000610921601683610774565b915061092c826108eb565b602082019050919050565b6000602082019050818103600083015261095081610914565b905091905056fea26469706673582212202778a2f27a8c6598d56143b0a21d2299f3f4a012d90c224c95f6a3495595b1da64736f6c63430008110033608060405234801561001057600080fd5b5061002d61002261005d60201b60201c565b61006560201b60201c565b6000600960006101000a81548160ff0219169083600181111561005357610052610129565b5b0217905550610158565b600033905090565b60008060009054906101000a900473ffffffffffffffffffffffffffffffffffffffff169050816000806101000a81548173ffffffffffffffffffffffffffffffffffffffff021916908373ffffffffffffffffffffffffffffffffffffffff1602179055508173ffffffffffffffffffffffffffffffffffffffff168173ffffffffffffffffffffffffffffffffffffffff167f8be0079c531659141344cd1fd0a4f28419497f9722a3daafe3b4186f6b6457e060405160405180910390a35050565b7f4e487b7100000000000000000000000000000000000000000000000000000000600052602160045260246000fd5b610f19806101676000396000f3fe6080604052600436106100c25760003560e01c8063a035b1fe1161007f578063d32dacc111610059578063d32dacc114610234578063d811fcf01461025f578063f2fde38b1461028a578063f5c609e0146102b3576100c2565b8063a035b1fe146101b5578063aa8c217c146101e0578063c8dde8071461020b576100c2565b806306fdde03146100c7578063530d124e146100f25780636d86b8a51461011d578063715018a61461014857806380f556051461015f5780638da5cb5b1461018a575b600080fd5b3480156100d357600080fd5b506100dc6102bd565b6040516100e99190610892565b60405180910390f35b3480156100fe57600080fd5b506101076102c3565b6040516101149190610892565b60405180910390f35b34801561012957600080fd5b506101326102c9565b60405161013f9190610892565b60405180910390f35b34801561015457600080fd5b5061015d6102cf565b005b34801561016b57600080fd5b506101746102e3565b60405161018191906108ee565b60405180910390f35b34801561019657600080fd5b5061019f610309565b6040516101ac91906108ee565b60405180910390f35b3480156101c157600080fd5b506101ca610332565b6040516101d79190610892565b60405180910390f35b3480156101ec57600080fd5b506101f5610338565b6040516102029190610922565b60405180910390f35b34801561021757600080fd5b50610232600480360381019061022d91906109c6565b61033e565b005b34801561024057600080fd5b50610249610454565b60405161025691906108ee565b60405180910390f35b34801561026b57600080fd5b50610274610548565b60405161028191906108ee565b60405180910390f35b34801561029657600080fd5b506102b160048036038101906102ac9190610a53565b61056e565b005b6102bb6105f1565b005b60055481565b60045481565b60075481565b6102d761072f565b6102e160006107ad565b565b600260009054906101000a900473ffffffffffffffffffffffffffffffffffffffff1681565b60008060009054906101000a900473ffffffffffffffffffffffffffffffffffffffff16905090565b60065481565b60085481565b6000600181111561035257610351610a80565b5b600960009054906101000a900460ff16600181111561037457610373610a80565b5b146103b4576040517f08c379a00000000000000000000000000000000000000000000000000000000081526004016103ab90610b32565b60405180910390fd5b6103bd866107ad565b33600260006101000a81548173ffffffffffffffffffffffffffffffffffffffff021916908373ffffffffffffffffffffffffffffffffffffffff16021790555080600481905550846005819055508360068190555082600781905550816008819055506001600960006101000a81548160ff0219169083600181111561044757610446610a80565b5b0217905550505050505050565b600061045e61072f565b6000600380549050116104a6576040517f08c379a000000000000000000000000000000000000000000000000000000000815260040161049d90610b9e565b60405180910390fd5b6000600360016003805490506104bc9190610bed565b815481106104cd576104cc610c21565b5b9060005260206000200160009054906101000a900473ffffffffffffffffffffffffffffffffffffffff169050600380548061050c5761050b610c50565b5b6001900381819060005260206000200160006101000a81549073ffffffffffffffffffffffffffffffffffffffff021916905590558091505090565b600160009054906101000a900473ffffffffffffffffffffffffffffffffffffffff1681565b61057661072f565b600073ffffffffffffffffffffffffffffffffffffffff168173ffffffffffffffffffffffffffffffffffffffff16036105e5576040517f08c379a00000000000000000000000000000000000000000000000000000000081526004016105dc90610cf1565b60405180910390fd5b6105ee816107ad565b50565b6105f9610309565b73ffffffffffffffffffffffffffffffffffffffff163373ffffffffffffffffffffffffffffffffffffffff1603610666576040517f08c379a000000000000000000000000000000000000000000000000000000000815260040161065d90610d83565b60405180910390fd5b6006546007546106769190610da3565b34146106b7576040517f08c379a00000000000000000000000000000000000000000000000000000000081526004016106ae90610e57565b60405180910390fd5b600454600380549050106106ca57600080fd5b6003339080600181540180825580915050600190039060005260206000200160009091909190916101000a81548173ffffffffffffffffffffffffffffffffffffffff021916908373ffffffffffffffffffffffffffffffffffffffff160217905550565b610737610871565b73ffffffffffffffffffffffffffffffffffffffff16610755610309565b73ffffffffffffffffffffffffffffffffffffffff16146107ab576040517f08c379a00000000000000000000000000000000000000000000000000000000081526004016107a290610ec3565b60405180910390fd5b565b60008060009054906101000a900473ffffffffffffffffffffffffffffffffffffffff169050816000806101000a81548173ffffffffffffffffffffffffffffffffffffffff021916908373ffffffffffffffffffffffffffffffffffffffff1602179055508173ffffffffffffffffffffffffffffffffffffffff168173ffffffffffffffffffffffffffffffffffffffff167f8be0079c531659141344cd1fd0a4f28419497f9722a3daafe3b4186f6b6457e060405160405180910390a35050565b600033905090565b6000819050919050565b61088c81610879565b82525050565b60006020820190506108a76000830184610883565b92915050565b600073ffffffffffffffffffffffffffffffffffffffff82169050919050565b60006108d8826108ad565b9050919050565b6108e8816108cd565b82525050565b600060208201905061090360008301846108df565b92915050565b6000819050919050565b61091c81610909565b82525050565b60006020820190506109376000830184610913565b92915050565b600080fd5b61094b816108cd565b811461095657600080fd5b50565b60008135905061096881610942565b92915050565b61097781610879565b811461098257600080fd5b50565b6000813590506109948161096e565b92915050565b6109a381610909565b81146109ae57600080fd5b50565b6000813590506109c08161099a565b92915050565b60008060008060008060c087890312156109e3576109e261093d565b5b60006109f189828a01610959565b9650506020610a0289828a01610985565b9550506040610a1389828a01610985565b9450506060610a2489828a01610985565b9350506080610a3589828a016109b1565b92505060a0610a4689828a01610985565b9150509295509295509295565b600060208284031215610a6957610a6861093d565b5b6000610a7784828501610959565b91505092915050565b7f4e487b7100000000000000000000000000000000000000000000000000000000600052602160045260246000fd5b600082825260208201905092915050565b7f546869732070726f647563652068617320616c7265616479206265656e20696e60008201527f6974696c697a6564000000000000000000000000000000000000000000000000602082015250565b6000610b1c602883610aaf565b9150610b2782610ac0565b604082019050919050565b60006020820190508181036000830152610b4b81610b0f565b9050919050565b7f4e6f206f726465727320746f2074616b65000000000000000000000000000000600082015250565b6000610b88601183610aaf565b9150610b9382610b52565b602082019050919050565b60006020820190508181036000830152610bb781610b7b565b9050919050565b7f4e487b7100000000000000000000000000000000000000000000000000000000600052601160045260246000fd5b6000610bf882610879565b9150610c0383610879565b9250828203905081811115610c1b57610c1a610bbe565b5b92915050565b7f4e487b7100000000000000000000000000000000000000000000000000000000600052603260045260246000fd5b7f4e487b7100000000000000000000000000000000000000000000000000000000600052603160045260246000fd5b7f4f776e61626c653a206e6577206f776e657220697320746865207a65726f206160008201527f6464726573730000000000000000000000000000000000000000000000000000602082015250565b6000610cdb602683610aaf565b9150610ce682610c7f565b604082019050919050565b60006020820190508181036000830152610d0a81610cce565b9050919050565b7f6661726d65722063616e6e6f7420706c616365206f7264657220666f7220746860008201527f656972206f776e2070726f647563650000000000000000000000000000000000602082015250565b6000610d6d602f83610aaf565b9150610d7882610d11565b604082019050919050565b60006020820190508181036000830152610d9c81610d60565b9050919050565b6000610dae82610879565b9150610db983610879565b9250828202610dc781610879565b91508282048414831517610dde57610ddd610bbe565b5b5092915050565b7f6f72646572206d757374206265206f6620636f72726563742073697a6520616e60008201527f6420707269636500000000000000000000000000000000000000000000000000602082015250565b6000610e41602783610aaf565b9150610e4c82610de5565b604082019050919050565b60006020820190508181036000830152610e7081610e34565b9050919050565b7f4f776e61626c653a2063616c6c6572206973206e6f7420746865206f776e6572600082015250565b6000610ead602083610aaf565b9150610eb882610e77565b602082019050919050565b60006020820190508181036000830152610edc81610ea0565b905091905056fea264697066735822122054c9d5319a59f92245bc419bfdc172a444db551bda393fab8779398f62d546fc64736f6c63430008110033",
					"opcodes": "PUSH1 0xA0 PUSH1 0x40 MSTORE CALLVALUE DUP1 ISZERO PUSH2 0x10 JUMPI PUSH1 0x0 DUP1 REVERT JUMPDEST POP PUSH1 0x40 MLOAD PUSH2 0x1D SWAP1 PUSH2 0x72 JUMP JUMPDEST PUSH1 0x40 MLOAD DUP1 SWAP2 SUB SWAP1 PUSH1 0x0 CREATE DUP1 ISZERO DUP1 ISZERO PUSH2 0x39 JUMPI RETURNDATASIZE PUSH1 0x0 DUP1 RETURNDATACOPY RETURNDATASIZE PUSH1 0x0 REVERT JUMPDEST POP PUSH20 0xFFFFFFFFFFFFFFFFFFFFFFFFFFFFFFFFFFFFFFFF AND PUSH1 0x80 DUP2 PUSH20 0xFFFFFFFFFFFFFFFFFFFFFFFFFFFFFFFFFFFFFFFF AND DUP2 MSTORE POP POP PUSH2 0x7F JUMP JUMPDEST PUSH2 0x1080 DUP1 PUSH2 0xA26 DUP4 CODECOPY ADD SWAP1 JUMP JUMPDEST PUSH1 0x80 MLOAD PUSH2 0x98D PUSH2 0x99 PUSH1 0x0 CODECOPY PUSH1 0x0 PUSH1 0xCA ADD MSTORE PUSH2 0x98D PUSH1 0x0 RETURN INVALID PUSH1 0x80 PUSH1 0x40 MSTORE CALLVALUE DUP1 ISZERO PUSH2 0x10 JUMPI PUSH1 0x0 DUP1 REVERT JUMPDEST POP PUSH1 0x4 CALLDATASIZE LT PUSH2 0x41 JUMPI PUSH1 0x0 CALLDATALOAD PUSH1 0xE0 SHR DUP1 PUSH4 0x594659F5 EQ PUSH2 0x46 JUMPI DUP1 PUSH4 0x7B6833C3 EQ PUSH2 0x76 JUMPI DUP1 PUSH4 0xA1D861A9 EQ PUSH2 0x92 JUMPI JUMPDEST PUSH1 0x0 DUP1 REVERT JUMPDEST PUSH2 0x60 PUSH1 0x4 DUP1 CALLDATASIZE SUB DUP2 ADD SWAP1 PUSH2 0x5B SWAP2 SWAP1 PUSH2 0x58F JUMP JUMPDEST PUSH2 0xC2 JUMP JUMPDEST PUSH1 0x40 MLOAD PUSH2 0x6D SWAP2 SWAP1 PUSH2 0x64B JUMP JUMPDEST PUSH1 0x40 MLOAD DUP1 SWAP2 SUB SWAP1 RETURN JUMPDEST PUSH2 0x90 PUSH1 0x4 DUP1 CALLDATASIZE SUB DUP2 ADD SWAP1 PUSH2 0x8B SWAP2 SWAP1 PUSH2 0x692 JUMP JUMPDEST PUSH2 0x281 JUMP JUMPDEST STOP JUMPDEST PUSH2 0xAC PUSH1 0x4 DUP1 CALLDATASIZE SUB DUP2 ADD SWAP1 PUSH2 0xA7 SWAP2 SWAP1 PUSH2 0x692 JUMP JUMPDEST PUSH2 0x444 JUMP JUMPDEST PUSH1 0x40 MLOAD PUSH2 0xB9 SWAP2 SWAP1 PUSH2 0x6DA JUMP JUMPDEST PUSH1 0x40 MLOAD DUP1 SWAP2 SUB SWAP1 RETURN JUMPDEST PUSH1 0x0 DUP1 PUSH2 0xEE PUSH32 0x0 PUSH2 0x464 JUMP JUMPDEST SWAP1 POP DUP1 PUSH20 0xFFFFFFFFFFFFFFFFFFFFFFFFFFFFFFFFFFFFFFFF AND PUSH4 0xC8DDE807 CALLER DUP10 DUP10 DUP10 DUP10 DUP10 PUSH1 0x40 MLOAD DUP8 PUSH4 0xFFFFFFFF AND PUSH1 0xE0 SHL DUP2 MSTORE PUSH1 0x4 ADD PUSH2 0x133 SWAP7 SWAP6 SWAP5 SWAP4 SWAP3 SWAP2 SWAP1 PUSH2 0x713 JUMP JUMPDEST PUSH1 0x0 PUSH1 0x40 MLOAD DUP1 DUP4 SUB DUP2 PUSH1 0x0 DUP8 DUP1 EXTCODESIZE ISZERO DUP1 ISZERO PUSH2 0x14D JUMPI PUSH1 0x0 DUP1 REVERT JUMPDEST POP GAS CALL ISZERO DUP1 ISZERO PUSH2 0x161 JUMPI RETURNDATASIZE PUSH1 0x0 DUP1 RETURNDATACOPY RETURNDATASIZE PUSH1 0x0 REVERT JUMPDEST POP POP POP POP PUSH1 0x0 DUP2 SWAP1 DUP1 PUSH1 0x1 DUP2 SLOAD ADD DUP1 DUP3 SSTORE DUP1 SWAP2 POP POP PUSH1 0x1 SWAP1 SUB SWAP1 PUSH1 0x0 MSTORE PUSH1 0x20 PUSH1 0x0 KECCAK256 ADD PUSH1 0x0 SWAP1 SWAP2 SWAP1 SWAP2 SWAP1 SWAP2 PUSH2 0x100 EXP DUP2 SLOAD DUP2 PUSH20 0xFFFFFFFFFFFFFFFFFFFFFFFFFFFFFFFFFFFFFFFF MUL NOT AND SWAP1 DUP4 PUSH20 0xFFFFFFFFFFFFFFFFFFFFFFFFFFFFFFFFFFFFFFFF AND MUL OR SWAP1 SSTORE POP PUSH1 0x1 DUP1 PUSH1 0x0 DUP4 PUSH20 0xFFFFFFFFFFFFFFFFFFFFFFFFFFFFFFFFFFFFFFFF AND PUSH20 0xFFFFFFFFFFFFFFFFFFFFFFFFFFFFFFFFFFFFFFFF AND DUP2 MSTORE PUSH1 0x20 ADD SWAP1 DUP2 MSTORE PUSH1 0x20 ADD PUSH1 0x0 KECCAK256 PUSH1 0x0 PUSH2 0x100 EXP DUP2 SLOAD DUP2 PUSH1 0xFF MUL NOT AND SWAP1 DUP4 ISZERO ISZERO MUL OR SWAP1 SSTORE POP PUSH1 0x1 PUSH1 0x2 PUSH1 0x0 CALLER PUSH20 0xFFFFFFFFFFFFFFFFFFFFFFFFFFFFFFFFFFFFFFFF AND PUSH20 0xFFFFFFFFFFFFFFFFFFFFFFFFFFFFFFFFFFFFFFFF AND DUP2 MSTORE PUSH1 0x20 ADD SWAP1 DUP2 MSTORE PUSH1 0x20 ADD PUSH1 0x0 KECCAK256 PUSH1 0x0 PUSH2 0x100 EXP DUP2 SLOAD DUP2 PUSH1 0xFF MUL NOT AND SWAP1 DUP4 ISZERO ISZERO MUL OR SWAP1 SSTORE POP POP SWAP6 SWAP5 POP POP POP POP POP JUMP JUMPDEST PUSH1 0x1 PUSH1 0x0 DUP3 PUSH20 0xFFFFFFFFFFFFFFFFFFFFFFFFFFFFFFFFFFFFFFFF AND PUSH20 0xFFFFFFFFFFFFFFFFFFFFFFFFFFFFFFFFFFFFFFFF AND DUP2 MSTORE PUSH1 0x20 ADD SWAP1 DUP2 MSTORE PUSH1 0x20 ADD PUSH1 0x0 KECCAK256 PUSH1 0x0 SWAP1 SLOAD SWAP1 PUSH2 0x100 EXP SWAP1 DIV PUSH1 0xFF AND PUSH2 0x30D JUMPI PUSH1 0x40 MLOAD PUSH32 0x8C379A000000000000000000000000000000000000000000000000000000000 DUP2 MSTORE PUSH1 0x4 ADD PUSH2 0x304 SWAP1 PUSH2 0x7F7 JUMP JUMPDEST PUSH1 0x40 MLOAD DUP1 SWAP2 SUB SWAP1 REVERT JUMPDEST CALLER PUSH20 0xFFFFFFFFFFFFFFFFFFFFFFFFFFFFFFFFFFFFFFFF AND DUP2 PUSH20 0xFFFFFFFFFFFFFFFFFFFFFFFFFFFFFFFFFFFFFFFF AND PUSH4 0x8DA5CB5B PUSH1 0x40 MLOAD DUP2 PUSH4 0xFFFFFFFF AND PUSH1 0xE0 SHL DUP2 MSTORE PUSH1 0x4 ADD PUSH1 0x20 PUSH1 0x40 MLOAD DUP1 DUP4 SUB DUP2 DUP7 GAS STATICCALL ISZERO DUP1 ISZERO PUSH2 0x36F JUMPI RETURNDATASIZE PUSH1 0x0 DUP1 RETURNDATACOPY RETURNDATASIZE PUSH1 0x0 REVERT JUMPDEST POP POP POP POP PUSH1 0x40 MLOAD RETURNDATASIZE PUSH1 0x1F NOT PUSH1 0x1F DUP3 ADD AND DUP3 ADD DUP1 PUSH1 0x40 MSTORE POP DUP2 ADD SWAP1 PUSH2 0x393 SWAP2 SWAP1 PUSH2 0x82C JUMP JUMPDEST PUSH20 0xFFFFFFFFFFFFFFFFFFFFFFFFFFFFFFFFFFFFFFFF AND EQ PUSH2 0x3E9 JUMPI PUSH1 0x40 MLOAD PUSH32 0x8C379A000000000000000000000000000000000000000000000000000000000 DUP2 MSTORE PUSH1 0x4 ADD PUSH2 0x3E0 SWAP1 PUSH2 0x8CB JUMP JUMPDEST PUSH1 0x40 MLOAD DUP1 SWAP2 SUB SWAP1 REVERT JUMPDEST PUSH1 0x0 PUSH1 0x1 PUSH1 0x0 DUP4 PUSH20 0xFFFFFFFFFFFFFFFFFFFFFFFFFFFFFFFFFFFFFFFF AND PUSH20 0xFFFFFFFFFFFFFFFFFFFFFFFFFFFFFFFFFFFFFFFF AND DUP2 MSTORE PUSH1 0x20 ADD SWAP1 DUP2 MSTORE PUSH1 0x20 ADD PUSH1 0x0 KECCAK256 PUSH1 0x0 PUSH2 0x100 EXP DUP2 SLOAD DUP2 PUSH1 0xFF MUL NOT AND SWAP1 DUP4 ISZERO ISZERO MUL OR SWAP1 SSTORE POP POP JUMP JUMPDEST PUSH1 0x2 PUSH1 0x20 MSTORE DUP1 PUSH1 0x0 MSTORE PUSH1 0x40 PUSH1 0x0 KECCAK256 PUSH1 0x0 SWAP2 POP SLOAD SWAP1 PUSH2 0x100 EXP SWAP1 DIV PUSH1 0xFF AND DUP2 JUMP JUMPDEST PUSH1 0x0 PUSH23 0x3D602D80600A3D3981F3363D3D373D3D3D363D73000000 DUP3 PUSH1 0x60 SHL PUSH1 0xE8 SHR OR PUSH1 0x0 MSTORE PUSH15 0x5AF43D82803E903D91602B57FD5BF3 DUP3 PUSH1 0x78 SHL OR PUSH1 0x20 MSTORE PUSH1 0x37 PUSH1 0x9 PUSH1 0x0 CREATE SWAP1 POP PUSH1 0x0 PUSH20 0xFFFFFFFFFFFFFFFFFFFFFFFFFFFFFFFFFFFFFFFF AND DUP2 PUSH20 0xFFFFFFFFFFFFFFFFFFFFFFFFFFFFFFFFFFFFFFFF AND SUB PUSH2 0x519 JUMPI PUSH1 0x40 MLOAD PUSH32 0x8C379A000000000000000000000000000000000000000000000000000000000 DUP2 MSTORE PUSH1 0x4 ADD PUSH2 0x510 SWAP1 PUSH2 0x937 JUMP JUMPDEST PUSH1 0x40 MLOAD DUP1 SWAP2 SUB SWAP1 REVERT JUMPDEST SWAP2 SWAP1 POP JUMP JUMPDEST PUSH1 0x0 DUP1 REVERT JUMPDEST PUSH1 0x0 DUP2 SWAP1 POP SWAP2 SWAP1 POP JUMP JUMPDEST PUSH2 0x536 DUP2 PUSH2 0x523 JUMP JUMPDEST DUP2 EQ PUSH2 0x541 JUMPI PUSH1 0x0 DUP1 REVERT JUMPDEST POP JUMP JUMPDEST PUSH1 0x0 DUP2 CALLDATALOAD SWAP1 POP PUSH2 0x553 DUP2 PUSH2 0x52D JUMP JUMPDEST SWAP3 SWAP2 POP POP JUMP JUMPDEST PUSH1 0x0 DUP2 SWAP1 POP SWAP2 SWAP1 POP JUMP JUMPDEST PUSH2 0x56C DUP2 PUSH2 0x559 JUMP JUMPDEST DUP2 EQ PUSH2 0x577 JUMPI PUSH1 0x0 DUP1 REVERT JUMPDEST POP JUMP JUMPDEST PUSH1 0x0 DUP2 CALLDATALOAD SWAP1 POP PUSH2 0x589 DUP2 PUSH2 0x563 JUMP JUMPDEST SWAP3 SWAP2 POP POP JUMP JUMPDEST PUSH1 0x0 DUP1 PUSH1 0x0 DUP1 PUSH1 0x0 PUSH1 0xA0 DUP7 DUP9 SUB SLT ISZERO PUSH2 0x5AB JUMPI PUSH2 0x5AA PUSH2 0x51E JUMP JUMPDEST JUMPDEST PUSH1 0x0 PUSH2 0x5B9 DUP9 DUP3 DUP10 ADD PUSH2 0x544 JUMP JUMPDEST SWAP6 POP POP PUSH1 0x20 PUSH2 0x5CA DUP9 DUP3 DUP10 ADD PUSH2 0x544 JUMP JUMPDEST SWAP5 POP POP PUSH1 0x40 PUSH2 0x5DB DUP9 DUP3 DUP10 ADD PUSH2 0x544 JUMP JUMPDEST SWAP4 POP POP PUSH1 0x60 PUSH2 0x5EC DUP9 DUP3 DUP10 ADD PUSH2 0x57A JUMP JUMPDEST SWAP3 POP POP PUSH1 0x80 PUSH2 0x5FD DUP9 DUP3 DUP10 ADD PUSH2 0x544 JUMP JUMPDEST SWAP2 POP POP SWAP3 SWAP6 POP SWAP3 SWAP6 SWAP1 SWAP4 POP JUMP JUMPDEST PUSH1 0x0 PUSH20 0xFFFFFFFFFFFFFFFFFFFFFFFFFFFFFFFFFFFFFFFF DUP3 AND SWAP1 POP SWAP2 SWAP1 POP JUMP JUMPDEST PUSH1 0x0 PUSH2 0x635 DUP3 PUSH2 0x60A JUMP JUMPDEST SWAP1 POP SWAP2 SWAP1 POP JUMP JUMPDEST PUSH2 0x645 DUP2 PUSH2 0x62A JUMP JUMPDEST DUP3 MSTORE POP POP JUMP JUMPDEST PUSH1 0x0 PUSH1 0x20 DUP3 ADD SWAP1 POP PUSH2 0x660 PUSH1 0x0 DUP4 ADD DUP5 PUSH2 0x63C JUMP JUMPDEST SWAP3 SWAP2 POP POP JUMP JUMPDEST PUSH2 0x66F DUP2 PUSH2 0x62A JUMP JUMPDEST DUP2 EQ PUSH2 0x67A JUMPI PUSH1 0x0 DUP1 REVERT JUMPDEST POP JUMP JUMPDEST PUSH1 0x0 DUP2 CALLDATALOAD SWAP1 POP PUSH2 0x68C DUP2 PUSH2 0x666 JUMP JUMPDEST SWAP3 SWAP2 POP POP JUMP JUMPDEST PUSH1 0x0 PUSH1 0x20 DUP3 DUP5 SUB SLT ISZERO PUSH2 0x6A8 JUMPI PUSH2 0x6A7 PUSH2 0x51E JUMP JUMPDEST JUMPDEST PUSH1 0x0 PUSH2 0x6B6 DUP5 DUP3 DUP6 ADD PUSH2 0x67D JUMP JUMPDEST SWAP2 POP POP SWAP3 SWAP2 POP POP JUMP JUMPDEST PUSH1 0x0 DUP2 ISZERO ISZERO SWAP1 POP SWAP2 SWAP1 POP JUMP JUMPDEST PUSH2 0x6D4 DUP2 PUSH2 0x6BF JUMP JUMPDEST DUP3 MSTORE POP POP JUMP JUMPDEST PUSH1 0x0 PUSH1 0x20 DUP3 ADD SWAP1 POP PUSH2 0x6EF PUSH1 0x0 DUP4 ADD DUP5 PUSH2 0x6CB JUMP JUMPDEST SWAP3 SWAP2 POP POP JUMP JUMPDEST PUSH2 0x6FE DUP2 PUSH2 0x523 JUMP JUMPDEST DUP3 MSTORE POP POP JUMP JUMPDEST PUSH2 0x70D DUP2 PUSH2 0x559 JUMP JUMPDEST DUP3 MSTORE POP POP JUMP JUMPDEST PUSH1 0x0 PUSH1 0xC0 DUP3 ADD SWAP1 POP PUSH2 0x728 PUSH1 0x0 DUP4 ADD DUP10 PUSH2 0x63C JUMP JUMPDEST PUSH2 0x735 PUSH1 0x20 DUP4 ADD DUP9 PUSH2 0x6F5 JUMP JUMPDEST PUSH2 0x742 PUSH1 0x40 DUP4 ADD DUP8 PUSH2 0x6F5 JUMP JUMPDEST PUSH2 0x74F PUSH1 0x60 DUP4 ADD DUP7 PUSH2 0x6F5 JUMP JUMPDEST PUSH2 0x75C PUSH1 0x80 DUP4 ADD DUP6 PUSH2 0x704 JUMP JUMPDEST PUSH2 0x769 PUSH1 0xA0 DUP4 ADD DUP5 PUSH2 0x6F5 JUMP JUMPDEST SWAP8 SWAP7 POP POP POP POP POP POP POP JUMP JUMPDEST PUSH1 0x0 DUP3 DUP3 MSTORE PUSH1 0x20 DUP3 ADD SWAP1 POP SWAP3 SWAP2 POP POP JUMP JUMPDEST PUSH32 0x546869732070726F64756365206973206E6F74206C6973746564206F6E207468 PUSH1 0x0 DUP3 ADD MSTORE PUSH32 0x65204D61726B6574000000000000000000000000000000000000000000000000 PUSH1 0x20 DUP3 ADD MSTORE POP JUMP JUMPDEST PUSH1 0x0 PUSH2 0x7E1 PUSH1 0x28 DUP4 PUSH2 0x774 JUMP JUMPDEST SWAP2 POP PUSH2 0x7EC DUP3 PUSH2 0x785 JUMP JUMPDEST PUSH1 0x40 DUP3 ADD SWAP1 POP SWAP2 SWAP1 POP JUMP JUMPDEST PUSH1 0x0 PUSH1 0x20 DUP3 ADD SWAP1 POP DUP2 DUP2 SUB PUSH1 0x0 DUP4 ADD MSTORE PUSH2 0x810 DUP2 PUSH2 0x7D4 JUMP JUMPDEST SWAP1 POP SWAP2 SWAP1 POP JUMP JUMPDEST PUSH1 0x0 DUP2 MLOAD SWAP1 POP PUSH2 0x826 DUP2 PUSH2 0x666 JUMP JUMPDEST SWAP3 SWAP2 POP POP JUMP JUMPDEST PUSH1 0x0 PUSH1 0x20 DUP3 DUP5 SUB SLT ISZERO PUSH2 0x842 JUMPI PUSH2 0x841 PUSH2 0x51E JUMP JUMPDEST JUMPDEST PUSH1 0x0 PUSH2 0x850 DUP5 DUP3 DUP6 ADD PUSH2 0x817 JUMP JUMPDEST SWAP2 POP POP SWAP3 SWAP2 POP POP JUMP JUMPDEST PUSH32 0x4F6E6C792070726F64756365206F776E65722063616E2072656D6F7665207072 PUSH1 0x0 DUP3 ADD MSTORE PUSH32 0x6F647563652066726F6D204D61726B6574000000000000000000000000000000 PUSH1 0x20 DUP3 ADD MSTORE POP JUMP JUMPDEST PUSH1 0x0 PUSH2 0x8B5 PUSH1 0x31 DUP4 PUSH2 0x774 JUMP JUMPDEST SWAP2 POP PUSH2 0x8C0 DUP3 PUSH2 0x859 JUMP JUMPDEST PUSH1 0x40 DUP3 ADD SWAP1 POP SWAP2 SWAP1 POP JUMP JUMPDEST PUSH1 0x0 PUSH1 0x20 DUP3 ADD SWAP1 POP DUP2 DUP2 SUB PUSH1 0x0 DUP4 ADD MSTORE PUSH2 0x8E4 DUP2 PUSH2 0x8A8 JUMP JUMPDEST SWAP1 POP SWAP2 SWAP1 POP JUMP JUMPDEST PUSH32 0x455243313136373A20637265617465206661696C656400000000000000000000 PUSH1 0x0 DUP3 ADD MSTORE POP JUMP JUMPDEST PUSH1 0x0 PUSH2 0x921 PUSH1 0x16 DUP4 PUSH2 0x774 JUMP JUMPDEST SWAP2 POP PUSH2 0x92C DUP3 PUSH2 0x8EB JUMP JUMPDEST PUSH1 0x20 DUP3 ADD SWAP1 POP SWAP2 SWAP1 POP JUMP JUMPDEST PUSH1 0x0 PUSH1 0x20 DUP3 ADD SWAP1 POP DUP2 DUP2 SUB PUSH1 0x0 DUP4 ADD MSTORE PUSH2 0x950 DUP2 PUSH2 0x914 JUMP JUMPDEST SWAP1 POP SWAP2 SWAP1 POP JUMP INVALID LOG2 PUSH5 0x6970667358 0x22 SLT KECCAK256 0x27 PUSH25 0xA2F27A8C6598D56143B0A21D2299F3F4A012D90C224C95F6A3 0x49 SSTORE SWAP6 0xB1 0xDA PUSH5 0x736F6C6343 STOP ADDMOD GT STOP CALLER PUSH1 0x80 PUSH1 0x40 MSTORE CALLVALUE DUP1 ISZERO PUSH2 0x10 JUMPI PUSH1 0x0 DUP1 REVERT JUMPDEST POP PUSH2 0x2D PUSH2 0x22 PUSH2 0x5D PUSH1 0x20 SHL PUSH1 0x20 SHR JUMP JUMPDEST PUSH2 0x65 PUSH1 0x20 SHL PUSH1 0x20 SHR JUMP JUMPDEST PUSH1 0x0 PUSH1 0x9 PUSH1 0x0 PUSH2 0x100 EXP DUP2 SLOAD DUP2 PUSH1 0xFF MUL NOT AND SWAP1 DUP4 PUSH1 0x1 DUP2 GT ISZERO PUSH2 0x53 JUMPI PUSH2 0x52 PUSH2 0x129 JUMP JUMPDEST JUMPDEST MUL OR SWAP1 SSTORE POP PUSH2 0x158 JUMP JUMPDEST PUSH1 0x0 CALLER SWAP1 POP SWAP1 JUMP JUMPDEST PUSH1 0x0 DUP1 PUSH1 0x0 SWAP1 SLOAD SWAP1 PUSH2 0x100 EXP SWAP1 DIV PUSH20 0xFFFFFFFFFFFFFFFFFFFFFFFFFFFFFFFFFFFFFFFF AND SWAP1 POP DUP2 PUSH1 0x0 DUP1 PUSH2 0x100 EXP DUP2 SLOAD DUP2 PUSH20 0xFFFFFFFFFFFFFFFFFFFFFFFFFFFFFFFFFFFFFFFF MUL NOT AND SWAP1 DUP4 PUSH20 0xFFFFFFFFFFFFFFFFFFFFFFFFFFFFFFFFFFFFFFFF AND MUL OR SWAP1 SSTORE POP DUP2 PUSH20 0xFFFFFFFFFFFFFFFFFFFFFFFFFFFFFFFFFFFFFFFF AND DUP2 PUSH20 0xFFFFFFFFFFFFFFFFFFFFFFFFFFFFFFFFFFFFFFFF AND PUSH32 0x8BE0079C531659141344CD1FD0A4F28419497F9722A3DAAFE3B4186F6B6457E0 PUSH1 0x40 MLOAD PUSH1 0x40 MLOAD DUP1 SWAP2 SUB SWAP1 LOG3 POP POP JUMP JUMPDEST PUSH32 0x4E487B7100000000000000000000000000000000000000000000000000000000 PUSH1 0x0 MSTORE PUSH1 0x21 PUSH1 0x4 MSTORE PUSH1 0x24 PUSH1 0x0 REVERT JUMPDEST PUSH2 0xF19 DUP1 PUSH2 0x167 PUSH1 0x0 CODECOPY PUSH1 0x0 RETURN INVALID PUSH1 0x80 PUSH1 0x40 MSTORE PUSH1 0x4 CALLDATASIZE LT PUSH2 0xC2 JUMPI PUSH1 0x0 CALLDATALOAD PUSH1 0xE0 SHR DUP1 PUSH4 0xA035B1FE GT PUSH2 0x7F JUMPI DUP1 PUSH4 0xD32DACC1 GT PUSH2 0x59 JUMPI DUP1 PUSH4 0xD32DACC1 EQ PUSH2 0x234 JUMPI DUP1 PUSH4 0xD811FCF0 EQ PUSH2 0x25F JUMPI DUP1 PUSH4 0xF2FDE38B EQ PUSH2 0x28A JUMPI DUP1 PUSH4 0xF5C609E0 EQ PUSH2 0x2B3 JUMPI PUSH2 0xC2 JUMP JUMPDEST DUP1 PUSH4 0xA035B1FE EQ PUSH2 0x1B5 JUMPI DUP1 PUSH4 0xAA8C217C EQ PUSH2 0x1E0 JUMPI DUP1 PUSH4 0xC8DDE807 EQ PUSH2 0x20B JUMPI PUSH2 0xC2 JUMP JUMPDEST DUP1 PUSH4 0x6FDDE03 EQ PUSH2 0xC7 JUMPI DUP1 PUSH4 0x530D124E EQ PUSH2 0xF2 JUMPI DUP1 PUSH4 0x6D86B8A5 EQ PUSH2 0x11D JUMPI DUP1 PUSH4 0x715018A6 EQ PUSH2 0x148 JUMPI DUP1 PUSH4 0x80F55605 EQ PUSH2 0x15F JUMPI DUP1 PUSH4 0x8DA5CB5B EQ PUSH2 0x18A JUMPI JUMPDEST PUSH1 0x0 DUP1 REVERT JUMPDEST CALLVALUE DUP1 ISZERO PUSH2 0xD3 JUMPI PUSH1 0x0 DUP1 REVERT JUMPDEST POP PUSH2 0xDC PUSH2 0x2BD JUMP JUMPDEST PUSH1 0x40 MLOAD PUSH2 0xE9 SWAP2 SWAP1 PUSH2 0x892 JUMP JUMPDEST PUSH1 0x40 MLOAD DUP1 SWAP2 SUB SWAP1 RETURN JUMPDEST CALLVALUE DUP1 ISZERO PUSH2 0xFE JUMPI PUSH1 0x0 DUP1 REVERT JUMPDEST POP PUSH2 0x107 PUSH2 0x2C3 JUMP JUMPDEST PUSH1 0x40 MLOAD PUSH2 0x114 SWAP2 SWAP1 PUSH2 0x892 JUMP JUMPDEST PUSH1 0x40 MLOAD DUP1 SWAP2 SUB SWAP1 RETURN JUMPDEST CALLVALUE DUP1 ISZERO PUSH2 0x129 JUMPI PUSH1 0x0 DUP1 REVERT JUMPDEST POP PUSH2 0x132 PUSH2 0x2C9 JUMP JUMPDEST PUSH1 0x40 MLOAD PUSH2 0x13F SWAP2 SWAP1 PUSH2 0x892 JUMP JUMPDEST PUSH1 0x40 MLOAD DUP1 SWAP2 SUB SWAP1 RETURN JUMPDEST CALLVALUE DUP1 ISZERO PUSH2 0x154 JUMPI PUSH1 0x0 DUP1 REVERT JUMPDEST POP PUSH2 0x15D PUSH2 0x2CF JUMP JUMPDEST STOP JUMPDEST CALLVALUE DUP1 ISZERO PUSH2 0x16B JUMPI PUSH1 0x0 DUP1 REVERT JUMPDEST POP PUSH2 0x174 PUSH2 0x2E3 JUMP JUMPDEST PUSH1 0x40 MLOAD PUSH2 0x181 SWAP2 SWAP1 PUSH2 0x8EE JUMP JUMPDEST PUSH1 0x40 MLOAD DUP1 SWAP2 SUB SWAP1 RETURN JUMPDEST CALLVALUE DUP1 ISZERO PUSH2 0x196 JUMPI PUSH1 0x0 DUP1 REVERT JUMPDEST POP PUSH2 0x19F PUSH2 0x309 JUMP JUMPDEST PUSH1 0x40 MLOAD PUSH2 0x1AC SWAP2 SWAP1 PUSH2 0x8EE JUMP JUMPDEST PUSH1 0x40 MLOAD DUP1 SWAP2 SUB SWAP1 RETURN JUMPDEST CALLVALUE DUP1 ISZERO PUSH2 0x1C1 JUMPI PUSH1 0x0 DUP1 REVERT JUMPDEST POP PUSH2 0x1CA PUSH2 0x332 JUMP JUMPDEST PUSH1 0x40 MLOAD PUSH2 0x1D7 SWAP2 SWAP1 PUSH2 0x892 JUMP JUMPDEST PUSH1 0x40 MLOAD DUP1 SWAP2 SUB SWAP1 RETURN JUMPDEST CALLVALUE DUP1 ISZERO PUSH2 0x1EC JUMPI PUSH1 0x0 DUP1 REVERT JUMPDEST POP PUSH2 0x1F5 PUSH2 0x338 JUMP JUMPDEST PUSH1 0x40 MLOAD PUSH2 0x202 SWAP2 SWAP1 PUSH2 0x922 JUMP JUMPDEST PUSH1 0x40 MLOAD DUP1 SWAP2 SUB SWAP1 RETURN JUMPDEST CALLVALUE DUP1 ISZERO PUSH2 0x217 JUMPI PUSH1 0x0 DUP1 REVERT JUMPDEST POP PUSH2 0x232 PUSH1 0x4 DUP1 CALLDATASIZE SUB DUP2 ADD SWAP1 PUSH2 0x22D SWAP2 SWAP1 PUSH2 0x9C6 JUMP JUMPDEST PUSH2 0x33E JUMP JUMPDEST STOP JUMPDEST CALLVALUE DUP1 ISZERO PUSH2 0x240 JUMPI PUSH1 0x0 DUP1 REVERT JUMPDEST POP PUSH2 0x249 PUSH2 0x454 JUMP JUMPDEST PUSH1 0x40 MLOAD PUSH2 0x256 SWAP2 SWAP1 PUSH2 0x8EE JUMP JUMPDEST PUSH1 0x40 MLOAD DUP1 SWAP2 SUB SWAP1 RETURN JUMPDEST CALLVALUE DUP1 ISZERO PUSH2 0x26B JUMPI PUSH1 0x0 DUP1 REVERT JUMPDEST POP PUSH2 0x274 PUSH2 0x548 JUMP JUMPDEST PUSH1 0x40 MLOAD PUSH2 0x281 SWAP2 SWAP1 PUSH2 0x8EE JUMP JUMPDEST PUSH1 0x40 MLOAD DUP1 SWAP2 SUB SWAP1 RETURN JUMPDEST CALLVALUE DUP1 ISZERO PUSH2 0x296 JUMPI PUSH1 0x0 DUP1 REVERT JUMPDEST POP PUSH2 0x2B1 PUSH1 0x4 DUP1 CALLDATASIZE SUB DUP2 ADD SWAP1 PUSH2 0x2AC SWAP2 SWAP1 PUSH2 0xA53 JUMP JUMPDEST PUSH2 0x56E JUMP JUMPDEST STOP JUMPDEST PUSH2 0x2BB PUSH2 0x5F1 JUMP JUMPDEST STOP JUMPDEST PUSH1 0x5 SLOAD DUP2 JUMP JUMPDEST PUSH1 0x4 SLOAD DUP2 JUMP JUMPDEST PUSH1 0x7 SLOAD DUP2 JUMP JUMPDEST PUSH2 0x2D7 PUSH2 0x72F JUMP JUMPDEST PUSH2 0x2E1 PUSH1 0x0 PUSH2 0x7AD JUMP JUMPDEST JUMP JUMPDEST PUSH1 0x2 PUSH1 0x0 SWAP1 SLOAD SWAP1 PUSH2 0x100 EXP SWAP1 DIV PUSH20 0xFFFFFFFFFFFFFFFFFFFFFFFFFFFFFFFFFFFFFFFF AND DUP2 JUMP JUMPDEST PUSH1 0x0 DUP1 PUSH1 0x0 SWAP1 SLOAD SWAP1 PUSH2 0x100 EXP SWAP1 DIV PUSH20 0xFFFFFFFFFFFFFFFFFFFFFFFFFFFFFFFFFFFFFFFF AND SWAP1 POP SWAP1 JUMP JUMPDEST PUSH1 0x6 SLOAD DUP2 JUMP JUMPDEST PUSH1 0x8 SLOAD DUP2 JUMP JUMPDEST PUSH1 0x0 PUSH1 0x1 DUP2 GT ISZERO PUSH2 0x352 JUMPI PUSH2 0x351 PUSH2 0xA80 JUMP JUMPDEST JUMPDEST PUSH1 0x9 PUSH1 0x0 SWAP1 SLOAD SWAP1 PUSH2 0x100 EXP SWAP1 DIV PUSH1 0xFF AND PUSH1 0x1 DUP2 GT ISZERO PUSH2 0x374 JUMPI PUSH2 0x373 PUSH2 0xA80 JUMP JUMPDEST JUMPDEST EQ PUSH2 0x3B4 JUMPI PUSH1 0x40 MLOAD PUSH32 0x8C379A000000000000000000000000000000000000000000000000000000000 DUP2 MSTORE PUSH1 0x4 ADD PUSH2 0x3AB SWAP1 PUSH2 0xB32 JUMP JUMPDEST PUSH1 0x40 MLOAD DUP1 SWAP2 SUB SWAP1 REVERT JUMPDEST PUSH2 0x3BD DUP7 PUSH2 0x7AD JUMP JUMPDEST CALLER PUSH1 0x2 PUSH1 0x0 PUSH2 0x100 EXP DUP2 SLOAD DUP2 PUSH20 0xFFFFFFFFFFFFFFFFFFFFFFFFFFFFFFFFFFFFFFFF MUL NOT AND SWAP1 DUP4 PUSH20 0xFFFFFFFFFFFFFFFFFFFFFFFFFFFFFFFFFFFFFFFF AND MUL OR SWAP1 SSTORE POP DUP1 PUSH1 0x4 DUP2 SWAP1 SSTORE POP DUP5 PUSH1 0x5 DUP2 SWAP1 SSTORE POP DUP4 PUSH1 0x6 DUP2 SWAP1 SSTORE POP DUP3 PUSH1 0x7 DUP2 SWAP1 SSTORE POP DUP2 PUSH1 0x8 DUP2 SWAP1 SSTORE POP PUSH1 0x1 PUSH1 0x9 PUSH1 0x0 PUSH2 0x100 EXP DUP2 SLOAD DUP2 PUSH1 0xFF MUL NOT AND SWAP1 DUP4 PUSH1 0x1 DUP2 GT ISZERO PUSH2 0x447 JUMPI PUSH2 0x446 PUSH2 0xA80 JUMP JUMPDEST JUMPDEST MUL OR SWAP1 SSTORE POP POP POP POP POP POP POP JUMP JUMPDEST PUSH1 0x0 PUSH2 0x45E PUSH2 0x72F JUMP JUMPDEST PUSH1 0x0 PUSH1 0x3 DUP1 SLOAD SWAP1 POP GT PUSH2 0x4A6 JUMPI PUSH1 0x40 MLOAD PUSH32 0x8C379A000000000000000000000000000000000000000000000000000000000 DUP2 MSTORE PUSH1 0x4 ADD PUSH2 0x49D SWAP1 PUSH2 0xB9E JUMP JUMPDEST PUSH1 0x40 MLOAD DUP1 SWAP2 SUB SWAP1 REVERT JUMPDEST PUSH1 0x0 PUSH1 0x3 PUSH1 0x1 PUSH1 0x3 DUP1 SLOAD SWAP1 POP PUSH2 0x4BC SWAP2 SWAP1 PUSH2 0xBED JUMP JUMPDEST DUP2 SLOAD DUP2 LT PUSH2 0x4CD JUMPI PUSH2 0x4CC PUSH2 0xC21 JUMP JUMPDEST JUMPDEST SWAP1 PUSH1 0x0 MSTORE PUSH1 0x20 PUSH1 0x0 KECCAK256 ADD PUSH1 0x0 SWAP1 SLOAD SWAP1 PUSH2 0x100 EXP SWAP1 DIV PUSH20 0xFFFFFFFFFFFFFFFFFFFFFFFFFFFFFFFFFFFFFFFF AND SWAP1 POP PUSH1 0x3 DUP1 SLOAD DUP1 PUSH2 0x50C JUMPI PUSH2 0x50B PUSH2 0xC50 JUMP JUMPDEST JUMPDEST PUSH1 0x1 SWAP1 SUB DUP2 DUP2 SWAP1 PUSH1 0x0 MSTORE PUSH1 0x20 PUSH1 0x0 KECCAK256 ADD PUSH1 0x0 PUSH2 0x100 EXP DUP2 SLOAD SWAP1 PUSH20 0xFFFFFFFFFFFFFFFFFFFFFFFFFFFFFFFFFFFFFFFF MUL NOT AND SWAP1 SSTORE SWAP1 SSTORE DUP1 SWAP2 POP POP SWAP1 JUMP JUMPDEST PUSH1 0x1 PUSH1 0x0 SWAP1 SLOAD SWAP1 PUSH2 0x100 EXP SWAP1 DIV PUSH20 0xFFFFFFFFFFFFFFFFFFFFFFFFFFFFFFFFFFFFFFFF AND DUP2 JUMP JUMPDEST PUSH2 0x576 PUSH2 0x72F JUMP JUMPDEST PUSH1 0x0 PUSH20 0xFFFFFFFFFFFFFFFFFFFFFFFFFFFFFFFFFFFFFFFF AND DUP2 PUSH20 0xFFFFFFFFFFFFFFFFFFFFFFFFFFFFFFFFFFFFFFFF AND SUB PUSH2 0x5E5 JUMPI PUSH1 0x40 MLOAD PUSH32 0x8C379A000000000000000000000000000000000000000000000000000000000 DUP2 MSTORE PUSH1 0x4 ADD PUSH2 0x5DC SWAP1 PUSH2 0xCF1 JUMP JUMPDEST PUSH1 0x40 MLOAD DUP1 SWAP2 SUB SWAP1 REVERT JUMPDEST PUSH2 0x5EE DUP2 PUSH2 0x7AD JUMP JUMPDEST POP JUMP JUMPDEST PUSH2 0x5F9 PUSH2 0x309 JUMP JUMPDEST PUSH20 0xFFFFFFFFFFFFFFFFFFFFFFFFFFFFFFFFFFFFFFFF AND CALLER PUSH20 0xFFFFFFFFFFFFFFFFFFFFFFFFFFFFFFFFFFFFFFFF AND SUB PUSH2 0x666 JUMPI PUSH1 0x40 MLOAD PUSH32 0x8C379A000000000000000000000000000000000000000000000000000000000 DUP2 MSTORE PUSH1 0x4 ADD PUSH2 0x65D SWAP1 PUSH2 0xD83 JUMP JUMPDEST PUSH1 0x40 MLOAD DUP1 SWAP2 SUB SWAP1 REVERT JUMPDEST PUSH1 0x6 SLOAD PUSH1 0x7 SLOAD PUSH2 0x676 SWAP2 SWAP1 PUSH2 0xDA3 JUMP JUMPDEST CALLVALUE EQ PUSH2 0x6B7 JUMPI PUSH1 0x40 MLOAD PUSH32 0x8C379A000000000000000000000000000000000000000000000000000000000 DUP2 MSTORE PUSH1 0x4 ADD PUSH2 0x6AE SWAP1 PUSH2 0xE57 JUMP JUMPDEST PUSH1 0x40 MLOAD DUP1 SWAP2 SUB SWAP1 REVERT JUMPDEST PUSH1 0x4 SLOAD PUSH1 0x3 DUP1 SLOAD SWAP1 POP LT PUSH2 0x6CA JUMPI PUSH1 0x0 DUP1 REVERT JUMPDEST PUSH1 0x3 CALLER SWAP1 DUP1 PUSH1 0x1 DUP2 SLOAD ADD DUP1 DUP3 SSTORE DUP1 SWAP2 POP POP PUSH1 0x1 SWAP1 SUB SWAP1 PUSH1 0x0 MSTORE PUSH1 0x20 PUSH1 0x0 KECCAK256 ADD PUSH1 0x0 SWAP1 SWAP2 SWAP1 SWAP2 SWAP1 SWAP2 PUSH2 0x100 EXP DUP2 SLOAD DUP2 PUSH20 0xFFFFFFFFFFFFFFFFFFFFFFFFFFFFFFFFFFFFFFFF MUL NOT AND SWAP1 DUP4 PUSH20 0xFFFFFFFFFFFFFFFFFFFFFFFFFFFFFFFFFFFFFFFF AND MUL OR SWAP1 SSTORE POP JUMP JUMPDEST PUSH2 0x737 PUSH2 0x871 JUMP JUMPDEST PUSH20 0xFFFFFFFFFFFFFFFFFFFFFFFFFFFFFFFFFFFFFFFF AND PUSH2 0x755 PUSH2 0x309 JUMP JUMPDEST PUSH20 0xFFFFFFFFFFFFFFFFFFFFFFFFFFFFFFFFFFFFFFFF AND EQ PUSH2 0x7AB JUMPI PUSH1 0x40 MLOAD PUSH32 0x8C379A000000000000000000000000000000000000000000000000000000000 DUP2 MSTORE PUSH1 0x4 ADD PUSH2 0x7A2 SWAP1 PUSH2 0xEC3 JUMP JUMPDEST PUSH1 0x40 MLOAD DUP1 SWAP2 SUB SWAP1 REVERT JUMPDEST JUMP JUMPDEST PUSH1 0x0 DUP1 PUSH1 0x0 SWAP1 SLOAD SWAP1 PUSH2 0x100 EXP SWAP1 DIV PUSH20 0xFFFFFFFFFFFFFFFFFFFFFFFFFFFFFFFFFFFFFFFF AND SWAP1 POP DUP2 PUSH1 0x0 DUP1 PUSH2 0x100 EXP DUP2 SLOAD DUP2 PUSH20 0xFFFFFFFFFFFFFFFFFFFFFFFFFFFFFFFFFFFFFFFF MUL NOT AND SWAP1 DUP4 PUSH20 0xFFFFFFFFFFFFFFFFFFFFFFFFFFFFFFFFFFFFFFFF AND MUL OR SWAP1 SSTORE POP DUP2 PUSH20 0xFFFFFFFFFFFFFFFFFFFFFFFFFFFFFFFFFFFFFFFF AND DUP2 PUSH20 0xFFFFFFFFFFFFFFFFFFFFFFFFFFFFFFFFFFFFFFFF AND PUSH32 0x8BE0079C531659141344CD1FD0A4F28419497F9722A3DAAFE3B4186F6B6457E0 PUSH1 0x40 MLOAD PUSH1 0x40 MLOAD DUP1 SWAP2 SUB SWAP1 LOG3 POP POP JUMP JUMPDEST PUSH1 0x0 CALLER SWAP1 POP SWAP1 JUMP JUMPDEST PUSH1 0x0 DUP2 SWAP1 POP SWAP2 SWAP1 POP JUMP JUMPDEST PUSH2 0x88C DUP2 PUSH2 0x879 JUMP JUMPDEST DUP3 MSTORE POP POP JUMP JUMPDEST PUSH1 0x0 PUSH1 0x20 DUP3 ADD SWAP1 POP PUSH2 0x8A7 PUSH1 0x0 DUP4 ADD DUP5 PUSH2 0x883 JUMP JUMPDEST SWAP3 SWAP2 POP POP JUMP JUMPDEST PUSH1 0x0 PUSH20 0xFFFFFFFFFFFFFFFFFFFFFFFFFFFFFFFFFFFFFFFF DUP3 AND SWAP1 POP SWAP2 SWAP1 POP JUMP JUMPDEST PUSH1 0x0 PUSH2 0x8D8 DUP3 PUSH2 0x8AD JUMP JUMPDEST SWAP1 POP SWAP2 SWAP1 POP JUMP JUMPDEST PUSH2 0x8E8 DUP2 PUSH2 0x8CD JUMP JUMPDEST DUP3 MSTORE POP POP JUMP JUMPDEST PUSH1 0x0 PUSH1 0x20 DUP3 ADD SWAP1 POP PUSH2 0x903 PUSH1 0x0 DUP4 ADD DUP5 PUSH2 0x8DF JUMP JUMPDEST SWAP3 SWAP2 POP POP JUMP JUMPDEST PUSH1 0x0 DUP2 SWAP1 POP SWAP2 SWAP1 POP JUMP JUMPDEST PUSH2 0x91C DUP2 PUSH2 0x909 JUMP JUMPDEST DUP3 MSTORE POP POP JUMP JUMPDEST PUSH1 0x0 PUSH1 0x20 DUP3 ADD SWAP1 POP PUSH2 0x937 PUSH1 0x0 DUP4 ADD DUP5 PUSH2 0x913 JUMP JUMPDEST SWAP3 SWAP2 POP POP JUMP JUMPDEST PUSH1 0x0 DUP1 REVERT JUMPDEST PUSH2 0x94B DUP2 PUSH2 0x8CD JUMP JUMPDEST DUP2 EQ PUSH2 0x956 JUMPI PUSH1 0x0 DUP1 REVERT JUMPDEST POP JUMP JUMPDEST PUSH1 0x0 DUP2 CALLDATALOAD SWAP1 POP PUSH2 0x968 DUP2 PUSH2 0x942 JUMP JUMPDEST SWAP3 SWAP2 POP POP JUMP JUMPDEST PUSH2 0x977 DUP2 PUSH2 0x879 JUMP JUMPDEST DUP2 EQ PUSH2 0x982 JUMPI PUSH1 0x0 DUP1 REVERT JUMPDEST POP JUMP JUMPDEST PUSH1 0x0 DUP2 CALLDATALOAD SWAP1 POP PUSH2 0x994 DUP2 PUSH2 0x96E JUMP JUMPDEST SWAP3 SWAP2 POP POP JUMP JUMPDEST PUSH2 0x9A3 DUP2 PUSH2 0x909 JUMP JUMPDEST DUP2 EQ PUSH2 0x9AE JUMPI PUSH1 0x0 DUP1 REVERT JUMPDEST POP JUMP JUMPDEST PUSH1 0x0 DUP2 CALLDATALOAD SWAP1 POP PUSH2 0x9C0 DUP2 PUSH2 0x99A JUMP JUMPDEST SWAP3 SWAP2 POP POP JUMP JUMPDEST PUSH1 0x0 DUP1 PUSH1 0x0 DUP1 PUSH1 0x0 DUP1 PUSH1 0xC0 DUP8 DUP10 SUB SLT ISZERO PUSH2 0x9E3 JUMPI PUSH2 0x9E2 PUSH2 0x93D JUMP JUMPDEST JUMPDEST PUSH1 0x0 PUSH2 0x9F1 DUP10 DUP3 DUP11 ADD PUSH2 0x959 JUMP JUMPDEST SWAP7 POP POP PUSH1 0x20 PUSH2 0xA02 DUP10 DUP3 DUP11 ADD PUSH2 0x985 JUMP JUMPDEST SWAP6 POP POP PUSH1 0x40 PUSH2 0xA13 DUP10 DUP3 DUP11 ADD PUSH2 0x985 JUMP JUMPDEST SWAP5 POP POP PUSH1 0x60 PUSH2 0xA24 DUP10 DUP3 DUP11 ADD PUSH2 0x985 JUMP JUMPDEST SWAP4 POP POP PUSH1 0x80 PUSH2 0xA35 DUP10 DUP3 DUP11 ADD PUSH2 0x9B1 JUMP JUMPDEST SWAP3 POP POP PUSH1 0xA0 PUSH2 0xA46 DUP10 DUP3 DUP11 ADD PUSH2 0x985 JUMP JUMPDEST SWAP2 POP POP SWAP3 SWAP6 POP SWAP3 SWAP6 POP SWAP3 SWAP6 JUMP JUMPDEST PUSH1 0x0 PUSH1 0x20 DUP3 DUP5 SUB SLT ISZERO PUSH2 0xA69 JUMPI PUSH2 0xA68 PUSH2 0x93D JUMP JUMPDEST JUMPDEST PUSH1 0x0 PUSH2 0xA77 DUP5 DUP3 DUP6 ADD PUSH2 0x959 JUMP JUMPDEST SWAP2 POP POP SWAP3 SWAP2 POP POP JUMP JUMPDEST PUSH32 0x4E487B7100000000000000000000000000000000000000000000000000000000 PUSH1 0x0 MSTORE PUSH1 0x21 PUSH1 0x4 MSTORE PUSH1 0x24 PUSH1 0x0 REVERT JUMPDEST PUSH1 0x0 DUP3 DUP3 MSTORE PUSH1 0x20 DUP3 ADD SWAP1 POP SWAP3 SWAP2 POP POP JUMP JUMPDEST PUSH32 0x546869732070726F647563652068617320616C7265616479206265656E20696E PUSH1 0x0 DUP3 ADD MSTORE PUSH32 0x6974696C697A6564000000000000000000000000000000000000000000000000 PUSH1 0x20 DUP3 ADD MSTORE POP JUMP JUMPDEST PUSH1 0x0 PUSH2 0xB1C PUSH1 0x28 DUP4 PUSH2 0xAAF JUMP JUMPDEST SWAP2 POP PUSH2 0xB27 DUP3 PUSH2 0xAC0 JUMP JUMPDEST PUSH1 0x40 DUP3 ADD SWAP1 POP SWAP2 SWAP1 POP JUMP JUMPDEST PUSH1 0x0 PUSH1 0x20 DUP3 ADD SWAP1 POP DUP2 DUP2 SUB PUSH1 0x0 DUP4 ADD MSTORE PUSH2 0xB4B DUP2 PUSH2 0xB0F JUMP JUMPDEST SWAP1 POP SWAP2 SWAP1 POP JUMP JUMPDEST PUSH32 0x4E6F206F726465727320746F2074616B65000000000000000000000000000000 PUSH1 0x0 DUP3 ADD MSTORE POP JUMP JUMPDEST PUSH1 0x0 PUSH2 0xB88 PUSH1 0x11 DUP4 PUSH2 0xAAF JUMP JUMPDEST SWAP2 POP PUSH2 0xB93 DUP3 PUSH2 0xB52 JUMP JUMPDEST PUSH1 0x20 DUP3 ADD SWAP1 POP SWAP2 SWAP1 POP JUMP JUMPDEST PUSH1 0x0 PUSH1 0x20 DUP3 ADD SWAP1 POP DUP2 DUP2 SUB PUSH1 0x0 DUP4 ADD MSTORE PUSH2 0xBB7 DUP2 PUSH2 0xB7B JUMP JUMPDEST SWAP1 POP SWAP2 SWAP1 POP JUMP JUMPDEST PUSH32 0x4E487B7100000000000000000000000000000000000000000000000000000000 PUSH1 0x0 MSTORE PUSH1 0x11 PUSH1 0x4 MSTORE PUSH1 0x24 PUSH1 0x0 REVERT JUMPDEST PUSH1 0x0 PUSH2 0xBF8 DUP3 PUSH2 0x879 JUMP JUMPDEST SWAP2 POP PUSH2 0xC03 DUP4 PUSH2 0x879 JUMP JUMPDEST SWAP3 POP DUP3 DUP3 SUB SWAP1 POP DUP2 DUP2 GT ISZERO PUSH2 0xC1B JUMPI PUSH2 0xC1A PUSH2 0xBBE JUMP JUMPDEST JUMPDEST SWAP3 SWAP2 POP POP JUMP JUMPDEST PUSH32 0x4E487B7100000000000000000000000000000000000000000000000000000000 PUSH1 0x0 MSTORE PUSH1 0x32 PUSH1 0x4 MSTORE PUSH1 0x24 PUSH1 0x0 REVERT JUMPDEST PUSH32 0x4E487B7100000000000000000000000000000000000000000000000000000000 PUSH1 0x0 MSTORE PUSH1 0x31 PUSH1 0x4 MSTORE PUSH1 0x24 PUSH1 0x0 REVERT JUMPDEST PUSH32 0x4F776E61626C653A206E6577206F776E657220697320746865207A65726F2061 PUSH1 0x0 DUP3 ADD MSTORE PUSH32 0x6464726573730000000000000000000000000000000000000000000000000000 PUSH1 0x20 DUP3 ADD MSTORE POP JUMP JUMPDEST PUSH1 0x0 PUSH2 0xCDB PUSH1 0x26 DUP4 PUSH2 0xAAF JUMP JUMPDEST SWAP2 POP PUSH2 0xCE6 DUP3 PUSH2 0xC7F JUMP JUMPDEST PUSH1 0x40 DUP3 ADD SWAP1 POP SWAP2 SWAP1 POP JUMP JUMPDEST PUSH1 0x0 PUSH1 0x20 DUP3 ADD SWAP1 POP DUP2 DUP2 SUB PUSH1 0x0 DUP4 ADD MSTORE PUSH2 0xD0A DUP2 PUSH2 0xCCE JUMP JUMPDEST SWAP1 POP SWAP2 SWAP1 POP JUMP JUMPDEST PUSH32 0x6661726D65722063616E6E6F7420706C616365206F7264657220666F72207468 PUSH1 0x0 DUP3 ADD MSTORE PUSH32 0x656972206F776E2070726F647563650000000000000000000000000000000000 PUSH1 0x20 DUP3 ADD MSTORE POP JUMP JUMPDEST PUSH1 0x0 PUSH2 0xD6D PUSH1 0x2F DUP4 PUSH2 0xAAF JUMP JUMPDEST SWAP2 POP PUSH2 0xD78 DUP3 PUSH2 0xD11 JUMP JUMPDEST PUSH1 0x40 DUP3 ADD SWAP1 POP SWAP2 SWAP1 POP JUMP JUMPDEST PUSH1 0x0 PUSH1 0x20 DUP3 ADD SWAP1 POP DUP2 DUP2 SUB PUSH1 0x0 DUP4 ADD MSTORE PUSH2 0xD9C DUP2 PUSH2 0xD60 JUMP JUMPDEST SWAP1 POP SWAP2 SWAP1 POP JUMP JUMPDEST PUSH1 0x0 PUSH2 0xDAE DUP3 PUSH2 0x879 JUMP JUMPDEST SWAP2 POP PUSH2 0xDB9 DUP4 PUSH2 0x879 JUMP JUMPDEST SWAP3 POP DUP3 DUP3 MUL PUSH2 0xDC7 DUP2 PUSH2 0x879 JUMP JUMPDEST SWAP2 POP DUP3 DUP3 DIV DUP5 EQ DUP4 ISZERO OR PUSH2 0xDDE JUMPI PUSH2 0xDDD PUSH2 0xBBE JUMP JUMPDEST JUMPDEST POP SWAP3 SWAP2 POP POP JUMP JUMPDEST PUSH32 0x6F72646572206D757374206265206F6620636F72726563742073697A6520616E PUSH1 0x0 DUP3 ADD MSTORE PUSH32 0x6420707269636500000000000000000000000000000000000000000000000000 PUSH1 0x20 DUP3 ADD MSTORE POP JUMP JUMPDEST PUSH1 0x0 PUSH2 0xE41 PUSH1 0x27 DUP4 PUSH2 0xAAF JUMP JUMPDEST SWAP2 POP PUSH2 0xE4C DUP3 PUSH2 0xDE5 JUMP JUMPDEST PUSH1 0x40 DUP3 ADD SWAP1 POP SWAP2 SWAP1 POP JUMP JUMPDEST PUSH1 0x0 PUSH1 0x20 DUP3 ADD SWAP1 POP DUP2 DUP2 SUB PUSH1 0x0 DUP4 ADD MSTORE PUSH2 0xE70 DUP2 PUSH2 0xE34 JUMP JUMPDEST SWAP1 POP SWAP2 SWAP1 POP JUMP JUMPDEST PUSH32 0x4F776E61626C653A2063616C6C6572206973206E6F7420746865206F776E6572 PUSH1 0x0 DUP3 ADD MSTORE POP JUMP JUMPDEST PUSH1 0x0 PUSH2 0xEAD PUSH1 0x20 DUP4 PUSH2 0xAAF JUMP JUMPDEST SWAP2 POP PUSH2 0xEB8 DUP3 PUSH2 0xE77 JUMP JUMPDEST PUSH1 0x20 DUP3 ADD SWAP1 POP SWAP2 SWAP1 POP JUMP JUMPDEST PUSH1 0x0 PUSH1 0x20 DUP3 ADD SWAP1 POP DUP2 DUP2 SUB PUSH1 0x0 DUP4 ADD MSTORE PUSH2 0xEDC DUP2 PUSH2 0xEA0 JUMP JUMPDEST SWAP1 POP SWAP2 SWAP1 POP JUMP INVALID LOG2 PUSH5 0x6970667358 0x22 SLT KECCAK256 SLOAD 0xC9 0xD5 BALANCE SWAP11 MSIZE 0xF9 0x22 GASLIMIT 0xBC COINBASE SWAP12 REVERT 0xC1 PUSH19 0xA444DB551BDA393FAB8779398F62D546FC6473 PUSH16 0x6C634300081100330000000000000000 "
				},
				"gasEstimates": {
					"creation": {
						"codeDepositCost": "489000",
						"executionCost": "infinite",
						"totalCost": "infinite"
					},
					"external": {
						"addProduce(uint256,uint256,uint256,bytes32,uint256)": "infinite",
						"farmerList(address)": "2867",
						"removeProduce(address)": "infinite"
					}
				},
				"methodIdentifiers": {
					"addProduce(uint256,uint256,uint256,bytes32,uint256)": "594659f5",
					"farmerList(address)": "a1d861a9",
					"removeProduce(address)": "7b6833c3"
				}
			},
			"storageLayout": {
				"storage": [
					{
						"astId": 459,
						"contract": "contracts/Market.sol:Market",
						"label": "produceAddresses",
						"offset": 0,
						"slot": "0",
						"type": "t_array(t_address)dyn_storage"
					},
					{
						"astId": 463,
						"contract": "contracts/Market.sol:Market",
						"label": "produceList",
						"offset": 0,
						"slot": "1",
						"type": "t_mapping(t_address,t_bool)"
					},
					{
						"astId": 467,
						"contract": "contracts/Market.sol:Market",
						"label": "farmerList",
						"offset": 0,
						"slot": "2",
						"type": "t_mapping(t_address,t_bool)"
					}
				],
				"types": {
					"t_address": {
						"encoding": "inplace",
						"label": "address",
						"numberOfBytes": "20"
					},
					"t_array(t_address)dyn_storage": {
						"base": "t_address",
						"encoding": "dynamic_array",
						"label": "address[]",
						"numberOfBytes": "32"
					},
					"t_bool": {
						"encoding": "inplace",
						"label": "bool",
						"numberOfBytes": "1"
					},
					"t_mapping(t_address,t_bool)": {
						"encoding": "mapping",
						"key": "t_address",
						"label": "mapping(address => bool)",
						"numberOfBytes": "32",
						"value": "t_bool"
					}
				}
			},
			"userdoc": {
				"kind": "user",
				"methods": {},
				"version": 1
			}
		}
	}
}