{
	"contracts/Produce.sol": {
		"Produce": {
			"abi": [
				{
					"inputs": [],
					"stateMutability": "nonpayable",
					"type": "constructor"
				},
				{
					"anonymous": false,
					"inputs": [
						{
							"indexed": true,
							"internalType": "address",
							"name": "previousOwner",
							"type": "address"
						},
						{
							"indexed": true,
							"internalType": "address",
							"name": "newOwner",
							"type": "address"
						}
					],
					"name": "OwnershipTransferred",
					"type": "event"
				},
				{
					"inputs": [],
					"name": "farmer",
					"outputs": [
						{
							"internalType": "address",
							"name": "",
							"type": "address"
						}
					],
					"stateMutability": "view",
					"type": "function"
				},
				{
					"inputs": [
						{
							"internalType": "address",
							"name": "_farmer",
							"type": "address"
						},
						{
							"internalType": "uint256",
							"name": "_produceHash",
							"type": "uint256"
						},
						{
							"internalType": "uint256",
							"name": "_price",
							"type": "uint256"
						},
						{
							"internalType": "uint256",
							"name": "_orderSize",
							"type": "uint256"
						},
						{
							"internalType": "uint256",
							"name": "_limitOnPendingOrders",
							"type": "uint256"
						}
					],
					"name": "initilize",
					"outputs": [],
					"stateMutability": "nonpayable",
					"type": "function"
				},
				{
					"inputs": [],
					"name": "limitOnPendingOrders",
					"outputs": [
						{
							"internalType": "uint256",
							"name": "",
							"type": "uint256"
						}
					],
					"stateMutability": "view",
					"type": "function"
				},
				{
					"inputs": [],
					"name": "market",
					"outputs": [
						{
							"internalType": "address",
							"name": "",
							"type": "address"
						}
					],
					"stateMutability": "view",
					"type": "function"
				},
				{
					"inputs": [],
					"name": "orderSize",
					"outputs": [
						{
							"internalType": "uint256",
							"name": "",
							"type": "uint256"
						}
					],
					"stateMutability": "view",
					"type": "function"
				},
				{
					"inputs": [],
					"name": "owner",
					"outputs": [
						{
							"internalType": "address",
							"name": "",
							"type": "address"
						}
					],
					"stateMutability": "view",
					"type": "function"
				},
				{
					"inputs": [],
					"name": "placeOrder",
					"outputs": [],
					"stateMutability": "payable",
					"type": "function"
				},
				{
					"inputs": [],
					"name": "price",
					"outputs": [
						{
							"internalType": "uint256",
							"name": "",
							"type": "uint256"
						}
					],
					"stateMutability": "view",
					"type": "function"
				},
				{
					"inputs": [],
					"name": "produceHash",
					"outputs": [
						{
							"internalType": "uint256",
							"name": "",
							"type": "uint256"
						}
					],
					"stateMutability": "view",
					"type": "function"
				},
				{
					"inputs": [],
					"name": "renounceOwnership",
					"outputs": [],
					"stateMutability": "nonpayable",
					"type": "function"
				},
				{
					"inputs": [],
					"name": "takeOrder",
					"outputs": [
						{
							"internalType": "address",
							"name": "order",
							"type": "address"
						}
					],
					"stateMutability": "nonpayable",
					"type": "function"
				},
				{
					"inputs": [
						{
							"internalType": "address",
							"name": "newOwner",
							"type": "address"
						}
					],
					"name": "transferOwnership",
					"outputs": [],
					"stateMutability": "nonpayable",
					"type": "function"
				}
			],
			"devdoc": {
				"kind": "dev",
				"methods": {
					"owner()": {
						"details": "Returns the address of the current owner."
					},
					"renounceOwnership()": {
						"details": "Leaves the contract without owner. It will not be possible to call `onlyOwner` functions anymore. Can only be called by the current owner. NOTE: Renouncing ownership will leave the contract without an owner, thereby removing any functionality that is only available to the owner."
					},
					"transferOwnership(address)": {
						"details": "Transfers ownership of the contract to a new account (`newOwner`). Can only be called by the current owner."
					}
				},
				"version": 1
			},
			"evm": {
				"assembly": "    /* \"contracts/Produce.sol\":140:1810  contract Produce is Ownable{... */\n  mstore(0x40, 0x80)\n    /* \"contracts/Produce.sol\":489:547  constructor() {... */\n  callvalue\n  dup1\n  iszero\n  tag_1\n  jumpi\n  0x00\n  dup1\n  revert\ntag_1:\n  pop\n    /* \"@openzeppelin/contracts/access/Ownable.sol\":936:968  _transferOwnership(_msgSender()) */\n  tag_5\n    /* \"@openzeppelin/contracts/access/Ownable.sol\":955:967  _msgSender() */\n  tag_6\n    /* \"@openzeppelin/contracts/access/Ownable.sol\":955:965  _msgSender */\n  shl(0x20, tag_7)\n    /* \"@openzeppelin/contracts/access/Ownable.sol\":955:967  _msgSender() */\n  0x20\n  shr\n  jump\t// in\ntag_6:\n    /* \"@openzeppelin/contracts/access/Ownable.sol\":936:954  _transferOwnership */\n  shl(0x20, tag_8)\n    /* \"@openzeppelin/contracts/access/Ownable.sol\":936:968  _transferOwnership(_msgSender()) */\n  0x20\n  shr\n  jump\t// in\ntag_5:\n    /* \"contracts/Produce.sol\":521:540  State.UNINITIALIZED */\n  0x00\n    /* \"contracts/Produce.sol\":513:518  state */\n  0x08\n  0x00\n    /* \"contracts/Produce.sol\":513:540  state = State.UNINITIALIZED */\n  0x0100\n  exp\n  dup2\n  sload\n  dup2\n  0xff\n  mul\n  not\n  and\n  swap1\n  dup4\n  0x02\n  dup2\n  gt\n  iszero\n  tag_10\n  jumpi\n  tag_11\n  tag_12\n  jump\t// in\ntag_11:\ntag_10:\n  mul\n  or\n  swap1\n  sstore\n  pop\n    /* \"contracts/Produce.sol\":140:1810  contract Produce is Ownable{... */\n  jump(tag_13)\n    /* \"@openzeppelin/contracts/utils/Context.sol\":640:736  function _msgSender() internal view virtual returns (address) {... */\ntag_7:\n    /* \"@openzeppelin/contracts/utils/Context.sol\":693:700  address */\n  0x00\n    /* \"@openzeppelin/contracts/utils/Context.sol\":719:729  msg.sender */\n  caller\n    /* \"@openzeppelin/contracts/utils/Context.sol\":712:729  return msg.sender */\n  swap1\n  pop\n    /* \"@openzeppelin/contracts/utils/Context.sol\":640:736  function _msgSender() internal view virtual returns (address) {... */\n  swap1\n  jump\t// out\n    /* \"@openzeppelin/contracts/access/Ownable.sol\":2433:2620  function _transferOwnership(address newOwner) internal virtual {... */\ntag_8:\n    /* \"@openzeppelin/contracts/access/Ownable.sol\":2506:2522  address oldOwner */\n  0x00\n    /* \"@openzeppelin/contracts/access/Ownable.sol\":2525:2531  _owner */\n  dup1\n  0x00\n  swap1\n  sload\n  swap1\n  0x0100\n  exp\n  swap1\n  div\n  0xffffffffffffffffffffffffffffffffffffffff\n  and\n    /* \"@openzeppelin/contracts/access/Ownable.sol\":2506:2531  address oldOwner = _owner */\n  swap1\n  pop\n    /* \"@openzeppelin/contracts/access/Ownable.sol\":2550:2558  newOwner */\n  dup2\n    /* \"@openzeppelin/contracts/access/Ownable.sol\":2541:2547  _owner */\n  0x00\n  dup1\n    /* \"@openzeppelin/contracts/access/Ownable.sol\":2541:2558  _owner = newOwner */\n  0x0100\n  exp\n  dup2\n  sload\n  dup2\n  0xffffffffffffffffffffffffffffffffffffffff\n  mul\n  not\n  and\n  swap1\n  dup4\n  0xffffffffffffffffffffffffffffffffffffffff\n  and\n  mul\n  or\n  swap1\n  sstore\n  pop\n    /* \"@openzeppelin/contracts/access/Ownable.sol\":2604:2612  newOwner */\n  dup2\n    /* \"@openzeppelin/contracts/access/Ownable.sol\":2573:2613  OwnershipTransferred(oldOwner, newOwner) */\n  0xffffffffffffffffffffffffffffffffffffffff\n  and\n    /* \"@openzeppelin/contracts/access/Ownable.sol\":2594:2602  oldOwner */\n  dup2\n    /* \"@openzeppelin/contracts/access/Ownable.sol\":2573:2613  OwnershipTransferred(oldOwner, newOwner) */\n  0xffffffffffffffffffffffffffffffffffffffff\n  and\n  0x8be0079c531659141344cd1fd0a4f28419497f9722a3daafe3b4186f6b6457e0\n  mload(0x40)\n  mload(0x40)\n  dup1\n  swap2\n  sub\n  swap1\n  log3\n    /* \"@openzeppelin/contracts/access/Ownable.sol\":2496:2620  {... */\n  pop\n    /* \"@openzeppelin/contracts/access/Ownable.sol\":2433:2620  function _transferOwnership(address newOwner) internal virtual {... */\n  pop\n  jump\t// out\n    /* \"#utility.yul\":7:187   */\ntag_12:\n    /* \"#utility.yul\":55:132   */\n  0x4e487b7100000000000000000000000000000000000000000000000000000000\n    /* \"#utility.yul\":52:53   */\n  0x00\n    /* \"#utility.yul\":45:133   */\n  mstore\n    /* \"#utility.yul\":152:156   */\n  0x21\n    /* \"#utility.yul\":149:150   */\n  0x04\n    /* \"#utility.yul\":142:157   */\n  mstore\n    /* \"#utility.yul\":176:180   */\n  0x24\n    /* \"#utility.yul\":173:174   */\n  0x00\n    /* \"#utility.yul\":166:181   */\n  revert\n    /* \"contracts/Produce.sol\":140:1810  contract Produce is Ownable{... */\ntag_13:\n  dataSize(sub_0)\n  dup1\n  dataOffset(sub_0)\n  0x00\n  codecopy\n  0x00\n  return\nstop\n\nsub_0: assembly {\n        /* \"contracts/Produce.sol\":140:1810  contract Produce is Ownable{... */\n      mstore(0x40, 0x80)\n      jumpi(tag_1, lt(calldatasize, 0x04))\n      shr(0xe0, calldataload(0x00))\n      dup1\n      0xa035b1fe\n      gt\n      tag_14\n      jumpi\n      dup1\n      0xa035b1fe\n      eq\n      tag_8\n      jumpi\n      dup1\n      0xd32dacc1\n      eq\n      tag_9\n      jumpi\n      dup1\n      0xd811fcf0\n      eq\n      tag_10\n      jumpi\n      dup1\n      0xf2fde38b\n      eq\n      tag_11\n      jumpi\n      dup1\n      0xf5c609e0\n      eq\n      tag_12\n      jumpi\n      dup1\n      0xfa34f63a\n      eq\n      tag_13\n      jumpi\n      jump(tag_1)\n    tag_14:\n      dup1\n      0x530d124e\n      eq\n      tag_2\n      jumpi\n      dup1\n      0x5a690b97\n      eq\n      tag_3\n      jumpi\n      dup1\n      0x6d86b8a5\n      eq\n      tag_4\n      jumpi\n      dup1\n      0x715018a6\n      eq\n      tag_5\n      jumpi\n      dup1\n      0x80f55605\n      eq\n      tag_6\n      jumpi\n      dup1\n      0x8da5cb5b\n      eq\n      tag_7\n      jumpi\n    tag_1:\n      0x00\n      dup1\n      revert\n        /* \"contracts/Produce.sol\":257:292  uint256 public limitOnPendingOrders */\n    tag_2:\n      callvalue\n      dup1\n      iszero\n      tag_15\n      jumpi\n      0x00\n      dup1\n      revert\n    tag_15:\n      pop\n      tag_16\n      tag_17\n      jump\t// in\n    tag_16:\n      mload(0x40)\n      tag_18\n      swap2\n      swap1\n      tag_19\n      jump\t// in\n    tag_18:\n      mload(0x40)\n      dup1\n      swap2\n      sub\n      swap1\n      return\n        /* \"contracts/Produce.sol\":553:1069  function initilize(... */\n    tag_3:\n      callvalue\n      dup1\n      iszero\n      tag_20\n      jumpi\n      0x00\n      dup1\n      revert\n    tag_20:\n      pop\n      tag_21\n      0x04\n      dup1\n      calldatasize\n      sub\n      dup2\n      add\n      swap1\n      tag_22\n      swap2\n      swap1\n      tag_23\n      jump\t// in\n    tag_22:\n      tag_24\n      jump\t// in\n    tag_21:\n      stop\n        /* \"contracts/Produce.sol\":357:381  uint256 public orderSize */\n    tag_4:\n      callvalue\n      dup1\n      iszero\n      tag_25\n      jumpi\n      0x00\n      dup1\n      revert\n    tag_25:\n      pop\n      tag_26\n      tag_27\n      jump\t// in\n    tag_26:\n      mload(0x40)\n      tag_28\n      swap2\n      swap1\n      tag_19\n      jump\t// in\n    tag_28:\n      mload(0x40)\n      dup1\n      swap2\n      sub\n      swap1\n      return\n        /* \"@openzeppelin/contracts/access/Ownable.sol\":1831:1932  function renounceOwnership() public virtual onlyOwner {... */\n    tag_5:\n      callvalue\n      dup1\n      iszero\n      tag_29\n      jumpi\n      0x00\n      dup1\n      revert\n    tag_29:\n      pop\n      tag_30\n      tag_31\n      jump\t// in\n    tag_30:\n      stop\n        /* \"contracts/Produce.sol\":200:221  address public market */\n    tag_6:\n      callvalue\n      dup1\n      iszero\n      tag_32\n      jumpi\n      0x00\n      dup1\n      revert\n    tag_32:\n      pop\n      tag_33\n      tag_34\n      jump\t// in\n    tag_33:\n      mload(0x40)\n      tag_35\n      swap2\n      swap1\n      tag_36\n      jump\t// in\n    tag_35:\n      mload(0x40)\n      dup1\n      swap2\n      sub\n      swap1\n      return\n        /* \"@openzeppelin/contracts/access/Ownable.sol\":1201:1286  function owner() public view virtual returns (address) {... */\n    tag_7:\n      callvalue\n      dup1\n      iszero\n      tag_37\n      jumpi\n      0x00\n      dup1\n      revert\n    tag_37:\n      pop\n      tag_38\n      tag_39\n      jump\t// in\n    tag_38:\n      mload(0x40)\n      tag_40\n      swap2\n      swap1\n      tag_36\n      jump\t// in\n    tag_40:\n      mload(0x40)\n      dup1\n      swap2\n      sub\n      swap1\n      return\n        /* \"contracts/Produce.sol\":331:351  uint256 public price */\n    tag_8:\n      callvalue\n      dup1\n      iszero\n      tag_41\n      jumpi\n      0x00\n      dup1\n      revert\n    tag_41:\n      pop\n      tag_42\n      tag_43\n      jump\t// in\n    tag_42:\n      mload(0x40)\n      tag_44\n      swap2\n      swap1\n      tag_19\n      jump\t// in\n    tag_44:\n      mload(0x40)\n      dup1\n      swap2\n      sub\n      swap1\n      return\n        /* \"contracts/Produce.sol\":1571:1806  function takeOrder() external onlyOwner returns (address order) {... */\n    tag_9:\n      callvalue\n      dup1\n      iszero\n      tag_45\n      jumpi\n      0x00\n      dup1\n      revert\n    tag_45:\n      pop\n      tag_46\n      tag_47\n      jump\t// in\n    tag_46:\n      mload(0x40)\n      tag_48\n      swap2\n      swap1\n      tag_36\n      jump\t// in\n    tag_48:\n      mload(0x40)\n      dup1\n      swap2\n      sub\n      swap1\n      return\n        /* \"contracts/Produce.sol\":173:194  address public farmer */\n    tag_10:\n      callvalue\n      dup1\n      iszero\n      tag_49\n      jumpi\n      0x00\n      dup1\n      revert\n    tag_49:\n      pop\n      tag_50\n      tag_51\n      jump\t// in\n    tag_50:\n      mload(0x40)\n      tag_52\n      swap2\n      swap1\n      tag_36\n      jump\t// in\n    tag_52:\n      mload(0x40)\n      dup1\n      swap2\n      sub\n      swap1\n      return\n        /* \"@openzeppelin/contracts/access/Ownable.sol\":2081:2279  function transferOwnership(address newOwner) public virtual onlyOwner {... */\n    tag_11:\n      callvalue\n      dup1\n      iszero\n      tag_53\n      jumpi\n      0x00\n      dup1\n      revert\n    tag_53:\n      pop\n      tag_54\n      0x04\n      dup1\n      calldatasize\n      sub\n      dup2\n      add\n      swap1\n      tag_55\n      swap2\n      swap1\n      tag_56\n      jump\t// in\n    tag_55:\n      tag_57\n      jump\t// in\n    tag_54:\n      stop\n        /* \"contracts/Produce.sol\":1122:1507  function placeOrder() external payable {... */\n    tag_12:\n      tag_58\n      tag_59\n      jump\t// in\n    tag_58:\n      stop\n        /* \"contracts/Produce.sol\":299:325  uint256 public produceHash */\n    tag_13:\n      callvalue\n      dup1\n      iszero\n      tag_60\n      jumpi\n      0x00\n      dup1\n      revert\n    tag_60:\n      pop\n      tag_61\n      tag_62\n      jump\t// in\n    tag_61:\n      mload(0x40)\n      tag_63\n      swap2\n      swap1\n      tag_19\n      jump\t// in\n    tag_63:\n      mload(0x40)\n      dup1\n      swap2\n      sub\n      swap1\n      return\n        /* \"contracts/Produce.sol\":257:292  uint256 public limitOnPendingOrders */\n    tag_17:\n      sload(0x04)\n      dup2\n      jump\t// out\n        /* \"contracts/Produce.sol\":553:1069  function initilize(... */\n    tag_24:\n        /* \"contracts/Produce.sol\":758:777  State.UNINITIALIZED */\n      0x00\n        /* \"contracts/Produce.sol\":751:777  state==State.UNINITIALIZED */\n      0x02\n      dup2\n      gt\n      iszero\n      tag_65\n      jumpi\n      tag_66\n      tag_67\n      jump\t// in\n    tag_66:\n    tag_65:\n        /* \"contracts/Produce.sol\":751:756  state */\n      0x08\n      0x00\n      swap1\n      sload\n      swap1\n      0x0100\n      exp\n      swap1\n      div\n      0xff\n      and\n        /* \"contracts/Produce.sol\":751:777  state==State.UNINITIALIZED */\n      0x02\n      dup2\n      gt\n      iszero\n      tag_68\n      jumpi\n      tag_69\n      tag_67\n      jump\t// in\n    tag_69:\n    tag_68:\n      eq\n        /* \"contracts/Produce.sol\":743:822  require(state==State.UNINITIALIZED, \"This produce has already been initilized\") */\n      tag_70\n      jumpi\n      mload(0x40)\n      0x08c379a000000000000000000000000000000000000000000000000000000000\n      dup2\n      mstore\n      0x04\n      add\n      tag_71\n      swap1\n      tag_72\n      jump\t// in\n    tag_71:\n      mload(0x40)\n      dup1\n      swap2\n      sub\n      swap1\n      revert\n    tag_70:\n        /* \"contracts/Produce.sol\":832:859  _transferOwnership(_farmer) */\n      tag_73\n        /* \"contracts/Produce.sol\":851:858  _farmer */\n      dup6\n        /* \"contracts/Produce.sol\":832:850  _transferOwnership */\n      tag_74\n        /* \"contracts/Produce.sol\":832:859  _transferOwnership(_farmer) */\n      jump\t// in\n    tag_73:\n        /* \"contracts/Produce.sol\":878:888  msg.sender */\n      caller\n        /* \"contracts/Produce.sol\":869:875  market */\n      0x02\n      0x00\n        /* \"contracts/Produce.sol\":869:888  market = msg.sender */\n      0x0100\n      exp\n      dup2\n      sload\n      dup2\n      0xffffffffffffffffffffffffffffffffffffffff\n      mul\n      not\n      and\n      swap1\n      dup4\n      0xffffffffffffffffffffffffffffffffffffffff\n      and\n      mul\n      or\n      swap1\n      sstore\n      pop\n        /* \"contracts/Produce.sol\":921:942  _limitOnPendingOrders */\n      dup1\n        /* \"contracts/Produce.sol\":898:918  limitOnPendingOrders */\n      0x04\n        /* \"contracts/Produce.sol\":898:942  limitOnPendingOrders = _limitOnPendingOrders */\n      dup2\n      swap1\n      sstore\n      pop\n        /* \"contracts/Produce.sol\":966:978  _produceHash */\n      dup4\n        /* \"contracts/Produce.sol\":952:963  produceHash */\n      0x05\n        /* \"contracts/Produce.sol\":952:978  produceHash = _produceHash */\n      dup2\n      swap1\n      sstore\n      pop\n        /* \"contracts/Produce.sol\":996:1002  _price */\n      dup3\n        /* \"contracts/Produce.sol\":988:993  price */\n      0x06\n        /* \"contracts/Produce.sol\":988:1002  price = _price */\n      dup2\n      swap1\n      sstore\n      pop\n        /* \"contracts/Produce.sol\":1024:1034  _orderSize */\n      dup2\n        /* \"contracts/Produce.sol\":1012:1021  orderSize */\n      0x07\n        /* \"contracts/Produce.sol\":1012:1034  orderSize = _orderSize */\n      dup2\n      swap1\n      sstore\n      pop\n        /* \"contracts/Produce.sol\":1052:1062  State.OPEN */\n      0x01\n        /* \"contracts/Produce.sol\":1044:1049  state */\n      0x08\n      0x00\n        /* \"contracts/Produce.sol\":1044:1062  state = State.OPEN */\n      0x0100\n      exp\n      dup2\n      sload\n      dup2\n      0xff\n      mul\n      not\n      and\n      swap1\n      dup4\n      0x02\n      dup2\n      gt\n      iszero\n      tag_75\n      jumpi\n      tag_76\n      tag_67\n      jump\t// in\n    tag_76:\n    tag_75:\n      mul\n      or\n      swap1\n      sstore\n      pop\n        /* \"contracts/Produce.sol\":553:1069  function initilize(... */\n      pop\n      pop\n      pop\n      pop\n      pop\n      jump\t// out\n        /* \"contracts/Produce.sol\":357:381  uint256 public orderSize */\n    tag_27:\n      sload(0x07)\n      dup2\n      jump\t// out\n        /* \"@openzeppelin/contracts/access/Ownable.sol\":1831:1932  function renounceOwnership() public virtual onlyOwner {... */\n    tag_31:\n        /* \"@openzeppelin/contracts/access/Ownable.sol\":1094:1107  _checkOwner() */\n      tag_78\n        /* \"@openzeppelin/contracts/access/Ownable.sol\":1094:1105  _checkOwner */\n      tag_79\n        /* \"@openzeppelin/contracts/access/Ownable.sol\":1094:1107  _checkOwner() */\n      jump\t// in\n    tag_78:\n        /* \"@openzeppelin/contracts/access/Ownable.sol\":1895:1925  _transferOwnership(address(0)) */\n      tag_81\n        /* \"@openzeppelin/contracts/access/Ownable.sol\":1922:1923  0 */\n      0x00\n        /* \"@openzeppelin/contracts/access/Ownable.sol\":1895:1913  _transferOwnership */\n      tag_74\n        /* \"@openzeppelin/contracts/access/Ownable.sol\":1895:1925  _transferOwnership(address(0)) */\n      jump\t// in\n    tag_81:\n        /* \"@openzeppelin/contracts/access/Ownable.sol\":1831:1932  function renounceOwnership() public virtual onlyOwner {... */\n      jump\t// out\n        /* \"contracts/Produce.sol\":200:221  address public market */\n    tag_34:\n      0x02\n      0x00\n      swap1\n      sload\n      swap1\n      0x0100\n      exp\n      swap1\n      div\n      0xffffffffffffffffffffffffffffffffffffffff\n      and\n      dup2\n      jump\t// out\n        /* \"@openzeppelin/contracts/access/Ownable.sol\":1201:1286  function owner() public view virtual returns (address) {... */\n    tag_39:\n        /* \"@openzeppelin/contracts/access/Ownable.sol\":1247:1254  address */\n      0x00\n        /* \"@openzeppelin/contracts/access/Ownable.sol\":1273:1279  _owner */\n      dup1\n      0x00\n      swap1\n      sload\n      swap1\n      0x0100\n      exp\n      swap1\n      div\n      0xffffffffffffffffffffffffffffffffffffffff\n      and\n        /* \"@openzeppelin/contracts/access/Ownable.sol\":1266:1279  return _owner */\n      swap1\n      pop\n        /* \"@openzeppelin/contracts/access/Ownable.sol\":1201:1286  function owner() public view virtual returns (address) {... */\n      swap1\n      jump\t// out\n        /* \"contracts/Produce.sol\":331:351  uint256 public price */\n    tag_43:\n      sload(0x06)\n      dup2\n      jump\t// out\n        /* \"contracts/Produce.sol\":1571:1806  function takeOrder() external onlyOwner returns (address order) {... */\n    tag_47:\n        /* \"contracts/Produce.sol\":1620:1633  address order */\n      0x00\n        /* \"@openzeppelin/contracts/access/Ownable.sol\":1094:1107  _checkOwner() */\n      tag_84\n        /* \"@openzeppelin/contracts/access/Ownable.sol\":1094:1105  _checkOwner */\n      tag_79\n        /* \"@openzeppelin/contracts/access/Ownable.sol\":1094:1107  _checkOwner() */\n      jump\t// in\n    tag_84:\n        /* \"contracts/Produce.sol\":1669:1670  0 */\n      0x00\n        /* \"contracts/Produce.sol\":1653:1659  orders */\n      0x03\n        /* \"contracts/Produce.sol\":1653:1666  orders.length */\n      dup1\n      sload\n      swap1\n      pop\n        /* \"contracts/Produce.sol\":1653:1670  orders.length > 0 */\n      gt\n        /* \"contracts/Produce.sol\":1645:1692  require(orders.length > 0, \"No orders to take\") */\n      tag_86\n      jumpi\n      mload(0x40)\n      0x08c379a000000000000000000000000000000000000000000000000000000000\n      dup2\n      mstore\n      0x04\n      add\n      tag_87\n      swap1\n      tag_88\n      jump\t// in\n    tag_87:\n      mload(0x40)\n      dup1\n      swap2\n      sub\n      swap1\n      revert\n    tag_86:\n        /* \"contracts/Produce.sol\":1702:1721  address orderToTake */\n      0x00\n        /* \"contracts/Produce.sol\":1724:1730  orders */\n      0x03\n        /* \"contracts/Produce.sol\":1747:1748  1 */\n      0x01\n        /* \"contracts/Produce.sol\":1731:1737  orders */\n      0x03\n        /* \"contracts/Produce.sol\":1731:1744  orders.length */\n      dup1\n      sload\n      swap1\n      pop\n        /* \"contracts/Produce.sol\":1731:1748  orders.length - 1 */\n      tag_89\n      swap2\n      swap1\n      tag_90\n      jump\t// in\n    tag_89:\n        /* \"contracts/Produce.sol\":1724:1749  orders[orders.length - 1] */\n      dup2\n      sload\n      dup2\n      lt\n      tag_91\n      jumpi\n      tag_92\n      tag_93\n      jump\t// in\n    tag_92:\n    tag_91:\n      swap1\n      0x00\n      mstore\n      keccak256(0x00, 0x20)\n      add\n      0x00\n      swap1\n      sload\n      swap1\n      0x0100\n      exp\n      swap1\n      div\n      0xffffffffffffffffffffffffffffffffffffffff\n      and\n        /* \"contracts/Produce.sol\":1702:1749  address orderToTake = orders[orders.length - 1] */\n      swap1\n      pop\n        /* \"contracts/Produce.sol\":1759:1765  orders */\n      0x03\n        /* \"contracts/Produce.sol\":1759:1771  orders.pop() */\n      dup1\n      sload\n      dup1\n      tag_95\n      jumpi\n      tag_96\n      tag_97\n      jump\t// in\n    tag_96:\n    tag_95:\n      0x01\n      swap1\n      sub\n      dup2\n      dup2\n      swap1\n      0x00\n      mstore\n      keccak256(0x00, 0x20)\n      add\n      exp(0x0100, 0x00)\n      dup2\n      sload\n      swap1\n      0xffffffffffffffffffffffffffffffffffffffff\n      mul\n      not\n      and\n      swap1\n      sstore\n      swap1\n      sstore\n        /* \"contracts/Produce.sol\":1788:1799  orderToTake */\n      dup1\n        /* \"contracts/Produce.sol\":1781:1799  return orderToTake */\n      swap2\n      pop\n      pop\n        /* \"contracts/Produce.sol\":1571:1806  function takeOrder() external onlyOwner returns (address order) {... */\n      swap1\n      jump\t// out\n        /* \"contracts/Produce.sol\":173:194  address public farmer */\n    tag_51:\n      0x01\n      0x00\n      swap1\n      sload\n      swap1\n      0x0100\n      exp\n      swap1\n      div\n      0xffffffffffffffffffffffffffffffffffffffff\n      and\n      dup2\n      jump\t// out\n        /* \"@openzeppelin/contracts/access/Ownable.sol\":2081:2279  function transferOwnership(address newOwner) public virtual onlyOwner {... */\n    tag_57:\n        /* \"@openzeppelin/contracts/access/Ownable.sol\":1094:1107  _checkOwner() */\n      tag_100\n        /* \"@openzeppelin/contracts/access/Ownable.sol\":1094:1105  _checkOwner */\n      tag_79\n        /* \"@openzeppelin/contracts/access/Ownable.sol\":1094:1107  _checkOwner() */\n      jump\t// in\n    tag_100:\n        /* \"@openzeppelin/contracts/access/Ownable.sol\":2189:2190  0 */\n      0x00\n        /* \"@openzeppelin/contracts/access/Ownable.sol\":2169:2191  newOwner != address(0) */\n      0xffffffffffffffffffffffffffffffffffffffff\n      and\n        /* \"@openzeppelin/contracts/access/Ownable.sol\":2169:2177  newOwner */\n      dup2\n        /* \"@openzeppelin/contracts/access/Ownable.sol\":2169:2191  newOwner != address(0) */\n      0xffffffffffffffffffffffffffffffffffffffff\n      and\n      sub\n        /* \"@openzeppelin/contracts/access/Ownable.sol\":2161:2234  require(newOwner != address(0), \"Ownable: new owner is the zero address\") */\n      tag_102\n      jumpi\n      mload(0x40)\n      0x08c379a000000000000000000000000000000000000000000000000000000000\n      dup2\n      mstore\n      0x04\n      add\n      tag_103\n      swap1\n      tag_104\n      jump\t// in\n    tag_103:\n      mload(0x40)\n      dup1\n      swap2\n      sub\n      swap1\n      revert\n    tag_102:\n        /* \"@openzeppelin/contracts/access/Ownable.sol\":2244:2272  _transferOwnership(newOwner) */\n      tag_105\n        /* \"@openzeppelin/contracts/access/Ownable.sol\":2263:2271  newOwner */\n      dup2\n        /* \"@openzeppelin/contracts/access/Ownable.sol\":2244:2262  _transferOwnership */\n      tag_74\n        /* \"@openzeppelin/contracts/access/Ownable.sol\":2244:2272  _transferOwnership(newOwner) */\n      jump\t// in\n    tag_105:\n        /* \"@openzeppelin/contracts/access/Ownable.sol\":2081:2279  function transferOwnership(address newOwner) public virtual onlyOwner {... */\n      pop\n      jump\t// out\n        /* \"contracts/Produce.sol\":1122:1507  function placeOrder() external payable {... */\n    tag_59:\n        /* \"contracts/Produce.sol\":1206:1213  owner() */\n      tag_107\n        /* \"contracts/Produce.sol\":1206:1211  owner */\n      tag_39\n        /* \"contracts/Produce.sol\":1206:1213  owner() */\n      jump\t// in\n    tag_107:\n        /* \"contracts/Produce.sol\":1192:1213  msg.sender != owner() */\n      0xffffffffffffffffffffffffffffffffffffffff\n      and\n        /* \"contracts/Produce.sol\":1192:1202  msg.sender */\n      caller\n        /* \"contracts/Produce.sol\":1192:1213  msg.sender != owner() */\n      0xffffffffffffffffffffffffffffffffffffffff\n      and\n      sub\n        /* \"contracts/Produce.sol\":1171:1286  require(... */\n      tag_108\n      jumpi\n      mload(0x40)\n      0x08c379a000000000000000000000000000000000000000000000000000000000\n      dup2\n      mstore\n      0x04\n      add\n      tag_109\n      swap1\n      tag_110\n      jump\t// in\n    tag_109:\n      mload(0x40)\n      dup1\n      swap2\n      sub\n      swap1\n      revert\n    tag_108:\n        /* \"contracts/Produce.sol\":1342:1347  price */\n      sload(0x06)\n        /* \"contracts/Produce.sol\":1330:1339  orderSize */\n      sload(0x07)\n        /* \"contracts/Produce.sol\":1330:1347  orderSize * price */\n      tag_111\n      swap2\n      swap1\n      tag_112\n      jump\t// in\n    tag_111:\n        /* \"contracts/Produce.sol\":1317:1326  msg.value */\n      callvalue\n        /* \"contracts/Produce.sol\":1317:1347  msg.value == orderSize * price */\n      eq\n        /* \"contracts/Produce.sol\":1296:1412  require(... */\n      tag_113\n      jumpi\n      mload(0x40)\n      0x08c379a000000000000000000000000000000000000000000000000000000000\n      dup2\n      mstore\n      0x04\n      add\n      tag_114\n      swap1\n      tag_115\n      jump\t// in\n    tag_114:\n      mload(0x40)\n      dup1\n      swap2\n      sub\n      swap1\n      revert\n    tag_113:\n        /* \"contracts/Produce.sol\":1446:1466  limitOnPendingOrders */\n      sload(0x04)\n        /* \"contracts/Produce.sol\":1430:1436  orders */\n      0x03\n        /* \"contracts/Produce.sol\":1430:1443  orders.length */\n      dup1\n      sload\n      swap1\n      pop\n        /* \"contracts/Produce.sol\":1430:1466  orders.length < limitOnPendingOrders */\n      lt\n        /* \"contracts/Produce.sol\":1422:1467  require(orders.length < limitOnPendingOrders) */\n      tag_116\n      jumpi\n      0x00\n      dup1\n      revert\n    tag_116:\n        /* \"contracts/Produce.sol\":1477:1483  orders */\n      0x03\n        /* \"contracts/Produce.sol\":1489:1499  msg.sender */\n      caller\n        /* \"contracts/Produce.sol\":1477:1500  orders.push(msg.sender) */\n      swap1\n      dup1\n      0x01\n      dup2\n      sload\n      add\n      dup1\n      dup3\n      sstore\n      dup1\n      swap2\n      pop\n      pop\n      0x01\n      swap1\n      sub\n      swap1\n      0x00\n      mstore\n      keccak256(0x00, 0x20)\n      add\n      0x00\n      swap1\n      swap2\n      swap1\n      swap2\n      swap1\n      swap2\n      0x0100\n      exp\n      dup2\n      sload\n      dup2\n      0xffffffffffffffffffffffffffffffffffffffff\n      mul\n      not\n      and\n      swap1\n      dup4\n      0xffffffffffffffffffffffffffffffffffffffff\n      and\n      mul\n      or\n      swap1\n      sstore\n      pop\n        /* \"contracts/Produce.sol\":1122:1507  function placeOrder() external payable {... */\n      jump\t// out\n        /* \"contracts/Produce.sol\":299:325  uint256 public produceHash */\n    tag_62:\n      sload(0x05)\n      dup2\n      jump\t// out\n        /* \"@openzeppelin/contracts/access/Ownable.sol\":2433:2620  function _transferOwnership(address newOwner) internal virtual {... */\n    tag_74:\n        /* \"@openzeppelin/contracts/access/Ownable.sol\":2506:2522  address oldOwner */\n      0x00\n        /* \"@openzeppelin/contracts/access/Ownable.sol\":2525:2531  _owner */\n      dup1\n      0x00\n      swap1\n      sload\n      swap1\n      0x0100\n      exp\n      swap1\n      div\n      0xffffffffffffffffffffffffffffffffffffffff\n      and\n        /* \"@openzeppelin/contracts/access/Ownable.sol\":2506:2531  address oldOwner = _owner */\n      swap1\n      pop\n        /* \"@openzeppelin/contracts/access/Ownable.sol\":2550:2558  newOwner */\n      dup2\n        /* \"@openzeppelin/contracts/access/Ownable.sol\":2541:2547  _owner */\n      0x00\n      dup1\n        /* \"@openzeppelin/contracts/access/Ownable.sol\":2541:2558  _owner = newOwner */\n      0x0100\n      exp\n      dup2\n      sload\n      dup2\n      0xffffffffffffffffffffffffffffffffffffffff\n      mul\n      not\n      and\n      swap1\n      dup4\n      0xffffffffffffffffffffffffffffffffffffffff\n      and\n      mul\n      or\n      swap1\n      sstore\n      pop\n        /* \"@openzeppelin/contracts/access/Ownable.sol\":2604:2612  newOwner */\n      dup2\n        /* \"@openzeppelin/contracts/access/Ownable.sol\":2573:2613  OwnershipTransferred(oldOwner, newOwner) */\n      0xffffffffffffffffffffffffffffffffffffffff\n      and\n        /* \"@openzeppelin/contracts/access/Ownable.sol\":2594:2602  oldOwner */\n      dup2\n        /* \"@openzeppelin/contracts/access/Ownable.sol\":2573:2613  OwnershipTransferred(oldOwner, newOwner) */\n      0xffffffffffffffffffffffffffffffffffffffff\n      and\n      0x8be0079c531659141344cd1fd0a4f28419497f9722a3daafe3b4186f6b6457e0\n      mload(0x40)\n      mload(0x40)\n      dup1\n      swap2\n      sub\n      swap1\n      log3\n        /* \"@openzeppelin/contracts/access/Ownable.sol\":2496:2620  {... */\n      pop\n        /* \"@openzeppelin/contracts/access/Ownable.sol\":2433:2620  function _transferOwnership(address newOwner) internal virtual {... */\n      pop\n      jump\t// out\n        /* \"@openzeppelin/contracts/access/Ownable.sol\":1359:1489  function _checkOwner() internal view virtual {... */\n    tag_79:\n        /* \"@openzeppelin/contracts/access/Ownable.sol\":1433:1445  _msgSender() */\n      tag_120\n        /* \"@openzeppelin/contracts/access/Ownable.sol\":1433:1443  _msgSender */\n      tag_121\n        /* \"@openzeppelin/contracts/access/Ownable.sol\":1433:1445  _msgSender() */\n      jump\t// in\n    tag_120:\n        /* \"@openzeppelin/contracts/access/Ownable.sol\":1422:1445  owner() == _msgSender() */\n      0xffffffffffffffffffffffffffffffffffffffff\n      and\n        /* \"@openzeppelin/contracts/access/Ownable.sol\":1422:1429  owner() */\n      tag_122\n        /* \"@openzeppelin/contracts/access/Ownable.sol\":1422:1427  owner */\n      tag_39\n        /* \"@openzeppelin/contracts/access/Ownable.sol\":1422:1429  owner() */\n      jump\t// in\n    tag_122:\n        /* \"@openzeppelin/contracts/access/Ownable.sol\":1422:1445  owner() == _msgSender() */\n      0xffffffffffffffffffffffffffffffffffffffff\n      and\n      eq\n        /* \"@openzeppelin/contracts/access/Ownable.sol\":1414:1482  require(owner() == _msgSender(), \"Ownable: caller is not the owner\") */\n      tag_123\n      jumpi\n      mload(0x40)\n      0x08c379a000000000000000000000000000000000000000000000000000000000\n      dup2\n      mstore\n      0x04\n      add\n      tag_124\n      swap1\n      tag_125\n      jump\t// in\n    tag_124:\n      mload(0x40)\n      dup1\n      swap2\n      sub\n      swap1\n      revert\n    tag_123:\n        /* \"@openzeppelin/contracts/access/Ownable.sol\":1359:1489  function _checkOwner() internal view virtual {... */\n      jump\t// out\n        /* \"@openzeppelin/contracts/utils/Context.sol\":640:736  function _msgSender() internal view virtual returns (address) {... */\n    tag_121:\n        /* \"@openzeppelin/contracts/utils/Context.sol\":693:700  address */\n      0x00\n        /* \"@openzeppelin/contracts/utils/Context.sol\":719:729  msg.sender */\n      caller\n        /* \"@openzeppelin/contracts/utils/Context.sol\":712:729  return msg.sender */\n      swap1\n      pop\n        /* \"@openzeppelin/contracts/utils/Context.sol\":640:736  function _msgSender() internal view virtual returns (address) {... */\n      swap1\n      jump\t// out\n        /* \"#utility.yul\":7:84   */\n    tag_127:\n        /* \"#utility.yul\":44:51   */\n      0x00\n        /* \"#utility.yul\":73:78   */\n      dup2\n        /* \"#utility.yul\":62:78   */\n      swap1\n      pop\n        /* \"#utility.yul\":7:84   */\n      swap2\n      swap1\n      pop\n      jump\t// out\n        /* \"#utility.yul\":90:208   */\n    tag_128:\n        /* \"#utility.yul\":177:201   */\n      tag_156\n        /* \"#utility.yul\":195:200   */\n      dup2\n        /* \"#utility.yul\":177:201   */\n      tag_127\n      jump\t// in\n    tag_156:\n        /* \"#utility.yul\":172:175   */\n      dup3\n        /* \"#utility.yul\":165:202   */\n      mstore\n        /* \"#utility.yul\":90:208   */\n      pop\n      pop\n      jump\t// out\n        /* \"#utility.yul\":214:436   */\n    tag_19:\n        /* \"#utility.yul\":307:311   */\n      0x00\n        /* \"#utility.yul\":345:347   */\n      0x20\n        /* \"#utility.yul\":334:343   */\n      dup3\n        /* \"#utility.yul\":330:348   */\n      add\n        /* \"#utility.yul\":322:348   */\n      swap1\n      pop\n        /* \"#utility.yul\":358:429   */\n      tag_158\n        /* \"#utility.yul\":426:427   */\n      0x00\n        /* \"#utility.yul\":415:424   */\n      dup4\n        /* \"#utility.yul\":411:428   */\n      add\n        /* \"#utility.yul\":402:408   */\n      dup5\n        /* \"#utility.yul\":358:429   */\n      tag_128\n      jump\t// in\n    tag_158:\n        /* \"#utility.yul\":214:436   */\n      swap3\n      swap2\n      pop\n      pop\n      jump\t// out\n        /* \"#utility.yul\":523:640   */\n    tag_130:\n        /* \"#utility.yul\":632:633   */\n      0x00\n        /* \"#utility.yul\":629:630   */\n      dup1\n        /* \"#utility.yul\":622:634   */\n      revert\n        /* \"#utility.yul\":769:895   */\n    tag_132:\n        /* \"#utility.yul\":806:813   */\n      0x00\n        /* \"#utility.yul\":846:888   */\n      0xffffffffffffffffffffffffffffffffffffffff\n        /* \"#utility.yul\":839:844   */\n      dup3\n        /* \"#utility.yul\":835:889   */\n      and\n        /* \"#utility.yul\":824:889   */\n      swap1\n      pop\n        /* \"#utility.yul\":769:895   */\n      swap2\n      swap1\n      pop\n      jump\t// out\n        /* \"#utility.yul\":901:997   */\n    tag_133:\n        /* \"#utility.yul\":938:945   */\n      0x00\n        /* \"#utility.yul\":967:991   */\n      tag_164\n        /* \"#utility.yul\":985:990   */\n      dup3\n        /* \"#utility.yul\":967:991   */\n      tag_132\n      jump\t// in\n    tag_164:\n        /* \"#utility.yul\":956:991   */\n      swap1\n      pop\n        /* \"#utility.yul\":901:997   */\n      swap2\n      swap1\n      pop\n      jump\t// out\n        /* \"#utility.yul\":1003:1125   */\n    tag_134:\n        /* \"#utility.yul\":1076:1100   */\n      tag_166\n        /* \"#utility.yul\":1094:1099   */\n      dup2\n        /* \"#utility.yul\":1076:1100   */\n      tag_133\n      jump\t// in\n    tag_166:\n        /* \"#utility.yul\":1069:1074   */\n      dup2\n        /* \"#utility.yul\":1066:1101   */\n      eq\n        /* \"#utility.yul\":1056:1119   */\n      tag_167\n      jumpi\n        /* \"#utility.yul\":1115:1116   */\n      0x00\n        /* \"#utility.yul\":1112:1113   */\n      dup1\n        /* \"#utility.yul\":1105:1117   */\n      revert\n        /* \"#utility.yul\":1056:1119   */\n    tag_167:\n        /* \"#utility.yul\":1003:1125   */\n      pop\n      jump\t// out\n        /* \"#utility.yul\":1131:1270   */\n    tag_135:\n        /* \"#utility.yul\":1177:1182   */\n      0x00\n        /* \"#utility.yul\":1215:1221   */\n      dup2\n        /* \"#utility.yul\":1202:1222   */\n      calldataload\n        /* \"#utility.yul\":1193:1222   */\n      swap1\n      pop\n        /* \"#utility.yul\":1231:1264   */\n      tag_169\n        /* \"#utility.yul\":1258:1263   */\n      dup2\n        /* \"#utility.yul\":1231:1264   */\n      tag_134\n      jump\t// in\n    tag_169:\n        /* \"#utility.yul\":1131:1270   */\n      swap3\n      swap2\n      pop\n      pop\n      jump\t// out\n        /* \"#utility.yul\":1276:1398   */\n    tag_136:\n        /* \"#utility.yul\":1349:1373   */\n      tag_171\n        /* \"#utility.yul\":1367:1372   */\n      dup2\n        /* \"#utility.yul\":1349:1373   */\n      tag_127\n      jump\t// in\n    tag_171:\n        /* \"#utility.yul\":1342:1347   */\n      dup2\n        /* \"#utility.yul\":1339:1374   */\n      eq\n        /* \"#utility.yul\":1329:1392   */\n      tag_172\n      jumpi\n        /* \"#utility.yul\":1388:1389   */\n      0x00\n        /* \"#utility.yul\":1385:1386   */\n      dup1\n        /* \"#utility.yul\":1378:1390   */\n      revert\n        /* \"#utility.yul\":1329:1392   */\n    tag_172:\n        /* \"#utility.yul\":1276:1398   */\n      pop\n      jump\t// out\n        /* \"#utility.yul\":1404:1543   */\n    tag_137:\n        /* \"#utility.yul\":1450:1455   */\n      0x00\n        /* \"#utility.yul\":1488:1494   */\n      dup2\n        /* \"#utility.yul\":1475:1495   */\n      calldataload\n        /* \"#utility.yul\":1466:1495   */\n      swap1\n      pop\n        /* \"#utility.yul\":1504:1537   */\n      tag_174\n        /* \"#utility.yul\":1531:1536   */\n      dup2\n        /* \"#utility.yul\":1504:1537   */\n      tag_136\n      jump\t// in\n    tag_174:\n        /* \"#utility.yul\":1404:1543   */\n      swap3\n      swap2\n      pop\n      pop\n      jump\t// out\n        /* \"#utility.yul\":1549:2460   */\n    tag_23:\n        /* \"#utility.yul\":1644:1650   */\n      0x00\n        /* \"#utility.yul\":1652:1658   */\n      dup1\n        /* \"#utility.yul\":1660:1666   */\n      0x00\n        /* \"#utility.yul\":1668:1674   */\n      dup1\n        /* \"#utility.yul\":1676:1682   */\n      0x00\n        /* \"#utility.yul\":1725:1728   */\n      0xa0\n        /* \"#utility.yul\":1713:1722   */\n      dup7\n        /* \"#utility.yul\":1704:1711   */\n      dup9\n        /* \"#utility.yul\":1700:1723   */\n      sub\n        /* \"#utility.yul\":1696:1729   */\n      slt\n        /* \"#utility.yul\":1693:1813   */\n      iszero\n      tag_176\n      jumpi\n        /* \"#utility.yul\":1732:1811   */\n      tag_177\n      tag_130\n      jump\t// in\n    tag_177:\n        /* \"#utility.yul\":1693:1813   */\n    tag_176:\n        /* \"#utility.yul\":1852:1853   */\n      0x00\n        /* \"#utility.yul\":1877:1930   */\n      tag_178\n        /* \"#utility.yul\":1922:1929   */\n      dup9\n        /* \"#utility.yul\":1913:1919   */\n      dup3\n        /* \"#utility.yul\":1902:1911   */\n      dup10\n        /* \"#utility.yul\":1898:1920   */\n      add\n        /* \"#utility.yul\":1877:1930   */\n      tag_135\n      jump\t// in\n    tag_178:\n        /* \"#utility.yul\":1867:1930   */\n      swap6\n      pop\n        /* \"#utility.yul\":1823:1940   */\n      pop\n        /* \"#utility.yul\":1979:1981   */\n      0x20\n        /* \"#utility.yul\":2005:2058   */\n      tag_179\n        /* \"#utility.yul\":2050:2057   */\n      dup9\n        /* \"#utility.yul\":2041:2047   */\n      dup3\n        /* \"#utility.yul\":2030:2039   */\n      dup10\n        /* \"#utility.yul\":2026:2048   */\n      add\n        /* \"#utility.yul\":2005:2058   */\n      tag_137\n      jump\t// in\n    tag_179:\n        /* \"#utility.yul\":1995:2058   */\n      swap5\n      pop\n        /* \"#utility.yul\":1950:2068   */\n      pop\n        /* \"#utility.yul\":2107:2109   */\n      0x40\n        /* \"#utility.yul\":2133:2186   */\n      tag_180\n        /* \"#utility.yul\":2178:2185   */\n      dup9\n        /* \"#utility.yul\":2169:2175   */\n      dup3\n        /* \"#utility.yul\":2158:2167   */\n      dup10\n        /* \"#utility.yul\":2154:2176   */\n      add\n        /* \"#utility.yul\":2133:2186   */\n      tag_137\n      jump\t// in\n    tag_180:\n        /* \"#utility.yul\":2123:2186   */\n      swap4\n      pop\n        /* \"#utility.yul\":2078:2196   */\n      pop\n        /* \"#utility.yul\":2235:2237   */\n      0x60\n        /* \"#utility.yul\":2261:2314   */\n      tag_181\n        /* \"#utility.yul\":2306:2313   */\n      dup9\n        /* \"#utility.yul\":2297:2303   */\n      dup3\n        /* \"#utility.yul\":2286:2295   */\n      dup10\n        /* \"#utility.yul\":2282:2304   */\n      add\n        /* \"#utility.yul\":2261:2314   */\n      tag_137\n      jump\t// in\n    tag_181:\n        /* \"#utility.yul\":2251:2314   */\n      swap3\n      pop\n        /* \"#utility.yul\":2206:2324   */\n      pop\n        /* \"#utility.yul\":2363:2366   */\n      0x80\n        /* \"#utility.yul\":2390:2443   */\n      tag_182\n        /* \"#utility.yul\":2435:2442   */\n      dup9\n        /* \"#utility.yul\":2426:2432   */\n      dup3\n        /* \"#utility.yul\":2415:2424   */\n      dup10\n        /* \"#utility.yul\":2411:2433   */\n      add\n        /* \"#utility.yul\":2390:2443   */\n      tag_137\n      jump\t// in\n    tag_182:\n        /* \"#utility.yul\":2380:2443   */\n      swap2\n      pop\n        /* \"#utility.yul\":2334:2453   */\n      pop\n        /* \"#utility.yul\":1549:2460   */\n      swap3\n      swap6\n      pop\n      swap3\n      swap6\n      swap1\n      swap4\n      pop\n      jump\t// out\n        /* \"#utility.yul\":2466:2584   */\n    tag_138:\n        /* \"#utility.yul\":2553:2577   */\n      tag_184\n        /* \"#utility.yul\":2571:2576   */\n      dup2\n        /* \"#utility.yul\":2553:2577   */\n      tag_133\n      jump\t// in\n    tag_184:\n        /* \"#utility.yul\":2548:2551   */\n      dup3\n        /* \"#utility.yul\":2541:2578   */\n      mstore\n        /* \"#utility.yul\":2466:2584   */\n      pop\n      pop\n      jump\t// out\n        /* \"#utility.yul\":2590:2812   */\n    tag_36:\n        /* \"#utility.yul\":2683:2687   */\n      0x00\n        /* \"#utility.yul\":2721:2723   */\n      0x20\n        /* \"#utility.yul\":2710:2719   */\n      dup3\n        /* \"#utility.yul\":2706:2724   */\n      add\n        /* \"#utility.yul\":2698:2724   */\n      swap1\n      pop\n        /* \"#utility.yul\":2734:2805   */\n      tag_186\n        /* \"#utility.yul\":2802:2803   */\n      0x00\n        /* \"#utility.yul\":2791:2800   */\n      dup4\n        /* \"#utility.yul\":2787:2804   */\n      add\n        /* \"#utility.yul\":2778:2784   */\n      dup5\n        /* \"#utility.yul\":2734:2805   */\n      tag_138\n      jump\t// in\n    tag_186:\n        /* \"#utility.yul\":2590:2812   */\n      swap3\n      swap2\n      pop\n      pop\n      jump\t// out\n        /* \"#utility.yul\":2818:3147   */\n    tag_56:\n        /* \"#utility.yul\":2877:2883   */\n      0x00\n        /* \"#utility.yul\":2926:2928   */\n      0x20\n        /* \"#utility.yul\":2914:2923   */\n      dup3\n        /* \"#utility.yul\":2905:2912   */\n      dup5\n        /* \"#utility.yul\":2901:2924   */\n      sub\n        /* \"#utility.yul\":2897:2929   */\n      slt\n        /* \"#utility.yul\":2894:3013   */\n      iszero\n      tag_188\n      jumpi\n        /* \"#utility.yul\":2932:3011   */\n      tag_189\n      tag_130\n      jump\t// in\n    tag_189:\n        /* \"#utility.yul\":2894:3013   */\n    tag_188:\n        /* \"#utility.yul\":3052:3053   */\n      0x00\n        /* \"#utility.yul\":3077:3130   */\n      tag_190\n        /* \"#utility.yul\":3122:3129   */\n      dup5\n        /* \"#utility.yul\":3113:3119   */\n      dup3\n        /* \"#utility.yul\":3102:3111   */\n      dup6\n        /* \"#utility.yul\":3098:3120   */\n      add\n        /* \"#utility.yul\":3077:3130   */\n      tag_135\n      jump\t// in\n    tag_190:\n        /* \"#utility.yul\":3067:3130   */\n      swap2\n      pop\n        /* \"#utility.yul\":3023:3140   */\n      pop\n        /* \"#utility.yul\":2818:3147   */\n      swap3\n      swap2\n      pop\n      pop\n      jump\t// out\n        /* \"#utility.yul\":3153:3333   */\n    tag_67:\n        /* \"#utility.yul\":3201:3278   */\n      0x4e487b7100000000000000000000000000000000000000000000000000000000\n        /* \"#utility.yul\":3198:3199   */\n      0x00\n        /* \"#utility.yul\":3191:3279   */\n      mstore\n        /* \"#utility.yul\":3298:3302   */\n      0x21\n        /* \"#utility.yul\":3295:3296   */\n      0x04\n        /* \"#utility.yul\":3288:3303   */\n      mstore\n        /* \"#utility.yul\":3322:3326   */\n      0x24\n        /* \"#utility.yul\":3319:3320   */\n      0x00\n        /* \"#utility.yul\":3312:3327   */\n      revert\n        /* \"#utility.yul\":3339:3508   */\n    tag_139:\n        /* \"#utility.yul\":3423:3434   */\n      0x00\n        /* \"#utility.yul\":3457:3463   */\n      dup3\n        /* \"#utility.yul\":3452:3455   */\n      dup3\n        /* \"#utility.yul\":3445:3464   */\n      mstore\n        /* \"#utility.yul\":3497:3501   */\n      0x20\n        /* \"#utility.yul\":3492:3495   */\n      dup3\n        /* \"#utility.yul\":3488:3502   */\n      add\n        /* \"#utility.yul\":3473:3502   */\n      swap1\n      pop\n        /* \"#utility.yul\":3339:3508   */\n      swap3\n      swap2\n      pop\n      pop\n      jump\t// out\n        /* \"#utility.yul\":3514:3741   */\n    tag_140:\n        /* \"#utility.yul\":3654:3688   */\n      0x546869732070726f647563652068617320616c7265616479206265656e20696e\n        /* \"#utility.yul\":3650:3651   */\n      0x00\n        /* \"#utility.yul\":3642:3648   */\n      dup3\n        /* \"#utility.yul\":3638:3652   */\n      add\n        /* \"#utility.yul\":3631:3689   */\n      mstore\n        /* \"#utility.yul\":3723:3733   */\n      0x6974696c697a6564000000000000000000000000000000000000000000000000\n        /* \"#utility.yul\":3718:3720   */\n      0x20\n        /* \"#utility.yul\":3710:3716   */\n      dup3\n        /* \"#utility.yul\":3706:3721   */\n      add\n        /* \"#utility.yul\":3699:3734   */\n      mstore\n        /* \"#utility.yul\":3514:3741   */\n      pop\n      jump\t// out\n        /* \"#utility.yul\":3747:4113   */\n    tag_141:\n        /* \"#utility.yul\":3889:3892   */\n      0x00\n        /* \"#utility.yul\":3910:3977   */\n      tag_195\n        /* \"#utility.yul\":3974:3976   */\n      0x28\n        /* \"#utility.yul\":3969:3972   */\n      dup4\n        /* \"#utility.yul\":3910:3977   */\n      tag_139\n      jump\t// in\n    tag_195:\n        /* \"#utility.yul\":3903:3977   */\n      swap2\n      pop\n        /* \"#utility.yul\":3986:4079   */\n      tag_196\n        /* \"#utility.yul\":4075:4078   */\n      dup3\n        /* \"#utility.yul\":3986:4079   */\n      tag_140\n      jump\t// in\n    tag_196:\n        /* \"#utility.yul\":4104:4106   */\n      0x40\n        /* \"#utility.yul\":4099:4102   */\n      dup3\n        /* \"#utility.yul\":4095:4107   */\n      add\n        /* \"#utility.yul\":4088:4107   */\n      swap1\n      pop\n        /* \"#utility.yul\":3747:4113   */\n      swap2\n      swap1\n      pop\n      jump\t// out\n        /* \"#utility.yul\":4119:4538   */\n    tag_72:\n        /* \"#utility.yul\":4285:4289   */\n      0x00\n        /* \"#utility.yul\":4323:4325   */\n      0x20\n        /* \"#utility.yul\":4312:4321   */\n      dup3\n        /* \"#utility.yul\":4308:4326   */\n      add\n        /* \"#utility.yul\":4300:4326   */\n      swap1\n      pop\n        /* \"#utility.yul\":4372:4381   */\n      dup2\n        /* \"#utility.yul\":4366:4370   */\n      dup2\n        /* \"#utility.yul\":4362:4382   */\n      sub\n        /* \"#utility.yul\":4358:4359   */\n      0x00\n        /* \"#utility.yul\":4347:4356   */\n      dup4\n        /* \"#utility.yul\":4343:4360   */\n      add\n        /* \"#utility.yul\":4336:4383   */\n      mstore\n        /* \"#utility.yul\":4400:4531   */\n      tag_198\n        /* \"#utility.yul\":4526:4530   */\n      dup2\n        /* \"#utility.yul\":4400:4531   */\n      tag_141\n      jump\t// in\n    tag_198:\n        /* \"#utility.yul\":4392:4531   */\n      swap1\n      pop\n        /* \"#utility.yul\":4119:4538   */\n      swap2\n      swap1\n      pop\n      jump\t// out\n        /* \"#utility.yul\":4544:4711   */\n    tag_142:\n        /* \"#utility.yul\":4684:4703   */\n      0x4e6f206f726465727320746f2074616b65000000000000000000000000000000\n        /* \"#utility.yul\":4680:4681   */\n      0x00\n        /* \"#utility.yul\":4672:4678   */\n      dup3\n        /* \"#utility.yul\":4668:4682   */\n      add\n        /* \"#utility.yul\":4661:4704   */\n      mstore\n        /* \"#utility.yul\":4544:4711   */\n      pop\n      jump\t// out\n        /* \"#utility.yul\":4717:5083   */\n    tag_143:\n        /* \"#utility.yul\":4859:4862   */\n      0x00\n        /* \"#utility.yul\":4880:4947   */\n      tag_201\n        /* \"#utility.yul\":4944:4946   */\n      0x11\n        /* \"#utility.yul\":4939:4942   */\n      dup4\n        /* \"#utility.yul\":4880:4947   */\n      tag_139\n      jump\t// in\n    tag_201:\n        /* \"#utility.yul\":4873:4947   */\n      swap2\n      pop\n        /* \"#utility.yul\":4956:5049   */\n      tag_202\n        /* \"#utility.yul\":5045:5048   */\n      dup3\n        /* \"#utility.yul\":4956:5049   */\n      tag_142\n      jump\t// in\n    tag_202:\n        /* \"#utility.yul\":5074:5076   */\n      0x20\n        /* \"#utility.yul\":5069:5072   */\n      dup3\n        /* \"#utility.yul\":5065:5077   */\n      add\n        /* \"#utility.yul\":5058:5077   */\n      swap1\n      pop\n        /* \"#utility.yul\":4717:5083   */\n      swap2\n      swap1\n      pop\n      jump\t// out\n        /* \"#utility.yul\":5089:5508   */\n    tag_88:\n        /* \"#utility.yul\":5255:5259   */\n      0x00\n        /* \"#utility.yul\":5293:5295   */\n      0x20\n        /* \"#utility.yul\":5282:5291   */\n      dup3\n        /* \"#utility.yul\":5278:5296   */\n      add\n        /* \"#utility.yul\":5270:5296   */\n      swap1\n      pop\n        /* \"#utility.yul\":5342:5351   */\n      dup2\n        /* \"#utility.yul\":5336:5340   */\n      dup2\n        /* \"#utility.yul\":5332:5352   */\n      sub\n        /* \"#utility.yul\":5328:5329   */\n      0x00\n        /* \"#utility.yul\":5317:5326   */\n      dup4\n        /* \"#utility.yul\":5313:5330   */\n      add\n        /* \"#utility.yul\":5306:5353   */\n      mstore\n        /* \"#utility.yul\":5370:5501   */\n      tag_204\n        /* \"#utility.yul\":5496:5500   */\n      dup2\n        /* \"#utility.yul\":5370:5501   */\n      tag_143\n      jump\t// in\n    tag_204:\n        /* \"#utility.yul\":5362:5501   */\n      swap1\n      pop\n        /* \"#utility.yul\":5089:5508   */\n      swap2\n      swap1\n      pop\n      jump\t// out\n        /* \"#utility.yul\":5514:5694   */\n    tag_144:\n        /* \"#utility.yul\":5562:5639   */\n      0x4e487b7100000000000000000000000000000000000000000000000000000000\n        /* \"#utility.yul\":5559:5560   */\n      0x00\n        /* \"#utility.yul\":5552:5640   */\n      mstore\n        /* \"#utility.yul\":5659:5663   */\n      0x11\n        /* \"#utility.yul\":5656:5657   */\n      0x04\n        /* \"#utility.yul\":5649:5664   */\n      mstore\n        /* \"#utility.yul\":5683:5687   */\n      0x24\n        /* \"#utility.yul\":5680:5681   */\n      0x00\n        /* \"#utility.yul\":5673:5688   */\n      revert\n        /* \"#utility.yul\":5700:5894   */\n    tag_90:\n        /* \"#utility.yul\":5740:5744   */\n      0x00\n        /* \"#utility.yul\":5760:5780   */\n      tag_207\n        /* \"#utility.yul\":5778:5779   */\n      dup3\n        /* \"#utility.yul\":5760:5780   */\n      tag_127\n      jump\t// in\n    tag_207:\n        /* \"#utility.yul\":5755:5780   */\n      swap2\n      pop\n        /* \"#utility.yul\":5794:5814   */\n      tag_208\n        /* \"#utility.yul\":5812:5813   */\n      dup4\n        /* \"#utility.yul\":5794:5814   */\n      tag_127\n      jump\t// in\n    tag_208:\n        /* \"#utility.yul\":5789:5814   */\n      swap3\n      pop\n        /* \"#utility.yul\":5838:5839   */\n      dup3\n        /* \"#utility.yul\":5835:5836   */\n      dup3\n        /* \"#utility.yul\":5831:5840   */\n      sub\n        /* \"#utility.yul\":5823:5840   */\n      swap1\n      pop\n        /* \"#utility.yul\":5862:5863   */\n      dup2\n        /* \"#utility.yul\":5856:5860   */\n      dup2\n        /* \"#utility.yul\":5853:5864   */\n      gt\n        /* \"#utility.yul\":5850:5887   */\n      iszero\n      tag_209\n      jumpi\n        /* \"#utility.yul\":5867:5885   */\n      tag_210\n      tag_144\n      jump\t// in\n    tag_210:\n        /* \"#utility.yul\":5850:5887   */\n    tag_209:\n        /* \"#utility.yul\":5700:5894   */\n      swap3\n      swap2\n      pop\n      pop\n      jump\t// out\n        /* \"#utility.yul\":5900:6080   */\n    tag_93:\n        /* \"#utility.yul\":5948:6025   */\n      0x4e487b7100000000000000000000000000000000000000000000000000000000\n        /* \"#utility.yul\":5945:5946   */\n      0x00\n        /* \"#utility.yul\":5938:6026   */\n      mstore\n        /* \"#utility.yul\":6045:6049   */\n      0x32\n        /* \"#utility.yul\":6042:6043   */\n      0x04\n        /* \"#utility.yul\":6035:6050   */\n      mstore\n        /* \"#utility.yul\":6069:6073   */\n      0x24\n        /* \"#utility.yul\":6066:6067   */\n      0x00\n        /* \"#utility.yul\":6059:6074   */\n      revert\n        /* \"#utility.yul\":6086:6266   */\n    tag_97:\n        /* \"#utility.yul\":6134:6211   */\n      0x4e487b7100000000000000000000000000000000000000000000000000000000\n        /* \"#utility.yul\":6131:6132   */\n      0x00\n        /* \"#utility.yul\":6124:6212   */\n      mstore\n        /* \"#utility.yul\":6231:6235   */\n      0x31\n        /* \"#utility.yul\":6228:6229   */\n      0x04\n        /* \"#utility.yul\":6221:6236   */\n      mstore\n        /* \"#utility.yul\":6255:6259   */\n      0x24\n        /* \"#utility.yul\":6252:6253   */\n      0x00\n        /* \"#utility.yul\":6245:6260   */\n      revert\n        /* \"#utility.yul\":6272:6497   */\n    tag_145:\n        /* \"#utility.yul\":6412:6446   */\n      0x4f776e61626c653a206e6577206f776e657220697320746865207a65726f2061\n        /* \"#utility.yul\":6408:6409   */\n      0x00\n        /* \"#utility.yul\":6400:6406   */\n      dup3\n        /* \"#utility.yul\":6396:6410   */\n      add\n        /* \"#utility.yul\":6389:6447   */\n      mstore\n        /* \"#utility.yul\":6481:6489   */\n      0x6464726573730000000000000000000000000000000000000000000000000000\n        /* \"#utility.yul\":6476:6478   */\n      0x20\n        /* \"#utility.yul\":6468:6474   */\n      dup3\n        /* \"#utility.yul\":6464:6479   */\n      add\n        /* \"#utility.yul\":6457:6490   */\n      mstore\n        /* \"#utility.yul\":6272:6497   */\n      pop\n      jump\t// out\n        /* \"#utility.yul\":6503:6869   */\n    tag_146:\n        /* \"#utility.yul\":6645:6648   */\n      0x00\n        /* \"#utility.yul\":6666:6733   */\n      tag_215\n        /* \"#utility.yul\":6730:6732   */\n      0x26\n        /* \"#utility.yul\":6725:6728   */\n      dup4\n        /* \"#utility.yul\":6666:6733   */\n      tag_139\n      jump\t// in\n    tag_215:\n        /* \"#utility.yul\":6659:6733   */\n      swap2\n      pop\n        /* \"#utility.yul\":6742:6835   */\n      tag_216\n        /* \"#utility.yul\":6831:6834   */\n      dup3\n        /* \"#utility.yul\":6742:6835   */\n      tag_145\n      jump\t// in\n    tag_216:\n        /* \"#utility.yul\":6860:6862   */\n      0x40\n        /* \"#utility.yul\":6855:6858   */\n      dup3\n        /* \"#utility.yul\":6851:6863   */\n      add\n        /* \"#utility.yul\":6844:6863   */\n      swap1\n      pop\n        /* \"#utility.yul\":6503:6869   */\n      swap2\n      swap1\n      pop\n      jump\t// out\n        /* \"#utility.yul\":6875:7294   */\n    tag_104:\n        /* \"#utility.yul\":7041:7045   */\n      0x00\n        /* \"#utility.yul\":7079:7081   */\n      0x20\n        /* \"#utility.yul\":7068:7077   */\n      dup3\n        /* \"#utility.yul\":7064:7082   */\n      add\n        /* \"#utility.yul\":7056:7082   */\n      swap1\n      pop\n        /* \"#utility.yul\":7128:7137   */\n      dup2\n        /* \"#utility.yul\":7122:7126   */\n      dup2\n        /* \"#utility.yul\":7118:7138   */\n      sub\n        /* \"#utility.yul\":7114:7115   */\n      0x00\n        /* \"#utility.yul\":7103:7112   */\n      dup4\n        /* \"#utility.yul\":7099:7116   */\n      add\n        /* \"#utility.yul\":7092:7139   */\n      mstore\n        /* \"#utility.yul\":7156:7287   */\n      tag_218\n        /* \"#utility.yul\":7282:7286   */\n      dup2\n        /* \"#utility.yul\":7156:7287   */\n      tag_146\n      jump\t// in\n    tag_218:\n        /* \"#utility.yul\":7148:7287   */\n      swap1\n      pop\n        /* \"#utility.yul\":6875:7294   */\n      swap2\n      swap1\n      pop\n      jump\t// out\n        /* \"#utility.yul\":7300:7534   */\n    tag_147:\n        /* \"#utility.yul\":7440:7474   */\n      0x6661726d65722063616e6e6f7420706c616365206f7264657220666f72207468\n        /* \"#utility.yul\":7436:7437   */\n      0x00\n        /* \"#utility.yul\":7428:7434   */\n      dup3\n        /* \"#utility.yul\":7424:7438   */\n      add\n        /* \"#utility.yul\":7417:7475   */\n      mstore\n        /* \"#utility.yul\":7509:7526   */\n      0x656972206f776e2070726f647563650000000000000000000000000000000000\n        /* \"#utility.yul\":7504:7506   */\n      0x20\n        /* \"#utility.yul\":7496:7502   */\n      dup3\n        /* \"#utility.yul\":7492:7507   */\n      add\n        /* \"#utility.yul\":7485:7527   */\n      mstore\n        /* \"#utility.yul\":7300:7534   */\n      pop\n      jump\t// out\n        /* \"#utility.yul\":7540:7906   */\n    tag_148:\n        /* \"#utility.yul\":7682:7685   */\n      0x00\n        /* \"#utility.yul\":7703:7770   */\n      tag_221\n        /* \"#utility.yul\":7767:7769   */\n      0x2f\n        /* \"#utility.yul\":7762:7765   */\n      dup4\n        /* \"#utility.yul\":7703:7770   */\n      tag_139\n      jump\t// in\n    tag_221:\n        /* \"#utility.yul\":7696:7770   */\n      swap2\n      pop\n        /* \"#utility.yul\":7779:7872   */\n      tag_222\n        /* \"#utility.yul\":7868:7871   */\n      dup3\n        /* \"#utility.yul\":7779:7872   */\n      tag_147\n      jump\t// in\n    tag_222:\n        /* \"#utility.yul\":7897:7899   */\n      0x40\n        /* \"#utility.yul\":7892:7895   */\n      dup3\n        /* \"#utility.yul\":7888:7900   */\n      add\n        /* \"#utility.yul\":7881:7900   */\n      swap1\n      pop\n        /* \"#utility.yul\":7540:7906   */\n      swap2\n      swap1\n      pop\n      jump\t// out\n        /* \"#utility.yul\":7912:8331   */\n    tag_110:\n        /* \"#utility.yul\":8078:8082   */\n      0x00\n        /* \"#utility.yul\":8116:8118   */\n      0x20\n        /* \"#utility.yul\":8105:8114   */\n      dup3\n        /* \"#utility.yul\":8101:8119   */\n      add\n        /* \"#utility.yul\":8093:8119   */\n      swap1\n      pop\n        /* \"#utility.yul\":8165:8174   */\n      dup2\n        /* \"#utility.yul\":8159:8163   */\n      dup2\n        /* \"#utility.yul\":8155:8175   */\n      sub\n        /* \"#utility.yul\":8151:8152   */\n      0x00\n        /* \"#utility.yul\":8140:8149   */\n      dup4\n        /* \"#utility.yul\":8136:8153   */\n      add\n        /* \"#utility.yul\":8129:8176   */\n      mstore\n        /* \"#utility.yul\":8193:8324   */\n      tag_224\n        /* \"#utility.yul\":8319:8323   */\n      dup2\n        /* \"#utility.yul\":8193:8324   */\n      tag_148\n      jump\t// in\n    tag_224:\n        /* \"#utility.yul\":8185:8324   */\n      swap1\n      pop\n        /* \"#utility.yul\":7912:8331   */\n      swap2\n      swap1\n      pop\n      jump\t// out\n        /* \"#utility.yul\":8337:8747   */\n    tag_112:\n        /* \"#utility.yul\":8377:8384   */\n      0x00\n        /* \"#utility.yul\":8400:8420   */\n      tag_226\n        /* \"#utility.yul\":8418:8419   */\n      dup3\n        /* \"#utility.yul\":8400:8420   */\n      tag_127\n      jump\t// in\n    tag_226:\n        /* \"#utility.yul\":8395:8420   */\n      swap2\n      pop\n        /* \"#utility.yul\":8434:8454   */\n      tag_227\n        /* \"#utility.yul\":8452:8453   */\n      dup4\n        /* \"#utility.yul\":8434:8454   */\n      tag_127\n      jump\t// in\n    tag_227:\n        /* \"#utility.yul\":8429:8454   */\n      swap3\n      pop\n        /* \"#utility.yul\":8489:8490   */\n      dup3\n        /* \"#utility.yul\":8486:8487   */\n      dup3\n        /* \"#utility.yul\":8482:8491   */\n      mul\n        /* \"#utility.yul\":8511:8541   */\n      tag_228\n        /* \"#utility.yul\":8529:8540   */\n      dup2\n        /* \"#utility.yul\":8511:8541   */\n      tag_127\n      jump\t// in\n    tag_228:\n        /* \"#utility.yul\":8500:8541   */\n      swap2\n      pop\n        /* \"#utility.yul\":8690:8691   */\n      dup3\n        /* \"#utility.yul\":8681:8688   */\n      dup3\n        /* \"#utility.yul\":8677:8692   */\n      div\n        /* \"#utility.yul\":8674:8675   */\n      dup5\n        /* \"#utility.yul\":8671:8693   */\n      eq\n        /* \"#utility.yul\":8651:8652   */\n      dup4\n        /* \"#utility.yul\":8644:8653   */\n      iszero\n        /* \"#utility.yul\":8624:8707   */\n      or\n        /* \"#utility.yul\":8601:8740   */\n      tag_229\n      jumpi\n        /* \"#utility.yul\":8720:8738   */\n      tag_230\n      tag_144\n      jump\t// in\n    tag_230:\n        /* \"#utility.yul\":8601:8740   */\n    tag_229:\n        /* \"#utility.yul\":8385:8747   */\n      pop\n        /* \"#utility.yul\":8337:8747   */\n      swap3\n      swap2\n      pop\n      pop\n      jump\t// out\n        /* \"#utility.yul\":8753:8979   */\n    tag_149:\n        /* \"#utility.yul\":8893:8927   */\n      0x6f72646572206d757374206265206f6620636f72726563742073697a6520616e\n        /* \"#utility.yul\":8889:8890   */\n      0x00\n        /* \"#utility.yul\":8881:8887   */\n      dup3\n        /* \"#utility.yul\":8877:8891   */\n      add\n        /* \"#utility.yul\":8870:8928   */\n      mstore\n        /* \"#utility.yul\":8962:8971   */\n      0x6420707269636500000000000000000000000000000000000000000000000000\n        /* \"#utility.yul\":8957:8959   */\n      0x20\n        /* \"#utility.yul\":8949:8955   */\n      dup3\n        /* \"#utility.yul\":8945:8960   */\n      add\n        /* \"#utility.yul\":8938:8972   */\n      mstore\n        /* \"#utility.yul\":8753:8979   */\n      pop\n      jump\t// out\n        /* \"#utility.yul\":8985:9351   */\n    tag_150:\n        /* \"#utility.yul\":9127:9130   */\n      0x00\n        /* \"#utility.yul\":9148:9215   */\n      tag_233\n        /* \"#utility.yul\":9212:9214   */\n      0x27\n        /* \"#utility.yul\":9207:9210   */\n      dup4\n        /* \"#utility.yul\":9148:9215   */\n      tag_139\n      jump\t// in\n    tag_233:\n        /* \"#utility.yul\":9141:9215   */\n      swap2\n      pop\n        /* \"#utility.yul\":9224:9317   */\n      tag_234\n        /* \"#utility.yul\":9313:9316   */\n      dup3\n        /* \"#utility.yul\":9224:9317   */\n      tag_149\n      jump\t// in\n    tag_234:\n        /* \"#utility.yul\":9342:9344   */\n      0x40\n        /* \"#utility.yul\":9337:9340   */\n      dup3\n        /* \"#utility.yul\":9333:9345   */\n      add\n        /* \"#utility.yul\":9326:9345   */\n      swap1\n      pop\n        /* \"#utility.yul\":8985:9351   */\n      swap2\n      swap1\n      pop\n      jump\t// out\n        /* \"#utility.yul\":9357:9776   */\n    tag_115:\n        /* \"#utility.yul\":9523:9527   */\n      0x00\n        /* \"#utility.yul\":9561:9563   */\n      0x20\n        /* \"#utility.yul\":9550:9559   */\n      dup3\n        /* \"#utility.yul\":9546:9564   */\n      add\n        /* \"#utility.yul\":9538:9564   */\n      swap1\n      pop\n        /* \"#utility.yul\":9610:9619   */\n      dup2\n        /* \"#utility.yul\":9604:9608   */\n      dup2\n        /* \"#utility.yul\":9600:9620   */\n      sub\n        /* \"#utility.yul\":9596:9597   */\n      0x00\n        /* \"#utility.yul\":9585:9594   */\n      dup4\n        /* \"#utility.yul\":9581:9598   */\n      add\n        /* \"#utility.yul\":9574:9621   */\n      mstore\n        /* \"#utility.yul\":9638:9769   */\n      tag_236\n        /* \"#utility.yul\":9764:9768   */\n      dup2\n        /* \"#utility.yul\":9638:9769   */\n      tag_150\n      jump\t// in\n    tag_236:\n        /* \"#utility.yul\":9630:9769   */\n      swap1\n      pop\n        /* \"#utility.yul\":9357:9776   */\n      swap2\n      swap1\n      pop\n      jump\t// out\n        /* \"#utility.yul\":9782:9964   */\n    tag_151:\n        /* \"#utility.yul\":9922:9956   */\n      0x4f776e61626c653a2063616c6c6572206973206e6f7420746865206f776e6572\n        /* \"#utility.yul\":9918:9919   */\n      0x00\n        /* \"#utility.yul\":9910:9916   */\n      dup3\n        /* \"#utility.yul\":9906:9920   */\n      add\n        /* \"#utility.yul\":9899:9957   */\n      mstore\n        /* \"#utility.yul\":9782:9964   */\n      pop\n      jump\t// out\n        /* \"#utility.yul\":9970:10336   */\n    tag_152:\n        /* \"#utility.yul\":10112:10115   */\n      0x00\n        /* \"#utility.yul\":10133:10200   */\n      tag_239\n        /* \"#utility.yul\":10197:10199   */\n      0x20\n        /* \"#utility.yul\":10192:10195   */\n      dup4\n        /* \"#utility.yul\":10133:10200   */\n      tag_139\n      jump\t// in\n    tag_239:\n        /* \"#utility.yul\":10126:10200   */\n      swap2\n      pop\n        /* \"#utility.yul\":10209:10302   */\n      tag_240\n        /* \"#utility.yul\":10298:10301   */\n      dup3\n        /* \"#utility.yul\":10209:10302   */\n      tag_151\n      jump\t// in\n    tag_240:\n        /* \"#utility.yul\":10327:10329   */\n      0x20\n        /* \"#utility.yul\":10322:10325   */\n      dup3\n        /* \"#utility.yul\":10318:10330   */\n      add\n        /* \"#utility.yul\":10311:10330   */\n      swap1\n      pop\n        /* \"#utility.yul\":9970:10336   */\n      swap2\n      swap1\n      pop\n      jump\t// out\n        /* \"#utility.yul\":10342:10761   */\n    tag_125:\n        /* \"#utility.yul\":10508:10512   */\n      0x00\n        /* \"#utility.yul\":10546:10548   */\n      0x20\n        /* \"#utility.yul\":10535:10544   */\n      dup3\n        /* \"#utility.yul\":10531:10549   */\n      add\n        /* \"#utility.yul\":10523:10549   */\n      swap1\n      pop\n        /* \"#utility.yul\":10595:10604   */\n      dup2\n        /* \"#utility.yul\":10589:10593   */\n      dup2\n        /* \"#utility.yul\":10585:10605   */\n      sub\n        /* \"#utility.yul\":10581:10582   */\n      0x00\n        /* \"#utility.yul\":10570:10579   */\n      dup4\n        /* \"#utility.yul\":10566:10583   */\n      add\n        /* \"#utility.yul\":10559:10606   */\n      mstore\n        /* \"#utility.yul\":10623:10754   */\n      tag_242\n        /* \"#utility.yul\":10749:10753   */\n      dup2\n        /* \"#utility.yul\":10623:10754   */\n      tag_152\n      jump\t// in\n    tag_242:\n        /* \"#utility.yul\":10615:10754   */\n      swap1\n      pop\n        /* \"#utility.yul\":10342:10761   */\n      swap2\n      swap1\n      pop\n      jump\t// out\n\n    auxdata: 0xa26469706673582212201cc73ff6ecf9f6684db2df002a87da99f2a6535fce37018e9c8483ab1ff15bbf64736f6c63430008120033\n}\n",
				"bytecode": {
					"linkReferences": {},
					"object": "608060405234801561001057600080fd5b5061002d61002261005d60201b60201c565b61006560201b60201c565b6000600860006101000a81548160ff0219169083600281111561005357610052610129565b5b0217905550610158565b600033905090565b60008060009054906101000a900473ffffffffffffffffffffffffffffffffffffffff169050816000806101000a81548173ffffffffffffffffffffffffffffffffffffffff021916908373ffffffffffffffffffffffffffffffffffffffff1602179055508173ffffffffffffffffffffffffffffffffffffffff168173ffffffffffffffffffffffffffffffffffffffff167f8be0079c531659141344cd1fd0a4f28419497f9722a3daafe3b4186f6b6457e060405160405180910390a35050565b7f4e487b7100000000000000000000000000000000000000000000000000000000600052602160045260246000fd5b610e53806101676000396000f3fe6080604052600436106100a75760003560e01c8063a035b1fe11610064578063a035b1fe14610198578063d32dacc1146101c3578063d811fcf0146101ee578063f2fde38b14610219578063f5c609e014610242578063fa34f63a1461024c576100a7565b8063530d124e146100ac5780635a690b97146100d75780636d86b8a514610100578063715018a61461012b57806380f55605146101425780638da5cb5b1461016d575b600080fd5b3480156100b857600080fd5b506100c1610277565b6040516100ce919061083e565b60405180910390f35b3480156100e357600080fd5b506100fe60048036038101906100f991906108e8565b61027d565b005b34801561010c57600080fd5b5061011561038b565b604051610122919061083e565b60405180910390f35b34801561013757600080fd5b50610140610391565b005b34801561014e57600080fd5b506101576103a5565b6040516101649190610972565b60405180910390f35b34801561017957600080fd5b506101826103cb565b60405161018f9190610972565b60405180910390f35b3480156101a457600080fd5b506101ad6103f4565b6040516101ba919061083e565b60405180910390f35b3480156101cf57600080fd5b506101d86103fa565b6040516101e59190610972565b60405180910390f35b3480156101fa57600080fd5b506102036104ee565b6040516102109190610972565b60405180910390f35b34801561022557600080fd5b50610240600480360381019061023b919061098d565b610514565b005b61024a610597565b005b34801561025857600080fd5b506102616106d5565b60405161026e919061083e565b60405180910390f35b60045481565b60006002811115610291576102906109ba565b5b600860009054906101000a900460ff1660028111156102b3576102b26109ba565b5b146102f3576040517f08c379a00000000000000000000000000000000000000000000000000000000081526004016102ea90610a6c565b60405180910390fd5b6102fc856106db565b33600260006101000a81548173ffffffffffffffffffffffffffffffffffffffff021916908373ffffffffffffffffffffffffffffffffffffffff160217905550806004819055508360058190555082600681905550816007819055506001600860006101000a81548160ff0219169083600281111561037f5761037e6109ba565b5b02179055505050505050565b60075481565b61039961079f565b6103a360006106db565b565b600260009054906101000a900473ffffffffffffffffffffffffffffffffffffffff1681565b60008060009054906101000a900473ffffffffffffffffffffffffffffffffffffffff16905090565b60065481565b600061040461079f565b60006003805490501161044c576040517f08c379a000000000000000000000000000000000000000000000000000000000815260040161044390610ad8565b60405180910390fd5b6000600360016003805490506104629190610b27565b8154811061047357610472610b5b565b5b9060005260206000200160009054906101000a900473ffffffffffffffffffffffffffffffffffffffff16905060038054806104b2576104b1610b8a565b5b6001900381819060005260206000200160006101000a81549073ffffffffffffffffffffffffffffffffffffffff021916905590558091505090565b600160009054906101000a900473ffffffffffffffffffffffffffffffffffffffff1681565b61051c61079f565b600073ffffffffffffffffffffffffffffffffffffffff168173ffffffffffffffffffffffffffffffffffffffff160361058b576040517f08c379a000000000000000000000000000000000000000000000000000000000815260040161058290610c2b565b60405180910390fd5b610594816106db565b50565b61059f6103cb565b73ffffffffffffffffffffffffffffffffffffffff163373ffffffffffffffffffffffffffffffffffffffff160361060c576040517f08c379a000000000000000000000000000000000000000000000000000000000815260040161060390610cbd565b60405180910390fd5b60065460075461061c9190610cdd565b341461065d576040517f08c379a000000000000000000000000000000000000000000000000000000000815260040161065490610d91565b60405180910390fd5b6004546003805490501061067057600080fd5b6003339080600181540180825580915050600190039060005260206000200160009091909190916101000a81548173ffffffffffffffffffffffffffffffffffffffff021916908373ffffffffffffffffffffffffffffffffffffffff160217905550565b60055481565b60008060009054906101000a900473ffffffffffffffffffffffffffffffffffffffff169050816000806101000a81548173ffffffffffffffffffffffffffffffffffffffff021916908373ffffffffffffffffffffffffffffffffffffffff1602179055508173ffffffffffffffffffffffffffffffffffffffff168173ffffffffffffffffffffffffffffffffffffffff167f8be0079c531659141344cd1fd0a4f28419497f9722a3daafe3b4186f6b6457e060405160405180910390a35050565b6107a761081d565b73ffffffffffffffffffffffffffffffffffffffff166107c56103cb565b73ffffffffffffffffffffffffffffffffffffffff161461081b576040517f08c379a000000000000000000000000000000000000000000000000000000000815260040161081290610dfd565b60405180910390fd5b565b600033905090565b6000819050919050565b61083881610825565b82525050565b6000602082019050610853600083018461082f565b92915050565b600080fd5b600073ffffffffffffffffffffffffffffffffffffffff82169050919050565b60006108898261085e565b9050919050565b6108998161087e565b81146108a457600080fd5b50565b6000813590506108b681610890565b92915050565b6108c581610825565b81146108d057600080fd5b50565b6000813590506108e2816108bc565b92915050565b600080600080600060a0868803121561090457610903610859565b5b6000610912888289016108a7565b9550506020610923888289016108d3565b9450506040610934888289016108d3565b9350506060610945888289016108d3565b9250506080610956888289016108d3565b9150509295509295909350565b61096c8161087e565b82525050565b60006020820190506109876000830184610963565b92915050565b6000602082840312156109a3576109a2610859565b5b60006109b1848285016108a7565b91505092915050565b7f4e487b7100000000000000000000000000000000000000000000000000000000600052602160045260246000fd5b600082825260208201905092915050565b7f546869732070726f647563652068617320616c7265616479206265656e20696e60008201527f6974696c697a6564000000000000000000000000000000000000000000000000602082015250565b6000610a566028836109e9565b9150610a61826109fa565b604082019050919050565b60006020820190508181036000830152610a8581610a49565b9050919050565b7f4e6f206f726465727320746f2074616b65000000000000000000000000000000600082015250565b6000610ac26011836109e9565b9150610acd82610a8c565b602082019050919050565b60006020820190508181036000830152610af181610ab5565b9050919050565b7f4e487b7100000000000000000000000000000000000000000000000000000000600052601160045260246000fd5b6000610b3282610825565b9150610b3d83610825565b9250828203905081811115610b5557610b54610af8565b5b92915050565b7f4e487b7100000000000000000000000000000000000000000000000000000000600052603260045260246000fd5b7f4e487b7100000000000000000000000000000000000000000000000000000000600052603160045260246000fd5b7f4f776e61626c653a206e6577206f776e657220697320746865207a65726f206160008201527f6464726573730000000000000000000000000000000000000000000000000000602082015250565b6000610c156026836109e9565b9150610c2082610bb9565b604082019050919050565b60006020820190508181036000830152610c4481610c08565b9050919050565b7f6661726d65722063616e6e6f7420706c616365206f7264657220666f7220746860008201527f656972206f776e2070726f647563650000000000000000000000000000000000602082015250565b6000610ca7602f836109e9565b9150610cb282610c4b565b604082019050919050565b60006020820190508181036000830152610cd681610c9a565b9050919050565b6000610ce882610825565b9150610cf383610825565b9250828202610d0181610825565b91508282048414831517610d1857610d17610af8565b5b5092915050565b7f6f72646572206d757374206265206f6620636f72726563742073697a6520616e60008201527f6420707269636500000000000000000000000000000000000000000000000000602082015250565b6000610d7b6027836109e9565b9150610d8682610d1f565b604082019050919050565b60006020820190508181036000830152610daa81610d6e565b9050919050565b7f4f776e61626c653a2063616c6c6572206973206e6f7420746865206f776e6572600082015250565b6000610de76020836109e9565b9150610df282610db1565b602082019050919050565b60006020820190508181036000830152610e1681610dda565b905091905056fea26469706673582212201cc73ff6ecf9f6684db2df002a87da99f2a6535fce37018e9c8483ab1ff15bbf64736f6c63430008120033",
					"opcodes": "PUSH1 0x80 PUSH1 0x40 MSTORE CALLVALUE DUP1 ISZERO PUSH2 0x10 JUMPI PUSH1 0x0 DUP1 REVERT JUMPDEST POP PUSH2 0x2D PUSH2 0x22 PUSH2 0x5D PUSH1 0x20 SHL PUSH1 0x20 SHR JUMP JUMPDEST PUSH2 0x65 PUSH1 0x20 SHL PUSH1 0x20 SHR JUMP JUMPDEST PUSH1 0x0 PUSH1 0x8 PUSH1 0x0 PUSH2 0x100 EXP DUP2 SLOAD DUP2 PUSH1 0xFF MUL NOT AND SWAP1 DUP4 PUSH1 0x2 DUP2 GT ISZERO PUSH2 0x53 JUMPI PUSH2 0x52 PUSH2 0x129 JUMP JUMPDEST JUMPDEST MUL OR SWAP1 SSTORE POP PUSH2 0x158 JUMP JUMPDEST PUSH1 0x0 CALLER SWAP1 POP SWAP1 JUMP JUMPDEST PUSH1 0x0 DUP1 PUSH1 0x0 SWAP1 SLOAD SWAP1 PUSH2 0x100 EXP SWAP1 DIV PUSH20 0xFFFFFFFFFFFFFFFFFFFFFFFFFFFFFFFFFFFFFFFF AND SWAP1 POP DUP2 PUSH1 0x0 DUP1 PUSH2 0x100 EXP DUP2 SLOAD DUP2 PUSH20 0xFFFFFFFFFFFFFFFFFFFFFFFFFFFFFFFFFFFFFFFF MUL NOT AND SWAP1 DUP4 PUSH20 0xFFFFFFFFFFFFFFFFFFFFFFFFFFFFFFFFFFFFFFFF AND MUL OR SWAP1 SSTORE POP DUP2 PUSH20 0xFFFFFFFFFFFFFFFFFFFFFFFFFFFFFFFFFFFFFFFF AND DUP2 PUSH20 0xFFFFFFFFFFFFFFFFFFFFFFFFFFFFFFFFFFFFFFFF AND PUSH32 0x8BE0079C531659141344CD1FD0A4F28419497F9722A3DAAFE3B4186F6B6457E0 PUSH1 0x40 MLOAD PUSH1 0x40 MLOAD DUP1 SWAP2 SUB SWAP1 LOG3 POP POP JUMP JUMPDEST PUSH32 0x4E487B7100000000000000000000000000000000000000000000000000000000 PUSH1 0x0 MSTORE PUSH1 0x21 PUSH1 0x4 MSTORE PUSH1 0x24 PUSH1 0x0 REVERT JUMPDEST PUSH2 0xE53 DUP1 PUSH2 0x167 PUSH1 0x0 CODECOPY PUSH1 0x0 RETURN INVALID PUSH1 0x80 PUSH1 0x40 MSTORE PUSH1 0x4 CALLDATASIZE LT PUSH2 0xA7 JUMPI PUSH1 0x0 CALLDATALOAD PUSH1 0xE0 SHR DUP1 PUSH4 0xA035B1FE GT PUSH2 0x64 JUMPI DUP1 PUSH4 0xA035B1FE EQ PUSH2 0x198 JUMPI DUP1 PUSH4 0xD32DACC1 EQ PUSH2 0x1C3 JUMPI DUP1 PUSH4 0xD811FCF0 EQ PUSH2 0x1EE JUMPI DUP1 PUSH4 0xF2FDE38B EQ PUSH2 0x219 JUMPI DUP1 PUSH4 0xF5C609E0 EQ PUSH2 0x242 JUMPI DUP1 PUSH4 0xFA34F63A EQ PUSH2 0x24C JUMPI PUSH2 0xA7 JUMP JUMPDEST DUP1 PUSH4 0x530D124E EQ PUSH2 0xAC JUMPI DUP1 PUSH4 0x5A690B97 EQ PUSH2 0xD7 JUMPI DUP1 PUSH4 0x6D86B8A5 EQ PUSH2 0x100 JUMPI DUP1 PUSH4 0x715018A6 EQ PUSH2 0x12B JUMPI DUP1 PUSH4 0x80F55605 EQ PUSH2 0x142 JUMPI DUP1 PUSH4 0x8DA5CB5B EQ PUSH2 0x16D JUMPI JUMPDEST PUSH1 0x0 DUP1 REVERT JUMPDEST CALLVALUE DUP1 ISZERO PUSH2 0xB8 JUMPI PUSH1 0x0 DUP1 REVERT JUMPDEST POP PUSH2 0xC1 PUSH2 0x277 JUMP JUMPDEST PUSH1 0x40 MLOAD PUSH2 0xCE SWAP2 SWAP1 PUSH2 0x83E JUMP JUMPDEST PUSH1 0x40 MLOAD DUP1 SWAP2 SUB SWAP1 RETURN JUMPDEST CALLVALUE DUP1 ISZERO PUSH2 0xE3 JUMPI PUSH1 0x0 DUP1 REVERT JUMPDEST POP PUSH2 0xFE PUSH1 0x4 DUP1 CALLDATASIZE SUB DUP2 ADD SWAP1 PUSH2 0xF9 SWAP2 SWAP1 PUSH2 0x8E8 JUMP JUMPDEST PUSH2 0x27D JUMP JUMPDEST STOP JUMPDEST CALLVALUE DUP1 ISZERO PUSH2 0x10C JUMPI PUSH1 0x0 DUP1 REVERT JUMPDEST POP PUSH2 0x115 PUSH2 0x38B JUMP JUMPDEST PUSH1 0x40 MLOAD PUSH2 0x122 SWAP2 SWAP1 PUSH2 0x83E JUMP JUMPDEST PUSH1 0x40 MLOAD DUP1 SWAP2 SUB SWAP1 RETURN JUMPDEST CALLVALUE DUP1 ISZERO PUSH2 0x137 JUMPI PUSH1 0x0 DUP1 REVERT JUMPDEST POP PUSH2 0x140 PUSH2 0x391 JUMP JUMPDEST STOP JUMPDEST CALLVALUE DUP1 ISZERO PUSH2 0x14E JUMPI PUSH1 0x0 DUP1 REVERT JUMPDEST POP PUSH2 0x157 PUSH2 0x3A5 JUMP JUMPDEST PUSH1 0x40 MLOAD PUSH2 0x164 SWAP2 SWAP1 PUSH2 0x972 JUMP JUMPDEST PUSH1 0x40 MLOAD DUP1 SWAP2 SUB SWAP1 RETURN JUMPDEST CALLVALUE DUP1 ISZERO PUSH2 0x179 JUMPI PUSH1 0x0 DUP1 REVERT JUMPDEST POP PUSH2 0x182 PUSH2 0x3CB JUMP JUMPDEST PUSH1 0x40 MLOAD PUSH2 0x18F SWAP2 SWAP1 PUSH2 0x972 JUMP JUMPDEST PUSH1 0x40 MLOAD DUP1 SWAP2 SUB SWAP1 RETURN JUMPDEST CALLVALUE DUP1 ISZERO PUSH2 0x1A4 JUMPI PUSH1 0x0 DUP1 REVERT JUMPDEST POP PUSH2 0x1AD PUSH2 0x3F4 JUMP JUMPDEST PUSH1 0x40 MLOAD PUSH2 0x1BA SWAP2 SWAP1 PUSH2 0x83E JUMP JUMPDEST PUSH1 0x40 MLOAD DUP1 SWAP2 SUB SWAP1 RETURN JUMPDEST CALLVALUE DUP1 ISZERO PUSH2 0x1CF JUMPI PUSH1 0x0 DUP1 REVERT JUMPDEST POP PUSH2 0x1D8 PUSH2 0x3FA JUMP JUMPDEST PUSH1 0x40 MLOAD PUSH2 0x1E5 SWAP2 SWAP1 PUSH2 0x972 JUMP JUMPDEST PUSH1 0x40 MLOAD DUP1 SWAP2 SUB SWAP1 RETURN JUMPDEST CALLVALUE DUP1 ISZERO PUSH2 0x1FA JUMPI PUSH1 0x0 DUP1 REVERT JUMPDEST POP PUSH2 0x203 PUSH2 0x4EE JUMP JUMPDEST PUSH1 0x40 MLOAD PUSH2 0x210 SWAP2 SWAP1 PUSH2 0x972 JUMP JUMPDEST PUSH1 0x40 MLOAD DUP1 SWAP2 SUB SWAP1 RETURN JUMPDEST CALLVALUE DUP1 ISZERO PUSH2 0x225 JUMPI PUSH1 0x0 DUP1 REVERT JUMPDEST POP PUSH2 0x240 PUSH1 0x4 DUP1 CALLDATASIZE SUB DUP2 ADD SWAP1 PUSH2 0x23B SWAP2 SWAP1 PUSH2 0x98D JUMP JUMPDEST PUSH2 0x514 JUMP JUMPDEST STOP JUMPDEST PUSH2 0x24A PUSH2 0x597 JUMP JUMPDEST STOP JUMPDEST CALLVALUE DUP1 ISZERO PUSH2 0x258 JUMPI PUSH1 0x0 DUP1 REVERT JUMPDEST POP PUSH2 0x261 PUSH2 0x6D5 JUMP JUMPDEST PUSH1 0x40 MLOAD PUSH2 0x26E SWAP2 SWAP1 PUSH2 0x83E JUMP JUMPDEST PUSH1 0x40 MLOAD DUP1 SWAP2 SUB SWAP1 RETURN JUMPDEST PUSH1 0x4 SLOAD DUP2 JUMP JUMPDEST PUSH1 0x0 PUSH1 0x2 DUP2 GT ISZERO PUSH2 0x291 JUMPI PUSH2 0x290 PUSH2 0x9BA JUMP JUMPDEST JUMPDEST PUSH1 0x8 PUSH1 0x0 SWAP1 SLOAD SWAP1 PUSH2 0x100 EXP SWAP1 DIV PUSH1 0xFF AND PUSH1 0x2 DUP2 GT ISZERO PUSH2 0x2B3 JUMPI PUSH2 0x2B2 PUSH2 0x9BA JUMP JUMPDEST JUMPDEST EQ PUSH2 0x2F3 JUMPI PUSH1 0x40 MLOAD PUSH32 0x8C379A000000000000000000000000000000000000000000000000000000000 DUP2 MSTORE PUSH1 0x4 ADD PUSH2 0x2EA SWAP1 PUSH2 0xA6C JUMP JUMPDEST PUSH1 0x40 MLOAD DUP1 SWAP2 SUB SWAP1 REVERT JUMPDEST PUSH2 0x2FC DUP6 PUSH2 0x6DB JUMP JUMPDEST CALLER PUSH1 0x2 PUSH1 0x0 PUSH2 0x100 EXP DUP2 SLOAD DUP2 PUSH20 0xFFFFFFFFFFFFFFFFFFFFFFFFFFFFFFFFFFFFFFFF MUL NOT AND SWAP1 DUP4 PUSH20 0xFFFFFFFFFFFFFFFFFFFFFFFFFFFFFFFFFFFFFFFF AND MUL OR SWAP1 SSTORE POP DUP1 PUSH1 0x4 DUP2 SWAP1 SSTORE POP DUP4 PUSH1 0x5 DUP2 SWAP1 SSTORE POP DUP3 PUSH1 0x6 DUP2 SWAP1 SSTORE POP DUP2 PUSH1 0x7 DUP2 SWAP1 SSTORE POP PUSH1 0x1 PUSH1 0x8 PUSH1 0x0 PUSH2 0x100 EXP DUP2 SLOAD DUP2 PUSH1 0xFF MUL NOT AND SWAP1 DUP4 PUSH1 0x2 DUP2 GT ISZERO PUSH2 0x37F JUMPI PUSH2 0x37E PUSH2 0x9BA JUMP JUMPDEST JUMPDEST MUL OR SWAP1 SSTORE POP POP POP POP POP POP JUMP JUMPDEST PUSH1 0x7 SLOAD DUP2 JUMP JUMPDEST PUSH2 0x399 PUSH2 0x79F JUMP JUMPDEST PUSH2 0x3A3 PUSH1 0x0 PUSH2 0x6DB JUMP JUMPDEST JUMP JUMPDEST PUSH1 0x2 PUSH1 0x0 SWAP1 SLOAD SWAP1 PUSH2 0x100 EXP SWAP1 DIV PUSH20 0xFFFFFFFFFFFFFFFFFFFFFFFFFFFFFFFFFFFFFFFF AND DUP2 JUMP JUMPDEST PUSH1 0x0 DUP1 PUSH1 0x0 SWAP1 SLOAD SWAP1 PUSH2 0x100 EXP SWAP1 DIV PUSH20 0xFFFFFFFFFFFFFFFFFFFFFFFFFFFFFFFFFFFFFFFF AND SWAP1 POP SWAP1 JUMP JUMPDEST PUSH1 0x6 SLOAD DUP2 JUMP JUMPDEST PUSH1 0x0 PUSH2 0x404 PUSH2 0x79F JUMP JUMPDEST PUSH1 0x0 PUSH1 0x3 DUP1 SLOAD SWAP1 POP GT PUSH2 0x44C JUMPI PUSH1 0x40 MLOAD PUSH32 0x8C379A000000000000000000000000000000000000000000000000000000000 DUP2 MSTORE PUSH1 0x4 ADD PUSH2 0x443 SWAP1 PUSH2 0xAD8 JUMP JUMPDEST PUSH1 0x40 MLOAD DUP1 SWAP2 SUB SWAP1 REVERT JUMPDEST PUSH1 0x0 PUSH1 0x3 PUSH1 0x1 PUSH1 0x3 DUP1 SLOAD SWAP1 POP PUSH2 0x462 SWAP2 SWAP1 PUSH2 0xB27 JUMP JUMPDEST DUP2 SLOAD DUP2 LT PUSH2 0x473 JUMPI PUSH2 0x472 PUSH2 0xB5B JUMP JUMPDEST JUMPDEST SWAP1 PUSH1 0x0 MSTORE PUSH1 0x20 PUSH1 0x0 KECCAK256 ADD PUSH1 0x0 SWAP1 SLOAD SWAP1 PUSH2 0x100 EXP SWAP1 DIV PUSH20 0xFFFFFFFFFFFFFFFFFFFFFFFFFFFFFFFFFFFFFFFF AND SWAP1 POP PUSH1 0x3 DUP1 SLOAD DUP1 PUSH2 0x4B2 JUMPI PUSH2 0x4B1 PUSH2 0xB8A JUMP JUMPDEST JUMPDEST PUSH1 0x1 SWAP1 SUB DUP2 DUP2 SWAP1 PUSH1 0x0 MSTORE PUSH1 0x20 PUSH1 0x0 KECCAK256 ADD PUSH1 0x0 PUSH2 0x100 EXP DUP2 SLOAD SWAP1 PUSH20 0xFFFFFFFFFFFFFFFFFFFFFFFFFFFFFFFFFFFFFFFF MUL NOT AND SWAP1 SSTORE SWAP1 SSTORE DUP1 SWAP2 POP POP SWAP1 JUMP JUMPDEST PUSH1 0x1 PUSH1 0x0 SWAP1 SLOAD SWAP1 PUSH2 0x100 EXP SWAP1 DIV PUSH20 0xFFFFFFFFFFFFFFFFFFFFFFFFFFFFFFFFFFFFFFFF AND DUP2 JUMP JUMPDEST PUSH2 0x51C PUSH2 0x79F JUMP JUMPDEST PUSH1 0x0 PUSH20 0xFFFFFFFFFFFFFFFFFFFFFFFFFFFFFFFFFFFFFFFF AND DUP2 PUSH20 0xFFFFFFFFFFFFFFFFFFFFFFFFFFFFFFFFFFFFFFFF AND SUB PUSH2 0x58B JUMPI PUSH1 0x40 MLOAD PUSH32 0x8C379A000000000000000000000000000000000000000000000000000000000 DUP2 MSTORE PUSH1 0x4 ADD PUSH2 0x582 SWAP1 PUSH2 0xC2B JUMP JUMPDEST PUSH1 0x40 MLOAD DUP1 SWAP2 SUB SWAP1 REVERT JUMPDEST PUSH2 0x594 DUP2 PUSH2 0x6DB JUMP JUMPDEST POP JUMP JUMPDEST PUSH2 0x59F PUSH2 0x3CB JUMP JUMPDEST PUSH20 0xFFFFFFFFFFFFFFFFFFFFFFFFFFFFFFFFFFFFFFFF AND CALLER PUSH20 0xFFFFFFFFFFFFFFFFFFFFFFFFFFFFFFFFFFFFFFFF AND SUB PUSH2 0x60C JUMPI PUSH1 0x40 MLOAD PUSH32 0x8C379A000000000000000000000000000000000000000000000000000000000 DUP2 MSTORE PUSH1 0x4 ADD PUSH2 0x603 SWAP1 PUSH2 0xCBD JUMP JUMPDEST PUSH1 0x40 MLOAD DUP1 SWAP2 SUB SWAP1 REVERT JUMPDEST PUSH1 0x6 SLOAD PUSH1 0x7 SLOAD PUSH2 0x61C SWAP2 SWAP1 PUSH2 0xCDD JUMP JUMPDEST CALLVALUE EQ PUSH2 0x65D JUMPI PUSH1 0x40 MLOAD PUSH32 0x8C379A000000000000000000000000000000000000000000000000000000000 DUP2 MSTORE PUSH1 0x4 ADD PUSH2 0x654 SWAP1 PUSH2 0xD91 JUMP JUMPDEST PUSH1 0x40 MLOAD DUP1 SWAP2 SUB SWAP1 REVERT JUMPDEST PUSH1 0x4 SLOAD PUSH1 0x3 DUP1 SLOAD SWAP1 POP LT PUSH2 0x670 JUMPI PUSH1 0x0 DUP1 REVERT JUMPDEST PUSH1 0x3 CALLER SWAP1 DUP1 PUSH1 0x1 DUP2 SLOAD ADD DUP1 DUP3 SSTORE DUP1 SWAP2 POP POP PUSH1 0x1 SWAP1 SUB SWAP1 PUSH1 0x0 MSTORE PUSH1 0x20 PUSH1 0x0 KECCAK256 ADD PUSH1 0x0 SWAP1 SWAP2 SWAP1 SWAP2 SWAP1 SWAP2 PUSH2 0x100 EXP DUP2 SLOAD DUP2 PUSH20 0xFFFFFFFFFFFFFFFFFFFFFFFFFFFFFFFFFFFFFFFF MUL NOT AND SWAP1 DUP4 PUSH20 0xFFFFFFFFFFFFFFFFFFFFFFFFFFFFFFFFFFFFFFFF AND MUL OR SWAP1 SSTORE POP JUMP JUMPDEST PUSH1 0x5 SLOAD DUP2 JUMP JUMPDEST PUSH1 0x0 DUP1 PUSH1 0x0 SWAP1 SLOAD SWAP1 PUSH2 0x100 EXP SWAP1 DIV PUSH20 0xFFFFFFFFFFFFFFFFFFFFFFFFFFFFFFFFFFFFFFFF AND SWAP1 POP DUP2 PUSH1 0x0 DUP1 PUSH2 0x100 EXP DUP2 SLOAD DUP2 PUSH20 0xFFFFFFFFFFFFFFFFFFFFFFFFFFFFFFFFFFFFFFFF MUL NOT AND SWAP1 DUP4 PUSH20 0xFFFFFFFFFFFFFFFFFFFFFFFFFFFFFFFFFFFFFFFF AND MUL OR SWAP1 SSTORE POP DUP2 PUSH20 0xFFFFFFFFFFFFFFFFFFFFFFFFFFFFFFFFFFFFFFFF AND DUP2 PUSH20 0xFFFFFFFFFFFFFFFFFFFFFFFFFFFFFFFFFFFFFFFF AND PUSH32 0x8BE0079C531659141344CD1FD0A4F28419497F9722A3DAAFE3B4186F6B6457E0 PUSH1 0x40 MLOAD PUSH1 0x40 MLOAD DUP1 SWAP2 SUB SWAP1 LOG3 POP POP JUMP JUMPDEST PUSH2 0x7A7 PUSH2 0x81D JUMP JUMPDEST PUSH20 0xFFFFFFFFFFFFFFFFFFFFFFFFFFFFFFFFFFFFFFFF AND PUSH2 0x7C5 PUSH2 0x3CB JUMP JUMPDEST PUSH20 0xFFFFFFFFFFFFFFFFFFFFFFFFFFFFFFFFFFFFFFFF AND EQ PUSH2 0x81B JUMPI PUSH1 0x40 MLOAD PUSH32 0x8C379A000000000000000000000000000000000000000000000000000000000 DUP2 MSTORE PUSH1 0x4 ADD PUSH2 0x812 SWAP1 PUSH2 0xDFD JUMP JUMPDEST PUSH1 0x40 MLOAD DUP1 SWAP2 SUB SWAP1 REVERT JUMPDEST JUMP JUMPDEST PUSH1 0x0 CALLER SWAP1 POP SWAP1 JUMP JUMPDEST PUSH1 0x0 DUP2 SWAP1 POP SWAP2 SWAP1 POP JUMP JUMPDEST PUSH2 0x838 DUP2 PUSH2 0x825 JUMP JUMPDEST DUP3 MSTORE POP POP JUMP JUMPDEST PUSH1 0x0 PUSH1 0x20 DUP3 ADD SWAP1 POP PUSH2 0x853 PUSH1 0x0 DUP4 ADD DUP5 PUSH2 0x82F JUMP JUMPDEST SWAP3 SWAP2 POP POP JUMP JUMPDEST PUSH1 0x0 DUP1 REVERT JUMPDEST PUSH1 0x0 PUSH20 0xFFFFFFFFFFFFFFFFFFFFFFFFFFFFFFFFFFFFFFFF DUP3 AND SWAP1 POP SWAP2 SWAP1 POP JUMP JUMPDEST PUSH1 0x0 PUSH2 0x889 DUP3 PUSH2 0x85E JUMP JUMPDEST SWAP1 POP SWAP2 SWAP1 POP JUMP JUMPDEST PUSH2 0x899 DUP2 PUSH2 0x87E JUMP JUMPDEST DUP2 EQ PUSH2 0x8A4 JUMPI PUSH1 0x0 DUP1 REVERT JUMPDEST POP JUMP JUMPDEST PUSH1 0x0 DUP2 CALLDATALOAD SWAP1 POP PUSH2 0x8B6 DUP2 PUSH2 0x890 JUMP JUMPDEST SWAP3 SWAP2 POP POP JUMP JUMPDEST PUSH2 0x8C5 DUP2 PUSH2 0x825 JUMP JUMPDEST DUP2 EQ PUSH2 0x8D0 JUMPI PUSH1 0x0 DUP1 REVERT JUMPDEST POP JUMP JUMPDEST PUSH1 0x0 DUP2 CALLDATALOAD SWAP1 POP PUSH2 0x8E2 DUP2 PUSH2 0x8BC JUMP JUMPDEST SWAP3 SWAP2 POP POP JUMP JUMPDEST PUSH1 0x0 DUP1 PUSH1 0x0 DUP1 PUSH1 0x0 PUSH1 0xA0 DUP7 DUP9 SUB SLT ISZERO PUSH2 0x904 JUMPI PUSH2 0x903 PUSH2 0x859 JUMP JUMPDEST JUMPDEST PUSH1 0x0 PUSH2 0x912 DUP9 DUP3 DUP10 ADD PUSH2 0x8A7 JUMP JUMPDEST SWAP6 POP POP PUSH1 0x20 PUSH2 0x923 DUP9 DUP3 DUP10 ADD PUSH2 0x8D3 JUMP JUMPDEST SWAP5 POP POP PUSH1 0x40 PUSH2 0x934 DUP9 DUP3 DUP10 ADD PUSH2 0x8D3 JUMP JUMPDEST SWAP4 POP POP PUSH1 0x60 PUSH2 0x945 DUP9 DUP3 DUP10 ADD PUSH2 0x8D3 JUMP JUMPDEST SWAP3 POP POP PUSH1 0x80 PUSH2 0x956 DUP9 DUP3 DUP10 ADD PUSH2 0x8D3 JUMP JUMPDEST SWAP2 POP POP SWAP3 SWAP6 POP SWAP3 SWAP6 SWAP1 SWAP4 POP JUMP JUMPDEST PUSH2 0x96C DUP2 PUSH2 0x87E JUMP JUMPDEST DUP3 MSTORE POP POP JUMP JUMPDEST PUSH1 0x0 PUSH1 0x20 DUP3 ADD SWAP1 POP PUSH2 0x987 PUSH1 0x0 DUP4 ADD DUP5 PUSH2 0x963 JUMP JUMPDEST SWAP3 SWAP2 POP POP JUMP JUMPDEST PUSH1 0x0 PUSH1 0x20 DUP3 DUP5 SUB SLT ISZERO PUSH2 0x9A3 JUMPI PUSH2 0x9A2 PUSH2 0x859 JUMP JUMPDEST JUMPDEST PUSH1 0x0 PUSH2 0x9B1 DUP5 DUP3 DUP6 ADD PUSH2 0x8A7 JUMP JUMPDEST SWAP2 POP POP SWAP3 SWAP2 POP POP JUMP JUMPDEST PUSH32 0x4E487B7100000000000000000000000000000000000000000000000000000000 PUSH1 0x0 MSTORE PUSH1 0x21 PUSH1 0x4 MSTORE PUSH1 0x24 PUSH1 0x0 REVERT JUMPDEST PUSH1 0x0 DUP3 DUP3 MSTORE PUSH1 0x20 DUP3 ADD SWAP1 POP SWAP3 SWAP2 POP POP JUMP JUMPDEST PUSH32 0x546869732070726F647563652068617320616C7265616479206265656E20696E PUSH1 0x0 DUP3 ADD MSTORE PUSH32 0x6974696C697A6564000000000000000000000000000000000000000000000000 PUSH1 0x20 DUP3 ADD MSTORE POP JUMP JUMPDEST PUSH1 0x0 PUSH2 0xA56 PUSH1 0x28 DUP4 PUSH2 0x9E9 JUMP JUMPDEST SWAP2 POP PUSH2 0xA61 DUP3 PUSH2 0x9FA JUMP JUMPDEST PUSH1 0x40 DUP3 ADD SWAP1 POP SWAP2 SWAP1 POP JUMP JUMPDEST PUSH1 0x0 PUSH1 0x20 DUP3 ADD SWAP1 POP DUP2 DUP2 SUB PUSH1 0x0 DUP4 ADD MSTORE PUSH2 0xA85 DUP2 PUSH2 0xA49 JUMP JUMPDEST SWAP1 POP SWAP2 SWAP1 POP JUMP JUMPDEST PUSH32 0x4E6F206F726465727320746F2074616B65000000000000000000000000000000 PUSH1 0x0 DUP3 ADD MSTORE POP JUMP JUMPDEST PUSH1 0x0 PUSH2 0xAC2 PUSH1 0x11 DUP4 PUSH2 0x9E9 JUMP JUMPDEST SWAP2 POP PUSH2 0xACD DUP3 PUSH2 0xA8C JUMP JUMPDEST PUSH1 0x20 DUP3 ADD SWAP1 POP SWAP2 SWAP1 POP JUMP JUMPDEST PUSH1 0x0 PUSH1 0x20 DUP3 ADD SWAP1 POP DUP2 DUP2 SUB PUSH1 0x0 DUP4 ADD MSTORE PUSH2 0xAF1 DUP2 PUSH2 0xAB5 JUMP JUMPDEST SWAP1 POP SWAP2 SWAP1 POP JUMP JUMPDEST PUSH32 0x4E487B7100000000000000000000000000000000000000000000000000000000 PUSH1 0x0 MSTORE PUSH1 0x11 PUSH1 0x4 MSTORE PUSH1 0x24 PUSH1 0x0 REVERT JUMPDEST PUSH1 0x0 PUSH2 0xB32 DUP3 PUSH2 0x825 JUMP JUMPDEST SWAP2 POP PUSH2 0xB3D DUP4 PUSH2 0x825 JUMP JUMPDEST SWAP3 POP DUP3 DUP3 SUB SWAP1 POP DUP2 DUP2 GT ISZERO PUSH2 0xB55 JUMPI PUSH2 0xB54 PUSH2 0xAF8 JUMP JUMPDEST JUMPDEST SWAP3 SWAP2 POP POP JUMP JUMPDEST PUSH32 0x4E487B7100000000000000000000000000000000000000000000000000000000 PUSH1 0x0 MSTORE PUSH1 0x32 PUSH1 0x4 MSTORE PUSH1 0x24 PUSH1 0x0 REVERT JUMPDEST PUSH32 0x4E487B7100000000000000000000000000000000000000000000000000000000 PUSH1 0x0 MSTORE PUSH1 0x31 PUSH1 0x4 MSTORE PUSH1 0x24 PUSH1 0x0 REVERT JUMPDEST PUSH32 0x4F776E61626C653A206E6577206F776E657220697320746865207A65726F2061 PUSH1 0x0 DUP3 ADD MSTORE PUSH32 0x6464726573730000000000000000000000000000000000000000000000000000 PUSH1 0x20 DUP3 ADD MSTORE POP JUMP JUMPDEST PUSH1 0x0 PUSH2 0xC15 PUSH1 0x26 DUP4 PUSH2 0x9E9 JUMP JUMPDEST SWAP2 POP PUSH2 0xC20 DUP3 PUSH2 0xBB9 JUMP JUMPDEST PUSH1 0x40 DUP3 ADD SWAP1 POP SWAP2 SWAP1 POP JUMP JUMPDEST PUSH1 0x0 PUSH1 0x20 DUP3 ADD SWAP1 POP DUP2 DUP2 SUB PUSH1 0x0 DUP4 ADD MSTORE PUSH2 0xC44 DUP2 PUSH2 0xC08 JUMP JUMPDEST SWAP1 POP SWAP2 SWAP1 POP JUMP JUMPDEST PUSH32 0x6661726D65722063616E6E6F7420706C616365206F7264657220666F72207468 PUSH1 0x0 DUP3 ADD MSTORE PUSH32 0x656972206F776E2070726F647563650000000000000000000000000000000000 PUSH1 0x20 DUP3 ADD MSTORE POP JUMP JUMPDEST PUSH1 0x0 PUSH2 0xCA7 PUSH1 0x2F DUP4 PUSH2 0x9E9 JUMP JUMPDEST SWAP2 POP PUSH2 0xCB2 DUP3 PUSH2 0xC4B JUMP JUMPDEST PUSH1 0x40 DUP3 ADD SWAP1 POP SWAP2 SWAP1 POP JUMP JUMPDEST PUSH1 0x0 PUSH1 0x20 DUP3 ADD SWAP1 POP DUP2 DUP2 SUB PUSH1 0x0 DUP4 ADD MSTORE PUSH2 0xCD6 DUP2 PUSH2 0xC9A JUMP JUMPDEST SWAP1 POP SWAP2 SWAP1 POP JUMP JUMPDEST PUSH1 0x0 PUSH2 0xCE8 DUP3 PUSH2 0x825 JUMP JUMPDEST SWAP2 POP PUSH2 0xCF3 DUP4 PUSH2 0x825 JUMP JUMPDEST SWAP3 POP DUP3 DUP3 MUL PUSH2 0xD01 DUP2 PUSH2 0x825 JUMP JUMPDEST SWAP2 POP DUP3 DUP3 DIV DUP5 EQ DUP4 ISZERO OR PUSH2 0xD18 JUMPI PUSH2 0xD17 PUSH2 0xAF8 JUMP JUMPDEST JUMPDEST POP SWAP3 SWAP2 POP POP JUMP JUMPDEST PUSH32 0x6F72646572206D757374206265206F6620636F72726563742073697A6520616E PUSH1 0x0 DUP3 ADD MSTORE PUSH32 0x6420707269636500000000000000000000000000000000000000000000000000 PUSH1 0x20 DUP3 ADD MSTORE POP JUMP JUMPDEST PUSH1 0x0 PUSH2 0xD7B PUSH1 0x27 DUP4 PUSH2 0x9E9 JUMP JUMPDEST SWAP2 POP PUSH2 0xD86 DUP3 PUSH2 0xD1F JUMP JUMPDEST PUSH1 0x40 DUP3 ADD SWAP1 POP SWAP2 SWAP1 POP JUMP JUMPDEST PUSH1 0x0 PUSH1 0x20 DUP3 ADD SWAP1 POP DUP2 DUP2 SUB PUSH1 0x0 DUP4 ADD MSTORE PUSH2 0xDAA DUP2 PUSH2 0xD6E JUMP JUMPDEST SWAP1 POP SWAP2 SWAP1 POP JUMP JUMPDEST PUSH32 0x4F776E61626C653A2063616C6C6572206973206E6F7420746865206F776E6572 PUSH1 0x0 DUP3 ADD MSTORE POP JUMP JUMPDEST PUSH1 0x0 PUSH2 0xDE7 PUSH1 0x20 DUP4 PUSH2 0x9E9 JUMP JUMPDEST SWAP2 POP PUSH2 0xDF2 DUP3 PUSH2 0xDB1 JUMP JUMPDEST PUSH1 0x20 DUP3 ADD SWAP1 POP SWAP2 SWAP1 POP JUMP JUMPDEST PUSH1 0x0 PUSH1 0x20 DUP3 ADD SWAP1 POP DUP2 DUP2 SUB PUSH1 0x0 DUP4 ADD MSTORE PUSH2 0xE16 DUP2 PUSH2 0xDDA JUMP JUMPDEST SWAP1 POP SWAP2 SWAP1 POP JUMP INVALID LOG2 PUSH5 0x6970667358 0x22 SLT KECCAK256 SHR 0xC7 EXTCODEHASH 0xF6 0xEC 0xF9 0xF6 PUSH9 0x4DB2DF002A87DA99F2 0xA6 MSTORE8 0x5F 0xCE CALLDATACOPY ADD DUP15 SWAP13 DUP5 DUP4 0xAB 0x1F CALL JUMPDEST 0xBF PUSH5 0x736F6C6343 STOP ADDMOD SLT STOP CALLER "
				},
				"gasEstimates": {
					"creation": {
						"codeDepositCost": "733400",
						"executionCost": "infinite",
						"totalCost": "infinite"
					},
					"external": {
						"farmer()": "2558",
						"initilize(address,uint256,uint256,uint256,uint256)": "infinite",
						"limitOnPendingOrders()": "2430",
						"market()": "2603",
						"orderSize()": "2474",
						"owner()": "2633",
						"placeOrder()": "infinite",
						"price()": "2429",
						"produceHash()": "2539",
						"renounceOwnership()": "30465",
						"takeOrder()": "infinite",
						"transferOwnership(address)": "30810"
					}
				},
				"methodIdentifiers": {
					"farmer()": "d811fcf0",
					"initilize(address,uint256,uint256,uint256,uint256)": "5a690b97",
					"limitOnPendingOrders()": "530d124e",
					"market()": "80f55605",
					"orderSize()": "6d86b8a5",
					"owner()": "8da5cb5b",
					"placeOrder()": "f5c609e0",
					"price()": "a035b1fe",
					"produceHash()": "fa34f63a",
					"renounceOwnership()": "715018a6",
					"takeOrder()": "d32dacc1",
					"transferOwnership(address)": "f2fde38b"
				}
			},
			"storageLayout": {
				"storage": [
					{
						"astId": 7,
						"contract": "contracts/Produce.sol:Produce",
						"label": "_owner",
						"offset": 0,
						"slot": "0",
						"type": "t_address"
					},
					{
						"astId": 348,
						"contract": "contracts/Produce.sol:Produce",
						"label": "farmer",
						"offset": 0,
						"slot": "1",
						"type": "t_address"
					},
					{
						"astId": 350,
						"contract": "contracts/Produce.sol:Produce",
						"label": "market",
						"offset": 0,
						"slot": "2",
						"type": "t_address"
					},
					{
						"astId": 353,
						"contract": "contracts/Produce.sol:Produce",
						"label": "orders",
						"offset": 0,
						"slot": "3",
						"type": "t_array(t_address)dyn_storage"
					},
					{
						"astId": 355,
						"contract": "contracts/Produce.sol:Produce",
						"label": "limitOnPendingOrders",
						"offset": 0,
						"slot": "4",
						"type": "t_uint256"
					},
					{
						"astId": 357,
						"contract": "contracts/Produce.sol:Produce",
						"label": "produceHash",
						"offset": 0,
						"slot": "5",
						"type": "t_uint256"
					},
					{
						"astId": 359,
						"contract": "contracts/Produce.sol:Produce",
						"label": "price",
						"offset": 0,
						"slot": "6",
						"type": "t_uint256"
					},
					{
						"astId": 361,
						"contract": "contracts/Produce.sol:Produce",
						"label": "orderSize",
						"offset": 0,
						"slot": "7",
						"type": "t_uint256"
					},
					{
						"astId": 368,
						"contract": "contracts/Produce.sol:Produce",
						"label": "state",
						"offset": 0,
						"slot": "8",
						"type": "t_enum(State)365"
					}
				],
				"types": {
					"t_address": {
						"encoding": "inplace",
						"label": "address",
						"numberOfBytes": "20"
					},
					"t_array(t_address)dyn_storage": {
						"base": "t_address",
						"encoding": "dynamic_array",
						"label": "address[]",
						"numberOfBytes": "32"
					},
					"t_enum(State)365": {
						"encoding": "inplace",
						"label": "enum Produce.State",
						"numberOfBytes": "1"
					},
					"t_uint256": {
						"encoding": "inplace",
						"label": "uint256",
						"numberOfBytes": "32"
					}
				}
			},
			"userdoc": {
				"kind": "user",
				"methods": {
					"placeOrder()": {
						"notice": "Place an order an order of the produce"
					},
					"takeOrder()": {
						"notice": "This allows farmers to take a single produceOrder"
					}
				},
				"version": 1
			}
		}
	}
}