{
	"contracts/Market.sol": {
		"Market": {
			"abi": [
				{
					"inputs": [],
					"stateMutability": "nonpayable",
					"type": "constructor"
				},
				{
					"inputs": [
						{
							"internalType": "uint256",
							"name": "_produceHash",
							"type": "uint256"
						},
						{
							"internalType": "uint256",
							"name": "_price",
							"type": "uint256"
						},
						{
							"internalType": "uint256",
							"name": "_orderSize",
							"type": "uint256"
						},
						{
							"internalType": "uint256",
							"name": "_limitOnPendingOrders",
							"type": "uint256"
						}
					],
					"name": "addProduce",
					"outputs": [
						{
							"internalType": "address",
							"name": "produceContract",
							"type": "address"
						}
					],
					"stateMutability": "nonpayable",
					"type": "function"
				},
				{
					"inputs": [
						{
							"internalType": "address",
							"name": "",
							"type": "address"
						}
					],
					"name": "farmerList",
					"outputs": [
						{
							"internalType": "bool",
							"name": "",
							"type": "bool"
						}
					],
					"stateMutability": "view",
					"type": "function"
				},
				{
					"inputs": [
						{
							"internalType": "address",
							"name": "produceAddress",
							"type": "address"
						}
					],
					"name": "removeProduce",
					"outputs": [],
					"stateMutability": "nonpayable",
					"type": "function"
				}
			],
			"devdoc": {
				"kind": "dev",
				"methods": {},
				"version": 1
			},
			"evm": {
				"assembly": "    /* \"contracts/Market.sol\":142:1773  contract Market {... */\n  mstore(0x40, 0xa0)\n    /* \"contracts/Market.sol\":667:744  constructor() {... */\n  callvalue\n  dup1\n  iszero\n  tag_1\n  jumpi\n  0x00\n  dup1\n  revert\ntag_1:\n  pop\n    /* \"contracts/Market.sol\":723:736  new Produce() */\n  mload(0x40)\n  tag_4\n  swap1\n  tag_5\n  jump\t// in\ntag_4:\n  mload(0x40)\n  dup1\n  swap2\n  sub\n  swap1\n  0x00\n  create\n  dup1\n  iszero\n  dup1\n  iszero\n  tag_6\n  jumpi\n  returndatasize\n  0x00\n  dup1\n  returndatacopy\n  revert(0x00, returndatasize)\ntag_6:\n  pop\n    /* \"contracts/Market.sol\":691:737  produceImplementation = address(new Produce()) */\n  0xffffffffffffffffffffffffffffffffffffffff\n  and\n  0x80\n  dup2\n  0xffffffffffffffffffffffffffffffffffffffff\n  and\n  dup2\n  mstore\n  pop\n  pop\n    /* \"contracts/Market.sol\":142:1773  contract Market {... */\n  jump(tag_7)\ntag_5:\n  dataSize(sub_1)\n  dup1\n  dataOffset(sub_1)\n  dup4\n  codecopy\n  add\n  swap1\n  jump\t// out\ntag_7:\n  mload(0x80)\n  codecopy(0x00, dataOffset(sub_0), dataSize(sub_0))\n  0x00\n  assignImmutable(\"0x75bcc28b7fac24eeec9856ca179c749c015847969c966f0a0315f3d435961b2d\")\n  return(0x00, dataSize(sub_0))\nstop\n\nsub_0: assembly {\n        /* \"contracts/Market.sol\":142:1773  contract Market {... */\n      mstore(0x40, 0x80)\n      callvalue\n      dup1\n      iszero\n      tag_1\n      jumpi\n      0x00\n      dup1\n      revert\n    tag_1:\n      pop\n      jumpi(tag_2, lt(calldatasize, 0x04))\n      shr(0xe0, calldataload(0x00))\n      dup1\n      0x18661ddb\n      eq\n      tag_3\n      jumpi\n      dup1\n      0x7b6833c3\n      eq\n      tag_4\n      jumpi\n      dup1\n      0xa1d861a9\n      eq\n      tag_5\n      jumpi\n    tag_2:\n      0x00\n      dup1\n      revert\n        /* \"contracts/Market.sol\":751:1451  function addProduce( ... */\n    tag_3:\n      tag_6\n      0x04\n      dup1\n      calldatasize\n      sub\n      dup2\n      add\n      swap1\n      tag_7\n      swap2\n      swap1\n      tag_8\n      jump\t// in\n    tag_7:\n      tag_9\n      jump\t// in\n    tag_6:\n      mload(0x40)\n      tag_10\n      swap2\n      swap1\n      tag_11\n      jump\t// in\n    tag_10:\n      mload(0x40)\n      dup1\n      swap2\n      sub\n      swap1\n      return\n        /* \"contracts/Market.sol\":1457:1769  function removeProduce(address produceAddress) public {... */\n    tag_4:\n      tag_12\n      0x04\n      dup1\n      calldatasize\n      sub\n      dup2\n      add\n      swap1\n      tag_13\n      swap2\n      swap1\n      tag_14\n      jump\t// in\n    tag_13:\n      tag_15\n      jump\t// in\n    tag_12:\n      stop\n        /* \"contracts/Market.sol\":619:660  mapping(address=> bool) public farmerList */\n    tag_5:\n      tag_16\n      0x04\n      dup1\n      calldatasize\n      sub\n      dup2\n      add\n      swap1\n      tag_17\n      swap2\n      swap1\n      tag_14\n      jump\t// in\n    tag_17:\n      tag_18\n      jump\t// in\n    tag_16:\n      mload(0x40)\n      tag_19\n      swap2\n      swap1\n      tag_20\n      jump\t// in\n    tag_19:\n      mload(0x40)\n      dup1\n      swap2\n      sub\n      swap1\n      return\n        /* \"contracts/Market.sol\":751:1451  function addProduce( ... */\n    tag_9:\n        /* \"contracts/Market.sol\":921:944  address produceContract */\n      0x00\n        /* \"contracts/Market.sol\":960:983  address newProduceClone */\n      dup1\n        /* \"contracts/Market.sol\":986:1021  Clones.clone(produceImplementation) */\n      tag_22\n        /* \"contracts/Market.sol\":999:1020  produceImplementation */\n      immutable(\"0x75bcc28b7fac24eeec9856ca179c749c015847969c966f0a0315f3d435961b2d\")\n        /* \"contracts/Market.sol\":986:998  Clones.clone */\n      tag_23\n        /* \"contracts/Market.sol\":986:1021  Clones.clone(produceImplementation) */\n      jump\t// in\n    tag_22:\n        /* \"contracts/Market.sol\":960:1021  address newProduceClone = Clones.clone(produceImplementation) */\n      swap1\n      pop\n        /* \"contracts/Market.sol\":1043:1058  newProduceClone */\n      dup1\n        /* \"contracts/Market.sol\":1035:1069  Produce(newProduceClone).initilize */\n      0xffffffffffffffffffffffffffffffffffffffff\n      and\n      0x5a690b97\n        /* \"contracts/Market.sol\":1088:1098  msg.sender */\n      caller\n        /* \"contracts/Market.sol\":1117:1129  _produceHash */\n      dup9\n        /* \"contracts/Market.sol\":1148:1154  _price */\n      dup9\n        /* \"contracts/Market.sol\":1173:1183  _orderSize */\n      dup9\n        /* \"contracts/Market.sol\":1202:1223  _limitOnPendingOrders */\n      dup9\n        /* \"contracts/Market.sol\":1035:1237  Produce(newProduceClone).initilize(... */\n      mload(0x40)\n      dup7\n      0xffffffff\n      and\n      0xe0\n      shl\n      dup2\n      mstore\n      0x04\n      add\n      tag_24\n      swap6\n      swap5\n      swap4\n      swap3\n      swap2\n      swap1\n      tag_25\n      jump\t// in\n    tag_24:\n      0x00\n      mload(0x40)\n      dup1\n      dup4\n      sub\n      dup2\n      0x00\n      dup8\n      dup1\n      extcodesize\n      iszero\n      dup1\n      iszero\n      tag_26\n      jumpi\n      0x00\n      dup1\n      revert\n    tag_26:\n      pop\n      gas\n      call\n      iszero\n      dup1\n      iszero\n      tag_28\n      jumpi\n      returndatasize\n      0x00\n      dup1\n      returndatacopy\n      revert(0x00, returndatasize)\n    tag_28:\n      pop\n      pop\n      pop\n      pop\n        /* \"contracts/Market.sol\":1251:1267  produceAddresses */\n      0x00\n        /* \"contracts/Market.sol\":1281:1296  newProduceClone */\n      dup2\n        /* \"contracts/Market.sol\":1251:1298  produceAddresses.push(address(newProduceClone)) */\n      swap1\n      dup1\n      0x01\n      dup2\n      sload\n      add\n      dup1\n      dup3\n      sstore\n      dup1\n      swap2\n      pop\n      pop\n      0x01\n      swap1\n      sub\n      swap1\n      0x00\n      mstore\n      keccak256(0x00, 0x20)\n      add\n      0x00\n      swap1\n      swap2\n      swap1\n      swap2\n      swap1\n      swap2\n      0x0100\n      exp\n      dup2\n      sload\n      dup2\n      0xffffffffffffffffffffffffffffffffffffffff\n      mul\n      not\n      and\n      swap1\n      dup4\n      0xffffffffffffffffffffffffffffffffffffffff\n      and\n      mul\n      or\n      swap1\n      sstore\n      pop\n        /* \"contracts/Market.sol\":1352:1356  true */\n      0x01\n        /* \"contracts/Market.sol\":1312:1323  produceList */\n      dup1\n        /* \"contracts/Market.sol\":1312:1349  produceList[address(newProduceClone)] */\n      0x00\n        /* \"contracts/Market.sol\":1332:1347  newProduceClone */\n      dup4\n        /* \"contracts/Market.sol\":1312:1349  produceList[address(newProduceClone)] */\n      0xffffffffffffffffffffffffffffffffffffffff\n      and\n      0xffffffffffffffffffffffffffffffffffffffff\n      and\n      dup2\n      mstore\n      0x20\n      add\n      swap1\n      dup2\n      mstore\n      0x20\n      add\n      0x00\n      keccak256\n      0x00\n        /* \"contracts/Market.sol\":1312:1356  produceList[address(newProduceClone)] = true */\n      0x0100\n      exp\n      dup2\n      sload\n      dup2\n      0xff\n      mul\n      not\n      and\n      swap1\n      dup4\n      iszero\n      iszero\n      mul\n      or\n      swap1\n      sstore\n      pop\n        /* \"contracts/Market.sol\":1395:1399  true */\n      0x01\n        /* \"contracts/Market.sol\":1370:1380  farmerList */\n      0x02\n        /* \"contracts/Market.sol\":1370:1392  farmerList[msg.sender] */\n      0x00\n        /* \"contracts/Market.sol\":1381:1391  msg.sender */\n      caller\n        /* \"contracts/Market.sol\":1370:1392  farmerList[msg.sender] */\n      0xffffffffffffffffffffffffffffffffffffffff\n      and\n      0xffffffffffffffffffffffffffffffffffffffff\n      and\n      dup2\n      mstore\n      0x20\n      add\n      swap1\n      dup2\n      mstore\n      0x20\n      add\n      0x00\n      keccak256\n      0x00\n        /* \"contracts/Market.sol\":1370:1399  farmerList[msg.sender] = true */\n      0x0100\n      exp\n      dup2\n      sload\n      dup2\n      0xff\n      mul\n      not\n      and\n      swap1\n      dup4\n      iszero\n      iszero\n      mul\n      or\n      swap1\n      sstore\n      pop\n        /* \"contracts/Market.sol\":1428:1443  newProduceClone */\n      dup1\n        /* \"contracts/Market.sol\":1413:1444  return address(newProduceClone) */\n      swap2\n      pop\n      pop\n        /* \"contracts/Market.sol\":751:1451  function addProduce( ... */\n      swap5\n      swap4\n      pop\n      pop\n      pop\n      pop\n      jump\t// out\n        /* \"contracts/Market.sol\":1457:1769  function removeProduce(address produceAddress) public {... */\n    tag_15:\n        /* \"contracts/Market.sol\":1529:1540  produceList */\n      0x01\n        /* \"contracts/Market.sol\":1529:1556  produceList[produceAddress] */\n      0x00\n        /* \"contracts/Market.sol\":1541:1555  produceAddress */\n      dup3\n        /* \"contracts/Market.sol\":1529:1556  produceList[produceAddress] */\n      0xffffffffffffffffffffffffffffffffffffffff\n      and\n      0xffffffffffffffffffffffffffffffffffffffff\n      and\n      dup2\n      mstore\n      0x20\n      add\n      swap1\n      dup2\n      mstore\n      0x20\n      add\n      0x00\n      keccak256\n      0x00\n      swap1\n      sload\n      swap1\n      0x0100\n      exp\n      swap1\n      div\n      0xff\n      and\n        /* \"contracts/Market.sol\":1521:1601  require(produceList[produceAddress], \"This produce is not listed on the Market\") */\n      tag_31\n      jumpi\n      mload(0x40)\n      0x08c379a000000000000000000000000000000000000000000000000000000000\n      dup2\n      mstore\n      0x04\n      add\n      tag_32\n      swap1\n      tag_33\n      jump\t// in\n    tag_32:\n      mload(0x40)\n      dup1\n      swap2\n      sub\n      swap1\n      revert\n    tag_31:\n        /* \"contracts/Market.sol\":1653:1663  msg.sender */\n      caller\n        /* \"contracts/Market.sol\":1619:1663  Produce(produceAddress).owner()== msg.sender */\n      0xffffffffffffffffffffffffffffffffffffffff\n      and\n        /* \"contracts/Market.sol\":1627:1641  produceAddress */\n      dup2\n        /* \"contracts/Market.sol\":1619:1648  Produce(produceAddress).owner */\n      0xffffffffffffffffffffffffffffffffffffffff\n      and\n      0x8da5cb5b\n        /* \"contracts/Market.sol\":1619:1650  Produce(produceAddress).owner() */\n      mload(0x40)\n      dup2\n      0xffffffff\n      and\n      0xe0\n      shl\n      dup2\n      mstore\n      0x04\n      add\n      0x20\n      mload(0x40)\n      dup1\n      dup4\n      sub\n      dup2\n      dup7\n      gas\n      staticcall\n      iszero\n      dup1\n      iszero\n      tag_35\n      jumpi\n      returndatasize\n      0x00\n      dup1\n      returndatacopy\n      revert(0x00, returndatasize)\n    tag_35:\n      pop\n      pop\n      pop\n      pop\n      mload(0x40)\n      returndatasize\n      not(0x1f)\n      0x1f\n      dup3\n      add\n      and\n      dup3\n      add\n      dup1\n      0x40\n      mstore\n      pop\n      dup2\n      add\n      swap1\n      tag_36\n      swap2\n      swap1\n      tag_37\n      jump\t// in\n    tag_36:\n        /* \"contracts/Market.sol\":1619:1663  Produce(produceAddress).owner()== msg.sender */\n      0xffffffffffffffffffffffffffffffffffffffff\n      and\n      eq\n        /* \"contracts/Market.sol\":1611:1717  require(Produce(produceAddress).owner()== msg.sender, \"Only produce owner can remove produce from Market\") */\n      tag_38\n      jumpi\n      mload(0x40)\n      0x08c379a000000000000000000000000000000000000000000000000000000000\n      dup2\n      mstore\n      0x04\n      add\n      tag_39\n      swap1\n      tag_40\n      jump\t// in\n    tag_39:\n      mload(0x40)\n      dup1\n      swap2\n      sub\n      swap1\n      revert\n    tag_38:\n        /* \"contracts/Market.sol\":1757:1762  false */\n      0x00\n        /* \"contracts/Market.sol\":1727:1738  produceList */\n      0x01\n        /* \"contracts/Market.sol\":1727:1754  produceList[produceAddress] */\n      0x00\n        /* \"contracts/Market.sol\":1739:1753  produceAddress */\n      dup4\n        /* \"contracts/Market.sol\":1727:1754  produceList[produceAddress] */\n      0xffffffffffffffffffffffffffffffffffffffff\n      and\n      0xffffffffffffffffffffffffffffffffffffffff\n      and\n      dup2\n      mstore\n      0x20\n      add\n      swap1\n      dup2\n      mstore\n      0x20\n      add\n      0x00\n      keccak256\n      0x00\n        /* \"contracts/Market.sol\":1727:1762  produceList[produceAddress] = false */\n      0x0100\n      exp\n      dup2\n      sload\n      dup2\n      0xff\n      mul\n      not\n      and\n      swap1\n      dup4\n      iszero\n      iszero\n      mul\n      or\n      swap1\n      sstore\n      pop\n        /* \"contracts/Market.sol\":1457:1769  function removeProduce(address produceAddress) public {... */\n      pop\n      jump\t// out\n        /* \"contracts/Market.sol\":619:660  mapping(address=> bool) public farmerList */\n    tag_18:\n      mstore(0x20, 0x02)\n      dup1\n      0x00\n      mstore\n      keccak256(0x00, 0x40)\n      0x00\n      swap2\n      pop\n      sload\n      swap1\n      0x0100\n      exp\n      swap1\n      div\n      0xff\n      and\n      dup2\n      jump\t// out\n        /* \"@openzeppelin/contracts/proxy/Clones.sol\":973:1732  function clone(address implementation) internal returns (address instance) {... */\n    tag_23:\n        /* \"@openzeppelin/contracts/proxy/Clones.sol\":1030:1046  address instance */\n      0x00\n        /* \"@openzeppelin/contracts/proxy/Clones.sol\":1362:1410  0x3d602d80600a3d3981f3363d3d373d3d3d363d73000000 */\n      0x3d602d80600a3d3981f3363d3d373d3d3d363d73000000\n        /* \"@openzeppelin/contracts/proxy/Clones.sol\":1344:1358  implementation */\n      dup3\n        /* \"@openzeppelin/contracts/proxy/Clones.sol\":1338:1342  0x60 */\n      0x60\n        /* \"@openzeppelin/contracts/proxy/Clones.sol\":1334:1359  shl(0x60, implementation) */\n      shl\n        /* \"@openzeppelin/contracts/proxy/Clones.sol\":1328:1332  0xe8 */\n      0xe8\n        /* \"@openzeppelin/contracts/proxy/Clones.sol\":1324:1360  shr(0xe8, shl(0x60, implementation)) */\n      shr\n        /* \"@openzeppelin/contracts/proxy/Clones.sol\":1321:1411  or(shr(0xe8, shl(0x60, implementation)), 0x3d602d80600a3d3981f3363d3d373d3d3d363d73000000) */\n      or\n        /* \"@openzeppelin/contracts/proxy/Clones.sol\":1315:1319  0x00 */\n      0x00\n        /* \"@openzeppelin/contracts/proxy/Clones.sol\":1308:1412  mstore(0x00, or(shr(0xe8, shl(0x60, implementation)), 0x3d602d80600a3d3981f3363d3d373d3d3d363d73000000)) */\n      mstore\n        /* \"@openzeppelin/contracts/proxy/Clones.sol\":1569:1601  0x5af43d82803e903d91602b57fd5bf3 */\n      0x5af43d82803e903d91602b57fd5bf3\n        /* \"@openzeppelin/contracts/proxy/Clones.sol\":1552:1566  implementation */\n      dup3\n        /* \"@openzeppelin/contracts/proxy/Clones.sol\":1546:1550  0x78 */\n      0x78\n        /* \"@openzeppelin/contracts/proxy/Clones.sol\":1542:1567  shl(0x78, implementation) */\n      shl\n        /* \"@openzeppelin/contracts/proxy/Clones.sol\":1539:1602  or(shl(0x78, implementation), 0x5af43d82803e903d91602b57fd5bf3) */\n      or\n        /* \"@openzeppelin/contracts/proxy/Clones.sol\":1533:1537  0x20 */\n      0x20\n        /* \"@openzeppelin/contracts/proxy/Clones.sol\":1526:1603  mstore(0x20, or(shl(0x78, implementation), 0x5af43d82803e903d91602b57fd5bf3)) */\n      mstore\n        /* \"@openzeppelin/contracts/proxy/Clones.sol\":1644:1648  0x37 */\n      0x37\n        /* \"@openzeppelin/contracts/proxy/Clones.sol\":1638:1642  0x09 */\n      0x09\n        /* \"@openzeppelin/contracts/proxy/Clones.sol\":1635:1636  0 */\n      0x00\n        /* \"@openzeppelin/contracts/proxy/Clones.sol\":1628:1649  create(0, 0x09, 0x37) */\n      create\n        /* \"@openzeppelin/contracts/proxy/Clones.sol\":1616:1649  instance := create(0, 0x09, 0x37) */\n      swap1\n      pop\n        /* \"@openzeppelin/contracts/proxy/Clones.sol\":1696:1697  0 */\n      0x00\n        /* \"@openzeppelin/contracts/proxy/Clones.sol\":1676:1698  instance != address(0) */\n      0xffffffffffffffffffffffffffffffffffffffff\n      and\n        /* \"@openzeppelin/contracts/proxy/Clones.sol\":1676:1684  instance */\n      dup2\n        /* \"@openzeppelin/contracts/proxy/Clones.sol\":1676:1698  instance != address(0) */\n      0xffffffffffffffffffffffffffffffffffffffff\n      and\n      sub\n        /* \"@openzeppelin/contracts/proxy/Clones.sol\":1668:1725  require(instance != address(0), \"ERC1167: create failed\") */\n      tag_42\n      jumpi\n      mload(0x40)\n      0x08c379a000000000000000000000000000000000000000000000000000000000\n      dup2\n      mstore\n      0x04\n      add\n      tag_43\n      swap1\n      tag_44\n      jump\t// in\n    tag_43:\n      mload(0x40)\n      dup1\n      swap2\n      sub\n      swap1\n      revert\n    tag_42:\n        /* \"@openzeppelin/contracts/proxy/Clones.sol\":973:1732  function clone(address implementation) internal returns (address instance) {... */\n      swap2\n      swap1\n      pop\n      jump\t// out\n        /* \"#utility.yul\":88:205   */\n    tag_46:\n        /* \"#utility.yul\":197:198   */\n      0x00\n        /* \"#utility.yul\":194:195   */\n      dup1\n        /* \"#utility.yul\":187:199   */\n      revert\n        /* \"#utility.yul\":334:411   */\n    tag_48:\n        /* \"#utility.yul\":371:378   */\n      0x00\n        /* \"#utility.yul\":400:405   */\n      dup2\n        /* \"#utility.yul\":389:405   */\n      swap1\n      pop\n        /* \"#utility.yul\":334:411   */\n      swap2\n      swap1\n      pop\n      jump\t// out\n        /* \"#utility.yul\":417:539   */\n    tag_49:\n        /* \"#utility.yul\":490:514   */\n      tag_73\n        /* \"#utility.yul\":508:513   */\n      dup2\n        /* \"#utility.yul\":490:514   */\n      tag_48\n      jump\t// in\n    tag_73:\n        /* \"#utility.yul\":483:488   */\n      dup2\n        /* \"#utility.yul\":480:515   */\n      eq\n        /* \"#utility.yul\":470:533   */\n      tag_74\n      jumpi\n        /* \"#utility.yul\":529:530   */\n      0x00\n        /* \"#utility.yul\":526:527   */\n      dup1\n        /* \"#utility.yul\":519:531   */\n      revert\n        /* \"#utility.yul\":470:533   */\n    tag_74:\n        /* \"#utility.yul\":417:539   */\n      pop\n      jump\t// out\n        /* \"#utility.yul\":545:684   */\n    tag_50:\n        /* \"#utility.yul\":591:596   */\n      0x00\n        /* \"#utility.yul\":629:635   */\n      dup2\n        /* \"#utility.yul\":616:636   */\n      calldataload\n        /* \"#utility.yul\":607:636   */\n      swap1\n      pop\n        /* \"#utility.yul\":645:678   */\n      tag_76\n        /* \"#utility.yul\":672:677   */\n      dup2\n        /* \"#utility.yul\":645:678   */\n      tag_49\n      jump\t// in\n    tag_76:\n        /* \"#utility.yul\":545:684   */\n      swap3\n      swap2\n      pop\n      pop\n      jump\t// out\n        /* \"#utility.yul\":690:1455   */\n    tag_8:\n        /* \"#utility.yul\":776:782   */\n      0x00\n        /* \"#utility.yul\":784:790   */\n      dup1\n        /* \"#utility.yul\":792:798   */\n      0x00\n        /* \"#utility.yul\":800:806   */\n      dup1\n        /* \"#utility.yul\":849:852   */\n      0x80\n        /* \"#utility.yul\":837:846   */\n      dup6\n        /* \"#utility.yul\":828:835   */\n      dup8\n        /* \"#utility.yul\":824:847   */\n      sub\n        /* \"#utility.yul\":820:853   */\n      slt\n        /* \"#utility.yul\":817:937   */\n      iszero\n      tag_78\n      jumpi\n        /* \"#utility.yul\":856:935   */\n      tag_79\n      tag_46\n      jump\t// in\n    tag_79:\n        /* \"#utility.yul\":817:937   */\n    tag_78:\n        /* \"#utility.yul\":976:977   */\n      0x00\n        /* \"#utility.yul\":1001:1054   */\n      tag_80\n        /* \"#utility.yul\":1046:1053   */\n      dup8\n        /* \"#utility.yul\":1037:1043   */\n      dup3\n        /* \"#utility.yul\":1026:1035   */\n      dup9\n        /* \"#utility.yul\":1022:1044   */\n      add\n        /* \"#utility.yul\":1001:1054   */\n      tag_50\n      jump\t// in\n    tag_80:\n        /* \"#utility.yul\":991:1054   */\n      swap5\n      pop\n        /* \"#utility.yul\":947:1064   */\n      pop\n        /* \"#utility.yul\":1103:1105   */\n      0x20\n        /* \"#utility.yul\":1129:1182   */\n      tag_81\n        /* \"#utility.yul\":1174:1181   */\n      dup8\n        /* \"#utility.yul\":1165:1171   */\n      dup3\n        /* \"#utility.yul\":1154:1163   */\n      dup9\n        /* \"#utility.yul\":1150:1172   */\n      add\n        /* \"#utility.yul\":1129:1182   */\n      tag_50\n      jump\t// in\n    tag_81:\n        /* \"#utility.yul\":1119:1182   */\n      swap4\n      pop\n        /* \"#utility.yul\":1074:1192   */\n      pop\n        /* \"#utility.yul\":1231:1233   */\n      0x40\n        /* \"#utility.yul\":1257:1310   */\n      tag_82\n        /* \"#utility.yul\":1302:1309   */\n      dup8\n        /* \"#utility.yul\":1293:1299   */\n      dup3\n        /* \"#utility.yul\":1282:1291   */\n      dup9\n        /* \"#utility.yul\":1278:1300   */\n      add\n        /* \"#utility.yul\":1257:1310   */\n      tag_50\n      jump\t// in\n    tag_82:\n        /* \"#utility.yul\":1247:1310   */\n      swap3\n      pop\n        /* \"#utility.yul\":1202:1320   */\n      pop\n        /* \"#utility.yul\":1359:1361   */\n      0x60\n        /* \"#utility.yul\":1385:1438   */\n      tag_83\n        /* \"#utility.yul\":1430:1437   */\n      dup8\n        /* \"#utility.yul\":1421:1427   */\n      dup3\n        /* \"#utility.yul\":1410:1419   */\n      dup9\n        /* \"#utility.yul\":1406:1428   */\n      add\n        /* \"#utility.yul\":1385:1438   */\n      tag_50\n      jump\t// in\n    tag_83:\n        /* \"#utility.yul\":1375:1438   */\n      swap2\n      pop\n        /* \"#utility.yul\":1330:1448   */\n      pop\n        /* \"#utility.yul\":690:1455   */\n      swap3\n      swap6\n      swap2\n      swap5\n      pop\n      swap3\n      pop\n      jump\t// out\n        /* \"#utility.yul\":1461:1587   */\n    tag_51:\n        /* \"#utility.yul\":1498:1505   */\n      0x00\n        /* \"#utility.yul\":1538:1580   */\n      0xffffffffffffffffffffffffffffffffffffffff\n        /* \"#utility.yul\":1531:1536   */\n      dup3\n        /* \"#utility.yul\":1527:1581   */\n      and\n        /* \"#utility.yul\":1516:1581   */\n      swap1\n      pop\n        /* \"#utility.yul\":1461:1587   */\n      swap2\n      swap1\n      pop\n      jump\t// out\n        /* \"#utility.yul\":1593:1689   */\n    tag_52:\n        /* \"#utility.yul\":1630:1637   */\n      0x00\n        /* \"#utility.yul\":1659:1683   */\n      tag_86\n        /* \"#utility.yul\":1677:1682   */\n      dup3\n        /* \"#utility.yul\":1659:1683   */\n      tag_51\n      jump\t// in\n    tag_86:\n        /* \"#utility.yul\":1648:1683   */\n      swap1\n      pop\n        /* \"#utility.yul\":1593:1689   */\n      swap2\n      swap1\n      pop\n      jump\t// out\n        /* \"#utility.yul\":1695:1813   */\n    tag_53:\n        /* \"#utility.yul\":1782:1806   */\n      tag_88\n        /* \"#utility.yul\":1800:1805   */\n      dup2\n        /* \"#utility.yul\":1782:1806   */\n      tag_52\n      jump\t// in\n    tag_88:\n        /* \"#utility.yul\":1777:1780   */\n      dup3\n        /* \"#utility.yul\":1770:1807   */\n      mstore\n        /* \"#utility.yul\":1695:1813   */\n      pop\n      pop\n      jump\t// out\n        /* \"#utility.yul\":1819:2041   */\n    tag_11:\n        /* \"#utility.yul\":1912:1916   */\n      0x00\n        /* \"#utility.yul\":1950:1952   */\n      0x20\n        /* \"#utility.yul\":1939:1948   */\n      dup3\n        /* \"#utility.yul\":1935:1953   */\n      add\n        /* \"#utility.yul\":1927:1953   */\n      swap1\n      pop\n        /* \"#utility.yul\":1963:2034   */\n      tag_90\n        /* \"#utility.yul\":2031:2032   */\n      0x00\n        /* \"#utility.yul\":2020:2029   */\n      dup4\n        /* \"#utility.yul\":2016:2033   */\n      add\n        /* \"#utility.yul\":2007:2013   */\n      dup5\n        /* \"#utility.yul\":1963:2034   */\n      tag_53\n      jump\t// in\n    tag_90:\n        /* \"#utility.yul\":1819:2041   */\n      swap3\n      swap2\n      pop\n      pop\n      jump\t// out\n        /* \"#utility.yul\":2047:2169   */\n    tag_54:\n        /* \"#utility.yul\":2120:2144   */\n      tag_92\n        /* \"#utility.yul\":2138:2143   */\n      dup2\n        /* \"#utility.yul\":2120:2144   */\n      tag_52\n      jump\t// in\n    tag_92:\n        /* \"#utility.yul\":2113:2118   */\n      dup2\n        /* \"#utility.yul\":2110:2145   */\n      eq\n        /* \"#utility.yul\":2100:2163   */\n      tag_93\n      jumpi\n        /* \"#utility.yul\":2159:2160   */\n      0x00\n        /* \"#utility.yul\":2156:2157   */\n      dup1\n        /* \"#utility.yul\":2149:2161   */\n      revert\n        /* \"#utility.yul\":2100:2163   */\n    tag_93:\n        /* \"#utility.yul\":2047:2169   */\n      pop\n      jump\t// out\n        /* \"#utility.yul\":2175:2314   */\n    tag_55:\n        /* \"#utility.yul\":2221:2226   */\n      0x00\n        /* \"#utility.yul\":2259:2265   */\n      dup2\n        /* \"#utility.yul\":2246:2266   */\n      calldataload\n        /* \"#utility.yul\":2237:2266   */\n      swap1\n      pop\n        /* \"#utility.yul\":2275:2308   */\n      tag_95\n        /* \"#utility.yul\":2302:2307   */\n      dup2\n        /* \"#utility.yul\":2275:2308   */\n      tag_54\n      jump\t// in\n    tag_95:\n        /* \"#utility.yul\":2175:2314   */\n      swap3\n      swap2\n      pop\n      pop\n      jump\t// out\n        /* \"#utility.yul\":2320:2649   */\n    tag_14:\n        /* \"#utility.yul\":2379:2385   */\n      0x00\n        /* \"#utility.yul\":2428:2430   */\n      0x20\n        /* \"#utility.yul\":2416:2425   */\n      dup3\n        /* \"#utility.yul\":2407:2414   */\n      dup5\n        /* \"#utility.yul\":2403:2426   */\n      sub\n        /* \"#utility.yul\":2399:2431   */\n      slt\n        /* \"#utility.yul\":2396:2515   */\n      iszero\n      tag_97\n      jumpi\n        /* \"#utility.yul\":2434:2513   */\n      tag_98\n      tag_46\n      jump\t// in\n    tag_98:\n        /* \"#utility.yul\":2396:2515   */\n    tag_97:\n        /* \"#utility.yul\":2554:2555   */\n      0x00\n        /* \"#utility.yul\":2579:2632   */\n      tag_99\n        /* \"#utility.yul\":2624:2631   */\n      dup5\n        /* \"#utility.yul\":2615:2621   */\n      dup3\n        /* \"#utility.yul\":2604:2613   */\n      dup6\n        /* \"#utility.yul\":2600:2622   */\n      add\n        /* \"#utility.yul\":2579:2632   */\n      tag_55\n      jump\t// in\n    tag_99:\n        /* \"#utility.yul\":2569:2632   */\n      swap2\n      pop\n        /* \"#utility.yul\":2525:2642   */\n      pop\n        /* \"#utility.yul\":2320:2649   */\n      swap3\n      swap2\n      pop\n      pop\n      jump\t// out\n        /* \"#utility.yul\":2655:2745   */\n    tag_56:\n        /* \"#utility.yul\":2689:2696   */\n      0x00\n        /* \"#utility.yul\":2732:2737   */\n      dup2\n        /* \"#utility.yul\":2725:2738   */\n      iszero\n        /* \"#utility.yul\":2718:2739   */\n      iszero\n        /* \"#utility.yul\":2707:2739   */\n      swap1\n      pop\n        /* \"#utility.yul\":2655:2745   */\n      swap2\n      swap1\n      pop\n      jump\t// out\n        /* \"#utility.yul\":2751:2860   */\n    tag_57:\n        /* \"#utility.yul\":2832:2853   */\n      tag_102\n        /* \"#utility.yul\":2847:2852   */\n      dup2\n        /* \"#utility.yul\":2832:2853   */\n      tag_56\n      jump\t// in\n    tag_102:\n        /* \"#utility.yul\":2827:2830   */\n      dup3\n        /* \"#utility.yul\":2820:2854   */\n      mstore\n        /* \"#utility.yul\":2751:2860   */\n      pop\n      pop\n      jump\t// out\n        /* \"#utility.yul\":2866:3076   */\n    tag_20:\n        /* \"#utility.yul\":2953:2957   */\n      0x00\n        /* \"#utility.yul\":2991:2993   */\n      0x20\n        /* \"#utility.yul\":2980:2989   */\n      dup3\n        /* \"#utility.yul\":2976:2994   */\n      add\n        /* \"#utility.yul\":2968:2994   */\n      swap1\n      pop\n        /* \"#utility.yul\":3004:3069   */\n      tag_104\n        /* \"#utility.yul\":3066:3067   */\n      0x00\n        /* \"#utility.yul\":3055:3064   */\n      dup4\n        /* \"#utility.yul\":3051:3068   */\n      add\n        /* \"#utility.yul\":3042:3048   */\n      dup5\n        /* \"#utility.yul\":3004:3069   */\n      tag_57\n      jump\t// in\n    tag_104:\n        /* \"#utility.yul\":2866:3076   */\n      swap3\n      swap2\n      pop\n      pop\n      jump\t// out\n        /* \"#utility.yul\":3082:3200   */\n    tag_58:\n        /* \"#utility.yul\":3169:3193   */\n      tag_106\n        /* \"#utility.yul\":3187:3192   */\n      dup2\n        /* \"#utility.yul\":3169:3193   */\n      tag_48\n      jump\t// in\n    tag_106:\n        /* \"#utility.yul\":3164:3167   */\n      dup3\n        /* \"#utility.yul\":3157:3194   */\n      mstore\n        /* \"#utility.yul\":3082:3200   */\n      pop\n      pop\n      jump\t// out\n        /* \"#utility.yul\":3206:3870   */\n    tag_25:\n        /* \"#utility.yul\":3411:3415   */\n      0x00\n        /* \"#utility.yul\":3449:3452   */\n      0xa0\n        /* \"#utility.yul\":3438:3447   */\n      dup3\n        /* \"#utility.yul\":3434:3453   */\n      add\n        /* \"#utility.yul\":3426:3453   */\n      swap1\n      pop\n        /* \"#utility.yul\":3463:3534   */\n      tag_108\n        /* \"#utility.yul\":3531:3532   */\n      0x00\n        /* \"#utility.yul\":3520:3529   */\n      dup4\n        /* \"#utility.yul\":3516:3533   */\n      add\n        /* \"#utility.yul\":3507:3513   */\n      dup9\n        /* \"#utility.yul\":3463:3534   */\n      tag_53\n      jump\t// in\n    tag_108:\n        /* \"#utility.yul\":3544:3616   */\n      tag_109\n        /* \"#utility.yul\":3612:3614   */\n      0x20\n        /* \"#utility.yul\":3601:3610   */\n      dup4\n        /* \"#utility.yul\":3597:3615   */\n      add\n        /* \"#utility.yul\":3588:3594   */\n      dup8\n        /* \"#utility.yul\":3544:3616   */\n      tag_58\n      jump\t// in\n    tag_109:\n        /* \"#utility.yul\":3626:3698   */\n      tag_110\n        /* \"#utility.yul\":3694:3696   */\n      0x40\n        /* \"#utility.yul\":3683:3692   */\n      dup4\n        /* \"#utility.yul\":3679:3697   */\n      add\n        /* \"#utility.yul\":3670:3676   */\n      dup7\n        /* \"#utility.yul\":3626:3698   */\n      tag_58\n      jump\t// in\n    tag_110:\n        /* \"#utility.yul\":3708:3780   */\n      tag_111\n        /* \"#utility.yul\":3776:3778   */\n      0x60\n        /* \"#utility.yul\":3765:3774   */\n      dup4\n        /* \"#utility.yul\":3761:3779   */\n      add\n        /* \"#utility.yul\":3752:3758   */\n      dup6\n        /* \"#utility.yul\":3708:3780   */\n      tag_58\n      jump\t// in\n    tag_111:\n        /* \"#utility.yul\":3790:3863   */\n      tag_112\n        /* \"#utility.yul\":3858:3861   */\n      0x80\n        /* \"#utility.yul\":3847:3856   */\n      dup4\n        /* \"#utility.yul\":3843:3862   */\n      add\n        /* \"#utility.yul\":3834:3840   */\n      dup5\n        /* \"#utility.yul\":3790:3863   */\n      tag_58\n      jump\t// in\n    tag_112:\n        /* \"#utility.yul\":3206:3870   */\n      swap7\n      swap6\n      pop\n      pop\n      pop\n      pop\n      pop\n      pop\n      jump\t// out\n        /* \"#utility.yul\":3876:4045   */\n    tag_59:\n        /* \"#utility.yul\":3960:3971   */\n      0x00\n        /* \"#utility.yul\":3994:4000   */\n      dup3\n        /* \"#utility.yul\":3989:3992   */\n      dup3\n        /* \"#utility.yul\":3982:4001   */\n      mstore\n        /* \"#utility.yul\":4034:4038   */\n      0x20\n        /* \"#utility.yul\":4029:4032   */\n      dup3\n        /* \"#utility.yul\":4025:4039   */\n      add\n        /* \"#utility.yul\":4010:4039   */\n      swap1\n      pop\n        /* \"#utility.yul\":3876:4045   */\n      swap3\n      swap2\n      pop\n      pop\n      jump\t// out\n        /* \"#utility.yul\":4051:4278   */\n    tag_60:\n        /* \"#utility.yul\":4191:4225   */\n      0x546869732070726f64756365206973206e6f74206c6973746564206f6e207468\n        /* \"#utility.yul\":4187:4188   */\n      0x00\n        /* \"#utility.yul\":4179:4185   */\n      dup3\n        /* \"#utility.yul\":4175:4189   */\n      add\n        /* \"#utility.yul\":4168:4226   */\n      mstore\n        /* \"#utility.yul\":4260:4270   */\n      0x65204d61726b6574000000000000000000000000000000000000000000000000\n        /* \"#utility.yul\":4255:4257   */\n      0x20\n        /* \"#utility.yul\":4247:4253   */\n      dup3\n        /* \"#utility.yul\":4243:4258   */\n      add\n        /* \"#utility.yul\":4236:4271   */\n      mstore\n        /* \"#utility.yul\":4051:4278   */\n      pop\n      jump\t// out\n        /* \"#utility.yul\":4284:4650   */\n    tag_61:\n        /* \"#utility.yul\":4426:4429   */\n      0x00\n        /* \"#utility.yul\":4447:4514   */\n      tag_116\n        /* \"#utility.yul\":4511:4513   */\n      0x28\n        /* \"#utility.yul\":4506:4509   */\n      dup4\n        /* \"#utility.yul\":4447:4514   */\n      tag_59\n      jump\t// in\n    tag_116:\n        /* \"#utility.yul\":4440:4514   */\n      swap2\n      pop\n        /* \"#utility.yul\":4523:4616   */\n      tag_117\n        /* \"#utility.yul\":4612:4615   */\n      dup3\n        /* \"#utility.yul\":4523:4616   */\n      tag_60\n      jump\t// in\n    tag_117:\n        /* \"#utility.yul\":4641:4643   */\n      0x40\n        /* \"#utility.yul\":4636:4639   */\n      dup3\n        /* \"#utility.yul\":4632:4644   */\n      add\n        /* \"#utility.yul\":4625:4644   */\n      swap1\n      pop\n        /* \"#utility.yul\":4284:4650   */\n      swap2\n      swap1\n      pop\n      jump\t// out\n        /* \"#utility.yul\":4656:5075   */\n    tag_33:\n        /* \"#utility.yul\":4822:4826   */\n      0x00\n        /* \"#utility.yul\":4860:4862   */\n      0x20\n        /* \"#utility.yul\":4849:4858   */\n      dup3\n        /* \"#utility.yul\":4845:4863   */\n      add\n        /* \"#utility.yul\":4837:4863   */\n      swap1\n      pop\n        /* \"#utility.yul\":4909:4918   */\n      dup2\n        /* \"#utility.yul\":4903:4907   */\n      dup2\n        /* \"#utility.yul\":4899:4919   */\n      sub\n        /* \"#utility.yul\":4895:4896   */\n      0x00\n        /* \"#utility.yul\":4884:4893   */\n      dup4\n        /* \"#utility.yul\":4880:4897   */\n      add\n        /* \"#utility.yul\":4873:4920   */\n      mstore\n        /* \"#utility.yul\":4937:5068   */\n      tag_119\n        /* \"#utility.yul\":5063:5067   */\n      dup2\n        /* \"#utility.yul\":4937:5068   */\n      tag_61\n      jump\t// in\n    tag_119:\n        /* \"#utility.yul\":4929:5068   */\n      swap1\n      pop\n        /* \"#utility.yul\":4656:5075   */\n      swap2\n      swap1\n      pop\n      jump\t// out\n        /* \"#utility.yul\":5081:5224   */\n    tag_62:\n        /* \"#utility.yul\":5138:5143   */\n      0x00\n        /* \"#utility.yul\":5169:5175   */\n      dup2\n        /* \"#utility.yul\":5163:5176   */\n      mload\n        /* \"#utility.yul\":5154:5176   */\n      swap1\n      pop\n        /* \"#utility.yul\":5185:5218   */\n      tag_121\n        /* \"#utility.yul\":5212:5217   */\n      dup2\n        /* \"#utility.yul\":5185:5218   */\n      tag_54\n      jump\t// in\n    tag_121:\n        /* \"#utility.yul\":5081:5224   */\n      swap3\n      swap2\n      pop\n      pop\n      jump\t// out\n        /* \"#utility.yul\":5230:5581   */\n    tag_37:\n        /* \"#utility.yul\":5300:5306   */\n      0x00\n        /* \"#utility.yul\":5349:5351   */\n      0x20\n        /* \"#utility.yul\":5337:5346   */\n      dup3\n        /* \"#utility.yul\":5328:5335   */\n      dup5\n        /* \"#utility.yul\":5324:5347   */\n      sub\n        /* \"#utility.yul\":5320:5352   */\n      slt\n        /* \"#utility.yul\":5317:5436   */\n      iszero\n      tag_123\n      jumpi\n        /* \"#utility.yul\":5355:5434   */\n      tag_124\n      tag_46\n      jump\t// in\n    tag_124:\n        /* \"#utility.yul\":5317:5436   */\n    tag_123:\n        /* \"#utility.yul\":5475:5476   */\n      0x00\n        /* \"#utility.yul\":5500:5564   */\n      tag_125\n        /* \"#utility.yul\":5556:5563   */\n      dup5\n        /* \"#utility.yul\":5547:5553   */\n      dup3\n        /* \"#utility.yul\":5536:5545   */\n      dup6\n        /* \"#utility.yul\":5532:5554   */\n      add\n        /* \"#utility.yul\":5500:5564   */\n      tag_62\n      jump\t// in\n    tag_125:\n        /* \"#utility.yul\":5490:5564   */\n      swap2\n      pop\n        /* \"#utility.yul\":5446:5574   */\n      pop\n        /* \"#utility.yul\":5230:5581   */\n      swap3\n      swap2\n      pop\n      pop\n      jump\t// out\n        /* \"#utility.yul\":5587:5823   */\n    tag_63:\n        /* \"#utility.yul\":5727:5761   */\n      0x4f6e6c792070726f64756365206f776e65722063616e2072656d6f7665207072\n        /* \"#utility.yul\":5723:5724   */\n      0x00\n        /* \"#utility.yul\":5715:5721   */\n      dup3\n        /* \"#utility.yul\":5711:5725   */\n      add\n        /* \"#utility.yul\":5704:5762   */\n      mstore\n        /* \"#utility.yul\":5796:5815   */\n      0x6f647563652066726f6d204d61726b6574000000000000000000000000000000\n        /* \"#utility.yul\":5791:5793   */\n      0x20\n        /* \"#utility.yul\":5783:5789   */\n      dup3\n        /* \"#utility.yul\":5779:5794   */\n      add\n        /* \"#utility.yul\":5772:5816   */\n      mstore\n        /* \"#utility.yul\":5587:5823   */\n      pop\n      jump\t// out\n        /* \"#utility.yul\":5829:6195   */\n    tag_64:\n        /* \"#utility.yul\":5971:5974   */\n      0x00\n        /* \"#utility.yul\":5992:6059   */\n      tag_128\n        /* \"#utility.yul\":6056:6058   */\n      0x31\n        /* \"#utility.yul\":6051:6054   */\n      dup4\n        /* \"#utility.yul\":5992:6059   */\n      tag_59\n      jump\t// in\n    tag_128:\n        /* \"#utility.yul\":5985:6059   */\n      swap2\n      pop\n        /* \"#utility.yul\":6068:6161   */\n      tag_129\n        /* \"#utility.yul\":6157:6160   */\n      dup3\n        /* \"#utility.yul\":6068:6161   */\n      tag_63\n      jump\t// in\n    tag_129:\n        /* \"#utility.yul\":6186:6188   */\n      0x40\n        /* \"#utility.yul\":6181:6184   */\n      dup3\n        /* \"#utility.yul\":6177:6189   */\n      add\n        /* \"#utility.yul\":6170:6189   */\n      swap1\n      pop\n        /* \"#utility.yul\":5829:6195   */\n      swap2\n      swap1\n      pop\n      jump\t// out\n        /* \"#utility.yul\":6201:6620   */\n    tag_40:\n        /* \"#utility.yul\":6367:6371   */\n      0x00\n        /* \"#utility.yul\":6405:6407   */\n      0x20\n        /* \"#utility.yul\":6394:6403   */\n      dup3\n        /* \"#utility.yul\":6390:6408   */\n      add\n        /* \"#utility.yul\":6382:6408   */\n      swap1\n      pop\n        /* \"#utility.yul\":6454:6463   */\n      dup2\n        /* \"#utility.yul\":6448:6452   */\n      dup2\n        /* \"#utility.yul\":6444:6464   */\n      sub\n        /* \"#utility.yul\":6440:6441   */\n      0x00\n        /* \"#utility.yul\":6429:6438   */\n      dup4\n        /* \"#utility.yul\":6425:6442   */\n      add\n        /* \"#utility.yul\":6418:6465   */\n      mstore\n        /* \"#utility.yul\":6482:6613   */\n      tag_131\n        /* \"#utility.yul\":6608:6612   */\n      dup2\n        /* \"#utility.yul\":6482:6613   */\n      tag_64\n      jump\t// in\n    tag_131:\n        /* \"#utility.yul\":6474:6613   */\n      swap1\n      pop\n        /* \"#utility.yul\":6201:6620   */\n      swap2\n      swap1\n      pop\n      jump\t// out\n        /* \"#utility.yul\":6626:6798   */\n    tag_65:\n        /* \"#utility.yul\":6766:6790   */\n      0x455243313136373a20637265617465206661696c656400000000000000000000\n        /* \"#utility.yul\":6762:6763   */\n      0x00\n        /* \"#utility.yul\":6754:6760   */\n      dup3\n        /* \"#utility.yul\":6750:6764   */\n      add\n        /* \"#utility.yul\":6743:6791   */\n      mstore\n        /* \"#utility.yul\":6626:6798   */\n      pop\n      jump\t// out\n        /* \"#utility.yul\":6804:7170   */\n    tag_66:\n        /* \"#utility.yul\":6946:6949   */\n      0x00\n        /* \"#utility.yul\":6967:7034   */\n      tag_134\n        /* \"#utility.yul\":7031:7033   */\n      0x16\n        /* \"#utility.yul\":7026:7029   */\n      dup4\n        /* \"#utility.yul\":6967:7034   */\n      tag_59\n      jump\t// in\n    tag_134:\n        /* \"#utility.yul\":6960:7034   */\n      swap2\n      pop\n        /* \"#utility.yul\":7043:7136   */\n      tag_135\n        /* \"#utility.yul\":7132:7135   */\n      dup3\n        /* \"#utility.yul\":7043:7136   */\n      tag_65\n      jump\t// in\n    tag_135:\n        /* \"#utility.yul\":7161:7163   */\n      0x20\n        /* \"#utility.yul\":7156:7159   */\n      dup3\n        /* \"#utility.yul\":7152:7164   */\n      add\n        /* \"#utility.yul\":7145:7164   */\n      swap1\n      pop\n        /* \"#utility.yul\":6804:7170   */\n      swap2\n      swap1\n      pop\n      jump\t// out\n        /* \"#utility.yul\":7176:7595   */\n    tag_44:\n        /* \"#utility.yul\":7342:7346   */\n      0x00\n        /* \"#utility.yul\":7380:7382   */\n      0x20\n        /* \"#utility.yul\":7369:7378   */\n      dup3\n        /* \"#utility.yul\":7365:7383   */\n      add\n        /* \"#utility.yul\":7357:7383   */\n      swap1\n      pop\n        /* \"#utility.yul\":7429:7438   */\n      dup2\n        /* \"#utility.yul\":7423:7427   */\n      dup2\n        /* \"#utility.yul\":7419:7439   */\n      sub\n        /* \"#utility.yul\":7415:7416   */\n      0x00\n        /* \"#utility.yul\":7404:7413   */\n      dup4\n        /* \"#utility.yul\":7400:7417   */\n      add\n        /* \"#utility.yul\":7393:7440   */\n      mstore\n        /* \"#utility.yul\":7457:7588   */\n      tag_137\n        /* \"#utility.yul\":7583:7587   */\n      dup2\n        /* \"#utility.yul\":7457:7588   */\n      tag_66\n      jump\t// in\n    tag_137:\n        /* \"#utility.yul\":7449:7588   */\n      swap1\n      pop\n        /* \"#utility.yul\":7176:7595   */\n      swap2\n      swap1\n      pop\n      jump\t// out\n\n    auxdata: 0xa264697066735822122032438622a75179813fb783f261a3a1770fe25f9192faf5c2891d3dad0250a46864736f6c63430008120033\n}\n\nsub_1: assembly {\n        /* \"contracts/Produce.sol\":140:1810  contract Produce is Ownable{... */\n      mstore(0x40, 0x80)\n        /* \"contracts/Produce.sol\":489:547  constructor() {... */\n      callvalue\n      dup1\n      iszero\n      tag_1\n      jumpi\n      0x00\n      dup1\n      revert\n    tag_1:\n      pop\n        /* \"@openzeppelin/contracts/access/Ownable.sol\":936:968  _transferOwnership(_msgSender()) */\n      tag_5\n        /* \"@openzeppelin/contracts/access/Ownable.sol\":955:967  _msgSender() */\n      tag_6\n        /* \"@openzeppelin/contracts/access/Ownable.sol\":955:965  _msgSender */\n      shl(0x20, tag_7)\n        /* \"@openzeppelin/contracts/access/Ownable.sol\":955:967  _msgSender() */\n      0x20\n      shr\n      jump\t// in\n    tag_6:\n        /* \"@openzeppelin/contracts/access/Ownable.sol\":936:954  _transferOwnership */\n      shl(0x20, tag_8)\n        /* \"@openzeppelin/contracts/access/Ownable.sol\":936:968  _transferOwnership(_msgSender()) */\n      0x20\n      shr\n      jump\t// in\n    tag_5:\n        /* \"contracts/Produce.sol\":521:540  State.UNINITIALIZED */\n      0x00\n        /* \"contracts/Produce.sol\":513:518  state */\n      0x08\n      0x00\n        /* \"contracts/Produce.sol\":513:540  state = State.UNINITIALIZED */\n      0x0100\n      exp\n      dup2\n      sload\n      dup2\n      0xff\n      mul\n      not\n      and\n      swap1\n      dup4\n      0x02\n      dup2\n      gt\n      iszero\n      tag_10\n      jumpi\n      tag_11\n      tag_12\n      jump\t// in\n    tag_11:\n    tag_10:\n      mul\n      or\n      swap1\n      sstore\n      pop\n        /* \"contracts/Produce.sol\":140:1810  contract Produce is Ownable{... */\n      jump(tag_13)\n        /* \"@openzeppelin/contracts/utils/Context.sol\":640:736  function _msgSender() internal view virtual returns (address) {... */\n    tag_7:\n        /* \"@openzeppelin/contracts/utils/Context.sol\":693:700  address */\n      0x00\n        /* \"@openzeppelin/contracts/utils/Context.sol\":719:729  msg.sender */\n      caller\n        /* \"@openzeppelin/contracts/utils/Context.sol\":712:729  return msg.sender */\n      swap1\n      pop\n        /* \"@openzeppelin/contracts/utils/Context.sol\":640:736  function _msgSender() internal view virtual returns (address) {... */\n      swap1\n      jump\t// out\n        /* \"@openzeppelin/contracts/access/Ownable.sol\":2433:2620  function _transferOwnership(address newOwner) internal virtual {... */\n    tag_8:\n        /* \"@openzeppelin/contracts/access/Ownable.sol\":2506:2522  address oldOwner */\n      0x00\n        /* \"@openzeppelin/contracts/access/Ownable.sol\":2525:2531  _owner */\n      dup1\n      0x00\n      swap1\n      sload\n      swap1\n      0x0100\n      exp\n      swap1\n      div\n      0xffffffffffffffffffffffffffffffffffffffff\n      and\n        /* \"@openzeppelin/contracts/access/Ownable.sol\":2506:2531  address oldOwner = _owner */\n      swap1\n      pop\n        /* \"@openzeppelin/contracts/access/Ownable.sol\":2550:2558  newOwner */\n      dup2\n        /* \"@openzeppelin/contracts/access/Ownable.sol\":2541:2547  _owner */\n      0x00\n      dup1\n        /* \"@openzeppelin/contracts/access/Ownable.sol\":2541:2558  _owner = newOwner */\n      0x0100\n      exp\n      dup2\n      sload\n      dup2\n      0xffffffffffffffffffffffffffffffffffffffff\n      mul\n      not\n      and\n      swap1\n      dup4\n      0xffffffffffffffffffffffffffffffffffffffff\n      and\n      mul\n      or\n      swap1\n      sstore\n      pop\n        /* \"@openzeppelin/contracts/access/Ownable.sol\":2604:2612  newOwner */\n      dup2\n        /* \"@openzeppelin/contracts/access/Ownable.sol\":2573:2613  OwnershipTransferred(oldOwner, newOwner) */\n      0xffffffffffffffffffffffffffffffffffffffff\n      and\n        /* \"@openzeppelin/contracts/access/Ownable.sol\":2594:2602  oldOwner */\n      dup2\n        /* \"@openzeppelin/contracts/access/Ownable.sol\":2573:2613  OwnershipTransferred(oldOwner, newOwner) */\n      0xffffffffffffffffffffffffffffffffffffffff\n      and\n      0x8be0079c531659141344cd1fd0a4f28419497f9722a3daafe3b4186f6b6457e0\n      mload(0x40)\n      mload(0x40)\n      dup1\n      swap2\n      sub\n      swap1\n      log3\n        /* \"@openzeppelin/contracts/access/Ownable.sol\":2496:2620  {... */\n      pop\n        /* \"@openzeppelin/contracts/access/Ownable.sol\":2433:2620  function _transferOwnership(address newOwner) internal virtual {... */\n      pop\n      jump\t// out\n        /* \"#utility.yul\":7:187   */\n    tag_12:\n        /* \"#utility.yul\":55:132   */\n      0x4e487b7100000000000000000000000000000000000000000000000000000000\n        /* \"#utility.yul\":52:53   */\n      0x00\n        /* \"#utility.yul\":45:133   */\n      mstore\n        /* \"#utility.yul\":152:156   */\n      0x21\n        /* \"#utility.yul\":149:150   */\n      0x04\n        /* \"#utility.yul\":142:157   */\n      mstore\n        /* \"#utility.yul\":176:180   */\n      0x24\n        /* \"#utility.yul\":173:174   */\n      0x00\n        /* \"#utility.yul\":166:181   */\n      revert\n        /* \"contracts/Produce.sol\":140:1810  contract Produce is Ownable{... */\n    tag_13:\n      dataSize(sub_0)\n      dup1\n      dataOffset(sub_0)\n      0x00\n      codecopy\n      0x00\n      return\n    stop\n\n    sub_0: assembly {\n            /* \"contracts/Produce.sol\":140:1810  contract Produce is Ownable{... */\n          mstore(0x40, 0x80)\n          jumpi(tag_1, lt(calldatasize, 0x04))\n          shr(0xe0, calldataload(0x00))\n          dup1\n          0xa035b1fe\n          gt\n          tag_14\n          jumpi\n          dup1\n          0xa035b1fe\n          eq\n          tag_8\n          jumpi\n          dup1\n          0xd32dacc1\n          eq\n          tag_9\n          jumpi\n          dup1\n          0xd811fcf0\n          eq\n          tag_10\n          jumpi\n          dup1\n          0xf2fde38b\n          eq\n          tag_11\n          jumpi\n          dup1\n          0xf5c609e0\n          eq\n          tag_12\n          jumpi\n          dup1\n          0xfa34f63a\n          eq\n          tag_13\n          jumpi\n          jump(tag_1)\n        tag_14:\n          dup1\n          0x530d124e\n          eq\n          tag_2\n          jumpi\n          dup1\n          0x5a690b97\n          eq\n          tag_3\n          jumpi\n          dup1\n          0x6d86b8a5\n          eq\n          tag_4\n          jumpi\n          dup1\n          0x715018a6\n          eq\n          tag_5\n          jumpi\n          dup1\n          0x80f55605\n          eq\n          tag_6\n          jumpi\n          dup1\n          0x8da5cb5b\n          eq\n          tag_7\n          jumpi\n        tag_1:\n          0x00\n          dup1\n          revert\n            /* \"contracts/Produce.sol\":257:292  uint256 public limitOnPendingOrders */\n        tag_2:\n          callvalue\n          dup1\n          iszero\n          tag_15\n          jumpi\n          0x00\n          dup1\n          revert\n        tag_15:\n          pop\n          tag_16\n          tag_17\n          jump\t// in\n        tag_16:\n          mload(0x40)\n          tag_18\n          swap2\n          swap1\n          tag_19\n          jump\t// in\n        tag_18:\n          mload(0x40)\n          dup1\n          swap2\n          sub\n          swap1\n          return\n            /* \"contracts/Produce.sol\":553:1069  function initilize(... */\n        tag_3:\n          callvalue\n          dup1\n          iszero\n          tag_20\n          jumpi\n          0x00\n          dup1\n          revert\n        tag_20:\n          pop\n          tag_21\n          0x04\n          dup1\n          calldatasize\n          sub\n          dup2\n          add\n          swap1\n          tag_22\n          swap2\n          swap1\n          tag_23\n          jump\t// in\n        tag_22:\n          tag_24\n          jump\t// in\n        tag_21:\n          stop\n            /* \"contracts/Produce.sol\":357:381  uint256 public orderSize */\n        tag_4:\n          callvalue\n          dup1\n          iszero\n          tag_25\n          jumpi\n          0x00\n          dup1\n          revert\n        tag_25:\n          pop\n          tag_26\n          tag_27\n          jump\t// in\n        tag_26:\n          mload(0x40)\n          tag_28\n          swap2\n          swap1\n          tag_19\n          jump\t// in\n        tag_28:\n          mload(0x40)\n          dup1\n          swap2\n          sub\n          swap1\n          return\n            /* \"@openzeppelin/contracts/access/Ownable.sol\":1831:1932  function renounceOwnership() public virtual onlyOwner {... */\n        tag_5:\n          callvalue\n          dup1\n          iszero\n          tag_29\n          jumpi\n          0x00\n          dup1\n          revert\n        tag_29:\n          pop\n          tag_30\n          tag_31\n          jump\t// in\n        tag_30:\n          stop\n            /* \"contracts/Produce.sol\":200:221  address public market */\n        tag_6:\n          callvalue\n          dup1\n          iszero\n          tag_32\n          jumpi\n          0x00\n          dup1\n          revert\n        tag_32:\n          pop\n          tag_33\n          tag_34\n          jump\t// in\n        tag_33:\n          mload(0x40)\n          tag_35\n          swap2\n          swap1\n          tag_36\n          jump\t// in\n        tag_35:\n          mload(0x40)\n          dup1\n          swap2\n          sub\n          swap1\n          return\n            /* \"@openzeppelin/contracts/access/Ownable.sol\":1201:1286  function owner() public view virtual returns (address) {... */\n        tag_7:\n          callvalue\n          dup1\n          iszero\n          tag_37\n          jumpi\n          0x00\n          dup1\n          revert\n        tag_37:\n          pop\n          tag_38\n          tag_39\n          jump\t// in\n        tag_38:\n          mload(0x40)\n          tag_40\n          swap2\n          swap1\n          tag_36\n          jump\t// in\n        tag_40:\n          mload(0x40)\n          dup1\n          swap2\n          sub\n          swap1\n          return\n            /* \"contracts/Produce.sol\":331:351  uint256 public price */\n        tag_8:\n          callvalue\n          dup1\n          iszero\n          tag_41\n          jumpi\n          0x00\n          dup1\n          revert\n        tag_41:\n          pop\n          tag_42\n          tag_43\n          jump\t// in\n        tag_42:\n          mload(0x40)\n          tag_44\n          swap2\n          swap1\n          tag_19\n          jump\t// in\n        tag_44:\n          mload(0x40)\n          dup1\n          swap2\n          sub\n          swap1\n          return\n            /* \"contracts/Produce.sol\":1571:1806  function takeOrder() external onlyOwner returns (address order) {... */\n        tag_9:\n          callvalue\n          dup1\n          iszero\n          tag_45\n          jumpi\n          0x00\n          dup1\n          revert\n        tag_45:\n          pop\n          tag_46\n          tag_47\n          jump\t// in\n        tag_46:\n          mload(0x40)\n          tag_48\n          swap2\n          swap1\n          tag_36\n          jump\t// in\n        tag_48:\n          mload(0x40)\n          dup1\n          swap2\n          sub\n          swap1\n          return\n            /* \"contracts/Produce.sol\":173:194  address public farmer */\n        tag_10:\n          callvalue\n          dup1\n          iszero\n          tag_49\n          jumpi\n          0x00\n          dup1\n          revert\n        tag_49:\n          pop\n          tag_50\n          tag_51\n          jump\t// in\n        tag_50:\n          mload(0x40)\n          tag_52\n          swap2\n          swap1\n          tag_36\n          jump\t// in\n        tag_52:\n          mload(0x40)\n          dup1\n          swap2\n          sub\n          swap1\n          return\n            /* \"@openzeppelin/contracts/access/Ownable.sol\":2081:2279  function transferOwnership(address newOwner) public virtual onlyOwner {... */\n        tag_11:\n          callvalue\n          dup1\n          iszero\n          tag_53\n          jumpi\n          0x00\n          dup1\n          revert\n        tag_53:\n          pop\n          tag_54\n          0x04\n          dup1\n          calldatasize\n          sub\n          dup2\n          add\n          swap1\n          tag_55\n          swap2\n          swap1\n          tag_56\n          jump\t// in\n        tag_55:\n          tag_57\n          jump\t// in\n        tag_54:\n          stop\n            /* \"contracts/Produce.sol\":1122:1507  function placeOrder() external payable {... */\n        tag_12:\n          tag_58\n          tag_59\n          jump\t// in\n        tag_58:\n          stop\n            /* \"contracts/Produce.sol\":299:325  uint256 public produceHash */\n        tag_13:\n          callvalue\n          dup1\n          iszero\n          tag_60\n          jumpi\n          0x00\n          dup1\n          revert\n        tag_60:\n          pop\n          tag_61\n          tag_62\n          jump\t// in\n        tag_61:\n          mload(0x40)\n          tag_63\n          swap2\n          swap1\n          tag_19\n          jump\t// in\n        tag_63:\n          mload(0x40)\n          dup1\n          swap2\n          sub\n          swap1\n          return\n            /* \"contracts/Produce.sol\":257:292  uint256 public limitOnPendingOrders */\n        tag_17:\n          sload(0x04)\n          dup2\n          jump\t// out\n            /* \"contracts/Produce.sol\":553:1069  function initilize(... */\n        tag_24:\n            /* \"contracts/Produce.sol\":758:777  State.UNINITIALIZED */\n          0x00\n            /* \"contracts/Produce.sol\":751:777  state==State.UNINITIALIZED */\n          0x02\n          dup2\n          gt\n          iszero\n          tag_65\n          jumpi\n          tag_66\n          tag_67\n          jump\t// in\n        tag_66:\n        tag_65:\n            /* \"contracts/Produce.sol\":751:756  state */\n          0x08\n          0x00\n          swap1\n          sload\n          swap1\n          0x0100\n          exp\n          swap1\n          div\n          0xff\n          and\n            /* \"contracts/Produce.sol\":751:777  state==State.UNINITIALIZED */\n          0x02\n          dup2\n          gt\n          iszero\n          tag_68\n          jumpi\n          tag_69\n          tag_67\n          jump\t// in\n        tag_69:\n        tag_68:\n          eq\n            /* \"contracts/Produce.sol\":743:822  require(state==State.UNINITIALIZED, \"This produce has already been initilized\") */\n          tag_70\n          jumpi\n          mload(0x40)\n          0x08c379a000000000000000000000000000000000000000000000000000000000\n          dup2\n          mstore\n          0x04\n          add\n          tag_71\n          swap1\n          tag_72\n          jump\t// in\n        tag_71:\n          mload(0x40)\n          dup1\n          swap2\n          sub\n          swap1\n          revert\n        tag_70:\n            /* \"contracts/Produce.sol\":832:859  _transferOwnership(_farmer) */\n          tag_73\n            /* \"contracts/Produce.sol\":851:858  _farmer */\n          dup6\n            /* \"contracts/Produce.sol\":832:850  _transferOwnership */\n          tag_74\n            /* \"contracts/Produce.sol\":832:859  _transferOwnership(_farmer) */\n          jump\t// in\n        tag_73:\n            /* \"contracts/Produce.sol\":878:888  msg.sender */\n          caller\n            /* \"contracts/Produce.sol\":869:875  market */\n          0x02\n          0x00\n            /* \"contracts/Produce.sol\":869:888  market = msg.sender */\n          0x0100\n          exp\n          dup2\n          sload\n          dup2\n          0xffffffffffffffffffffffffffffffffffffffff\n          mul\n          not\n          and\n          swap1\n          dup4\n          0xffffffffffffffffffffffffffffffffffffffff\n          and\n          mul\n          or\n          swap1\n          sstore\n          pop\n            /* \"contracts/Produce.sol\":921:942  _limitOnPendingOrders */\n          dup1\n            /* \"contracts/Produce.sol\":898:918  limitOnPendingOrders */\n          0x04\n            /* \"contracts/Produce.sol\":898:942  limitOnPendingOrders = _limitOnPendingOrders */\n          dup2\n          swap1\n          sstore\n          pop\n            /* \"contracts/Produce.sol\":966:978  _produceHash */\n          dup4\n            /* \"contracts/Produce.sol\":952:963  produceHash */\n          0x05\n            /* \"contracts/Produce.sol\":952:978  produceHash = _produceHash */\n          dup2\n          swap1\n          sstore\n          pop\n            /* \"contracts/Produce.sol\":996:1002  _price */\n          dup3\n            /* \"contracts/Produce.sol\":988:993  price */\n          0x06\n            /* \"contracts/Produce.sol\":988:1002  price = _price */\n          dup2\n          swap1\n          sstore\n          pop\n            /* \"contracts/Produce.sol\":1024:1034  _orderSize */\n          dup2\n            /* \"contracts/Produce.sol\":1012:1021  orderSize */\n          0x07\n            /* \"contracts/Produce.sol\":1012:1034  orderSize = _orderSize */\n          dup2\n          swap1\n          sstore\n          pop\n            /* \"contracts/Produce.sol\":1052:1062  State.OPEN */\n          0x01\n            /* \"contracts/Produce.sol\":1044:1049  state */\n          0x08\n          0x00\n            /* \"contracts/Produce.sol\":1044:1062  state = State.OPEN */\n          0x0100\n          exp\n          dup2\n          sload\n          dup2\n          0xff\n          mul\n          not\n          and\n          swap1\n          dup4\n          0x02\n          dup2\n          gt\n          iszero\n          tag_75\n          jumpi\n          tag_76\n          tag_67\n          jump\t// in\n        tag_76:\n        tag_75:\n          mul\n          or\n          swap1\n          sstore\n          pop\n            /* \"contracts/Produce.sol\":553:1069  function initilize(... */\n          pop\n          pop\n          pop\n          pop\n          pop\n          jump\t// out\n            /* \"contracts/Produce.sol\":357:381  uint256 public orderSize */\n        tag_27:\n          sload(0x07)\n          dup2\n          jump\t// out\n            /* \"@openzeppelin/contracts/access/Ownable.sol\":1831:1932  function renounceOwnership() public virtual onlyOwner {... */\n        tag_31:\n            /* \"@openzeppelin/contracts/access/Ownable.sol\":1094:1107  _checkOwner() */\n          tag_78\n            /* \"@openzeppelin/contracts/access/Ownable.sol\":1094:1105  _checkOwner */\n          tag_79\n            /* \"@openzeppelin/contracts/access/Ownable.sol\":1094:1107  _checkOwner() */\n          jump\t// in\n        tag_78:\n            /* \"@openzeppelin/contracts/access/Ownable.sol\":1895:1925  _transferOwnership(address(0)) */\n          tag_81\n            /* \"@openzeppelin/contracts/access/Ownable.sol\":1922:1923  0 */\n          0x00\n            /* \"@openzeppelin/contracts/access/Ownable.sol\":1895:1913  _transferOwnership */\n          tag_74\n            /* \"@openzeppelin/contracts/access/Ownable.sol\":1895:1925  _transferOwnership(address(0)) */\n          jump\t// in\n        tag_81:\n            /* \"@openzeppelin/contracts/access/Ownable.sol\":1831:1932  function renounceOwnership() public virtual onlyOwner {... */\n          jump\t// out\n            /* \"contracts/Produce.sol\":200:221  address public market */\n        tag_34:\n          0x02\n          0x00\n          swap1\n          sload\n          swap1\n          0x0100\n          exp\n          swap1\n          div\n          0xffffffffffffffffffffffffffffffffffffffff\n          and\n          dup2\n          jump\t// out\n            /* \"@openzeppelin/contracts/access/Ownable.sol\":1201:1286  function owner() public view virtual returns (address) {... */\n        tag_39:\n            /* \"@openzeppelin/contracts/access/Ownable.sol\":1247:1254  address */\n          0x00\n            /* \"@openzeppelin/contracts/access/Ownable.sol\":1273:1279  _owner */\n          dup1\n          0x00\n          swap1\n          sload\n          swap1\n          0x0100\n          exp\n          swap1\n          div\n          0xffffffffffffffffffffffffffffffffffffffff\n          and\n            /* \"@openzeppelin/contracts/access/Ownable.sol\":1266:1279  return _owner */\n          swap1\n          pop\n            /* \"@openzeppelin/contracts/access/Ownable.sol\":1201:1286  function owner() public view virtual returns (address) {... */\n          swap1\n          jump\t// out\n            /* \"contracts/Produce.sol\":331:351  uint256 public price */\n        tag_43:\n          sload(0x06)\n          dup2\n          jump\t// out\n            /* \"contracts/Produce.sol\":1571:1806  function takeOrder() external onlyOwner returns (address order) {... */\n        tag_47:\n            /* \"contracts/Produce.sol\":1620:1633  address order */\n          0x00\n            /* \"@openzeppelin/contracts/access/Ownable.sol\":1094:1107  _checkOwner() */\n          tag_84\n            /* \"@openzeppelin/contracts/access/Ownable.sol\":1094:1105  _checkOwner */\n          tag_79\n            /* \"@openzeppelin/contracts/access/Ownable.sol\":1094:1107  _checkOwner() */\n          jump\t// in\n        tag_84:\n            /* \"contracts/Produce.sol\":1669:1670  0 */\n          0x00\n            /* \"contracts/Produce.sol\":1653:1659  orders */\n          0x03\n            /* \"contracts/Produce.sol\":1653:1666  orders.length */\n          dup1\n          sload\n          swap1\n          pop\n            /* \"contracts/Produce.sol\":1653:1670  orders.length > 0 */\n          gt\n            /* \"contracts/Produce.sol\":1645:1692  require(orders.length > 0, \"No orders to take\") */\n          tag_86\n          jumpi\n          mload(0x40)\n          0x08c379a000000000000000000000000000000000000000000000000000000000\n          dup2\n          mstore\n          0x04\n          add\n          tag_87\n          swap1\n          tag_88\n          jump\t// in\n        tag_87:\n          mload(0x40)\n          dup1\n          swap2\n          sub\n          swap1\n          revert\n        tag_86:\n            /* \"contracts/Produce.sol\":1702:1721  address orderToTake */\n          0x00\n            /* \"contracts/Produce.sol\":1724:1730  orders */\n          0x03\n            /* \"contracts/Produce.sol\":1747:1748  1 */\n          0x01\n            /* \"contracts/Produce.sol\":1731:1737  orders */\n          0x03\n            /* \"contracts/Produce.sol\":1731:1744  orders.length */\n          dup1\n          sload\n          swap1\n          pop\n            /* \"contracts/Produce.sol\":1731:1748  orders.length - 1 */\n          tag_89\n          swap2\n          swap1\n          tag_90\n          jump\t// in\n        tag_89:\n            /* \"contracts/Produce.sol\":1724:1749  orders[orders.length - 1] */\n          dup2\n          sload\n          dup2\n          lt\n          tag_91\n          jumpi\n          tag_92\n          tag_93\n          jump\t// in\n        tag_92:\n        tag_91:\n          swap1\n          0x00\n          mstore\n          keccak256(0x00, 0x20)\n          add\n          0x00\n          swap1\n          sload\n          swap1\n          0x0100\n          exp\n          swap1\n          div\n          0xffffffffffffffffffffffffffffffffffffffff\n          and\n            /* \"contracts/Produce.sol\":1702:1749  address orderToTake = orders[orders.length - 1] */\n          swap1\n          pop\n            /* \"contracts/Produce.sol\":1759:1765  orders */\n          0x03\n            /* \"contracts/Produce.sol\":1759:1771  orders.pop() */\n          dup1\n          sload\n          dup1\n          tag_95\n          jumpi\n          tag_96\n          tag_97\n          jump\t// in\n        tag_96:\n        tag_95:\n          0x01\n          swap1\n          sub\n          dup2\n          dup2\n          swap1\n          0x00\n          mstore\n          keccak256(0x00, 0x20)\n          add\n          exp(0x0100, 0x00)\n          dup2\n          sload\n          swap1\n          0xffffffffffffffffffffffffffffffffffffffff\n          mul\n          not\n          and\n          swap1\n          sstore\n          swap1\n          sstore\n            /* \"contracts/Produce.sol\":1788:1799  orderToTake */\n          dup1\n            /* \"contracts/Produce.sol\":1781:1799  return orderToTake */\n          swap2\n          pop\n          pop\n            /* \"contracts/Produce.sol\":1571:1806  function takeOrder() external onlyOwner returns (address order) {... */\n          swap1\n          jump\t// out\n            /* \"contracts/Produce.sol\":173:194  address public farmer */\n        tag_51:\n          0x01\n          0x00\n          swap1\n          sload\n          swap1\n          0x0100\n          exp\n          swap1\n          div\n          0xffffffffffffffffffffffffffffffffffffffff\n          and\n          dup2\n          jump\t// out\n            /* \"@openzeppelin/contracts/access/Ownable.sol\":2081:2279  function transferOwnership(address newOwner) public virtual onlyOwner {... */\n        tag_57:\n            /* \"@openzeppelin/contracts/access/Ownable.sol\":1094:1107  _checkOwner() */\n          tag_100\n            /* \"@openzeppelin/contracts/access/Ownable.sol\":1094:1105  _checkOwner */\n          tag_79\n            /* \"@openzeppelin/contracts/access/Ownable.sol\":1094:1107  _checkOwner() */\n          jump\t// in\n        tag_100:\n            /* \"@openzeppelin/contracts/access/Ownable.sol\":2189:2190  0 */\n          0x00\n            /* \"@openzeppelin/contracts/access/Ownable.sol\":2169:2191  newOwner != address(0) */\n          0xffffffffffffffffffffffffffffffffffffffff\n          and\n            /* \"@openzeppelin/contracts/access/Ownable.sol\":2169:2177  newOwner */\n          dup2\n            /* \"@openzeppelin/contracts/access/Ownable.sol\":2169:2191  newOwner != address(0) */\n          0xffffffffffffffffffffffffffffffffffffffff\n          and\n          sub\n            /* \"@openzeppelin/contracts/access/Ownable.sol\":2161:2234  require(newOwner != address(0), \"Ownable: new owner is the zero address\") */\n          tag_102\n          jumpi\n          mload(0x40)\n          0x08c379a000000000000000000000000000000000000000000000000000000000\n          dup2\n          mstore\n          0x04\n          add\n          tag_103\n          swap1\n          tag_104\n          jump\t// in\n        tag_103:\n          mload(0x40)\n          dup1\n          swap2\n          sub\n          swap1\n          revert\n        tag_102:\n            /* \"@openzeppelin/contracts/access/Ownable.sol\":2244:2272  _transferOwnership(newOwner) */\n          tag_105\n            /* \"@openzeppelin/contracts/access/Ownable.sol\":2263:2271  newOwner */\n          dup2\n            /* \"@openzeppelin/contracts/access/Ownable.sol\":2244:2262  _transferOwnership */\n          tag_74\n            /* \"@openzeppelin/contracts/access/Ownable.sol\":2244:2272  _transferOwnership(newOwner) */\n          jump\t// in\n        tag_105:\n            /* \"@openzeppelin/contracts/access/Ownable.sol\":2081:2279  function transferOwnership(address newOwner) public virtual onlyOwner {... */\n          pop\n          jump\t// out\n            /* \"contracts/Produce.sol\":1122:1507  function placeOrder() external payable {... */\n        tag_59:\n            /* \"contracts/Produce.sol\":1206:1213  owner() */\n          tag_107\n            /* \"contracts/Produce.sol\":1206:1211  owner */\n          tag_39\n            /* \"contracts/Produce.sol\":1206:1213  owner() */\n          jump\t// in\n        tag_107:\n            /* \"contracts/Produce.sol\":1192:1213  msg.sender != owner() */\n          0xffffffffffffffffffffffffffffffffffffffff\n          and\n            /* \"contracts/Produce.sol\":1192:1202  msg.sender */\n          caller\n            /* \"contracts/Produce.sol\":1192:1213  msg.sender != owner() */\n          0xffffffffffffffffffffffffffffffffffffffff\n          and\n          sub\n            /* \"contracts/Produce.sol\":1171:1286  require(... */\n          tag_108\n          jumpi\n          mload(0x40)\n          0x08c379a000000000000000000000000000000000000000000000000000000000\n          dup2\n          mstore\n          0x04\n          add\n          tag_109\n          swap1\n          tag_110\n          jump\t// in\n        tag_109:\n          mload(0x40)\n          dup1\n          swap2\n          sub\n          swap1\n          revert\n        tag_108:\n            /* \"contracts/Produce.sol\":1342:1347  price */\n          sload(0x06)\n            /* \"contracts/Produce.sol\":1330:1339  orderSize */\n          sload(0x07)\n            /* \"contracts/Produce.sol\":1330:1347  orderSize * price */\n          tag_111\n          swap2\n          swap1\n          tag_112\n          jump\t// in\n        tag_111:\n            /* \"contracts/Produce.sol\":1317:1326  msg.value */\n          callvalue\n            /* \"contracts/Produce.sol\":1317:1347  msg.value == orderSize * price */\n          eq\n            /* \"contracts/Produce.sol\":1296:1412  require(... */\n          tag_113\n          jumpi\n          mload(0x40)\n          0x08c379a000000000000000000000000000000000000000000000000000000000\n          dup2\n          mstore\n          0x04\n          add\n          tag_114\n          swap1\n          tag_115\n          jump\t// in\n        tag_114:\n          mload(0x40)\n          dup1\n          swap2\n          sub\n          swap1\n          revert\n        tag_113:\n            /* \"contracts/Produce.sol\":1446:1466  limitOnPendingOrders */\n          sload(0x04)\n            /* \"contracts/Produce.sol\":1430:1436  orders */\n          0x03\n            /* \"contracts/Produce.sol\":1430:1443  orders.length */\n          dup1\n          sload\n          swap1\n          pop\n            /* \"contracts/Produce.sol\":1430:1466  orders.length < limitOnPendingOrders */\n          lt\n            /* \"contracts/Produce.sol\":1422:1467  require(orders.length < limitOnPendingOrders) */\n          tag_116\n          jumpi\n          0x00\n          dup1\n          revert\n        tag_116:\n            /* \"contracts/Produce.sol\":1477:1483  orders */\n          0x03\n            /* \"contracts/Produce.sol\":1489:1499  msg.sender */\n          caller\n            /* \"contracts/Produce.sol\":1477:1500  orders.push(msg.sender) */\n          swap1\n          dup1\n          0x01\n          dup2\n          sload\n          add\n          dup1\n          dup3\n          sstore\n          dup1\n          swap2\n          pop\n          pop\n          0x01\n          swap1\n          sub\n          swap1\n          0x00\n          mstore\n          keccak256(0x00, 0x20)\n          add\n          0x00\n          swap1\n          swap2\n          swap1\n          swap2\n          swap1\n          swap2\n          0x0100\n          exp\n          dup2\n          sload\n          dup2\n          0xffffffffffffffffffffffffffffffffffffffff\n          mul\n          not\n          and\n          swap1\n          dup4\n          0xffffffffffffffffffffffffffffffffffffffff\n          and\n          mul\n          or\n          swap1\n          sstore\n          pop\n            /* \"contracts/Produce.sol\":1122:1507  function placeOrder() external payable {... */\n          jump\t// out\n            /* \"contracts/Produce.sol\":299:325  uint256 public produceHash */\n        tag_62:\n          sload(0x05)\n          dup2\n          jump\t// out\n            /* \"@openzeppelin/contracts/access/Ownable.sol\":2433:2620  function _transferOwnership(address newOwner) internal virtual {... */\n        tag_74:\n            /* \"@openzeppelin/contracts/access/Ownable.sol\":2506:2522  address oldOwner */\n          0x00\n            /* \"@openzeppelin/contracts/access/Ownable.sol\":2525:2531  _owner */\n          dup1\n          0x00\n          swap1\n          sload\n          swap1\n          0x0100\n          exp\n          swap1\n          div\n          0xffffffffffffffffffffffffffffffffffffffff\n          and\n            /* \"@openzeppelin/contracts/access/Ownable.sol\":2506:2531  address oldOwner = _owner */\n          swap1\n          pop\n            /* \"@openzeppelin/contracts/access/Ownable.sol\":2550:2558  newOwner */\n          dup2\n            /* \"@openzeppelin/contracts/access/Ownable.sol\":2541:2547  _owner */\n          0x00\n          dup1\n            /* \"@openzeppelin/contracts/access/Ownable.sol\":2541:2558  _owner = newOwner */\n          0x0100\n          exp\n          dup2\n          sload\n          dup2\n          0xffffffffffffffffffffffffffffffffffffffff\n          mul\n          not\n          and\n          swap1\n          dup4\n          0xffffffffffffffffffffffffffffffffffffffff\n          and\n          mul\n          or\n          swap1\n          sstore\n          pop\n            /* \"@openzeppelin/contracts/access/Ownable.sol\":2604:2612  newOwner */\n          dup2\n            /* \"@openzeppelin/contracts/access/Ownable.sol\":2573:2613  OwnershipTransferred(oldOwner, newOwner) */\n          0xffffffffffffffffffffffffffffffffffffffff\n          and\n            /* \"@openzeppelin/contracts/access/Ownable.sol\":2594:2602  oldOwner */\n          dup2\n            /* \"@openzeppelin/contracts/access/Ownable.sol\":2573:2613  OwnershipTransferred(oldOwner, newOwner) */\n          0xffffffffffffffffffffffffffffffffffffffff\n          and\n          0x8be0079c531659141344cd1fd0a4f28419497f9722a3daafe3b4186f6b6457e0\n          mload(0x40)\n          mload(0x40)\n          dup1\n          swap2\n          sub\n          swap1\n          log3\n            /* \"@openzeppelin/contracts/access/Ownable.sol\":2496:2620  {... */\n          pop\n            /* \"@openzeppelin/contracts/access/Ownable.sol\":2433:2620  function _transferOwnership(address newOwner) internal virtual {... */\n          pop\n          jump\t// out\n            /* \"@openzeppelin/contracts/access/Ownable.sol\":1359:1489  function _checkOwner() internal view virtual {... */\n        tag_79:\n            /* \"@openzeppelin/contracts/access/Ownable.sol\":1433:1445  _msgSender() */\n          tag_120\n            /* \"@openzeppelin/contracts/access/Ownable.sol\":1433:1443  _msgSender */\n          tag_121\n            /* \"@openzeppelin/contracts/access/Ownable.sol\":1433:1445  _msgSender() */\n          jump\t// in\n        tag_120:\n            /* \"@openzeppelin/contracts/access/Ownable.sol\":1422:1445  owner() == _msgSender() */\n          0xffffffffffffffffffffffffffffffffffffffff\n          and\n            /* \"@openzeppelin/contracts/access/Ownable.sol\":1422:1429  owner() */\n          tag_122\n            /* \"@openzeppelin/contracts/access/Ownable.sol\":1422:1427  owner */\n          tag_39\n            /* \"@openzeppelin/contracts/access/Ownable.sol\":1422:1429  owner() */\n          jump\t// in\n        tag_122:\n            /* \"@openzeppelin/contracts/access/Ownable.sol\":1422:1445  owner() == _msgSender() */\n          0xffffffffffffffffffffffffffffffffffffffff\n          and\n          eq\n            /* \"@openzeppelin/contracts/access/Ownable.sol\":1414:1482  require(owner() == _msgSender(), \"Ownable: caller is not the owner\") */\n          tag_123\n          jumpi\n          mload(0x40)\n          0x08c379a000000000000000000000000000000000000000000000000000000000\n          dup2\n          mstore\n          0x04\n          add\n          tag_124\n          swap1\n          tag_125\n          jump\t// in\n        tag_124:\n          mload(0x40)\n          dup1\n          swap2\n          sub\n          swap1\n          revert\n        tag_123:\n            /* \"@openzeppelin/contracts/access/Ownable.sol\":1359:1489  function _checkOwner() internal view virtual {... */\n          jump\t// out\n            /* \"@openzeppelin/contracts/utils/Context.sol\":640:736  function _msgSender() internal view virtual returns (address) {... */\n        tag_121:\n            /* \"@openzeppelin/contracts/utils/Context.sol\":693:700  address */\n          0x00\n            /* \"@openzeppelin/contracts/utils/Context.sol\":719:729  msg.sender */\n          caller\n            /* \"@openzeppelin/contracts/utils/Context.sol\":712:729  return msg.sender */\n          swap1\n          pop\n            /* \"@openzeppelin/contracts/utils/Context.sol\":640:736  function _msgSender() internal view virtual returns (address) {... */\n          swap1\n          jump\t// out\n            /* \"#utility.yul\":7:84   */\n        tag_127:\n            /* \"#utility.yul\":44:51   */\n          0x00\n            /* \"#utility.yul\":73:78   */\n          dup2\n            /* \"#utility.yul\":62:78   */\n          swap1\n          pop\n            /* \"#utility.yul\":7:84   */\n          swap2\n          swap1\n          pop\n          jump\t// out\n            /* \"#utility.yul\":90:208   */\n        tag_128:\n            /* \"#utility.yul\":177:201   */\n          tag_156\n            /* \"#utility.yul\":195:200   */\n          dup2\n            /* \"#utility.yul\":177:201   */\n          tag_127\n          jump\t// in\n        tag_156:\n            /* \"#utility.yul\":172:175   */\n          dup3\n            /* \"#utility.yul\":165:202   */\n          mstore\n            /* \"#utility.yul\":90:208   */\n          pop\n          pop\n          jump\t// out\n            /* \"#utility.yul\":214:436   */\n        tag_19:\n            /* \"#utility.yul\":307:311   */\n          0x00\n            /* \"#utility.yul\":345:347   */\n          0x20\n            /* \"#utility.yul\":334:343   */\n          dup3\n            /* \"#utility.yul\":330:348   */\n          add\n            /* \"#utility.yul\":322:348   */\n          swap1\n          pop\n            /* \"#utility.yul\":358:429   */\n          tag_158\n            /* \"#utility.yul\":426:427   */\n          0x00\n            /* \"#utility.yul\":415:424   */\n          dup4\n            /* \"#utility.yul\":411:428   */\n          add\n            /* \"#utility.yul\":402:408   */\n          dup5\n            /* \"#utility.yul\":358:429   */\n          tag_128\n          jump\t// in\n        tag_158:\n            /* \"#utility.yul\":214:436   */\n          swap3\n          swap2\n          pop\n          pop\n          jump\t// out\n            /* \"#utility.yul\":523:640   */\n        tag_130:\n            /* \"#utility.yul\":632:633   */\n          0x00\n            /* \"#utility.yul\":629:630   */\n          dup1\n            /* \"#utility.yul\":622:634   */\n          revert\n            /* \"#utility.yul\":769:895   */\n        tag_132:\n            /* \"#utility.yul\":806:813   */\n          0x00\n            /* \"#utility.yul\":846:888   */\n          0xffffffffffffffffffffffffffffffffffffffff\n            /* \"#utility.yul\":839:844   */\n          dup3\n            /* \"#utility.yul\":835:889   */\n          and\n            /* \"#utility.yul\":824:889   */\n          swap1\n          pop\n            /* \"#utility.yul\":769:895   */\n          swap2\n          swap1\n          pop\n          jump\t// out\n            /* \"#utility.yul\":901:997   */\n        tag_133:\n            /* \"#utility.yul\":938:945   */\n          0x00\n            /* \"#utility.yul\":967:991   */\n          tag_164\n            /* \"#utility.yul\":985:990   */\n          dup3\n            /* \"#utility.yul\":967:991   */\n          tag_132\n          jump\t// in\n        tag_164:\n            /* \"#utility.yul\":956:991   */\n          swap1\n          pop\n            /* \"#utility.yul\":901:997   */\n          swap2\n          swap1\n          pop\n          jump\t// out\n            /* \"#utility.yul\":1003:1125   */\n        tag_134:\n            /* \"#utility.yul\":1076:1100   */\n          tag_166\n            /* \"#utility.yul\":1094:1099   */\n          dup2\n            /* \"#utility.yul\":1076:1100   */\n          tag_133\n          jump\t// in\n        tag_166:\n            /* \"#utility.yul\":1069:1074   */\n          dup2\n            /* \"#utility.yul\":1066:1101   */\n          eq\n            /* \"#utility.yul\":1056:1119   */\n          tag_167\n          jumpi\n            /* \"#utility.yul\":1115:1116   */\n          0x00\n            /* \"#utility.yul\":1112:1113   */\n          dup1\n            /* \"#utility.yul\":1105:1117   */\n          revert\n            /* \"#utility.yul\":1056:1119   */\n        tag_167:\n            /* \"#utility.yul\":1003:1125   */\n          pop\n          jump\t// out\n            /* \"#utility.yul\":1131:1270   */\n        tag_135:\n            /* \"#utility.yul\":1177:1182   */\n          0x00\n            /* \"#utility.yul\":1215:1221   */\n          dup2\n            /* \"#utility.yul\":1202:1222   */\n          calldataload\n            /* \"#utility.yul\":1193:1222   */\n          swap1\n          pop\n            /* \"#utility.yul\":1231:1264   */\n          tag_169\n            /* \"#utility.yul\":1258:1263   */\n          dup2\n            /* \"#utility.yul\":1231:1264   */\n          tag_134\n          jump\t// in\n        tag_169:\n            /* \"#utility.yul\":1131:1270   */\n          swap3\n          swap2\n          pop\n          pop\n          jump\t// out\n            /* \"#utility.yul\":1276:1398   */\n        tag_136:\n            /* \"#utility.yul\":1349:1373   */\n          tag_171\n            /* \"#utility.yul\":1367:1372   */\n          dup2\n            /* \"#utility.yul\":1349:1373   */\n          tag_127\n          jump\t// in\n        tag_171:\n            /* \"#utility.yul\":1342:1347   */\n          dup2\n            /* \"#utility.yul\":1339:1374   */\n          eq\n            /* \"#utility.yul\":1329:1392   */\n          tag_172\n          jumpi\n            /* \"#utility.yul\":1388:1389   */\n          0x00\n            /* \"#utility.yul\":1385:1386   */\n          dup1\n            /* \"#utility.yul\":1378:1390   */\n          revert\n            /* \"#utility.yul\":1329:1392   */\n        tag_172:\n            /* \"#utility.yul\":1276:1398   */\n          pop\n          jump\t// out\n            /* \"#utility.yul\":1404:1543   */\n        tag_137:\n            /* \"#utility.yul\":1450:1455   */\n          0x00\n            /* \"#utility.yul\":1488:1494   */\n          dup2\n            /* \"#utility.yul\":1475:1495   */\n          calldataload\n            /* \"#utility.yul\":1466:1495   */\n          swap1\n          pop\n            /* \"#utility.yul\":1504:1537   */\n          tag_174\n            /* \"#utility.yul\":1531:1536   */\n          dup2\n            /* \"#utility.yul\":1504:1537   */\n          tag_136\n          jump\t// in\n        tag_174:\n            /* \"#utility.yul\":1404:1543   */\n          swap3\n          swap2\n          pop\n          pop\n          jump\t// out\n            /* \"#utility.yul\":1549:2460   */\n        tag_23:\n            /* \"#utility.yul\":1644:1650   */\n          0x00\n            /* \"#utility.yul\":1652:1658   */\n          dup1\n            /* \"#utility.yul\":1660:1666   */\n          0x00\n            /* \"#utility.yul\":1668:1674   */\n          dup1\n            /* \"#utility.yul\":1676:1682   */\n          0x00\n            /* \"#utility.yul\":1725:1728   */\n          0xa0\n            /* \"#utility.yul\":1713:1722   */\n          dup7\n            /* \"#utility.yul\":1704:1711   */\n          dup9\n            /* \"#utility.yul\":1700:1723   */\n          sub\n            /* \"#utility.yul\":1696:1729   */\n          slt\n            /* \"#utility.yul\":1693:1813   */\n          iszero\n          tag_176\n          jumpi\n            /* \"#utility.yul\":1732:1811   */\n          tag_177\n          tag_130\n          jump\t// in\n        tag_177:\n            /* \"#utility.yul\":1693:1813   */\n        tag_176:\n            /* \"#utility.yul\":1852:1853   */\n          0x00\n            /* \"#utility.yul\":1877:1930   */\n          tag_178\n            /* \"#utility.yul\":1922:1929   */\n          dup9\n            /* \"#utility.yul\":1913:1919   */\n          dup3\n            /* \"#utility.yul\":1902:1911   */\n          dup10\n            /* \"#utility.yul\":1898:1920   */\n          add\n            /* \"#utility.yul\":1877:1930   */\n          tag_135\n          jump\t// in\n        tag_178:\n            /* \"#utility.yul\":1867:1930   */\n          swap6\n          pop\n            /* \"#utility.yul\":1823:1940   */\n          pop\n            /* \"#utility.yul\":1979:1981   */\n          0x20\n            /* \"#utility.yul\":2005:2058   */\n          tag_179\n            /* \"#utility.yul\":2050:2057   */\n          dup9\n            /* \"#utility.yul\":2041:2047   */\n          dup3\n            /* \"#utility.yul\":2030:2039   */\n          dup10\n            /* \"#utility.yul\":2026:2048   */\n          add\n            /* \"#utility.yul\":2005:2058   */\n          tag_137\n          jump\t// in\n        tag_179:\n            /* \"#utility.yul\":1995:2058   */\n          swap5\n          pop\n            /* \"#utility.yul\":1950:2068   */\n          pop\n            /* \"#utility.yul\":2107:2109   */\n          0x40\n            /* \"#utility.yul\":2133:2186   */\n          tag_180\n            /* \"#utility.yul\":2178:2185   */\n          dup9\n            /* \"#utility.yul\":2169:2175   */\n          dup3\n            /* \"#utility.yul\":2158:2167   */\n          dup10\n            /* \"#utility.yul\":2154:2176   */\n          add\n            /* \"#utility.yul\":2133:2186   */\n          tag_137\n          jump\t// in\n        tag_180:\n            /* \"#utility.yul\":2123:2186   */\n          swap4\n          pop\n            /* \"#utility.yul\":2078:2196   */\n          pop\n            /* \"#utility.yul\":2235:2237   */\n          0x60\n            /* \"#utility.yul\":2261:2314   */\n          tag_181\n            /* \"#utility.yul\":2306:2313   */\n          dup9\n            /* \"#utility.yul\":2297:2303   */\n          dup3\n            /* \"#utility.yul\":2286:2295   */\n          dup10\n            /* \"#utility.yul\":2282:2304   */\n          add\n            /* \"#utility.yul\":2261:2314   */\n          tag_137\n          jump\t// in\n        tag_181:\n            /* \"#utility.yul\":2251:2314   */\n          swap3\n          pop\n            /* \"#utility.yul\":2206:2324   */\n          pop\n            /* \"#utility.yul\":2363:2366   */\n          0x80\n            /* \"#utility.yul\":2390:2443   */\n          tag_182\n            /* \"#utility.yul\":2435:2442   */\n          dup9\n            /* \"#utility.yul\":2426:2432   */\n          dup3\n            /* \"#utility.yul\":2415:2424   */\n          dup10\n            /* \"#utility.yul\":2411:2433   */\n          add\n            /* \"#utility.yul\":2390:2443   */\n          tag_137\n          jump\t// in\n        tag_182:\n            /* \"#utility.yul\":2380:2443   */\n          swap2\n          pop\n            /* \"#utility.yul\":2334:2453   */\n          pop\n            /* \"#utility.yul\":1549:2460   */\n          swap3\n          swap6\n          pop\n          swap3\n          swap6\n          swap1\n          swap4\n          pop\n          jump\t// out\n            /* \"#utility.yul\":2466:2584   */\n        tag_138:\n            /* \"#utility.yul\":2553:2577   */\n          tag_184\n            /* \"#utility.yul\":2571:2576   */\n          dup2\n            /* \"#utility.yul\":2553:2577   */\n          tag_133\n          jump\t// in\n        tag_184:\n            /* \"#utility.yul\":2548:2551   */\n          dup3\n            /* \"#utility.yul\":2541:2578   */\n          mstore\n            /* \"#utility.yul\":2466:2584   */\n          pop\n          pop\n          jump\t// out\n            /* \"#utility.yul\":2590:2812   */\n        tag_36:\n            /* \"#utility.yul\":2683:2687   */\n          0x00\n            /* \"#utility.yul\":2721:2723   */\n          0x20\n            /* \"#utility.yul\":2710:2719   */\n          dup3\n            /* \"#utility.yul\":2706:2724   */\n          add\n            /* \"#utility.yul\":2698:2724   */\n          swap1\n          pop\n            /* \"#utility.yul\":2734:2805   */\n          tag_186\n            /* \"#utility.yul\":2802:2803   */\n          0x00\n            /* \"#utility.yul\":2791:2800   */\n          dup4\n            /* \"#utility.yul\":2787:2804   */\n          add\n            /* \"#utility.yul\":2778:2784   */\n          dup5\n            /* \"#utility.yul\":2734:2805   */\n          tag_138\n          jump\t// in\n        tag_186:\n            /* \"#utility.yul\":2590:2812   */\n          swap3\n          swap2\n          pop\n          pop\n          jump\t// out\n            /* \"#utility.yul\":2818:3147   */\n        tag_56:\n            /* \"#utility.yul\":2877:2883   */\n          0x00\n            /* \"#utility.yul\":2926:2928   */\n          0x20\n            /* \"#utility.yul\":2914:2923   */\n          dup3\n            /* \"#utility.yul\":2905:2912   */\n          dup5\n            /* \"#utility.yul\":2901:2924   */\n          sub\n            /* \"#utility.yul\":2897:2929   */\n          slt\n            /* \"#utility.yul\":2894:3013   */\n          iszero\n          tag_188\n          jumpi\n            /* \"#utility.yul\":2932:3011   */\n          tag_189\n          tag_130\n          jump\t// in\n        tag_189:\n            /* \"#utility.yul\":2894:3013   */\n        tag_188:\n            /* \"#utility.yul\":3052:3053   */\n          0x00\n            /* \"#utility.yul\":3077:3130   */\n          tag_190\n            /* \"#utility.yul\":3122:3129   */\n          dup5\n            /* \"#utility.yul\":3113:3119   */\n          dup3\n            /* \"#utility.yul\":3102:3111   */\n          dup6\n            /* \"#utility.yul\":3098:3120   */\n          add\n            /* \"#utility.yul\":3077:3130   */\n          tag_135\n          jump\t// in\n        tag_190:\n            /* \"#utility.yul\":3067:3130   */\n          swap2\n          pop\n            /* \"#utility.yul\":3023:3140   */\n          pop\n            /* \"#utility.yul\":2818:3147   */\n          swap3\n          swap2\n          pop\n          pop\n          jump\t// out\n            /* \"#utility.yul\":3153:3333   */\n        tag_67:\n            /* \"#utility.yul\":3201:3278   */\n          0x4e487b7100000000000000000000000000000000000000000000000000000000\n            /* \"#utility.yul\":3198:3199   */\n          0x00\n            /* \"#utility.yul\":3191:3279   */\n          mstore\n            /* \"#utility.yul\":3298:3302   */\n          0x21\n            /* \"#utility.yul\":3295:3296   */\n          0x04\n            /* \"#utility.yul\":3288:3303   */\n          mstore\n            /* \"#utility.yul\":3322:3326   */\n          0x24\n            /* \"#utility.yul\":3319:3320   */\n          0x00\n            /* \"#utility.yul\":3312:3327   */\n          revert\n            /* \"#utility.yul\":3339:3508   */\n        tag_139:\n            /* \"#utility.yul\":3423:3434   */\n          0x00\n            /* \"#utility.yul\":3457:3463   */\n          dup3\n            /* \"#utility.yul\":3452:3455   */\n          dup3\n            /* \"#utility.yul\":3445:3464   */\n          mstore\n            /* \"#utility.yul\":3497:3501   */\n          0x20\n            /* \"#utility.yul\":3492:3495   */\n          dup3\n            /* \"#utility.yul\":3488:3502   */\n          add\n            /* \"#utility.yul\":3473:3502   */\n          swap1\n          pop\n            /* \"#utility.yul\":3339:3508   */\n          swap3\n          swap2\n          pop\n          pop\n          jump\t// out\n            /* \"#utility.yul\":3514:3741   */\n        tag_140:\n            /* \"#utility.yul\":3654:3688   */\n          0x546869732070726f647563652068617320616c7265616479206265656e20696e\n            /* \"#utility.yul\":3650:3651   */\n          0x00\n            /* \"#utility.yul\":3642:3648   */\n          dup3\n            /* \"#utility.yul\":3638:3652   */\n          add\n            /* \"#utility.yul\":3631:3689   */\n          mstore\n            /* \"#utility.yul\":3723:3733   */\n          0x6974696c697a6564000000000000000000000000000000000000000000000000\n            /* \"#utility.yul\":3718:3720   */\n          0x20\n            /* \"#utility.yul\":3710:3716   */\n          dup3\n            /* \"#utility.yul\":3706:3721   */\n          add\n            /* \"#utility.yul\":3699:3734   */\n          mstore\n            /* \"#utility.yul\":3514:3741   */\n          pop\n          jump\t// out\n            /* \"#utility.yul\":3747:4113   */\n        tag_141:\n            /* \"#utility.yul\":3889:3892   */\n          0x00\n            /* \"#utility.yul\":3910:3977   */\n          tag_195\n            /* \"#utility.yul\":3974:3976   */\n          0x28\n            /* \"#utility.yul\":3969:3972   */\n          dup4\n            /* \"#utility.yul\":3910:3977   */\n          tag_139\n          jump\t// in\n        tag_195:\n            /* \"#utility.yul\":3903:3977   */\n          swap2\n          pop\n            /* \"#utility.yul\":3986:4079   */\n          tag_196\n            /* \"#utility.yul\":4075:4078   */\n          dup3\n            /* \"#utility.yul\":3986:4079   */\n          tag_140\n          jump\t// in\n        tag_196:\n            /* \"#utility.yul\":4104:4106   */\n          0x40\n            /* \"#utility.yul\":4099:4102   */\n          dup3\n            /* \"#utility.yul\":4095:4107   */\n          add\n            /* \"#utility.yul\":4088:4107   */\n          swap1\n          pop\n            /* \"#utility.yul\":3747:4113   */\n          swap2\n          swap1\n          pop\n          jump\t// out\n            /* \"#utility.yul\":4119:4538   */\n        tag_72:\n            /* \"#utility.yul\":4285:4289   */\n          0x00\n            /* \"#utility.yul\":4323:4325   */\n          0x20\n            /* \"#utility.yul\":4312:4321   */\n          dup3\n            /* \"#utility.yul\":4308:4326   */\n          add\n            /* \"#utility.yul\":4300:4326   */\n          swap1\n          pop\n            /* \"#utility.yul\":4372:4381   */\n          dup2\n            /* \"#utility.yul\":4366:4370   */\n          dup2\n            /* \"#utility.yul\":4362:4382   */\n          sub\n            /* \"#utility.yul\":4358:4359   */\n          0x00\n            /* \"#utility.yul\":4347:4356   */\n          dup4\n            /* \"#utility.yul\":4343:4360   */\n          add\n            /* \"#utility.yul\":4336:4383   */\n          mstore\n            /* \"#utility.yul\":4400:4531   */\n          tag_198\n            /* \"#utility.yul\":4526:4530   */\n          dup2\n            /* \"#utility.yul\":4400:4531   */\n          tag_141\n          jump\t// in\n        tag_198:\n            /* \"#utility.yul\":4392:4531   */\n          swap1\n          pop\n            /* \"#utility.yul\":4119:4538   */\n          swap2\n          swap1\n          pop\n          jump\t// out\n            /* \"#utility.yul\":4544:4711   */\n        tag_142:\n            /* \"#utility.yul\":4684:4703   */\n          0x4e6f206f726465727320746f2074616b65000000000000000000000000000000\n            /* \"#utility.yul\":4680:4681   */\n          0x00\n            /* \"#utility.yul\":4672:4678   */\n          dup3\n            /* \"#utility.yul\":4668:4682   */\n          add\n            /* \"#utility.yul\":4661:4704   */\n          mstore\n            /* \"#utility.yul\":4544:4711   */\n          pop\n          jump\t// out\n            /* \"#utility.yul\":4717:5083   */\n        tag_143:\n            /* \"#utility.yul\":4859:4862   */\n          0x00\n            /* \"#utility.yul\":4880:4947   */\n          tag_201\n            /* \"#utility.yul\":4944:4946   */\n          0x11\n            /* \"#utility.yul\":4939:4942   */\n          dup4\n            /* \"#utility.yul\":4880:4947   */\n          tag_139\n          jump\t// in\n        tag_201:\n            /* \"#utility.yul\":4873:4947   */\n          swap2\n          pop\n            /* \"#utility.yul\":4956:5049   */\n          tag_202\n            /* \"#utility.yul\":5045:5048   */\n          dup3\n            /* \"#utility.yul\":4956:5049   */\n          tag_142\n          jump\t// in\n        tag_202:\n            /* \"#utility.yul\":5074:5076   */\n          0x20\n            /* \"#utility.yul\":5069:5072   */\n          dup3\n            /* \"#utility.yul\":5065:5077   */\n          add\n            /* \"#utility.yul\":5058:5077   */\n          swap1\n          pop\n            /* \"#utility.yul\":4717:5083   */\n          swap2\n          swap1\n          pop\n          jump\t// out\n            /* \"#utility.yul\":5089:5508   */\n        tag_88:\n            /* \"#utility.yul\":5255:5259   */\n          0x00\n            /* \"#utility.yul\":5293:5295   */\n          0x20\n            /* \"#utility.yul\":5282:5291   */\n          dup3\n            /* \"#utility.yul\":5278:5296   */\n          add\n            /* \"#utility.yul\":5270:5296   */\n          swap1\n          pop\n            /* \"#utility.yul\":5342:5351   */\n          dup2\n            /* \"#utility.yul\":5336:5340   */\n          dup2\n            /* \"#utility.yul\":5332:5352   */\n          sub\n            /* \"#utility.yul\":5328:5329   */\n          0x00\n            /* \"#utility.yul\":5317:5326   */\n          dup4\n            /* \"#utility.yul\":5313:5330   */\n          add\n            /* \"#utility.yul\":5306:5353   */\n          mstore\n            /* \"#utility.yul\":5370:5501   */\n          tag_204\n            /* \"#utility.yul\":5496:5500   */\n          dup2\n            /* \"#utility.yul\":5370:5501   */\n          tag_143\n          jump\t// in\n        tag_204:\n            /* \"#utility.yul\":5362:5501   */\n          swap1\n          pop\n            /* \"#utility.yul\":5089:5508   */\n          swap2\n          swap1\n          pop\n          jump\t// out\n            /* \"#utility.yul\":5514:5694   */\n        tag_144:\n            /* \"#utility.yul\":5562:5639   */\n          0x4e487b7100000000000000000000000000000000000000000000000000000000\n            /* \"#utility.yul\":5559:5560   */\n          0x00\n            /* \"#utility.yul\":5552:5640   */\n          mstore\n            /* \"#utility.yul\":5659:5663   */\n          0x11\n            /* \"#utility.yul\":5656:5657   */\n          0x04\n            /* \"#utility.yul\":5649:5664   */\n          mstore\n            /* \"#utility.yul\":5683:5687   */\n          0x24\n            /* \"#utility.yul\":5680:5681   */\n          0x00\n            /* \"#utility.yul\":5673:5688   */\n          revert\n            /* \"#utility.yul\":5700:5894   */\n        tag_90:\n            /* \"#utility.yul\":5740:5744   */\n          0x00\n            /* \"#utility.yul\":5760:5780   */\n          tag_207\n            /* \"#utility.yul\":5778:5779   */\n          dup3\n            /* \"#utility.yul\":5760:5780   */\n          tag_127\n          jump\t// in\n        tag_207:\n            /* \"#utility.yul\":5755:5780   */\n          swap2\n          pop\n            /* \"#utility.yul\":5794:5814   */\n          tag_208\n            /* \"#utility.yul\":5812:5813   */\n          dup4\n            /* \"#utility.yul\":5794:5814   */\n          tag_127\n          jump\t// in\n        tag_208:\n            /* \"#utility.yul\":5789:5814   */\n          swap3\n          pop\n            /* \"#utility.yul\":5838:5839   */\n          dup3\n            /* \"#utility.yul\":5835:5836   */\n          dup3\n            /* \"#utility.yul\":5831:5840   */\n          sub\n            /* \"#utility.yul\":5823:5840   */\n          swap1\n          pop\n            /* \"#utility.yul\":5862:5863   */\n          dup2\n            /* \"#utility.yul\":5856:5860   */\n          dup2\n            /* \"#utility.yul\":5853:5864   */\n          gt\n            /* \"#utility.yul\":5850:5887   */\n          iszero\n          tag_209\n          jumpi\n            /* \"#utility.yul\":5867:5885   */\n          tag_210\n          tag_144\n          jump\t// in\n        tag_210:\n            /* \"#utility.yul\":5850:5887   */\n        tag_209:\n            /* \"#utility.yul\":5700:5894   */\n          swap3\n          swap2\n          pop\n          pop\n          jump\t// out\n            /* \"#utility.yul\":5900:6080   */\n        tag_93:\n            /* \"#utility.yul\":5948:6025   */\n          0x4e487b7100000000000000000000000000000000000000000000000000000000\n            /* \"#utility.yul\":5945:5946   */\n          0x00\n            /* \"#utility.yul\":5938:6026   */\n          mstore\n            /* \"#utility.yul\":6045:6049   */\n          0x32\n            /* \"#utility.yul\":6042:6043   */\n          0x04\n            /* \"#utility.yul\":6035:6050   */\n          mstore\n            /* \"#utility.yul\":6069:6073   */\n          0x24\n            /* \"#utility.yul\":6066:6067   */\n          0x00\n            /* \"#utility.yul\":6059:6074   */\n          revert\n            /* \"#utility.yul\":6086:6266   */\n        tag_97:\n            /* \"#utility.yul\":6134:6211   */\n          0x4e487b7100000000000000000000000000000000000000000000000000000000\n            /* \"#utility.yul\":6131:6132   */\n          0x00\n            /* \"#utility.yul\":6124:6212   */\n          mstore\n            /* \"#utility.yul\":6231:6235   */\n          0x31\n            /* \"#utility.yul\":6228:6229   */\n          0x04\n            /* \"#utility.yul\":6221:6236   */\n          mstore\n            /* \"#utility.yul\":6255:6259   */\n          0x24\n            /* \"#utility.yul\":6252:6253   */\n          0x00\n            /* \"#utility.yul\":6245:6260   */\n          revert\n            /* \"#utility.yul\":6272:6497   */\n        tag_145:\n            /* \"#utility.yul\":6412:6446   */\n          0x4f776e61626c653a206e6577206f776e657220697320746865207a65726f2061\n            /* \"#utility.yul\":6408:6409   */\n          0x00\n            /* \"#utility.yul\":6400:6406   */\n          dup3\n            /* \"#utility.yul\":6396:6410   */\n          add\n            /* \"#utility.yul\":6389:6447   */\n          mstore\n            /* \"#utility.yul\":6481:6489   */\n          0x6464726573730000000000000000000000000000000000000000000000000000\n            /* \"#utility.yul\":6476:6478   */\n          0x20\n            /* \"#utility.yul\":6468:6474   */\n          dup3\n            /* \"#utility.yul\":6464:6479   */\n          add\n            /* \"#utility.yul\":6457:6490   */\n          mstore\n            /* \"#utility.yul\":6272:6497   */\n          pop\n          jump\t// out\n            /* \"#utility.yul\":6503:6869   */\n        tag_146:\n            /* \"#utility.yul\":6645:6648   */\n          0x00\n            /* \"#utility.yul\":6666:6733   */\n          tag_215\n            /* \"#utility.yul\":6730:6732   */\n          0x26\n            /* \"#utility.yul\":6725:6728   */\n          dup4\n            /* \"#utility.yul\":6666:6733   */\n          tag_139\n          jump\t// in\n        tag_215:\n            /* \"#utility.yul\":6659:6733   */\n          swap2\n          pop\n            /* \"#utility.yul\":6742:6835   */\n          tag_216\n            /* \"#utility.yul\":6831:6834   */\n          dup3\n            /* \"#utility.yul\":6742:6835   */\n          tag_145\n          jump\t// in\n        tag_216:\n            /* \"#utility.yul\":6860:6862   */\n          0x40\n            /* \"#utility.yul\":6855:6858   */\n          dup3\n            /* \"#utility.yul\":6851:6863   */\n          add\n            /* \"#utility.yul\":6844:6863   */\n          swap1\n          pop\n            /* \"#utility.yul\":6503:6869   */\n          swap2\n          swap1\n          pop\n          jump\t// out\n            /* \"#utility.yul\":6875:7294   */\n        tag_104:\n            /* \"#utility.yul\":7041:7045   */\n          0x00\n            /* \"#utility.yul\":7079:7081   */\n          0x20\n            /* \"#utility.yul\":7068:7077   */\n          dup3\n            /* \"#utility.yul\":7064:7082   */\n          add\n            /* \"#utility.yul\":7056:7082   */\n          swap1\n          pop\n            /* \"#utility.yul\":7128:7137   */\n          dup2\n            /* \"#utility.yul\":7122:7126   */\n          dup2\n            /* \"#utility.yul\":7118:7138   */\n          sub\n            /* \"#utility.yul\":7114:7115   */\n          0x00\n            /* \"#utility.yul\":7103:7112   */\n          dup4\n            /* \"#utility.yul\":7099:7116   */\n          add\n            /* \"#utility.yul\":7092:7139   */\n          mstore\n            /* \"#utility.yul\":7156:7287   */\n          tag_218\n            /* \"#utility.yul\":7282:7286   */\n          dup2\n            /* \"#utility.yul\":7156:7287   */\n          tag_146\n          jump\t// in\n        tag_218:\n            /* \"#utility.yul\":7148:7287   */\n          swap1\n          pop\n            /* \"#utility.yul\":6875:7294   */\n          swap2\n          swap1\n          pop\n          jump\t// out\n            /* \"#utility.yul\":7300:7534   */\n        tag_147:\n            /* \"#utility.yul\":7440:7474   */\n          0x6661726d65722063616e6e6f7420706c616365206f7264657220666f72207468\n            /* \"#utility.yul\":7436:7437   */\n          0x00\n            /* \"#utility.yul\":7428:7434   */\n          dup3\n            /* \"#utility.yul\":7424:7438   */\n          add\n            /* \"#utility.yul\":7417:7475   */\n          mstore\n            /* \"#utility.yul\":7509:7526   */\n          0x656972206f776e2070726f647563650000000000000000000000000000000000\n            /* \"#utility.yul\":7504:7506   */\n          0x20\n            /* \"#utility.yul\":7496:7502   */\n          dup3\n            /* \"#utility.yul\":7492:7507   */\n          add\n            /* \"#utility.yul\":7485:7527   */\n          mstore\n            /* \"#utility.yul\":7300:7534   */\n          pop\n          jump\t// out\n            /* \"#utility.yul\":7540:7906   */\n        tag_148:\n            /* \"#utility.yul\":7682:7685   */\n          0x00\n            /* \"#utility.yul\":7703:7770   */\n          tag_221\n            /* \"#utility.yul\":7767:7769   */\n          0x2f\n            /* \"#utility.yul\":7762:7765   */\n          dup4\n            /* \"#utility.yul\":7703:7770   */\n          tag_139\n          jump\t// in\n        tag_221:\n            /* \"#utility.yul\":7696:7770   */\n          swap2\n          pop\n            /* \"#utility.yul\":7779:7872   */\n          tag_222\n            /* \"#utility.yul\":7868:7871   */\n          dup3\n            /* \"#utility.yul\":7779:7872   */\n          tag_147\n          jump\t// in\n        tag_222:\n            /* \"#utility.yul\":7897:7899   */\n          0x40\n            /* \"#utility.yul\":7892:7895   */\n          dup3\n            /* \"#utility.yul\":7888:7900   */\n          add\n            /* \"#utility.yul\":7881:7900   */\n          swap1\n          pop\n            /* \"#utility.yul\":7540:7906   */\n          swap2\n          swap1\n          pop\n          jump\t// out\n            /* \"#utility.yul\":7912:8331   */\n        tag_110:\n            /* \"#utility.yul\":8078:8082   */\n          0x00\n            /* \"#utility.yul\":8116:8118   */\n          0x20\n            /* \"#utility.yul\":8105:8114   */\n          dup3\n            /* \"#utility.yul\":8101:8119   */\n          add\n            /* \"#utility.yul\":8093:8119   */\n          swap1\n          pop\n            /* \"#utility.yul\":8165:8174   */\n          dup2\n            /* \"#utility.yul\":8159:8163   */\n          dup2\n            /* \"#utility.yul\":8155:8175   */\n          sub\n            /* \"#utility.yul\":8151:8152   */\n          0x00\n            /* \"#utility.yul\":8140:8149   */\n          dup4\n            /* \"#utility.yul\":8136:8153   */\n          add\n            /* \"#utility.yul\":8129:8176   */\n          mstore\n            /* \"#utility.yul\":8193:8324   */\n          tag_224\n            /* \"#utility.yul\":8319:8323   */\n          dup2\n            /* \"#utility.yul\":8193:8324   */\n          tag_148\n          jump\t// in\n        tag_224:\n            /* \"#utility.yul\":8185:8324   */\n          swap1\n          pop\n            /* \"#utility.yul\":7912:8331   */\n          swap2\n          swap1\n          pop\n          jump\t// out\n            /* \"#utility.yul\":8337:8747   */\n        tag_112:\n            /* \"#utility.yul\":8377:8384   */\n          0x00\n            /* \"#utility.yul\":8400:8420   */\n          tag_226\n            /* \"#utility.yul\":8418:8419   */\n          dup3\n            /* \"#utility.yul\":8400:8420   */\n          tag_127\n          jump\t// in\n        tag_226:\n            /* \"#utility.yul\":8395:8420   */\n          swap2\n          pop\n            /* \"#utility.yul\":8434:8454   */\n          tag_227\n            /* \"#utility.yul\":8452:8453   */\n          dup4\n            /* \"#utility.yul\":8434:8454   */\n          tag_127\n          jump\t// in\n        tag_227:\n            /* \"#utility.yul\":8429:8454   */\n          swap3\n          pop\n            /* \"#utility.yul\":8489:8490   */\n          dup3\n            /* \"#utility.yul\":8486:8487   */\n          dup3\n            /* \"#utility.yul\":8482:8491   */\n          mul\n            /* \"#utility.yul\":8511:8541   */\n          tag_228\n            /* \"#utility.yul\":8529:8540   */\n          dup2\n            /* \"#utility.yul\":8511:8541   */\n          tag_127\n          jump\t// in\n        tag_228:\n            /* \"#utility.yul\":8500:8541   */\n          swap2\n          pop\n            /* \"#utility.yul\":8690:8691   */\n          dup3\n            /* \"#utility.yul\":8681:8688   */\n          dup3\n            /* \"#utility.yul\":8677:8692   */\n          div\n            /* \"#utility.yul\":8674:8675   */\n          dup5\n            /* \"#utility.yul\":8671:8693   */\n          eq\n            /* \"#utility.yul\":8651:8652   */\n          dup4\n            /* \"#utility.yul\":8644:8653   */\n          iszero\n            /* \"#utility.yul\":8624:8707   */\n          or\n            /* \"#utility.yul\":8601:8740   */\n          tag_229\n          jumpi\n            /* \"#utility.yul\":8720:8738   */\n          tag_230\n          tag_144\n          jump\t// in\n        tag_230:\n            /* \"#utility.yul\":8601:8740   */\n        tag_229:\n            /* \"#utility.yul\":8385:8747   */\n          pop\n            /* \"#utility.yul\":8337:8747   */\n          swap3\n          swap2\n          pop\n          pop\n          jump\t// out\n            /* \"#utility.yul\":8753:8979   */\n        tag_149:\n            /* \"#utility.yul\":8893:8927   */\n          0x6f72646572206d757374206265206f6620636f72726563742073697a6520616e\n            /* \"#utility.yul\":8889:8890   */\n          0x00\n            /* \"#utility.yul\":8881:8887   */\n          dup3\n            /* \"#utility.yul\":8877:8891   */\n          add\n            /* \"#utility.yul\":8870:8928   */\n          mstore\n            /* \"#utility.yul\":8962:8971   */\n          0x6420707269636500000000000000000000000000000000000000000000000000\n            /* \"#utility.yul\":8957:8959   */\n          0x20\n            /* \"#utility.yul\":8949:8955   */\n          dup3\n            /* \"#utility.yul\":8945:8960   */\n          add\n            /* \"#utility.yul\":8938:8972   */\n          mstore\n            /* \"#utility.yul\":8753:8979   */\n          pop\n          jump\t// out\n            /* \"#utility.yul\":8985:9351   */\n        tag_150:\n            /* \"#utility.yul\":9127:9130   */\n          0x00\n            /* \"#utility.yul\":9148:9215   */\n          tag_233\n            /* \"#utility.yul\":9212:9214   */\n          0x27\n            /* \"#utility.yul\":9207:9210   */\n          dup4\n            /* \"#utility.yul\":9148:9215   */\n          tag_139\n          jump\t// in\n        tag_233:\n            /* \"#utility.yul\":9141:9215   */\n          swap2\n          pop\n            /* \"#utility.yul\":9224:9317   */\n          tag_234\n            /* \"#utility.yul\":9313:9316   */\n          dup3\n            /* \"#utility.yul\":9224:9317   */\n          tag_149\n          jump\t// in\n        tag_234:\n            /* \"#utility.yul\":9342:9344   */\n          0x40\n            /* \"#utility.yul\":9337:9340   */\n          dup3\n            /* \"#utility.yul\":9333:9345   */\n          add\n            /* \"#utility.yul\":9326:9345   */\n          swap1\n          pop\n            /* \"#utility.yul\":8985:9351   */\n          swap2\n          swap1\n          pop\n          jump\t// out\n            /* \"#utility.yul\":9357:9776   */\n        tag_115:\n            /* \"#utility.yul\":9523:9527   */\n          0x00\n            /* \"#utility.yul\":9561:9563   */\n          0x20\n            /* \"#utility.yul\":9550:9559   */\n          dup3\n            /* \"#utility.yul\":9546:9564   */\n          add\n            /* \"#utility.yul\":9538:9564   */\n          swap1\n          pop\n            /* \"#utility.yul\":9610:9619   */\n          dup2\n            /* \"#utility.yul\":9604:9608   */\n          dup2\n            /* \"#utility.yul\":9600:9620   */\n          sub\n            /* \"#utility.yul\":9596:9597   */\n          0x00\n            /* \"#utility.yul\":9585:9594   */\n          dup4\n            /* \"#utility.yul\":9581:9598   */\n          add\n            /* \"#utility.yul\":9574:9621   */\n          mstore\n            /* \"#utility.yul\":9638:9769   */\n          tag_236\n            /* \"#utility.yul\":9764:9768   */\n          dup2\n            /* \"#utility.yul\":9638:9769   */\n          tag_150\n          jump\t// in\n        tag_236:\n            /* \"#utility.yul\":9630:9769   */\n          swap1\n          pop\n            /* \"#utility.yul\":9357:9776   */\n          swap2\n          swap1\n          pop\n          jump\t// out\n            /* \"#utility.yul\":9782:9964   */\n        tag_151:\n            /* \"#utility.yul\":9922:9956   */\n          0x4f776e61626c653a2063616c6c6572206973206e6f7420746865206f776e6572\n            /* \"#utility.yul\":9918:9919   */\n          0x00\n            /* \"#utility.yul\":9910:9916   */\n          dup3\n            /* \"#utility.yul\":9906:9920   */\n          add\n            /* \"#utility.yul\":9899:9957   */\n          mstore\n            /* \"#utility.yul\":9782:9964   */\n          pop\n          jump\t// out\n            /* \"#utility.yul\":9970:10336   */\n        tag_152:\n            /* \"#utility.yul\":10112:10115   */\n          0x00\n            /* \"#utility.yul\":10133:10200   */\n          tag_239\n            /* \"#utility.yul\":10197:10199   */\n          0x20\n            /* \"#utility.yul\":10192:10195   */\n          dup4\n            /* \"#utility.yul\":10133:10200   */\n          tag_139\n          jump\t// in\n        tag_239:\n            /* \"#utility.yul\":10126:10200   */\n          swap2\n          pop\n            /* \"#utility.yul\":10209:10302   */\n          tag_240\n            /* \"#utility.yul\":10298:10301   */\n          dup3\n            /* \"#utility.yul\":10209:10302   */\n          tag_151\n          jump\t// in\n        tag_240:\n            /* \"#utility.yul\":10327:10329   */\n          0x20\n            /* \"#utility.yul\":10322:10325   */\n          dup3\n            /* \"#utility.yul\":10318:10330   */\n          add\n            /* \"#utility.yul\":10311:10330   */\n          swap1\n          pop\n            /* \"#utility.yul\":9970:10336   */\n          swap2\n          swap1\n          pop\n          jump\t// out\n            /* \"#utility.yul\":10342:10761   */\n        tag_125:\n            /* \"#utility.yul\":10508:10512   */\n          0x00\n            /* \"#utility.yul\":10546:10548   */\n          0x20\n            /* \"#utility.yul\":10535:10544   */\n          dup3\n            /* \"#utility.yul\":10531:10549   */\n          add\n            /* \"#utility.yul\":10523:10549   */\n          swap1\n          pop\n            /* \"#utility.yul\":10595:10604   */\n          dup2\n            /* \"#utility.yul\":10589:10593   */\n          dup2\n            /* \"#utility.yul\":10585:10605   */\n          sub\n            /* \"#utility.yul\":10581:10582   */\n          0x00\n            /* \"#utility.yul\":10570:10579   */\n          dup4\n            /* \"#utility.yul\":10566:10583   */\n          add\n            /* \"#utility.yul\":10559:10606   */\n          mstore\n            /* \"#utility.yul\":10623:10754   */\n          tag_242\n            /* \"#utility.yul\":10749:10753   */\n          dup2\n            /* \"#utility.yul\":10623:10754   */\n          tag_152\n          jump\t// in\n        tag_242:\n            /* \"#utility.yul\":10615:10754   */\n          swap1\n          pop\n            /* \"#utility.yul\":10342:10761   */\n          swap2\n          swap1\n          pop\n          jump\t// out\n\n        auxdata: 0xa26469706673582212201cc73ff6ecf9f6684db2df002a87da99f2a6535fce37018e9c8483ab1ff15bbf64736f6c63430008120033\n    }\n}\n",
				"bytecode": {
					"linkReferences": {},
					"object": "60a060405234801561001057600080fd5b5060405161001d90610072565b604051809103906000f080158015610039573d6000803e3d6000fd5b5073ffffffffffffffffffffffffffffffffffffffff1660808173ffffffffffffffffffffffffffffffffffffffff168152505061007f565b610fba806109bf83390190565b608051610926610099600039600060ca01526109266000f3fe608060405234801561001057600080fd5b50600436106100415760003560e01c806318661ddb146100465780637b6833c314610076578063a1d861a914610092575b600080fd5b610060600480360381019061005b9190610559565b6100c2565b60405161006d9190610601565b60405180910390f35b610090600480360381019061008b9190610648565b610281565b005b6100ac60048036038101906100a79190610648565b610444565b6040516100b99190610690565b60405180910390f35b6000806100ee7f0000000000000000000000000000000000000000000000000000000000000000610464565b90508073ffffffffffffffffffffffffffffffffffffffff16635a690b9733888888886040518663ffffffff1660e01b81526004016101319594939291906106ba565b600060405180830381600087803b15801561014b57600080fd5b505af115801561015f573d6000803e3d6000fd5b505050506000819080600181540180825580915050600190039060005260206000200160009091909190916101000a81548173ffffffffffffffffffffffffffffffffffffffff021916908373ffffffffffffffffffffffffffffffffffffffff16021790555060018060008373ffffffffffffffffffffffffffffffffffffffff1673ffffffffffffffffffffffffffffffffffffffff16815260200190815260200160002060006101000a81548160ff0219169083151502179055506001600260003373ffffffffffffffffffffffffffffffffffffffff1673ffffffffffffffffffffffffffffffffffffffff16815260200190815260200160002060006101000a81548160ff02191690831515021790555080915050949350505050565b600160008273ffffffffffffffffffffffffffffffffffffffff1673ffffffffffffffffffffffffffffffffffffffff16815260200190815260200160002060009054906101000a900460ff1661030d576040517f08c379a000000000000000000000000000000000000000000000000000000000815260040161030490610790565b60405180910390fd5b3373ffffffffffffffffffffffffffffffffffffffff168173ffffffffffffffffffffffffffffffffffffffff16638da5cb5b6040518163ffffffff1660e01b8152600401602060405180830381865afa15801561036f573d6000803e3d6000fd5b505050506040513d601f19601f8201168201806040525081019061039391906107c5565b73ffffffffffffffffffffffffffffffffffffffff16146103e9576040517f08c379a00000000000000000000000000000000000000000000000000000000081526004016103e090610864565b60405180910390fd5b6000600160008373ffffffffffffffffffffffffffffffffffffffff1673ffffffffffffffffffffffffffffffffffffffff16815260200190815260200160002060006101000a81548160ff02191690831515021790555050565b60026020528060005260406000206000915054906101000a900460ff1681565b6000763d602d80600a3d3981f3363d3d373d3d3d363d730000008260601b60e81c176000526e5af43d82803e903d91602b57fd5bf38260781b17602052603760096000f09050600073ffffffffffffffffffffffffffffffffffffffff168173ffffffffffffffffffffffffffffffffffffffff1603610519576040517f08c379a0000000000000000000000000000000000000000000000000000000008152600401610510906108d0565b60405180910390fd5b919050565b600080fd5b6000819050919050565b61053681610523565b811461054157600080fd5b50565b6000813590506105538161052d565b92915050565b600080600080608085870312156105735761057261051e565b5b600061058187828801610544565b945050602061059287828801610544565b93505060406105a387828801610544565b92505060606105b487828801610544565b91505092959194509250565b600073ffffffffffffffffffffffffffffffffffffffff82169050919050565b60006105eb826105c0565b9050919050565b6105fb816105e0565b82525050565b600060208201905061061660008301846105f2565b92915050565b610625816105e0565b811461063057600080fd5b50565b6000813590506106428161061c565b92915050565b60006020828403121561065e5761065d61051e565b5b600061066c84828501610633565b91505092915050565b60008115159050919050565b61068a81610675565b82525050565b60006020820190506106a56000830184610681565b92915050565b6106b481610523565b82525050565b600060a0820190506106cf60008301886105f2565b6106dc60208301876106ab565b6106e960408301866106ab565b6106f660608301856106ab565b61070360808301846106ab565b9695505050505050565b600082825260208201905092915050565b7f546869732070726f64756365206973206e6f74206c6973746564206f6e20746860008201527f65204d61726b6574000000000000000000000000000000000000000000000000602082015250565b600061077a60288361070d565b91506107858261071e565b604082019050919050565b600060208201905081810360008301526107a98161076d565b9050919050565b6000815190506107bf8161061c565b92915050565b6000602082840312156107db576107da61051e565b5b60006107e9848285016107b0565b91505092915050565b7f4f6e6c792070726f64756365206f776e65722063616e2072656d6f766520707260008201527f6f647563652066726f6d204d61726b6574000000000000000000000000000000602082015250565b600061084e60318361070d565b9150610859826107f2565b604082019050919050565b6000602082019050818103600083015261087d81610841565b9050919050565b7f455243313136373a20637265617465206661696c656400000000000000000000600082015250565b60006108ba60168361070d565b91506108c582610884565b602082019050919050565b600060208201905081810360008301526108e9816108ad565b905091905056fea264697066735822122032438622a75179813fb783f261a3a1770fe25f9192faf5c2891d3dad0250a46864736f6c63430008120033608060405234801561001057600080fd5b5061002d61002261005d60201b60201c565b61006560201b60201c565b6000600860006101000a81548160ff0219169083600281111561005357610052610129565b5b0217905550610158565b600033905090565b60008060009054906101000a900473ffffffffffffffffffffffffffffffffffffffff169050816000806101000a81548173ffffffffffffffffffffffffffffffffffffffff021916908373ffffffffffffffffffffffffffffffffffffffff1602179055508173ffffffffffffffffffffffffffffffffffffffff168173ffffffffffffffffffffffffffffffffffffffff167f8be0079c531659141344cd1fd0a4f28419497f9722a3daafe3b4186f6b6457e060405160405180910390a35050565b7f4e487b7100000000000000000000000000000000000000000000000000000000600052602160045260246000fd5b610e53806101676000396000f3fe6080604052600436106100a75760003560e01c8063a035b1fe11610064578063a035b1fe14610198578063d32dacc1146101c3578063d811fcf0146101ee578063f2fde38b14610219578063f5c609e014610242578063fa34f63a1461024c576100a7565b8063530d124e146100ac5780635a690b97146100d75780636d86b8a514610100578063715018a61461012b57806380f55605146101425780638da5cb5b1461016d575b600080fd5b3480156100b857600080fd5b506100c1610277565b6040516100ce919061083e565b60405180910390f35b3480156100e357600080fd5b506100fe60048036038101906100f991906108e8565b61027d565b005b34801561010c57600080fd5b5061011561038b565b604051610122919061083e565b60405180910390f35b34801561013757600080fd5b50610140610391565b005b34801561014e57600080fd5b506101576103a5565b6040516101649190610972565b60405180910390f35b34801561017957600080fd5b506101826103cb565b60405161018f9190610972565b60405180910390f35b3480156101a457600080fd5b506101ad6103f4565b6040516101ba919061083e565b60405180910390f35b3480156101cf57600080fd5b506101d86103fa565b6040516101e59190610972565b60405180910390f35b3480156101fa57600080fd5b506102036104ee565b6040516102109190610972565b60405180910390f35b34801561022557600080fd5b50610240600480360381019061023b919061098d565b610514565b005b61024a610597565b005b34801561025857600080fd5b506102616106d5565b60405161026e919061083e565b60405180910390f35b60045481565b60006002811115610291576102906109ba565b5b600860009054906101000a900460ff1660028111156102b3576102b26109ba565b5b146102f3576040517f08c379a00000000000000000000000000000000000000000000000000000000081526004016102ea90610a6c565b60405180910390fd5b6102fc856106db565b33600260006101000a81548173ffffffffffffffffffffffffffffffffffffffff021916908373ffffffffffffffffffffffffffffffffffffffff160217905550806004819055508360058190555082600681905550816007819055506001600860006101000a81548160ff0219169083600281111561037f5761037e6109ba565b5b02179055505050505050565b60075481565b61039961079f565b6103a360006106db565b565b600260009054906101000a900473ffffffffffffffffffffffffffffffffffffffff1681565b60008060009054906101000a900473ffffffffffffffffffffffffffffffffffffffff16905090565b60065481565b600061040461079f565b60006003805490501161044c576040517f08c379a000000000000000000000000000000000000000000000000000000000815260040161044390610ad8565b60405180910390fd5b6000600360016003805490506104629190610b27565b8154811061047357610472610b5b565b5b9060005260206000200160009054906101000a900473ffffffffffffffffffffffffffffffffffffffff16905060038054806104b2576104b1610b8a565b5b6001900381819060005260206000200160006101000a81549073ffffffffffffffffffffffffffffffffffffffff021916905590558091505090565b600160009054906101000a900473ffffffffffffffffffffffffffffffffffffffff1681565b61051c61079f565b600073ffffffffffffffffffffffffffffffffffffffff168173ffffffffffffffffffffffffffffffffffffffff160361058b576040517f08c379a000000000000000000000000000000000000000000000000000000000815260040161058290610c2b565b60405180910390fd5b610594816106db565b50565b61059f6103cb565b73ffffffffffffffffffffffffffffffffffffffff163373ffffffffffffffffffffffffffffffffffffffff160361060c576040517f08c379a000000000000000000000000000000000000000000000000000000000815260040161060390610cbd565b60405180910390fd5b60065460075461061c9190610cdd565b341461065d576040517f08c379a000000000000000000000000000000000000000000000000000000000815260040161065490610d91565b60405180910390fd5b6004546003805490501061067057600080fd5b6003339080600181540180825580915050600190039060005260206000200160009091909190916101000a81548173ffffffffffffffffffffffffffffffffffffffff021916908373ffffffffffffffffffffffffffffffffffffffff160217905550565b60055481565b60008060009054906101000a900473ffffffffffffffffffffffffffffffffffffffff169050816000806101000a81548173ffffffffffffffffffffffffffffffffffffffff021916908373ffffffffffffffffffffffffffffffffffffffff1602179055508173ffffffffffffffffffffffffffffffffffffffff168173ffffffffffffffffffffffffffffffffffffffff167f8be0079c531659141344cd1fd0a4f28419497f9722a3daafe3b4186f6b6457e060405160405180910390a35050565b6107a761081d565b73ffffffffffffffffffffffffffffffffffffffff166107c56103cb565b73ffffffffffffffffffffffffffffffffffffffff161461081b576040517f08c379a000000000000000000000000000000000000000000000000000000000815260040161081290610dfd565b60405180910390fd5b565b600033905090565b6000819050919050565b61083881610825565b82525050565b6000602082019050610853600083018461082f565b92915050565b600080fd5b600073ffffffffffffffffffffffffffffffffffffffff82169050919050565b60006108898261085e565b9050919050565b6108998161087e565b81146108a457600080fd5b50565b6000813590506108b681610890565b92915050565b6108c581610825565b81146108d057600080fd5b50565b6000813590506108e2816108bc565b92915050565b600080600080600060a0868803121561090457610903610859565b5b6000610912888289016108a7565b9550506020610923888289016108d3565b9450506040610934888289016108d3565b9350506060610945888289016108d3565b9250506080610956888289016108d3565b9150509295509295909350565b61096c8161087e565b82525050565b60006020820190506109876000830184610963565b92915050565b6000602082840312156109a3576109a2610859565b5b60006109b1848285016108a7565b91505092915050565b7f4e487b7100000000000000000000000000000000000000000000000000000000600052602160045260246000fd5b600082825260208201905092915050565b7f546869732070726f647563652068617320616c7265616479206265656e20696e60008201527f6974696c697a6564000000000000000000000000000000000000000000000000602082015250565b6000610a566028836109e9565b9150610a61826109fa565b604082019050919050565b60006020820190508181036000830152610a8581610a49565b9050919050565b7f4e6f206f726465727320746f2074616b65000000000000000000000000000000600082015250565b6000610ac26011836109e9565b9150610acd82610a8c565b602082019050919050565b60006020820190508181036000830152610af181610ab5565b9050919050565b7f4e487b7100000000000000000000000000000000000000000000000000000000600052601160045260246000fd5b6000610b3282610825565b9150610b3d83610825565b9250828203905081811115610b5557610b54610af8565b5b92915050565b7f4e487b7100000000000000000000000000000000000000000000000000000000600052603260045260246000fd5b7f4e487b7100000000000000000000000000000000000000000000000000000000600052603160045260246000fd5b7f4f776e61626c653a206e6577206f776e657220697320746865207a65726f206160008201527f6464726573730000000000000000000000000000000000000000000000000000602082015250565b6000610c156026836109e9565b9150610c2082610bb9565b604082019050919050565b60006020820190508181036000830152610c4481610c08565b9050919050565b7f6661726d65722063616e6e6f7420706c616365206f7264657220666f7220746860008201527f656972206f776e2070726f647563650000000000000000000000000000000000602082015250565b6000610ca7602f836109e9565b9150610cb282610c4b565b604082019050919050565b60006020820190508181036000830152610cd681610c9a565b9050919050565b6000610ce882610825565b9150610cf383610825565b9250828202610d0181610825565b91508282048414831517610d1857610d17610af8565b5b5092915050565b7f6f72646572206d757374206265206f6620636f72726563742073697a6520616e60008201527f6420707269636500000000000000000000000000000000000000000000000000602082015250565b6000610d7b6027836109e9565b9150610d8682610d1f565b604082019050919050565b60006020820190508181036000830152610daa81610d6e565b9050919050565b7f4f776e61626c653a2063616c6c6572206973206e6f7420746865206f776e6572600082015250565b6000610de76020836109e9565b9150610df282610db1565b602082019050919050565b60006020820190508181036000830152610e1681610dda565b905091905056fea26469706673582212201cc73ff6ecf9f6684db2df002a87da99f2a6535fce37018e9c8483ab1ff15bbf64736f6c63430008120033",
					"opcodes": "PUSH1 0xA0 PUSH1 0x40 MSTORE CALLVALUE DUP1 ISZERO PUSH2 0x10 JUMPI PUSH1 0x0 DUP1 REVERT JUMPDEST POP PUSH1 0x40 MLOAD PUSH2 0x1D SWAP1 PUSH2 0x72 JUMP JUMPDEST PUSH1 0x40 MLOAD DUP1 SWAP2 SUB SWAP1 PUSH1 0x0 CREATE DUP1 ISZERO DUP1 ISZERO PUSH2 0x39 JUMPI RETURNDATASIZE PUSH1 0x0 DUP1 RETURNDATACOPY RETURNDATASIZE PUSH1 0x0 REVERT JUMPDEST POP PUSH20 0xFFFFFFFFFFFFFFFFFFFFFFFFFFFFFFFFFFFFFFFF AND PUSH1 0x80 DUP2 PUSH20 0xFFFFFFFFFFFFFFFFFFFFFFFFFFFFFFFFFFFFFFFF AND DUP2 MSTORE POP POP PUSH2 0x7F JUMP JUMPDEST PUSH2 0xFBA DUP1 PUSH2 0x9BF DUP4 CODECOPY ADD SWAP1 JUMP JUMPDEST PUSH1 0x80 MLOAD PUSH2 0x926 PUSH2 0x99 PUSH1 0x0 CODECOPY PUSH1 0x0 PUSH1 0xCA ADD MSTORE PUSH2 0x926 PUSH1 0x0 RETURN INVALID PUSH1 0x80 PUSH1 0x40 MSTORE CALLVALUE DUP1 ISZERO PUSH2 0x10 JUMPI PUSH1 0x0 DUP1 REVERT JUMPDEST POP PUSH1 0x4 CALLDATASIZE LT PUSH2 0x41 JUMPI PUSH1 0x0 CALLDATALOAD PUSH1 0xE0 SHR DUP1 PUSH4 0x18661DDB EQ PUSH2 0x46 JUMPI DUP1 PUSH4 0x7B6833C3 EQ PUSH2 0x76 JUMPI DUP1 PUSH4 0xA1D861A9 EQ PUSH2 0x92 JUMPI JUMPDEST PUSH1 0x0 DUP1 REVERT JUMPDEST PUSH2 0x60 PUSH1 0x4 DUP1 CALLDATASIZE SUB DUP2 ADD SWAP1 PUSH2 0x5B SWAP2 SWAP1 PUSH2 0x559 JUMP JUMPDEST PUSH2 0xC2 JUMP JUMPDEST PUSH1 0x40 MLOAD PUSH2 0x6D SWAP2 SWAP1 PUSH2 0x601 JUMP JUMPDEST PUSH1 0x40 MLOAD DUP1 SWAP2 SUB SWAP1 RETURN JUMPDEST PUSH2 0x90 PUSH1 0x4 DUP1 CALLDATASIZE SUB DUP2 ADD SWAP1 PUSH2 0x8B SWAP2 SWAP1 PUSH2 0x648 JUMP JUMPDEST PUSH2 0x281 JUMP JUMPDEST STOP JUMPDEST PUSH2 0xAC PUSH1 0x4 DUP1 CALLDATASIZE SUB DUP2 ADD SWAP1 PUSH2 0xA7 SWAP2 SWAP1 PUSH2 0x648 JUMP JUMPDEST PUSH2 0x444 JUMP JUMPDEST PUSH1 0x40 MLOAD PUSH2 0xB9 SWAP2 SWAP1 PUSH2 0x690 JUMP JUMPDEST PUSH1 0x40 MLOAD DUP1 SWAP2 SUB SWAP1 RETURN JUMPDEST PUSH1 0x0 DUP1 PUSH2 0xEE PUSH32 0x0 PUSH2 0x464 JUMP JUMPDEST SWAP1 POP DUP1 PUSH20 0xFFFFFFFFFFFFFFFFFFFFFFFFFFFFFFFFFFFFFFFF AND PUSH4 0x5A690B97 CALLER DUP9 DUP9 DUP9 DUP9 PUSH1 0x40 MLOAD DUP7 PUSH4 0xFFFFFFFF AND PUSH1 0xE0 SHL DUP2 MSTORE PUSH1 0x4 ADD PUSH2 0x131 SWAP6 SWAP5 SWAP4 SWAP3 SWAP2 SWAP1 PUSH2 0x6BA JUMP JUMPDEST PUSH1 0x0 PUSH1 0x40 MLOAD DUP1 DUP4 SUB DUP2 PUSH1 0x0 DUP8 DUP1 EXTCODESIZE ISZERO DUP1 ISZERO PUSH2 0x14B JUMPI PUSH1 0x0 DUP1 REVERT JUMPDEST POP GAS CALL ISZERO DUP1 ISZERO PUSH2 0x15F JUMPI RETURNDATASIZE PUSH1 0x0 DUP1 RETURNDATACOPY RETURNDATASIZE PUSH1 0x0 REVERT JUMPDEST POP POP POP POP PUSH1 0x0 DUP2 SWAP1 DUP1 PUSH1 0x1 DUP2 SLOAD ADD DUP1 DUP3 SSTORE DUP1 SWAP2 POP POP PUSH1 0x1 SWAP1 SUB SWAP1 PUSH1 0x0 MSTORE PUSH1 0x20 PUSH1 0x0 KECCAK256 ADD PUSH1 0x0 SWAP1 SWAP2 SWAP1 SWAP2 SWAP1 SWAP2 PUSH2 0x100 EXP DUP2 SLOAD DUP2 PUSH20 0xFFFFFFFFFFFFFFFFFFFFFFFFFFFFFFFFFFFFFFFF MUL NOT AND SWAP1 DUP4 PUSH20 0xFFFFFFFFFFFFFFFFFFFFFFFFFFFFFFFFFFFFFFFF AND MUL OR SWAP1 SSTORE POP PUSH1 0x1 DUP1 PUSH1 0x0 DUP4 PUSH20 0xFFFFFFFFFFFFFFFFFFFFFFFFFFFFFFFFFFFFFFFF AND PUSH20 0xFFFFFFFFFFFFFFFFFFFFFFFFFFFFFFFFFFFFFFFF AND DUP2 MSTORE PUSH1 0x20 ADD SWAP1 DUP2 MSTORE PUSH1 0x20 ADD PUSH1 0x0 KECCAK256 PUSH1 0x0 PUSH2 0x100 EXP DUP2 SLOAD DUP2 PUSH1 0xFF MUL NOT AND SWAP1 DUP4 ISZERO ISZERO MUL OR SWAP1 SSTORE POP PUSH1 0x1 PUSH1 0x2 PUSH1 0x0 CALLER PUSH20 0xFFFFFFFFFFFFFFFFFFFFFFFFFFFFFFFFFFFFFFFF AND PUSH20 0xFFFFFFFFFFFFFFFFFFFFFFFFFFFFFFFFFFFFFFFF AND DUP2 MSTORE PUSH1 0x20 ADD SWAP1 DUP2 MSTORE PUSH1 0x20 ADD PUSH1 0x0 KECCAK256 PUSH1 0x0 PUSH2 0x100 EXP DUP2 SLOAD DUP2 PUSH1 0xFF MUL NOT AND SWAP1 DUP4 ISZERO ISZERO MUL OR SWAP1 SSTORE POP DUP1 SWAP2 POP POP SWAP5 SWAP4 POP POP POP POP JUMP JUMPDEST PUSH1 0x1 PUSH1 0x0 DUP3 PUSH20 0xFFFFFFFFFFFFFFFFFFFFFFFFFFFFFFFFFFFFFFFF AND PUSH20 0xFFFFFFFFFFFFFFFFFFFFFFFFFFFFFFFFFFFFFFFF AND DUP2 MSTORE PUSH1 0x20 ADD SWAP1 DUP2 MSTORE PUSH1 0x20 ADD PUSH1 0x0 KECCAK256 PUSH1 0x0 SWAP1 SLOAD SWAP1 PUSH2 0x100 EXP SWAP1 DIV PUSH1 0xFF AND PUSH2 0x30D JUMPI PUSH1 0x40 MLOAD PUSH32 0x8C379A000000000000000000000000000000000000000000000000000000000 DUP2 MSTORE PUSH1 0x4 ADD PUSH2 0x304 SWAP1 PUSH2 0x790 JUMP JUMPDEST PUSH1 0x40 MLOAD DUP1 SWAP2 SUB SWAP1 REVERT JUMPDEST CALLER PUSH20 0xFFFFFFFFFFFFFFFFFFFFFFFFFFFFFFFFFFFFFFFF AND DUP2 PUSH20 0xFFFFFFFFFFFFFFFFFFFFFFFFFFFFFFFFFFFFFFFF AND PUSH4 0x8DA5CB5B PUSH1 0x40 MLOAD DUP2 PUSH4 0xFFFFFFFF AND PUSH1 0xE0 SHL DUP2 MSTORE PUSH1 0x4 ADD PUSH1 0x20 PUSH1 0x40 MLOAD DUP1 DUP4 SUB DUP2 DUP7 GAS STATICCALL ISZERO DUP1 ISZERO PUSH2 0x36F JUMPI RETURNDATASIZE PUSH1 0x0 DUP1 RETURNDATACOPY RETURNDATASIZE PUSH1 0x0 REVERT JUMPDEST POP POP POP POP PUSH1 0x40 MLOAD RETURNDATASIZE PUSH1 0x1F NOT PUSH1 0x1F DUP3 ADD AND DUP3 ADD DUP1 PUSH1 0x40 MSTORE POP DUP2 ADD SWAP1 PUSH2 0x393 SWAP2 SWAP1 PUSH2 0x7C5 JUMP JUMPDEST PUSH20 0xFFFFFFFFFFFFFFFFFFFFFFFFFFFFFFFFFFFFFFFF AND EQ PUSH2 0x3E9 JUMPI PUSH1 0x40 MLOAD PUSH32 0x8C379A000000000000000000000000000000000000000000000000000000000 DUP2 MSTORE PUSH1 0x4 ADD PUSH2 0x3E0 SWAP1 PUSH2 0x864 JUMP JUMPDEST PUSH1 0x40 MLOAD DUP1 SWAP2 SUB SWAP1 REVERT JUMPDEST PUSH1 0x0 PUSH1 0x1 PUSH1 0x0 DUP4 PUSH20 0xFFFFFFFFFFFFFFFFFFFFFFFFFFFFFFFFFFFFFFFF AND PUSH20 0xFFFFFFFFFFFFFFFFFFFFFFFFFFFFFFFFFFFFFFFF AND DUP2 MSTORE PUSH1 0x20 ADD SWAP1 DUP2 MSTORE PUSH1 0x20 ADD PUSH1 0x0 KECCAK256 PUSH1 0x0 PUSH2 0x100 EXP DUP2 SLOAD DUP2 PUSH1 0xFF MUL NOT AND SWAP1 DUP4 ISZERO ISZERO MUL OR SWAP1 SSTORE POP POP JUMP JUMPDEST PUSH1 0x2 PUSH1 0x20 MSTORE DUP1 PUSH1 0x0 MSTORE PUSH1 0x40 PUSH1 0x0 KECCAK256 PUSH1 0x0 SWAP2 POP SLOAD SWAP1 PUSH2 0x100 EXP SWAP1 DIV PUSH1 0xFF AND DUP2 JUMP JUMPDEST PUSH1 0x0 PUSH23 0x3D602D80600A3D3981F3363D3D373D3D3D363D73000000 DUP3 PUSH1 0x60 SHL PUSH1 0xE8 SHR OR PUSH1 0x0 MSTORE PUSH15 0x5AF43D82803E903D91602B57FD5BF3 DUP3 PUSH1 0x78 SHL OR PUSH1 0x20 MSTORE PUSH1 0x37 PUSH1 0x9 PUSH1 0x0 CREATE SWAP1 POP PUSH1 0x0 PUSH20 0xFFFFFFFFFFFFFFFFFFFFFFFFFFFFFFFFFFFFFFFF AND DUP2 PUSH20 0xFFFFFFFFFFFFFFFFFFFFFFFFFFFFFFFFFFFFFFFF AND SUB PUSH2 0x519 JUMPI PUSH1 0x40 MLOAD PUSH32 0x8C379A000000000000000000000000000000000000000000000000000000000 DUP2 MSTORE PUSH1 0x4 ADD PUSH2 0x510 SWAP1 PUSH2 0x8D0 JUMP JUMPDEST PUSH1 0x40 MLOAD DUP1 SWAP2 SUB SWAP1 REVERT JUMPDEST SWAP2 SWAP1 POP JUMP JUMPDEST PUSH1 0x0 DUP1 REVERT JUMPDEST PUSH1 0x0 DUP2 SWAP1 POP SWAP2 SWAP1 POP JUMP JUMPDEST PUSH2 0x536 DUP2 PUSH2 0x523 JUMP JUMPDEST DUP2 EQ PUSH2 0x541 JUMPI PUSH1 0x0 DUP1 REVERT JUMPDEST POP JUMP JUMPDEST PUSH1 0x0 DUP2 CALLDATALOAD SWAP1 POP PUSH2 0x553 DUP2 PUSH2 0x52D JUMP JUMPDEST SWAP3 SWAP2 POP POP JUMP JUMPDEST PUSH1 0x0 DUP1 PUSH1 0x0 DUP1 PUSH1 0x80 DUP6 DUP8 SUB SLT ISZERO PUSH2 0x573 JUMPI PUSH2 0x572 PUSH2 0x51E JUMP JUMPDEST JUMPDEST PUSH1 0x0 PUSH2 0x581 DUP8 DUP3 DUP9 ADD PUSH2 0x544 JUMP JUMPDEST SWAP5 POP POP PUSH1 0x20 PUSH2 0x592 DUP8 DUP3 DUP9 ADD PUSH2 0x544 JUMP JUMPDEST SWAP4 POP POP PUSH1 0x40 PUSH2 0x5A3 DUP8 DUP3 DUP9 ADD PUSH2 0x544 JUMP JUMPDEST SWAP3 POP POP PUSH1 0x60 PUSH2 0x5B4 DUP8 DUP3 DUP9 ADD PUSH2 0x544 JUMP JUMPDEST SWAP2 POP POP SWAP3 SWAP6 SWAP2 SWAP5 POP SWAP3 POP JUMP JUMPDEST PUSH1 0x0 PUSH20 0xFFFFFFFFFFFFFFFFFFFFFFFFFFFFFFFFFFFFFFFF DUP3 AND SWAP1 POP SWAP2 SWAP1 POP JUMP JUMPDEST PUSH1 0x0 PUSH2 0x5EB DUP3 PUSH2 0x5C0 JUMP JUMPDEST SWAP1 POP SWAP2 SWAP1 POP JUMP JUMPDEST PUSH2 0x5FB DUP2 PUSH2 0x5E0 JUMP JUMPDEST DUP3 MSTORE POP POP JUMP JUMPDEST PUSH1 0x0 PUSH1 0x20 DUP3 ADD SWAP1 POP PUSH2 0x616 PUSH1 0x0 DUP4 ADD DUP5 PUSH2 0x5F2 JUMP JUMPDEST SWAP3 SWAP2 POP POP JUMP JUMPDEST PUSH2 0x625 DUP2 PUSH2 0x5E0 JUMP JUMPDEST DUP2 EQ PUSH2 0x630 JUMPI PUSH1 0x0 DUP1 REVERT JUMPDEST POP JUMP JUMPDEST PUSH1 0x0 DUP2 CALLDATALOAD SWAP1 POP PUSH2 0x642 DUP2 PUSH2 0x61C JUMP JUMPDEST SWAP3 SWAP2 POP POP JUMP JUMPDEST PUSH1 0x0 PUSH1 0x20 DUP3 DUP5 SUB SLT ISZERO PUSH2 0x65E JUMPI PUSH2 0x65D PUSH2 0x51E JUMP JUMPDEST JUMPDEST PUSH1 0x0 PUSH2 0x66C DUP5 DUP3 DUP6 ADD PUSH2 0x633 JUMP JUMPDEST SWAP2 POP POP SWAP3 SWAP2 POP POP JUMP JUMPDEST PUSH1 0x0 DUP2 ISZERO ISZERO SWAP1 POP SWAP2 SWAP1 POP JUMP JUMPDEST PUSH2 0x68A DUP2 PUSH2 0x675 JUMP JUMPDEST DUP3 MSTORE POP POP JUMP JUMPDEST PUSH1 0x0 PUSH1 0x20 DUP3 ADD SWAP1 POP PUSH2 0x6A5 PUSH1 0x0 DUP4 ADD DUP5 PUSH2 0x681 JUMP JUMPDEST SWAP3 SWAP2 POP POP JUMP JUMPDEST PUSH2 0x6B4 DUP2 PUSH2 0x523 JUMP JUMPDEST DUP3 MSTORE POP POP JUMP JUMPDEST PUSH1 0x0 PUSH1 0xA0 DUP3 ADD SWAP1 POP PUSH2 0x6CF PUSH1 0x0 DUP4 ADD DUP9 PUSH2 0x5F2 JUMP JUMPDEST PUSH2 0x6DC PUSH1 0x20 DUP4 ADD DUP8 PUSH2 0x6AB JUMP JUMPDEST PUSH2 0x6E9 PUSH1 0x40 DUP4 ADD DUP7 PUSH2 0x6AB JUMP JUMPDEST PUSH2 0x6F6 PUSH1 0x60 DUP4 ADD DUP6 PUSH2 0x6AB JUMP JUMPDEST PUSH2 0x703 PUSH1 0x80 DUP4 ADD DUP5 PUSH2 0x6AB JUMP JUMPDEST SWAP7 SWAP6 POP POP POP POP POP POP JUMP JUMPDEST PUSH1 0x0 DUP3 DUP3 MSTORE PUSH1 0x20 DUP3 ADD SWAP1 POP SWAP3 SWAP2 POP POP JUMP JUMPDEST PUSH32 0x546869732070726F64756365206973206E6F74206C6973746564206F6E207468 PUSH1 0x0 DUP3 ADD MSTORE PUSH32 0x65204D61726B6574000000000000000000000000000000000000000000000000 PUSH1 0x20 DUP3 ADD MSTORE POP JUMP JUMPDEST PUSH1 0x0 PUSH2 0x77A PUSH1 0x28 DUP4 PUSH2 0x70D JUMP JUMPDEST SWAP2 POP PUSH2 0x785 DUP3 PUSH2 0x71E JUMP JUMPDEST PUSH1 0x40 DUP3 ADD SWAP1 POP SWAP2 SWAP1 POP JUMP JUMPDEST PUSH1 0x0 PUSH1 0x20 DUP3 ADD SWAP1 POP DUP2 DUP2 SUB PUSH1 0x0 DUP4 ADD MSTORE PUSH2 0x7A9 DUP2 PUSH2 0x76D JUMP JUMPDEST SWAP1 POP SWAP2 SWAP1 POP JUMP JUMPDEST PUSH1 0x0 DUP2 MLOAD SWAP1 POP PUSH2 0x7BF DUP2 PUSH2 0x61C JUMP JUMPDEST SWAP3 SWAP2 POP POP JUMP JUMPDEST PUSH1 0x0 PUSH1 0x20 DUP3 DUP5 SUB SLT ISZERO PUSH2 0x7DB JUMPI PUSH2 0x7DA PUSH2 0x51E JUMP JUMPDEST JUMPDEST PUSH1 0x0 PUSH2 0x7E9 DUP5 DUP3 DUP6 ADD PUSH2 0x7B0 JUMP JUMPDEST SWAP2 POP POP SWAP3 SWAP2 POP POP JUMP JUMPDEST PUSH32 0x4F6E6C792070726F64756365206F776E65722063616E2072656D6F7665207072 PUSH1 0x0 DUP3 ADD MSTORE PUSH32 0x6F647563652066726F6D204D61726B6574000000000000000000000000000000 PUSH1 0x20 DUP3 ADD MSTORE POP JUMP JUMPDEST PUSH1 0x0 PUSH2 0x84E PUSH1 0x31 DUP4 PUSH2 0x70D JUMP JUMPDEST SWAP2 POP PUSH2 0x859 DUP3 PUSH2 0x7F2 JUMP JUMPDEST PUSH1 0x40 DUP3 ADD SWAP1 POP SWAP2 SWAP1 POP JUMP JUMPDEST PUSH1 0x0 PUSH1 0x20 DUP3 ADD SWAP1 POP DUP2 DUP2 SUB PUSH1 0x0 DUP4 ADD MSTORE PUSH2 0x87D DUP2 PUSH2 0x841 JUMP JUMPDEST SWAP1 POP SWAP2 SWAP1 POP JUMP JUMPDEST PUSH32 0x455243313136373A20637265617465206661696C656400000000000000000000 PUSH1 0x0 DUP3 ADD MSTORE POP JUMP JUMPDEST PUSH1 0x0 PUSH2 0x8BA PUSH1 0x16 DUP4 PUSH2 0x70D JUMP JUMPDEST SWAP2 POP PUSH2 0x8C5 DUP3 PUSH2 0x884 JUMP JUMPDEST PUSH1 0x20 DUP3 ADD SWAP1 POP SWAP2 SWAP1 POP JUMP JUMPDEST PUSH1 0x0 PUSH1 0x20 DUP3 ADD SWAP1 POP DUP2 DUP2 SUB PUSH1 0x0 DUP4 ADD MSTORE PUSH2 0x8E9 DUP2 PUSH2 0x8AD JUMP JUMPDEST SWAP1 POP SWAP2 SWAP1 POP JUMP INVALID LOG2 PUSH5 0x6970667358 0x22 SLT KECCAK256 ORIGIN NUMBER DUP7 0x22 0xA7 MLOAD PUSH26 0x813FB783F261A3A1770FE25F9192FAF5C2891D3DAD0250A46864 PUSH20 0x6F6C634300081200336080604052348015610010 JUMPI PUSH1 0x0 DUP1 REVERT JUMPDEST POP PUSH2 0x2D PUSH2 0x22 PUSH2 0x5D PUSH1 0x20 SHL PUSH1 0x20 SHR JUMP JUMPDEST PUSH2 0x65 PUSH1 0x20 SHL PUSH1 0x20 SHR JUMP JUMPDEST PUSH1 0x0 PUSH1 0x8 PUSH1 0x0 PUSH2 0x100 EXP DUP2 SLOAD DUP2 PUSH1 0xFF MUL NOT AND SWAP1 DUP4 PUSH1 0x2 DUP2 GT ISZERO PUSH2 0x53 JUMPI PUSH2 0x52 PUSH2 0x129 JUMP JUMPDEST JUMPDEST MUL OR SWAP1 SSTORE POP PUSH2 0x158 JUMP JUMPDEST PUSH1 0x0 CALLER SWAP1 POP SWAP1 JUMP JUMPDEST PUSH1 0x0 DUP1 PUSH1 0x0 SWAP1 SLOAD SWAP1 PUSH2 0x100 EXP SWAP1 DIV PUSH20 0xFFFFFFFFFFFFFFFFFFFFFFFFFFFFFFFFFFFFFFFF AND SWAP1 POP DUP2 PUSH1 0x0 DUP1 PUSH2 0x100 EXP DUP2 SLOAD DUP2 PUSH20 0xFFFFFFFFFFFFFFFFFFFFFFFFFFFFFFFFFFFFFFFF MUL NOT AND SWAP1 DUP4 PUSH20 0xFFFFFFFFFFFFFFFFFFFFFFFFFFFFFFFFFFFFFFFF AND MUL OR SWAP1 SSTORE POP DUP2 PUSH20 0xFFFFFFFFFFFFFFFFFFFFFFFFFFFFFFFFFFFFFFFF AND DUP2 PUSH20 0xFFFFFFFFFFFFFFFFFFFFFFFFFFFFFFFFFFFFFFFF AND PUSH32 0x8BE0079C531659141344CD1FD0A4F28419497F9722A3DAAFE3B4186F6B6457E0 PUSH1 0x40 MLOAD PUSH1 0x40 MLOAD DUP1 SWAP2 SUB SWAP1 LOG3 POP POP JUMP JUMPDEST PUSH32 0x4E487B7100000000000000000000000000000000000000000000000000000000 PUSH1 0x0 MSTORE PUSH1 0x21 PUSH1 0x4 MSTORE PUSH1 0x24 PUSH1 0x0 REVERT JUMPDEST PUSH2 0xE53 DUP1 PUSH2 0x167 PUSH1 0x0 CODECOPY PUSH1 0x0 RETURN INVALID PUSH1 0x80 PUSH1 0x40 MSTORE PUSH1 0x4 CALLDATASIZE LT PUSH2 0xA7 JUMPI PUSH1 0x0 CALLDATALOAD PUSH1 0xE0 SHR DUP1 PUSH4 0xA035B1FE GT PUSH2 0x64 JUMPI DUP1 PUSH4 0xA035B1FE EQ PUSH2 0x198 JUMPI DUP1 PUSH4 0xD32DACC1 EQ PUSH2 0x1C3 JUMPI DUP1 PUSH4 0xD811FCF0 EQ PUSH2 0x1EE JUMPI DUP1 PUSH4 0xF2FDE38B EQ PUSH2 0x219 JUMPI DUP1 PUSH4 0xF5C609E0 EQ PUSH2 0x242 JUMPI DUP1 PUSH4 0xFA34F63A EQ PUSH2 0x24C JUMPI PUSH2 0xA7 JUMP JUMPDEST DUP1 PUSH4 0x530D124E EQ PUSH2 0xAC JUMPI DUP1 PUSH4 0x5A690B97 EQ PUSH2 0xD7 JUMPI DUP1 PUSH4 0x6D86B8A5 EQ PUSH2 0x100 JUMPI DUP1 PUSH4 0x715018A6 EQ PUSH2 0x12B JUMPI DUP1 PUSH4 0x80F55605 EQ PUSH2 0x142 JUMPI DUP1 PUSH4 0x8DA5CB5B EQ PUSH2 0x16D JUMPI JUMPDEST PUSH1 0x0 DUP1 REVERT JUMPDEST CALLVALUE DUP1 ISZERO PUSH2 0xB8 JUMPI PUSH1 0x0 DUP1 REVERT JUMPDEST POP PUSH2 0xC1 PUSH2 0x277 JUMP JUMPDEST PUSH1 0x40 MLOAD PUSH2 0xCE SWAP2 SWAP1 PUSH2 0x83E JUMP JUMPDEST PUSH1 0x40 MLOAD DUP1 SWAP2 SUB SWAP1 RETURN JUMPDEST CALLVALUE DUP1 ISZERO PUSH2 0xE3 JUMPI PUSH1 0x0 DUP1 REVERT JUMPDEST POP PUSH2 0xFE PUSH1 0x4 DUP1 CALLDATASIZE SUB DUP2 ADD SWAP1 PUSH2 0xF9 SWAP2 SWAP1 PUSH2 0x8E8 JUMP JUMPDEST PUSH2 0x27D JUMP JUMPDEST STOP JUMPDEST CALLVALUE DUP1 ISZERO PUSH2 0x10C JUMPI PUSH1 0x0 DUP1 REVERT JUMPDEST POP PUSH2 0x115 PUSH2 0x38B JUMP JUMPDEST PUSH1 0x40 MLOAD PUSH2 0x122 SWAP2 SWAP1 PUSH2 0x83E JUMP JUMPDEST PUSH1 0x40 MLOAD DUP1 SWAP2 SUB SWAP1 RETURN JUMPDEST CALLVALUE DUP1 ISZERO PUSH2 0x137 JUMPI PUSH1 0x0 DUP1 REVERT JUMPDEST POP PUSH2 0x140 PUSH2 0x391 JUMP JUMPDEST STOP JUMPDEST CALLVALUE DUP1 ISZERO PUSH2 0x14E JUMPI PUSH1 0x0 DUP1 REVERT JUMPDEST POP PUSH2 0x157 PUSH2 0x3A5 JUMP JUMPDEST PUSH1 0x40 MLOAD PUSH2 0x164 SWAP2 SWAP1 PUSH2 0x972 JUMP JUMPDEST PUSH1 0x40 MLOAD DUP1 SWAP2 SUB SWAP1 RETURN JUMPDEST CALLVALUE DUP1 ISZERO PUSH2 0x179 JUMPI PUSH1 0x0 DUP1 REVERT JUMPDEST POP PUSH2 0x182 PUSH2 0x3CB JUMP JUMPDEST PUSH1 0x40 MLOAD PUSH2 0x18F SWAP2 SWAP1 PUSH2 0x972 JUMP JUMPDEST PUSH1 0x40 MLOAD DUP1 SWAP2 SUB SWAP1 RETURN JUMPDEST CALLVALUE DUP1 ISZERO PUSH2 0x1A4 JUMPI PUSH1 0x0 DUP1 REVERT JUMPDEST POP PUSH2 0x1AD PUSH2 0x3F4 JUMP JUMPDEST PUSH1 0x40 MLOAD PUSH2 0x1BA SWAP2 SWAP1 PUSH2 0x83E JUMP JUMPDEST PUSH1 0x40 MLOAD DUP1 SWAP2 SUB SWAP1 RETURN JUMPDEST CALLVALUE DUP1 ISZERO PUSH2 0x1CF JUMPI PUSH1 0x0 DUP1 REVERT JUMPDEST POP PUSH2 0x1D8 PUSH2 0x3FA JUMP JUMPDEST PUSH1 0x40 MLOAD PUSH2 0x1E5 SWAP2 SWAP1 PUSH2 0x972 JUMP JUMPDEST PUSH1 0x40 MLOAD DUP1 SWAP2 SUB SWAP1 RETURN JUMPDEST CALLVALUE DUP1 ISZERO PUSH2 0x1FA JUMPI PUSH1 0x0 DUP1 REVERT JUMPDEST POP PUSH2 0x203 PUSH2 0x4EE JUMP JUMPDEST PUSH1 0x40 MLOAD PUSH2 0x210 SWAP2 SWAP1 PUSH2 0x972 JUMP JUMPDEST PUSH1 0x40 MLOAD DUP1 SWAP2 SUB SWAP1 RETURN JUMPDEST CALLVALUE DUP1 ISZERO PUSH2 0x225 JUMPI PUSH1 0x0 DUP1 REVERT JUMPDEST POP PUSH2 0x240 PUSH1 0x4 DUP1 CALLDATASIZE SUB DUP2 ADD SWAP1 PUSH2 0x23B SWAP2 SWAP1 PUSH2 0x98D JUMP JUMPDEST PUSH2 0x514 JUMP JUMPDEST STOP JUMPDEST PUSH2 0x24A PUSH2 0x597 JUMP JUMPDEST STOP JUMPDEST CALLVALUE DUP1 ISZERO PUSH2 0x258 JUMPI PUSH1 0x0 DUP1 REVERT JUMPDEST POP PUSH2 0x261 PUSH2 0x6D5 JUMP JUMPDEST PUSH1 0x40 MLOAD PUSH2 0x26E SWAP2 SWAP1 PUSH2 0x83E JUMP JUMPDEST PUSH1 0x40 MLOAD DUP1 SWAP2 SUB SWAP1 RETURN JUMPDEST PUSH1 0x4 SLOAD DUP2 JUMP JUMPDEST PUSH1 0x0 PUSH1 0x2 DUP2 GT ISZERO PUSH2 0x291 JUMPI PUSH2 0x290 PUSH2 0x9BA JUMP JUMPDEST JUMPDEST PUSH1 0x8 PUSH1 0x0 SWAP1 SLOAD SWAP1 PUSH2 0x100 EXP SWAP1 DIV PUSH1 0xFF AND PUSH1 0x2 DUP2 GT ISZERO PUSH2 0x2B3 JUMPI PUSH2 0x2B2 PUSH2 0x9BA JUMP JUMPDEST JUMPDEST EQ PUSH2 0x2F3 JUMPI PUSH1 0x40 MLOAD PUSH32 0x8C379A000000000000000000000000000000000000000000000000000000000 DUP2 MSTORE PUSH1 0x4 ADD PUSH2 0x2EA SWAP1 PUSH2 0xA6C JUMP JUMPDEST PUSH1 0x40 MLOAD DUP1 SWAP2 SUB SWAP1 REVERT JUMPDEST PUSH2 0x2FC DUP6 PUSH2 0x6DB JUMP JUMPDEST CALLER PUSH1 0x2 PUSH1 0x0 PUSH2 0x100 EXP DUP2 SLOAD DUP2 PUSH20 0xFFFFFFFFFFFFFFFFFFFFFFFFFFFFFFFFFFFFFFFF MUL NOT AND SWAP1 DUP4 PUSH20 0xFFFFFFFFFFFFFFFFFFFFFFFFFFFFFFFFFFFFFFFF AND MUL OR SWAP1 SSTORE POP DUP1 PUSH1 0x4 DUP2 SWAP1 SSTORE POP DUP4 PUSH1 0x5 DUP2 SWAP1 SSTORE POP DUP3 PUSH1 0x6 DUP2 SWAP1 SSTORE POP DUP2 PUSH1 0x7 DUP2 SWAP1 SSTORE POP PUSH1 0x1 PUSH1 0x8 PUSH1 0x0 PUSH2 0x100 EXP DUP2 SLOAD DUP2 PUSH1 0xFF MUL NOT AND SWAP1 DUP4 PUSH1 0x2 DUP2 GT ISZERO PUSH2 0x37F JUMPI PUSH2 0x37E PUSH2 0x9BA JUMP JUMPDEST JUMPDEST MUL OR SWAP1 SSTORE POP POP POP POP POP POP JUMP JUMPDEST PUSH1 0x7 SLOAD DUP2 JUMP JUMPDEST PUSH2 0x399 PUSH2 0x79F JUMP JUMPDEST PUSH2 0x3A3 PUSH1 0x0 PUSH2 0x6DB JUMP JUMPDEST JUMP JUMPDEST PUSH1 0x2 PUSH1 0x0 SWAP1 SLOAD SWAP1 PUSH2 0x100 EXP SWAP1 DIV PUSH20 0xFFFFFFFFFFFFFFFFFFFFFFFFFFFFFFFFFFFFFFFF AND DUP2 JUMP JUMPDEST PUSH1 0x0 DUP1 PUSH1 0x0 SWAP1 SLOAD SWAP1 PUSH2 0x100 EXP SWAP1 DIV PUSH20 0xFFFFFFFFFFFFFFFFFFFFFFFFFFFFFFFFFFFFFFFF AND SWAP1 POP SWAP1 JUMP JUMPDEST PUSH1 0x6 SLOAD DUP2 JUMP JUMPDEST PUSH1 0x0 PUSH2 0x404 PUSH2 0x79F JUMP JUMPDEST PUSH1 0x0 PUSH1 0x3 DUP1 SLOAD SWAP1 POP GT PUSH2 0x44C JUMPI PUSH1 0x40 MLOAD PUSH32 0x8C379A000000000000000000000000000000000000000000000000000000000 DUP2 MSTORE PUSH1 0x4 ADD PUSH2 0x443 SWAP1 PUSH2 0xAD8 JUMP JUMPDEST PUSH1 0x40 MLOAD DUP1 SWAP2 SUB SWAP1 REVERT JUMPDEST PUSH1 0x0 PUSH1 0x3 PUSH1 0x1 PUSH1 0x3 DUP1 SLOAD SWAP1 POP PUSH2 0x462 SWAP2 SWAP1 PUSH2 0xB27 JUMP JUMPDEST DUP2 SLOAD DUP2 LT PUSH2 0x473 JUMPI PUSH2 0x472 PUSH2 0xB5B JUMP JUMPDEST JUMPDEST SWAP1 PUSH1 0x0 MSTORE PUSH1 0x20 PUSH1 0x0 KECCAK256 ADD PUSH1 0x0 SWAP1 SLOAD SWAP1 PUSH2 0x100 EXP SWAP1 DIV PUSH20 0xFFFFFFFFFFFFFFFFFFFFFFFFFFFFFFFFFFFFFFFF AND SWAP1 POP PUSH1 0x3 DUP1 SLOAD DUP1 PUSH2 0x4B2 JUMPI PUSH2 0x4B1 PUSH2 0xB8A JUMP JUMPDEST JUMPDEST PUSH1 0x1 SWAP1 SUB DUP2 DUP2 SWAP1 PUSH1 0x0 MSTORE PUSH1 0x20 PUSH1 0x0 KECCAK256 ADD PUSH1 0x0 PUSH2 0x100 EXP DUP2 SLOAD SWAP1 PUSH20 0xFFFFFFFFFFFFFFFFFFFFFFFFFFFFFFFFFFFFFFFF MUL NOT AND SWAP1 SSTORE SWAP1 SSTORE DUP1 SWAP2 POP POP SWAP1 JUMP JUMPDEST PUSH1 0x1 PUSH1 0x0 SWAP1 SLOAD SWAP1 PUSH2 0x100 EXP SWAP1 DIV PUSH20 0xFFFFFFFFFFFFFFFFFFFFFFFFFFFFFFFFFFFFFFFF AND DUP2 JUMP JUMPDEST PUSH2 0x51C PUSH2 0x79F JUMP JUMPDEST PUSH1 0x0 PUSH20 0xFFFFFFFFFFFFFFFFFFFFFFFFFFFFFFFFFFFFFFFF AND DUP2 PUSH20 0xFFFFFFFFFFFFFFFFFFFFFFFFFFFFFFFFFFFFFFFF AND SUB PUSH2 0x58B JUMPI PUSH1 0x40 MLOAD PUSH32 0x8C379A000000000000000000000000000000000000000000000000000000000 DUP2 MSTORE PUSH1 0x4 ADD PUSH2 0x582 SWAP1 PUSH2 0xC2B JUMP JUMPDEST PUSH1 0x40 MLOAD DUP1 SWAP2 SUB SWAP1 REVERT JUMPDEST PUSH2 0x594 DUP2 PUSH2 0x6DB JUMP JUMPDEST POP JUMP JUMPDEST PUSH2 0x59F PUSH2 0x3CB JUMP JUMPDEST PUSH20 0xFFFFFFFFFFFFFFFFFFFFFFFFFFFFFFFFFFFFFFFF AND CALLER PUSH20 0xFFFFFFFFFFFFFFFFFFFFFFFFFFFFFFFFFFFFFFFF AND SUB PUSH2 0x60C JUMPI PUSH1 0x40 MLOAD PUSH32 0x8C379A000000000000000000000000000000000000000000000000000000000 DUP2 MSTORE PUSH1 0x4 ADD PUSH2 0x603 SWAP1 PUSH2 0xCBD JUMP JUMPDEST PUSH1 0x40 MLOAD DUP1 SWAP2 SUB SWAP1 REVERT JUMPDEST PUSH1 0x6 SLOAD PUSH1 0x7 SLOAD PUSH2 0x61C SWAP2 SWAP1 PUSH2 0xCDD JUMP JUMPDEST CALLVALUE EQ PUSH2 0x65D JUMPI PUSH1 0x40 MLOAD PUSH32 0x8C379A000000000000000000000000000000000000000000000000000000000 DUP2 MSTORE PUSH1 0x4 ADD PUSH2 0x654 SWAP1 PUSH2 0xD91 JUMP JUMPDEST PUSH1 0x40 MLOAD DUP1 SWAP2 SUB SWAP1 REVERT JUMPDEST PUSH1 0x4 SLOAD PUSH1 0x3 DUP1 SLOAD SWAP1 POP LT PUSH2 0x670 JUMPI PUSH1 0x0 DUP1 REVERT JUMPDEST PUSH1 0x3 CALLER SWAP1 DUP1 PUSH1 0x1 DUP2 SLOAD ADD DUP1 DUP3 SSTORE DUP1 SWAP2 POP POP PUSH1 0x1 SWAP1 SUB SWAP1 PUSH1 0x0 MSTORE PUSH1 0x20 PUSH1 0x0 KECCAK256 ADD PUSH1 0x0 SWAP1 SWAP2 SWAP1 SWAP2 SWAP1 SWAP2 PUSH2 0x100 EXP DUP2 SLOAD DUP2 PUSH20 0xFFFFFFFFFFFFFFFFFFFFFFFFFFFFFFFFFFFFFFFF MUL NOT AND SWAP1 DUP4 PUSH20 0xFFFFFFFFFFFFFFFFFFFFFFFFFFFFFFFFFFFFFFFF AND MUL OR SWAP1 SSTORE POP JUMP JUMPDEST PUSH1 0x5 SLOAD DUP2 JUMP JUMPDEST PUSH1 0x0 DUP1 PUSH1 0x0 SWAP1 SLOAD SWAP1 PUSH2 0x100 EXP SWAP1 DIV PUSH20 0xFFFFFFFFFFFFFFFFFFFFFFFFFFFFFFFFFFFFFFFF AND SWAP1 POP DUP2 PUSH1 0x0 DUP1 PUSH2 0x100 EXP DUP2 SLOAD DUP2 PUSH20 0xFFFFFFFFFFFFFFFFFFFFFFFFFFFFFFFFFFFFFFFF MUL NOT AND SWAP1 DUP4 PUSH20 0xFFFFFFFFFFFFFFFFFFFFFFFFFFFFFFFFFFFFFFFF AND MUL OR SWAP1 SSTORE POP DUP2 PUSH20 0xFFFFFFFFFFFFFFFFFFFFFFFFFFFFFFFFFFFFFFFF AND DUP2 PUSH20 0xFFFFFFFFFFFFFFFFFFFFFFFFFFFFFFFFFFFFFFFF AND PUSH32 0x8BE0079C531659141344CD1FD0A4F28419497F9722A3DAAFE3B4186F6B6457E0 PUSH1 0x40 MLOAD PUSH1 0x40 MLOAD DUP1 SWAP2 SUB SWAP1 LOG3 POP POP JUMP JUMPDEST PUSH2 0x7A7 PUSH2 0x81D JUMP JUMPDEST PUSH20 0xFFFFFFFFFFFFFFFFFFFFFFFFFFFFFFFFFFFFFFFF AND PUSH2 0x7C5 PUSH2 0x3CB JUMP JUMPDEST PUSH20 0xFFFFFFFFFFFFFFFFFFFFFFFFFFFFFFFFFFFFFFFF AND EQ PUSH2 0x81B JUMPI PUSH1 0x40 MLOAD PUSH32 0x8C379A000000000000000000000000000000000000000000000000000000000 DUP2 MSTORE PUSH1 0x4 ADD PUSH2 0x812 SWAP1 PUSH2 0xDFD JUMP JUMPDEST PUSH1 0x40 MLOAD DUP1 SWAP2 SUB SWAP1 REVERT JUMPDEST JUMP JUMPDEST PUSH1 0x0 CALLER SWAP1 POP SWAP1 JUMP JUMPDEST PUSH1 0x0 DUP2 SWAP1 POP SWAP2 SWAP1 POP JUMP JUMPDEST PUSH2 0x838 DUP2 PUSH2 0x825 JUMP JUMPDEST DUP3 MSTORE POP POP JUMP JUMPDEST PUSH1 0x0 PUSH1 0x20 DUP3 ADD SWAP1 POP PUSH2 0x853 PUSH1 0x0 DUP4 ADD DUP5 PUSH2 0x82F JUMP JUMPDEST SWAP3 SWAP2 POP POP JUMP JUMPDEST PUSH1 0x0 DUP1 REVERT JUMPDEST PUSH1 0x0 PUSH20 0xFFFFFFFFFFFFFFFFFFFFFFFFFFFFFFFFFFFFFFFF DUP3 AND SWAP1 POP SWAP2 SWAP1 POP JUMP JUMPDEST PUSH1 0x0 PUSH2 0x889 DUP3 PUSH2 0x85E JUMP JUMPDEST SWAP1 POP SWAP2 SWAP1 POP JUMP JUMPDEST PUSH2 0x899 DUP2 PUSH2 0x87E JUMP JUMPDEST DUP2 EQ PUSH2 0x8A4 JUMPI PUSH1 0x0 DUP1 REVERT JUMPDEST POP JUMP JUMPDEST PUSH1 0x0 DUP2 CALLDATALOAD SWAP1 POP PUSH2 0x8B6 DUP2 PUSH2 0x890 JUMP JUMPDEST SWAP3 SWAP2 POP POP JUMP JUMPDEST PUSH2 0x8C5 DUP2 PUSH2 0x825 JUMP JUMPDEST DUP2 EQ PUSH2 0x8D0 JUMPI PUSH1 0x0 DUP1 REVERT JUMPDEST POP JUMP JUMPDEST PUSH1 0x0 DUP2 CALLDATALOAD SWAP1 POP PUSH2 0x8E2 DUP2 PUSH2 0x8BC JUMP JUMPDEST SWAP3 SWAP2 POP POP JUMP JUMPDEST PUSH1 0x0 DUP1 PUSH1 0x0 DUP1 PUSH1 0x0 PUSH1 0xA0 DUP7 DUP9 SUB SLT ISZERO PUSH2 0x904 JUMPI PUSH2 0x903 PUSH2 0x859 JUMP JUMPDEST JUMPDEST PUSH1 0x0 PUSH2 0x912 DUP9 DUP3 DUP10 ADD PUSH2 0x8A7 JUMP JUMPDEST SWAP6 POP POP PUSH1 0x20 PUSH2 0x923 DUP9 DUP3 DUP10 ADD PUSH2 0x8D3 JUMP JUMPDEST SWAP5 POP POP PUSH1 0x40 PUSH2 0x934 DUP9 DUP3 DUP10 ADD PUSH2 0x8D3 JUMP JUMPDEST SWAP4 POP POP PUSH1 0x60 PUSH2 0x945 DUP9 DUP3 DUP10 ADD PUSH2 0x8D3 JUMP JUMPDEST SWAP3 POP POP PUSH1 0x80 PUSH2 0x956 DUP9 DUP3 DUP10 ADD PUSH2 0x8D3 JUMP JUMPDEST SWAP2 POP POP SWAP3 SWAP6 POP SWAP3 SWAP6 SWAP1 SWAP4 POP JUMP JUMPDEST PUSH2 0x96C DUP2 PUSH2 0x87E JUMP JUMPDEST DUP3 MSTORE POP POP JUMP JUMPDEST PUSH1 0x0 PUSH1 0x20 DUP3 ADD SWAP1 POP PUSH2 0x987 PUSH1 0x0 DUP4 ADD DUP5 PUSH2 0x963 JUMP JUMPDEST SWAP3 SWAP2 POP POP JUMP JUMPDEST PUSH1 0x0 PUSH1 0x20 DUP3 DUP5 SUB SLT ISZERO PUSH2 0x9A3 JUMPI PUSH2 0x9A2 PUSH2 0x859 JUMP JUMPDEST JUMPDEST PUSH1 0x0 PUSH2 0x9B1 DUP5 DUP3 DUP6 ADD PUSH2 0x8A7 JUMP JUMPDEST SWAP2 POP POP SWAP3 SWAP2 POP POP JUMP JUMPDEST PUSH32 0x4E487B7100000000000000000000000000000000000000000000000000000000 PUSH1 0x0 MSTORE PUSH1 0x21 PUSH1 0x4 MSTORE PUSH1 0x24 PUSH1 0x0 REVERT JUMPDEST PUSH1 0x0 DUP3 DUP3 MSTORE PUSH1 0x20 DUP3 ADD SWAP1 POP SWAP3 SWAP2 POP POP JUMP JUMPDEST PUSH32 0x546869732070726F647563652068617320616C7265616479206265656E20696E PUSH1 0x0 DUP3 ADD MSTORE PUSH32 0x6974696C697A6564000000000000000000000000000000000000000000000000 PUSH1 0x20 DUP3 ADD MSTORE POP JUMP JUMPDEST PUSH1 0x0 PUSH2 0xA56 PUSH1 0x28 DUP4 PUSH2 0x9E9 JUMP JUMPDEST SWAP2 POP PUSH2 0xA61 DUP3 PUSH2 0x9FA JUMP JUMPDEST PUSH1 0x40 DUP3 ADD SWAP1 POP SWAP2 SWAP1 POP JUMP JUMPDEST PUSH1 0x0 PUSH1 0x20 DUP3 ADD SWAP1 POP DUP2 DUP2 SUB PUSH1 0x0 DUP4 ADD MSTORE PUSH2 0xA85 DUP2 PUSH2 0xA49 JUMP JUMPDEST SWAP1 POP SWAP2 SWAP1 POP JUMP JUMPDEST PUSH32 0x4E6F206F726465727320746F2074616B65000000000000000000000000000000 PUSH1 0x0 DUP3 ADD MSTORE POP JUMP JUMPDEST PUSH1 0x0 PUSH2 0xAC2 PUSH1 0x11 DUP4 PUSH2 0x9E9 JUMP JUMPDEST SWAP2 POP PUSH2 0xACD DUP3 PUSH2 0xA8C JUMP JUMPDEST PUSH1 0x20 DUP3 ADD SWAP1 POP SWAP2 SWAP1 POP JUMP JUMPDEST PUSH1 0x0 PUSH1 0x20 DUP3 ADD SWAP1 POP DUP2 DUP2 SUB PUSH1 0x0 DUP4 ADD MSTORE PUSH2 0xAF1 DUP2 PUSH2 0xAB5 JUMP JUMPDEST SWAP1 POP SWAP2 SWAP1 POP JUMP JUMPDEST PUSH32 0x4E487B7100000000000000000000000000000000000000000000000000000000 PUSH1 0x0 MSTORE PUSH1 0x11 PUSH1 0x4 MSTORE PUSH1 0x24 PUSH1 0x0 REVERT JUMPDEST PUSH1 0x0 PUSH2 0xB32 DUP3 PUSH2 0x825 JUMP JUMPDEST SWAP2 POP PUSH2 0xB3D DUP4 PUSH2 0x825 JUMP JUMPDEST SWAP3 POP DUP3 DUP3 SUB SWAP1 POP DUP2 DUP2 GT ISZERO PUSH2 0xB55 JUMPI PUSH2 0xB54 PUSH2 0xAF8 JUMP JUMPDEST JUMPDEST SWAP3 SWAP2 POP POP JUMP JUMPDEST PUSH32 0x4E487B7100000000000000000000000000000000000000000000000000000000 PUSH1 0x0 MSTORE PUSH1 0x32 PUSH1 0x4 MSTORE PUSH1 0x24 PUSH1 0x0 REVERT JUMPDEST PUSH32 0x4E487B7100000000000000000000000000000000000000000000000000000000 PUSH1 0x0 MSTORE PUSH1 0x31 PUSH1 0x4 MSTORE PUSH1 0x24 PUSH1 0x0 REVERT JUMPDEST PUSH32 0x4F776E61626C653A206E6577206F776E657220697320746865207A65726F2061 PUSH1 0x0 DUP3 ADD MSTORE PUSH32 0x6464726573730000000000000000000000000000000000000000000000000000 PUSH1 0x20 DUP3 ADD MSTORE POP JUMP JUMPDEST PUSH1 0x0 PUSH2 0xC15 PUSH1 0x26 DUP4 PUSH2 0x9E9 JUMP JUMPDEST SWAP2 POP PUSH2 0xC20 DUP3 PUSH2 0xBB9 JUMP JUMPDEST PUSH1 0x40 DUP3 ADD SWAP1 POP SWAP2 SWAP1 POP JUMP JUMPDEST PUSH1 0x0 PUSH1 0x20 DUP3 ADD SWAP1 POP DUP2 DUP2 SUB PUSH1 0x0 DUP4 ADD MSTORE PUSH2 0xC44 DUP2 PUSH2 0xC08 JUMP JUMPDEST SWAP1 POP SWAP2 SWAP1 POP JUMP JUMPDEST PUSH32 0x6661726D65722063616E6E6F7420706C616365206F7264657220666F72207468 PUSH1 0x0 DUP3 ADD MSTORE PUSH32 0x656972206F776E2070726F647563650000000000000000000000000000000000 PUSH1 0x20 DUP3 ADD MSTORE POP JUMP JUMPDEST PUSH1 0x0 PUSH2 0xCA7 PUSH1 0x2F DUP4 PUSH2 0x9E9 JUMP JUMPDEST SWAP2 POP PUSH2 0xCB2 DUP3 PUSH2 0xC4B JUMP JUMPDEST PUSH1 0x40 DUP3 ADD SWAP1 POP SWAP2 SWAP1 POP JUMP JUMPDEST PUSH1 0x0 PUSH1 0x20 DUP3 ADD SWAP1 POP DUP2 DUP2 SUB PUSH1 0x0 DUP4 ADD MSTORE PUSH2 0xCD6 DUP2 PUSH2 0xC9A JUMP JUMPDEST SWAP1 POP SWAP2 SWAP1 POP JUMP JUMPDEST PUSH1 0x0 PUSH2 0xCE8 DUP3 PUSH2 0x825 JUMP JUMPDEST SWAP2 POP PUSH2 0xCF3 DUP4 PUSH2 0x825 JUMP JUMPDEST SWAP3 POP DUP3 DUP3 MUL PUSH2 0xD01 DUP2 PUSH2 0x825 JUMP JUMPDEST SWAP2 POP DUP3 DUP3 DIV DUP5 EQ DUP4 ISZERO OR PUSH2 0xD18 JUMPI PUSH2 0xD17 PUSH2 0xAF8 JUMP JUMPDEST JUMPDEST POP SWAP3 SWAP2 POP POP JUMP JUMPDEST PUSH32 0x6F72646572206D757374206265206F6620636F72726563742073697A6520616E PUSH1 0x0 DUP3 ADD MSTORE PUSH32 0x6420707269636500000000000000000000000000000000000000000000000000 PUSH1 0x20 DUP3 ADD MSTORE POP JUMP JUMPDEST PUSH1 0x0 PUSH2 0xD7B PUSH1 0x27 DUP4 PUSH2 0x9E9 JUMP JUMPDEST SWAP2 POP PUSH2 0xD86 DUP3 PUSH2 0xD1F JUMP JUMPDEST PUSH1 0x40 DUP3 ADD SWAP1 POP SWAP2 SWAP1 POP JUMP JUMPDEST PUSH1 0x0 PUSH1 0x20 DUP3 ADD SWAP1 POP DUP2 DUP2 SUB PUSH1 0x0 DUP4 ADD MSTORE PUSH2 0xDAA DUP2 PUSH2 0xD6E JUMP JUMPDEST SWAP1 POP SWAP2 SWAP1 POP JUMP JUMPDEST PUSH32 0x4F776E61626C653A2063616C6C6572206973206E6F7420746865206F776E6572 PUSH1 0x0 DUP3 ADD MSTORE POP JUMP JUMPDEST PUSH1 0x0 PUSH2 0xDE7 PUSH1 0x20 DUP4 PUSH2 0x9E9 JUMP JUMPDEST SWAP2 POP PUSH2 0xDF2 DUP3 PUSH2 0xDB1 JUMP JUMPDEST PUSH1 0x20 DUP3 ADD SWAP1 POP SWAP2 SWAP1 POP JUMP JUMPDEST PUSH1 0x0 PUSH1 0x20 DUP3 ADD SWAP1 POP DUP2 DUP2 SUB PUSH1 0x0 DUP4 ADD MSTORE PUSH2 0xE16 DUP2 PUSH2 0xDDA JUMP JUMPDEST SWAP1 POP SWAP2 SWAP1 POP JUMP INVALID LOG2 PUSH5 0x6970667358 0x22 SLT KECCAK256 SHR 0xC7 EXTCODEHASH 0xF6 0xEC 0xF9 0xF6 PUSH9 0x4DB2DF002A87DA99F2 0xA6 MSTORE8 0x5F 0xCE CALLDATACOPY ADD DUP15 SWAP13 DUP5 DUP4 0xAB 0x1F CALL JUMPDEST 0xBF PUSH5 0x736F6C6343 STOP ADDMOD SLT STOP CALLER "
				},
				"gasEstimates": {
					"creation": {
						"codeDepositCost": "468400",
						"executionCost": "infinite",
						"totalCost": "infinite"
					},
					"external": {
						"addProduce(uint256,uint256,uint256,uint256)": "infinite",
						"farmerList(address)": "2867",
						"removeProduce(address)": "infinite"
					}
				},
				"methodIdentifiers": {
					"addProduce(uint256,uint256,uint256,uint256)": "18661ddb",
					"farmerList(address)": "a1d861a9",
					"removeProduce(address)": "7b6833c3"
				}
			},
			"storageLayout": {
				"storage": [
					{
						"astId": 223,
						"contract": "contracts/Market.sol:Market",
						"label": "produceAddresses",
						"offset": 0,
						"slot": "0",
						"type": "t_array(t_address)dyn_storage"
					},
					{
						"astId": 227,
						"contract": "contracts/Market.sol:Market",
						"label": "produceList",
						"offset": 0,
						"slot": "1",
						"type": "t_mapping(t_address,t_bool)"
					},
					{
						"astId": 231,
						"contract": "contracts/Market.sol:Market",
						"label": "farmerList",
						"offset": 0,
						"slot": "2",
						"type": "t_mapping(t_address,t_bool)"
					}
				],
				"types": {
					"t_address": {
						"encoding": "inplace",
						"label": "address",
						"numberOfBytes": "20"
					},
					"t_array(t_address)dyn_storage": {
						"base": "t_address",
						"encoding": "dynamic_array",
						"label": "address[]",
						"numberOfBytes": "32"
					},
					"t_bool": {
						"encoding": "inplace",
						"label": "bool",
						"numberOfBytes": "1"
					},
					"t_mapping(t_address,t_bool)": {
						"encoding": "mapping",
						"key": "t_address",
						"label": "mapping(address => bool)",
						"numberOfBytes": "32",
						"value": "t_bool"
					}
				}
			},
			"userdoc": {
				"kind": "user",
				"methods": {},
				"version": 1
			}
		}
	}
}