{
	"contracts/Market.sol": {
		"Market": {
			"abi": [
				{
					"inputs": [],
					"stateMutability": "nonpayable",
					"type": "constructor"
				},
				{
					"anonymous": false,
					"inputs": [
						{
							"indexed": false,
							"internalType": "address",
							"name": "produce",
							"type": "address"
						},
						{
							"indexed": false,
							"internalType": "address",
							"name": "farmer",
							"type": "address"
						}
					],
					"name": "ProduceAddedToMarket",
					"type": "event"
				},
				{
					"anonymous": false,
					"inputs": [
						{
							"indexed": false,
							"internalType": "address",
							"name": "produce",
							"type": "address"
						}
					],
					"name": "ProduceDeletedFromMarket",
					"type": "event"
				},
				{
					"inputs": [
						{
							"internalType": "bytes32",
							"name": "_produceHash",
							"type": "bytes32"
						},
						{
							"internalType": "uint256",
							"name": "_price",
							"type": "uint256"
						},
						{
							"internalType": "uint256",
							"name": "_orderSize",
							"type": "uint256"
						}
					],
					"name": "addProduce",
					"outputs": [],
					"stateMutability": "nonpayable",
					"type": "function"
				},
				{
					"inputs": [
						{
							"internalType": "address",
							"name": "",
							"type": "address"
						}
					],
					"name": "farmerList",
					"outputs": [
						{
							"internalType": "bool",
							"name": "",
							"type": "bool"
						}
					],
					"stateMutability": "view",
					"type": "function"
				},
				{
					"inputs": [
						{
							"internalType": "address",
							"name": "",
							"type": "address"
						}
					],
					"name": "produceList",
					"outputs": [
						{
							"internalType": "bool",
							"name": "",
							"type": "bool"
						}
					],
					"stateMutability": "view",
					"type": "function"
				},
				{
					"inputs": [],
					"name": "removeProduce",
					"outputs": [],
					"stateMutability": "nonpayable",
					"type": "function"
				}
			],
			"devdoc": {
				"kind": "dev",
				"methods": {},
				"version": 1
			},
			"evm": {
				"assembly": "    /* \"contracts/Market.sol\":142:1552  contract Market {... */\n  mstore(0x40, 0xa0)\n    /* \"contracts/Market.sol\":683:760  constructor() {... */\n  callvalue\n  dup1\n  iszero\n  tag_1\n  jumpi\n  0x00\n  dup1\n  revert\ntag_1:\n  pop\n    /* \"contracts/Market.sol\":739:752  new Produce() */\n  mload(0x40)\n  tag_4\n  swap1\n  tag_5\n  jump\t// in\ntag_4:\n  mload(0x40)\n  dup1\n  swap2\n  sub\n  swap1\n  0x00\n  create\n  dup1\n  iszero\n  dup1\n  iszero\n  tag_6\n  jumpi\n  returndatasize\n  0x00\n  dup1\n  returndatacopy\n  revert(0x00, returndatasize)\ntag_6:\n  pop\n    /* \"contracts/Market.sol\":707:753  produceImplementation = address(new Produce()) */\n  0xffffffffffffffffffffffffffffffffffffffff\n  and\n  0x80\n  dup2\n  0xffffffffffffffffffffffffffffffffffffffff\n  and\n  0x60\n  shl\n  dup2\n  mstore\n  pop\n  pop\n    /* \"contracts/Market.sol\":142:1552  contract Market {... */\n  jump(tag_7)\ntag_5:\n  dataSize(sub_1)\n  dup1\n  dataOffset(sub_1)\n  dup4\n  codecopy\n  add\n  swap1\n  jump\t// out\ntag_7:\n  shr(0x60, mload(0x80))\n  codecopy(0x00, dataOffset(sub_0), dataSize(sub_0))\n  0x00\n  assignImmutable(\"0x1a87bd8a90f68e1a783aeb62d8f14bea0949c88f942ad2b7737dddede78696b4\")\n  return(0x00, dataSize(sub_0))\nstop\n\nsub_0: assembly {\n        /* \"contracts/Market.sol\":142:1552  contract Market {... */\n      mstore(0x40, 0x80)\n      callvalue\n      dup1\n      iszero\n      tag_1\n      jumpi\n      0x00\n      dup1\n      revert\n    tag_1:\n      pop\n      jumpi(tag_2, lt(calldatasize, 0x04))\n      shr(0xe0, calldataload(0x00))\n      dup1\n      0x019b1e0a\n      eq\n      tag_3\n      jumpi\n      dup1\n      0x445cc412\n      eq\n      tag_4\n      jumpi\n      dup1\n      0x9def9846\n      eq\n      tag_5\n      jumpi\n      dup1\n      0xa1d861a9\n      eq\n      tag_6\n      jumpi\n    tag_2:\n      0x00\n      dup1\n      revert\n        /* \"contracts/Market.sol\":439:481  mapping(address=> bool) public produceList */\n    tag_3:\n      tag_7\n      0x04\n      dup1\n      calldatasize\n      sub\n      dup2\n      add\n      swap1\n      tag_8\n      swap2\n      swap1\n      tag_9\n      jump\t// in\n    tag_8:\n      tag_10\n      jump\t// in\n    tag_7:\n      mload(0x40)\n      tag_11\n      swap2\n      swap1\n      tag_12\n      jump\t// in\n    tag_11:\n      mload(0x40)\n      dup1\n      swap2\n      sub\n      swap1\n      return\n        /* \"contracts/Market.sol\":767:1325  function addProduce( ... */\n    tag_4:\n      tag_13\n      0x04\n      dup1\n      calldatasize\n      sub\n      dup2\n      add\n      swap1\n      tag_14\n      swap2\n      swap1\n      tag_15\n      jump\t// in\n    tag_14:\n      tag_16\n      jump\t// in\n    tag_13:\n      stop\n        /* \"contracts/Market.sol\":1331:1548  function removeProduce() public {... */\n    tag_5:\n      tag_17\n      tag_18\n      jump\t// in\n    tag_17:\n      stop\n        /* \"contracts/Market.sol\":635:676  mapping(address=> bool) public farmerList */\n    tag_6:\n      tag_19\n      0x04\n      dup1\n      calldatasize\n      sub\n      dup2\n      add\n      swap1\n      tag_20\n      swap2\n      swap1\n      tag_9\n      jump\t// in\n    tag_20:\n      tag_21\n      jump\t// in\n    tag_19:\n      mload(0x40)\n      tag_22\n      swap2\n      swap1\n      tag_12\n      jump\t// in\n    tag_22:\n      mload(0x40)\n      dup1\n      swap2\n      sub\n      swap1\n      return\n        /* \"contracts/Market.sol\":439:481  mapping(address=> bool) public produceList */\n    tag_10:\n      mstore(0x20, 0x00)\n      dup1\n      0x00\n      mstore\n      keccak256(0x00, 0x40)\n      0x00\n      swap2\n      pop\n      sload\n      swap1\n      0x0100\n      exp\n      swap1\n      div\n      0xff\n      and\n      dup2\n      jump\t// out\n        /* \"contracts/Market.sol\":767:1325  function addProduce( ... */\n    tag_16:\n        /* \"contracts/Market.sol\":903:926  address newProduceClone */\n      0x00\n        /* \"contracts/Market.sol\":929:964  Clones.clone(produceImplementation) */\n      tag_24\n        /* \"contracts/Market.sol\":942:963  produceImplementation */\n      immutable(\"0x1a87bd8a90f68e1a783aeb62d8f14bea0949c88f942ad2b7737dddede78696b4\")\n        /* \"contracts/Market.sol\":929:941  Clones.clone */\n      tag_25\n        /* \"contracts/Market.sol\":929:964  Clones.clone(produceImplementation) */\n      jump\t// in\n    tag_24:\n        /* \"contracts/Market.sol\":903:964  address newProduceClone = Clones.clone(produceImplementation) */\n      swap1\n      pop\n        /* \"contracts/Market.sol\":986:1001  newProduceClone */\n      dup1\n        /* \"contracts/Market.sol\":978:1012  Produce(newProduceClone).initilize */\n      0xffffffffffffffffffffffffffffffffffffffff\n      and\n      0x76c820f6\n        /* \"contracts/Market.sol\":1031:1041  msg.sender */\n      caller\n        /* \"contracts/Market.sol\":1060:1072  _produceHash */\n      dup7\n        /* \"contracts/Market.sol\":1091:1097  _price */\n      dup7\n        /* \"contracts/Market.sol\":1116:1126  _orderSize */\n      dup7\n        /* \"contracts/Market.sol\":978:1140  Produce(newProduceClone).initilize(... */\n      mload(0x40)\n      dup6\n      0xffffffff\n      and\n      0xe0\n      shl\n      dup2\n      mstore\n      0x04\n      add\n      tag_26\n      swap5\n      swap4\n      swap3\n      swap2\n      swap1\n      tag_27\n      jump\t// in\n    tag_26:\n      0x00\n      mload(0x40)\n      dup1\n      dup4\n      sub\n      dup2\n      0x00\n      dup8\n      dup1\n      extcodesize\n      iszero\n      dup1\n      iszero\n      tag_28\n      jumpi\n      0x00\n      dup1\n      revert\n    tag_28:\n      pop\n      gas\n      call\n      iszero\n      dup1\n      iszero\n      tag_30\n      jumpi\n      returndatasize\n      0x00\n      dup1\n      returndatacopy\n      revert(0x00, returndatasize)\n    tag_30:\n      pop\n      pop\n      pop\n      pop\n        /* \"contracts/Market.sol\":1194:1198  true */\n      0x01\n        /* \"contracts/Market.sol\":1154:1165  produceList */\n      0x00\n        /* \"contracts/Market.sol\":1154:1191  produceList[address(newProduceClone)] */\n      dup1\n        /* \"contracts/Market.sol\":1174:1189  newProduceClone */\n      dup4\n        /* \"contracts/Market.sol\":1154:1191  produceList[address(newProduceClone)] */\n      0xffffffffffffffffffffffffffffffffffffffff\n      and\n      0xffffffffffffffffffffffffffffffffffffffff\n      and\n      dup2\n      mstore\n      0x20\n      add\n      swap1\n      dup2\n      mstore\n      0x20\n      add\n      0x00\n      keccak256\n      0x00\n        /* \"contracts/Market.sol\":1154:1198  produceList[address(newProduceClone)] = true */\n      0x0100\n      exp\n      dup2\n      sload\n      dup2\n      0xff\n      mul\n      not\n      and\n      swap1\n      dup4\n      iszero\n      iszero\n      mul\n      or\n      swap1\n      sstore\n      pop\n        /* \"contracts/Market.sol\":1237:1241  true */\n      0x01\n        /* \"contracts/Market.sol\":1212:1222  farmerList */\n      dup1\n        /* \"contracts/Market.sol\":1212:1234  farmerList[msg.sender] */\n      0x00\n        /* \"contracts/Market.sol\":1223:1233  msg.sender */\n      caller\n        /* \"contracts/Market.sol\":1212:1234  farmerList[msg.sender] */\n      0xffffffffffffffffffffffffffffffffffffffff\n      and\n      0xffffffffffffffffffffffffffffffffffffffff\n      and\n      dup2\n      mstore\n      0x20\n      add\n      swap1\n      dup2\n      mstore\n      0x20\n      add\n      0x00\n      keccak256\n      0x00\n        /* \"contracts/Market.sol\":1212:1241  farmerList[msg.sender] = true */\n      0x0100\n      exp\n      dup2\n      sload\n      dup2\n      0xff\n      mul\n      not\n      and\n      swap1\n      dup4\n      iszero\n      iszero\n      mul\n      or\n      swap1\n      sstore\n      pop\n        /* \"contracts/Market.sol\":1260:1318  ProduceAddedToMarket(address(newProduceClone), msg.sender) */\n      0xb684fa9d171811ea44de622bf7206329d0d78c3c4516f49225d183e2b2380a4f\n        /* \"contracts/Market.sol\":1289:1304  newProduceClone */\n      dup2\n        /* \"contracts/Market.sol\":1307:1317  msg.sender */\n      caller\n        /* \"contracts/Market.sol\":1260:1318  ProduceAddedToMarket(address(newProduceClone), msg.sender) */\n      mload(0x40)\n      tag_31\n      swap3\n      swap2\n      swap1\n      tag_32\n      jump\t// in\n    tag_31:\n      mload(0x40)\n      dup1\n      swap2\n      sub\n      swap1\n      log1\n        /* \"contracts/Market.sol\":889:1325  {... */\n      pop\n        /* \"contracts/Market.sol\":767:1325  function addProduce( ... */\n      pop\n      pop\n      pop\n      jump\t// out\n        /* \"contracts/Market.sol\":1331:1548  function removeProduce() public {... */\n    tag_18:\n        /* \"contracts/Market.sol\":1381:1392  produceList */\n      0x00\n        /* \"contracts/Market.sol\":1381:1404  produceList[msg.sender] */\n      dup1\n        /* \"contracts/Market.sol\":1393:1403  msg.sender */\n      caller\n        /* \"contracts/Market.sol\":1381:1404  produceList[msg.sender] */\n      0xffffffffffffffffffffffffffffffffffffffff\n      and\n      0xffffffffffffffffffffffffffffffffffffffff\n      and\n      dup2\n      mstore\n      0x20\n      add\n      swap1\n      dup2\n      mstore\n      0x20\n      add\n      0x00\n      keccak256\n      0x00\n      swap1\n      sload\n      swap1\n      0x0100\n      exp\n      swap1\n      div\n      0xff\n      and\n        /* \"contracts/Market.sol\":1373:1449  require(produceList[msg.sender], \"This produce is not listed on the Market\") */\n      tag_34\n      jumpi\n      mload(0x40)\n      0x08c379a000000000000000000000000000000000000000000000000000000000\n      dup2\n      mstore\n      0x04\n      add\n      tag_35\n      swap1\n      tag_36\n      jump\t// in\n    tag_35:\n      mload(0x40)\n      dup1\n      swap2\n      sub\n      swap1\n      revert\n    tag_34:\n        /* \"contracts/Market.sol\":1485:1490  false */\n      0x00\n        /* \"contracts/Market.sol\":1459:1470  produceList */\n      dup1\n        /* \"contracts/Market.sol\":1459:1482  produceList[msg.sender] */\n      0x00\n        /* \"contracts/Market.sol\":1471:1481  msg.sender */\n      caller\n        /* \"contracts/Market.sol\":1459:1482  produceList[msg.sender] */\n      0xffffffffffffffffffffffffffffffffffffffff\n      and\n      0xffffffffffffffffffffffffffffffffffffffff\n      and\n      dup2\n      mstore\n      0x20\n      add\n      swap1\n      dup2\n      mstore\n      0x20\n      add\n      0x00\n      keccak256\n      0x00\n        /* \"contracts/Market.sol\":1459:1490  produceList[msg.sender] = false */\n      0x0100\n      exp\n      dup2\n      sload\n      dup2\n      0xff\n      mul\n      not\n      and\n      swap1\n      dup4\n      iszero\n      iszero\n      mul\n      or\n      swap1\n      sstore\n      pop\n        /* \"contracts/Market.sol\":1505:1541  ProduceDeletedFromMarket(msg.sender) */\n      0xfe9cc347cf9f23be7601aec4449a0fdb16aa073766a538536e42a92027f657e8\n        /* \"contracts/Market.sol\":1530:1540  msg.sender */\n      caller\n        /* \"contracts/Market.sol\":1505:1541  ProduceDeletedFromMarket(msg.sender) */\n      mload(0x40)\n      tag_37\n      swap2\n      swap1\n      tag_38\n      jump\t// in\n    tag_37:\n      mload(0x40)\n      dup1\n      swap2\n      sub\n      swap1\n      log1\n        /* \"contracts/Market.sol\":1331:1548  function removeProduce() public {... */\n      jump\t// out\n        /* \"contracts/Market.sol\":635:676  mapping(address=> bool) public farmerList */\n    tag_21:\n      mstore(0x20, 0x01)\n      dup1\n      0x00\n      mstore\n      keccak256(0x00, 0x40)\n      0x00\n      swap2\n      pop\n      sload\n      swap1\n      0x0100\n      exp\n      swap1\n      div\n      0xff\n      and\n      dup2\n      jump\t// out\n        /* \"@openzeppelin/contracts/proxy/Clones.sol\":973:1732  function clone(address implementation) internal returns (address instance) {... */\n    tag_25:\n        /* \"@openzeppelin/contracts/proxy/Clones.sol\":1030:1046  address instance */\n      0x00\n        /* \"@openzeppelin/contracts/proxy/Clones.sol\":1362:1410  0x3d602d80600a3d3981f3363d3d373d3d3d363d73000000 */\n      0x3d602d80600a3d3981f3363d3d373d3d3d363d73000000\n        /* \"@openzeppelin/contracts/proxy/Clones.sol\":1344:1358  implementation */\n      dup3\n        /* \"@openzeppelin/contracts/proxy/Clones.sol\":1338:1342  0x60 */\n      0x60\n        /* \"@openzeppelin/contracts/proxy/Clones.sol\":1334:1359  shl(0x60, implementation) */\n      shl\n        /* \"@openzeppelin/contracts/proxy/Clones.sol\":1328:1332  0xe8 */\n      0xe8\n        /* \"@openzeppelin/contracts/proxy/Clones.sol\":1324:1360  shr(0xe8, shl(0x60, implementation)) */\n      shr\n        /* \"@openzeppelin/contracts/proxy/Clones.sol\":1321:1411  or(shr(0xe8, shl(0x60, implementation)), 0x3d602d80600a3d3981f3363d3d373d3d3d363d73000000) */\n      or\n        /* \"@openzeppelin/contracts/proxy/Clones.sol\":1315:1319  0x00 */\n      0x00\n        /* \"@openzeppelin/contracts/proxy/Clones.sol\":1308:1412  mstore(0x00, or(shr(0xe8, shl(0x60, implementation)), 0x3d602d80600a3d3981f3363d3d373d3d3d363d73000000)) */\n      mstore\n        /* \"@openzeppelin/contracts/proxy/Clones.sol\":1569:1601  0x5af43d82803e903d91602b57fd5bf3 */\n      0x5af43d82803e903d91602b57fd5bf3\n        /* \"@openzeppelin/contracts/proxy/Clones.sol\":1552:1566  implementation */\n      dup3\n        /* \"@openzeppelin/contracts/proxy/Clones.sol\":1546:1550  0x78 */\n      0x78\n        /* \"@openzeppelin/contracts/proxy/Clones.sol\":1542:1567  shl(0x78, implementation) */\n      shl\n        /* \"@openzeppelin/contracts/proxy/Clones.sol\":1539:1602  or(shl(0x78, implementation), 0x5af43d82803e903d91602b57fd5bf3) */\n      or\n        /* \"@openzeppelin/contracts/proxy/Clones.sol\":1533:1537  0x20 */\n      0x20\n        /* \"@openzeppelin/contracts/proxy/Clones.sol\":1526:1603  mstore(0x20, or(shl(0x78, implementation), 0x5af43d82803e903d91602b57fd5bf3)) */\n      mstore\n        /* \"@openzeppelin/contracts/proxy/Clones.sol\":1644:1648  0x37 */\n      0x37\n        /* \"@openzeppelin/contracts/proxy/Clones.sol\":1638:1642  0x09 */\n      0x09\n        /* \"@openzeppelin/contracts/proxy/Clones.sol\":1635:1636  0 */\n      0x00\n        /* \"@openzeppelin/contracts/proxy/Clones.sol\":1628:1649  create(0, 0x09, 0x37) */\n      create\n        /* \"@openzeppelin/contracts/proxy/Clones.sol\":1616:1649  instance := create(0, 0x09, 0x37) */\n      swap1\n      pop\n        /* \"@openzeppelin/contracts/proxy/Clones.sol\":1696:1697  0 */\n      0x00\n        /* \"@openzeppelin/contracts/proxy/Clones.sol\":1676:1698  instance != address(0) */\n      0xffffffffffffffffffffffffffffffffffffffff\n      and\n        /* \"@openzeppelin/contracts/proxy/Clones.sol\":1676:1684  instance */\n      dup2\n        /* \"@openzeppelin/contracts/proxy/Clones.sol\":1676:1698  instance != address(0) */\n      0xffffffffffffffffffffffffffffffffffffffff\n      and\n      eq\n      iszero\n        /* \"@openzeppelin/contracts/proxy/Clones.sol\":1668:1725  require(instance != address(0), \"ERC1167: create failed\") */\n      tag_40\n      jumpi\n      mload(0x40)\n      0x08c379a000000000000000000000000000000000000000000000000000000000\n      dup2\n      mstore\n      0x04\n      add\n      tag_41\n      swap1\n      tag_42\n      jump\t// in\n    tag_41:\n      mload(0x40)\n      dup1\n      swap2\n      sub\n      swap1\n      revert\n    tag_40:\n        /* \"@openzeppelin/contracts/proxy/Clones.sol\":973:1732  function clone(address implementation) internal returns (address instance) {... */\n      swap2\n      swap1\n      pop\n      jump\t// out\n        /* \"#utility.yul\":7:146   */\n    tag_44:\n        /* \"#utility.yul\":53:58   */\n      0x00\n        /* \"#utility.yul\":91:97   */\n      dup2\n        /* \"#utility.yul\":78:98   */\n      calldataload\n        /* \"#utility.yul\":69:98   */\n      swap1\n      pop\n        /* \"#utility.yul\":107:140   */\n      tag_46\n        /* \"#utility.yul\":134:139   */\n      dup2\n        /* \"#utility.yul\":107:140   */\n      tag_47\n      jump\t// in\n    tag_46:\n        /* \"#utility.yul\":7:146   */\n      swap3\n      swap2\n      pop\n      pop\n      jump\t// out\n        /* \"#utility.yul\":152:291   */\n    tag_48:\n        /* \"#utility.yul\":198:203   */\n      0x00\n        /* \"#utility.yul\":236:242   */\n      dup2\n        /* \"#utility.yul\":223:243   */\n      calldataload\n        /* \"#utility.yul\":214:243   */\n      swap1\n      pop\n        /* \"#utility.yul\":252:285   */\n      tag_50\n        /* \"#utility.yul\":279:284   */\n      dup2\n        /* \"#utility.yul\":252:285   */\n      tag_51\n      jump\t// in\n    tag_50:\n        /* \"#utility.yul\":152:291   */\n      swap3\n      swap2\n      pop\n      pop\n      jump\t// out\n        /* \"#utility.yul\":297:436   */\n    tag_52:\n        /* \"#utility.yul\":343:348   */\n      0x00\n        /* \"#utility.yul\":381:387   */\n      dup2\n        /* \"#utility.yul\":368:388   */\n      calldataload\n        /* \"#utility.yul\":359:388   */\n      swap1\n      pop\n        /* \"#utility.yul\":397:430   */\n      tag_54\n        /* \"#utility.yul\":424:429   */\n      dup2\n        /* \"#utility.yul\":397:430   */\n      tag_55\n      jump\t// in\n    tag_54:\n        /* \"#utility.yul\":297:436   */\n      swap3\n      swap2\n      pop\n      pop\n      jump\t// out\n        /* \"#utility.yul\":442:771   */\n    tag_9:\n        /* \"#utility.yul\":501:507   */\n      0x00\n        /* \"#utility.yul\":550:552   */\n      0x20\n        /* \"#utility.yul\":538:547   */\n      dup3\n        /* \"#utility.yul\":529:536   */\n      dup5\n        /* \"#utility.yul\":525:548   */\n      sub\n        /* \"#utility.yul\":521:553   */\n      slt\n        /* \"#utility.yul\":518:637   */\n      iszero\n      tag_57\n      jumpi\n        /* \"#utility.yul\":556:635   */\n      tag_58\n      tag_59\n      jump\t// in\n    tag_58:\n        /* \"#utility.yul\":518:637   */\n    tag_57:\n        /* \"#utility.yul\":676:677   */\n      0x00\n        /* \"#utility.yul\":701:754   */\n      tag_60\n        /* \"#utility.yul\":746:753   */\n      dup5\n        /* \"#utility.yul\":737:743   */\n      dup3\n        /* \"#utility.yul\":726:735   */\n      dup6\n        /* \"#utility.yul\":722:744   */\n      add\n        /* \"#utility.yul\":701:754   */\n      tag_44\n      jump\t// in\n    tag_60:\n        /* \"#utility.yul\":691:754   */\n      swap2\n      pop\n        /* \"#utility.yul\":647:764   */\n      pop\n        /* \"#utility.yul\":442:771   */\n      swap3\n      swap2\n      pop\n      pop\n      jump\t// out\n        /* \"#utility.yul\":777:1396   */\n    tag_15:\n        /* \"#utility.yul\":854:860   */\n      0x00\n        /* \"#utility.yul\":862:868   */\n      dup1\n        /* \"#utility.yul\":870:876   */\n      0x00\n        /* \"#utility.yul\":919:921   */\n      0x60\n        /* \"#utility.yul\":907:916   */\n      dup5\n        /* \"#utility.yul\":898:905   */\n      dup7\n        /* \"#utility.yul\":894:917   */\n      sub\n        /* \"#utility.yul\":890:922   */\n      slt\n        /* \"#utility.yul\":887:1006   */\n      iszero\n      tag_62\n      jumpi\n        /* \"#utility.yul\":925:1004   */\n      tag_63\n      tag_59\n      jump\t// in\n    tag_63:\n        /* \"#utility.yul\":887:1006   */\n    tag_62:\n        /* \"#utility.yul\":1045:1046   */\n      0x00\n        /* \"#utility.yul\":1070:1123   */\n      tag_64\n        /* \"#utility.yul\":1115:1122   */\n      dup7\n        /* \"#utility.yul\":1106:1112   */\n      dup3\n        /* \"#utility.yul\":1095:1104   */\n      dup8\n        /* \"#utility.yul\":1091:1113   */\n      add\n        /* \"#utility.yul\":1070:1123   */\n      tag_48\n      jump\t// in\n    tag_64:\n        /* \"#utility.yul\":1060:1123   */\n      swap4\n      pop\n        /* \"#utility.yul\":1016:1133   */\n      pop\n        /* \"#utility.yul\":1172:1174   */\n      0x20\n        /* \"#utility.yul\":1198:1251   */\n      tag_65\n        /* \"#utility.yul\":1243:1250   */\n      dup7\n        /* \"#utility.yul\":1234:1240   */\n      dup3\n        /* \"#utility.yul\":1223:1232   */\n      dup8\n        /* \"#utility.yul\":1219:1241   */\n      add\n        /* \"#utility.yul\":1198:1251   */\n      tag_52\n      jump\t// in\n    tag_65:\n        /* \"#utility.yul\":1188:1251   */\n      swap3\n      pop\n        /* \"#utility.yul\":1143:1261   */\n      pop\n        /* \"#utility.yul\":1300:1302   */\n      0x40\n        /* \"#utility.yul\":1326:1379   */\n      tag_66\n        /* \"#utility.yul\":1371:1378   */\n      dup7\n        /* \"#utility.yul\":1362:1368   */\n      dup3\n        /* \"#utility.yul\":1351:1360   */\n      dup8\n        /* \"#utility.yul\":1347:1369   */\n      add\n        /* \"#utility.yul\":1326:1379   */\n      tag_52\n      jump\t// in\n    tag_66:\n        /* \"#utility.yul\":1316:1379   */\n      swap2\n      pop\n        /* \"#utility.yul\":1271:1389   */\n      pop\n        /* \"#utility.yul\":777:1396   */\n      swap3\n      pop\n      swap3\n      pop\n      swap3\n      jump\t// out\n        /* \"#utility.yul\":1402:1520   */\n    tag_67:\n        /* \"#utility.yul\":1489:1513   */\n      tag_69\n        /* \"#utility.yul\":1507:1512   */\n      dup2\n        /* \"#utility.yul\":1489:1513   */\n      tag_70\n      jump\t// in\n    tag_69:\n        /* \"#utility.yul\":1484:1487   */\n      dup3\n        /* \"#utility.yul\":1477:1514   */\n      mstore\n        /* \"#utility.yul\":1402:1520   */\n      pop\n      pop\n      jump\t// out\n        /* \"#utility.yul\":1526:1635   */\n    tag_71:\n        /* \"#utility.yul\":1607:1628   */\n      tag_73\n        /* \"#utility.yul\":1622:1627   */\n      dup2\n        /* \"#utility.yul\":1607:1628   */\n      tag_74\n      jump\t// in\n    tag_73:\n        /* \"#utility.yul\":1602:1605   */\n      dup3\n        /* \"#utility.yul\":1595:1629   */\n      mstore\n        /* \"#utility.yul\":1526:1635   */\n      pop\n      pop\n      jump\t// out\n        /* \"#utility.yul\":1641:1759   */\n    tag_75:\n        /* \"#utility.yul\":1728:1752   */\n      tag_77\n        /* \"#utility.yul\":1746:1751   */\n      dup2\n        /* \"#utility.yul\":1728:1752   */\n      tag_78\n      jump\t// in\n    tag_77:\n        /* \"#utility.yul\":1723:1726   */\n      dup3\n        /* \"#utility.yul\":1716:1753   */\n      mstore\n        /* \"#utility.yul\":1641:1759   */\n      pop\n      pop\n      jump\t// out\n        /* \"#utility.yul\":1765:2131   */\n    tag_79:\n        /* \"#utility.yul\":1907:1910   */\n      0x00\n        /* \"#utility.yul\":1928:1995   */\n      tag_81\n        /* \"#utility.yul\":1992:1994   */\n      0x28\n        /* \"#utility.yul\":1987:1990   */\n      dup4\n        /* \"#utility.yul\":1928:1995   */\n      tag_82\n      jump\t// in\n    tag_81:\n        /* \"#utility.yul\":1921:1995   */\n      swap2\n      pop\n        /* \"#utility.yul\":2004:2097   */\n      tag_83\n        /* \"#utility.yul\":2093:2096   */\n      dup3\n        /* \"#utility.yul\":2004:2097   */\n      tag_84\n      jump\t// in\n    tag_83:\n        /* \"#utility.yul\":2122:2124   */\n      0x40\n        /* \"#utility.yul\":2117:2120   */\n      dup3\n        /* \"#utility.yul\":2113:2125   */\n      add\n        /* \"#utility.yul\":2106:2125   */\n      swap1\n      pop\n        /* \"#utility.yul\":1765:2131   */\n      swap2\n      swap1\n      pop\n      jump\t// out\n        /* \"#utility.yul\":2137:2503   */\n    tag_85:\n        /* \"#utility.yul\":2279:2282   */\n      0x00\n        /* \"#utility.yul\":2300:2367   */\n      tag_87\n        /* \"#utility.yul\":2364:2366   */\n      0x16\n        /* \"#utility.yul\":2359:2362   */\n      dup4\n        /* \"#utility.yul\":2300:2367   */\n      tag_82\n      jump\t// in\n    tag_87:\n        /* \"#utility.yul\":2293:2367   */\n      swap2\n      pop\n        /* \"#utility.yul\":2376:2469   */\n      tag_88\n        /* \"#utility.yul\":2465:2468   */\n      dup3\n        /* \"#utility.yul\":2376:2469   */\n      tag_89\n      jump\t// in\n    tag_88:\n        /* \"#utility.yul\":2494:2496   */\n      0x20\n        /* \"#utility.yul\":2489:2492   */\n      dup3\n        /* \"#utility.yul\":2485:2497   */\n      add\n        /* \"#utility.yul\":2478:2497   */\n      swap1\n      pop\n        /* \"#utility.yul\":2137:2503   */\n      swap2\n      swap1\n      pop\n      jump\t// out\n        /* \"#utility.yul\":2509:2627   */\n    tag_90:\n        /* \"#utility.yul\":2596:2620   */\n      tag_92\n        /* \"#utility.yul\":2614:2619   */\n      dup2\n        /* \"#utility.yul\":2596:2620   */\n      tag_93\n      jump\t// in\n    tag_92:\n        /* \"#utility.yul\":2591:2594   */\n      dup3\n        /* \"#utility.yul\":2584:2621   */\n      mstore\n        /* \"#utility.yul\":2509:2627   */\n      pop\n      pop\n      jump\t// out\n        /* \"#utility.yul\":2633:2855   */\n    tag_38:\n        /* \"#utility.yul\":2726:2730   */\n      0x00\n        /* \"#utility.yul\":2764:2766   */\n      0x20\n        /* \"#utility.yul\":2753:2762   */\n      dup3\n        /* \"#utility.yul\":2749:2767   */\n      add\n        /* \"#utility.yul\":2741:2767   */\n      swap1\n      pop\n        /* \"#utility.yul\":2777:2848   */\n      tag_95\n        /* \"#utility.yul\":2845:2846   */\n      0x00\n        /* \"#utility.yul\":2834:2843   */\n      dup4\n        /* \"#utility.yul\":2830:2847   */\n      add\n        /* \"#utility.yul\":2821:2827   */\n      dup5\n        /* \"#utility.yul\":2777:2848   */\n      tag_67\n      jump\t// in\n    tag_95:\n        /* \"#utility.yul\":2633:2855   */\n      swap3\n      swap2\n      pop\n      pop\n      jump\t// out\n        /* \"#utility.yul\":2861:3193   */\n    tag_32:\n        /* \"#utility.yul\":2982:2986   */\n      0x00\n        /* \"#utility.yul\":3020:3022   */\n      0x40\n        /* \"#utility.yul\":3009:3018   */\n      dup3\n        /* \"#utility.yul\":3005:3023   */\n      add\n        /* \"#utility.yul\":2997:3023   */\n      swap1\n      pop\n        /* \"#utility.yul\":3033:3104   */\n      tag_97\n        /* \"#utility.yul\":3101:3102   */\n      0x00\n        /* \"#utility.yul\":3090:3099   */\n      dup4\n        /* \"#utility.yul\":3086:3103   */\n      add\n        /* \"#utility.yul\":3077:3083   */\n      dup6\n        /* \"#utility.yul\":3033:3104   */\n      tag_67\n      jump\t// in\n    tag_97:\n        /* \"#utility.yul\":3114:3186   */\n      tag_98\n        /* \"#utility.yul\":3182:3184   */\n      0x20\n        /* \"#utility.yul\":3171:3180   */\n      dup4\n        /* \"#utility.yul\":3167:3185   */\n      add\n        /* \"#utility.yul\":3158:3164   */\n      dup5\n        /* \"#utility.yul\":3114:3186   */\n      tag_67\n      jump\t// in\n    tag_98:\n        /* \"#utility.yul\":2861:3193   */\n      swap4\n      swap3\n      pop\n      pop\n      pop\n      jump\t// out\n        /* \"#utility.yul\":3199:3752   */\n    tag_27:\n        /* \"#utility.yul\":3376:3380   */\n      0x00\n        /* \"#utility.yul\":3414:3417   */\n      0x80\n        /* \"#utility.yul\":3403:3412   */\n      dup3\n        /* \"#utility.yul\":3399:3418   */\n      add\n        /* \"#utility.yul\":3391:3418   */\n      swap1\n      pop\n        /* \"#utility.yul\":3428:3499   */\n      tag_100\n        /* \"#utility.yul\":3496:3497   */\n      0x00\n        /* \"#utility.yul\":3485:3494   */\n      dup4\n        /* \"#utility.yul\":3481:3498   */\n      add\n        /* \"#utility.yul\":3472:3478   */\n      dup8\n        /* \"#utility.yul\":3428:3499   */\n      tag_67\n      jump\t// in\n    tag_100:\n        /* \"#utility.yul\":3509:3581   */\n      tag_101\n        /* \"#utility.yul\":3577:3579   */\n      0x20\n        /* \"#utility.yul\":3566:3575   */\n      dup4\n        /* \"#utility.yul\":3562:3580   */\n      add\n        /* \"#utility.yul\":3553:3559   */\n      dup7\n        /* \"#utility.yul\":3509:3581   */\n      tag_75\n      jump\t// in\n    tag_101:\n        /* \"#utility.yul\":3591:3663   */\n      tag_102\n        /* \"#utility.yul\":3659:3661   */\n      0x40\n        /* \"#utility.yul\":3648:3657   */\n      dup4\n        /* \"#utility.yul\":3644:3662   */\n      add\n        /* \"#utility.yul\":3635:3641   */\n      dup6\n        /* \"#utility.yul\":3591:3663   */\n      tag_90\n      jump\t// in\n    tag_102:\n        /* \"#utility.yul\":3673:3745   */\n      tag_103\n        /* \"#utility.yul\":3741:3743   */\n      0x60\n        /* \"#utility.yul\":3730:3739   */\n      dup4\n        /* \"#utility.yul\":3726:3744   */\n      add\n        /* \"#utility.yul\":3717:3723   */\n      dup5\n        /* \"#utility.yul\":3673:3745   */\n      tag_90\n      jump\t// in\n    tag_103:\n        /* \"#utility.yul\":3199:3752   */\n      swap6\n      swap5\n      pop\n      pop\n      pop\n      pop\n      pop\n      jump\t// out\n        /* \"#utility.yul\":3758:3968   */\n    tag_12:\n        /* \"#utility.yul\":3845:3849   */\n      0x00\n        /* \"#utility.yul\":3883:3885   */\n      0x20\n        /* \"#utility.yul\":3872:3881   */\n      dup3\n        /* \"#utility.yul\":3868:3886   */\n      add\n        /* \"#utility.yul\":3860:3886   */\n      swap1\n      pop\n        /* \"#utility.yul\":3896:3961   */\n      tag_105\n        /* \"#utility.yul\":3958:3959   */\n      0x00\n        /* \"#utility.yul\":3947:3956   */\n      dup4\n        /* \"#utility.yul\":3943:3960   */\n      add\n        /* \"#utility.yul\":3934:3940   */\n      dup5\n        /* \"#utility.yul\":3896:3961   */\n      tag_71\n      jump\t// in\n    tag_105:\n        /* \"#utility.yul\":3758:3968   */\n      swap3\n      swap2\n      pop\n      pop\n      jump\t// out\n        /* \"#utility.yul\":3974:4393   */\n    tag_36:\n        /* \"#utility.yul\":4140:4144   */\n      0x00\n        /* \"#utility.yul\":4178:4180   */\n      0x20\n        /* \"#utility.yul\":4167:4176   */\n      dup3\n        /* \"#utility.yul\":4163:4181   */\n      add\n        /* \"#utility.yul\":4155:4181   */\n      swap1\n      pop\n        /* \"#utility.yul\":4227:4236   */\n      dup2\n        /* \"#utility.yul\":4221:4225   */\n      dup2\n        /* \"#utility.yul\":4217:4237   */\n      sub\n        /* \"#utility.yul\":4213:4214   */\n      0x00\n        /* \"#utility.yul\":4202:4211   */\n      dup4\n        /* \"#utility.yul\":4198:4215   */\n      add\n        /* \"#utility.yul\":4191:4238   */\n      mstore\n        /* \"#utility.yul\":4255:4386   */\n      tag_107\n        /* \"#utility.yul\":4381:4385   */\n      dup2\n        /* \"#utility.yul\":4255:4386   */\n      tag_79\n      jump\t// in\n    tag_107:\n        /* \"#utility.yul\":4247:4386   */\n      swap1\n      pop\n        /* \"#utility.yul\":3974:4393   */\n      swap2\n      swap1\n      pop\n      jump\t// out\n        /* \"#utility.yul\":4399:4818   */\n    tag_42:\n        /* \"#utility.yul\":4565:4569   */\n      0x00\n        /* \"#utility.yul\":4603:4605   */\n      0x20\n        /* \"#utility.yul\":4592:4601   */\n      dup3\n        /* \"#utility.yul\":4588:4606   */\n      add\n        /* \"#utility.yul\":4580:4606   */\n      swap1\n      pop\n        /* \"#utility.yul\":4652:4661   */\n      dup2\n        /* \"#utility.yul\":4646:4650   */\n      dup2\n        /* \"#utility.yul\":4642:4662   */\n      sub\n        /* \"#utility.yul\":4638:4639   */\n      0x00\n        /* \"#utility.yul\":4627:4636   */\n      dup4\n        /* \"#utility.yul\":4623:4640   */\n      add\n        /* \"#utility.yul\":4616:4663   */\n      mstore\n        /* \"#utility.yul\":4680:4811   */\n      tag_109\n        /* \"#utility.yul\":4806:4810   */\n      dup2\n        /* \"#utility.yul\":4680:4811   */\n      tag_85\n      jump\t// in\n    tag_109:\n        /* \"#utility.yul\":4672:4811   */\n      swap1\n      pop\n        /* \"#utility.yul\":4399:4818   */\n      swap2\n      swap1\n      pop\n      jump\t// out\n        /* \"#utility.yul\":4905:5074   */\n    tag_82:\n        /* \"#utility.yul\":4989:5000   */\n      0x00\n        /* \"#utility.yul\":5023:5029   */\n      dup3\n        /* \"#utility.yul\":5018:5021   */\n      dup3\n        /* \"#utility.yul\":5011:5030   */\n      mstore\n        /* \"#utility.yul\":5063:5067   */\n      0x20\n        /* \"#utility.yul\":5058:5061   */\n      dup3\n        /* \"#utility.yul\":5054:5068   */\n      add\n        /* \"#utility.yul\":5039:5068   */\n      swap1\n      pop\n        /* \"#utility.yul\":4905:5074   */\n      swap3\n      swap2\n      pop\n      pop\n      jump\t// out\n        /* \"#utility.yul\":5080:5176   */\n    tag_70:\n        /* \"#utility.yul\":5117:5124   */\n      0x00\n        /* \"#utility.yul\":5146:5170   */\n      tag_114\n        /* \"#utility.yul\":5164:5169   */\n      dup3\n        /* \"#utility.yul\":5146:5170   */\n      tag_115\n      jump\t// in\n    tag_114:\n        /* \"#utility.yul\":5135:5170   */\n      swap1\n      pop\n        /* \"#utility.yul\":5080:5176   */\n      swap2\n      swap1\n      pop\n      jump\t// out\n        /* \"#utility.yul\":5182:5272   */\n    tag_74:\n        /* \"#utility.yul\":5216:5223   */\n      0x00\n        /* \"#utility.yul\":5259:5264   */\n      dup2\n        /* \"#utility.yul\":5252:5265   */\n      iszero\n        /* \"#utility.yul\":5245:5266   */\n      iszero\n        /* \"#utility.yul\":5234:5266   */\n      swap1\n      pop\n        /* \"#utility.yul\":5182:5272   */\n      swap2\n      swap1\n      pop\n      jump\t// out\n        /* \"#utility.yul\":5278:5355   */\n    tag_78:\n        /* \"#utility.yul\":5315:5322   */\n      0x00\n        /* \"#utility.yul\":5344:5349   */\n      dup2\n        /* \"#utility.yul\":5333:5349   */\n      swap1\n      pop\n        /* \"#utility.yul\":5278:5355   */\n      swap2\n      swap1\n      pop\n      jump\t// out\n        /* \"#utility.yul\":5361:5487   */\n    tag_115:\n        /* \"#utility.yul\":5398:5405   */\n      0x00\n        /* \"#utility.yul\":5438:5480   */\n      0xffffffffffffffffffffffffffffffffffffffff\n        /* \"#utility.yul\":5431:5436   */\n      dup3\n        /* \"#utility.yul\":5427:5481   */\n      and\n        /* \"#utility.yul\":5416:5481   */\n      swap1\n      pop\n        /* \"#utility.yul\":5361:5487   */\n      swap2\n      swap1\n      pop\n      jump\t// out\n        /* \"#utility.yul\":5493:5570   */\n    tag_93:\n        /* \"#utility.yul\":5530:5537   */\n      0x00\n        /* \"#utility.yul\":5559:5564   */\n      dup2\n        /* \"#utility.yul\":5548:5564   */\n      swap1\n      pop\n        /* \"#utility.yul\":5493:5570   */\n      swap2\n      swap1\n      pop\n      jump\t// out\n        /* \"#utility.yul\":5699:5816   */\n    tag_59:\n        /* \"#utility.yul\":5808:5809   */\n      0x00\n        /* \"#utility.yul\":5805:5806   */\n      dup1\n        /* \"#utility.yul\":5798:5810   */\n      revert\n        /* \"#utility.yul\":5822:6049   */\n    tag_84:\n        /* \"#utility.yul\":5962:5996   */\n      0x546869732070726f64756365206973206e6f74206c6973746564206f6e207468\n        /* \"#utility.yul\":5958:5959   */\n      0x00\n        /* \"#utility.yul\":5950:5956   */\n      dup3\n        /* \"#utility.yul\":5946:5960   */\n      add\n        /* \"#utility.yul\":5939:5997   */\n      mstore\n        /* \"#utility.yul\":6031:6041   */\n      0x65204d61726b6574000000000000000000000000000000000000000000000000\n        /* \"#utility.yul\":6026:6028   */\n      0x20\n        /* \"#utility.yul\":6018:6024   */\n      dup3\n        /* \"#utility.yul\":6014:6029   */\n      add\n        /* \"#utility.yul\":6007:6042   */\n      mstore\n        /* \"#utility.yul\":5822:6049   */\n      pop\n      jump\t// out\n        /* \"#utility.yul\":6055:6227   */\n    tag_89:\n        /* \"#utility.yul\":6195:6219   */\n      0x455243313136373a20637265617465206661696c656400000000000000000000\n        /* \"#utility.yul\":6191:6192   */\n      0x00\n        /* \"#utility.yul\":6183:6189   */\n      dup3\n        /* \"#utility.yul\":6179:6193   */\n      add\n        /* \"#utility.yul\":6172:6220   */\n      mstore\n        /* \"#utility.yul\":6055:6227   */\n      pop\n      jump\t// out\n        /* \"#utility.yul\":6233:6355   */\n    tag_47:\n        /* \"#utility.yul\":6306:6330   */\n      tag_126\n        /* \"#utility.yul\":6324:6329   */\n      dup2\n        /* \"#utility.yul\":6306:6330   */\n      tag_70\n      jump\t// in\n    tag_126:\n        /* \"#utility.yul\":6299:6304   */\n      dup2\n        /* \"#utility.yul\":6296:6331   */\n      eq\n        /* \"#utility.yul\":6286:6349   */\n      tag_127\n      jumpi\n        /* \"#utility.yul\":6345:6346   */\n      0x00\n        /* \"#utility.yul\":6342:6343   */\n      dup1\n        /* \"#utility.yul\":6335:6347   */\n      revert\n        /* \"#utility.yul\":6286:6349   */\n    tag_127:\n        /* \"#utility.yul\":6233:6355   */\n      pop\n      jump\t// out\n        /* \"#utility.yul\":6361:6483   */\n    tag_51:\n        /* \"#utility.yul\":6434:6458   */\n      tag_129\n        /* \"#utility.yul\":6452:6457   */\n      dup2\n        /* \"#utility.yul\":6434:6458   */\n      tag_78\n      jump\t// in\n    tag_129:\n        /* \"#utility.yul\":6427:6432   */\n      dup2\n        /* \"#utility.yul\":6424:6459   */\n      eq\n        /* \"#utility.yul\":6414:6477   */\n      tag_130\n      jumpi\n        /* \"#utility.yul\":6473:6474   */\n      0x00\n        /* \"#utility.yul\":6470:6471   */\n      dup1\n        /* \"#utility.yul\":6463:6475   */\n      revert\n        /* \"#utility.yul\":6414:6477   */\n    tag_130:\n        /* \"#utility.yul\":6361:6483   */\n      pop\n      jump\t// out\n        /* \"#utility.yul\":6489:6611   */\n    tag_55:\n        /* \"#utility.yul\":6562:6586   */\n      tag_132\n        /* \"#utility.yul\":6580:6585   */\n      dup2\n        /* \"#utility.yul\":6562:6586   */\n      tag_93\n      jump\t// in\n    tag_132:\n        /* \"#utility.yul\":6555:6560   */\n      dup2\n        /* \"#utility.yul\":6552:6587   */\n      eq\n        /* \"#utility.yul\":6542:6605   */\n      tag_133\n      jumpi\n        /* \"#utility.yul\":6601:6602   */\n      0x00\n        /* \"#utility.yul\":6598:6599   */\n      dup1\n        /* \"#utility.yul\":6591:6603   */\n      revert\n        /* \"#utility.yul\":6542:6605   */\n    tag_133:\n        /* \"#utility.yul\":6489:6611   */\n      pop\n      jump\t// out\n\n    auxdata: 0xa2646970667358221220df6a3f2f344fe3a5cd64680ae8536654d2e643cc8d528676c5f81f8b91a6f4ba64736f6c63430008070033\n}\n\nsub_1: assembly {\n        /* \"contracts/Produce.sol\":140:1785  contract Produce is Ownable{... */\n      mstore(0x40, 0x80)\n        /* \"contracts/Produce.sol\":508:566  constructor() {... */\n      callvalue\n      dup1\n      iszero\n      tag_1\n      jumpi\n      0x00\n      dup1\n      revert\n    tag_1:\n      pop\n        /* \"@openzeppelin/contracts/access/Ownable.sol\":936:968  _transferOwnership(_msgSender()) */\n      tag_5\n        /* \"@openzeppelin/contracts/access/Ownable.sol\":955:967  _msgSender() */\n      tag_6\n        /* \"@openzeppelin/contracts/access/Ownable.sol\":955:965  _msgSender */\n      shl(0x20, tag_7)\n        /* \"@openzeppelin/contracts/access/Ownable.sol\":955:967  _msgSender() */\n      0x20\n      shr\n      jump\t// in\n    tag_6:\n        /* \"@openzeppelin/contracts/access/Ownable.sol\":936:954  _transferOwnership */\n      shl(0x20, tag_8)\n        /* \"@openzeppelin/contracts/access/Ownable.sol\":936:968  _transferOwnership(_msgSender()) */\n      0x20\n      shr\n      jump\t// in\n    tag_5:\n        /* \"contracts/Produce.sol\":540:559  State.UNINITIALIZED */\n      0x00\n        /* \"contracts/Produce.sol\":532:537  state */\n      0x07\n      0x00\n        /* \"contracts/Produce.sol\":532:559  state = State.UNINITIALIZED */\n      0x0100\n      exp\n      dup2\n      sload\n      dup2\n      0xff\n      mul\n      not\n      and\n      swap1\n      dup4\n      0x02\n      dup2\n      gt\n      iszero\n      tag_10\n      jumpi\n      tag_11\n      tag_12\n      jump\t// in\n    tag_11:\n    tag_10:\n      mul\n      or\n      swap1\n      sstore\n      pop\n        /* \"contracts/Produce.sol\":140:1785  contract Produce is Ownable{... */\n      jump(tag_13)\n        /* \"@openzeppelin/contracts/utils/Context.sol\":640:736  function _msgSender() internal view virtual returns (address) {... */\n    tag_7:\n        /* \"@openzeppelin/contracts/utils/Context.sol\":693:700  address */\n      0x00\n        /* \"@openzeppelin/contracts/utils/Context.sol\":719:729  msg.sender */\n      caller\n        /* \"@openzeppelin/contracts/utils/Context.sol\":712:729  return msg.sender */\n      swap1\n      pop\n        /* \"@openzeppelin/contracts/utils/Context.sol\":640:736  function _msgSender() internal view virtual returns (address) {... */\n      swap1\n      jump\t// out\n        /* \"@openzeppelin/contracts/access/Ownable.sol\":2433:2620  function _transferOwnership(address newOwner) internal virtual {... */\n    tag_8:\n        /* \"@openzeppelin/contracts/access/Ownable.sol\":2506:2522  address oldOwner */\n      0x00\n        /* \"@openzeppelin/contracts/access/Ownable.sol\":2525:2531  _owner */\n      dup1\n      0x00\n      swap1\n      sload\n      swap1\n      0x0100\n      exp\n      swap1\n      div\n      0xffffffffffffffffffffffffffffffffffffffff\n      and\n        /* \"@openzeppelin/contracts/access/Ownable.sol\":2506:2531  address oldOwner = _owner */\n      swap1\n      pop\n        /* \"@openzeppelin/contracts/access/Ownable.sol\":2550:2558  newOwner */\n      dup2\n        /* \"@openzeppelin/contracts/access/Ownable.sol\":2541:2547  _owner */\n      0x00\n      dup1\n        /* \"@openzeppelin/contracts/access/Ownable.sol\":2541:2558  _owner = newOwner */\n      0x0100\n      exp\n      dup2\n      sload\n      dup2\n      0xffffffffffffffffffffffffffffffffffffffff\n      mul\n      not\n      and\n      swap1\n      dup4\n      0xffffffffffffffffffffffffffffffffffffffff\n      and\n      mul\n      or\n      swap1\n      sstore\n      pop\n        /* \"@openzeppelin/contracts/access/Ownable.sol\":2604:2612  newOwner */\n      dup2\n        /* \"@openzeppelin/contracts/access/Ownable.sol\":2573:2613  OwnershipTransferred(oldOwner, newOwner) */\n      0xffffffffffffffffffffffffffffffffffffffff\n      and\n        /* \"@openzeppelin/contracts/access/Ownable.sol\":2594:2602  oldOwner */\n      dup2\n        /* \"@openzeppelin/contracts/access/Ownable.sol\":2573:2613  OwnershipTransferred(oldOwner, newOwner) */\n      0xffffffffffffffffffffffffffffffffffffffff\n      and\n      0x8be0079c531659141344cd1fd0a4f28419497f9722a3daafe3b4186f6b6457e0\n      mload(0x40)\n      mload(0x40)\n      dup1\n      swap2\n      sub\n      swap1\n      log3\n        /* \"@openzeppelin/contracts/access/Ownable.sol\":2496:2620  {... */\n      pop\n        /* \"@openzeppelin/contracts/access/Ownable.sol\":2433:2620  function _transferOwnership(address newOwner) internal virtual {... */\n      pop\n      jump\t// out\n        /* \"#utility.yul\":7:187   */\n    tag_12:\n        /* \"#utility.yul\":55:132   */\n      0x4e487b7100000000000000000000000000000000000000000000000000000000\n        /* \"#utility.yul\":52:53   */\n      0x00\n        /* \"#utility.yul\":45:133   */\n      mstore\n        /* \"#utility.yul\":152:156   */\n      0x21\n        /* \"#utility.yul\":149:150   */\n      0x04\n        /* \"#utility.yul\":142:157   */\n      mstore\n        /* \"#utility.yul\":176:180   */\n      0x24\n        /* \"#utility.yul\":173:174   */\n      0x00\n        /* \"#utility.yul\":166:181   */\n      revert\n        /* \"contracts/Produce.sol\":140:1785  contract Produce is Ownable{... */\n    tag_13:\n      dataSize(sub_0)\n      dup1\n      dataOffset(sub_0)\n      0x00\n      codecopy\n      0x00\n      return\n    stop\n\n    sub_0: assembly {\n            /* \"contracts/Produce.sol\":140:1785  contract Produce is Ownable{... */\n          mstore(0x40, 0x80)\n          callvalue\n          dup1\n          iszero\n          tag_1\n          jumpi\n          0x00\n          dup1\n          revert\n        tag_1:\n          pop\n          jumpi(tag_2, lt(calldatasize, 0x04))\n          shr(0xe0, calldataload(0x00))\n          dup1\n          0x91bc0bad\n          gt\n          tag_16\n          jumpi\n          dup1\n          0xeaa61dea\n          gt\n          tag_17\n          jumpi\n          dup1\n          0xeaa61dea\n          eq\n          tag_12\n          jumpi\n          dup1\n          0xf2fde38b\n          eq\n          tag_13\n          jumpi\n          dup1\n          0xf5c609e0\n          eq\n          tag_14\n          jumpi\n          dup1\n          0xfa34f63a\n          eq\n          tag_15\n          jumpi\n          jump(tag_2)\n        tag_17:\n          dup1\n          0x91bc0bad\n          eq\n          tag_9\n          jumpi\n          dup1\n          0xa035b1fe\n          eq\n          tag_10\n          jumpi\n          dup1\n          0xd811fcf0\n          eq\n          tag_11\n          jumpi\n          jump(tag_2)\n        tag_16:\n          dup1\n          0x6d86b8a5\n          eq\n          tag_3\n          jumpi\n          dup1\n          0x715018a6\n          eq\n          tag_4\n          jumpi\n          dup1\n          0x76c820f6\n          eq\n          tag_5\n          jumpi\n          dup1\n          0x7b989607\n          eq\n          tag_6\n          jumpi\n          dup1\n          0x80f55605\n          eq\n          tag_7\n          jumpi\n          dup1\n          0x8da5cb5b\n          eq\n          tag_8\n          jumpi\n        tag_2:\n          0x00\n          dup1\n          revert\n            /* \"contracts/Produce.sol\":329:353  uint256 public orderSize */\n        tag_3:\n          tag_18\n          tag_19\n          jump\t// in\n        tag_18:\n          mload(0x40)\n          tag_20\n          swap2\n          swap1\n          tag_21\n          jump\t// in\n        tag_20:\n          mload(0x40)\n          dup1\n          swap2\n          sub\n          swap1\n          return\n            /* \"@openzeppelin/contracts/access/Ownable.sol\":1831:1932  function renounceOwnership() public virtual onlyOwner {... */\n        tag_4:\n          tag_22\n          tag_23\n          jump\t// in\n        tag_22:\n          stop\n            /* \"contracts/Produce.sol\":572:995  function initilize(... */\n        tag_5:\n          tag_24\n          0x04\n          dup1\n          calldatasize\n          sub\n          dup2\n          add\n          swap1\n          tag_25\n          swap2\n          swap1\n          tag_26\n          jump\t// in\n        tag_25:\n          tag_27\n          jump\t// in\n        tag_24:\n          stop\n            /* \"contracts/Produce.sol\":360:400  mapping(address=> bool) public orderList */\n        tag_6:\n          tag_28\n          0x04\n          dup1\n          calldatasize\n          sub\n          dup2\n          add\n          swap1\n          tag_29\n          swap2\n          swap1\n          tag_30\n          jump\t// in\n        tag_29:\n          tag_31\n          jump\t// in\n        tag_28:\n          mload(0x40)\n          tag_32\n          swap2\n          swap1\n          tag_33\n          jump\t// in\n        tag_32:\n          mload(0x40)\n          dup1\n          swap2\n          sub\n          swap1\n          return\n            /* \"contracts/Produce.sol\":244:265  address public market */\n        tag_7:\n          tag_34\n          tag_35\n          jump\t// in\n        tag_34:\n          mload(0x40)\n          tag_36\n          swap2\n          swap1\n          tag_37\n          jump\t// in\n        tag_36:\n          mload(0x40)\n          dup1\n          swap2\n          sub\n          swap1\n          return\n            /* \"@openzeppelin/contracts/access/Ownable.sol\":1201:1286  function owner() public view virtual returns (address) {... */\n        tag_8:\n          tag_38\n          tag_39\n          jump\t// in\n        tag_38:\n          mload(0x40)\n          tag_40\n          swap2\n          swap1\n          tag_37\n          jump\t// in\n        tag_40:\n          mload(0x40)\n          dup1\n          swap2\n          sub\n          swap1\n          return\n            /* \"contracts/Produce.sol\":1594:1781  function closeProduce() external onlyOwner {... */\n        tag_9:\n          tag_41\n          tag_42\n          jump\t// in\n        tag_41:\n          stop\n            /* \"contracts/Produce.sol\":303:323  uint256 public price */\n        tag_10:\n          tag_43\n          tag_44\n          jump\t// in\n        tag_43:\n          mload(0x40)\n          tag_45\n          swap2\n          swap1\n          tag_21\n          jump\t// in\n        tag_45:\n          mload(0x40)\n          dup1\n          swap2\n          sub\n          swap1\n          return\n            /* \"contracts/Produce.sol\":217:238  address public farmer */\n        tag_11:\n          tag_46\n          tag_47\n          jump\t// in\n        tag_46:\n          mload(0x40)\n          tag_48\n          swap2\n          swap1\n          tag_37\n          jump\t// in\n        tag_48:\n          mload(0x40)\n          dup1\n          swap2\n          sub\n          swap1\n          return\n            /* \"contracts/Produce.sol\":1442:1588  function removeOrder() external {... */\n        tag_12:\n          tag_49\n          tag_50\n          jump\t// in\n        tag_49:\n          stop\n            /* \"@openzeppelin/contracts/access/Ownable.sol\":2081:2279  function transferOwnership(address newOwner) public virtual onlyOwner {... */\n        tag_13:\n          tag_51\n          0x04\n          dup1\n          calldatasize\n          sub\n          dup2\n          add\n          swap1\n          tag_52\n          swap2\n          swap1\n          tag_30\n          jump\t// in\n        tag_52:\n          tag_53\n          jump\t// in\n        tag_51:\n          stop\n            /* \"contracts/Produce.sol\":1048:1436  function placeOrder() external {... */\n        tag_14:\n          tag_54\n          tag_55\n          jump\t// in\n        tag_54:\n          stop\n            /* \"contracts/Produce.sol\":271:297  bytes32 public produceHash */\n        tag_15:\n          tag_56\n          tag_57\n          jump\t// in\n        tag_56:\n          mload(0x40)\n          tag_58\n          swap2\n          swap1\n          tag_59\n          jump\t// in\n        tag_58:\n          mload(0x40)\n          dup1\n          swap2\n          sub\n          swap1\n          return\n            /* \"contracts/Produce.sol\":329:353  uint256 public orderSize */\n        tag_19:\n          sload(0x05)\n          dup2\n          jump\t// out\n            /* \"@openzeppelin/contracts/access/Ownable.sol\":1831:1932  function renounceOwnership() public virtual onlyOwner {... */\n        tag_23:\n            /* \"@openzeppelin/contracts/access/Ownable.sol\":1094:1107  _checkOwner() */\n          tag_61\n            /* \"@openzeppelin/contracts/access/Ownable.sol\":1094:1105  _checkOwner */\n          tag_62\n            /* \"@openzeppelin/contracts/access/Ownable.sol\":1094:1107  _checkOwner() */\n          jump\t// in\n        tag_61:\n            /* \"@openzeppelin/contracts/access/Ownable.sol\":1895:1925  _transferOwnership(address(0)) */\n          tag_64\n            /* \"@openzeppelin/contracts/access/Ownable.sol\":1922:1923  0 */\n          0x00\n            /* \"@openzeppelin/contracts/access/Ownable.sol\":1895:1913  _transferOwnership */\n          tag_65\n            /* \"@openzeppelin/contracts/access/Ownable.sol\":1895:1925  _transferOwnership(address(0)) */\n          jump\t// in\n        tag_64:\n            /* \"@openzeppelin/contracts/access/Ownable.sol\":1831:1932  function renounceOwnership() public virtual onlyOwner {... */\n          jump\t// out\n            /* \"contracts/Produce.sol\":572:995  function initilize(... */\n        tag_27:\n            /* \"contracts/Produce.sol\":738:757  State.UNINITIALIZED */\n          0x00\n            /* \"contracts/Produce.sol\":731:757  state==State.UNINITIALIZED */\n          0x02\n          dup2\n          gt\n          iszero\n          tag_67\n          jumpi\n          tag_68\n          tag_69\n          jump\t// in\n        tag_68:\n        tag_67:\n            /* \"contracts/Produce.sol\":731:736  state */\n          0x07\n          0x00\n          swap1\n          sload\n          swap1\n          0x0100\n          exp\n          swap1\n          div\n          0xff\n          and\n            /* \"contracts/Produce.sol\":731:757  state==State.UNINITIALIZED */\n          0x02\n          dup2\n          gt\n          iszero\n          tag_70\n          jumpi\n          tag_71\n          tag_69\n          jump\t// in\n        tag_71:\n        tag_70:\n          eq\n            /* \"contracts/Produce.sol\":723:802  require(state==State.UNINITIALIZED, \"This produce has already been initilized\") */\n          tag_72\n          jumpi\n          mload(0x40)\n          0x08c379a000000000000000000000000000000000000000000000000000000000\n          dup2\n          mstore\n          0x04\n          add\n          tag_73\n          swap1\n          tag_74\n          jump\t// in\n        tag_73:\n          mload(0x40)\n          dup1\n          swap2\n          sub\n          swap1\n          revert\n        tag_72:\n            /* \"contracts/Produce.sol\":812:839  _transferOwnership(_farmer) */\n          tag_75\n            /* \"contracts/Produce.sol\":831:838  _farmer */\n          dup5\n            /* \"contracts/Produce.sol\":812:830  _transferOwnership */\n          tag_65\n            /* \"contracts/Produce.sol\":812:839  _transferOwnership(_farmer) */\n          jump\t// in\n        tag_75:\n            /* \"contracts/Produce.sol\":858:868  msg.sender */\n          caller\n            /* \"contracts/Produce.sol\":849:855  market */\n          0x02\n          0x00\n            /* \"contracts/Produce.sol\":849:868  market = msg.sender */\n          0x0100\n          exp\n          dup2\n          sload\n          dup2\n          0xffffffffffffffffffffffffffffffffffffffff\n          mul\n          not\n          and\n          swap1\n          dup4\n          0xffffffffffffffffffffffffffffffffffffffff\n          and\n          mul\n          or\n          swap1\n          sstore\n          pop\n            /* \"contracts/Produce.sol\":892:904  _produceHash */\n          dup3\n            /* \"contracts/Produce.sol\":878:889  produceHash */\n          0x03\n            /* \"contracts/Produce.sol\":878:904  produceHash = _produceHash */\n          dup2\n          swap1\n          sstore\n          pop\n            /* \"contracts/Produce.sol\":922:928  _price */\n          dup2\n            /* \"contracts/Produce.sol\":914:919  price */\n          0x04\n            /* \"contracts/Produce.sol\":914:928  price = _price */\n          dup2\n          swap1\n          sstore\n          pop\n            /* \"contracts/Produce.sol\":950:960  _orderSize */\n          dup1\n            /* \"contracts/Produce.sol\":938:947  orderSize */\n          0x05\n            /* \"contracts/Produce.sol\":938:960  orderSize = _orderSize */\n          dup2\n          swap1\n          sstore\n          pop\n            /* \"contracts/Produce.sol\":978:988  State.OPEN */\n          0x01\n            /* \"contracts/Produce.sol\":970:975  state */\n          0x07\n          0x00\n            /* \"contracts/Produce.sol\":970:988  state = State.OPEN */\n          0x0100\n          exp\n          dup2\n          sload\n          dup2\n          0xff\n          mul\n          not\n          and\n          swap1\n          dup4\n          0x02\n          dup2\n          gt\n          iszero\n          tag_76\n          jumpi\n          tag_77\n          tag_69\n          jump\t// in\n        tag_77:\n        tag_76:\n          mul\n          or\n          swap1\n          sstore\n          pop\n            /* \"contracts/Produce.sol\":572:995  function initilize(... */\n          pop\n          pop\n          pop\n          pop\n          jump\t// out\n            /* \"contracts/Produce.sol\":360:400  mapping(address=> bool) public orderList */\n        tag_31:\n          mstore(0x20, 0x06)\n          dup1\n          0x00\n          mstore\n          keccak256(0x00, 0x40)\n          0x00\n          swap2\n          pop\n          sload\n          swap1\n          0x0100\n          exp\n          swap1\n          div\n          0xff\n          and\n          dup2\n          jump\t// out\n            /* \"contracts/Produce.sol\":244:265  address public market */\n        tag_35:\n          0x02\n          0x00\n          swap1\n          sload\n          swap1\n          0x0100\n          exp\n          swap1\n          div\n          0xffffffffffffffffffffffffffffffffffffffff\n          and\n          dup2\n          jump\t// out\n            /* \"@openzeppelin/contracts/access/Ownable.sol\":1201:1286  function owner() public view virtual returns (address) {... */\n        tag_39:\n            /* \"@openzeppelin/contracts/access/Ownable.sol\":1247:1254  address */\n          0x00\n            /* \"@openzeppelin/contracts/access/Ownable.sol\":1273:1279  _owner */\n          dup1\n          0x00\n          swap1\n          sload\n          swap1\n          0x0100\n          exp\n          swap1\n          div\n          0xffffffffffffffffffffffffffffffffffffffff\n          and\n            /* \"@openzeppelin/contracts/access/Ownable.sol\":1266:1279  return _owner */\n          swap1\n          pop\n            /* \"@openzeppelin/contracts/access/Ownable.sol\":1201:1286  function owner() public view virtual returns (address) {... */\n          swap1\n          jump\t// out\n            /* \"contracts/Produce.sol\":1594:1781  function closeProduce() external onlyOwner {... */\n        tag_42:\n            /* \"@openzeppelin/contracts/access/Ownable.sol\":1094:1107  _checkOwner() */\n          tag_80\n            /* \"@openzeppelin/contracts/access/Ownable.sol\":1094:1105  _checkOwner */\n          tag_62\n            /* \"@openzeppelin/contracts/access/Ownable.sol\":1094:1107  _checkOwner() */\n          jump\t// in\n        tag_80:\n            /* \"contracts/Produce.sol\":1664:1674  State.OPEN */\n          0x01\n            /* \"contracts/Produce.sol\":1655:1674  state == State.OPEN */\n          0x02\n          dup2\n          gt\n          iszero\n          tag_82\n          jumpi\n          tag_83\n          tag_69\n          jump\t// in\n        tag_83:\n        tag_82:\n            /* \"contracts/Produce.sol\":1655:1660  state */\n          0x07\n          0x00\n          swap1\n          sload\n          swap1\n          0x0100\n          exp\n          swap1\n          div\n          0xff\n          and\n            /* \"contracts/Produce.sol\":1655:1674  state == State.OPEN */\n          0x02\n          dup2\n          gt\n          iszero\n          tag_84\n          jumpi\n          tag_85\n          tag_69\n          jump\t// in\n        tag_85:\n        tag_84:\n          eq\n            /* \"contracts/Produce.sol\":1647:1704  require(state == State.OPEN, \"produce is already closed\") */\n          tag_86\n          jumpi\n          mload(0x40)\n          0x08c379a000000000000000000000000000000000000000000000000000000000\n          dup2\n          mstore\n          0x04\n          add\n          tag_87\n          swap1\n          tag_88\n          jump\t// in\n        tag_87:\n          mload(0x40)\n          dup1\n          swap2\n          sub\n          swap1\n          revert\n        tag_86:\n            /* \"contracts/Produce.sol\":1722:1734  State.CLOSED */\n          0x02\n            /* \"contracts/Produce.sol\":1714:1719  state */\n          0x07\n          0x00\n            /* \"contracts/Produce.sol\":1714:1734  state = State.CLOSED */\n          0x0100\n          exp\n          dup2\n          sload\n          dup2\n          0xff\n          mul\n          not\n          and\n          swap1\n          dup4\n          0x02\n          dup2\n          gt\n          iszero\n          tag_89\n          jumpi\n          tag_90\n          tag_69\n          jump\t// in\n        tag_90:\n        tag_89:\n          mul\n          or\n          swap1\n          sstore\n          pop\n            /* \"contracts/Produce.sol\":1751:1757  market */\n          0x02\n          0x00\n          swap1\n          sload\n          swap1\n          0x0100\n          exp\n          swap1\n          div\n          0xffffffffffffffffffffffffffffffffffffffff\n          and\n            /* \"contracts/Produce.sol\":1744:1772  Market(market).removeProduce */\n          0xffffffffffffffffffffffffffffffffffffffff\n          and\n          0x9def9846\n            /* \"contracts/Produce.sol\":1744:1774  Market(market).removeProduce() */\n          mload(0x40)\n          dup2\n          0xffffffff\n          and\n          0xe0\n          shl\n          dup2\n          mstore\n          0x04\n          add\n          0x00\n          mload(0x40)\n          dup1\n          dup4\n          sub\n          dup2\n          0x00\n          dup8\n          dup1\n          extcodesize\n          iszero\n          dup1\n          iszero\n          tag_91\n          jumpi\n          0x00\n          dup1\n          revert\n        tag_91:\n          pop\n          gas\n          call\n          iszero\n          dup1\n          iszero\n          tag_93\n          jumpi\n          returndatasize\n          0x00\n          dup1\n          returndatacopy\n          revert(0x00, returndatasize)\n        tag_93:\n          pop\n          pop\n          pop\n          pop\n            /* \"contracts/Produce.sol\":1594:1781  function closeProduce() external onlyOwner {... */\n          jump\t// out\n            /* \"contracts/Produce.sol\":303:323  uint256 public price */\n        tag_44:\n          sload(0x04)\n          dup2\n          jump\t// out\n            /* \"contracts/Produce.sol\":217:238  address public farmer */\n        tag_47:\n          0x01\n          0x00\n          swap1\n          sload\n          swap1\n          0x0100\n          exp\n          swap1\n          div\n          0xffffffffffffffffffffffffffffffffffffffff\n          and\n          dup2\n          jump\t// out\n            /* \"contracts/Produce.sol\":1442:1588  function removeOrder() external {... */\n        tag_50:\n            /* \"contracts/Produce.sol\":1492:1501  orderList */\n          0x06\n            /* \"contracts/Produce.sol\":1492:1513  orderList[msg.sender] */\n          0x00\n            /* \"contracts/Produce.sol\":1502:1512  msg.sender */\n          caller\n            /* \"contracts/Produce.sol\":1492:1513  orderList[msg.sender] */\n          0xffffffffffffffffffffffffffffffffffffffff\n          and\n          0xffffffffffffffffffffffffffffffffffffffff\n          and\n          dup2\n          mstore\n          0x20\n          add\n          swap1\n          dup2\n          mstore\n          0x20\n          add\n          0x00\n          keccak256\n          0x00\n          swap1\n          sload\n          swap1\n          0x0100\n          exp\n          swap1\n          div\n          0xff\n          and\n            /* \"contracts/Produce.sol\":1484:1542  require(orderList[msg.sender], \"no order has been placed\") */\n          tag_95\n          jumpi\n          mload(0x40)\n          0x08c379a000000000000000000000000000000000000000000000000000000000\n          dup2\n          mstore\n          0x04\n          add\n          tag_96\n          swap1\n          tag_97\n          jump\t// in\n        tag_96:\n          mload(0x40)\n          dup1\n          swap2\n          sub\n          swap1\n          revert\n        tag_95:\n            /* \"contracts/Produce.sol\":1576:1581  false */\n          0x00\n            /* \"contracts/Produce.sol\":1552:1561  orderList */\n          0x06\n            /* \"contracts/Produce.sol\":1552:1573  orderList[msg.sender] */\n          0x00\n            /* \"contracts/Produce.sol\":1562:1572  msg.sender */\n          caller\n            /* \"contracts/Produce.sol\":1552:1573  orderList[msg.sender] */\n          0xffffffffffffffffffffffffffffffffffffffff\n          and\n          0xffffffffffffffffffffffffffffffffffffffff\n          and\n          dup2\n          mstore\n          0x20\n          add\n          swap1\n          dup2\n          mstore\n          0x20\n          add\n          0x00\n          keccak256\n          0x00\n            /* \"contracts/Produce.sol\":1552:1581  orderList[msg.sender] = false */\n          0x0100\n          exp\n          dup2\n          sload\n          dup2\n          0xff\n          mul\n          not\n          and\n          swap1\n          dup4\n          iszero\n          iszero\n          mul\n          or\n          swap1\n          sstore\n          pop\n            /* \"contracts/Produce.sol\":1442:1588  function removeOrder() external {... */\n          jump\t// out\n            /* \"@openzeppelin/contracts/access/Ownable.sol\":2081:2279  function transferOwnership(address newOwner) public virtual onlyOwner {... */\n        tag_53:\n            /* \"@openzeppelin/contracts/access/Ownable.sol\":1094:1107  _checkOwner() */\n          tag_99\n            /* \"@openzeppelin/contracts/access/Ownable.sol\":1094:1105  _checkOwner */\n          tag_62\n            /* \"@openzeppelin/contracts/access/Ownable.sol\":1094:1107  _checkOwner() */\n          jump\t// in\n        tag_99:\n            /* \"@openzeppelin/contracts/access/Ownable.sol\":2189:2190  0 */\n          0x00\n            /* \"@openzeppelin/contracts/access/Ownable.sol\":2169:2191  newOwner != address(0) */\n          0xffffffffffffffffffffffffffffffffffffffff\n          and\n            /* \"@openzeppelin/contracts/access/Ownable.sol\":2169:2177  newOwner */\n          dup2\n            /* \"@openzeppelin/contracts/access/Ownable.sol\":2169:2191  newOwner != address(0) */\n          0xffffffffffffffffffffffffffffffffffffffff\n          and\n          eq\n          iszero\n            /* \"@openzeppelin/contracts/access/Ownable.sol\":2161:2234  require(newOwner != address(0), \"Ownable: new owner is the zero address\") */\n          tag_101\n          jumpi\n          mload(0x40)\n          0x08c379a000000000000000000000000000000000000000000000000000000000\n          dup2\n          mstore\n          0x04\n          add\n          tag_102\n          swap1\n          tag_103\n          jump\t// in\n        tag_102:\n          mload(0x40)\n          dup1\n          swap2\n          sub\n          swap1\n          revert\n        tag_101:\n            /* \"@openzeppelin/contracts/access/Ownable.sol\":2244:2272  _transferOwnership(newOwner) */\n          tag_104\n            /* \"@openzeppelin/contracts/access/Ownable.sol\":2263:2271  newOwner */\n          dup2\n            /* \"@openzeppelin/contracts/access/Ownable.sol\":2244:2262  _transferOwnership */\n          tag_65\n            /* \"@openzeppelin/contracts/access/Ownable.sol\":2244:2272  _transferOwnership(newOwner) */\n          jump\t// in\n        tag_104:\n            /* \"@openzeppelin/contracts/access/Ownable.sol\":2081:2279  function transferOwnership(address newOwner) public virtual onlyOwner {... */\n          pop\n          jump\t// out\n            /* \"contracts/Produce.sol\":1048:1436  function placeOrder() external {... */\n        tag_55:\n            /* \"contracts/Produce.sol\":1106:1116  State.OPEN */\n          0x01\n            /* \"contracts/Produce.sol\":1097:1116  state == State.OPEN */\n          0x02\n          dup2\n          gt\n          iszero\n          tag_106\n          jumpi\n          tag_107\n          tag_69\n          jump\t// in\n        tag_107:\n        tag_106:\n            /* \"contracts/Produce.sol\":1097:1102  state */\n          0x07\n          0x00\n          swap1\n          sload\n          swap1\n          0x0100\n          exp\n          swap1\n          div\n          0xff\n          and\n            /* \"contracts/Produce.sol\":1097:1116  state == State.OPEN */\n          0x02\n          dup2\n          gt\n          iszero\n          tag_108\n          jumpi\n          tag_109\n          tag_69\n          jump\t// in\n        tag_109:\n        tag_108:\n          eq\n            /* \"contracts/Produce.sol\":1089:1153  require(state == State.OPEN, \"produce is not open for ordering\") */\n          tag_110\n          jumpi\n          mload(0x40)\n          0x08c379a000000000000000000000000000000000000000000000000000000000\n          dup2\n          mstore\n          0x04\n          add\n          tag_111\n          swap1\n          tag_112\n          jump\t// in\n        tag_111:\n          mload(0x40)\n          dup1\n          swap2\n          sub\n          swap1\n          revert\n        tag_110:\n            /* \"contracts/Produce.sol\":1198:1205  owner() */\n          tag_113\n            /* \"contracts/Produce.sol\":1198:1203  owner */\n          tag_39\n            /* \"contracts/Produce.sol\":1198:1205  owner() */\n          jump\t// in\n        tag_113:\n            /* \"contracts/Produce.sol\":1184:1205  msg.sender != owner() */\n          0xffffffffffffffffffffffffffffffffffffffff\n          and\n            /* \"contracts/Produce.sol\":1184:1194  msg.sender */\n          caller\n            /* \"contracts/Produce.sol\":1184:1205  msg.sender != owner() */\n          0xffffffffffffffffffffffffffffffffffffffff\n          and\n          eq\n          iszero\n            /* \"contracts/Produce.sol\":1163:1278  require(... */\n          tag_114\n          jumpi\n          mload(0x40)\n          0x08c379a000000000000000000000000000000000000000000000000000000000\n          dup2\n          mstore\n          0x04\n          add\n          tag_115\n          swap1\n          tag_116\n          jump\t// in\n        tag_115:\n          mload(0x40)\n          dup1\n          swap2\n          sub\n          swap1\n          revert\n        tag_114:\n            /* \"contracts/Produce.sol\":1297:1306  orderList */\n          0x06\n            /* \"contracts/Produce.sol\":1297:1318  orderList[msg.sender] */\n          0x00\n            /* \"contracts/Produce.sol\":1307:1317  msg.sender */\n          caller\n            /* \"contracts/Produce.sol\":1297:1318  orderList[msg.sender] */\n          0xffffffffffffffffffffffffffffffffffffffff\n          and\n          0xffffffffffffffffffffffffffffffffffffffff\n          and\n          dup2\n          mstore\n          0x20\n          add\n          swap1\n          dup2\n          mstore\n          0x20\n          add\n          0x00\n          keccak256\n          0x00\n          swap1\n          sload\n          swap1\n          0x0100\n          exp\n          swap1\n          div\n          0xff\n          and\n            /* \"contracts/Produce.sol\":1296:1318  !orderList[msg.sender] */\n          iszero\n            /* \"contracts/Produce.sol\":1288:1353  require(!orderList[msg.sender],  \"order has already been placed\") */\n          tag_117\n          jumpi\n          mload(0x40)\n          0x08c379a000000000000000000000000000000000000000000000000000000000\n          dup2\n          mstore\n          0x04\n          add\n          tag_118\n          swap1\n          tag_119\n          jump\t// in\n        tag_118:\n          mload(0x40)\n          dup1\n          swap2\n          sub\n          swap1\n          revert\n        tag_117:\n            /* \"contracts/Produce.sol\":1387:1391  true */\n          0x01\n            /* \"contracts/Produce.sol\":1363:1372  orderList */\n          0x06\n            /* \"contracts/Produce.sol\":1363:1384  orderList[msg.sender] */\n          0x00\n            /* \"contracts/Produce.sol\":1373:1383  msg.sender */\n          caller\n            /* \"contracts/Produce.sol\":1363:1384  orderList[msg.sender] */\n          0xffffffffffffffffffffffffffffffffffffffff\n          and\n          0xffffffffffffffffffffffffffffffffffffffff\n          and\n          dup2\n          mstore\n          0x20\n          add\n          swap1\n          dup2\n          mstore\n          0x20\n          add\n          0x00\n          keccak256\n          0x00\n            /* \"contracts/Produce.sol\":1363:1391  orderList[msg.sender] = true */\n          0x0100\n          exp\n          dup2\n          sload\n          dup2\n          0xff\n          mul\n          not\n          and\n          swap1\n          dup4\n          iszero\n          iszero\n          mul\n          or\n          swap1\n          sstore\n          pop\n            /* \"contracts/Produce.sol\":1406:1429  OrderQueued(msg.sender) */\n          0xe7183a38a6aa8fb99c4071a88f3acd0b3c30fd4b05330c2f0a0724bb0254f804\n            /* \"contracts/Produce.sol\":1418:1428  msg.sender */\n          caller\n            /* \"contracts/Produce.sol\":1406:1429  OrderQueued(msg.sender) */\n          mload(0x40)\n          tag_120\n          swap2\n          swap1\n          tag_37\n          jump\t// in\n        tag_120:\n          mload(0x40)\n          dup1\n          swap2\n          sub\n          swap1\n          log1\n            /* \"contracts/Produce.sol\":1048:1436  function placeOrder() external {... */\n          jump\t// out\n            /* \"contracts/Produce.sol\":271:297  bytes32 public produceHash */\n        tag_57:\n          sload(0x03)\n          dup2\n          jump\t// out\n            /* \"@openzeppelin/contracts/access/Ownable.sol\":1359:1489  function _checkOwner() internal view virtual {... */\n        tag_62:\n            /* \"@openzeppelin/contracts/access/Ownable.sol\":1433:1445  _msgSender() */\n          tag_122\n            /* \"@openzeppelin/contracts/access/Ownable.sol\":1433:1443  _msgSender */\n          tag_123\n            /* \"@openzeppelin/contracts/access/Ownable.sol\":1433:1445  _msgSender() */\n          jump\t// in\n        tag_122:\n            /* \"@openzeppelin/contracts/access/Ownable.sol\":1422:1445  owner() == _msgSender() */\n          0xffffffffffffffffffffffffffffffffffffffff\n          and\n            /* \"@openzeppelin/contracts/access/Ownable.sol\":1422:1429  owner() */\n          tag_124\n            /* \"@openzeppelin/contracts/access/Ownable.sol\":1422:1427  owner */\n          tag_39\n            /* \"@openzeppelin/contracts/access/Ownable.sol\":1422:1429  owner() */\n          jump\t// in\n        tag_124:\n            /* \"@openzeppelin/contracts/access/Ownable.sol\":1422:1445  owner() == _msgSender() */\n          0xffffffffffffffffffffffffffffffffffffffff\n          and\n          eq\n            /* \"@openzeppelin/contracts/access/Ownable.sol\":1414:1482  require(owner() == _msgSender(), \"Ownable: caller is not the owner\") */\n          tag_125\n          jumpi\n          mload(0x40)\n          0x08c379a000000000000000000000000000000000000000000000000000000000\n          dup2\n          mstore\n          0x04\n          add\n          tag_126\n          swap1\n          tag_127\n          jump\t// in\n        tag_126:\n          mload(0x40)\n          dup1\n          swap2\n          sub\n          swap1\n          revert\n        tag_125:\n            /* \"@openzeppelin/contracts/access/Ownable.sol\":1359:1489  function _checkOwner() internal view virtual {... */\n          jump\t// out\n            /* \"@openzeppelin/contracts/access/Ownable.sol\":2433:2620  function _transferOwnership(address newOwner) internal virtual {... */\n        tag_65:\n            /* \"@openzeppelin/contracts/access/Ownable.sol\":2506:2522  address oldOwner */\n          0x00\n            /* \"@openzeppelin/contracts/access/Ownable.sol\":2525:2531  _owner */\n          dup1\n          0x00\n          swap1\n          sload\n          swap1\n          0x0100\n          exp\n          swap1\n          div\n          0xffffffffffffffffffffffffffffffffffffffff\n          and\n            /* \"@openzeppelin/contracts/access/Ownable.sol\":2506:2531  address oldOwner = _owner */\n          swap1\n          pop\n            /* \"@openzeppelin/contracts/access/Ownable.sol\":2550:2558  newOwner */\n          dup2\n            /* \"@openzeppelin/contracts/access/Ownable.sol\":2541:2547  _owner */\n          0x00\n          dup1\n            /* \"@openzeppelin/contracts/access/Ownable.sol\":2541:2558  _owner = newOwner */\n          0x0100\n          exp\n          dup2\n          sload\n          dup2\n          0xffffffffffffffffffffffffffffffffffffffff\n          mul\n          not\n          and\n          swap1\n          dup4\n          0xffffffffffffffffffffffffffffffffffffffff\n          and\n          mul\n          or\n          swap1\n          sstore\n          pop\n            /* \"@openzeppelin/contracts/access/Ownable.sol\":2604:2612  newOwner */\n          dup2\n            /* \"@openzeppelin/contracts/access/Ownable.sol\":2573:2613  OwnershipTransferred(oldOwner, newOwner) */\n          0xffffffffffffffffffffffffffffffffffffffff\n          and\n            /* \"@openzeppelin/contracts/access/Ownable.sol\":2594:2602  oldOwner */\n          dup2\n            /* \"@openzeppelin/contracts/access/Ownable.sol\":2573:2613  OwnershipTransferred(oldOwner, newOwner) */\n          0xffffffffffffffffffffffffffffffffffffffff\n          and\n          0x8be0079c531659141344cd1fd0a4f28419497f9722a3daafe3b4186f6b6457e0\n          mload(0x40)\n          mload(0x40)\n          dup1\n          swap2\n          sub\n          swap1\n          log3\n            /* \"@openzeppelin/contracts/access/Ownable.sol\":2496:2620  {... */\n          pop\n            /* \"@openzeppelin/contracts/access/Ownable.sol\":2433:2620  function _transferOwnership(address newOwner) internal virtual {... */\n          pop\n          jump\t// out\n            /* \"@openzeppelin/contracts/utils/Context.sol\":640:736  function _msgSender() internal view virtual returns (address) {... */\n        tag_123:\n            /* \"@openzeppelin/contracts/utils/Context.sol\":693:700  address */\n          0x00\n            /* \"@openzeppelin/contracts/utils/Context.sol\":719:729  msg.sender */\n          caller\n            /* \"@openzeppelin/contracts/utils/Context.sol\":712:729  return msg.sender */\n          swap1\n          pop\n            /* \"@openzeppelin/contracts/utils/Context.sol\":640:736  function _msgSender() internal view virtual returns (address) {... */\n          swap1\n          jump\t// out\n            /* \"#utility.yul\":7:146   */\n        tag_131:\n            /* \"#utility.yul\":53:58   */\n          0x00\n            /* \"#utility.yul\":91:97   */\n          dup2\n            /* \"#utility.yul\":78:98   */\n          calldataload\n            /* \"#utility.yul\":69:98   */\n          swap1\n          pop\n            /* \"#utility.yul\":107:140   */\n          tag_133\n            /* \"#utility.yul\":134:139   */\n          dup2\n            /* \"#utility.yul\":107:140   */\n          tag_134\n          jump\t// in\n        tag_133:\n            /* \"#utility.yul\":7:146   */\n          swap3\n          swap2\n          pop\n          pop\n          jump\t// out\n            /* \"#utility.yul\":152:291   */\n        tag_135:\n            /* \"#utility.yul\":198:203   */\n          0x00\n            /* \"#utility.yul\":236:242   */\n          dup2\n            /* \"#utility.yul\":223:243   */\n          calldataload\n            /* \"#utility.yul\":214:243   */\n          swap1\n          pop\n            /* \"#utility.yul\":252:285   */\n          tag_137\n            /* \"#utility.yul\":279:284   */\n          dup2\n            /* \"#utility.yul\":252:285   */\n          tag_138\n          jump\t// in\n        tag_137:\n            /* \"#utility.yul\":152:291   */\n          swap3\n          swap2\n          pop\n          pop\n          jump\t// out\n            /* \"#utility.yul\":297:436   */\n        tag_139:\n            /* \"#utility.yul\":343:348   */\n          0x00\n            /* \"#utility.yul\":381:387   */\n          dup2\n            /* \"#utility.yul\":368:388   */\n          calldataload\n            /* \"#utility.yul\":359:388   */\n          swap1\n          pop\n            /* \"#utility.yul\":397:430   */\n          tag_141\n            /* \"#utility.yul\":424:429   */\n          dup2\n            /* \"#utility.yul\":397:430   */\n          tag_142\n          jump\t// in\n        tag_141:\n            /* \"#utility.yul\":297:436   */\n          swap3\n          swap2\n          pop\n          pop\n          jump\t// out\n            /* \"#utility.yul\":442:771   */\n        tag_30:\n            /* \"#utility.yul\":501:507   */\n          0x00\n            /* \"#utility.yul\":550:552   */\n          0x20\n            /* \"#utility.yul\":538:547   */\n          dup3\n            /* \"#utility.yul\":529:536   */\n          dup5\n            /* \"#utility.yul\":525:548   */\n          sub\n            /* \"#utility.yul\":521:553   */\n          slt\n            /* \"#utility.yul\":518:637   */\n          iszero\n          tag_144\n          jumpi\n            /* \"#utility.yul\":556:635   */\n          tag_145\n          tag_146\n          jump\t// in\n        tag_145:\n            /* \"#utility.yul\":518:637   */\n        tag_144:\n            /* \"#utility.yul\":676:677   */\n          0x00\n            /* \"#utility.yul\":701:754   */\n          tag_147\n            /* \"#utility.yul\":746:753   */\n          dup5\n            /* \"#utility.yul\":737:743   */\n          dup3\n            /* \"#utility.yul\":726:735   */\n          dup6\n            /* \"#utility.yul\":722:744   */\n          add\n            /* \"#utility.yul\":701:754   */\n          tag_131\n          jump\t// in\n        tag_147:\n            /* \"#utility.yul\":691:754   */\n          swap2\n          pop\n            /* \"#utility.yul\":647:764   */\n          pop\n            /* \"#utility.yul\":442:771   */\n          swap3\n          swap2\n          pop\n          pop\n          jump\t// out\n            /* \"#utility.yul\":777:1542   */\n        tag_26:\n            /* \"#utility.yul\":863:869   */\n          0x00\n            /* \"#utility.yul\":871:877   */\n          dup1\n            /* \"#utility.yul\":879:885   */\n          0x00\n            /* \"#utility.yul\":887:893   */\n          dup1\n            /* \"#utility.yul\":936:939   */\n          0x80\n            /* \"#utility.yul\":924:933   */\n          dup6\n            /* \"#utility.yul\":915:922   */\n          dup8\n            /* \"#utility.yul\":911:934   */\n          sub\n            /* \"#utility.yul\":907:940   */\n          slt\n            /* \"#utility.yul\":904:1024   */\n          iszero\n          tag_149\n          jumpi\n            /* \"#utility.yul\":943:1022   */\n          tag_150\n          tag_146\n          jump\t// in\n        tag_150:\n            /* \"#utility.yul\":904:1024   */\n        tag_149:\n            /* \"#utility.yul\":1063:1064   */\n          0x00\n            /* \"#utility.yul\":1088:1141   */\n          tag_151\n            /* \"#utility.yul\":1133:1140   */\n          dup8\n            /* \"#utility.yul\":1124:1130   */\n          dup3\n            /* \"#utility.yul\":1113:1122   */\n          dup9\n            /* \"#utility.yul\":1109:1131   */\n          add\n            /* \"#utility.yul\":1088:1141   */\n          tag_131\n          jump\t// in\n        tag_151:\n            /* \"#utility.yul\":1078:1141   */\n          swap5\n          pop\n            /* \"#utility.yul\":1034:1151   */\n          pop\n            /* \"#utility.yul\":1190:1192   */\n          0x20\n            /* \"#utility.yul\":1216:1269   */\n          tag_152\n            /* \"#utility.yul\":1261:1268   */\n          dup8\n            /* \"#utility.yul\":1252:1258   */\n          dup3\n            /* \"#utility.yul\":1241:1250   */\n          dup9\n            /* \"#utility.yul\":1237:1259   */\n          add\n            /* \"#utility.yul\":1216:1269   */\n          tag_135\n          jump\t// in\n        tag_152:\n            /* \"#utility.yul\":1206:1269   */\n          swap4\n          pop\n            /* \"#utility.yul\":1161:1279   */\n          pop\n            /* \"#utility.yul\":1318:1320   */\n          0x40\n            /* \"#utility.yul\":1344:1397   */\n          tag_153\n            /* \"#utility.yul\":1389:1396   */\n          dup8\n            /* \"#utility.yul\":1380:1386   */\n          dup3\n            /* \"#utility.yul\":1369:1378   */\n          dup9\n            /* \"#utility.yul\":1365:1387   */\n          add\n            /* \"#utility.yul\":1344:1397   */\n          tag_139\n          jump\t// in\n        tag_153:\n            /* \"#utility.yul\":1334:1397   */\n          swap3\n          pop\n            /* \"#utility.yul\":1289:1407   */\n          pop\n            /* \"#utility.yul\":1446:1448   */\n          0x60\n            /* \"#utility.yul\":1472:1525   */\n          tag_154\n            /* \"#utility.yul\":1517:1524   */\n          dup8\n            /* \"#utility.yul\":1508:1514   */\n          dup3\n            /* \"#utility.yul\":1497:1506   */\n          dup9\n            /* \"#utility.yul\":1493:1515   */\n          add\n            /* \"#utility.yul\":1472:1525   */\n          tag_139\n          jump\t// in\n        tag_154:\n            /* \"#utility.yul\":1462:1525   */\n          swap2\n          pop\n            /* \"#utility.yul\":1417:1535   */\n          pop\n            /* \"#utility.yul\":777:1542   */\n          swap3\n          swap6\n          swap2\n          swap5\n          pop\n          swap3\n          pop\n          jump\t// out\n            /* \"#utility.yul\":1548:1666   */\n        tag_155:\n            /* \"#utility.yul\":1635:1659   */\n          tag_157\n            /* \"#utility.yul\":1653:1658   */\n          dup2\n            /* \"#utility.yul\":1635:1659   */\n          tag_158\n          jump\t// in\n        tag_157:\n            /* \"#utility.yul\":1630:1633   */\n          dup3\n            /* \"#utility.yul\":1623:1660   */\n          mstore\n            /* \"#utility.yul\":1548:1666   */\n          pop\n          pop\n          jump\t// out\n            /* \"#utility.yul\":1672:1781   */\n        tag_159:\n            /* \"#utility.yul\":1753:1774   */\n          tag_161\n            /* \"#utility.yul\":1768:1773   */\n          dup2\n            /* \"#utility.yul\":1753:1774   */\n          tag_162\n          jump\t// in\n        tag_161:\n            /* \"#utility.yul\":1748:1751   */\n          dup3\n            /* \"#utility.yul\":1741:1775   */\n          mstore\n            /* \"#utility.yul\":1672:1781   */\n          pop\n          pop\n          jump\t// out\n            /* \"#utility.yul\":1787:1905   */\n        tag_163:\n            /* \"#utility.yul\":1874:1898   */\n          tag_165\n            /* \"#utility.yul\":1892:1897   */\n          dup2\n            /* \"#utility.yul\":1874:1898   */\n          tag_166\n          jump\t// in\n        tag_165:\n            /* \"#utility.yul\":1869:1872   */\n          dup3\n            /* \"#utility.yul\":1862:1899   */\n          mstore\n            /* \"#utility.yul\":1787:1905   */\n          pop\n          pop\n          jump\t// out\n            /* \"#utility.yul\":1911:2277   */\n        tag_167:\n            /* \"#utility.yul\":2053:2056   */\n          0x00\n            /* \"#utility.yul\":2074:2141   */\n          tag_169\n            /* \"#utility.yul\":2138:2140   */\n          0x26\n            /* \"#utility.yul\":2133:2136   */\n          dup4\n            /* \"#utility.yul\":2074:2141   */\n          tag_170\n          jump\t// in\n        tag_169:\n            /* \"#utility.yul\":2067:2141   */\n          swap2\n          pop\n            /* \"#utility.yul\":2150:2243   */\n          tag_171\n            /* \"#utility.yul\":2239:2242   */\n          dup3\n            /* \"#utility.yul\":2150:2243   */\n          tag_172\n          jump\t// in\n        tag_171:\n            /* \"#utility.yul\":2268:2270   */\n          0x40\n            /* \"#utility.yul\":2263:2266   */\n          dup3\n            /* \"#utility.yul\":2259:2271   */\n          add\n            /* \"#utility.yul\":2252:2271   */\n          swap1\n          pop\n            /* \"#utility.yul\":1911:2277   */\n          swap2\n          swap1\n          pop\n          jump\t// out\n            /* \"#utility.yul\":2283:2649   */\n        tag_173:\n            /* \"#utility.yul\":2425:2428   */\n          0x00\n            /* \"#utility.yul\":2446:2513   */\n          tag_175\n            /* \"#utility.yul\":2510:2512   */\n          0x20\n            /* \"#utility.yul\":2505:2508   */\n          dup4\n            /* \"#utility.yul\":2446:2513   */\n          tag_170\n          jump\t// in\n        tag_175:\n            /* \"#utility.yul\":2439:2513   */\n          swap2\n          pop\n            /* \"#utility.yul\":2522:2615   */\n          tag_176\n            /* \"#utility.yul\":2611:2614   */\n          dup3\n            /* \"#utility.yul\":2522:2615   */\n          tag_177\n          jump\t// in\n        tag_176:\n            /* \"#utility.yul\":2640:2642   */\n          0x20\n            /* \"#utility.yul\":2635:2638   */\n          dup3\n            /* \"#utility.yul\":2631:2643   */\n          add\n            /* \"#utility.yul\":2624:2643   */\n          swap1\n          pop\n            /* \"#utility.yul\":2283:2649   */\n          swap2\n          swap1\n          pop\n          jump\t// out\n            /* \"#utility.yul\":2655:3021   */\n        tag_178:\n            /* \"#utility.yul\":2797:2800   */\n          0x00\n            /* \"#utility.yul\":2818:2885   */\n          tag_180\n            /* \"#utility.yul\":2882:2884   */\n          0x19\n            /* \"#utility.yul\":2877:2880   */\n          dup4\n            /* \"#utility.yul\":2818:2885   */\n          tag_170\n          jump\t// in\n        tag_180:\n            /* \"#utility.yul\":2811:2885   */\n          swap2\n          pop\n            /* \"#utility.yul\":2894:2987   */\n          tag_181\n            /* \"#utility.yul\":2983:2986   */\n          dup3\n            /* \"#utility.yul\":2894:2987   */\n          tag_182\n          jump\t// in\n        tag_181:\n            /* \"#utility.yul\":3012:3014   */\n          0x20\n            /* \"#utility.yul\":3007:3010   */\n          dup3\n            /* \"#utility.yul\":3003:3015   */\n          add\n            /* \"#utility.yul\":2996:3015   */\n          swap1\n          pop\n            /* \"#utility.yul\":2655:3021   */\n          swap2\n          swap1\n          pop\n          jump\t// out\n            /* \"#utility.yul\":3027:3393   */\n        tag_183:\n            /* \"#utility.yul\":3169:3172   */\n          0x00\n            /* \"#utility.yul\":3190:3257   */\n          tag_185\n            /* \"#utility.yul\":3254:3256   */\n          0x28\n            /* \"#utility.yul\":3249:3252   */\n          dup4\n            /* \"#utility.yul\":3190:3257   */\n          tag_170\n          jump\t// in\n        tag_185:\n            /* \"#utility.yul\":3183:3257   */\n          swap2\n          pop\n            /* \"#utility.yul\":3266:3359   */\n          tag_186\n            /* \"#utility.yul\":3355:3358   */\n          dup3\n            /* \"#utility.yul\":3266:3359   */\n          tag_187\n          jump\t// in\n        tag_186:\n            /* \"#utility.yul\":3384:3386   */\n          0x40\n            /* \"#utility.yul\":3379:3382   */\n          dup3\n            /* \"#utility.yul\":3375:3387   */\n          add\n            /* \"#utility.yul\":3368:3387   */\n          swap1\n          pop\n            /* \"#utility.yul\":3027:3393   */\n          swap2\n          swap1\n          pop\n          jump\t// out\n            /* \"#utility.yul\":3399:3765   */\n        tag_188:\n            /* \"#utility.yul\":3541:3544   */\n          0x00\n            /* \"#utility.yul\":3562:3629   */\n          tag_190\n            /* \"#utility.yul\":3626:3628   */\n          0x2f\n            /* \"#utility.yul\":3621:3624   */\n          dup4\n            /* \"#utility.yul\":3562:3629   */\n          tag_170\n          jump\t// in\n        tag_190:\n            /* \"#utility.yul\":3555:3629   */\n          swap2\n          pop\n            /* \"#utility.yul\":3638:3731   */\n          tag_191\n            /* \"#utility.yul\":3727:3730   */\n          dup3\n            /* \"#utility.yul\":3638:3731   */\n          tag_192\n          jump\t// in\n        tag_191:\n            /* \"#utility.yul\":3756:3758   */\n          0x40\n            /* \"#utility.yul\":3751:3754   */\n          dup3\n            /* \"#utility.yul\":3747:3759   */\n          add\n            /* \"#utility.yul\":3740:3759   */\n          swap1\n          pop\n            /* \"#utility.yul\":3399:3765   */\n          swap2\n          swap1\n          pop\n          jump\t// out\n            /* \"#utility.yul\":3771:4137   */\n        tag_193:\n            /* \"#utility.yul\":3913:3916   */\n          0x00\n            /* \"#utility.yul\":3934:4001   */\n          tag_195\n            /* \"#utility.yul\":3998:4000   */\n          0x1d\n            /* \"#utility.yul\":3993:3996   */\n          dup4\n            /* \"#utility.yul\":3934:4001   */\n          tag_170\n          jump\t// in\n        tag_195:\n            /* \"#utility.yul\":3927:4001   */\n          swap2\n          pop\n            /* \"#utility.yul\":4010:4103   */\n          tag_196\n            /* \"#utility.yul\":4099:4102   */\n          dup3\n            /* \"#utility.yul\":4010:4103   */\n          tag_197\n          jump\t// in\n        tag_196:\n            /* \"#utility.yul\":4128:4130   */\n          0x20\n            /* \"#utility.yul\":4123:4126   */\n          dup3\n            /* \"#utility.yul\":4119:4131   */\n          add\n            /* \"#utility.yul\":4112:4131   */\n          swap1\n          pop\n            /* \"#utility.yul\":3771:4137   */\n          swap2\n          swap1\n          pop\n          jump\t// out\n            /* \"#utility.yul\":4143:4509   */\n        tag_198:\n            /* \"#utility.yul\":4285:4288   */\n          0x00\n            /* \"#utility.yul\":4306:4373   */\n          tag_200\n            /* \"#utility.yul\":4370:4372   */\n          0x20\n            /* \"#utility.yul\":4365:4368   */\n          dup4\n            /* \"#utility.yul\":4306:4373   */\n          tag_170\n          jump\t// in\n        tag_200:\n            /* \"#utility.yul\":4299:4373   */\n          swap2\n          pop\n            /* \"#utility.yul\":4382:4475   */\n          tag_201\n            /* \"#utility.yul\":4471:4474   */\n          dup3\n            /* \"#utility.yul\":4382:4475   */\n          tag_202\n          jump\t// in\n        tag_201:\n            /* \"#utility.yul\":4500:4502   */\n          0x20\n            /* \"#utility.yul\":4495:4498   */\n          dup3\n            /* \"#utility.yul\":4491:4503   */\n          add\n            /* \"#utility.yul\":4484:4503   */\n          swap1\n          pop\n            /* \"#utility.yul\":4143:4509   */\n          swap2\n          swap1\n          pop\n          jump\t// out\n            /* \"#utility.yul\":4515:4881   */\n        tag_203:\n            /* \"#utility.yul\":4657:4660   */\n          0x00\n            /* \"#utility.yul\":4678:4745   */\n          tag_205\n            /* \"#utility.yul\":4742:4744   */\n          0x18\n            /* \"#utility.yul\":4737:4740   */\n          dup4\n            /* \"#utility.yul\":4678:4745   */\n          tag_170\n          jump\t// in\n        tag_205:\n            /* \"#utility.yul\":4671:4745   */\n          swap2\n          pop\n            /* \"#utility.yul\":4754:4847   */\n          tag_206\n            /* \"#utility.yul\":4843:4846   */\n          dup3\n            /* \"#utility.yul\":4754:4847   */\n          tag_207\n          jump\t// in\n        tag_206:\n            /* \"#utility.yul\":4872:4874   */\n          0x20\n            /* \"#utility.yul\":4867:4870   */\n          dup3\n            /* \"#utility.yul\":4863:4875   */\n          add\n            /* \"#utility.yul\":4856:4875   */\n          swap1\n          pop\n            /* \"#utility.yul\":4515:4881   */\n          swap2\n          swap1\n          pop\n          jump\t// out\n            /* \"#utility.yul\":4887:5005   */\n        tag_208:\n            /* \"#utility.yul\":4974:4998   */\n          tag_210\n            /* \"#utility.yul\":4992:4997   */\n          dup2\n            /* \"#utility.yul\":4974:4998   */\n          tag_211\n          jump\t// in\n        tag_210:\n            /* \"#utility.yul\":4969:4972   */\n          dup3\n            /* \"#utility.yul\":4962:4999   */\n          mstore\n            /* \"#utility.yul\":4887:5005   */\n          pop\n          pop\n          jump\t// out\n            /* \"#utility.yul\":5011:5233   */\n        tag_37:\n            /* \"#utility.yul\":5104:5108   */\n          0x00\n            /* \"#utility.yul\":5142:5144   */\n          0x20\n            /* \"#utility.yul\":5131:5140   */\n          dup3\n            /* \"#utility.yul\":5127:5145   */\n          add\n            /* \"#utility.yul\":5119:5145   */\n          swap1\n          pop\n            /* \"#utility.yul\":5155:5226   */\n          tag_213\n            /* \"#utility.yul\":5223:5224   */\n          0x00\n            /* \"#utility.yul\":5212:5221   */\n          dup4\n            /* \"#utility.yul\":5208:5225   */\n          add\n            /* \"#utility.yul\":5199:5205   */\n          dup5\n            /* \"#utility.yul\":5155:5226   */\n          tag_155\n          jump\t// in\n        tag_213:\n            /* \"#utility.yul\":5011:5233   */\n          swap3\n          swap2\n          pop\n          pop\n          jump\t// out\n            /* \"#utility.yul\":5239:5449   */\n        tag_33:\n            /* \"#utility.yul\":5326:5330   */\n          0x00\n            /* \"#utility.yul\":5364:5366   */\n          0x20\n            /* \"#utility.yul\":5353:5362   */\n          dup3\n            /* \"#utility.yul\":5349:5367   */\n          add\n            /* \"#utility.yul\":5341:5367   */\n          swap1\n          pop\n            /* \"#utility.yul\":5377:5442   */\n          tag_215\n            /* \"#utility.yul\":5439:5440   */\n          0x00\n            /* \"#utility.yul\":5428:5437   */\n          dup4\n            /* \"#utility.yul\":5424:5441   */\n          add\n            /* \"#utility.yul\":5415:5421   */\n          dup5\n            /* \"#utility.yul\":5377:5442   */\n          tag_159\n          jump\t// in\n        tag_215:\n            /* \"#utility.yul\":5239:5449   */\n          swap3\n          swap2\n          pop\n          pop\n          jump\t// out\n            /* \"#utility.yul\":5455:5677   */\n        tag_59:\n            /* \"#utility.yul\":5548:5552   */\n          0x00\n            /* \"#utility.yul\":5586:5588   */\n          0x20\n            /* \"#utility.yul\":5575:5584   */\n          dup3\n            /* \"#utility.yul\":5571:5589   */\n          add\n            /* \"#utility.yul\":5563:5589   */\n          swap1\n          pop\n            /* \"#utility.yul\":5599:5670   */\n          tag_217\n            /* \"#utility.yul\":5667:5668   */\n          0x00\n            /* \"#utility.yul\":5656:5665   */\n          dup4\n            /* \"#utility.yul\":5652:5669   */\n          add\n            /* \"#utility.yul\":5643:5649   */\n          dup5\n            /* \"#utility.yul\":5599:5670   */\n          tag_163\n          jump\t// in\n        tag_217:\n            /* \"#utility.yul\":5455:5677   */\n          swap3\n          swap2\n          pop\n          pop\n          jump\t// out\n            /* \"#utility.yul\":5683:6102   */\n        tag_103:\n            /* \"#utility.yul\":5849:5853   */\n          0x00\n            /* \"#utility.yul\":5887:5889   */\n          0x20\n            /* \"#utility.yul\":5876:5885   */\n          dup3\n            /* \"#utility.yul\":5872:5890   */\n          add\n            /* \"#utility.yul\":5864:5890   */\n          swap1\n          pop\n            /* \"#utility.yul\":5936:5945   */\n          dup2\n            /* \"#utility.yul\":5930:5934   */\n          dup2\n            /* \"#utility.yul\":5926:5946   */\n          sub\n            /* \"#utility.yul\":5922:5923   */\n          0x00\n            /* \"#utility.yul\":5911:5920   */\n          dup4\n            /* \"#utility.yul\":5907:5924   */\n          add\n            /* \"#utility.yul\":5900:5947   */\n          mstore\n            /* \"#utility.yul\":5964:6095   */\n          tag_219\n            /* \"#utility.yul\":6090:6094   */\n          dup2\n            /* \"#utility.yul\":5964:6095   */\n          tag_167\n          jump\t// in\n        tag_219:\n            /* \"#utility.yul\":5956:6095   */\n          swap1\n          pop\n            /* \"#utility.yul\":5683:6102   */\n          swap2\n          swap1\n          pop\n          jump\t// out\n            /* \"#utility.yul\":6108:6527   */\n        tag_112:\n            /* \"#utility.yul\":6274:6278   */\n          0x00\n            /* \"#utility.yul\":6312:6314   */\n          0x20\n            /* \"#utility.yul\":6301:6310   */\n          dup3\n            /* \"#utility.yul\":6297:6315   */\n          add\n            /* \"#utility.yul\":6289:6315   */\n          swap1\n          pop\n            /* \"#utility.yul\":6361:6370   */\n          dup2\n            /* \"#utility.yul\":6355:6359   */\n          dup2\n            /* \"#utility.yul\":6351:6371   */\n          sub\n            /* \"#utility.yul\":6347:6348   */\n          0x00\n            /* \"#utility.yul\":6336:6345   */\n          dup4\n            /* \"#utility.yul\":6332:6349   */\n          add\n            /* \"#utility.yul\":6325:6372   */\n          mstore\n            /* \"#utility.yul\":6389:6520   */\n          tag_221\n            /* \"#utility.yul\":6515:6519   */\n          dup2\n            /* \"#utility.yul\":6389:6520   */\n          tag_173\n          jump\t// in\n        tag_221:\n            /* \"#utility.yul\":6381:6520   */\n          swap1\n          pop\n            /* \"#utility.yul\":6108:6527   */\n          swap2\n          swap1\n          pop\n          jump\t// out\n            /* \"#utility.yul\":6533:6952   */\n        tag_88:\n            /* \"#utility.yul\":6699:6703   */\n          0x00\n            /* \"#utility.yul\":6737:6739   */\n          0x20\n            /* \"#utility.yul\":6726:6735   */\n          dup3\n            /* \"#utility.yul\":6722:6740   */\n          add\n            /* \"#utility.yul\":6714:6740   */\n          swap1\n          pop\n            /* \"#utility.yul\":6786:6795   */\n          dup2\n            /* \"#utility.yul\":6780:6784   */\n          dup2\n            /* \"#utility.yul\":6776:6796   */\n          sub\n            /* \"#utility.yul\":6772:6773   */\n          0x00\n            /* \"#utility.yul\":6761:6770   */\n          dup4\n            /* \"#utility.yul\":6757:6774   */\n          add\n            /* \"#utility.yul\":6750:6797   */\n          mstore\n            /* \"#utility.yul\":6814:6945   */\n          tag_223\n            /* \"#utility.yul\":6940:6944   */\n          dup2\n            /* \"#utility.yul\":6814:6945   */\n          tag_178\n          jump\t// in\n        tag_223:\n            /* \"#utility.yul\":6806:6945   */\n          swap1\n          pop\n            /* \"#utility.yul\":6533:6952   */\n          swap2\n          swap1\n          pop\n          jump\t// out\n            /* \"#utility.yul\":6958:7377   */\n        tag_74:\n            /* \"#utility.yul\":7124:7128   */\n          0x00\n            /* \"#utility.yul\":7162:7164   */\n          0x20\n            /* \"#utility.yul\":7151:7160   */\n          dup3\n            /* \"#utility.yul\":7147:7165   */\n          add\n            /* \"#utility.yul\":7139:7165   */\n          swap1\n          pop\n            /* \"#utility.yul\":7211:7220   */\n          dup2\n            /* \"#utility.yul\":7205:7209   */\n          dup2\n            /* \"#utility.yul\":7201:7221   */\n          sub\n            /* \"#utility.yul\":7197:7198   */\n          0x00\n            /* \"#utility.yul\":7186:7195   */\n          dup4\n            /* \"#utility.yul\":7182:7199   */\n          add\n            /* \"#utility.yul\":7175:7222   */\n          mstore\n            /* \"#utility.yul\":7239:7370   */\n          tag_225\n            /* \"#utility.yul\":7365:7369   */\n          dup2\n            /* \"#utility.yul\":7239:7370   */\n          tag_183\n          jump\t// in\n        tag_225:\n            /* \"#utility.yul\":7231:7370   */\n          swap1\n          pop\n            /* \"#utility.yul\":6958:7377   */\n          swap2\n          swap1\n          pop\n          jump\t// out\n            /* \"#utility.yul\":7383:7802   */\n        tag_116:\n            /* \"#utility.yul\":7549:7553   */\n          0x00\n            /* \"#utility.yul\":7587:7589   */\n          0x20\n            /* \"#utility.yul\":7576:7585   */\n          dup3\n            /* \"#utility.yul\":7572:7590   */\n          add\n            /* \"#utility.yul\":7564:7590   */\n          swap1\n          pop\n            /* \"#utility.yul\":7636:7645   */\n          dup2\n            /* \"#utility.yul\":7630:7634   */\n          dup2\n            /* \"#utility.yul\":7626:7646   */\n          sub\n            /* \"#utility.yul\":7622:7623   */\n          0x00\n            /* \"#utility.yul\":7611:7620   */\n          dup4\n            /* \"#utility.yul\":7607:7624   */\n          add\n            /* \"#utility.yul\":7600:7647   */\n          mstore\n            /* \"#utility.yul\":7664:7795   */\n          tag_227\n            /* \"#utility.yul\":7790:7794   */\n          dup2\n            /* \"#utility.yul\":7664:7795   */\n          tag_188\n          jump\t// in\n        tag_227:\n            /* \"#utility.yul\":7656:7795   */\n          swap1\n          pop\n            /* \"#utility.yul\":7383:7802   */\n          swap2\n          swap1\n          pop\n          jump\t// out\n            /* \"#utility.yul\":7808:8227   */\n        tag_119:\n            /* \"#utility.yul\":7974:7978   */\n          0x00\n            /* \"#utility.yul\":8012:8014   */\n          0x20\n            /* \"#utility.yul\":8001:8010   */\n          dup3\n            /* \"#utility.yul\":7997:8015   */\n          add\n            /* \"#utility.yul\":7989:8015   */\n          swap1\n          pop\n            /* \"#utility.yul\":8061:8070   */\n          dup2\n            /* \"#utility.yul\":8055:8059   */\n          dup2\n            /* \"#utility.yul\":8051:8071   */\n          sub\n            /* \"#utility.yul\":8047:8048   */\n          0x00\n            /* \"#utility.yul\":8036:8045   */\n          dup4\n            /* \"#utility.yul\":8032:8049   */\n          add\n            /* \"#utility.yul\":8025:8072   */\n          mstore\n            /* \"#utility.yul\":8089:8220   */\n          tag_229\n            /* \"#utility.yul\":8215:8219   */\n          dup2\n            /* \"#utility.yul\":8089:8220   */\n          tag_193\n          jump\t// in\n        tag_229:\n            /* \"#utility.yul\":8081:8220   */\n          swap1\n          pop\n            /* \"#utility.yul\":7808:8227   */\n          swap2\n          swap1\n          pop\n          jump\t// out\n            /* \"#utility.yul\":8233:8652   */\n        tag_127:\n            /* \"#utility.yul\":8399:8403   */\n          0x00\n            /* \"#utility.yul\":8437:8439   */\n          0x20\n            /* \"#utility.yul\":8426:8435   */\n          dup3\n            /* \"#utility.yul\":8422:8440   */\n          add\n            /* \"#utility.yul\":8414:8440   */\n          swap1\n          pop\n            /* \"#utility.yul\":8486:8495   */\n          dup2\n            /* \"#utility.yul\":8480:8484   */\n          dup2\n            /* \"#utility.yul\":8476:8496   */\n          sub\n            /* \"#utility.yul\":8472:8473   */\n          0x00\n            /* \"#utility.yul\":8461:8470   */\n          dup4\n            /* \"#utility.yul\":8457:8474   */\n          add\n            /* \"#utility.yul\":8450:8497   */\n          mstore\n            /* \"#utility.yul\":8514:8645   */\n          tag_231\n            /* \"#utility.yul\":8640:8644   */\n          dup2\n            /* \"#utility.yul\":8514:8645   */\n          tag_198\n          jump\t// in\n        tag_231:\n            /* \"#utility.yul\":8506:8645   */\n          swap1\n          pop\n            /* \"#utility.yul\":8233:8652   */\n          swap2\n          swap1\n          pop\n          jump\t// out\n            /* \"#utility.yul\":8658:9077   */\n        tag_97:\n            /* \"#utility.yul\":8824:8828   */\n          0x00\n            /* \"#utility.yul\":8862:8864   */\n          0x20\n            /* \"#utility.yul\":8851:8860   */\n          dup3\n            /* \"#utility.yul\":8847:8865   */\n          add\n            /* \"#utility.yul\":8839:8865   */\n          swap1\n          pop\n            /* \"#utility.yul\":8911:8920   */\n          dup2\n            /* \"#utility.yul\":8905:8909   */\n          dup2\n            /* \"#utility.yul\":8901:8921   */\n          sub\n            /* \"#utility.yul\":8897:8898   */\n          0x00\n            /* \"#utility.yul\":8886:8895   */\n          dup4\n            /* \"#utility.yul\":8882:8899   */\n          add\n            /* \"#utility.yul\":8875:8922   */\n          mstore\n            /* \"#utility.yul\":8939:9070   */\n          tag_233\n            /* \"#utility.yul\":9065:9069   */\n          dup2\n            /* \"#utility.yul\":8939:9070   */\n          tag_203\n          jump\t// in\n        tag_233:\n            /* \"#utility.yul\":8931:9070   */\n          swap1\n          pop\n            /* \"#utility.yul\":8658:9077   */\n          swap2\n          swap1\n          pop\n          jump\t// out\n            /* \"#utility.yul\":9083:9305   */\n        tag_21:\n            /* \"#utility.yul\":9176:9180   */\n          0x00\n            /* \"#utility.yul\":9214:9216   */\n          0x20\n            /* \"#utility.yul\":9203:9212   */\n          dup3\n            /* \"#utility.yul\":9199:9217   */\n          add\n            /* \"#utility.yul\":9191:9217   */\n          swap1\n          pop\n            /* \"#utility.yul\":9227:9298   */\n          tag_235\n            /* \"#utility.yul\":9295:9296   */\n          0x00\n            /* \"#utility.yul\":9284:9293   */\n          dup4\n            /* \"#utility.yul\":9280:9297   */\n          add\n            /* \"#utility.yul\":9271:9277   */\n          dup5\n            /* \"#utility.yul\":9227:9298   */\n          tag_208\n          jump\t// in\n        tag_235:\n            /* \"#utility.yul\":9083:9305   */\n          swap3\n          swap2\n          pop\n          pop\n          jump\t// out\n            /* \"#utility.yul\":9392:9561   */\n        tag_170:\n            /* \"#utility.yul\":9476:9487   */\n          0x00\n            /* \"#utility.yul\":9510:9516   */\n          dup3\n            /* \"#utility.yul\":9505:9508   */\n          dup3\n            /* \"#utility.yul\":9498:9517   */\n          mstore\n            /* \"#utility.yul\":9550:9554   */\n          0x20\n            /* \"#utility.yul\":9545:9548   */\n          dup3\n            /* \"#utility.yul\":9541:9555   */\n          add\n            /* \"#utility.yul\":9526:9555   */\n          swap1\n          pop\n            /* \"#utility.yul\":9392:9561   */\n          swap3\n          swap2\n          pop\n          pop\n          jump\t// out\n            /* \"#utility.yul\":9567:9663   */\n        tag_158:\n            /* \"#utility.yul\":9604:9611   */\n          0x00\n            /* \"#utility.yul\":9633:9657   */\n          tag_240\n            /* \"#utility.yul\":9651:9656   */\n          dup3\n            /* \"#utility.yul\":9633:9657   */\n          tag_241\n          jump\t// in\n        tag_240:\n            /* \"#utility.yul\":9622:9657   */\n          swap1\n          pop\n            /* \"#utility.yul\":9567:9663   */\n          swap2\n          swap1\n          pop\n          jump\t// out\n            /* \"#utility.yul\":9669:9759   */\n        tag_162:\n            /* \"#utility.yul\":9703:9710   */\n          0x00\n            /* \"#utility.yul\":9746:9751   */\n          dup2\n            /* \"#utility.yul\":9739:9752   */\n          iszero\n            /* \"#utility.yul\":9732:9753   */\n          iszero\n            /* \"#utility.yul\":9721:9753   */\n          swap1\n          pop\n            /* \"#utility.yul\":9669:9759   */\n          swap2\n          swap1\n          pop\n          jump\t// out\n            /* \"#utility.yul\":9765:9842   */\n        tag_166:\n            /* \"#utility.yul\":9802:9809   */\n          0x00\n            /* \"#utility.yul\":9831:9836   */\n          dup2\n            /* \"#utility.yul\":9820:9836   */\n          swap1\n          pop\n            /* \"#utility.yul\":9765:9842   */\n          swap2\n          swap1\n          pop\n          jump\t// out\n            /* \"#utility.yul\":9848:9974   */\n        tag_241:\n            /* \"#utility.yul\":9885:9892   */\n          0x00\n            /* \"#utility.yul\":9925:9967   */\n          0xffffffffffffffffffffffffffffffffffffffff\n            /* \"#utility.yul\":9918:9923   */\n          dup3\n            /* \"#utility.yul\":9914:9968   */\n          and\n            /* \"#utility.yul\":9903:9968   */\n          swap1\n          pop\n            /* \"#utility.yul\":9848:9974   */\n          swap2\n          swap1\n          pop\n          jump\t// out\n            /* \"#utility.yul\":9980:10057   */\n        tag_211:\n            /* \"#utility.yul\":10017:10024   */\n          0x00\n            /* \"#utility.yul\":10046:10051   */\n          dup2\n            /* \"#utility.yul\":10035:10051   */\n          swap1\n          pop\n            /* \"#utility.yul\":9980:10057   */\n          swap2\n          swap1\n          pop\n          jump\t// out\n            /* \"#utility.yul\":10063:10243   */\n        tag_69:\n            /* \"#utility.yul\":10111:10188   */\n          0x4e487b7100000000000000000000000000000000000000000000000000000000\n            /* \"#utility.yul\":10108:10109   */\n          0x00\n            /* \"#utility.yul\":10101:10189   */\n          mstore\n            /* \"#utility.yul\":10208:10212   */\n          0x21\n            /* \"#utility.yul\":10205:10206   */\n          0x04\n            /* \"#utility.yul\":10198:10213   */\n          mstore\n            /* \"#utility.yul\":10232:10236   */\n          0x24\n            /* \"#utility.yul\":10229:10230   */\n          0x00\n            /* \"#utility.yul\":10222:10237   */\n          revert\n            /* \"#utility.yul\":10372:10489   */\n        tag_146:\n            /* \"#utility.yul\":10481:10482   */\n          0x00\n            /* \"#utility.yul\":10478:10479   */\n          dup1\n            /* \"#utility.yul\":10471:10483   */\n          revert\n            /* \"#utility.yul\":10495:10720   */\n        tag_172:\n            /* \"#utility.yul\":10635:10669   */\n          0x4f776e61626c653a206e6577206f776e657220697320746865207a65726f2061\n            /* \"#utility.yul\":10631:10632   */\n          0x00\n            /* \"#utility.yul\":10623:10629   */\n          dup3\n            /* \"#utility.yul\":10619:10633   */\n          add\n            /* \"#utility.yul\":10612:10670   */\n          mstore\n            /* \"#utility.yul\":10704:10712   */\n          0x6464726573730000000000000000000000000000000000000000000000000000\n            /* \"#utility.yul\":10699:10701   */\n          0x20\n            /* \"#utility.yul\":10691:10697   */\n          dup3\n            /* \"#utility.yul\":10687:10702   */\n          add\n            /* \"#utility.yul\":10680:10713   */\n          mstore\n            /* \"#utility.yul\":10495:10720   */\n          pop\n          jump\t// out\n            /* \"#utility.yul\":10726:10908   */\n        tag_177:\n            /* \"#utility.yul\":10866:10900   */\n          0x70726f64756365206973206e6f74206f70656e20666f72206f72646572696e67\n            /* \"#utility.yul\":10862:10863   */\n          0x00\n            /* \"#utility.yul\":10854:10860   */\n          dup3\n            /* \"#utility.yul\":10850:10864   */\n          add\n            /* \"#utility.yul\":10843:10901   */\n          mstore\n            /* \"#utility.yul\":10726:10908   */\n          pop\n          jump\t// out\n            /* \"#utility.yul\":10914:11089   */\n        tag_182:\n            /* \"#utility.yul\":11054:11081   */\n          0x70726f6475636520697320616c726561647920636c6f73656400000000000000\n            /* \"#utility.yul\":11050:11051   */\n          0x00\n            /* \"#utility.yul\":11042:11048   */\n          dup3\n            /* \"#utility.yul\":11038:11052   */\n          add\n            /* \"#utility.yul\":11031:11082   */\n          mstore\n            /* \"#utility.yul\":10914:11089   */\n          pop\n          jump\t// out\n            /* \"#utility.yul\":11095:11322   */\n        tag_187:\n            /* \"#utility.yul\":11235:11269   */\n          0x546869732070726f647563652068617320616c7265616479206265656e20696e\n            /* \"#utility.yul\":11231:11232   */\n          0x00\n            /* \"#utility.yul\":11223:11229   */\n          dup3\n            /* \"#utility.yul\":11219:11233   */\n          add\n            /* \"#utility.yul\":11212:11270   */\n          mstore\n            /* \"#utility.yul\":11304:11314   */\n          0x6974696c697a6564000000000000000000000000000000000000000000000000\n            /* \"#utility.yul\":11299:11301   */\n          0x20\n            /* \"#utility.yul\":11291:11297   */\n          dup3\n            /* \"#utility.yul\":11287:11302   */\n          add\n            /* \"#utility.yul\":11280:11315   */\n          mstore\n            /* \"#utility.yul\":11095:11322   */\n          pop\n          jump\t// out\n            /* \"#utility.yul\":11328:11562   */\n        tag_192:\n            /* \"#utility.yul\":11468:11502   */\n          0x6661726d65722063616e6e6f7420706c616365206f7264657220666f72207468\n            /* \"#utility.yul\":11464:11465   */\n          0x00\n            /* \"#utility.yul\":11456:11462   */\n          dup3\n            /* \"#utility.yul\":11452:11466   */\n          add\n            /* \"#utility.yul\":11445:11503   */\n          mstore\n            /* \"#utility.yul\":11537:11554   */\n          0x656972206f776e2070726f647563650000000000000000000000000000000000\n            /* \"#utility.yul\":11532:11534   */\n          0x20\n            /* \"#utility.yul\":11524:11530   */\n          dup3\n            /* \"#utility.yul\":11520:11535   */\n          add\n            /* \"#utility.yul\":11513:11555   */\n          mstore\n            /* \"#utility.yul\":11328:11562   */\n          pop\n          jump\t// out\n            /* \"#utility.yul\":11568:11747   */\n        tag_197:\n            /* \"#utility.yul\":11708:11739   */\n          0x6f726465722068617320616c7265616479206265656e20706c61636564000000\n            /* \"#utility.yul\":11704:11705   */\n          0x00\n            /* \"#utility.yul\":11696:11702   */\n          dup3\n            /* \"#utility.yul\":11692:11706   */\n          add\n            /* \"#utility.yul\":11685:11740   */\n          mstore\n            /* \"#utility.yul\":11568:11747   */\n          pop\n          jump\t// out\n            /* \"#utility.yul\":11753:11935   */\n        tag_202:\n            /* \"#utility.yul\":11893:11927   */\n          0x4f776e61626c653a2063616c6c6572206973206e6f7420746865206f776e6572\n            /* \"#utility.yul\":11889:11890   */\n          0x00\n            /* \"#utility.yul\":11881:11887   */\n          dup3\n            /* \"#utility.yul\":11877:11891   */\n          add\n            /* \"#utility.yul\":11870:11928   */\n          mstore\n            /* \"#utility.yul\":11753:11935   */\n          pop\n          jump\t// out\n            /* \"#utility.yul\":11941:12115   */\n        tag_207:\n            /* \"#utility.yul\":12081:12107   */\n          0x6e6f206f7264657220686173206265656e20706c616365640000000000000000\n            /* \"#utility.yul\":12077:12078   */\n          0x00\n            /* \"#utility.yul\":12069:12075   */\n          dup3\n            /* \"#utility.yul\":12065:12079   */\n          add\n            /* \"#utility.yul\":12058:12108   */\n          mstore\n            /* \"#utility.yul\":11941:12115   */\n          pop\n          jump\t// out\n            /* \"#utility.yul\":12121:12243   */\n        tag_134:\n            /* \"#utility.yul\":12194:12218   */\n          tag_259\n            /* \"#utility.yul\":12212:12217   */\n          dup2\n            /* \"#utility.yul\":12194:12218   */\n          tag_158\n          jump\t// in\n        tag_259:\n            /* \"#utility.yul\":12187:12192   */\n          dup2\n            /* \"#utility.yul\":12184:12219   */\n          eq\n            /* \"#utility.yul\":12174:12237   */\n          tag_260\n          jumpi\n            /* \"#utility.yul\":12233:12234   */\n          0x00\n            /* \"#utility.yul\":12230:12231   */\n          dup1\n            /* \"#utility.yul\":12223:12235   */\n          revert\n            /* \"#utility.yul\":12174:12237   */\n        tag_260:\n            /* \"#utility.yul\":12121:12243   */\n          pop\n          jump\t// out\n            /* \"#utility.yul\":12249:12371   */\n        tag_138:\n            /* \"#utility.yul\":12322:12346   */\n          tag_262\n            /* \"#utility.yul\":12340:12345   */\n          dup2\n            /* \"#utility.yul\":12322:12346   */\n          tag_166\n          jump\t// in\n        tag_262:\n            /* \"#utility.yul\":12315:12320   */\n          dup2\n            /* \"#utility.yul\":12312:12347   */\n          eq\n            /* \"#utility.yul\":12302:12365   */\n          tag_263\n          jumpi\n            /* \"#utility.yul\":12361:12362   */\n          0x00\n            /* \"#utility.yul\":12358:12359   */\n          dup1\n            /* \"#utility.yul\":12351:12363   */\n          revert\n            /* \"#utility.yul\":12302:12365   */\n        tag_263:\n            /* \"#utility.yul\":12249:12371   */\n          pop\n          jump\t// out\n            /* \"#utility.yul\":12377:12499   */\n        tag_142:\n            /* \"#utility.yul\":12450:12474   */\n          tag_265\n            /* \"#utility.yul\":12468:12473   */\n          dup2\n            /* \"#utility.yul\":12450:12474   */\n          tag_211\n          jump\t// in\n        tag_265:\n            /* \"#utility.yul\":12443:12448   */\n          dup2\n            /* \"#utility.yul\":12440:12475   */\n          eq\n            /* \"#utility.yul\":12430:12493   */\n          tag_266\n          jumpi\n            /* \"#utility.yul\":12489:12490   */\n          0x00\n            /* \"#utility.yul\":12486:12487   */\n          dup1\n            /* \"#utility.yul\":12479:12491   */\n          revert\n            /* \"#utility.yul\":12430:12493   */\n        tag_266:\n            /* \"#utility.yul\":12377:12499   */\n          pop\n          jump\t// out\n\n        auxdata: 0xa2646970667358221220eaad10509d0d22ed2d3e34843fb69d46b0b6a4bbd32689a6a3cec1ea376d02a464736f6c63430008070033\n    }\n}\n",
				"bytecode": {
					"linkReferences": {},
					"object": "60a060405234801561001057600080fd5b5060405161001d90610075565b604051809103906000f080158015610039573d6000803e3d6000fd5b5073ffffffffffffffffffffffffffffffffffffffff1660808173ffffffffffffffffffffffffffffffffffffffff1660601b81525050610082565b61118a8061089783390190565b60805160601c6107f861009f600039600060fe01526107f86000f3fe608060405234801561001057600080fd5b506004361061004c5760003560e01c8063019b1e0a14610051578063445cc412146100815780639def98461461009d578063a1d861a9146100a7575b600080fd5b61006b600480360381019061006691906104b7565b6100d7565b6040516100789190610642565b60405180910390f35b61009b600480360381019061009691906104e4565b6100f7565b005b6100a5610282565b005b6100c160048036038101906100bc91906104b7565b61039d565b6040516100ce9190610642565b60405180910390f35b60006020528060005260406000206000915054906101000a900460ff1681565b60006101227f00000000000000000000000000000000000000000000000000000000000000006103bd565b90508073ffffffffffffffffffffffffffffffffffffffff166376c820f6338686866040518563ffffffff1660e01b815260040161016394939291906105fd565b600060405180830381600087803b15801561017d57600080fd5b505af1158015610191573d6000803e3d6000fd5b5050505060016000808373ffffffffffffffffffffffffffffffffffffffff1673ffffffffffffffffffffffffffffffffffffffff16815260200190815260200160002060006101000a81548160ff02191690831515021790555060018060003373ffffffffffffffffffffffffffffffffffffffff1673ffffffffffffffffffffffffffffffffffffffff16815260200190815260200160002060006101000a81548160ff0219169083151502179055507fb684fa9d171811ea44de622bf7206329d0d78c3c4516f49225d183e2b2380a4f81336040516102749291906105d4565b60405180910390a150505050565b6000803373ffffffffffffffffffffffffffffffffffffffff1673ffffffffffffffffffffffffffffffffffffffff16815260200190815260200160002060009054906101000a900460ff1661030d576040517f08c379a00000000000000000000000000000000000000000000000000000000081526004016103049061065d565b60405180910390fd5b60008060003373ffffffffffffffffffffffffffffffffffffffff1673ffffffffffffffffffffffffffffffffffffffff16815260200190815260200160002060006101000a81548160ff0219169083151502179055507ffe9cc347cf9f23be7601aec4449a0fdb16aa073766a538536e42a92027f657e83360405161039391906105b9565b60405180910390a1565b60016020528060005260406000206000915054906101000a900460ff1681565b6000763d602d80600a3d3981f3363d3d373d3d3d363d730000008260601b60e81c176000526e5af43d82803e903d91602b57fd5bf38260781b17602052603760096000f09050600073ffffffffffffffffffffffffffffffffffffffff168173ffffffffffffffffffffffffffffffffffffffff161415610473576040517f08c379a000000000000000000000000000000000000000000000000000000000815260040161046a9061067d565b60405180910390fd5b919050565b6000813590506104878161077d565b92915050565b60008135905061049c81610794565b92915050565b6000813590506104b1816107ab565b92915050565b6000602082840312156104cd576104cc610700565b5b60006104db84828501610478565b91505092915050565b6000806000606084860312156104fd576104fc610700565b5b600061050b8682870161048d565b935050602061051c868287016104a2565b925050604061052d868287016104a2565b9150509250925092565b610540816106ae565b82525050565b61054f816106c0565b82525050565b61055e816106cc565b82525050565b600061057160288361069d565b915061057c82610705565b604082019050919050565b600061059460168361069d565b915061059f82610754565b602082019050919050565b6105b3816106f6565b82525050565b60006020820190506105ce6000830184610537565b92915050565b60006040820190506105e96000830185610537565b6105f66020830184610537565b9392505050565b60006080820190506106126000830187610537565b61061f6020830186610555565b61062c60408301856105aa565b61063960608301846105aa565b95945050505050565b60006020820190506106576000830184610546565b92915050565b6000602082019050818103600083015261067681610564565b9050919050565b6000602082019050818103600083015261069681610587565b9050919050565b600082825260208201905092915050565b60006106b9826106d6565b9050919050565b60008115159050919050565b6000819050919050565b600073ffffffffffffffffffffffffffffffffffffffff82169050919050565b6000819050919050565b600080fd5b7f546869732070726f64756365206973206e6f74206c6973746564206f6e20746860008201527f65204d61726b6574000000000000000000000000000000000000000000000000602082015250565b7f455243313136373a20637265617465206661696c656400000000000000000000600082015250565b610786816106ae565b811461079157600080fd5b50565b61079d816106cc565b81146107a857600080fd5b50565b6107b4816106f6565b81146107bf57600080fd5b5056fea2646970667358221220df6a3f2f344fe3a5cd64680ae8536654d2e643cc8d528676c5f81f8b91a6f4ba64736f6c63430008070033608060405234801561001057600080fd5b5061002d61002261005d60201b60201c565b61006560201b60201c565b6000600760006101000a81548160ff0219169083600281111561005357610052610129565b5b0217905550610158565b600033905090565b60008060009054906101000a900473ffffffffffffffffffffffffffffffffffffffff169050816000806101000a81548173ffffffffffffffffffffffffffffffffffffffff021916908373ffffffffffffffffffffffffffffffffffffffff1602179055508173ffffffffffffffffffffffffffffffffffffffff168173ffffffffffffffffffffffffffffffffffffffff167f8be0079c531659141344cd1fd0a4f28419497f9722a3daafe3b4186f6b6457e060405160405180910390a35050565b7f4e487b7100000000000000000000000000000000000000000000000000000000600052602160045260246000fd5b611023806101676000396000f3fe608060405234801561001057600080fd5b50600436106100cf5760003560e01c806391bc0bad1161008c578063eaa61dea11610066578063eaa61dea146101ca578063f2fde38b146101d4578063f5c609e0146101f0578063fa34f63a146101fa576100cf565b806391bc0bad14610184578063a035b1fe1461018e578063d811fcf0146101ac576100cf565b80636d86b8a5146100d4578063715018a6146100f257806376c820f6146100fc5780637b9896071461011857806380f55605146101485780638da5cb5b14610166575b600080fd5b6100dc610218565b6040516100e99190610d3c565b60405180910390f35b6100fa61021e565b005b61011660048036038101906101119190610a30565b610232565b005b610132600480360381019061012d9190610a03565b610338565b60405161013f9190610c06565b60405180910390f35b610150610358565b60405161015d9190610beb565b60405180910390f35b61016e61037e565b60405161017b9190610beb565b60405180910390f35b61018c6103a7565b005b6101966104d4565b6040516101a39190610d3c565b60405180910390f35b6101b46104da565b6040516101c19190610beb565b60405180910390f35b6101d2610500565b005b6101ee60048036038101906101e99190610a03565b6105e6565b005b6101f861066a565b005b610202610874565b60405161020f9190610c21565b60405180910390f35b60055481565b61022661087a565b61023060006108f8565b565b6000600281111561024657610245610dba565b5b600760009054906101000a900460ff16600281111561026857610267610dba565b5b146102a8576040517f08c379a000000000000000000000000000000000000000000000000000000000815260040161029f90610c9c565b60405180910390fd5b6102b1846108f8565b33600260006101000a81548173ffffffffffffffffffffffffffffffffffffffff021916908373ffffffffffffffffffffffffffffffffffffffff1602179055508260038190555081600481905550806005819055506001600760006101000a81548160ff0219169083600281111561032d5761032c610dba565b5b021790555050505050565b60066020528060005260406000206000915054906101000a900460ff1681565b600260009054906101000a900473ffffffffffffffffffffffffffffffffffffffff1681565b60008060009054906101000a900473ffffffffffffffffffffffffffffffffffffffff16905090565b6103af61087a565b600160028111156103c3576103c2610dba565b5b600760009054906101000a900460ff1660028111156103e5576103e4610dba565b5b14610425576040517f08c379a000000000000000000000000000000000000000000000000000000000815260040161041c90610c7c565b60405180910390fd5b6002600760006101000a81548160ff0219169083600281111561044b5761044a610dba565b5b0217905550600260009054906101000a900473ffffffffffffffffffffffffffffffffffffffff1673ffffffffffffffffffffffffffffffffffffffff16639def98466040518163ffffffff1660e01b8152600401600060405180830381600087803b1580156104ba57600080fd5b505af11580156104ce573d6000803e3d6000fd5b50505050565b60045481565b600160009054906101000a900473ffffffffffffffffffffffffffffffffffffffff1681565b600660003373ffffffffffffffffffffffffffffffffffffffff1673ffffffffffffffffffffffffffffffffffffffff16815260200190815260200160002060009054906101000a900460ff1661058c576040517f08c379a000000000000000000000000000000000000000000000000000000000815260040161058390610d1c565b60405180910390fd5b6000600660003373ffffffffffffffffffffffffffffffffffffffff1673ffffffffffffffffffffffffffffffffffffffff16815260200190815260200160002060006101000a81548160ff021916908315150217905550565b6105ee61087a565b600073ffffffffffffffffffffffffffffffffffffffff168173ffffffffffffffffffffffffffffffffffffffff16141561065e576040517f08c379a000000000000000000000000000000000000000000000000000000000815260040161065590610c3c565b60405180910390fd5b610667816108f8565b50565b6001600281111561067e5761067d610dba565b5b600760009054906101000a900460ff1660028111156106a05761069f610dba565b5b146106e0576040517f08c379a00000000000000000000000000000000000000000000000000000000081526004016106d790610c5c565b60405180910390fd5b6106e861037e565b73ffffffffffffffffffffffffffffffffffffffff163373ffffffffffffffffffffffffffffffffffffffff161415610756576040517f08c379a000000000000000000000000000000000000000000000000000000000815260040161074d90610cbc565b60405180910390fd5b600660003373ffffffffffffffffffffffffffffffffffffffff1673ffffffffffffffffffffffffffffffffffffffff16815260200190815260200160002060009054906101000a900460ff16156107e3576040517f08c379a00000000000000000000000000000000000000000000000000000000081526004016107da90610cdc565b60405180910390fd5b6001600660003373ffffffffffffffffffffffffffffffffffffffff1673ffffffffffffffffffffffffffffffffffffffff16815260200190815260200160002060006101000a81548160ff0219169083151502179055507fe7183a38a6aa8fb99c4071a88f3acd0b3c30fd4b05330c2f0a0724bb0254f8043360405161086a9190610beb565b60405180910390a1565b60035481565b6108826109bc565b73ffffffffffffffffffffffffffffffffffffffff166108a061037e565b73ffffffffffffffffffffffffffffffffffffffff16146108f6576040517f08c379a00000000000000000000000000000000000000000000000000000000081526004016108ed90610cfc565b60405180910390fd5b565b60008060009054906101000a900473ffffffffffffffffffffffffffffffffffffffff169050816000806101000a81548173ffffffffffffffffffffffffffffffffffffffff021916908373ffffffffffffffffffffffffffffffffffffffff1602179055508173ffffffffffffffffffffffffffffffffffffffff168173ffffffffffffffffffffffffffffffffffffffff167f8be0079c531659141344cd1fd0a4f28419497f9722a3daafe3b4186f6b6457e060405160405180910390a35050565b600033905090565b6000813590506109d381610fa8565b92915050565b6000813590506109e881610fbf565b92915050565b6000813590506109fd81610fd6565b92915050565b600060208284031215610a1957610a18610de9565b5b6000610a27848285016109c4565b91505092915050565b60008060008060808587031215610a4a57610a49610de9565b5b6000610a58878288016109c4565b9450506020610a69878288016109d9565b9350506040610a7a878288016109ee565b9250506060610a8b878288016109ee565b91505092959194509250565b610aa081610d68565b82525050565b610aaf81610d7a565b82525050565b610abe81610d86565b82525050565b6000610ad1602683610d57565b9150610adc82610dee565b604082019050919050565b6000610af4602083610d57565b9150610aff82610e3d565b602082019050919050565b6000610b17601983610d57565b9150610b2282610e66565b602082019050919050565b6000610b3a602883610d57565b9150610b4582610e8f565b604082019050919050565b6000610b5d602f83610d57565b9150610b6882610ede565b604082019050919050565b6000610b80601d83610d57565b9150610b8b82610f2d565b602082019050919050565b6000610ba3602083610d57565b9150610bae82610f56565b602082019050919050565b6000610bc6601883610d57565b9150610bd182610f7f565b602082019050919050565b610be581610db0565b82525050565b6000602082019050610c006000830184610a97565b92915050565b6000602082019050610c1b6000830184610aa6565b92915050565b6000602082019050610c366000830184610ab5565b92915050565b60006020820190508181036000830152610c5581610ac4565b9050919050565b60006020820190508181036000830152610c7581610ae7565b9050919050565b60006020820190508181036000830152610c9581610b0a565b9050919050565b60006020820190508181036000830152610cb581610b2d565b9050919050565b60006020820190508181036000830152610cd581610b50565b9050919050565b60006020820190508181036000830152610cf581610b73565b9050919050565b60006020820190508181036000830152610d1581610b96565b9050919050565b60006020820190508181036000830152610d3581610bb9565b9050919050565b6000602082019050610d516000830184610bdc565b92915050565b600082825260208201905092915050565b6000610d7382610d90565b9050919050565b60008115159050919050565b6000819050919050565b600073ffffffffffffffffffffffffffffffffffffffff82169050919050565b6000819050919050565b7f4e487b7100000000000000000000000000000000000000000000000000000000600052602160045260246000fd5b600080fd5b7f4f776e61626c653a206e6577206f776e657220697320746865207a65726f206160008201527f6464726573730000000000000000000000000000000000000000000000000000602082015250565b7f70726f64756365206973206e6f74206f70656e20666f72206f72646572696e67600082015250565b7f70726f6475636520697320616c726561647920636c6f73656400000000000000600082015250565b7f546869732070726f647563652068617320616c7265616479206265656e20696e60008201527f6974696c697a6564000000000000000000000000000000000000000000000000602082015250565b7f6661726d65722063616e6e6f7420706c616365206f7264657220666f7220746860008201527f656972206f776e2070726f647563650000000000000000000000000000000000602082015250565b7f6f726465722068617320616c7265616479206265656e20706c61636564000000600082015250565b7f4f776e61626c653a2063616c6c6572206973206e6f7420746865206f776e6572600082015250565b7f6e6f206f7264657220686173206265656e20706c616365640000000000000000600082015250565b610fb181610d68565b8114610fbc57600080fd5b50565b610fc881610d86565b8114610fd357600080fd5b50565b610fdf81610db0565b8114610fea57600080fd5b5056fea2646970667358221220eaad10509d0d22ed2d3e34843fb69d46b0b6a4bbd32689a6a3cec1ea376d02a464736f6c63430008070033",
					"opcodes": "PUSH1 0xA0 PUSH1 0x40 MSTORE CALLVALUE DUP1 ISZERO PUSH2 0x10 JUMPI PUSH1 0x0 DUP1 REVERT JUMPDEST POP PUSH1 0x40 MLOAD PUSH2 0x1D SWAP1 PUSH2 0x75 JUMP JUMPDEST PUSH1 0x40 MLOAD DUP1 SWAP2 SUB SWAP1 PUSH1 0x0 CREATE DUP1 ISZERO DUP1 ISZERO PUSH2 0x39 JUMPI RETURNDATASIZE PUSH1 0x0 DUP1 RETURNDATACOPY RETURNDATASIZE PUSH1 0x0 REVERT JUMPDEST POP PUSH20 0xFFFFFFFFFFFFFFFFFFFFFFFFFFFFFFFFFFFFFFFF AND PUSH1 0x80 DUP2 PUSH20 0xFFFFFFFFFFFFFFFFFFFFFFFFFFFFFFFFFFFFFFFF AND PUSH1 0x60 SHL DUP2 MSTORE POP POP PUSH2 0x82 JUMP JUMPDEST PUSH2 0x118A DUP1 PUSH2 0x897 DUP4 CODECOPY ADD SWAP1 JUMP JUMPDEST PUSH1 0x80 MLOAD PUSH1 0x60 SHR PUSH2 0x7F8 PUSH2 0x9F PUSH1 0x0 CODECOPY PUSH1 0x0 PUSH1 0xFE ADD MSTORE PUSH2 0x7F8 PUSH1 0x0 RETURN INVALID PUSH1 0x80 PUSH1 0x40 MSTORE CALLVALUE DUP1 ISZERO PUSH2 0x10 JUMPI PUSH1 0x0 DUP1 REVERT JUMPDEST POP PUSH1 0x4 CALLDATASIZE LT PUSH2 0x4C JUMPI PUSH1 0x0 CALLDATALOAD PUSH1 0xE0 SHR DUP1 PUSH4 0x19B1E0A EQ PUSH2 0x51 JUMPI DUP1 PUSH4 0x445CC412 EQ PUSH2 0x81 JUMPI DUP1 PUSH4 0x9DEF9846 EQ PUSH2 0x9D JUMPI DUP1 PUSH4 0xA1D861A9 EQ PUSH2 0xA7 JUMPI JUMPDEST PUSH1 0x0 DUP1 REVERT JUMPDEST PUSH2 0x6B PUSH1 0x4 DUP1 CALLDATASIZE SUB DUP2 ADD SWAP1 PUSH2 0x66 SWAP2 SWAP1 PUSH2 0x4B7 JUMP JUMPDEST PUSH2 0xD7 JUMP JUMPDEST PUSH1 0x40 MLOAD PUSH2 0x78 SWAP2 SWAP1 PUSH2 0x642 JUMP JUMPDEST PUSH1 0x40 MLOAD DUP1 SWAP2 SUB SWAP1 RETURN JUMPDEST PUSH2 0x9B PUSH1 0x4 DUP1 CALLDATASIZE SUB DUP2 ADD SWAP1 PUSH2 0x96 SWAP2 SWAP1 PUSH2 0x4E4 JUMP JUMPDEST PUSH2 0xF7 JUMP JUMPDEST STOP JUMPDEST PUSH2 0xA5 PUSH2 0x282 JUMP JUMPDEST STOP JUMPDEST PUSH2 0xC1 PUSH1 0x4 DUP1 CALLDATASIZE SUB DUP2 ADD SWAP1 PUSH2 0xBC SWAP2 SWAP1 PUSH2 0x4B7 JUMP JUMPDEST PUSH2 0x39D JUMP JUMPDEST PUSH1 0x40 MLOAD PUSH2 0xCE SWAP2 SWAP1 PUSH2 0x642 JUMP JUMPDEST PUSH1 0x40 MLOAD DUP1 SWAP2 SUB SWAP1 RETURN JUMPDEST PUSH1 0x0 PUSH1 0x20 MSTORE DUP1 PUSH1 0x0 MSTORE PUSH1 0x40 PUSH1 0x0 KECCAK256 PUSH1 0x0 SWAP2 POP SLOAD SWAP1 PUSH2 0x100 EXP SWAP1 DIV PUSH1 0xFF AND DUP2 JUMP JUMPDEST PUSH1 0x0 PUSH2 0x122 PUSH32 0x0 PUSH2 0x3BD JUMP JUMPDEST SWAP1 POP DUP1 PUSH20 0xFFFFFFFFFFFFFFFFFFFFFFFFFFFFFFFFFFFFFFFF AND PUSH4 0x76C820F6 CALLER DUP7 DUP7 DUP7 PUSH1 0x40 MLOAD DUP6 PUSH4 0xFFFFFFFF AND PUSH1 0xE0 SHL DUP2 MSTORE PUSH1 0x4 ADD PUSH2 0x163 SWAP5 SWAP4 SWAP3 SWAP2 SWAP1 PUSH2 0x5FD JUMP JUMPDEST PUSH1 0x0 PUSH1 0x40 MLOAD DUP1 DUP4 SUB DUP2 PUSH1 0x0 DUP8 DUP1 EXTCODESIZE ISZERO DUP1 ISZERO PUSH2 0x17D JUMPI PUSH1 0x0 DUP1 REVERT JUMPDEST POP GAS CALL ISZERO DUP1 ISZERO PUSH2 0x191 JUMPI RETURNDATASIZE PUSH1 0x0 DUP1 RETURNDATACOPY RETURNDATASIZE PUSH1 0x0 REVERT JUMPDEST POP POP POP POP PUSH1 0x1 PUSH1 0x0 DUP1 DUP4 PUSH20 0xFFFFFFFFFFFFFFFFFFFFFFFFFFFFFFFFFFFFFFFF AND PUSH20 0xFFFFFFFFFFFFFFFFFFFFFFFFFFFFFFFFFFFFFFFF AND DUP2 MSTORE PUSH1 0x20 ADD SWAP1 DUP2 MSTORE PUSH1 0x20 ADD PUSH1 0x0 KECCAK256 PUSH1 0x0 PUSH2 0x100 EXP DUP2 SLOAD DUP2 PUSH1 0xFF MUL NOT AND SWAP1 DUP4 ISZERO ISZERO MUL OR SWAP1 SSTORE POP PUSH1 0x1 DUP1 PUSH1 0x0 CALLER PUSH20 0xFFFFFFFFFFFFFFFFFFFFFFFFFFFFFFFFFFFFFFFF AND PUSH20 0xFFFFFFFFFFFFFFFFFFFFFFFFFFFFFFFFFFFFFFFF AND DUP2 MSTORE PUSH1 0x20 ADD SWAP1 DUP2 MSTORE PUSH1 0x20 ADD PUSH1 0x0 KECCAK256 PUSH1 0x0 PUSH2 0x100 EXP DUP2 SLOAD DUP2 PUSH1 0xFF MUL NOT AND SWAP1 DUP4 ISZERO ISZERO MUL OR SWAP1 SSTORE POP PUSH32 0xB684FA9D171811EA44DE622BF7206329D0D78C3C4516F49225D183E2B2380A4F DUP2 CALLER PUSH1 0x40 MLOAD PUSH2 0x274 SWAP3 SWAP2 SWAP1 PUSH2 0x5D4 JUMP JUMPDEST PUSH1 0x40 MLOAD DUP1 SWAP2 SUB SWAP1 LOG1 POP POP POP POP JUMP JUMPDEST PUSH1 0x0 DUP1 CALLER PUSH20 0xFFFFFFFFFFFFFFFFFFFFFFFFFFFFFFFFFFFFFFFF AND PUSH20 0xFFFFFFFFFFFFFFFFFFFFFFFFFFFFFFFFFFFFFFFF AND DUP2 MSTORE PUSH1 0x20 ADD SWAP1 DUP2 MSTORE PUSH1 0x20 ADD PUSH1 0x0 KECCAK256 PUSH1 0x0 SWAP1 SLOAD SWAP1 PUSH2 0x100 EXP SWAP1 DIV PUSH1 0xFF AND PUSH2 0x30D JUMPI PUSH1 0x40 MLOAD PUSH32 0x8C379A000000000000000000000000000000000000000000000000000000000 DUP2 MSTORE PUSH1 0x4 ADD PUSH2 0x304 SWAP1 PUSH2 0x65D JUMP JUMPDEST PUSH1 0x40 MLOAD DUP1 SWAP2 SUB SWAP1 REVERT JUMPDEST PUSH1 0x0 DUP1 PUSH1 0x0 CALLER PUSH20 0xFFFFFFFFFFFFFFFFFFFFFFFFFFFFFFFFFFFFFFFF AND PUSH20 0xFFFFFFFFFFFFFFFFFFFFFFFFFFFFFFFFFFFFFFFF AND DUP2 MSTORE PUSH1 0x20 ADD SWAP1 DUP2 MSTORE PUSH1 0x20 ADD PUSH1 0x0 KECCAK256 PUSH1 0x0 PUSH2 0x100 EXP DUP2 SLOAD DUP2 PUSH1 0xFF MUL NOT AND SWAP1 DUP4 ISZERO ISZERO MUL OR SWAP1 SSTORE POP PUSH32 0xFE9CC347CF9F23BE7601AEC4449A0FDB16AA073766A538536E42A92027F657E8 CALLER PUSH1 0x40 MLOAD PUSH2 0x393 SWAP2 SWAP1 PUSH2 0x5B9 JUMP JUMPDEST PUSH1 0x40 MLOAD DUP1 SWAP2 SUB SWAP1 LOG1 JUMP JUMPDEST PUSH1 0x1 PUSH1 0x20 MSTORE DUP1 PUSH1 0x0 MSTORE PUSH1 0x40 PUSH1 0x0 KECCAK256 PUSH1 0x0 SWAP2 POP SLOAD SWAP1 PUSH2 0x100 EXP SWAP1 DIV PUSH1 0xFF AND DUP2 JUMP JUMPDEST PUSH1 0x0 PUSH23 0x3D602D80600A3D3981F3363D3D373D3D3D363D73000000 DUP3 PUSH1 0x60 SHL PUSH1 0xE8 SHR OR PUSH1 0x0 MSTORE PUSH15 0x5AF43D82803E903D91602B57FD5BF3 DUP3 PUSH1 0x78 SHL OR PUSH1 0x20 MSTORE PUSH1 0x37 PUSH1 0x9 PUSH1 0x0 CREATE SWAP1 POP PUSH1 0x0 PUSH20 0xFFFFFFFFFFFFFFFFFFFFFFFFFFFFFFFFFFFFFFFF AND DUP2 PUSH20 0xFFFFFFFFFFFFFFFFFFFFFFFFFFFFFFFFFFFFFFFF AND EQ ISZERO PUSH2 0x473 JUMPI PUSH1 0x40 MLOAD PUSH32 0x8C379A000000000000000000000000000000000000000000000000000000000 DUP2 MSTORE PUSH1 0x4 ADD PUSH2 0x46A SWAP1 PUSH2 0x67D JUMP JUMPDEST PUSH1 0x40 MLOAD DUP1 SWAP2 SUB SWAP1 REVERT JUMPDEST SWAP2 SWAP1 POP JUMP JUMPDEST PUSH1 0x0 DUP2 CALLDATALOAD SWAP1 POP PUSH2 0x487 DUP2 PUSH2 0x77D JUMP JUMPDEST SWAP3 SWAP2 POP POP JUMP JUMPDEST PUSH1 0x0 DUP2 CALLDATALOAD SWAP1 POP PUSH2 0x49C DUP2 PUSH2 0x794 JUMP JUMPDEST SWAP3 SWAP2 POP POP JUMP JUMPDEST PUSH1 0x0 DUP2 CALLDATALOAD SWAP1 POP PUSH2 0x4B1 DUP2 PUSH2 0x7AB JUMP JUMPDEST SWAP3 SWAP2 POP POP JUMP JUMPDEST PUSH1 0x0 PUSH1 0x20 DUP3 DUP5 SUB SLT ISZERO PUSH2 0x4CD JUMPI PUSH2 0x4CC PUSH2 0x700 JUMP JUMPDEST JUMPDEST PUSH1 0x0 PUSH2 0x4DB DUP5 DUP3 DUP6 ADD PUSH2 0x478 JUMP JUMPDEST SWAP2 POP POP SWAP3 SWAP2 POP POP JUMP JUMPDEST PUSH1 0x0 DUP1 PUSH1 0x0 PUSH1 0x60 DUP5 DUP7 SUB SLT ISZERO PUSH2 0x4FD JUMPI PUSH2 0x4FC PUSH2 0x700 JUMP JUMPDEST JUMPDEST PUSH1 0x0 PUSH2 0x50B DUP7 DUP3 DUP8 ADD PUSH2 0x48D JUMP JUMPDEST SWAP4 POP POP PUSH1 0x20 PUSH2 0x51C DUP7 DUP3 DUP8 ADD PUSH2 0x4A2 JUMP JUMPDEST SWAP3 POP POP PUSH1 0x40 PUSH2 0x52D DUP7 DUP3 DUP8 ADD PUSH2 0x4A2 JUMP JUMPDEST SWAP2 POP POP SWAP3 POP SWAP3 POP SWAP3 JUMP JUMPDEST PUSH2 0x540 DUP2 PUSH2 0x6AE JUMP JUMPDEST DUP3 MSTORE POP POP JUMP JUMPDEST PUSH2 0x54F DUP2 PUSH2 0x6C0 JUMP JUMPDEST DUP3 MSTORE POP POP JUMP JUMPDEST PUSH2 0x55E DUP2 PUSH2 0x6CC JUMP JUMPDEST DUP3 MSTORE POP POP JUMP JUMPDEST PUSH1 0x0 PUSH2 0x571 PUSH1 0x28 DUP4 PUSH2 0x69D JUMP JUMPDEST SWAP2 POP PUSH2 0x57C DUP3 PUSH2 0x705 JUMP JUMPDEST PUSH1 0x40 DUP3 ADD SWAP1 POP SWAP2 SWAP1 POP JUMP JUMPDEST PUSH1 0x0 PUSH2 0x594 PUSH1 0x16 DUP4 PUSH2 0x69D JUMP JUMPDEST SWAP2 POP PUSH2 0x59F DUP3 PUSH2 0x754 JUMP JUMPDEST PUSH1 0x20 DUP3 ADD SWAP1 POP SWAP2 SWAP1 POP JUMP JUMPDEST PUSH2 0x5B3 DUP2 PUSH2 0x6F6 JUMP JUMPDEST DUP3 MSTORE POP POP JUMP JUMPDEST PUSH1 0x0 PUSH1 0x20 DUP3 ADD SWAP1 POP PUSH2 0x5CE PUSH1 0x0 DUP4 ADD DUP5 PUSH2 0x537 JUMP JUMPDEST SWAP3 SWAP2 POP POP JUMP JUMPDEST PUSH1 0x0 PUSH1 0x40 DUP3 ADD SWAP1 POP PUSH2 0x5E9 PUSH1 0x0 DUP4 ADD DUP6 PUSH2 0x537 JUMP JUMPDEST PUSH2 0x5F6 PUSH1 0x20 DUP4 ADD DUP5 PUSH2 0x537 JUMP JUMPDEST SWAP4 SWAP3 POP POP POP JUMP JUMPDEST PUSH1 0x0 PUSH1 0x80 DUP3 ADD SWAP1 POP PUSH2 0x612 PUSH1 0x0 DUP4 ADD DUP8 PUSH2 0x537 JUMP JUMPDEST PUSH2 0x61F PUSH1 0x20 DUP4 ADD DUP7 PUSH2 0x555 JUMP JUMPDEST PUSH2 0x62C PUSH1 0x40 DUP4 ADD DUP6 PUSH2 0x5AA JUMP JUMPDEST PUSH2 0x639 PUSH1 0x60 DUP4 ADD DUP5 PUSH2 0x5AA JUMP JUMPDEST SWAP6 SWAP5 POP POP POP POP POP JUMP JUMPDEST PUSH1 0x0 PUSH1 0x20 DUP3 ADD SWAP1 POP PUSH2 0x657 PUSH1 0x0 DUP4 ADD DUP5 PUSH2 0x546 JUMP JUMPDEST SWAP3 SWAP2 POP POP JUMP JUMPDEST PUSH1 0x0 PUSH1 0x20 DUP3 ADD SWAP1 POP DUP2 DUP2 SUB PUSH1 0x0 DUP4 ADD MSTORE PUSH2 0x676 DUP2 PUSH2 0x564 JUMP JUMPDEST SWAP1 POP SWAP2 SWAP1 POP JUMP JUMPDEST PUSH1 0x0 PUSH1 0x20 DUP3 ADD SWAP1 POP DUP2 DUP2 SUB PUSH1 0x0 DUP4 ADD MSTORE PUSH2 0x696 DUP2 PUSH2 0x587 JUMP JUMPDEST SWAP1 POP SWAP2 SWAP1 POP JUMP JUMPDEST PUSH1 0x0 DUP3 DUP3 MSTORE PUSH1 0x20 DUP3 ADD SWAP1 POP SWAP3 SWAP2 POP POP JUMP JUMPDEST PUSH1 0x0 PUSH2 0x6B9 DUP3 PUSH2 0x6D6 JUMP JUMPDEST SWAP1 POP SWAP2 SWAP1 POP JUMP JUMPDEST PUSH1 0x0 DUP2 ISZERO ISZERO SWAP1 POP SWAP2 SWAP1 POP JUMP JUMPDEST PUSH1 0x0 DUP2 SWAP1 POP SWAP2 SWAP1 POP JUMP JUMPDEST PUSH1 0x0 PUSH20 0xFFFFFFFFFFFFFFFFFFFFFFFFFFFFFFFFFFFFFFFF DUP3 AND SWAP1 POP SWAP2 SWAP1 POP JUMP JUMPDEST PUSH1 0x0 DUP2 SWAP1 POP SWAP2 SWAP1 POP JUMP JUMPDEST PUSH1 0x0 DUP1 REVERT JUMPDEST PUSH32 0x546869732070726F64756365206973206E6F74206C6973746564206F6E207468 PUSH1 0x0 DUP3 ADD MSTORE PUSH32 0x65204D61726B6574000000000000000000000000000000000000000000000000 PUSH1 0x20 DUP3 ADD MSTORE POP JUMP JUMPDEST PUSH32 0x455243313136373A20637265617465206661696C656400000000000000000000 PUSH1 0x0 DUP3 ADD MSTORE POP JUMP JUMPDEST PUSH2 0x786 DUP2 PUSH2 0x6AE JUMP JUMPDEST DUP2 EQ PUSH2 0x791 JUMPI PUSH1 0x0 DUP1 REVERT JUMPDEST POP JUMP JUMPDEST PUSH2 0x79D DUP2 PUSH2 0x6CC JUMP JUMPDEST DUP2 EQ PUSH2 0x7A8 JUMPI PUSH1 0x0 DUP1 REVERT JUMPDEST POP JUMP JUMPDEST PUSH2 0x7B4 DUP2 PUSH2 0x6F6 JUMP JUMPDEST DUP2 EQ PUSH2 0x7BF JUMPI PUSH1 0x0 DUP1 REVERT JUMPDEST POP JUMP INVALID LOG2 PUSH5 0x6970667358 0x22 SLT KECCAK256 0xDF PUSH11 0x3F2F344FE3A5CD64680AE8 MSTORE8 PUSH7 0x54D2E643CC8D52 DUP7 PUSH23 0xC5F81F8B91A6F4BA64736F6C6343000807003360806040 MSTORE CALLVALUE DUP1 ISZERO PUSH2 0x10 JUMPI PUSH1 0x0 DUP1 REVERT JUMPDEST POP PUSH2 0x2D PUSH2 0x22 PUSH2 0x5D PUSH1 0x20 SHL PUSH1 0x20 SHR JUMP JUMPDEST PUSH2 0x65 PUSH1 0x20 SHL PUSH1 0x20 SHR JUMP JUMPDEST PUSH1 0x0 PUSH1 0x7 PUSH1 0x0 PUSH2 0x100 EXP DUP2 SLOAD DUP2 PUSH1 0xFF MUL NOT AND SWAP1 DUP4 PUSH1 0x2 DUP2 GT ISZERO PUSH2 0x53 JUMPI PUSH2 0x52 PUSH2 0x129 JUMP JUMPDEST JUMPDEST MUL OR SWAP1 SSTORE POP PUSH2 0x158 JUMP JUMPDEST PUSH1 0x0 CALLER SWAP1 POP SWAP1 JUMP JUMPDEST PUSH1 0x0 DUP1 PUSH1 0x0 SWAP1 SLOAD SWAP1 PUSH2 0x100 EXP SWAP1 DIV PUSH20 0xFFFFFFFFFFFFFFFFFFFFFFFFFFFFFFFFFFFFFFFF AND SWAP1 POP DUP2 PUSH1 0x0 DUP1 PUSH2 0x100 EXP DUP2 SLOAD DUP2 PUSH20 0xFFFFFFFFFFFFFFFFFFFFFFFFFFFFFFFFFFFFFFFF MUL NOT AND SWAP1 DUP4 PUSH20 0xFFFFFFFFFFFFFFFFFFFFFFFFFFFFFFFFFFFFFFFF AND MUL OR SWAP1 SSTORE POP DUP2 PUSH20 0xFFFFFFFFFFFFFFFFFFFFFFFFFFFFFFFFFFFFFFFF AND DUP2 PUSH20 0xFFFFFFFFFFFFFFFFFFFFFFFFFFFFFFFFFFFFFFFF AND PUSH32 0x8BE0079C531659141344CD1FD0A4F28419497F9722A3DAAFE3B4186F6B6457E0 PUSH1 0x40 MLOAD PUSH1 0x40 MLOAD DUP1 SWAP2 SUB SWAP1 LOG3 POP POP JUMP JUMPDEST PUSH32 0x4E487B7100000000000000000000000000000000000000000000000000000000 PUSH1 0x0 MSTORE PUSH1 0x21 PUSH1 0x4 MSTORE PUSH1 0x24 PUSH1 0x0 REVERT JUMPDEST PUSH2 0x1023 DUP1 PUSH2 0x167 PUSH1 0x0 CODECOPY PUSH1 0x0 RETURN INVALID PUSH1 0x80 PUSH1 0x40 MSTORE CALLVALUE DUP1 ISZERO PUSH2 0x10 JUMPI PUSH1 0x0 DUP1 REVERT JUMPDEST POP PUSH1 0x4 CALLDATASIZE LT PUSH2 0xCF JUMPI PUSH1 0x0 CALLDATALOAD PUSH1 0xE0 SHR DUP1 PUSH4 0x91BC0BAD GT PUSH2 0x8C JUMPI DUP1 PUSH4 0xEAA61DEA GT PUSH2 0x66 JUMPI DUP1 PUSH4 0xEAA61DEA EQ PUSH2 0x1CA JUMPI DUP1 PUSH4 0xF2FDE38B EQ PUSH2 0x1D4 JUMPI DUP1 PUSH4 0xF5C609E0 EQ PUSH2 0x1F0 JUMPI DUP1 PUSH4 0xFA34F63A EQ PUSH2 0x1FA JUMPI PUSH2 0xCF JUMP JUMPDEST DUP1 PUSH4 0x91BC0BAD EQ PUSH2 0x184 JUMPI DUP1 PUSH4 0xA035B1FE EQ PUSH2 0x18E JUMPI DUP1 PUSH4 0xD811FCF0 EQ PUSH2 0x1AC JUMPI PUSH2 0xCF JUMP JUMPDEST DUP1 PUSH4 0x6D86B8A5 EQ PUSH2 0xD4 JUMPI DUP1 PUSH4 0x715018A6 EQ PUSH2 0xF2 JUMPI DUP1 PUSH4 0x76C820F6 EQ PUSH2 0xFC JUMPI DUP1 PUSH4 0x7B989607 EQ PUSH2 0x118 JUMPI DUP1 PUSH4 0x80F55605 EQ PUSH2 0x148 JUMPI DUP1 PUSH4 0x8DA5CB5B EQ PUSH2 0x166 JUMPI JUMPDEST PUSH1 0x0 DUP1 REVERT JUMPDEST PUSH2 0xDC PUSH2 0x218 JUMP JUMPDEST PUSH1 0x40 MLOAD PUSH2 0xE9 SWAP2 SWAP1 PUSH2 0xD3C JUMP JUMPDEST PUSH1 0x40 MLOAD DUP1 SWAP2 SUB SWAP1 RETURN JUMPDEST PUSH2 0xFA PUSH2 0x21E JUMP JUMPDEST STOP JUMPDEST PUSH2 0x116 PUSH1 0x4 DUP1 CALLDATASIZE SUB DUP2 ADD SWAP1 PUSH2 0x111 SWAP2 SWAP1 PUSH2 0xA30 JUMP JUMPDEST PUSH2 0x232 JUMP JUMPDEST STOP JUMPDEST PUSH2 0x132 PUSH1 0x4 DUP1 CALLDATASIZE SUB DUP2 ADD SWAP1 PUSH2 0x12D SWAP2 SWAP1 PUSH2 0xA03 JUMP JUMPDEST PUSH2 0x338 JUMP JUMPDEST PUSH1 0x40 MLOAD PUSH2 0x13F SWAP2 SWAP1 PUSH2 0xC06 JUMP JUMPDEST PUSH1 0x40 MLOAD DUP1 SWAP2 SUB SWAP1 RETURN JUMPDEST PUSH2 0x150 PUSH2 0x358 JUMP JUMPDEST PUSH1 0x40 MLOAD PUSH2 0x15D SWAP2 SWAP1 PUSH2 0xBEB JUMP JUMPDEST PUSH1 0x40 MLOAD DUP1 SWAP2 SUB SWAP1 RETURN JUMPDEST PUSH2 0x16E PUSH2 0x37E JUMP JUMPDEST PUSH1 0x40 MLOAD PUSH2 0x17B SWAP2 SWAP1 PUSH2 0xBEB JUMP JUMPDEST PUSH1 0x40 MLOAD DUP1 SWAP2 SUB SWAP1 RETURN JUMPDEST PUSH2 0x18C PUSH2 0x3A7 JUMP JUMPDEST STOP JUMPDEST PUSH2 0x196 PUSH2 0x4D4 JUMP JUMPDEST PUSH1 0x40 MLOAD PUSH2 0x1A3 SWAP2 SWAP1 PUSH2 0xD3C JUMP JUMPDEST PUSH1 0x40 MLOAD DUP1 SWAP2 SUB SWAP1 RETURN JUMPDEST PUSH2 0x1B4 PUSH2 0x4DA JUMP JUMPDEST PUSH1 0x40 MLOAD PUSH2 0x1C1 SWAP2 SWAP1 PUSH2 0xBEB JUMP JUMPDEST PUSH1 0x40 MLOAD DUP1 SWAP2 SUB SWAP1 RETURN JUMPDEST PUSH2 0x1D2 PUSH2 0x500 JUMP JUMPDEST STOP JUMPDEST PUSH2 0x1EE PUSH1 0x4 DUP1 CALLDATASIZE SUB DUP2 ADD SWAP1 PUSH2 0x1E9 SWAP2 SWAP1 PUSH2 0xA03 JUMP JUMPDEST PUSH2 0x5E6 JUMP JUMPDEST STOP JUMPDEST PUSH2 0x1F8 PUSH2 0x66A JUMP JUMPDEST STOP JUMPDEST PUSH2 0x202 PUSH2 0x874 JUMP JUMPDEST PUSH1 0x40 MLOAD PUSH2 0x20F SWAP2 SWAP1 PUSH2 0xC21 JUMP JUMPDEST PUSH1 0x40 MLOAD DUP1 SWAP2 SUB SWAP1 RETURN JUMPDEST PUSH1 0x5 SLOAD DUP2 JUMP JUMPDEST PUSH2 0x226 PUSH2 0x87A JUMP JUMPDEST PUSH2 0x230 PUSH1 0x0 PUSH2 0x8F8 JUMP JUMPDEST JUMP JUMPDEST PUSH1 0x0 PUSH1 0x2 DUP2 GT ISZERO PUSH2 0x246 JUMPI PUSH2 0x245 PUSH2 0xDBA JUMP JUMPDEST JUMPDEST PUSH1 0x7 PUSH1 0x0 SWAP1 SLOAD SWAP1 PUSH2 0x100 EXP SWAP1 DIV PUSH1 0xFF AND PUSH1 0x2 DUP2 GT ISZERO PUSH2 0x268 JUMPI PUSH2 0x267 PUSH2 0xDBA JUMP JUMPDEST JUMPDEST EQ PUSH2 0x2A8 JUMPI PUSH1 0x40 MLOAD PUSH32 0x8C379A000000000000000000000000000000000000000000000000000000000 DUP2 MSTORE PUSH1 0x4 ADD PUSH2 0x29F SWAP1 PUSH2 0xC9C JUMP JUMPDEST PUSH1 0x40 MLOAD DUP1 SWAP2 SUB SWAP1 REVERT JUMPDEST PUSH2 0x2B1 DUP5 PUSH2 0x8F8 JUMP JUMPDEST CALLER PUSH1 0x2 PUSH1 0x0 PUSH2 0x100 EXP DUP2 SLOAD DUP2 PUSH20 0xFFFFFFFFFFFFFFFFFFFFFFFFFFFFFFFFFFFFFFFF MUL NOT AND SWAP1 DUP4 PUSH20 0xFFFFFFFFFFFFFFFFFFFFFFFFFFFFFFFFFFFFFFFF AND MUL OR SWAP1 SSTORE POP DUP3 PUSH1 0x3 DUP2 SWAP1 SSTORE POP DUP2 PUSH1 0x4 DUP2 SWAP1 SSTORE POP DUP1 PUSH1 0x5 DUP2 SWAP1 SSTORE POP PUSH1 0x1 PUSH1 0x7 PUSH1 0x0 PUSH2 0x100 EXP DUP2 SLOAD DUP2 PUSH1 0xFF MUL NOT AND SWAP1 DUP4 PUSH1 0x2 DUP2 GT ISZERO PUSH2 0x32D JUMPI PUSH2 0x32C PUSH2 0xDBA JUMP JUMPDEST JUMPDEST MUL OR SWAP1 SSTORE POP POP POP POP POP JUMP JUMPDEST PUSH1 0x6 PUSH1 0x20 MSTORE DUP1 PUSH1 0x0 MSTORE PUSH1 0x40 PUSH1 0x0 KECCAK256 PUSH1 0x0 SWAP2 POP SLOAD SWAP1 PUSH2 0x100 EXP SWAP1 DIV PUSH1 0xFF AND DUP2 JUMP JUMPDEST PUSH1 0x2 PUSH1 0x0 SWAP1 SLOAD SWAP1 PUSH2 0x100 EXP SWAP1 DIV PUSH20 0xFFFFFFFFFFFFFFFFFFFFFFFFFFFFFFFFFFFFFFFF AND DUP2 JUMP JUMPDEST PUSH1 0x0 DUP1 PUSH1 0x0 SWAP1 SLOAD SWAP1 PUSH2 0x100 EXP SWAP1 DIV PUSH20 0xFFFFFFFFFFFFFFFFFFFFFFFFFFFFFFFFFFFFFFFF AND SWAP1 POP SWAP1 JUMP JUMPDEST PUSH2 0x3AF PUSH2 0x87A JUMP JUMPDEST PUSH1 0x1 PUSH1 0x2 DUP2 GT ISZERO PUSH2 0x3C3 JUMPI PUSH2 0x3C2 PUSH2 0xDBA JUMP JUMPDEST JUMPDEST PUSH1 0x7 PUSH1 0x0 SWAP1 SLOAD SWAP1 PUSH2 0x100 EXP SWAP1 DIV PUSH1 0xFF AND PUSH1 0x2 DUP2 GT ISZERO PUSH2 0x3E5 JUMPI PUSH2 0x3E4 PUSH2 0xDBA JUMP JUMPDEST JUMPDEST EQ PUSH2 0x425 JUMPI PUSH1 0x40 MLOAD PUSH32 0x8C379A000000000000000000000000000000000000000000000000000000000 DUP2 MSTORE PUSH1 0x4 ADD PUSH2 0x41C SWAP1 PUSH2 0xC7C JUMP JUMPDEST PUSH1 0x40 MLOAD DUP1 SWAP2 SUB SWAP1 REVERT JUMPDEST PUSH1 0x2 PUSH1 0x7 PUSH1 0x0 PUSH2 0x100 EXP DUP2 SLOAD DUP2 PUSH1 0xFF MUL NOT AND SWAP1 DUP4 PUSH1 0x2 DUP2 GT ISZERO PUSH2 0x44B JUMPI PUSH2 0x44A PUSH2 0xDBA JUMP JUMPDEST JUMPDEST MUL OR SWAP1 SSTORE POP PUSH1 0x2 PUSH1 0x0 SWAP1 SLOAD SWAP1 PUSH2 0x100 EXP SWAP1 DIV PUSH20 0xFFFFFFFFFFFFFFFFFFFFFFFFFFFFFFFFFFFFFFFF AND PUSH20 0xFFFFFFFFFFFFFFFFFFFFFFFFFFFFFFFFFFFFFFFF AND PUSH4 0x9DEF9846 PUSH1 0x40 MLOAD DUP2 PUSH4 0xFFFFFFFF AND PUSH1 0xE0 SHL DUP2 MSTORE PUSH1 0x4 ADD PUSH1 0x0 PUSH1 0x40 MLOAD DUP1 DUP4 SUB DUP2 PUSH1 0x0 DUP8 DUP1 EXTCODESIZE ISZERO DUP1 ISZERO PUSH2 0x4BA JUMPI PUSH1 0x0 DUP1 REVERT JUMPDEST POP GAS CALL ISZERO DUP1 ISZERO PUSH2 0x4CE JUMPI RETURNDATASIZE PUSH1 0x0 DUP1 RETURNDATACOPY RETURNDATASIZE PUSH1 0x0 REVERT JUMPDEST POP POP POP POP JUMP JUMPDEST PUSH1 0x4 SLOAD DUP2 JUMP JUMPDEST PUSH1 0x1 PUSH1 0x0 SWAP1 SLOAD SWAP1 PUSH2 0x100 EXP SWAP1 DIV PUSH20 0xFFFFFFFFFFFFFFFFFFFFFFFFFFFFFFFFFFFFFFFF AND DUP2 JUMP JUMPDEST PUSH1 0x6 PUSH1 0x0 CALLER PUSH20 0xFFFFFFFFFFFFFFFFFFFFFFFFFFFFFFFFFFFFFFFF AND PUSH20 0xFFFFFFFFFFFFFFFFFFFFFFFFFFFFFFFFFFFFFFFF AND DUP2 MSTORE PUSH1 0x20 ADD SWAP1 DUP2 MSTORE PUSH1 0x20 ADD PUSH1 0x0 KECCAK256 PUSH1 0x0 SWAP1 SLOAD SWAP1 PUSH2 0x100 EXP SWAP1 DIV PUSH1 0xFF AND PUSH2 0x58C JUMPI PUSH1 0x40 MLOAD PUSH32 0x8C379A000000000000000000000000000000000000000000000000000000000 DUP2 MSTORE PUSH1 0x4 ADD PUSH2 0x583 SWAP1 PUSH2 0xD1C JUMP JUMPDEST PUSH1 0x40 MLOAD DUP1 SWAP2 SUB SWAP1 REVERT JUMPDEST PUSH1 0x0 PUSH1 0x6 PUSH1 0x0 CALLER PUSH20 0xFFFFFFFFFFFFFFFFFFFFFFFFFFFFFFFFFFFFFFFF AND PUSH20 0xFFFFFFFFFFFFFFFFFFFFFFFFFFFFFFFFFFFFFFFF AND DUP2 MSTORE PUSH1 0x20 ADD SWAP1 DUP2 MSTORE PUSH1 0x20 ADD PUSH1 0x0 KECCAK256 PUSH1 0x0 PUSH2 0x100 EXP DUP2 SLOAD DUP2 PUSH1 0xFF MUL NOT AND SWAP1 DUP4 ISZERO ISZERO MUL OR SWAP1 SSTORE POP JUMP JUMPDEST PUSH2 0x5EE PUSH2 0x87A JUMP JUMPDEST PUSH1 0x0 PUSH20 0xFFFFFFFFFFFFFFFFFFFFFFFFFFFFFFFFFFFFFFFF AND DUP2 PUSH20 0xFFFFFFFFFFFFFFFFFFFFFFFFFFFFFFFFFFFFFFFF AND EQ ISZERO PUSH2 0x65E JUMPI PUSH1 0x40 MLOAD PUSH32 0x8C379A000000000000000000000000000000000000000000000000000000000 DUP2 MSTORE PUSH1 0x4 ADD PUSH2 0x655 SWAP1 PUSH2 0xC3C JUMP JUMPDEST PUSH1 0x40 MLOAD DUP1 SWAP2 SUB SWAP1 REVERT JUMPDEST PUSH2 0x667 DUP2 PUSH2 0x8F8 JUMP JUMPDEST POP JUMP JUMPDEST PUSH1 0x1 PUSH1 0x2 DUP2 GT ISZERO PUSH2 0x67E JUMPI PUSH2 0x67D PUSH2 0xDBA JUMP JUMPDEST JUMPDEST PUSH1 0x7 PUSH1 0x0 SWAP1 SLOAD SWAP1 PUSH2 0x100 EXP SWAP1 DIV PUSH1 0xFF AND PUSH1 0x2 DUP2 GT ISZERO PUSH2 0x6A0 JUMPI PUSH2 0x69F PUSH2 0xDBA JUMP JUMPDEST JUMPDEST EQ PUSH2 0x6E0 JUMPI PUSH1 0x40 MLOAD PUSH32 0x8C379A000000000000000000000000000000000000000000000000000000000 DUP2 MSTORE PUSH1 0x4 ADD PUSH2 0x6D7 SWAP1 PUSH2 0xC5C JUMP JUMPDEST PUSH1 0x40 MLOAD DUP1 SWAP2 SUB SWAP1 REVERT JUMPDEST PUSH2 0x6E8 PUSH2 0x37E JUMP JUMPDEST PUSH20 0xFFFFFFFFFFFFFFFFFFFFFFFFFFFFFFFFFFFFFFFF AND CALLER PUSH20 0xFFFFFFFFFFFFFFFFFFFFFFFFFFFFFFFFFFFFFFFF AND EQ ISZERO PUSH2 0x756 JUMPI PUSH1 0x40 MLOAD PUSH32 0x8C379A000000000000000000000000000000000000000000000000000000000 DUP2 MSTORE PUSH1 0x4 ADD PUSH2 0x74D SWAP1 PUSH2 0xCBC JUMP JUMPDEST PUSH1 0x40 MLOAD DUP1 SWAP2 SUB SWAP1 REVERT JUMPDEST PUSH1 0x6 PUSH1 0x0 CALLER PUSH20 0xFFFFFFFFFFFFFFFFFFFFFFFFFFFFFFFFFFFFFFFF AND PUSH20 0xFFFFFFFFFFFFFFFFFFFFFFFFFFFFFFFFFFFFFFFF AND DUP2 MSTORE PUSH1 0x20 ADD SWAP1 DUP2 MSTORE PUSH1 0x20 ADD PUSH1 0x0 KECCAK256 PUSH1 0x0 SWAP1 SLOAD SWAP1 PUSH2 0x100 EXP SWAP1 DIV PUSH1 0xFF AND ISZERO PUSH2 0x7E3 JUMPI PUSH1 0x40 MLOAD PUSH32 0x8C379A000000000000000000000000000000000000000000000000000000000 DUP2 MSTORE PUSH1 0x4 ADD PUSH2 0x7DA SWAP1 PUSH2 0xCDC JUMP JUMPDEST PUSH1 0x40 MLOAD DUP1 SWAP2 SUB SWAP1 REVERT JUMPDEST PUSH1 0x1 PUSH1 0x6 PUSH1 0x0 CALLER PUSH20 0xFFFFFFFFFFFFFFFFFFFFFFFFFFFFFFFFFFFFFFFF AND PUSH20 0xFFFFFFFFFFFFFFFFFFFFFFFFFFFFFFFFFFFFFFFF AND DUP2 MSTORE PUSH1 0x20 ADD SWAP1 DUP2 MSTORE PUSH1 0x20 ADD PUSH1 0x0 KECCAK256 PUSH1 0x0 PUSH2 0x100 EXP DUP2 SLOAD DUP2 PUSH1 0xFF MUL NOT AND SWAP1 DUP4 ISZERO ISZERO MUL OR SWAP1 SSTORE POP PUSH32 0xE7183A38A6AA8FB99C4071A88F3ACD0B3C30FD4B05330C2F0A0724BB0254F804 CALLER PUSH1 0x40 MLOAD PUSH2 0x86A SWAP2 SWAP1 PUSH2 0xBEB JUMP JUMPDEST PUSH1 0x40 MLOAD DUP1 SWAP2 SUB SWAP1 LOG1 JUMP JUMPDEST PUSH1 0x3 SLOAD DUP2 JUMP JUMPDEST PUSH2 0x882 PUSH2 0x9BC JUMP JUMPDEST PUSH20 0xFFFFFFFFFFFFFFFFFFFFFFFFFFFFFFFFFFFFFFFF AND PUSH2 0x8A0 PUSH2 0x37E JUMP JUMPDEST PUSH20 0xFFFFFFFFFFFFFFFFFFFFFFFFFFFFFFFFFFFFFFFF AND EQ PUSH2 0x8F6 JUMPI PUSH1 0x40 MLOAD PUSH32 0x8C379A000000000000000000000000000000000000000000000000000000000 DUP2 MSTORE PUSH1 0x4 ADD PUSH2 0x8ED SWAP1 PUSH2 0xCFC JUMP JUMPDEST PUSH1 0x40 MLOAD DUP1 SWAP2 SUB SWAP1 REVERT JUMPDEST JUMP JUMPDEST PUSH1 0x0 DUP1 PUSH1 0x0 SWAP1 SLOAD SWAP1 PUSH2 0x100 EXP SWAP1 DIV PUSH20 0xFFFFFFFFFFFFFFFFFFFFFFFFFFFFFFFFFFFFFFFF AND SWAP1 POP DUP2 PUSH1 0x0 DUP1 PUSH2 0x100 EXP DUP2 SLOAD DUP2 PUSH20 0xFFFFFFFFFFFFFFFFFFFFFFFFFFFFFFFFFFFFFFFF MUL NOT AND SWAP1 DUP4 PUSH20 0xFFFFFFFFFFFFFFFFFFFFFFFFFFFFFFFFFFFFFFFF AND MUL OR SWAP1 SSTORE POP DUP2 PUSH20 0xFFFFFFFFFFFFFFFFFFFFFFFFFFFFFFFFFFFFFFFF AND DUP2 PUSH20 0xFFFFFFFFFFFFFFFFFFFFFFFFFFFFFFFFFFFFFFFF AND PUSH32 0x8BE0079C531659141344CD1FD0A4F28419497F9722A3DAAFE3B4186F6B6457E0 PUSH1 0x40 MLOAD PUSH1 0x40 MLOAD DUP1 SWAP2 SUB SWAP1 LOG3 POP POP JUMP JUMPDEST PUSH1 0x0 CALLER SWAP1 POP SWAP1 JUMP JUMPDEST PUSH1 0x0 DUP2 CALLDATALOAD SWAP1 POP PUSH2 0x9D3 DUP2 PUSH2 0xFA8 JUMP JUMPDEST SWAP3 SWAP2 POP POP JUMP JUMPDEST PUSH1 0x0 DUP2 CALLDATALOAD SWAP1 POP PUSH2 0x9E8 DUP2 PUSH2 0xFBF JUMP JUMPDEST SWAP3 SWAP2 POP POP JUMP JUMPDEST PUSH1 0x0 DUP2 CALLDATALOAD SWAP1 POP PUSH2 0x9FD DUP2 PUSH2 0xFD6 JUMP JUMPDEST SWAP3 SWAP2 POP POP JUMP JUMPDEST PUSH1 0x0 PUSH1 0x20 DUP3 DUP5 SUB SLT ISZERO PUSH2 0xA19 JUMPI PUSH2 0xA18 PUSH2 0xDE9 JUMP JUMPDEST JUMPDEST PUSH1 0x0 PUSH2 0xA27 DUP5 DUP3 DUP6 ADD PUSH2 0x9C4 JUMP JUMPDEST SWAP2 POP POP SWAP3 SWAP2 POP POP JUMP JUMPDEST PUSH1 0x0 DUP1 PUSH1 0x0 DUP1 PUSH1 0x80 DUP6 DUP8 SUB SLT ISZERO PUSH2 0xA4A JUMPI PUSH2 0xA49 PUSH2 0xDE9 JUMP JUMPDEST JUMPDEST PUSH1 0x0 PUSH2 0xA58 DUP8 DUP3 DUP9 ADD PUSH2 0x9C4 JUMP JUMPDEST SWAP5 POP POP PUSH1 0x20 PUSH2 0xA69 DUP8 DUP3 DUP9 ADD PUSH2 0x9D9 JUMP JUMPDEST SWAP4 POP POP PUSH1 0x40 PUSH2 0xA7A DUP8 DUP3 DUP9 ADD PUSH2 0x9EE JUMP JUMPDEST SWAP3 POP POP PUSH1 0x60 PUSH2 0xA8B DUP8 DUP3 DUP9 ADD PUSH2 0x9EE JUMP JUMPDEST SWAP2 POP POP SWAP3 SWAP6 SWAP2 SWAP5 POP SWAP3 POP JUMP JUMPDEST PUSH2 0xAA0 DUP2 PUSH2 0xD68 JUMP JUMPDEST DUP3 MSTORE POP POP JUMP JUMPDEST PUSH2 0xAAF DUP2 PUSH2 0xD7A JUMP JUMPDEST DUP3 MSTORE POP POP JUMP JUMPDEST PUSH2 0xABE DUP2 PUSH2 0xD86 JUMP JUMPDEST DUP3 MSTORE POP POP JUMP JUMPDEST PUSH1 0x0 PUSH2 0xAD1 PUSH1 0x26 DUP4 PUSH2 0xD57 JUMP JUMPDEST SWAP2 POP PUSH2 0xADC DUP3 PUSH2 0xDEE JUMP JUMPDEST PUSH1 0x40 DUP3 ADD SWAP1 POP SWAP2 SWAP1 POP JUMP JUMPDEST PUSH1 0x0 PUSH2 0xAF4 PUSH1 0x20 DUP4 PUSH2 0xD57 JUMP JUMPDEST SWAP2 POP PUSH2 0xAFF DUP3 PUSH2 0xE3D JUMP JUMPDEST PUSH1 0x20 DUP3 ADD SWAP1 POP SWAP2 SWAP1 POP JUMP JUMPDEST PUSH1 0x0 PUSH2 0xB17 PUSH1 0x19 DUP4 PUSH2 0xD57 JUMP JUMPDEST SWAP2 POP PUSH2 0xB22 DUP3 PUSH2 0xE66 JUMP JUMPDEST PUSH1 0x20 DUP3 ADD SWAP1 POP SWAP2 SWAP1 POP JUMP JUMPDEST PUSH1 0x0 PUSH2 0xB3A PUSH1 0x28 DUP4 PUSH2 0xD57 JUMP JUMPDEST SWAP2 POP PUSH2 0xB45 DUP3 PUSH2 0xE8F JUMP JUMPDEST PUSH1 0x40 DUP3 ADD SWAP1 POP SWAP2 SWAP1 POP JUMP JUMPDEST PUSH1 0x0 PUSH2 0xB5D PUSH1 0x2F DUP4 PUSH2 0xD57 JUMP JUMPDEST SWAP2 POP PUSH2 0xB68 DUP3 PUSH2 0xEDE JUMP JUMPDEST PUSH1 0x40 DUP3 ADD SWAP1 POP SWAP2 SWAP1 POP JUMP JUMPDEST PUSH1 0x0 PUSH2 0xB80 PUSH1 0x1D DUP4 PUSH2 0xD57 JUMP JUMPDEST SWAP2 POP PUSH2 0xB8B DUP3 PUSH2 0xF2D JUMP JUMPDEST PUSH1 0x20 DUP3 ADD SWAP1 POP SWAP2 SWAP1 POP JUMP JUMPDEST PUSH1 0x0 PUSH2 0xBA3 PUSH1 0x20 DUP4 PUSH2 0xD57 JUMP JUMPDEST SWAP2 POP PUSH2 0xBAE DUP3 PUSH2 0xF56 JUMP JUMPDEST PUSH1 0x20 DUP3 ADD SWAP1 POP SWAP2 SWAP1 POP JUMP JUMPDEST PUSH1 0x0 PUSH2 0xBC6 PUSH1 0x18 DUP4 PUSH2 0xD57 JUMP JUMPDEST SWAP2 POP PUSH2 0xBD1 DUP3 PUSH2 0xF7F JUMP JUMPDEST PUSH1 0x20 DUP3 ADD SWAP1 POP SWAP2 SWAP1 POP JUMP JUMPDEST PUSH2 0xBE5 DUP2 PUSH2 0xDB0 JUMP JUMPDEST DUP3 MSTORE POP POP JUMP JUMPDEST PUSH1 0x0 PUSH1 0x20 DUP3 ADD SWAP1 POP PUSH2 0xC00 PUSH1 0x0 DUP4 ADD DUP5 PUSH2 0xA97 JUMP JUMPDEST SWAP3 SWAP2 POP POP JUMP JUMPDEST PUSH1 0x0 PUSH1 0x20 DUP3 ADD SWAP1 POP PUSH2 0xC1B PUSH1 0x0 DUP4 ADD DUP5 PUSH2 0xAA6 JUMP JUMPDEST SWAP3 SWAP2 POP POP JUMP JUMPDEST PUSH1 0x0 PUSH1 0x20 DUP3 ADD SWAP1 POP PUSH2 0xC36 PUSH1 0x0 DUP4 ADD DUP5 PUSH2 0xAB5 JUMP JUMPDEST SWAP3 SWAP2 POP POP JUMP JUMPDEST PUSH1 0x0 PUSH1 0x20 DUP3 ADD SWAP1 POP DUP2 DUP2 SUB PUSH1 0x0 DUP4 ADD MSTORE PUSH2 0xC55 DUP2 PUSH2 0xAC4 JUMP JUMPDEST SWAP1 POP SWAP2 SWAP1 POP JUMP JUMPDEST PUSH1 0x0 PUSH1 0x20 DUP3 ADD SWAP1 POP DUP2 DUP2 SUB PUSH1 0x0 DUP4 ADD MSTORE PUSH2 0xC75 DUP2 PUSH2 0xAE7 JUMP JUMPDEST SWAP1 POP SWAP2 SWAP1 POP JUMP JUMPDEST PUSH1 0x0 PUSH1 0x20 DUP3 ADD SWAP1 POP DUP2 DUP2 SUB PUSH1 0x0 DUP4 ADD MSTORE PUSH2 0xC95 DUP2 PUSH2 0xB0A JUMP JUMPDEST SWAP1 POP SWAP2 SWAP1 POP JUMP JUMPDEST PUSH1 0x0 PUSH1 0x20 DUP3 ADD SWAP1 POP DUP2 DUP2 SUB PUSH1 0x0 DUP4 ADD MSTORE PUSH2 0xCB5 DUP2 PUSH2 0xB2D JUMP JUMPDEST SWAP1 POP SWAP2 SWAP1 POP JUMP JUMPDEST PUSH1 0x0 PUSH1 0x20 DUP3 ADD SWAP1 POP DUP2 DUP2 SUB PUSH1 0x0 DUP4 ADD MSTORE PUSH2 0xCD5 DUP2 PUSH2 0xB50 JUMP JUMPDEST SWAP1 POP SWAP2 SWAP1 POP JUMP JUMPDEST PUSH1 0x0 PUSH1 0x20 DUP3 ADD SWAP1 POP DUP2 DUP2 SUB PUSH1 0x0 DUP4 ADD MSTORE PUSH2 0xCF5 DUP2 PUSH2 0xB73 JUMP JUMPDEST SWAP1 POP SWAP2 SWAP1 POP JUMP JUMPDEST PUSH1 0x0 PUSH1 0x20 DUP3 ADD SWAP1 POP DUP2 DUP2 SUB PUSH1 0x0 DUP4 ADD MSTORE PUSH2 0xD15 DUP2 PUSH2 0xB96 JUMP JUMPDEST SWAP1 POP SWAP2 SWAP1 POP JUMP JUMPDEST PUSH1 0x0 PUSH1 0x20 DUP3 ADD SWAP1 POP DUP2 DUP2 SUB PUSH1 0x0 DUP4 ADD MSTORE PUSH2 0xD35 DUP2 PUSH2 0xBB9 JUMP JUMPDEST SWAP1 POP SWAP2 SWAP1 POP JUMP JUMPDEST PUSH1 0x0 PUSH1 0x20 DUP3 ADD SWAP1 POP PUSH2 0xD51 PUSH1 0x0 DUP4 ADD DUP5 PUSH2 0xBDC JUMP JUMPDEST SWAP3 SWAP2 POP POP JUMP JUMPDEST PUSH1 0x0 DUP3 DUP3 MSTORE PUSH1 0x20 DUP3 ADD SWAP1 POP SWAP3 SWAP2 POP POP JUMP JUMPDEST PUSH1 0x0 PUSH2 0xD73 DUP3 PUSH2 0xD90 JUMP JUMPDEST SWAP1 POP SWAP2 SWAP1 POP JUMP JUMPDEST PUSH1 0x0 DUP2 ISZERO ISZERO SWAP1 POP SWAP2 SWAP1 POP JUMP JUMPDEST PUSH1 0x0 DUP2 SWAP1 POP SWAP2 SWAP1 POP JUMP JUMPDEST PUSH1 0x0 PUSH20 0xFFFFFFFFFFFFFFFFFFFFFFFFFFFFFFFFFFFFFFFF DUP3 AND SWAP1 POP SWAP2 SWAP1 POP JUMP JUMPDEST PUSH1 0x0 DUP2 SWAP1 POP SWAP2 SWAP1 POP JUMP JUMPDEST PUSH32 0x4E487B7100000000000000000000000000000000000000000000000000000000 PUSH1 0x0 MSTORE PUSH1 0x21 PUSH1 0x4 MSTORE PUSH1 0x24 PUSH1 0x0 REVERT JUMPDEST PUSH1 0x0 DUP1 REVERT JUMPDEST PUSH32 0x4F776E61626C653A206E6577206F776E657220697320746865207A65726F2061 PUSH1 0x0 DUP3 ADD MSTORE PUSH32 0x6464726573730000000000000000000000000000000000000000000000000000 PUSH1 0x20 DUP3 ADD MSTORE POP JUMP JUMPDEST PUSH32 0x70726F64756365206973206E6F74206F70656E20666F72206F72646572696E67 PUSH1 0x0 DUP3 ADD MSTORE POP JUMP JUMPDEST PUSH32 0x70726F6475636520697320616C726561647920636C6F73656400000000000000 PUSH1 0x0 DUP3 ADD MSTORE POP JUMP JUMPDEST PUSH32 0x546869732070726F647563652068617320616C7265616479206265656E20696E PUSH1 0x0 DUP3 ADD MSTORE PUSH32 0x6974696C697A6564000000000000000000000000000000000000000000000000 PUSH1 0x20 DUP3 ADD MSTORE POP JUMP JUMPDEST PUSH32 0x6661726D65722063616E6E6F7420706C616365206F7264657220666F72207468 PUSH1 0x0 DUP3 ADD MSTORE PUSH32 0x656972206F776E2070726F647563650000000000000000000000000000000000 PUSH1 0x20 DUP3 ADD MSTORE POP JUMP JUMPDEST PUSH32 0x6F726465722068617320616C7265616479206265656E20706C61636564000000 PUSH1 0x0 DUP3 ADD MSTORE POP JUMP JUMPDEST PUSH32 0x4F776E61626C653A2063616C6C6572206973206E6F7420746865206F776E6572 PUSH1 0x0 DUP3 ADD MSTORE POP JUMP JUMPDEST PUSH32 0x6E6F206F7264657220686173206265656E20706C616365640000000000000000 PUSH1 0x0 DUP3 ADD MSTORE POP JUMP JUMPDEST PUSH2 0xFB1 DUP2 PUSH2 0xD68 JUMP JUMPDEST DUP2 EQ PUSH2 0xFBC JUMPI PUSH1 0x0 DUP1 REVERT JUMPDEST POP JUMP JUMPDEST PUSH2 0xFC8 DUP2 PUSH2 0xD86 JUMP JUMPDEST DUP2 EQ PUSH2 0xFD3 JUMPI PUSH1 0x0 DUP1 REVERT JUMPDEST POP JUMP JUMPDEST PUSH2 0xFDF DUP2 PUSH2 0xDB0 JUMP JUMPDEST DUP2 EQ PUSH2 0xFEA JUMPI PUSH1 0x0 DUP1 REVERT JUMPDEST POP JUMP INVALID LOG2 PUSH5 0x6970667358 0x22 SLT KECCAK256 0xEA 0xAD LT POP SWAP14 0xD 0x22 0xED 0x2D RETURNDATACOPY CALLVALUE DUP5 EXTCODEHASH 0xB6 SWAP14 CHAINID 0xB0 0xB6 LOG4 0xBB 0xD3 0x26 DUP10 0xA6 LOG3 0xCE 0xC1 0xEA CALLDATACOPY PUSH14 0x2A464736F6C6343000807003300 "
				},
				"gasEstimates": {
					"creation": {
						"codeDepositCost": "408000",
						"executionCost": "infinite",
						"totalCost": "infinite"
					},
					"external": {
						"addProduce(bytes32,uint256,uint256)": "infinite",
						"farmerList(address)": "2889",
						"produceList(address)": "2823",
						"removeProduce()": "28003"
					}
				},
				"methodIdentifiers": {
					"addProduce(bytes32,uint256,uint256)": "445cc412",
					"farmerList(address)": "a1d861a9",
					"produceList(address)": "019b1e0a",
					"removeProduce()": "9def9846"
				}
			},
			"storageLayout": {
				"storage": [
					{
						"astId": 622,
						"contract": "contracts/Market.sol:Market",
						"label": "produceList",
						"offset": 0,
						"slot": "0",
						"type": "t_mapping(t_address,t_bool)"
					},
					{
						"astId": 626,
						"contract": "contracts/Market.sol:Market",
						"label": "farmerList",
						"offset": 0,
						"slot": "1",
						"type": "t_mapping(t_address,t_bool)"
					}
				],
				"types": {
					"t_address": {
						"encoding": "inplace",
						"label": "address",
						"numberOfBytes": "20"
					},
					"t_bool": {
						"encoding": "inplace",
						"label": "bool",
						"numberOfBytes": "1"
					},
					"t_mapping(t_address,t_bool)": {
						"encoding": "mapping",
						"key": "t_address",
						"label": "mapping(address => bool)",
						"numberOfBytes": "32",
						"value": "t_bool"
					}
				}
			},
			"userdoc": {
				"kind": "user",
				"methods": {},
				"version": 1
			}
		}
	}
}