{
	"contracts/GroupOrder.sol": {
		"GroupOrder": {
			"abi": [
				{
					"inputs": [
						{
							"internalType": "address",
							"name": "produce_",
							"type": "address"
						},
						{
							"internalType": "uint256",
							"name": "timeLimit_",
							"type": "uint256"
						},
						{
							"internalType": "uint256",
							"name": "requiredVotesToReject_",
							"type": "uint256"
						}
					],
					"stateMutability": "nonpayable",
					"type": "constructor"
				},
				{
					"anonymous": false,
					"inputs": [
						{
							"indexed": false,
							"internalType": "string",
							"name": "reason",
							"type": "string"
						}
					],
					"name": "OrderFailed",
					"type": "event"
				},
				{
					"anonymous": false,
					"inputs": [
						{
							"indexed": false,
							"internalType": "enum GroupOrder.State",
							"name": "state",
							"type": "uint8"
						}
					],
					"name": "OrderStateUpdate",
					"type": "event"
				},
				{
					"inputs": [],
					"name": "acceptOrder",
					"outputs": [],
					"stateMutability": "nonpayable",
					"type": "function"
				},
				{
					"inputs": [],
					"name": "endTime",
					"outputs": [
						{
							"internalType": "uint256",
							"name": "",
							"type": "uint256"
						}
					],
					"stateMutability": "view",
					"type": "function"
				},
				{
					"inputs": [],
					"name": "groupOrderHash",
					"outputs": [
						{
							"internalType": "bytes32",
							"name": "",
							"type": "bytes32"
						}
					],
					"stateMutability": "view",
					"type": "function"
				},
				{
					"inputs": [],
					"name": "minimumTimeLimit",
					"outputs": [
						{
							"internalType": "uint256",
							"name": "",
							"type": "uint256"
						}
					],
					"stateMutability": "view",
					"type": "function"
				},
				{
					"inputs": [],
					"name": "placeOrder",
					"outputs": [],
					"stateMutability": "payable",
					"type": "function"
				},
				{
					"inputs": [],
					"name": "portionsAgreed",
					"outputs": [
						{
							"internalType": "uint256",
							"name": "",
							"type": "uint256"
						}
					],
					"stateMutability": "view",
					"type": "function"
				},
				{
					"inputs": [],
					"name": "produce",
					"outputs": [
						{
							"internalType": "contract Produce",
							"name": "",
							"type": "address"
						}
					],
					"stateMutability": "view",
					"type": "function"
				},
				{
					"inputs": [],
					"name": "rejectOrder",
					"outputs": [],
					"stateMutability": "nonpayable",
					"type": "function"
				},
				{
					"inputs": [],
					"name": "requiredVotesToReject",
					"outputs": [
						{
							"internalType": "uint256",
							"name": "",
							"type": "uint256"
						}
					],
					"stateMutability": "view",
					"type": "function"
				},
				{
					"inputs": [],
					"name": "startTime",
					"outputs": [
						{
							"internalType": "uint256",
							"name": "",
							"type": "uint256"
						}
					],
					"stateMutability": "view",
					"type": "function"
				},
				{
					"inputs": [],
					"name": "state",
					"outputs": [
						{
							"internalType": "enum GroupOrder.State",
							"name": "",
							"type": "uint8"
						}
					],
					"stateMutability": "view",
					"type": "function"
				},
				{
					"inputs": [],
					"name": "submitOrder",
					"outputs": [],
					"stateMutability": "nonpayable",
					"type": "function"
				},
				{
					"inputs": [],
					"name": "timeOutGroupOrder",
					"outputs": [],
					"stateMutability": "nonpayable",
					"type": "function"
				},
				{
					"inputs": [],
					"name": "voteToCancel",
					"outputs": [],
					"stateMutability": "nonpayable",
					"type": "function"
				},
				{
					"inputs": [],
					"name": "votesToReject",
					"outputs": [
						{
							"internalType": "uint256",
							"name": "",
							"type": "uint256"
						}
					],
					"stateMutability": "view",
					"type": "function"
				},
				{
					"inputs": [],
					"name": "withdrawFunds",
					"outputs": [],
					"stateMutability": "nonpayable",
					"type": "function"
				}
			],
			"devdoc": {
				"kind": "dev",
				"methods": {},
				"version": 1
			},
			"evm": {
				"assembly": "    /* \"contracts/GroupOrder.sol\":140:4506  contract GroupOrder {... */\n  mstore(0x40, 0x80)\n    /* \"contracts/GroupOrder.sol\":770:771  0 */\n  0x00\n    /* \"contracts/GroupOrder.sol\":739:771  uint256 public votesToReject = 0 */\n  0x06\n  sstore\n    /* \"contracts/GroupOrder.sol\":926:1321  constructor(address produce_, uint256 timeLimit_, uint256 requiredVotesToReject_) {... */\n  callvalue\n  dup1\n  iszero\n  tag_1\n  jumpi\n  0x00\n  dup1\n  revert\ntag_1:\n  pop\n  mload(0x40)\n  sub(codesize, bytecodeSize)\n  dup1\n  bytecodeSize\n  dup4\n  codecopy\n  dup2\n  dup2\n  add\n  0x40\n  mstore\n  dup2\n  add\n  swap1\n  tag_2\n  swap2\n  swap1\n  tag_3\n  jump\t// in\ntag_2:\n    /* \"contracts/GroupOrder.sol\":410:426  25 * (3 * 10**6) */\n  0x047868c0\n    /* \"contracts/GroupOrder.sol\":1026:1036  timeLimit_ */\n  dup3\n    /* \"contracts/GroupOrder.sol\":1026:1055  timeLimit_ > minimumTimeLimit */\n  gt\n    /* \"contracts/GroupOrder.sol\":1018:1086  require(timeLimit_ > minimumTimeLimit, \"time limit not high enough\") */\n  tag_6\n  jumpi\n  mload(0x40)\n  0x08c379a000000000000000000000000000000000000000000000000000000000\n  dup2\n  mstore\n  0x04\n  add\n  tag_7\n  swap1\n  tag_8\n  jump\t// in\ntag_7:\n  mload(0x40)\n  dup1\n  swap2\n  sub\n  swap1\n  revert\ntag_6:\n    /* \"contracts/GroupOrder.sol\":1104:1114  State.OPEN */\n  0x00\n    /* \"contracts/GroupOrder.sol\":1096:1101  state */\n  0x07\n  0x00\n    /* \"contracts/GroupOrder.sol\":1096:1114  state = State.OPEN */\n  0x0100\n  exp\n  dup2\n  sload\n  dup2\n  0xff\n  mul\n  not\n  and\n  swap1\n  dup4\n  0x03\n  dup2\n  gt\n  iszero\n  tag_9\n  jumpi\n  tag_10\n  tag_11\n  jump\t// in\ntag_10:\ntag_9:\n  mul\n  or\n  swap1\n  sstore\n  pop\n    /* \"contracts/GroupOrder.sol\":1142:1150  produce_ */\n  dup3\n    /* \"contracts/GroupOrder.sol\":1124:1131  produce */\n  0x00\n  dup1\n    /* \"contracts/GroupOrder.sol\":1124:1151  produce = Produce(produce_) */\n  0x0100\n  exp\n  dup2\n  sload\n  dup2\n  0xffffffffffffffffffffffffffffffffffffffff\n  mul\n  not\n  and\n  swap1\n  dup4\n  0xffffffffffffffffffffffffffffffffffffffff\n  and\n  mul\n  or\n  swap1\n  sstore\n  pop\n    /* \"contracts/GroupOrder.sol\":1185:1207  requiredVotesToReject_ */\n  dup1\n    /* \"contracts/GroupOrder.sol\":1161:1182  requiredVotesToReject */\n  0x05\n    /* \"contracts/GroupOrder.sol\":1161:1207  requiredVotesToReject = requiredVotesToReject_ */\n  dup2\n  swap1\n  sstore\n  pop\n    /* \"contracts/GroupOrder.sol\":1229:1244  block.timestamp */\n  timestamp\n    /* \"contracts/GroupOrder.sol\":1217:1226  startTime */\n  0x02\n    /* \"contracts/GroupOrder.sol\":1217:1244  startTime = block.timestamp */\n  dup2\n  swap1\n  sstore\n  pop\n    /* \"contracts/GroupOrder.sol\":1276:1286  timeLimit_ */\n  dup2\n    /* \"contracts/GroupOrder.sol\":1264:1273  startTime */\n  sload(0x02)\n    /* \"contracts/GroupOrder.sol\":1264:1286  startTime + timeLimit_ */\n  tag_12\n  swap2\n  swap1\n  tag_13\n  jump\t// in\ntag_12:\n    /* \"contracts/GroupOrder.sol\":1254:1261  endTime */\n  0x03\n    /* \"contracts/GroupOrder.sol\":1254:1286  endTime = startTime + timeLimit_ */\n  dup2\n  swap1\n  sstore\n  pop\n    /* \"contracts/GroupOrder.sol\":1304:1314  State.OPEN */\n  0x00\n    /* \"contracts/GroupOrder.sol\":1296:1301  state */\n  0x07\n  0x00\n    /* \"contracts/GroupOrder.sol\":1296:1314  state = State.OPEN */\n  0x0100\n  exp\n  dup2\n  sload\n  dup2\n  0xff\n  mul\n  not\n  and\n  swap1\n  dup4\n  0x03\n  dup2\n  gt\n  iszero\n  tag_14\n  jumpi\n  tag_15\n  tag_11\n  jump\t// in\ntag_15:\ntag_14:\n  mul\n  or\n  swap1\n  sstore\n  pop\n    /* \"contracts/GroupOrder.sol\":926:1321  constructor(address produce_, uint256 timeLimit_, uint256 requiredVotesToReject_) {... */\n  pop\n  pop\n  pop\n    /* \"contracts/GroupOrder.sol\":140:4506  contract GroupOrder {... */\n  jump(tag_16)\n    /* \"#utility.yul\":7:150   */\ntag_18:\n    /* \"#utility.yul\":64:69   */\n  0x00\n    /* \"#utility.yul\":95:101   */\n  dup2\n    /* \"#utility.yul\":89:102   */\n  mload\n    /* \"#utility.yul\":80:102   */\n  swap1\n  pop\n    /* \"#utility.yul\":111:144   */\n  tag_20\n    /* \"#utility.yul\":138:143   */\n  dup2\n    /* \"#utility.yul\":111:144   */\n  tag_21\n  jump\t// in\ntag_20:\n    /* \"#utility.yul\":7:150   */\n  swap3\n  swap2\n  pop\n  pop\n  jump\t// out\n    /* \"#utility.yul\":156:299   */\ntag_22:\n    /* \"#utility.yul\":213:218   */\n  0x00\n    /* \"#utility.yul\":244:250   */\n  dup2\n    /* \"#utility.yul\":238:251   */\n  mload\n    /* \"#utility.yul\":229:251   */\n  swap1\n  pop\n    /* \"#utility.yul\":260:293   */\n  tag_24\n    /* \"#utility.yul\":287:292   */\n  dup2\n    /* \"#utility.yul\":260:293   */\n  tag_25\n  jump\t// in\ntag_24:\n    /* \"#utility.yul\":156:299   */\n  swap3\n  swap2\n  pop\n  pop\n  jump\t// out\n    /* \"#utility.yul\":305:968   */\ntag_3:\n    /* \"#utility.yul\":393:399   */\n  0x00\n    /* \"#utility.yul\":401:407   */\n  dup1\n    /* \"#utility.yul\":409:415   */\n  0x00\n    /* \"#utility.yul\":458:460   */\n  0x60\n    /* \"#utility.yul\":446:455   */\n  dup5\n    /* \"#utility.yul\":437:444   */\n  dup7\n    /* \"#utility.yul\":433:456   */\n  sub\n    /* \"#utility.yul\":429:461   */\n  slt\n    /* \"#utility.yul\":426:545   */\n  iszero\n  tag_27\n  jumpi\n    /* \"#utility.yul\":464:543   */\n  tag_28\n  tag_29\n  jump\t// in\ntag_28:\n    /* \"#utility.yul\":426:545   */\ntag_27:\n    /* \"#utility.yul\":584:585   */\n  0x00\n    /* \"#utility.yul\":609:673   */\n  tag_30\n    /* \"#utility.yul\":665:672   */\n  dup7\n    /* \"#utility.yul\":656:662   */\n  dup3\n    /* \"#utility.yul\":645:654   */\n  dup8\n    /* \"#utility.yul\":641:663   */\n  add\n    /* \"#utility.yul\":609:673   */\n  tag_18\n  jump\t// in\ntag_30:\n    /* \"#utility.yul\":599:673   */\n  swap4\n  pop\n    /* \"#utility.yul\":555:683   */\n  pop\n    /* \"#utility.yul\":722:724   */\n  0x20\n    /* \"#utility.yul\":748:812   */\n  tag_31\n    /* \"#utility.yul\":804:811   */\n  dup7\n    /* \"#utility.yul\":795:801   */\n  dup3\n    /* \"#utility.yul\":784:793   */\n  dup8\n    /* \"#utility.yul\":780:802   */\n  add\n    /* \"#utility.yul\":748:812   */\n  tag_22\n  jump\t// in\ntag_31:\n    /* \"#utility.yul\":738:812   */\n  swap3\n  pop\n    /* \"#utility.yul\":693:822   */\n  pop\n    /* \"#utility.yul\":861:863   */\n  0x40\n    /* \"#utility.yul\":887:951   */\n  tag_32\n    /* \"#utility.yul\":943:950   */\n  dup7\n    /* \"#utility.yul\":934:940   */\n  dup3\n    /* \"#utility.yul\":923:932   */\n  dup8\n    /* \"#utility.yul\":919:941   */\n  add\n    /* \"#utility.yul\":887:951   */\n  tag_22\n  jump\t// in\ntag_32:\n    /* \"#utility.yul\":877:951   */\n  swap2\n  pop\n    /* \"#utility.yul\":832:961   */\n  pop\n    /* \"#utility.yul\":305:968   */\n  swap3\n  pop\n  swap3\n  pop\n  swap3\n  jump\t// out\n    /* \"#utility.yul\":974:1340   */\ntag_33:\n    /* \"#utility.yul\":1116:1119   */\n  0x00\n    /* \"#utility.yul\":1137:1204   */\n  tag_35\n    /* \"#utility.yul\":1201:1203   */\n  0x1a\n    /* \"#utility.yul\":1196:1199   */\n  dup4\n    /* \"#utility.yul\":1137:1204   */\n  tag_36\n  jump\t// in\ntag_35:\n    /* \"#utility.yul\":1130:1204   */\n  swap2\n  pop\n    /* \"#utility.yul\":1213:1306   */\n  tag_37\n    /* \"#utility.yul\":1302:1305   */\n  dup3\n    /* \"#utility.yul\":1213:1306   */\n  tag_38\n  jump\t// in\ntag_37:\n    /* \"#utility.yul\":1331:1333   */\n  0x20\n    /* \"#utility.yul\":1326:1329   */\n  dup3\n    /* \"#utility.yul\":1322:1334   */\n  add\n    /* \"#utility.yul\":1315:1334   */\n  swap1\n  pop\n    /* \"#utility.yul\":974:1340   */\n  swap2\n  swap1\n  pop\n  jump\t// out\n    /* \"#utility.yul\":1346:1765   */\ntag_8:\n    /* \"#utility.yul\":1512:1516   */\n  0x00\n    /* \"#utility.yul\":1550:1552   */\n  0x20\n    /* \"#utility.yul\":1539:1548   */\n  dup3\n    /* \"#utility.yul\":1535:1553   */\n  add\n    /* \"#utility.yul\":1527:1553   */\n  swap1\n  pop\n    /* \"#utility.yul\":1599:1608   */\n  dup2\n    /* \"#utility.yul\":1593:1597   */\n  dup2\n    /* \"#utility.yul\":1589:1609   */\n  sub\n    /* \"#utility.yul\":1585:1586   */\n  0x00\n    /* \"#utility.yul\":1574:1583   */\n  dup4\n    /* \"#utility.yul\":1570:1587   */\n  add\n    /* \"#utility.yul\":1563:1610   */\n  mstore\n    /* \"#utility.yul\":1627:1758   */\n  tag_40\n    /* \"#utility.yul\":1753:1757   */\n  dup2\n    /* \"#utility.yul\":1627:1758   */\n  tag_33\n  jump\t// in\ntag_40:\n    /* \"#utility.yul\":1619:1758   */\n  swap1\n  pop\n    /* \"#utility.yul\":1346:1765   */\n  swap2\n  swap1\n  pop\n  jump\t// out\n    /* \"#utility.yul\":1852:2021   */\ntag_36:\n    /* \"#utility.yul\":1936:1947   */\n  0x00\n    /* \"#utility.yul\":1970:1976   */\n  dup3\n    /* \"#utility.yul\":1965:1968   */\n  dup3\n    /* \"#utility.yul\":1958:1977   */\n  mstore\n    /* \"#utility.yul\":2010:2014   */\n  0x20\n    /* \"#utility.yul\":2005:2008   */\n  dup3\n    /* \"#utility.yul\":2001:2015   */\n  add\n    /* \"#utility.yul\":1986:2015   */\n  swap1\n  pop\n    /* \"#utility.yul\":1852:2021   */\n  swap3\n  swap2\n  pop\n  pop\n  jump\t// out\n    /* \"#utility.yul\":2027:2332   */\ntag_13:\n    /* \"#utility.yul\":2067:2070   */\n  0x00\n    /* \"#utility.yul\":2086:2106   */\n  tag_45\n    /* \"#utility.yul\":2104:2105   */\n  dup3\n    /* \"#utility.yul\":2086:2106   */\n  tag_46\n  jump\t// in\ntag_45:\n    /* \"#utility.yul\":2081:2106   */\n  swap2\n  pop\n    /* \"#utility.yul\":2120:2140   */\n  tag_47\n    /* \"#utility.yul\":2138:2139   */\n  dup4\n    /* \"#utility.yul\":2120:2140   */\n  tag_46\n  jump\t// in\ntag_47:\n    /* \"#utility.yul\":2115:2140   */\n  swap3\n  pop\n    /* \"#utility.yul\":2274:2275   */\n  dup3\n    /* \"#utility.yul\":2206:2272   */\n  0xffffffffffffffffffffffffffffffffffffffffffffffffffffffffffffffff\n    /* \"#utility.yul\":2202:2276   */\n  sub\n    /* \"#utility.yul\":2199:2200   */\n  dup3\n    /* \"#utility.yul\":2196:2277   */\n  gt\n    /* \"#utility.yul\":2193:2300   */\n  iszero\n  tag_48\n  jumpi\n    /* \"#utility.yul\":2280:2298   */\n  tag_49\n  tag_50\n  jump\t// in\ntag_49:\n    /* \"#utility.yul\":2193:2300   */\ntag_48:\n    /* \"#utility.yul\":2324:2325   */\n  dup3\n    /* \"#utility.yul\":2321:2322   */\n  dup3\n    /* \"#utility.yul\":2317:2326   */\n  add\n    /* \"#utility.yul\":2310:2326   */\n  swap1\n  pop\n    /* \"#utility.yul\":2027:2332   */\n  swap3\n  swap2\n  pop\n  pop\n  jump\t// out\n    /* \"#utility.yul\":2338:2434   */\ntag_51:\n    /* \"#utility.yul\":2375:2382   */\n  0x00\n    /* \"#utility.yul\":2404:2428   */\n  tag_53\n    /* \"#utility.yul\":2422:2427   */\n  dup3\n    /* \"#utility.yul\":2404:2428   */\n  tag_54\n  jump\t// in\ntag_53:\n    /* \"#utility.yul\":2393:2428   */\n  swap1\n  pop\n    /* \"#utility.yul\":2338:2434   */\n  swap2\n  swap1\n  pop\n  jump\t// out\n    /* \"#utility.yul\":2440:2566   */\ntag_54:\n    /* \"#utility.yul\":2477:2484   */\n  0x00\n    /* \"#utility.yul\":2517:2559   */\n  0xffffffffffffffffffffffffffffffffffffffff\n    /* \"#utility.yul\":2510:2515   */\n  dup3\n    /* \"#utility.yul\":2506:2560   */\n  and\n    /* \"#utility.yul\":2495:2560   */\n  swap1\n  pop\n    /* \"#utility.yul\":2440:2566   */\n  swap2\n  swap1\n  pop\n  jump\t// out\n    /* \"#utility.yul\":2572:2649   */\ntag_46:\n    /* \"#utility.yul\":2609:2616   */\n  0x00\n    /* \"#utility.yul\":2638:2643   */\n  dup2\n    /* \"#utility.yul\":2627:2643   */\n  swap1\n  pop\n    /* \"#utility.yul\":2572:2649   */\n  swap2\n  swap1\n  pop\n  jump\t// out\n    /* \"#utility.yul\":2655:2835   */\ntag_50:\n    /* \"#utility.yul\":2703:2780   */\n  0x4e487b7100000000000000000000000000000000000000000000000000000000\n    /* \"#utility.yul\":2700:2701   */\n  0x00\n    /* \"#utility.yul\":2693:2781   */\n  mstore\n    /* \"#utility.yul\":2800:2804   */\n  0x11\n    /* \"#utility.yul\":2797:2798   */\n  0x04\n    /* \"#utility.yul\":2790:2805   */\n  mstore\n    /* \"#utility.yul\":2824:2828   */\n  0x24\n    /* \"#utility.yul\":2821:2822   */\n  0x00\n    /* \"#utility.yul\":2814:2829   */\n  revert\n    /* \"#utility.yul\":2841:3021   */\ntag_11:\n    /* \"#utility.yul\":2889:2966   */\n  0x4e487b7100000000000000000000000000000000000000000000000000000000\n    /* \"#utility.yul\":2886:2887   */\n  0x00\n    /* \"#utility.yul\":2879:2967   */\n  mstore\n    /* \"#utility.yul\":2986:2990   */\n  0x21\n    /* \"#utility.yul\":2983:2984   */\n  0x04\n    /* \"#utility.yul\":2976:2991   */\n  mstore\n    /* \"#utility.yul\":3010:3014   */\n  0x24\n    /* \"#utility.yul\":3007:3008   */\n  0x00\n    /* \"#utility.yul\":3000:3015   */\n  revert\n    /* \"#utility.yul\":3150:3267   */\ntag_29:\n    /* \"#utility.yul\":3259:3260   */\n  0x00\n    /* \"#utility.yul\":3256:3257   */\n  dup1\n    /* \"#utility.yul\":3249:3261   */\n  revert\n    /* \"#utility.yul\":3273:3449   */\ntag_38:\n    /* \"#utility.yul\":3413:3441   */\n  0x74696d65206c696d6974206e6f74206869676820656e6f756768000000000000\n    /* \"#utility.yul\":3409:3410   */\n  0x00\n    /* \"#utility.yul\":3401:3407   */\n  dup3\n    /* \"#utility.yul\":3397:3411   */\n  add\n    /* \"#utility.yul\":3390:3442   */\n  mstore\n    /* \"#utility.yul\":3273:3449   */\n  pop\n  jump\t// out\n    /* \"#utility.yul\":3455:3577   */\ntag_21:\n    /* \"#utility.yul\":3528:3552   */\n  tag_64\n    /* \"#utility.yul\":3546:3551   */\n  dup2\n    /* \"#utility.yul\":3528:3552   */\n  tag_51\n  jump\t// in\ntag_64:\n    /* \"#utility.yul\":3521:3526   */\n  dup2\n    /* \"#utility.yul\":3518:3553   */\n  eq\n    /* \"#utility.yul\":3508:3571   */\n  tag_65\n  jumpi\n    /* \"#utility.yul\":3567:3568   */\n  0x00\n    /* \"#utility.yul\":3564:3565   */\n  dup1\n    /* \"#utility.yul\":3557:3569   */\n  revert\n    /* \"#utility.yul\":3508:3571   */\ntag_65:\n    /* \"#utility.yul\":3455:3577   */\n  pop\n  jump\t// out\n    /* \"#utility.yul\":3583:3705   */\ntag_25:\n    /* \"#utility.yul\":3656:3680   */\n  tag_67\n    /* \"#utility.yul\":3674:3679   */\n  dup2\n    /* \"#utility.yul\":3656:3680   */\n  tag_46\n  jump\t// in\ntag_67:\n    /* \"#utility.yul\":3649:3654   */\n  dup2\n    /* \"#utility.yul\":3646:3681   */\n  eq\n    /* \"#utility.yul\":3636:3699   */\n  tag_68\n  jumpi\n    /* \"#utility.yul\":3695:3696   */\n  0x00\n    /* \"#utility.yul\":3692:3693   */\n  dup1\n    /* \"#utility.yul\":3685:3697   */\n  revert\n    /* \"#utility.yul\":3636:3699   */\ntag_68:\n    /* \"#utility.yul\":3583:3705   */\n  pop\n  jump\t// out\n    /* \"contracts/GroupOrder.sol\":140:4506  contract GroupOrder {... */\ntag_16:\n  dataSize(sub_0)\n  dup1\n  dataOffset(sub_0)\n  0x00\n  codecopy\n  0x00\n  return\nstop\n\nsub_0: assembly {\n        /* \"contracts/GroupOrder.sol\":140:4506  contract GroupOrder {... */\n      mstore(0x40, 0x80)\n      jumpi(tag_1, lt(calldatasize, 0x04))\n      shr(0xe0, calldataload(0x00))\n      dup1\n      0x5f29a5ee\n      gt\n      tag_18\n      jumpi\n      dup1\n      0xd008902c\n      gt\n      tag_19\n      jumpi\n      dup1\n      0xd008902c\n      eq\n      tag_14\n      jumpi\n      dup1\n      0xdd5a00a7\n      eq\n      tag_15\n      jumpi\n      dup1\n      0xf56b3ad5\n      eq\n      tag_16\n      jumpi\n      dup1\n      0xf5c609e0\n      eq\n      tag_17\n      jumpi\n      jump(tag_1)\n    tag_19:\n      dup1\n      0x5f29a5ee\n      eq\n      tag_10\n      jumpi\n      dup1\n      0x656b9952\n      eq\n      tag_11\n      jumpi\n      dup1\n      0x78e97925\n      eq\n      tag_12\n      jumpi\n      dup1\n      0xc19d93fb\n      eq\n      tag_13\n      jumpi\n      jump(tag_1)\n    tag_18:\n      dup1\n      0x3197cbb6\n      gt\n      tag_20\n      jumpi\n      dup1\n      0x3197cbb6\n      eq\n      tag_6\n      jumpi\n      dup1\n      0x409b509d\n      eq\n      tag_7\n      jumpi\n      dup1\n      0x40c78e98\n      eq\n      tag_8\n      jumpi\n      dup1\n      0x4b436ae6\n      eq\n      tag_9\n      jumpi\n      jump(tag_1)\n    tag_20:\n      dup1\n      0xb2d43b\n      eq\n      tag_2\n      jumpi\n      dup1\n      0x13fc80d3\n      eq\n      tag_3\n      jumpi\n      dup1\n      0x18491f0c\n      eq\n      tag_4\n      jumpi\n      dup1\n      0x24600fc3\n      eq\n      tag_5\n      jumpi\n    tag_1:\n      0x00\n      dup1\n      revert\n        /* \"contracts/GroupOrder.sol\":367:426  uint256 public constant minimumTimeLimit = 25 * (3 * 10**6) */\n    tag_2:\n      callvalue\n      dup1\n      iszero\n      tag_21\n      jumpi\n      0x00\n      dup1\n      revert\n    tag_21:\n      pop\n      tag_22\n      tag_23\n      jump\t// in\n    tag_22:\n      mload(0x40)\n      tag_24\n      swap2\n      swap1\n      tag_25\n      jump\t// in\n    tag_24:\n      mload(0x40)\n      dup1\n      swap2\n      sub\n      swap1\n      return\n        /* \"contracts/GroupOrder.sol\":3159:3573  function acceptOrder() external {... */\n    tag_3:\n      callvalue\n      dup1\n      iszero\n      tag_26\n      jumpi\n      0x00\n      dup1\n      revert\n    tag_26:\n      pop\n      tag_27\n      tag_28\n      jump\t// in\n    tag_27:\n      stop\n        /* \"contracts/GroupOrder.sol\":476:505  bytes32 public groupOrderHash */\n    tag_4:\n      callvalue\n      dup1\n      iszero\n      tag_29\n      jumpi\n      0x00\n      dup1\n      revert\n    tag_29:\n      pop\n      tag_30\n      tag_31\n      jump\t// in\n    tag_30:\n      mload(0x40)\n      tag_32\n      swap2\n      swap1\n      tag_33\n      jump\t// in\n    tag_32:\n      mload(0x40)\n      dup1\n      swap2\n      sub\n      swap1\n      return\n        /* \"contracts/GroupOrder.sol\":4178:4503  function withdrawFunds() external {... */\n    tag_5:\n      callvalue\n      dup1\n      iszero\n      tag_34\n      jumpi\n      0x00\n      dup1\n      revert\n    tag_34:\n      pop\n      tag_35\n      tag_36\n      jump\t// in\n    tag_35:\n      stop\n        /* \"contracts/GroupOrder.sol\":339:361  uint256 public endTime */\n    tag_6:\n      callvalue\n      dup1\n      iszero\n      tag_37\n      jumpi\n      0x00\n      dup1\n      revert\n    tag_37:\n      pop\n      tag_38\n      tag_39\n      jump\t// in\n    tag_38:\n      mload(0x40)\n      tag_40\n      swap2\n      swap1\n      tag_25\n      jump\t// in\n    tag_40:\n      mload(0x40)\n      dup1\n      swap2\n      sub\n      swap1\n      return\n        /* \"contracts/GroupOrder.sol\":2359:2706  function submitOrder() external {... */\n    tag_7:\n      callvalue\n      dup1\n      iszero\n      tag_41\n      jumpi\n      0x00\n      dup1\n      revert\n    tag_41:\n      pop\n      tag_42\n      tag_43\n      jump\t// in\n    tag_42:\n      stop\n        /* \"contracts/GroupOrder.sol\":1407:1769  function timeOutGroupOrder() external {... */\n    tag_8:\n      callvalue\n      dup1\n      iszero\n      tag_44\n      jumpi\n      0x00\n      dup1\n      revert\n    tag_44:\n      pop\n      tag_45\n      tag_46\n      jump\t// in\n    tag_45:\n      stop\n        /* \"contracts/GroupOrder.sol\":739:771  uint256 public votesToReject = 0 */\n    tag_9:\n      callvalue\n      dup1\n      iszero\n      tag_47\n      jumpi\n      0x00\n      dup1\n      revert\n    tag_47:\n      pop\n      tag_48\n      tag_49\n      jump\t// in\n    tag_48:\n      mload(0x40)\n      tag_50\n      swap2\n      swap1\n      tag_25\n      jump\t// in\n    tag_50:\n      mload(0x40)\n      dup1\n      swap2\n      sub\n      swap1\n      return\n        /* \"contracts/GroupOrder.sol\":2787:3098  function rejectOrder() external {... */\n    tag_10:\n      callvalue\n      dup1\n      iszero\n      tag_51\n      jumpi\n      0x00\n      dup1\n      revert\n    tag_51:\n      pop\n      tag_52\n      tag_53\n      jump\t// in\n    tag_52:\n      stop\n        /* \"contracts/GroupOrder.sol\":246:268  Produce public produce */\n    tag_11:\n      callvalue\n      dup1\n      iszero\n      tag_54\n      jumpi\n      0x00\n      dup1\n      revert\n    tag_54:\n      pop\n      tag_55\n      tag_56\n      jump\t// in\n    tag_55:\n      mload(0x40)\n      tag_57\n      swap2\n      swap1\n      tag_58\n      jump\t// in\n    tag_57:\n      mload(0x40)\n      dup1\n      swap2\n      sub\n      swap1\n      return\n        /* \"contracts/GroupOrder.sol\":309:333  uint256 public startTime */\n    tag_12:\n      callvalue\n      dup1\n      iszero\n      tag_59\n      jumpi\n      0x00\n      dup1\n      revert\n    tag_59:\n      pop\n      tag_60\n      tag_61\n      jump\t// in\n    tag_60:\n      mload(0x40)\n      tag_62\n      swap2\n      swap1\n      tag_25\n      jump\t// in\n    tag_62:\n      mload(0x40)\n      dup1\n      swap2\n      sub\n      swap1\n      return\n        /* \"contracts/GroupOrder.sol\":863:881  State public state */\n    tag_13:\n      callvalue\n      dup1\n      iszero\n      tag_63\n      jumpi\n      0x00\n      dup1\n      revert\n    tag_63:\n      pop\n      tag_64\n      tag_65\n      jump\t// in\n    tag_64:\n      mload(0x40)\n      tag_66\n      swap2\n      swap1\n      tag_67\n      jump\t// in\n    tag_66:\n      mload(0x40)\n      dup1\n      swap2\n      sub\n      swap1\n      return\n        /* \"contracts/GroupOrder.sol\":634:670  uint256 public requiredVotesToReject */\n    tag_14:\n      callvalue\n      dup1\n      iszero\n      tag_68\n      jumpi\n      0x00\n      dup1\n      revert\n    tag_68:\n      pop\n      tag_69\n      tag_70\n      jump\t// in\n    tag_69:\n      mload(0x40)\n      tag_71\n      swap2\n      swap1\n      tag_25\n      jump\t// in\n    tag_71:\n      mload(0x40)\n      dup1\n      swap2\n      sub\n      swap1\n      return\n        /* \"contracts/GroupOrder.sol\":3622:4059  function voteToCancel() external {... */\n    tag_15:\n      callvalue\n      dup1\n      iszero\n      tag_72\n      jumpi\n      0x00\n      dup1\n      revert\n    tag_72:\n      pop\n      tag_73\n      tag_74\n      jump\t// in\n    tag_73:\n      stop\n        /* \"contracts/GroupOrder.sol\":274:303  uint256 public portionsAgreed */\n    tag_16:\n      callvalue\n      dup1\n      iszero\n      tag_75\n      jumpi\n      0x00\n      dup1\n      revert\n    tag_75:\n      pop\n      tag_76\n      tag_77\n      jump\t// in\n    tag_76:\n      mload(0x40)\n      tag_78\n      swap2\n      swap1\n      tag_25\n      jump\t// in\n    tag_78:\n      mload(0x40)\n      dup1\n      swap2\n      sub\n      swap1\n      return\n        /* \"contracts/GroupOrder.sol\":1848:2353  function placeOrder()... */\n    tag_17:\n      tag_79\n      tag_80\n      jump\t// in\n    tag_79:\n      stop\n        /* \"contracts/GroupOrder.sol\":367:426  uint256 public constant minimumTimeLimit = 25 * (3 * 10**6) */\n    tag_23:\n        /* \"contracts/GroupOrder.sol\":410:426  25 * (3 * 10**6) */\n      0x047868c0\n        /* \"contracts/GroupOrder.sol\":367:426  uint256 public constant minimumTimeLimit = 25 * (3 * 10**6) */\n      dup2\n      jump\t// out\n        /* \"contracts/GroupOrder.sol\":3159:3573  function acceptOrder() external {... */\n    tag_28:\n        /* \"contracts/GroupOrder.sol\":3218:3231  State.PENDING */\n      0x01\n        /* \"contracts/GroupOrder.sol\":3209:3231  state == State.PENDING */\n      0x03\n      dup2\n      gt\n      iszero\n      tag_82\n      jumpi\n      tag_83\n      tag_84\n      jump\t// in\n    tag_83:\n    tag_82:\n        /* \"contracts/GroupOrder.sol\":3209:3214  state */\n      0x07\n      0x00\n      swap1\n      sload\n      swap1\n      0x0100\n      exp\n      swap1\n      div\n      0xff\n      and\n        /* \"contracts/GroupOrder.sol\":3209:3231  state == State.PENDING */\n      0x03\n      dup2\n      gt\n      iszero\n      tag_85\n      jumpi\n      tag_86\n      tag_84\n      jump\t// in\n    tag_86:\n    tag_85:\n      eq\n        /* \"contracts/GroupOrder.sol\":3201:3232  require(state == State.PENDING) */\n      tag_87\n      jumpi\n      0x00\n      dup1\n      revert\n    tag_87:\n        /* \"contracts/GroupOrder.sol\":3277:3284  produce */\n      0x00\n      dup1\n      sload\n      swap1\n      0x0100\n      exp\n      swap1\n      div\n      0xffffffffffffffffffffffffffffffffffffffff\n      and\n        /* \"contracts/GroupOrder.sol\":3277:3290  produce.owner */\n      0xffffffffffffffffffffffffffffffffffffffff\n      and\n      0x8da5cb5b\n        /* \"contracts/GroupOrder.sol\":3277:3292  produce.owner() */\n      mload(0x40)\n      dup2\n      0xffffffff\n      and\n      0xe0\n      shl\n      dup2\n      mstore\n      0x04\n      add\n      0x20\n      mload(0x40)\n      dup1\n      dup4\n      sub\n      dup2\n      dup7\n      dup1\n      extcodesize\n      iszero\n      dup1\n      iszero\n      tag_88\n      jumpi\n      0x00\n      dup1\n      revert\n    tag_88:\n      pop\n      gas\n      staticcall\n      iszero\n      dup1\n      iszero\n      tag_90\n      jumpi\n      returndatasize\n      0x00\n      dup1\n      returndatacopy\n      revert(0x00, returndatasize)\n    tag_90:\n      pop\n      pop\n      pop\n      pop\n      mload(0x40)\n      returndatasize\n      not(0x1f)\n      0x1f\n      dup3\n      add\n      and\n      dup3\n      add\n      dup1\n      0x40\n      mstore\n      pop\n      dup2\n      add\n      swap1\n      tag_91\n      swap2\n      swap1\n      tag_92\n      jump\t// in\n    tag_91:\n        /* \"contracts/GroupOrder.sol\":3263:3292  msg.sender == produce.owner() */\n      0xffffffffffffffffffffffffffffffffffffffff\n      and\n        /* \"contracts/GroupOrder.sol\":3263:3273  msg.sender */\n      caller\n        /* \"contracts/GroupOrder.sol\":3263:3292  msg.sender == produce.owner() */\n      0xffffffffffffffffffffffffffffffffffffffff\n      and\n      eq\n        /* \"contracts/GroupOrder.sol\":3242:3392  require(... */\n      tag_93\n      jumpi\n      mload(0x40)\n      0x08c379a000000000000000000000000000000000000000000000000000000000\n      dup2\n      mstore\n      0x04\n      add\n      tag_94\n      swap1\n      tag_95\n      jump\t// in\n    tag_94:\n      mload(0x40)\n      dup1\n      swap2\n      sub\n      swap1\n      revert\n    tag_93:\n        /* \"contracts/GroupOrder.sol\":3410:3420  State.SENT */\n      0x03\n        /* \"contracts/GroupOrder.sol\":3402:3407  state */\n      0x07\n      0x00\n        /* \"contracts/GroupOrder.sol\":3402:3420  state = State.SENT */\n      0x0100\n      exp\n      dup2\n      sload\n      dup2\n      0xff\n      mul\n      not\n      and\n      swap1\n      dup4\n      0x03\n      dup2\n      gt\n      iszero\n      tag_96\n      jumpi\n      tag_97\n      tag_84\n      jump\t// in\n    tag_97:\n    tag_96:\n      mul\n      or\n      swap1\n      sstore\n      pop\n        /* \"contracts/GroupOrder.sol\":3430:3437  produce */\n      0x00\n      dup1\n      sload\n      swap1\n      0x0100\n      exp\n      swap1\n      div\n      0xffffffffffffffffffffffffffffffffffffffff\n      and\n        /* \"contracts/GroupOrder.sol\":3430:3449  produce.removeOrder */\n      0xffffffffffffffffffffffffffffffffffffffff\n      and\n      0xeaa61dea\n        /* \"contracts/GroupOrder.sol\":3430:3451  produce.removeOrder() */\n      mload(0x40)\n      dup2\n      0xffffffff\n      and\n      0xe0\n      shl\n      dup2\n      mstore\n      0x04\n      add\n      0x00\n      mload(0x40)\n      dup1\n      dup4\n      sub\n      dup2\n      0x00\n      dup8\n      dup1\n      extcodesize\n      iszero\n      dup1\n      iszero\n      tag_98\n      jumpi\n      0x00\n      dup1\n      revert\n    tag_98:\n      pop\n      gas\n      call\n      iszero\n      dup1\n      iszero\n      tag_100\n      jumpi\n      returndatasize\n      0x00\n      dup1\n      returndatacopy\n      revert(0x00, returndatasize)\n    tag_100:\n      pop\n      pop\n      pop\n      pop\n        /* \"contracts/GroupOrder.sol\":3466:3489  OrderStateUpdate(state) */\n      0x246f97586713cf6803bc7c189486b4345be349cee213b4cae772d5052ab5f059\n        /* \"contracts/GroupOrder.sol\":3483:3488  state */\n      0x07\n      0x00\n      swap1\n      sload\n      swap1\n      0x0100\n      exp\n      swap1\n      div\n      0xff\n      and\n        /* \"contracts/GroupOrder.sol\":3466:3489  OrderStateUpdate(state) */\n      mload(0x40)\n      tag_101\n      swap2\n      swap1\n      tag_67\n      jump\t// in\n    tag_101:\n      mload(0x40)\n      dup1\n      swap2\n      sub\n      swap1\n      log1\n        /* \"contracts/GroupOrder.sol\":3507:3514  produce */\n      0x00\n      dup1\n      sload\n      swap1\n      0x0100\n      exp\n      swap1\n      div\n      0xffffffffffffffffffffffffffffffffffffffff\n      and\n        /* \"contracts/GroupOrder.sol\":3507:3520  produce.owner */\n      0xffffffffffffffffffffffffffffffffffffffff\n      and\n      0x8da5cb5b\n        /* \"contracts/GroupOrder.sol\":3507:3522  produce.owner() */\n      mload(0x40)\n      dup2\n      0xffffffff\n      and\n      0xe0\n      shl\n      dup2\n      mstore\n      0x04\n      add\n      0x20\n      mload(0x40)\n      dup1\n      dup4\n      sub\n      dup2\n      dup7\n      dup1\n      extcodesize\n      iszero\n      dup1\n      iszero\n      tag_102\n      jumpi\n      0x00\n      dup1\n      revert\n    tag_102:\n      pop\n      gas\n      staticcall\n      iszero\n      dup1\n      iszero\n      tag_104\n      jumpi\n      returndatasize\n      0x00\n      dup1\n      returndatacopy\n      revert(0x00, returndatasize)\n    tag_104:\n      pop\n      pop\n      pop\n      pop\n      mload(0x40)\n      returndatasize\n      not(0x1f)\n      0x1f\n      dup3\n      add\n      and\n      dup3\n      add\n      dup1\n      0x40\n      mstore\n      pop\n      dup2\n      add\n      swap1\n      tag_105\n      swap2\n      swap1\n      tag_92\n      jump\t// in\n    tag_105:\n        /* \"contracts/GroupOrder.sol\":3499:3532  payable(produce.owner()).transfer */\n      0xffffffffffffffffffffffffffffffffffffffff\n      and\n        /* \"contracts/GroupOrder.sol\":3499:3566  payable(produce.owner()).transfer(portionsAgreed * produce.price()) */\n      0x08fc\n        /* \"contracts/GroupOrder.sol\":3550:3557  produce */\n      0x00\n      dup1\n      sload\n      swap1\n      0x0100\n      exp\n      swap1\n      div\n      0xffffffffffffffffffffffffffffffffffffffff\n      and\n        /* \"contracts/GroupOrder.sol\":3550:3563  produce.price */\n      0xffffffffffffffffffffffffffffffffffffffff\n      and\n      0xa035b1fe\n        /* \"contracts/GroupOrder.sol\":3550:3565  produce.price() */\n      mload(0x40)\n      dup2\n      0xffffffff\n      and\n      0xe0\n      shl\n      dup2\n      mstore\n      0x04\n      add\n      0x20\n      mload(0x40)\n      dup1\n      dup4\n      sub\n      dup2\n      dup7\n      dup1\n      extcodesize\n      iszero\n      dup1\n      iszero\n      tag_106\n      jumpi\n      0x00\n      dup1\n      revert\n    tag_106:\n      pop\n      gas\n      staticcall\n      iszero\n      dup1\n      iszero\n      tag_108\n      jumpi\n      returndatasize\n      0x00\n      dup1\n      returndatacopy\n      revert(0x00, returndatasize)\n    tag_108:\n      pop\n      pop\n      pop\n      pop\n      mload(0x40)\n      returndatasize\n      not(0x1f)\n      0x1f\n      dup3\n      add\n      and\n      dup3\n      add\n      dup1\n      0x40\n      mstore\n      pop\n      dup2\n      add\n      swap1\n      tag_109\n      swap2\n      swap1\n      tag_110\n      jump\t// in\n    tag_109:\n        /* \"contracts/GroupOrder.sol\":3533:3547  portionsAgreed */\n      sload(0x01)\n        /* \"contracts/GroupOrder.sol\":3533:3565  portionsAgreed * produce.price() */\n      tag_111\n      swap2\n      swap1\n      tag_112\n      jump\t// in\n    tag_111:\n        /* \"contracts/GroupOrder.sol\":3499:3566  payable(produce.owner()).transfer(portionsAgreed * produce.price()) */\n      swap1\n      dup2\n      iszero\n      mul\n      swap1\n      mload(0x40)\n      0x00\n      mload(0x40)\n      dup1\n      dup4\n      sub\n      dup2\n      dup6\n      dup9\n      dup9\n      call\n      swap4\n      pop\n      pop\n      pop\n      pop\n      iszero\n      dup1\n      iszero\n      tag_114\n      jumpi\n      returndatasize\n      0x00\n      dup1\n      returndatacopy\n      revert(0x00, returndatasize)\n    tag_114:\n      pop\n        /* \"contracts/GroupOrder.sol\":3159:3573  function acceptOrder() external {... */\n      jump\t// out\n        /* \"contracts/GroupOrder.sol\":476:505  bytes32 public groupOrderHash */\n    tag_31:\n      sload(0x04)\n      dup2\n      jump\t// out\n        /* \"contracts/GroupOrder.sol\":4178:4503  function withdrawFunds() external {... */\n    tag_36:\n        /* \"contracts/GroupOrder.sol\":4239:4253  State.REJECTED */\n      0x02\n        /* \"contracts/GroupOrder.sol\":4230:4253  state == State.REJECTED */\n      0x03\n      dup2\n      gt\n      iszero\n      tag_116\n      jumpi\n      tag_117\n      tag_84\n      jump\t// in\n    tag_117:\n    tag_116:\n        /* \"contracts/GroupOrder.sol\":4230:4235  state */\n      0x07\n      0x00\n      swap1\n      sload\n      swap1\n      0x0100\n      exp\n      swap1\n      div\n      0xff\n      and\n        /* \"contracts/GroupOrder.sol\":4230:4253  state == State.REJECTED */\n      0x03\n      dup2\n      gt\n      iszero\n      tag_118\n      jumpi\n      tag_119\n      tag_84\n      jump\t// in\n    tag_119:\n    tag_118:\n      eq\n        /* \"contracts/GroupOrder.sol\":4222:4285  require(state == State.REJECTED, \"order has not been rejected\") */\n      tag_120\n      jumpi\n      mload(0x40)\n      0x08c379a000000000000000000000000000000000000000000000000000000000\n      dup2\n      mstore\n      0x04\n      add\n      tag_121\n      swap1\n      tag_122\n      jump\t// in\n    tag_121:\n      mload(0x40)\n      dup1\n      swap2\n      sub\n      swap1\n      revert\n    tag_120:\n        /* \"contracts/GroupOrder.sol\":4316:4322  orders */\n      0x08\n        /* \"contracts/GroupOrder.sol\":4316:4334  orders[msg.sender] */\n      0x00\n        /* \"contracts/GroupOrder.sol\":4323:4333  msg.sender */\n      caller\n        /* \"contracts/GroupOrder.sol\":4316:4334  orders[msg.sender] */\n      0xffffffffffffffffffffffffffffffffffffffff\n      and\n      0xffffffffffffffffffffffffffffffffffffffff\n      and\n      dup2\n      mstore\n      0x20\n      add\n      swap1\n      dup2\n      mstore\n      0x20\n      add\n      0x00\n      keccak256\n      0x00\n      swap1\n      sload\n      swap1\n      0x0100\n      exp\n      swap1\n      div\n      0xff\n      and\n        /* \"contracts/GroupOrder.sol\":4295:4405  require(... */\n      tag_123\n      jumpi\n      mload(0x40)\n      0x08c379a000000000000000000000000000000000000000000000000000000000\n      dup2\n      mstore\n      0x04\n      add\n      tag_124\n      swap1\n      tag_125\n      jump\t// in\n    tag_124:\n      mload(0x40)\n      dup1\n      swap2\n      sub\n      swap1\n      revert\n    tag_123:\n        /* \"contracts/GroupOrder.sol\":4436:4441  false */\n      0x00\n        /* \"contracts/GroupOrder.sol\":4415:4421  orders */\n      0x08\n        /* \"contracts/GroupOrder.sol\":4415:4433  orders[msg.sender] */\n      0x00\n        /* \"contracts/GroupOrder.sol\":4422:4432  msg.sender */\n      caller\n        /* \"contracts/GroupOrder.sol\":4415:4433  orders[msg.sender] */\n      0xffffffffffffffffffffffffffffffffffffffff\n      and\n      0xffffffffffffffffffffffffffffffffffffffff\n      and\n      dup2\n      mstore\n      0x20\n      add\n      swap1\n      dup2\n      mstore\n      0x20\n      add\n      0x00\n      keccak256\n      0x00\n        /* \"contracts/GroupOrder.sol\":4415:4441  orders[msg.sender] = false */\n      0x0100\n      exp\n      dup2\n      sload\n      dup2\n      0xff\n      mul\n      not\n      and\n      swap1\n      dup4\n      iszero\n      iszero\n      mul\n      or\n      swap1\n      sstore\n      pop\n        /* \"contracts/GroupOrder.sol\":4459:4469  msg.sender */\n      caller\n        /* \"contracts/GroupOrder.sol\":4451:4479  payable(msg.sender).transfer */\n      0xffffffffffffffffffffffffffffffffffffffff\n      and\n        /* \"contracts/GroupOrder.sol\":4451:4496  payable(msg.sender).transfer(produce.price()) */\n      0x08fc\n        /* \"contracts/GroupOrder.sol\":4480:4487  produce */\n      0x00\n      dup1\n      sload\n      swap1\n      0x0100\n      exp\n      swap1\n      div\n      0xffffffffffffffffffffffffffffffffffffffff\n      and\n        /* \"contracts/GroupOrder.sol\":4480:4493  produce.price */\n      0xffffffffffffffffffffffffffffffffffffffff\n      and\n      0xa035b1fe\n        /* \"contracts/GroupOrder.sol\":4480:4495  produce.price() */\n      mload(0x40)\n      dup2\n      0xffffffff\n      and\n      0xe0\n      shl\n      dup2\n      mstore\n      0x04\n      add\n      0x20\n      mload(0x40)\n      dup1\n      dup4\n      sub\n      dup2\n      dup7\n      dup1\n      extcodesize\n      iszero\n      dup1\n      iszero\n      tag_126\n      jumpi\n      0x00\n      dup1\n      revert\n    tag_126:\n      pop\n      gas\n      staticcall\n      iszero\n      dup1\n      iszero\n      tag_128\n      jumpi\n      returndatasize\n      0x00\n      dup1\n      returndatacopy\n      revert(0x00, returndatasize)\n    tag_128:\n      pop\n      pop\n      pop\n      pop\n      mload(0x40)\n      returndatasize\n      not(0x1f)\n      0x1f\n      dup3\n      add\n      and\n      dup3\n      add\n      dup1\n      0x40\n      mstore\n      pop\n      dup2\n      add\n      swap1\n      tag_129\n      swap2\n      swap1\n      tag_110\n      jump\t// in\n    tag_129:\n        /* \"contracts/GroupOrder.sol\":4451:4496  payable(msg.sender).transfer(produce.price()) */\n      swap1\n      dup2\n      iszero\n      mul\n      swap1\n      mload(0x40)\n      0x00\n      mload(0x40)\n      dup1\n      dup4\n      sub\n      dup2\n      dup6\n      dup9\n      dup9\n      call\n      swap4\n      pop\n      pop\n      pop\n      pop\n      iszero\n      dup1\n      iszero\n      tag_131\n      jumpi\n      returndatasize\n      0x00\n      dup1\n      returndatacopy\n      revert(0x00, returndatasize)\n    tag_131:\n      pop\n        /* \"contracts/GroupOrder.sol\":4178:4503  function withdrawFunds() external {... */\n      jump\t// out\n        /* \"contracts/GroupOrder.sol\":339:361  uint256 public endTime */\n    tag_39:\n      sload(0x03)\n      dup2\n      jump\t// out\n        /* \"contracts/GroupOrder.sol\":2359:2706  function submitOrder() external {... */\n    tag_43:\n        /* \"contracts/GroupOrder.sol\":2426:2433  produce */\n      0x00\n      dup1\n      sload\n      swap1\n      0x0100\n      exp\n      swap1\n      div\n      0xffffffffffffffffffffffffffffffffffffffff\n      and\n        /* \"contracts/GroupOrder.sol\":2426:2443  produce.orderSize */\n      0xffffffffffffffffffffffffffffffffffffffff\n      and\n      0x6d86b8a5\n        /* \"contracts/GroupOrder.sol\":2426:2445  produce.orderSize() */\n      mload(0x40)\n      dup2\n      0xffffffff\n      and\n      0xe0\n      shl\n      dup2\n      mstore\n      0x04\n      add\n      0x20\n      mload(0x40)\n      dup1\n      dup4\n      sub\n      dup2\n      dup7\n      dup1\n      extcodesize\n      iszero\n      dup1\n      iszero\n      tag_133\n      jumpi\n      0x00\n      dup1\n      revert\n    tag_133:\n      pop\n      gas\n      staticcall\n      iszero\n      dup1\n      iszero\n      tag_135\n      jumpi\n      returndatasize\n      0x00\n      dup1\n      returndatacopy\n      revert(0x00, returndatasize)\n    tag_135:\n      pop\n      pop\n      pop\n      pop\n      mload(0x40)\n      returndatasize\n      not(0x1f)\n      0x1f\n      dup3\n      add\n      and\n      dup3\n      add\n      dup1\n      0x40\n      mstore\n      pop\n      dup2\n      add\n      swap1\n      tag_136\n      swap2\n      swap1\n      tag_110\n      jump\t// in\n    tag_136:\n        /* \"contracts/GroupOrder.sol\":2408:2422  portionsAgreed */\n      sload(0x01)\n        /* \"contracts/GroupOrder.sol\":2408:2445  portionsAgreed == produce.orderSize() */\n      eq\n        /* \"contracts/GroupOrder.sol\":2400:2492  require(portionsAgreed == produce.orderSize(), \"not enough portion orders have been placed\") */\n      tag_137\n      jumpi\n      mload(0x40)\n      0x08c379a000000000000000000000000000000000000000000000000000000000\n      dup2\n      mstore\n      0x04\n      add\n      tag_138\n      swap1\n      tag_139\n      jump\t// in\n    tag_138:\n      mload(0x40)\n      dup1\n      swap2\n      sub\n      swap1\n      revert\n    tag_137:\n        /* \"contracts/GroupOrder.sol\":2506:2513  produce */\n      0x00\n      dup1\n      sload\n      swap1\n      0x0100\n      exp\n      swap1\n      div\n      0xffffffffffffffffffffffffffffffffffffffff\n      and\n        /* \"contracts/GroupOrder.sol\":2506:2524  produce.placeOrder */\n      0xffffffffffffffffffffffffffffffffffffffff\n      and\n      0xf5c609e0\n        /* \"contracts/GroupOrder.sol\":2506:2526  produce.placeOrder() */\n      mload(0x40)\n      dup2\n      0xffffffff\n      and\n      0xe0\n      shl\n      dup2\n      mstore\n      0x04\n      add\n      0x00\n      mload(0x40)\n      dup1\n      dup4\n      sub\n      dup2\n      0x00\n      dup8\n      dup1\n      extcodesize\n      iszero\n      dup1\n      iszero\n      tag_140\n      jumpi\n      0x00\n      dup1\n      revert\n    tag_140:\n      pop\n      gas\n      call\n      swap3\n      pop\n      pop\n      pop\n      dup1\n      iszero\n      tag_141\n      jumpi\n      pop\n      0x01\n    tag_141:\n        /* \"contracts/GroupOrder.sol\":2502:2700  try produce.placeOrder() {... */\n      tag_142\n      jumpi\n      tag_146\n      tag_147\n      jump\t// in\n    tag_146:\n      dup1\n      0x08c379a0\n      eq\n      iszero\n      tag_145\n      jumpi\n      pop\n      tag_148\n      tag_149\n      jump\t// in\n    tag_148:\n      dup1\n      tag_150\n      jumpi\n      pop\n      jump(tag_144)\n    tag_150:\n        /* \"contracts/GroupOrder.sol\":2669:2688  OrderFailed(reason) */\n      0x33222bae2ff20e6fe48a14a7c1ef3eb4cca76359e8e5bf7b877cc3cd76d2ffb3\n        /* \"contracts/GroupOrder.sol\":2681:2687  reason */\n      dup2\n        /* \"contracts/GroupOrder.sol\":2669:2688  OrderFailed(reason) */\n      mload(0x40)\n      tag_151\n      swap2\n      swap1\n      tag_152\n      jump\t// in\n    tag_151:\n      mload(0x40)\n      dup1\n      swap2\n      sub\n      swap1\n      log1\n        /* \"contracts/GroupOrder.sol\":2616:2700  catch Error(string memory reason) {... */\n      pop\n        /* \"contracts/GroupOrder.sol\":2502:2700  try produce.placeOrder() {... */\n      jump(tag_143)\n    tag_145:\n      pop\n    tag_144:\n      returndatasize\n      0x00\n      dup1\n      returndatacopy\n      revert(0x00, returndatasize)\n    tag_143:\n      jump(tag_153)\n    tag_142:\n        /* \"contracts/GroupOrder.sol\":2549:2562  State.PENDING */\n      0x01\n        /* \"contracts/GroupOrder.sol\":2541:2546  state */\n      0x07\n      0x00\n        /* \"contracts/GroupOrder.sol\":2541:2562  state = State.PENDING */\n      0x0100\n      exp\n      dup2\n      sload\n      dup2\n      0xff\n      mul\n      not\n      and\n      swap1\n      dup4\n      0x03\n      dup2\n      gt\n      iszero\n      tag_154\n      jumpi\n      tag_155\n      tag_84\n      jump\t// in\n    tag_155:\n    tag_154:\n      mul\n      or\n      swap1\n      sstore\n      pop\n        /* \"contracts/GroupOrder.sol\":2581:2604  OrderStateUpdate(state) */\n      0x246f97586713cf6803bc7c189486b4345be349cee213b4cae772d5052ab5f059\n        /* \"contracts/GroupOrder.sol\":2598:2603  state */\n      0x07\n      0x00\n      swap1\n      sload\n      swap1\n      0x0100\n      exp\n      swap1\n      div\n      0xff\n      and\n        /* \"contracts/GroupOrder.sol\":2581:2604  OrderStateUpdate(state) */\n      mload(0x40)\n      tag_156\n      swap2\n      swap1\n      tag_67\n      jump\t// in\n    tag_156:\n      mload(0x40)\n      dup1\n      swap2\n      sub\n      swap1\n      log1\n        /* \"contracts/GroupOrder.sol\":2502:2700  try produce.placeOrder() {... */\n    tag_153:\n        /* \"contracts/GroupOrder.sol\":2359:2706  function submitOrder() external {... */\n      jump\t// out\n        /* \"contracts/GroupOrder.sol\":1407:1769  function timeOutGroupOrder() external {... */\n    tag_46:\n        /* \"contracts/GroupOrder.sol\":1485:1495  State.OPEN */\n      0x00\n        /* \"contracts/GroupOrder.sol\":1476:1495  state == State.OPEN */\n      0x03\n      dup2\n      gt\n      iszero\n      tag_158\n      jumpi\n      tag_159\n      tag_84\n      jump\t// in\n    tag_159:\n    tag_158:\n        /* \"contracts/GroupOrder.sol\":1476:1481  state */\n      0x07\n      0x00\n      swap1\n      sload\n      swap1\n      0x0100\n      exp\n      swap1\n      div\n      0xff\n      and\n        /* \"contracts/GroupOrder.sol\":1476:1495  state == State.OPEN */\n      0x03\n      dup2\n      gt\n      iszero\n      tag_160\n      jumpi\n      tag_161\n      tag_84\n      jump\t// in\n    tag_161:\n    tag_160:\n      eq\n        /* \"contracts/GroupOrder.sol\":1455:1573  require(... */\n      tag_162\n      jumpi\n      mload(0x40)\n      0x08c379a000000000000000000000000000000000000000000000000000000000\n      dup2\n      mstore\n      0x04\n      add\n      tag_163\n      swap1\n      tag_164\n      jump\t// in\n    tag_163:\n      mload(0x40)\n      dup1\n      swap2\n      sub\n      swap1\n      revert\n    tag_162:\n        /* \"contracts/GroupOrder.sol\":1622:1629  endTime */\n      sload(0x03)\n        /* \"contracts/GroupOrder.sol\":1604:1619  block.timestamp */\n      timestamp\n        /* \"contracts/GroupOrder.sol\":1604:1629  block.timestamp > endTime */\n      gt\n        /* \"contracts/GroupOrder.sol\":1583:1692  require(... */\n      tag_165\n      jumpi\n      mload(0x40)\n      0x08c379a000000000000000000000000000000000000000000000000000000000\n      dup2\n      mstore\n      0x04\n      add\n      tag_166\n      swap1\n      tag_167\n      jump\t// in\n    tag_166:\n      mload(0x40)\n      dup1\n      swap2\n      sub\n      swap1\n      revert\n    tag_165:\n        /* \"contracts/GroupOrder.sol\":1710:1724  State.REJECTED */\n      0x02\n        /* \"contracts/GroupOrder.sol\":1702:1707  state */\n      0x07\n      0x00\n        /* \"contracts/GroupOrder.sol\":1702:1724  state = State.REJECTED */\n      0x0100\n      exp\n      dup2\n      sload\n      dup2\n      0xff\n      mul\n      not\n      and\n      swap1\n      dup4\n      0x03\n      dup2\n      gt\n      iszero\n      tag_168\n      jumpi\n      tag_169\n      tag_84\n      jump\t// in\n    tag_169:\n    tag_168:\n      mul\n      or\n      swap1\n      sstore\n      pop\n        /* \"contracts/GroupOrder.sol\":1739:1762  OrderStateUpdate(state) */\n      0x246f97586713cf6803bc7c189486b4345be349cee213b4cae772d5052ab5f059\n        /* \"contracts/GroupOrder.sol\":1756:1761  state */\n      0x07\n      0x00\n      swap1\n      sload\n      swap1\n      0x0100\n      exp\n      swap1\n      div\n      0xff\n      and\n        /* \"contracts/GroupOrder.sol\":1739:1762  OrderStateUpdate(state) */\n      mload(0x40)\n      tag_170\n      swap2\n      swap1\n      tag_67\n      jump\t// in\n    tag_170:\n      mload(0x40)\n      dup1\n      swap2\n      sub\n      swap1\n      log1\n        /* \"contracts/GroupOrder.sol\":1407:1769  function timeOutGroupOrder() external {... */\n      jump\t// out\n        /* \"contracts/GroupOrder.sol\":739:771  uint256 public votesToReject = 0 */\n    tag_49:\n      sload(0x06)\n      dup2\n      jump\t// out\n        /* \"contracts/GroupOrder.sol\":2787:3098  function rejectOrder() external {... */\n    tag_53:\n        /* \"contracts/GroupOrder.sol\":2846:2859  State.PENDING */\n      0x01\n        /* \"contracts/GroupOrder.sol\":2837:2859  state == State.PENDING */\n      0x03\n      dup2\n      gt\n      iszero\n      tag_172\n      jumpi\n      tag_173\n      tag_84\n      jump\t// in\n    tag_173:\n    tag_172:\n        /* \"contracts/GroupOrder.sol\":2837:2842  state */\n      0x07\n      0x00\n      swap1\n      sload\n      swap1\n      0x0100\n      exp\n      swap1\n      div\n      0xff\n      and\n        /* \"contracts/GroupOrder.sol\":2837:2859  state == State.PENDING */\n      0x03\n      dup2\n      gt\n      iszero\n      tag_174\n      jumpi\n      tag_175\n      tag_84\n      jump\t// in\n    tag_175:\n    tag_174:\n      eq\n        /* \"contracts/GroupOrder.sol\":2829:2884  require(state == State.PENDING, \"state is not pending\") */\n      tag_176\n      jumpi\n      mload(0x40)\n      0x08c379a000000000000000000000000000000000000000000000000000000000\n      dup2\n      mstore\n      0x04\n      add\n      tag_177\n      swap1\n      tag_178\n      jump\t// in\n    tag_177:\n      mload(0x40)\n      dup1\n      swap2\n      sub\n      swap1\n      revert\n    tag_176:\n        /* \"contracts/GroupOrder.sol\":2929:2936  produce */\n      0x00\n      dup1\n      sload\n      swap1\n      0x0100\n      exp\n      swap1\n      div\n      0xffffffffffffffffffffffffffffffffffffffff\n      and\n        /* \"contracts/GroupOrder.sol\":2929:2942  produce.owner */\n      0xffffffffffffffffffffffffffffffffffffffff\n      and\n      0x8da5cb5b\n        /* \"contracts/GroupOrder.sol\":2929:2944  produce.owner() */\n      mload(0x40)\n      dup2\n      0xffffffff\n      and\n      0xe0\n      shl\n      dup2\n      mstore\n      0x04\n      add\n      0x20\n      mload(0x40)\n      dup1\n      dup4\n      sub\n      dup2\n      dup7\n      dup1\n      extcodesize\n      iszero\n      dup1\n      iszero\n      tag_179\n      jumpi\n      0x00\n      dup1\n      revert\n    tag_179:\n      pop\n      gas\n      staticcall\n      iszero\n      dup1\n      iszero\n      tag_181\n      jumpi\n      returndatasize\n      0x00\n      dup1\n      returndatacopy\n      revert(0x00, returndatasize)\n    tag_181:\n      pop\n      pop\n      pop\n      pop\n      mload(0x40)\n      returndatasize\n      not(0x1f)\n      0x1f\n      dup3\n      add\n      and\n      dup3\n      add\n      dup1\n      0x40\n      mstore\n      pop\n      dup2\n      add\n      swap1\n      tag_182\n      swap2\n      swap1\n      tag_92\n      jump\t// in\n    tag_182:\n        /* \"contracts/GroupOrder.sol\":2915:2944  msg.sender == produce.owner() */\n      0xffffffffffffffffffffffffffffffffffffffff\n      and\n        /* \"contracts/GroupOrder.sol\":2915:2925  msg.sender */\n      caller\n        /* \"contracts/GroupOrder.sol\":2915:2944  msg.sender == produce.owner() */\n      0xffffffffffffffffffffffffffffffffffffffff\n      and\n      eq\n        /* \"contracts/GroupOrder.sol\":2894:3021  require(... */\n      tag_183\n      jumpi\n      mload(0x40)\n      0x08c379a000000000000000000000000000000000000000000000000000000000\n      dup2\n      mstore\n      0x04\n      add\n      tag_184\n      swap1\n      tag_185\n      jump\t// in\n    tag_184:\n      mload(0x40)\n      dup1\n      swap2\n      sub\n      swap1\n      revert\n    tag_183:\n        /* \"contracts/GroupOrder.sol\":3039:3053  State.REJECTED */\n      0x02\n        /* \"contracts/GroupOrder.sol\":3031:3036  state */\n      0x07\n      0x00\n        /* \"contracts/GroupOrder.sol\":3031:3053  state = State.REJECTED */\n      0x0100\n      exp\n      dup2\n      sload\n      dup2\n      0xff\n      mul\n      not\n      and\n      swap1\n      dup4\n      0x03\n      dup2\n      gt\n      iszero\n      tag_186\n      jumpi\n      tag_187\n      tag_84\n      jump\t// in\n    tag_187:\n    tag_186:\n      mul\n      or\n      swap1\n      sstore\n      pop\n        /* \"contracts/GroupOrder.sol\":3068:3091  OrderStateUpdate(state) */\n      0x246f97586713cf6803bc7c189486b4345be349cee213b4cae772d5052ab5f059\n        /* \"contracts/GroupOrder.sol\":3085:3090  state */\n      0x07\n      0x00\n      swap1\n      sload\n      swap1\n      0x0100\n      exp\n      swap1\n      div\n      0xff\n      and\n        /* \"contracts/GroupOrder.sol\":3068:3091  OrderStateUpdate(state) */\n      mload(0x40)\n      tag_188\n      swap2\n      swap1\n      tag_67\n      jump\t// in\n    tag_188:\n      mload(0x40)\n      dup1\n      swap2\n      sub\n      swap1\n      log1\n        /* \"contracts/GroupOrder.sol\":2787:3098  function rejectOrder() external {... */\n      jump\t// out\n        /* \"contracts/GroupOrder.sol\":246:268  Produce public produce */\n    tag_56:\n      0x00\n      dup1\n      sload\n      swap1\n      0x0100\n      exp\n      swap1\n      div\n      0xffffffffffffffffffffffffffffffffffffffff\n      and\n      dup2\n      jump\t// out\n        /* \"contracts/GroupOrder.sol\":309:333  uint256 public startTime */\n    tag_61:\n      sload(0x02)\n      dup2\n      jump\t// out\n        /* \"contracts/GroupOrder.sol\":863:881  State public state */\n    tag_65:\n      0x07\n      0x00\n      swap1\n      sload\n      swap1\n      0x0100\n      exp\n      swap1\n      div\n      0xff\n      and\n      dup2\n      jump\t// out\n        /* \"contracts/GroupOrder.sol\":634:670  uint256 public requiredVotesToReject */\n    tag_70:\n      sload(0x05)\n      dup2\n      jump\t// out\n        /* \"contracts/GroupOrder.sol\":3622:4059  function voteToCancel() external {... */\n    tag_74:\n        /* \"contracts/GroupOrder.sol\":3682:3695  State.PENDING */\n      0x01\n        /* \"contracts/GroupOrder.sol\":3673:3695  state == State.PENDING */\n      0x03\n      dup2\n      gt\n      iszero\n      tag_190\n      jumpi\n      tag_191\n      tag_84\n      jump\t// in\n    tag_191:\n    tag_190:\n        /* \"contracts/GroupOrder.sol\":3673:3678  state */\n      0x07\n      0x00\n      swap1\n      sload\n      swap1\n      0x0100\n      exp\n      swap1\n      div\n      0xff\n      and\n        /* \"contracts/GroupOrder.sol\":3673:3695  state == State.PENDING */\n      0x03\n      dup2\n      gt\n      iszero\n      tag_192\n      jumpi\n      tag_193\n      tag_84\n      jump\t// in\n    tag_193:\n    tag_192:\n      eq\n        /* \"contracts/GroupOrder.sol\":3665:3746  require(state == State.PENDING, \"members can only vote to reject pending orders\") */\n      tag_194\n      jumpi\n      mload(0x40)\n      0x08c379a000000000000000000000000000000000000000000000000000000000\n      dup2\n      mstore\n      0x04\n      add\n      tag_195\n      swap1\n      tag_196\n      jump\t// in\n    tag_195:\n      mload(0x40)\n      dup1\n      swap2\n      sub\n      swap1\n      revert\n    tag_194:\n        /* \"contracts/GroupOrder.sol\":3764:3770  orders */\n      0x08\n        /* \"contracts/GroupOrder.sol\":3764:3782  orders[msg.sender] */\n      0x00\n        /* \"contracts/GroupOrder.sol\":3771:3781  msg.sender */\n      caller\n        /* \"contracts/GroupOrder.sol\":3764:3782  orders[msg.sender] */\n      0xffffffffffffffffffffffffffffffffffffffff\n      and\n      0xffffffffffffffffffffffffffffffffffffffff\n      and\n      dup2\n      mstore\n      0x20\n      add\n      swap1\n      dup2\n      mstore\n      0x20\n      add\n      0x00\n      keccak256\n      0x00\n      swap1\n      sload\n      swap1\n      0x0100\n      exp\n      swap1\n      div\n      0xff\n      and\n        /* \"contracts/GroupOrder.sol\":3756:3848  require(orders[msg.sender], \"only members of this group order may vote to reject the order\") */\n      tag_197\n      jumpi\n      mload(0x40)\n      0x08c379a000000000000000000000000000000000000000000000000000000000\n      dup2\n      mstore\n      0x04\n      add\n      tag_198\n      swap1\n      tag_199\n      jump\t// in\n    tag_198:\n      mload(0x40)\n      dup1\n      swap2\n      sub\n      swap1\n      revert\n    tag_197:\n        /* \"contracts/GroupOrder.sol\":3875:3876  1 */\n      0x01\n        /* \"contracts/GroupOrder.sol\":3858:3871  votesToReject */\n      0x06\n      0x00\n        /* \"contracts/GroupOrder.sol\":3858:3876  votesToReject += 1 */\n      dup3\n      dup3\n      sload\n      tag_200\n      swap2\n      swap1\n      tag_201\n      jump\t// in\n    tag_200:\n      swap3\n      pop\n      pop\n      dup2\n      swap1\n      sstore\n      pop\n        /* \"contracts/GroupOrder.sol\":3906:3927  requiredVotesToReject */\n      sload(0x05)\n        /* \"contracts/GroupOrder.sol\":3890:3903  votesToReject */\n      sload(0x06)\n        /* \"contracts/GroupOrder.sol\":3890:3927  votesToReject > requiredVotesToReject */\n      gt\n        /* \"contracts/GroupOrder.sol\":3886:4053  if (votesToReject > requiredVotesToReject) {... */\n      iszero\n      tag_202\n      jumpi\n        /* \"contracts/GroupOrder.sol\":3951:3965  State.REJECTED */\n      0x02\n        /* \"contracts/GroupOrder.sol\":3943:3948  state */\n      0x07\n      0x00\n        /* \"contracts/GroupOrder.sol\":3943:3965  state = State.REJECTED */\n      0x0100\n      exp\n      dup2\n      sload\n      dup2\n      0xff\n      mul\n      not\n      and\n      swap1\n      dup4\n      0x03\n      dup2\n      gt\n      iszero\n      tag_203\n      jumpi\n      tag_204\n      tag_84\n      jump\t// in\n    tag_204:\n    tag_203:\n      mul\n      or\n      swap1\n      sstore\n      pop\n        /* \"contracts/GroupOrder.sol\":3979:3986  produce */\n      0x00\n      dup1\n      sload\n      swap1\n      0x0100\n      exp\n      swap1\n      div\n      0xffffffffffffffffffffffffffffffffffffffff\n      and\n        /* \"contracts/GroupOrder.sol\":3979:3998  produce.removeOrder */\n      0xffffffffffffffffffffffffffffffffffffffff\n      and\n      0xeaa61dea\n        /* \"contracts/GroupOrder.sol\":3979:4000  produce.removeOrder() */\n      mload(0x40)\n      dup2\n      0xffffffff\n      and\n      0xe0\n      shl\n      dup2\n      mstore\n      0x04\n      add\n      0x00\n      mload(0x40)\n      dup1\n      dup4\n      sub\n      dup2\n      0x00\n      dup8\n      dup1\n      extcodesize\n      iszero\n      dup1\n      iszero\n      tag_205\n      jumpi\n      0x00\n      dup1\n      revert\n    tag_205:\n      pop\n      gas\n      call\n      iszero\n      dup1\n      iszero\n      tag_207\n      jumpi\n      returndatasize\n      0x00\n      dup1\n      returndatacopy\n      revert(0x00, returndatasize)\n    tag_207:\n      pop\n      pop\n      pop\n      pop\n        /* \"contracts/GroupOrder.sol\":4019:4042  OrderStateUpdate(state) */\n      0x246f97586713cf6803bc7c189486b4345be349cee213b4cae772d5052ab5f059\n        /* \"contracts/GroupOrder.sol\":4036:4041  state */\n      0x07\n      0x00\n      swap1\n      sload\n      swap1\n      0x0100\n      exp\n      swap1\n      div\n      0xff\n      and\n        /* \"contracts/GroupOrder.sol\":4019:4042  OrderStateUpdate(state) */\n      mload(0x40)\n      tag_208\n      swap2\n      swap1\n      tag_67\n      jump\t// in\n    tag_208:\n      mload(0x40)\n      dup1\n      swap2\n      sub\n      swap1\n      log1\n        /* \"contracts/GroupOrder.sol\":3886:4053  if (votesToReject > requiredVotesToReject) {... */\n    tag_202:\n        /* \"contracts/GroupOrder.sol\":3622:4059  function voteToCancel() external {... */\n      jump\t// out\n        /* \"contracts/GroupOrder.sol\":274:303  uint256 public portionsAgreed */\n    tag_77:\n      sload(0x01)\n      dup2\n      jump\t// out\n        /* \"contracts/GroupOrder.sol\":1848:2353  function placeOrder()... */\n    tag_80:\n        /* \"contracts/GroupOrder.sol\":1934:1944  State.OPEN */\n      0x00\n        /* \"contracts/GroupOrder.sol\":1925:1944  state == State.OPEN */\n      0x03\n      dup2\n      gt\n      iszero\n      tag_210\n      jumpi\n      tag_211\n      tag_84\n      jump\t// in\n    tag_211:\n    tag_210:\n        /* \"contracts/GroupOrder.sol\":1925:1930  state */\n      0x07\n      0x00\n      swap1\n      sload\n      swap1\n      0x0100\n      exp\n      swap1\n      div\n      0xff\n      and\n        /* \"contracts/GroupOrder.sol\":1925:1944  state == State.OPEN */\n      0x03\n      dup2\n      gt\n      iszero\n      tag_212\n      jumpi\n      tag_213\n      tag_84\n      jump\t// in\n    tag_213:\n    tag_212:\n      eq\n        /* \"contracts/GroupOrder.sol\":1917:1966  require(state == State.OPEN, \"state is not open\") */\n      tag_214\n      jumpi\n      mload(0x40)\n      0x08c379a000000000000000000000000000000000000000000000000000000000\n      dup2\n      mstore\n      0x04\n      add\n      tag_215\n      swap1\n      tag_216\n      jump\t// in\n    tag_215:\n      mload(0x40)\n      dup1\n      swap2\n      sub\n      swap1\n      revert\n    tag_214:\n        /* \"contracts/GroupOrder.sol\":2011:2025  portionsAgreed */\n      sload(0x01)\n        /* \"contracts/GroupOrder.sol\":2006:2007  1 */\n      0x01\n        /* \"contracts/GroupOrder.sol\":1984:1991  produce */\n      0x00\n      dup1\n      sload\n      swap1\n      0x0100\n      exp\n      swap1\n      div\n      0xffffffffffffffffffffffffffffffffffffffff\n      and\n        /* \"contracts/GroupOrder.sol\":1984:2001  produce.orderSize */\n      0xffffffffffffffffffffffffffffffffffffffff\n      and\n      0x6d86b8a5\n        /* \"contracts/GroupOrder.sol\":1984:2003  produce.orderSize() */\n      mload(0x40)\n      dup2\n      0xffffffff\n      and\n      0xe0\n      shl\n      dup2\n      mstore\n      0x04\n      add\n      0x20\n      mload(0x40)\n      dup1\n      dup4\n      sub\n      dup2\n      dup7\n      dup1\n      extcodesize\n      iszero\n      dup1\n      iszero\n      tag_217\n      jumpi\n      0x00\n      dup1\n      revert\n    tag_217:\n      pop\n      gas\n      staticcall\n      iszero\n      dup1\n      iszero\n      tag_219\n      jumpi\n      returndatasize\n      0x00\n      dup1\n      returndatacopy\n      revert(0x00, returndatasize)\n    tag_219:\n      pop\n      pop\n      pop\n      pop\n      mload(0x40)\n      returndatasize\n      not(0x1f)\n      0x1f\n      dup3\n      add\n      and\n      dup3\n      add\n      dup1\n      0x40\n      mstore\n      pop\n      dup2\n      add\n      swap1\n      tag_220\n      swap2\n      swap1\n      tag_110\n      jump\t// in\n    tag_220:\n        /* \"contracts/GroupOrder.sol\":1984:2007  produce.orderSize() - 1 */\n      tag_221\n      swap2\n      swap1\n      tag_222\n      jump\t// in\n    tag_221:\n        /* \"contracts/GroupOrder.sol\":1984:2025  produce.orderSize() - 1 >= portionsAgreed */\n      lt\n      iszero\n        /* \"contracts/GroupOrder.sol\":1976:2058  require(produce.orderSize() - 1 >= portionsAgreed, \"wrong number portions agreed\") */\n      tag_223\n      jumpi\n      mload(0x40)\n      0x08c379a000000000000000000000000000000000000000000000000000000000\n      dup2\n      mstore\n      0x04\n      add\n      tag_224\n      swap1\n      tag_225\n      jump\t// in\n    tag_224:\n      mload(0x40)\n      dup1\n      swap2\n      sub\n      swap1\n      revert\n    tag_223:\n        /* \"contracts/GroupOrder.sol\":2095:2104  msg.value */\n      callvalue\n        /* \"contracts/GroupOrder.sol\":2076:2083  produce */\n      0x00\n      dup1\n      sload\n      swap1\n      0x0100\n      exp\n      swap1\n      div\n      0xffffffffffffffffffffffffffffffffffffffff\n      and\n        /* \"contracts/GroupOrder.sol\":2076:2089  produce.price */\n      0xffffffffffffffffffffffffffffffffffffffff\n      and\n      0xa035b1fe\n        /* \"contracts/GroupOrder.sol\":2076:2091  produce.price() */\n      mload(0x40)\n      dup2\n      0xffffffff\n      and\n      0xe0\n      shl\n      dup2\n      mstore\n      0x04\n      add\n      0x20\n      mload(0x40)\n      dup1\n      dup4\n      sub\n      dup2\n      dup7\n      dup1\n      extcodesize\n      iszero\n      dup1\n      iszero\n      tag_226\n      jumpi\n      0x00\n      dup1\n      revert\n    tag_226:\n      pop\n      gas\n      staticcall\n      iszero\n      dup1\n      iszero\n      tag_228\n      jumpi\n      returndatasize\n      0x00\n      dup1\n      returndatacopy\n      revert(0x00, returndatasize)\n    tag_228:\n      pop\n      pop\n      pop\n      pop\n      mload(0x40)\n      returndatasize\n      not(0x1f)\n      0x1f\n      dup3\n      add\n      and\n      dup3\n      add\n      dup1\n      0x40\n      mstore\n      pop\n      dup2\n      add\n      swap1\n      tag_229\n      swap2\n      swap1\n      tag_110\n      jump\t// in\n    tag_229:\n        /* \"contracts/GroupOrder.sol\":2076:2104  produce.price() <= msg.value */\n      gt\n      iszero\n        /* \"contracts/GroupOrder.sol\":2068:2128  require(produce.price() <= msg.value, \"not enough wei sent\") */\n      tag_230\n      jumpi\n      mload(0x40)\n      0x08c379a000000000000000000000000000000000000000000000000000000000\n      dup2\n      mstore\n      0x04\n      add\n      tag_231\n      swap1\n      tag_232\n      jump\t// in\n    tag_231:\n      mload(0x40)\n      dup1\n      swap2\n      sub\n      swap1\n      revert\n    tag_230:\n        /* \"contracts/GroupOrder.sol\":2160:2167  endTime */\n      sload(0x03)\n        /* \"contracts/GroupOrder.sol\":2142:2157  block.timestamp */\n      timestamp\n        /* \"contracts/GroupOrder.sol\":2142:2167  block.timestamp > endTime */\n      gt\n        /* \"contracts/GroupOrder.sol\":2138:2347  if (block.timestamp > endTime) {... */\n      iszero\n      tag_233\n      jumpi\n        /* \"contracts/GroupOrder.sol\":2191:2205  State.REJECTED */\n      0x02\n        /* \"contracts/GroupOrder.sol\":2183:2188  state */\n      0x07\n      0x00\n        /* \"contracts/GroupOrder.sol\":2183:2205  state = State.REJECTED */\n      0x0100\n      exp\n      dup2\n      sload\n      dup2\n      0xff\n      mul\n      not\n      and\n      swap1\n      dup4\n      0x03\n      dup2\n      gt\n      iszero\n      tag_234\n      jumpi\n      tag_235\n      tag_84\n      jump\t// in\n    tag_235:\n    tag_234:\n      mul\n      or\n      swap1\n      sstore\n      pop\n        /* \"contracts/GroupOrder.sol\":2224:2247  OrderStateUpdate(state) */\n      0x246f97586713cf6803bc7c189486b4345be349cee213b4cae772d5052ab5f059\n        /* \"contracts/GroupOrder.sol\":2241:2246  state */\n      0x07\n      0x00\n      swap1\n      sload\n      swap1\n      0x0100\n      exp\n      swap1\n      div\n      0xff\n      and\n        /* \"contracts/GroupOrder.sol\":2224:2247  OrderStateUpdate(state) */\n      mload(0x40)\n      tag_236\n      swap2\n      swap1\n      tag_67\n      jump\t// in\n    tag_236:\n      mload(0x40)\n      dup1\n      swap2\n      sub\n      swap1\n      log1\n        /* \"contracts/GroupOrder.sol\":2138:2347  if (block.timestamp > endTime) {... */\n      jump(tag_237)\n    tag_233:\n        /* \"contracts/GroupOrder.sol\":2299:2303  true */\n      0x01\n        /* \"contracts/GroupOrder.sol\":2278:2284  orders */\n      0x08\n        /* \"contracts/GroupOrder.sol\":2278:2296  orders[msg.sender] */\n      0x00\n        /* \"contracts/GroupOrder.sol\":2285:2295  msg.sender */\n      caller\n        /* \"contracts/GroupOrder.sol\":2278:2296  orders[msg.sender] */\n      0xffffffffffffffffffffffffffffffffffffffff\n      and\n      0xffffffffffffffffffffffffffffffffffffffff\n      and\n      dup2\n      mstore\n      0x20\n      add\n      swap1\n      dup2\n      mstore\n      0x20\n      add\n      0x00\n      keccak256\n      0x00\n        /* \"contracts/GroupOrder.sol\":2278:2303  orders[msg.sender] = true */\n      0x0100\n      exp\n      dup2\n      sload\n      dup2\n      0xff\n      mul\n      not\n      and\n      swap1\n      dup4\n      iszero\n      iszero\n      mul\n      or\n      swap1\n      sstore\n      pop\n        /* \"contracts/GroupOrder.sol\":2335:2336  1 */\n      0x01\n        /* \"contracts/GroupOrder.sol\":2317:2331  portionsAgreed */\n      dup1\n      0x00\n        /* \"contracts/GroupOrder.sol\":2317:2336  portionsAgreed += 1 */\n      dup3\n      dup3\n      sload\n      tag_238\n      swap2\n      swap1\n      tag_201\n      jump\t// in\n    tag_238:\n      swap3\n      pop\n      pop\n      dup2\n      swap1\n      sstore\n      pop\n        /* \"contracts/GroupOrder.sol\":2138:2347  if (block.timestamp > endTime) {... */\n    tag_237:\n        /* \"contracts/GroupOrder.sol\":1848:2353  function placeOrder()... */\n      jump\t// out\n        /* \"#utility.yul\":7:150   */\n    tag_240:\n        /* \"#utility.yul\":64:69   */\n      0x00\n        /* \"#utility.yul\":95:101   */\n      dup2\n        /* \"#utility.yul\":89:102   */\n      mload\n        /* \"#utility.yul\":80:102   */\n      swap1\n      pop\n        /* \"#utility.yul\":111:144   */\n      tag_242\n        /* \"#utility.yul\":138:143   */\n      dup2\n        /* \"#utility.yul\":111:144   */\n      tag_243\n      jump\t// in\n    tag_242:\n        /* \"#utility.yul\":7:150   */\n      swap3\n      swap2\n      pop\n      pop\n      jump\t// out\n        /* \"#utility.yul\":156:299   */\n    tag_244:\n        /* \"#utility.yul\":213:218   */\n      0x00\n        /* \"#utility.yul\":244:250   */\n      dup2\n        /* \"#utility.yul\":238:251   */\n      mload\n        /* \"#utility.yul\":229:251   */\n      swap1\n      pop\n        /* \"#utility.yul\":260:293   */\n      tag_246\n        /* \"#utility.yul\":287:292   */\n      dup2\n        /* \"#utility.yul\":260:293   */\n      tag_247\n      jump\t// in\n    tag_246:\n        /* \"#utility.yul\":156:299   */\n      swap3\n      swap2\n      pop\n      pop\n      jump\t// out\n        /* \"#utility.yul\":305:656   */\n    tag_92:\n        /* \"#utility.yul\":375:381   */\n      0x00\n        /* \"#utility.yul\":424:426   */\n      0x20\n        /* \"#utility.yul\":412:421   */\n      dup3\n        /* \"#utility.yul\":403:410   */\n      dup5\n        /* \"#utility.yul\":399:422   */\n      sub\n        /* \"#utility.yul\":395:427   */\n      slt\n        /* \"#utility.yul\":392:511   */\n      iszero\n      tag_249\n      jumpi\n        /* \"#utility.yul\":430:509   */\n      tag_250\n      tag_251\n      jump\t// in\n    tag_250:\n        /* \"#utility.yul\":392:511   */\n    tag_249:\n        /* \"#utility.yul\":550:551   */\n      0x00\n        /* \"#utility.yul\":575:639   */\n      tag_252\n        /* \"#utility.yul\":631:638   */\n      dup5\n        /* \"#utility.yul\":622:628   */\n      dup3\n        /* \"#utility.yul\":611:620   */\n      dup6\n        /* \"#utility.yul\":607:629   */\n      add\n        /* \"#utility.yul\":575:639   */\n      tag_240\n      jump\t// in\n    tag_252:\n        /* \"#utility.yul\":565:639   */\n      swap2\n      pop\n        /* \"#utility.yul\":521:649   */\n      pop\n        /* \"#utility.yul\":305:656   */\n      swap3\n      swap2\n      pop\n      pop\n      jump\t// out\n        /* \"#utility.yul\":662:1013   */\n    tag_110:\n        /* \"#utility.yul\":732:738   */\n      0x00\n        /* \"#utility.yul\":781:783   */\n      0x20\n        /* \"#utility.yul\":769:778   */\n      dup3\n        /* \"#utility.yul\":760:767   */\n      dup5\n        /* \"#utility.yul\":756:779   */\n      sub\n        /* \"#utility.yul\":752:784   */\n      slt\n        /* \"#utility.yul\":749:868   */\n      iszero\n      tag_254\n      jumpi\n        /* \"#utility.yul\":787:866   */\n      tag_255\n      tag_251\n      jump\t// in\n    tag_255:\n        /* \"#utility.yul\":749:868   */\n    tag_254:\n        /* \"#utility.yul\":907:908   */\n      0x00\n        /* \"#utility.yul\":932:996   */\n      tag_256\n        /* \"#utility.yul\":988:995   */\n      dup5\n        /* \"#utility.yul\":979:985   */\n      dup3\n        /* \"#utility.yul\":968:977   */\n      dup6\n        /* \"#utility.yul\":964:986   */\n      add\n        /* \"#utility.yul\":932:996   */\n      tag_244\n      jump\t// in\n    tag_256:\n        /* \"#utility.yul\":922:996   */\n      swap2\n      pop\n        /* \"#utility.yul\":878:1006   */\n      pop\n        /* \"#utility.yul\":662:1013   */\n      swap3\n      swap2\n      pop\n      pop\n      jump\t// out\n        /* \"#utility.yul\":1019:1137   */\n    tag_257:\n        /* \"#utility.yul\":1106:1130   */\n      tag_259\n        /* \"#utility.yul\":1124:1129   */\n      dup2\n        /* \"#utility.yul\":1106:1130   */\n      tag_260\n      jump\t// in\n    tag_259:\n        /* \"#utility.yul\":1101:1104   */\n      dup3\n        /* \"#utility.yul\":1094:1131   */\n      mstore\n        /* \"#utility.yul\":1019:1137   */\n      pop\n      pop\n      jump\t// out\n        /* \"#utility.yul\":1143:1304   */\n    tag_261:\n        /* \"#utility.yul\":1245:1297   */\n      tag_263\n        /* \"#utility.yul\":1291:1296   */\n      dup2\n        /* \"#utility.yul\":1245:1297   */\n      tag_264\n      jump\t// in\n    tag_263:\n        /* \"#utility.yul\":1240:1243   */\n      dup3\n        /* \"#utility.yul\":1233:1298   */\n      mstore\n        /* \"#utility.yul\":1143:1304   */\n      pop\n      pop\n      jump\t// out\n        /* \"#utility.yul\":1310:1455   */\n    tag_265:\n        /* \"#utility.yul\":1404:1448   */\n      tag_267\n        /* \"#utility.yul\":1442:1447   */\n      dup2\n        /* \"#utility.yul\":1404:1448   */\n      tag_268\n      jump\t// in\n    tag_267:\n        /* \"#utility.yul\":1399:1402   */\n      dup3\n        /* \"#utility.yul\":1392:1449   */\n      mstore\n        /* \"#utility.yul\":1310:1455   */\n      pop\n      pop\n      jump\t// out\n        /* \"#utility.yul\":1461:1825   */\n    tag_269:\n        /* \"#utility.yul\":1549:1552   */\n      0x00\n        /* \"#utility.yul\":1577:1616   */\n      tag_271\n        /* \"#utility.yul\":1610:1615   */\n      dup3\n        /* \"#utility.yul\":1577:1616   */\n      tag_272\n      jump\t// in\n    tag_271:\n        /* \"#utility.yul\":1632:1703   */\n      tag_273\n        /* \"#utility.yul\":1696:1702   */\n      dup2\n        /* \"#utility.yul\":1691:1694   */\n      dup6\n        /* \"#utility.yul\":1632:1703   */\n      tag_274\n      jump\t// in\n    tag_273:\n        /* \"#utility.yul\":1625:1703   */\n      swap4\n      pop\n        /* \"#utility.yul\":1712:1764   */\n      tag_275\n        /* \"#utility.yul\":1757:1763   */\n      dup2\n        /* \"#utility.yul\":1752:1755   */\n      dup6\n        /* \"#utility.yul\":1745:1749   */\n      0x20\n        /* \"#utility.yul\":1738:1743   */\n      dup7\n        /* \"#utility.yul\":1734:1750   */\n      add\n        /* \"#utility.yul\":1712:1764   */\n      tag_276\n      jump\t// in\n    tag_275:\n        /* \"#utility.yul\":1789:1818   */\n      tag_277\n        /* \"#utility.yul\":1811:1817   */\n      dup2\n        /* \"#utility.yul\":1789:1818   */\n      tag_278\n      jump\t// in\n    tag_277:\n        /* \"#utility.yul\":1784:1787   */\n      dup5\n        /* \"#utility.yul\":1780:1819   */\n      add\n        /* \"#utility.yul\":1773:1819   */\n      swap2\n      pop\n        /* \"#utility.yul\":1553:1825   */\n      pop\n        /* \"#utility.yul\":1461:1825   */\n      swap3\n      swap2\n      pop\n      pop\n      jump\t// out\n        /* \"#utility.yul\":1831:2197   */\n    tag_279:\n        /* \"#utility.yul\":1973:1976   */\n      0x00\n        /* \"#utility.yul\":1994:2061   */\n      tag_281\n        /* \"#utility.yul\":2058:2060   */\n      0x33\n        /* \"#utility.yul\":2053:2056   */\n      dup4\n        /* \"#utility.yul\":1994:2061   */\n      tag_274\n      jump\t// in\n    tag_281:\n        /* \"#utility.yul\":1987:2061   */\n      swap2\n      pop\n        /* \"#utility.yul\":2070:2163   */\n      tag_282\n        /* \"#utility.yul\":2159:2162   */\n      dup3\n        /* \"#utility.yul\":2070:2163   */\n      tag_283\n      jump\t// in\n    tag_282:\n        /* \"#utility.yul\":2188:2190   */\n      0x40\n        /* \"#utility.yul\":2183:2186   */\n      dup3\n        /* \"#utility.yul\":2179:2191   */\n      add\n        /* \"#utility.yul\":2172:2191   */\n      swap1\n      pop\n        /* \"#utility.yul\":1831:2197   */\n      swap2\n      swap1\n      pop\n      jump\t// out\n        /* \"#utility.yul\":2203:2569   */\n    tag_284:\n        /* \"#utility.yul\":2345:2348   */\n      0x00\n        /* \"#utility.yul\":2366:2433   */\n      tag_286\n        /* \"#utility.yul\":2430:2432   */\n      0x1b\n        /* \"#utility.yul\":2425:2428   */\n      dup4\n        /* \"#utility.yul\":2366:2433   */\n      tag_274\n      jump\t// in\n    tag_286:\n        /* \"#utility.yul\":2359:2433   */\n      swap2\n      pop\n        /* \"#utility.yul\":2442:2535   */\n      tag_287\n        /* \"#utility.yul\":2531:2534   */\n      dup3\n        /* \"#utility.yul\":2442:2535   */\n      tag_288\n      jump\t// in\n    tag_287:\n        /* \"#utility.yul\":2560:2562   */\n      0x20\n        /* \"#utility.yul\":2555:2558   */\n      dup3\n        /* \"#utility.yul\":2551:2563   */\n      add\n        /* \"#utility.yul\":2544:2563   */\n      swap1\n      pop\n        /* \"#utility.yul\":2203:2569   */\n      swap2\n      swap1\n      pop\n      jump\t// out\n        /* \"#utility.yul\":2575:2941   */\n    tag_289:\n        /* \"#utility.yul\":2717:2720   */\n      0x00\n        /* \"#utility.yul\":2738:2805   */\n      tag_291\n        /* \"#utility.yul\":2802:2804   */\n      0x2d\n        /* \"#utility.yul\":2797:2800   */\n      dup4\n        /* \"#utility.yul\":2738:2805   */\n      tag_274\n      jump\t// in\n    tag_291:\n        /* \"#utility.yul\":2731:2805   */\n      swap2\n      pop\n        /* \"#utility.yul\":2814:2907   */\n      tag_292\n        /* \"#utility.yul\":2903:2906   */\n      dup3\n        /* \"#utility.yul\":2814:2907   */\n      tag_293\n      jump\t// in\n    tag_292:\n        /* \"#utility.yul\":2932:2934   */\n      0x40\n        /* \"#utility.yul\":2927:2930   */\n      dup3\n        /* \"#utility.yul\":2923:2935   */\n      add\n        /* \"#utility.yul\":2916:2935   */\n      swap1\n      pop\n        /* \"#utility.yul\":2575:2941   */\n      swap2\n      swap1\n      pop\n      jump\t// out\n        /* \"#utility.yul\":2947:3313   */\n    tag_294:\n        /* \"#utility.yul\":3089:3092   */\n      0x00\n        /* \"#utility.yul\":3110:3177   */\n      tag_296\n        /* \"#utility.yul\":3174:3176   */\n      0x3d\n        /* \"#utility.yul\":3169:3172   */\n      dup4\n        /* \"#utility.yul\":3110:3177   */\n      tag_274\n      jump\t// in\n    tag_296:\n        /* \"#utility.yul\":3103:3177   */\n      swap2\n      pop\n        /* \"#utility.yul\":3186:3279   */\n      tag_297\n        /* \"#utility.yul\":3275:3278   */\n      dup3\n        /* \"#utility.yul\":3186:3279   */\n      tag_298\n      jump\t// in\n    tag_297:\n        /* \"#utility.yul\":3304:3306   */\n      0x40\n        /* \"#utility.yul\":3299:3302   */\n      dup3\n        /* \"#utility.yul\":3295:3307   */\n      add\n        /* \"#utility.yul\":3288:3307   */\n      swap1\n      pop\n        /* \"#utility.yul\":2947:3313   */\n      swap2\n      swap1\n      pop\n      jump\t// out\n        /* \"#utility.yul\":3319:3685   */\n    tag_299:\n        /* \"#utility.yul\":3461:3464   */\n      0x00\n        /* \"#utility.yul\":3482:3549   */\n      tag_301\n        /* \"#utility.yul\":3546:3548   */\n      0x25\n        /* \"#utility.yul\":3541:3544   */\n      dup4\n        /* \"#utility.yul\":3482:3549   */\n      tag_274\n      jump\t// in\n    tag_301:\n        /* \"#utility.yul\":3475:3549   */\n      swap2\n      pop\n        /* \"#utility.yul\":3558:3651   */\n      tag_302\n        /* \"#utility.yul\":3647:3650   */\n      dup3\n        /* \"#utility.yul\":3558:3651   */\n      tag_303\n      jump\t// in\n    tag_302:\n        /* \"#utility.yul\":3676:3678   */\n      0x40\n        /* \"#utility.yul\":3671:3674   */\n      dup3\n        /* \"#utility.yul\":3667:3679   */\n      add\n        /* \"#utility.yul\":3660:3679   */\n      swap1\n      pop\n        /* \"#utility.yul\":3319:3685   */\n      swap2\n      swap1\n      pop\n      jump\t// out\n        /* \"#utility.yul\":3691:4057   */\n    tag_304:\n        /* \"#utility.yul\":3833:3836   */\n      0x00\n        /* \"#utility.yul\":3854:3921   */\n      tag_306\n        /* \"#utility.yul\":3918:3920   */\n      0x13\n        /* \"#utility.yul\":3913:3916   */\n      dup4\n        /* \"#utility.yul\":3854:3921   */\n      tag_274\n      jump\t// in\n    tag_306:\n        /* \"#utility.yul\":3847:3921   */\n      swap2\n      pop\n        /* \"#utility.yul\":3930:4023   */\n      tag_307\n        /* \"#utility.yul\":4019:4022   */\n      dup3\n        /* \"#utility.yul\":3930:4023   */\n      tag_308\n      jump\t// in\n    tag_307:\n        /* \"#utility.yul\":4048:4050   */\n      0x20\n        /* \"#utility.yul\":4043:4046   */\n      dup3\n        /* \"#utility.yul\":4039:4051   */\n      add\n        /* \"#utility.yul\":4032:4051   */\n      swap1\n      pop\n        /* \"#utility.yul\":3691:4057   */\n      swap2\n      swap1\n      pop\n      jump\t// out\n        /* \"#utility.yul\":4063:4429   */\n    tag_309:\n        /* \"#utility.yul\":4205:4208   */\n      0x00\n        /* \"#utility.yul\":4226:4293   */\n      tag_311\n        /* \"#utility.yul\":4290:4292   */\n      0x2a\n        /* \"#utility.yul\":4285:4288   */\n      dup4\n        /* \"#utility.yul\":4226:4293   */\n      tag_274\n      jump\t// in\n    tag_311:\n        /* \"#utility.yul\":4219:4293   */\n      swap2\n      pop\n        /* \"#utility.yul\":4302:4395   */\n      tag_312\n        /* \"#utility.yul\":4391:4394   */\n      dup3\n        /* \"#utility.yul\":4302:4395   */\n      tag_313\n      jump\t// in\n    tag_312:\n        /* \"#utility.yul\":4420:4422   */\n      0x40\n        /* \"#utility.yul\":4415:4418   */\n      dup3\n        /* \"#utility.yul\":4411:4423   */\n      add\n        /* \"#utility.yul\":4404:4423   */\n      swap1\n      pop\n        /* \"#utility.yul\":4063:4429   */\n      swap2\n      swap1\n      pop\n      jump\t// out\n        /* \"#utility.yul\":4435:4801   */\n    tag_314:\n        /* \"#utility.yul\":4577:4580   */\n      0x00\n        /* \"#utility.yul\":4598:4665   */\n      tag_316\n        /* \"#utility.yul\":4662:4664   */\n      0x14\n        /* \"#utility.yul\":4657:4660   */\n      dup4\n        /* \"#utility.yul\":4598:4665   */\n      tag_274\n      jump\t// in\n    tag_316:\n        /* \"#utility.yul\":4591:4665   */\n      swap2\n      pop\n        /* \"#utility.yul\":4674:4767   */\n      tag_317\n        /* \"#utility.yul\":4763:4766   */\n      dup3\n        /* \"#utility.yul\":4674:4767   */\n      tag_318\n      jump\t// in\n    tag_317:\n        /* \"#utility.yul\":4792:4794   */\n      0x20\n        /* \"#utility.yul\":4787:4790   */\n      dup3\n        /* \"#utility.yul\":4783:4795   */\n      add\n        /* \"#utility.yul\":4776:4795   */\n      swap1\n      pop\n        /* \"#utility.yul\":4435:4801   */\n      swap2\n      swap1\n      pop\n      jump\t// out\n        /* \"#utility.yul\":4807:5173   */\n    tag_319:\n        /* \"#utility.yul\":4949:4952   */\n      0x00\n        /* \"#utility.yul\":4970:5037   */\n      tag_321\n        /* \"#utility.yul\":5034:5036   */\n      0x1c\n        /* \"#utility.yul\":5029:5032   */\n      dup4\n        /* \"#utility.yul\":4970:5037   */\n      tag_274\n      jump\t// in\n    tag_321:\n        /* \"#utility.yul\":4963:5037   */\n      swap2\n      pop\n        /* \"#utility.yul\":5046:5139   */\n      tag_322\n        /* \"#utility.yul\":5135:5138   */\n      dup3\n        /* \"#utility.yul\":5046:5139   */\n      tag_323\n      jump\t// in\n    tag_322:\n        /* \"#utility.yul\":5164:5166   */\n      0x20\n        /* \"#utility.yul\":5159:5162   */\n      dup3\n        /* \"#utility.yul\":5155:5167   */\n      add\n        /* \"#utility.yul\":5148:5167   */\n      swap1\n      pop\n        /* \"#utility.yul\":4807:5173   */\n      swap2\n      swap1\n      pop\n      jump\t// out\n        /* \"#utility.yul\":5179:5545   */\n    tag_324:\n        /* \"#utility.yul\":5321:5324   */\n      0x00\n        /* \"#utility.yul\":5342:5409   */\n      tag_326\n        /* \"#utility.yul\":5406:5408   */\n      0x2e\n        /* \"#utility.yul\":5401:5404   */\n      dup4\n        /* \"#utility.yul\":5342:5409   */\n      tag_274\n      jump\t// in\n    tag_326:\n        /* \"#utility.yul\":5335:5409   */\n      swap2\n      pop\n        /* \"#utility.yul\":5418:5511   */\n      tag_327\n        /* \"#utility.yul\":5507:5510   */\n      dup3\n        /* \"#utility.yul\":5418:5511   */\n      tag_328\n      jump\t// in\n    tag_327:\n        /* \"#utility.yul\":5536:5538   */\n      0x40\n        /* \"#utility.yul\":5531:5534   */\n      dup3\n        /* \"#utility.yul\":5527:5539   */\n      add\n        /* \"#utility.yul\":5520:5539   */\n      swap1\n      pop\n        /* \"#utility.yul\":5179:5545   */\n      swap2\n      swap1\n      pop\n      jump\t// out\n        /* \"#utility.yul\":5551:5917   */\n    tag_329:\n        /* \"#utility.yul\":5693:5696   */\n      0x00\n        /* \"#utility.yul\":5714:5781   */\n      tag_331\n        /* \"#utility.yul\":5778:5780   */\n      0x34\n        /* \"#utility.yul\":5773:5776   */\n      dup4\n        /* \"#utility.yul\":5714:5781   */\n      tag_274\n      jump\t// in\n    tag_331:\n        /* \"#utility.yul\":5707:5781   */\n      swap2\n      pop\n        /* \"#utility.yul\":5790:5883   */\n      tag_332\n        /* \"#utility.yul\":5879:5882   */\n      dup3\n        /* \"#utility.yul\":5790:5883   */\n      tag_333\n      jump\t// in\n    tag_332:\n        /* \"#utility.yul\":5908:5910   */\n      0x40\n        /* \"#utility.yul\":5903:5906   */\n      dup3\n        /* \"#utility.yul\":5899:5911   */\n      add\n        /* \"#utility.yul\":5892:5911   */\n      swap1\n      pop\n        /* \"#utility.yul\":5551:5917   */\n      swap2\n      swap1\n      pop\n      jump\t// out\n        /* \"#utility.yul\":5923:6289   */\n    tag_334:\n        /* \"#utility.yul\":6065:6068   */\n      0x00\n        /* \"#utility.yul\":6086:6153   */\n      tag_336\n        /* \"#utility.yul\":6150:6152   */\n      0x4a\n        /* \"#utility.yul\":6145:6148   */\n      dup4\n        /* \"#utility.yul\":6086:6153   */\n      tag_274\n      jump\t// in\n    tag_336:\n        /* \"#utility.yul\":6079:6153   */\n      swap2\n      pop\n        /* \"#utility.yul\":6162:6255   */\n      tag_337\n        /* \"#utility.yul\":6251:6254   */\n      dup3\n        /* \"#utility.yul\":6162:6255   */\n      tag_338\n      jump\t// in\n    tag_337:\n        /* \"#utility.yul\":6280:6282   */\n      0x60\n        /* \"#utility.yul\":6275:6278   */\n      dup3\n        /* \"#utility.yul\":6271:6283   */\n      add\n        /* \"#utility.yul\":6264:6283   */\n      swap1\n      pop\n        /* \"#utility.yul\":5923:6289   */\n      swap2\n      swap1\n      pop\n      jump\t// out\n        /* \"#utility.yul\":6295:6661   */\n    tag_339:\n        /* \"#utility.yul\":6437:6440   */\n      0x00\n        /* \"#utility.yul\":6458:6525   */\n      tag_341\n        /* \"#utility.yul\":6522:6524   */\n      0x11\n        /* \"#utility.yul\":6517:6520   */\n      dup4\n        /* \"#utility.yul\":6458:6525   */\n      tag_274\n      jump\t// in\n    tag_341:\n        /* \"#utility.yul\":6451:6525   */\n      swap2\n      pop\n        /* \"#utility.yul\":6534:6627   */\n      tag_342\n        /* \"#utility.yul\":6623:6626   */\n      dup3\n        /* \"#utility.yul\":6534:6627   */\n      tag_343\n      jump\t// in\n    tag_342:\n        /* \"#utility.yul\":6652:6654   */\n      0x20\n        /* \"#utility.yul\":6647:6650   */\n      dup3\n        /* \"#utility.yul\":6643:6655   */\n      add\n        /* \"#utility.yul\":6636:6655   */\n      swap1\n      pop\n        /* \"#utility.yul\":6295:6661   */\n      swap2\n      swap1\n      pop\n      jump\t// out\n        /* \"#utility.yul\":6667:6785   */\n    tag_344:\n        /* \"#utility.yul\":6754:6778   */\n      tag_346\n        /* \"#utility.yul\":6772:6777   */\n      dup2\n        /* \"#utility.yul\":6754:6778   */\n      tag_347\n      jump\t// in\n    tag_346:\n        /* \"#utility.yul\":6749:6752   */\n      dup3\n        /* \"#utility.yul\":6742:6779   */\n      mstore\n        /* \"#utility.yul\":6667:6785   */\n      pop\n      pop\n      jump\t// out\n        /* \"#utility.yul\":6791:7013   */\n    tag_33:\n        /* \"#utility.yul\":6884:6888   */\n      0x00\n        /* \"#utility.yul\":6922:6924   */\n      0x20\n        /* \"#utility.yul\":6911:6920   */\n      dup3\n        /* \"#utility.yul\":6907:6925   */\n      add\n        /* \"#utility.yul\":6899:6925   */\n      swap1\n      pop\n        /* \"#utility.yul\":6935:7006   */\n      tag_349\n        /* \"#utility.yul\":7003:7004   */\n      0x00\n        /* \"#utility.yul\":6992:7001   */\n      dup4\n        /* \"#utility.yul\":6988:7005   */\n      add\n        /* \"#utility.yul\":6979:6985   */\n      dup5\n        /* \"#utility.yul\":6935:7006   */\n      tag_257\n      jump\t// in\n    tag_349:\n        /* \"#utility.yul\":6791:7013   */\n      swap3\n      swap2\n      pop\n      pop\n      jump\t// out\n        /* \"#utility.yul\":7019:7271   */\n    tag_58:\n        /* \"#utility.yul\":7127:7131   */\n      0x00\n        /* \"#utility.yul\":7165:7167   */\n      0x20\n        /* \"#utility.yul\":7154:7163   */\n      dup3\n        /* \"#utility.yul\":7150:7168   */\n      add\n        /* \"#utility.yul\":7142:7168   */\n      swap1\n      pop\n        /* \"#utility.yul\":7178:7264   */\n      tag_351\n        /* \"#utility.yul\":7261:7262   */\n      0x00\n        /* \"#utility.yul\":7250:7259   */\n      dup4\n        /* \"#utility.yul\":7246:7263   */\n      add\n        /* \"#utility.yul\":7237:7243   */\n      dup5\n        /* \"#utility.yul\":7178:7264   */\n      tag_261\n      jump\t// in\n    tag_351:\n        /* \"#utility.yul\":7019:7271   */\n      swap3\n      swap2\n      pop\n      pop\n      jump\t// out\n        /* \"#utility.yul\":7277:7513   */\n    tag_67:\n        /* \"#utility.yul\":7377:7381   */\n      0x00\n        /* \"#utility.yul\":7415:7417   */\n      0x20\n        /* \"#utility.yul\":7404:7413   */\n      dup3\n        /* \"#utility.yul\":7400:7418   */\n      add\n        /* \"#utility.yul\":7392:7418   */\n      swap1\n      pop\n        /* \"#utility.yul\":7428:7506   */\n      tag_353\n        /* \"#utility.yul\":7503:7504   */\n      0x00\n        /* \"#utility.yul\":7492:7501   */\n      dup4\n        /* \"#utility.yul\":7488:7505   */\n      add\n        /* \"#utility.yul\":7479:7485   */\n      dup5\n        /* \"#utility.yul\":7428:7506   */\n      tag_265\n      jump\t// in\n    tag_353:\n        /* \"#utility.yul\":7277:7513   */\n      swap3\n      swap2\n      pop\n      pop\n      jump\t// out\n        /* \"#utility.yul\":7519:7832   */\n    tag_152:\n        /* \"#utility.yul\":7632:7636   */\n      0x00\n        /* \"#utility.yul\":7670:7672   */\n      0x20\n        /* \"#utility.yul\":7659:7668   */\n      dup3\n        /* \"#utility.yul\":7655:7673   */\n      add\n        /* \"#utility.yul\":7647:7673   */\n      swap1\n      pop\n        /* \"#utility.yul\":7719:7728   */\n      dup2\n        /* \"#utility.yul\":7713:7717   */\n      dup2\n        /* \"#utility.yul\":7709:7729   */\n      sub\n        /* \"#utility.yul\":7705:7706   */\n      0x00\n        /* \"#utility.yul\":7694:7703   */\n      dup4\n        /* \"#utility.yul\":7690:7707   */\n      add\n        /* \"#utility.yul\":7683:7730   */\n      mstore\n        /* \"#utility.yul\":7747:7825   */\n      tag_355\n        /* \"#utility.yul\":7820:7824   */\n      dup2\n        /* \"#utility.yul\":7811:7817   */\n      dup5\n        /* \"#utility.yul\":7747:7825   */\n      tag_269\n      jump\t// in\n    tag_355:\n        /* \"#utility.yul\":7739:7825   */\n      swap1\n      pop\n        /* \"#utility.yul\":7519:7832   */\n      swap3\n      swap2\n      pop\n      pop\n      jump\t// out\n        /* \"#utility.yul\":7838:8257   */\n    tag_185:\n        /* \"#utility.yul\":8004:8008   */\n      0x00\n        /* \"#utility.yul\":8042:8044   */\n      0x20\n        /* \"#utility.yul\":8031:8040   */\n      dup3\n        /* \"#utility.yul\":8027:8045   */\n      add\n        /* \"#utility.yul\":8019:8045   */\n      swap1\n      pop\n        /* \"#utility.yul\":8091:8100   */\n      dup2\n        /* \"#utility.yul\":8085:8089   */\n      dup2\n        /* \"#utility.yul\":8081:8101   */\n      sub\n        /* \"#utility.yul\":8077:8078   */\n      0x00\n        /* \"#utility.yul\":8066:8075   */\n      dup4\n        /* \"#utility.yul\":8062:8079   */\n      add\n        /* \"#utility.yul\":8055:8102   */\n      mstore\n        /* \"#utility.yul\":8119:8250   */\n      tag_357\n        /* \"#utility.yul\":8245:8249   */\n      dup2\n        /* \"#utility.yul\":8119:8250   */\n      tag_279\n      jump\t// in\n    tag_357:\n        /* \"#utility.yul\":8111:8250   */\n      swap1\n      pop\n        /* \"#utility.yul\":7838:8257   */\n      swap2\n      swap1\n      pop\n      jump\t// out\n        /* \"#utility.yul\":8263:8682   */\n    tag_122:\n        /* \"#utility.yul\":8429:8433   */\n      0x00\n        /* \"#utility.yul\":8467:8469   */\n      0x20\n        /* \"#utility.yul\":8456:8465   */\n      dup3\n        /* \"#utility.yul\":8452:8470   */\n      add\n        /* \"#utility.yul\":8444:8470   */\n      swap1\n      pop\n        /* \"#utility.yul\":8516:8525   */\n      dup2\n        /* \"#utility.yul\":8510:8514   */\n      dup2\n        /* \"#utility.yul\":8506:8526   */\n      sub\n        /* \"#utility.yul\":8502:8503   */\n      0x00\n        /* \"#utility.yul\":8491:8500   */\n      dup4\n        /* \"#utility.yul\":8487:8504   */\n      add\n        /* \"#utility.yul\":8480:8527   */\n      mstore\n        /* \"#utility.yul\":8544:8675   */\n      tag_359\n        /* \"#utility.yul\":8670:8674   */\n      dup2\n        /* \"#utility.yul\":8544:8675   */\n      tag_284\n      jump\t// in\n    tag_359:\n        /* \"#utility.yul\":8536:8675   */\n      swap1\n      pop\n        /* \"#utility.yul\":8263:8682   */\n      swap2\n      swap1\n      pop\n      jump\t// out\n        /* \"#utility.yul\":8688:9107   */\n    tag_125:\n        /* \"#utility.yul\":8854:8858   */\n      0x00\n        /* \"#utility.yul\":8892:8894   */\n      0x20\n        /* \"#utility.yul\":8881:8890   */\n      dup3\n        /* \"#utility.yul\":8877:8895   */\n      add\n        /* \"#utility.yul\":8869:8895   */\n      swap1\n      pop\n        /* \"#utility.yul\":8941:8950   */\n      dup2\n        /* \"#utility.yul\":8935:8939   */\n      dup2\n        /* \"#utility.yul\":8931:8951   */\n      sub\n        /* \"#utility.yul\":8927:8928   */\n      0x00\n        /* \"#utility.yul\":8916:8925   */\n      dup4\n        /* \"#utility.yul\":8912:8929   */\n      add\n        /* \"#utility.yul\":8905:8952   */\n      mstore\n        /* \"#utility.yul\":8969:9100   */\n      tag_361\n        /* \"#utility.yul\":9095:9099   */\n      dup2\n        /* \"#utility.yul\":8969:9100   */\n      tag_289\n      jump\t// in\n    tag_361:\n        /* \"#utility.yul\":8961:9100   */\n      swap1\n      pop\n        /* \"#utility.yul\":8688:9107   */\n      swap2\n      swap1\n      pop\n      jump\t// out\n        /* \"#utility.yul\":9113:9532   */\n    tag_199:\n        /* \"#utility.yul\":9279:9283   */\n      0x00\n        /* \"#utility.yul\":9317:9319   */\n      0x20\n        /* \"#utility.yul\":9306:9315   */\n      dup3\n        /* \"#utility.yul\":9302:9320   */\n      add\n        /* \"#utility.yul\":9294:9320   */\n      swap1\n      pop\n        /* \"#utility.yul\":9366:9375   */\n      dup2\n        /* \"#utility.yul\":9360:9364   */\n      dup2\n        /* \"#utility.yul\":9356:9376   */\n      sub\n        /* \"#utility.yul\":9352:9353   */\n      0x00\n        /* \"#utility.yul\":9341:9350   */\n      dup4\n        /* \"#utility.yul\":9337:9354   */\n      add\n        /* \"#utility.yul\":9330:9377   */\n      mstore\n        /* \"#utility.yul\":9394:9525   */\n      tag_363\n        /* \"#utility.yul\":9520:9524   */\n      dup2\n        /* \"#utility.yul\":9394:9525   */\n      tag_294\n      jump\t// in\n    tag_363:\n        /* \"#utility.yul\":9386:9525   */\n      swap1\n      pop\n        /* \"#utility.yul\":9113:9532   */\n      swap2\n      swap1\n      pop\n      jump\t// out\n        /* \"#utility.yul\":9538:9957   */\n    tag_167:\n        /* \"#utility.yul\":9704:9708   */\n      0x00\n        /* \"#utility.yul\":9742:9744   */\n      0x20\n        /* \"#utility.yul\":9731:9740   */\n      dup3\n        /* \"#utility.yul\":9727:9745   */\n      add\n        /* \"#utility.yul\":9719:9745   */\n      swap1\n      pop\n        /* \"#utility.yul\":9791:9800   */\n      dup2\n        /* \"#utility.yul\":9785:9789   */\n      dup2\n        /* \"#utility.yul\":9781:9801   */\n      sub\n        /* \"#utility.yul\":9777:9778   */\n      0x00\n        /* \"#utility.yul\":9766:9775   */\n      dup4\n        /* \"#utility.yul\":9762:9779   */\n      add\n        /* \"#utility.yul\":9755:9802   */\n      mstore\n        /* \"#utility.yul\":9819:9950   */\n      tag_365\n        /* \"#utility.yul\":9945:9949   */\n      dup2\n        /* \"#utility.yul\":9819:9950   */\n      tag_299\n      jump\t// in\n    tag_365:\n        /* \"#utility.yul\":9811:9950   */\n      swap1\n      pop\n        /* \"#utility.yul\":9538:9957   */\n      swap2\n      swap1\n      pop\n      jump\t// out\n        /* \"#utility.yul\":9963:10382   */\n    tag_232:\n        /* \"#utility.yul\":10129:10133   */\n      0x00\n        /* \"#utility.yul\":10167:10169   */\n      0x20\n        /* \"#utility.yul\":10156:10165   */\n      dup3\n        /* \"#utility.yul\":10152:10170   */\n      add\n        /* \"#utility.yul\":10144:10170   */\n      swap1\n      pop\n        /* \"#utility.yul\":10216:10225   */\n      dup2\n        /* \"#utility.yul\":10210:10214   */\n      dup2\n        /* \"#utility.yul\":10206:10226   */\n      sub\n        /* \"#utility.yul\":10202:10203   */\n      0x00\n        /* \"#utility.yul\":10191:10200   */\n      dup4\n        /* \"#utility.yul\":10187:10204   */\n      add\n        /* \"#utility.yul\":10180:10227   */\n      mstore\n        /* \"#utility.yul\":10244:10375   */\n      tag_367\n        /* \"#utility.yul\":10370:10374   */\n      dup2\n        /* \"#utility.yul\":10244:10375   */\n      tag_304\n      jump\t// in\n    tag_367:\n        /* \"#utility.yul\":10236:10375   */\n      swap1\n      pop\n        /* \"#utility.yul\":9963:10382   */\n      swap2\n      swap1\n      pop\n      jump\t// out\n        /* \"#utility.yul\":10388:10807   */\n    tag_139:\n        /* \"#utility.yul\":10554:10558   */\n      0x00\n        /* \"#utility.yul\":10592:10594   */\n      0x20\n        /* \"#utility.yul\":10581:10590   */\n      dup3\n        /* \"#utility.yul\":10577:10595   */\n      add\n        /* \"#utility.yul\":10569:10595   */\n      swap1\n      pop\n        /* \"#utility.yul\":10641:10650   */\n      dup2\n        /* \"#utility.yul\":10635:10639   */\n      dup2\n        /* \"#utility.yul\":10631:10651   */\n      sub\n        /* \"#utility.yul\":10627:10628   */\n      0x00\n        /* \"#utility.yul\":10616:10625   */\n      dup4\n        /* \"#utility.yul\":10612:10629   */\n      add\n        /* \"#utility.yul\":10605:10652   */\n      mstore\n        /* \"#utility.yul\":10669:10800   */\n      tag_369\n        /* \"#utility.yul\":10795:10799   */\n      dup2\n        /* \"#utility.yul\":10669:10800   */\n      tag_309\n      jump\t// in\n    tag_369:\n        /* \"#utility.yul\":10661:10800   */\n      swap1\n      pop\n        /* \"#utility.yul\":10388:10807   */\n      swap2\n      swap1\n      pop\n      jump\t// out\n        /* \"#utility.yul\":10813:11232   */\n    tag_178:\n        /* \"#utility.yul\":10979:10983   */\n      0x00\n        /* \"#utility.yul\":11017:11019   */\n      0x20\n        /* \"#utility.yul\":11006:11015   */\n      dup3\n        /* \"#utility.yul\":11002:11020   */\n      add\n        /* \"#utility.yul\":10994:11020   */\n      swap1\n      pop\n        /* \"#utility.yul\":11066:11075   */\n      dup2\n        /* \"#utility.yul\":11060:11064   */\n      dup2\n        /* \"#utility.yul\":11056:11076   */\n      sub\n        /* \"#utility.yul\":11052:11053   */\n      0x00\n        /* \"#utility.yul\":11041:11050   */\n      dup4\n        /* \"#utility.yul\":11037:11054   */\n      add\n        /* \"#utility.yul\":11030:11077   */\n      mstore\n        /* \"#utility.yul\":11094:11225   */\n      tag_371\n        /* \"#utility.yul\":11220:11224   */\n      dup2\n        /* \"#utility.yul\":11094:11225   */\n      tag_314\n      jump\t// in\n    tag_371:\n        /* \"#utility.yul\":11086:11225   */\n      swap1\n      pop\n        /* \"#utility.yul\":10813:11232   */\n      swap2\n      swap1\n      pop\n      jump\t// out\n        /* \"#utility.yul\":11238:11657   */\n    tag_225:\n        /* \"#utility.yul\":11404:11408   */\n      0x00\n        /* \"#utility.yul\":11442:11444   */\n      0x20\n        /* \"#utility.yul\":11431:11440   */\n      dup3\n        /* \"#utility.yul\":11427:11445   */\n      add\n        /* \"#utility.yul\":11419:11445   */\n      swap1\n      pop\n        /* \"#utility.yul\":11491:11500   */\n      dup2\n        /* \"#utility.yul\":11485:11489   */\n      dup2\n        /* \"#utility.yul\":11481:11501   */\n      sub\n        /* \"#utility.yul\":11477:11478   */\n      0x00\n        /* \"#utility.yul\":11466:11475   */\n      dup4\n        /* \"#utility.yul\":11462:11479   */\n      add\n        /* \"#utility.yul\":11455:11502   */\n      mstore\n        /* \"#utility.yul\":11519:11650   */\n      tag_373\n        /* \"#utility.yul\":11645:11649   */\n      dup2\n        /* \"#utility.yul\":11519:11650   */\n      tag_319\n      jump\t// in\n    tag_373:\n        /* \"#utility.yul\":11511:11650   */\n      swap1\n      pop\n        /* \"#utility.yul\":11238:11657   */\n      swap2\n      swap1\n      pop\n      jump\t// out\n        /* \"#utility.yul\":11663:12082   */\n    tag_196:\n        /* \"#utility.yul\":11829:11833   */\n      0x00\n        /* \"#utility.yul\":11867:11869   */\n      0x20\n        /* \"#utility.yul\":11856:11865   */\n      dup3\n        /* \"#utility.yul\":11852:11870   */\n      add\n        /* \"#utility.yul\":11844:11870   */\n      swap1\n      pop\n        /* \"#utility.yul\":11916:11925   */\n      dup2\n        /* \"#utility.yul\":11910:11914   */\n      dup2\n        /* \"#utility.yul\":11906:11926   */\n      sub\n        /* \"#utility.yul\":11902:11903   */\n      0x00\n        /* \"#utility.yul\":11891:11900   */\n      dup4\n        /* \"#utility.yul\":11887:11904   */\n      add\n        /* \"#utility.yul\":11880:11927   */\n      mstore\n        /* \"#utility.yul\":11944:12075   */\n      tag_375\n        /* \"#utility.yul\":12070:12074   */\n      dup2\n        /* \"#utility.yul\":11944:12075   */\n      tag_324\n      jump\t// in\n    tag_375:\n        /* \"#utility.yul\":11936:12075   */\n      swap1\n      pop\n        /* \"#utility.yul\":11663:12082   */\n      swap2\n      swap1\n      pop\n      jump\t// out\n        /* \"#utility.yul\":12088:12507   */\n    tag_164:\n        /* \"#utility.yul\":12254:12258   */\n      0x00\n        /* \"#utility.yul\":12292:12294   */\n      0x20\n        /* \"#utility.yul\":12281:12290   */\n      dup3\n        /* \"#utility.yul\":12277:12295   */\n      add\n        /* \"#utility.yul\":12269:12295   */\n      swap1\n      pop\n        /* \"#utility.yul\":12341:12350   */\n      dup2\n        /* \"#utility.yul\":12335:12339   */\n      dup2\n        /* \"#utility.yul\":12331:12351   */\n      sub\n        /* \"#utility.yul\":12327:12328   */\n      0x00\n        /* \"#utility.yul\":12316:12325   */\n      dup4\n        /* \"#utility.yul\":12312:12329   */\n      add\n        /* \"#utility.yul\":12305:12352   */\n      mstore\n        /* \"#utility.yul\":12369:12500   */\n      tag_377\n        /* \"#utility.yul\":12495:12499   */\n      dup2\n        /* \"#utility.yul\":12369:12500   */\n      tag_329\n      jump\t// in\n    tag_377:\n        /* \"#utility.yul\":12361:12500   */\n      swap1\n      pop\n        /* \"#utility.yul\":12088:12507   */\n      swap2\n      swap1\n      pop\n      jump\t// out\n        /* \"#utility.yul\":12513:12932   */\n    tag_95:\n        /* \"#utility.yul\":12679:12683   */\n      0x00\n        /* \"#utility.yul\":12717:12719   */\n      0x20\n        /* \"#utility.yul\":12706:12715   */\n      dup3\n        /* \"#utility.yul\":12702:12720   */\n      add\n        /* \"#utility.yul\":12694:12720   */\n      swap1\n      pop\n        /* \"#utility.yul\":12766:12775   */\n      dup2\n        /* \"#utility.yul\":12760:12764   */\n      dup2\n        /* \"#utility.yul\":12756:12776   */\n      sub\n        /* \"#utility.yul\":12752:12753   */\n      0x00\n        /* \"#utility.yul\":12741:12750   */\n      dup4\n        /* \"#utility.yul\":12737:12754   */\n      add\n        /* \"#utility.yul\":12730:12777   */\n      mstore\n        /* \"#utility.yul\":12794:12925   */\n      tag_379\n        /* \"#utility.yul\":12920:12924   */\n      dup2\n        /* \"#utility.yul\":12794:12925   */\n      tag_334\n      jump\t// in\n    tag_379:\n        /* \"#utility.yul\":12786:12925   */\n      swap1\n      pop\n        /* \"#utility.yul\":12513:12932   */\n      swap2\n      swap1\n      pop\n      jump\t// out\n        /* \"#utility.yul\":12938:13357   */\n    tag_216:\n        /* \"#utility.yul\":13104:13108   */\n      0x00\n        /* \"#utility.yul\":13142:13144   */\n      0x20\n        /* \"#utility.yul\":13131:13140   */\n      dup3\n        /* \"#utility.yul\":13127:13145   */\n      add\n        /* \"#utility.yul\":13119:13145   */\n      swap1\n      pop\n        /* \"#utility.yul\":13191:13200   */\n      dup2\n        /* \"#utility.yul\":13185:13189   */\n      dup2\n        /* \"#utility.yul\":13181:13201   */\n      sub\n        /* \"#utility.yul\":13177:13178   */\n      0x00\n        /* \"#utility.yul\":13166:13175   */\n      dup4\n        /* \"#utility.yul\":13162:13179   */\n      add\n        /* \"#utility.yul\":13155:13202   */\n      mstore\n        /* \"#utility.yul\":13219:13350   */\n      tag_381\n        /* \"#utility.yul\":13345:13349   */\n      dup2\n        /* \"#utility.yul\":13219:13350   */\n      tag_339\n      jump\t// in\n    tag_381:\n        /* \"#utility.yul\":13211:13350   */\n      swap1\n      pop\n        /* \"#utility.yul\":12938:13357   */\n      swap2\n      swap1\n      pop\n      jump\t// out\n        /* \"#utility.yul\":13363:13585   */\n    tag_25:\n        /* \"#utility.yul\":13456:13460   */\n      0x00\n        /* \"#utility.yul\":13494:13496   */\n      0x20\n        /* \"#utility.yul\":13483:13492   */\n      dup3\n        /* \"#utility.yul\":13479:13497   */\n      add\n        /* \"#utility.yul\":13471:13497   */\n      swap1\n      pop\n        /* \"#utility.yul\":13507:13578   */\n      tag_383\n        /* \"#utility.yul\":13575:13576   */\n      0x00\n        /* \"#utility.yul\":13564:13573   */\n      dup4\n        /* \"#utility.yul\":13560:13577   */\n      add\n        /* \"#utility.yul\":13551:13557   */\n      dup5\n        /* \"#utility.yul\":13507:13578   */\n      tag_344\n      jump\t// in\n    tag_383:\n        /* \"#utility.yul\":13363:13585   */\n      swap3\n      swap2\n      pop\n      pop\n      jump\t// out\n        /* \"#utility.yul\":13591:13666   */\n    tag_384:\n        /* \"#utility.yul\":13624:13630   */\n      0x00\n        /* \"#utility.yul\":13657:13659   */\n      0x40\n        /* \"#utility.yul\":13651:13660   */\n      mload\n        /* \"#utility.yul\":13641:13660   */\n      swap1\n      pop\n        /* \"#utility.yul\":13591:13666   */\n      swap1\n      jump\t// out\n        /* \"#utility.yul\":13672:13771   */\n    tag_272:\n        /* \"#utility.yul\":13724:13730   */\n      0x00\n        /* \"#utility.yul\":13758:13763   */\n      dup2\n        /* \"#utility.yul\":13752:13764   */\n      mload\n        /* \"#utility.yul\":13742:13764   */\n      swap1\n      pop\n        /* \"#utility.yul\":13672:13771   */\n      swap2\n      swap1\n      pop\n      jump\t// out\n        /* \"#utility.yul\":13777:13946   */\n    tag_274:\n        /* \"#utility.yul\":13861:13872   */\n      0x00\n        /* \"#utility.yul\":13895:13901   */\n      dup3\n        /* \"#utility.yul\":13890:13893   */\n      dup3\n        /* \"#utility.yul\":13883:13902   */\n      mstore\n        /* \"#utility.yul\":13935:13939   */\n      0x20\n        /* \"#utility.yul\":13930:13933   */\n      dup3\n        /* \"#utility.yul\":13926:13940   */\n      add\n        /* \"#utility.yul\":13911:13940   */\n      swap1\n      pop\n        /* \"#utility.yul\":13777:13946   */\n      swap3\n      swap2\n      pop\n      pop\n      jump\t// out\n        /* \"#utility.yul\":13952:14257   */\n    tag_201:\n        /* \"#utility.yul\":13992:13995   */\n      0x00\n        /* \"#utility.yul\":14011:14031   */\n      tag_389\n        /* \"#utility.yul\":14029:14030   */\n      dup3\n        /* \"#utility.yul\":14011:14031   */\n      tag_347\n      jump\t// in\n    tag_389:\n        /* \"#utility.yul\":14006:14031   */\n      swap2\n      pop\n        /* \"#utility.yul\":14045:14065   */\n      tag_390\n        /* \"#utility.yul\":14063:14064   */\n      dup4\n        /* \"#utility.yul\":14045:14065   */\n      tag_347\n      jump\t// in\n    tag_390:\n        /* \"#utility.yul\":14040:14065   */\n      swap3\n      pop\n        /* \"#utility.yul\":14199:14200   */\n      dup3\n        /* \"#utility.yul\":14131:14197   */\n      0xffffffffffffffffffffffffffffffffffffffffffffffffffffffffffffffff\n        /* \"#utility.yul\":14127:14201   */\n      sub\n        /* \"#utility.yul\":14124:14125   */\n      dup3\n        /* \"#utility.yul\":14121:14202   */\n      gt\n        /* \"#utility.yul\":14118:14225   */\n      iszero\n      tag_391\n      jumpi\n        /* \"#utility.yul\":14205:14223   */\n      tag_392\n      tag_393\n      jump\t// in\n    tag_392:\n        /* \"#utility.yul\":14118:14225   */\n    tag_391:\n        /* \"#utility.yul\":14249:14250   */\n      dup3\n        /* \"#utility.yul\":14246:14247   */\n      dup3\n        /* \"#utility.yul\":14242:14251   */\n      add\n        /* \"#utility.yul\":14235:14251   */\n      swap1\n      pop\n        /* \"#utility.yul\":13952:14257   */\n      swap3\n      swap2\n      pop\n      pop\n      jump\t// out\n        /* \"#utility.yul\":14263:14611   */\n    tag_112:\n        /* \"#utility.yul\":14303:14310   */\n      0x00\n        /* \"#utility.yul\":14326:14346   */\n      tag_395\n        /* \"#utility.yul\":14344:14345   */\n      dup3\n        /* \"#utility.yul\":14326:14346   */\n      tag_347\n      jump\t// in\n    tag_395:\n        /* \"#utility.yul\":14321:14346   */\n      swap2\n      pop\n        /* \"#utility.yul\":14360:14380   */\n      tag_396\n        /* \"#utility.yul\":14378:14379   */\n      dup4\n        /* \"#utility.yul\":14360:14380   */\n      tag_347\n      jump\t// in\n    tag_396:\n        /* \"#utility.yul\":14355:14380   */\n      swap3\n      pop\n        /* \"#utility.yul\":14548:14549   */\n      dup2\n        /* \"#utility.yul\":14480:14546   */\n      0xffffffffffffffffffffffffffffffffffffffffffffffffffffffffffffffff\n        /* \"#utility.yul\":14476:14550   */\n      div\n        /* \"#utility.yul\":14473:14474   */\n      dup4\n        /* \"#utility.yul\":14470:14551   */\n      gt\n        /* \"#utility.yul\":14465:14466   */\n      dup3\n        /* \"#utility.yul\":14458:14467   */\n      iszero\n        /* \"#utility.yul\":14451:14468   */\n      iszero\n        /* \"#utility.yul\":14447:14552   */\n      and\n        /* \"#utility.yul\":14444:14575   */\n      iszero\n      tag_397\n      jumpi\n        /* \"#utility.yul\":14555:14573   */\n      tag_398\n      tag_393\n      jump\t// in\n    tag_398:\n        /* \"#utility.yul\":14444:14575   */\n    tag_397:\n        /* \"#utility.yul\":14603:14604   */\n      dup3\n        /* \"#utility.yul\":14600:14601   */\n      dup3\n        /* \"#utility.yul\":14596:14605   */\n      mul\n        /* \"#utility.yul\":14585:14605   */\n      swap1\n      pop\n        /* \"#utility.yul\":14263:14611   */\n      swap3\n      swap2\n      pop\n      pop\n      jump\t// out\n        /* \"#utility.yul\":14617:14808   */\n    tag_222:\n        /* \"#utility.yul\":14657:14661   */\n      0x00\n        /* \"#utility.yul\":14677:14697   */\n      tag_400\n        /* \"#utility.yul\":14695:14696   */\n      dup3\n        /* \"#utility.yul\":14677:14697   */\n      tag_347\n      jump\t// in\n    tag_400:\n        /* \"#utility.yul\":14672:14697   */\n      swap2\n      pop\n        /* \"#utility.yul\":14711:14731   */\n      tag_401\n        /* \"#utility.yul\":14729:14730   */\n      dup4\n        /* \"#utility.yul\":14711:14731   */\n      tag_347\n      jump\t// in\n    tag_401:\n        /* \"#utility.yul\":14706:14731   */\n      swap3\n      pop\n        /* \"#utility.yul\":14750:14751   */\n      dup3\n        /* \"#utility.yul\":14747:14748   */\n      dup3\n        /* \"#utility.yul\":14744:14752   */\n      lt\n        /* \"#utility.yul\":14741:14775   */\n      iszero\n      tag_402\n      jumpi\n        /* \"#utility.yul\":14755:14773   */\n      tag_403\n      tag_393\n      jump\t// in\n    tag_403:\n        /* \"#utility.yul\":14741:14775   */\n    tag_402:\n        /* \"#utility.yul\":14800:14801   */\n      dup3\n        /* \"#utility.yul\":14797:14798   */\n      dup3\n        /* \"#utility.yul\":14793:14802   */\n      sub\n        /* \"#utility.yul\":14785:14802   */\n      swap1\n      pop\n        /* \"#utility.yul\":14617:14808   */\n      swap3\n      swap2\n      pop\n      pop\n      jump\t// out\n        /* \"#utility.yul\":14814:14910   */\n    tag_404:\n        /* \"#utility.yul\":14851:14858   */\n      0x00\n        /* \"#utility.yul\":14880:14904   */\n      tag_406\n        /* \"#utility.yul\":14898:14903   */\n      dup3\n        /* \"#utility.yul\":14880:14904   */\n      tag_407\n      jump\t// in\n    tag_406:\n        /* \"#utility.yul\":14869:14904   */\n      swap1\n      pop\n        /* \"#utility.yul\":14814:14910   */\n      swap2\n      swap1\n      pop\n      jump\t// out\n        /* \"#utility.yul\":14916:14993   */\n    tag_260:\n        /* \"#utility.yul\":14953:14960   */\n      0x00\n        /* \"#utility.yul\":14982:14987   */\n      dup2\n        /* \"#utility.yul\":14971:14987   */\n      swap1\n      pop\n        /* \"#utility.yul\":14916:14993   */\n      swap2\n      swap1\n      pop\n      jump\t// out\n        /* \"#utility.yul\":14999:15128   */\n    tag_409:\n        /* \"#utility.yul\":15045:15052   */\n      0x00\n        /* \"#utility.yul\":15074:15079   */\n      dup2\n        /* \"#utility.yul\":15063:15079   */\n      swap1\n      pop\n        /* \"#utility.yul\":15080:15122   */\n      tag_411\n        /* \"#utility.yul\":15116:15121   */\n      dup3\n        /* \"#utility.yul\":15080:15122   */\n      tag_412\n      jump\t// in\n    tag_411:\n        /* \"#utility.yul\":14999:15128   */\n      swap2\n      swap1\n      pop\n      jump\t// out\n        /* \"#utility.yul\":15134:15260   */\n    tag_407:\n        /* \"#utility.yul\":15171:15178   */\n      0x00\n        /* \"#utility.yul\":15211:15253   */\n      0xffffffffffffffffffffffffffffffffffffffff\n        /* \"#utility.yul\":15204:15209   */\n      dup3\n        /* \"#utility.yul\":15200:15254   */\n      and\n        /* \"#utility.yul\":15189:15254   */\n      swap1\n      pop\n        /* \"#utility.yul\":15134:15260   */\n      swap2\n      swap1\n      pop\n      jump\t// out\n        /* \"#utility.yul\":15266:15343   */\n    tag_347:\n        /* \"#utility.yul\":15303:15310   */\n      0x00\n        /* \"#utility.yul\":15332:15337   */\n      dup2\n        /* \"#utility.yul\":15321:15337   */\n      swap1\n      pop\n        /* \"#utility.yul\":15266:15343   */\n      swap2\n      swap1\n      pop\n      jump\t// out\n        /* \"#utility.yul\":15349:15490   */\n    tag_264:\n        /* \"#utility.yul\":15414:15423   */\n      0x00\n        /* \"#utility.yul\":15447:15484   */\n      tag_416\n        /* \"#utility.yul\":15478:15483   */\n      dup3\n        /* \"#utility.yul\":15447:15484   */\n      tag_417\n      jump\t// in\n    tag_416:\n        /* \"#utility.yul\":15434:15484   */\n      swap1\n      pop\n        /* \"#utility.yul\":15349:15490   */\n      swap2\n      swap1\n      pop\n      jump\t// out\n        /* \"#utility.yul\":15496:15625   */\n    tag_268:\n        /* \"#utility.yul\":15553:15562   */\n      0x00\n        /* \"#utility.yul\":15586:15619   */\n      tag_419\n        /* \"#utility.yul\":15613:15618   */\n      dup3\n        /* \"#utility.yul\":15586:15619   */\n      tag_409\n      jump\t// in\n    tag_419:\n        /* \"#utility.yul\":15573:15619   */\n      swap1\n      pop\n        /* \"#utility.yul\":15496:15625   */\n      swap2\n      swap1\n      pop\n      jump\t// out\n        /* \"#utility.yul\":15631:15757   */\n    tag_417:\n        /* \"#utility.yul\":15681:15690   */\n      0x00\n        /* \"#utility.yul\":15714:15751   */\n      tag_421\n        /* \"#utility.yul\":15745:15750   */\n      dup3\n        /* \"#utility.yul\":15714:15751   */\n      tag_422\n      jump\t// in\n    tag_421:\n        /* \"#utility.yul\":15701:15751   */\n      swap1\n      pop\n        /* \"#utility.yul\":15631:15757   */\n      swap2\n      swap1\n      pop\n      jump\t// out\n        /* \"#utility.yul\":15763:15876   */\n    tag_422:\n        /* \"#utility.yul\":15813:15822   */\n      0x00\n        /* \"#utility.yul\":15846:15870   */\n      tag_424\n        /* \"#utility.yul\":15864:15869   */\n      dup3\n        /* \"#utility.yul\":15846:15870   */\n      tag_407\n      jump\t// in\n    tag_424:\n        /* \"#utility.yul\":15833:15870   */\n      swap1\n      pop\n        /* \"#utility.yul\":15763:15876   */\n      swap2\n      swap1\n      pop\n      jump\t// out\n        /* \"#utility.yul\":15882:16189   */\n    tag_276:\n        /* \"#utility.yul\":15950:15951   */\n      0x00\n        /* \"#utility.yul\":15960:16073   */\n    tag_426:\n        /* \"#utility.yul\":15974:15980   */\n      dup4\n        /* \"#utility.yul\":15971:15972   */\n      dup2\n        /* \"#utility.yul\":15968:15981   */\n      lt\n        /* \"#utility.yul\":15960:16073   */\n      iszero\n      tag_428\n      jumpi\n        /* \"#utility.yul\":16059:16060   */\n      dup1\n        /* \"#utility.yul\":16054:16057   */\n      dup3\n        /* \"#utility.yul\":16050:16061   */\n      add\n        /* \"#utility.yul\":16044:16062   */\n      mload\n        /* \"#utility.yul\":16040:16041   */\n      dup2\n        /* \"#utility.yul\":16035:16038   */\n      dup5\n        /* \"#utility.yul\":16031:16042   */\n      add\n        /* \"#utility.yul\":16024:16063   */\n      mstore\n        /* \"#utility.yul\":15996:15998   */\n      0x20\n        /* \"#utility.yul\":15993:15994   */\n      dup2\n        /* \"#utility.yul\":15989:15999   */\n      add\n        /* \"#utility.yul\":15984:15999   */\n      swap1\n      pop\n        /* \"#utility.yul\":15960:16073   */\n      jump(tag_426)\n    tag_428:\n        /* \"#utility.yul\":16091:16097   */\n      dup4\n        /* \"#utility.yul\":16088:16089   */\n      dup2\n        /* \"#utility.yul\":16085:16098   */\n      gt\n        /* \"#utility.yul\":16082:16183   */\n      iszero\n      tag_429\n      jumpi\n        /* \"#utility.yul\":16171:16172   */\n      0x00\n        /* \"#utility.yul\":16162:16168   */\n      dup5\n        /* \"#utility.yul\":16157:16160   */\n      dup5\n        /* \"#utility.yul\":16153:16169   */\n      add\n        /* \"#utility.yul\":16146:16173   */\n      mstore\n        /* \"#utility.yul\":16082:16183   */\n    tag_429:\n        /* \"#utility.yul\":15931:16189   */\n      pop\n        /* \"#utility.yul\":15882:16189   */\n      pop\n      pop\n      pop\n      jump\t// out\n        /* \"#utility.yul\":16195:16476   */\n    tag_430:\n        /* \"#utility.yul\":16278:16305   */\n      tag_432\n        /* \"#utility.yul\":16300:16304   */\n      dup3\n        /* \"#utility.yul\":16278:16305   */\n      tag_278\n      jump\t// in\n    tag_432:\n        /* \"#utility.yul\":16270:16276   */\n      dup2\n        /* \"#utility.yul\":16266:16306   */\n      add\n        /* \"#utility.yul\":16408:16414   */\n      dup2\n        /* \"#utility.yul\":16396:16406   */\n      dup2\n        /* \"#utility.yul\":16393:16415   */\n      lt\n        /* \"#utility.yul\":16372:16390   */\n      0xffffffffffffffff\n        /* \"#utility.yul\":16360:16370   */\n      dup3\n        /* \"#utility.yul\":16357:16391   */\n      gt\n        /* \"#utility.yul\":16354:16416   */\n      or\n        /* \"#utility.yul\":16351:16439   */\n      iszero\n      tag_433\n      jumpi\n        /* \"#utility.yul\":16419:16437   */\n      tag_434\n      tag_435\n      jump\t// in\n    tag_434:\n        /* \"#utility.yul\":16351:16439   */\n    tag_433:\n        /* \"#utility.yul\":16459:16469   */\n      dup1\n        /* \"#utility.yul\":16455:16457   */\n      0x40\n        /* \"#utility.yul\":16448:16470   */\n      mstore\n        /* \"#utility.yul\":16238:16476   */\n      pop\n        /* \"#utility.yul\":16195:16476   */\n      pop\n      pop\n      jump\t// out\n        /* \"#utility.yul\":16482:16662   */\n    tag_393:\n        /* \"#utility.yul\":16530:16607   */\n      0x4e487b7100000000000000000000000000000000000000000000000000000000\n        /* \"#utility.yul\":16527:16528   */\n      0x00\n        /* \"#utility.yul\":16520:16608   */\n      mstore\n        /* \"#utility.yul\":16627:16631   */\n      0x11\n        /* \"#utility.yul\":16624:16625   */\n      0x04\n        /* \"#utility.yul\":16617:16632   */\n      mstore\n        /* \"#utility.yul\":16651:16655   */\n      0x24\n        /* \"#utility.yul\":16648:16649   */\n      0x00\n        /* \"#utility.yul\":16641:16656   */\n      revert\n        /* \"#utility.yul\":16668:16848   */\n    tag_84:\n        /* \"#utility.yul\":16716:16793   */\n      0x4e487b7100000000000000000000000000000000000000000000000000000000\n        /* \"#utility.yul\":16713:16714   */\n      0x00\n        /* \"#utility.yul\":16706:16794   */\n      mstore\n        /* \"#utility.yul\":16813:16817   */\n      0x21\n        /* \"#utility.yul\":16810:16811   */\n      0x04\n        /* \"#utility.yul\":16803:16818   */\n      mstore\n        /* \"#utility.yul\":16837:16841   */\n      0x24\n        /* \"#utility.yul\":16834:16835   */\n      0x00\n        /* \"#utility.yul\":16827:16842   */\n      revert\n        /* \"#utility.yul\":16854:17034   */\n    tag_435:\n        /* \"#utility.yul\":16902:16979   */\n      0x4e487b7100000000000000000000000000000000000000000000000000000000\n        /* \"#utility.yul\":16899:16900   */\n      0x00\n        /* \"#utility.yul\":16892:16980   */\n      mstore\n        /* \"#utility.yul\":16999:17003   */\n      0x41\n        /* \"#utility.yul\":16996:16997   */\n      0x04\n        /* \"#utility.yul\":16989:17004   */\n      mstore\n        /* \"#utility.yul\":17023:17027   */\n      0x24\n        /* \"#utility.yul\":17020:17021   */\n      0x00\n        /* \"#utility.yul\":17013:17028   */\n      revert\n        /* \"#utility.yul\":17040:17223   */\n    tag_147:\n        /* \"#utility.yul\":17075:17078   */\n      0x00\n        /* \"#utility.yul\":17113:17114   */\n      0x03\n        /* \"#utility.yul\":17095:17111   */\n      returndatasize\n        /* \"#utility.yul\":17092:17115   */\n      gt\n        /* \"#utility.yul\":17089:17217   */\n      iszero\n      tag_440\n      jumpi\n        /* \"#utility.yul\":17151:17152   */\n      0x04\n        /* \"#utility.yul\":17148:17149   */\n      0x00\n        /* \"#utility.yul\":17145:17146   */\n      dup1\n        /* \"#utility.yul\":17130:17153   */\n      returndatacopy\n        /* \"#utility.yul\":17173:17207   */\n      tag_441\n        /* \"#utility.yul\":17204:17205   */\n      0x00\n        /* \"#utility.yul\":17198:17206   */\n      mload\n        /* \"#utility.yul\":17173:17207   */\n      tag_442\n      jump\t// in\n    tag_441:\n        /* \"#utility.yul\":17166:17207   */\n      swap1\n      pop\n        /* \"#utility.yul\":17089:17217   */\n    tag_440:\n        /* \"#utility.yul\":17040:17223   */\n      swap1\n      jump\t// out\n        /* \"#utility.yul\":17352:17469   */\n    tag_251:\n        /* \"#utility.yul\":17461:17462   */\n      0x00\n        /* \"#utility.yul\":17458:17459   */\n      dup1\n        /* \"#utility.yul\":17451:17463   */\n      revert\n        /* \"#utility.yul\":17475:17577   */\n    tag_278:\n        /* \"#utility.yul\":17516:17522   */\n      0x00\n        /* \"#utility.yul\":17567:17569   */\n      0x1f\n        /* \"#utility.yul\":17563:17570   */\n      not\n        /* \"#utility.yul\":17558:17560   */\n      0x1f\n        /* \"#utility.yul\":17551:17556   */\n      dup4\n        /* \"#utility.yul\":17547:17561   */\n      add\n        /* \"#utility.yul\":17543:17571   */\n      and\n        /* \"#utility.yul\":17533:17571   */\n      swap1\n      pop\n        /* \"#utility.yul\":17475:17577   */\n      swap2\n      swap1\n      pop\n      jump\t// out\n        /* \"#utility.yul\":17583:17689   */\n    tag_442:\n        /* \"#utility.yul\":17627:17635   */\n      0x00\n        /* \"#utility.yul\":17676:17681   */\n      dup2\n        /* \"#utility.yul\":17671:17674   */\n      0xe0\n        /* \"#utility.yul\":17667:17682   */\n      shr\n        /* \"#utility.yul\":17646:17682   */\n      swap1\n      pop\n        /* \"#utility.yul\":17583:17689   */\n      swap2\n      swap1\n      pop\n      jump\t// out\n        /* \"#utility.yul\":17695:17933   */\n    tag_283:\n        /* \"#utility.yul\":17835:17869   */\n      0x4f6e6c7920746865206661726d6572206f66207468652070726f647563652063\n        /* \"#utility.yul\":17831:17832   */\n      0x00\n        /* \"#utility.yul\":17823:17829   */\n      dup3\n        /* \"#utility.yul\":17819:17833   */\n      add\n        /* \"#utility.yul\":17812:17870   */\n      mstore\n        /* \"#utility.yul\":17904:17925   */\n      0x616e2072656a65637420746865206f7264657200000000000000000000000000\n        /* \"#utility.yul\":17899:17901   */\n      0x20\n        /* \"#utility.yul\":17891:17897   */\n      dup3\n        /* \"#utility.yul\":17887:17902   */\n      add\n        /* \"#utility.yul\":17880:17926   */\n      mstore\n        /* \"#utility.yul\":17695:17933   */\n      pop\n      jump\t// out\n        /* \"#utility.yul\":17939:18116   */\n    tag_288:\n        /* \"#utility.yul\":18079:18108   */\n      0x6f7264657220686173206e6f74206265656e2072656a65637465640000000000\n        /* \"#utility.yul\":18075:18076   */\n      0x00\n        /* \"#utility.yul\":18067:18073   */\n      dup3\n        /* \"#utility.yul\":18063:18077   */\n      add\n        /* \"#utility.yul\":18056:18109   */\n      mstore\n        /* \"#utility.yul\":17939:18116   */\n      pop\n      jump\t// out\n        /* \"#utility.yul\":18122:18354   */\n    tag_293:\n        /* \"#utility.yul\":18262:18296   */\n      0x637573746f6d657220686173206e6f206f75747374616e64696e672062616c61\n        /* \"#utility.yul\":18258:18259   */\n      0x00\n        /* \"#utility.yul\":18250:18256   */\n      dup3\n        /* \"#utility.yul\":18246:18260   */\n      add\n        /* \"#utility.yul\":18239:18297   */\n      mstore\n        /* \"#utility.yul\":18331:18346   */\n      0x6e636520746f20726566756e6400000000000000000000000000000000000000\n        /* \"#utility.yul\":18326:18328   */\n      0x20\n        /* \"#utility.yul\":18318:18324   */\n      dup3\n        /* \"#utility.yul\":18314:18329   */\n      add\n        /* \"#utility.yul\":18307:18347   */\n      mstore\n        /* \"#utility.yul\":18122:18354   */\n      pop\n      jump\t// out\n        /* \"#utility.yul\":18360:18608   */\n    tag_298:\n        /* \"#utility.yul\":18500:18534   */\n      0x6f6e6c79206d656d62657273206f6620746869732067726f7570206f72646572\n        /* \"#utility.yul\":18496:18497   */\n      0x00\n        /* \"#utility.yul\":18488:18494   */\n      dup3\n        /* \"#utility.yul\":18484:18498   */\n      add\n        /* \"#utility.yul\":18477:18535   */\n      mstore\n        /* \"#utility.yul\":18569:18600   */\n      0x206d617920766f746520746f2072656a65637420746865206f72646572000000\n        /* \"#utility.yul\":18564:18566   */\n      0x20\n        /* \"#utility.yul\":18556:18562   */\n      dup3\n        /* \"#utility.yul\":18552:18567   */\n      add\n        /* \"#utility.yul\":18545:18601   */\n      mstore\n        /* \"#utility.yul\":18360:18608   */\n      pop\n      jump\t// out\n        /* \"#utility.yul\":18614:18838   */\n    tag_303:\n        /* \"#utility.yul\":18754:18788   */\n      0x5468652067726f7570206f7264657220686173206e6f74207965742074696d65\n        /* \"#utility.yul\":18750:18751   */\n      0x00\n        /* \"#utility.yul\":18742:18748   */\n      dup3\n        /* \"#utility.yul\":18738:18752   */\n      add\n        /* \"#utility.yul\":18731:18789   */\n      mstore\n        /* \"#utility.yul\":18823:18830   */\n      0x64206f7574000000000000000000000000000000000000000000000000000000\n        /* \"#utility.yul\":18818:18820   */\n      0x20\n        /* \"#utility.yul\":18810:18816   */\n      dup3\n        /* \"#utility.yul\":18806:18821   */\n      add\n        /* \"#utility.yul\":18799:18831   */\n      mstore\n        /* \"#utility.yul\":18614:18838   */\n      pop\n      jump\t// out\n        /* \"#utility.yul\":18844:19013   */\n    tag_308:\n        /* \"#utility.yul\":18984:19005   */\n      0x6e6f7420656e6f756768207765692073656e7400000000000000000000000000\n        /* \"#utility.yul\":18980:18981   */\n      0x00\n        /* \"#utility.yul\":18972:18978   */\n      dup3\n        /* \"#utility.yul\":18968:18982   */\n      add\n        /* \"#utility.yul\":18961:19006   */\n      mstore\n        /* \"#utility.yul\":18844:19013   */\n      pop\n      jump\t// out\n        /* \"#utility.yul\":19019:19248   */\n    tag_313:\n        /* \"#utility.yul\":19159:19193   */\n      0x6e6f7420656e6f75676820706f7274696f6e206f726465727320686176652062\n        /* \"#utility.yul\":19155:19156   */\n      0x00\n        /* \"#utility.yul\":19147:19153   */\n      dup3\n        /* \"#utility.yul\":19143:19157   */\n      add\n        /* \"#utility.yul\":19136:19194   */\n      mstore\n        /* \"#utility.yul\":19228:19240   */\n      0x65656e20706c6163656400000000000000000000000000000000000000000000\n        /* \"#utility.yul\":19223:19225   */\n      0x20\n        /* \"#utility.yul\":19215:19221   */\n      dup3\n        /* \"#utility.yul\":19211:19226   */\n      add\n        /* \"#utility.yul\":19204:19241   */\n      mstore\n        /* \"#utility.yul\":19019:19248   */\n      pop\n      jump\t// out\n        /* \"#utility.yul\":19254:19424   */\n    tag_318:\n        /* \"#utility.yul\":19394:19416   */\n      0x7374617465206973206e6f742070656e64696e67000000000000000000000000\n        /* \"#utility.yul\":19390:19391   */\n      0x00\n        /* \"#utility.yul\":19382:19388   */\n      dup3\n        /* \"#utility.yul\":19378:19392   */\n      add\n        /* \"#utility.yul\":19371:19417   */\n      mstore\n        /* \"#utility.yul\":19254:19424   */\n      pop\n      jump\t// out\n        /* \"#utility.yul\":19430:19608   */\n    tag_323:\n        /* \"#utility.yul\":19570:19600   */\n      0x77726f6e67206e756d62657220706f7274696f6e732061677265656400000000\n        /* \"#utility.yul\":19566:19567   */\n      0x00\n        /* \"#utility.yul\":19558:19564   */\n      dup3\n        /* \"#utility.yul\":19554:19568   */\n      add\n        /* \"#utility.yul\":19547:19601   */\n      mstore\n        /* \"#utility.yul\":19430:19608   */\n      pop\n      jump\t// out\n        /* \"#utility.yul\":19614:19847   */\n    tag_328:\n        /* \"#utility.yul\":19754:19788   */\n      0x6d656d626572732063616e206f6e6c7920766f746520746f2072656a65637420\n        /* \"#utility.yul\":19750:19751   */\n      0x00\n        /* \"#utility.yul\":19742:19748   */\n      dup3\n        /* \"#utility.yul\":19738:19752   */\n      add\n        /* \"#utility.yul\":19731:19789   */\n      mstore\n        /* \"#utility.yul\":19823:19839   */\n      0x70656e64696e67206f7264657273000000000000000000000000000000000000\n        /* \"#utility.yul\":19818:19820   */\n      0x20\n        /* \"#utility.yul\":19810:19816   */\n      dup3\n        /* \"#utility.yul\":19806:19821   */\n      add\n        /* \"#utility.yul\":19799:19840   */\n      mstore\n        /* \"#utility.yul\":19614:19847   */\n      pop\n      jump\t// out\n        /* \"#utility.yul\":19853:20092   */\n    tag_333:\n        /* \"#utility.yul\":19993:20027   */\n      0x546865206f72646572207374617465206973206e6f74206f70656e2c20736f20\n        /* \"#utility.yul\":19989:19990   */\n      0x00\n        /* \"#utility.yul\":19981:19987   */\n      dup3\n        /* \"#utility.yul\":19977:19991   */\n      add\n        /* \"#utility.yul\":19970:20028   */\n      mstore\n        /* \"#utility.yul\":20062:20084   */\n      0x63616e206e6f742062652074696d6564206f7574000000000000000000000000\n        /* \"#utility.yul\":20057:20059   */\n      0x20\n        /* \"#utility.yul\":20049:20055   */\n      dup3\n        /* \"#utility.yul\":20045:20060   */\n      add\n        /* \"#utility.yul\":20038:20085   */\n      mstore\n        /* \"#utility.yul\":19853:20092   */\n      pop\n      jump\t// out\n        /* \"#utility.yul\":20098:20396   */\n    tag_338:\n        /* \"#utility.yul\":20238:20272   */\n      0x4f6e6c7920746865206661726d6572206f66207468652070726f647563652063\n        /* \"#utility.yul\":20234:20235   */\n      0x00\n        /* \"#utility.yul\":20226:20232   */\n      dup3\n        /* \"#utility.yul\":20222:20236   */\n      add\n        /* \"#utility.yul\":20215:20273   */\n      mstore\n        /* \"#utility.yul\":20307:20341   */\n      0x616e206e6f74696679207468617420746865206f726465722068617320626565\n        /* \"#utility.yul\":20302:20304   */\n      0x20\n        /* \"#utility.yul\":20294:20300   */\n      dup3\n        /* \"#utility.yul\":20290:20305   */\n      add\n        /* \"#utility.yul\":20283:20342   */\n      mstore\n        /* \"#utility.yul\":20376:20388   */\n      0x6e20616363657074656400000000000000000000000000000000000000000000\n        /* \"#utility.yul\":20371:20373   */\n      0x40\n        /* \"#utility.yul\":20363:20369   */\n      dup3\n        /* \"#utility.yul\":20359:20374   */\n      add\n        /* \"#utility.yul\":20352:20389   */\n      mstore\n        /* \"#utility.yul\":20098:20396   */\n      pop\n      jump\t// out\n        /* \"#utility.yul\":20402:20569   */\n    tag_343:\n        /* \"#utility.yul\":20542:20561   */\n      0x7374617465206973206e6f74206f70656e000000000000000000000000000000\n        /* \"#utility.yul\":20538:20539   */\n      0x00\n        /* \"#utility.yul\":20530:20536   */\n      dup3\n        /* \"#utility.yul\":20526:20540   */\n      add\n        /* \"#utility.yul\":20519:20562   */\n      mstore\n        /* \"#utility.yul\":20402:20569   */\n      pop\n      jump\t// out\n        /* \"#utility.yul\":20575:21286   */\n    tag_149:\n        /* \"#utility.yul\":20614:20617   */\n      0x00\n        /* \"#utility.yul\":20652:20656   */\n      0x44\n        /* \"#utility.yul\":20634:20650   */\n      returndatasize\n        /* \"#utility.yul\":20631:20657   */\n      lt\n        /* \"#utility.yul\":20628:20667   */\n      iszero\n      tag_462\n      jumpi\n        /* \"#utility.yul\":20660:20665   */\n      jump(tag_461)\n        /* \"#utility.yul\":20628:20667   */\n    tag_462:\n        /* \"#utility.yul\":20689:20709   */\n      tag_463\n      tag_384\n      jump\t// in\n    tag_463:\n        /* \"#utility.yul\":20764:20765   */\n      0x04\n        /* \"#utility.yul\":20746:20762   */\n      returndatasize\n        /* \"#utility.yul\":20742:20766   */\n      sub\n        /* \"#utility.yul\":20739:20740   */\n      0x04\n        /* \"#utility.yul\":20733:20737   */\n      dup3\n        /* \"#utility.yul\":20718:20767   */\n      returndatacopy\n        /* \"#utility.yul\":20797:20801   */\n      dup1\n        /* \"#utility.yul\":20791:20802   */\n      mload\n        /* \"#utility.yul\":20896:20912   */\n      returndatasize\n        /* \"#utility.yul\":20889:20893   */\n      0x24\n        /* \"#utility.yul\":20881:20887   */\n      dup3\n        /* \"#utility.yul\":20877:20894   */\n      add\n        /* \"#utility.yul\":20874:20913   */\n      gt\n        /* \"#utility.yul\":20841:20859   */\n      0xffffffffffffffff\n        /* \"#utility.yul\":20833:20839   */\n      dup3\n        /* \"#utility.yul\":20830:20860   */\n      gt\n        /* \"#utility.yul\":20814:20927   */\n      or\n        /* \"#utility.yul\":20811:20957   */\n      iszero\n      tag_464\n      jumpi\n        /* \"#utility.yul\":20942:20947   */\n      pop\n      pop\n      jump(tag_461)\n        /* \"#utility.yul\":20811:20957   */\n    tag_464:\n        /* \"#utility.yul\":20988:20994   */\n      dup1\n        /* \"#utility.yul\":20982:20986   */\n      dup3\n        /* \"#utility.yul\":20978:20995   */\n      add\n        /* \"#utility.yul\":21024:21027   */\n      dup1\n        /* \"#utility.yul\":21018:21028   */\n      mload\n        /* \"#utility.yul\":21051:21069   */\n      0xffffffffffffffff\n        /* \"#utility.yul\":21043:21049   */\n      dup2\n        /* \"#utility.yul\":21040:21070   */\n      gt\n        /* \"#utility.yul\":21037:21080   */\n      iszero\n      tag_465\n      jumpi\n        /* \"#utility.yul\":21073:21078   */\n      pop\n      pop\n      pop\n      pop\n      jump(tag_461)\n        /* \"#utility.yul\":21037:21080   */\n    tag_465:\n        /* \"#utility.yul\":21121:21127   */\n      dup1\n        /* \"#utility.yul\":21114:21118   */\n      0x20\n        /* \"#utility.yul\":21109:21112   */\n      dup4\n        /* \"#utility.yul\":21105:21119   */\n      add\n        /* \"#utility.yul\":21101:21128   */\n      add\n        /* \"#utility.yul\":21180:21181   */\n      0x04\n        /* \"#utility.yul\":21162:21178   */\n      returndatasize\n        /* \"#utility.yul\":21158:21182   */\n      sub\n        /* \"#utility.yul\":21152:21156   */\n      dup6\n        /* \"#utility.yul\":21148:21183   */\n      add\n        /* \"#utility.yul\":21143:21146   */\n      dup2\n        /* \"#utility.yul\":21140:21184   */\n      gt\n        /* \"#utility.yul\":21137:21194   */\n      iszero\n      tag_466\n      jumpi\n        /* \"#utility.yul\":21187:21192   */\n      pop\n      pop\n      pop\n      pop\n      pop\n      jump(tag_461)\n        /* \"#utility.yul\":21137:21194   */\n    tag_466:\n        /* \"#utility.yul\":21204:21261   */\n      tag_467\n        /* \"#utility.yul\":21252:21258   */\n      dup3\n        /* \"#utility.yul\":21246:21250   */\n      0x20\n        /* \"#utility.yul\":21242:21259   */\n      add\n        /* \"#utility.yul\":21234:21240   */\n      dup6\n        /* \"#utility.yul\":21230:21260   */\n      add\n        /* \"#utility.yul\":21224:21228   */\n      dup7\n        /* \"#utility.yul\":21204:21261   */\n      tag_430\n      jump\t// in\n    tag_467:\n        /* \"#utility.yul\":21277:21280   */\n      dup3\n        /* \"#utility.yul\":21270:21280   */\n      swap6\n      pop\n        /* \"#utility.yul\":20618:21286   */\n      pop\n      pop\n      pop\n      pop\n      pop\n        /* \"#utility.yul\":20575:21286   */\n    tag_461:\n      swap1\n      jump\t// out\n        /* \"#utility.yul\":21292:21406   */\n    tag_412:\n        /* \"#utility.yul\":21374:21375   */\n      0x04\n        /* \"#utility.yul\":21367:21372   */\n      dup2\n        /* \"#utility.yul\":21364:21376   */\n      lt\n        /* \"#utility.yul\":21354:21400   */\n      tag_469\n      jumpi\n        /* \"#utility.yul\":21380:21398   */\n      tag_470\n      tag_84\n      jump\t// in\n    tag_470:\n        /* \"#utility.yul\":21354:21400   */\n    tag_469:\n        /* \"#utility.yul\":21292:21406   */\n      pop\n      jump\t// out\n        /* \"#utility.yul\":21412:21534   */\n    tag_243:\n        /* \"#utility.yul\":21485:21509   */\n      tag_472\n        /* \"#utility.yul\":21503:21508   */\n      dup2\n        /* \"#utility.yul\":21485:21509   */\n      tag_404\n      jump\t// in\n    tag_472:\n        /* \"#utility.yul\":21478:21483   */\n      dup2\n        /* \"#utility.yul\":21475:21510   */\n      eq\n        /* \"#utility.yul\":21465:21528   */\n      tag_473\n      jumpi\n        /* \"#utility.yul\":21524:21525   */\n      0x00\n        /* \"#utility.yul\":21521:21522   */\n      dup1\n        /* \"#utility.yul\":21514:21526   */\n      revert\n        /* \"#utility.yul\":21465:21528   */\n    tag_473:\n        /* \"#utility.yul\":21412:21534   */\n      pop\n      jump\t// out\n        /* \"#utility.yul\":21540:21662   */\n    tag_247:\n        /* \"#utility.yul\":21613:21637   */\n      tag_475\n        /* \"#utility.yul\":21631:21636   */\n      dup2\n        /* \"#utility.yul\":21613:21637   */\n      tag_347\n      jump\t// in\n    tag_475:\n        /* \"#utility.yul\":21606:21611   */\n      dup2\n        /* \"#utility.yul\":21603:21638   */\n      eq\n        /* \"#utility.yul\":21593:21656   */\n      tag_476\n      jumpi\n        /* \"#utility.yul\":21652:21653   */\n      0x00\n        /* \"#utility.yul\":21649:21650   */\n      dup1\n        /* \"#utility.yul\":21642:21654   */\n      revert\n        /* \"#utility.yul\":21593:21656   */\n    tag_476:\n        /* \"#utility.yul\":21540:21662   */\n      pop\n      jump\t// out\n\n    auxdata: 0xa264697066735822122037d07979f88c11b9ecb5b4b1916ef2f3f73d479191ddb14dc57388d4d16c292564736f6c63430008070033\n}\n",
				"bytecode": {
					"linkReferences": {},
					"object": "608060405260006006553480156200001657600080fd5b506040516200241f3803806200241f83398181016040528101906200003c91906200017c565b63047868c0821162000085576040517f08c379a00000000000000000000000000000000000000000000000000000000081526004016200007c90620001ff565b60405180910390fd5b6000600760006101000a81548160ff02191690836003811115620000ae57620000ad620002fc565b5b0217905550826000806101000a81548173ffffffffffffffffffffffffffffffffffffffff021916908373ffffffffffffffffffffffffffffffffffffffff16021790555080600581905550426002819055508160025462000111919062000232565b6003819055506000600760006101000a81548160ff0219169083600381111562000140576200013f620002fc565b5b02179055505050506200038d565b6000815190506200015f8162000359565b92915050565b600081519050620001768162000373565b92915050565b6000806000606084860312156200019857620001976200032b565b5b6000620001a8868287016200014e565b9350506020620001bb8682870162000165565b9250506040620001ce8682870162000165565b9150509250925092565b6000620001e7601a8362000221565b9150620001f48262000330565b602082019050919050565b600060208201905081810360008301526200021a81620001d8565b9050919050565b600082825260208201905092915050565b60006200023f82620002c3565b91506200024c83620002c3565b9250827fffffffffffffffffffffffffffffffffffffffffffffffffffffffffffffffff03821115620002845762000283620002cd565b5b828201905092915050565b60006200029c82620002a3565b9050919050565b600073ffffffffffffffffffffffffffffffffffffffff82169050919050565b6000819050919050565b7f4e487b7100000000000000000000000000000000000000000000000000000000600052601160045260246000fd5b7f4e487b7100000000000000000000000000000000000000000000000000000000600052602160045260246000fd5b600080fd5b7f74696d65206c696d6974206e6f74206869676820656e6f756768000000000000600082015250565b62000364816200028f565b81146200037057600080fd5b50565b6200037e81620002c3565b81146200038a57600080fd5b50565b612082806200039d6000396000f3fe6080604052600436106100f25760003560e01c80635f29a5ee1161008a578063d008902c11610059578063d008902c14610297578063dd5a00a7146102c2578063f56b3ad5146102d9578063f5c609e014610304576100f2565b80635f29a5ee146101ff578063656b99521461021657806378e9792514610241578063c19d93fb1461026c576100f2565b80633197cbb6116100c65780633197cbb61461017b578063409b509d146101a657806340c78e98146101bd5780634b436ae6146101d4576100f2565b8062b2d43b146100f757806313fc80d31461012257806318491f0c1461013957806324600fc314610164575b600080fd5b34801561010357600080fd5b5061010c61030e565b604051610119919061190d565b60405180910390f35b34801561012e57600080fd5b50610137610316565b005b34801561014557600080fd5b5061014e6106e2565b60405161015b91906116fa565b60405180910390f35b34801561017057600080fd5b506101796106e8565b005b34801561018757600080fd5b50610190610928565b60405161019d919061190d565b60405180910390f35b3480156101b257600080fd5b506101bb61092e565b005b3480156101c957600080fd5b506101d2610b76565b005b3480156101e057600080fd5b506101e9610ca3565b6040516101f6919061190d565b60405180910390f35b34801561020b57600080fd5b50610214610ca9565b005b34801561022257600080fd5b5061022b610e9d565b6040516102389190611715565b60405180910390f35b34801561024d57600080fd5b50610256610ec1565b604051610263919061190d565b60405180910390f35b34801561027857600080fd5b50610281610ec7565b60405161028e9190611730565b60405180910390f35b3480156102a357600080fd5b506102ac610eda565b6040516102b9919061190d565b60405180910390f35b3480156102ce57600080fd5b506102d7610ee0565b005b3480156102e557600080fd5b506102ee6110fc565b6040516102fb919061190d565b60405180910390f35b61030c611102565b005b63047868c081565b6001600381111561032a57610329611b66565b5b600760009054906101000a900460ff16600381111561034c5761034b611b66565b5b1461035657600080fd5b60008054906101000a900473ffffffffffffffffffffffffffffffffffffffff1673ffffffffffffffffffffffffffffffffffffffff16638da5cb5b6040518163ffffffff1660e01b815260040160206040518083038186803b1580156103bc57600080fd5b505afa1580156103d0573d6000803e3d6000fd5b505050506040513d601f19601f820116820180604052508101906103f49190611464565b73ffffffffffffffffffffffffffffffffffffffff163373ffffffffffffffffffffffffffffffffffffffff1614610461576040517f08c379a0000000000000000000000000000000000000000000000000000000008152600401610458906118cd565b60405180910390fd5b6003600760006101000a81548160ff0219169083600381111561048757610486611b66565b5b021790555060008054906101000a900473ffffffffffffffffffffffffffffffffffffffff1673ffffffffffffffffffffffffffffffffffffffff1663eaa61dea6040518163ffffffff1660e01b8152600401600060405180830381600087803b1580156104f457600080fd5b505af1158015610508573d6000803e3d6000fd5b505050507f246f97586713cf6803bc7c189486b4345be349cee213b4cae772d5052ab5f059600760009054906101000a900460ff1660405161054a9190611730565b60405180910390a160008054906101000a900473ffffffffffffffffffffffffffffffffffffffff1673ffffffffffffffffffffffffffffffffffffffff16638da5cb5b6040518163ffffffff1660e01b815260040160206040518083038186803b1580156105b857600080fd5b505afa1580156105cc573d6000803e3d6000fd5b505050506040513d601f19601f820116820180604052508101906105f09190611464565b73ffffffffffffffffffffffffffffffffffffffff166108fc60008054906101000a900473ffffffffffffffffffffffffffffffffffffffff1673ffffffffffffffffffffffffffffffffffffffff1663a035b1fe6040518163ffffffff1660e01b815260040160206040518083038186803b15801561066f57600080fd5b505afa158015610683573d6000803e3d6000fd5b505050506040513d601f19601f820116820180604052508101906106a79190611491565b6001546106b491906119a4565b9081150290604051600060405180830381858888f193505050501580156106df573d6000803e3d6000fd5b50565b60045481565b600260038111156106fc576106fb611b66565b5b600760009054906101000a900460ff16600381111561071e5761071d611b66565b5b1461075e576040517f08c379a00000000000000000000000000000000000000000000000000000000081526004016107559061178d565b60405180910390fd5b600860003373ffffffffffffffffffffffffffffffffffffffff1673ffffffffffffffffffffffffffffffffffffffff16815260200190815260200160002060009054906101000a900460ff166107ea576040517f08c379a00000000000000000000000000000000000000000000000000000000081526004016107e1906117ad565b60405180910390fd5b6000600860003373ffffffffffffffffffffffffffffffffffffffff1673ffffffffffffffffffffffffffffffffffffffff16815260200190815260200160002060006101000a81548160ff0219169083151502179055503373ffffffffffffffffffffffffffffffffffffffff166108fc60008054906101000a900473ffffffffffffffffffffffffffffffffffffffff1673ffffffffffffffffffffffffffffffffffffffff1663a035b1fe6040518163ffffffff1660e01b815260040160206040518083038186803b1580156108c257600080fd5b505afa1580156108d6573d6000803e3d6000fd5b505050506040513d601f19601f820116820180604052508101906108fa9190611491565b9081150290604051600060405180830381858888f19350505050158015610925573d6000803e3d6000fd5b50565b60035481565b60008054906101000a900473ffffffffffffffffffffffffffffffffffffffff1673ffffffffffffffffffffffffffffffffffffffff16636d86b8a56040518163ffffffff1660e01b815260040160206040518083038186803b15801561099457600080fd5b505afa1580156109a8573d6000803e3d6000fd5b505050506040513d601f19601f820116820180604052508101906109cc9190611491565b60015414610a0f576040517f08c379a0000000000000000000000000000000000000000000000000000000008152600401610a069061182d565b60405180910390fd5b60008054906101000a900473ffffffffffffffffffffffffffffffffffffffff1673ffffffffffffffffffffffffffffffffffffffff1663f5c609e06040518163ffffffff1660e01b8152600401600060405180830381600087803b158015610a7757600080fd5b505af1925050508015610a88575060015b610b0257610a94611bc4565b806308c379a01415610af15750610aa9611f74565b80610ab45750610af3565b7f33222bae2ff20e6fe48a14a7c1ef3eb4cca76359e8e5bf7b877cc3cd76d2ffb381604051610ae3919061174b565b60405180910390a150610afd565b505b3d6000803e3d6000fd5b610b74565b6001600760006101000a81548160ff02191690836003811115610b2857610b27611b66565b5b02179055507f246f97586713cf6803bc7c189486b4345be349cee213b4cae772d5052ab5f059600760009054906101000a900460ff16604051610b6b9190611730565b60405180910390a15b565b60006003811115610b8a57610b89611b66565b5b600760009054906101000a900460ff166003811115610bac57610bab611b66565b5b14610bec576040517f08c379a0000000000000000000000000000000000000000000000000000000008152600401610be3906118ad565b60405180910390fd5b6003544211610c30576040517f08c379a0000000000000000000000000000000000000000000000000000000008152600401610c27906117ed565b60405180910390fd5b6002600760006101000a81548160ff02191690836003811115610c5657610c55611b66565b5b02179055507f246f97586713cf6803bc7c189486b4345be349cee213b4cae772d5052ab5f059600760009054906101000a900460ff16604051610c999190611730565b60405180910390a1565b60065481565b60016003811115610cbd57610cbc611b66565b5b600760009054906101000a900460ff166003811115610cdf57610cde611b66565b5b14610d1f576040517f08c379a0000000000000000000000000000000000000000000000000000000008152600401610d169061184d565b60405180910390fd5b60008054906101000a900473ffffffffffffffffffffffffffffffffffffffff1673ffffffffffffffffffffffffffffffffffffffff16638da5cb5b6040518163ffffffff1660e01b815260040160206040518083038186803b158015610d8557600080fd5b505afa158015610d99573d6000803e3d6000fd5b505050506040513d601f19601f82011682018060405250810190610dbd9190611464565b73ffffffffffffffffffffffffffffffffffffffff163373ffffffffffffffffffffffffffffffffffffffff1614610e2a576040517f08c379a0000000000000000000000000000000000000000000000000000000008152600401610e219061176d565b60405180910390fd5b6002600760006101000a81548160ff02191690836003811115610e5057610e4f611b66565b5b02179055507f246f97586713cf6803bc7c189486b4345be349cee213b4cae772d5052ab5f059600760009054906101000a900460ff16604051610e939190611730565b60405180910390a1565b60008054906101000a900473ffffffffffffffffffffffffffffffffffffffff1681565b60025481565b600760009054906101000a900460ff1681565b60055481565b60016003811115610ef457610ef3611b66565b5b600760009054906101000a900460ff166003811115610f1657610f15611b66565b5b14610f56576040517f08c379a0000000000000000000000000000000000000000000000000000000008152600401610f4d9061188d565b60405180910390fd5b600860003373ffffffffffffffffffffffffffffffffffffffff1673ffffffffffffffffffffffffffffffffffffffff16815260200190815260200160002060009054906101000a900460ff16610fe2576040517f08c379a0000000000000000000000000000000000000000000000000000000008152600401610fd9906117cd565b60405180910390fd5b600160066000828254610ff5919061194e565b9250508190555060055460065411156110fa576002600760006101000a81548160ff0219169083600381111561102e5761102d611b66565b5b021790555060008054906101000a900473ffffffffffffffffffffffffffffffffffffffff1673ffffffffffffffffffffffffffffffffffffffff1663eaa61dea6040518163ffffffff1660e01b8152600401600060405180830381600087803b15801561109b57600080fd5b505af11580156110af573d6000803e3d6000fd5b505050507f246f97586713cf6803bc7c189486b4345be349cee213b4cae772d5052ab5f059600760009054906101000a900460ff166040516110f19190611730565b60405180910390a15b565b60015481565b6000600381111561111657611115611b66565b5b600760009054906101000a900460ff16600381111561113857611137611b66565b5b14611178576040517f08c379a000000000000000000000000000000000000000000000000000000000815260040161116f906118ed565b60405180910390fd5b600154600160008054906101000a900473ffffffffffffffffffffffffffffffffffffffff1673ffffffffffffffffffffffffffffffffffffffff16636d86b8a56040518163ffffffff1660e01b815260040160206040518083038186803b1580156111e357600080fd5b505afa1580156111f7573d6000803e3d6000fd5b505050506040513d601f19601f8201168201806040525081019061121b9190611491565b61122591906119fe565b1015611266576040517f08c379a000000000000000000000000000000000000000000000000000000000815260040161125d9061186d565b60405180910390fd5b3460008054906101000a900473ffffffffffffffffffffffffffffffffffffffff1673ffffffffffffffffffffffffffffffffffffffff1663a035b1fe6040518163ffffffff1660e01b815260040160206040518083038186803b1580156112cd57600080fd5b505afa1580156112e1573d6000803e3d6000fd5b505050506040513d601f19601f820116820180604052508101906113059190611491565b1115611346576040517f08c379a000000000000000000000000000000000000000000000000000000000815260040161133d9061180d565b60405180910390fd5b6003544211156113c6576002600760006101000a81548160ff0219169083600381111561137657611375611b66565b5b02179055507f246f97586713cf6803bc7c189486b4345be349cee213b4cae772d5052ab5f059600760009054906101000a900460ff166040516113b99190611730565b60405180910390a1611438565b6001600860003373ffffffffffffffffffffffffffffffffffffffff1673ffffffffffffffffffffffffffffffffffffffff16815260200190815260200160002060006101000a81548160ff0219169083151502179055506001806000828254611430919061194e565b925050819055505b565b6000815190506114498161201e565b92915050565b60008151905061145e81612035565b92915050565b60006020828403121561147a57611479611be6565b5b60006114888482850161143a565b91505092915050565b6000602082840312156114a7576114a6611be6565b5b60006114b58482850161144f565b91505092915050565b6114c781611a44565b82525050565b6114d681611a8b565b82525050565b6114e581611a9d565b82525050565b60006114f682611932565b611500818561193d565b9350611510818560208601611ad3565b61151981611beb565b840191505092915050565b600061153160338361193d565b915061153c82611c09565b604082019050919050565b6000611554601b8361193d565b915061155f82611c58565b602082019050919050565b6000611577602d8361193d565b915061158282611c81565b604082019050919050565b600061159a603d8361193d565b91506115a582611cd0565b604082019050919050565b60006115bd60258361193d565b91506115c882611d1f565b604082019050919050565b60006115e060138361193d565b91506115eb82611d6e565b602082019050919050565b6000611603602a8361193d565b915061160e82611d97565b604082019050919050565b600061162660148361193d565b915061163182611de6565b602082019050919050565b6000611649601c8361193d565b915061165482611e0f565b602082019050919050565b600061166c602e8361193d565b915061167782611e38565b604082019050919050565b600061168f60348361193d565b915061169a82611e87565b604082019050919050565b60006116b2604a8361193d565b91506116bd82611ed6565b606082019050919050565b60006116d560118361193d565b91506116e082611f4b565b602082019050919050565b6116f481611a81565b82525050565b600060208201905061170f60008301846114be565b92915050565b600060208201905061172a60008301846114cd565b92915050565b600060208201905061174560008301846114dc565b92915050565b6000602082019050818103600083015261176581846114eb565b905092915050565b6000602082019050818103600083015261178681611524565b9050919050565b600060208201905081810360008301526117a681611547565b9050919050565b600060208201905081810360008301526117c68161156a565b9050919050565b600060208201905081810360008301526117e68161158d565b9050919050565b60006020820190508181036000830152611806816115b0565b9050919050565b60006020820190508181036000830152611826816115d3565b9050919050565b60006020820190508181036000830152611846816115f6565b9050919050565b6000602082019050818103600083015261186681611619565b9050919050565b600060208201905081810360008301526118868161163c565b9050919050565b600060208201905081810360008301526118a68161165f565b9050919050565b600060208201905081810360008301526118c681611682565b9050919050565b600060208201905081810360008301526118e6816116a5565b9050919050565b60006020820190508181036000830152611906816116c8565b9050919050565b600060208201905061192260008301846116eb565b92915050565b6000604051905090565b600081519050919050565b600082825260208201905092915050565b600061195982611a81565b915061196483611a81565b9250827fffffffffffffffffffffffffffffffffffffffffffffffffffffffffffffffff0382111561199957611998611b37565b5b828201905092915050565b60006119af82611a81565b91506119ba83611a81565b9250817fffffffffffffffffffffffffffffffffffffffffffffffffffffffffffffffff04831182151516156119f3576119f2611b37565b5b828202905092915050565b6000611a0982611a81565b9150611a1483611a81565b925082821015611a2757611a26611b37565b5b828203905092915050565b6000611a3d82611a61565b9050919050565b6000819050919050565b6000819050611a5c8261200a565b919050565b600073ffffffffffffffffffffffffffffffffffffffff82169050919050565b6000819050919050565b6000611a9682611aaf565b9050919050565b6000611aa882611a4e565b9050919050565b6000611aba82611ac1565b9050919050565b6000611acc82611a61565b9050919050565b60005b83811015611af1578082015181840152602081019050611ad6565b83811115611b00576000848401525b50505050565b611b0f82611beb565b810181811067ffffffffffffffff82111715611b2e57611b2d611b95565b5b80604052505050565b7f4e487b7100000000000000000000000000000000000000000000000000000000600052601160045260246000fd5b7f4e487b7100000000000000000000000000000000000000000000000000000000600052602160045260246000fd5b7f4e487b7100000000000000000000000000000000000000000000000000000000600052604160045260246000fd5b600060033d1115611be35760046000803e611be0600051611bfc565b90505b90565b600080fd5b6000601f19601f8301169050919050565b60008160e01c9050919050565b7f4f6e6c7920746865206661726d6572206f66207468652070726f64756365206360008201527f616e2072656a65637420746865206f7264657200000000000000000000000000602082015250565b7f6f7264657220686173206e6f74206265656e2072656a65637465640000000000600082015250565b7f637573746f6d657220686173206e6f206f75747374616e64696e672062616c6160008201527f6e636520746f20726566756e6400000000000000000000000000000000000000602082015250565b7f6f6e6c79206d656d62657273206f6620746869732067726f7570206f7264657260008201527f206d617920766f746520746f2072656a65637420746865206f72646572000000602082015250565b7f5468652067726f7570206f7264657220686173206e6f74207965742074696d6560008201527f64206f7574000000000000000000000000000000000000000000000000000000602082015250565b7f6e6f7420656e6f756768207765692073656e7400000000000000000000000000600082015250565b7f6e6f7420656e6f75676820706f7274696f6e206f72646572732068617665206260008201527f65656e20706c6163656400000000000000000000000000000000000000000000602082015250565b7f7374617465206973206e6f742070656e64696e67000000000000000000000000600082015250565b7f77726f6e67206e756d62657220706f7274696f6e732061677265656400000000600082015250565b7f6d656d626572732063616e206f6e6c7920766f746520746f2072656a6563742060008201527f70656e64696e67206f7264657273000000000000000000000000000000000000602082015250565b7f546865206f72646572207374617465206973206e6f74206f70656e2c20736f2060008201527f63616e206e6f742062652074696d6564206f7574000000000000000000000000602082015250565b7f4f6e6c7920746865206661726d6572206f66207468652070726f64756365206360008201527f616e206e6f74696679207468617420746865206f72646572206861732062656560208201527f6e20616363657074656400000000000000000000000000000000000000000000604082015250565b7f7374617465206973206e6f74206f70656e000000000000000000000000000000600082015250565b600060443d1015611f8457612007565b611f8c611928565b60043d036004823e80513d602482011167ffffffffffffffff82111715611fb4575050612007565b808201805167ffffffffffffffff811115611fd25750505050612007565b80602083010160043d038501811115611fef575050505050612007565b611ffe82602001850186611b06565b82955050505050505b90565b6004811061201b5761201a611b66565b5b50565b61202781611a32565b811461203257600080fd5b50565b61203e81611a81565b811461204957600080fd5b5056fea264697066735822122037d07979f88c11b9ecb5b4b1916ef2f3f73d479191ddb14dc57388d4d16c292564736f6c63430008070033",
					"opcodes": "PUSH1 0x80 PUSH1 0x40 MSTORE PUSH1 0x0 PUSH1 0x6 SSTORE CALLVALUE DUP1 ISZERO PUSH3 0x16 JUMPI PUSH1 0x0 DUP1 REVERT JUMPDEST POP PUSH1 0x40 MLOAD PUSH3 0x241F CODESIZE SUB DUP1 PUSH3 0x241F DUP4 CODECOPY DUP2 DUP2 ADD PUSH1 0x40 MSTORE DUP2 ADD SWAP1 PUSH3 0x3C SWAP2 SWAP1 PUSH3 0x17C JUMP JUMPDEST PUSH4 0x47868C0 DUP3 GT PUSH3 0x85 JUMPI PUSH1 0x40 MLOAD PUSH32 0x8C379A000000000000000000000000000000000000000000000000000000000 DUP2 MSTORE PUSH1 0x4 ADD PUSH3 0x7C SWAP1 PUSH3 0x1FF JUMP JUMPDEST PUSH1 0x40 MLOAD DUP1 SWAP2 SUB SWAP1 REVERT JUMPDEST PUSH1 0x0 PUSH1 0x7 PUSH1 0x0 PUSH2 0x100 EXP DUP2 SLOAD DUP2 PUSH1 0xFF MUL NOT AND SWAP1 DUP4 PUSH1 0x3 DUP2 GT ISZERO PUSH3 0xAE JUMPI PUSH3 0xAD PUSH3 0x2FC JUMP JUMPDEST JUMPDEST MUL OR SWAP1 SSTORE POP DUP3 PUSH1 0x0 DUP1 PUSH2 0x100 EXP DUP2 SLOAD DUP2 PUSH20 0xFFFFFFFFFFFFFFFFFFFFFFFFFFFFFFFFFFFFFFFF MUL NOT AND SWAP1 DUP4 PUSH20 0xFFFFFFFFFFFFFFFFFFFFFFFFFFFFFFFFFFFFFFFF AND MUL OR SWAP1 SSTORE POP DUP1 PUSH1 0x5 DUP2 SWAP1 SSTORE POP TIMESTAMP PUSH1 0x2 DUP2 SWAP1 SSTORE POP DUP2 PUSH1 0x2 SLOAD PUSH3 0x111 SWAP2 SWAP1 PUSH3 0x232 JUMP JUMPDEST PUSH1 0x3 DUP2 SWAP1 SSTORE POP PUSH1 0x0 PUSH1 0x7 PUSH1 0x0 PUSH2 0x100 EXP DUP2 SLOAD DUP2 PUSH1 0xFF MUL NOT AND SWAP1 DUP4 PUSH1 0x3 DUP2 GT ISZERO PUSH3 0x140 JUMPI PUSH3 0x13F PUSH3 0x2FC JUMP JUMPDEST JUMPDEST MUL OR SWAP1 SSTORE POP POP POP POP PUSH3 0x38D JUMP JUMPDEST PUSH1 0x0 DUP2 MLOAD SWAP1 POP PUSH3 0x15F DUP2 PUSH3 0x359 JUMP JUMPDEST SWAP3 SWAP2 POP POP JUMP JUMPDEST PUSH1 0x0 DUP2 MLOAD SWAP1 POP PUSH3 0x176 DUP2 PUSH3 0x373 JUMP JUMPDEST SWAP3 SWAP2 POP POP JUMP JUMPDEST PUSH1 0x0 DUP1 PUSH1 0x0 PUSH1 0x60 DUP5 DUP7 SUB SLT ISZERO PUSH3 0x198 JUMPI PUSH3 0x197 PUSH3 0x32B JUMP JUMPDEST JUMPDEST PUSH1 0x0 PUSH3 0x1A8 DUP7 DUP3 DUP8 ADD PUSH3 0x14E JUMP JUMPDEST SWAP4 POP POP PUSH1 0x20 PUSH3 0x1BB DUP7 DUP3 DUP8 ADD PUSH3 0x165 JUMP JUMPDEST SWAP3 POP POP PUSH1 0x40 PUSH3 0x1CE DUP7 DUP3 DUP8 ADD PUSH3 0x165 JUMP JUMPDEST SWAP2 POP POP SWAP3 POP SWAP3 POP SWAP3 JUMP JUMPDEST PUSH1 0x0 PUSH3 0x1E7 PUSH1 0x1A DUP4 PUSH3 0x221 JUMP JUMPDEST SWAP2 POP PUSH3 0x1F4 DUP3 PUSH3 0x330 JUMP JUMPDEST PUSH1 0x20 DUP3 ADD SWAP1 POP SWAP2 SWAP1 POP JUMP JUMPDEST PUSH1 0x0 PUSH1 0x20 DUP3 ADD SWAP1 POP DUP2 DUP2 SUB PUSH1 0x0 DUP4 ADD MSTORE PUSH3 0x21A DUP2 PUSH3 0x1D8 JUMP JUMPDEST SWAP1 POP SWAP2 SWAP1 POP JUMP JUMPDEST PUSH1 0x0 DUP3 DUP3 MSTORE PUSH1 0x20 DUP3 ADD SWAP1 POP SWAP3 SWAP2 POP POP JUMP JUMPDEST PUSH1 0x0 PUSH3 0x23F DUP3 PUSH3 0x2C3 JUMP JUMPDEST SWAP2 POP PUSH3 0x24C DUP4 PUSH3 0x2C3 JUMP JUMPDEST SWAP3 POP DUP3 PUSH32 0xFFFFFFFFFFFFFFFFFFFFFFFFFFFFFFFFFFFFFFFFFFFFFFFFFFFFFFFFFFFFFFFF SUB DUP3 GT ISZERO PUSH3 0x284 JUMPI PUSH3 0x283 PUSH3 0x2CD JUMP JUMPDEST JUMPDEST DUP3 DUP3 ADD SWAP1 POP SWAP3 SWAP2 POP POP JUMP JUMPDEST PUSH1 0x0 PUSH3 0x29C DUP3 PUSH3 0x2A3 JUMP JUMPDEST SWAP1 POP SWAP2 SWAP1 POP JUMP JUMPDEST PUSH1 0x0 PUSH20 0xFFFFFFFFFFFFFFFFFFFFFFFFFFFFFFFFFFFFFFFF DUP3 AND SWAP1 POP SWAP2 SWAP1 POP JUMP JUMPDEST PUSH1 0x0 DUP2 SWAP1 POP SWAP2 SWAP1 POP JUMP JUMPDEST PUSH32 0x4E487B7100000000000000000000000000000000000000000000000000000000 PUSH1 0x0 MSTORE PUSH1 0x11 PUSH1 0x4 MSTORE PUSH1 0x24 PUSH1 0x0 REVERT JUMPDEST PUSH32 0x4E487B7100000000000000000000000000000000000000000000000000000000 PUSH1 0x0 MSTORE PUSH1 0x21 PUSH1 0x4 MSTORE PUSH1 0x24 PUSH1 0x0 REVERT JUMPDEST PUSH1 0x0 DUP1 REVERT JUMPDEST PUSH32 0x74696D65206C696D6974206E6F74206869676820656E6F756768000000000000 PUSH1 0x0 DUP3 ADD MSTORE POP JUMP JUMPDEST PUSH3 0x364 DUP2 PUSH3 0x28F JUMP JUMPDEST DUP2 EQ PUSH3 0x370 JUMPI PUSH1 0x0 DUP1 REVERT JUMPDEST POP JUMP JUMPDEST PUSH3 0x37E DUP2 PUSH3 0x2C3 JUMP JUMPDEST DUP2 EQ PUSH3 0x38A JUMPI PUSH1 0x0 DUP1 REVERT JUMPDEST POP JUMP JUMPDEST PUSH2 0x2082 DUP1 PUSH3 0x39D PUSH1 0x0 CODECOPY PUSH1 0x0 RETURN INVALID PUSH1 0x80 PUSH1 0x40 MSTORE PUSH1 0x4 CALLDATASIZE LT PUSH2 0xF2 JUMPI PUSH1 0x0 CALLDATALOAD PUSH1 0xE0 SHR DUP1 PUSH4 0x5F29A5EE GT PUSH2 0x8A JUMPI DUP1 PUSH4 0xD008902C GT PUSH2 0x59 JUMPI DUP1 PUSH4 0xD008902C EQ PUSH2 0x297 JUMPI DUP1 PUSH4 0xDD5A00A7 EQ PUSH2 0x2C2 JUMPI DUP1 PUSH4 0xF56B3AD5 EQ PUSH2 0x2D9 JUMPI DUP1 PUSH4 0xF5C609E0 EQ PUSH2 0x304 JUMPI PUSH2 0xF2 JUMP JUMPDEST DUP1 PUSH4 0x5F29A5EE EQ PUSH2 0x1FF JUMPI DUP1 PUSH4 0x656B9952 EQ PUSH2 0x216 JUMPI DUP1 PUSH4 0x78E97925 EQ PUSH2 0x241 JUMPI DUP1 PUSH4 0xC19D93FB EQ PUSH2 0x26C JUMPI PUSH2 0xF2 JUMP JUMPDEST DUP1 PUSH4 0x3197CBB6 GT PUSH2 0xC6 JUMPI DUP1 PUSH4 0x3197CBB6 EQ PUSH2 0x17B JUMPI DUP1 PUSH4 0x409B509D EQ PUSH2 0x1A6 JUMPI DUP1 PUSH4 0x40C78E98 EQ PUSH2 0x1BD JUMPI DUP1 PUSH4 0x4B436AE6 EQ PUSH2 0x1D4 JUMPI PUSH2 0xF2 JUMP JUMPDEST DUP1 PUSH3 0xB2D43B EQ PUSH2 0xF7 JUMPI DUP1 PUSH4 0x13FC80D3 EQ PUSH2 0x122 JUMPI DUP1 PUSH4 0x18491F0C EQ PUSH2 0x139 JUMPI DUP1 PUSH4 0x24600FC3 EQ PUSH2 0x164 JUMPI JUMPDEST PUSH1 0x0 DUP1 REVERT JUMPDEST CALLVALUE DUP1 ISZERO PUSH2 0x103 JUMPI PUSH1 0x0 DUP1 REVERT JUMPDEST POP PUSH2 0x10C PUSH2 0x30E JUMP JUMPDEST PUSH1 0x40 MLOAD PUSH2 0x119 SWAP2 SWAP1 PUSH2 0x190D JUMP JUMPDEST PUSH1 0x40 MLOAD DUP1 SWAP2 SUB SWAP1 RETURN JUMPDEST CALLVALUE DUP1 ISZERO PUSH2 0x12E JUMPI PUSH1 0x0 DUP1 REVERT JUMPDEST POP PUSH2 0x137 PUSH2 0x316 JUMP JUMPDEST STOP JUMPDEST CALLVALUE DUP1 ISZERO PUSH2 0x145 JUMPI PUSH1 0x0 DUP1 REVERT JUMPDEST POP PUSH2 0x14E PUSH2 0x6E2 JUMP JUMPDEST PUSH1 0x40 MLOAD PUSH2 0x15B SWAP2 SWAP1 PUSH2 0x16FA JUMP JUMPDEST PUSH1 0x40 MLOAD DUP1 SWAP2 SUB SWAP1 RETURN JUMPDEST CALLVALUE DUP1 ISZERO PUSH2 0x170 JUMPI PUSH1 0x0 DUP1 REVERT JUMPDEST POP PUSH2 0x179 PUSH2 0x6E8 JUMP JUMPDEST STOP JUMPDEST CALLVALUE DUP1 ISZERO PUSH2 0x187 JUMPI PUSH1 0x0 DUP1 REVERT JUMPDEST POP PUSH2 0x190 PUSH2 0x928 JUMP JUMPDEST PUSH1 0x40 MLOAD PUSH2 0x19D SWAP2 SWAP1 PUSH2 0x190D JUMP JUMPDEST PUSH1 0x40 MLOAD DUP1 SWAP2 SUB SWAP1 RETURN JUMPDEST CALLVALUE DUP1 ISZERO PUSH2 0x1B2 JUMPI PUSH1 0x0 DUP1 REVERT JUMPDEST POP PUSH2 0x1BB PUSH2 0x92E JUMP JUMPDEST STOP JUMPDEST CALLVALUE DUP1 ISZERO PUSH2 0x1C9 JUMPI PUSH1 0x0 DUP1 REVERT JUMPDEST POP PUSH2 0x1D2 PUSH2 0xB76 JUMP JUMPDEST STOP JUMPDEST CALLVALUE DUP1 ISZERO PUSH2 0x1E0 JUMPI PUSH1 0x0 DUP1 REVERT JUMPDEST POP PUSH2 0x1E9 PUSH2 0xCA3 JUMP JUMPDEST PUSH1 0x40 MLOAD PUSH2 0x1F6 SWAP2 SWAP1 PUSH2 0x190D JUMP JUMPDEST PUSH1 0x40 MLOAD DUP1 SWAP2 SUB SWAP1 RETURN JUMPDEST CALLVALUE DUP1 ISZERO PUSH2 0x20B JUMPI PUSH1 0x0 DUP1 REVERT JUMPDEST POP PUSH2 0x214 PUSH2 0xCA9 JUMP JUMPDEST STOP JUMPDEST CALLVALUE DUP1 ISZERO PUSH2 0x222 JUMPI PUSH1 0x0 DUP1 REVERT JUMPDEST POP PUSH2 0x22B PUSH2 0xE9D JUMP JUMPDEST PUSH1 0x40 MLOAD PUSH2 0x238 SWAP2 SWAP1 PUSH2 0x1715 JUMP JUMPDEST PUSH1 0x40 MLOAD DUP1 SWAP2 SUB SWAP1 RETURN JUMPDEST CALLVALUE DUP1 ISZERO PUSH2 0x24D JUMPI PUSH1 0x0 DUP1 REVERT JUMPDEST POP PUSH2 0x256 PUSH2 0xEC1 JUMP JUMPDEST PUSH1 0x40 MLOAD PUSH2 0x263 SWAP2 SWAP1 PUSH2 0x190D JUMP JUMPDEST PUSH1 0x40 MLOAD DUP1 SWAP2 SUB SWAP1 RETURN JUMPDEST CALLVALUE DUP1 ISZERO PUSH2 0x278 JUMPI PUSH1 0x0 DUP1 REVERT JUMPDEST POP PUSH2 0x281 PUSH2 0xEC7 JUMP JUMPDEST PUSH1 0x40 MLOAD PUSH2 0x28E SWAP2 SWAP1 PUSH2 0x1730 JUMP JUMPDEST PUSH1 0x40 MLOAD DUP1 SWAP2 SUB SWAP1 RETURN JUMPDEST CALLVALUE DUP1 ISZERO PUSH2 0x2A3 JUMPI PUSH1 0x0 DUP1 REVERT JUMPDEST POP PUSH2 0x2AC PUSH2 0xEDA JUMP JUMPDEST PUSH1 0x40 MLOAD PUSH2 0x2B9 SWAP2 SWAP1 PUSH2 0x190D JUMP JUMPDEST PUSH1 0x40 MLOAD DUP1 SWAP2 SUB SWAP1 RETURN JUMPDEST CALLVALUE DUP1 ISZERO PUSH2 0x2CE JUMPI PUSH1 0x0 DUP1 REVERT JUMPDEST POP PUSH2 0x2D7 PUSH2 0xEE0 JUMP JUMPDEST STOP JUMPDEST CALLVALUE DUP1 ISZERO PUSH2 0x2E5 JUMPI PUSH1 0x0 DUP1 REVERT JUMPDEST POP PUSH2 0x2EE PUSH2 0x10FC JUMP JUMPDEST PUSH1 0x40 MLOAD PUSH2 0x2FB SWAP2 SWAP1 PUSH2 0x190D JUMP JUMPDEST PUSH1 0x40 MLOAD DUP1 SWAP2 SUB SWAP1 RETURN JUMPDEST PUSH2 0x30C PUSH2 0x1102 JUMP JUMPDEST STOP JUMPDEST PUSH4 0x47868C0 DUP2 JUMP JUMPDEST PUSH1 0x1 PUSH1 0x3 DUP2 GT ISZERO PUSH2 0x32A JUMPI PUSH2 0x329 PUSH2 0x1B66 JUMP JUMPDEST JUMPDEST PUSH1 0x7 PUSH1 0x0 SWAP1 SLOAD SWAP1 PUSH2 0x100 EXP SWAP1 DIV PUSH1 0xFF AND PUSH1 0x3 DUP2 GT ISZERO PUSH2 0x34C JUMPI PUSH2 0x34B PUSH2 0x1B66 JUMP JUMPDEST JUMPDEST EQ PUSH2 0x356 JUMPI PUSH1 0x0 DUP1 REVERT JUMPDEST PUSH1 0x0 DUP1 SLOAD SWAP1 PUSH2 0x100 EXP SWAP1 DIV PUSH20 0xFFFFFFFFFFFFFFFFFFFFFFFFFFFFFFFFFFFFFFFF AND PUSH20 0xFFFFFFFFFFFFFFFFFFFFFFFFFFFFFFFFFFFFFFFF AND PUSH4 0x8DA5CB5B PUSH1 0x40 MLOAD DUP2 PUSH4 0xFFFFFFFF AND PUSH1 0xE0 SHL DUP2 MSTORE PUSH1 0x4 ADD PUSH1 0x20 PUSH1 0x40 MLOAD DUP1 DUP4 SUB DUP2 DUP7 DUP1 EXTCODESIZE ISZERO DUP1 ISZERO PUSH2 0x3BC JUMPI PUSH1 0x0 DUP1 REVERT JUMPDEST POP GAS STATICCALL ISZERO DUP1 ISZERO PUSH2 0x3D0 JUMPI RETURNDATASIZE PUSH1 0x0 DUP1 RETURNDATACOPY RETURNDATASIZE PUSH1 0x0 REVERT JUMPDEST POP POP POP POP PUSH1 0x40 MLOAD RETURNDATASIZE PUSH1 0x1F NOT PUSH1 0x1F DUP3 ADD AND DUP3 ADD DUP1 PUSH1 0x40 MSTORE POP DUP2 ADD SWAP1 PUSH2 0x3F4 SWAP2 SWAP1 PUSH2 0x1464 JUMP JUMPDEST PUSH20 0xFFFFFFFFFFFFFFFFFFFFFFFFFFFFFFFFFFFFFFFF AND CALLER PUSH20 0xFFFFFFFFFFFFFFFFFFFFFFFFFFFFFFFFFFFFFFFF AND EQ PUSH2 0x461 JUMPI PUSH1 0x40 MLOAD PUSH32 0x8C379A000000000000000000000000000000000000000000000000000000000 DUP2 MSTORE PUSH1 0x4 ADD PUSH2 0x458 SWAP1 PUSH2 0x18CD JUMP JUMPDEST PUSH1 0x40 MLOAD DUP1 SWAP2 SUB SWAP1 REVERT JUMPDEST PUSH1 0x3 PUSH1 0x7 PUSH1 0x0 PUSH2 0x100 EXP DUP2 SLOAD DUP2 PUSH1 0xFF MUL NOT AND SWAP1 DUP4 PUSH1 0x3 DUP2 GT ISZERO PUSH2 0x487 JUMPI PUSH2 0x486 PUSH2 0x1B66 JUMP JUMPDEST JUMPDEST MUL OR SWAP1 SSTORE POP PUSH1 0x0 DUP1 SLOAD SWAP1 PUSH2 0x100 EXP SWAP1 DIV PUSH20 0xFFFFFFFFFFFFFFFFFFFFFFFFFFFFFFFFFFFFFFFF AND PUSH20 0xFFFFFFFFFFFFFFFFFFFFFFFFFFFFFFFFFFFFFFFF AND PUSH4 0xEAA61DEA PUSH1 0x40 MLOAD DUP2 PUSH4 0xFFFFFFFF AND PUSH1 0xE0 SHL DUP2 MSTORE PUSH1 0x4 ADD PUSH1 0x0 PUSH1 0x40 MLOAD DUP1 DUP4 SUB DUP2 PUSH1 0x0 DUP8 DUP1 EXTCODESIZE ISZERO DUP1 ISZERO PUSH2 0x4F4 JUMPI PUSH1 0x0 DUP1 REVERT JUMPDEST POP GAS CALL ISZERO DUP1 ISZERO PUSH2 0x508 JUMPI RETURNDATASIZE PUSH1 0x0 DUP1 RETURNDATACOPY RETURNDATASIZE PUSH1 0x0 REVERT JUMPDEST POP POP POP POP PUSH32 0x246F97586713CF6803BC7C189486B4345BE349CEE213B4CAE772D5052AB5F059 PUSH1 0x7 PUSH1 0x0 SWAP1 SLOAD SWAP1 PUSH2 0x100 EXP SWAP1 DIV PUSH1 0xFF AND PUSH1 0x40 MLOAD PUSH2 0x54A SWAP2 SWAP1 PUSH2 0x1730 JUMP JUMPDEST PUSH1 0x40 MLOAD DUP1 SWAP2 SUB SWAP1 LOG1 PUSH1 0x0 DUP1 SLOAD SWAP1 PUSH2 0x100 EXP SWAP1 DIV PUSH20 0xFFFFFFFFFFFFFFFFFFFFFFFFFFFFFFFFFFFFFFFF AND PUSH20 0xFFFFFFFFFFFFFFFFFFFFFFFFFFFFFFFFFFFFFFFF AND PUSH4 0x8DA5CB5B PUSH1 0x40 MLOAD DUP2 PUSH4 0xFFFFFFFF AND PUSH1 0xE0 SHL DUP2 MSTORE PUSH1 0x4 ADD PUSH1 0x20 PUSH1 0x40 MLOAD DUP1 DUP4 SUB DUP2 DUP7 DUP1 EXTCODESIZE ISZERO DUP1 ISZERO PUSH2 0x5B8 JUMPI PUSH1 0x0 DUP1 REVERT JUMPDEST POP GAS STATICCALL ISZERO DUP1 ISZERO PUSH2 0x5CC JUMPI RETURNDATASIZE PUSH1 0x0 DUP1 RETURNDATACOPY RETURNDATASIZE PUSH1 0x0 REVERT JUMPDEST POP POP POP POP PUSH1 0x40 MLOAD RETURNDATASIZE PUSH1 0x1F NOT PUSH1 0x1F DUP3 ADD AND DUP3 ADD DUP1 PUSH1 0x40 MSTORE POP DUP2 ADD SWAP1 PUSH2 0x5F0 SWAP2 SWAP1 PUSH2 0x1464 JUMP JUMPDEST PUSH20 0xFFFFFFFFFFFFFFFFFFFFFFFFFFFFFFFFFFFFFFFF AND PUSH2 0x8FC PUSH1 0x0 DUP1 SLOAD SWAP1 PUSH2 0x100 EXP SWAP1 DIV PUSH20 0xFFFFFFFFFFFFFFFFFFFFFFFFFFFFFFFFFFFFFFFF AND PUSH20 0xFFFFFFFFFFFFFFFFFFFFFFFFFFFFFFFFFFFFFFFF AND PUSH4 0xA035B1FE PUSH1 0x40 MLOAD DUP2 PUSH4 0xFFFFFFFF AND PUSH1 0xE0 SHL DUP2 MSTORE PUSH1 0x4 ADD PUSH1 0x20 PUSH1 0x40 MLOAD DUP1 DUP4 SUB DUP2 DUP7 DUP1 EXTCODESIZE ISZERO DUP1 ISZERO PUSH2 0x66F JUMPI PUSH1 0x0 DUP1 REVERT JUMPDEST POP GAS STATICCALL ISZERO DUP1 ISZERO PUSH2 0x683 JUMPI RETURNDATASIZE PUSH1 0x0 DUP1 RETURNDATACOPY RETURNDATASIZE PUSH1 0x0 REVERT JUMPDEST POP POP POP POP PUSH1 0x40 MLOAD RETURNDATASIZE PUSH1 0x1F NOT PUSH1 0x1F DUP3 ADD AND DUP3 ADD DUP1 PUSH1 0x40 MSTORE POP DUP2 ADD SWAP1 PUSH2 0x6A7 SWAP2 SWAP1 PUSH2 0x1491 JUMP JUMPDEST PUSH1 0x1 SLOAD PUSH2 0x6B4 SWAP2 SWAP1 PUSH2 0x19A4 JUMP JUMPDEST SWAP1 DUP2 ISZERO MUL SWAP1 PUSH1 0x40 MLOAD PUSH1 0x0 PUSH1 0x40 MLOAD DUP1 DUP4 SUB DUP2 DUP6 DUP9 DUP9 CALL SWAP4 POP POP POP POP ISZERO DUP1 ISZERO PUSH2 0x6DF JUMPI RETURNDATASIZE PUSH1 0x0 DUP1 RETURNDATACOPY RETURNDATASIZE PUSH1 0x0 REVERT JUMPDEST POP JUMP JUMPDEST PUSH1 0x4 SLOAD DUP2 JUMP JUMPDEST PUSH1 0x2 PUSH1 0x3 DUP2 GT ISZERO PUSH2 0x6FC JUMPI PUSH2 0x6FB PUSH2 0x1B66 JUMP JUMPDEST JUMPDEST PUSH1 0x7 PUSH1 0x0 SWAP1 SLOAD SWAP1 PUSH2 0x100 EXP SWAP1 DIV PUSH1 0xFF AND PUSH1 0x3 DUP2 GT ISZERO PUSH2 0x71E JUMPI PUSH2 0x71D PUSH2 0x1B66 JUMP JUMPDEST JUMPDEST EQ PUSH2 0x75E JUMPI PUSH1 0x40 MLOAD PUSH32 0x8C379A000000000000000000000000000000000000000000000000000000000 DUP2 MSTORE PUSH1 0x4 ADD PUSH2 0x755 SWAP1 PUSH2 0x178D JUMP JUMPDEST PUSH1 0x40 MLOAD DUP1 SWAP2 SUB SWAP1 REVERT JUMPDEST PUSH1 0x8 PUSH1 0x0 CALLER PUSH20 0xFFFFFFFFFFFFFFFFFFFFFFFFFFFFFFFFFFFFFFFF AND PUSH20 0xFFFFFFFFFFFFFFFFFFFFFFFFFFFFFFFFFFFFFFFF AND DUP2 MSTORE PUSH1 0x20 ADD SWAP1 DUP2 MSTORE PUSH1 0x20 ADD PUSH1 0x0 KECCAK256 PUSH1 0x0 SWAP1 SLOAD SWAP1 PUSH2 0x100 EXP SWAP1 DIV PUSH1 0xFF AND PUSH2 0x7EA JUMPI PUSH1 0x40 MLOAD PUSH32 0x8C379A000000000000000000000000000000000000000000000000000000000 DUP2 MSTORE PUSH1 0x4 ADD PUSH2 0x7E1 SWAP1 PUSH2 0x17AD JUMP JUMPDEST PUSH1 0x40 MLOAD DUP1 SWAP2 SUB SWAP1 REVERT JUMPDEST PUSH1 0x0 PUSH1 0x8 PUSH1 0x0 CALLER PUSH20 0xFFFFFFFFFFFFFFFFFFFFFFFFFFFFFFFFFFFFFFFF AND PUSH20 0xFFFFFFFFFFFFFFFFFFFFFFFFFFFFFFFFFFFFFFFF AND DUP2 MSTORE PUSH1 0x20 ADD SWAP1 DUP2 MSTORE PUSH1 0x20 ADD PUSH1 0x0 KECCAK256 PUSH1 0x0 PUSH2 0x100 EXP DUP2 SLOAD DUP2 PUSH1 0xFF MUL NOT AND SWAP1 DUP4 ISZERO ISZERO MUL OR SWAP1 SSTORE POP CALLER PUSH20 0xFFFFFFFFFFFFFFFFFFFFFFFFFFFFFFFFFFFFFFFF AND PUSH2 0x8FC PUSH1 0x0 DUP1 SLOAD SWAP1 PUSH2 0x100 EXP SWAP1 DIV PUSH20 0xFFFFFFFFFFFFFFFFFFFFFFFFFFFFFFFFFFFFFFFF AND PUSH20 0xFFFFFFFFFFFFFFFFFFFFFFFFFFFFFFFFFFFFFFFF AND PUSH4 0xA035B1FE PUSH1 0x40 MLOAD DUP2 PUSH4 0xFFFFFFFF AND PUSH1 0xE0 SHL DUP2 MSTORE PUSH1 0x4 ADD PUSH1 0x20 PUSH1 0x40 MLOAD DUP1 DUP4 SUB DUP2 DUP7 DUP1 EXTCODESIZE ISZERO DUP1 ISZERO PUSH2 0x8C2 JUMPI PUSH1 0x0 DUP1 REVERT JUMPDEST POP GAS STATICCALL ISZERO DUP1 ISZERO PUSH2 0x8D6 JUMPI RETURNDATASIZE PUSH1 0x0 DUP1 RETURNDATACOPY RETURNDATASIZE PUSH1 0x0 REVERT JUMPDEST POP POP POP POP PUSH1 0x40 MLOAD RETURNDATASIZE PUSH1 0x1F NOT PUSH1 0x1F DUP3 ADD AND DUP3 ADD DUP1 PUSH1 0x40 MSTORE POP DUP2 ADD SWAP1 PUSH2 0x8FA SWAP2 SWAP1 PUSH2 0x1491 JUMP JUMPDEST SWAP1 DUP2 ISZERO MUL SWAP1 PUSH1 0x40 MLOAD PUSH1 0x0 PUSH1 0x40 MLOAD DUP1 DUP4 SUB DUP2 DUP6 DUP9 DUP9 CALL SWAP4 POP POP POP POP ISZERO DUP1 ISZERO PUSH2 0x925 JUMPI RETURNDATASIZE PUSH1 0x0 DUP1 RETURNDATACOPY RETURNDATASIZE PUSH1 0x0 REVERT JUMPDEST POP JUMP JUMPDEST PUSH1 0x3 SLOAD DUP2 JUMP JUMPDEST PUSH1 0x0 DUP1 SLOAD SWAP1 PUSH2 0x100 EXP SWAP1 DIV PUSH20 0xFFFFFFFFFFFFFFFFFFFFFFFFFFFFFFFFFFFFFFFF AND PUSH20 0xFFFFFFFFFFFFFFFFFFFFFFFFFFFFFFFFFFFFFFFF AND PUSH4 0x6D86B8A5 PUSH1 0x40 MLOAD DUP2 PUSH4 0xFFFFFFFF AND PUSH1 0xE0 SHL DUP2 MSTORE PUSH1 0x4 ADD PUSH1 0x20 PUSH1 0x40 MLOAD DUP1 DUP4 SUB DUP2 DUP7 DUP1 EXTCODESIZE ISZERO DUP1 ISZERO PUSH2 0x994 JUMPI PUSH1 0x0 DUP1 REVERT JUMPDEST POP GAS STATICCALL ISZERO DUP1 ISZERO PUSH2 0x9A8 JUMPI RETURNDATASIZE PUSH1 0x0 DUP1 RETURNDATACOPY RETURNDATASIZE PUSH1 0x0 REVERT JUMPDEST POP POP POP POP PUSH1 0x40 MLOAD RETURNDATASIZE PUSH1 0x1F NOT PUSH1 0x1F DUP3 ADD AND DUP3 ADD DUP1 PUSH1 0x40 MSTORE POP DUP2 ADD SWAP1 PUSH2 0x9CC SWAP2 SWAP1 PUSH2 0x1491 JUMP JUMPDEST PUSH1 0x1 SLOAD EQ PUSH2 0xA0F JUMPI PUSH1 0x40 MLOAD PUSH32 0x8C379A000000000000000000000000000000000000000000000000000000000 DUP2 MSTORE PUSH1 0x4 ADD PUSH2 0xA06 SWAP1 PUSH2 0x182D JUMP JUMPDEST PUSH1 0x40 MLOAD DUP1 SWAP2 SUB SWAP1 REVERT JUMPDEST PUSH1 0x0 DUP1 SLOAD SWAP1 PUSH2 0x100 EXP SWAP1 DIV PUSH20 0xFFFFFFFFFFFFFFFFFFFFFFFFFFFFFFFFFFFFFFFF AND PUSH20 0xFFFFFFFFFFFFFFFFFFFFFFFFFFFFFFFFFFFFFFFF AND PUSH4 0xF5C609E0 PUSH1 0x40 MLOAD DUP2 PUSH4 0xFFFFFFFF AND PUSH1 0xE0 SHL DUP2 MSTORE PUSH1 0x4 ADD PUSH1 0x0 PUSH1 0x40 MLOAD DUP1 DUP4 SUB DUP2 PUSH1 0x0 DUP8 DUP1 EXTCODESIZE ISZERO DUP1 ISZERO PUSH2 0xA77 JUMPI PUSH1 0x0 DUP1 REVERT JUMPDEST POP GAS CALL SWAP3 POP POP POP DUP1 ISZERO PUSH2 0xA88 JUMPI POP PUSH1 0x1 JUMPDEST PUSH2 0xB02 JUMPI PUSH2 0xA94 PUSH2 0x1BC4 JUMP JUMPDEST DUP1 PUSH4 0x8C379A0 EQ ISZERO PUSH2 0xAF1 JUMPI POP PUSH2 0xAA9 PUSH2 0x1F74 JUMP JUMPDEST DUP1 PUSH2 0xAB4 JUMPI POP PUSH2 0xAF3 JUMP JUMPDEST PUSH32 0x33222BAE2FF20E6FE48A14A7C1EF3EB4CCA76359E8E5BF7B877CC3CD76D2FFB3 DUP2 PUSH1 0x40 MLOAD PUSH2 0xAE3 SWAP2 SWAP1 PUSH2 0x174B JUMP JUMPDEST PUSH1 0x40 MLOAD DUP1 SWAP2 SUB SWAP1 LOG1 POP PUSH2 0xAFD JUMP JUMPDEST POP JUMPDEST RETURNDATASIZE PUSH1 0x0 DUP1 RETURNDATACOPY RETURNDATASIZE PUSH1 0x0 REVERT JUMPDEST PUSH2 0xB74 JUMP JUMPDEST PUSH1 0x1 PUSH1 0x7 PUSH1 0x0 PUSH2 0x100 EXP DUP2 SLOAD DUP2 PUSH1 0xFF MUL NOT AND SWAP1 DUP4 PUSH1 0x3 DUP2 GT ISZERO PUSH2 0xB28 JUMPI PUSH2 0xB27 PUSH2 0x1B66 JUMP JUMPDEST JUMPDEST MUL OR SWAP1 SSTORE POP PUSH32 0x246F97586713CF6803BC7C189486B4345BE349CEE213B4CAE772D5052AB5F059 PUSH1 0x7 PUSH1 0x0 SWAP1 SLOAD SWAP1 PUSH2 0x100 EXP SWAP1 DIV PUSH1 0xFF AND PUSH1 0x40 MLOAD PUSH2 0xB6B SWAP2 SWAP1 PUSH2 0x1730 JUMP JUMPDEST PUSH1 0x40 MLOAD DUP1 SWAP2 SUB SWAP1 LOG1 JUMPDEST JUMP JUMPDEST PUSH1 0x0 PUSH1 0x3 DUP2 GT ISZERO PUSH2 0xB8A JUMPI PUSH2 0xB89 PUSH2 0x1B66 JUMP JUMPDEST JUMPDEST PUSH1 0x7 PUSH1 0x0 SWAP1 SLOAD SWAP1 PUSH2 0x100 EXP SWAP1 DIV PUSH1 0xFF AND PUSH1 0x3 DUP2 GT ISZERO PUSH2 0xBAC JUMPI PUSH2 0xBAB PUSH2 0x1B66 JUMP JUMPDEST JUMPDEST EQ PUSH2 0xBEC JUMPI PUSH1 0x40 MLOAD PUSH32 0x8C379A000000000000000000000000000000000000000000000000000000000 DUP2 MSTORE PUSH1 0x4 ADD PUSH2 0xBE3 SWAP1 PUSH2 0x18AD JUMP JUMPDEST PUSH1 0x40 MLOAD DUP1 SWAP2 SUB SWAP1 REVERT JUMPDEST PUSH1 0x3 SLOAD TIMESTAMP GT PUSH2 0xC30 JUMPI PUSH1 0x40 MLOAD PUSH32 0x8C379A000000000000000000000000000000000000000000000000000000000 DUP2 MSTORE PUSH1 0x4 ADD PUSH2 0xC27 SWAP1 PUSH2 0x17ED JUMP JUMPDEST PUSH1 0x40 MLOAD DUP1 SWAP2 SUB SWAP1 REVERT JUMPDEST PUSH1 0x2 PUSH1 0x7 PUSH1 0x0 PUSH2 0x100 EXP DUP2 SLOAD DUP2 PUSH1 0xFF MUL NOT AND SWAP1 DUP4 PUSH1 0x3 DUP2 GT ISZERO PUSH2 0xC56 JUMPI PUSH2 0xC55 PUSH2 0x1B66 JUMP JUMPDEST JUMPDEST MUL OR SWAP1 SSTORE POP PUSH32 0x246F97586713CF6803BC7C189486B4345BE349CEE213B4CAE772D5052AB5F059 PUSH1 0x7 PUSH1 0x0 SWAP1 SLOAD SWAP1 PUSH2 0x100 EXP SWAP1 DIV PUSH1 0xFF AND PUSH1 0x40 MLOAD PUSH2 0xC99 SWAP2 SWAP1 PUSH2 0x1730 JUMP JUMPDEST PUSH1 0x40 MLOAD DUP1 SWAP2 SUB SWAP1 LOG1 JUMP JUMPDEST PUSH1 0x6 SLOAD DUP2 JUMP JUMPDEST PUSH1 0x1 PUSH1 0x3 DUP2 GT ISZERO PUSH2 0xCBD JUMPI PUSH2 0xCBC PUSH2 0x1B66 JUMP JUMPDEST JUMPDEST PUSH1 0x7 PUSH1 0x0 SWAP1 SLOAD SWAP1 PUSH2 0x100 EXP SWAP1 DIV PUSH1 0xFF AND PUSH1 0x3 DUP2 GT ISZERO PUSH2 0xCDF JUMPI PUSH2 0xCDE PUSH2 0x1B66 JUMP JUMPDEST JUMPDEST EQ PUSH2 0xD1F JUMPI PUSH1 0x40 MLOAD PUSH32 0x8C379A000000000000000000000000000000000000000000000000000000000 DUP2 MSTORE PUSH1 0x4 ADD PUSH2 0xD16 SWAP1 PUSH2 0x184D JUMP JUMPDEST PUSH1 0x40 MLOAD DUP1 SWAP2 SUB SWAP1 REVERT JUMPDEST PUSH1 0x0 DUP1 SLOAD SWAP1 PUSH2 0x100 EXP SWAP1 DIV PUSH20 0xFFFFFFFFFFFFFFFFFFFFFFFFFFFFFFFFFFFFFFFF AND PUSH20 0xFFFFFFFFFFFFFFFFFFFFFFFFFFFFFFFFFFFFFFFF AND PUSH4 0x8DA5CB5B PUSH1 0x40 MLOAD DUP2 PUSH4 0xFFFFFFFF AND PUSH1 0xE0 SHL DUP2 MSTORE PUSH1 0x4 ADD PUSH1 0x20 PUSH1 0x40 MLOAD DUP1 DUP4 SUB DUP2 DUP7 DUP1 EXTCODESIZE ISZERO DUP1 ISZERO PUSH2 0xD85 JUMPI PUSH1 0x0 DUP1 REVERT JUMPDEST POP GAS STATICCALL ISZERO DUP1 ISZERO PUSH2 0xD99 JUMPI RETURNDATASIZE PUSH1 0x0 DUP1 RETURNDATACOPY RETURNDATASIZE PUSH1 0x0 REVERT JUMPDEST POP POP POP POP PUSH1 0x40 MLOAD RETURNDATASIZE PUSH1 0x1F NOT PUSH1 0x1F DUP3 ADD AND DUP3 ADD DUP1 PUSH1 0x40 MSTORE POP DUP2 ADD SWAP1 PUSH2 0xDBD SWAP2 SWAP1 PUSH2 0x1464 JUMP JUMPDEST PUSH20 0xFFFFFFFFFFFFFFFFFFFFFFFFFFFFFFFFFFFFFFFF AND CALLER PUSH20 0xFFFFFFFFFFFFFFFFFFFFFFFFFFFFFFFFFFFFFFFF AND EQ PUSH2 0xE2A JUMPI PUSH1 0x40 MLOAD PUSH32 0x8C379A000000000000000000000000000000000000000000000000000000000 DUP2 MSTORE PUSH1 0x4 ADD PUSH2 0xE21 SWAP1 PUSH2 0x176D JUMP JUMPDEST PUSH1 0x40 MLOAD DUP1 SWAP2 SUB SWAP1 REVERT JUMPDEST PUSH1 0x2 PUSH1 0x7 PUSH1 0x0 PUSH2 0x100 EXP DUP2 SLOAD DUP2 PUSH1 0xFF MUL NOT AND SWAP1 DUP4 PUSH1 0x3 DUP2 GT ISZERO PUSH2 0xE50 JUMPI PUSH2 0xE4F PUSH2 0x1B66 JUMP JUMPDEST JUMPDEST MUL OR SWAP1 SSTORE POP PUSH32 0x246F97586713CF6803BC7C189486B4345BE349CEE213B4CAE772D5052AB5F059 PUSH1 0x7 PUSH1 0x0 SWAP1 SLOAD SWAP1 PUSH2 0x100 EXP SWAP1 DIV PUSH1 0xFF AND PUSH1 0x40 MLOAD PUSH2 0xE93 SWAP2 SWAP1 PUSH2 0x1730 JUMP JUMPDEST PUSH1 0x40 MLOAD DUP1 SWAP2 SUB SWAP1 LOG1 JUMP JUMPDEST PUSH1 0x0 DUP1 SLOAD SWAP1 PUSH2 0x100 EXP SWAP1 DIV PUSH20 0xFFFFFFFFFFFFFFFFFFFFFFFFFFFFFFFFFFFFFFFF AND DUP2 JUMP JUMPDEST PUSH1 0x2 SLOAD DUP2 JUMP JUMPDEST PUSH1 0x7 PUSH1 0x0 SWAP1 SLOAD SWAP1 PUSH2 0x100 EXP SWAP1 DIV PUSH1 0xFF AND DUP2 JUMP JUMPDEST PUSH1 0x5 SLOAD DUP2 JUMP JUMPDEST PUSH1 0x1 PUSH1 0x3 DUP2 GT ISZERO PUSH2 0xEF4 JUMPI PUSH2 0xEF3 PUSH2 0x1B66 JUMP JUMPDEST JUMPDEST PUSH1 0x7 PUSH1 0x0 SWAP1 SLOAD SWAP1 PUSH2 0x100 EXP SWAP1 DIV PUSH1 0xFF AND PUSH1 0x3 DUP2 GT ISZERO PUSH2 0xF16 JUMPI PUSH2 0xF15 PUSH2 0x1B66 JUMP JUMPDEST JUMPDEST EQ PUSH2 0xF56 JUMPI PUSH1 0x40 MLOAD PUSH32 0x8C379A000000000000000000000000000000000000000000000000000000000 DUP2 MSTORE PUSH1 0x4 ADD PUSH2 0xF4D SWAP1 PUSH2 0x188D JUMP JUMPDEST PUSH1 0x40 MLOAD DUP1 SWAP2 SUB SWAP1 REVERT JUMPDEST PUSH1 0x8 PUSH1 0x0 CALLER PUSH20 0xFFFFFFFFFFFFFFFFFFFFFFFFFFFFFFFFFFFFFFFF AND PUSH20 0xFFFFFFFFFFFFFFFFFFFFFFFFFFFFFFFFFFFFFFFF AND DUP2 MSTORE PUSH1 0x20 ADD SWAP1 DUP2 MSTORE PUSH1 0x20 ADD PUSH1 0x0 KECCAK256 PUSH1 0x0 SWAP1 SLOAD SWAP1 PUSH2 0x100 EXP SWAP1 DIV PUSH1 0xFF AND PUSH2 0xFE2 JUMPI PUSH1 0x40 MLOAD PUSH32 0x8C379A000000000000000000000000000000000000000000000000000000000 DUP2 MSTORE PUSH1 0x4 ADD PUSH2 0xFD9 SWAP1 PUSH2 0x17CD JUMP JUMPDEST PUSH1 0x40 MLOAD DUP1 SWAP2 SUB SWAP1 REVERT JUMPDEST PUSH1 0x1 PUSH1 0x6 PUSH1 0x0 DUP3 DUP3 SLOAD PUSH2 0xFF5 SWAP2 SWAP1 PUSH2 0x194E JUMP JUMPDEST SWAP3 POP POP DUP2 SWAP1 SSTORE POP PUSH1 0x5 SLOAD PUSH1 0x6 SLOAD GT ISZERO PUSH2 0x10FA JUMPI PUSH1 0x2 PUSH1 0x7 PUSH1 0x0 PUSH2 0x100 EXP DUP2 SLOAD DUP2 PUSH1 0xFF MUL NOT AND SWAP1 DUP4 PUSH1 0x3 DUP2 GT ISZERO PUSH2 0x102E JUMPI PUSH2 0x102D PUSH2 0x1B66 JUMP JUMPDEST JUMPDEST MUL OR SWAP1 SSTORE POP PUSH1 0x0 DUP1 SLOAD SWAP1 PUSH2 0x100 EXP SWAP1 DIV PUSH20 0xFFFFFFFFFFFFFFFFFFFFFFFFFFFFFFFFFFFFFFFF AND PUSH20 0xFFFFFFFFFFFFFFFFFFFFFFFFFFFFFFFFFFFFFFFF AND PUSH4 0xEAA61DEA PUSH1 0x40 MLOAD DUP2 PUSH4 0xFFFFFFFF AND PUSH1 0xE0 SHL DUP2 MSTORE PUSH1 0x4 ADD PUSH1 0x0 PUSH1 0x40 MLOAD DUP1 DUP4 SUB DUP2 PUSH1 0x0 DUP8 DUP1 EXTCODESIZE ISZERO DUP1 ISZERO PUSH2 0x109B JUMPI PUSH1 0x0 DUP1 REVERT JUMPDEST POP GAS CALL ISZERO DUP1 ISZERO PUSH2 0x10AF JUMPI RETURNDATASIZE PUSH1 0x0 DUP1 RETURNDATACOPY RETURNDATASIZE PUSH1 0x0 REVERT JUMPDEST POP POP POP POP PUSH32 0x246F97586713CF6803BC7C189486B4345BE349CEE213B4CAE772D5052AB5F059 PUSH1 0x7 PUSH1 0x0 SWAP1 SLOAD SWAP1 PUSH2 0x100 EXP SWAP1 DIV PUSH1 0xFF AND PUSH1 0x40 MLOAD PUSH2 0x10F1 SWAP2 SWAP1 PUSH2 0x1730 JUMP JUMPDEST PUSH1 0x40 MLOAD DUP1 SWAP2 SUB SWAP1 LOG1 JUMPDEST JUMP JUMPDEST PUSH1 0x1 SLOAD DUP2 JUMP JUMPDEST PUSH1 0x0 PUSH1 0x3 DUP2 GT ISZERO PUSH2 0x1116 JUMPI PUSH2 0x1115 PUSH2 0x1B66 JUMP JUMPDEST JUMPDEST PUSH1 0x7 PUSH1 0x0 SWAP1 SLOAD SWAP1 PUSH2 0x100 EXP SWAP1 DIV PUSH1 0xFF AND PUSH1 0x3 DUP2 GT ISZERO PUSH2 0x1138 JUMPI PUSH2 0x1137 PUSH2 0x1B66 JUMP JUMPDEST JUMPDEST EQ PUSH2 0x1178 JUMPI PUSH1 0x40 MLOAD PUSH32 0x8C379A000000000000000000000000000000000000000000000000000000000 DUP2 MSTORE PUSH1 0x4 ADD PUSH2 0x116F SWAP1 PUSH2 0x18ED JUMP JUMPDEST PUSH1 0x40 MLOAD DUP1 SWAP2 SUB SWAP1 REVERT JUMPDEST PUSH1 0x1 SLOAD PUSH1 0x1 PUSH1 0x0 DUP1 SLOAD SWAP1 PUSH2 0x100 EXP SWAP1 DIV PUSH20 0xFFFFFFFFFFFFFFFFFFFFFFFFFFFFFFFFFFFFFFFF AND PUSH20 0xFFFFFFFFFFFFFFFFFFFFFFFFFFFFFFFFFFFFFFFF AND PUSH4 0x6D86B8A5 PUSH1 0x40 MLOAD DUP2 PUSH4 0xFFFFFFFF AND PUSH1 0xE0 SHL DUP2 MSTORE PUSH1 0x4 ADD PUSH1 0x20 PUSH1 0x40 MLOAD DUP1 DUP4 SUB DUP2 DUP7 DUP1 EXTCODESIZE ISZERO DUP1 ISZERO PUSH2 0x11E3 JUMPI PUSH1 0x0 DUP1 REVERT JUMPDEST POP GAS STATICCALL ISZERO DUP1 ISZERO PUSH2 0x11F7 JUMPI RETURNDATASIZE PUSH1 0x0 DUP1 RETURNDATACOPY RETURNDATASIZE PUSH1 0x0 REVERT JUMPDEST POP POP POP POP PUSH1 0x40 MLOAD RETURNDATASIZE PUSH1 0x1F NOT PUSH1 0x1F DUP3 ADD AND DUP3 ADD DUP1 PUSH1 0x40 MSTORE POP DUP2 ADD SWAP1 PUSH2 0x121B SWAP2 SWAP1 PUSH2 0x1491 JUMP JUMPDEST PUSH2 0x1225 SWAP2 SWAP1 PUSH2 0x19FE JUMP JUMPDEST LT ISZERO PUSH2 0x1266 JUMPI PUSH1 0x40 MLOAD PUSH32 0x8C379A000000000000000000000000000000000000000000000000000000000 DUP2 MSTORE PUSH1 0x4 ADD PUSH2 0x125D SWAP1 PUSH2 0x186D JUMP JUMPDEST PUSH1 0x40 MLOAD DUP1 SWAP2 SUB SWAP1 REVERT JUMPDEST CALLVALUE PUSH1 0x0 DUP1 SLOAD SWAP1 PUSH2 0x100 EXP SWAP1 DIV PUSH20 0xFFFFFFFFFFFFFFFFFFFFFFFFFFFFFFFFFFFFFFFF AND PUSH20 0xFFFFFFFFFFFFFFFFFFFFFFFFFFFFFFFFFFFFFFFF AND PUSH4 0xA035B1FE PUSH1 0x40 MLOAD DUP2 PUSH4 0xFFFFFFFF AND PUSH1 0xE0 SHL DUP2 MSTORE PUSH1 0x4 ADD PUSH1 0x20 PUSH1 0x40 MLOAD DUP1 DUP4 SUB DUP2 DUP7 DUP1 EXTCODESIZE ISZERO DUP1 ISZERO PUSH2 0x12CD JUMPI PUSH1 0x0 DUP1 REVERT JUMPDEST POP GAS STATICCALL ISZERO DUP1 ISZERO PUSH2 0x12E1 JUMPI RETURNDATASIZE PUSH1 0x0 DUP1 RETURNDATACOPY RETURNDATASIZE PUSH1 0x0 REVERT JUMPDEST POP POP POP POP PUSH1 0x40 MLOAD RETURNDATASIZE PUSH1 0x1F NOT PUSH1 0x1F DUP3 ADD AND DUP3 ADD DUP1 PUSH1 0x40 MSTORE POP DUP2 ADD SWAP1 PUSH2 0x1305 SWAP2 SWAP1 PUSH2 0x1491 JUMP JUMPDEST GT ISZERO PUSH2 0x1346 JUMPI PUSH1 0x40 MLOAD PUSH32 0x8C379A000000000000000000000000000000000000000000000000000000000 DUP2 MSTORE PUSH1 0x4 ADD PUSH2 0x133D SWAP1 PUSH2 0x180D JUMP JUMPDEST PUSH1 0x40 MLOAD DUP1 SWAP2 SUB SWAP1 REVERT JUMPDEST PUSH1 0x3 SLOAD TIMESTAMP GT ISZERO PUSH2 0x13C6 JUMPI PUSH1 0x2 PUSH1 0x7 PUSH1 0x0 PUSH2 0x100 EXP DUP2 SLOAD DUP2 PUSH1 0xFF MUL NOT AND SWAP1 DUP4 PUSH1 0x3 DUP2 GT ISZERO PUSH2 0x1376 JUMPI PUSH2 0x1375 PUSH2 0x1B66 JUMP JUMPDEST JUMPDEST MUL OR SWAP1 SSTORE POP PUSH32 0x246F97586713CF6803BC7C189486B4345BE349CEE213B4CAE772D5052AB5F059 PUSH1 0x7 PUSH1 0x0 SWAP1 SLOAD SWAP1 PUSH2 0x100 EXP SWAP1 DIV PUSH1 0xFF AND PUSH1 0x40 MLOAD PUSH2 0x13B9 SWAP2 SWAP1 PUSH2 0x1730 JUMP JUMPDEST PUSH1 0x40 MLOAD DUP1 SWAP2 SUB SWAP1 LOG1 PUSH2 0x1438 JUMP JUMPDEST PUSH1 0x1 PUSH1 0x8 PUSH1 0x0 CALLER PUSH20 0xFFFFFFFFFFFFFFFFFFFFFFFFFFFFFFFFFFFFFFFF AND PUSH20 0xFFFFFFFFFFFFFFFFFFFFFFFFFFFFFFFFFFFFFFFF AND DUP2 MSTORE PUSH1 0x20 ADD SWAP1 DUP2 MSTORE PUSH1 0x20 ADD PUSH1 0x0 KECCAK256 PUSH1 0x0 PUSH2 0x100 EXP DUP2 SLOAD DUP2 PUSH1 0xFF MUL NOT AND SWAP1 DUP4 ISZERO ISZERO MUL OR SWAP1 SSTORE POP PUSH1 0x1 DUP1 PUSH1 0x0 DUP3 DUP3 SLOAD PUSH2 0x1430 SWAP2 SWAP1 PUSH2 0x194E JUMP JUMPDEST SWAP3 POP POP DUP2 SWAP1 SSTORE POP JUMPDEST JUMP JUMPDEST PUSH1 0x0 DUP2 MLOAD SWAP1 POP PUSH2 0x1449 DUP2 PUSH2 0x201E JUMP JUMPDEST SWAP3 SWAP2 POP POP JUMP JUMPDEST PUSH1 0x0 DUP2 MLOAD SWAP1 POP PUSH2 0x145E DUP2 PUSH2 0x2035 JUMP JUMPDEST SWAP3 SWAP2 POP POP JUMP JUMPDEST PUSH1 0x0 PUSH1 0x20 DUP3 DUP5 SUB SLT ISZERO PUSH2 0x147A JUMPI PUSH2 0x1479 PUSH2 0x1BE6 JUMP JUMPDEST JUMPDEST PUSH1 0x0 PUSH2 0x1488 DUP5 DUP3 DUP6 ADD PUSH2 0x143A JUMP JUMPDEST SWAP2 POP POP SWAP3 SWAP2 POP POP JUMP JUMPDEST PUSH1 0x0 PUSH1 0x20 DUP3 DUP5 SUB SLT ISZERO PUSH2 0x14A7 JUMPI PUSH2 0x14A6 PUSH2 0x1BE6 JUMP JUMPDEST JUMPDEST PUSH1 0x0 PUSH2 0x14B5 DUP5 DUP3 DUP6 ADD PUSH2 0x144F JUMP JUMPDEST SWAP2 POP POP SWAP3 SWAP2 POP POP JUMP JUMPDEST PUSH2 0x14C7 DUP2 PUSH2 0x1A44 JUMP JUMPDEST DUP3 MSTORE POP POP JUMP JUMPDEST PUSH2 0x14D6 DUP2 PUSH2 0x1A8B JUMP JUMPDEST DUP3 MSTORE POP POP JUMP JUMPDEST PUSH2 0x14E5 DUP2 PUSH2 0x1A9D JUMP JUMPDEST DUP3 MSTORE POP POP JUMP JUMPDEST PUSH1 0x0 PUSH2 0x14F6 DUP3 PUSH2 0x1932 JUMP JUMPDEST PUSH2 0x1500 DUP2 DUP6 PUSH2 0x193D JUMP JUMPDEST SWAP4 POP PUSH2 0x1510 DUP2 DUP6 PUSH1 0x20 DUP7 ADD PUSH2 0x1AD3 JUMP JUMPDEST PUSH2 0x1519 DUP2 PUSH2 0x1BEB JUMP JUMPDEST DUP5 ADD SWAP2 POP POP SWAP3 SWAP2 POP POP JUMP JUMPDEST PUSH1 0x0 PUSH2 0x1531 PUSH1 0x33 DUP4 PUSH2 0x193D JUMP JUMPDEST SWAP2 POP PUSH2 0x153C DUP3 PUSH2 0x1C09 JUMP JUMPDEST PUSH1 0x40 DUP3 ADD SWAP1 POP SWAP2 SWAP1 POP JUMP JUMPDEST PUSH1 0x0 PUSH2 0x1554 PUSH1 0x1B DUP4 PUSH2 0x193D JUMP JUMPDEST SWAP2 POP PUSH2 0x155F DUP3 PUSH2 0x1C58 JUMP JUMPDEST PUSH1 0x20 DUP3 ADD SWAP1 POP SWAP2 SWAP1 POP JUMP JUMPDEST PUSH1 0x0 PUSH2 0x1577 PUSH1 0x2D DUP4 PUSH2 0x193D JUMP JUMPDEST SWAP2 POP PUSH2 0x1582 DUP3 PUSH2 0x1C81 JUMP JUMPDEST PUSH1 0x40 DUP3 ADD SWAP1 POP SWAP2 SWAP1 POP JUMP JUMPDEST PUSH1 0x0 PUSH2 0x159A PUSH1 0x3D DUP4 PUSH2 0x193D JUMP JUMPDEST SWAP2 POP PUSH2 0x15A5 DUP3 PUSH2 0x1CD0 JUMP JUMPDEST PUSH1 0x40 DUP3 ADD SWAP1 POP SWAP2 SWAP1 POP JUMP JUMPDEST PUSH1 0x0 PUSH2 0x15BD PUSH1 0x25 DUP4 PUSH2 0x193D JUMP JUMPDEST SWAP2 POP PUSH2 0x15C8 DUP3 PUSH2 0x1D1F JUMP JUMPDEST PUSH1 0x40 DUP3 ADD SWAP1 POP SWAP2 SWAP1 POP JUMP JUMPDEST PUSH1 0x0 PUSH2 0x15E0 PUSH1 0x13 DUP4 PUSH2 0x193D JUMP JUMPDEST SWAP2 POP PUSH2 0x15EB DUP3 PUSH2 0x1D6E JUMP JUMPDEST PUSH1 0x20 DUP3 ADD SWAP1 POP SWAP2 SWAP1 POP JUMP JUMPDEST PUSH1 0x0 PUSH2 0x1603 PUSH1 0x2A DUP4 PUSH2 0x193D JUMP JUMPDEST SWAP2 POP PUSH2 0x160E DUP3 PUSH2 0x1D97 JUMP JUMPDEST PUSH1 0x40 DUP3 ADD SWAP1 POP SWAP2 SWAP1 POP JUMP JUMPDEST PUSH1 0x0 PUSH2 0x1626 PUSH1 0x14 DUP4 PUSH2 0x193D JUMP JUMPDEST SWAP2 POP PUSH2 0x1631 DUP3 PUSH2 0x1DE6 JUMP JUMPDEST PUSH1 0x20 DUP3 ADD SWAP1 POP SWAP2 SWAP1 POP JUMP JUMPDEST PUSH1 0x0 PUSH2 0x1649 PUSH1 0x1C DUP4 PUSH2 0x193D JUMP JUMPDEST SWAP2 POP PUSH2 0x1654 DUP3 PUSH2 0x1E0F JUMP JUMPDEST PUSH1 0x20 DUP3 ADD SWAP1 POP SWAP2 SWAP1 POP JUMP JUMPDEST PUSH1 0x0 PUSH2 0x166C PUSH1 0x2E DUP4 PUSH2 0x193D JUMP JUMPDEST SWAP2 POP PUSH2 0x1677 DUP3 PUSH2 0x1E38 JUMP JUMPDEST PUSH1 0x40 DUP3 ADD SWAP1 POP SWAP2 SWAP1 POP JUMP JUMPDEST PUSH1 0x0 PUSH2 0x168F PUSH1 0x34 DUP4 PUSH2 0x193D JUMP JUMPDEST SWAP2 POP PUSH2 0x169A DUP3 PUSH2 0x1E87 JUMP JUMPDEST PUSH1 0x40 DUP3 ADD SWAP1 POP SWAP2 SWAP1 POP JUMP JUMPDEST PUSH1 0x0 PUSH2 0x16B2 PUSH1 0x4A DUP4 PUSH2 0x193D JUMP JUMPDEST SWAP2 POP PUSH2 0x16BD DUP3 PUSH2 0x1ED6 JUMP JUMPDEST PUSH1 0x60 DUP3 ADD SWAP1 POP SWAP2 SWAP1 POP JUMP JUMPDEST PUSH1 0x0 PUSH2 0x16D5 PUSH1 0x11 DUP4 PUSH2 0x193D JUMP JUMPDEST SWAP2 POP PUSH2 0x16E0 DUP3 PUSH2 0x1F4B JUMP JUMPDEST PUSH1 0x20 DUP3 ADD SWAP1 POP SWAP2 SWAP1 POP JUMP JUMPDEST PUSH2 0x16F4 DUP2 PUSH2 0x1A81 JUMP JUMPDEST DUP3 MSTORE POP POP JUMP JUMPDEST PUSH1 0x0 PUSH1 0x20 DUP3 ADD SWAP1 POP PUSH2 0x170F PUSH1 0x0 DUP4 ADD DUP5 PUSH2 0x14BE JUMP JUMPDEST SWAP3 SWAP2 POP POP JUMP JUMPDEST PUSH1 0x0 PUSH1 0x20 DUP3 ADD SWAP1 POP PUSH2 0x172A PUSH1 0x0 DUP4 ADD DUP5 PUSH2 0x14CD JUMP JUMPDEST SWAP3 SWAP2 POP POP JUMP JUMPDEST PUSH1 0x0 PUSH1 0x20 DUP3 ADD SWAP1 POP PUSH2 0x1745 PUSH1 0x0 DUP4 ADD DUP5 PUSH2 0x14DC JUMP JUMPDEST SWAP3 SWAP2 POP POP JUMP JUMPDEST PUSH1 0x0 PUSH1 0x20 DUP3 ADD SWAP1 POP DUP2 DUP2 SUB PUSH1 0x0 DUP4 ADD MSTORE PUSH2 0x1765 DUP2 DUP5 PUSH2 0x14EB JUMP JUMPDEST SWAP1 POP SWAP3 SWAP2 POP POP JUMP JUMPDEST PUSH1 0x0 PUSH1 0x20 DUP3 ADD SWAP1 POP DUP2 DUP2 SUB PUSH1 0x0 DUP4 ADD MSTORE PUSH2 0x1786 DUP2 PUSH2 0x1524 JUMP JUMPDEST SWAP1 POP SWAP2 SWAP1 POP JUMP JUMPDEST PUSH1 0x0 PUSH1 0x20 DUP3 ADD SWAP1 POP DUP2 DUP2 SUB PUSH1 0x0 DUP4 ADD MSTORE PUSH2 0x17A6 DUP2 PUSH2 0x1547 JUMP JUMPDEST SWAP1 POP SWAP2 SWAP1 POP JUMP JUMPDEST PUSH1 0x0 PUSH1 0x20 DUP3 ADD SWAP1 POP DUP2 DUP2 SUB PUSH1 0x0 DUP4 ADD MSTORE PUSH2 0x17C6 DUP2 PUSH2 0x156A JUMP JUMPDEST SWAP1 POP SWAP2 SWAP1 POP JUMP JUMPDEST PUSH1 0x0 PUSH1 0x20 DUP3 ADD SWAP1 POP DUP2 DUP2 SUB PUSH1 0x0 DUP4 ADD MSTORE PUSH2 0x17E6 DUP2 PUSH2 0x158D JUMP JUMPDEST SWAP1 POP SWAP2 SWAP1 POP JUMP JUMPDEST PUSH1 0x0 PUSH1 0x20 DUP3 ADD SWAP1 POP DUP2 DUP2 SUB PUSH1 0x0 DUP4 ADD MSTORE PUSH2 0x1806 DUP2 PUSH2 0x15B0 JUMP JUMPDEST SWAP1 POP SWAP2 SWAP1 POP JUMP JUMPDEST PUSH1 0x0 PUSH1 0x20 DUP3 ADD SWAP1 POP DUP2 DUP2 SUB PUSH1 0x0 DUP4 ADD MSTORE PUSH2 0x1826 DUP2 PUSH2 0x15D3 JUMP JUMPDEST SWAP1 POP SWAP2 SWAP1 POP JUMP JUMPDEST PUSH1 0x0 PUSH1 0x20 DUP3 ADD SWAP1 POP DUP2 DUP2 SUB PUSH1 0x0 DUP4 ADD MSTORE PUSH2 0x1846 DUP2 PUSH2 0x15F6 JUMP JUMPDEST SWAP1 POP SWAP2 SWAP1 POP JUMP JUMPDEST PUSH1 0x0 PUSH1 0x20 DUP3 ADD SWAP1 POP DUP2 DUP2 SUB PUSH1 0x0 DUP4 ADD MSTORE PUSH2 0x1866 DUP2 PUSH2 0x1619 JUMP JUMPDEST SWAP1 POP SWAP2 SWAP1 POP JUMP JUMPDEST PUSH1 0x0 PUSH1 0x20 DUP3 ADD SWAP1 POP DUP2 DUP2 SUB PUSH1 0x0 DUP4 ADD MSTORE PUSH2 0x1886 DUP2 PUSH2 0x163C JUMP JUMPDEST SWAP1 POP SWAP2 SWAP1 POP JUMP JUMPDEST PUSH1 0x0 PUSH1 0x20 DUP3 ADD SWAP1 POP DUP2 DUP2 SUB PUSH1 0x0 DUP4 ADD MSTORE PUSH2 0x18A6 DUP2 PUSH2 0x165F JUMP JUMPDEST SWAP1 POP SWAP2 SWAP1 POP JUMP JUMPDEST PUSH1 0x0 PUSH1 0x20 DUP3 ADD SWAP1 POP DUP2 DUP2 SUB PUSH1 0x0 DUP4 ADD MSTORE PUSH2 0x18C6 DUP2 PUSH2 0x1682 JUMP JUMPDEST SWAP1 POP SWAP2 SWAP1 POP JUMP JUMPDEST PUSH1 0x0 PUSH1 0x20 DUP3 ADD SWAP1 POP DUP2 DUP2 SUB PUSH1 0x0 DUP4 ADD MSTORE PUSH2 0x18E6 DUP2 PUSH2 0x16A5 JUMP JUMPDEST SWAP1 POP SWAP2 SWAP1 POP JUMP JUMPDEST PUSH1 0x0 PUSH1 0x20 DUP3 ADD SWAP1 POP DUP2 DUP2 SUB PUSH1 0x0 DUP4 ADD MSTORE PUSH2 0x1906 DUP2 PUSH2 0x16C8 JUMP JUMPDEST SWAP1 POP SWAP2 SWAP1 POP JUMP JUMPDEST PUSH1 0x0 PUSH1 0x20 DUP3 ADD SWAP1 POP PUSH2 0x1922 PUSH1 0x0 DUP4 ADD DUP5 PUSH2 0x16EB JUMP JUMPDEST SWAP3 SWAP2 POP POP JUMP JUMPDEST PUSH1 0x0 PUSH1 0x40 MLOAD SWAP1 POP SWAP1 JUMP JUMPDEST PUSH1 0x0 DUP2 MLOAD SWAP1 POP SWAP2 SWAP1 POP JUMP JUMPDEST PUSH1 0x0 DUP3 DUP3 MSTORE PUSH1 0x20 DUP3 ADD SWAP1 POP SWAP3 SWAP2 POP POP JUMP JUMPDEST PUSH1 0x0 PUSH2 0x1959 DUP3 PUSH2 0x1A81 JUMP JUMPDEST SWAP2 POP PUSH2 0x1964 DUP4 PUSH2 0x1A81 JUMP JUMPDEST SWAP3 POP DUP3 PUSH32 0xFFFFFFFFFFFFFFFFFFFFFFFFFFFFFFFFFFFFFFFFFFFFFFFFFFFFFFFFFFFFFFFF SUB DUP3 GT ISZERO PUSH2 0x1999 JUMPI PUSH2 0x1998 PUSH2 0x1B37 JUMP JUMPDEST JUMPDEST DUP3 DUP3 ADD SWAP1 POP SWAP3 SWAP2 POP POP JUMP JUMPDEST PUSH1 0x0 PUSH2 0x19AF DUP3 PUSH2 0x1A81 JUMP JUMPDEST SWAP2 POP PUSH2 0x19BA DUP4 PUSH2 0x1A81 JUMP JUMPDEST SWAP3 POP DUP2 PUSH32 0xFFFFFFFFFFFFFFFFFFFFFFFFFFFFFFFFFFFFFFFFFFFFFFFFFFFFFFFFFFFFFFFF DIV DUP4 GT DUP3 ISZERO ISZERO AND ISZERO PUSH2 0x19F3 JUMPI PUSH2 0x19F2 PUSH2 0x1B37 JUMP JUMPDEST JUMPDEST DUP3 DUP3 MUL SWAP1 POP SWAP3 SWAP2 POP POP JUMP JUMPDEST PUSH1 0x0 PUSH2 0x1A09 DUP3 PUSH2 0x1A81 JUMP JUMPDEST SWAP2 POP PUSH2 0x1A14 DUP4 PUSH2 0x1A81 JUMP JUMPDEST SWAP3 POP DUP3 DUP3 LT ISZERO PUSH2 0x1A27 JUMPI PUSH2 0x1A26 PUSH2 0x1B37 JUMP JUMPDEST JUMPDEST DUP3 DUP3 SUB SWAP1 POP SWAP3 SWAP2 POP POP JUMP JUMPDEST PUSH1 0x0 PUSH2 0x1A3D DUP3 PUSH2 0x1A61 JUMP JUMPDEST SWAP1 POP SWAP2 SWAP1 POP JUMP JUMPDEST PUSH1 0x0 DUP2 SWAP1 POP SWAP2 SWAP1 POP JUMP JUMPDEST PUSH1 0x0 DUP2 SWAP1 POP PUSH2 0x1A5C DUP3 PUSH2 0x200A JUMP JUMPDEST SWAP2 SWAP1 POP JUMP JUMPDEST PUSH1 0x0 PUSH20 0xFFFFFFFFFFFFFFFFFFFFFFFFFFFFFFFFFFFFFFFF DUP3 AND SWAP1 POP SWAP2 SWAP1 POP JUMP JUMPDEST PUSH1 0x0 DUP2 SWAP1 POP SWAP2 SWAP1 POP JUMP JUMPDEST PUSH1 0x0 PUSH2 0x1A96 DUP3 PUSH2 0x1AAF JUMP JUMPDEST SWAP1 POP SWAP2 SWAP1 POP JUMP JUMPDEST PUSH1 0x0 PUSH2 0x1AA8 DUP3 PUSH2 0x1A4E JUMP JUMPDEST SWAP1 POP SWAP2 SWAP1 POP JUMP JUMPDEST PUSH1 0x0 PUSH2 0x1ABA DUP3 PUSH2 0x1AC1 JUMP JUMPDEST SWAP1 POP SWAP2 SWAP1 POP JUMP JUMPDEST PUSH1 0x0 PUSH2 0x1ACC DUP3 PUSH2 0x1A61 JUMP JUMPDEST SWAP1 POP SWAP2 SWAP1 POP JUMP JUMPDEST PUSH1 0x0 JUMPDEST DUP4 DUP2 LT ISZERO PUSH2 0x1AF1 JUMPI DUP1 DUP3 ADD MLOAD DUP2 DUP5 ADD MSTORE PUSH1 0x20 DUP2 ADD SWAP1 POP PUSH2 0x1AD6 JUMP JUMPDEST DUP4 DUP2 GT ISZERO PUSH2 0x1B00 JUMPI PUSH1 0x0 DUP5 DUP5 ADD MSTORE JUMPDEST POP POP POP POP JUMP JUMPDEST PUSH2 0x1B0F DUP3 PUSH2 0x1BEB JUMP JUMPDEST DUP2 ADD DUP2 DUP2 LT PUSH8 0xFFFFFFFFFFFFFFFF DUP3 GT OR ISZERO PUSH2 0x1B2E JUMPI PUSH2 0x1B2D PUSH2 0x1B95 JUMP JUMPDEST JUMPDEST DUP1 PUSH1 0x40 MSTORE POP POP POP JUMP JUMPDEST PUSH32 0x4E487B7100000000000000000000000000000000000000000000000000000000 PUSH1 0x0 MSTORE PUSH1 0x11 PUSH1 0x4 MSTORE PUSH1 0x24 PUSH1 0x0 REVERT JUMPDEST PUSH32 0x4E487B7100000000000000000000000000000000000000000000000000000000 PUSH1 0x0 MSTORE PUSH1 0x21 PUSH1 0x4 MSTORE PUSH1 0x24 PUSH1 0x0 REVERT JUMPDEST PUSH32 0x4E487B7100000000000000000000000000000000000000000000000000000000 PUSH1 0x0 MSTORE PUSH1 0x41 PUSH1 0x4 MSTORE PUSH1 0x24 PUSH1 0x0 REVERT JUMPDEST PUSH1 0x0 PUSH1 0x3 RETURNDATASIZE GT ISZERO PUSH2 0x1BE3 JUMPI PUSH1 0x4 PUSH1 0x0 DUP1 RETURNDATACOPY PUSH2 0x1BE0 PUSH1 0x0 MLOAD PUSH2 0x1BFC JUMP JUMPDEST SWAP1 POP JUMPDEST SWAP1 JUMP JUMPDEST PUSH1 0x0 DUP1 REVERT JUMPDEST PUSH1 0x0 PUSH1 0x1F NOT PUSH1 0x1F DUP4 ADD AND SWAP1 POP SWAP2 SWAP1 POP JUMP JUMPDEST PUSH1 0x0 DUP2 PUSH1 0xE0 SHR SWAP1 POP SWAP2 SWAP1 POP JUMP JUMPDEST PUSH32 0x4F6E6C7920746865206661726D6572206F66207468652070726F647563652063 PUSH1 0x0 DUP3 ADD MSTORE PUSH32 0x616E2072656A65637420746865206F7264657200000000000000000000000000 PUSH1 0x20 DUP3 ADD MSTORE POP JUMP JUMPDEST PUSH32 0x6F7264657220686173206E6F74206265656E2072656A65637465640000000000 PUSH1 0x0 DUP3 ADD MSTORE POP JUMP JUMPDEST PUSH32 0x637573746F6D657220686173206E6F206F75747374616E64696E672062616C61 PUSH1 0x0 DUP3 ADD MSTORE PUSH32 0x6E636520746F20726566756E6400000000000000000000000000000000000000 PUSH1 0x20 DUP3 ADD MSTORE POP JUMP JUMPDEST PUSH32 0x6F6E6C79206D656D62657273206F6620746869732067726F7570206F72646572 PUSH1 0x0 DUP3 ADD MSTORE PUSH32 0x206D617920766F746520746F2072656A65637420746865206F72646572000000 PUSH1 0x20 DUP3 ADD MSTORE POP JUMP JUMPDEST PUSH32 0x5468652067726F7570206F7264657220686173206E6F74207965742074696D65 PUSH1 0x0 DUP3 ADD MSTORE PUSH32 0x64206F7574000000000000000000000000000000000000000000000000000000 PUSH1 0x20 DUP3 ADD MSTORE POP JUMP JUMPDEST PUSH32 0x6E6F7420656E6F756768207765692073656E7400000000000000000000000000 PUSH1 0x0 DUP3 ADD MSTORE POP JUMP JUMPDEST PUSH32 0x6E6F7420656E6F75676820706F7274696F6E206F726465727320686176652062 PUSH1 0x0 DUP3 ADD MSTORE PUSH32 0x65656E20706C6163656400000000000000000000000000000000000000000000 PUSH1 0x20 DUP3 ADD MSTORE POP JUMP JUMPDEST PUSH32 0x7374617465206973206E6F742070656E64696E67000000000000000000000000 PUSH1 0x0 DUP3 ADD MSTORE POP JUMP JUMPDEST PUSH32 0x77726F6E67206E756D62657220706F7274696F6E732061677265656400000000 PUSH1 0x0 DUP3 ADD MSTORE POP JUMP JUMPDEST PUSH32 0x6D656D626572732063616E206F6E6C7920766F746520746F2072656A65637420 PUSH1 0x0 DUP3 ADD MSTORE PUSH32 0x70656E64696E67206F7264657273000000000000000000000000000000000000 PUSH1 0x20 DUP3 ADD MSTORE POP JUMP JUMPDEST PUSH32 0x546865206F72646572207374617465206973206E6F74206F70656E2C20736F20 PUSH1 0x0 DUP3 ADD MSTORE PUSH32 0x63616E206E6F742062652074696D6564206F7574000000000000000000000000 PUSH1 0x20 DUP3 ADD MSTORE POP JUMP JUMPDEST PUSH32 0x4F6E6C7920746865206661726D6572206F66207468652070726F647563652063 PUSH1 0x0 DUP3 ADD MSTORE PUSH32 0x616E206E6F74696679207468617420746865206F726465722068617320626565 PUSH1 0x20 DUP3 ADD MSTORE PUSH32 0x6E20616363657074656400000000000000000000000000000000000000000000 PUSH1 0x40 DUP3 ADD MSTORE POP JUMP JUMPDEST PUSH32 0x7374617465206973206E6F74206F70656E000000000000000000000000000000 PUSH1 0x0 DUP3 ADD MSTORE POP JUMP JUMPDEST PUSH1 0x0 PUSH1 0x44 RETURNDATASIZE LT ISZERO PUSH2 0x1F84 JUMPI PUSH2 0x2007 JUMP JUMPDEST PUSH2 0x1F8C PUSH2 0x1928 JUMP JUMPDEST PUSH1 0x4 RETURNDATASIZE SUB PUSH1 0x4 DUP3 RETURNDATACOPY DUP1 MLOAD RETURNDATASIZE PUSH1 0x24 DUP3 ADD GT PUSH8 0xFFFFFFFFFFFFFFFF DUP3 GT OR ISZERO PUSH2 0x1FB4 JUMPI POP POP PUSH2 0x2007 JUMP JUMPDEST DUP1 DUP3 ADD DUP1 MLOAD PUSH8 0xFFFFFFFFFFFFFFFF DUP2 GT ISZERO PUSH2 0x1FD2 JUMPI POP POP POP POP PUSH2 0x2007 JUMP JUMPDEST DUP1 PUSH1 0x20 DUP4 ADD ADD PUSH1 0x4 RETURNDATASIZE SUB DUP6 ADD DUP2 GT ISZERO PUSH2 0x1FEF JUMPI POP POP POP POP POP PUSH2 0x2007 JUMP JUMPDEST PUSH2 0x1FFE DUP3 PUSH1 0x20 ADD DUP6 ADD DUP7 PUSH2 0x1B06 JUMP JUMPDEST DUP3 SWAP6 POP POP POP POP POP POP JUMPDEST SWAP1 JUMP JUMPDEST PUSH1 0x4 DUP2 LT PUSH2 0x201B JUMPI PUSH2 0x201A PUSH2 0x1B66 JUMP JUMPDEST JUMPDEST POP JUMP JUMPDEST PUSH2 0x2027 DUP2 PUSH2 0x1A32 JUMP JUMPDEST DUP2 EQ PUSH2 0x2032 JUMPI PUSH1 0x0 DUP1 REVERT JUMPDEST POP JUMP JUMPDEST PUSH2 0x203E DUP2 PUSH2 0x1A81 JUMP JUMPDEST DUP2 EQ PUSH2 0x2049 JUMPI PUSH1 0x0 DUP1 REVERT JUMPDEST POP JUMP INVALID LOG2 PUSH5 0x6970667358 0x22 SLT KECCAK256 CALLDATACOPY 0xD0 PUSH26 0x79F88C11B9ECB5B4B1916EF2F3F73D479191DDB14DC57388D4D1 PUSH13 0x292564736F6C63430008070033 "
				},
				"gasEstimates": {
					"creation": {
						"codeDepositCost": "1664400",
						"executionCost": "infinite",
						"totalCost": "infinite"
					},
					"external": {
						"acceptOrder()": "infinite",
						"endTime()": "2452",
						"groupOrderHash()": "2497",
						"minimumTimeLimit()": "353",
						"placeOrder()": "infinite",
						"portionsAgreed()": "2495",
						"produce()": "2642",
						"rejectOrder()": "infinite",
						"requiredVotesToReject()": "2451",
						"startTime()": "2496",
						"state()": "2649",
						"submitOrder()": "infinite",
						"timeOutGroupOrder()": "32253",
						"voteToCancel()": "infinite",
						"votesToReject()": "2518",
						"withdrawFunds()": "infinite"
					}
				},
				"methodIdentifiers": {
					"acceptOrder()": "13fc80d3",
					"endTime()": "3197cbb6",
					"groupOrderHash()": "18491f0c",
					"minimumTimeLimit()": "00b2d43b",
					"placeOrder()": "f5c609e0",
					"portionsAgreed()": "f56b3ad5",
					"produce()": "656b9952",
					"rejectOrder()": "5f29a5ee",
					"requiredVotesToReject()": "d008902c",
					"startTime()": "78e97925",
					"state()": "c19d93fb",
					"submitOrder()": "409b509d",
					"timeOutGroupOrder()": "40c78e98",
					"voteToCancel()": "dd5a00a7",
					"votesToReject()": "4b436ae6",
					"withdrawFunds()": "24600fc3"
				}
			},
			"storageLayout": {
				"storage": [
					{
						"astId": 230,
						"contract": "contracts/GroupOrder.sol:GroupOrder",
						"label": "produce",
						"offset": 0,
						"slot": "0",
						"type": "t_contract(Produce)892"
					},
					{
						"astId": 232,
						"contract": "contracts/GroupOrder.sol:GroupOrder",
						"label": "portionsAgreed",
						"offset": 0,
						"slot": "1",
						"type": "t_uint256"
					},
					{
						"astId": 234,
						"contract": "contracts/GroupOrder.sol:GroupOrder",
						"label": "startTime",
						"offset": 0,
						"slot": "2",
						"type": "t_uint256"
					},
					{
						"astId": 236,
						"contract": "contracts/GroupOrder.sol:GroupOrder",
						"label": "endTime",
						"offset": 0,
						"slot": "3",
						"type": "t_uint256"
					},
					{
						"astId": 248,
						"contract": "contracts/GroupOrder.sol:GroupOrder",
						"label": "groupOrderHash",
						"offset": 0,
						"slot": "4",
						"type": "t_bytes32"
					},
					{
						"astId": 250,
						"contract": "contracts/GroupOrder.sol:GroupOrder",
						"label": "requiredVotesToReject",
						"offset": 0,
						"slot": "5",
						"type": "t_uint256"
					},
					{
						"astId": 253,
						"contract": "contracts/GroupOrder.sol:GroupOrder",
						"label": "votesToReject",
						"offset": 0,
						"slot": "6",
						"type": "t_uint256"
					},
					{
						"astId": 261,
						"contract": "contracts/GroupOrder.sol:GroupOrder",
						"label": "state",
						"offset": 0,
						"slot": "7",
						"type": "t_enum(State)258"
					},
					{
						"astId": 265,
						"contract": "contracts/GroupOrder.sol:GroupOrder",
						"label": "orders",
						"offset": 0,
						"slot": "8",
						"type": "t_mapping(t_address,t_bool)"
					}
				],
				"types": {
					"t_address": {
						"encoding": "inplace",
						"label": "address",
						"numberOfBytes": "20"
					},
					"t_bool": {
						"encoding": "inplace",
						"label": "bool",
						"numberOfBytes": "1"
					},
					"t_bytes32": {
						"encoding": "inplace",
						"label": "bytes32",
						"numberOfBytes": "32"
					},
					"t_contract(Produce)892": {
						"encoding": "inplace",
						"label": "contract Produce",
						"numberOfBytes": "20"
					},
					"t_enum(State)258": {
						"encoding": "inplace",
						"label": "enum GroupOrder.State",
						"numberOfBytes": "1"
					},
					"t_mapping(t_address,t_bool)": {
						"encoding": "mapping",
						"key": "t_address",
						"label": "mapping(address => bool)",
						"numberOfBytes": "32",
						"value": "t_bool"
					},
					"t_uint256": {
						"encoding": "inplace",
						"label": "uint256",
						"numberOfBytes": "32"
					}
				}
			},
			"userdoc": {
				"kind": "user",
				"methods": {
					"placeOrder()": {
						"notice": "One person gets one order to ensure equal economic participation"
					}
				},
				"version": 1
			}
		}
	}
}