{
	"contracts/Produce.sol": {
		"Produce": {
			"abi": [
				{
					"inputs": [],
					"stateMutability": "nonpayable",
					"type": "constructor"
				},
				{
					"anonymous": false,
					"inputs": [
						{
							"indexed": false,
							"internalType": "address",
							"name": "groupOrder",
							"type": "address"
						}
					],
					"name": "OrderQueued",
					"type": "event"
				},
				{
					"anonymous": false,
					"inputs": [
						{
							"indexed": true,
							"internalType": "address",
							"name": "previousOwner",
							"type": "address"
						},
						{
							"indexed": true,
							"internalType": "address",
							"name": "newOwner",
							"type": "address"
						}
					],
					"name": "OwnershipTransferred",
					"type": "event"
				},
				{
					"inputs": [],
					"name": "closeProduce",
					"outputs": [],
					"stateMutability": "nonpayable",
					"type": "function"
				},
				{
					"inputs": [],
					"name": "farmer",
					"outputs": [
						{
							"internalType": "address",
							"name": "",
							"type": "address"
						}
					],
					"stateMutability": "view",
					"type": "function"
				},
				{
					"inputs": [
						{
							"internalType": "address",
							"name": "_farmer",
							"type": "address"
						},
						{
							"internalType": "bytes32",
							"name": "_produceHash",
							"type": "bytes32"
						},
						{
							"internalType": "uint256",
							"name": "_price",
							"type": "uint256"
						},
						{
							"internalType": "uint256",
							"name": "_orderSize",
							"type": "uint256"
						}
					],
					"name": "initilize",
					"outputs": [],
					"stateMutability": "nonpayable",
					"type": "function"
				},
				{
					"inputs": [],
					"name": "market",
					"outputs": [
						{
							"internalType": "address",
							"name": "",
							"type": "address"
						}
					],
					"stateMutability": "view",
					"type": "function"
				},
				{
					"inputs": [],
					"name": "orderSize",
					"outputs": [
						{
							"internalType": "uint256",
							"name": "",
							"type": "uint256"
						}
					],
					"stateMutability": "view",
					"type": "function"
				},
				{
					"inputs": [],
					"name": "owner",
					"outputs": [
						{
							"internalType": "address",
							"name": "",
							"type": "address"
						}
					],
					"stateMutability": "view",
					"type": "function"
				},
				{
					"inputs": [],
					"name": "placeOrder",
					"outputs": [],
					"stateMutability": "nonpayable",
					"type": "function"
				},
				{
					"inputs": [],
					"name": "price",
					"outputs": [
						{
							"internalType": "uint256",
							"name": "",
							"type": "uint256"
						}
					],
					"stateMutability": "view",
					"type": "function"
				},
				{
					"inputs": [],
					"name": "produceHash",
					"outputs": [
						{
							"internalType": "bytes32",
							"name": "",
							"type": "bytes32"
						}
					],
					"stateMutability": "view",
					"type": "function"
				},
				{
					"inputs": [],
					"name": "removeOrder",
					"outputs": [],
					"stateMutability": "nonpayable",
					"type": "function"
				},
				{
					"inputs": [],
					"name": "renounceOwnership",
					"outputs": [],
					"stateMutability": "nonpayable",
					"type": "function"
				},
				{
					"inputs": [
						{
							"internalType": "address",
							"name": "newOwner",
							"type": "address"
						}
					],
					"name": "transferOwnership",
					"outputs": [],
					"stateMutability": "nonpayable",
					"type": "function"
				}
			],
			"devdoc": {
				"kind": "dev",
				"methods": {
					"owner()": {
						"details": "Returns the address of the current owner."
					},
					"renounceOwnership()": {
						"details": "Leaves the contract without owner. It will not be possible to call `onlyOwner` functions anymore. Can only be called by the current owner. NOTE: Renouncing ownership will leave the contract without an owner, thereby removing any functionality that is only available to the owner."
					},
					"transferOwnership(address)": {
						"details": "Transfers ownership of the contract to a new account (`newOwner`). Can only be called by the current owner."
					}
				},
				"version": 1
			},
			"evm": {
				"assembly": "    /* \"contracts/Produce.sol\":140:1794  contract Produce is Ownable{... */\n  mstore(0x40, 0x80)\n    /* \"contracts/Produce.sol\":503:561  constructor() {... */\n  callvalue\n  dup1\n  iszero\n  tag_1\n  jumpi\n  0x00\n  dup1\n  revert\ntag_1:\n  pop\n    /* \"@openzeppelin/contracts/access/Ownable.sol\":936:968  _transferOwnership(_msgSender()) */\n  tag_5\n    /* \"@openzeppelin/contracts/access/Ownable.sol\":955:967  _msgSender() */\n  tag_6\n    /* \"@openzeppelin/contracts/access/Ownable.sol\":955:965  _msgSender */\n  shl(0x20, tag_7)\n    /* \"@openzeppelin/contracts/access/Ownable.sol\":955:967  _msgSender() */\n  0x20\n  shr\n  jump\t// in\ntag_6:\n    /* \"@openzeppelin/contracts/access/Ownable.sol\":936:954  _transferOwnership */\n  shl(0x20, tag_8)\n    /* \"@openzeppelin/contracts/access/Ownable.sol\":936:968  _transferOwnership(_msgSender()) */\n  0x20\n  shr\n  jump\t// in\ntag_5:\n    /* \"contracts/Produce.sol\":535:554  State.UNINITIALIZED */\n  0x00\n    /* \"contracts/Produce.sol\":527:532  state */\n  0x07\n  0x00\n    /* \"contracts/Produce.sol\":527:554  state = State.UNINITIALIZED */\n  0x0100\n  exp\n  dup2\n  sload\n  dup2\n  0xff\n  mul\n  not\n  and\n  swap1\n  dup4\n  0x02\n  dup2\n  gt\n  iszero\n  tag_10\n  jumpi\n  tag_11\n  tag_12\n  jump\t// in\ntag_11:\ntag_10:\n  mul\n  or\n  swap1\n  sstore\n  pop\n    /* \"contracts/Produce.sol\":140:1794  contract Produce is Ownable{... */\n  jump(tag_13)\n    /* \"@openzeppelin/contracts/utils/Context.sol\":640:736  function _msgSender() internal view virtual returns (address) {... */\ntag_7:\n    /* \"@openzeppelin/contracts/utils/Context.sol\":693:700  address */\n  0x00\n    /* \"@openzeppelin/contracts/utils/Context.sol\":719:729  msg.sender */\n  caller\n    /* \"@openzeppelin/contracts/utils/Context.sol\":712:729  return msg.sender */\n  swap1\n  pop\n    /* \"@openzeppelin/contracts/utils/Context.sol\":640:736  function _msgSender() internal view virtual returns (address) {... */\n  swap1\n  jump\t// out\n    /* \"@openzeppelin/contracts/access/Ownable.sol\":2433:2620  function _transferOwnership(address newOwner) internal virtual {... */\ntag_8:\n    /* \"@openzeppelin/contracts/access/Ownable.sol\":2506:2522  address oldOwner */\n  0x00\n    /* \"@openzeppelin/contracts/access/Ownable.sol\":2525:2531  _owner */\n  dup1\n  0x00\n  swap1\n  sload\n  swap1\n  0x0100\n  exp\n  swap1\n  div\n  0xffffffffffffffffffffffffffffffffffffffff\n  and\n    /* \"@openzeppelin/contracts/access/Ownable.sol\":2506:2531  address oldOwner = _owner */\n  swap1\n  pop\n    /* \"@openzeppelin/contracts/access/Ownable.sol\":2550:2558  newOwner */\n  dup2\n    /* \"@openzeppelin/contracts/access/Ownable.sol\":2541:2547  _owner */\n  0x00\n  dup1\n    /* \"@openzeppelin/contracts/access/Ownable.sol\":2541:2558  _owner = newOwner */\n  0x0100\n  exp\n  dup2\n  sload\n  dup2\n  0xffffffffffffffffffffffffffffffffffffffff\n  mul\n  not\n  and\n  swap1\n  dup4\n  0xffffffffffffffffffffffffffffffffffffffff\n  and\n  mul\n  or\n  swap1\n  sstore\n  pop\n    /* \"@openzeppelin/contracts/access/Ownable.sol\":2604:2612  newOwner */\n  dup2\n    /* \"@openzeppelin/contracts/access/Ownable.sol\":2573:2613  OwnershipTransferred(oldOwner, newOwner) */\n  0xffffffffffffffffffffffffffffffffffffffff\n  and\n    /* \"@openzeppelin/contracts/access/Ownable.sol\":2594:2602  oldOwner */\n  dup2\n    /* \"@openzeppelin/contracts/access/Ownable.sol\":2573:2613  OwnershipTransferred(oldOwner, newOwner) */\n  0xffffffffffffffffffffffffffffffffffffffff\n  and\n  0x8be0079c531659141344cd1fd0a4f28419497f9722a3daafe3b4186f6b6457e0\n  mload(0x40)\n  mload(0x40)\n  dup1\n  swap2\n  sub\n  swap1\n  log3\n    /* \"@openzeppelin/contracts/access/Ownable.sol\":2496:2620  {... */\n  pop\n    /* \"@openzeppelin/contracts/access/Ownable.sol\":2433:2620  function _transferOwnership(address newOwner) internal virtual {... */\n  pop\n  jump\t// out\n    /* \"#utility.yul\":7:187   */\ntag_12:\n    /* \"#utility.yul\":55:132   */\n  0x4e487b7100000000000000000000000000000000000000000000000000000000\n    /* \"#utility.yul\":52:53   */\n  0x00\n    /* \"#utility.yul\":45:133   */\n  mstore\n    /* \"#utility.yul\":152:156   */\n  0x21\n    /* \"#utility.yul\":149:150   */\n  0x04\n    /* \"#utility.yul\":142:157   */\n  mstore\n    /* \"#utility.yul\":176:180   */\n  0x24\n    /* \"#utility.yul\":173:174   */\n  0x00\n    /* \"#utility.yul\":166:181   */\n  revert\n    /* \"contracts/Produce.sol\":140:1794  contract Produce is Ownable{... */\ntag_13:\n  dataSize(sub_0)\n  dup1\n  dataOffset(sub_0)\n  0x00\n  codecopy\n  0x00\n  return\nstop\n\nsub_0: assembly {\n        /* \"contracts/Produce.sol\":140:1794  contract Produce is Ownable{... */\n      mstore(0x40, 0x80)\n      callvalue\n      dup1\n      iszero\n      tag_1\n      jumpi\n      0x00\n      dup1\n      revert\n    tag_1:\n      pop\n      jumpi(tag_2, lt(calldatasize, 0x04))\n      shr(0xe0, calldataload(0x00))\n      dup1\n      0xa035b1fe\n      gt\n      tag_15\n      jumpi\n      dup1\n      0xa035b1fe\n      eq\n      tag_9\n      jumpi\n      dup1\n      0xd811fcf0\n      eq\n      tag_10\n      jumpi\n      dup1\n      0xeaa61dea\n      eq\n      tag_11\n      jumpi\n      dup1\n      0xf2fde38b\n      eq\n      tag_12\n      jumpi\n      dup1\n      0xf5c609e0\n      eq\n      tag_13\n      jumpi\n      dup1\n      0xfa34f63a\n      eq\n      tag_14\n      jumpi\n      jump(tag_2)\n    tag_15:\n      dup1\n      0x6d86b8a5\n      eq\n      tag_3\n      jumpi\n      dup1\n      0x715018a6\n      eq\n      tag_4\n      jumpi\n      dup1\n      0x76c820f6\n      eq\n      tag_5\n      jumpi\n      dup1\n      0x80f55605\n      eq\n      tag_6\n      jumpi\n      dup1\n      0x8da5cb5b\n      eq\n      tag_7\n      jumpi\n      dup1\n      0x91bc0bad\n      eq\n      tag_8\n      jumpi\n    tag_2:\n      0x00\n      dup1\n      revert\n        /* \"contracts/Produce.sol\":329:353  uint256 public orderSize */\n    tag_3:\n      tag_16\n      tag_17\n      jump\t// in\n    tag_16:\n      mload(0x40)\n      tag_18\n      swap2\n      swap1\n      tag_19\n      jump\t// in\n    tag_18:\n      mload(0x40)\n      dup1\n      swap2\n      sub\n      swap1\n      return\n        /* \"@openzeppelin/contracts/access/Ownable.sol\":1831:1932  function renounceOwnership() public virtual onlyOwner {... */\n    tag_4:\n      tag_20\n      tag_21\n      jump\t// in\n    tag_20:\n      stop\n        /* \"contracts/Produce.sol\":567:990  function initilize(... */\n    tag_5:\n      tag_22\n      0x04\n      dup1\n      calldatasize\n      sub\n      dup2\n      add\n      swap1\n      tag_23\n      swap2\n      swap1\n      tag_24\n      jump\t// in\n    tag_23:\n      tag_25\n      jump\t// in\n    tag_22:\n      stop\n        /* \"contracts/Produce.sol\":244:265  address public market */\n    tag_6:\n      tag_26\n      tag_27\n      jump\t// in\n    tag_26:\n      mload(0x40)\n      tag_28\n      swap2\n      swap1\n      tag_29\n      jump\t// in\n    tag_28:\n      mload(0x40)\n      dup1\n      swap2\n      sub\n      swap1\n      return\n        /* \"@openzeppelin/contracts/access/Ownable.sol\":1201:1286  function owner() public view virtual returns (address) {... */\n    tag_7:\n      tag_30\n      tag_31\n      jump\t// in\n    tag_30:\n      mload(0x40)\n      tag_32\n      swap2\n      swap1\n      tag_29\n      jump\t// in\n    tag_32:\n      mload(0x40)\n      dup1\n      swap2\n      sub\n      swap1\n      return\n        /* \"contracts/Produce.sol\":1597:1790  function closeProduce() external onlyOwner {... */\n    tag_8:\n      tag_33\n      tag_34\n      jump\t// in\n    tag_33:\n      stop\n        /* \"contracts/Produce.sol\":303:323  uint256 public price */\n    tag_9:\n      tag_35\n      tag_36\n      jump\t// in\n    tag_35:\n      mload(0x40)\n      tag_37\n      swap2\n      swap1\n      tag_19\n      jump\t// in\n    tag_37:\n      mload(0x40)\n      dup1\n      swap2\n      sub\n      swap1\n      return\n        /* \"contracts/Produce.sol\":217:238  address public farmer */\n    tag_10:\n      tag_38\n      tag_39\n      jump\t// in\n    tag_38:\n      mload(0x40)\n      tag_40\n      swap2\n      swap1\n      tag_29\n      jump\t// in\n    tag_40:\n      mload(0x40)\n      dup1\n      swap2\n      sub\n      swap1\n      return\n        /* \"contracts/Produce.sol\":1441:1591  function removeOrder() external {... */\n    tag_11:\n      tag_41\n      tag_42\n      jump\t// in\n    tag_41:\n      stop\n        /* \"@openzeppelin/contracts/access/Ownable.sol\":2081:2279  function transferOwnership(address newOwner) public virtual onlyOwner {... */\n    tag_12:\n      tag_43\n      0x04\n      dup1\n      calldatasize\n      sub\n      dup2\n      add\n      swap1\n      tag_44\n      swap2\n      swap1\n      tag_45\n      jump\t// in\n    tag_44:\n      tag_46\n      jump\t// in\n    tag_43:\n      stop\n        /* \"contracts/Produce.sol\":1043:1435  function placeOrder() external {... */\n    tag_13:\n      tag_47\n      tag_48\n      jump\t// in\n    tag_47:\n      stop\n        /* \"contracts/Produce.sol\":271:297  bytes32 public produceHash */\n    tag_14:\n      tag_49\n      tag_50\n      jump\t// in\n    tag_49:\n      mload(0x40)\n      tag_51\n      swap2\n      swap1\n      tag_52\n      jump\t// in\n    tag_51:\n      mload(0x40)\n      dup1\n      swap2\n      sub\n      swap1\n      return\n        /* \"contracts/Produce.sol\":329:353  uint256 public orderSize */\n    tag_17:\n      sload(0x05)\n      dup2\n      jump\t// out\n        /* \"@openzeppelin/contracts/access/Ownable.sol\":1831:1932  function renounceOwnership() public virtual onlyOwner {... */\n    tag_21:\n        /* \"@openzeppelin/contracts/access/Ownable.sol\":1094:1107  _checkOwner() */\n      tag_54\n        /* \"@openzeppelin/contracts/access/Ownable.sol\":1094:1105  _checkOwner */\n      tag_55\n        /* \"@openzeppelin/contracts/access/Ownable.sol\":1094:1107  _checkOwner() */\n      jump\t// in\n    tag_54:\n        /* \"@openzeppelin/contracts/access/Ownable.sol\":1895:1925  _transferOwnership(address(0)) */\n      tag_57\n        /* \"@openzeppelin/contracts/access/Ownable.sol\":1922:1923  0 */\n      0x00\n        /* \"@openzeppelin/contracts/access/Ownable.sol\":1895:1913  _transferOwnership */\n      tag_58\n        /* \"@openzeppelin/contracts/access/Ownable.sol\":1895:1925  _transferOwnership(address(0)) */\n      jump\t// in\n    tag_57:\n        /* \"@openzeppelin/contracts/access/Ownable.sol\":1831:1932  function renounceOwnership() public virtual onlyOwner {... */\n      jump\t// out\n        /* \"contracts/Produce.sol\":567:990  function initilize(... */\n    tag_25:\n        /* \"contracts/Produce.sol\":733:752  State.UNINITIALIZED */\n      0x00\n        /* \"contracts/Produce.sol\":726:752  state==State.UNINITIALIZED */\n      0x02\n      dup2\n      gt\n      iszero\n      tag_60\n      jumpi\n      tag_61\n      tag_62\n      jump\t// in\n    tag_61:\n    tag_60:\n        /* \"contracts/Produce.sol\":726:731  state */\n      0x07\n      0x00\n      swap1\n      sload\n      swap1\n      0x0100\n      exp\n      swap1\n      div\n      0xff\n      and\n        /* \"contracts/Produce.sol\":726:752  state==State.UNINITIALIZED */\n      0x02\n      dup2\n      gt\n      iszero\n      tag_63\n      jumpi\n      tag_64\n      tag_62\n      jump\t// in\n    tag_64:\n    tag_63:\n      eq\n        /* \"contracts/Produce.sol\":718:797  require(state==State.UNINITIALIZED, \"This produce has already been initilized\") */\n      tag_65\n      jumpi\n      mload(0x40)\n      0x08c379a000000000000000000000000000000000000000000000000000000000\n      dup2\n      mstore\n      0x04\n      add\n      tag_66\n      swap1\n      tag_67\n      jump\t// in\n    tag_66:\n      mload(0x40)\n      dup1\n      swap2\n      sub\n      swap1\n      revert\n    tag_65:\n        /* \"contracts/Produce.sol\":807:834  _transferOwnership(_farmer) */\n      tag_68\n        /* \"contracts/Produce.sol\":826:833  _farmer */\n      dup5\n        /* \"contracts/Produce.sol\":807:825  _transferOwnership */\n      tag_58\n        /* \"contracts/Produce.sol\":807:834  _transferOwnership(_farmer) */\n      jump\t// in\n    tag_68:\n        /* \"contracts/Produce.sol\":853:863  msg.sender */\n      caller\n        /* \"contracts/Produce.sol\":844:850  market */\n      0x02\n      0x00\n        /* \"contracts/Produce.sol\":844:863  market = msg.sender */\n      0x0100\n      exp\n      dup2\n      sload\n      dup2\n      0xffffffffffffffffffffffffffffffffffffffff\n      mul\n      not\n      and\n      swap1\n      dup4\n      0xffffffffffffffffffffffffffffffffffffffff\n      and\n      mul\n      or\n      swap1\n      sstore\n      pop\n        /* \"contracts/Produce.sol\":887:899  _produceHash */\n      dup3\n        /* \"contracts/Produce.sol\":873:884  produceHash */\n      0x03\n        /* \"contracts/Produce.sol\":873:899  produceHash = _produceHash */\n      dup2\n      swap1\n      sstore\n      pop\n        /* \"contracts/Produce.sol\":917:923  _price */\n      dup2\n        /* \"contracts/Produce.sol\":909:914  price */\n      0x04\n        /* \"contracts/Produce.sol\":909:923  price = _price */\n      dup2\n      swap1\n      sstore\n      pop\n        /* \"contracts/Produce.sol\":945:955  _orderSize */\n      dup1\n        /* \"contracts/Produce.sol\":933:942  orderSize */\n      0x05\n        /* \"contracts/Produce.sol\":933:955  orderSize = _orderSize */\n      dup2\n      swap1\n      sstore\n      pop\n        /* \"contracts/Produce.sol\":973:983  State.OPEN */\n      0x01\n        /* \"contracts/Produce.sol\":965:970  state */\n      0x07\n      0x00\n        /* \"contracts/Produce.sol\":965:983  state = State.OPEN */\n      0x0100\n      exp\n      dup2\n      sload\n      dup2\n      0xff\n      mul\n      not\n      and\n      swap1\n      dup4\n      0x02\n      dup2\n      gt\n      iszero\n      tag_69\n      jumpi\n      tag_70\n      tag_62\n      jump\t// in\n    tag_70:\n    tag_69:\n      mul\n      or\n      swap1\n      sstore\n      pop\n        /* \"contracts/Produce.sol\":567:990  function initilize(... */\n      pop\n      pop\n      pop\n      pop\n      jump\t// out\n        /* \"contracts/Produce.sol\":244:265  address public market */\n    tag_27:\n      0x02\n      0x00\n      swap1\n      sload\n      swap1\n      0x0100\n      exp\n      swap1\n      div\n      0xffffffffffffffffffffffffffffffffffffffff\n      and\n      dup2\n      jump\t// out\n        /* \"@openzeppelin/contracts/access/Ownable.sol\":1201:1286  function owner() public view virtual returns (address) {... */\n    tag_31:\n        /* \"@openzeppelin/contracts/access/Ownable.sol\":1247:1254  address */\n      0x00\n        /* \"@openzeppelin/contracts/access/Ownable.sol\":1273:1279  _owner */\n      dup1\n      0x00\n      swap1\n      sload\n      swap1\n      0x0100\n      exp\n      swap1\n      div\n      0xffffffffffffffffffffffffffffffffffffffff\n      and\n        /* \"@openzeppelin/contracts/access/Ownable.sol\":1266:1279  return _owner */\n      swap1\n      pop\n        /* \"@openzeppelin/contracts/access/Ownable.sol\":1201:1286  function owner() public view virtual returns (address) {... */\n      swap1\n      jump\t// out\n        /* \"contracts/Produce.sol\":1597:1790  function closeProduce() external onlyOwner {... */\n    tag_34:\n        /* \"@openzeppelin/contracts/access/Ownable.sol\":1094:1107  _checkOwner() */\n      tag_73\n        /* \"@openzeppelin/contracts/access/Ownable.sol\":1094:1105  _checkOwner */\n      tag_55\n        /* \"@openzeppelin/contracts/access/Ownable.sol\":1094:1107  _checkOwner() */\n      jump\t// in\n    tag_73:\n        /* \"contracts/Produce.sol\":1667:1677  State.OPEN */\n      0x01\n        /* \"contracts/Produce.sol\":1658:1677  state == State.OPEN */\n      0x02\n      dup2\n      gt\n      iszero\n      tag_75\n      jumpi\n      tag_76\n      tag_62\n      jump\t// in\n    tag_76:\n    tag_75:\n        /* \"contracts/Produce.sol\":1658:1663  state */\n      0x07\n      0x00\n      swap1\n      sload\n      swap1\n      0x0100\n      exp\n      swap1\n      div\n      0xff\n      and\n        /* \"contracts/Produce.sol\":1658:1677  state == State.OPEN */\n      0x02\n      dup2\n      gt\n      iszero\n      tag_77\n      jumpi\n      tag_78\n      tag_62\n      jump\t// in\n    tag_78:\n    tag_77:\n      eq\n        /* \"contracts/Produce.sol\":1650:1713  require(state == State.OPEN, \"only open produce can be closed\") */\n      tag_79\n      jumpi\n      mload(0x40)\n      0x08c379a000000000000000000000000000000000000000000000000000000000\n      dup2\n      mstore\n      0x04\n      add\n      tag_80\n      swap1\n      tag_81\n      jump\t// in\n    tag_80:\n      mload(0x40)\n      dup1\n      swap2\n      sub\n      swap1\n      revert\n    tag_79:\n        /* \"contracts/Produce.sol\":1731:1743  State.CLOSED */\n      0x02\n        /* \"contracts/Produce.sol\":1723:1728  state */\n      0x07\n      0x00\n        /* \"contracts/Produce.sol\":1723:1743  state = State.CLOSED */\n      0x0100\n      exp\n      dup2\n      sload\n      dup2\n      0xff\n      mul\n      not\n      and\n      swap1\n      dup4\n      0x02\n      dup2\n      gt\n      iszero\n      tag_82\n      jumpi\n      tag_83\n      tag_62\n      jump\t// in\n    tag_83:\n    tag_82:\n      mul\n      or\n      swap1\n      sstore\n      pop\n        /* \"contracts/Produce.sol\":1760:1766  market */\n      0x02\n      0x00\n      swap1\n      sload\n      swap1\n      0x0100\n      exp\n      swap1\n      div\n      0xffffffffffffffffffffffffffffffffffffffff\n      and\n        /* \"contracts/Produce.sol\":1753:1781  Market(market).removeProduce */\n      0xffffffffffffffffffffffffffffffffffffffff\n      and\n      0x9def9846\n        /* \"contracts/Produce.sol\":1753:1783  Market(market).removeProduce() */\n      mload(0x40)\n      dup2\n      0xffffffff\n      and\n      0xe0\n      shl\n      dup2\n      mstore\n      0x04\n      add\n      0x00\n      mload(0x40)\n      dup1\n      dup4\n      sub\n      dup2\n      0x00\n      dup8\n      dup1\n      extcodesize\n      iszero\n      dup1\n      iszero\n      tag_84\n      jumpi\n      0x00\n      dup1\n      revert\n    tag_84:\n      pop\n      gas\n      call\n      iszero\n      dup1\n      iszero\n      tag_86\n      jumpi\n      returndatasize\n      0x00\n      dup1\n      returndatacopy\n      revert(0x00, returndatasize)\n    tag_86:\n      pop\n      pop\n      pop\n      pop\n        /* \"contracts/Produce.sol\":1597:1790  function closeProduce() external onlyOwner {... */\n      jump\t// out\n        /* \"contracts/Produce.sol\":303:323  uint256 public price */\n    tag_36:\n      sload(0x04)\n      dup2\n      jump\t// out\n        /* \"contracts/Produce.sol\":217:238  address public farmer */\n    tag_39:\n      0x01\n      0x00\n      swap1\n      sload\n      swap1\n      0x0100\n      exp\n      swap1\n      div\n      0xffffffffffffffffffffffffffffffffffffffff\n      and\n      dup2\n      jump\t// out\n        /* \"contracts/Produce.sol\":1441:1591  function removeOrder() external {... */\n    tag_42:\n        /* \"contracts/Produce.sol\":1491:1502  produceList */\n      0x06\n        /* \"contracts/Produce.sol\":1491:1514  produceList[msg.sender] */\n      0x00\n        /* \"contracts/Produce.sol\":1503:1513  msg.sender */\n      caller\n        /* \"contracts/Produce.sol\":1491:1514  produceList[msg.sender] */\n      0xffffffffffffffffffffffffffffffffffffffff\n      and\n      0xffffffffffffffffffffffffffffffffffffffff\n      and\n      dup2\n      mstore\n      0x20\n      add\n      swap1\n      dup2\n      mstore\n      0x20\n      add\n      0x00\n      keccak256\n      0x00\n      swap1\n      sload\n      swap1\n      0x0100\n      exp\n      swap1\n      div\n      0xff\n      and\n        /* \"contracts/Produce.sol\":1483:1543  require(produceList[msg.sender], \"no order has been placed\") */\n      tag_88\n      jumpi\n      mload(0x40)\n      0x08c379a000000000000000000000000000000000000000000000000000000000\n      dup2\n      mstore\n      0x04\n      add\n      tag_89\n      swap1\n      tag_90\n      jump\t// in\n    tag_89:\n      mload(0x40)\n      dup1\n      swap2\n      sub\n      swap1\n      revert\n    tag_88:\n        /* \"contracts/Produce.sol\":1579:1584  false */\n      0x00\n        /* \"contracts/Produce.sol\":1553:1564  produceList */\n      0x06\n        /* \"contracts/Produce.sol\":1553:1576  produceList[msg.sender] */\n      0x00\n        /* \"contracts/Produce.sol\":1565:1575  msg.sender */\n      caller\n        /* \"contracts/Produce.sol\":1553:1576  produceList[msg.sender] */\n      0xffffffffffffffffffffffffffffffffffffffff\n      and\n      0xffffffffffffffffffffffffffffffffffffffff\n      and\n      dup2\n      mstore\n      0x20\n      add\n      swap1\n      dup2\n      mstore\n      0x20\n      add\n      0x00\n      keccak256\n      0x00\n        /* \"contracts/Produce.sol\":1553:1584  produceList[msg.sender] = false */\n      0x0100\n      exp\n      dup2\n      sload\n      dup2\n      0xff\n      mul\n      not\n      and\n      swap1\n      dup4\n      iszero\n      iszero\n      mul\n      or\n      swap1\n      sstore\n      pop\n        /* \"contracts/Produce.sol\":1441:1591  function removeOrder() external {... */\n      jump\t// out\n        /* \"@openzeppelin/contracts/access/Ownable.sol\":2081:2279  function transferOwnership(address newOwner) public virtual onlyOwner {... */\n    tag_46:\n        /* \"@openzeppelin/contracts/access/Ownable.sol\":1094:1107  _checkOwner() */\n      tag_92\n        /* \"@openzeppelin/contracts/access/Ownable.sol\":1094:1105  _checkOwner */\n      tag_55\n        /* \"@openzeppelin/contracts/access/Ownable.sol\":1094:1107  _checkOwner() */\n      jump\t// in\n    tag_92:\n        /* \"@openzeppelin/contracts/access/Ownable.sol\":2189:2190  0 */\n      0x00\n        /* \"@openzeppelin/contracts/access/Ownable.sol\":2169:2191  newOwner != address(0) */\n      0xffffffffffffffffffffffffffffffffffffffff\n      and\n        /* \"@openzeppelin/contracts/access/Ownable.sol\":2169:2177  newOwner */\n      dup2\n        /* \"@openzeppelin/contracts/access/Ownable.sol\":2169:2191  newOwner != address(0) */\n      0xffffffffffffffffffffffffffffffffffffffff\n      and\n      eq\n      iszero\n        /* \"@openzeppelin/contracts/access/Ownable.sol\":2161:2234  require(newOwner != address(0), \"Ownable: new owner is the zero address\") */\n      tag_94\n      jumpi\n      mload(0x40)\n      0x08c379a000000000000000000000000000000000000000000000000000000000\n      dup2\n      mstore\n      0x04\n      add\n      tag_95\n      swap1\n      tag_96\n      jump\t// in\n    tag_95:\n      mload(0x40)\n      dup1\n      swap2\n      sub\n      swap1\n      revert\n    tag_94:\n        /* \"@openzeppelin/contracts/access/Ownable.sol\":2244:2272  _transferOwnership(newOwner) */\n      tag_97\n        /* \"@openzeppelin/contracts/access/Ownable.sol\":2263:2271  newOwner */\n      dup2\n        /* \"@openzeppelin/contracts/access/Ownable.sol\":2244:2262  _transferOwnership */\n      tag_58\n        /* \"@openzeppelin/contracts/access/Ownable.sol\":2244:2272  _transferOwnership(newOwner) */\n      jump\t// in\n    tag_97:\n        /* \"@openzeppelin/contracts/access/Ownable.sol\":2081:2279  function transferOwnership(address newOwner) public virtual onlyOwner {... */\n      pop\n      jump\t// out\n        /* \"contracts/Produce.sol\":1043:1435  function placeOrder() external {... */\n    tag_48:\n        /* \"contracts/Produce.sol\":1101:1111  State.OPEN */\n      0x01\n        /* \"contracts/Produce.sol\":1092:1111  state == State.OPEN */\n      0x02\n      dup2\n      gt\n      iszero\n      tag_99\n      jumpi\n      tag_100\n      tag_62\n      jump\t// in\n    tag_100:\n    tag_99:\n        /* \"contracts/Produce.sol\":1092:1097  state */\n      0x07\n      0x00\n      swap1\n      sload\n      swap1\n      0x0100\n      exp\n      swap1\n      div\n      0xff\n      and\n        /* \"contracts/Produce.sol\":1092:1111  state == State.OPEN */\n      0x02\n      dup2\n      gt\n      iszero\n      tag_101\n      jumpi\n      tag_102\n      tag_62\n      jump\t// in\n    tag_102:\n    tag_101:\n      eq\n        /* \"contracts/Produce.sol\":1084:1148  require(state == State.OPEN, \"produce is not open for ordering\") */\n      tag_103\n      jumpi\n      mload(0x40)\n      0x08c379a000000000000000000000000000000000000000000000000000000000\n      dup2\n      mstore\n      0x04\n      add\n      tag_104\n      swap1\n      tag_105\n      jump\t// in\n    tag_104:\n      mload(0x40)\n      dup1\n      swap2\n      sub\n      swap1\n      revert\n    tag_103:\n        /* \"contracts/Produce.sol\":1193:1200  owner() */\n      tag_106\n        /* \"contracts/Produce.sol\":1193:1198  owner */\n      tag_31\n        /* \"contracts/Produce.sol\":1193:1200  owner() */\n      jump\t// in\n    tag_106:\n        /* \"contracts/Produce.sol\":1179:1200  msg.sender != owner() */\n      0xffffffffffffffffffffffffffffffffffffffff\n      and\n        /* \"contracts/Produce.sol\":1179:1189  msg.sender */\n      caller\n        /* \"contracts/Produce.sol\":1179:1200  msg.sender != owner() */\n      0xffffffffffffffffffffffffffffffffffffffff\n      and\n      eq\n      iszero\n        /* \"contracts/Produce.sol\":1158:1273  require(... */\n      tag_107\n      jumpi\n      mload(0x40)\n      0x08c379a000000000000000000000000000000000000000000000000000000000\n      dup2\n      mstore\n      0x04\n      add\n      tag_108\n      swap1\n      tag_109\n      jump\t// in\n    tag_108:\n      mload(0x40)\n      dup1\n      swap2\n      sub\n      swap1\n      revert\n    tag_107:\n        /* \"contracts/Produce.sol\":1292:1303  produceList */\n      0x06\n        /* \"contracts/Produce.sol\":1292:1315  produceList[msg.sender] */\n      0x00\n        /* \"contracts/Produce.sol\":1304:1314  msg.sender */\n      caller\n        /* \"contracts/Produce.sol\":1292:1315  produceList[msg.sender] */\n      0xffffffffffffffffffffffffffffffffffffffff\n      and\n      0xffffffffffffffffffffffffffffffffffffffff\n      and\n      dup2\n      mstore\n      0x20\n      add\n      swap1\n      dup2\n      mstore\n      0x20\n      add\n      0x00\n      keccak256\n      0x00\n      swap1\n      sload\n      swap1\n      0x0100\n      exp\n      swap1\n      div\n      0xff\n      and\n        /* \"contracts/Produce.sol\":1291:1315  !produceList[msg.sender] */\n      iszero\n        /* \"contracts/Produce.sol\":1283:1350  require(!produceList[msg.sender],  \"order has already been placed\") */\n      tag_110\n      jumpi\n      mload(0x40)\n      0x08c379a000000000000000000000000000000000000000000000000000000000\n      dup2\n      mstore\n      0x04\n      add\n      tag_111\n      swap1\n      tag_112\n      jump\t// in\n    tag_111:\n      mload(0x40)\n      dup1\n      swap2\n      sub\n      swap1\n      revert\n    tag_110:\n        /* \"contracts/Produce.sol\":1386:1390  true */\n      0x01\n        /* \"contracts/Produce.sol\":1360:1371  produceList */\n      0x06\n        /* \"contracts/Produce.sol\":1360:1383  produceList[msg.sender] */\n      0x00\n        /* \"contracts/Produce.sol\":1372:1382  msg.sender */\n      caller\n        /* \"contracts/Produce.sol\":1360:1383  produceList[msg.sender] */\n      0xffffffffffffffffffffffffffffffffffffffff\n      and\n      0xffffffffffffffffffffffffffffffffffffffff\n      and\n      dup2\n      mstore\n      0x20\n      add\n      swap1\n      dup2\n      mstore\n      0x20\n      add\n      0x00\n      keccak256\n      0x00\n        /* \"contracts/Produce.sol\":1360:1390  produceList[msg.sender] = true */\n      0x0100\n      exp\n      dup2\n      sload\n      dup2\n      0xff\n      mul\n      not\n      and\n      swap1\n      dup4\n      iszero\n      iszero\n      mul\n      or\n      swap1\n      sstore\n      pop\n        /* \"contracts/Produce.sol\":1405:1428  OrderQueued(msg.sender) */\n      0xe7183a38a6aa8fb99c4071a88f3acd0b3c30fd4b05330c2f0a0724bb0254f804\n        /* \"contracts/Produce.sol\":1417:1427  msg.sender */\n      caller\n        /* \"contracts/Produce.sol\":1405:1428  OrderQueued(msg.sender) */\n      mload(0x40)\n      tag_113\n      swap2\n      swap1\n      tag_29\n      jump\t// in\n    tag_113:\n      mload(0x40)\n      dup1\n      swap2\n      sub\n      swap1\n      log1\n        /* \"contracts/Produce.sol\":1043:1435  function placeOrder() external {... */\n      jump\t// out\n        /* \"contracts/Produce.sol\":271:297  bytes32 public produceHash */\n    tag_50:\n      sload(0x03)\n      dup2\n      jump\t// out\n        /* \"@openzeppelin/contracts/access/Ownable.sol\":1359:1489  function _checkOwner() internal view virtual {... */\n    tag_55:\n        /* \"@openzeppelin/contracts/access/Ownable.sol\":1433:1445  _msgSender() */\n      tag_115\n        /* \"@openzeppelin/contracts/access/Ownable.sol\":1433:1443  _msgSender */\n      tag_116\n        /* \"@openzeppelin/contracts/access/Ownable.sol\":1433:1445  _msgSender() */\n      jump\t// in\n    tag_115:\n        /* \"@openzeppelin/contracts/access/Ownable.sol\":1422:1445  owner() == _msgSender() */\n      0xffffffffffffffffffffffffffffffffffffffff\n      and\n        /* \"@openzeppelin/contracts/access/Ownable.sol\":1422:1429  owner() */\n      tag_117\n        /* \"@openzeppelin/contracts/access/Ownable.sol\":1422:1427  owner */\n      tag_31\n        /* \"@openzeppelin/contracts/access/Ownable.sol\":1422:1429  owner() */\n      jump\t// in\n    tag_117:\n        /* \"@openzeppelin/contracts/access/Ownable.sol\":1422:1445  owner() == _msgSender() */\n      0xffffffffffffffffffffffffffffffffffffffff\n      and\n      eq\n        /* \"@openzeppelin/contracts/access/Ownable.sol\":1414:1482  require(owner() == _msgSender(), \"Ownable: caller is not the owner\") */\n      tag_118\n      jumpi\n      mload(0x40)\n      0x08c379a000000000000000000000000000000000000000000000000000000000\n      dup2\n      mstore\n      0x04\n      add\n      tag_119\n      swap1\n      tag_120\n      jump\t// in\n    tag_119:\n      mload(0x40)\n      dup1\n      swap2\n      sub\n      swap1\n      revert\n    tag_118:\n        /* \"@openzeppelin/contracts/access/Ownable.sol\":1359:1489  function _checkOwner() internal view virtual {... */\n      jump\t// out\n        /* \"@openzeppelin/contracts/access/Ownable.sol\":2433:2620  function _transferOwnership(address newOwner) internal virtual {... */\n    tag_58:\n        /* \"@openzeppelin/contracts/access/Ownable.sol\":2506:2522  address oldOwner */\n      0x00\n        /* \"@openzeppelin/contracts/access/Ownable.sol\":2525:2531  _owner */\n      dup1\n      0x00\n      swap1\n      sload\n      swap1\n      0x0100\n      exp\n      swap1\n      div\n      0xffffffffffffffffffffffffffffffffffffffff\n      and\n        /* \"@openzeppelin/contracts/access/Ownable.sol\":2506:2531  address oldOwner = _owner */\n      swap1\n      pop\n        /* \"@openzeppelin/contracts/access/Ownable.sol\":2550:2558  newOwner */\n      dup2\n        /* \"@openzeppelin/contracts/access/Ownable.sol\":2541:2547  _owner */\n      0x00\n      dup1\n        /* \"@openzeppelin/contracts/access/Ownable.sol\":2541:2558  _owner = newOwner */\n      0x0100\n      exp\n      dup2\n      sload\n      dup2\n      0xffffffffffffffffffffffffffffffffffffffff\n      mul\n      not\n      and\n      swap1\n      dup4\n      0xffffffffffffffffffffffffffffffffffffffff\n      and\n      mul\n      or\n      swap1\n      sstore\n      pop\n        /* \"@openzeppelin/contracts/access/Ownable.sol\":2604:2612  newOwner */\n      dup2\n        /* \"@openzeppelin/contracts/access/Ownable.sol\":2573:2613  OwnershipTransferred(oldOwner, newOwner) */\n      0xffffffffffffffffffffffffffffffffffffffff\n      and\n        /* \"@openzeppelin/contracts/access/Ownable.sol\":2594:2602  oldOwner */\n      dup2\n        /* \"@openzeppelin/contracts/access/Ownable.sol\":2573:2613  OwnershipTransferred(oldOwner, newOwner) */\n      0xffffffffffffffffffffffffffffffffffffffff\n      and\n      0x8be0079c531659141344cd1fd0a4f28419497f9722a3daafe3b4186f6b6457e0\n      mload(0x40)\n      mload(0x40)\n      dup1\n      swap2\n      sub\n      swap1\n      log3\n        /* \"@openzeppelin/contracts/access/Ownable.sol\":2496:2620  {... */\n      pop\n        /* \"@openzeppelin/contracts/access/Ownable.sol\":2433:2620  function _transferOwnership(address newOwner) internal virtual {... */\n      pop\n      jump\t// out\n        /* \"@openzeppelin/contracts/utils/Context.sol\":640:736  function _msgSender() internal view virtual returns (address) {... */\n    tag_116:\n        /* \"@openzeppelin/contracts/utils/Context.sol\":693:700  address */\n      0x00\n        /* \"@openzeppelin/contracts/utils/Context.sol\":719:729  msg.sender */\n      caller\n        /* \"@openzeppelin/contracts/utils/Context.sol\":712:729  return msg.sender */\n      swap1\n      pop\n        /* \"@openzeppelin/contracts/utils/Context.sol\":640:736  function _msgSender() internal view virtual returns (address) {... */\n      swap1\n      jump\t// out\n        /* \"#utility.yul\":7:146   */\n    tag_124:\n        /* \"#utility.yul\":53:58   */\n      0x00\n        /* \"#utility.yul\":91:97   */\n      dup2\n        /* \"#utility.yul\":78:98   */\n      calldataload\n        /* \"#utility.yul\":69:98   */\n      swap1\n      pop\n        /* \"#utility.yul\":107:140   */\n      tag_126\n        /* \"#utility.yul\":134:139   */\n      dup2\n        /* \"#utility.yul\":107:140   */\n      tag_127\n      jump\t// in\n    tag_126:\n        /* \"#utility.yul\":7:146   */\n      swap3\n      swap2\n      pop\n      pop\n      jump\t// out\n        /* \"#utility.yul\":152:291   */\n    tag_128:\n        /* \"#utility.yul\":198:203   */\n      0x00\n        /* \"#utility.yul\":236:242   */\n      dup2\n        /* \"#utility.yul\":223:243   */\n      calldataload\n        /* \"#utility.yul\":214:243   */\n      swap1\n      pop\n        /* \"#utility.yul\":252:285   */\n      tag_130\n        /* \"#utility.yul\":279:284   */\n      dup2\n        /* \"#utility.yul\":252:285   */\n      tag_131\n      jump\t// in\n    tag_130:\n        /* \"#utility.yul\":152:291   */\n      swap3\n      swap2\n      pop\n      pop\n      jump\t// out\n        /* \"#utility.yul\":297:436   */\n    tag_132:\n        /* \"#utility.yul\":343:348   */\n      0x00\n        /* \"#utility.yul\":381:387   */\n      dup2\n        /* \"#utility.yul\":368:388   */\n      calldataload\n        /* \"#utility.yul\":359:388   */\n      swap1\n      pop\n        /* \"#utility.yul\":397:430   */\n      tag_134\n        /* \"#utility.yul\":424:429   */\n      dup2\n        /* \"#utility.yul\":397:430   */\n      tag_135\n      jump\t// in\n    tag_134:\n        /* \"#utility.yul\":297:436   */\n      swap3\n      swap2\n      pop\n      pop\n      jump\t// out\n        /* \"#utility.yul\":442:771   */\n    tag_45:\n        /* \"#utility.yul\":501:507   */\n      0x00\n        /* \"#utility.yul\":550:552   */\n      0x20\n        /* \"#utility.yul\":538:547   */\n      dup3\n        /* \"#utility.yul\":529:536   */\n      dup5\n        /* \"#utility.yul\":525:548   */\n      sub\n        /* \"#utility.yul\":521:553   */\n      slt\n        /* \"#utility.yul\":518:637   */\n      iszero\n      tag_137\n      jumpi\n        /* \"#utility.yul\":556:635   */\n      tag_138\n      tag_139\n      jump\t// in\n    tag_138:\n        /* \"#utility.yul\":518:637   */\n    tag_137:\n        /* \"#utility.yul\":676:677   */\n      0x00\n        /* \"#utility.yul\":701:754   */\n      tag_140\n        /* \"#utility.yul\":746:753   */\n      dup5\n        /* \"#utility.yul\":737:743   */\n      dup3\n        /* \"#utility.yul\":726:735   */\n      dup6\n        /* \"#utility.yul\":722:744   */\n      add\n        /* \"#utility.yul\":701:754   */\n      tag_124\n      jump\t// in\n    tag_140:\n        /* \"#utility.yul\":691:754   */\n      swap2\n      pop\n        /* \"#utility.yul\":647:764   */\n      pop\n        /* \"#utility.yul\":442:771   */\n      swap3\n      swap2\n      pop\n      pop\n      jump\t// out\n        /* \"#utility.yul\":777:1542   */\n    tag_24:\n        /* \"#utility.yul\":863:869   */\n      0x00\n        /* \"#utility.yul\":871:877   */\n      dup1\n        /* \"#utility.yul\":879:885   */\n      0x00\n        /* \"#utility.yul\":887:893   */\n      dup1\n        /* \"#utility.yul\":936:939   */\n      0x80\n        /* \"#utility.yul\":924:933   */\n      dup6\n        /* \"#utility.yul\":915:922   */\n      dup8\n        /* \"#utility.yul\":911:934   */\n      sub\n        /* \"#utility.yul\":907:940   */\n      slt\n        /* \"#utility.yul\":904:1024   */\n      iszero\n      tag_142\n      jumpi\n        /* \"#utility.yul\":943:1022   */\n      tag_143\n      tag_139\n      jump\t// in\n    tag_143:\n        /* \"#utility.yul\":904:1024   */\n    tag_142:\n        /* \"#utility.yul\":1063:1064   */\n      0x00\n        /* \"#utility.yul\":1088:1141   */\n      tag_144\n        /* \"#utility.yul\":1133:1140   */\n      dup8\n        /* \"#utility.yul\":1124:1130   */\n      dup3\n        /* \"#utility.yul\":1113:1122   */\n      dup9\n        /* \"#utility.yul\":1109:1131   */\n      add\n        /* \"#utility.yul\":1088:1141   */\n      tag_124\n      jump\t// in\n    tag_144:\n        /* \"#utility.yul\":1078:1141   */\n      swap5\n      pop\n        /* \"#utility.yul\":1034:1151   */\n      pop\n        /* \"#utility.yul\":1190:1192   */\n      0x20\n        /* \"#utility.yul\":1216:1269   */\n      tag_145\n        /* \"#utility.yul\":1261:1268   */\n      dup8\n        /* \"#utility.yul\":1252:1258   */\n      dup3\n        /* \"#utility.yul\":1241:1250   */\n      dup9\n        /* \"#utility.yul\":1237:1259   */\n      add\n        /* \"#utility.yul\":1216:1269   */\n      tag_128\n      jump\t// in\n    tag_145:\n        /* \"#utility.yul\":1206:1269   */\n      swap4\n      pop\n        /* \"#utility.yul\":1161:1279   */\n      pop\n        /* \"#utility.yul\":1318:1320   */\n      0x40\n        /* \"#utility.yul\":1344:1397   */\n      tag_146\n        /* \"#utility.yul\":1389:1396   */\n      dup8\n        /* \"#utility.yul\":1380:1386   */\n      dup3\n        /* \"#utility.yul\":1369:1378   */\n      dup9\n        /* \"#utility.yul\":1365:1387   */\n      add\n        /* \"#utility.yul\":1344:1397   */\n      tag_132\n      jump\t// in\n    tag_146:\n        /* \"#utility.yul\":1334:1397   */\n      swap3\n      pop\n        /* \"#utility.yul\":1289:1407   */\n      pop\n        /* \"#utility.yul\":1446:1448   */\n      0x60\n        /* \"#utility.yul\":1472:1525   */\n      tag_147\n        /* \"#utility.yul\":1517:1524   */\n      dup8\n        /* \"#utility.yul\":1508:1514   */\n      dup3\n        /* \"#utility.yul\":1497:1506   */\n      dup9\n        /* \"#utility.yul\":1493:1515   */\n      add\n        /* \"#utility.yul\":1472:1525   */\n      tag_132\n      jump\t// in\n    tag_147:\n        /* \"#utility.yul\":1462:1525   */\n      swap2\n      pop\n        /* \"#utility.yul\":1417:1535   */\n      pop\n        /* \"#utility.yul\":777:1542   */\n      swap3\n      swap6\n      swap2\n      swap5\n      pop\n      swap3\n      pop\n      jump\t// out\n        /* \"#utility.yul\":1548:1666   */\n    tag_148:\n        /* \"#utility.yul\":1635:1659   */\n      tag_150\n        /* \"#utility.yul\":1653:1658   */\n      dup2\n        /* \"#utility.yul\":1635:1659   */\n      tag_151\n      jump\t// in\n    tag_150:\n        /* \"#utility.yul\":1630:1633   */\n      dup3\n        /* \"#utility.yul\":1623:1660   */\n      mstore\n        /* \"#utility.yul\":1548:1666   */\n      pop\n      pop\n      jump\t// out\n        /* \"#utility.yul\":1672:1790   */\n    tag_152:\n        /* \"#utility.yul\":1759:1783   */\n      tag_154\n        /* \"#utility.yul\":1777:1782   */\n      dup2\n        /* \"#utility.yul\":1759:1783   */\n      tag_155\n      jump\t// in\n    tag_154:\n        /* \"#utility.yul\":1754:1757   */\n      dup3\n        /* \"#utility.yul\":1747:1784   */\n      mstore\n        /* \"#utility.yul\":1672:1790   */\n      pop\n      pop\n      jump\t// out\n        /* \"#utility.yul\":1796:2162   */\n    tag_156:\n        /* \"#utility.yul\":1938:1941   */\n      0x00\n        /* \"#utility.yul\":1959:2026   */\n      tag_158\n        /* \"#utility.yul\":2023:2025   */\n      0x26\n        /* \"#utility.yul\":2018:2021   */\n      dup4\n        /* \"#utility.yul\":1959:2026   */\n      tag_159\n      jump\t// in\n    tag_158:\n        /* \"#utility.yul\":1952:2026   */\n      swap2\n      pop\n        /* \"#utility.yul\":2035:2128   */\n      tag_160\n        /* \"#utility.yul\":2124:2127   */\n      dup3\n        /* \"#utility.yul\":2035:2128   */\n      tag_161\n      jump\t// in\n    tag_160:\n        /* \"#utility.yul\":2153:2155   */\n      0x40\n        /* \"#utility.yul\":2148:2151   */\n      dup3\n        /* \"#utility.yul\":2144:2156   */\n      add\n        /* \"#utility.yul\":2137:2156   */\n      swap1\n      pop\n        /* \"#utility.yul\":1796:2162   */\n      swap2\n      swap1\n      pop\n      jump\t// out\n        /* \"#utility.yul\":2168:2534   */\n    tag_162:\n        /* \"#utility.yul\":2310:2313   */\n      0x00\n        /* \"#utility.yul\":2331:2398   */\n      tag_164\n        /* \"#utility.yul\":2395:2397   */\n      0x20\n        /* \"#utility.yul\":2390:2393   */\n      dup4\n        /* \"#utility.yul\":2331:2398   */\n      tag_159\n      jump\t// in\n    tag_164:\n        /* \"#utility.yul\":2324:2398   */\n      swap2\n      pop\n        /* \"#utility.yul\":2407:2500   */\n      tag_165\n        /* \"#utility.yul\":2496:2499   */\n      dup3\n        /* \"#utility.yul\":2407:2500   */\n      tag_166\n      jump\t// in\n    tag_165:\n        /* \"#utility.yul\":2525:2527   */\n      0x20\n        /* \"#utility.yul\":2520:2523   */\n      dup3\n        /* \"#utility.yul\":2516:2528   */\n      add\n        /* \"#utility.yul\":2509:2528   */\n      swap1\n      pop\n        /* \"#utility.yul\":2168:2534   */\n      swap2\n      swap1\n      pop\n      jump\t// out\n        /* \"#utility.yul\":2540:2906   */\n    tag_167:\n        /* \"#utility.yul\":2682:2685   */\n      0x00\n        /* \"#utility.yul\":2703:2770   */\n      tag_169\n        /* \"#utility.yul\":2767:2769   */\n      0x1f\n        /* \"#utility.yul\":2762:2765   */\n      dup4\n        /* \"#utility.yul\":2703:2770   */\n      tag_159\n      jump\t// in\n    tag_169:\n        /* \"#utility.yul\":2696:2770   */\n      swap2\n      pop\n        /* \"#utility.yul\":2779:2872   */\n      tag_170\n        /* \"#utility.yul\":2868:2871   */\n      dup3\n        /* \"#utility.yul\":2779:2872   */\n      tag_171\n      jump\t// in\n    tag_170:\n        /* \"#utility.yul\":2897:2899   */\n      0x20\n        /* \"#utility.yul\":2892:2895   */\n      dup3\n        /* \"#utility.yul\":2888:2900   */\n      add\n        /* \"#utility.yul\":2881:2900   */\n      swap1\n      pop\n        /* \"#utility.yul\":2540:2906   */\n      swap2\n      swap1\n      pop\n      jump\t// out\n        /* \"#utility.yul\":2912:3278   */\n    tag_172:\n        /* \"#utility.yul\":3054:3057   */\n      0x00\n        /* \"#utility.yul\":3075:3142   */\n      tag_174\n        /* \"#utility.yul\":3139:3141   */\n      0x28\n        /* \"#utility.yul\":3134:3137   */\n      dup4\n        /* \"#utility.yul\":3075:3142   */\n      tag_159\n      jump\t// in\n    tag_174:\n        /* \"#utility.yul\":3068:3142   */\n      swap2\n      pop\n        /* \"#utility.yul\":3151:3244   */\n      tag_175\n        /* \"#utility.yul\":3240:3243   */\n      dup3\n        /* \"#utility.yul\":3151:3244   */\n      tag_176\n      jump\t// in\n    tag_175:\n        /* \"#utility.yul\":3269:3271   */\n      0x40\n        /* \"#utility.yul\":3264:3267   */\n      dup3\n        /* \"#utility.yul\":3260:3272   */\n      add\n        /* \"#utility.yul\":3253:3272   */\n      swap1\n      pop\n        /* \"#utility.yul\":2912:3278   */\n      swap2\n      swap1\n      pop\n      jump\t// out\n        /* \"#utility.yul\":3284:3650   */\n    tag_177:\n        /* \"#utility.yul\":3426:3429   */\n      0x00\n        /* \"#utility.yul\":3447:3514   */\n      tag_179\n        /* \"#utility.yul\":3511:3513   */\n      0x2f\n        /* \"#utility.yul\":3506:3509   */\n      dup4\n        /* \"#utility.yul\":3447:3514   */\n      tag_159\n      jump\t// in\n    tag_179:\n        /* \"#utility.yul\":3440:3514   */\n      swap2\n      pop\n        /* \"#utility.yul\":3523:3616   */\n      tag_180\n        /* \"#utility.yul\":3612:3615   */\n      dup3\n        /* \"#utility.yul\":3523:3616   */\n      tag_181\n      jump\t// in\n    tag_180:\n        /* \"#utility.yul\":3641:3643   */\n      0x40\n        /* \"#utility.yul\":3636:3639   */\n      dup3\n        /* \"#utility.yul\":3632:3644   */\n      add\n        /* \"#utility.yul\":3625:3644   */\n      swap1\n      pop\n        /* \"#utility.yul\":3284:3650   */\n      swap2\n      swap1\n      pop\n      jump\t// out\n        /* \"#utility.yul\":3656:4022   */\n    tag_182:\n        /* \"#utility.yul\":3798:3801   */\n      0x00\n        /* \"#utility.yul\":3819:3886   */\n      tag_184\n        /* \"#utility.yul\":3883:3885   */\n      0x1d\n        /* \"#utility.yul\":3878:3881   */\n      dup4\n        /* \"#utility.yul\":3819:3886   */\n      tag_159\n      jump\t// in\n    tag_184:\n        /* \"#utility.yul\":3812:3886   */\n      swap2\n      pop\n        /* \"#utility.yul\":3895:3988   */\n      tag_185\n        /* \"#utility.yul\":3984:3987   */\n      dup3\n        /* \"#utility.yul\":3895:3988   */\n      tag_186\n      jump\t// in\n    tag_185:\n        /* \"#utility.yul\":4013:4015   */\n      0x20\n        /* \"#utility.yul\":4008:4011   */\n      dup3\n        /* \"#utility.yul\":4004:4016   */\n      add\n        /* \"#utility.yul\":3997:4016   */\n      swap1\n      pop\n        /* \"#utility.yul\":3656:4022   */\n      swap2\n      swap1\n      pop\n      jump\t// out\n        /* \"#utility.yul\":4028:4394   */\n    tag_187:\n        /* \"#utility.yul\":4170:4173   */\n      0x00\n        /* \"#utility.yul\":4191:4258   */\n      tag_189\n        /* \"#utility.yul\":4255:4257   */\n      0x20\n        /* \"#utility.yul\":4250:4253   */\n      dup4\n        /* \"#utility.yul\":4191:4258   */\n      tag_159\n      jump\t// in\n    tag_189:\n        /* \"#utility.yul\":4184:4258   */\n      swap2\n      pop\n        /* \"#utility.yul\":4267:4360   */\n      tag_190\n        /* \"#utility.yul\":4356:4359   */\n      dup3\n        /* \"#utility.yul\":4267:4360   */\n      tag_191\n      jump\t// in\n    tag_190:\n        /* \"#utility.yul\":4385:4387   */\n      0x20\n        /* \"#utility.yul\":4380:4383   */\n      dup3\n        /* \"#utility.yul\":4376:4388   */\n      add\n        /* \"#utility.yul\":4369:4388   */\n      swap1\n      pop\n        /* \"#utility.yul\":4028:4394   */\n      swap2\n      swap1\n      pop\n      jump\t// out\n        /* \"#utility.yul\":4400:4766   */\n    tag_192:\n        /* \"#utility.yul\":4542:4545   */\n      0x00\n        /* \"#utility.yul\":4563:4630   */\n      tag_194\n        /* \"#utility.yul\":4627:4629   */\n      0x18\n        /* \"#utility.yul\":4622:4625   */\n      dup4\n        /* \"#utility.yul\":4563:4630   */\n      tag_159\n      jump\t// in\n    tag_194:\n        /* \"#utility.yul\":4556:4630   */\n      swap2\n      pop\n        /* \"#utility.yul\":4639:4732   */\n      tag_195\n        /* \"#utility.yul\":4728:4731   */\n      dup3\n        /* \"#utility.yul\":4639:4732   */\n      tag_196\n      jump\t// in\n    tag_195:\n        /* \"#utility.yul\":4757:4759   */\n      0x20\n        /* \"#utility.yul\":4752:4755   */\n      dup3\n        /* \"#utility.yul\":4748:4760   */\n      add\n        /* \"#utility.yul\":4741:4760   */\n      swap1\n      pop\n        /* \"#utility.yul\":4400:4766   */\n      swap2\n      swap1\n      pop\n      jump\t// out\n        /* \"#utility.yul\":4772:4890   */\n    tag_197:\n        /* \"#utility.yul\":4859:4883   */\n      tag_199\n        /* \"#utility.yul\":4877:4882   */\n      dup2\n        /* \"#utility.yul\":4859:4883   */\n      tag_200\n      jump\t// in\n    tag_199:\n        /* \"#utility.yul\":4854:4857   */\n      dup3\n        /* \"#utility.yul\":4847:4884   */\n      mstore\n        /* \"#utility.yul\":4772:4890   */\n      pop\n      pop\n      jump\t// out\n        /* \"#utility.yul\":4896:5118   */\n    tag_29:\n        /* \"#utility.yul\":4989:4993   */\n      0x00\n        /* \"#utility.yul\":5027:5029   */\n      0x20\n        /* \"#utility.yul\":5016:5025   */\n      dup3\n        /* \"#utility.yul\":5012:5030   */\n      add\n        /* \"#utility.yul\":5004:5030   */\n      swap1\n      pop\n        /* \"#utility.yul\":5040:5111   */\n      tag_202\n        /* \"#utility.yul\":5108:5109   */\n      0x00\n        /* \"#utility.yul\":5097:5106   */\n      dup4\n        /* \"#utility.yul\":5093:5110   */\n      add\n        /* \"#utility.yul\":5084:5090   */\n      dup5\n        /* \"#utility.yul\":5040:5111   */\n      tag_148\n      jump\t// in\n    tag_202:\n        /* \"#utility.yul\":4896:5118   */\n      swap3\n      swap2\n      pop\n      pop\n      jump\t// out\n        /* \"#utility.yul\":5124:5346   */\n    tag_52:\n        /* \"#utility.yul\":5217:5221   */\n      0x00\n        /* \"#utility.yul\":5255:5257   */\n      0x20\n        /* \"#utility.yul\":5244:5253   */\n      dup3\n        /* \"#utility.yul\":5240:5258   */\n      add\n        /* \"#utility.yul\":5232:5258   */\n      swap1\n      pop\n        /* \"#utility.yul\":5268:5339   */\n      tag_204\n        /* \"#utility.yul\":5336:5337   */\n      0x00\n        /* \"#utility.yul\":5325:5334   */\n      dup4\n        /* \"#utility.yul\":5321:5338   */\n      add\n        /* \"#utility.yul\":5312:5318   */\n      dup5\n        /* \"#utility.yul\":5268:5339   */\n      tag_152\n      jump\t// in\n    tag_204:\n        /* \"#utility.yul\":5124:5346   */\n      swap3\n      swap2\n      pop\n      pop\n      jump\t// out\n        /* \"#utility.yul\":5352:5771   */\n    tag_96:\n        /* \"#utility.yul\":5518:5522   */\n      0x00\n        /* \"#utility.yul\":5556:5558   */\n      0x20\n        /* \"#utility.yul\":5545:5554   */\n      dup3\n        /* \"#utility.yul\":5541:5559   */\n      add\n        /* \"#utility.yul\":5533:5559   */\n      swap1\n      pop\n        /* \"#utility.yul\":5605:5614   */\n      dup2\n        /* \"#utility.yul\":5599:5603   */\n      dup2\n        /* \"#utility.yul\":5595:5615   */\n      sub\n        /* \"#utility.yul\":5591:5592   */\n      0x00\n        /* \"#utility.yul\":5580:5589   */\n      dup4\n        /* \"#utility.yul\":5576:5593   */\n      add\n        /* \"#utility.yul\":5569:5616   */\n      mstore\n        /* \"#utility.yul\":5633:5764   */\n      tag_206\n        /* \"#utility.yul\":5759:5763   */\n      dup2\n        /* \"#utility.yul\":5633:5764   */\n      tag_156\n      jump\t// in\n    tag_206:\n        /* \"#utility.yul\":5625:5764   */\n      swap1\n      pop\n        /* \"#utility.yul\":5352:5771   */\n      swap2\n      swap1\n      pop\n      jump\t// out\n        /* \"#utility.yul\":5777:6196   */\n    tag_105:\n        /* \"#utility.yul\":5943:5947   */\n      0x00\n        /* \"#utility.yul\":5981:5983   */\n      0x20\n        /* \"#utility.yul\":5970:5979   */\n      dup3\n        /* \"#utility.yul\":5966:5984   */\n      add\n        /* \"#utility.yul\":5958:5984   */\n      swap1\n      pop\n        /* \"#utility.yul\":6030:6039   */\n      dup2\n        /* \"#utility.yul\":6024:6028   */\n      dup2\n        /* \"#utility.yul\":6020:6040   */\n      sub\n        /* \"#utility.yul\":6016:6017   */\n      0x00\n        /* \"#utility.yul\":6005:6014   */\n      dup4\n        /* \"#utility.yul\":6001:6018   */\n      add\n        /* \"#utility.yul\":5994:6041   */\n      mstore\n        /* \"#utility.yul\":6058:6189   */\n      tag_208\n        /* \"#utility.yul\":6184:6188   */\n      dup2\n        /* \"#utility.yul\":6058:6189   */\n      tag_162\n      jump\t// in\n    tag_208:\n        /* \"#utility.yul\":6050:6189   */\n      swap1\n      pop\n        /* \"#utility.yul\":5777:6196   */\n      swap2\n      swap1\n      pop\n      jump\t// out\n        /* \"#utility.yul\":6202:6621   */\n    tag_81:\n        /* \"#utility.yul\":6368:6372   */\n      0x00\n        /* \"#utility.yul\":6406:6408   */\n      0x20\n        /* \"#utility.yul\":6395:6404   */\n      dup3\n        /* \"#utility.yul\":6391:6409   */\n      add\n        /* \"#utility.yul\":6383:6409   */\n      swap1\n      pop\n        /* \"#utility.yul\":6455:6464   */\n      dup2\n        /* \"#utility.yul\":6449:6453   */\n      dup2\n        /* \"#utility.yul\":6445:6465   */\n      sub\n        /* \"#utility.yul\":6441:6442   */\n      0x00\n        /* \"#utility.yul\":6430:6439   */\n      dup4\n        /* \"#utility.yul\":6426:6443   */\n      add\n        /* \"#utility.yul\":6419:6466   */\n      mstore\n        /* \"#utility.yul\":6483:6614   */\n      tag_210\n        /* \"#utility.yul\":6609:6613   */\n      dup2\n        /* \"#utility.yul\":6483:6614   */\n      tag_167\n      jump\t// in\n    tag_210:\n        /* \"#utility.yul\":6475:6614   */\n      swap1\n      pop\n        /* \"#utility.yul\":6202:6621   */\n      swap2\n      swap1\n      pop\n      jump\t// out\n        /* \"#utility.yul\":6627:7046   */\n    tag_67:\n        /* \"#utility.yul\":6793:6797   */\n      0x00\n        /* \"#utility.yul\":6831:6833   */\n      0x20\n        /* \"#utility.yul\":6820:6829   */\n      dup3\n        /* \"#utility.yul\":6816:6834   */\n      add\n        /* \"#utility.yul\":6808:6834   */\n      swap1\n      pop\n        /* \"#utility.yul\":6880:6889   */\n      dup2\n        /* \"#utility.yul\":6874:6878   */\n      dup2\n        /* \"#utility.yul\":6870:6890   */\n      sub\n        /* \"#utility.yul\":6866:6867   */\n      0x00\n        /* \"#utility.yul\":6855:6864   */\n      dup4\n        /* \"#utility.yul\":6851:6868   */\n      add\n        /* \"#utility.yul\":6844:6891   */\n      mstore\n        /* \"#utility.yul\":6908:7039   */\n      tag_212\n        /* \"#utility.yul\":7034:7038   */\n      dup2\n        /* \"#utility.yul\":6908:7039   */\n      tag_172\n      jump\t// in\n    tag_212:\n        /* \"#utility.yul\":6900:7039   */\n      swap1\n      pop\n        /* \"#utility.yul\":6627:7046   */\n      swap2\n      swap1\n      pop\n      jump\t// out\n        /* \"#utility.yul\":7052:7471   */\n    tag_109:\n        /* \"#utility.yul\":7218:7222   */\n      0x00\n        /* \"#utility.yul\":7256:7258   */\n      0x20\n        /* \"#utility.yul\":7245:7254   */\n      dup3\n        /* \"#utility.yul\":7241:7259   */\n      add\n        /* \"#utility.yul\":7233:7259   */\n      swap1\n      pop\n        /* \"#utility.yul\":7305:7314   */\n      dup2\n        /* \"#utility.yul\":7299:7303   */\n      dup2\n        /* \"#utility.yul\":7295:7315   */\n      sub\n        /* \"#utility.yul\":7291:7292   */\n      0x00\n        /* \"#utility.yul\":7280:7289   */\n      dup4\n        /* \"#utility.yul\":7276:7293   */\n      add\n        /* \"#utility.yul\":7269:7316   */\n      mstore\n        /* \"#utility.yul\":7333:7464   */\n      tag_214\n        /* \"#utility.yul\":7459:7463   */\n      dup2\n        /* \"#utility.yul\":7333:7464   */\n      tag_177\n      jump\t// in\n    tag_214:\n        /* \"#utility.yul\":7325:7464   */\n      swap1\n      pop\n        /* \"#utility.yul\":7052:7471   */\n      swap2\n      swap1\n      pop\n      jump\t// out\n        /* \"#utility.yul\":7477:7896   */\n    tag_112:\n        /* \"#utility.yul\":7643:7647   */\n      0x00\n        /* \"#utility.yul\":7681:7683   */\n      0x20\n        /* \"#utility.yul\":7670:7679   */\n      dup3\n        /* \"#utility.yul\":7666:7684   */\n      add\n        /* \"#utility.yul\":7658:7684   */\n      swap1\n      pop\n        /* \"#utility.yul\":7730:7739   */\n      dup2\n        /* \"#utility.yul\":7724:7728   */\n      dup2\n        /* \"#utility.yul\":7720:7740   */\n      sub\n        /* \"#utility.yul\":7716:7717   */\n      0x00\n        /* \"#utility.yul\":7705:7714   */\n      dup4\n        /* \"#utility.yul\":7701:7718   */\n      add\n        /* \"#utility.yul\":7694:7741   */\n      mstore\n        /* \"#utility.yul\":7758:7889   */\n      tag_216\n        /* \"#utility.yul\":7884:7888   */\n      dup2\n        /* \"#utility.yul\":7758:7889   */\n      tag_182\n      jump\t// in\n    tag_216:\n        /* \"#utility.yul\":7750:7889   */\n      swap1\n      pop\n        /* \"#utility.yul\":7477:7896   */\n      swap2\n      swap1\n      pop\n      jump\t// out\n        /* \"#utility.yul\":7902:8321   */\n    tag_120:\n        /* \"#utility.yul\":8068:8072   */\n      0x00\n        /* \"#utility.yul\":8106:8108   */\n      0x20\n        /* \"#utility.yul\":8095:8104   */\n      dup3\n        /* \"#utility.yul\":8091:8109   */\n      add\n        /* \"#utility.yul\":8083:8109   */\n      swap1\n      pop\n        /* \"#utility.yul\":8155:8164   */\n      dup2\n        /* \"#utility.yul\":8149:8153   */\n      dup2\n        /* \"#utility.yul\":8145:8165   */\n      sub\n        /* \"#utility.yul\":8141:8142   */\n      0x00\n        /* \"#utility.yul\":8130:8139   */\n      dup4\n        /* \"#utility.yul\":8126:8143   */\n      add\n        /* \"#utility.yul\":8119:8166   */\n      mstore\n        /* \"#utility.yul\":8183:8314   */\n      tag_218\n        /* \"#utility.yul\":8309:8313   */\n      dup2\n        /* \"#utility.yul\":8183:8314   */\n      tag_187\n      jump\t// in\n    tag_218:\n        /* \"#utility.yul\":8175:8314   */\n      swap1\n      pop\n        /* \"#utility.yul\":7902:8321   */\n      swap2\n      swap1\n      pop\n      jump\t// out\n        /* \"#utility.yul\":8327:8746   */\n    tag_90:\n        /* \"#utility.yul\":8493:8497   */\n      0x00\n        /* \"#utility.yul\":8531:8533   */\n      0x20\n        /* \"#utility.yul\":8520:8529   */\n      dup3\n        /* \"#utility.yul\":8516:8534   */\n      add\n        /* \"#utility.yul\":8508:8534   */\n      swap1\n      pop\n        /* \"#utility.yul\":8580:8589   */\n      dup2\n        /* \"#utility.yul\":8574:8578   */\n      dup2\n        /* \"#utility.yul\":8570:8590   */\n      sub\n        /* \"#utility.yul\":8566:8567   */\n      0x00\n        /* \"#utility.yul\":8555:8564   */\n      dup4\n        /* \"#utility.yul\":8551:8568   */\n      add\n        /* \"#utility.yul\":8544:8591   */\n      mstore\n        /* \"#utility.yul\":8608:8739   */\n      tag_220\n        /* \"#utility.yul\":8734:8738   */\n      dup2\n        /* \"#utility.yul\":8608:8739   */\n      tag_192\n      jump\t// in\n    tag_220:\n        /* \"#utility.yul\":8600:8739   */\n      swap1\n      pop\n        /* \"#utility.yul\":8327:8746   */\n      swap2\n      swap1\n      pop\n      jump\t// out\n        /* \"#utility.yul\":8752:8974   */\n    tag_19:\n        /* \"#utility.yul\":8845:8849   */\n      0x00\n        /* \"#utility.yul\":8883:8885   */\n      0x20\n        /* \"#utility.yul\":8872:8881   */\n      dup3\n        /* \"#utility.yul\":8868:8886   */\n      add\n        /* \"#utility.yul\":8860:8886   */\n      swap1\n      pop\n        /* \"#utility.yul\":8896:8967   */\n      tag_222\n        /* \"#utility.yul\":8964:8965   */\n      0x00\n        /* \"#utility.yul\":8953:8962   */\n      dup4\n        /* \"#utility.yul\":8949:8966   */\n      add\n        /* \"#utility.yul\":8940:8946   */\n      dup5\n        /* \"#utility.yul\":8896:8967   */\n      tag_197\n      jump\t// in\n    tag_222:\n        /* \"#utility.yul\":8752:8974   */\n      swap3\n      swap2\n      pop\n      pop\n      jump\t// out\n        /* \"#utility.yul\":9061:9230   */\n    tag_159:\n        /* \"#utility.yul\":9145:9156   */\n      0x00\n        /* \"#utility.yul\":9179:9185   */\n      dup3\n        /* \"#utility.yul\":9174:9177   */\n      dup3\n        /* \"#utility.yul\":9167:9186   */\n      mstore\n        /* \"#utility.yul\":9219:9223   */\n      0x20\n        /* \"#utility.yul\":9214:9217   */\n      dup3\n        /* \"#utility.yul\":9210:9224   */\n      add\n        /* \"#utility.yul\":9195:9224   */\n      swap1\n      pop\n        /* \"#utility.yul\":9061:9230   */\n      swap3\n      swap2\n      pop\n      pop\n      jump\t// out\n        /* \"#utility.yul\":9236:9332   */\n    tag_151:\n        /* \"#utility.yul\":9273:9280   */\n      0x00\n        /* \"#utility.yul\":9302:9326   */\n      tag_227\n        /* \"#utility.yul\":9320:9325   */\n      dup3\n        /* \"#utility.yul\":9302:9326   */\n      tag_228\n      jump\t// in\n    tag_227:\n        /* \"#utility.yul\":9291:9326   */\n      swap1\n      pop\n        /* \"#utility.yul\":9236:9332   */\n      swap2\n      swap1\n      pop\n      jump\t// out\n        /* \"#utility.yul\":9338:9415   */\n    tag_155:\n        /* \"#utility.yul\":9375:9382   */\n      0x00\n        /* \"#utility.yul\":9404:9409   */\n      dup2\n        /* \"#utility.yul\":9393:9409   */\n      swap1\n      pop\n        /* \"#utility.yul\":9338:9415   */\n      swap2\n      swap1\n      pop\n      jump\t// out\n        /* \"#utility.yul\":9421:9547   */\n    tag_228:\n        /* \"#utility.yul\":9458:9465   */\n      0x00\n        /* \"#utility.yul\":9498:9540   */\n      0xffffffffffffffffffffffffffffffffffffffff\n        /* \"#utility.yul\":9491:9496   */\n      dup3\n        /* \"#utility.yul\":9487:9541   */\n      and\n        /* \"#utility.yul\":9476:9541   */\n      swap1\n      pop\n        /* \"#utility.yul\":9421:9547   */\n      swap2\n      swap1\n      pop\n      jump\t// out\n        /* \"#utility.yul\":9553:9630   */\n    tag_200:\n        /* \"#utility.yul\":9590:9597   */\n      0x00\n        /* \"#utility.yul\":9619:9624   */\n      dup2\n        /* \"#utility.yul\":9608:9624   */\n      swap1\n      pop\n        /* \"#utility.yul\":9553:9630   */\n      swap2\n      swap1\n      pop\n      jump\t// out\n        /* \"#utility.yul\":9636:9816   */\n    tag_62:\n        /* \"#utility.yul\":9684:9761   */\n      0x4e487b7100000000000000000000000000000000000000000000000000000000\n        /* \"#utility.yul\":9681:9682   */\n      0x00\n        /* \"#utility.yul\":9674:9762   */\n      mstore\n        /* \"#utility.yul\":9781:9785   */\n      0x21\n        /* \"#utility.yul\":9778:9779   */\n      0x04\n        /* \"#utility.yul\":9771:9786   */\n      mstore\n        /* \"#utility.yul\":9805:9809   */\n      0x24\n        /* \"#utility.yul\":9802:9803   */\n      0x00\n        /* \"#utility.yul\":9795:9810   */\n      revert\n        /* \"#utility.yul\":9945:10062   */\n    tag_139:\n        /* \"#utility.yul\":10054:10055   */\n      0x00\n        /* \"#utility.yul\":10051:10052   */\n      dup1\n        /* \"#utility.yul\":10044:10056   */\n      revert\n        /* \"#utility.yul\":10068:10293   */\n    tag_161:\n        /* \"#utility.yul\":10208:10242   */\n      0x4f776e61626c653a206e6577206f776e657220697320746865207a65726f2061\n        /* \"#utility.yul\":10204:10205   */\n      0x00\n        /* \"#utility.yul\":10196:10202   */\n      dup3\n        /* \"#utility.yul\":10192:10206   */\n      add\n        /* \"#utility.yul\":10185:10243   */\n      mstore\n        /* \"#utility.yul\":10277:10285   */\n      0x6464726573730000000000000000000000000000000000000000000000000000\n        /* \"#utility.yul\":10272:10274   */\n      0x20\n        /* \"#utility.yul\":10264:10270   */\n      dup3\n        /* \"#utility.yul\":10260:10275   */\n      add\n        /* \"#utility.yul\":10253:10286   */\n      mstore\n        /* \"#utility.yul\":10068:10293   */\n      pop\n      jump\t// out\n        /* \"#utility.yul\":10299:10481   */\n    tag_166:\n        /* \"#utility.yul\":10439:10473   */\n      0x70726f64756365206973206e6f74206f70656e20666f72206f72646572696e67\n        /* \"#utility.yul\":10435:10436   */\n      0x00\n        /* \"#utility.yul\":10427:10433   */\n      dup3\n        /* \"#utility.yul\":10423:10437   */\n      add\n        /* \"#utility.yul\":10416:10474   */\n      mstore\n        /* \"#utility.yul\":10299:10481   */\n      pop\n      jump\t// out\n        /* \"#utility.yul\":10487:10668   */\n    tag_171:\n        /* \"#utility.yul\":10627:10660   */\n      0x6f6e6c79206f70656e2070726f647563652063616e20626520636c6f73656400\n        /* \"#utility.yul\":10623:10624   */\n      0x00\n        /* \"#utility.yul\":10615:10621   */\n      dup3\n        /* \"#utility.yul\":10611:10625   */\n      add\n        /* \"#utility.yul\":10604:10661   */\n      mstore\n        /* \"#utility.yul\":10487:10668   */\n      pop\n      jump\t// out\n        /* \"#utility.yul\":10674:10901   */\n    tag_176:\n        /* \"#utility.yul\":10814:10848   */\n      0x546869732070726f647563652068617320616c7265616479206265656e20696e\n        /* \"#utility.yul\":10810:10811   */\n      0x00\n        /* \"#utility.yul\":10802:10808   */\n      dup3\n        /* \"#utility.yul\":10798:10812   */\n      add\n        /* \"#utility.yul\":10791:10849   */\n      mstore\n        /* \"#utility.yul\":10883:10893   */\n      0x6974696c697a6564000000000000000000000000000000000000000000000000\n        /* \"#utility.yul\":10878:10880   */\n      0x20\n        /* \"#utility.yul\":10870:10876   */\n      dup3\n        /* \"#utility.yul\":10866:10881   */\n      add\n        /* \"#utility.yul\":10859:10894   */\n      mstore\n        /* \"#utility.yul\":10674:10901   */\n      pop\n      jump\t// out\n        /* \"#utility.yul\":10907:11141   */\n    tag_181:\n        /* \"#utility.yul\":11047:11081   */\n      0x6661726d65722063616e6e6f7420706c616365206f7264657220666f72207468\n        /* \"#utility.yul\":11043:11044   */\n      0x00\n        /* \"#utility.yul\":11035:11041   */\n      dup3\n        /* \"#utility.yul\":11031:11045   */\n      add\n        /* \"#utility.yul\":11024:11082   */\n      mstore\n        /* \"#utility.yul\":11116:11133   */\n      0x656972206f776e2070726f647563650000000000000000000000000000000000\n        /* \"#utility.yul\":11111:11113   */\n      0x20\n        /* \"#utility.yul\":11103:11109   */\n      dup3\n        /* \"#utility.yul\":11099:11114   */\n      add\n        /* \"#utility.yul\":11092:11134   */\n      mstore\n        /* \"#utility.yul\":10907:11141   */\n      pop\n      jump\t// out\n        /* \"#utility.yul\":11147:11326   */\n    tag_186:\n        /* \"#utility.yul\":11287:11318   */\n      0x6f726465722068617320616c7265616479206265656e20706c61636564000000\n        /* \"#utility.yul\":11283:11284   */\n      0x00\n        /* \"#utility.yul\":11275:11281   */\n      dup3\n        /* \"#utility.yul\":11271:11285   */\n      add\n        /* \"#utility.yul\":11264:11319   */\n      mstore\n        /* \"#utility.yul\":11147:11326   */\n      pop\n      jump\t// out\n        /* \"#utility.yul\":11332:11514   */\n    tag_191:\n        /* \"#utility.yul\":11472:11506   */\n      0x4f776e61626c653a2063616c6c6572206973206e6f7420746865206f776e6572\n        /* \"#utility.yul\":11468:11469   */\n      0x00\n        /* \"#utility.yul\":11460:11466   */\n      dup3\n        /* \"#utility.yul\":11456:11470   */\n      add\n        /* \"#utility.yul\":11449:11507   */\n      mstore\n        /* \"#utility.yul\":11332:11514   */\n      pop\n      jump\t// out\n        /* \"#utility.yul\":11520:11694   */\n    tag_196:\n        /* \"#utility.yul\":11660:11686   */\n      0x6e6f206f7264657220686173206265656e20706c616365640000000000000000\n        /* \"#utility.yul\":11656:11657   */\n      0x00\n        /* \"#utility.yul\":11648:11654   */\n      dup3\n        /* \"#utility.yul\":11644:11658   */\n      add\n        /* \"#utility.yul\":11637:11687   */\n      mstore\n        /* \"#utility.yul\":11520:11694   */\n      pop\n      jump\t// out\n        /* \"#utility.yul\":11700:11822   */\n    tag_127:\n        /* \"#utility.yul\":11773:11797   */\n      tag_245\n        /* \"#utility.yul\":11791:11796   */\n      dup2\n        /* \"#utility.yul\":11773:11797   */\n      tag_151\n      jump\t// in\n    tag_245:\n        /* \"#utility.yul\":11766:11771   */\n      dup2\n        /* \"#utility.yul\":11763:11798   */\n      eq\n        /* \"#utility.yul\":11753:11816   */\n      tag_246\n      jumpi\n        /* \"#utility.yul\":11812:11813   */\n      0x00\n        /* \"#utility.yul\":11809:11810   */\n      dup1\n        /* \"#utility.yul\":11802:11814   */\n      revert\n        /* \"#utility.yul\":11753:11816   */\n    tag_246:\n        /* \"#utility.yul\":11700:11822   */\n      pop\n      jump\t// out\n        /* \"#utility.yul\":11828:11950   */\n    tag_131:\n        /* \"#utility.yul\":11901:11925   */\n      tag_248\n        /* \"#utility.yul\":11919:11924   */\n      dup2\n        /* \"#utility.yul\":11901:11925   */\n      tag_155\n      jump\t// in\n    tag_248:\n        /* \"#utility.yul\":11894:11899   */\n      dup2\n        /* \"#utility.yul\":11891:11926   */\n      eq\n        /* \"#utility.yul\":11881:11944   */\n      tag_249\n      jumpi\n        /* \"#utility.yul\":11940:11941   */\n      0x00\n        /* \"#utility.yul\":11937:11938   */\n      dup1\n        /* \"#utility.yul\":11930:11942   */\n      revert\n        /* \"#utility.yul\":11881:11944   */\n    tag_249:\n        /* \"#utility.yul\":11828:11950   */\n      pop\n      jump\t// out\n        /* \"#utility.yul\":11956:12078   */\n    tag_135:\n        /* \"#utility.yul\":12029:12053   */\n      tag_251\n        /* \"#utility.yul\":12047:12052   */\n      dup2\n        /* \"#utility.yul\":12029:12053   */\n      tag_200\n      jump\t// in\n    tag_251:\n        /* \"#utility.yul\":12022:12027   */\n      dup2\n        /* \"#utility.yul\":12019:12054   */\n      eq\n        /* \"#utility.yul\":12009:12072   */\n      tag_252\n      jumpi\n        /* \"#utility.yul\":12068:12069   */\n      0x00\n        /* \"#utility.yul\":12065:12066   */\n      dup1\n        /* \"#utility.yul\":12058:12070   */\n      revert\n        /* \"#utility.yul\":12009:12072   */\n    tag_252:\n        /* \"#utility.yul\":11956:12078   */\n      pop\n      jump\t// out\n\n    auxdata: 0xa2646970667358221220f6cd0c3ddd0f81ccdb9fe155bcd3997d213b24da6936c8a86b298da83b10b7af64736f6c63430008070033\n}\n",
				"bytecode": {
					"linkReferences": {},
					"object": "608060405234801561001057600080fd5b5061002d61002261005d60201b60201c565b61006560201b60201c565b6000600760006101000a81548160ff0219169083600281111561005357610052610129565b5b0217905550610158565b600033905090565b60008060009054906101000a900473ffffffffffffffffffffffffffffffffffffffff169050816000806101000a81548173ffffffffffffffffffffffffffffffffffffffff021916908373ffffffffffffffffffffffffffffffffffffffff1602179055508173ffffffffffffffffffffffffffffffffffffffff168173ffffffffffffffffffffffffffffffffffffffff167f8be0079c531659141344cd1fd0a4f28419497f9722a3daafe3b4186f6b6457e060405160405180910390a35050565b7f4e487b7100000000000000000000000000000000000000000000000000000000600052602160045260246000fd5b610f82806101676000396000f3fe608060405234801561001057600080fd5b50600436106100b45760003560e01c8063a035b1fe11610071578063a035b1fe14610143578063d811fcf014610161578063eaa61dea1461017f578063f2fde38b14610189578063f5c609e0146101a5578063fa34f63a146101af576100b4565b80636d86b8a5146100b9578063715018a6146100d757806376c820f6146100e157806380f55605146100fd5780638da5cb5b1461011b57806391bc0bad14610139575b600080fd5b6100c16101cd565b6040516100ce9190610ca7565b60405180910390f35b6100df6101d3565b005b6100fb60048036038101906100f691906109c5565b6101e7565b005b6101056102ed565b6040516101129190610b71565b60405180910390f35b610123610313565b6040516101309190610b71565b60405180910390f35b61014161033c565b005b61014b610469565b6040516101589190610ca7565b60405180910390f35b61016961046f565b6040516101769190610b71565b60405180910390f35b610187610495565b005b6101a3600480360381019061019e9190610998565b61057b565b005b6101ad6105ff565b005b6101b7610809565b6040516101c49190610b8c565b60405180910390f35b60055481565b6101db61080f565b6101e5600061088d565b565b600060028111156101fb576101fa610d19565b5b600760009054906101000a900460ff16600281111561021d5761021c610d19565b5b1461025d576040517f08c379a000000000000000000000000000000000000000000000000000000000815260040161025490610c07565b60405180910390fd5b6102668461088d565b33600260006101000a81548173ffffffffffffffffffffffffffffffffffffffff021916908373ffffffffffffffffffffffffffffffffffffffff1602179055508260038190555081600481905550806005819055506001600760006101000a81548160ff021916908360028111156102e2576102e1610d19565b5b021790555050505050565b600260009054906101000a900473ffffffffffffffffffffffffffffffffffffffff1681565b60008060009054906101000a900473ffffffffffffffffffffffffffffffffffffffff16905090565b61034461080f565b6001600281111561035857610357610d19565b5b600760009054906101000a900460ff16600281111561037a57610379610d19565b5b146103ba576040517f08c379a00000000000000000000000000000000000000000000000000000000081526004016103b190610be7565b60405180910390fd5b6002600760006101000a81548160ff021916908360028111156103e0576103df610d19565b5b0217905550600260009054906101000a900473ffffffffffffffffffffffffffffffffffffffff1673ffffffffffffffffffffffffffffffffffffffff16639def98466040518163ffffffff1660e01b8152600401600060405180830381600087803b15801561044f57600080fd5b505af1158015610463573d6000803e3d6000fd5b50505050565b60045481565b600160009054906101000a900473ffffffffffffffffffffffffffffffffffffffff1681565b600660003373ffffffffffffffffffffffffffffffffffffffff1673ffffffffffffffffffffffffffffffffffffffff16815260200190815260200160002060009054906101000a900460ff16610521576040517f08c379a000000000000000000000000000000000000000000000000000000000815260040161051890610c87565b60405180910390fd5b6000600660003373ffffffffffffffffffffffffffffffffffffffff1673ffffffffffffffffffffffffffffffffffffffff16815260200190815260200160002060006101000a81548160ff021916908315150217905550565b61058361080f565b600073ffffffffffffffffffffffffffffffffffffffff168173ffffffffffffffffffffffffffffffffffffffff1614156105f3576040517f08c379a00000000000000000000000000000000000000000000000000000000081526004016105ea90610ba7565b60405180910390fd5b6105fc8161088d565b50565b6001600281111561061357610612610d19565b5b600760009054906101000a900460ff16600281111561063557610634610d19565b5b14610675576040517f08c379a000000000000000000000000000000000000000000000000000000000815260040161066c90610bc7565b60405180910390fd5b61067d610313565b73ffffffffffffffffffffffffffffffffffffffff163373ffffffffffffffffffffffffffffffffffffffff1614156106eb576040517f08c379a00000000000000000000000000000000000000000000000000000000081526004016106e290610c27565b60405180910390fd5b600660003373ffffffffffffffffffffffffffffffffffffffff1673ffffffffffffffffffffffffffffffffffffffff16815260200190815260200160002060009054906101000a900460ff1615610778576040517f08c379a000000000000000000000000000000000000000000000000000000000815260040161076f90610c47565b60405180910390fd5b6001600660003373ffffffffffffffffffffffffffffffffffffffff1673ffffffffffffffffffffffffffffffffffffffff16815260200190815260200160002060006101000a81548160ff0219169083151502179055507fe7183a38a6aa8fb99c4071a88f3acd0b3c30fd4b05330c2f0a0724bb0254f804336040516107ff9190610b71565b60405180910390a1565b60035481565b610817610951565b73ffffffffffffffffffffffffffffffffffffffff16610835610313565b73ffffffffffffffffffffffffffffffffffffffff161461088b576040517f08c379a000000000000000000000000000000000000000000000000000000000815260040161088290610c67565b60405180910390fd5b565b60008060009054906101000a900473ffffffffffffffffffffffffffffffffffffffff169050816000806101000a81548173ffffffffffffffffffffffffffffffffffffffff021916908373ffffffffffffffffffffffffffffffffffffffff1602179055508173ffffffffffffffffffffffffffffffffffffffff168173ffffffffffffffffffffffffffffffffffffffff167f8be0079c531659141344cd1fd0a4f28419497f9722a3daafe3b4186f6b6457e060405160405180910390a35050565b600033905090565b60008135905061096881610f07565b92915050565b60008135905061097d81610f1e565b92915050565b60008135905061099281610f35565b92915050565b6000602082840312156109ae576109ad610d48565b5b60006109bc84828501610959565b91505092915050565b600080600080608085870312156109df576109de610d48565b5b60006109ed87828801610959565b94505060206109fe8782880161096e565b9350506040610a0f87828801610983565b9250506060610a2087828801610983565b91505092959194509250565b610a3581610cd3565b82525050565b610a4481610ce5565b82525050565b6000610a57602683610cc2565b9150610a6282610d4d565b604082019050919050565b6000610a7a602083610cc2565b9150610a8582610d9c565b602082019050919050565b6000610a9d601f83610cc2565b9150610aa882610dc5565b602082019050919050565b6000610ac0602883610cc2565b9150610acb82610dee565b604082019050919050565b6000610ae3602f83610cc2565b9150610aee82610e3d565b604082019050919050565b6000610b06601d83610cc2565b9150610b1182610e8c565b602082019050919050565b6000610b29602083610cc2565b9150610b3482610eb5565b602082019050919050565b6000610b4c601883610cc2565b9150610b5782610ede565b602082019050919050565b610b6b81610d0f565b82525050565b6000602082019050610b866000830184610a2c565b92915050565b6000602082019050610ba16000830184610a3b565b92915050565b60006020820190508181036000830152610bc081610a4a565b9050919050565b60006020820190508181036000830152610be081610a6d565b9050919050565b60006020820190508181036000830152610c0081610a90565b9050919050565b60006020820190508181036000830152610c2081610ab3565b9050919050565b60006020820190508181036000830152610c4081610ad6565b9050919050565b60006020820190508181036000830152610c6081610af9565b9050919050565b60006020820190508181036000830152610c8081610b1c565b9050919050565b60006020820190508181036000830152610ca081610b3f565b9050919050565b6000602082019050610cbc6000830184610b62565b92915050565b600082825260208201905092915050565b6000610cde82610cef565b9050919050565b6000819050919050565b600073ffffffffffffffffffffffffffffffffffffffff82169050919050565b6000819050919050565b7f4e487b7100000000000000000000000000000000000000000000000000000000600052602160045260246000fd5b600080fd5b7f4f776e61626c653a206e6577206f776e657220697320746865207a65726f206160008201527f6464726573730000000000000000000000000000000000000000000000000000602082015250565b7f70726f64756365206973206e6f74206f70656e20666f72206f72646572696e67600082015250565b7f6f6e6c79206f70656e2070726f647563652063616e20626520636c6f73656400600082015250565b7f546869732070726f647563652068617320616c7265616479206265656e20696e60008201527f6974696c697a6564000000000000000000000000000000000000000000000000602082015250565b7f6661726d65722063616e6e6f7420706c616365206f7264657220666f7220746860008201527f656972206f776e2070726f647563650000000000000000000000000000000000602082015250565b7f6f726465722068617320616c7265616479206265656e20706c61636564000000600082015250565b7f4f776e61626c653a2063616c6c6572206973206e6f7420746865206f776e6572600082015250565b7f6e6f206f7264657220686173206265656e20706c616365640000000000000000600082015250565b610f1081610cd3565b8114610f1b57600080fd5b50565b610f2781610ce5565b8114610f3257600080fd5b50565b610f3e81610d0f565b8114610f4957600080fd5b5056fea2646970667358221220f6cd0c3ddd0f81ccdb9fe155bcd3997d213b24da6936c8a86b298da83b10b7af64736f6c63430008070033",
					"opcodes": "PUSH1 0x80 PUSH1 0x40 MSTORE CALLVALUE DUP1 ISZERO PUSH2 0x10 JUMPI PUSH1 0x0 DUP1 REVERT JUMPDEST POP PUSH2 0x2D PUSH2 0x22 PUSH2 0x5D PUSH1 0x20 SHL PUSH1 0x20 SHR JUMP JUMPDEST PUSH2 0x65 PUSH1 0x20 SHL PUSH1 0x20 SHR JUMP JUMPDEST PUSH1 0x0 PUSH1 0x7 PUSH1 0x0 PUSH2 0x100 EXP DUP2 SLOAD DUP2 PUSH1 0xFF MUL NOT AND SWAP1 DUP4 PUSH1 0x2 DUP2 GT ISZERO PUSH2 0x53 JUMPI PUSH2 0x52 PUSH2 0x129 JUMP JUMPDEST JUMPDEST MUL OR SWAP1 SSTORE POP PUSH2 0x158 JUMP JUMPDEST PUSH1 0x0 CALLER SWAP1 POP SWAP1 JUMP JUMPDEST PUSH1 0x0 DUP1 PUSH1 0x0 SWAP1 SLOAD SWAP1 PUSH2 0x100 EXP SWAP1 DIV PUSH20 0xFFFFFFFFFFFFFFFFFFFFFFFFFFFFFFFFFFFFFFFF AND SWAP1 POP DUP2 PUSH1 0x0 DUP1 PUSH2 0x100 EXP DUP2 SLOAD DUP2 PUSH20 0xFFFFFFFFFFFFFFFFFFFFFFFFFFFFFFFFFFFFFFFF MUL NOT AND SWAP1 DUP4 PUSH20 0xFFFFFFFFFFFFFFFFFFFFFFFFFFFFFFFFFFFFFFFF AND MUL OR SWAP1 SSTORE POP DUP2 PUSH20 0xFFFFFFFFFFFFFFFFFFFFFFFFFFFFFFFFFFFFFFFF AND DUP2 PUSH20 0xFFFFFFFFFFFFFFFFFFFFFFFFFFFFFFFFFFFFFFFF AND PUSH32 0x8BE0079C531659141344CD1FD0A4F28419497F9722A3DAAFE3B4186F6B6457E0 PUSH1 0x40 MLOAD PUSH1 0x40 MLOAD DUP1 SWAP2 SUB SWAP1 LOG3 POP POP JUMP JUMPDEST PUSH32 0x4E487B7100000000000000000000000000000000000000000000000000000000 PUSH1 0x0 MSTORE PUSH1 0x21 PUSH1 0x4 MSTORE PUSH1 0x24 PUSH1 0x0 REVERT JUMPDEST PUSH2 0xF82 DUP1 PUSH2 0x167 PUSH1 0x0 CODECOPY PUSH1 0x0 RETURN INVALID PUSH1 0x80 PUSH1 0x40 MSTORE CALLVALUE DUP1 ISZERO PUSH2 0x10 JUMPI PUSH1 0x0 DUP1 REVERT JUMPDEST POP PUSH1 0x4 CALLDATASIZE LT PUSH2 0xB4 JUMPI PUSH1 0x0 CALLDATALOAD PUSH1 0xE0 SHR DUP1 PUSH4 0xA035B1FE GT PUSH2 0x71 JUMPI DUP1 PUSH4 0xA035B1FE EQ PUSH2 0x143 JUMPI DUP1 PUSH4 0xD811FCF0 EQ PUSH2 0x161 JUMPI DUP1 PUSH4 0xEAA61DEA EQ PUSH2 0x17F JUMPI DUP1 PUSH4 0xF2FDE38B EQ PUSH2 0x189 JUMPI DUP1 PUSH4 0xF5C609E0 EQ PUSH2 0x1A5 JUMPI DUP1 PUSH4 0xFA34F63A EQ PUSH2 0x1AF JUMPI PUSH2 0xB4 JUMP JUMPDEST DUP1 PUSH4 0x6D86B8A5 EQ PUSH2 0xB9 JUMPI DUP1 PUSH4 0x715018A6 EQ PUSH2 0xD7 JUMPI DUP1 PUSH4 0x76C820F6 EQ PUSH2 0xE1 JUMPI DUP1 PUSH4 0x80F55605 EQ PUSH2 0xFD JUMPI DUP1 PUSH4 0x8DA5CB5B EQ PUSH2 0x11B JUMPI DUP1 PUSH4 0x91BC0BAD EQ PUSH2 0x139 JUMPI JUMPDEST PUSH1 0x0 DUP1 REVERT JUMPDEST PUSH2 0xC1 PUSH2 0x1CD JUMP JUMPDEST PUSH1 0x40 MLOAD PUSH2 0xCE SWAP2 SWAP1 PUSH2 0xCA7 JUMP JUMPDEST PUSH1 0x40 MLOAD DUP1 SWAP2 SUB SWAP1 RETURN JUMPDEST PUSH2 0xDF PUSH2 0x1D3 JUMP JUMPDEST STOP JUMPDEST PUSH2 0xFB PUSH1 0x4 DUP1 CALLDATASIZE SUB DUP2 ADD SWAP1 PUSH2 0xF6 SWAP2 SWAP1 PUSH2 0x9C5 JUMP JUMPDEST PUSH2 0x1E7 JUMP JUMPDEST STOP JUMPDEST PUSH2 0x105 PUSH2 0x2ED JUMP JUMPDEST PUSH1 0x40 MLOAD PUSH2 0x112 SWAP2 SWAP1 PUSH2 0xB71 JUMP JUMPDEST PUSH1 0x40 MLOAD DUP1 SWAP2 SUB SWAP1 RETURN JUMPDEST PUSH2 0x123 PUSH2 0x313 JUMP JUMPDEST PUSH1 0x40 MLOAD PUSH2 0x130 SWAP2 SWAP1 PUSH2 0xB71 JUMP JUMPDEST PUSH1 0x40 MLOAD DUP1 SWAP2 SUB SWAP1 RETURN JUMPDEST PUSH2 0x141 PUSH2 0x33C JUMP JUMPDEST STOP JUMPDEST PUSH2 0x14B PUSH2 0x469 JUMP JUMPDEST PUSH1 0x40 MLOAD PUSH2 0x158 SWAP2 SWAP1 PUSH2 0xCA7 JUMP JUMPDEST PUSH1 0x40 MLOAD DUP1 SWAP2 SUB SWAP1 RETURN JUMPDEST PUSH2 0x169 PUSH2 0x46F JUMP JUMPDEST PUSH1 0x40 MLOAD PUSH2 0x176 SWAP2 SWAP1 PUSH2 0xB71 JUMP JUMPDEST PUSH1 0x40 MLOAD DUP1 SWAP2 SUB SWAP1 RETURN JUMPDEST PUSH2 0x187 PUSH2 0x495 JUMP JUMPDEST STOP JUMPDEST PUSH2 0x1A3 PUSH1 0x4 DUP1 CALLDATASIZE SUB DUP2 ADD SWAP1 PUSH2 0x19E SWAP2 SWAP1 PUSH2 0x998 JUMP JUMPDEST PUSH2 0x57B JUMP JUMPDEST STOP JUMPDEST PUSH2 0x1AD PUSH2 0x5FF JUMP JUMPDEST STOP JUMPDEST PUSH2 0x1B7 PUSH2 0x809 JUMP JUMPDEST PUSH1 0x40 MLOAD PUSH2 0x1C4 SWAP2 SWAP1 PUSH2 0xB8C JUMP JUMPDEST PUSH1 0x40 MLOAD DUP1 SWAP2 SUB SWAP1 RETURN JUMPDEST PUSH1 0x5 SLOAD DUP2 JUMP JUMPDEST PUSH2 0x1DB PUSH2 0x80F JUMP JUMPDEST PUSH2 0x1E5 PUSH1 0x0 PUSH2 0x88D JUMP JUMPDEST JUMP JUMPDEST PUSH1 0x0 PUSH1 0x2 DUP2 GT ISZERO PUSH2 0x1FB JUMPI PUSH2 0x1FA PUSH2 0xD19 JUMP JUMPDEST JUMPDEST PUSH1 0x7 PUSH1 0x0 SWAP1 SLOAD SWAP1 PUSH2 0x100 EXP SWAP1 DIV PUSH1 0xFF AND PUSH1 0x2 DUP2 GT ISZERO PUSH2 0x21D JUMPI PUSH2 0x21C PUSH2 0xD19 JUMP JUMPDEST JUMPDEST EQ PUSH2 0x25D JUMPI PUSH1 0x40 MLOAD PUSH32 0x8C379A000000000000000000000000000000000000000000000000000000000 DUP2 MSTORE PUSH1 0x4 ADD PUSH2 0x254 SWAP1 PUSH2 0xC07 JUMP JUMPDEST PUSH1 0x40 MLOAD DUP1 SWAP2 SUB SWAP1 REVERT JUMPDEST PUSH2 0x266 DUP5 PUSH2 0x88D JUMP JUMPDEST CALLER PUSH1 0x2 PUSH1 0x0 PUSH2 0x100 EXP DUP2 SLOAD DUP2 PUSH20 0xFFFFFFFFFFFFFFFFFFFFFFFFFFFFFFFFFFFFFFFF MUL NOT AND SWAP1 DUP4 PUSH20 0xFFFFFFFFFFFFFFFFFFFFFFFFFFFFFFFFFFFFFFFF AND MUL OR SWAP1 SSTORE POP DUP3 PUSH1 0x3 DUP2 SWAP1 SSTORE POP DUP2 PUSH1 0x4 DUP2 SWAP1 SSTORE POP DUP1 PUSH1 0x5 DUP2 SWAP1 SSTORE POP PUSH1 0x1 PUSH1 0x7 PUSH1 0x0 PUSH2 0x100 EXP DUP2 SLOAD DUP2 PUSH1 0xFF MUL NOT AND SWAP1 DUP4 PUSH1 0x2 DUP2 GT ISZERO PUSH2 0x2E2 JUMPI PUSH2 0x2E1 PUSH2 0xD19 JUMP JUMPDEST JUMPDEST MUL OR SWAP1 SSTORE POP POP POP POP POP JUMP JUMPDEST PUSH1 0x2 PUSH1 0x0 SWAP1 SLOAD SWAP1 PUSH2 0x100 EXP SWAP1 DIV PUSH20 0xFFFFFFFFFFFFFFFFFFFFFFFFFFFFFFFFFFFFFFFF AND DUP2 JUMP JUMPDEST PUSH1 0x0 DUP1 PUSH1 0x0 SWAP1 SLOAD SWAP1 PUSH2 0x100 EXP SWAP1 DIV PUSH20 0xFFFFFFFFFFFFFFFFFFFFFFFFFFFFFFFFFFFFFFFF AND SWAP1 POP SWAP1 JUMP JUMPDEST PUSH2 0x344 PUSH2 0x80F JUMP JUMPDEST PUSH1 0x1 PUSH1 0x2 DUP2 GT ISZERO PUSH2 0x358 JUMPI PUSH2 0x357 PUSH2 0xD19 JUMP JUMPDEST JUMPDEST PUSH1 0x7 PUSH1 0x0 SWAP1 SLOAD SWAP1 PUSH2 0x100 EXP SWAP1 DIV PUSH1 0xFF AND PUSH1 0x2 DUP2 GT ISZERO PUSH2 0x37A JUMPI PUSH2 0x379 PUSH2 0xD19 JUMP JUMPDEST JUMPDEST EQ PUSH2 0x3BA JUMPI PUSH1 0x40 MLOAD PUSH32 0x8C379A000000000000000000000000000000000000000000000000000000000 DUP2 MSTORE PUSH1 0x4 ADD PUSH2 0x3B1 SWAP1 PUSH2 0xBE7 JUMP JUMPDEST PUSH1 0x40 MLOAD DUP1 SWAP2 SUB SWAP1 REVERT JUMPDEST PUSH1 0x2 PUSH1 0x7 PUSH1 0x0 PUSH2 0x100 EXP DUP2 SLOAD DUP2 PUSH1 0xFF MUL NOT AND SWAP1 DUP4 PUSH1 0x2 DUP2 GT ISZERO PUSH2 0x3E0 JUMPI PUSH2 0x3DF PUSH2 0xD19 JUMP JUMPDEST JUMPDEST MUL OR SWAP1 SSTORE POP PUSH1 0x2 PUSH1 0x0 SWAP1 SLOAD SWAP1 PUSH2 0x100 EXP SWAP1 DIV PUSH20 0xFFFFFFFFFFFFFFFFFFFFFFFFFFFFFFFFFFFFFFFF AND PUSH20 0xFFFFFFFFFFFFFFFFFFFFFFFFFFFFFFFFFFFFFFFF AND PUSH4 0x9DEF9846 PUSH1 0x40 MLOAD DUP2 PUSH4 0xFFFFFFFF AND PUSH1 0xE0 SHL DUP2 MSTORE PUSH1 0x4 ADD PUSH1 0x0 PUSH1 0x40 MLOAD DUP1 DUP4 SUB DUP2 PUSH1 0x0 DUP8 DUP1 EXTCODESIZE ISZERO DUP1 ISZERO PUSH2 0x44F JUMPI PUSH1 0x0 DUP1 REVERT JUMPDEST POP GAS CALL ISZERO DUP1 ISZERO PUSH2 0x463 JUMPI RETURNDATASIZE PUSH1 0x0 DUP1 RETURNDATACOPY RETURNDATASIZE PUSH1 0x0 REVERT JUMPDEST POP POP POP POP JUMP JUMPDEST PUSH1 0x4 SLOAD DUP2 JUMP JUMPDEST PUSH1 0x1 PUSH1 0x0 SWAP1 SLOAD SWAP1 PUSH2 0x100 EXP SWAP1 DIV PUSH20 0xFFFFFFFFFFFFFFFFFFFFFFFFFFFFFFFFFFFFFFFF AND DUP2 JUMP JUMPDEST PUSH1 0x6 PUSH1 0x0 CALLER PUSH20 0xFFFFFFFFFFFFFFFFFFFFFFFFFFFFFFFFFFFFFFFF AND PUSH20 0xFFFFFFFFFFFFFFFFFFFFFFFFFFFFFFFFFFFFFFFF AND DUP2 MSTORE PUSH1 0x20 ADD SWAP1 DUP2 MSTORE PUSH1 0x20 ADD PUSH1 0x0 KECCAK256 PUSH1 0x0 SWAP1 SLOAD SWAP1 PUSH2 0x100 EXP SWAP1 DIV PUSH1 0xFF AND PUSH2 0x521 JUMPI PUSH1 0x40 MLOAD PUSH32 0x8C379A000000000000000000000000000000000000000000000000000000000 DUP2 MSTORE PUSH1 0x4 ADD PUSH2 0x518 SWAP1 PUSH2 0xC87 JUMP JUMPDEST PUSH1 0x40 MLOAD DUP1 SWAP2 SUB SWAP1 REVERT JUMPDEST PUSH1 0x0 PUSH1 0x6 PUSH1 0x0 CALLER PUSH20 0xFFFFFFFFFFFFFFFFFFFFFFFFFFFFFFFFFFFFFFFF AND PUSH20 0xFFFFFFFFFFFFFFFFFFFFFFFFFFFFFFFFFFFFFFFF AND DUP2 MSTORE PUSH1 0x20 ADD SWAP1 DUP2 MSTORE PUSH1 0x20 ADD PUSH1 0x0 KECCAK256 PUSH1 0x0 PUSH2 0x100 EXP DUP2 SLOAD DUP2 PUSH1 0xFF MUL NOT AND SWAP1 DUP4 ISZERO ISZERO MUL OR SWAP1 SSTORE POP JUMP JUMPDEST PUSH2 0x583 PUSH2 0x80F JUMP JUMPDEST PUSH1 0x0 PUSH20 0xFFFFFFFFFFFFFFFFFFFFFFFFFFFFFFFFFFFFFFFF AND DUP2 PUSH20 0xFFFFFFFFFFFFFFFFFFFFFFFFFFFFFFFFFFFFFFFF AND EQ ISZERO PUSH2 0x5F3 JUMPI PUSH1 0x40 MLOAD PUSH32 0x8C379A000000000000000000000000000000000000000000000000000000000 DUP2 MSTORE PUSH1 0x4 ADD PUSH2 0x5EA SWAP1 PUSH2 0xBA7 JUMP JUMPDEST PUSH1 0x40 MLOAD DUP1 SWAP2 SUB SWAP1 REVERT JUMPDEST PUSH2 0x5FC DUP2 PUSH2 0x88D JUMP JUMPDEST POP JUMP JUMPDEST PUSH1 0x1 PUSH1 0x2 DUP2 GT ISZERO PUSH2 0x613 JUMPI PUSH2 0x612 PUSH2 0xD19 JUMP JUMPDEST JUMPDEST PUSH1 0x7 PUSH1 0x0 SWAP1 SLOAD SWAP1 PUSH2 0x100 EXP SWAP1 DIV PUSH1 0xFF AND PUSH1 0x2 DUP2 GT ISZERO PUSH2 0x635 JUMPI PUSH2 0x634 PUSH2 0xD19 JUMP JUMPDEST JUMPDEST EQ PUSH2 0x675 JUMPI PUSH1 0x40 MLOAD PUSH32 0x8C379A000000000000000000000000000000000000000000000000000000000 DUP2 MSTORE PUSH1 0x4 ADD PUSH2 0x66C SWAP1 PUSH2 0xBC7 JUMP JUMPDEST PUSH1 0x40 MLOAD DUP1 SWAP2 SUB SWAP1 REVERT JUMPDEST PUSH2 0x67D PUSH2 0x313 JUMP JUMPDEST PUSH20 0xFFFFFFFFFFFFFFFFFFFFFFFFFFFFFFFFFFFFFFFF AND CALLER PUSH20 0xFFFFFFFFFFFFFFFFFFFFFFFFFFFFFFFFFFFFFFFF AND EQ ISZERO PUSH2 0x6EB JUMPI PUSH1 0x40 MLOAD PUSH32 0x8C379A000000000000000000000000000000000000000000000000000000000 DUP2 MSTORE PUSH1 0x4 ADD PUSH2 0x6E2 SWAP1 PUSH2 0xC27 JUMP JUMPDEST PUSH1 0x40 MLOAD DUP1 SWAP2 SUB SWAP1 REVERT JUMPDEST PUSH1 0x6 PUSH1 0x0 CALLER PUSH20 0xFFFFFFFFFFFFFFFFFFFFFFFFFFFFFFFFFFFFFFFF AND PUSH20 0xFFFFFFFFFFFFFFFFFFFFFFFFFFFFFFFFFFFFFFFF AND DUP2 MSTORE PUSH1 0x20 ADD SWAP1 DUP2 MSTORE PUSH1 0x20 ADD PUSH1 0x0 KECCAK256 PUSH1 0x0 SWAP1 SLOAD SWAP1 PUSH2 0x100 EXP SWAP1 DIV PUSH1 0xFF AND ISZERO PUSH2 0x778 JUMPI PUSH1 0x40 MLOAD PUSH32 0x8C379A000000000000000000000000000000000000000000000000000000000 DUP2 MSTORE PUSH1 0x4 ADD PUSH2 0x76F SWAP1 PUSH2 0xC47 JUMP JUMPDEST PUSH1 0x40 MLOAD DUP1 SWAP2 SUB SWAP1 REVERT JUMPDEST PUSH1 0x1 PUSH1 0x6 PUSH1 0x0 CALLER PUSH20 0xFFFFFFFFFFFFFFFFFFFFFFFFFFFFFFFFFFFFFFFF AND PUSH20 0xFFFFFFFFFFFFFFFFFFFFFFFFFFFFFFFFFFFFFFFF AND DUP2 MSTORE PUSH1 0x20 ADD SWAP1 DUP2 MSTORE PUSH1 0x20 ADD PUSH1 0x0 KECCAK256 PUSH1 0x0 PUSH2 0x100 EXP DUP2 SLOAD DUP2 PUSH1 0xFF MUL NOT AND SWAP1 DUP4 ISZERO ISZERO MUL OR SWAP1 SSTORE POP PUSH32 0xE7183A38A6AA8FB99C4071A88F3ACD0B3C30FD4B05330C2F0A0724BB0254F804 CALLER PUSH1 0x40 MLOAD PUSH2 0x7FF SWAP2 SWAP1 PUSH2 0xB71 JUMP JUMPDEST PUSH1 0x40 MLOAD DUP1 SWAP2 SUB SWAP1 LOG1 JUMP JUMPDEST PUSH1 0x3 SLOAD DUP2 JUMP JUMPDEST PUSH2 0x817 PUSH2 0x951 JUMP JUMPDEST PUSH20 0xFFFFFFFFFFFFFFFFFFFFFFFFFFFFFFFFFFFFFFFF AND PUSH2 0x835 PUSH2 0x313 JUMP JUMPDEST PUSH20 0xFFFFFFFFFFFFFFFFFFFFFFFFFFFFFFFFFFFFFFFF AND EQ PUSH2 0x88B JUMPI PUSH1 0x40 MLOAD PUSH32 0x8C379A000000000000000000000000000000000000000000000000000000000 DUP2 MSTORE PUSH1 0x4 ADD PUSH2 0x882 SWAP1 PUSH2 0xC67 JUMP JUMPDEST PUSH1 0x40 MLOAD DUP1 SWAP2 SUB SWAP1 REVERT JUMPDEST JUMP JUMPDEST PUSH1 0x0 DUP1 PUSH1 0x0 SWAP1 SLOAD SWAP1 PUSH2 0x100 EXP SWAP1 DIV PUSH20 0xFFFFFFFFFFFFFFFFFFFFFFFFFFFFFFFFFFFFFFFF AND SWAP1 POP DUP2 PUSH1 0x0 DUP1 PUSH2 0x100 EXP DUP2 SLOAD DUP2 PUSH20 0xFFFFFFFFFFFFFFFFFFFFFFFFFFFFFFFFFFFFFFFF MUL NOT AND SWAP1 DUP4 PUSH20 0xFFFFFFFFFFFFFFFFFFFFFFFFFFFFFFFFFFFFFFFF AND MUL OR SWAP1 SSTORE POP DUP2 PUSH20 0xFFFFFFFFFFFFFFFFFFFFFFFFFFFFFFFFFFFFFFFF AND DUP2 PUSH20 0xFFFFFFFFFFFFFFFFFFFFFFFFFFFFFFFFFFFFFFFF AND PUSH32 0x8BE0079C531659141344CD1FD0A4F28419497F9722A3DAAFE3B4186F6B6457E0 PUSH1 0x40 MLOAD PUSH1 0x40 MLOAD DUP1 SWAP2 SUB SWAP1 LOG3 POP POP JUMP JUMPDEST PUSH1 0x0 CALLER SWAP1 POP SWAP1 JUMP JUMPDEST PUSH1 0x0 DUP2 CALLDATALOAD SWAP1 POP PUSH2 0x968 DUP2 PUSH2 0xF07 JUMP JUMPDEST SWAP3 SWAP2 POP POP JUMP JUMPDEST PUSH1 0x0 DUP2 CALLDATALOAD SWAP1 POP PUSH2 0x97D DUP2 PUSH2 0xF1E JUMP JUMPDEST SWAP3 SWAP2 POP POP JUMP JUMPDEST PUSH1 0x0 DUP2 CALLDATALOAD SWAP1 POP PUSH2 0x992 DUP2 PUSH2 0xF35 JUMP JUMPDEST SWAP3 SWAP2 POP POP JUMP JUMPDEST PUSH1 0x0 PUSH1 0x20 DUP3 DUP5 SUB SLT ISZERO PUSH2 0x9AE JUMPI PUSH2 0x9AD PUSH2 0xD48 JUMP JUMPDEST JUMPDEST PUSH1 0x0 PUSH2 0x9BC DUP5 DUP3 DUP6 ADD PUSH2 0x959 JUMP JUMPDEST SWAP2 POP POP SWAP3 SWAP2 POP POP JUMP JUMPDEST PUSH1 0x0 DUP1 PUSH1 0x0 DUP1 PUSH1 0x80 DUP6 DUP8 SUB SLT ISZERO PUSH2 0x9DF JUMPI PUSH2 0x9DE PUSH2 0xD48 JUMP JUMPDEST JUMPDEST PUSH1 0x0 PUSH2 0x9ED DUP8 DUP3 DUP9 ADD PUSH2 0x959 JUMP JUMPDEST SWAP5 POP POP PUSH1 0x20 PUSH2 0x9FE DUP8 DUP3 DUP9 ADD PUSH2 0x96E JUMP JUMPDEST SWAP4 POP POP PUSH1 0x40 PUSH2 0xA0F DUP8 DUP3 DUP9 ADD PUSH2 0x983 JUMP JUMPDEST SWAP3 POP POP PUSH1 0x60 PUSH2 0xA20 DUP8 DUP3 DUP9 ADD PUSH2 0x983 JUMP JUMPDEST SWAP2 POP POP SWAP3 SWAP6 SWAP2 SWAP5 POP SWAP3 POP JUMP JUMPDEST PUSH2 0xA35 DUP2 PUSH2 0xCD3 JUMP JUMPDEST DUP3 MSTORE POP POP JUMP JUMPDEST PUSH2 0xA44 DUP2 PUSH2 0xCE5 JUMP JUMPDEST DUP3 MSTORE POP POP JUMP JUMPDEST PUSH1 0x0 PUSH2 0xA57 PUSH1 0x26 DUP4 PUSH2 0xCC2 JUMP JUMPDEST SWAP2 POP PUSH2 0xA62 DUP3 PUSH2 0xD4D JUMP JUMPDEST PUSH1 0x40 DUP3 ADD SWAP1 POP SWAP2 SWAP1 POP JUMP JUMPDEST PUSH1 0x0 PUSH2 0xA7A PUSH1 0x20 DUP4 PUSH2 0xCC2 JUMP JUMPDEST SWAP2 POP PUSH2 0xA85 DUP3 PUSH2 0xD9C JUMP JUMPDEST PUSH1 0x20 DUP3 ADD SWAP1 POP SWAP2 SWAP1 POP JUMP JUMPDEST PUSH1 0x0 PUSH2 0xA9D PUSH1 0x1F DUP4 PUSH2 0xCC2 JUMP JUMPDEST SWAP2 POP PUSH2 0xAA8 DUP3 PUSH2 0xDC5 JUMP JUMPDEST PUSH1 0x20 DUP3 ADD SWAP1 POP SWAP2 SWAP1 POP JUMP JUMPDEST PUSH1 0x0 PUSH2 0xAC0 PUSH1 0x28 DUP4 PUSH2 0xCC2 JUMP JUMPDEST SWAP2 POP PUSH2 0xACB DUP3 PUSH2 0xDEE JUMP JUMPDEST PUSH1 0x40 DUP3 ADD SWAP1 POP SWAP2 SWAP1 POP JUMP JUMPDEST PUSH1 0x0 PUSH2 0xAE3 PUSH1 0x2F DUP4 PUSH2 0xCC2 JUMP JUMPDEST SWAP2 POP PUSH2 0xAEE DUP3 PUSH2 0xE3D JUMP JUMPDEST PUSH1 0x40 DUP3 ADD SWAP1 POP SWAP2 SWAP1 POP JUMP JUMPDEST PUSH1 0x0 PUSH2 0xB06 PUSH1 0x1D DUP4 PUSH2 0xCC2 JUMP JUMPDEST SWAP2 POP PUSH2 0xB11 DUP3 PUSH2 0xE8C JUMP JUMPDEST PUSH1 0x20 DUP3 ADD SWAP1 POP SWAP2 SWAP1 POP JUMP JUMPDEST PUSH1 0x0 PUSH2 0xB29 PUSH1 0x20 DUP4 PUSH2 0xCC2 JUMP JUMPDEST SWAP2 POP PUSH2 0xB34 DUP3 PUSH2 0xEB5 JUMP JUMPDEST PUSH1 0x20 DUP3 ADD SWAP1 POP SWAP2 SWAP1 POP JUMP JUMPDEST PUSH1 0x0 PUSH2 0xB4C PUSH1 0x18 DUP4 PUSH2 0xCC2 JUMP JUMPDEST SWAP2 POP PUSH2 0xB57 DUP3 PUSH2 0xEDE JUMP JUMPDEST PUSH1 0x20 DUP3 ADD SWAP1 POP SWAP2 SWAP1 POP JUMP JUMPDEST PUSH2 0xB6B DUP2 PUSH2 0xD0F JUMP JUMPDEST DUP3 MSTORE POP POP JUMP JUMPDEST PUSH1 0x0 PUSH1 0x20 DUP3 ADD SWAP1 POP PUSH2 0xB86 PUSH1 0x0 DUP4 ADD DUP5 PUSH2 0xA2C JUMP JUMPDEST SWAP3 SWAP2 POP POP JUMP JUMPDEST PUSH1 0x0 PUSH1 0x20 DUP3 ADD SWAP1 POP PUSH2 0xBA1 PUSH1 0x0 DUP4 ADD DUP5 PUSH2 0xA3B JUMP JUMPDEST SWAP3 SWAP2 POP POP JUMP JUMPDEST PUSH1 0x0 PUSH1 0x20 DUP3 ADD SWAP1 POP DUP2 DUP2 SUB PUSH1 0x0 DUP4 ADD MSTORE PUSH2 0xBC0 DUP2 PUSH2 0xA4A JUMP JUMPDEST SWAP1 POP SWAP2 SWAP1 POP JUMP JUMPDEST PUSH1 0x0 PUSH1 0x20 DUP3 ADD SWAP1 POP DUP2 DUP2 SUB PUSH1 0x0 DUP4 ADD MSTORE PUSH2 0xBE0 DUP2 PUSH2 0xA6D JUMP JUMPDEST SWAP1 POP SWAP2 SWAP1 POP JUMP JUMPDEST PUSH1 0x0 PUSH1 0x20 DUP3 ADD SWAP1 POP DUP2 DUP2 SUB PUSH1 0x0 DUP4 ADD MSTORE PUSH2 0xC00 DUP2 PUSH2 0xA90 JUMP JUMPDEST SWAP1 POP SWAP2 SWAP1 POP JUMP JUMPDEST PUSH1 0x0 PUSH1 0x20 DUP3 ADD SWAP1 POP DUP2 DUP2 SUB PUSH1 0x0 DUP4 ADD MSTORE PUSH2 0xC20 DUP2 PUSH2 0xAB3 JUMP JUMPDEST SWAP1 POP SWAP2 SWAP1 POP JUMP JUMPDEST PUSH1 0x0 PUSH1 0x20 DUP3 ADD SWAP1 POP DUP2 DUP2 SUB PUSH1 0x0 DUP4 ADD MSTORE PUSH2 0xC40 DUP2 PUSH2 0xAD6 JUMP JUMPDEST SWAP1 POP SWAP2 SWAP1 POP JUMP JUMPDEST PUSH1 0x0 PUSH1 0x20 DUP3 ADD SWAP1 POP DUP2 DUP2 SUB PUSH1 0x0 DUP4 ADD MSTORE PUSH2 0xC60 DUP2 PUSH2 0xAF9 JUMP JUMPDEST SWAP1 POP SWAP2 SWAP1 POP JUMP JUMPDEST PUSH1 0x0 PUSH1 0x20 DUP3 ADD SWAP1 POP DUP2 DUP2 SUB PUSH1 0x0 DUP4 ADD MSTORE PUSH2 0xC80 DUP2 PUSH2 0xB1C JUMP JUMPDEST SWAP1 POP SWAP2 SWAP1 POP JUMP JUMPDEST PUSH1 0x0 PUSH1 0x20 DUP3 ADD SWAP1 POP DUP2 DUP2 SUB PUSH1 0x0 DUP4 ADD MSTORE PUSH2 0xCA0 DUP2 PUSH2 0xB3F JUMP JUMPDEST SWAP1 POP SWAP2 SWAP1 POP JUMP JUMPDEST PUSH1 0x0 PUSH1 0x20 DUP3 ADD SWAP1 POP PUSH2 0xCBC PUSH1 0x0 DUP4 ADD DUP5 PUSH2 0xB62 JUMP JUMPDEST SWAP3 SWAP2 POP POP JUMP JUMPDEST PUSH1 0x0 DUP3 DUP3 MSTORE PUSH1 0x20 DUP3 ADD SWAP1 POP SWAP3 SWAP2 POP POP JUMP JUMPDEST PUSH1 0x0 PUSH2 0xCDE DUP3 PUSH2 0xCEF JUMP JUMPDEST SWAP1 POP SWAP2 SWAP1 POP JUMP JUMPDEST PUSH1 0x0 DUP2 SWAP1 POP SWAP2 SWAP1 POP JUMP JUMPDEST PUSH1 0x0 PUSH20 0xFFFFFFFFFFFFFFFFFFFFFFFFFFFFFFFFFFFFFFFF DUP3 AND SWAP1 POP SWAP2 SWAP1 POP JUMP JUMPDEST PUSH1 0x0 DUP2 SWAP1 POP SWAP2 SWAP1 POP JUMP JUMPDEST PUSH32 0x4E487B7100000000000000000000000000000000000000000000000000000000 PUSH1 0x0 MSTORE PUSH1 0x21 PUSH1 0x4 MSTORE PUSH1 0x24 PUSH1 0x0 REVERT JUMPDEST PUSH1 0x0 DUP1 REVERT JUMPDEST PUSH32 0x4F776E61626C653A206E6577206F776E657220697320746865207A65726F2061 PUSH1 0x0 DUP3 ADD MSTORE PUSH32 0x6464726573730000000000000000000000000000000000000000000000000000 PUSH1 0x20 DUP3 ADD MSTORE POP JUMP JUMPDEST PUSH32 0x70726F64756365206973206E6F74206F70656E20666F72206F72646572696E67 PUSH1 0x0 DUP3 ADD MSTORE POP JUMP JUMPDEST PUSH32 0x6F6E6C79206F70656E2070726F647563652063616E20626520636C6F73656400 PUSH1 0x0 DUP3 ADD MSTORE POP JUMP JUMPDEST PUSH32 0x546869732070726F647563652068617320616C7265616479206265656E20696E PUSH1 0x0 DUP3 ADD MSTORE PUSH32 0x6974696C697A6564000000000000000000000000000000000000000000000000 PUSH1 0x20 DUP3 ADD MSTORE POP JUMP JUMPDEST PUSH32 0x6661726D65722063616E6E6F7420706C616365206F7264657220666F72207468 PUSH1 0x0 DUP3 ADD MSTORE PUSH32 0x656972206F776E2070726F647563650000000000000000000000000000000000 PUSH1 0x20 DUP3 ADD MSTORE POP JUMP JUMPDEST PUSH32 0x6F726465722068617320616C7265616479206265656E20706C61636564000000 PUSH1 0x0 DUP3 ADD MSTORE POP JUMP JUMPDEST PUSH32 0x4F776E61626C653A2063616C6C6572206973206E6F7420746865206F776E6572 PUSH1 0x0 DUP3 ADD MSTORE POP JUMP JUMPDEST PUSH32 0x6E6F206F7264657220686173206265656E20706C616365640000000000000000 PUSH1 0x0 DUP3 ADD MSTORE POP JUMP JUMPDEST PUSH2 0xF10 DUP2 PUSH2 0xCD3 JUMP JUMPDEST DUP2 EQ PUSH2 0xF1B JUMPI PUSH1 0x0 DUP1 REVERT JUMPDEST POP JUMP JUMPDEST PUSH2 0xF27 DUP2 PUSH2 0xCE5 JUMP JUMPDEST DUP2 EQ PUSH2 0xF32 JUMPI PUSH1 0x0 DUP1 REVERT JUMPDEST POP JUMP JUMPDEST PUSH2 0xF3E DUP2 PUSH2 0xD0F JUMP JUMPDEST DUP2 EQ PUSH2 0xF49 JUMPI PUSH1 0x0 DUP1 REVERT JUMPDEST POP JUMP INVALID LOG2 PUSH5 0x6970667358 0x22 SLT KECCAK256 0xF6 0xCD 0xC RETURNDATASIZE 0xDD 0xF DUP2 0xCC 0xDB SWAP16 0xE1 SSTORE 0xBC 0xD3 SWAP10 PUSH30 0x213B24DA6936C8A86B298DA83B10B7AF64736F6C63430008070033000000 "
				},
				"gasEstimates": {
					"creation": {
						"codeDepositCost": "794000",
						"executionCost": "infinite",
						"totalCost": "infinite"
					},
					"external": {
						"closeProduce()": "infinite",
						"farmer()": "2536",
						"initilize(address,bytes32,uint256,uint256)": "infinite",
						"market()": "2581",
						"orderSize()": "2430",
						"owner()": "2611",
						"placeOrder()": "32491",
						"price()": "2429",
						"produceHash()": "2539",
						"removeOrder()": "26786",
						"renounceOwnership()": "30421",
						"transferOwnership(address)": "30813"
					}
				},
				"methodIdentifiers": {
					"closeProduce()": "91bc0bad",
					"farmer()": "d811fcf0",
					"initilize(address,bytes32,uint256,uint256)": "76c820f6",
					"market()": "80f55605",
					"orderSize()": "6d86b8a5",
					"owner()": "8da5cb5b",
					"placeOrder()": "f5c609e0",
					"price()": "a035b1fe",
					"produceHash()": "fa34f63a",
					"removeOrder()": "eaa61dea",
					"renounceOwnership()": "715018a6",
					"transferOwnership(address)": "f2fde38b"
				}
			},
			"storageLayout": {
				"storage": [
					{
						"astId": 7,
						"contract": "contracts/Produce.sol:Produce",
						"label": "_owner",
						"offset": 0,
						"slot": "0",
						"type": "t_address"
					},
					{
						"astId": 342,
						"contract": "contracts/Produce.sol:Produce",
						"label": "farmer",
						"offset": 0,
						"slot": "1",
						"type": "t_address"
					},
					{
						"astId": 344,
						"contract": "contracts/Produce.sol:Produce",
						"label": "market",
						"offset": 0,
						"slot": "2",
						"type": "t_address"
					},
					{
						"astId": 346,
						"contract": "contracts/Produce.sol:Produce",
						"label": "produceHash",
						"offset": 0,
						"slot": "3",
						"type": "t_bytes32"
					},
					{
						"astId": 348,
						"contract": "contracts/Produce.sol:Produce",
						"label": "price",
						"offset": 0,
						"slot": "4",
						"type": "t_uint256"
					},
					{
						"astId": 350,
						"contract": "contracts/Produce.sol:Produce",
						"label": "orderSize",
						"offset": 0,
						"slot": "5",
						"type": "t_uint256"
					},
					{
						"astId": 354,
						"contract": "contracts/Produce.sol:Produce",
						"label": "produceList",
						"offset": 0,
						"slot": "6",
						"type": "t_mapping(t_address,t_bool)"
					},
					{
						"astId": 361,
						"contract": "contracts/Produce.sol:Produce",
						"label": "state",
						"offset": 0,
						"slot": "7",
						"type": "t_enum(State)358"
					}
				],
				"types": {
					"t_address": {
						"encoding": "inplace",
						"label": "address",
						"numberOfBytes": "20"
					},
					"t_bool": {
						"encoding": "inplace",
						"label": "bool",
						"numberOfBytes": "1"
					},
					"t_bytes32": {
						"encoding": "inplace",
						"label": "bytes32",
						"numberOfBytes": "32"
					},
					"t_enum(State)358": {
						"encoding": "inplace",
						"label": "enum Produce.State",
						"numberOfBytes": "1"
					},
					"t_mapping(t_address,t_bool)": {
						"encoding": "mapping",
						"key": "t_address",
						"label": "mapping(address => bool)",
						"numberOfBytes": "32",
						"value": "t_bool"
					},
					"t_uint256": {
						"encoding": "inplace",
						"label": "uint256",
						"numberOfBytes": "32"
					}
				}
			},
			"userdoc": {
				"kind": "user",
				"methods": {
					"placeOrder()": {
						"notice": "Place an order an order of the produce"
					}
				},
				"version": 1
			}
		}
	}
}