{
	"contracts/Market.sol": {
		"Market": {
			"abi": [
				{
					"inputs": [],
					"stateMutability": "nonpayable",
					"type": "constructor"
				},
				{
					"inputs": [
						{
							"internalType": "bytes32",
							"name": "_produceHash",
							"type": "bytes32"
						},
						{
							"internalType": "uint256",
							"name": "_price",
							"type": "uint256"
						},
						{
							"internalType": "uint256",
							"name": "_orderSize",
							"type": "uint256"
						},
						{
							"internalType": "uint256",
							"name": "_limitOnPendingOrders",
							"type": "uint256"
						}
					],
					"name": "addProduce",
					"outputs": [
						{
							"internalType": "address",
							"name": "produceContract",
							"type": "address"
						}
					],
					"stateMutability": "nonpayable",
					"type": "function"
				},
				{
					"inputs": [
						{
							"internalType": "address",
							"name": "",
							"type": "address"
						}
					],
					"name": "farmerList",
					"outputs": [
						{
							"internalType": "bool",
							"name": "",
							"type": "bool"
						}
					],
					"stateMutability": "view",
					"type": "function"
				},
				{
					"inputs": [
						{
							"internalType": "address",
							"name": "produceAddress",
							"type": "address"
						}
					],
					"name": "removeProduce",
					"outputs": [],
					"stateMutability": "nonpayable",
					"type": "function"
				}
			],
			"devdoc": {
				"kind": "dev",
				"methods": {},
				"version": 1
			},
			"evm": {
				"assembly": "    /* \"contracts/Market.sol\":142:1773  contract Market {... */\n  mstore(0x40, 0xa0)\n    /* \"contracts/Market.sol\":667:744  constructor() {... */\n  callvalue\n  dup1\n  iszero\n  tag_1\n  jumpi\n  0x00\n  dup1\n  revert\ntag_1:\n  pop\n    /* \"contracts/Market.sol\":723:736  new Produce() */\n  mload(0x40)\n  tag_4\n  swap1\n  tag_5\n  jump\t// in\ntag_4:\n  mload(0x40)\n  dup1\n  swap2\n  sub\n  swap1\n  0x00\n  create\n  dup1\n  iszero\n  dup1\n  iszero\n  tag_6\n  jumpi\n  returndatasize\n  0x00\n  dup1\n  returndatacopy\n  revert(0x00, returndatasize)\ntag_6:\n  pop\n    /* \"contracts/Market.sol\":691:737  produceImplementation = address(new Produce()) */\n  0xffffffffffffffffffffffffffffffffffffffff\n  and\n  0x80\n  dup2\n  0xffffffffffffffffffffffffffffffffffffffff\n  and\n  dup2\n  mstore\n  pop\n  pop\n    /* \"contracts/Market.sol\":142:1773  contract Market {... */\n  jump(tag_7)\ntag_5:\n  dataSize(sub_1)\n  dup1\n  dataOffset(sub_1)\n  dup4\n  codecopy\n  add\n  swap1\n  jump\t// out\ntag_7:\n  mload(0x80)\n  codecopy(0x00, dataOffset(sub_0), dataSize(sub_0))\n  0x00\n  assignImmutable(\"0x75bcc28b7fac24eeec9856ca179c749c015847969c966f0a0315f3d435961b2d\")\n  return(0x00, dataSize(sub_0))\nstop\n\nsub_0: assembly {\n        /* \"contracts/Market.sol\":142:1773  contract Market {... */\n      mstore(0x40, 0x80)\n      callvalue\n      dup1\n      iszero\n      tag_1\n      jumpi\n      0x00\n      dup1\n      revert\n    tag_1:\n      pop\n      jumpi(tag_2, lt(calldatasize, 0x04))\n      shr(0xe0, calldataload(0x00))\n      dup1\n      0x7b6833c3\n      eq\n      tag_3\n      jumpi\n      dup1\n      0x952a0d60\n      eq\n      tag_4\n      jumpi\n      dup1\n      0xa1d861a9\n      eq\n      tag_5\n      jumpi\n    tag_2:\n      0x00\n      dup1\n      revert\n        /* \"contracts/Market.sol\":1457:1769  function removeProduce(address produceAddress) public {... */\n    tag_3:\n      tag_6\n      0x04\n      dup1\n      calldatasize\n      sub\n      dup2\n      add\n      swap1\n      tag_7\n      swap2\n      swap1\n      tag_8\n      jump\t// in\n    tag_7:\n      tag_9\n      jump\t// in\n    tag_6:\n      stop\n        /* \"contracts/Market.sol\":751:1451  function addProduce( ... */\n    tag_4:\n      tag_10\n      0x04\n      dup1\n      calldatasize\n      sub\n      dup2\n      add\n      swap1\n      tag_11\n      swap2\n      swap1\n      tag_12\n      jump\t// in\n    tag_11:\n      tag_13\n      jump\t// in\n    tag_10:\n      mload(0x40)\n      tag_14\n      swap2\n      swap1\n      tag_15\n      jump\t// in\n    tag_14:\n      mload(0x40)\n      dup1\n      swap2\n      sub\n      swap1\n      return\n        /* \"contracts/Market.sol\":619:660  mapping(address=> bool) public farmerList */\n    tag_5:\n      tag_16\n      0x04\n      dup1\n      calldatasize\n      sub\n      dup2\n      add\n      swap1\n      tag_17\n      swap2\n      swap1\n      tag_8\n      jump\t// in\n    tag_17:\n      tag_18\n      jump\t// in\n    tag_16:\n      mload(0x40)\n      tag_19\n      swap2\n      swap1\n      tag_20\n      jump\t// in\n    tag_19:\n      mload(0x40)\n      dup1\n      swap2\n      sub\n      swap1\n      return\n        /* \"contracts/Market.sol\":1457:1769  function removeProduce(address produceAddress) public {... */\n    tag_9:\n        /* \"contracts/Market.sol\":1529:1540  produceList */\n      0x01\n        /* \"contracts/Market.sol\":1529:1556  produceList[produceAddress] */\n      0x00\n        /* \"contracts/Market.sol\":1541:1555  produceAddress */\n      dup3\n        /* \"contracts/Market.sol\":1529:1556  produceList[produceAddress] */\n      0xffffffffffffffffffffffffffffffffffffffff\n      and\n      0xffffffffffffffffffffffffffffffffffffffff\n      and\n      dup2\n      mstore\n      0x20\n      add\n      swap1\n      dup2\n      mstore\n      0x20\n      add\n      0x00\n      keccak256\n      0x00\n      swap1\n      sload\n      swap1\n      0x0100\n      exp\n      swap1\n      div\n      0xff\n      and\n        /* \"contracts/Market.sol\":1521:1601  require(produceList[produceAddress], \"This produce is not listed on the Market\") */\n      tag_22\n      jumpi\n      mload(0x40)\n      0x08c379a000000000000000000000000000000000000000000000000000000000\n      dup2\n      mstore\n      0x04\n      add\n      tag_23\n      swap1\n      tag_24\n      jump\t// in\n    tag_23:\n      mload(0x40)\n      dup1\n      swap2\n      sub\n      swap1\n      revert\n    tag_22:\n        /* \"contracts/Market.sol\":1653:1663  msg.sender */\n      caller\n        /* \"contracts/Market.sol\":1619:1663  Produce(produceAddress).owner()== msg.sender */\n      0xffffffffffffffffffffffffffffffffffffffff\n      and\n        /* \"contracts/Market.sol\":1627:1641  produceAddress */\n      dup2\n        /* \"contracts/Market.sol\":1619:1648  Produce(produceAddress).owner */\n      0xffffffffffffffffffffffffffffffffffffffff\n      and\n      0x8da5cb5b\n        /* \"contracts/Market.sol\":1619:1650  Produce(produceAddress).owner() */\n      mload(0x40)\n      dup2\n      0xffffffff\n      and\n      0xe0\n      shl\n      dup2\n      mstore\n      0x04\n      add\n      0x20\n      mload(0x40)\n      dup1\n      dup4\n      sub\n      dup2\n      dup7\n      gas\n      staticcall\n      iszero\n      dup1\n      iszero\n      tag_26\n      jumpi\n      returndatasize\n      0x00\n      dup1\n      returndatacopy\n      revert(0x00, returndatasize)\n    tag_26:\n      pop\n      pop\n      pop\n      pop\n      mload(0x40)\n      returndatasize\n      not(0x1f)\n      0x1f\n      dup3\n      add\n      and\n      dup3\n      add\n      dup1\n      0x40\n      mstore\n      pop\n      dup2\n      add\n      swap1\n      tag_27\n      swap2\n      swap1\n      tag_28\n      jump\t// in\n    tag_27:\n        /* \"contracts/Market.sol\":1619:1663  Produce(produceAddress).owner()== msg.sender */\n      0xffffffffffffffffffffffffffffffffffffffff\n      and\n      eq\n        /* \"contracts/Market.sol\":1611:1717  require(Produce(produceAddress).owner()== msg.sender, \"Only produce owner can remove produce from Market\") */\n      tag_29\n      jumpi\n      mload(0x40)\n      0x08c379a000000000000000000000000000000000000000000000000000000000\n      dup2\n      mstore\n      0x04\n      add\n      tag_30\n      swap1\n      tag_31\n      jump\t// in\n    tag_30:\n      mload(0x40)\n      dup1\n      swap2\n      sub\n      swap1\n      revert\n    tag_29:\n        /* \"contracts/Market.sol\":1757:1762  false */\n      0x00\n        /* \"contracts/Market.sol\":1727:1738  produceList */\n      0x01\n        /* \"contracts/Market.sol\":1727:1754  produceList[produceAddress] */\n      0x00\n        /* \"contracts/Market.sol\":1739:1753  produceAddress */\n      dup4\n        /* \"contracts/Market.sol\":1727:1754  produceList[produceAddress] */\n      0xffffffffffffffffffffffffffffffffffffffff\n      and\n      0xffffffffffffffffffffffffffffffffffffffff\n      and\n      dup2\n      mstore\n      0x20\n      add\n      swap1\n      dup2\n      mstore\n      0x20\n      add\n      0x00\n      keccak256\n      0x00\n        /* \"contracts/Market.sol\":1727:1762  produceList[produceAddress] = false */\n      0x0100\n      exp\n      dup2\n      sload\n      dup2\n      0xff\n      mul\n      not\n      and\n      swap1\n      dup4\n      iszero\n      iszero\n      mul\n      or\n      swap1\n      sstore\n      pop\n        /* \"contracts/Market.sol\":1457:1769  function removeProduce(address produceAddress) public {... */\n      pop\n      jump\t// out\n        /* \"contracts/Market.sol\":751:1451  function addProduce( ... */\n    tag_13:\n        /* \"contracts/Market.sol\":921:944  address produceContract */\n      0x00\n        /* \"contracts/Market.sol\":960:983  address newProduceClone */\n      dup1\n        /* \"contracts/Market.sol\":986:1021  Clones.clone(produceImplementation) */\n      tag_33\n        /* \"contracts/Market.sol\":999:1020  produceImplementation */\n      immutable(\"0x75bcc28b7fac24eeec9856ca179c749c015847969c966f0a0315f3d435961b2d\")\n        /* \"contracts/Market.sol\":986:998  Clones.clone */\n      tag_34\n        /* \"contracts/Market.sol\":986:1021  Clones.clone(produceImplementation) */\n      jump\t// in\n    tag_33:\n        /* \"contracts/Market.sol\":960:1021  address newProduceClone = Clones.clone(produceImplementation) */\n      swap1\n      pop\n        /* \"contracts/Market.sol\":1043:1058  newProduceClone */\n      dup1\n        /* \"contracts/Market.sol\":1035:1069  Produce(newProduceClone).initilize */\n      0xffffffffffffffffffffffffffffffffffffffff\n      and\n      0x8fae6ca4\n        /* \"contracts/Market.sol\":1088:1098  msg.sender */\n      caller\n        /* \"contracts/Market.sol\":1117:1129  _produceHash */\n      dup9\n        /* \"contracts/Market.sol\":1148:1154  _price */\n      dup9\n        /* \"contracts/Market.sol\":1173:1183  _orderSize */\n      dup9\n        /* \"contracts/Market.sol\":1202:1223  _limitOnPendingOrders */\n      dup9\n        /* \"contracts/Market.sol\":1035:1237  Produce(newProduceClone).initilize(... */\n      mload(0x40)\n      dup7\n      0xffffffff\n      and\n      0xe0\n      shl\n      dup2\n      mstore\n      0x04\n      add\n      tag_35\n      swap6\n      swap5\n      swap4\n      swap3\n      swap2\n      swap1\n      tag_36\n      jump\t// in\n    tag_35:\n      0x00\n      mload(0x40)\n      dup1\n      dup4\n      sub\n      dup2\n      0x00\n      dup8\n      dup1\n      extcodesize\n      iszero\n      dup1\n      iszero\n      tag_37\n      jumpi\n      0x00\n      dup1\n      revert\n    tag_37:\n      pop\n      gas\n      call\n      iszero\n      dup1\n      iszero\n      tag_39\n      jumpi\n      returndatasize\n      0x00\n      dup1\n      returndatacopy\n      revert(0x00, returndatasize)\n    tag_39:\n      pop\n      pop\n      pop\n      pop\n        /* \"contracts/Market.sol\":1251:1267  produceAddresses */\n      0x00\n        /* \"contracts/Market.sol\":1281:1296  newProduceClone */\n      dup2\n        /* \"contracts/Market.sol\":1251:1298  produceAddresses.push(address(newProduceClone)) */\n      swap1\n      dup1\n      0x01\n      dup2\n      sload\n      add\n      dup1\n      dup3\n      sstore\n      dup1\n      swap2\n      pop\n      pop\n      0x01\n      swap1\n      sub\n      swap1\n      0x00\n      mstore\n      keccak256(0x00, 0x20)\n      add\n      0x00\n      swap1\n      swap2\n      swap1\n      swap2\n      swap1\n      swap2\n      0x0100\n      exp\n      dup2\n      sload\n      dup2\n      0xffffffffffffffffffffffffffffffffffffffff\n      mul\n      not\n      and\n      swap1\n      dup4\n      0xffffffffffffffffffffffffffffffffffffffff\n      and\n      mul\n      or\n      swap1\n      sstore\n      pop\n        /* \"contracts/Market.sol\":1352:1356  true */\n      0x01\n        /* \"contracts/Market.sol\":1312:1323  produceList */\n      dup1\n        /* \"contracts/Market.sol\":1312:1349  produceList[address(newProduceClone)] */\n      0x00\n        /* \"contracts/Market.sol\":1332:1347  newProduceClone */\n      dup4\n        /* \"contracts/Market.sol\":1312:1349  produceList[address(newProduceClone)] */\n      0xffffffffffffffffffffffffffffffffffffffff\n      and\n      0xffffffffffffffffffffffffffffffffffffffff\n      and\n      dup2\n      mstore\n      0x20\n      add\n      swap1\n      dup2\n      mstore\n      0x20\n      add\n      0x00\n      keccak256\n      0x00\n        /* \"contracts/Market.sol\":1312:1356  produceList[address(newProduceClone)] = true */\n      0x0100\n      exp\n      dup2\n      sload\n      dup2\n      0xff\n      mul\n      not\n      and\n      swap1\n      dup4\n      iszero\n      iszero\n      mul\n      or\n      swap1\n      sstore\n      pop\n        /* \"contracts/Market.sol\":1395:1399  true */\n      0x01\n        /* \"contracts/Market.sol\":1370:1380  farmerList */\n      0x02\n        /* \"contracts/Market.sol\":1370:1392  farmerList[msg.sender] */\n      0x00\n        /* \"contracts/Market.sol\":1381:1391  msg.sender */\n      caller\n        /* \"contracts/Market.sol\":1370:1392  farmerList[msg.sender] */\n      0xffffffffffffffffffffffffffffffffffffffff\n      and\n      0xffffffffffffffffffffffffffffffffffffffff\n      and\n      dup2\n      mstore\n      0x20\n      add\n      swap1\n      dup2\n      mstore\n      0x20\n      add\n      0x00\n      keccak256\n      0x00\n        /* \"contracts/Market.sol\":1370:1399  farmerList[msg.sender] = true */\n      0x0100\n      exp\n      dup2\n      sload\n      dup2\n      0xff\n      mul\n      not\n      and\n      swap1\n      dup4\n      iszero\n      iszero\n      mul\n      or\n      swap1\n      sstore\n      pop\n        /* \"contracts/Market.sol\":1428:1443  newProduceClone */\n      dup1\n        /* \"contracts/Market.sol\":1413:1444  return address(newProduceClone) */\n      swap2\n      pop\n      pop\n        /* \"contracts/Market.sol\":751:1451  function addProduce( ... */\n      swap5\n      swap4\n      pop\n      pop\n      pop\n      pop\n      jump\t// out\n        /* \"contracts/Market.sol\":619:660  mapping(address=> bool) public farmerList */\n    tag_18:\n      mstore(0x20, 0x02)\n      dup1\n      0x00\n      mstore\n      keccak256(0x00, 0x40)\n      0x00\n      swap2\n      pop\n      sload\n      swap1\n      0x0100\n      exp\n      swap1\n      div\n      0xff\n      and\n      dup2\n      jump\t// out\n        /* \"@openzeppelin/contracts/proxy/Clones.sol\":973:1732  function clone(address implementation) internal returns (address instance) {... */\n    tag_34:\n        /* \"@openzeppelin/contracts/proxy/Clones.sol\":1030:1046  address instance */\n      0x00\n        /* \"@openzeppelin/contracts/proxy/Clones.sol\":1362:1410  0x3d602d80600a3d3981f3363d3d373d3d3d363d73000000 */\n      0x3d602d80600a3d3981f3363d3d373d3d3d363d73000000\n        /* \"@openzeppelin/contracts/proxy/Clones.sol\":1344:1358  implementation */\n      dup3\n        /* \"@openzeppelin/contracts/proxy/Clones.sol\":1338:1342  0x60 */\n      0x60\n        /* \"@openzeppelin/contracts/proxy/Clones.sol\":1334:1359  shl(0x60, implementation) */\n      shl\n        /* \"@openzeppelin/contracts/proxy/Clones.sol\":1328:1332  0xe8 */\n      0xe8\n        /* \"@openzeppelin/contracts/proxy/Clones.sol\":1324:1360  shr(0xe8, shl(0x60, implementation)) */\n      shr\n        /* \"@openzeppelin/contracts/proxy/Clones.sol\":1321:1411  or(shr(0xe8, shl(0x60, implementation)), 0x3d602d80600a3d3981f3363d3d373d3d3d363d73000000) */\n      or\n        /* \"@openzeppelin/contracts/proxy/Clones.sol\":1315:1319  0x00 */\n      0x00\n        /* \"@openzeppelin/contracts/proxy/Clones.sol\":1308:1412  mstore(0x00, or(shr(0xe8, shl(0x60, implementation)), 0x3d602d80600a3d3981f3363d3d373d3d3d363d73000000)) */\n      mstore\n        /* \"@openzeppelin/contracts/proxy/Clones.sol\":1569:1601  0x5af43d82803e903d91602b57fd5bf3 */\n      0x5af43d82803e903d91602b57fd5bf3\n        /* \"@openzeppelin/contracts/proxy/Clones.sol\":1552:1566  implementation */\n      dup3\n        /* \"@openzeppelin/contracts/proxy/Clones.sol\":1546:1550  0x78 */\n      0x78\n        /* \"@openzeppelin/contracts/proxy/Clones.sol\":1542:1567  shl(0x78, implementation) */\n      shl\n        /* \"@openzeppelin/contracts/proxy/Clones.sol\":1539:1602  or(shl(0x78, implementation), 0x5af43d82803e903d91602b57fd5bf3) */\n      or\n        /* \"@openzeppelin/contracts/proxy/Clones.sol\":1533:1537  0x20 */\n      0x20\n        /* \"@openzeppelin/contracts/proxy/Clones.sol\":1526:1603  mstore(0x20, or(shl(0x78, implementation), 0x5af43d82803e903d91602b57fd5bf3)) */\n      mstore\n        /* \"@openzeppelin/contracts/proxy/Clones.sol\":1644:1648  0x37 */\n      0x37\n        /* \"@openzeppelin/contracts/proxy/Clones.sol\":1638:1642  0x09 */\n      0x09\n        /* \"@openzeppelin/contracts/proxy/Clones.sol\":1635:1636  0 */\n      0x00\n        /* \"@openzeppelin/contracts/proxy/Clones.sol\":1628:1649  create(0, 0x09, 0x37) */\n      create\n        /* \"@openzeppelin/contracts/proxy/Clones.sol\":1616:1649  instance := create(0, 0x09, 0x37) */\n      swap1\n      pop\n        /* \"@openzeppelin/contracts/proxy/Clones.sol\":1696:1697  0 */\n      0x00\n        /* \"@openzeppelin/contracts/proxy/Clones.sol\":1676:1698  instance != address(0) */\n      0xffffffffffffffffffffffffffffffffffffffff\n      and\n        /* \"@openzeppelin/contracts/proxy/Clones.sol\":1676:1684  instance */\n      dup2\n        /* \"@openzeppelin/contracts/proxy/Clones.sol\":1676:1698  instance != address(0) */\n      0xffffffffffffffffffffffffffffffffffffffff\n      and\n      sub\n        /* \"@openzeppelin/contracts/proxy/Clones.sol\":1668:1725  require(instance != address(0), \"ERC1167: create failed\") */\n      tag_42\n      jumpi\n      mload(0x40)\n      0x08c379a000000000000000000000000000000000000000000000000000000000\n      dup2\n      mstore\n      0x04\n      add\n      tag_43\n      swap1\n      tag_44\n      jump\t// in\n    tag_43:\n      mload(0x40)\n      dup1\n      swap2\n      sub\n      swap1\n      revert\n    tag_42:\n        /* \"@openzeppelin/contracts/proxy/Clones.sol\":973:1732  function clone(address implementation) internal returns (address instance) {... */\n      swap2\n      swap1\n      pop\n      jump\t// out\n        /* \"#utility.yul\":88:205   */\n    tag_46:\n        /* \"#utility.yul\":197:198   */\n      0x00\n        /* \"#utility.yul\":194:195   */\n      dup1\n        /* \"#utility.yul\":187:199   */\n      revert\n        /* \"#utility.yul\":334:460   */\n    tag_48:\n        /* \"#utility.yul\":371:378   */\n      0x00\n        /* \"#utility.yul\":411:453   */\n      0xffffffffffffffffffffffffffffffffffffffff\n        /* \"#utility.yul\":404:409   */\n      dup3\n        /* \"#utility.yul\":400:454   */\n      and\n        /* \"#utility.yul\":389:454   */\n      swap1\n      pop\n        /* \"#utility.yul\":334:460   */\n      swap2\n      swap1\n      pop\n      jump\t// out\n        /* \"#utility.yul\":466:562   */\n    tag_49:\n        /* \"#utility.yul\":503:510   */\n      0x00\n        /* \"#utility.yul\":532:556   */\n      tag_77\n        /* \"#utility.yul\":550:555   */\n      dup3\n        /* \"#utility.yul\":532:556   */\n      tag_48\n      jump\t// in\n    tag_77:\n        /* \"#utility.yul\":521:556   */\n      swap1\n      pop\n        /* \"#utility.yul\":466:562   */\n      swap2\n      swap1\n      pop\n      jump\t// out\n        /* \"#utility.yul\":568:690   */\n    tag_50:\n        /* \"#utility.yul\":641:665   */\n      tag_79\n        /* \"#utility.yul\":659:664   */\n      dup2\n        /* \"#utility.yul\":641:665   */\n      tag_49\n      jump\t// in\n    tag_79:\n        /* \"#utility.yul\":634:639   */\n      dup2\n        /* \"#utility.yul\":631:666   */\n      eq\n        /* \"#utility.yul\":621:684   */\n      tag_80\n      jumpi\n        /* \"#utility.yul\":680:681   */\n      0x00\n        /* \"#utility.yul\":677:678   */\n      dup1\n        /* \"#utility.yul\":670:682   */\n      revert\n        /* \"#utility.yul\":621:684   */\n    tag_80:\n        /* \"#utility.yul\":568:690   */\n      pop\n      jump\t// out\n        /* \"#utility.yul\":696:835   */\n    tag_51:\n        /* \"#utility.yul\":742:747   */\n      0x00\n        /* \"#utility.yul\":780:786   */\n      dup2\n        /* \"#utility.yul\":767:787   */\n      calldataload\n        /* \"#utility.yul\":758:787   */\n      swap1\n      pop\n        /* \"#utility.yul\":796:829   */\n      tag_82\n        /* \"#utility.yul\":823:828   */\n      dup2\n        /* \"#utility.yul\":796:829   */\n      tag_50\n      jump\t// in\n    tag_82:\n        /* \"#utility.yul\":696:835   */\n      swap3\n      swap2\n      pop\n      pop\n      jump\t// out\n        /* \"#utility.yul\":841:1170   */\n    tag_8:\n        /* \"#utility.yul\":900:906   */\n      0x00\n        /* \"#utility.yul\":949:951   */\n      0x20\n        /* \"#utility.yul\":937:946   */\n      dup3\n        /* \"#utility.yul\":928:935   */\n      dup5\n        /* \"#utility.yul\":924:947   */\n      sub\n        /* \"#utility.yul\":920:952   */\n      slt\n        /* \"#utility.yul\":917:1036   */\n      iszero\n      tag_84\n      jumpi\n        /* \"#utility.yul\":955:1034   */\n      tag_85\n      tag_46\n      jump\t// in\n    tag_85:\n        /* \"#utility.yul\":917:1036   */\n    tag_84:\n        /* \"#utility.yul\":1075:1076   */\n      0x00\n        /* \"#utility.yul\":1100:1153   */\n      tag_86\n        /* \"#utility.yul\":1145:1152   */\n      dup5\n        /* \"#utility.yul\":1136:1142   */\n      dup3\n        /* \"#utility.yul\":1125:1134   */\n      dup6\n        /* \"#utility.yul\":1121:1143   */\n      add\n        /* \"#utility.yul\":1100:1153   */\n      tag_51\n      jump\t// in\n    tag_86:\n        /* \"#utility.yul\":1090:1153   */\n      swap2\n      pop\n        /* \"#utility.yul\":1046:1163   */\n      pop\n        /* \"#utility.yul\":841:1170   */\n      swap3\n      swap2\n      pop\n      pop\n      jump\t// out\n        /* \"#utility.yul\":1176:1253   */\n    tag_52:\n        /* \"#utility.yul\":1213:1220   */\n      0x00\n        /* \"#utility.yul\":1242:1247   */\n      dup2\n        /* \"#utility.yul\":1231:1247   */\n      swap1\n      pop\n        /* \"#utility.yul\":1176:1253   */\n      swap2\n      swap1\n      pop\n      jump\t// out\n        /* \"#utility.yul\":1259:1381   */\n    tag_53:\n        /* \"#utility.yul\":1332:1356   */\n      tag_89\n        /* \"#utility.yul\":1350:1355   */\n      dup2\n        /* \"#utility.yul\":1332:1356   */\n      tag_52\n      jump\t// in\n    tag_89:\n        /* \"#utility.yul\":1325:1330   */\n      dup2\n        /* \"#utility.yul\":1322:1357   */\n      eq\n        /* \"#utility.yul\":1312:1375   */\n      tag_90\n      jumpi\n        /* \"#utility.yul\":1371:1372   */\n      0x00\n        /* \"#utility.yul\":1368:1369   */\n      dup1\n        /* \"#utility.yul\":1361:1373   */\n      revert\n        /* \"#utility.yul\":1312:1375   */\n    tag_90:\n        /* \"#utility.yul\":1259:1381   */\n      pop\n      jump\t// out\n        /* \"#utility.yul\":1387:1526   */\n    tag_54:\n        /* \"#utility.yul\":1433:1438   */\n      0x00\n        /* \"#utility.yul\":1471:1477   */\n      dup2\n        /* \"#utility.yul\":1458:1478   */\n      calldataload\n        /* \"#utility.yul\":1449:1478   */\n      swap1\n      pop\n        /* \"#utility.yul\":1487:1520   */\n      tag_92\n        /* \"#utility.yul\":1514:1519   */\n      dup2\n        /* \"#utility.yul\":1487:1520   */\n      tag_53\n      jump\t// in\n    tag_92:\n        /* \"#utility.yul\":1387:1526   */\n      swap3\n      swap2\n      pop\n      pop\n      jump\t// out\n        /* \"#utility.yul\":1532:1609   */\n    tag_55:\n        /* \"#utility.yul\":1569:1576   */\n      0x00\n        /* \"#utility.yul\":1598:1603   */\n      dup2\n        /* \"#utility.yul\":1587:1603   */\n      swap1\n      pop\n        /* \"#utility.yul\":1532:1609   */\n      swap2\n      swap1\n      pop\n      jump\t// out\n        /* \"#utility.yul\":1615:1737   */\n    tag_56:\n        /* \"#utility.yul\":1688:1712   */\n      tag_95\n        /* \"#utility.yul\":1706:1711   */\n      dup2\n        /* \"#utility.yul\":1688:1712   */\n      tag_55\n      jump\t// in\n    tag_95:\n        /* \"#utility.yul\":1681:1686   */\n      dup2\n        /* \"#utility.yul\":1678:1713   */\n      eq\n        /* \"#utility.yul\":1668:1731   */\n      tag_96\n      jumpi\n        /* \"#utility.yul\":1727:1728   */\n      0x00\n        /* \"#utility.yul\":1724:1725   */\n      dup1\n        /* \"#utility.yul\":1717:1729   */\n      revert\n        /* \"#utility.yul\":1668:1731   */\n    tag_96:\n        /* \"#utility.yul\":1615:1737   */\n      pop\n      jump\t// out\n        /* \"#utility.yul\":1743:1882   */\n    tag_57:\n        /* \"#utility.yul\":1789:1794   */\n      0x00\n        /* \"#utility.yul\":1827:1833   */\n      dup2\n        /* \"#utility.yul\":1814:1834   */\n      calldataload\n        /* \"#utility.yul\":1805:1834   */\n      swap1\n      pop\n        /* \"#utility.yul\":1843:1876   */\n      tag_98\n        /* \"#utility.yul\":1870:1875   */\n      dup2\n        /* \"#utility.yul\":1843:1876   */\n      tag_56\n      jump\t// in\n    tag_98:\n        /* \"#utility.yul\":1743:1882   */\n      swap3\n      swap2\n      pop\n      pop\n      jump\t// out\n        /* \"#utility.yul\":1888:2653   */\n    tag_12:\n        /* \"#utility.yul\":1974:1980   */\n      0x00\n        /* \"#utility.yul\":1982:1988   */\n      dup1\n        /* \"#utility.yul\":1990:1996   */\n      0x00\n        /* \"#utility.yul\":1998:2004   */\n      dup1\n        /* \"#utility.yul\":2047:2050   */\n      0x80\n        /* \"#utility.yul\":2035:2044   */\n      dup6\n        /* \"#utility.yul\":2026:2033   */\n      dup8\n        /* \"#utility.yul\":2022:2045   */\n      sub\n        /* \"#utility.yul\":2018:2051   */\n      slt\n        /* \"#utility.yul\":2015:2135   */\n      iszero\n      tag_100\n      jumpi\n        /* \"#utility.yul\":2054:2133   */\n      tag_101\n      tag_46\n      jump\t// in\n    tag_101:\n        /* \"#utility.yul\":2015:2135   */\n    tag_100:\n        /* \"#utility.yul\":2174:2175   */\n      0x00\n        /* \"#utility.yul\":2199:2252   */\n      tag_102\n        /* \"#utility.yul\":2244:2251   */\n      dup8\n        /* \"#utility.yul\":2235:2241   */\n      dup3\n        /* \"#utility.yul\":2224:2233   */\n      dup9\n        /* \"#utility.yul\":2220:2242   */\n      add\n        /* \"#utility.yul\":2199:2252   */\n      tag_54\n      jump\t// in\n    tag_102:\n        /* \"#utility.yul\":2189:2252   */\n      swap5\n      pop\n        /* \"#utility.yul\":2145:2262   */\n      pop\n        /* \"#utility.yul\":2301:2303   */\n      0x20\n        /* \"#utility.yul\":2327:2380   */\n      tag_103\n        /* \"#utility.yul\":2372:2379   */\n      dup8\n        /* \"#utility.yul\":2363:2369   */\n      dup3\n        /* \"#utility.yul\":2352:2361   */\n      dup9\n        /* \"#utility.yul\":2348:2370   */\n      add\n        /* \"#utility.yul\":2327:2380   */\n      tag_57\n      jump\t// in\n    tag_103:\n        /* \"#utility.yul\":2317:2380   */\n      swap4\n      pop\n        /* \"#utility.yul\":2272:2390   */\n      pop\n        /* \"#utility.yul\":2429:2431   */\n      0x40\n        /* \"#utility.yul\":2455:2508   */\n      tag_104\n        /* \"#utility.yul\":2500:2507   */\n      dup8\n        /* \"#utility.yul\":2491:2497   */\n      dup3\n        /* \"#utility.yul\":2480:2489   */\n      dup9\n        /* \"#utility.yul\":2476:2498   */\n      add\n        /* \"#utility.yul\":2455:2508   */\n      tag_57\n      jump\t// in\n    tag_104:\n        /* \"#utility.yul\":2445:2508   */\n      swap3\n      pop\n        /* \"#utility.yul\":2400:2518   */\n      pop\n        /* \"#utility.yul\":2557:2559   */\n      0x60\n        /* \"#utility.yul\":2583:2636   */\n      tag_105\n        /* \"#utility.yul\":2628:2635   */\n      dup8\n        /* \"#utility.yul\":2619:2625   */\n      dup3\n        /* \"#utility.yul\":2608:2617   */\n      dup9\n        /* \"#utility.yul\":2604:2626   */\n      add\n        /* \"#utility.yul\":2583:2636   */\n      tag_57\n      jump\t// in\n    tag_105:\n        /* \"#utility.yul\":2573:2636   */\n      swap2\n      pop\n        /* \"#utility.yul\":2528:2646   */\n      pop\n        /* \"#utility.yul\":1888:2653   */\n      swap3\n      swap6\n      swap2\n      swap5\n      pop\n      swap3\n      pop\n      jump\t// out\n        /* \"#utility.yul\":2659:2777   */\n    tag_58:\n        /* \"#utility.yul\":2746:2770   */\n      tag_107\n        /* \"#utility.yul\":2764:2769   */\n      dup2\n        /* \"#utility.yul\":2746:2770   */\n      tag_49\n      jump\t// in\n    tag_107:\n        /* \"#utility.yul\":2741:2744   */\n      dup3\n        /* \"#utility.yul\":2734:2771   */\n      mstore\n        /* \"#utility.yul\":2659:2777   */\n      pop\n      pop\n      jump\t// out\n        /* \"#utility.yul\":2783:3005   */\n    tag_15:\n        /* \"#utility.yul\":2876:2880   */\n      0x00\n        /* \"#utility.yul\":2914:2916   */\n      0x20\n        /* \"#utility.yul\":2903:2912   */\n      dup3\n        /* \"#utility.yul\":2899:2917   */\n      add\n        /* \"#utility.yul\":2891:2917   */\n      swap1\n      pop\n        /* \"#utility.yul\":2927:2998   */\n      tag_109\n        /* \"#utility.yul\":2995:2996   */\n      0x00\n        /* \"#utility.yul\":2984:2993   */\n      dup4\n        /* \"#utility.yul\":2980:2997   */\n      add\n        /* \"#utility.yul\":2971:2977   */\n      dup5\n        /* \"#utility.yul\":2927:2998   */\n      tag_58\n      jump\t// in\n    tag_109:\n        /* \"#utility.yul\":2783:3005   */\n      swap3\n      swap2\n      pop\n      pop\n      jump\t// out\n        /* \"#utility.yul\":3011:3101   */\n    tag_59:\n        /* \"#utility.yul\":3045:3052   */\n      0x00\n        /* \"#utility.yul\":3088:3093   */\n      dup2\n        /* \"#utility.yul\":3081:3094   */\n      iszero\n        /* \"#utility.yul\":3074:3095   */\n      iszero\n        /* \"#utility.yul\":3063:3095   */\n      swap1\n      pop\n        /* \"#utility.yul\":3011:3101   */\n      swap2\n      swap1\n      pop\n      jump\t// out\n        /* \"#utility.yul\":3107:3216   */\n    tag_60:\n        /* \"#utility.yul\":3188:3209   */\n      tag_112\n        /* \"#utility.yul\":3203:3208   */\n      dup2\n        /* \"#utility.yul\":3188:3209   */\n      tag_59\n      jump\t// in\n    tag_112:\n        /* \"#utility.yul\":3183:3186   */\n      dup3\n        /* \"#utility.yul\":3176:3210   */\n      mstore\n        /* \"#utility.yul\":3107:3216   */\n      pop\n      pop\n      jump\t// out\n        /* \"#utility.yul\":3222:3432   */\n    tag_20:\n        /* \"#utility.yul\":3309:3313   */\n      0x00\n        /* \"#utility.yul\":3347:3349   */\n      0x20\n        /* \"#utility.yul\":3336:3345   */\n      dup3\n        /* \"#utility.yul\":3332:3350   */\n      add\n        /* \"#utility.yul\":3324:3350   */\n      swap1\n      pop\n        /* \"#utility.yul\":3360:3425   */\n      tag_114\n        /* \"#utility.yul\":3422:3423   */\n      0x00\n        /* \"#utility.yul\":3411:3420   */\n      dup4\n        /* \"#utility.yul\":3407:3424   */\n      add\n        /* \"#utility.yul\":3398:3404   */\n      dup5\n        /* \"#utility.yul\":3360:3425   */\n      tag_60\n      jump\t// in\n    tag_114:\n        /* \"#utility.yul\":3222:3432   */\n      swap3\n      swap2\n      pop\n      pop\n      jump\t// out\n        /* \"#utility.yul\":3438:3607   */\n    tag_61:\n        /* \"#utility.yul\":3522:3533   */\n      0x00\n        /* \"#utility.yul\":3556:3562   */\n      dup3\n        /* \"#utility.yul\":3551:3554   */\n      dup3\n        /* \"#utility.yul\":3544:3563   */\n      mstore\n        /* \"#utility.yul\":3596:3600   */\n      0x20\n        /* \"#utility.yul\":3591:3594   */\n      dup3\n        /* \"#utility.yul\":3587:3601   */\n      add\n        /* \"#utility.yul\":3572:3601   */\n      swap1\n      pop\n        /* \"#utility.yul\":3438:3607   */\n      swap3\n      swap2\n      pop\n      pop\n      jump\t// out\n        /* \"#utility.yul\":3613:3840   */\n    tag_62:\n        /* \"#utility.yul\":3753:3787   */\n      0x546869732070726f64756365206973206e6f74206c6973746564206f6e207468\n        /* \"#utility.yul\":3749:3750   */\n      0x00\n        /* \"#utility.yul\":3741:3747   */\n      dup3\n        /* \"#utility.yul\":3737:3751   */\n      add\n        /* \"#utility.yul\":3730:3788   */\n      mstore\n        /* \"#utility.yul\":3822:3832   */\n      0x65204d61726b6574000000000000000000000000000000000000000000000000\n        /* \"#utility.yul\":3817:3819   */\n      0x20\n        /* \"#utility.yul\":3809:3815   */\n      dup3\n        /* \"#utility.yul\":3805:3820   */\n      add\n        /* \"#utility.yul\":3798:3833   */\n      mstore\n        /* \"#utility.yul\":3613:3840   */\n      pop\n      jump\t// out\n        /* \"#utility.yul\":3846:4212   */\n    tag_63:\n        /* \"#utility.yul\":3988:3991   */\n      0x00\n        /* \"#utility.yul\":4009:4076   */\n      tag_118\n        /* \"#utility.yul\":4073:4075   */\n      0x28\n        /* \"#utility.yul\":4068:4071   */\n      dup4\n        /* \"#utility.yul\":4009:4076   */\n      tag_61\n      jump\t// in\n    tag_118:\n        /* \"#utility.yul\":4002:4076   */\n      swap2\n      pop\n        /* \"#utility.yul\":4085:4178   */\n      tag_119\n        /* \"#utility.yul\":4174:4177   */\n      dup3\n        /* \"#utility.yul\":4085:4178   */\n      tag_62\n      jump\t// in\n    tag_119:\n        /* \"#utility.yul\":4203:4205   */\n      0x40\n        /* \"#utility.yul\":4198:4201   */\n      dup3\n        /* \"#utility.yul\":4194:4206   */\n      add\n        /* \"#utility.yul\":4187:4206   */\n      swap1\n      pop\n        /* \"#utility.yul\":3846:4212   */\n      swap2\n      swap1\n      pop\n      jump\t// out\n        /* \"#utility.yul\":4218:4637   */\n    tag_24:\n        /* \"#utility.yul\":4384:4388   */\n      0x00\n        /* \"#utility.yul\":4422:4424   */\n      0x20\n        /* \"#utility.yul\":4411:4420   */\n      dup3\n        /* \"#utility.yul\":4407:4425   */\n      add\n        /* \"#utility.yul\":4399:4425   */\n      swap1\n      pop\n        /* \"#utility.yul\":4471:4480   */\n      dup2\n        /* \"#utility.yul\":4465:4469   */\n      dup2\n        /* \"#utility.yul\":4461:4481   */\n      sub\n        /* \"#utility.yul\":4457:4458   */\n      0x00\n        /* \"#utility.yul\":4446:4455   */\n      dup4\n        /* \"#utility.yul\":4442:4459   */\n      add\n        /* \"#utility.yul\":4435:4482   */\n      mstore\n        /* \"#utility.yul\":4499:4630   */\n      tag_121\n        /* \"#utility.yul\":4625:4629   */\n      dup2\n        /* \"#utility.yul\":4499:4630   */\n      tag_63\n      jump\t// in\n    tag_121:\n        /* \"#utility.yul\":4491:4630   */\n      swap1\n      pop\n        /* \"#utility.yul\":4218:4637   */\n      swap2\n      swap1\n      pop\n      jump\t// out\n        /* \"#utility.yul\":4643:4786   */\n    tag_64:\n        /* \"#utility.yul\":4700:4705   */\n      0x00\n        /* \"#utility.yul\":4731:4737   */\n      dup2\n        /* \"#utility.yul\":4725:4738   */\n      mload\n        /* \"#utility.yul\":4716:4738   */\n      swap1\n      pop\n        /* \"#utility.yul\":4747:4780   */\n      tag_123\n        /* \"#utility.yul\":4774:4779   */\n      dup2\n        /* \"#utility.yul\":4747:4780   */\n      tag_50\n      jump\t// in\n    tag_123:\n        /* \"#utility.yul\":4643:4786   */\n      swap3\n      swap2\n      pop\n      pop\n      jump\t// out\n        /* \"#utility.yul\":4792:5143   */\n    tag_28:\n        /* \"#utility.yul\":4862:4868   */\n      0x00\n        /* \"#utility.yul\":4911:4913   */\n      0x20\n        /* \"#utility.yul\":4899:4908   */\n      dup3\n        /* \"#utility.yul\":4890:4897   */\n      dup5\n        /* \"#utility.yul\":4886:4909   */\n      sub\n        /* \"#utility.yul\":4882:4914   */\n      slt\n        /* \"#utility.yul\":4879:4998   */\n      iszero\n      tag_125\n      jumpi\n        /* \"#utility.yul\":4917:4996   */\n      tag_126\n      tag_46\n      jump\t// in\n    tag_126:\n        /* \"#utility.yul\":4879:4998   */\n    tag_125:\n        /* \"#utility.yul\":5037:5038   */\n      0x00\n        /* \"#utility.yul\":5062:5126   */\n      tag_127\n        /* \"#utility.yul\":5118:5125   */\n      dup5\n        /* \"#utility.yul\":5109:5115   */\n      dup3\n        /* \"#utility.yul\":5098:5107   */\n      dup6\n        /* \"#utility.yul\":5094:5116   */\n      add\n        /* \"#utility.yul\":5062:5126   */\n      tag_64\n      jump\t// in\n    tag_127:\n        /* \"#utility.yul\":5052:5126   */\n      swap2\n      pop\n        /* \"#utility.yul\":5008:5136   */\n      pop\n        /* \"#utility.yul\":4792:5143   */\n      swap3\n      swap2\n      pop\n      pop\n      jump\t// out\n        /* \"#utility.yul\":5149:5385   */\n    tag_65:\n        /* \"#utility.yul\":5289:5323   */\n      0x4f6e6c792070726f64756365206f776e65722063616e2072656d6f7665207072\n        /* \"#utility.yul\":5285:5286   */\n      0x00\n        /* \"#utility.yul\":5277:5283   */\n      dup3\n        /* \"#utility.yul\":5273:5287   */\n      add\n        /* \"#utility.yul\":5266:5324   */\n      mstore\n        /* \"#utility.yul\":5358:5377   */\n      0x6f647563652066726f6d204d61726b6574000000000000000000000000000000\n        /* \"#utility.yul\":5353:5355   */\n      0x20\n        /* \"#utility.yul\":5345:5351   */\n      dup3\n        /* \"#utility.yul\":5341:5356   */\n      add\n        /* \"#utility.yul\":5334:5378   */\n      mstore\n        /* \"#utility.yul\":5149:5385   */\n      pop\n      jump\t// out\n        /* \"#utility.yul\":5391:5757   */\n    tag_66:\n        /* \"#utility.yul\":5533:5536   */\n      0x00\n        /* \"#utility.yul\":5554:5621   */\n      tag_130\n        /* \"#utility.yul\":5618:5620   */\n      0x31\n        /* \"#utility.yul\":5613:5616   */\n      dup4\n        /* \"#utility.yul\":5554:5621   */\n      tag_61\n      jump\t// in\n    tag_130:\n        /* \"#utility.yul\":5547:5621   */\n      swap2\n      pop\n        /* \"#utility.yul\":5630:5723   */\n      tag_131\n        /* \"#utility.yul\":5719:5722   */\n      dup3\n        /* \"#utility.yul\":5630:5723   */\n      tag_65\n      jump\t// in\n    tag_131:\n        /* \"#utility.yul\":5748:5750   */\n      0x40\n        /* \"#utility.yul\":5743:5746   */\n      dup3\n        /* \"#utility.yul\":5739:5751   */\n      add\n        /* \"#utility.yul\":5732:5751   */\n      swap1\n      pop\n        /* \"#utility.yul\":5391:5757   */\n      swap2\n      swap1\n      pop\n      jump\t// out\n        /* \"#utility.yul\":5763:6182   */\n    tag_31:\n        /* \"#utility.yul\":5929:5933   */\n      0x00\n        /* \"#utility.yul\":5967:5969   */\n      0x20\n        /* \"#utility.yul\":5956:5965   */\n      dup3\n        /* \"#utility.yul\":5952:5970   */\n      add\n        /* \"#utility.yul\":5944:5970   */\n      swap1\n      pop\n        /* \"#utility.yul\":6016:6025   */\n      dup2\n        /* \"#utility.yul\":6010:6014   */\n      dup2\n        /* \"#utility.yul\":6006:6026   */\n      sub\n        /* \"#utility.yul\":6002:6003   */\n      0x00\n        /* \"#utility.yul\":5991:6000   */\n      dup4\n        /* \"#utility.yul\":5987:6004   */\n      add\n        /* \"#utility.yul\":5980:6027   */\n      mstore\n        /* \"#utility.yul\":6044:6175   */\n      tag_133\n        /* \"#utility.yul\":6170:6174   */\n      dup2\n        /* \"#utility.yul\":6044:6175   */\n      tag_66\n      jump\t// in\n    tag_133:\n        /* \"#utility.yul\":6036:6175   */\n      swap1\n      pop\n        /* \"#utility.yul\":5763:6182   */\n      swap2\n      swap1\n      pop\n      jump\t// out\n        /* \"#utility.yul\":6188:6306   */\n    tag_67:\n        /* \"#utility.yul\":6275:6299   */\n      tag_135\n        /* \"#utility.yul\":6293:6298   */\n      dup2\n        /* \"#utility.yul\":6275:6299   */\n      tag_52\n      jump\t// in\n    tag_135:\n        /* \"#utility.yul\":6270:6273   */\n      dup3\n        /* \"#utility.yul\":6263:6300   */\n      mstore\n        /* \"#utility.yul\":6188:6306   */\n      pop\n      pop\n      jump\t// out\n        /* \"#utility.yul\":6312:6430   */\n    tag_68:\n        /* \"#utility.yul\":6399:6423   */\n      tag_137\n        /* \"#utility.yul\":6417:6422   */\n      dup2\n        /* \"#utility.yul\":6399:6423   */\n      tag_55\n      jump\t// in\n    tag_137:\n        /* \"#utility.yul\":6394:6397   */\n      dup3\n        /* \"#utility.yul\":6387:6424   */\n      mstore\n        /* \"#utility.yul\":6312:6430   */\n      pop\n      pop\n      jump\t// out\n        /* \"#utility.yul\":6436:7100   */\n    tag_36:\n        /* \"#utility.yul\":6641:6645   */\n      0x00\n        /* \"#utility.yul\":6679:6682   */\n      0xa0\n        /* \"#utility.yul\":6668:6677   */\n      dup3\n        /* \"#utility.yul\":6664:6683   */\n      add\n        /* \"#utility.yul\":6656:6683   */\n      swap1\n      pop\n        /* \"#utility.yul\":6693:6764   */\n      tag_139\n        /* \"#utility.yul\":6761:6762   */\n      0x00\n        /* \"#utility.yul\":6750:6759   */\n      dup4\n        /* \"#utility.yul\":6746:6763   */\n      add\n        /* \"#utility.yul\":6737:6743   */\n      dup9\n        /* \"#utility.yul\":6693:6764   */\n      tag_58\n      jump\t// in\n    tag_139:\n        /* \"#utility.yul\":6774:6846   */\n      tag_140\n        /* \"#utility.yul\":6842:6844   */\n      0x20\n        /* \"#utility.yul\":6831:6840   */\n      dup4\n        /* \"#utility.yul\":6827:6845   */\n      add\n        /* \"#utility.yul\":6818:6824   */\n      dup8\n        /* \"#utility.yul\":6774:6846   */\n      tag_67\n      jump\t// in\n    tag_140:\n        /* \"#utility.yul\":6856:6928   */\n      tag_141\n        /* \"#utility.yul\":6924:6926   */\n      0x40\n        /* \"#utility.yul\":6913:6922   */\n      dup4\n        /* \"#utility.yul\":6909:6927   */\n      add\n        /* \"#utility.yul\":6900:6906   */\n      dup7\n        /* \"#utility.yul\":6856:6928   */\n      tag_68\n      jump\t// in\n    tag_141:\n        /* \"#utility.yul\":6938:7010   */\n      tag_142\n        /* \"#utility.yul\":7006:7008   */\n      0x60\n        /* \"#utility.yul\":6995:7004   */\n      dup4\n        /* \"#utility.yul\":6991:7009   */\n      add\n        /* \"#utility.yul\":6982:6988   */\n      dup6\n        /* \"#utility.yul\":6938:7010   */\n      tag_68\n      jump\t// in\n    tag_142:\n        /* \"#utility.yul\":7020:7093   */\n      tag_143\n        /* \"#utility.yul\":7088:7091   */\n      0x80\n        /* \"#utility.yul\":7077:7086   */\n      dup4\n        /* \"#utility.yul\":7073:7092   */\n      add\n        /* \"#utility.yul\":7064:7070   */\n      dup5\n        /* \"#utility.yul\":7020:7093   */\n      tag_68\n      jump\t// in\n    tag_143:\n        /* \"#utility.yul\":6436:7100   */\n      swap7\n      swap6\n      pop\n      pop\n      pop\n      pop\n      pop\n      pop\n      jump\t// out\n        /* \"#utility.yul\":7106:7278   */\n    tag_69:\n        /* \"#utility.yul\":7246:7270   */\n      0x455243313136373a20637265617465206661696c656400000000000000000000\n        /* \"#utility.yul\":7242:7243   */\n      0x00\n        /* \"#utility.yul\":7234:7240   */\n      dup3\n        /* \"#utility.yul\":7230:7244   */\n      add\n        /* \"#utility.yul\":7223:7271   */\n      mstore\n        /* \"#utility.yul\":7106:7278   */\n      pop\n      jump\t// out\n        /* \"#utility.yul\":7284:7650   */\n    tag_70:\n        /* \"#utility.yul\":7426:7429   */\n      0x00\n        /* \"#utility.yul\":7447:7514   */\n      tag_146\n        /* \"#utility.yul\":7511:7513   */\n      0x16\n        /* \"#utility.yul\":7506:7509   */\n      dup4\n        /* \"#utility.yul\":7447:7514   */\n      tag_61\n      jump\t// in\n    tag_146:\n        /* \"#utility.yul\":7440:7514   */\n      swap2\n      pop\n        /* \"#utility.yul\":7523:7616   */\n      tag_147\n        /* \"#utility.yul\":7612:7615   */\n      dup3\n        /* \"#utility.yul\":7523:7616   */\n      tag_69\n      jump\t// in\n    tag_147:\n        /* \"#utility.yul\":7641:7643   */\n      0x20\n        /* \"#utility.yul\":7636:7639   */\n      dup3\n        /* \"#utility.yul\":7632:7644   */\n      add\n        /* \"#utility.yul\":7625:7644   */\n      swap1\n      pop\n        /* \"#utility.yul\":7284:7650   */\n      swap2\n      swap1\n      pop\n      jump\t// out\n        /* \"#utility.yul\":7656:8075   */\n    tag_44:\n        /* \"#utility.yul\":7822:7826   */\n      0x00\n        /* \"#utility.yul\":7860:7862   */\n      0x20\n        /* \"#utility.yul\":7849:7858   */\n      dup3\n        /* \"#utility.yul\":7845:7863   */\n      add\n        /* \"#utility.yul\":7837:7863   */\n      swap1\n      pop\n        /* \"#utility.yul\":7909:7918   */\n      dup2\n        /* \"#utility.yul\":7903:7907   */\n      dup2\n        /* \"#utility.yul\":7899:7919   */\n      sub\n        /* \"#utility.yul\":7895:7896   */\n      0x00\n        /* \"#utility.yul\":7884:7893   */\n      dup4\n        /* \"#utility.yul\":7880:7897   */\n      add\n        /* \"#utility.yul\":7873:7920   */\n      mstore\n        /* \"#utility.yul\":7937:8068   */\n      tag_149\n        /* \"#utility.yul\":8063:8067   */\n      dup2\n        /* \"#utility.yul\":7937:8068   */\n      tag_70\n      jump\t// in\n    tag_149:\n        /* \"#utility.yul\":7929:8068   */\n      swap1\n      pop\n        /* \"#utility.yul\":7656:8075   */\n      swap2\n      swap1\n      pop\n      jump\t// out\n\n    auxdata: 0xa2646970667358221220174c078005db65ee841c58271075bb546bcd5c50f2076a867079b20f96834d2964736f6c63430008120033\n}\n\nsub_1: assembly {\n        /* \"contracts/Produce.sol\":140:1854  contract Produce is Ownable{... */\n      mstore(0x40, 0x80)\n        /* \"contracts/Produce.sol\":489:547  constructor() {... */\n      callvalue\n      dup1\n      iszero\n      tag_1\n      jumpi\n      0x00\n      dup1\n      revert\n    tag_1:\n      pop\n        /* \"@openzeppelin/contracts/access/Ownable.sol\":936:968  _transferOwnership(_msgSender()) */\n      tag_5\n        /* \"@openzeppelin/contracts/access/Ownable.sol\":955:967  _msgSender() */\n      tag_6\n        /* \"@openzeppelin/contracts/access/Ownable.sol\":955:965  _msgSender */\n      shl(0x20, tag_7)\n        /* \"@openzeppelin/contracts/access/Ownable.sol\":955:967  _msgSender() */\n      0x20\n      shr\n      jump\t// in\n    tag_6:\n        /* \"@openzeppelin/contracts/access/Ownable.sol\":936:954  _transferOwnership */\n      shl(0x20, tag_8)\n        /* \"@openzeppelin/contracts/access/Ownable.sol\":936:968  _transferOwnership(_msgSender()) */\n      0x20\n      shr\n      jump\t// in\n    tag_5:\n        /* \"contracts/Produce.sol\":521:540  State.UNINITIALIZED */\n      0x00\n        /* \"contracts/Produce.sol\":513:518  state */\n      0x08\n      0x00\n        /* \"contracts/Produce.sol\":513:540  state = State.UNINITIALIZED */\n      0x0100\n      exp\n      dup2\n      sload\n      dup2\n      0xff\n      mul\n      not\n      and\n      swap1\n      dup4\n      0x02\n      dup2\n      gt\n      iszero\n      tag_10\n      jumpi\n      tag_11\n      tag_12\n      jump\t// in\n    tag_11:\n    tag_10:\n      mul\n      or\n      swap1\n      sstore\n      pop\n        /* \"contracts/Produce.sol\":140:1854  contract Produce is Ownable{... */\n      jump(tag_13)\n        /* \"@openzeppelin/contracts/utils/Context.sol\":640:736  function _msgSender() internal view virtual returns (address) {... */\n    tag_7:\n        /* \"@openzeppelin/contracts/utils/Context.sol\":693:700  address */\n      0x00\n        /* \"@openzeppelin/contracts/utils/Context.sol\":719:729  msg.sender */\n      caller\n        /* \"@openzeppelin/contracts/utils/Context.sol\":712:729  return msg.sender */\n      swap1\n      pop\n        /* \"@openzeppelin/contracts/utils/Context.sol\":640:736  function _msgSender() internal view virtual returns (address) {... */\n      swap1\n      jump\t// out\n        /* \"@openzeppelin/contracts/access/Ownable.sol\":2433:2620  function _transferOwnership(address newOwner) internal virtual {... */\n    tag_8:\n        /* \"@openzeppelin/contracts/access/Ownable.sol\":2506:2522  address oldOwner */\n      0x00\n        /* \"@openzeppelin/contracts/access/Ownable.sol\":2525:2531  _owner */\n      dup1\n      0x00\n      swap1\n      sload\n      swap1\n      0x0100\n      exp\n      swap1\n      div\n      0xffffffffffffffffffffffffffffffffffffffff\n      and\n        /* \"@openzeppelin/contracts/access/Ownable.sol\":2506:2531  address oldOwner = _owner */\n      swap1\n      pop\n        /* \"@openzeppelin/contracts/access/Ownable.sol\":2550:2558  newOwner */\n      dup2\n        /* \"@openzeppelin/contracts/access/Ownable.sol\":2541:2547  _owner */\n      0x00\n      dup1\n        /* \"@openzeppelin/contracts/access/Ownable.sol\":2541:2558  _owner = newOwner */\n      0x0100\n      exp\n      dup2\n      sload\n      dup2\n      0xffffffffffffffffffffffffffffffffffffffff\n      mul\n      not\n      and\n      swap1\n      dup4\n      0xffffffffffffffffffffffffffffffffffffffff\n      and\n      mul\n      or\n      swap1\n      sstore\n      pop\n        /* \"@openzeppelin/contracts/access/Ownable.sol\":2604:2612  newOwner */\n      dup2\n        /* \"@openzeppelin/contracts/access/Ownable.sol\":2573:2613  OwnershipTransferred(oldOwner, newOwner) */\n      0xffffffffffffffffffffffffffffffffffffffff\n      and\n        /* \"@openzeppelin/contracts/access/Ownable.sol\":2594:2602  oldOwner */\n      dup2\n        /* \"@openzeppelin/contracts/access/Ownable.sol\":2573:2613  OwnershipTransferred(oldOwner, newOwner) */\n      0xffffffffffffffffffffffffffffffffffffffff\n      and\n      0x8be0079c531659141344cd1fd0a4f28419497f9722a3daafe3b4186f6b6457e0\n      mload(0x40)\n      mload(0x40)\n      dup1\n      swap2\n      sub\n      swap1\n      log3\n        /* \"@openzeppelin/contracts/access/Ownable.sol\":2496:2620  {... */\n      pop\n        /* \"@openzeppelin/contracts/access/Ownable.sol\":2433:2620  function _transferOwnership(address newOwner) internal virtual {... */\n      pop\n      jump\t// out\n        /* \"#utility.yul\":7:187   */\n    tag_12:\n        /* \"#utility.yul\":55:132   */\n      0x4e487b7100000000000000000000000000000000000000000000000000000000\n        /* \"#utility.yul\":52:53   */\n      0x00\n        /* \"#utility.yul\":45:133   */\n      mstore\n        /* \"#utility.yul\":152:156   */\n      0x21\n        /* \"#utility.yul\":149:150   */\n      0x04\n        /* \"#utility.yul\":142:157   */\n      mstore\n        /* \"#utility.yul\":176:180   */\n      0x24\n        /* \"#utility.yul\":173:174   */\n      0x00\n        /* \"#utility.yul\":166:181   */\n      revert\n        /* \"contracts/Produce.sol\":140:1854  contract Produce is Ownable{... */\n    tag_13:\n      dataSize(sub_0)\n      dup1\n      dataOffset(sub_0)\n      0x00\n      codecopy\n      0x00\n      return\n    stop\n\n    sub_0: assembly {\n            /* \"contracts/Produce.sol\":140:1854  contract Produce is Ownable{... */\n          mstore(0x40, 0x80)\n          jumpi(tag_1, lt(calldatasize, 0x04))\n          shr(0xe0, calldataload(0x00))\n          dup1\n          0xa035b1fe\n          gt\n          tag_14\n          jumpi\n          dup1\n          0xa035b1fe\n          eq\n          tag_8\n          jumpi\n          dup1\n          0xd32dacc1\n          eq\n          tag_9\n          jumpi\n          dup1\n          0xd811fcf0\n          eq\n          tag_10\n          jumpi\n          dup1\n          0xf2fde38b\n          eq\n          tag_11\n          jumpi\n          dup1\n          0xf5c609e0\n          eq\n          tag_12\n          jumpi\n          dup1\n          0xfa34f63a\n          eq\n          tag_13\n          jumpi\n          jump(tag_1)\n        tag_14:\n          dup1\n          0x530d124e\n          eq\n          tag_2\n          jumpi\n          dup1\n          0x6d86b8a5\n          eq\n          tag_3\n          jumpi\n          dup1\n          0x715018a6\n          eq\n          tag_4\n          jumpi\n          dup1\n          0x80f55605\n          eq\n          tag_5\n          jumpi\n          dup1\n          0x8da5cb5b\n          eq\n          tag_6\n          jumpi\n          dup1\n          0x8fae6ca4\n          eq\n          tag_7\n          jumpi\n        tag_1:\n          0x00\n          dup1\n          revert\n            /* \"contracts/Produce.sol\":257:292  uint256 public limitOnPendingOrders */\n        tag_2:\n          callvalue\n          dup1\n          iszero\n          tag_15\n          jumpi\n          0x00\n          dup1\n          revert\n        tag_15:\n          pop\n          tag_16\n          tag_17\n          jump\t// in\n        tag_16:\n          mload(0x40)\n          tag_18\n          swap2\n          swap1\n          tag_19\n          jump\t// in\n        tag_18:\n          mload(0x40)\n          dup1\n          swap2\n          sub\n          swap1\n          return\n            /* \"contracts/Produce.sol\":357:381  uint256 public orderSize */\n        tag_3:\n          callvalue\n          dup1\n          iszero\n          tag_20\n          jumpi\n          0x00\n          dup1\n          revert\n        tag_20:\n          pop\n          tag_21\n          tag_22\n          jump\t// in\n        tag_21:\n          mload(0x40)\n          tag_23\n          swap2\n          swap1\n          tag_19\n          jump\t// in\n        tag_23:\n          mload(0x40)\n          dup1\n          swap2\n          sub\n          swap1\n          return\n            /* \"@openzeppelin/contracts/access/Ownable.sol\":1831:1932  function renounceOwnership() public virtual onlyOwner {... */\n        tag_4:\n          callvalue\n          dup1\n          iszero\n          tag_24\n          jumpi\n          0x00\n          dup1\n          revert\n        tag_24:\n          pop\n          tag_25\n          tag_26\n          jump\t// in\n        tag_25:\n          stop\n            /* \"contracts/Produce.sol\":200:221  address public market */\n        tag_5:\n          callvalue\n          dup1\n          iszero\n          tag_27\n          jumpi\n          0x00\n          dup1\n          revert\n        tag_27:\n          pop\n          tag_28\n          tag_29\n          jump\t// in\n        tag_28:\n          mload(0x40)\n          tag_30\n          swap2\n          swap1\n          tag_31\n          jump\t// in\n        tag_30:\n          mload(0x40)\n          dup1\n          swap2\n          sub\n          swap1\n          return\n            /* \"@openzeppelin/contracts/access/Ownable.sol\":1201:1286  function owner() public view virtual returns (address) {... */\n        tag_6:\n          callvalue\n          dup1\n          iszero\n          tag_32\n          jumpi\n          0x00\n          dup1\n          revert\n        tag_32:\n          pop\n          tag_33\n          tag_34\n          jump\t// in\n        tag_33:\n          mload(0x40)\n          tag_35\n          swap2\n          swap1\n          tag_31\n          jump\t// in\n        tag_35:\n          mload(0x40)\n          dup1\n          swap2\n          sub\n          swap1\n          return\n            /* \"contracts/Produce.sol\":553:1069  function initilize(... */\n        tag_7:\n          callvalue\n          dup1\n          iszero\n          tag_36\n          jumpi\n          0x00\n          dup1\n          revert\n        tag_36:\n          pop\n          tag_37\n          0x04\n          dup1\n          calldatasize\n          sub\n          dup2\n          add\n          swap1\n          tag_38\n          swap2\n          swap1\n          tag_39\n          jump\t// in\n        tag_38:\n          tag_40\n          jump\t// in\n        tag_37:\n          stop\n            /* \"contracts/Produce.sol\":331:351  uint256 public price */\n        tag_8:\n          callvalue\n          dup1\n          iszero\n          tag_41\n          jumpi\n          0x00\n          dup1\n          revert\n        tag_41:\n          pop\n          tag_42\n          tag_43\n          jump\t// in\n        tag_42:\n          mload(0x40)\n          tag_44\n          swap2\n          swap1\n          tag_19\n          jump\t// in\n        tag_44:\n          mload(0x40)\n          dup1\n          swap2\n          sub\n          swap1\n          return\n            /* \"contracts/Produce.sol\":1615:1850  function takeOrder() external onlyOwner returns (address order) {... */\n        tag_9:\n          callvalue\n          dup1\n          iszero\n          tag_45\n          jumpi\n          0x00\n          dup1\n          revert\n        tag_45:\n          pop\n          tag_46\n          tag_47\n          jump\t// in\n        tag_46:\n          mload(0x40)\n          tag_48\n          swap2\n          swap1\n          tag_31\n          jump\t// in\n        tag_48:\n          mload(0x40)\n          dup1\n          swap2\n          sub\n          swap1\n          return\n            /* \"contracts/Produce.sol\":173:194  address public farmer */\n        tag_10:\n          callvalue\n          dup1\n          iszero\n          tag_49\n          jumpi\n          0x00\n          dup1\n          revert\n        tag_49:\n          pop\n          tag_50\n          tag_51\n          jump\t// in\n        tag_50:\n          mload(0x40)\n          tag_52\n          swap2\n          swap1\n          tag_31\n          jump\t// in\n        tag_52:\n          mload(0x40)\n          dup1\n          swap2\n          sub\n          swap1\n          return\n            /* \"@openzeppelin/contracts/access/Ownable.sol\":2081:2279  function transferOwnership(address newOwner) public virtual onlyOwner {... */\n        tag_11:\n          callvalue\n          dup1\n          iszero\n          tag_53\n          jumpi\n          0x00\n          dup1\n          revert\n        tag_53:\n          pop\n          tag_54\n          0x04\n          dup1\n          calldatasize\n          sub\n          dup2\n          add\n          swap1\n          tag_55\n          swap2\n          swap1\n          tag_56\n          jump\t// in\n        tag_55:\n          tag_57\n          jump\t// in\n        tag_54:\n          stop\n            /* \"contracts/Produce.sol\":1122:1551  function placeOrder() external payable {... */\n        tag_12:\n          tag_58\n          tag_59\n          jump\t// in\n        tag_58:\n          stop\n            /* \"contracts/Produce.sol\":299:325  bytes32 public produceHash */\n        tag_13:\n          callvalue\n          dup1\n          iszero\n          tag_60\n          jumpi\n          0x00\n          dup1\n          revert\n        tag_60:\n          pop\n          tag_61\n          tag_62\n          jump\t// in\n        tag_61:\n          mload(0x40)\n          tag_63\n          swap2\n          swap1\n          tag_64\n          jump\t// in\n        tag_63:\n          mload(0x40)\n          dup1\n          swap2\n          sub\n          swap1\n          return\n            /* \"contracts/Produce.sol\":257:292  uint256 public limitOnPendingOrders */\n        tag_17:\n          sload(0x04)\n          dup2\n          jump\t// out\n            /* \"contracts/Produce.sol\":357:381  uint256 public orderSize */\n        tag_22:\n          sload(0x07)\n          dup2\n          jump\t// out\n            /* \"@openzeppelin/contracts/access/Ownable.sol\":1831:1932  function renounceOwnership() public virtual onlyOwner {... */\n        tag_26:\n            /* \"@openzeppelin/contracts/access/Ownable.sol\":1094:1107  _checkOwner() */\n          tag_66\n            /* \"@openzeppelin/contracts/access/Ownable.sol\":1094:1105  _checkOwner */\n          tag_67\n            /* \"@openzeppelin/contracts/access/Ownable.sol\":1094:1107  _checkOwner() */\n          jump\t// in\n        tag_66:\n            /* \"@openzeppelin/contracts/access/Ownable.sol\":1895:1925  _transferOwnership(address(0)) */\n          tag_69\n            /* \"@openzeppelin/contracts/access/Ownable.sol\":1922:1923  0 */\n          0x00\n            /* \"@openzeppelin/contracts/access/Ownable.sol\":1895:1913  _transferOwnership */\n          tag_70\n            /* \"@openzeppelin/contracts/access/Ownable.sol\":1895:1925  _transferOwnership(address(0)) */\n          jump\t// in\n        tag_69:\n            /* \"@openzeppelin/contracts/access/Ownable.sol\":1831:1932  function renounceOwnership() public virtual onlyOwner {... */\n          jump\t// out\n            /* \"contracts/Produce.sol\":200:221  address public market */\n        tag_29:\n          0x02\n          0x00\n          swap1\n          sload\n          swap1\n          0x0100\n          exp\n          swap1\n          div\n          0xffffffffffffffffffffffffffffffffffffffff\n          and\n          dup2\n          jump\t// out\n            /* \"@openzeppelin/contracts/access/Ownable.sol\":1201:1286  function owner() public view virtual returns (address) {... */\n        tag_34:\n            /* \"@openzeppelin/contracts/access/Ownable.sol\":1247:1254  address */\n          0x00\n            /* \"@openzeppelin/contracts/access/Ownable.sol\":1273:1279  _owner */\n          dup1\n          0x00\n          swap1\n          sload\n          swap1\n          0x0100\n          exp\n          swap1\n          div\n          0xffffffffffffffffffffffffffffffffffffffff\n          and\n            /* \"@openzeppelin/contracts/access/Ownable.sol\":1266:1279  return _owner */\n          swap1\n          pop\n            /* \"@openzeppelin/contracts/access/Ownable.sol\":1201:1286  function owner() public view virtual returns (address) {... */\n          swap1\n          jump\t// out\n            /* \"contracts/Produce.sol\":553:1069  function initilize(... */\n        tag_40:\n            /* \"contracts/Produce.sol\":758:777  State.UNINITIALIZED */\n          0x00\n            /* \"contracts/Produce.sol\":751:777  state==State.UNINITIALIZED */\n          0x02\n          dup2\n          gt\n          iszero\n          tag_73\n          jumpi\n          tag_74\n          tag_75\n          jump\t// in\n        tag_74:\n        tag_73:\n            /* \"contracts/Produce.sol\":751:756  state */\n          0x08\n          0x00\n          swap1\n          sload\n          swap1\n          0x0100\n          exp\n          swap1\n          div\n          0xff\n          and\n            /* \"contracts/Produce.sol\":751:777  state==State.UNINITIALIZED */\n          0x02\n          dup2\n          gt\n          iszero\n          tag_76\n          jumpi\n          tag_77\n          tag_75\n          jump\t// in\n        tag_77:\n        tag_76:\n          eq\n            /* \"contracts/Produce.sol\":743:822  require(state==State.UNINITIALIZED, \"This produce has already been initilized\") */\n          tag_78\n          jumpi\n          mload(0x40)\n          0x08c379a000000000000000000000000000000000000000000000000000000000\n          dup2\n          mstore\n          0x04\n          add\n          tag_79\n          swap1\n          tag_80\n          jump\t// in\n        tag_79:\n          mload(0x40)\n          dup1\n          swap2\n          sub\n          swap1\n          revert\n        tag_78:\n            /* \"contracts/Produce.sol\":832:859  _transferOwnership(_farmer) */\n          tag_81\n            /* \"contracts/Produce.sol\":851:858  _farmer */\n          dup6\n            /* \"contracts/Produce.sol\":832:850  _transferOwnership */\n          tag_70\n            /* \"contracts/Produce.sol\":832:859  _transferOwnership(_farmer) */\n          jump\t// in\n        tag_81:\n            /* \"contracts/Produce.sol\":878:888  msg.sender */\n          caller\n            /* \"contracts/Produce.sol\":869:875  market */\n          0x02\n          0x00\n            /* \"contracts/Produce.sol\":869:888  market = msg.sender */\n          0x0100\n          exp\n          dup2\n          sload\n          dup2\n          0xffffffffffffffffffffffffffffffffffffffff\n          mul\n          not\n          and\n          swap1\n          dup4\n          0xffffffffffffffffffffffffffffffffffffffff\n          and\n          mul\n          or\n          swap1\n          sstore\n          pop\n            /* \"contracts/Produce.sol\":921:942  _limitOnPendingOrders */\n          dup1\n            /* \"contracts/Produce.sol\":898:918  limitOnPendingOrders */\n          0x04\n            /* \"contracts/Produce.sol\":898:942  limitOnPendingOrders = _limitOnPendingOrders */\n          dup2\n          swap1\n          sstore\n          pop\n            /* \"contracts/Produce.sol\":966:978  _produceHash */\n          dup4\n            /* \"contracts/Produce.sol\":952:963  produceHash */\n          0x05\n            /* \"contracts/Produce.sol\":952:978  produceHash = _produceHash */\n          dup2\n          swap1\n          sstore\n          pop\n            /* \"contracts/Produce.sol\":996:1002  _price */\n          dup3\n            /* \"contracts/Produce.sol\":988:993  price */\n          0x06\n            /* \"contracts/Produce.sol\":988:1002  price = _price */\n          dup2\n          swap1\n          sstore\n          pop\n            /* \"contracts/Produce.sol\":1024:1034  _orderSize */\n          dup2\n            /* \"contracts/Produce.sol\":1012:1021  orderSize */\n          0x07\n            /* \"contracts/Produce.sol\":1012:1034  orderSize = _orderSize */\n          dup2\n          swap1\n          sstore\n          pop\n            /* \"contracts/Produce.sol\":1052:1062  State.OPEN */\n          0x01\n            /* \"contracts/Produce.sol\":1044:1049  state */\n          0x08\n          0x00\n            /* \"contracts/Produce.sol\":1044:1062  state = State.OPEN */\n          0x0100\n          exp\n          dup2\n          sload\n          dup2\n          0xff\n          mul\n          not\n          and\n          swap1\n          dup4\n          0x02\n          dup2\n          gt\n          iszero\n          tag_82\n          jumpi\n          tag_83\n          tag_75\n          jump\t// in\n        tag_83:\n        tag_82:\n          mul\n          or\n          swap1\n          sstore\n          pop\n            /* \"contracts/Produce.sol\":553:1069  function initilize(... */\n          pop\n          pop\n          pop\n          pop\n          pop\n          jump\t// out\n            /* \"contracts/Produce.sol\":331:351  uint256 public price */\n        tag_43:\n          sload(0x06)\n          dup2\n          jump\t// out\n            /* \"contracts/Produce.sol\":1615:1850  function takeOrder() external onlyOwner returns (address order) {... */\n        tag_47:\n            /* \"contracts/Produce.sol\":1664:1677  address order */\n          0x00\n            /* \"@openzeppelin/contracts/access/Ownable.sol\":1094:1107  _checkOwner() */\n          tag_85\n            /* \"@openzeppelin/contracts/access/Ownable.sol\":1094:1105  _checkOwner */\n          tag_67\n            /* \"@openzeppelin/contracts/access/Ownable.sol\":1094:1107  _checkOwner() */\n          jump\t// in\n        tag_85:\n            /* \"contracts/Produce.sol\":1713:1714  0 */\n          0x00\n            /* \"contracts/Produce.sol\":1697:1703  orders */\n          0x03\n            /* \"contracts/Produce.sol\":1697:1710  orders.length */\n          dup1\n          sload\n          swap1\n          pop\n            /* \"contracts/Produce.sol\":1697:1714  orders.length > 0 */\n          gt\n            /* \"contracts/Produce.sol\":1689:1736  require(orders.length > 0, \"No orders to take\") */\n          tag_87\n          jumpi\n          mload(0x40)\n          0x08c379a000000000000000000000000000000000000000000000000000000000\n          dup2\n          mstore\n          0x04\n          add\n          tag_88\n          swap1\n          tag_89\n          jump\t// in\n        tag_88:\n          mload(0x40)\n          dup1\n          swap2\n          sub\n          swap1\n          revert\n        tag_87:\n            /* \"contracts/Produce.sol\":1746:1765  address orderToTake */\n          0x00\n            /* \"contracts/Produce.sol\":1768:1774  orders */\n          0x03\n            /* \"contracts/Produce.sol\":1791:1792  1 */\n          0x01\n            /* \"contracts/Produce.sol\":1775:1781  orders */\n          0x03\n            /* \"contracts/Produce.sol\":1775:1788  orders.length */\n          dup1\n          sload\n          swap1\n          pop\n            /* \"contracts/Produce.sol\":1775:1792  orders.length - 1 */\n          tag_90\n          swap2\n          swap1\n          tag_91\n          jump\t// in\n        tag_90:\n            /* \"contracts/Produce.sol\":1768:1793  orders[orders.length - 1] */\n          dup2\n          sload\n          dup2\n          lt\n          tag_92\n          jumpi\n          tag_93\n          tag_94\n          jump\t// in\n        tag_93:\n        tag_92:\n          swap1\n          0x00\n          mstore\n          keccak256(0x00, 0x20)\n          add\n          0x00\n          swap1\n          sload\n          swap1\n          0x0100\n          exp\n          swap1\n          div\n          0xffffffffffffffffffffffffffffffffffffffff\n          and\n            /* \"contracts/Produce.sol\":1746:1793  address orderToTake = orders[orders.length - 1] */\n          swap1\n          pop\n            /* \"contracts/Produce.sol\":1803:1809  orders */\n          0x03\n            /* \"contracts/Produce.sol\":1803:1815  orders.pop() */\n          dup1\n          sload\n          dup1\n          tag_96\n          jumpi\n          tag_97\n          tag_98\n          jump\t// in\n        tag_97:\n        tag_96:\n          0x01\n          swap1\n          sub\n          dup2\n          dup2\n          swap1\n          0x00\n          mstore\n          keccak256(0x00, 0x20)\n          add\n          exp(0x0100, 0x00)\n          dup2\n          sload\n          swap1\n          0xffffffffffffffffffffffffffffffffffffffff\n          mul\n          not\n          and\n          swap1\n          sstore\n          swap1\n          sstore\n            /* \"contracts/Produce.sol\":1832:1843  orderToTake */\n          dup1\n            /* \"contracts/Produce.sol\":1825:1843  return orderToTake */\n          swap2\n          pop\n          pop\n            /* \"contracts/Produce.sol\":1615:1850  function takeOrder() external onlyOwner returns (address order) {... */\n          swap1\n          jump\t// out\n            /* \"contracts/Produce.sol\":173:194  address public farmer */\n        tag_51:\n          0x01\n          0x00\n          swap1\n          sload\n          swap1\n          0x0100\n          exp\n          swap1\n          div\n          0xffffffffffffffffffffffffffffffffffffffff\n          and\n          dup2\n          jump\t// out\n            /* \"@openzeppelin/contracts/access/Ownable.sol\":2081:2279  function transferOwnership(address newOwner) public virtual onlyOwner {... */\n        tag_57:\n            /* \"@openzeppelin/contracts/access/Ownable.sol\":1094:1107  _checkOwner() */\n          tag_101\n            /* \"@openzeppelin/contracts/access/Ownable.sol\":1094:1105  _checkOwner */\n          tag_67\n            /* \"@openzeppelin/contracts/access/Ownable.sol\":1094:1107  _checkOwner() */\n          jump\t// in\n        tag_101:\n            /* \"@openzeppelin/contracts/access/Ownable.sol\":2189:2190  0 */\n          0x00\n            /* \"@openzeppelin/contracts/access/Ownable.sol\":2169:2191  newOwner != address(0) */\n          0xffffffffffffffffffffffffffffffffffffffff\n          and\n            /* \"@openzeppelin/contracts/access/Ownable.sol\":2169:2177  newOwner */\n          dup2\n            /* \"@openzeppelin/contracts/access/Ownable.sol\":2169:2191  newOwner != address(0) */\n          0xffffffffffffffffffffffffffffffffffffffff\n          and\n          sub\n            /* \"@openzeppelin/contracts/access/Ownable.sol\":2161:2234  require(newOwner != address(0), \"Ownable: new owner is the zero address\") */\n          tag_103\n          jumpi\n          mload(0x40)\n          0x08c379a000000000000000000000000000000000000000000000000000000000\n          dup2\n          mstore\n          0x04\n          add\n          tag_104\n          swap1\n          tag_105\n          jump\t// in\n        tag_104:\n          mload(0x40)\n          dup1\n          swap2\n          sub\n          swap1\n          revert\n        tag_103:\n            /* \"@openzeppelin/contracts/access/Ownable.sol\":2244:2272  _transferOwnership(newOwner) */\n          tag_106\n            /* \"@openzeppelin/contracts/access/Ownable.sol\":2263:2271  newOwner */\n          dup2\n            /* \"@openzeppelin/contracts/access/Ownable.sol\":2244:2262  _transferOwnership */\n          tag_70\n            /* \"@openzeppelin/contracts/access/Ownable.sol\":2244:2272  _transferOwnership(newOwner) */\n          jump\t// in\n        tag_106:\n            /* \"@openzeppelin/contracts/access/Ownable.sol\":2081:2279  function transferOwnership(address newOwner) public virtual onlyOwner {... */\n          pop\n          jump\t// out\n            /* \"contracts/Produce.sol\":1122:1551  function placeOrder() external payable {... */\n        tag_59:\n            /* \"contracts/Produce.sol\":1206:1213  owner() */\n          tag_108\n            /* \"contracts/Produce.sol\":1206:1211  owner */\n          tag_34\n            /* \"contracts/Produce.sol\":1206:1213  owner() */\n          jump\t// in\n        tag_108:\n            /* \"contracts/Produce.sol\":1192:1213  msg.sender != owner() */\n          0xffffffffffffffffffffffffffffffffffffffff\n          and\n            /* \"contracts/Produce.sol\":1192:1202  msg.sender */\n          caller\n            /* \"contracts/Produce.sol\":1192:1213  msg.sender != owner() */\n          0xffffffffffffffffffffffffffffffffffffffff\n          and\n          sub\n            /* \"contracts/Produce.sol\":1171:1286  require(... */\n          tag_109\n          jumpi\n          mload(0x40)\n          0x08c379a000000000000000000000000000000000000000000000000000000000\n          dup2\n          mstore\n          0x04\n          add\n          tag_110\n          swap1\n          tag_111\n          jump\t// in\n        tag_110:\n          mload(0x40)\n          dup1\n          swap2\n          sub\n          swap1\n          revert\n        tag_109:\n            /* \"contracts/Produce.sol\":1342:1347  price */\n          sload(0x06)\n            /* \"contracts/Produce.sol\":1330:1339  orderSize */\n          sload(0x07)\n            /* \"contracts/Produce.sol\":1330:1347  orderSize * price */\n          tag_112\n          swap2\n          swap1\n          tag_113\n          jump\t// in\n        tag_112:\n            /* \"contracts/Produce.sol\":1317:1326  msg.value */\n          callvalue\n            /* \"contracts/Produce.sol\":1317:1347  msg.value == orderSize * price */\n          eq\n            /* \"contracts/Produce.sol\":1296:1412  require(... */\n          tag_114\n          jumpi\n          mload(0x40)\n          0x08c379a000000000000000000000000000000000000000000000000000000000\n          dup2\n          mstore\n          0x04\n          add\n          tag_115\n          swap1\n          tag_116\n          jump\t// in\n        tag_115:\n          mload(0x40)\n          dup1\n          swap2\n          sub\n          swap1\n          revert\n        tag_114:\n            /* \"contracts/Produce.sol\":1446:1466  limitOnPendingOrders */\n          sload(0x04)\n            /* \"contracts/Produce.sol\":1430:1436  orders */\n          0x03\n            /* \"contracts/Produce.sol\":1430:1443  orders.length */\n          dup1\n          sload\n          swap1\n          pop\n            /* \"contracts/Produce.sol\":1430:1466  orders.length < limitOnPendingOrders */\n          lt\n            /* \"contracts/Produce.sol\":1422:1511  require(orders.length < limitOnPendingOrders, \"too many orders pending for this produce\") */\n          tag_117\n          jumpi\n          mload(0x40)\n          0x08c379a000000000000000000000000000000000000000000000000000000000\n          dup2\n          mstore\n          0x04\n          add\n          tag_118\n          swap1\n          tag_119\n          jump\t// in\n        tag_118:\n          mload(0x40)\n          dup1\n          swap2\n          sub\n          swap1\n          revert\n        tag_117:\n            /* \"contracts/Produce.sol\":1521:1527  orders */\n          0x03\n            /* \"contracts/Produce.sol\":1533:1543  msg.sender */\n          caller\n            /* \"contracts/Produce.sol\":1521:1544  orders.push(msg.sender) */\n          swap1\n          dup1\n          0x01\n          dup2\n          sload\n          add\n          dup1\n          dup3\n          sstore\n          dup1\n          swap2\n          pop\n          pop\n          0x01\n          swap1\n          sub\n          swap1\n          0x00\n          mstore\n          keccak256(0x00, 0x20)\n          add\n          0x00\n          swap1\n          swap2\n          swap1\n          swap2\n          swap1\n          swap2\n          0x0100\n          exp\n          dup2\n          sload\n          dup2\n          0xffffffffffffffffffffffffffffffffffffffff\n          mul\n          not\n          and\n          swap1\n          dup4\n          0xffffffffffffffffffffffffffffffffffffffff\n          and\n          mul\n          or\n          swap1\n          sstore\n          pop\n            /* \"contracts/Produce.sol\":1122:1551  function placeOrder() external payable {... */\n          jump\t// out\n            /* \"contracts/Produce.sol\":299:325  bytes32 public produceHash */\n        tag_62:\n          sload(0x05)\n          dup2\n          jump\t// out\n            /* \"@openzeppelin/contracts/access/Ownable.sol\":1359:1489  function _checkOwner() internal view virtual {... */\n        tag_67:\n            /* \"@openzeppelin/contracts/access/Ownable.sol\":1433:1445  _msgSender() */\n          tag_122\n            /* \"@openzeppelin/contracts/access/Ownable.sol\":1433:1443  _msgSender */\n          tag_123\n            /* \"@openzeppelin/contracts/access/Ownable.sol\":1433:1445  _msgSender() */\n          jump\t// in\n        tag_122:\n            /* \"@openzeppelin/contracts/access/Ownable.sol\":1422:1445  owner() == _msgSender() */\n          0xffffffffffffffffffffffffffffffffffffffff\n          and\n            /* \"@openzeppelin/contracts/access/Ownable.sol\":1422:1429  owner() */\n          tag_124\n            /* \"@openzeppelin/contracts/access/Ownable.sol\":1422:1427  owner */\n          tag_34\n            /* \"@openzeppelin/contracts/access/Ownable.sol\":1422:1429  owner() */\n          jump\t// in\n        tag_124:\n            /* \"@openzeppelin/contracts/access/Ownable.sol\":1422:1445  owner() == _msgSender() */\n          0xffffffffffffffffffffffffffffffffffffffff\n          and\n          eq\n            /* \"@openzeppelin/contracts/access/Ownable.sol\":1414:1482  require(owner() == _msgSender(), \"Ownable: caller is not the owner\") */\n          tag_125\n          jumpi\n          mload(0x40)\n          0x08c379a000000000000000000000000000000000000000000000000000000000\n          dup2\n          mstore\n          0x04\n          add\n          tag_126\n          swap1\n          tag_127\n          jump\t// in\n        tag_126:\n          mload(0x40)\n          dup1\n          swap2\n          sub\n          swap1\n          revert\n        tag_125:\n            /* \"@openzeppelin/contracts/access/Ownable.sol\":1359:1489  function _checkOwner() internal view virtual {... */\n          jump\t// out\n            /* \"@openzeppelin/contracts/access/Ownable.sol\":2433:2620  function _transferOwnership(address newOwner) internal virtual {... */\n        tag_70:\n            /* \"@openzeppelin/contracts/access/Ownable.sol\":2506:2522  address oldOwner */\n          0x00\n            /* \"@openzeppelin/contracts/access/Ownable.sol\":2525:2531  _owner */\n          dup1\n          0x00\n          swap1\n          sload\n          swap1\n          0x0100\n          exp\n          swap1\n          div\n          0xffffffffffffffffffffffffffffffffffffffff\n          and\n            /* \"@openzeppelin/contracts/access/Ownable.sol\":2506:2531  address oldOwner = _owner */\n          swap1\n          pop\n            /* \"@openzeppelin/contracts/access/Ownable.sol\":2550:2558  newOwner */\n          dup2\n            /* \"@openzeppelin/contracts/access/Ownable.sol\":2541:2547  _owner */\n          0x00\n          dup1\n            /* \"@openzeppelin/contracts/access/Ownable.sol\":2541:2558  _owner = newOwner */\n          0x0100\n          exp\n          dup2\n          sload\n          dup2\n          0xffffffffffffffffffffffffffffffffffffffff\n          mul\n          not\n          and\n          swap1\n          dup4\n          0xffffffffffffffffffffffffffffffffffffffff\n          and\n          mul\n          or\n          swap1\n          sstore\n          pop\n            /* \"@openzeppelin/contracts/access/Ownable.sol\":2604:2612  newOwner */\n          dup2\n            /* \"@openzeppelin/contracts/access/Ownable.sol\":2573:2613  OwnershipTransferred(oldOwner, newOwner) */\n          0xffffffffffffffffffffffffffffffffffffffff\n          and\n            /* \"@openzeppelin/contracts/access/Ownable.sol\":2594:2602  oldOwner */\n          dup2\n            /* \"@openzeppelin/contracts/access/Ownable.sol\":2573:2613  OwnershipTransferred(oldOwner, newOwner) */\n          0xffffffffffffffffffffffffffffffffffffffff\n          and\n          0x8be0079c531659141344cd1fd0a4f28419497f9722a3daafe3b4186f6b6457e0\n          mload(0x40)\n          mload(0x40)\n          dup1\n          swap2\n          sub\n          swap1\n          log3\n            /* \"@openzeppelin/contracts/access/Ownable.sol\":2496:2620  {... */\n          pop\n            /* \"@openzeppelin/contracts/access/Ownable.sol\":2433:2620  function _transferOwnership(address newOwner) internal virtual {... */\n          pop\n          jump\t// out\n            /* \"@openzeppelin/contracts/utils/Context.sol\":640:736  function _msgSender() internal view virtual returns (address) {... */\n        tag_123:\n            /* \"@openzeppelin/contracts/utils/Context.sol\":693:700  address */\n          0x00\n            /* \"@openzeppelin/contracts/utils/Context.sol\":719:729  msg.sender */\n          caller\n            /* \"@openzeppelin/contracts/utils/Context.sol\":712:729  return msg.sender */\n          swap1\n          pop\n            /* \"@openzeppelin/contracts/utils/Context.sol\":640:736  function _msgSender() internal view virtual returns (address) {... */\n          swap1\n          jump\t// out\n            /* \"#utility.yul\":7:84   */\n        tag_130:\n            /* \"#utility.yul\":44:51   */\n          0x00\n            /* \"#utility.yul\":73:78   */\n          dup2\n            /* \"#utility.yul\":62:78   */\n          swap1\n          pop\n            /* \"#utility.yul\":7:84   */\n          swap2\n          swap1\n          pop\n          jump\t// out\n            /* \"#utility.yul\":90:208   */\n        tag_131:\n            /* \"#utility.yul\":177:201   */\n          tag_165\n            /* \"#utility.yul\":195:200   */\n          dup2\n            /* \"#utility.yul\":177:201   */\n          tag_130\n          jump\t// in\n        tag_165:\n            /* \"#utility.yul\":172:175   */\n          dup3\n            /* \"#utility.yul\":165:202   */\n          mstore\n            /* \"#utility.yul\":90:208   */\n          pop\n          pop\n          jump\t// out\n            /* \"#utility.yul\":214:436   */\n        tag_19:\n            /* \"#utility.yul\":307:311   */\n          0x00\n            /* \"#utility.yul\":345:347   */\n          0x20\n            /* \"#utility.yul\":334:343   */\n          dup3\n            /* \"#utility.yul\":330:348   */\n          add\n            /* \"#utility.yul\":322:348   */\n          swap1\n          pop\n            /* \"#utility.yul\":358:429   */\n          tag_167\n            /* \"#utility.yul\":426:427   */\n          0x00\n            /* \"#utility.yul\":415:424   */\n          dup4\n            /* \"#utility.yul\":411:428   */\n          add\n            /* \"#utility.yul\":402:408   */\n          dup5\n            /* \"#utility.yul\":358:429   */\n          tag_131\n          jump\t// in\n        tag_167:\n            /* \"#utility.yul\":214:436   */\n          swap3\n          swap2\n          pop\n          pop\n          jump\t// out\n            /* \"#utility.yul\":442:568   */\n        tag_132:\n            /* \"#utility.yul\":479:486   */\n          0x00\n            /* \"#utility.yul\":519:561   */\n          0xffffffffffffffffffffffffffffffffffffffff\n            /* \"#utility.yul\":512:517   */\n          dup3\n            /* \"#utility.yul\":508:562   */\n          and\n            /* \"#utility.yul\":497:562   */\n          swap1\n          pop\n            /* \"#utility.yul\":442:568   */\n          swap2\n          swap1\n          pop\n          jump\t// out\n            /* \"#utility.yul\":574:670   */\n        tag_133:\n            /* \"#utility.yul\":611:618   */\n          0x00\n            /* \"#utility.yul\":640:664   */\n          tag_170\n            /* \"#utility.yul\":658:663   */\n          dup3\n            /* \"#utility.yul\":640:664   */\n          tag_132\n          jump\t// in\n        tag_170:\n            /* \"#utility.yul\":629:664   */\n          swap1\n          pop\n            /* \"#utility.yul\":574:670   */\n          swap2\n          swap1\n          pop\n          jump\t// out\n            /* \"#utility.yul\":676:794   */\n        tag_134:\n            /* \"#utility.yul\":763:787   */\n          tag_172\n            /* \"#utility.yul\":781:786   */\n          dup2\n            /* \"#utility.yul\":763:787   */\n          tag_133\n          jump\t// in\n        tag_172:\n            /* \"#utility.yul\":758:761   */\n          dup3\n            /* \"#utility.yul\":751:788   */\n          mstore\n            /* \"#utility.yul\":676:794   */\n          pop\n          pop\n          jump\t// out\n            /* \"#utility.yul\":800:1022   */\n        tag_31:\n            /* \"#utility.yul\":893:897   */\n          0x00\n            /* \"#utility.yul\":931:933   */\n          0x20\n            /* \"#utility.yul\":920:929   */\n          dup3\n            /* \"#utility.yul\":916:934   */\n          add\n            /* \"#utility.yul\":908:934   */\n          swap1\n          pop\n            /* \"#utility.yul\":944:1015   */\n          tag_174\n            /* \"#utility.yul\":1012:1013   */\n          0x00\n            /* \"#utility.yul\":1001:1010   */\n          dup4\n            /* \"#utility.yul\":997:1014   */\n          add\n            /* \"#utility.yul\":988:994   */\n          dup5\n            /* \"#utility.yul\":944:1015   */\n          tag_134\n          jump\t// in\n        tag_174:\n            /* \"#utility.yul\":800:1022   */\n          swap3\n          swap2\n          pop\n          pop\n          jump\t// out\n            /* \"#utility.yul\":1109:1226   */\n        tag_136:\n            /* \"#utility.yul\":1218:1219   */\n          0x00\n            /* \"#utility.yul\":1215:1216   */\n          dup1\n            /* \"#utility.yul\":1208:1220   */\n          revert\n            /* \"#utility.yul\":1355:1477   */\n        tag_138:\n            /* \"#utility.yul\":1428:1452   */\n          tag_179\n            /* \"#utility.yul\":1446:1451   */\n          dup2\n            /* \"#utility.yul\":1428:1452   */\n          tag_133\n          jump\t// in\n        tag_179:\n            /* \"#utility.yul\":1421:1426   */\n          dup2\n            /* \"#utility.yul\":1418:1453   */\n          eq\n            /* \"#utility.yul\":1408:1471   */\n          tag_180\n          jumpi\n            /* \"#utility.yul\":1467:1468   */\n          0x00\n            /* \"#utility.yul\":1464:1465   */\n          dup1\n            /* \"#utility.yul\":1457:1469   */\n          revert\n            /* \"#utility.yul\":1408:1471   */\n        tag_180:\n            /* \"#utility.yul\":1355:1477   */\n          pop\n          jump\t// out\n            /* \"#utility.yul\":1483:1622   */\n        tag_139:\n            /* \"#utility.yul\":1529:1534   */\n          0x00\n            /* \"#utility.yul\":1567:1573   */\n          dup2\n            /* \"#utility.yul\":1554:1574   */\n          calldataload\n            /* \"#utility.yul\":1545:1574   */\n          swap1\n          pop\n            /* \"#utility.yul\":1583:1616   */\n          tag_182\n            /* \"#utility.yul\":1610:1615   */\n          dup2\n            /* \"#utility.yul\":1583:1616   */\n          tag_138\n          jump\t// in\n        tag_182:\n            /* \"#utility.yul\":1483:1622   */\n          swap3\n          swap2\n          pop\n          pop\n          jump\t// out\n            /* \"#utility.yul\":1628:1705   */\n        tag_140:\n            /* \"#utility.yul\":1665:1672   */\n          0x00\n            /* \"#utility.yul\":1694:1699   */\n          dup2\n            /* \"#utility.yul\":1683:1699   */\n          swap1\n          pop\n            /* \"#utility.yul\":1628:1705   */\n          swap2\n          swap1\n          pop\n          jump\t// out\n            /* \"#utility.yul\":1711:1833   */\n        tag_141:\n            /* \"#utility.yul\":1784:1808   */\n          tag_185\n            /* \"#utility.yul\":1802:1807   */\n          dup2\n            /* \"#utility.yul\":1784:1808   */\n          tag_140\n          jump\t// in\n        tag_185:\n            /* \"#utility.yul\":1777:1782   */\n          dup2\n            /* \"#utility.yul\":1774:1809   */\n          eq\n            /* \"#utility.yul\":1764:1827   */\n          tag_186\n          jumpi\n            /* \"#utility.yul\":1823:1824   */\n          0x00\n            /* \"#utility.yul\":1820:1821   */\n          dup1\n            /* \"#utility.yul\":1813:1825   */\n          revert\n            /* \"#utility.yul\":1764:1827   */\n        tag_186:\n            /* \"#utility.yul\":1711:1833   */\n          pop\n          jump\t// out\n            /* \"#utility.yul\":1839:1978   */\n        tag_142:\n            /* \"#utility.yul\":1885:1890   */\n          0x00\n            /* \"#utility.yul\":1923:1929   */\n          dup2\n            /* \"#utility.yul\":1910:1930   */\n          calldataload\n            /* \"#utility.yul\":1901:1930   */\n          swap1\n          pop\n            /* \"#utility.yul\":1939:1972   */\n          tag_188\n            /* \"#utility.yul\":1966:1971   */\n          dup2\n            /* \"#utility.yul\":1939:1972   */\n          tag_141\n          jump\t// in\n        tag_188:\n            /* \"#utility.yul\":1839:1978   */\n          swap3\n          swap2\n          pop\n          pop\n          jump\t// out\n            /* \"#utility.yul\":1984:2106   */\n        tag_143:\n            /* \"#utility.yul\":2057:2081   */\n          tag_190\n            /* \"#utility.yul\":2075:2080   */\n          dup2\n            /* \"#utility.yul\":2057:2081   */\n          tag_130\n          jump\t// in\n        tag_190:\n            /* \"#utility.yul\":2050:2055   */\n          dup2\n            /* \"#utility.yul\":2047:2082   */\n          eq\n            /* \"#utility.yul\":2037:2100   */\n          tag_191\n          jumpi\n            /* \"#utility.yul\":2096:2097   */\n          0x00\n            /* \"#utility.yul\":2093:2094   */\n          dup1\n            /* \"#utility.yul\":2086:2098   */\n          revert\n            /* \"#utility.yul\":2037:2100   */\n        tag_191:\n            /* \"#utility.yul\":1984:2106   */\n          pop\n          jump\t// out\n            /* \"#utility.yul\":2112:2251   */\n        tag_144:\n            /* \"#utility.yul\":2158:2163   */\n          0x00\n            /* \"#utility.yul\":2196:2202   */\n          dup2\n            /* \"#utility.yul\":2183:2203   */\n          calldataload\n            /* \"#utility.yul\":2174:2203   */\n          swap1\n          pop\n            /* \"#utility.yul\":2212:2245   */\n          tag_193\n            /* \"#utility.yul\":2239:2244   */\n          dup2\n            /* \"#utility.yul\":2212:2245   */\n          tag_143\n          jump\t// in\n        tag_193:\n            /* \"#utility.yul\":2112:2251   */\n          swap3\n          swap2\n          pop\n          pop\n          jump\t// out\n            /* \"#utility.yul\":2257:3168   */\n        tag_39:\n            /* \"#utility.yul\":2352:2358   */\n          0x00\n            /* \"#utility.yul\":2360:2366   */\n          dup1\n            /* \"#utility.yul\":2368:2374   */\n          0x00\n            /* \"#utility.yul\":2376:2382   */\n          dup1\n            /* \"#utility.yul\":2384:2390   */\n          0x00\n            /* \"#utility.yul\":2433:2436   */\n          0xa0\n            /* \"#utility.yul\":2421:2430   */\n          dup7\n            /* \"#utility.yul\":2412:2419   */\n          dup9\n            /* \"#utility.yul\":2408:2431   */\n          sub\n            /* \"#utility.yul\":2404:2437   */\n          slt\n            /* \"#utility.yul\":2401:2521   */\n          iszero\n          tag_195\n          jumpi\n            /* \"#utility.yul\":2440:2519   */\n          tag_196\n          tag_136\n          jump\t// in\n        tag_196:\n            /* \"#utility.yul\":2401:2521   */\n        tag_195:\n            /* \"#utility.yul\":2560:2561   */\n          0x00\n            /* \"#utility.yul\":2585:2638   */\n          tag_197\n            /* \"#utility.yul\":2630:2637   */\n          dup9\n            /* \"#utility.yul\":2621:2627   */\n          dup3\n            /* \"#utility.yul\":2610:2619   */\n          dup10\n            /* \"#utility.yul\":2606:2628   */\n          add\n            /* \"#utility.yul\":2585:2638   */\n          tag_139\n          jump\t// in\n        tag_197:\n            /* \"#utility.yul\":2575:2638   */\n          swap6\n          pop\n            /* \"#utility.yul\":2531:2648   */\n          pop\n            /* \"#utility.yul\":2687:2689   */\n          0x20\n            /* \"#utility.yul\":2713:2766   */\n          tag_198\n            /* \"#utility.yul\":2758:2765   */\n          dup9\n            /* \"#utility.yul\":2749:2755   */\n          dup3\n            /* \"#utility.yul\":2738:2747   */\n          dup10\n            /* \"#utility.yul\":2734:2756   */\n          add\n            /* \"#utility.yul\":2713:2766   */\n          tag_142\n          jump\t// in\n        tag_198:\n            /* \"#utility.yul\":2703:2766   */\n          swap5\n          pop\n            /* \"#utility.yul\":2658:2776   */\n          pop\n            /* \"#utility.yul\":2815:2817   */\n          0x40\n            /* \"#utility.yul\":2841:2894   */\n          tag_199\n            /* \"#utility.yul\":2886:2893   */\n          dup9\n            /* \"#utility.yul\":2877:2883   */\n          dup3\n            /* \"#utility.yul\":2866:2875   */\n          dup10\n            /* \"#utility.yul\":2862:2884   */\n          add\n            /* \"#utility.yul\":2841:2894   */\n          tag_144\n          jump\t// in\n        tag_199:\n            /* \"#utility.yul\":2831:2894   */\n          swap4\n          pop\n            /* \"#utility.yul\":2786:2904   */\n          pop\n            /* \"#utility.yul\":2943:2945   */\n          0x60\n            /* \"#utility.yul\":2969:3022   */\n          tag_200\n            /* \"#utility.yul\":3014:3021   */\n          dup9\n            /* \"#utility.yul\":3005:3011   */\n          dup3\n            /* \"#utility.yul\":2994:3003   */\n          dup10\n            /* \"#utility.yul\":2990:3012   */\n          add\n            /* \"#utility.yul\":2969:3022   */\n          tag_144\n          jump\t// in\n        tag_200:\n            /* \"#utility.yul\":2959:3022   */\n          swap3\n          pop\n            /* \"#utility.yul\":2914:3032   */\n          pop\n            /* \"#utility.yul\":3071:3074   */\n          0x80\n            /* \"#utility.yul\":3098:3151   */\n          tag_201\n            /* \"#utility.yul\":3143:3150   */\n          dup9\n            /* \"#utility.yul\":3134:3140   */\n          dup3\n            /* \"#utility.yul\":3123:3132   */\n          dup10\n            /* \"#utility.yul\":3119:3141   */\n          add\n            /* \"#utility.yul\":3098:3151   */\n          tag_144\n          jump\t// in\n        tag_201:\n            /* \"#utility.yul\":3088:3151   */\n          swap2\n          pop\n            /* \"#utility.yul\":3042:3161   */\n          pop\n            /* \"#utility.yul\":2257:3168   */\n          swap3\n          swap6\n          pop\n          swap3\n          swap6\n          swap1\n          swap4\n          pop\n          jump\t// out\n            /* \"#utility.yul\":3174:3503   */\n        tag_56:\n            /* \"#utility.yul\":3233:3239   */\n          0x00\n            /* \"#utility.yul\":3282:3284   */\n          0x20\n            /* \"#utility.yul\":3270:3279   */\n          dup3\n            /* \"#utility.yul\":3261:3268   */\n          dup5\n            /* \"#utility.yul\":3257:3280   */\n          sub\n            /* \"#utility.yul\":3253:3285   */\n          slt\n            /* \"#utility.yul\":3250:3369   */\n          iszero\n          tag_203\n          jumpi\n            /* \"#utility.yul\":3288:3367   */\n          tag_204\n          tag_136\n          jump\t// in\n        tag_204:\n            /* \"#utility.yul\":3250:3369   */\n        tag_203:\n            /* \"#utility.yul\":3408:3409   */\n          0x00\n            /* \"#utility.yul\":3433:3486   */\n          tag_205\n            /* \"#utility.yul\":3478:3485   */\n          dup5\n            /* \"#utility.yul\":3469:3475   */\n          dup3\n            /* \"#utility.yul\":3458:3467   */\n          dup6\n            /* \"#utility.yul\":3454:3476   */\n          add\n            /* \"#utility.yul\":3433:3486   */\n          tag_139\n          jump\t// in\n        tag_205:\n            /* \"#utility.yul\":3423:3486   */\n          swap2\n          pop\n            /* \"#utility.yul\":3379:3496   */\n          pop\n            /* \"#utility.yul\":3174:3503   */\n          swap3\n          swap2\n          pop\n          pop\n          jump\t// out\n            /* \"#utility.yul\":3509:3627   */\n        tag_145:\n            /* \"#utility.yul\":3596:3620   */\n          tag_207\n            /* \"#utility.yul\":3614:3619   */\n          dup2\n            /* \"#utility.yul\":3596:3620   */\n          tag_140\n          jump\t// in\n        tag_207:\n            /* \"#utility.yul\":3591:3594   */\n          dup3\n            /* \"#utility.yul\":3584:3621   */\n          mstore\n            /* \"#utility.yul\":3509:3627   */\n          pop\n          pop\n          jump\t// out\n            /* \"#utility.yul\":3633:3855   */\n        tag_64:\n            /* \"#utility.yul\":3726:3730   */\n          0x00\n            /* \"#utility.yul\":3764:3766   */\n          0x20\n            /* \"#utility.yul\":3753:3762   */\n          dup3\n            /* \"#utility.yul\":3749:3767   */\n          add\n            /* \"#utility.yul\":3741:3767   */\n          swap1\n          pop\n            /* \"#utility.yul\":3777:3848   */\n          tag_209\n            /* \"#utility.yul\":3845:3846   */\n          0x00\n            /* \"#utility.yul\":3834:3843   */\n          dup4\n            /* \"#utility.yul\":3830:3847   */\n          add\n            /* \"#utility.yul\":3821:3827   */\n          dup5\n            /* \"#utility.yul\":3777:3848   */\n          tag_145\n          jump\t// in\n        tag_209:\n            /* \"#utility.yul\":3633:3855   */\n          swap3\n          swap2\n          pop\n          pop\n          jump\t// out\n            /* \"#utility.yul\":3861:4041   */\n        tag_75:\n            /* \"#utility.yul\":3909:3986   */\n          0x4e487b7100000000000000000000000000000000000000000000000000000000\n            /* \"#utility.yul\":3906:3907   */\n          0x00\n            /* \"#utility.yul\":3899:3987   */\n          mstore\n            /* \"#utility.yul\":4006:4010   */\n          0x21\n            /* \"#utility.yul\":4003:4004   */\n          0x04\n            /* \"#utility.yul\":3996:4011   */\n          mstore\n            /* \"#utility.yul\":4030:4034   */\n          0x24\n            /* \"#utility.yul\":4027:4028   */\n          0x00\n            /* \"#utility.yul\":4020:4035   */\n          revert\n            /* \"#utility.yul\":4047:4216   */\n        tag_146:\n            /* \"#utility.yul\":4131:4142   */\n          0x00\n            /* \"#utility.yul\":4165:4171   */\n          dup3\n            /* \"#utility.yul\":4160:4163   */\n          dup3\n            /* \"#utility.yul\":4153:4172   */\n          mstore\n            /* \"#utility.yul\":4205:4209   */\n          0x20\n            /* \"#utility.yul\":4200:4203   */\n          dup3\n            /* \"#utility.yul\":4196:4210   */\n          add\n            /* \"#utility.yul\":4181:4210   */\n          swap1\n          pop\n            /* \"#utility.yul\":4047:4216   */\n          swap3\n          swap2\n          pop\n          pop\n          jump\t// out\n            /* \"#utility.yul\":4222:4449   */\n        tag_147:\n            /* \"#utility.yul\":4362:4396   */\n          0x546869732070726f647563652068617320616c7265616479206265656e20696e\n            /* \"#utility.yul\":4358:4359   */\n          0x00\n            /* \"#utility.yul\":4350:4356   */\n          dup3\n            /* \"#utility.yul\":4346:4360   */\n          add\n            /* \"#utility.yul\":4339:4397   */\n          mstore\n            /* \"#utility.yul\":4431:4441   */\n          0x6974696c697a6564000000000000000000000000000000000000000000000000\n            /* \"#utility.yul\":4426:4428   */\n          0x20\n            /* \"#utility.yul\":4418:4424   */\n          dup3\n            /* \"#utility.yul\":4414:4429   */\n          add\n            /* \"#utility.yul\":4407:4442   */\n          mstore\n            /* \"#utility.yul\":4222:4449   */\n          pop\n          jump\t// out\n            /* \"#utility.yul\":4455:4821   */\n        tag_148:\n            /* \"#utility.yul\":4597:4600   */\n          0x00\n            /* \"#utility.yul\":4618:4685   */\n          tag_214\n            /* \"#utility.yul\":4682:4684   */\n          0x28\n            /* \"#utility.yul\":4677:4680   */\n          dup4\n            /* \"#utility.yul\":4618:4685   */\n          tag_146\n          jump\t// in\n        tag_214:\n            /* \"#utility.yul\":4611:4685   */\n          swap2\n          pop\n            /* \"#utility.yul\":4694:4787   */\n          tag_215\n            /* \"#utility.yul\":4783:4786   */\n          dup3\n            /* \"#utility.yul\":4694:4787   */\n          tag_147\n          jump\t// in\n        tag_215:\n            /* \"#utility.yul\":4812:4814   */\n          0x40\n            /* \"#utility.yul\":4807:4810   */\n          dup3\n            /* \"#utility.yul\":4803:4815   */\n          add\n            /* \"#utility.yul\":4796:4815   */\n          swap1\n          pop\n            /* \"#utility.yul\":4455:4821   */\n          swap2\n          swap1\n          pop\n          jump\t// out\n            /* \"#utility.yul\":4827:5246   */\n        tag_80:\n            /* \"#utility.yul\":4993:4997   */\n          0x00\n            /* \"#utility.yul\":5031:5033   */\n          0x20\n            /* \"#utility.yul\":5020:5029   */\n          dup3\n            /* \"#utility.yul\":5016:5034   */\n          add\n            /* \"#utility.yul\":5008:5034   */\n          swap1\n          pop\n            /* \"#utility.yul\":5080:5089   */\n          dup2\n            /* \"#utility.yul\":5074:5078   */\n          dup2\n            /* \"#utility.yul\":5070:5090   */\n          sub\n            /* \"#utility.yul\":5066:5067   */\n          0x00\n            /* \"#utility.yul\":5055:5064   */\n          dup4\n            /* \"#utility.yul\":5051:5068   */\n          add\n            /* \"#utility.yul\":5044:5091   */\n          mstore\n            /* \"#utility.yul\":5108:5239   */\n          tag_217\n            /* \"#utility.yul\":5234:5238   */\n          dup2\n            /* \"#utility.yul\":5108:5239   */\n          tag_148\n          jump\t// in\n        tag_217:\n            /* \"#utility.yul\":5100:5239   */\n          swap1\n          pop\n            /* \"#utility.yul\":4827:5246   */\n          swap2\n          swap1\n          pop\n          jump\t// out\n            /* \"#utility.yul\":5252:5419   */\n        tag_149:\n            /* \"#utility.yul\":5392:5411   */\n          0x4e6f206f726465727320746f2074616b65000000000000000000000000000000\n            /* \"#utility.yul\":5388:5389   */\n          0x00\n            /* \"#utility.yul\":5380:5386   */\n          dup3\n            /* \"#utility.yul\":5376:5390   */\n          add\n            /* \"#utility.yul\":5369:5412   */\n          mstore\n            /* \"#utility.yul\":5252:5419   */\n          pop\n          jump\t// out\n            /* \"#utility.yul\":5425:5791   */\n        tag_150:\n            /* \"#utility.yul\":5567:5570   */\n          0x00\n            /* \"#utility.yul\":5588:5655   */\n          tag_220\n            /* \"#utility.yul\":5652:5654   */\n          0x11\n            /* \"#utility.yul\":5647:5650   */\n          dup4\n            /* \"#utility.yul\":5588:5655   */\n          tag_146\n          jump\t// in\n        tag_220:\n            /* \"#utility.yul\":5581:5655   */\n          swap2\n          pop\n            /* \"#utility.yul\":5664:5757   */\n          tag_221\n            /* \"#utility.yul\":5753:5756   */\n          dup3\n            /* \"#utility.yul\":5664:5757   */\n          tag_149\n          jump\t// in\n        tag_221:\n            /* \"#utility.yul\":5782:5784   */\n          0x20\n            /* \"#utility.yul\":5777:5780   */\n          dup3\n            /* \"#utility.yul\":5773:5785   */\n          add\n            /* \"#utility.yul\":5766:5785   */\n          swap1\n          pop\n            /* \"#utility.yul\":5425:5791   */\n          swap2\n          swap1\n          pop\n          jump\t// out\n            /* \"#utility.yul\":5797:6216   */\n        tag_89:\n            /* \"#utility.yul\":5963:5967   */\n          0x00\n            /* \"#utility.yul\":6001:6003   */\n          0x20\n            /* \"#utility.yul\":5990:5999   */\n          dup3\n            /* \"#utility.yul\":5986:6004   */\n          add\n            /* \"#utility.yul\":5978:6004   */\n          swap1\n          pop\n            /* \"#utility.yul\":6050:6059   */\n          dup2\n            /* \"#utility.yul\":6044:6048   */\n          dup2\n            /* \"#utility.yul\":6040:6060   */\n          sub\n            /* \"#utility.yul\":6036:6037   */\n          0x00\n            /* \"#utility.yul\":6025:6034   */\n          dup4\n            /* \"#utility.yul\":6021:6038   */\n          add\n            /* \"#utility.yul\":6014:6061   */\n          mstore\n            /* \"#utility.yul\":6078:6209   */\n          tag_223\n            /* \"#utility.yul\":6204:6208   */\n          dup2\n            /* \"#utility.yul\":6078:6209   */\n          tag_150\n          jump\t// in\n        tag_223:\n            /* \"#utility.yul\":6070:6209   */\n          swap1\n          pop\n            /* \"#utility.yul\":5797:6216   */\n          swap2\n          swap1\n          pop\n          jump\t// out\n            /* \"#utility.yul\":6222:6402   */\n        tag_151:\n            /* \"#utility.yul\":6270:6347   */\n          0x4e487b7100000000000000000000000000000000000000000000000000000000\n            /* \"#utility.yul\":6267:6268   */\n          0x00\n            /* \"#utility.yul\":6260:6348   */\n          mstore\n            /* \"#utility.yul\":6367:6371   */\n          0x11\n            /* \"#utility.yul\":6364:6365   */\n          0x04\n            /* \"#utility.yul\":6357:6372   */\n          mstore\n            /* \"#utility.yul\":6391:6395   */\n          0x24\n            /* \"#utility.yul\":6388:6389   */\n          0x00\n            /* \"#utility.yul\":6381:6396   */\n          revert\n            /* \"#utility.yul\":6408:6602   */\n        tag_91:\n            /* \"#utility.yul\":6448:6452   */\n          0x00\n            /* \"#utility.yul\":6468:6488   */\n          tag_226\n            /* \"#utility.yul\":6486:6487   */\n          dup3\n            /* \"#utility.yul\":6468:6488   */\n          tag_130\n          jump\t// in\n        tag_226:\n            /* \"#utility.yul\":6463:6488   */\n          swap2\n          pop\n            /* \"#utility.yul\":6502:6522   */\n          tag_227\n            /* \"#utility.yul\":6520:6521   */\n          dup4\n            /* \"#utility.yul\":6502:6522   */\n          tag_130\n          jump\t// in\n        tag_227:\n            /* \"#utility.yul\":6497:6522   */\n          swap3\n          pop\n            /* \"#utility.yul\":6546:6547   */\n          dup3\n            /* \"#utility.yul\":6543:6544   */\n          dup3\n            /* \"#utility.yul\":6539:6548   */\n          sub\n            /* \"#utility.yul\":6531:6548   */\n          swap1\n          pop\n            /* \"#utility.yul\":6570:6571   */\n          dup2\n            /* \"#utility.yul\":6564:6568   */\n          dup2\n            /* \"#utility.yul\":6561:6572   */\n          gt\n            /* \"#utility.yul\":6558:6595   */\n          iszero\n          tag_228\n          jumpi\n            /* \"#utility.yul\":6575:6593   */\n          tag_229\n          tag_151\n          jump\t// in\n        tag_229:\n            /* \"#utility.yul\":6558:6595   */\n        tag_228:\n            /* \"#utility.yul\":6408:6602   */\n          swap3\n          swap2\n          pop\n          pop\n          jump\t// out\n            /* \"#utility.yul\":6608:6788   */\n        tag_94:\n            /* \"#utility.yul\":6656:6733   */\n          0x4e487b7100000000000000000000000000000000000000000000000000000000\n            /* \"#utility.yul\":6653:6654   */\n          0x00\n            /* \"#utility.yul\":6646:6734   */\n          mstore\n            /* \"#utility.yul\":6753:6757   */\n          0x32\n            /* \"#utility.yul\":6750:6751   */\n          0x04\n            /* \"#utility.yul\":6743:6758   */\n          mstore\n            /* \"#utility.yul\":6777:6781   */\n          0x24\n            /* \"#utility.yul\":6774:6775   */\n          0x00\n            /* \"#utility.yul\":6767:6782   */\n          revert\n            /* \"#utility.yul\":6794:6974   */\n        tag_98:\n            /* \"#utility.yul\":6842:6919   */\n          0x4e487b7100000000000000000000000000000000000000000000000000000000\n            /* \"#utility.yul\":6839:6840   */\n          0x00\n            /* \"#utility.yul\":6832:6920   */\n          mstore\n            /* \"#utility.yul\":6939:6943   */\n          0x31\n            /* \"#utility.yul\":6936:6937   */\n          0x04\n            /* \"#utility.yul\":6929:6944   */\n          mstore\n            /* \"#utility.yul\":6963:6967   */\n          0x24\n            /* \"#utility.yul\":6960:6961   */\n          0x00\n            /* \"#utility.yul\":6953:6968   */\n          revert\n            /* \"#utility.yul\":6980:7205   */\n        tag_152:\n            /* \"#utility.yul\":7120:7154   */\n          0x4f776e61626c653a206e6577206f776e657220697320746865207a65726f2061\n            /* \"#utility.yul\":7116:7117   */\n          0x00\n            /* \"#utility.yul\":7108:7114   */\n          dup3\n            /* \"#utility.yul\":7104:7118   */\n          add\n            /* \"#utility.yul\":7097:7155   */\n          mstore\n            /* \"#utility.yul\":7189:7197   */\n          0x6464726573730000000000000000000000000000000000000000000000000000\n            /* \"#utility.yul\":7184:7186   */\n          0x20\n            /* \"#utility.yul\":7176:7182   */\n          dup3\n            /* \"#utility.yul\":7172:7187   */\n          add\n            /* \"#utility.yul\":7165:7198   */\n          mstore\n            /* \"#utility.yul\":6980:7205   */\n          pop\n          jump\t// out\n            /* \"#utility.yul\":7211:7577   */\n        tag_153:\n            /* \"#utility.yul\":7353:7356   */\n          0x00\n            /* \"#utility.yul\":7374:7441   */\n          tag_234\n            /* \"#utility.yul\":7438:7440   */\n          0x26\n            /* \"#utility.yul\":7433:7436   */\n          dup4\n            /* \"#utility.yul\":7374:7441   */\n          tag_146\n          jump\t// in\n        tag_234:\n            /* \"#utility.yul\":7367:7441   */\n          swap2\n          pop\n            /* \"#utility.yul\":7450:7543   */\n          tag_235\n            /* \"#utility.yul\":7539:7542   */\n          dup3\n            /* \"#utility.yul\":7450:7543   */\n          tag_152\n          jump\t// in\n        tag_235:\n            /* \"#utility.yul\":7568:7570   */\n          0x40\n            /* \"#utility.yul\":7563:7566   */\n          dup3\n            /* \"#utility.yul\":7559:7571   */\n          add\n            /* \"#utility.yul\":7552:7571   */\n          swap1\n          pop\n            /* \"#utility.yul\":7211:7577   */\n          swap2\n          swap1\n          pop\n          jump\t// out\n            /* \"#utility.yul\":7583:8002   */\n        tag_105:\n            /* \"#utility.yul\":7749:7753   */\n          0x00\n            /* \"#utility.yul\":7787:7789   */\n          0x20\n            /* \"#utility.yul\":7776:7785   */\n          dup3\n            /* \"#utility.yul\":7772:7790   */\n          add\n            /* \"#utility.yul\":7764:7790   */\n          swap1\n          pop\n            /* \"#utility.yul\":7836:7845   */\n          dup2\n            /* \"#utility.yul\":7830:7834   */\n          dup2\n            /* \"#utility.yul\":7826:7846   */\n          sub\n            /* \"#utility.yul\":7822:7823   */\n          0x00\n            /* \"#utility.yul\":7811:7820   */\n          dup4\n            /* \"#utility.yul\":7807:7824   */\n          add\n            /* \"#utility.yul\":7800:7847   */\n          mstore\n            /* \"#utility.yul\":7864:7995   */\n          tag_237\n            /* \"#utility.yul\":7990:7994   */\n          dup2\n            /* \"#utility.yul\":7864:7995   */\n          tag_153\n          jump\t// in\n        tag_237:\n            /* \"#utility.yul\":7856:7995   */\n          swap1\n          pop\n            /* \"#utility.yul\":7583:8002   */\n          swap2\n          swap1\n          pop\n          jump\t// out\n            /* \"#utility.yul\":8008:8242   */\n        tag_154:\n            /* \"#utility.yul\":8148:8182   */\n          0x6661726d65722063616e6e6f7420706c616365206f7264657220666f72207468\n            /* \"#utility.yul\":8144:8145   */\n          0x00\n            /* \"#utility.yul\":8136:8142   */\n          dup3\n            /* \"#utility.yul\":8132:8146   */\n          add\n            /* \"#utility.yul\":8125:8183   */\n          mstore\n            /* \"#utility.yul\":8217:8234   */\n          0x656972206f776e2070726f647563650000000000000000000000000000000000\n            /* \"#utility.yul\":8212:8214   */\n          0x20\n            /* \"#utility.yul\":8204:8210   */\n          dup3\n            /* \"#utility.yul\":8200:8215   */\n          add\n            /* \"#utility.yul\":8193:8235   */\n          mstore\n            /* \"#utility.yul\":8008:8242   */\n          pop\n          jump\t// out\n            /* \"#utility.yul\":8248:8614   */\n        tag_155:\n            /* \"#utility.yul\":8390:8393   */\n          0x00\n            /* \"#utility.yul\":8411:8478   */\n          tag_240\n            /* \"#utility.yul\":8475:8477   */\n          0x2f\n            /* \"#utility.yul\":8470:8473   */\n          dup4\n            /* \"#utility.yul\":8411:8478   */\n          tag_146\n          jump\t// in\n        tag_240:\n            /* \"#utility.yul\":8404:8478   */\n          swap2\n          pop\n            /* \"#utility.yul\":8487:8580   */\n          tag_241\n            /* \"#utility.yul\":8576:8579   */\n          dup3\n            /* \"#utility.yul\":8487:8580   */\n          tag_154\n          jump\t// in\n        tag_241:\n            /* \"#utility.yul\":8605:8607   */\n          0x40\n            /* \"#utility.yul\":8600:8603   */\n          dup3\n            /* \"#utility.yul\":8596:8608   */\n          add\n            /* \"#utility.yul\":8589:8608   */\n          swap1\n          pop\n            /* \"#utility.yul\":8248:8614   */\n          swap2\n          swap1\n          pop\n          jump\t// out\n            /* \"#utility.yul\":8620:9039   */\n        tag_111:\n            /* \"#utility.yul\":8786:8790   */\n          0x00\n            /* \"#utility.yul\":8824:8826   */\n          0x20\n            /* \"#utility.yul\":8813:8822   */\n          dup3\n            /* \"#utility.yul\":8809:8827   */\n          add\n            /* \"#utility.yul\":8801:8827   */\n          swap1\n          pop\n            /* \"#utility.yul\":8873:8882   */\n          dup2\n            /* \"#utility.yul\":8867:8871   */\n          dup2\n            /* \"#utility.yul\":8863:8883   */\n          sub\n            /* \"#utility.yul\":8859:8860   */\n          0x00\n            /* \"#utility.yul\":8848:8857   */\n          dup4\n            /* \"#utility.yul\":8844:8861   */\n          add\n            /* \"#utility.yul\":8837:8884   */\n          mstore\n            /* \"#utility.yul\":8901:9032   */\n          tag_243\n            /* \"#utility.yul\":9027:9031   */\n          dup2\n            /* \"#utility.yul\":8901:9032   */\n          tag_155\n          jump\t// in\n        tag_243:\n            /* \"#utility.yul\":8893:9032   */\n          swap1\n          pop\n            /* \"#utility.yul\":8620:9039   */\n          swap2\n          swap1\n          pop\n          jump\t// out\n            /* \"#utility.yul\":9045:9455   */\n        tag_113:\n            /* \"#utility.yul\":9085:9092   */\n          0x00\n            /* \"#utility.yul\":9108:9128   */\n          tag_245\n            /* \"#utility.yul\":9126:9127   */\n          dup3\n            /* \"#utility.yul\":9108:9128   */\n          tag_130\n          jump\t// in\n        tag_245:\n            /* \"#utility.yul\":9103:9128   */\n          swap2\n          pop\n            /* \"#utility.yul\":9142:9162   */\n          tag_246\n            /* \"#utility.yul\":9160:9161   */\n          dup4\n            /* \"#utility.yul\":9142:9162   */\n          tag_130\n          jump\t// in\n        tag_246:\n            /* \"#utility.yul\":9137:9162   */\n          swap3\n          pop\n            /* \"#utility.yul\":9197:9198   */\n          dup3\n            /* \"#utility.yul\":9194:9195   */\n          dup3\n            /* \"#utility.yul\":9190:9199   */\n          mul\n            /* \"#utility.yul\":9219:9249   */\n          tag_247\n            /* \"#utility.yul\":9237:9248   */\n          dup2\n            /* \"#utility.yul\":9219:9249   */\n          tag_130\n          jump\t// in\n        tag_247:\n            /* \"#utility.yul\":9208:9249   */\n          swap2\n          pop\n            /* \"#utility.yul\":9398:9399   */\n          dup3\n            /* \"#utility.yul\":9389:9396   */\n          dup3\n            /* \"#utility.yul\":9385:9400   */\n          div\n            /* \"#utility.yul\":9382:9383   */\n          dup5\n            /* \"#utility.yul\":9379:9401   */\n          eq\n            /* \"#utility.yul\":9359:9360   */\n          dup4\n            /* \"#utility.yul\":9352:9361   */\n          iszero\n            /* \"#utility.yul\":9332:9415   */\n          or\n            /* \"#utility.yul\":9309:9448   */\n          tag_248\n          jumpi\n            /* \"#utility.yul\":9428:9446   */\n          tag_249\n          tag_151\n          jump\t// in\n        tag_249:\n            /* \"#utility.yul\":9309:9448   */\n        tag_248:\n            /* \"#utility.yul\":9093:9455   */\n          pop\n            /* \"#utility.yul\":9045:9455   */\n          swap3\n          swap2\n          pop\n          pop\n          jump\t// out\n            /* \"#utility.yul\":9461:9687   */\n        tag_156:\n            /* \"#utility.yul\":9601:9635   */\n          0x6f72646572206d757374206265206f6620636f72726563742073697a6520616e\n            /* \"#utility.yul\":9597:9598   */\n          0x00\n            /* \"#utility.yul\":9589:9595   */\n          dup3\n            /* \"#utility.yul\":9585:9599   */\n          add\n            /* \"#utility.yul\":9578:9636   */\n          mstore\n            /* \"#utility.yul\":9670:9679   */\n          0x6420707269636500000000000000000000000000000000000000000000000000\n            /* \"#utility.yul\":9665:9667   */\n          0x20\n            /* \"#utility.yul\":9657:9663   */\n          dup3\n            /* \"#utility.yul\":9653:9668   */\n          add\n            /* \"#utility.yul\":9646:9680   */\n          mstore\n            /* \"#utility.yul\":9461:9687   */\n          pop\n          jump\t// out\n            /* \"#utility.yul\":9693:10059   */\n        tag_157:\n            /* \"#utility.yul\":9835:9838   */\n          0x00\n            /* \"#utility.yul\":9856:9923   */\n          tag_252\n            /* \"#utility.yul\":9920:9922   */\n          0x27\n            /* \"#utility.yul\":9915:9918   */\n          dup4\n            /* \"#utility.yul\":9856:9923   */\n          tag_146\n          jump\t// in\n        tag_252:\n            /* \"#utility.yul\":9849:9923   */\n          swap2\n          pop\n            /* \"#utility.yul\":9932:10025   */\n          tag_253\n            /* \"#utility.yul\":10021:10024   */\n          dup3\n            /* \"#utility.yul\":9932:10025   */\n          tag_156\n          jump\t// in\n        tag_253:\n            /* \"#utility.yul\":10050:10052   */\n          0x40\n            /* \"#utility.yul\":10045:10048   */\n          dup3\n            /* \"#utility.yul\":10041:10053   */\n          add\n            /* \"#utility.yul\":10034:10053   */\n          swap1\n          pop\n            /* \"#utility.yul\":9693:10059   */\n          swap2\n          swap1\n          pop\n          jump\t// out\n            /* \"#utility.yul\":10065:10484   */\n        tag_116:\n            /* \"#utility.yul\":10231:10235   */\n          0x00\n            /* \"#utility.yul\":10269:10271   */\n          0x20\n            /* \"#utility.yul\":10258:10267   */\n          dup3\n            /* \"#utility.yul\":10254:10272   */\n          add\n            /* \"#utility.yul\":10246:10272   */\n          swap1\n          pop\n            /* \"#utility.yul\":10318:10327   */\n          dup2\n            /* \"#utility.yul\":10312:10316   */\n          dup2\n            /* \"#utility.yul\":10308:10328   */\n          sub\n            /* \"#utility.yul\":10304:10305   */\n          0x00\n            /* \"#utility.yul\":10293:10302   */\n          dup4\n            /* \"#utility.yul\":10289:10306   */\n          add\n            /* \"#utility.yul\":10282:10329   */\n          mstore\n            /* \"#utility.yul\":10346:10477   */\n          tag_255\n            /* \"#utility.yul\":10472:10476   */\n          dup2\n            /* \"#utility.yul\":10346:10477   */\n          tag_157\n          jump\t// in\n        tag_255:\n            /* \"#utility.yul\":10338:10477   */\n          swap1\n          pop\n            /* \"#utility.yul\":10065:10484   */\n          swap2\n          swap1\n          pop\n          jump\t// out\n            /* \"#utility.yul\":10490:10717   */\n        tag_158:\n            /* \"#utility.yul\":10630:10664   */\n          0x746f6f206d616e79206f72646572732070656e64696e6720666f722074686973\n            /* \"#utility.yul\":10626:10627   */\n          0x00\n            /* \"#utility.yul\":10618:10624   */\n          dup3\n            /* \"#utility.yul\":10614:10628   */\n          add\n            /* \"#utility.yul\":10607:10665   */\n          mstore\n            /* \"#utility.yul\":10699:10709   */\n          0x2070726f64756365000000000000000000000000000000000000000000000000\n            /* \"#utility.yul\":10694:10696   */\n          0x20\n            /* \"#utility.yul\":10686:10692   */\n          dup3\n            /* \"#utility.yul\":10682:10697   */\n          add\n            /* \"#utility.yul\":10675:10710   */\n          mstore\n            /* \"#utility.yul\":10490:10717   */\n          pop\n          jump\t// out\n            /* \"#utility.yul\":10723:11089   */\n        tag_159:\n            /* \"#utility.yul\":10865:10868   */\n          0x00\n            /* \"#utility.yul\":10886:10953   */\n          tag_258\n            /* \"#utility.yul\":10950:10952   */\n          0x28\n            /* \"#utility.yul\":10945:10948   */\n          dup4\n            /* \"#utility.yul\":10886:10953   */\n          tag_146\n          jump\t// in\n        tag_258:\n            /* \"#utility.yul\":10879:10953   */\n          swap2\n          pop\n            /* \"#utility.yul\":10962:11055   */\n          tag_259\n            /* \"#utility.yul\":11051:11054   */\n          dup3\n            /* \"#utility.yul\":10962:11055   */\n          tag_158\n          jump\t// in\n        tag_259:\n            /* \"#utility.yul\":11080:11082   */\n          0x40\n            /* \"#utility.yul\":11075:11078   */\n          dup3\n            /* \"#utility.yul\":11071:11083   */\n          add\n            /* \"#utility.yul\":11064:11083   */\n          swap1\n          pop\n            /* \"#utility.yul\":10723:11089   */\n          swap2\n          swap1\n          pop\n          jump\t// out\n            /* \"#utility.yul\":11095:11514   */\n        tag_119:\n            /* \"#utility.yul\":11261:11265   */\n          0x00\n            /* \"#utility.yul\":11299:11301   */\n          0x20\n            /* \"#utility.yul\":11288:11297   */\n          dup3\n            /* \"#utility.yul\":11284:11302   */\n          add\n            /* \"#utility.yul\":11276:11302   */\n          swap1\n          pop\n            /* \"#utility.yul\":11348:11357   */\n          dup2\n            /* \"#utility.yul\":11342:11346   */\n          dup2\n            /* \"#utility.yul\":11338:11358   */\n          sub\n            /* \"#utility.yul\":11334:11335   */\n          0x00\n            /* \"#utility.yul\":11323:11332   */\n          dup4\n            /* \"#utility.yul\":11319:11336   */\n          add\n            /* \"#utility.yul\":11312:11359   */\n          mstore\n            /* \"#utility.yul\":11376:11507   */\n          tag_261\n            /* \"#utility.yul\":11502:11506   */\n          dup2\n            /* \"#utility.yul\":11376:11507   */\n          tag_159\n          jump\t// in\n        tag_261:\n            /* \"#utility.yul\":11368:11507   */\n          swap1\n          pop\n            /* \"#utility.yul\":11095:11514   */\n          swap2\n          swap1\n          pop\n          jump\t// out\n            /* \"#utility.yul\":11520:11702   */\n        tag_160:\n            /* \"#utility.yul\":11660:11694   */\n          0x4f776e61626c653a2063616c6c6572206973206e6f7420746865206f776e6572\n            /* \"#utility.yul\":11656:11657   */\n          0x00\n            /* \"#utility.yul\":11648:11654   */\n          dup3\n            /* \"#utility.yul\":11644:11658   */\n          add\n            /* \"#utility.yul\":11637:11695   */\n          mstore\n            /* \"#utility.yul\":11520:11702   */\n          pop\n          jump\t// out\n            /* \"#utility.yul\":11708:12074   */\n        tag_161:\n            /* \"#utility.yul\":11850:11853   */\n          0x00\n            /* \"#utility.yul\":11871:11938   */\n          tag_264\n            /* \"#utility.yul\":11935:11937   */\n          0x20\n            /* \"#utility.yul\":11930:11933   */\n          dup4\n            /* \"#utility.yul\":11871:11938   */\n          tag_146\n          jump\t// in\n        tag_264:\n            /* \"#utility.yul\":11864:11938   */\n          swap2\n          pop\n            /* \"#utility.yul\":11947:12040   */\n          tag_265\n            /* \"#utility.yul\":12036:12039   */\n          dup3\n            /* \"#utility.yul\":11947:12040   */\n          tag_160\n          jump\t// in\n        tag_265:\n            /* \"#utility.yul\":12065:12067   */\n          0x20\n            /* \"#utility.yul\":12060:12063   */\n          dup3\n            /* \"#utility.yul\":12056:12068   */\n          add\n            /* \"#utility.yul\":12049:12068   */\n          swap1\n          pop\n            /* \"#utility.yul\":11708:12074   */\n          swap2\n          swap1\n          pop\n          jump\t// out\n            /* \"#utility.yul\":12080:12499   */\n        tag_127:\n            /* \"#utility.yul\":12246:12250   */\n          0x00\n            /* \"#utility.yul\":12284:12286   */\n          0x20\n            /* \"#utility.yul\":12273:12282   */\n          dup3\n            /* \"#utility.yul\":12269:12287   */\n          add\n            /* \"#utility.yul\":12261:12287   */\n          swap1\n          pop\n            /* \"#utility.yul\":12333:12342   */\n          dup2\n            /* \"#utility.yul\":12327:12331   */\n          dup2\n            /* \"#utility.yul\":12323:12343   */\n          sub\n            /* \"#utility.yul\":12319:12320   */\n          0x00\n            /* \"#utility.yul\":12308:12317   */\n          dup4\n            /* \"#utility.yul\":12304:12321   */\n          add\n            /* \"#utility.yul\":12297:12344   */\n          mstore\n            /* \"#utility.yul\":12361:12492   */\n          tag_267\n            /* \"#utility.yul\":12487:12491   */\n          dup2\n            /* \"#utility.yul\":12361:12492   */\n          tag_161\n          jump\t// in\n        tag_267:\n            /* \"#utility.yul\":12353:12492   */\n          swap1\n          pop\n            /* \"#utility.yul\":12080:12499   */\n          swap2\n          swap1\n          pop\n          jump\t// out\n\n        auxdata: 0xa26469706673582212202f7292302500c1de98fa379ffb5b716d4923afdcfa2c04b6c6499208f2b274a964736f6c63430008120033\n    }\n}\n",
				"bytecode": {
					"linkReferences": {},
					"object": "60a060405234801561001057600080fd5b5060405161001d90610072565b604051809103906000f080158015610039573d6000803e3d6000fd5b5073ffffffffffffffffffffffffffffffffffffffff1660808173ffffffffffffffffffffffffffffffffffffffff168152505061007f565b6110e280610a0583390190565b60805161096b61009a600039600061028d015261096b6000f3fe608060405234801561001057600080fd5b50600436106100415760003560e01c80637b6833c314610046578063952a0d6014610062578063a1d861a914610092575b600080fd5b610060600480360381019061005b9190610581565b6100c2565b005b61007c6004803603810190610077919061061a565b610285565b6040516100899190610690565b60405180910390f35b6100ac60048036038101906100a79190610581565b610444565b6040516100b991906106c6565b60405180910390f35b600160008273ffffffffffffffffffffffffffffffffffffffff1673ffffffffffffffffffffffffffffffffffffffff16815260200190815260200160002060009054906101000a900460ff1661014e576040517f08c379a000000000000000000000000000000000000000000000000000000000815260040161014590610764565b60405180910390fd5b3373ffffffffffffffffffffffffffffffffffffffff168173ffffffffffffffffffffffffffffffffffffffff16638da5cb5b6040518163ffffffff1660e01b8152600401602060405180830381865afa1580156101b0573d6000803e3d6000fd5b505050506040513d601f19601f820116820180604052508101906101d49190610799565b73ffffffffffffffffffffffffffffffffffffffff161461022a576040517f08c379a000000000000000000000000000000000000000000000000000000000815260040161022190610838565b60405180910390fd5b6000600160008373ffffffffffffffffffffffffffffffffffffffff1673ffffffffffffffffffffffffffffffffffffffff16815260200190815260200160002060006101000a81548160ff02191690831515021790555050565b6000806102b17f0000000000000000000000000000000000000000000000000000000000000000610464565b90508073ffffffffffffffffffffffffffffffffffffffff16638fae6ca433888888886040518663ffffffff1660e01b81526004016102f4959493929190610876565b600060405180830381600087803b15801561030e57600080fd5b505af1158015610322573d6000803e3d6000fd5b505050506000819080600181540180825580915050600190039060005260206000200160009091909190916101000a81548173ffffffffffffffffffffffffffffffffffffffff021916908373ffffffffffffffffffffffffffffffffffffffff16021790555060018060008373ffffffffffffffffffffffffffffffffffffffff1673ffffffffffffffffffffffffffffffffffffffff16815260200190815260200160002060006101000a81548160ff0219169083151502179055506001600260003373ffffffffffffffffffffffffffffffffffffffff1673ffffffffffffffffffffffffffffffffffffffff16815260200190815260200160002060006101000a81548160ff02191690831515021790555080915050949350505050565b60026020528060005260406000206000915054906101000a900460ff1681565b6000763d602d80600a3d3981f3363d3d373d3d3d363d730000008260601b60e81c176000526e5af43d82803e903d91602b57fd5bf38260781b17602052603760096000f09050600073ffffffffffffffffffffffffffffffffffffffff168173ffffffffffffffffffffffffffffffffffffffff1603610519576040517f08c379a000000000000000000000000000000000000000000000000000000000815260040161051090610915565b60405180910390fd5b919050565b600080fd5b600073ffffffffffffffffffffffffffffffffffffffff82169050919050565b600061054e82610523565b9050919050565b61055e81610543565b811461056957600080fd5b50565b60008135905061057b81610555565b92915050565b6000602082840312156105975761059661051e565b5b60006105a58482850161056c565b91505092915050565b6000819050919050565b6105c1816105ae565b81146105cc57600080fd5b50565b6000813590506105de816105b8565b92915050565b6000819050919050565b6105f7816105e4565b811461060257600080fd5b50565b600081359050610614816105ee565b92915050565b600080600080608085870312156106345761063361051e565b5b6000610642878288016105cf565b945050602061065387828801610605565b935050604061066487828801610605565b925050606061067587828801610605565b91505092959194509250565b61068a81610543565b82525050565b60006020820190506106a56000830184610681565b92915050565b60008115159050919050565b6106c0816106ab565b82525050565b60006020820190506106db60008301846106b7565b92915050565b600082825260208201905092915050565b7f546869732070726f64756365206973206e6f74206c6973746564206f6e20746860008201527f65204d61726b6574000000000000000000000000000000000000000000000000602082015250565b600061074e6028836106e1565b9150610759826106f2565b604082019050919050565b6000602082019050818103600083015261077d81610741565b9050919050565b60008151905061079381610555565b92915050565b6000602082840312156107af576107ae61051e565b5b60006107bd84828501610784565b91505092915050565b7f4f6e6c792070726f64756365206f776e65722063616e2072656d6f766520707260008201527f6f647563652066726f6d204d61726b6574000000000000000000000000000000602082015250565b60006108226031836106e1565b915061082d826107c6565b604082019050919050565b6000602082019050818103600083015261085181610815565b9050919050565b610861816105ae565b82525050565b610870816105e4565b82525050565b600060a08201905061088b6000830188610681565b6108986020830187610858565b6108a56040830186610867565b6108b26060830185610867565b6108bf6080830184610867565b9695505050505050565b7f455243313136373a20637265617465206661696c656400000000000000000000600082015250565b60006108ff6016836106e1565b915061090a826108c9565b602082019050919050565b6000602082019050818103600083015261092e816108f2565b905091905056fea2646970667358221220174c078005db65ee841c58271075bb546bcd5c50f2076a867079b20f96834d2964736f6c63430008120033608060405234801561001057600080fd5b5061002d61002261005d60201b60201c565b61006560201b60201c565b6000600860006101000a81548160ff0219169083600281111561005357610052610129565b5b0217905550610158565b600033905090565b60008060009054906101000a900473ffffffffffffffffffffffffffffffffffffffff169050816000806101000a81548173ffffffffffffffffffffffffffffffffffffffff021916908373ffffffffffffffffffffffffffffffffffffffff1602179055508173ffffffffffffffffffffffffffffffffffffffff168173ffffffffffffffffffffffffffffffffffffffff167f8be0079c531659141344cd1fd0a4f28419497f9722a3daafe3b4186f6b6457e060405160405180910390a35050565b7f4e487b7100000000000000000000000000000000000000000000000000000000600052602160045260246000fd5b610f7b806101676000396000f3fe6080604052600436106100a75760003560e01c8063a035b1fe11610064578063a035b1fe14610198578063d32dacc1146101c3578063d811fcf0146101ee578063f2fde38b14610219578063f5c609e014610242578063fa34f63a1461024c576100a7565b8063530d124e146100ac5780636d86b8a5146100d7578063715018a61461010257806380f55605146101195780638da5cb5b146101445780638fae6ca41461016f575b600080fd5b3480156100b857600080fd5b506100c1610277565b6040516100ce9190610874565b60405180910390f35b3480156100e357600080fd5b506100ec61027d565b6040516100f99190610874565b60405180910390f35b34801561010e57600080fd5b50610117610283565b005b34801561012557600080fd5b5061012e610297565b60405161013b91906108d0565b60405180910390f35b34801561015057600080fd5b506101596102bd565b60405161016691906108d0565b60405180910390f35b34801561017b57600080fd5b506101966004803603810190610191919061097e565b6102e6565b005b3480156101a457600080fd5b506101ad6103f4565b6040516101ba9190610874565b60405180910390f35b3480156101cf57600080fd5b506101d86103fa565b6040516101e591906108d0565b60405180910390f35b3480156101fa57600080fd5b506102036104ee565b60405161021091906108d0565b60405180910390f35b34801561022557600080fd5b50610240600480360381019061023b91906109f9565b610514565b005b61024a610597565b005b34801561025857600080fd5b5061026161070b565b60405161026e9190610a35565b60405180910390f35b60045481565b60075481565b61028b610711565b610295600061078f565b565b600260009054906101000a900473ffffffffffffffffffffffffffffffffffffffff1681565b60008060009054906101000a900473ffffffffffffffffffffffffffffffffffffffff16905090565b600060028111156102fa576102f9610a50565b5b600860009054906101000a900460ff16600281111561031c5761031b610a50565b5b1461035c576040517f08c379a000000000000000000000000000000000000000000000000000000000815260040161035390610b02565b60405180910390fd5b6103658561078f565b33600260006101000a81548173ffffffffffffffffffffffffffffffffffffffff021916908373ffffffffffffffffffffffffffffffffffffffff160217905550806004819055508360058190555082600681905550816007819055506001600860006101000a81548160ff021916908360028111156103e8576103e7610a50565b5b02179055505050505050565b60065481565b6000610404610711565b60006003805490501161044c576040517f08c379a000000000000000000000000000000000000000000000000000000000815260040161044390610b6e565b60405180910390fd5b6000600360016003805490506104629190610bbd565b8154811061047357610472610bf1565b5b9060005260206000200160009054906101000a900473ffffffffffffffffffffffffffffffffffffffff16905060038054806104b2576104b1610c20565b5b6001900381819060005260206000200160006101000a81549073ffffffffffffffffffffffffffffffffffffffff021916905590558091505090565b600160009054906101000a900473ffffffffffffffffffffffffffffffffffffffff1681565b61051c610711565b600073ffffffffffffffffffffffffffffffffffffffff168173ffffffffffffffffffffffffffffffffffffffff160361058b576040517f08c379a000000000000000000000000000000000000000000000000000000000815260040161058290610cc1565b60405180910390fd5b6105948161078f565b50565b61059f6102bd565b73ffffffffffffffffffffffffffffffffffffffff163373ffffffffffffffffffffffffffffffffffffffff160361060c576040517f08c379a000000000000000000000000000000000000000000000000000000000815260040161060390610d53565b60405180910390fd5b60065460075461061c9190610d73565b341461065d576040517f08c379a000000000000000000000000000000000000000000000000000000000815260040161065490610e27565b60405180910390fd5b600454600380549050106106a6576040517f08c379a000000000000000000000000000000000000000000000000000000000815260040161069d90610eb9565b60405180910390fd5b6003339080600181540180825580915050600190039060005260206000200160009091909190916101000a81548173ffffffffffffffffffffffffffffffffffffffff021916908373ffffffffffffffffffffffffffffffffffffffff160217905550565b60055481565b610719610853565b73ffffffffffffffffffffffffffffffffffffffff166107376102bd565b73ffffffffffffffffffffffffffffffffffffffff161461078d576040517f08c379a000000000000000000000000000000000000000000000000000000000815260040161078490610f25565b60405180910390fd5b565b60008060009054906101000a900473ffffffffffffffffffffffffffffffffffffffff169050816000806101000a81548173ffffffffffffffffffffffffffffffffffffffff021916908373ffffffffffffffffffffffffffffffffffffffff1602179055508173ffffffffffffffffffffffffffffffffffffffff168173ffffffffffffffffffffffffffffffffffffffff167f8be0079c531659141344cd1fd0a4f28419497f9722a3daafe3b4186f6b6457e060405160405180910390a35050565b600033905090565b6000819050919050565b61086e8161085b565b82525050565b60006020820190506108896000830184610865565b92915050565b600073ffffffffffffffffffffffffffffffffffffffff82169050919050565b60006108ba8261088f565b9050919050565b6108ca816108af565b82525050565b60006020820190506108e560008301846108c1565b92915050565b600080fd5b6108f9816108af565b811461090457600080fd5b50565b600081359050610916816108f0565b92915050565b6000819050919050565b61092f8161091c565b811461093a57600080fd5b50565b60008135905061094c81610926565b92915050565b61095b8161085b565b811461096657600080fd5b50565b60008135905061097881610952565b92915050565b600080600080600060a0868803121561099a576109996108eb565b5b60006109a888828901610907565b95505060206109b98882890161093d565b94505060406109ca88828901610969565b93505060606109db88828901610969565b92505060806109ec88828901610969565b9150509295509295909350565b600060208284031215610a0f57610a0e6108eb565b5b6000610a1d84828501610907565b91505092915050565b610a2f8161091c565b82525050565b6000602082019050610a4a6000830184610a26565b92915050565b7f4e487b7100000000000000000000000000000000000000000000000000000000600052602160045260246000fd5b600082825260208201905092915050565b7f546869732070726f647563652068617320616c7265616479206265656e20696e60008201527f6974696c697a6564000000000000000000000000000000000000000000000000602082015250565b6000610aec602883610a7f565b9150610af782610a90565b604082019050919050565b60006020820190508181036000830152610b1b81610adf565b9050919050565b7f4e6f206f726465727320746f2074616b65000000000000000000000000000000600082015250565b6000610b58601183610a7f565b9150610b6382610b22565b602082019050919050565b60006020820190508181036000830152610b8781610b4b565b9050919050565b7f4e487b7100000000000000000000000000000000000000000000000000000000600052601160045260246000fd5b6000610bc88261085b565b9150610bd38361085b565b9250828203905081811115610beb57610bea610b8e565b5b92915050565b7f4e487b7100000000000000000000000000000000000000000000000000000000600052603260045260246000fd5b7f4e487b7100000000000000000000000000000000000000000000000000000000600052603160045260246000fd5b7f4f776e61626c653a206e6577206f776e657220697320746865207a65726f206160008201527f6464726573730000000000000000000000000000000000000000000000000000602082015250565b6000610cab602683610a7f565b9150610cb682610c4f565b604082019050919050565b60006020820190508181036000830152610cda81610c9e565b9050919050565b7f6661726d65722063616e6e6f7420706c616365206f7264657220666f7220746860008201527f656972206f776e2070726f647563650000000000000000000000000000000000602082015250565b6000610d3d602f83610a7f565b9150610d4882610ce1565b604082019050919050565b60006020820190508181036000830152610d6c81610d30565b9050919050565b6000610d7e8261085b565b9150610d898361085b565b9250828202610d978161085b565b91508282048414831517610dae57610dad610b8e565b5b5092915050565b7f6f72646572206d757374206265206f6620636f72726563742073697a6520616e60008201527f6420707269636500000000000000000000000000000000000000000000000000602082015250565b6000610e11602783610a7f565b9150610e1c82610db5565b604082019050919050565b60006020820190508181036000830152610e4081610e04565b9050919050565b7f746f6f206d616e79206f72646572732070656e64696e6720666f72207468697360008201527f2070726f64756365000000000000000000000000000000000000000000000000602082015250565b6000610ea3602883610a7f565b9150610eae82610e47565b604082019050919050565b60006020820190508181036000830152610ed281610e96565b9050919050565b7f4f776e61626c653a2063616c6c6572206973206e6f7420746865206f776e6572600082015250565b6000610f0f602083610a7f565b9150610f1a82610ed9565b602082019050919050565b60006020820190508181036000830152610f3e81610f02565b905091905056fea26469706673582212202f7292302500c1de98fa379ffb5b716d4923afdcfa2c04b6c6499208f2b274a964736f6c63430008120033",
					"opcodes": "PUSH1 0xA0 PUSH1 0x40 MSTORE CALLVALUE DUP1 ISZERO PUSH2 0x10 JUMPI PUSH1 0x0 DUP1 REVERT JUMPDEST POP PUSH1 0x40 MLOAD PUSH2 0x1D SWAP1 PUSH2 0x72 JUMP JUMPDEST PUSH1 0x40 MLOAD DUP1 SWAP2 SUB SWAP1 PUSH1 0x0 CREATE DUP1 ISZERO DUP1 ISZERO PUSH2 0x39 JUMPI RETURNDATASIZE PUSH1 0x0 DUP1 RETURNDATACOPY RETURNDATASIZE PUSH1 0x0 REVERT JUMPDEST POP PUSH20 0xFFFFFFFFFFFFFFFFFFFFFFFFFFFFFFFFFFFFFFFF AND PUSH1 0x80 DUP2 PUSH20 0xFFFFFFFFFFFFFFFFFFFFFFFFFFFFFFFFFFFFFFFF AND DUP2 MSTORE POP POP PUSH2 0x7F JUMP JUMPDEST PUSH2 0x10E2 DUP1 PUSH2 0xA05 DUP4 CODECOPY ADD SWAP1 JUMP JUMPDEST PUSH1 0x80 MLOAD PUSH2 0x96B PUSH2 0x9A PUSH1 0x0 CODECOPY PUSH1 0x0 PUSH2 0x28D ADD MSTORE PUSH2 0x96B PUSH1 0x0 RETURN INVALID PUSH1 0x80 PUSH1 0x40 MSTORE CALLVALUE DUP1 ISZERO PUSH2 0x10 JUMPI PUSH1 0x0 DUP1 REVERT JUMPDEST POP PUSH1 0x4 CALLDATASIZE LT PUSH2 0x41 JUMPI PUSH1 0x0 CALLDATALOAD PUSH1 0xE0 SHR DUP1 PUSH4 0x7B6833C3 EQ PUSH2 0x46 JUMPI DUP1 PUSH4 0x952A0D60 EQ PUSH2 0x62 JUMPI DUP1 PUSH4 0xA1D861A9 EQ PUSH2 0x92 JUMPI JUMPDEST PUSH1 0x0 DUP1 REVERT JUMPDEST PUSH2 0x60 PUSH1 0x4 DUP1 CALLDATASIZE SUB DUP2 ADD SWAP1 PUSH2 0x5B SWAP2 SWAP1 PUSH2 0x581 JUMP JUMPDEST PUSH2 0xC2 JUMP JUMPDEST STOP JUMPDEST PUSH2 0x7C PUSH1 0x4 DUP1 CALLDATASIZE SUB DUP2 ADD SWAP1 PUSH2 0x77 SWAP2 SWAP1 PUSH2 0x61A JUMP JUMPDEST PUSH2 0x285 JUMP JUMPDEST PUSH1 0x40 MLOAD PUSH2 0x89 SWAP2 SWAP1 PUSH2 0x690 JUMP JUMPDEST PUSH1 0x40 MLOAD DUP1 SWAP2 SUB SWAP1 RETURN JUMPDEST PUSH2 0xAC PUSH1 0x4 DUP1 CALLDATASIZE SUB DUP2 ADD SWAP1 PUSH2 0xA7 SWAP2 SWAP1 PUSH2 0x581 JUMP JUMPDEST PUSH2 0x444 JUMP JUMPDEST PUSH1 0x40 MLOAD PUSH2 0xB9 SWAP2 SWAP1 PUSH2 0x6C6 JUMP JUMPDEST PUSH1 0x40 MLOAD DUP1 SWAP2 SUB SWAP1 RETURN JUMPDEST PUSH1 0x1 PUSH1 0x0 DUP3 PUSH20 0xFFFFFFFFFFFFFFFFFFFFFFFFFFFFFFFFFFFFFFFF AND PUSH20 0xFFFFFFFFFFFFFFFFFFFFFFFFFFFFFFFFFFFFFFFF AND DUP2 MSTORE PUSH1 0x20 ADD SWAP1 DUP2 MSTORE PUSH1 0x20 ADD PUSH1 0x0 KECCAK256 PUSH1 0x0 SWAP1 SLOAD SWAP1 PUSH2 0x100 EXP SWAP1 DIV PUSH1 0xFF AND PUSH2 0x14E JUMPI PUSH1 0x40 MLOAD PUSH32 0x8C379A000000000000000000000000000000000000000000000000000000000 DUP2 MSTORE PUSH1 0x4 ADD PUSH2 0x145 SWAP1 PUSH2 0x764 JUMP JUMPDEST PUSH1 0x40 MLOAD DUP1 SWAP2 SUB SWAP1 REVERT JUMPDEST CALLER PUSH20 0xFFFFFFFFFFFFFFFFFFFFFFFFFFFFFFFFFFFFFFFF AND DUP2 PUSH20 0xFFFFFFFFFFFFFFFFFFFFFFFFFFFFFFFFFFFFFFFF AND PUSH4 0x8DA5CB5B PUSH1 0x40 MLOAD DUP2 PUSH4 0xFFFFFFFF AND PUSH1 0xE0 SHL DUP2 MSTORE PUSH1 0x4 ADD PUSH1 0x20 PUSH1 0x40 MLOAD DUP1 DUP4 SUB DUP2 DUP7 GAS STATICCALL ISZERO DUP1 ISZERO PUSH2 0x1B0 JUMPI RETURNDATASIZE PUSH1 0x0 DUP1 RETURNDATACOPY RETURNDATASIZE PUSH1 0x0 REVERT JUMPDEST POP POP POP POP PUSH1 0x40 MLOAD RETURNDATASIZE PUSH1 0x1F NOT PUSH1 0x1F DUP3 ADD AND DUP3 ADD DUP1 PUSH1 0x40 MSTORE POP DUP2 ADD SWAP1 PUSH2 0x1D4 SWAP2 SWAP1 PUSH2 0x799 JUMP JUMPDEST PUSH20 0xFFFFFFFFFFFFFFFFFFFFFFFFFFFFFFFFFFFFFFFF AND EQ PUSH2 0x22A JUMPI PUSH1 0x40 MLOAD PUSH32 0x8C379A000000000000000000000000000000000000000000000000000000000 DUP2 MSTORE PUSH1 0x4 ADD PUSH2 0x221 SWAP1 PUSH2 0x838 JUMP JUMPDEST PUSH1 0x40 MLOAD DUP1 SWAP2 SUB SWAP1 REVERT JUMPDEST PUSH1 0x0 PUSH1 0x1 PUSH1 0x0 DUP4 PUSH20 0xFFFFFFFFFFFFFFFFFFFFFFFFFFFFFFFFFFFFFFFF AND PUSH20 0xFFFFFFFFFFFFFFFFFFFFFFFFFFFFFFFFFFFFFFFF AND DUP2 MSTORE PUSH1 0x20 ADD SWAP1 DUP2 MSTORE PUSH1 0x20 ADD PUSH1 0x0 KECCAK256 PUSH1 0x0 PUSH2 0x100 EXP DUP2 SLOAD DUP2 PUSH1 0xFF MUL NOT AND SWAP1 DUP4 ISZERO ISZERO MUL OR SWAP1 SSTORE POP POP JUMP JUMPDEST PUSH1 0x0 DUP1 PUSH2 0x2B1 PUSH32 0x0 PUSH2 0x464 JUMP JUMPDEST SWAP1 POP DUP1 PUSH20 0xFFFFFFFFFFFFFFFFFFFFFFFFFFFFFFFFFFFFFFFF AND PUSH4 0x8FAE6CA4 CALLER DUP9 DUP9 DUP9 DUP9 PUSH1 0x40 MLOAD DUP7 PUSH4 0xFFFFFFFF AND PUSH1 0xE0 SHL DUP2 MSTORE PUSH1 0x4 ADD PUSH2 0x2F4 SWAP6 SWAP5 SWAP4 SWAP3 SWAP2 SWAP1 PUSH2 0x876 JUMP JUMPDEST PUSH1 0x0 PUSH1 0x40 MLOAD DUP1 DUP4 SUB DUP2 PUSH1 0x0 DUP8 DUP1 EXTCODESIZE ISZERO DUP1 ISZERO PUSH2 0x30E JUMPI PUSH1 0x0 DUP1 REVERT JUMPDEST POP GAS CALL ISZERO DUP1 ISZERO PUSH2 0x322 JUMPI RETURNDATASIZE PUSH1 0x0 DUP1 RETURNDATACOPY RETURNDATASIZE PUSH1 0x0 REVERT JUMPDEST POP POP POP POP PUSH1 0x0 DUP2 SWAP1 DUP1 PUSH1 0x1 DUP2 SLOAD ADD DUP1 DUP3 SSTORE DUP1 SWAP2 POP POP PUSH1 0x1 SWAP1 SUB SWAP1 PUSH1 0x0 MSTORE PUSH1 0x20 PUSH1 0x0 KECCAK256 ADD PUSH1 0x0 SWAP1 SWAP2 SWAP1 SWAP2 SWAP1 SWAP2 PUSH2 0x100 EXP DUP2 SLOAD DUP2 PUSH20 0xFFFFFFFFFFFFFFFFFFFFFFFFFFFFFFFFFFFFFFFF MUL NOT AND SWAP1 DUP4 PUSH20 0xFFFFFFFFFFFFFFFFFFFFFFFFFFFFFFFFFFFFFFFF AND MUL OR SWAP1 SSTORE POP PUSH1 0x1 DUP1 PUSH1 0x0 DUP4 PUSH20 0xFFFFFFFFFFFFFFFFFFFFFFFFFFFFFFFFFFFFFFFF AND PUSH20 0xFFFFFFFFFFFFFFFFFFFFFFFFFFFFFFFFFFFFFFFF AND DUP2 MSTORE PUSH1 0x20 ADD SWAP1 DUP2 MSTORE PUSH1 0x20 ADD PUSH1 0x0 KECCAK256 PUSH1 0x0 PUSH2 0x100 EXP DUP2 SLOAD DUP2 PUSH1 0xFF MUL NOT AND SWAP1 DUP4 ISZERO ISZERO MUL OR SWAP1 SSTORE POP PUSH1 0x1 PUSH1 0x2 PUSH1 0x0 CALLER PUSH20 0xFFFFFFFFFFFFFFFFFFFFFFFFFFFFFFFFFFFFFFFF AND PUSH20 0xFFFFFFFFFFFFFFFFFFFFFFFFFFFFFFFFFFFFFFFF AND DUP2 MSTORE PUSH1 0x20 ADD SWAP1 DUP2 MSTORE PUSH1 0x20 ADD PUSH1 0x0 KECCAK256 PUSH1 0x0 PUSH2 0x100 EXP DUP2 SLOAD DUP2 PUSH1 0xFF MUL NOT AND SWAP1 DUP4 ISZERO ISZERO MUL OR SWAP1 SSTORE POP DUP1 SWAP2 POP POP SWAP5 SWAP4 POP POP POP POP JUMP JUMPDEST PUSH1 0x2 PUSH1 0x20 MSTORE DUP1 PUSH1 0x0 MSTORE PUSH1 0x40 PUSH1 0x0 KECCAK256 PUSH1 0x0 SWAP2 POP SLOAD SWAP1 PUSH2 0x100 EXP SWAP1 DIV PUSH1 0xFF AND DUP2 JUMP JUMPDEST PUSH1 0x0 PUSH23 0x3D602D80600A3D3981F3363D3D373D3D3D363D73000000 DUP3 PUSH1 0x60 SHL PUSH1 0xE8 SHR OR PUSH1 0x0 MSTORE PUSH15 0x5AF43D82803E903D91602B57FD5BF3 DUP3 PUSH1 0x78 SHL OR PUSH1 0x20 MSTORE PUSH1 0x37 PUSH1 0x9 PUSH1 0x0 CREATE SWAP1 POP PUSH1 0x0 PUSH20 0xFFFFFFFFFFFFFFFFFFFFFFFFFFFFFFFFFFFFFFFF AND DUP2 PUSH20 0xFFFFFFFFFFFFFFFFFFFFFFFFFFFFFFFFFFFFFFFF AND SUB PUSH2 0x519 JUMPI PUSH1 0x40 MLOAD PUSH32 0x8C379A000000000000000000000000000000000000000000000000000000000 DUP2 MSTORE PUSH1 0x4 ADD PUSH2 0x510 SWAP1 PUSH2 0x915 JUMP JUMPDEST PUSH1 0x40 MLOAD DUP1 SWAP2 SUB SWAP1 REVERT JUMPDEST SWAP2 SWAP1 POP JUMP JUMPDEST PUSH1 0x0 DUP1 REVERT JUMPDEST PUSH1 0x0 PUSH20 0xFFFFFFFFFFFFFFFFFFFFFFFFFFFFFFFFFFFFFFFF DUP3 AND SWAP1 POP SWAP2 SWAP1 POP JUMP JUMPDEST PUSH1 0x0 PUSH2 0x54E DUP3 PUSH2 0x523 JUMP JUMPDEST SWAP1 POP SWAP2 SWAP1 POP JUMP JUMPDEST PUSH2 0x55E DUP2 PUSH2 0x543 JUMP JUMPDEST DUP2 EQ PUSH2 0x569 JUMPI PUSH1 0x0 DUP1 REVERT JUMPDEST POP JUMP JUMPDEST PUSH1 0x0 DUP2 CALLDATALOAD SWAP1 POP PUSH2 0x57B DUP2 PUSH2 0x555 JUMP JUMPDEST SWAP3 SWAP2 POP POP JUMP JUMPDEST PUSH1 0x0 PUSH1 0x20 DUP3 DUP5 SUB SLT ISZERO PUSH2 0x597 JUMPI PUSH2 0x596 PUSH2 0x51E JUMP JUMPDEST JUMPDEST PUSH1 0x0 PUSH2 0x5A5 DUP5 DUP3 DUP6 ADD PUSH2 0x56C JUMP JUMPDEST SWAP2 POP POP SWAP3 SWAP2 POP POP JUMP JUMPDEST PUSH1 0x0 DUP2 SWAP1 POP SWAP2 SWAP1 POP JUMP JUMPDEST PUSH2 0x5C1 DUP2 PUSH2 0x5AE JUMP JUMPDEST DUP2 EQ PUSH2 0x5CC JUMPI PUSH1 0x0 DUP1 REVERT JUMPDEST POP JUMP JUMPDEST PUSH1 0x0 DUP2 CALLDATALOAD SWAP1 POP PUSH2 0x5DE DUP2 PUSH2 0x5B8 JUMP JUMPDEST SWAP3 SWAP2 POP POP JUMP JUMPDEST PUSH1 0x0 DUP2 SWAP1 POP SWAP2 SWAP1 POP JUMP JUMPDEST PUSH2 0x5F7 DUP2 PUSH2 0x5E4 JUMP JUMPDEST DUP2 EQ PUSH2 0x602 JUMPI PUSH1 0x0 DUP1 REVERT JUMPDEST POP JUMP JUMPDEST PUSH1 0x0 DUP2 CALLDATALOAD SWAP1 POP PUSH2 0x614 DUP2 PUSH2 0x5EE JUMP JUMPDEST SWAP3 SWAP2 POP POP JUMP JUMPDEST PUSH1 0x0 DUP1 PUSH1 0x0 DUP1 PUSH1 0x80 DUP6 DUP8 SUB SLT ISZERO PUSH2 0x634 JUMPI PUSH2 0x633 PUSH2 0x51E JUMP JUMPDEST JUMPDEST PUSH1 0x0 PUSH2 0x642 DUP8 DUP3 DUP9 ADD PUSH2 0x5CF JUMP JUMPDEST SWAP5 POP POP PUSH1 0x20 PUSH2 0x653 DUP8 DUP3 DUP9 ADD PUSH2 0x605 JUMP JUMPDEST SWAP4 POP POP PUSH1 0x40 PUSH2 0x664 DUP8 DUP3 DUP9 ADD PUSH2 0x605 JUMP JUMPDEST SWAP3 POP POP PUSH1 0x60 PUSH2 0x675 DUP8 DUP3 DUP9 ADD PUSH2 0x605 JUMP JUMPDEST SWAP2 POP POP SWAP3 SWAP6 SWAP2 SWAP5 POP SWAP3 POP JUMP JUMPDEST PUSH2 0x68A DUP2 PUSH2 0x543 JUMP JUMPDEST DUP3 MSTORE POP POP JUMP JUMPDEST PUSH1 0x0 PUSH1 0x20 DUP3 ADD SWAP1 POP PUSH2 0x6A5 PUSH1 0x0 DUP4 ADD DUP5 PUSH2 0x681 JUMP JUMPDEST SWAP3 SWAP2 POP POP JUMP JUMPDEST PUSH1 0x0 DUP2 ISZERO ISZERO SWAP1 POP SWAP2 SWAP1 POP JUMP JUMPDEST PUSH2 0x6C0 DUP2 PUSH2 0x6AB JUMP JUMPDEST DUP3 MSTORE POP POP JUMP JUMPDEST PUSH1 0x0 PUSH1 0x20 DUP3 ADD SWAP1 POP PUSH2 0x6DB PUSH1 0x0 DUP4 ADD DUP5 PUSH2 0x6B7 JUMP JUMPDEST SWAP3 SWAP2 POP POP JUMP JUMPDEST PUSH1 0x0 DUP3 DUP3 MSTORE PUSH1 0x20 DUP3 ADD SWAP1 POP SWAP3 SWAP2 POP POP JUMP JUMPDEST PUSH32 0x546869732070726F64756365206973206E6F74206C6973746564206F6E207468 PUSH1 0x0 DUP3 ADD MSTORE PUSH32 0x65204D61726B6574000000000000000000000000000000000000000000000000 PUSH1 0x20 DUP3 ADD MSTORE POP JUMP JUMPDEST PUSH1 0x0 PUSH2 0x74E PUSH1 0x28 DUP4 PUSH2 0x6E1 JUMP JUMPDEST SWAP2 POP PUSH2 0x759 DUP3 PUSH2 0x6F2 JUMP JUMPDEST PUSH1 0x40 DUP3 ADD SWAP1 POP SWAP2 SWAP1 POP JUMP JUMPDEST PUSH1 0x0 PUSH1 0x20 DUP3 ADD SWAP1 POP DUP2 DUP2 SUB PUSH1 0x0 DUP4 ADD MSTORE PUSH2 0x77D DUP2 PUSH2 0x741 JUMP JUMPDEST SWAP1 POP SWAP2 SWAP1 POP JUMP JUMPDEST PUSH1 0x0 DUP2 MLOAD SWAP1 POP PUSH2 0x793 DUP2 PUSH2 0x555 JUMP JUMPDEST SWAP3 SWAP2 POP POP JUMP JUMPDEST PUSH1 0x0 PUSH1 0x20 DUP3 DUP5 SUB SLT ISZERO PUSH2 0x7AF JUMPI PUSH2 0x7AE PUSH2 0x51E JUMP JUMPDEST JUMPDEST PUSH1 0x0 PUSH2 0x7BD DUP5 DUP3 DUP6 ADD PUSH2 0x784 JUMP JUMPDEST SWAP2 POP POP SWAP3 SWAP2 POP POP JUMP JUMPDEST PUSH32 0x4F6E6C792070726F64756365206F776E65722063616E2072656D6F7665207072 PUSH1 0x0 DUP3 ADD MSTORE PUSH32 0x6F647563652066726F6D204D61726B6574000000000000000000000000000000 PUSH1 0x20 DUP3 ADD MSTORE POP JUMP JUMPDEST PUSH1 0x0 PUSH2 0x822 PUSH1 0x31 DUP4 PUSH2 0x6E1 JUMP JUMPDEST SWAP2 POP PUSH2 0x82D DUP3 PUSH2 0x7C6 JUMP JUMPDEST PUSH1 0x40 DUP3 ADD SWAP1 POP SWAP2 SWAP1 POP JUMP JUMPDEST PUSH1 0x0 PUSH1 0x20 DUP3 ADD SWAP1 POP DUP2 DUP2 SUB PUSH1 0x0 DUP4 ADD MSTORE PUSH2 0x851 DUP2 PUSH2 0x815 JUMP JUMPDEST SWAP1 POP SWAP2 SWAP1 POP JUMP JUMPDEST PUSH2 0x861 DUP2 PUSH2 0x5AE JUMP JUMPDEST DUP3 MSTORE POP POP JUMP JUMPDEST PUSH2 0x870 DUP2 PUSH2 0x5E4 JUMP JUMPDEST DUP3 MSTORE POP POP JUMP JUMPDEST PUSH1 0x0 PUSH1 0xA0 DUP3 ADD SWAP1 POP PUSH2 0x88B PUSH1 0x0 DUP4 ADD DUP9 PUSH2 0x681 JUMP JUMPDEST PUSH2 0x898 PUSH1 0x20 DUP4 ADD DUP8 PUSH2 0x858 JUMP JUMPDEST PUSH2 0x8A5 PUSH1 0x40 DUP4 ADD DUP7 PUSH2 0x867 JUMP JUMPDEST PUSH2 0x8B2 PUSH1 0x60 DUP4 ADD DUP6 PUSH2 0x867 JUMP JUMPDEST PUSH2 0x8BF PUSH1 0x80 DUP4 ADD DUP5 PUSH2 0x867 JUMP JUMPDEST SWAP7 SWAP6 POP POP POP POP POP POP JUMP JUMPDEST PUSH32 0x455243313136373A20637265617465206661696C656400000000000000000000 PUSH1 0x0 DUP3 ADD MSTORE POP JUMP JUMPDEST PUSH1 0x0 PUSH2 0x8FF PUSH1 0x16 DUP4 PUSH2 0x6E1 JUMP JUMPDEST SWAP2 POP PUSH2 0x90A DUP3 PUSH2 0x8C9 JUMP JUMPDEST PUSH1 0x20 DUP3 ADD SWAP1 POP SWAP2 SWAP1 POP JUMP JUMPDEST PUSH1 0x0 PUSH1 0x20 DUP3 ADD SWAP1 POP DUP2 DUP2 SUB PUSH1 0x0 DUP4 ADD MSTORE PUSH2 0x92E DUP2 PUSH2 0x8F2 JUMP JUMPDEST SWAP1 POP SWAP2 SWAP1 POP JUMP INVALID LOG2 PUSH5 0x6970667358 0x22 SLT KECCAK256 OR 0x4C SMOD DUP1 SDIV 0xDB PUSH6 0xEE841C582710 PUSH22 0xBB546BCD5C50F2076A867079B20F96834D2964736F6C PUSH4 0x43000812 STOP CALLER PUSH1 0x80 PUSH1 0x40 MSTORE CALLVALUE DUP1 ISZERO PUSH2 0x10 JUMPI PUSH1 0x0 DUP1 REVERT JUMPDEST POP PUSH2 0x2D PUSH2 0x22 PUSH2 0x5D PUSH1 0x20 SHL PUSH1 0x20 SHR JUMP JUMPDEST PUSH2 0x65 PUSH1 0x20 SHL PUSH1 0x20 SHR JUMP JUMPDEST PUSH1 0x0 PUSH1 0x8 PUSH1 0x0 PUSH2 0x100 EXP DUP2 SLOAD DUP2 PUSH1 0xFF MUL NOT AND SWAP1 DUP4 PUSH1 0x2 DUP2 GT ISZERO PUSH2 0x53 JUMPI PUSH2 0x52 PUSH2 0x129 JUMP JUMPDEST JUMPDEST MUL OR SWAP1 SSTORE POP PUSH2 0x158 JUMP JUMPDEST PUSH1 0x0 CALLER SWAP1 POP SWAP1 JUMP JUMPDEST PUSH1 0x0 DUP1 PUSH1 0x0 SWAP1 SLOAD SWAP1 PUSH2 0x100 EXP SWAP1 DIV PUSH20 0xFFFFFFFFFFFFFFFFFFFFFFFFFFFFFFFFFFFFFFFF AND SWAP1 POP DUP2 PUSH1 0x0 DUP1 PUSH2 0x100 EXP DUP2 SLOAD DUP2 PUSH20 0xFFFFFFFFFFFFFFFFFFFFFFFFFFFFFFFFFFFFFFFF MUL NOT AND SWAP1 DUP4 PUSH20 0xFFFFFFFFFFFFFFFFFFFFFFFFFFFFFFFFFFFFFFFF AND MUL OR SWAP1 SSTORE POP DUP2 PUSH20 0xFFFFFFFFFFFFFFFFFFFFFFFFFFFFFFFFFFFFFFFF AND DUP2 PUSH20 0xFFFFFFFFFFFFFFFFFFFFFFFFFFFFFFFFFFFFFFFF AND PUSH32 0x8BE0079C531659141344CD1FD0A4F28419497F9722A3DAAFE3B4186F6B6457E0 PUSH1 0x40 MLOAD PUSH1 0x40 MLOAD DUP1 SWAP2 SUB SWAP1 LOG3 POP POP JUMP JUMPDEST PUSH32 0x4E487B7100000000000000000000000000000000000000000000000000000000 PUSH1 0x0 MSTORE PUSH1 0x21 PUSH1 0x4 MSTORE PUSH1 0x24 PUSH1 0x0 REVERT JUMPDEST PUSH2 0xF7B DUP1 PUSH2 0x167 PUSH1 0x0 CODECOPY PUSH1 0x0 RETURN INVALID PUSH1 0x80 PUSH1 0x40 MSTORE PUSH1 0x4 CALLDATASIZE LT PUSH2 0xA7 JUMPI PUSH1 0x0 CALLDATALOAD PUSH1 0xE0 SHR DUP1 PUSH4 0xA035B1FE GT PUSH2 0x64 JUMPI DUP1 PUSH4 0xA035B1FE EQ PUSH2 0x198 JUMPI DUP1 PUSH4 0xD32DACC1 EQ PUSH2 0x1C3 JUMPI DUP1 PUSH4 0xD811FCF0 EQ PUSH2 0x1EE JUMPI DUP1 PUSH4 0xF2FDE38B EQ PUSH2 0x219 JUMPI DUP1 PUSH4 0xF5C609E0 EQ PUSH2 0x242 JUMPI DUP1 PUSH4 0xFA34F63A EQ PUSH2 0x24C JUMPI PUSH2 0xA7 JUMP JUMPDEST DUP1 PUSH4 0x530D124E EQ PUSH2 0xAC JUMPI DUP1 PUSH4 0x6D86B8A5 EQ PUSH2 0xD7 JUMPI DUP1 PUSH4 0x715018A6 EQ PUSH2 0x102 JUMPI DUP1 PUSH4 0x80F55605 EQ PUSH2 0x119 JUMPI DUP1 PUSH4 0x8DA5CB5B EQ PUSH2 0x144 JUMPI DUP1 PUSH4 0x8FAE6CA4 EQ PUSH2 0x16F JUMPI JUMPDEST PUSH1 0x0 DUP1 REVERT JUMPDEST CALLVALUE DUP1 ISZERO PUSH2 0xB8 JUMPI PUSH1 0x0 DUP1 REVERT JUMPDEST POP PUSH2 0xC1 PUSH2 0x277 JUMP JUMPDEST PUSH1 0x40 MLOAD PUSH2 0xCE SWAP2 SWAP1 PUSH2 0x874 JUMP JUMPDEST PUSH1 0x40 MLOAD DUP1 SWAP2 SUB SWAP1 RETURN JUMPDEST CALLVALUE DUP1 ISZERO PUSH2 0xE3 JUMPI PUSH1 0x0 DUP1 REVERT JUMPDEST POP PUSH2 0xEC PUSH2 0x27D JUMP JUMPDEST PUSH1 0x40 MLOAD PUSH2 0xF9 SWAP2 SWAP1 PUSH2 0x874 JUMP JUMPDEST PUSH1 0x40 MLOAD DUP1 SWAP2 SUB SWAP1 RETURN JUMPDEST CALLVALUE DUP1 ISZERO PUSH2 0x10E JUMPI PUSH1 0x0 DUP1 REVERT JUMPDEST POP PUSH2 0x117 PUSH2 0x283 JUMP JUMPDEST STOP JUMPDEST CALLVALUE DUP1 ISZERO PUSH2 0x125 JUMPI PUSH1 0x0 DUP1 REVERT JUMPDEST POP PUSH2 0x12E PUSH2 0x297 JUMP JUMPDEST PUSH1 0x40 MLOAD PUSH2 0x13B SWAP2 SWAP1 PUSH2 0x8D0 JUMP JUMPDEST PUSH1 0x40 MLOAD DUP1 SWAP2 SUB SWAP1 RETURN JUMPDEST CALLVALUE DUP1 ISZERO PUSH2 0x150 JUMPI PUSH1 0x0 DUP1 REVERT JUMPDEST POP PUSH2 0x159 PUSH2 0x2BD JUMP JUMPDEST PUSH1 0x40 MLOAD PUSH2 0x166 SWAP2 SWAP1 PUSH2 0x8D0 JUMP JUMPDEST PUSH1 0x40 MLOAD DUP1 SWAP2 SUB SWAP1 RETURN JUMPDEST CALLVALUE DUP1 ISZERO PUSH2 0x17B JUMPI PUSH1 0x0 DUP1 REVERT JUMPDEST POP PUSH2 0x196 PUSH1 0x4 DUP1 CALLDATASIZE SUB DUP2 ADD SWAP1 PUSH2 0x191 SWAP2 SWAP1 PUSH2 0x97E JUMP JUMPDEST PUSH2 0x2E6 JUMP JUMPDEST STOP JUMPDEST CALLVALUE DUP1 ISZERO PUSH2 0x1A4 JUMPI PUSH1 0x0 DUP1 REVERT JUMPDEST POP PUSH2 0x1AD PUSH2 0x3F4 JUMP JUMPDEST PUSH1 0x40 MLOAD PUSH2 0x1BA SWAP2 SWAP1 PUSH2 0x874 JUMP JUMPDEST PUSH1 0x40 MLOAD DUP1 SWAP2 SUB SWAP1 RETURN JUMPDEST CALLVALUE DUP1 ISZERO PUSH2 0x1CF JUMPI PUSH1 0x0 DUP1 REVERT JUMPDEST POP PUSH2 0x1D8 PUSH2 0x3FA JUMP JUMPDEST PUSH1 0x40 MLOAD PUSH2 0x1E5 SWAP2 SWAP1 PUSH2 0x8D0 JUMP JUMPDEST PUSH1 0x40 MLOAD DUP1 SWAP2 SUB SWAP1 RETURN JUMPDEST CALLVALUE DUP1 ISZERO PUSH2 0x1FA JUMPI PUSH1 0x0 DUP1 REVERT JUMPDEST POP PUSH2 0x203 PUSH2 0x4EE JUMP JUMPDEST PUSH1 0x40 MLOAD PUSH2 0x210 SWAP2 SWAP1 PUSH2 0x8D0 JUMP JUMPDEST PUSH1 0x40 MLOAD DUP1 SWAP2 SUB SWAP1 RETURN JUMPDEST CALLVALUE DUP1 ISZERO PUSH2 0x225 JUMPI PUSH1 0x0 DUP1 REVERT JUMPDEST POP PUSH2 0x240 PUSH1 0x4 DUP1 CALLDATASIZE SUB DUP2 ADD SWAP1 PUSH2 0x23B SWAP2 SWAP1 PUSH2 0x9F9 JUMP JUMPDEST PUSH2 0x514 JUMP JUMPDEST STOP JUMPDEST PUSH2 0x24A PUSH2 0x597 JUMP JUMPDEST STOP JUMPDEST CALLVALUE DUP1 ISZERO PUSH2 0x258 JUMPI PUSH1 0x0 DUP1 REVERT JUMPDEST POP PUSH2 0x261 PUSH2 0x70B JUMP JUMPDEST PUSH1 0x40 MLOAD PUSH2 0x26E SWAP2 SWAP1 PUSH2 0xA35 JUMP JUMPDEST PUSH1 0x40 MLOAD DUP1 SWAP2 SUB SWAP1 RETURN JUMPDEST PUSH1 0x4 SLOAD DUP2 JUMP JUMPDEST PUSH1 0x7 SLOAD DUP2 JUMP JUMPDEST PUSH2 0x28B PUSH2 0x711 JUMP JUMPDEST PUSH2 0x295 PUSH1 0x0 PUSH2 0x78F JUMP JUMPDEST JUMP JUMPDEST PUSH1 0x2 PUSH1 0x0 SWAP1 SLOAD SWAP1 PUSH2 0x100 EXP SWAP1 DIV PUSH20 0xFFFFFFFFFFFFFFFFFFFFFFFFFFFFFFFFFFFFFFFF AND DUP2 JUMP JUMPDEST PUSH1 0x0 DUP1 PUSH1 0x0 SWAP1 SLOAD SWAP1 PUSH2 0x100 EXP SWAP1 DIV PUSH20 0xFFFFFFFFFFFFFFFFFFFFFFFFFFFFFFFFFFFFFFFF AND SWAP1 POP SWAP1 JUMP JUMPDEST PUSH1 0x0 PUSH1 0x2 DUP2 GT ISZERO PUSH2 0x2FA JUMPI PUSH2 0x2F9 PUSH2 0xA50 JUMP JUMPDEST JUMPDEST PUSH1 0x8 PUSH1 0x0 SWAP1 SLOAD SWAP1 PUSH2 0x100 EXP SWAP1 DIV PUSH1 0xFF AND PUSH1 0x2 DUP2 GT ISZERO PUSH2 0x31C JUMPI PUSH2 0x31B PUSH2 0xA50 JUMP JUMPDEST JUMPDEST EQ PUSH2 0x35C JUMPI PUSH1 0x40 MLOAD PUSH32 0x8C379A000000000000000000000000000000000000000000000000000000000 DUP2 MSTORE PUSH1 0x4 ADD PUSH2 0x353 SWAP1 PUSH2 0xB02 JUMP JUMPDEST PUSH1 0x40 MLOAD DUP1 SWAP2 SUB SWAP1 REVERT JUMPDEST PUSH2 0x365 DUP6 PUSH2 0x78F JUMP JUMPDEST CALLER PUSH1 0x2 PUSH1 0x0 PUSH2 0x100 EXP DUP2 SLOAD DUP2 PUSH20 0xFFFFFFFFFFFFFFFFFFFFFFFFFFFFFFFFFFFFFFFF MUL NOT AND SWAP1 DUP4 PUSH20 0xFFFFFFFFFFFFFFFFFFFFFFFFFFFFFFFFFFFFFFFF AND MUL OR SWAP1 SSTORE POP DUP1 PUSH1 0x4 DUP2 SWAP1 SSTORE POP DUP4 PUSH1 0x5 DUP2 SWAP1 SSTORE POP DUP3 PUSH1 0x6 DUP2 SWAP1 SSTORE POP DUP2 PUSH1 0x7 DUP2 SWAP1 SSTORE POP PUSH1 0x1 PUSH1 0x8 PUSH1 0x0 PUSH2 0x100 EXP DUP2 SLOAD DUP2 PUSH1 0xFF MUL NOT AND SWAP1 DUP4 PUSH1 0x2 DUP2 GT ISZERO PUSH2 0x3E8 JUMPI PUSH2 0x3E7 PUSH2 0xA50 JUMP JUMPDEST JUMPDEST MUL OR SWAP1 SSTORE POP POP POP POP POP POP JUMP JUMPDEST PUSH1 0x6 SLOAD DUP2 JUMP JUMPDEST PUSH1 0x0 PUSH2 0x404 PUSH2 0x711 JUMP JUMPDEST PUSH1 0x0 PUSH1 0x3 DUP1 SLOAD SWAP1 POP GT PUSH2 0x44C JUMPI PUSH1 0x40 MLOAD PUSH32 0x8C379A000000000000000000000000000000000000000000000000000000000 DUP2 MSTORE PUSH1 0x4 ADD PUSH2 0x443 SWAP1 PUSH2 0xB6E JUMP JUMPDEST PUSH1 0x40 MLOAD DUP1 SWAP2 SUB SWAP1 REVERT JUMPDEST PUSH1 0x0 PUSH1 0x3 PUSH1 0x1 PUSH1 0x3 DUP1 SLOAD SWAP1 POP PUSH2 0x462 SWAP2 SWAP1 PUSH2 0xBBD JUMP JUMPDEST DUP2 SLOAD DUP2 LT PUSH2 0x473 JUMPI PUSH2 0x472 PUSH2 0xBF1 JUMP JUMPDEST JUMPDEST SWAP1 PUSH1 0x0 MSTORE PUSH1 0x20 PUSH1 0x0 KECCAK256 ADD PUSH1 0x0 SWAP1 SLOAD SWAP1 PUSH2 0x100 EXP SWAP1 DIV PUSH20 0xFFFFFFFFFFFFFFFFFFFFFFFFFFFFFFFFFFFFFFFF AND SWAP1 POP PUSH1 0x3 DUP1 SLOAD DUP1 PUSH2 0x4B2 JUMPI PUSH2 0x4B1 PUSH2 0xC20 JUMP JUMPDEST JUMPDEST PUSH1 0x1 SWAP1 SUB DUP2 DUP2 SWAP1 PUSH1 0x0 MSTORE PUSH1 0x20 PUSH1 0x0 KECCAK256 ADD PUSH1 0x0 PUSH2 0x100 EXP DUP2 SLOAD SWAP1 PUSH20 0xFFFFFFFFFFFFFFFFFFFFFFFFFFFFFFFFFFFFFFFF MUL NOT AND SWAP1 SSTORE SWAP1 SSTORE DUP1 SWAP2 POP POP SWAP1 JUMP JUMPDEST PUSH1 0x1 PUSH1 0x0 SWAP1 SLOAD SWAP1 PUSH2 0x100 EXP SWAP1 DIV PUSH20 0xFFFFFFFFFFFFFFFFFFFFFFFFFFFFFFFFFFFFFFFF AND DUP2 JUMP JUMPDEST PUSH2 0x51C PUSH2 0x711 JUMP JUMPDEST PUSH1 0x0 PUSH20 0xFFFFFFFFFFFFFFFFFFFFFFFFFFFFFFFFFFFFFFFF AND DUP2 PUSH20 0xFFFFFFFFFFFFFFFFFFFFFFFFFFFFFFFFFFFFFFFF AND SUB PUSH2 0x58B JUMPI PUSH1 0x40 MLOAD PUSH32 0x8C379A000000000000000000000000000000000000000000000000000000000 DUP2 MSTORE PUSH1 0x4 ADD PUSH2 0x582 SWAP1 PUSH2 0xCC1 JUMP JUMPDEST PUSH1 0x40 MLOAD DUP1 SWAP2 SUB SWAP1 REVERT JUMPDEST PUSH2 0x594 DUP2 PUSH2 0x78F JUMP JUMPDEST POP JUMP JUMPDEST PUSH2 0x59F PUSH2 0x2BD JUMP JUMPDEST PUSH20 0xFFFFFFFFFFFFFFFFFFFFFFFFFFFFFFFFFFFFFFFF AND CALLER PUSH20 0xFFFFFFFFFFFFFFFFFFFFFFFFFFFFFFFFFFFFFFFF AND SUB PUSH2 0x60C JUMPI PUSH1 0x40 MLOAD PUSH32 0x8C379A000000000000000000000000000000000000000000000000000000000 DUP2 MSTORE PUSH1 0x4 ADD PUSH2 0x603 SWAP1 PUSH2 0xD53 JUMP JUMPDEST PUSH1 0x40 MLOAD DUP1 SWAP2 SUB SWAP1 REVERT JUMPDEST PUSH1 0x6 SLOAD PUSH1 0x7 SLOAD PUSH2 0x61C SWAP2 SWAP1 PUSH2 0xD73 JUMP JUMPDEST CALLVALUE EQ PUSH2 0x65D JUMPI PUSH1 0x40 MLOAD PUSH32 0x8C379A000000000000000000000000000000000000000000000000000000000 DUP2 MSTORE PUSH1 0x4 ADD PUSH2 0x654 SWAP1 PUSH2 0xE27 JUMP JUMPDEST PUSH1 0x40 MLOAD DUP1 SWAP2 SUB SWAP1 REVERT JUMPDEST PUSH1 0x4 SLOAD PUSH1 0x3 DUP1 SLOAD SWAP1 POP LT PUSH2 0x6A6 JUMPI PUSH1 0x40 MLOAD PUSH32 0x8C379A000000000000000000000000000000000000000000000000000000000 DUP2 MSTORE PUSH1 0x4 ADD PUSH2 0x69D SWAP1 PUSH2 0xEB9 JUMP JUMPDEST PUSH1 0x40 MLOAD DUP1 SWAP2 SUB SWAP1 REVERT JUMPDEST PUSH1 0x3 CALLER SWAP1 DUP1 PUSH1 0x1 DUP2 SLOAD ADD DUP1 DUP3 SSTORE DUP1 SWAP2 POP POP PUSH1 0x1 SWAP1 SUB SWAP1 PUSH1 0x0 MSTORE PUSH1 0x20 PUSH1 0x0 KECCAK256 ADD PUSH1 0x0 SWAP1 SWAP2 SWAP1 SWAP2 SWAP1 SWAP2 PUSH2 0x100 EXP DUP2 SLOAD DUP2 PUSH20 0xFFFFFFFFFFFFFFFFFFFFFFFFFFFFFFFFFFFFFFFF MUL NOT AND SWAP1 DUP4 PUSH20 0xFFFFFFFFFFFFFFFFFFFFFFFFFFFFFFFFFFFFFFFF AND MUL OR SWAP1 SSTORE POP JUMP JUMPDEST PUSH1 0x5 SLOAD DUP2 JUMP JUMPDEST PUSH2 0x719 PUSH2 0x853 JUMP JUMPDEST PUSH20 0xFFFFFFFFFFFFFFFFFFFFFFFFFFFFFFFFFFFFFFFF AND PUSH2 0x737 PUSH2 0x2BD JUMP JUMPDEST PUSH20 0xFFFFFFFFFFFFFFFFFFFFFFFFFFFFFFFFFFFFFFFF AND EQ PUSH2 0x78D JUMPI PUSH1 0x40 MLOAD PUSH32 0x8C379A000000000000000000000000000000000000000000000000000000000 DUP2 MSTORE PUSH1 0x4 ADD PUSH2 0x784 SWAP1 PUSH2 0xF25 JUMP JUMPDEST PUSH1 0x40 MLOAD DUP1 SWAP2 SUB SWAP1 REVERT JUMPDEST JUMP JUMPDEST PUSH1 0x0 DUP1 PUSH1 0x0 SWAP1 SLOAD SWAP1 PUSH2 0x100 EXP SWAP1 DIV PUSH20 0xFFFFFFFFFFFFFFFFFFFFFFFFFFFFFFFFFFFFFFFF AND SWAP1 POP DUP2 PUSH1 0x0 DUP1 PUSH2 0x100 EXP DUP2 SLOAD DUP2 PUSH20 0xFFFFFFFFFFFFFFFFFFFFFFFFFFFFFFFFFFFFFFFF MUL NOT AND SWAP1 DUP4 PUSH20 0xFFFFFFFFFFFFFFFFFFFFFFFFFFFFFFFFFFFFFFFF AND MUL OR SWAP1 SSTORE POP DUP2 PUSH20 0xFFFFFFFFFFFFFFFFFFFFFFFFFFFFFFFFFFFFFFFF AND DUP2 PUSH20 0xFFFFFFFFFFFFFFFFFFFFFFFFFFFFFFFFFFFFFFFF AND PUSH32 0x8BE0079C531659141344CD1FD0A4F28419497F9722A3DAAFE3B4186F6B6457E0 PUSH1 0x40 MLOAD PUSH1 0x40 MLOAD DUP1 SWAP2 SUB SWAP1 LOG3 POP POP JUMP JUMPDEST PUSH1 0x0 CALLER SWAP1 POP SWAP1 JUMP JUMPDEST PUSH1 0x0 DUP2 SWAP1 POP SWAP2 SWAP1 POP JUMP JUMPDEST PUSH2 0x86E DUP2 PUSH2 0x85B JUMP JUMPDEST DUP3 MSTORE POP POP JUMP JUMPDEST PUSH1 0x0 PUSH1 0x20 DUP3 ADD SWAP1 POP PUSH2 0x889 PUSH1 0x0 DUP4 ADD DUP5 PUSH2 0x865 JUMP JUMPDEST SWAP3 SWAP2 POP POP JUMP JUMPDEST PUSH1 0x0 PUSH20 0xFFFFFFFFFFFFFFFFFFFFFFFFFFFFFFFFFFFFFFFF DUP3 AND SWAP1 POP SWAP2 SWAP1 POP JUMP JUMPDEST PUSH1 0x0 PUSH2 0x8BA DUP3 PUSH2 0x88F JUMP JUMPDEST SWAP1 POP SWAP2 SWAP1 POP JUMP JUMPDEST PUSH2 0x8CA DUP2 PUSH2 0x8AF JUMP JUMPDEST DUP3 MSTORE POP POP JUMP JUMPDEST PUSH1 0x0 PUSH1 0x20 DUP3 ADD SWAP1 POP PUSH2 0x8E5 PUSH1 0x0 DUP4 ADD DUP5 PUSH2 0x8C1 JUMP JUMPDEST SWAP3 SWAP2 POP POP JUMP JUMPDEST PUSH1 0x0 DUP1 REVERT JUMPDEST PUSH2 0x8F9 DUP2 PUSH2 0x8AF JUMP JUMPDEST DUP2 EQ PUSH2 0x904 JUMPI PUSH1 0x0 DUP1 REVERT JUMPDEST POP JUMP JUMPDEST PUSH1 0x0 DUP2 CALLDATALOAD SWAP1 POP PUSH2 0x916 DUP2 PUSH2 0x8F0 JUMP JUMPDEST SWAP3 SWAP2 POP POP JUMP JUMPDEST PUSH1 0x0 DUP2 SWAP1 POP SWAP2 SWAP1 POP JUMP JUMPDEST PUSH2 0x92F DUP2 PUSH2 0x91C JUMP JUMPDEST DUP2 EQ PUSH2 0x93A JUMPI PUSH1 0x0 DUP1 REVERT JUMPDEST POP JUMP JUMPDEST PUSH1 0x0 DUP2 CALLDATALOAD SWAP1 POP PUSH2 0x94C DUP2 PUSH2 0x926 JUMP JUMPDEST SWAP3 SWAP2 POP POP JUMP JUMPDEST PUSH2 0x95B DUP2 PUSH2 0x85B JUMP JUMPDEST DUP2 EQ PUSH2 0x966 JUMPI PUSH1 0x0 DUP1 REVERT JUMPDEST POP JUMP JUMPDEST PUSH1 0x0 DUP2 CALLDATALOAD SWAP1 POP PUSH2 0x978 DUP2 PUSH2 0x952 JUMP JUMPDEST SWAP3 SWAP2 POP POP JUMP JUMPDEST PUSH1 0x0 DUP1 PUSH1 0x0 DUP1 PUSH1 0x0 PUSH1 0xA0 DUP7 DUP9 SUB SLT ISZERO PUSH2 0x99A JUMPI PUSH2 0x999 PUSH2 0x8EB JUMP JUMPDEST JUMPDEST PUSH1 0x0 PUSH2 0x9A8 DUP9 DUP3 DUP10 ADD PUSH2 0x907 JUMP JUMPDEST SWAP6 POP POP PUSH1 0x20 PUSH2 0x9B9 DUP9 DUP3 DUP10 ADD PUSH2 0x93D JUMP JUMPDEST SWAP5 POP POP PUSH1 0x40 PUSH2 0x9CA DUP9 DUP3 DUP10 ADD PUSH2 0x969 JUMP JUMPDEST SWAP4 POP POP PUSH1 0x60 PUSH2 0x9DB DUP9 DUP3 DUP10 ADD PUSH2 0x969 JUMP JUMPDEST SWAP3 POP POP PUSH1 0x80 PUSH2 0x9EC DUP9 DUP3 DUP10 ADD PUSH2 0x969 JUMP JUMPDEST SWAP2 POP POP SWAP3 SWAP6 POP SWAP3 SWAP6 SWAP1 SWAP4 POP JUMP JUMPDEST PUSH1 0x0 PUSH1 0x20 DUP3 DUP5 SUB SLT ISZERO PUSH2 0xA0F JUMPI PUSH2 0xA0E PUSH2 0x8EB JUMP JUMPDEST JUMPDEST PUSH1 0x0 PUSH2 0xA1D DUP5 DUP3 DUP6 ADD PUSH2 0x907 JUMP JUMPDEST SWAP2 POP POP SWAP3 SWAP2 POP POP JUMP JUMPDEST PUSH2 0xA2F DUP2 PUSH2 0x91C JUMP JUMPDEST DUP3 MSTORE POP POP JUMP JUMPDEST PUSH1 0x0 PUSH1 0x20 DUP3 ADD SWAP1 POP PUSH2 0xA4A PUSH1 0x0 DUP4 ADD DUP5 PUSH2 0xA26 JUMP JUMPDEST SWAP3 SWAP2 POP POP JUMP JUMPDEST PUSH32 0x4E487B7100000000000000000000000000000000000000000000000000000000 PUSH1 0x0 MSTORE PUSH1 0x21 PUSH1 0x4 MSTORE PUSH1 0x24 PUSH1 0x0 REVERT JUMPDEST PUSH1 0x0 DUP3 DUP3 MSTORE PUSH1 0x20 DUP3 ADD SWAP1 POP SWAP3 SWAP2 POP POP JUMP JUMPDEST PUSH32 0x546869732070726F647563652068617320616C7265616479206265656E20696E PUSH1 0x0 DUP3 ADD MSTORE PUSH32 0x6974696C697A6564000000000000000000000000000000000000000000000000 PUSH1 0x20 DUP3 ADD MSTORE POP JUMP JUMPDEST PUSH1 0x0 PUSH2 0xAEC PUSH1 0x28 DUP4 PUSH2 0xA7F JUMP JUMPDEST SWAP2 POP PUSH2 0xAF7 DUP3 PUSH2 0xA90 JUMP JUMPDEST PUSH1 0x40 DUP3 ADD SWAP1 POP SWAP2 SWAP1 POP JUMP JUMPDEST PUSH1 0x0 PUSH1 0x20 DUP3 ADD SWAP1 POP DUP2 DUP2 SUB PUSH1 0x0 DUP4 ADD MSTORE PUSH2 0xB1B DUP2 PUSH2 0xADF JUMP JUMPDEST SWAP1 POP SWAP2 SWAP1 POP JUMP JUMPDEST PUSH32 0x4E6F206F726465727320746F2074616B65000000000000000000000000000000 PUSH1 0x0 DUP3 ADD MSTORE POP JUMP JUMPDEST PUSH1 0x0 PUSH2 0xB58 PUSH1 0x11 DUP4 PUSH2 0xA7F JUMP JUMPDEST SWAP2 POP PUSH2 0xB63 DUP3 PUSH2 0xB22 JUMP JUMPDEST PUSH1 0x20 DUP3 ADD SWAP1 POP SWAP2 SWAP1 POP JUMP JUMPDEST PUSH1 0x0 PUSH1 0x20 DUP3 ADD SWAP1 POP DUP2 DUP2 SUB PUSH1 0x0 DUP4 ADD MSTORE PUSH2 0xB87 DUP2 PUSH2 0xB4B JUMP JUMPDEST SWAP1 POP SWAP2 SWAP1 POP JUMP JUMPDEST PUSH32 0x4E487B7100000000000000000000000000000000000000000000000000000000 PUSH1 0x0 MSTORE PUSH1 0x11 PUSH1 0x4 MSTORE PUSH1 0x24 PUSH1 0x0 REVERT JUMPDEST PUSH1 0x0 PUSH2 0xBC8 DUP3 PUSH2 0x85B JUMP JUMPDEST SWAP2 POP PUSH2 0xBD3 DUP4 PUSH2 0x85B JUMP JUMPDEST SWAP3 POP DUP3 DUP3 SUB SWAP1 POP DUP2 DUP2 GT ISZERO PUSH2 0xBEB JUMPI PUSH2 0xBEA PUSH2 0xB8E JUMP JUMPDEST JUMPDEST SWAP3 SWAP2 POP POP JUMP JUMPDEST PUSH32 0x4E487B7100000000000000000000000000000000000000000000000000000000 PUSH1 0x0 MSTORE PUSH1 0x32 PUSH1 0x4 MSTORE PUSH1 0x24 PUSH1 0x0 REVERT JUMPDEST PUSH32 0x4E487B7100000000000000000000000000000000000000000000000000000000 PUSH1 0x0 MSTORE PUSH1 0x31 PUSH1 0x4 MSTORE PUSH1 0x24 PUSH1 0x0 REVERT JUMPDEST PUSH32 0x4F776E61626C653A206E6577206F776E657220697320746865207A65726F2061 PUSH1 0x0 DUP3 ADD MSTORE PUSH32 0x6464726573730000000000000000000000000000000000000000000000000000 PUSH1 0x20 DUP3 ADD MSTORE POP JUMP JUMPDEST PUSH1 0x0 PUSH2 0xCAB PUSH1 0x26 DUP4 PUSH2 0xA7F JUMP JUMPDEST SWAP2 POP PUSH2 0xCB6 DUP3 PUSH2 0xC4F JUMP JUMPDEST PUSH1 0x40 DUP3 ADD SWAP1 POP SWAP2 SWAP1 POP JUMP JUMPDEST PUSH1 0x0 PUSH1 0x20 DUP3 ADD SWAP1 POP DUP2 DUP2 SUB PUSH1 0x0 DUP4 ADD MSTORE PUSH2 0xCDA DUP2 PUSH2 0xC9E JUMP JUMPDEST SWAP1 POP SWAP2 SWAP1 POP JUMP JUMPDEST PUSH32 0x6661726D65722063616E6E6F7420706C616365206F7264657220666F72207468 PUSH1 0x0 DUP3 ADD MSTORE PUSH32 0x656972206F776E2070726F647563650000000000000000000000000000000000 PUSH1 0x20 DUP3 ADD MSTORE POP JUMP JUMPDEST PUSH1 0x0 PUSH2 0xD3D PUSH1 0x2F DUP4 PUSH2 0xA7F JUMP JUMPDEST SWAP2 POP PUSH2 0xD48 DUP3 PUSH2 0xCE1 JUMP JUMPDEST PUSH1 0x40 DUP3 ADD SWAP1 POP SWAP2 SWAP1 POP JUMP JUMPDEST PUSH1 0x0 PUSH1 0x20 DUP3 ADD SWAP1 POP DUP2 DUP2 SUB PUSH1 0x0 DUP4 ADD MSTORE PUSH2 0xD6C DUP2 PUSH2 0xD30 JUMP JUMPDEST SWAP1 POP SWAP2 SWAP1 POP JUMP JUMPDEST PUSH1 0x0 PUSH2 0xD7E DUP3 PUSH2 0x85B JUMP JUMPDEST SWAP2 POP PUSH2 0xD89 DUP4 PUSH2 0x85B JUMP JUMPDEST SWAP3 POP DUP3 DUP3 MUL PUSH2 0xD97 DUP2 PUSH2 0x85B JUMP JUMPDEST SWAP2 POP DUP3 DUP3 DIV DUP5 EQ DUP4 ISZERO OR PUSH2 0xDAE JUMPI PUSH2 0xDAD PUSH2 0xB8E JUMP JUMPDEST JUMPDEST POP SWAP3 SWAP2 POP POP JUMP JUMPDEST PUSH32 0x6F72646572206D757374206265206F6620636F72726563742073697A6520616E PUSH1 0x0 DUP3 ADD MSTORE PUSH32 0x6420707269636500000000000000000000000000000000000000000000000000 PUSH1 0x20 DUP3 ADD MSTORE POP JUMP JUMPDEST PUSH1 0x0 PUSH2 0xE11 PUSH1 0x27 DUP4 PUSH2 0xA7F JUMP JUMPDEST SWAP2 POP PUSH2 0xE1C DUP3 PUSH2 0xDB5 JUMP JUMPDEST PUSH1 0x40 DUP3 ADD SWAP1 POP SWAP2 SWAP1 POP JUMP JUMPDEST PUSH1 0x0 PUSH1 0x20 DUP3 ADD SWAP1 POP DUP2 DUP2 SUB PUSH1 0x0 DUP4 ADD MSTORE PUSH2 0xE40 DUP2 PUSH2 0xE04 JUMP JUMPDEST SWAP1 POP SWAP2 SWAP1 POP JUMP JUMPDEST PUSH32 0x746F6F206D616E79206F72646572732070656E64696E6720666F722074686973 PUSH1 0x0 DUP3 ADD MSTORE PUSH32 0x2070726F64756365000000000000000000000000000000000000000000000000 PUSH1 0x20 DUP3 ADD MSTORE POP JUMP JUMPDEST PUSH1 0x0 PUSH2 0xEA3 PUSH1 0x28 DUP4 PUSH2 0xA7F JUMP JUMPDEST SWAP2 POP PUSH2 0xEAE DUP3 PUSH2 0xE47 JUMP JUMPDEST PUSH1 0x40 DUP3 ADD SWAP1 POP SWAP2 SWAP1 POP JUMP JUMPDEST PUSH1 0x0 PUSH1 0x20 DUP3 ADD SWAP1 POP DUP2 DUP2 SUB PUSH1 0x0 DUP4 ADD MSTORE PUSH2 0xED2 DUP2 PUSH2 0xE96 JUMP JUMPDEST SWAP1 POP SWAP2 SWAP1 POP JUMP JUMPDEST PUSH32 0x4F776E61626C653A2063616C6C6572206973206E6F7420746865206F776E6572 PUSH1 0x0 DUP3 ADD MSTORE POP JUMP JUMPDEST PUSH1 0x0 PUSH2 0xF0F PUSH1 0x20 DUP4 PUSH2 0xA7F JUMP JUMPDEST SWAP2 POP PUSH2 0xF1A DUP3 PUSH2 0xED9 JUMP JUMPDEST PUSH1 0x20 DUP3 ADD SWAP1 POP SWAP2 SWAP1 POP JUMP JUMPDEST PUSH1 0x0 PUSH1 0x20 DUP3 ADD SWAP1 POP DUP2 DUP2 SUB PUSH1 0x0 DUP4 ADD MSTORE PUSH2 0xF3E DUP2 PUSH2 0xF02 JUMP JUMPDEST SWAP1 POP SWAP2 SWAP1 POP JUMP INVALID LOG2 PUSH5 0x6970667358 0x22 SLT KECCAK256 0x2F PUSH19 0x92302500C1DE98FA379FFB5B716D4923AFDCFA 0x2C DIV 0xB6 0xC6 0x49 SWAP3 ADDMOD CALLCODE 0xB2 PUSH21 0xA964736F6C63430008120033000000000000000000 "
				},
				"gasEstimates": {
					"creation": {
						"codeDepositCost": "482200",
						"executionCost": "infinite",
						"totalCost": "infinite"
					},
					"external": {
						"addProduce(bytes32,uint256,uint256,uint256)": "infinite",
						"farmerList(address)": "2867",
						"removeProduce(address)": "infinite"
					}
				},
				"methodIdentifiers": {
					"addProduce(bytes32,uint256,uint256,uint256)": "952a0d60",
					"farmerList(address)": "a1d861a9",
					"removeProduce(address)": "7b6833c3"
				}
			},
			"storageLayout": {
				"storage": [
					{
						"astId": 223,
						"contract": "contracts/Market.sol:Market",
						"label": "produceAddresses",
						"offset": 0,
						"slot": "0",
						"type": "t_array(t_address)dyn_storage"
					},
					{
						"astId": 227,
						"contract": "contracts/Market.sol:Market",
						"label": "produceList",
						"offset": 0,
						"slot": "1",
						"type": "t_mapping(t_address,t_bool)"
					},
					{
						"astId": 231,
						"contract": "contracts/Market.sol:Market",
						"label": "farmerList",
						"offset": 0,
						"slot": "2",
						"type": "t_mapping(t_address,t_bool)"
					}
				],
				"types": {
					"t_address": {
						"encoding": "inplace",
						"label": "address",
						"numberOfBytes": "20"
					},
					"t_array(t_address)dyn_storage": {
						"base": "t_address",
						"encoding": "dynamic_array",
						"label": "address[]",
						"numberOfBytes": "32"
					},
					"t_bool": {
						"encoding": "inplace",
						"label": "bool",
						"numberOfBytes": "1"
					},
					"t_mapping(t_address,t_bool)": {
						"encoding": "mapping",
						"key": "t_address",
						"label": "mapping(address => bool)",
						"numberOfBytes": "32",
						"value": "t_bool"
					}
				}
			},
			"userdoc": {
				"kind": "user",
				"methods": {},
				"version": 1
			}
		}
	}
}